{
  "contractName": "OcdSwap",
  "abi": [
    {
      "inputs": [],
      "stateMutability": "nonpayable",
      "type": "constructor"
    },
    {
      "inputs": [],
      "name": "uniswapRouter",
      "outputs": [
        {
          "internalType": "contract IUniswapV2Router02",
          "name": "",
          "type": "address"
        }
      ],
      "stateMutability": "view",
      "type": "function",
      "constant": true
    },
    {
      "stateMutability": "payable",
      "type": "receive",
      "payable": true
    },
    {
      "inputs": [
        {
          "internalType": "address",
          "name": "_tokenOut",
          "type": "address"
        },
        {
          "internalType": "uint256",
          "name": "_amountOutMin",
          "type": "uint256"
        },
        {
          "internalType": "uint256",
          "name": "_deadline",
          "type": "uint256"
        }
      ],
      "name": "swapFromETH",
      "outputs": [],
      "stateMutability": "payable",
      "type": "function",
      "payable": true
    },
    {
      "inputs": [
        {
          "internalType": "address",
          "name": "_tokenIn",
          "type": "address"
        },
        {
          "internalType": "uint256",
          "name": "_amountIn",
          "type": "uint256"
        },
        {
          "internalType": "uint256",
          "name": "_amountOutMin",
          "type": "uint256"
        },
        {
          "internalType": "uint256",
          "name": "_deadline",
          "type": "uint256"
        }
      ],
      "name": "swapToETH",
      "outputs": [],
      "stateMutability": "nonpayable",
      "type": "function"
    },
    {
      "inputs": [
        {
          "internalType": "address",
          "name": "_tokenIn",
          "type": "address"
        },
        {
          "internalType": "uint256",
          "name": "_amountIn",
          "type": "uint256"
        },
        {
          "internalType": "address",
          "name": "_tokenOut",
          "type": "address"
        },
        {
          "internalType": "uint256",
          "name": "_amountOutMin",
          "type": "uint256"
        },
        {
          "internalType": "uint256",
          "name": "_deadline",
          "type": "uint256"
        }
      ],
      "name": "swapForERC20",
      "outputs": [],
      "stateMutability": "nonpayable",
      "type": "function"
    },
    {
      "inputs": [
        {
          "internalType": "uint256",
          "name": "nftID",
          "type": "uint256"
        }
      ],
      "name": "swapPNFTtoOCAT",
      "outputs": [],
      "stateMutability": "nonpayable",
      "type": "function"
    }
  ],
  "bytecode": "0x608060405234801561001057600080fd5b50737a250d5630b4cf539739df2c5dacb4c659f2488d6000806101000a81548173ffffffffffffffffffffffffffffffffffffffff021916908373ffffffffffffffffffffffffffffffffffffffff160217905550612415806100746000396000f3fe60806040526004361061004e5760003560e01c8063735de9f71461005a5780638b92f59d14610085578063ca534211146100ae578063cad77511146100ca578063fafbed4d146100f357610055565b3661005557005b600080fd5b34801561006657600080fd5b5061006f61011c565b60405161007c9190611d6a565b60405180910390f35b34801561009157600080fd5b506100ac60048036038101906100a791906119e0565b610140565b005b6100c860048036038101906100c39190611991565b6105f6565b005b3480156100d657600080fd5b506100f160048036038101906100ec9190611aad565b6108af565b005b3480156100ff57600080fd5b5061011a6004803603810190610115919061191a565b610a85565b005b60008054906101000a900473ffffffffffffffffffffffffffffffffffffffff1681565b600084905060008173ffffffffffffffffffffffffffffffffffffffff1663dd62ed3e33306040518363ffffffff1660e01b8152600401610182929190611ce1565b60206040518083038186803b15801561019a57600080fd5b505afa1580156101ae573d6000803e3d6000fd5b505050506040513d601f19601f820116820180604052508101906101d29190611ad6565b905060006101df82610fab565b90506102036040518060600160405280603581526020016123ab6035913982611158565b905085821015819061024b576040517f08c379a00000000000000000000000000000000000000000000000000000000081526004016102429190611d85565b60405180910390fd5b506102588733308961119c565b8273ffffffffffffffffffffffffffffffffffffffff1663095ea7b3737a250d5630b4cf539739df2c5dacb4c659f2488d886040518363ffffffff1660e01b81526004016102a7929190611d41565b602060405180830381600087803b1580156102c157600080fd5b505af11580156102d5573d6000803e3d6000fd5b505050506040513d601f19601f820116820180604052508101906102f99190611a84565b610338576040517f08c379a000000000000000000000000000000000000000000000000000000000815260040161032f90611de7565b60405180910390fd5b6000600267ffffffffffffffff81111561037b577f4e487b7100000000000000000000000000000000000000000000000000000000600052604160045260246000fd5b6040519080825280602002602001820160405280156103a95781602001602082028036833780820191505090505b50905087816000815181106103e7577f4e487b7100000000000000000000000000000000000000000000000000000000600052603260045260246000fd5b602002602001019073ffffffffffffffffffffffffffffffffffffffff16908173ffffffffffffffffffffffffffffffffffffffff168152505060008054906101000a900473ffffffffffffffffffffffffffffffffffffffff1673ffffffffffffffffffffffffffffffffffffffff1663ad5c46486040518163ffffffff1660e01b815260040160206040518083038186803b15801561048757600080fd5b505afa15801561049b573d6000803e3d6000fd5b505050506040513d601f19601f820116820180604052508101906104bf91906118f1565b816001815181106104f9577f4e487b7100000000000000000000000000000000000000000000000000000000600052603260045260246000fd5b602002602001019073ffffffffffffffffffffffffffffffffffffffff16908173ffffffffffffffffffffffffffffffffffffffff168152505060008054906101000a900473ffffffffffffffffffffffffffffffffffffffff1673ffffffffffffffffffffffffffffffffffffffff166318cbafe5888884338a6040518663ffffffff1660e01b8152600401610594959493929190611e93565b600060405180830381600087803b1580156105ae57600080fd5b505af11580156105c2573d6000803e3d6000fd5b505050506040513d6000823e3d601f19601f820116820180604052508101906105eb9190611a43565b505050505050505050565b6000600267ffffffffffffffff811115610639577f4e487b7100000000000000000000000000000000000000000000000000000000600052604160045260246000fd5b6040519080825280602002602001820160405280156106675781602001602082028036833780820191505090505b50905060008054906101000a900473ffffffffffffffffffffffffffffffffffffffff1673ffffffffffffffffffffffffffffffffffffffff1663ad5c46486040518163ffffffff1660e01b815260040160206040518083038186803b1580156106d057600080fd5b505afa1580156106e4573d6000803e3d6000fd5b505050506040513d601f19601f8201168201806040525081019061070891906118f1565b81600081518110610742577f4e487b7100000000000000000000000000000000000000000000000000000000600052603260045260246000fd5b602002602001019073ffffffffffffffffffffffffffffffffffffffff16908173ffffffffffffffffffffffffffffffffffffffff168152505083816001815181106107b7577f4e487b7100000000000000000000000000000000000000000000000000000000600052603260045260246000fd5b602002602001019073ffffffffffffffffffffffffffffffffffffffff16908173ffffffffffffffffffffffffffffffffffffffff168152505060008054906101000a900473ffffffffffffffffffffffffffffffffffffffff1673ffffffffffffffffffffffffffffffffffffffff16637ff36ab534858433876040518663ffffffff1660e01b81526004016108519493929190611e47565b6000604051808303818588803b15801561086a57600080fd5b505af115801561087e573d6000803e3d6000fd5b50505050506040513d6000823e3d601f19601f820116820180604052508101906108a89190611a43565b5050505050565b3073ffffffffffffffffffffffffffffffffffffffff163373ffffffffffffffffffffffffffffffffffffffff16141561091e576040517f08c379a000000000000000000000000000000000000000000000000000000000815260040161091590611dc7565b60405180910390fd5b600073ffffffffffffffffffffffffffffffffffffffff163373ffffffffffffffffffffffffffffffffffffffff16141561098e576040517f08c379a000000000000000000000000000000000000000000000000000000000815260040161098590611e07565b60405180910390fd5b600081116109d1576040517f08c379a00000000000000000000000000000000000000000000000000000000081526004016109c890611da7565b60405180910390fd5b600067016345785d8a000090506109fe735fc6a5e6592351071645f6d7b492222790f0e43530338461119c565b733cf931676bd9b970f4b29b9d9e7f7891b632d32673ffffffffffffffffffffffffffffffffffffffff166342842e0e3330856040518463ffffffff1660e01b8152600401610a4f93929190611d0a565b600060405180830381600087803b158015610a6957600080fd5b505af1158015610a7d573d6000803e3d6000fd5b505050505050565b60008573ffffffffffffffffffffffffffffffffffffffff1663dd62ed3e33306040518363ffffffff1660e01b8152600401610ac2929190611ce1565b60206040518083038186803b158015610ada57600080fd5b505afa158015610aee573d6000803e3d6000fd5b505050506040513d601f19601f82011682018060405250810190610b129190611ad6565b90506000610b1f82610fab565b9050610b436040518060600160405280603581526020016123ab6035913982611158565b9050858210158190610b8b576040517f08c379a0000000000000000000000000000000000000000000000000000000008152600401610b829190611d85565b60405180910390fd5b50610b988733308961119c565b8673ffffffffffffffffffffffffffffffffffffffff1663095ea7b3737a250d5630b4cf539739df2c5dacb4c659f2488d886040518363ffffffff1660e01b8152600401610be7929190611d41565b602060405180830381600087803b158015610c0157600080fd5b505af1158015610c15573d6000803e3d6000fd5b505050506040513d601f19601f82011682018060405250810190610c399190611a84565b610c78576040517f08c379a0000000000000000000000000000000000000000000000000000000008152600401610c6f90611de7565b60405180910390fd5b6000600367ffffffffffffffff811115610cbb577f4e487b7100000000000000000000000000000000000000000000000000000000600052604160045260246000fd5b604051908082528060200260200182016040528015610ce95781602001602082028036833780820191505090505b5090508781600081518110610d27577f4e487b7100000000000000000000000000000000000000000000000000000000600052603260045260246000fd5b602002602001019073ffffffffffffffffffffffffffffffffffffffff16908173ffffffffffffffffffffffffffffffffffffffff168152505060008054906101000a900473ffffffffffffffffffffffffffffffffffffffff1673ffffffffffffffffffffffffffffffffffffffff1663ad5c46486040518163ffffffff1660e01b815260040160206040518083038186803b158015610dc757600080fd5b505afa158015610ddb573d6000803e3d6000fd5b505050506040513d601f19601f82011682018060405250810190610dff91906118f1565b81600181518110610e39577f4e487b7100000000000000000000000000000000000000000000000000000000600052603260045260246000fd5b602002602001019073ffffffffffffffffffffffffffffffffffffffff16908173ffffffffffffffffffffffffffffffffffffffff16815250508581600281518110610eae577f4e487b7100000000000000000000000000000000000000000000000000000000600052603260045260246000fd5b602002602001019073ffffffffffffffffffffffffffffffffffffffff16908173ffffffffffffffffffffffffffffffffffffffff168152505060008054906101000a900473ffffffffffffffffffffffffffffffffffffffff1673ffffffffffffffffffffffffffffffffffffffff166338ed173988878433896040518663ffffffff1660e01b8152600401610f49959493929190611e93565b600060405180830381600087803b158015610f6357600080fd5b505af1158015610f77573d6000803e3d6000fd5b505050506040513d6000823e3d601f19601f82011682018060405250810190610fa09190611a43565b505050505050505050565b60606000821415610ff3576040518060400160405280600181526020017f30000000000000000000000000000000000000000000000000000000000000008152509050611153565b600082905060005b6000821461102557808061100e90612134565b915050600a8261101e9190611fff565b9150610ffb565b60008167ffffffffffffffff811115611067577f4e487b7100000000000000000000000000000000000000000000000000000000600052604160045260246000fd5b6040519080825280601f01601f1916602001820160405280156110995781602001600182028036833780820191505090505b5090505b6000851461114c576001826110b29190612030565b9150600a856110c1919061217d565b60306110cd9190611fa9565b60f81b818381518110611109577f4e487b7100000000000000000000000000000000000000000000000000000000600052603260045260246000fd5b60200101907effffffffffffffffffffffffffffffffffffffffffffffffffffffffffffff1916908160001a905350600a856111459190611fff565b945061109d565b8093505050505b919050565b606061119483836040518060200160405280600081525060405180602001604052806000815250604051806020016040528060008152506112d5565b905092915050565b6000808573ffffffffffffffffffffffffffffffffffffffff166323b872dd8686866040516024016111d093929190611d0a565b6040516020818303038152906040529060e01b6020820180517bffffffffffffffffffffffffffffffffffffffffffffffffffffffff838183161783525050505060405161121e9190611cca565b6000604051808303816000865af19150503d806000811461125b576040519150601f19603f3d011682016040523d82523d6000602084013e611260565b606091505b509150915081801561128e575060008151148061128d57508080602001905181019061128c9190611a84565b5b5b6112cd576040517f08c379a00000000000000000000000000000000000000000000000000000000081526004016112c490611e27565b60405180910390fd5b505050505050565b6060600086905060008690506000869050600086905060008690506000815183518551875189516113069190611fa9565b6113109190611fa9565b61131a9190611fa9565b6113249190611fa9565b67ffffffffffffffff811115611363577f4e487b7100000000000000000000000000000000000000000000000000000000600052604160045260246000fd5b6040519080825280601f01601f1916602001820160405280156113955781602001600182028036833780820191505090505b5090506000819050600080600091505b8851821015611479578882815181106113e7577f4e487b7100000000000000000000000000000000000000000000000000000000600052603260045260246000fd5b602001015160f81c60f81b8382806113fe90612134565b935081518110611437577f4e487b7100000000000000000000000000000000000000000000000000000000600052603260045260246000fd5b60200101907effffffffffffffffffffffffffffffffffffffffffffffffffffffffffffff1916908160001a905350818061147190612134565b9250506113a5565b600091505b8751821015611552578782815181106114c0577f4e487b7100000000000000000000000000000000000000000000000000000000600052603260045260246000fd5b602001015160f81c60f81b8382806114d790612134565b935081518110611510577f4e487b7100000000000000000000000000000000000000000000000000000000600052603260045260246000fd5b60200101907effffffffffffffffffffffffffffffffffffffffffffffffffffffffffffff1916908160001a905350818061154a90612134565b92505061147e565b600091505b865182101561162b57868281518110611599577f4e487b7100000000000000000000000000000000000000000000000000000000600052603260045260246000fd5b602001015160f81c60f81b8382806115b090612134565b9350815181106115e9577f4e487b7100000000000000000000000000000000000000000000000000000000600052603260045260246000fd5b60200101907effffffffffffffffffffffffffffffffffffffffffffffffffffffffffffff1916908160001a905350818061162390612134565b925050611557565b600091505b855182101561170457858281518110611672577f4e487b7100000000000000000000000000000000000000000000000000000000600052603260045260246000fd5b602001015160f81c60f81b83828061168990612134565b9350815181106116c2577f4e487b7100000000000000000000000000000000000000000000000000000000600052603260045260246000fd5b60200101907effffffffffffffffffffffffffffffffffffffffffffffffffffffffffffff1916908160001a90535081806116fc90612134565b925050611630565b600091505b84518210156117dd5784828151811061174b577f4e487b7100000000000000000000000000000000000000000000000000000000600052603260045260246000fd5b602001015160f81c60f81b83828061176290612134565b93508151811061179b577f4e487b7100000000000000000000000000000000000000000000000000000000600052603260045260246000fd5b60200101907effffffffffffffffffffffffffffffffffffffffffffffffffffffffffffff1916908160001a90535081806117d590612134565b925050611709565b82995050505050505050505095945050505050565b600061180561180084611f12565b611eed565b9050808382526020820190508285602086028201111561182457600080fd5b60005b85811015611854578161183a88826118dc565b845260208401935060208301925050600181019050611827565b5050509392505050565b60008135905061186d81612365565b92915050565b60008151905061188281612365565b92915050565b600082601f83011261189957600080fd5b81516118a98482602086016117f2565b91505092915050565b6000815190506118c18161237c565b92915050565b6000813590506118d681612393565b92915050565b6000815190506118eb81612393565b92915050565b60006020828403121561190357600080fd5b600061191184828501611873565b91505092915050565b600080600080600060a0868803121561193257600080fd5b60006119408882890161185e565b9550506020611951888289016118c7565b94505060406119628882890161185e565b9350506060611973888289016118c7565b9250506080611984888289016118c7565b9150509295509295909350565b6000806000606084860312156119a657600080fd5b60006119b48682870161185e565b93505060206119c5868287016118c7565b92505060406119d6868287016118c7565b9150509250925092565b600080600080608085870312156119f657600080fd5b6000611a048782880161185e565b9450506020611a15878288016118c7565b9350506040611a26878288016118c7565b9250506060611a37878288016118c7565b91505092959194509250565b600060208284031215611a5557600080fd5b600082015167ffffffffffffffff811115611a6f57600080fd5b611a7b84828501611888565b91505092915050565b600060208284031215611a9657600080fd5b6000611aa4848285016118b2565b91505092915050565b600060208284031215611abf57600080fd5b6000611acd848285016118c7565b91505092915050565b600060208284031215611ae857600080fd5b6000611af6848285016118dc565b91505092915050565b6000611b0b8383611b17565b60208301905092915050565b611b2081612064565b82525050565b611b2f81612064565b82525050565b6000611b4082611f4e565b611b4a8185611f7c565b9350611b5583611f3e565b8060005b83811015611b86578151611b6d8882611aff565b9750611b7883611f6f565b925050600181019050611b59565b5085935050505092915050565b6000611b9e82611f59565b611ba88185611f8d565b9350611bb88185602086016120d0565b80840191505092915050565b611bcd816120ac565b82525050565b6000611bde82611f64565b611be88185611f98565b9350611bf88185602086016120d0565b611c018161223b565b840191505092915050565b6000611c19602083611f98565b9150611c248261224c565b602082019050919050565b6000611c3c604083611f98565b9150611c4782612275565b604082019050919050565b6000611c5f601e83611f98565b9150611c6a826122c4565b602082019050919050565b6000611c82602083611f98565b9150611c8d826122ed565b602082019050919050565b6000611ca5602483611f98565b9150611cb082612316565b604082019050919050565b611cc4816120a2565b82525050565b6000611cd68284611b93565b915081905092915050565b6000604082019050611cf66000830185611b26565b611d036020830184611b26565b9392505050565b6000606082019050611d1f6000830186611b26565b611d2c6020830185611b26565b611d396040830184611cbb565b949350505050565b6000604082019050611d566000830185611b26565b611d636020830184611cbb565b9392505050565b6000602082019050611d7f6000830184611bc4565b92915050565b60006020820190508181036000830152611d9f8184611bd3565b905092915050565b60006020820190508181036000830152611dc081611c0c565b9050919050565b60006020820190508181036000830152611de081611c2f565b9050919050565b60006020820190508181036000830152611e0081611c52565b9050919050565b60006020820190508181036000830152611e2081611c75565b9050919050565b60006020820190508181036000830152611e4081611c98565b9050919050565b6000608082019050611e5c6000830187611cbb565b8181036020830152611e6e8186611b35565b9050611e7d6040830185611b26565b611e8a6060830184611cbb565b95945050505050565b600060a082019050611ea86000830188611cbb565b611eb56020830187611cbb565b8181036040830152611ec78186611b35565b9050611ed66060830185611b26565b611ee36080830184611cbb565b9695505050505050565b6000611ef7611f08565b9050611f038282612103565b919050565b6000604051905090565b600067ffffffffffffffff821115611f2d57611f2c61220c565b5b602082029050602081019050919050565b6000819050602082019050919050565b600081519050919050565b600081519050919050565b600081519050919050565b6000602082019050919050565b600082825260208201905092915050565b600081905092915050565b600082825260208201905092915050565b6000611fb4826120a2565b9150611fbf836120a2565b9250827fffffffffffffffffffffffffffffffffffffffffffffffffffffffffffffffff03821115611ff457611ff36121ae565b5b828201905092915050565b600061200a826120a2565b9150612015836120a2565b925082612025576120246121dd565b5b828204905092915050565b600061203b826120a2565b9150612046836120a2565b925082821015612059576120586121ae565b5b828203905092915050565b600061206f82612082565b9050919050565b60008115159050919050565b600073ffffffffffffffffffffffffffffffffffffffff82169050919050565b6000819050919050565b60006120b7826120be565b9050919050565b60006120c982612082565b9050919050565b60005b838110156120ee5780820151818401526020810190506120d3565b838111156120fd576000848401525b50505050565b61210c8261223b565b810181811067ffffffffffffffff8211171561212b5761212a61220c565b5b80604052505050565b600061213f826120a2565b91507fffffffffffffffffffffffffffffffffffffffffffffffffffffffffffffffff821415612172576121716121ae565b5b600182019050919050565b6000612188826120a2565b9150612193836120a2565b9250826121a3576121a26121dd565b5b828206905092915050565b7f4e487b7100000000000000000000000000000000000000000000000000000000600052601160045260246000fd5b7f4e487b7100000000000000000000000000000000000000000000000000000000600052601260045260246000fd5b7f4e487b7100000000000000000000000000000000000000000000000000000000600052604160045260246000fd5b6000601f19601f8301169050919050565b7f73776170504e4654746f4f43415428293a20496e76616c6964204e4654204944600082015250565b7f73776170504e4654746f4f43415428293a204572726f723a2043616c6c65722060008201527f636f756c646e27742062652073616d6520746f20746869732061646472657373602082015250565b7f617070726f766520666f722074686520726f75746572206661696c65642e0000600082015250565b7f73776170504e4654746f4f43415428293a20496e76616c69642063616c6c6572600082015250565b7f5472616e7366657248656c7065723a205452414e534645525f46524f4d5f464160008201527f494c454400000000000000000000000000000000000000000000000000000000602082015250565b61236e81612064565b811461237957600080fd5b50565b61238581612076565b811461239057600080fd5b50565b61239c816120a2565b81146123a757600080fd5b5056fe4e6f7420656e6f75676820616c6c6f77616e636520666f722074686520455243323020746f6b656e2e20616c6c6f77616e63653a20a2646970667358221220979669d9dd3e16180dbda85c65d5faaddae3eb3d0fa15db0c4934c80475da3e764736f6c63430008040033",
  "immutableReferences": {},
  "source": "// SPDX-License-Identifier: MIT\npragma solidity ^0.8.0;\n\n// https://soliditydeveloper.com/uniswap2\n// https://docs.uniswap.org/protocol/V2/guides/smart-contract-integration/trading-from-a-smart-contract\n// https://ethereum.org/ru/developers/tutorials/transfers-and-approval-of-erc-20-tokens-from-a-solidity-smart-contract/\n// https://solidity-by-example.org/app/erc20/\n\nimport \"@uniswap/v2-periphery/contracts/interfaces/IUniswapV2Router02.sol\";\nimport '@uniswap/lib/contracts/libraries/TransferHelper.sol';\nimport \"@openzeppelin/contracts/token/ERC20/IERC20.sol\"; // openzeppelin 4.5 (for solidity 0.8.x)\nimport \"@openzeppelin/contracts/utils/Strings.sol\";\nimport \"@openzeppelin/contracts/token/ERC721/IERC721.sol\";\n\ncontract OcdSwap {\n\n    address private constant UNISWAP_ROUTER_ADDRESS = 0x7a250d5630B4cF539739dF2C5dAcb4c659F2488D;\n    address private constant PNFT_ADDRESS = 0x3cf931676bD9B970f4B29b9d9E7F7891B632d326;\n    address private constant OCAT_ADDRESS = 0x5FC6a5e6592351071645F6d7b492222790F0e435;\n\n    IUniswapV2Router02 public uniswapRouter;\n\n    receive() external payable {}\n\n    function strConcat(\n            string memory _a, \n            string memory _b, \n            string memory _c, \n            string memory _d, \n            string memory _e\n    ) internal view returns (string memory){\n        bytes memory _ba = bytes(_a);\n        bytes memory _bb = bytes(_b);\n        bytes memory _bc = bytes(_c);\n        bytes memory _bd = bytes(_d);\n        bytes memory _be = bytes(_e);\n        string memory abcde = new string(_ba.length + _bb.length + _bc.length + _bd.length + _be.length);\n        bytes memory babcde = bytes(abcde);\n\n        uint i = 0;\n        uint k = 0;\n\n        for (i = 0; i < _ba.length; i++) babcde[k++] = _ba[i];\n        for (i = 0; i < _bb.length; i++) babcde[k++] = _bb[i];\n        for (i = 0; i < _bc.length; i++) babcde[k++] = _bc[i];\n        for (i = 0; i < _bd.length; i++) babcde[k++] = _bd[i];\n        for (i = 0; i < _be.length; i++) babcde[k++] = _be[i];\n        return string(babcde);\n    }\n\n    function strConcat(\n            string memory _a, \n            string memory _b, \n            string memory _c, \n            string memory _d\n    ) internal view returns (string memory) {\n        return strConcat(_a, _b, _c, _d, \"\");\n    }\n\n    function strConcat(\n            string memory _a, \n            string memory _b, \n            string memory _c\n    ) internal view returns (string memory) {\n        return strConcat(_a, _b, _c, \"\", \"\");\n    }\n\n    function strConcat(\n            string memory _a, \n            string memory _b\n    ) internal view returns (string memory) {\n        return strConcat(_a, _b, \"\", \"\", \"\");\n    }\n\n    constructor() {\n        uniswapRouter = IUniswapV2Router02(UNISWAP_ROUTER_ADDRESS);\n    }\n\n    function swapFromETH(\n        address _tokenOut,\n        uint _amountOutMin,\n        uint _deadline\n    ) public payable {\n        // uint deadline = block.timestamp + 15; // using 'now' for convenience, for mainnet pass deadline from frontend!\n        address[] memory path = new address[](2);\n        path[0] = uniswapRouter.WETH();\n        path[1] = address(_tokenOut);\n        uniswapRouter.swapExactETHForTokens{value: msg.value}(_amountOutMin, path, msg.sender, _deadline);\n    }\n\n    function swapToETH(\n        address _tokenIn,\n        uint _amountIn,\n        uint _amountOutMin,\n        uint _deadline\n    ) public {\n        // transferFrom\n        IERC20 sellTokenContract = IERC20(_tokenIn);\n        //     Check for allowance\n        uint256 allowance = sellTokenContract.allowance(msg.sender, address(this));\n        string memory errorText = Strings.toString(allowance);\n        errorText = strConcat(\"Not enough allowance for the ERC20 token. allowance: \", errorText);\n        require(allowance >= _amountIn, errorText);\n        //     Do transferFrom\n        TransferHelper.safeTransferFrom(_tokenIn, msg.sender, address(this), _amountIn);\n\n        // approve\n        require(sellTokenContract.approve(address(UNISWAP_ROUTER_ADDRESS), _amountIn), 'approve for the router failed.');\n\n        address[] memory path = new address[](2);\n        path[0] = address(_tokenIn);\n        path[1] = uniswapRouter.WETH();\n        uniswapRouter.swapExactTokensForETH(_amountIn, _amountOutMin, path, msg.sender, _deadline);\n    }\n\n    function swapForERC20(\n        address _tokenIn,\n        uint _amountIn,\n        address _tokenOut,\n        uint _amountOutMin,\n        uint _deadline\n    ) public {\n        // transferFrom\n        //    Check for allowance\n        uint256 allowance = IERC20(_tokenIn).allowance(msg.sender, address(this));\n        string memory errorText = Strings.toString(allowance);\n        errorText = strConcat(\"Not enough allowance for the ERC20 token. allowance: \", errorText);\n        require(allowance >= _amountIn, errorText);\n        //     Do transferFrom\n        TransferHelper.safeTransferFrom(_tokenIn, msg.sender, address(this), _amountIn);\n\n        // approve\n        require(\n            IERC20(_tokenIn).approve(address(UNISWAP_ROUTER_ADDRESS), _amountIn), \n            'approve for the router failed.'\n        );\n\n        address[] memory path = new address[](3);\n        path[0] = _tokenIn;\n        path[1] = uniswapRouter.WETH();\n        path[2] = _tokenOut;\n        uniswapRouter.swapExactTokensForTokens(_amountIn, _amountOutMin, path, msg.sender, _deadline);\n    }\n\n    function swapPNFTtoOCAT(uint256 nftID) public {\n        require(msg.sender != address(this), \"swapPNFTtoOCAT(): Error: Caller couldn't be same to this address\");\n        require(msg.sender != address(0), \"swapPNFTtoOCAT(): Invalid caller\");\n        require(nftID > 0, \"swapPNFTtoOCAT(): Invalid NFT ID\");\n        // Pay OCAT for the NFT\n        //   First get price for the NFT\n        uint256 price = 100000000000000000;\n        //   Then transfer OCATs from the address to caller\n        TransferHelper.safeTransferFrom(OCAT_ADDRESS, address(this), msg.sender, price);\n        // safeTransferFrom: send NFT from caller to the address\n        IERC721(PNFT_ADDRESS).safeTransferFrom(msg.sender, address(this), nftID);\n    }\n}\n",
  "sourcePath": "/home/vn/MyProjects/OpenchainDex/OpenchainTestVersion/server/contracts/OcdSwap.sol",
  "compiler": {
    "name": "solc",
    "version": "0.8.4+commit.c7e474f2.Emscripten.clang"
  },
  "schemaVersion": "3.4.4",
  "updatedAt": "2022-03-21T02:10:58.627Z",
  "networkType": "ethereum",
  "devdoc": {
    "kind": "dev",
    "methods": {},
    "version": 1
  },
  "userdoc": {
    "kind": "user",
    "methods": {},
    "version": 1
  }
}