{
  "contractName": "AdministratedContract",
  "abi": [
    {
      "inputs": [],
      "stateMutability": "nonpayable",
      "type": "constructor"
    },
    {
      "inputs": [
        {
          "internalType": "address",
          "name": "_admin",
          "type": "address"
        }
      ],
      "name": "addAdmin",
      "outputs": [],
      "stateMutability": "nonpayable",
      "type": "function"
    },
    {
      "inputs": [],
      "name": "getAdmins",
      "outputs": [
        {
          "internalType": "address[]",
          "name": "",
          "type": "address[]"
        }
      ],
      "stateMutability": "view",
      "type": "function"
    }
  ],
  "bytecode": "0x608060405234801561001057600080fd5b5033600160006101000a81548173ffffffffffffffffffffffffffffffffffffffff021916908373ffffffffffffffffffffffffffffffffffffffff16021790555061071e806100616000396000f3fe608060405234801561001057600080fd5b50600436106100365760003560e01c806331ae450b1461003b5780637048027514610059575b600080fd5b610043610075565b60405161005091906104f2565b60405180910390f35b610073600480360381019061006e91906103db565b610103565b005b606060008054806020026020016040519081016040528092919081815260200182805480156100f957602002820191906000526020600020905b8160009054906101000a900473ffffffffffffffffffffffffffffffffffffffff1673ffffffffffffffffffffffffffffffffffffffff16815260200190600101908083116100af575b5050505050905090565b600073ffffffffffffffffffffffffffffffffffffffff16600160009054906101000a900473ffffffffffffffffffffffffffffffffffffffff1673ffffffffffffffffffffffffffffffffffffffff161415610195576040517f08c379a000000000000000000000000000000000000000000000000000000000815260040161018c90610534565b60405180910390fd5b600160009054906101000a900473ffffffffffffffffffffffffffffffffffffffff1673ffffffffffffffffffffffffffffffffffffffff163373ffffffffffffffffffffffffffffffffffffffff1614610225576040517f08c379a000000000000000000000000000000000000000000000000000000000815260040161021c90610514565b60405180910390fd5b80600073ffffffffffffffffffffffffffffffffffffffff168173ffffffffffffffffffffffffffffffffffffffff161415610296576040517f08c379a000000000000000000000000000000000000000000000000000000000815260040161028d90610554565b60405180910390fd5b60005b6000805490508160ff16101561035d5760008160ff16815481106102e6577f4e487b7100000000000000000000000000000000000000000000000000000000600052603260045260246000fd5b9060005260206000200160009054906101000a900473ffffffffffffffffffffffffffffffffffffffff1673ffffffffffffffffffffffffffffffffffffffff168373ffffffffffffffffffffffffffffffffffffffff16141561034a57506103c2565b8080610355906105fd565b915050610299565b506000829080600181540180825580915050600190039060005260206000200160009091909190916101000a81548173ffffffffffffffffffffffffffffffffffffffff021916908373ffffffffffffffffffffffffffffffffffffffff1602179055505b5050565b6000813590506103d5816106d1565b92915050565b6000602082840312156103ed57600080fd5b60006103fb848285016103c6565b91505092915050565b6000610410838361041c565b60208301905092915050565b610425816105be565b82525050565b600061043682610584565b610440818561059c565b935061044b83610574565b8060005b8381101561047c5781516104638882610404565b975061046e8361058f565b92505060018101905061044f565b5085935050505092915050565b6000610496601e836105ad565b91506104a182610656565b602082019050919050565b60006104b96017836105ad565b91506104c48261067f565b602082019050919050565b60006104dc6019836105ad565b91506104e7826106a8565b602082019050919050565b6000602082019050818103600083015261050c818461042b565b905092915050565b6000602082019050818103600083015261052d81610489565b9050919050565b6000602082019050818103600083015261054d816104ac565b9050919050565b6000602082019050818103600083015261056d816104cf565b9050919050565b6000819050602082019050919050565b600081519050919050565b6000602082019050919050565b600082825260208201905092915050565b600082825260208201905092915050565b60006105c9826105d0565b9050919050565b600073ffffffffffffffffffffffffffffffffffffffff82169050919050565b600060ff82169050919050565b6000610608826105f0565b915060ff82141561061c5761061b610627565b5b600182019050919050565b7f4e487b7100000000000000000000000000000000000000000000000000000000600052601160045260246000fd5b7f466f722063616c6c65722065787065637465642062652063726561746f720000600082015250565b7f496e76616c69642063726561746f722061646472657373000000000000000000600082015250565b7f4578706563746564206e6f6e2d7a65726f206164647265737300000000000000600082015250565b6106da816105be565b81146106e557600080fd5b5056fea2646970667358221220784783e435a7d1355df459c2516d338cf5db757e55cc61d766fcd06263006f8f64736f6c63430008040033",
  "immutableReferences": {},
  "source": "// SPDX-License-Identifier: MIT\npragma solidity ^0.8.0;\n\ncontract AdministratedContract {\n    address[]       internal adminGroup;\n    address payable internal creator;\n\n    constructor() {\n        creator = payable(msg.sender);\n\t}\n\n    modifier mustNoneZeroAddress(address _address) virtual {\n        require(_address != address(0), \"Expected non-zero address\");\n        _;\n    }\n\n    modifier callerMustBeCreator virtual {\n        require(creator != address(0), \"Invalid creator address\");\n        require(msg.sender == creator, \"For caller expected be creator\");\n        _;\n    }\n\n    modifier callerMustBeAdmin virtual {\n        require(msg.sender != address(0), \"Invalid creator address\");\n        bool isInAdminGroup = false;\n        for (uint8 i = 0; i < adminGroup.length; i++) {\n            if (msg.sender == adminGroup[i]) {\n                isInAdminGroup = true;\n                break;\n            }\n        }\n        require(isInAdminGroup, \"Invalid caller. Must be admin\");\n        _;\n    }\n\n    function addAdmin(address _admin) public\n    callerMustBeCreator mustNoneZeroAddress(_admin) {\n        for (uint8 i = 0; i < adminGroup.length; i++) {\n            if (_admin == adminGroup[i]) {\n                return;\n            }\n        }\n        adminGroup.push(_admin);\n    }\n\n    function getAdmins() public view returns(address[] memory) {\n        return adminGroup;\n    }\n}",
  "sourcePath": "/home/cowboy/OpenchainTestVersion/server/contracts/AdministratedContract.sol",
  "compiler": {
    "name": "solc",
    "version": "0.8.4+commit.c7e474f2.Emscripten.clang"
  },
  "schemaVersion": "3.4.6",
  "updatedAt": "2022-04-11T15:37:25.864Z",
  "devdoc": {
    "kind": "dev",
    "methods": {},
    "version": 1
  },
  "userdoc": {
    "kind": "user",
    "methods": {},
    "version": 1
  }
}