{
  "contractName": "AdministratedContract",
  "abi": [
    {
      "inputs": [],
      "stateMutability": "nonpayable",
      "type": "constructor"
    },
    {
      "inputs": [
        {
          "internalType": "address",
          "name": "_admin",
          "type": "address"
        }
      ],
      "name": "addAdmin",
      "outputs": [],
      "stateMutability": "nonpayable",
      "type": "function"
    },
    {
      "inputs": [],
      "name": "getAdmins",
      "outputs": [
        {
          "internalType": "address[]",
          "name": "",
          "type": "address[]"
        }
      ],
      "stateMutability": "view",
      "type": "function"
    }
  ],
  "bytecode": "0x608060405234801561001057600080fd5b5033600160006101000a81548173ffffffffffffffffffffffffffffffffffffffff021916908373ffffffffffffffffffffffffffffffffffffffff1602179055506107d2806100616000396000f3fe608060405234801561001057600080fd5b50600436106100365760003560e01c806331ae450b1461003b5780637048027514610059575b600080fd5b610043610075565b604051610050919061055d565b60405180910390f35b610073600480360381019061006e9190610423565b610103565b005b606060008054806020026020016040519081016040528092919081815260200182805480156100f957602002820191906000526020600020905b8160009054906101000a900473ffffffffffffffffffffffffffffffffffffffff1673ffffffffffffffffffffffffffffffffffffffff16815260200190600101908083116100af575b5050505050905090565b600073ffffffffffffffffffffffffffffffffffffffff16600160009054906101000a900473ffffffffffffffffffffffffffffffffffffffff1673ffffffffffffffffffffffffffffffffffffffff161415610195576040517f08c379a000000000000000000000000000000000000000000000000000000000815260040161018c9061059f565b60405180910390fd5b600160009054906101000a900473ffffffffffffffffffffffffffffffffffffffff1673ffffffffffffffffffffffffffffffffffffffff163373ffffffffffffffffffffffffffffffffffffffff1614610225576040517f08c379a000000000000000000000000000000000000000000000000000000000815260040161021c9061057f565b60405180910390fd5b80600073ffffffffffffffffffffffffffffffffffffffff168173ffffffffffffffffffffffffffffffffffffffff161415610296576040517f08c379a000000000000000000000000000000000000000000000000000000000815260040161028d906105bf565b60405180910390fd5b6006600080549050106102de576040517f08c379a00000000000000000000000000000000000000000000000000000000081526004016102d5906105df565b60405180910390fd5b60005b6000805490508160ff1610156103a55760008160ff168154811061032e577f4e487b7100000000000000000000000000000000000000000000000000000000600052603260045260246000fd5b9060005260206000200160009054906101000a900473ffffffffffffffffffffffffffffffffffffffff1673ffffffffffffffffffffffffffffffffffffffff168373ffffffffffffffffffffffffffffffffffffffff161415610392575061040a565b808061039d90610688565b9150506102e1565b506000829080600181540180825580915050600190039060005260206000200160009091909190916101000a81548173ffffffffffffffffffffffffffffffffffffffff021916908373ffffffffffffffffffffffffffffffffffffffff1602179055505b5050565b60008135905061041d81610785565b92915050565b60006020828403121561043557600080fd5b60006104438482850161040e565b91505092915050565b60006104588383610464565b60208301905092915050565b61046d81610649565b82525050565b600061047e8261060f565b6104888185610627565b9350610493836105ff565b8060005b838110156104c45781516104ab888261044c565b97506104b68361061a565b925050600181019050610497565b5085935050505092915050565b60006104de601e83610638565b91506104e9826106e1565b602082019050919050565b6000610501601783610638565b915061050c8261070a565b602082019050919050565b6000610524601983610638565b915061052f82610733565b602082019050919050565b6000610547601383610638565b91506105528261075c565b602082019050919050565b600060208201905081810360008301526105778184610473565b905092915050565b60006020820190508181036000830152610598816104d1565b9050919050565b600060208201905081810360008301526105b8816104f4565b9050919050565b600060208201905081810360008301526105d881610517565b9050919050565b600060208201905081810360008301526105f88161053a565b9050919050565b6000819050602082019050919050565b600081519050919050565b6000602082019050919050565b600082825260208201905092915050565b600082825260208201905092915050565b60006106548261065b565b9050919050565b600073ffffffffffffffffffffffffffffffffffffffff82169050919050565b600060ff82169050919050565b60006106938261067b565b915060ff8214156106a7576106a66106b2565b5b600182019050919050565b7f4e487b7100000000000000000000000000000000000000000000000000000000600052601160045260246000fd5b7f466f722063616c6c65722065787065637465642062652063726561746f720000600082015250565b7f496e76616c69642063726561746f722061646472657373000000000000000000600082015250565b7f4578706563746564206e6f6e2d7a65726f206164647265737300000000000000600082015250565b7f41646d696e2067726f75702069732066756c6c00000000000000000000000000600082015250565b61078e81610649565b811461079957600080fd5b5056fea26469706673582212205cd89936df333db31c555801acc0b059b0dcfea20531e250203f6e59d14bf27264736f6c63430008040033",
  "immutableReferences": {},
  "source": "// SPDX-License-Identifier: MIT\npragma solidity ^0.8.0;\n\ncontract AdministratedContract {\n    address[]       internal adminGroup;\n    address payable internal creator;\n\n    constructor() {\n        creator = payable(msg.sender);\n\t}\n\n    modifier mustNoneZeroAddress(address _address) virtual {\n        require(_address != address(0), \"Expected non-zero address\");\n        _;\n    }\n\n    modifier onlyValidCaller virtual {\n        require(msg.sender != address(0), \"Expected non-zero address\");\n        _;\n    }\n\n    modifier onlyCreator virtual {\n        require(creator != address(0), \"Invalid creator address\");\n        require(msg.sender == creator, \"For caller expected be creator\");\n        _;\n    }\n\n    modifier onlyAdmin virtual {\n        require(msg.sender != address(0), \"Invalid creator address\");\n        bool isInAdminGroup = false;\n        for (uint8 i = 0; i < adminGroup.length; i++) {\n            if (msg.sender == adminGroup[i]) {\n                isInAdminGroup = true;\n                break;\n            }\n        }\n        require(isInAdminGroup, \"Invalid caller. Must be admin\");\n        _;\n    }\n\n    function addAdmin(address _admin) public virtual\n    onlyCreator mustNoneZeroAddress(_admin) {\n\n        require(adminGroup.length < 6, \"Admin group is full\");\n\n        for (uint8 i = 0; i < adminGroup.length; i++) {\n            if (_admin == adminGroup[i]) {\n                return;\n            }\n        }\n        adminGroup.push(_admin);\n    }\n\n    function getAdmins() public view virtual \n    returns(address[] memory) {\n        return adminGroup;\n    }\n}",
  "sourcePath": "/home/cowboy/OpenchainTestVersion/server/contracts/AdministratedContract.sol",
  "compiler": {
    "name": "solc",
    "version": "0.8.4+commit.c7e474f2.Emscripten.clang"
  },
  "schemaVersion": "3.4.6",
  "updatedAt": "2022-04-13T11:34:33.936Z",
  "devdoc": {
    "kind": "dev",
    "methods": {},
    "version": 1
  },
  "userdoc": {
    "kind": "user",
    "methods": {},
    "version": 1
  }
}