{
  "contractName": "ERC20Swap",
  "abi": [
    {
      "inputs": [],
      "stateMutability": "nonpayable",
      "type": "constructor"
    },
    {
      "inputs": [],
      "name": "uniswapRouter",
      "outputs": [
        {
          "internalType": "contract IUniswapV2Router02",
          "name": "",
          "type": "address"
        }
      ],
      "stateMutability": "view",
      "type": "function",
      "constant": true
    },
    {
      "stateMutability": "payable",
      "type": "receive",
      "payable": true
    },
    {
      "inputs": [
        {
          "internalType": "address",
          "name": "_tokenOut",
          "type": "address"
        },
        {
          "internalType": "uint256",
          "name": "_amountOutMin",
          "type": "uint256"
        },
        {
          "internalType": "uint256",
          "name": "_deadline",
          "type": "uint256"
        }
      ],
      "name": "swapFromETH",
      "outputs": [],
      "stateMutability": "payable",
      "type": "function",
      "payable": true
    },
    {
      "inputs": [
        {
          "internalType": "address",
          "name": "_tokenIn",
          "type": "address"
        },
        {
          "internalType": "uint256",
          "name": "_amountIn",
          "type": "uint256"
        },
        {
          "internalType": "uint256",
          "name": "_amountOutMin",
          "type": "uint256"
        },
        {
          "internalType": "uint256",
          "name": "_deadline",
          "type": "uint256"
        }
      ],
      "name": "swapToETH",
      "outputs": [],
      "stateMutability": "nonpayable",
      "type": "function"
    },
    {
      "inputs": [
        {
          "internalType": "address",
          "name": "_tokenIn",
          "type": "address"
        },
        {
          "internalType": "uint256",
          "name": "_amountIn",
          "type": "uint256"
        },
        {
          "internalType": "address",
          "name": "_tokenOut",
          "type": "address"
        },
        {
          "internalType": "uint256",
          "name": "_amountOutMin",
          "type": "uint256"
        },
        {
          "internalType": "uint256",
          "name": "_deadline",
          "type": "uint256"
        }
      ],
      "name": "swapForERC20",
      "outputs": [],
      "stateMutability": "nonpayable",
      "type": "function"
    }
  ],
  "bytecode": "0x608060405234801561001057600080fd5b50737a250d5630b4cf539739df2c5dacb4c659f2488d6000806101000a81548173ffffffffffffffffffffffffffffffffffffffff021916908373ffffffffffffffffffffffffffffffffffffffff160217905550612078806100746000396000f3fe6080604052600436106100435760003560e01c8063735de9f71461004f5780638b92f59d1461007a578063ca534211146100a3578063fafbed4d146100bf5761004a565b3661004a57005b600080fd5b34801561005b57600080fd5b506100646100e8565b6040516100719190611ace565b60405180910390f35b34801561008657600080fd5b506100a1600480360381019061009c91906117d6565b61010c565b005b6100bd60048036038101906100b89190611787565b6105c2565b005b3480156100cb57600080fd5b506100e660048036038101906100e19190611710565b61087b565b005b60008054906101000a900473ffffffffffffffffffffffffffffffffffffffff1681565b600084905060008173ffffffffffffffffffffffffffffffffffffffff1663dd62ed3e33306040518363ffffffff1660e01b815260040161014e929190611a45565b60206040518083038186803b15801561016657600080fd5b505afa15801561017a573d6000803e3d6000fd5b505050506040513d601f19601f8201168201806040525081019061019e91906118a3565b905060006101ab82610da1565b90506101cf60405180606001604052806035815260200161200e6035913982610f4e565b9050858210158190610217576040517f08c379a000000000000000000000000000000000000000000000000000000000815260040161020e9190611ae9565b60405180910390fd5b5061022487333089610f92565b8273ffffffffffffffffffffffffffffffffffffffff1663095ea7b3737a250d5630b4cf539739df2c5dacb4c659f2488d886040518363ffffffff1660e01b8152600401610273929190611aa5565b602060405180830381600087803b15801561028d57600080fd5b505af11580156102a1573d6000803e3d6000fd5b505050506040513d601f19601f820116820180604052508101906102c5919061187a565b610304576040517f08c379a00000000000000000000000000000000000000000000000000000000081526004016102fb90611b0b565b60405180910390fd5b6000600267ffffffffffffffff811115610347577f4e487b7100000000000000000000000000000000000000000000000000000000600052604160045260246000fd5b6040519080825280602002602001820160405280156103755781602001602082028036833780820191505090505b50905087816000815181106103b3577f4e487b7100000000000000000000000000000000000000000000000000000000600052603260045260246000fd5b602002602001019073ffffffffffffffffffffffffffffffffffffffff16908173ffffffffffffffffffffffffffffffffffffffff168152505060008054906101000a900473ffffffffffffffffffffffffffffffffffffffff1673ffffffffffffffffffffffffffffffffffffffff1663ad5c46486040518163ffffffff1660e01b815260040160206040518083038186803b15801561045357600080fd5b505afa158015610467573d6000803e3d6000fd5b505050506040513d601f19601f8201168201806040525081019061048b91906116e7565b816001815181106104c5577f4e487b7100000000000000000000000000000000000000000000000000000000600052603260045260246000fd5b602002602001019073ffffffffffffffffffffffffffffffffffffffff16908173ffffffffffffffffffffffffffffffffffffffff168152505060008054906101000a900473ffffffffffffffffffffffffffffffffffffffff1673ffffffffffffffffffffffffffffffffffffffff166318cbafe5888884338a6040518663ffffffff1660e01b8152600401610560959493929190611b97565b600060405180830381600087803b15801561057a57600080fd5b505af115801561058e573d6000803e3d6000fd5b505050506040513d6000823e3d601f19601f820116820180604052508101906105b79190611839565b505050505050505050565b6000600267ffffffffffffffff811115610605577f4e487b7100000000000000000000000000000000000000000000000000000000600052604160045260246000fd5b6040519080825280602002602001820160405280156106335781602001602082028036833780820191505090505b50905060008054906101000a900473ffffffffffffffffffffffffffffffffffffffff1673ffffffffffffffffffffffffffffffffffffffff1663ad5c46486040518163ffffffff1660e01b815260040160206040518083038186803b15801561069c57600080fd5b505afa1580156106b0573d6000803e3d6000fd5b505050506040513d601f19601f820116820180604052508101906106d491906116e7565b8160008151811061070e577f4e487b7100000000000000000000000000000000000000000000000000000000600052603260045260246000fd5b602002602001019073ffffffffffffffffffffffffffffffffffffffff16908173ffffffffffffffffffffffffffffffffffffffff16815250508381600181518110610783577f4e487b7100000000000000000000000000000000000000000000000000000000600052603260045260246000fd5b602002602001019073ffffffffffffffffffffffffffffffffffffffff16908173ffffffffffffffffffffffffffffffffffffffff168152505060008054906101000a900473ffffffffffffffffffffffffffffffffffffffff1673ffffffffffffffffffffffffffffffffffffffff16637ff36ab534858433876040518663ffffffff1660e01b815260040161081d9493929190611b4b565b6000604051808303818588803b15801561083657600080fd5b505af115801561084a573d6000803e3d6000fd5b50505050506040513d6000823e3d601f19601f820116820180604052508101906108749190611839565b5050505050565b60008573ffffffffffffffffffffffffffffffffffffffff1663dd62ed3e33306040518363ffffffff1660e01b81526004016108b8929190611a45565b60206040518083038186803b1580156108d057600080fd5b505afa1580156108e4573d6000803e3d6000fd5b505050506040513d601f19601f8201168201806040525081019061090891906118a3565b9050600061091582610da1565b905061093960405180606001604052806035815260200161200e6035913982610f4e565b9050858210158190610981576040517f08c379a00000000000000000000000000000000000000000000000000000000081526004016109789190611ae9565b60405180910390fd5b5061098e87333089610f92565b8673ffffffffffffffffffffffffffffffffffffffff1663095ea7b3737a250d5630b4cf539739df2c5dacb4c659f2488d886040518363ffffffff1660e01b81526004016109dd929190611aa5565b602060405180830381600087803b1580156109f757600080fd5b505af1158015610a0b573d6000803e3d6000fd5b505050506040513d601f19601f82011682018060405250810190610a2f919061187a565b610a6e576040517f08c379a0000000000000000000000000000000000000000000000000000000008152600401610a6590611b0b565b60405180910390fd5b6000600367ffffffffffffffff811115610ab1577f4e487b7100000000000000000000000000000000000000000000000000000000600052604160045260246000fd5b604051908082528060200260200182016040528015610adf5781602001602082028036833780820191505090505b5090508781600081518110610b1d577f4e487b7100000000000000000000000000000000000000000000000000000000600052603260045260246000fd5b602002602001019073ffffffffffffffffffffffffffffffffffffffff16908173ffffffffffffffffffffffffffffffffffffffff168152505060008054906101000a900473ffffffffffffffffffffffffffffffffffffffff1673ffffffffffffffffffffffffffffffffffffffff1663ad5c46486040518163ffffffff1660e01b815260040160206040518083038186803b158015610bbd57600080fd5b505afa158015610bd1573d6000803e3d6000fd5b505050506040513d601f19601f82011682018060405250810190610bf591906116e7565b81600181518110610c2f577f4e487b7100000000000000000000000000000000000000000000000000000000600052603260045260246000fd5b602002602001019073ffffffffffffffffffffffffffffffffffffffff16908173ffffffffffffffffffffffffffffffffffffffff16815250508581600281518110610ca4577f4e487b7100000000000000000000000000000000000000000000000000000000600052603260045260246000fd5b602002602001019073ffffffffffffffffffffffffffffffffffffffff16908173ffffffffffffffffffffffffffffffffffffffff168152505060008054906101000a900473ffffffffffffffffffffffffffffffffffffffff1673ffffffffffffffffffffffffffffffffffffffff166338ed173988878433896040518663ffffffff1660e01b8152600401610d3f959493929190611b97565b600060405180830381600087803b158015610d5957600080fd5b505af1158015610d6d573d6000803e3d6000fd5b505050506040513d6000823e3d601f19601f82011682018060405250810190610d969190611839565b505050505050505050565b60606000821415610de9576040518060400160405280600181526020017f30000000000000000000000000000000000000000000000000000000000000008152509050610f49565b600082905060005b60008214610e1b578080610e0490611e38565b915050600a82610e149190611d03565b9150610df1565b60008167ffffffffffffffff811115610e5d577f4e487b7100000000000000000000000000000000000000000000000000000000600052604160045260246000fd5b6040519080825280601f01601f191660200182016040528015610e8f5781602001600182028036833780820191505090505b5090505b60008514610f4257600182610ea89190611d34565b9150600a85610eb79190611e81565b6030610ec39190611cad565b60f81b818381518110610eff577f4e487b7100000000000000000000000000000000000000000000000000000000600052603260045260246000fd5b60200101907effffffffffffffffffffffffffffffffffffffffffffffffffffffffffffff1916908160001a905350600a85610f3b9190611d03565b9450610e93565b8093505050505b919050565b6060610f8a83836040518060200160405280600081525060405180602001604052806000815250604051806020016040528060008152506110cb565b905092915050565b6000808573ffffffffffffffffffffffffffffffffffffffff166323b872dd868686604051602401610fc693929190611a6e565b6040516020818303038152906040529060e01b6020820180517bffffffffffffffffffffffffffffffffffffffffffffffffffffffff83818316178352505050506040516110149190611a2e565b6000604051808303816000865af19150503d8060008114611051576040519150601f19603f3d011682016040523d82523d6000602084013e611056565b606091505b50915091508180156110845750600081511480611083575080806020019051810190611082919061187a565b5b5b6110c3576040517f08c379a00000000000000000000000000000000000000000000000000000000081526004016110ba90611b2b565b60405180910390fd5b505050505050565b6060600086905060008690506000869050600086905060008690506000815183518551875189516110fc9190611cad565b6111069190611cad565b6111109190611cad565b61111a9190611cad565b67ffffffffffffffff811115611159577f4e487b7100000000000000000000000000000000000000000000000000000000600052604160045260246000fd5b6040519080825280601f01601f19166020018201604052801561118b5781602001600182028036833780820191505090505b5090506000819050600080600091505b885182101561126f578882815181106111dd577f4e487b7100000000000000000000000000000000000000000000000000000000600052603260045260246000fd5b602001015160f81c60f81b8382806111f490611e38565b93508151811061122d577f4e487b7100000000000000000000000000000000000000000000000000000000600052603260045260246000fd5b60200101907effffffffffffffffffffffffffffffffffffffffffffffffffffffffffffff1916908160001a905350818061126790611e38565b92505061119b565b600091505b8751821015611348578782815181106112b6577f4e487b7100000000000000000000000000000000000000000000000000000000600052603260045260246000fd5b602001015160f81c60f81b8382806112cd90611e38565b935081518110611306577f4e487b7100000000000000000000000000000000000000000000000000000000600052603260045260246000fd5b60200101907effffffffffffffffffffffffffffffffffffffffffffffffffffffffffffff1916908160001a905350818061134090611e38565b925050611274565b600091505b86518210156114215786828151811061138f577f4e487b7100000000000000000000000000000000000000000000000000000000600052603260045260246000fd5b602001015160f81c60f81b8382806113a690611e38565b9350815181106113df577f4e487b7100000000000000000000000000000000000000000000000000000000600052603260045260246000fd5b60200101907effffffffffffffffffffffffffffffffffffffffffffffffffffffffffffff1916908160001a905350818061141990611e38565b92505061134d565b600091505b85518210156114fa57858281518110611468577f4e487b7100000000000000000000000000000000000000000000000000000000600052603260045260246000fd5b602001015160f81c60f81b83828061147f90611e38565b9350815181106114b8577f4e487b7100000000000000000000000000000000000000000000000000000000600052603260045260246000fd5b60200101907effffffffffffffffffffffffffffffffffffffffffffffffffffffffffffff1916908160001a90535081806114f290611e38565b925050611426565b600091505b84518210156115d357848281518110611541577f4e487b7100000000000000000000000000000000000000000000000000000000600052603260045260246000fd5b602001015160f81c60f81b83828061155890611e38565b935081518110611591577f4e487b7100000000000000000000000000000000000000000000000000000000600052603260045260246000fd5b60200101907effffffffffffffffffffffffffffffffffffffffffffffffffffffffffffff1916908160001a90535081806115cb90611e38565b9250506114ff565b82995050505050505050505095945050505050565b60006115fb6115f684611c16565b611bf1565b9050808382526020820190508285602086028201111561161a57600080fd5b60005b8581101561164a578161163088826116d2565b84526020840193506020830192505060018101905061161d565b5050509392505050565b60008135905061166381611fc8565b92915050565b60008151905061167881611fc8565b92915050565b600082601f83011261168f57600080fd5b815161169f8482602086016115e8565b91505092915050565b6000815190506116b781611fdf565b92915050565b6000813590506116cc81611ff6565b92915050565b6000815190506116e181611ff6565b92915050565b6000602082840312156116f957600080fd5b600061170784828501611669565b91505092915050565b600080600080600060a0868803121561172857600080fd5b600061173688828901611654565b9550506020611747888289016116bd565b945050604061175888828901611654565b9350506060611769888289016116bd565b925050608061177a888289016116bd565b9150509295509295909350565b60008060006060848603121561179c57600080fd5b60006117aa86828701611654565b93505060206117bb868287016116bd565b92505060406117cc868287016116bd565b9150509250925092565b600080600080608085870312156117ec57600080fd5b60006117fa87828801611654565b945050602061180b878288016116bd565b935050604061181c878288016116bd565b925050606061182d878288016116bd565b91505092959194509250565b60006020828403121561184b57600080fd5b600082015167ffffffffffffffff81111561186557600080fd5b6118718482850161167e565b91505092915050565b60006020828403121561188c57600080fd5b600061189a848285016116a8565b91505092915050565b6000602082840312156118b557600080fd5b60006118c3848285016116d2565b91505092915050565b60006118d883836118e4565b60208301905092915050565b6118ed81611d68565b82525050565b6118fc81611d68565b82525050565b600061190d82611c52565b6119178185611c80565b935061192283611c42565b8060005b8381101561195357815161193a88826118cc565b975061194583611c73565b925050600181019050611926565b5085935050505092915050565b600061196b82611c5d565b6119758185611c91565b9350611985818560208601611dd4565b80840191505092915050565b61199a81611db0565b82525050565b60006119ab82611c68565b6119b58185611c9c565b93506119c5818560208601611dd4565b6119ce81611f3f565b840191505092915050565b60006119e6601e83611c9c565b91506119f182611f50565b602082019050919050565b6000611a09602483611c9c565b9150611a1482611f79565b604082019050919050565b611a2881611da6565b82525050565b6000611a3a8284611960565b915081905092915050565b6000604082019050611a5a60008301856118f3565b611a6760208301846118f3565b9392505050565b6000606082019050611a8360008301866118f3565b611a9060208301856118f3565b611a9d6040830184611a1f565b949350505050565b6000604082019050611aba60008301856118f3565b611ac76020830184611a1f565b9392505050565b6000602082019050611ae36000830184611991565b92915050565b60006020820190508181036000830152611b0381846119a0565b905092915050565b60006020820190508181036000830152611b24816119d9565b9050919050565b60006020820190508181036000830152611b44816119fc565b9050919050565b6000608082019050611b606000830187611a1f565b8181036020830152611b728186611902565b9050611b8160408301856118f3565b611b8e6060830184611a1f565b95945050505050565b600060a082019050611bac6000830188611a1f565b611bb96020830187611a1f565b8181036040830152611bcb8186611902565b9050611bda60608301856118f3565b611be76080830184611a1f565b9695505050505050565b6000611bfb611c0c565b9050611c078282611e07565b919050565b6000604051905090565b600067ffffffffffffffff821115611c3157611c30611f10565b5b602082029050602081019050919050565b6000819050602082019050919050565b600081519050919050565b600081519050919050565b600081519050919050565b6000602082019050919050565b600082825260208201905092915050565b600081905092915050565b600082825260208201905092915050565b6000611cb882611da6565b9150611cc383611da6565b9250827fffffffffffffffffffffffffffffffffffffffffffffffffffffffffffffffff03821115611cf857611cf7611eb2565b5b828201905092915050565b6000611d0e82611da6565b9150611d1983611da6565b925082611d2957611d28611ee1565b5b828204905092915050565b6000611d3f82611da6565b9150611d4a83611da6565b925082821015611d5d57611d5c611eb2565b5b828203905092915050565b6000611d7382611d86565b9050919050565b60008115159050919050565b600073ffffffffffffffffffffffffffffffffffffffff82169050919050565b6000819050919050565b6000611dbb82611dc2565b9050919050565b6000611dcd82611d86565b9050919050565b60005b83811015611df2578082015181840152602081019050611dd7565b83811115611e01576000848401525b50505050565b611e1082611f3f565b810181811067ffffffffffffffff82111715611e2f57611e2e611f10565b5b80604052505050565b6000611e4382611da6565b91507fffffffffffffffffffffffffffffffffffffffffffffffffffffffffffffffff821415611e7657611e75611eb2565b5b600182019050919050565b6000611e8c82611da6565b9150611e9783611da6565b925082611ea757611ea6611ee1565b5b828206905092915050565b7f4e487b7100000000000000000000000000000000000000000000000000000000600052601160045260246000fd5b7f4e487b7100000000000000000000000000000000000000000000000000000000600052601260045260246000fd5b7f4e487b7100000000000000000000000000000000000000000000000000000000600052604160045260246000fd5b6000601f19601f8301169050919050565b7f617070726f766520666f722074686520726f75746572206661696c65642e0000600082015250565b7f5472616e7366657248656c7065723a205452414e534645525f46524f4d5f464160008201527f494c454400000000000000000000000000000000000000000000000000000000602082015250565b611fd181611d68565b8114611fdc57600080fd5b50565b611fe881611d7a565b8114611ff357600080fd5b50565b611fff81611da6565b811461200a57600080fd5b5056fe4e6f7420656e6f75676820616c6c6f77616e636520666f722074686520455243323020746f6b656e2e20616c6c6f77616e63653a20a2646970667358221220579ce2cee96e5be38a032c11b8172db62356e9f852cc6c3cd03880bf76e7b11664736f6c63430008040033",
  "immutableReferences": {},
  "source": "// SPDX-License-Identifier: MIT\npragma solidity ^0.8.0;\n\n// https://soliditydeveloper.com/uniswap2\n// https://docs.uniswap.org/protocol/V2/guides/smart-contract-integration/trading-from-a-smart-contract\n// https://ethereum.org/ru/developers/tutorials/transfers-and-approval-of-erc-20-tokens-from-a-solidity-smart-contract/\n// https://solidity-by-example.org/app/erc20/\n\nimport \"@uniswap/v2-periphery/contracts/interfaces/IUniswapV2Router02.sol\";\nimport '@uniswap/lib/contracts/libraries/TransferHelper.sol';\nimport \"@openzeppelin/contracts/token/ERC20/IERC20.sol\"; // openzeppelin 4.5 (for solidity 0.8.x)\nimport \"@openzeppelin/contracts/utils/Strings.sol\";\n\ncontract ERC20Swap {\n\n    address private constant UNISWAP_ROUTER_ADDRESS =\n        0x7a250d5630B4cF539739dF2C5dAcb4c659F2488D;\n    IUniswapV2Router02 public uniswapRouter;\n\n    receive() external payable {}\n\n    function strConcat(\n            string memory _a, \n            string memory _b, \n            string memory _c, \n            string memory _d, \n            string memory _e\n    ) internal view returns (string memory){\n        bytes memory _ba = bytes(_a);\n        bytes memory _bb = bytes(_b);\n        bytes memory _bc = bytes(_c);\n        bytes memory _bd = bytes(_d);\n        bytes memory _be = bytes(_e);\n        string memory abcde = new string(_ba.length + _bb.length + _bc.length + _bd.length + _be.length);\n        bytes memory babcde = bytes(abcde);\n\n        uint i = 0;\n        uint k = 0;\n\n        for (i = 0; i < _ba.length; i++) babcde[k++] = _ba[i];\n        for (i = 0; i < _bb.length; i++) babcde[k++] = _bb[i];\n        for (i = 0; i < _bc.length; i++) babcde[k++] = _bc[i];\n        for (i = 0; i < _bd.length; i++) babcde[k++] = _bd[i];\n        for (i = 0; i < _be.length; i++) babcde[k++] = _be[i];\n        return string(babcde);\n    }\n\n    function strConcat(\n            string memory _a, \n            string memory _b, \n            string memory _c, \n            string memory _d\n    ) internal view returns (string memory) {\n        return strConcat(_a, _b, _c, _d, \"\");\n    }\n\n    function strConcat(\n            string memory _a, \n            string memory _b, \n            string memory _c\n    ) internal view returns (string memory) {\n        return strConcat(_a, _b, _c, \"\", \"\");\n    }\n\n    function strConcat(\n            string memory _a, \n            string memory _b\n    ) internal view returns (string memory) {\n        return strConcat(_a, _b, \"\", \"\", \"\");\n    }\n\n    constructor() {\n        uniswapRouter = IUniswapV2Router02(UNISWAP_ROUTER_ADDRESS);\n    }\n\n    function swapFromETH(\n        address _tokenOut,\n        uint _amountOutMin,\n        uint _deadline\n    ) public payable {\n        // uint deadline = block.timestamp + 15; // using 'now' for convenience, for mainnet pass deadline from frontend!\n        address[] memory path = new address[](2);\n        path[0] = uniswapRouter.WETH();\n        path[1] = address(_tokenOut);\n        uniswapRouter.swapExactETHForTokens{value: msg.value}(_amountOutMin, path, msg.sender, _deadline);\n    }\n\n    function swapToETH(\n        address _tokenIn,\n        uint _amountIn,\n        uint _amountOutMin,\n        uint _deadline\n    ) public {\n        // transferFrom\n        IERC20 sellTokenContract = IERC20(_tokenIn);\n        //     Check for allowance\n        uint256 allowance = sellTokenContract.allowance(msg.sender, address(this));\n        string memory errorText = Strings.toString(allowance);\n        errorText = strConcat(\"Not enough allowance for the ERC20 token. allowance: \", errorText);\n        require(allowance >= _amountIn, errorText);\n        //     Do transferFrom\n        TransferHelper.safeTransferFrom(_tokenIn, msg.sender, address(this), _amountIn);\n\n        // approve\n        require(sellTokenContract.approve(address(UNISWAP_ROUTER_ADDRESS), _amountIn), 'approve for the router failed.');\n\n        address[] memory path = new address[](2);\n        path[0] = address(_tokenIn);\n        path[1] = uniswapRouter.WETH();\n        uniswapRouter.swapExactTokensForETH(_amountIn, _amountOutMin, path, msg.sender, _deadline);\n    }\n\n    function swapForERC20(\n        address _tokenIn,\n        uint _amountIn,\n        address _tokenOut,\n        uint _amountOutMin,\n        uint _deadline\n    ) public {\n        // transferFrom\n        //    Check for allowance\n        uint256 allowance = IERC20(_tokenIn).allowance(msg.sender, address(this));\n        string memory errorText = Strings.toString(allowance);\n        errorText = strConcat(\"Not enough allowance for the ERC20 token. allowance: \", errorText);\n        require(allowance >= _amountIn, errorText);\n        //     Do transferFrom\n        TransferHelper.safeTransferFrom(_tokenIn, msg.sender, address(this), _amountIn);\n\n        // approve\n        require(\n            IERC20(_tokenIn).approve(address(UNISWAP_ROUTER_ADDRESS), _amountIn), \n            'approve for the router failed.'\n        );\n\n        address[] memory path = new address[](3);\n        path[0] = _tokenIn;\n        path[1] = uniswapRouter.WETH();\n        path[2] = _tokenOut;\n        uniswapRouter.swapExactTokensForTokens(_amountIn, _amountOutMin, path, msg.sender, _deadline);\n    }\n}\n",
  "sourcePath": "/home/vn/MyProjects/OpenchainDex/OpenchainTestVersion/server/contracts/ERC20Swap.sol",
  "compiler": {
    "name": "solc",
    "version": "0.8.4+commit.c7e474f2.Emscripten.clang"
  },
  "schemaVersion": "3.4.4",
  "updatedAt": "2022-03-20T10:15:49.060Z",
  "networkType": "ethereum",
  "devdoc": {
    "kind": "dev",
    "methods": {},
    "version": 1
  },
  "userdoc": {
    "kind": "user",
    "methods": {},
    "version": 1
  }
}