{
  "contractName": "OcatToken",
  "abi": [
    {
      "inputs": [],
      "stateMutability": "nonpayable",
      "type": "constructor"
    },
    {
      "anonymous": false,
      "inputs": [
        {
          "indexed": true,
          "internalType": "address",
          "name": "owner",
          "type": "address"
        },
        {
          "indexed": true,
          "internalType": "address",
          "name": "spender",
          "type": "address"
        },
        {
          "indexed": false,
          "internalType": "uint256",
          "name": "value",
          "type": "uint256"
        }
      ],
      "name": "Approval",
      "type": "event"
    },
    {
      "anonymous": false,
      "inputs": [
        {
          "indexed": true,
          "internalType": "address",
          "name": "from",
          "type": "address"
        },
        {
          "indexed": true,
          "internalType": "address",
          "name": "to",
          "type": "address"
        },
        {
          "indexed": false,
          "internalType": "uint256",
          "name": "value",
          "type": "uint256"
        }
      ],
      "name": "Transfer",
      "type": "event"
    },
    {
      "inputs": [
        {
          "internalType": "address",
          "name": "owner",
          "type": "address"
        },
        {
          "internalType": "address",
          "name": "spender",
          "type": "address"
        }
      ],
      "name": "allowance",
      "outputs": [
        {
          "internalType": "uint256",
          "name": "",
          "type": "uint256"
        }
      ],
      "stateMutability": "view",
      "type": "function",
      "constant": true
    },
    {
      "inputs": [
        {
          "internalType": "address",
          "name": "spender",
          "type": "address"
        },
        {
          "internalType": "uint256",
          "name": "amount",
          "type": "uint256"
        }
      ],
      "name": "approve",
      "outputs": [
        {
          "internalType": "bool",
          "name": "",
          "type": "bool"
        }
      ],
      "stateMutability": "nonpayable",
      "type": "function"
    },
    {
      "inputs": [
        {
          "internalType": "address",
          "name": "account",
          "type": "address"
        }
      ],
      "name": "balanceOf",
      "outputs": [
        {
          "internalType": "uint256",
          "name": "",
          "type": "uint256"
        }
      ],
      "stateMutability": "view",
      "type": "function",
      "constant": true
    },
    {
      "inputs": [],
      "name": "decimals",
      "outputs": [
        {
          "internalType": "uint8",
          "name": "",
          "type": "uint8"
        }
      ],
      "stateMutability": "view",
      "type": "function",
      "constant": true
    },
    {
      "inputs": [
        {
          "internalType": "address",
          "name": "spender",
          "type": "address"
        },
        {
          "internalType": "uint256",
          "name": "subtractedValue",
          "type": "uint256"
        }
      ],
      "name": "decreaseAllowance",
      "outputs": [
        {
          "internalType": "bool",
          "name": "",
          "type": "bool"
        }
      ],
      "stateMutability": "nonpayable",
      "type": "function"
    },
    {
      "inputs": [
        {
          "internalType": "address",
          "name": "spender",
          "type": "address"
        },
        {
          "internalType": "uint256",
          "name": "addedValue",
          "type": "uint256"
        }
      ],
      "name": "increaseAllowance",
      "outputs": [
        {
          "internalType": "bool",
          "name": "",
          "type": "bool"
        }
      ],
      "stateMutability": "nonpayable",
      "type": "function"
    },
    {
      "inputs": [],
      "name": "name",
      "outputs": [
        {
          "internalType": "string",
          "name": "",
          "type": "string"
        }
      ],
      "stateMutability": "view",
      "type": "function",
      "constant": true
    },
    {
      "inputs": [],
      "name": "symbol",
      "outputs": [
        {
          "internalType": "string",
          "name": "",
          "type": "string"
        }
      ],
      "stateMutability": "view",
      "type": "function",
      "constant": true
    },
    {
      "inputs": [],
      "name": "totalSupply",
      "outputs": [
        {
          "internalType": "uint256",
          "name": "",
          "type": "uint256"
        }
      ],
      "stateMutability": "view",
      "type": "function",
      "constant": true
    },
    {
      "inputs": [
        {
          "internalType": "address",
          "name": "to",
          "type": "address"
        },
        {
          "internalType": "uint256",
          "name": "amount",
          "type": "uint256"
        }
      ],
      "name": "transfer",
      "outputs": [
        {
          "internalType": "bool",
          "name": "",
          "type": "bool"
        }
      ],
      "stateMutability": "nonpayable",
      "type": "function"
    },
    {
      "inputs": [
        {
          "internalType": "address",
          "name": "from",
          "type": "address"
        },
        {
          "internalType": "address",
          "name": "to",
          "type": "address"
        },
        {
          "internalType": "uint256",
          "name": "amount",
          "type": "uint256"
        }
      ],
      "name": "transferFrom",
      "outputs": [
        {
          "internalType": "bool",
          "name": "",
          "type": "bool"
        }
      ],
      "stateMutability": "nonpayable",
      "type": "function"
    },
    {
      "stateMutability": "payable",
      "type": "receive",
      "payable": true
    },
    {
      "inputs": [
        {
          "internalType": "address",
          "name": "operator",
          "type": "address"
        }
      ],
      "name": "addOperator",
      "outputs": [],
      "stateMutability": "payable",
      "type": "function",
      "payable": true
    },
    {
      "inputs": [],
      "name": "getAllowedOperators",
      "outputs": [
        {
          "internalType": "address[]",
          "name": "",
          "type": "address[]"
        }
      ],
      "stateMutability": "view",
      "type": "function",
      "constant": true
    },
    {
      "inputs": [
        {
          "internalType": "address",
          "name": "from",
          "type": "address"
        },
        {
          "internalType": "uint256",
          "name": "amount",
          "type": "uint256"
        }
      ],
      "name": "mint",
      "outputs": [],
      "stateMutability": "nonpayable",
      "type": "function"
    }
  ],
  "bytecode": "0x60806040523480156200001157600080fd5b506040518060400160405280601881526020017f4f70656e636861696e44657820537461626c6520436f696e00000000000000008152506040518060400160405280600481526020017f4f434154000000000000000000000000000000000000000000000000000000008152508160039080519060200190620000969291906200015c565b508060049080519060200190620000af9291906200015c565b50505033600660006101000a81548173ffffffffffffffffffffffffffffffffffffffff021916908373ffffffffffffffffffffffffffffffffffffffff1602179055506005339080600181540180825580915050600190039060005260206000200160009091909190916101000a81548173ffffffffffffffffffffffffffffffffffffffff021916908373ffffffffffffffffffffffffffffffffffffffff16021790555062000271565b8280546200016a906200020c565b90600052602060002090601f0160209004810192826200018e5760008555620001da565b82601f10620001a957805160ff1916838001178555620001da565b82800160010185558215620001da579182015b82811115620001d9578251825591602001919060010190620001bc565b5b509050620001e99190620001ed565b5090565b5b8082111562000208576000816000905550600101620001ee565b5090565b600060028204905060018216806200022557607f821691505b602082108114156200023c576200023b62000242565b5b50919050565b7f4e487b7100000000000000000000000000000000000000000000000000000000600052602260045260246000fd5b611cd880620002816000396000f3fe6080604052600436106100e15760003560e01c806370a082311161007f578063a457c2d711610059578063a457c2d7146102d2578063a9059cbb1461030f578063d8d339581461034c578063dd62ed3e14610377576100e8565b806370a082311461024e57806395d89b411461028b5780639870d7fe146102b6576100e8565b806323b872dd116100bb57806323b872dd14610180578063313ce567146101bd57806339509351146101e857806340c10f1914610225576100e8565b806306fdde03146100ed578063095ea7b31461011857806318160ddd14610155576100e8565b366100e857005b600080fd5b3480156100f957600080fd5b506101026103b4565b60405161010f91906115bd565b60405180910390f35b34801561012457600080fd5b5061013f600480360381019061013a91906112d8565b610446565b60405161014c91906115a2565b60405180910390f35b34801561016157600080fd5b5061016a610469565b604051610177919061173f565b60405180910390f35b34801561018c57600080fd5b506101a760048036038101906101a29190611289565b610473565b6040516101b491906115a2565b60405180910390f35b3480156101c957600080fd5b506101d26104a2565b6040516101df919061175a565b60405180910390f35b3480156101f457600080fd5b5061020f600480360381019061020a91906112d8565b6104ab565b60405161021c91906115a2565b60405180910390f35b34801561023157600080fd5b5061024c600480360381019061024791906112d8565b610555565b005b34801561025a57600080fd5b5061027560048036038101906102709190611224565b610685565b604051610282919061173f565b60405180910390f35b34801561029757600080fd5b506102a06106cd565b6040516102ad91906115bd565b60405180910390f35b6102d060048036038101906102cb9190611224565b61075f565b005b3480156102de57600080fd5b506102f960048036038101906102f491906112d8565b61098e565b60405161030691906115a2565b60405180910390f35b34801561031b57600080fd5b50610336600480360381019061033191906112d8565b610a78565b60405161034391906115a2565b60405180910390f35b34801561035857600080fd5b50610361610a9b565b60405161036e9190611580565b60405180910390f35b34801561038357600080fd5b5061039e6004803603810190610399919061124d565b610b29565b6040516103ab919061173f565b60405180910390f35b6060600380546103c390611902565b80601f01602080910402602001604051908101604052809291908181526020018280546103ef90611902565b801561043c5780601f106104115761010080835404028352916020019161043c565b820191906000526020600020905b81548152906001019060200180831161041f57829003601f168201915b5050505050905090565b600080610451610bb0565b905061045e818585610bb8565b600191505092915050565b6000600254905090565b60008061047e610bb0565b905061048b858285610d83565b610496858585610e0f565b60019150509392505050565b60006012905090565b6000806104b6610bb0565b905061054a818585600160008673ffffffffffffffffffffffffffffffffffffffff1673ffffffffffffffffffffffffffffffffffffffff16815260200190815260200160002060008973ffffffffffffffffffffffffffffffffffffffff1673ffffffffffffffffffffffffffffffffffffffff1681526020019081526020016000205461054591906117ca565b610bb8565b600191505092915050565b816000805b6005805490508160ff1610156106215760058160ff16815481106105a7577f4e487b7100000000000000000000000000000000000000000000000000000000600052603260045260246000fd5b9060005260206000200160009054906101000a900473ffffffffffffffffffffffffffffffffffffffff1673ffffffffffffffffffffffffffffffffffffffff168373ffffffffffffffffffffffffffffffffffffffff16141561060e5760019150610621565b808061061990611934565b91505061055a565b5080610662576040517f08c379a00000000000000000000000000000000000000000000000000000000081526004016106599061167f565b60405180910390fd5b61067f84670de0b6b3a76400008561067a9190611820565b611090565b50505050565b60008060008373ffffffffffffffffffffffffffffffffffffffff1673ffffffffffffffffffffffffffffffffffffffff168152602001908152602001600020549050919050565b6060600480546106dc90611902565b80601f016020809104026020016040519081016040528092919081815260200182805461070890611902565b80156107555780601f1061072a57610100808354040283529160200191610755565b820191906000526020600020905b81548152906001019060200180831161073857829003601f168201915b5050505050905090565b600660009054906101000a900473ffffffffffffffffffffffffffffffffffffffff1673ffffffffffffffffffffffffffffffffffffffff163373ffffffffffffffffffffffffffffffffffffffff16146107ef576040517f08c379a00000000000000000000000000000000000000000000000000000000081526004016107e69061163f565b60405180910390fd5b600073ffffffffffffffffffffffffffffffffffffffff168173ffffffffffffffffffffffffffffffffffffffff16141561085f576040517f08c379a00000000000000000000000000000000000000000000000000000000081526004016108569061169f565b60405180910390fd5b60005b6005805490508160ff1610156109265760058160ff16815481106108af577f4e487b7100000000000000000000000000000000000000000000000000000000600052603260045260246000fd5b9060005260206000200160009054906101000a900473ffffffffffffffffffffffffffffffffffffffff1673ffffffffffffffffffffffffffffffffffffffff168273ffffffffffffffffffffffffffffffffffffffff161415610913575061098b565b808061091e90611934565b915050610862565b506005819080600181540180825580915050600190039060005260206000200160009091909190916101000a81548173ffffffffffffffffffffffffffffffffffffffff021916908373ffffffffffffffffffffffffffffffffffffffff1602179055505b50565b600080610999610bb0565b90506000600160008373ffffffffffffffffffffffffffffffffffffffff1673ffffffffffffffffffffffffffffffffffffffff16815260200190815260200160002060008673ffffffffffffffffffffffffffffffffffffffff1673ffffffffffffffffffffffffffffffffffffffff16815260200190815260200160002054905083811015610a5f576040517f08c379a0000000000000000000000000000000000000000000000000000000008152600401610a56906116ff565b60405180910390fd5b610a6c8286868403610bb8565b60019250505092915050565b600080610a83610bb0565b9050610a90818585610e0f565b600191505092915050565b60606005805480602002602001604051908101604052809291908181526020018280548015610b1f57602002820191906000526020600020905b8160009054906101000a900473ffffffffffffffffffffffffffffffffffffffff1673ffffffffffffffffffffffffffffffffffffffff1681526020019060010190808311610ad5575b5050505050905090565b6000600160008473ffffffffffffffffffffffffffffffffffffffff1673ffffffffffffffffffffffffffffffffffffffff16815260200190815260200160002060008373ffffffffffffffffffffffffffffffffffffffff1673ffffffffffffffffffffffffffffffffffffffff16815260200190815260200160002054905092915050565b600033905090565b600073ffffffffffffffffffffffffffffffffffffffff168373ffffffffffffffffffffffffffffffffffffffff161415610c28576040517f08c379a0000000000000000000000000000000000000000000000000000000008152600401610c1f906116df565b60405180910390fd5b600073ffffffffffffffffffffffffffffffffffffffff168273ffffffffffffffffffffffffffffffffffffffff161415610c98576040517f08c379a0000000000000000000000000000000000000000000000000000000008152600401610c8f906115ff565b60405180910390fd5b80600160008573ffffffffffffffffffffffffffffffffffffffff1673ffffffffffffffffffffffffffffffffffffffff16815260200190815260200160002060008473ffffffffffffffffffffffffffffffffffffffff1673ffffffffffffffffffffffffffffffffffffffff168152602001908152602001600020819055508173ffffffffffffffffffffffffffffffffffffffff168373ffffffffffffffffffffffffffffffffffffffff167f8c5be1e5ebec7d5bd14f71427d1e84f3dd0314c0f7b2291e5b200ac8c7c3b92583604051610d76919061173f565b60405180910390a3505050565b6000610d8f8484610b29565b90507fffffffffffffffffffffffffffffffffffffffffffffffffffffffffffffffff8114610e095781811015610dfb576040517f08c379a0000000000000000000000000000000000000000000000000000000008152600401610df29061161f565b60405180910390fd5b610e088484848403610bb8565b5b50505050565b600073ffffffffffffffffffffffffffffffffffffffff168373ffffffffffffffffffffffffffffffffffffffff161415610e7f576040517f08c379a0000000000000000000000000000000000000000000000000000000008152600401610e76906116bf565b60405180910390fd5b600073ffffffffffffffffffffffffffffffffffffffff168273ffffffffffffffffffffffffffffffffffffffff161415610eef576040517f08c379a0000000000000000000000000000000000000000000000000000000008152600401610ee6906115df565b60405180910390fd5b610efa8383836111f0565b60008060008573ffffffffffffffffffffffffffffffffffffffff1673ffffffffffffffffffffffffffffffffffffffff16815260200190815260200160002054905081811015610f80576040517f08c379a0000000000000000000000000000000000000000000000000000000008152600401610f779061165f565b60405180910390fd5b8181036000808673ffffffffffffffffffffffffffffffffffffffff1673ffffffffffffffffffffffffffffffffffffffff16815260200190815260200160002081905550816000808573ffffffffffffffffffffffffffffffffffffffff1673ffffffffffffffffffffffffffffffffffffffff168152602001908152602001600020600082825461101391906117ca565b925050819055508273ffffffffffffffffffffffffffffffffffffffff168473ffffffffffffffffffffffffffffffffffffffff167fddf252ad1be2c89b69c2b068fc378daa952ba7f163c4a11628f55a4df523b3ef84604051611077919061173f565b60405180910390a361108a8484846111f5565b50505050565b600073ffffffffffffffffffffffffffffffffffffffff168273ffffffffffffffffffffffffffffffffffffffff161415611100576040517f08c379a00000000000000000000000000000000000000000000000000000000081526004016110f79061171f565b60405180910390fd5b61110c600083836111f0565b806002600082825461111e91906117ca565b92505081905550806000808473ffffffffffffffffffffffffffffffffffffffff1673ffffffffffffffffffffffffffffffffffffffff168152602001908152602001600020600082825461117391906117ca565b925050819055508173ffffffffffffffffffffffffffffffffffffffff16600073ffffffffffffffffffffffffffffffffffffffff167fddf252ad1be2c89b69c2b068fc378daa952ba7f163c4a11628f55a4df523b3ef836040516111d8919061173f565b60405180910390a36111ec600083836111f5565b5050565b505050565b505050565b60008135905061120981611c74565b92915050565b60008135905061121e81611c8b565b92915050565b60006020828403121561123657600080fd5b6000611244848285016111fa565b91505092915050565b6000806040838503121561126057600080fd5b600061126e858286016111fa565b925050602061127f858286016111fa565b9150509250929050565b60008060006060848603121561129e57600080fd5b60006112ac868287016111fa565b93505060206112bd868287016111fa565b92505060406112ce8682870161120f565b9150509250925092565b600080604083850312156112eb57600080fd5b60006112f9858286016111fa565b925050602061130a8582860161120f565b9150509250929050565b6000611320838361132c565b60208301905092915050565b6113358161187a565b82525050565b600061134682611785565b61135081856117a8565b935061135b83611775565b8060005b8381101561138c5781516113738882611314565b975061137e8361179b565b92505060018101905061135f565b5085935050505092915050565b6113a28161188c565b82525050565b60006113b382611790565b6113bd81856117b9565b93506113cd8185602086016118cf565b6113d6816119bc565b840191505092915050565b60006113ee6023836117b9565b91506113f9826119cd565b604082019050919050565b60006114116022836117b9565b915061141c82611a1c565b604082019050919050565b6000611434601d836117b9565b915061143f82611a6b565b602082019050919050565b6000611457600e836117b9565b915061146282611a94565b602082019050919050565b600061147a6026836117b9565b915061148582611abd565b604082019050919050565b600061149d6010836117b9565b91506114a882611b0c565b602082019050919050565b60006114c06010836117b9565b91506114cb82611b35565b602082019050919050565b60006114e36025836117b9565b91506114ee82611b5e565b604082019050919050565b60006115066024836117b9565b915061151182611bad565b604082019050919050565b60006115296025836117b9565b915061153482611bfc565b604082019050919050565b600061154c601f836117b9565b915061155782611c4b565b602082019050919050565b61156b816118b8565b82525050565b61157a816118c2565b82525050565b6000602082019050818103600083015261159a818461133b565b905092915050565b60006020820190506115b76000830184611399565b92915050565b600060208201905081810360008301526115d781846113a8565b905092915050565b600060208201905081810360008301526115f8816113e1565b9050919050565b6000602082019050818103600083015261161881611404565b9050919050565b6000602082019050818103600083015261163881611427565b9050919050565b600060208201905081810360008301526116588161144a565b9050919050565b600060208201905081810360008301526116788161146d565b9050919050565b6000602082019050818103600083015261169881611490565b9050919050565b600060208201905081810360008301526116b8816114b3565b9050919050565b600060208201905081810360008301526116d8816114d6565b9050919050565b600060208201905081810360008301526116f8816114f9565b9050919050565b600060208201905081810360008301526117188161151c565b9050919050565b600060208201905081810360008301526117388161153f565b9050919050565b60006020820190506117546000830184611562565b92915050565b600060208201905061176f6000830184611571565b92915050565b6000819050602082019050919050565b600081519050919050565b600081519050919050565b6000602082019050919050565b600082825260208201905092915050565b600082825260208201905092915050565b60006117d5826118b8565b91506117e0836118b8565b9250827fffffffffffffffffffffffffffffffffffffffffffffffffffffffffffffffff038211156118155761181461195e565b5b828201905092915050565b600061182b826118b8565b9150611836836118b8565b9250817fffffffffffffffffffffffffffffffffffffffffffffffffffffffffffffffff048311821515161561186f5761186e61195e565b5b828202905092915050565b600061188582611898565b9050919050565b60008115159050919050565b600073ffffffffffffffffffffffffffffffffffffffff82169050919050565b6000819050919050565b600060ff82169050919050565b60005b838110156118ed5780820151818401526020810190506118d2565b838111156118fc576000848401525b50505050565b6000600282049050600182168061191a57607f821691505b6020821081141561192e5761192d61198d565b5b50919050565b600061193f826118c2565b915060ff8214156119535761195261195e565b5b600182019050919050565b7f4e487b7100000000000000000000000000000000000000000000000000000000600052601160045260246000fd5b7f4e487b7100000000000000000000000000000000000000000000000000000000600052602260045260246000fd5b6000601f19601f8301169050919050565b7f45524332303a207472616e7366657220746f20746865207a65726f206164647260008201527f6573730000000000000000000000000000000000000000000000000000000000602082015250565b7f45524332303a20617070726f766520746f20746865207a65726f20616464726560008201527f7373000000000000000000000000000000000000000000000000000000000000602082015250565b7f45524332303a20696e73756666696369656e7420616c6c6f77616e6365000000600082015250565b7f496e76616c69642063616c6c6572000000000000000000000000000000000000600082015250565b7f45524332303a207472616e7366657220616d6f756e742065786365656473206260008201527f616c616e63650000000000000000000000000000000000000000000000000000602082015250565b7f4e6f7420616c6c6f776564207573657200000000000000000000000000000000600082015250565b7f496e76616c6964206f70657261746f7200000000000000000000000000000000600082015250565b7f45524332303a207472616e736665722066726f6d20746865207a65726f20616460008201527f6472657373000000000000000000000000000000000000000000000000000000602082015250565b7f45524332303a20617070726f76652066726f6d20746865207a65726f2061646460008201527f7265737300000000000000000000000000000000000000000000000000000000602082015250565b7f45524332303a2064656372656173656420616c6c6f77616e63652062656c6f7760008201527f207a65726f000000000000000000000000000000000000000000000000000000602082015250565b7f45524332303a206d696e7420746f20746865207a65726f206164647265737300600082015250565b611c7d8161187a565b8114611c8857600080fd5b50565b611c94816118b8565b8114611c9f57600080fd5b5056fea2646970667358221220a4cc2eec4cfc709ef0d86a34e8ad2eb9af586abda5853f9d00ae4505235f4bd064736f6c63430008040033",
  "immutableReferences": {},
  "source": "// SPDX-License-Identifier: MIT\npragma solidity ^0.8.0;\n\nimport \"@openzeppelin/contracts/token/ERC20/ERC20.sol\";\nimport \"./IOcat.sol\";\n\ncontract OcatToken is ERC20, IOcat {\n\n    address[]       private allowedOperators;\n    address payable private creator;\n\n    receive() external payable {}\n\n    constructor() ERC20(\"OpenchainDex Stable Coin\", \"OCAT\") {\n        // super._mint(msg.sender, (10 ** 8) * (10 ** 18));\n        creator = payable(msg.sender);\n        allowedOperators.push(msg.sender);\n    }\n\n\n    modifier isAllowedOperator(address operator) override {\n        bool isAllowed = false;\n        for (uint8 i = 0; i < allowedOperators.length; i++) {\n            if (operator == allowedOperators[i]) {\n                isAllowed = true;\n                break;\n            }\n        }\n        require(isAllowed, \"Not allowed user\");\n        _;\n    }\n\n    function addOperator(address operator) public payable override {\n        require(msg.sender == creator, \"Invalid caller\");\n        require(operator != address(0), \"Invalid operator\");\n        \n        for (uint8 i = 0; i < allowedOperators.length; i++) {\n            if (operator == allowedOperators[i]) {\n                return;\n            }\n        }\n        allowedOperators.push(operator);\n    }\n\n    function getAllowedOperators() public view  override \n    returns(address[] memory) {\n        return allowedOperators;\n    }\n    /**\n        * Custom accessor to create a unique token\n    */\n    function mint(address from, uint256 amount) public override\n    isAllowedOperator(from) {\n        super._mint(from, amount * (10 ** 18));\n    }\n}\n",
  "sourcePath": "/home/cowboy/OpenchainTestVersion/server/contracts/OcatToken.sol",
  "compiler": {
    "name": "solc",
    "version": "0.8.4+commit.c7e474f2.Emscripten.clang"
  },
  "schemaVersion": "3.4.6",
  "updatedAt": "2022-04-14T00:37:46.891Z",
  "networkType": "ethereum",
  "devdoc": {
    "kind": "dev",
    "methods": {
      "allowance(address,address)": {
        "details": "See {IERC20-allowance}."
      },
      "approve(address,uint256)": {
        "details": "See {IERC20-approve}. NOTE: If `amount` is the maximum `uint256`, the allowance is not updated on `transferFrom`. This is semantically equivalent to an infinite approval. Requirements: - `spender` cannot be the zero address."
      },
      "balanceOf(address)": {
        "details": "See {IERC20-balanceOf}."
      },
      "decimals()": {
        "details": "Returns the number of decimals used to get its user representation. For example, if `decimals` equals `2`, a balance of `505` tokens should be displayed to a user as `5.05` (`505 / 10 ** 2`). Tokens usually opt for a value of 18, imitating the relationship between Ether and Wei. This is the value {ERC20} uses, unless this function is overridden; NOTE: This information is only used for _display_ purposes: it in no way affects any of the arithmetic of the contract, including {IERC20-balanceOf} and {IERC20-transfer}."
      },
      "decreaseAllowance(address,uint256)": {
        "details": "Atomically decreases the allowance granted to `spender` by the caller. This is an alternative to {approve} that can be used as a mitigation for problems described in {IERC20-approve}. Emits an {Approval} event indicating the updated allowance. Requirements: - `spender` cannot be the zero address. - `spender` must have allowance for the caller of at least `subtractedValue`."
      },
      "increaseAllowance(address,uint256)": {
        "details": "Atomically increases the allowance granted to `spender` by the caller. This is an alternative to {approve} that can be used as a mitigation for problems described in {IERC20-approve}. Emits an {Approval} event indicating the updated allowance. Requirements: - `spender` cannot be the zero address."
      },
      "name()": {
        "details": "Returns the name of the token."
      },
      "symbol()": {
        "details": "Returns the symbol of the token, usually a shorter version of the name."
      },
      "totalSupply()": {
        "details": "See {IERC20-totalSupply}."
      },
      "transfer(address,uint256)": {
        "details": "See {IERC20-transfer}. Requirements: - `to` cannot be the zero address. - the caller must have a balance of at least `amount`."
      },
      "transferFrom(address,address,uint256)": {
        "details": "See {IERC20-transferFrom}. Emits an {Approval} event indicating the updated allowance. This is not required by the EIP. See the note at the beginning of {ERC20}. NOTE: Does not update the allowance if the current allowance is the maximum `uint256`. Requirements: - `from` and `to` cannot be the zero address. - `from` must have a balance of at least `amount`. - the caller must have allowance for ``from``'s tokens of at least `amount`."
      }
    },
    "version": 1
  },
  "userdoc": {
    "kind": "user",
    "methods": {
      "mint(address,uint256)": {
        "notice": "Custom accessor to create a unique token"
      }
    },
    "version": 1
  }
}