{
  "contractName": "OcatToken",
  "abi": [
    {
      "inputs": [],
      "stateMutability": "nonpayable",
      "type": "constructor"
    },
    {
      "anonymous": false,
      "inputs": [
        {
          "indexed": true,
          "internalType": "address",
          "name": "owner",
          "type": "address"
        },
        {
          "indexed": true,
          "internalType": "address",
          "name": "spender",
          "type": "address"
        },
        {
          "indexed": false,
          "internalType": "uint256",
          "name": "value",
          "type": "uint256"
        }
      ],
      "name": "Approval",
      "type": "event"
    },
    {
      "anonymous": false,
      "inputs": [
        {
          "indexed": true,
          "internalType": "address",
          "name": "from",
          "type": "address"
        },
        {
          "indexed": true,
          "internalType": "address",
          "name": "to",
          "type": "address"
        },
        {
          "indexed": false,
          "internalType": "uint256",
          "name": "value",
          "type": "uint256"
        }
      ],
      "name": "Transfer",
      "type": "event"
    },
    {
      "anonymous": false,
      "inputs": [
        {
          "indexed": false,
          "internalType": "uint256",
          "name": "amount",
          "type": "uint256"
        }
      ],
      "name": "burned",
      "type": "event"
    },
    {
      "anonymous": false,
      "inputs": [
        {
          "indexed": false,
          "internalType": "uint256",
          "name": "amount",
          "type": "uint256"
        }
      ],
      "name": "minted",
      "type": "event"
    },
    {
      "inputs": [
        {
          "internalType": "address",
          "name": "_admin",
          "type": "address"
        }
      ],
      "name": "addAdmin",
      "outputs": [],
      "stateMutability": "nonpayable",
      "type": "function"
    },
    {
      "inputs": [
        {
          "internalType": "address",
          "name": "owner",
          "type": "address"
        },
        {
          "internalType": "address",
          "name": "spender",
          "type": "address"
        }
      ],
      "name": "allowance",
      "outputs": [
        {
          "internalType": "uint256",
          "name": "",
          "type": "uint256"
        }
      ],
      "stateMutability": "view",
      "type": "function"
    },
    {
      "inputs": [
        {
          "internalType": "address",
          "name": "spender",
          "type": "address"
        },
        {
          "internalType": "uint256",
          "name": "amount",
          "type": "uint256"
        }
      ],
      "name": "approve",
      "outputs": [
        {
          "internalType": "bool",
          "name": "",
          "type": "bool"
        }
      ],
      "stateMutability": "nonpayable",
      "type": "function"
    },
    {
      "inputs": [
        {
          "internalType": "address",
          "name": "account",
          "type": "address"
        }
      ],
      "name": "balanceOf",
      "outputs": [
        {
          "internalType": "uint256",
          "name": "",
          "type": "uint256"
        }
      ],
      "stateMutability": "view",
      "type": "function"
    },
    {
      "inputs": [
        {
          "internalType": "address",
          "name": "spender",
          "type": "address"
        },
        {
          "internalType": "uint256",
          "name": "subtractedValue",
          "type": "uint256"
        }
      ],
      "name": "decreaseAllowance",
      "outputs": [
        {
          "internalType": "bool",
          "name": "",
          "type": "bool"
        }
      ],
      "stateMutability": "nonpayable",
      "type": "function"
    },
    {
      "inputs": [
        {
          "internalType": "address",
          "name": "spender",
          "type": "address"
        },
        {
          "internalType": "uint256",
          "name": "addedValue",
          "type": "uint256"
        }
      ],
      "name": "increaseAllowance",
      "outputs": [
        {
          "internalType": "bool",
          "name": "",
          "type": "bool"
        }
      ],
      "stateMutability": "nonpayable",
      "type": "function"
    },
    {
      "inputs": [
        {
          "internalType": "address",
          "name": "_address",
          "type": "address"
        }
      ],
      "name": "isAdmin",
      "outputs": [
        {
          "internalType": "bool",
          "name": "yes",
          "type": "bool"
        }
      ],
      "stateMutability": "view",
      "type": "function"
    },
    {
      "inputs": [],
      "name": "name",
      "outputs": [
        {
          "internalType": "string",
          "name": "",
          "type": "string"
        }
      ],
      "stateMutability": "view",
      "type": "function"
    },
    {
      "inputs": [],
      "name": "symbol",
      "outputs": [
        {
          "internalType": "string",
          "name": "",
          "type": "string"
        }
      ],
      "stateMutability": "view",
      "type": "function"
    },
    {
      "inputs": [],
      "name": "totalSupply",
      "outputs": [
        {
          "internalType": "uint256",
          "name": "",
          "type": "uint256"
        }
      ],
      "stateMutability": "view",
      "type": "function"
    },
    {
      "inputs": [
        {
          "internalType": "address",
          "name": "to",
          "type": "address"
        },
        {
          "internalType": "uint256",
          "name": "amount",
          "type": "uint256"
        }
      ],
      "name": "transfer",
      "outputs": [
        {
          "internalType": "bool",
          "name": "",
          "type": "bool"
        }
      ],
      "stateMutability": "nonpayable",
      "type": "function"
    },
    {
      "inputs": [
        {
          "internalType": "address",
          "name": "from",
          "type": "address"
        },
        {
          "internalType": "address",
          "name": "to",
          "type": "address"
        },
        {
          "internalType": "uint256",
          "name": "amount",
          "type": "uint256"
        }
      ],
      "name": "transferFrom",
      "outputs": [
        {
          "internalType": "bool",
          "name": "",
          "type": "bool"
        }
      ],
      "stateMutability": "nonpayable",
      "type": "function"
    },
    {
      "stateMutability": "payable",
      "type": "receive"
    },
    {
      "inputs": [
        {
          "internalType": "uint256",
          "name": "amount",
          "type": "uint256"
        }
      ],
      "name": "mint",
      "outputs": [],
      "stateMutability": "payable",
      "type": "function"
    },
    {
      "inputs": [
        {
          "internalType": "uint256",
          "name": "amount",
          "type": "uint256"
        }
      ],
      "name": "burn",
      "outputs": [],
      "stateMutability": "nonpayable",
      "type": "function"
    },
    {
      "inputs": [],
      "name": "decimals",
      "outputs": [
        {
          "internalType": "uint8",
          "name": "",
          "type": "uint8"
        }
      ],
      "stateMutability": "view",
      "type": "function"
    }
  ],
  "bytecode": "0x60806040523480156200001157600080fd5b506040518060400160405280601881526020017f4f70656e636861696e44657820537461626c6520436f696e00000000000000008152506040518060400160405280600481526020017f4f4341540000000000000000000000000000000000000000000000000000000081525081600390805190602001906200009692919062000356565b508060049080519060200190620000af92919062000356565b50505033600660016101000a81548173ffffffffffffffffffffffffffffffffffffffff021916908373ffffffffffffffffffffffffffffffffffffffff16021790555062000104336200012660201b60201c565b6009600660156101000a81548160ff021916908360ff1602179055506200064c565b600073ffffffffffffffffffffffffffffffffffffffff16600660019054906101000a900473ffffffffffffffffffffffffffffffffffffffff1673ffffffffffffffffffffffffffffffffffffffff161415620001bb576040517f08c379a0000000000000000000000000000000000000000000000000000000008152600401620001b2906200049d565b60405180910390fd5b600660019054906101000a900473ffffffffffffffffffffffffffffffffffffffff1673ffffffffffffffffffffffffffffffffffffffff163373ffffffffffffffffffffffffffffffffffffffff16146200024e576040517f08c379a000000000000000000000000000000000000000000000000000000000815260040162000245906200047b565b60405180910390fd5b80600073ffffffffffffffffffffffffffffffffffffffff168173ffffffffffffffffffffffffffffffffffffffff161415620002c2576040517f08c379a0000000000000000000000000000000000000000000000000000000008152600401620002b990620004bf565b60405180910390fd5b6001600560008473ffffffffffffffffffffffffffffffffffffffff1673ffffffffffffffffffffffffffffffffffffffff16815260200190815260200160002060006101000a81548160ff0219169083151502179055506001600660009054906101000a900460ff16620003389190620004f2565b600660006101000a81548160ff021916908360ff1602179055505050565b82805462000364906200053d565b90600052602060002090601f016020900481019282620003885760008555620003d4565b82601f10620003a357805160ff1916838001178555620003d4565b82800160010185558215620003d4579182015b82811115620003d3578251825591602001919060010190620003b6565b5b509050620003e39190620003e7565b5090565b5b8082111562000402576000816000905550600101620003e8565b5090565b600062000415601e83620004e1565b91506200042282620005d1565b602082019050919050565b60006200043c601783620004e1565b91506200044982620005fa565b602082019050919050565b600062000463601983620004e1565b9150620004708262000623565b602082019050919050565b60006020820190508181036000830152620004968162000406565b9050919050565b60006020820190508181036000830152620004b8816200042d565b9050919050565b60006020820190508181036000830152620004da8162000454565b9050919050565b600082825260208201905092915050565b6000620004ff8262000530565b91506200050c8362000530565b92508260ff0382111562000525576200052462000573565b5b828201905092915050565b600060ff82169050919050565b600060028204905060018216806200055657607f821691505b602082108114156200056d576200056c620005a2565b5b50919050565b7f4e487b7100000000000000000000000000000000000000000000000000000000600052601160045260246000fd5b7f4e487b7100000000000000000000000000000000000000000000000000000000600052602260045260246000fd5b7f466f722063616c6c65722065787065637465642062652063726561746f720000600082015250565b7f496e76616c69642063726561746f722061646472657373000000000000000000600082015250565b7f4578706563746564206e6f6e2d7a65726f206164647265737300000000000000600082015250565b6120c8806200065c6000396000f3fe6080604052600436106100ec5760003560e01c806342966c681161008a578063a0712d6811610059578063a0712d6814610327578063a457c2d714610343578063a9059cbb14610380578063dd62ed3e146103bd576100f3565b806342966c681461026d578063704802751461029657806370a08231146102bf57806395d89b41146102fc576100f3565b806323b872dd116100c657806323b872dd1461018b57806324d7806c146101c8578063313ce567146102055780633950935114610230576100f3565b806306fdde03146100f8578063095ea7b31461012357806318160ddd14610160576100f3565b366100f357005b600080fd5b34801561010457600080fd5b5061010d6103fa565b60405161011a9190611869565b60405180910390f35b34801561012f57600080fd5b5061014a60048036038101906101459190611576565b61048c565b604051610157919061184e565b60405180910390f35b34801561016c57600080fd5b506101756104af565b6040516101829190611a6b565b60405180910390f35b34801561019757600080fd5b506101b260048036038101906101ad9190611527565b6104b9565b6040516101bf919061184e565b60405180910390f35b3480156101d457600080fd5b506101ef60048036038101906101ea91906114c2565b6104e8565b6040516101fc919061184e565b60405180910390f35b34801561021157600080fd5b5061021a61053e565b6040516102279190611a86565b60405180910390f35b34801561023c57600080fd5b5061025760048036038101906102529190611576565b610555565b604051610264919061184e565b60405180910390f35b34801561027957600080fd5b50610294600480360381019061028f91906115b2565b61058c565b005b3480156102a257600080fd5b506102bd60048036038101906102b891906114c2565b610717565b005b3480156102cb57600080fd5b506102e660048036038101906102e191906114c2565b61093c565b6040516102f39190611a6b565b60405180910390f35b34801561030857600080fd5b50610311610984565b60405161031e9190611869565b60405180910390f35b610341600480360381019061033c91906115b2565b610a16565b005b34801561034f57600080fd5b5061036a60048036038101906103659190611576565b610b56565b604051610377919061184e565b60405180910390f35b34801561038c57600080fd5b506103a760048036038101906103a29190611576565b610bcd565b6040516103b4919061184e565b60405180910390f35b3480156103c957600080fd5b506103e460048036038101906103df91906114eb565b610bf0565b6040516103f19190611a6b565b60405180910390f35b60606003805461040990611c06565b80601f016020809104026020016040519081016040528092919081815260200182805461043590611c06565b80156104825780601f1061045757610100808354040283529160200191610482565b820191906000526020600020905b81548152906001019060200180831161046557829003601f168201915b5050505050905090565b600080610497610c77565b90506104a4818585610c7f565b600191505092915050565b6000600254905090565b6000806104c4610c77565b90506104d1858285610e4a565b6104dc858585610ed6565b60019150509392505050565b6000600560008373ffffffffffffffffffffffffffffffffffffffff1673ffffffffffffffffffffffffffffffffffffffff16815260200190815260200160002060009054906101000a900460ff169050919050565b6000600660159054906101000a900460ff16905090565b600080610560610c77565b90506105818185856105728589610bf0565b61057c9190611abd565b610c7f565b600191505092915050565b600073ffffffffffffffffffffffffffffffffffffffff163373ffffffffffffffffffffffffffffffffffffffff1614156105fc576040517f08c379a00000000000000000000000000000000000000000000000000000000081526004016105f39061194b565b60405180910390fd5b600560003373ffffffffffffffffffffffffffffffffffffffff1673ffffffffffffffffffffffffffffffffffffffff16815260200190815260200160002060009054906101000a900460ff16610688576040517f08c379a000000000000000000000000000000000000000000000000000000000815260040161067f906119cb565b60405180910390fd5b806106923361093c565b10156106d3576040517f08c379a00000000000000000000000000000000000000000000000000000000081526004016106ca90611a0b565b60405180910390fd5b6106dd3382611157565b7f23250cae4640284325b9674615c3761bee977451a30bc4eee69efa47f356beba8160405161070c9190611a6b565b60405180910390a150565b600073ffffffffffffffffffffffffffffffffffffffff16600660019054906101000a900473ffffffffffffffffffffffffffffffffffffffff1673ffffffffffffffffffffffffffffffffffffffff1614156107a9576040517f08c379a00000000000000000000000000000000000000000000000000000000081526004016107a09061194b565b60405180910390fd5b600660019054906101000a900473ffffffffffffffffffffffffffffffffffffffff1673ffffffffffffffffffffffffffffffffffffffff163373ffffffffffffffffffffffffffffffffffffffff1614610839576040517f08c379a00000000000000000000000000000000000000000000000000000000081526004016108309061190b565b60405180910390fd5b80600073ffffffffffffffffffffffffffffffffffffffff168173ffffffffffffffffffffffffffffffffffffffff1614156108aa576040517f08c379a00000000000000000000000000000000000000000000000000000000081526004016108a19061196b565b60405180910390fd5b6001600560008473ffffffffffffffffffffffffffffffffffffffff1673ffffffffffffffffffffffffffffffffffffffff16815260200190815260200160002060006101000a81548160ff0219169083151502179055506001600660009054906101000a900460ff1661091e9190611b13565b600660006101000a81548160ff021916908360ff1602179055505050565b60008060008373ffffffffffffffffffffffffffffffffffffffff1673ffffffffffffffffffffffffffffffffffffffff168152602001908152602001600020549050919050565b60606004805461099390611c06565b80601f01602080910402602001604051908101604052809291908181526020018280546109bf90611c06565b8015610a0c5780601f106109e157610100808354040283529160200191610a0c565b820191906000526020600020905b8154815290600101906020018083116109ef57829003601f168201915b5050505050905090565b600073ffffffffffffffffffffffffffffffffffffffff163373ffffffffffffffffffffffffffffffffffffffff161415610a86576040517f08c379a0000000000000000000000000000000000000000000000000000000008152600401610a7d9061194b565b60405180910390fd5b600560003373ffffffffffffffffffffffffffffffffffffffff1673ffffffffffffffffffffffffffffffffffffffff16815260200190815260200160002060009054906101000a900460ff16610b12576040517f08c379a0000000000000000000000000000000000000000000000000000000008152600401610b09906119cb565b60405180910390fd5b610b1c338261132e565b7f7dc0bf3ff15656545da2c5f0567962839fe379f74aacdfc4e8025bb24e0c082d81604051610b4b9190611a6b565b60405180910390a150565b600080610b61610c77565b90506000610b6f8286610bf0565b905083811015610bb4576040517f08c379a0000000000000000000000000000000000000000000000000000000008152600401610bab90611a2b565b60405180910390fd5b610bc18286868403610c7f565b60019250505092915050565b600080610bd8610c77565b9050610be5818585610ed6565b600191505092915050565b6000600160008473ffffffffffffffffffffffffffffffffffffffff1673ffffffffffffffffffffffffffffffffffffffff16815260200190815260200160002060008373ffffffffffffffffffffffffffffffffffffffff1673ffffffffffffffffffffffffffffffffffffffff16815260200190815260200160002054905092915050565b600033905090565b600073ffffffffffffffffffffffffffffffffffffffff168373ffffffffffffffffffffffffffffffffffffffff161415610cef576040517f08c379a0000000000000000000000000000000000000000000000000000000008152600401610ce6906119eb565b60405180910390fd5b600073ffffffffffffffffffffffffffffffffffffffff168273ffffffffffffffffffffffffffffffffffffffff161415610d5f576040517f08c379a0000000000000000000000000000000000000000000000000000000008152600401610d56906118cb565b60405180910390fd5b80600160008573ffffffffffffffffffffffffffffffffffffffff1673ffffffffffffffffffffffffffffffffffffffff16815260200190815260200160002060008473ffffffffffffffffffffffffffffffffffffffff1673ffffffffffffffffffffffffffffffffffffffff168152602001908152602001600020819055508173ffffffffffffffffffffffffffffffffffffffff168373ffffffffffffffffffffffffffffffffffffffff167f8c5be1e5ebec7d5bd14f71427d1e84f3dd0314c0f7b2291e5b200ac8c7c3b92583604051610e3d9190611a6b565b60405180910390a3505050565b6000610e568484610bf0565b90507fffffffffffffffffffffffffffffffffffffffffffffffffffffffffffffffff8114610ed05781811015610ec2576040517f08c379a0000000000000000000000000000000000000000000000000000000008152600401610eb9906118eb565b60405180910390fd5b610ecf8484848403610c7f565b5b50505050565b600073ffffffffffffffffffffffffffffffffffffffff168373ffffffffffffffffffffffffffffffffffffffff161415610f46576040517f08c379a0000000000000000000000000000000000000000000000000000000008152600401610f3d906119ab565b60405180910390fd5b600073ffffffffffffffffffffffffffffffffffffffff168273ffffffffffffffffffffffffffffffffffffffff161415610fb6576040517f08c379a0000000000000000000000000000000000000000000000000000000008152600401610fad9061188b565b60405180910390fd5b610fc183838361148e565b60008060008573ffffffffffffffffffffffffffffffffffffffff1673ffffffffffffffffffffffffffffffffffffffff16815260200190815260200160002054905081811015611047576040517f08c379a000000000000000000000000000000000000000000000000000000000815260040161103e9061192b565b60405180910390fd5b8181036000808673ffffffffffffffffffffffffffffffffffffffff1673ffffffffffffffffffffffffffffffffffffffff16815260200190815260200160002081905550816000808573ffffffffffffffffffffffffffffffffffffffff1673ffffffffffffffffffffffffffffffffffffffff16815260200190815260200160002060008282546110da9190611abd565b925050819055508273ffffffffffffffffffffffffffffffffffffffff168473ffffffffffffffffffffffffffffffffffffffff167fddf252ad1be2c89b69c2b068fc378daa952ba7f163c4a11628f55a4df523b3ef8460405161113e9190611a6b565b60405180910390a3611151848484611493565b50505050565b600073ffffffffffffffffffffffffffffffffffffffff168273ffffffffffffffffffffffffffffffffffffffff1614156111c7576040517f08c379a00000000000000000000000000000000000000000000000000000000081526004016111be9061198b565b60405180910390fd5b6111d38260008361148e565b60008060008473ffffffffffffffffffffffffffffffffffffffff1673ffffffffffffffffffffffffffffffffffffffff16815260200190815260200160002054905081811015611259576040517f08c379a0000000000000000000000000000000000000000000000000000000008152600401611250906118ab565b60405180910390fd5b8181036000808573ffffffffffffffffffffffffffffffffffffffff1673ffffffffffffffffffffffffffffffffffffffff1681526020019081526020016000208190555081600260008282546112b09190611b4a565b92505081905550600073ffffffffffffffffffffffffffffffffffffffff168373ffffffffffffffffffffffffffffffffffffffff167fddf252ad1be2c89b69c2b068fc378daa952ba7f163c4a11628f55a4df523b3ef846040516113159190611a6b565b60405180910390a361132983600084611493565b505050565b600073ffffffffffffffffffffffffffffffffffffffff168273ffffffffffffffffffffffffffffffffffffffff16141561139e576040517f08c379a000000000000000000000000000000000000000000000000000000000815260040161139590611a4b565b60405180910390fd5b6113aa6000838361148e565b80600260008282546113bc9190611abd565b92505081905550806000808473ffffffffffffffffffffffffffffffffffffffff1673ffffffffffffffffffffffffffffffffffffffff16815260200190815260200160002060008282546114119190611abd565b925050819055508173ffffffffffffffffffffffffffffffffffffffff16600073ffffffffffffffffffffffffffffffffffffffff167fddf252ad1be2c89b69c2b068fc378daa952ba7f163c4a11628f55a4df523b3ef836040516114769190611a6b565b60405180910390a361148a60008383611493565b5050565b505050565b505050565b6000813590506114a781612064565b92915050565b6000813590506114bc8161207b565b92915050565b6000602082840312156114d457600080fd5b60006114e284828501611498565b91505092915050565b600080604083850312156114fe57600080fd5b600061150c85828601611498565b925050602061151d85828601611498565b9150509250929050565b60008060006060848603121561153c57600080fd5b600061154a86828701611498565b935050602061155b86828701611498565b925050604061156c868287016114ad565b9150509250925092565b6000806040838503121561158957600080fd5b600061159785828601611498565b92505060206115a8858286016114ad565b9150509250929050565b6000602082840312156115c457600080fd5b60006115d2848285016114ad565b91505092915050565b6115e481611b90565b82525050565b60006115f582611aa1565b6115ff8185611aac565b935061160f818560208601611bd3565b61161881611c96565b840191505092915050565b6000611630602383611aac565b915061163b82611ca7565b604082019050919050565b6000611653602283611aac565b915061165e82611cf6565b604082019050919050565b6000611676602283611aac565b915061168182611d45565b604082019050919050565b6000611699601d83611aac565b91506116a482611d94565b602082019050919050565b60006116bc601e83611aac565b91506116c782611dbd565b602082019050919050565b60006116df602683611aac565b91506116ea82611de6565b604082019050919050565b6000611702601783611aac565b915061170d82611e35565b602082019050919050565b6000611725601983611aac565b915061173082611e5e565b602082019050919050565b6000611748602183611aac565b915061175382611e87565b604082019050919050565b600061176b602583611aac565b915061177682611ed6565b604082019050919050565b600061178e600d83611aac565b915061179982611f25565b602082019050919050565b60006117b1602483611aac565b91506117bc82611f4e565b604082019050919050565b60006117d4602183611aac565b91506117df82611f9d565b604082019050919050565b60006117f7602583611aac565b915061180282611fec565b604082019050919050565b600061181a601f83611aac565b91506118258261203b565b602082019050919050565b61183981611bbc565b82525050565b61184881611bc6565b82525050565b600060208201905061186360008301846115db565b92915050565b6000602082019050818103600083015261188381846115ea565b905092915050565b600060208201905081810360008301526118a481611623565b9050919050565b600060208201905081810360008301526118c481611646565b9050919050565b600060208201905081810360008301526118e481611669565b9050919050565b600060208201905081810360008301526119048161168c565b9050919050565b60006020820190508181036000830152611924816116af565b9050919050565b60006020820190508181036000830152611944816116d2565b9050919050565b60006020820190508181036000830152611964816116f5565b9050919050565b6000602082019050818103600083015261198481611718565b9050919050565b600060208201905081810360008301526119a48161173b565b9050919050565b600060208201905081810360008301526119c48161175e565b9050919050565b600060208201905081810360008301526119e481611781565b9050919050565b60006020820190508181036000830152611a04816117a4565b9050919050565b60006020820190508181036000830152611a24816117c7565b9050919050565b60006020820190508181036000830152611a44816117ea565b9050919050565b60006020820190508181036000830152611a648161180d565b9050919050565b6000602082019050611a806000830184611830565b92915050565b6000602082019050611a9b600083018461183f565b92915050565b600081519050919050565b600082825260208201905092915050565b6000611ac882611bbc565b9150611ad383611bbc565b9250827fffffffffffffffffffffffffffffffffffffffffffffffffffffffffffffffff03821115611b0857611b07611c38565b5b828201905092915050565b6000611b1e82611bc6565b9150611b2983611bc6565b92508260ff03821115611b3f57611b3e611c38565b5b828201905092915050565b6000611b5582611bbc565b9150611b6083611bbc565b925082821015611b7357611b72611c38565b5b828203905092915050565b6000611b8982611b9c565b9050919050565b60008115159050919050565b600073ffffffffffffffffffffffffffffffffffffffff82169050919050565b6000819050919050565b600060ff82169050919050565b60005b83811015611bf1578082015181840152602081019050611bd6565b83811115611c00576000848401525b50505050565b60006002820490506001821680611c1e57607f821691505b60208210811415611c3257611c31611c67565b5b50919050565b7f4e487b7100000000000000000000000000000000000000000000000000000000600052601160045260246000fd5b7f4e487b7100000000000000000000000000000000000000000000000000000000600052602260045260246000fd5b6000601f19601f8301169050919050565b7f45524332303a207472616e7366657220746f20746865207a65726f206164647260008201527f6573730000000000000000000000000000000000000000000000000000000000602082015250565b7f45524332303a206275726e20616d6f756e7420657863656564732062616c616e60008201527f6365000000000000000000000000000000000000000000000000000000000000602082015250565b7f45524332303a20617070726f766520746f20746865207a65726f20616464726560008201527f7373000000000000000000000000000000000000000000000000000000000000602082015250565b7f45524332303a20696e73756666696369656e7420616c6c6f77616e6365000000600082015250565b7f466f722063616c6c65722065787065637465642062652063726561746f720000600082015250565b7f45524332303a207472616e7366657220616d6f756e742065786365656473206260008201527f616c616e63650000000000000000000000000000000000000000000000000000602082015250565b7f496e76616c69642063726561746f722061646472657373000000000000000000600082015250565b7f4578706563746564206e6f6e2d7a65726f206164647265737300000000000000600082015250565b7f45524332303a206275726e2066726f6d20746865207a65726f2061646472657360008201527f7300000000000000000000000000000000000000000000000000000000000000602082015250565b7f45524332303a207472616e736665722066726f6d20746865207a65726f20616460008201527f6472657373000000000000000000000000000000000000000000000000000000602082015250565b7f4d7573742062652061646d696e00000000000000000000000000000000000000600082015250565b7f45524332303a20617070726f76652066726f6d20746865207a65726f2061646460008201527f7265737300000000000000000000000000000000000000000000000000000000602082015250565b7f496e73756666696369656e74204f4341542062616c616e636520746f2062757260008201527f6e00000000000000000000000000000000000000000000000000000000000000602082015250565b7f45524332303a2064656372656173656420616c6c6f77616e63652062656c6f7760008201527f207a65726f000000000000000000000000000000000000000000000000000000602082015250565b7f45524332303a206d696e7420746f20746865207a65726f206164647265737300600082015250565b61206d81611b7e565b811461207857600080fd5b50565b61208481611bbc565b811461208f57600080fd5b5056fea2646970667358221220651f5a6d98876e83a9c1feb0c577743f580bc1d03f5f1bf97fbeb77bdbf5c3c864736f6c63430008040033",
  "immutableReferences": {},
  "source": "// SPDX-License-Identifier: MIT\r\npragma solidity ^0.8.0;\r\n\r\nimport \"@openzeppelin/contracts/token/ERC20/ERC20.sol\";\r\nimport \"./interface/IOcxERC20.sol\";\r\nimport \"./OcxAdmin.sol\";\r\n\r\ncontract OcatToken is ERC20, OcxAdmin {\r\n\r\n    uint8           private _decimals;\r\n\r\n    event minted(uint256 amount);\r\n    event burned(uint256 amount);\r\n\r\n    receive() external payable {}\r\n\r\n    constructor() ERC20(\"OpenchainDex Stable Coin\", \"OCAT\") {\r\n        _decimals = 9; // In nano\r\n    }\r\n\r\n    /**\r\n        * Custom accessor to create a unique token\r\n    */\r\n    function mint(uint256 amount) external payable\r\n    onlyAdmin {\r\n        super._mint(msg.sender, amount);\r\n        emit minted(amount);\r\n    }\r\n    function burn(uint256 amount) public onlyAdmin {\r\n        require(balanceOf(msg.sender) >= amount, \"Insufficient OCAT balance to burn\");\r\n        super._burn(msg.sender, amount);\r\n        emit burned(amount);\r\n    }\r\n    function decimals() public view virtual override returns (uint8) {\r\n        return _decimals;\r\n    }\r\n}\r\n",
  "sourcePath": "E:\\Work\\OpenchainTestVersion\\server\\contracts\\OcatToken.sol",
  "compiler": {
    "name": "solc",
    "version": "0.8.4+commit.c7e474f2.Emscripten.clang"
  },
  "schemaVersion": "3.4.7",
  "updatedAt": "2022-05-04T11:04:01.556Z",
  "devdoc": {
    "kind": "dev",
    "methods": {
      "allowance(address,address)": {
        "details": "See {IERC20-allowance}."
      },
      "approve(address,uint256)": {
        "details": "See {IERC20-approve}. NOTE: If `amount` is the maximum `uint256`, the allowance is not updated on `transferFrom`. This is semantically equivalent to an infinite approval. Requirements: - `spender` cannot be the zero address."
      },
      "balanceOf(address)": {
        "details": "See {IERC20-balanceOf}."
      },
      "decimals()": {
        "details": "Returns the number of decimals used to get its user representation. For example, if `decimals` equals `2`, a balance of `505` tokens should be displayed to a user as `5.05` (`505 / 10 ** 2`). Tokens usually opt for a value of 18, imitating the relationship between Ether and Wei. This is the value {ERC20} uses, unless this function is overridden; NOTE: This information is only used for _display_ purposes: it in no way affects any of the arithmetic of the contract, including {IERC20-balanceOf} and {IERC20-transfer}."
      },
      "decreaseAllowance(address,uint256)": {
        "details": "Atomically decreases the allowance granted to `spender` by the caller. This is an alternative to {approve} that can be used as a mitigation for problems described in {IERC20-approve}. Emits an {Approval} event indicating the updated allowance. Requirements: - `spender` cannot be the zero address. - `spender` must have allowance for the caller of at least `subtractedValue`."
      },
      "increaseAllowance(address,uint256)": {
        "details": "Atomically increases the allowance granted to `spender` by the caller. This is an alternative to {approve} that can be used as a mitigation for problems described in {IERC20-approve}. Emits an {Approval} event indicating the updated allowance. Requirements: - `spender` cannot be the zero address."
      },
      "name()": {
        "details": "Returns the name of the token."
      },
      "symbol()": {
        "details": "Returns the symbol of the token, usually a shorter version of the name."
      },
      "totalSupply()": {
        "details": "See {IERC20-totalSupply}."
      },
      "transfer(address,uint256)": {
        "details": "See {IERC20-transfer}. Requirements: - `to` cannot be the zero address. - the caller must have a balance of at least `amount`."
      },
      "transferFrom(address,address,uint256)": {
        "details": "See {IERC20-transferFrom}. Emits an {Approval} event indicating the updated allowance. This is not required by the EIP. See the note at the beginning of {ERC20}. NOTE: Does not update the allowance if the current allowance is the maximum `uint256`. Requirements: - `from` and `to` cannot be the zero address. - `from` must have a balance of at least `amount`. - the caller must have allowance for ``from``'s tokens of at least `amount`."
      }
    },
    "version": 1
  },
  "userdoc": {
    "kind": "user",
    "methods": {
      "mint(uint256)": {
        "notice": "Custom accessor to create a unique token"
      }
    },
    "version": 1
  }
}