{
  "contractName": "OcatToken",
  "abi": [
    {
      "inputs": [],
      "stateMutability": "nonpayable",
      "type": "constructor"
    },
    {
      "anonymous": false,
      "inputs": [
        {
          "indexed": true,
          "internalType": "address",
          "name": "owner",
          "type": "address"
        },
        {
          "indexed": true,
          "internalType": "address",
          "name": "spender",
          "type": "address"
        },
        {
          "indexed": false,
          "internalType": "uint256",
          "name": "value",
          "type": "uint256"
        }
      ],
      "name": "Approval",
      "type": "event"
    },
    {
      "anonymous": false,
      "inputs": [
        {
          "indexed": true,
          "internalType": "address",
          "name": "from",
          "type": "address"
        },
        {
          "indexed": true,
          "internalType": "address",
          "name": "to",
          "type": "address"
        },
        {
          "indexed": false,
          "internalType": "uint256",
          "name": "value",
          "type": "uint256"
        }
      ],
      "name": "Transfer",
      "type": "event"
    },
    {
      "inputs": [
        {
          "internalType": "address",
          "name": "owner",
          "type": "address"
        },
        {
          "internalType": "address",
          "name": "spender",
          "type": "address"
        }
      ],
      "name": "allowance",
      "outputs": [
        {
          "internalType": "uint256",
          "name": "",
          "type": "uint256"
        }
      ],
      "stateMutability": "view",
      "type": "function",
      "constant": true
    },
    {
      "inputs": [
        {
          "internalType": "address",
          "name": "spender",
          "type": "address"
        },
        {
          "internalType": "uint256",
          "name": "amount",
          "type": "uint256"
        }
      ],
      "name": "approve",
      "outputs": [
        {
          "internalType": "bool",
          "name": "",
          "type": "bool"
        }
      ],
      "stateMutability": "nonpayable",
      "type": "function"
    },
    {
      "inputs": [
        {
          "internalType": "address",
          "name": "account",
          "type": "address"
        }
      ],
      "name": "balanceOf",
      "outputs": [
        {
          "internalType": "uint256",
          "name": "",
          "type": "uint256"
        }
      ],
      "stateMutability": "view",
      "type": "function",
      "constant": true
    },
    {
      "inputs": [],
      "name": "decimals",
      "outputs": [
        {
          "internalType": "uint8",
          "name": "",
          "type": "uint8"
        }
      ],
      "stateMutability": "view",
      "type": "function",
      "constant": true
    },
    {
      "inputs": [
        {
          "internalType": "address",
          "name": "spender",
          "type": "address"
        },
        {
          "internalType": "uint256",
          "name": "subtractedValue",
          "type": "uint256"
        }
      ],
      "name": "decreaseAllowance",
      "outputs": [
        {
          "internalType": "bool",
          "name": "",
          "type": "bool"
        }
      ],
      "stateMutability": "nonpayable",
      "type": "function"
    },
    {
      "inputs": [
        {
          "internalType": "address",
          "name": "spender",
          "type": "address"
        },
        {
          "internalType": "uint256",
          "name": "addedValue",
          "type": "uint256"
        }
      ],
      "name": "increaseAllowance",
      "outputs": [
        {
          "internalType": "bool",
          "name": "",
          "type": "bool"
        }
      ],
      "stateMutability": "nonpayable",
      "type": "function"
    },
    {
      "inputs": [],
      "name": "name",
      "outputs": [
        {
          "internalType": "string",
          "name": "",
          "type": "string"
        }
      ],
      "stateMutability": "view",
      "type": "function",
      "constant": true
    },
    {
      "inputs": [],
      "name": "symbol",
      "outputs": [
        {
          "internalType": "string",
          "name": "",
          "type": "string"
        }
      ],
      "stateMutability": "view",
      "type": "function",
      "constant": true
    },
    {
      "inputs": [],
      "name": "totalSupply",
      "outputs": [
        {
          "internalType": "uint256",
          "name": "",
          "type": "uint256"
        }
      ],
      "stateMutability": "view",
      "type": "function",
      "constant": true
    },
    {
      "inputs": [
        {
          "internalType": "address",
          "name": "to",
          "type": "address"
        },
        {
          "internalType": "uint256",
          "name": "amount",
          "type": "uint256"
        }
      ],
      "name": "transfer",
      "outputs": [
        {
          "internalType": "bool",
          "name": "",
          "type": "bool"
        }
      ],
      "stateMutability": "nonpayable",
      "type": "function"
    },
    {
      "inputs": [
        {
          "internalType": "address",
          "name": "from",
          "type": "address"
        },
        {
          "internalType": "address",
          "name": "to",
          "type": "address"
        },
        {
          "internalType": "uint256",
          "name": "amount",
          "type": "uint256"
        }
      ],
      "name": "transferFrom",
      "outputs": [
        {
          "internalType": "bool",
          "name": "",
          "type": "bool"
        }
      ],
      "stateMutability": "nonpayable",
      "type": "function"
    },
    {
      "stateMutability": "payable",
      "type": "receive",
      "payable": true
    },
    {
      "inputs": [
        {
          "internalType": "address",
          "name": "_address",
          "type": "address"
        }
      ],
      "name": "addOperator",
      "outputs": [],
      "stateMutability": "payable",
      "type": "function",
      "payable": true
    },
    {
      "inputs": [
        {
          "internalType": "uint256",
          "name": "amount",
          "type": "uint256"
        }
      ],
      "name": "mint",
      "outputs": [],
      "stateMutability": "payable",
      "type": "function",
      "payable": true
    }
  ],
  "bytecode": "0x60806040523480156200001157600080fd5b506040518060400160405280601881526020017f4f70656e636861696e44657820537461626c6520436f696e00000000000000008152506040518060400160405280600481526020017f4f434154000000000000000000000000000000000000000000000000000000008152508160039080519060200190620000969291906200015c565b508060049080519060200190620000af9291906200015c565b50505033600660006101000a81548173ffffffffffffffffffffffffffffffffffffffff021916908373ffffffffffffffffffffffffffffffffffffffff1602179055506005339080600181540180825580915050600190039060005260206000200160009091909190916101000a81548173ffffffffffffffffffffffffffffffffffffffff021916908373ffffffffffffffffffffffffffffffffffffffff16021790555062000271565b8280546200016a906200020c565b90600052602060002090601f0160209004810192826200018e5760008555620001da565b82601f10620001a957805160ff1916838001178555620001da565b82800160010185558215620001da579182015b82811115620001d9578251825591602001919060010190620001bc565b5b509050620001e99190620001ed565b5090565b5b8082111562000208576000816000905550600101620001ee565b5090565b600060028204905060018216806200022557607f821691505b602082108114156200023c576200023b62000242565b5b50919050565b7f4e487b7100000000000000000000000000000000000000000000000000000000600052602260045260246000fd5b611a6180620002816000396000f3fe6080604052600436106100c65760003560e01c806370a082311161007f578063a0712d6811610059578063a0712d681461028e578063a457c2d7146102aa578063a9059cbb146102e7578063dd62ed3e14610324576100cd565b806370a082311461020a57806395d89b41146102475780639870d7fe14610272576100cd565b806306fdde03146100d2578063095ea7b3146100fd57806318160ddd1461013a57806323b872dd14610165578063313ce567146101a257806339509351146101cd576100cd565b366100cd57005b600080fd5b3480156100de57600080fd5b506100e7610361565b6040516100f491906113c8565b60405180910390f35b34801561010957600080fd5b50610124600480360381019061011f9190611184565b6103f3565b60405161013191906113ad565b60405180910390f35b34801561014657600080fd5b5061014f610416565b60405161015c919061152a565b60405180910390f35b34801561017157600080fd5b5061018c60048036038101906101879190611135565b610420565b60405161019991906113ad565b60405180910390f35b3480156101ae57600080fd5b506101b761044f565b6040516101c49190611545565b60405180910390f35b3480156101d957600080fd5b506101f460048036038101906101ef9190611184565b610458565b60405161020191906113ad565b60405180910390f35b34801561021657600080fd5b50610231600480360381019061022c91906110d0565b610502565b60405161023e919061152a565b60405180910390f35b34801561025357600080fd5b5061025c61054a565b60405161026991906113c8565b60405180910390f35b61028c600480360381019061028791906110d0565b6105dc565b005b6102a860048036038101906102a391906111c0565b61079b565b005b3480156102b657600080fd5b506102d160048036038101906102cc9190611184565b6108c8565b6040516102de91906113ad565b60405180910390f35b3480156102f357600080fd5b5061030e60048036038101906103099190611184565b6109b2565b60405161031b91906113ad565b60405180910390f35b34801561033057600080fd5b5061034b600480360381019061034691906110f9565b6109d5565b604051610358919061152a565b60405180910390f35b606060038054610370906116b4565b80601f016020809104026020016040519081016040528092919081815260200182805461039c906116b4565b80156103e95780601f106103be576101008083540402835291602001916103e9565b820191906000526020600020905b8154815290600101906020018083116103cc57829003601f168201915b5050505050905090565b6000806103fe610a5c565b905061040b818585610a64565b600191505092915050565b6000600254905090565b60008061042b610a5c565b9050610438858285610c2f565b610443858585610cbb565b60019150509392505050565b60006012905090565b600080610463610a5c565b90506104f7818585600160008673ffffffffffffffffffffffffffffffffffffffff1673ffffffffffffffffffffffffffffffffffffffff16815260200190815260200160002060008973ffffffffffffffffffffffffffffffffffffffff1673ffffffffffffffffffffffffffffffffffffffff168152602001908152602001600020546104f2919061157c565b610a64565b600191505092915050565b60008060008373ffffffffffffffffffffffffffffffffffffffff1673ffffffffffffffffffffffffffffffffffffffff168152602001908152602001600020549050919050565b606060048054610559906116b4565b80601f0160208091040260200160405190810160405280929190818152602001828054610585906116b4565b80156105d25780601f106105a7576101008083540402835291602001916105d2565b820191906000526020600020905b8154815290600101906020018083116105b557829003601f168201915b5050505050905090565b600660009054906101000a900473ffffffffffffffffffffffffffffffffffffffff1673ffffffffffffffffffffffffffffffffffffffff168173ffffffffffffffffffffffffffffffffffffffff161461066c576040517f08c379a00000000000000000000000000000000000000000000000000000000081526004016106639061144a565b60405180910390fd5b60005b6005805490508160ff1610156107335760058160ff16815481106106bc577f4e487b7100000000000000000000000000000000000000000000000000000000600052603260045260246000fd5b9060005260206000200160009054906101000a900473ffffffffffffffffffffffffffffffffffffffff1673ffffffffffffffffffffffffffffffffffffffff168273ffffffffffffffffffffffffffffffffffffffff1614156107205750610798565b808061072b906116e6565b91505061066f565b506005819080600181540180825580915050600190039060005260206000200160009091909190916101000a81548173ffffffffffffffffffffffffffffffffffffffff021916908373ffffffffffffffffffffffffffffffffffffffff1602179055505b50565b6000805b6005805490508160ff1610156108665760058160ff16815481106107ec577f4e487b7100000000000000000000000000000000000000000000000000000000600052603260045260246000fd5b9060005260206000200160009054906101000a900473ffffffffffffffffffffffffffffffffffffffff1673ffffffffffffffffffffffffffffffffffffffff163373ffffffffffffffffffffffffffffffffffffffff1614156108535760019150610866565b808061085e906116e6565b91505061079f565b50806108a7576040517f08c379a000000000000000000000000000000000000000000000000000000000815260040161089e9061148a565b60405180910390fd5b6108c433670de0b6b3a7640000846108bf91906115d2565b610f3c565b5050565b6000806108d3610a5c565b90506000600160008373ffffffffffffffffffffffffffffffffffffffff1673ffffffffffffffffffffffffffffffffffffffff16815260200190815260200160002060008673ffffffffffffffffffffffffffffffffffffffff1673ffffffffffffffffffffffffffffffffffffffff16815260200190815260200160002054905083811015610999576040517f08c379a0000000000000000000000000000000000000000000000000000000008152600401610990906114ea565b60405180910390fd5b6109a68286868403610a64565b60019250505092915050565b6000806109bd610a5c565b90506109ca818585610cbb565b600191505092915050565b6000600160008473ffffffffffffffffffffffffffffffffffffffff1673ffffffffffffffffffffffffffffffffffffffff16815260200190815260200160002060008373ffffffffffffffffffffffffffffffffffffffff1673ffffffffffffffffffffffffffffffffffffffff16815260200190815260200160002054905092915050565b600033905090565b600073ffffffffffffffffffffffffffffffffffffffff168373ffffffffffffffffffffffffffffffffffffffff161415610ad4576040517f08c379a0000000000000000000000000000000000000000000000000000000008152600401610acb906114ca565b60405180910390fd5b600073ffffffffffffffffffffffffffffffffffffffff168273ffffffffffffffffffffffffffffffffffffffff161415610b44576040517f08c379a0000000000000000000000000000000000000000000000000000000008152600401610b3b9061140a565b60405180910390fd5b80600160008573ffffffffffffffffffffffffffffffffffffffff1673ffffffffffffffffffffffffffffffffffffffff16815260200190815260200160002060008473ffffffffffffffffffffffffffffffffffffffff1673ffffffffffffffffffffffffffffffffffffffff168152602001908152602001600020819055508173ffffffffffffffffffffffffffffffffffffffff168373ffffffffffffffffffffffffffffffffffffffff167f8c5be1e5ebec7d5bd14f71427d1e84f3dd0314c0f7b2291e5b200ac8c7c3b92583604051610c22919061152a565b60405180910390a3505050565b6000610c3b84846109d5565b90507fffffffffffffffffffffffffffffffffffffffffffffffffffffffffffffffff8114610cb55781811015610ca7576040517f08c379a0000000000000000000000000000000000000000000000000000000008152600401610c9e9061142a565b60405180910390fd5b610cb48484848403610a64565b5b50505050565b600073ffffffffffffffffffffffffffffffffffffffff168373ffffffffffffffffffffffffffffffffffffffff161415610d2b576040517f08c379a0000000000000000000000000000000000000000000000000000000008152600401610d22906114aa565b60405180910390fd5b600073ffffffffffffffffffffffffffffffffffffffff168273ffffffffffffffffffffffffffffffffffffffff161415610d9b576040517f08c379a0000000000000000000000000000000000000000000000000000000008152600401610d92906113ea565b60405180910390fd5b610da683838361109c565b60008060008573ffffffffffffffffffffffffffffffffffffffff1673ffffffffffffffffffffffffffffffffffffffff16815260200190815260200160002054905081811015610e2c576040517f08c379a0000000000000000000000000000000000000000000000000000000008152600401610e239061146a565b60405180910390fd5b8181036000808673ffffffffffffffffffffffffffffffffffffffff1673ffffffffffffffffffffffffffffffffffffffff16815260200190815260200160002081905550816000808573ffffffffffffffffffffffffffffffffffffffff1673ffffffffffffffffffffffffffffffffffffffff1681526020019081526020016000206000828254610ebf919061157c565b925050819055508273ffffffffffffffffffffffffffffffffffffffff168473ffffffffffffffffffffffffffffffffffffffff167fddf252ad1be2c89b69c2b068fc378daa952ba7f163c4a11628f55a4df523b3ef84604051610f23919061152a565b60405180910390a3610f368484846110a1565b50505050565b600073ffffffffffffffffffffffffffffffffffffffff168273ffffffffffffffffffffffffffffffffffffffff161415610fac576040517f08c379a0000000000000000000000000000000000000000000000000000000008152600401610fa39061150a565b60405180910390fd5b610fb86000838361109c565b8060026000828254610fca919061157c565b92505081905550806000808473ffffffffffffffffffffffffffffffffffffffff1673ffffffffffffffffffffffffffffffffffffffff168152602001908152602001600020600082825461101f919061157c565b925050819055508173ffffffffffffffffffffffffffffffffffffffff16600073ffffffffffffffffffffffffffffffffffffffff167fddf252ad1be2c89b69c2b068fc378daa952ba7f163c4a11628f55a4df523b3ef83604051611084919061152a565b60405180910390a3611098600083836110a1565b5050565b505050565b505050565b6000813590506110b5816119fd565b92915050565b6000813590506110ca81611a14565b92915050565b6000602082840312156110e257600080fd5b60006110f0848285016110a6565b91505092915050565b6000806040838503121561110c57600080fd5b600061111a858286016110a6565b925050602061112b858286016110a6565b9150509250929050565b60008060006060848603121561114a57600080fd5b6000611158868287016110a6565b9350506020611169868287016110a6565b925050604061117a868287016110bb565b9150509250925092565b6000806040838503121561119757600080fd5b60006111a5858286016110a6565b92505060206111b6858286016110bb565b9150509250929050565b6000602082840312156111d257600080fd5b60006111e0848285016110bb565b91505092915050565b6111f28161163e565b82525050565b600061120382611560565b61120d818561156b565b935061121d818560208601611681565b6112268161176e565b840191505092915050565b600061123e60238361156b565b91506112498261177f565b604082019050919050565b600061126160228361156b565b915061126c826117ce565b604082019050919050565b6000611284601d8361156b565b915061128f8261181d565b602082019050919050565b60006112a7600e8361156b565b91506112b282611846565b602082019050919050565b60006112ca60268361156b565b91506112d58261186f565b604082019050919050565b60006112ed60108361156b565b91506112f8826118be565b602082019050919050565b600061131060258361156b565b915061131b826118e7565b604082019050919050565b600061133360248361156b565b915061133e82611936565b604082019050919050565b600061135660258361156b565b915061136182611985565b604082019050919050565b6000611379601f8361156b565b9150611384826119d4565b602082019050919050565b6113988161166a565b82525050565b6113a781611674565b82525050565b60006020820190506113c260008301846111e9565b92915050565b600060208201905081810360008301526113e281846111f8565b905092915050565b6000602082019050818103600083015261140381611231565b9050919050565b6000602082019050818103600083015261142381611254565b9050919050565b6000602082019050818103600083015261144381611277565b9050919050565b600060208201905081810360008301526114638161129a565b9050919050565b60006020820190508181036000830152611483816112bd565b9050919050565b600060208201905081810360008301526114a3816112e0565b9050919050565b600060208201905081810360008301526114c381611303565b9050919050565b600060208201905081810360008301526114e381611326565b9050919050565b6000602082019050818103600083015261150381611349565b9050919050565b600060208201905081810360008301526115238161136c565b9050919050565b600060208201905061153f600083018461138f565b92915050565b600060208201905061155a600083018461139e565b92915050565b600081519050919050565b600082825260208201905092915050565b60006115878261166a565b91506115928361166a565b9250827fffffffffffffffffffffffffffffffffffffffffffffffffffffffffffffffff038211156115c7576115c6611710565b5b828201905092915050565b60006115dd8261166a565b91506115e88361166a565b9250817fffffffffffffffffffffffffffffffffffffffffffffffffffffffffffffffff048311821515161561162157611620611710565b5b828202905092915050565b60006116378261164a565b9050919050565b60008115159050919050565b600073ffffffffffffffffffffffffffffffffffffffff82169050919050565b6000819050919050565b600060ff82169050919050565b60005b8381101561169f578082015181840152602081019050611684565b838111156116ae576000848401525b50505050565b600060028204905060018216806116cc57607f821691505b602082108114156116e0576116df61173f565b5b50919050565b60006116f182611674565b915060ff82141561170557611704611710565b5b600182019050919050565b7f4e487b7100000000000000000000000000000000000000000000000000000000600052601160045260246000fd5b7f4e487b7100000000000000000000000000000000000000000000000000000000600052602260045260246000fd5b6000601f19601f8301169050919050565b7f45524332303a207472616e7366657220746f20746865207a65726f206164647260008201527f6573730000000000000000000000000000000000000000000000000000000000602082015250565b7f45524332303a20617070726f766520746f20746865207a65726f20616464726560008201527f7373000000000000000000000000000000000000000000000000000000000000602082015250565b7f45524332303a20696e73756666696369656e7420616c6c6f77616e6365000000600082015250565b7f496e76616c69642063616c6c6572000000000000000000000000000000000000600082015250565b7f45524332303a207472616e7366657220616d6f756e742065786365656473206260008201527f616c616e63650000000000000000000000000000000000000000000000000000602082015250565b7f4e6f7420616c6c6f776564207573657200000000000000000000000000000000600082015250565b7f45524332303a207472616e736665722066726f6d20746865207a65726f20616460008201527f6472657373000000000000000000000000000000000000000000000000000000602082015250565b7f45524332303a20617070726f76652066726f6d20746865207a65726f2061646460008201527f7265737300000000000000000000000000000000000000000000000000000000602082015250565b7f45524332303a2064656372656173656420616c6c6f77616e63652062656c6f7760008201527f207a65726f000000000000000000000000000000000000000000000000000000602082015250565b7f45524332303a206d696e7420746f20746865207a65726f206164647265737300600082015250565b611a068161162c565b8114611a1157600080fd5b50565b611a1d8161166a565b8114611a2857600080fd5b5056fea26469706673582212209b14fd46a2700ff45e3b13c7584c76f70f4c9fecfb4218c3a9e0f86e1744d2a664736f6c63430008040033",
  "immutableReferences": {},
  "source": "// SPDX-License-Identifier: MIT\npragma solidity ^0.8.0;\n\nimport \"@openzeppelin/contracts/token/ERC20/ERC20.sol\";\n\ncontract OcatToken is ERC20 {\n\n    address[]       private allowedOperators;\n    address payable private creator;\n\n    receive() external payable {}\n\n    constructor() ERC20(\"OpenchainDex Stable Coin\", \"OCAT\") {\n        // super._mint(msg.sender, (10 ** 8) * (10 ** 18));\n        creator = payable(msg.sender);\n        allowedOperators.push(msg.sender);\n    }\n\n\n    modifier isAllowedOperator {\n        bool isAllowed = false;\n        for (uint8 i = 0; i < allowedOperators.length; i++) {\n            if (msg.sender == allowedOperators[i]) {\n                isAllowed = true;\n                break;\n            }\n        }\n        require(isAllowed, \"Not allowed user\");\n        _;\n    }\n\n    function addOperator(address _address) public payable {\n        require(_address == creator, \"Invalid caller\");\n        for (uint8 i = 0; i < allowedOperators.length; i++) {\n            if (_address == allowedOperators[i]) {\n                return;\n            }\n        }\n        allowedOperators.push(_address);\n    }\n\n    /**\n        * Custom accessor to create a unique token\n    */\n    function mint(uint256 amount) public payable isAllowedOperator {\n        super._mint(msg.sender, amount * (10 ** 18));\n    }\n}\n",
  "sourcePath": "/home/cowboy/OpenchainTestVersion/server/contracts/OcatToken.sol",
  "compiler": {
    "name": "solc",
    "version": "0.8.4+commit.c7e474f2.Emscripten.clang"
  },
  "schemaVersion": "3.4.6",
  "updatedAt": "2022-04-09T06:58:09.357Z",
  "networkType": "ethereum",
  "devdoc": {
    "kind": "dev",
    "methods": {
      "allowance(address,address)": {
        "details": "See {IERC20-allowance}."
      },
      "approve(address,uint256)": {
        "details": "See {IERC20-approve}. NOTE: If `amount` is the maximum `uint256`, the allowance is not updated on `transferFrom`. This is semantically equivalent to an infinite approval. Requirements: - `spender` cannot be the zero address."
      },
      "balanceOf(address)": {
        "details": "See {IERC20-balanceOf}."
      },
      "decimals()": {
        "details": "Returns the number of decimals used to get its user representation. For example, if `decimals` equals `2`, a balance of `505` tokens should be displayed to a user as `5.05` (`505 / 10 ** 2`). Tokens usually opt for a value of 18, imitating the relationship between Ether and Wei. This is the value {ERC20} uses, unless this function is overridden; NOTE: This information is only used for _display_ purposes: it in no way affects any of the arithmetic of the contract, including {IERC20-balanceOf} and {IERC20-transfer}."
      },
      "decreaseAllowance(address,uint256)": {
        "details": "Atomically decreases the allowance granted to `spender` by the caller. This is an alternative to {approve} that can be used as a mitigation for problems described in {IERC20-approve}. Emits an {Approval} event indicating the updated allowance. Requirements: - `spender` cannot be the zero address. - `spender` must have allowance for the caller of at least `subtractedValue`."
      },
      "increaseAllowance(address,uint256)": {
        "details": "Atomically increases the allowance granted to `spender` by the caller. This is an alternative to {approve} that can be used as a mitigation for problems described in {IERC20-approve}. Emits an {Approval} event indicating the updated allowance. Requirements: - `spender` cannot be the zero address."
      },
      "name()": {
        "details": "Returns the name of the token."
      },
      "symbol()": {
        "details": "Returns the symbol of the token, usually a shorter version of the name."
      },
      "totalSupply()": {
        "details": "See {IERC20-totalSupply}."
      },
      "transfer(address,uint256)": {
        "details": "See {IERC20-transfer}. Requirements: - `to` cannot be the zero address. - the caller must have a balance of at least `amount`."
      },
      "transferFrom(address,address,uint256)": {
        "details": "See {IERC20-transferFrom}. Emits an {Approval} event indicating the updated allowance. This is not required by the EIP. See the note at the beginning of {ERC20}. NOTE: Does not update the allowance if the current allowance is the maximum `uint256`. Requirements: - `from` and `to` cannot be the zero address. - `from` must have a balance of at least `amount`. - the caller must have allowance for ``from``'s tokens of at least `amount`."
      }
    },
    "version": 1
  },
  "userdoc": {
    "kind": "user",
    "methods": {
      "mint(uint256)": {
        "notice": "Custom accessor to create a unique token"
      }
    },
    "version": 1
  }
}