{
  "contractName": "OcdSwap",
  "abi": [
    {
      "inputs": [],
      "stateMutability": "nonpayable",
      "type": "constructor"
    },
    {
      "inputs": [],
      "name": "uniswapRouter",
      "outputs": [
        {
          "internalType": "contract IUniswapV2Router02",
          "name": "",
          "type": "address"
        }
      ],
      "stateMutability": "view",
      "type": "function",
      "constant": true
    },
    {
      "stateMutability": "payable",
      "type": "receive",
      "payable": true
    },
    {
      "inputs": [
        {
          "internalType": "address payable",
          "name": "_pnftAddress",
          "type": "address"
        }
      ],
      "name": "setPnftAddress",
      "outputs": [],
      "stateMutability": "nonpayable",
      "type": "function"
    },
    {
      "inputs": [
        {
          "internalType": "address payable",
          "name": "_ocatAddress",
          "type": "address"
        }
      ],
      "name": "setOcatAddress",
      "outputs": [],
      "stateMutability": "nonpayable",
      "type": "function"
    },
    {
      "inputs": [
        {
          "internalType": "address",
          "name": "_tokenOut",
          "type": "address"
        },
        {
          "internalType": "uint256",
          "name": "_amountOutMin",
          "type": "uint256"
        },
        {
          "internalType": "uint256",
          "name": "_deadline",
          "type": "uint256"
        }
      ],
      "name": "swapFromETH",
      "outputs": [],
      "stateMutability": "payable",
      "type": "function",
      "payable": true
    },
    {
      "inputs": [
        {
          "internalType": "address",
          "name": "_tokenIn",
          "type": "address"
        },
        {
          "internalType": "uint256",
          "name": "_amountIn",
          "type": "uint256"
        },
        {
          "internalType": "uint256",
          "name": "_amountOutMin",
          "type": "uint256"
        },
        {
          "internalType": "uint256",
          "name": "_deadline",
          "type": "uint256"
        }
      ],
      "name": "swapToETH",
      "outputs": [],
      "stateMutability": "nonpayable",
      "type": "function"
    },
    {
      "inputs": [
        {
          "internalType": "address",
          "name": "_tokenIn",
          "type": "address"
        },
        {
          "internalType": "uint256",
          "name": "_amountIn",
          "type": "uint256"
        },
        {
          "internalType": "address",
          "name": "_tokenOut",
          "type": "address"
        },
        {
          "internalType": "uint256",
          "name": "_amountOutMin",
          "type": "uint256"
        },
        {
          "internalType": "uint256",
          "name": "_deadline",
          "type": "uint256"
        }
      ],
      "name": "swapForERC20",
      "outputs": [],
      "stateMutability": "nonpayable",
      "type": "function"
    },
    {
      "inputs": [
        {
          "internalType": "address",
          "name": "operator",
          "type": "address"
        },
        {
          "internalType": "address",
          "name": "from",
          "type": "address"
        },
        {
          "internalType": "uint256",
          "name": "tokenId",
          "type": "uint256"
        },
        {
          "internalType": "bytes",
          "name": "data",
          "type": "bytes"
        }
      ],
      "name": "onERC721Received",
      "outputs": [
        {
          "internalType": "bytes4",
          "name": "",
          "type": "bytes4"
        }
      ],
      "stateMutability": "nonpayable",
      "type": "function"
    },
    {
      "inputs": [
        {
          "internalType": "uint256",
          "name": "nftID",
          "type": "uint256"
        }
      ],
      "name": "swapToOCAT",
      "outputs": [],
      "stateMutability": "nonpayable",
      "type": "function"
    }
  ],
  "bytecode": "0x608060405234801561001057600080fd5b5033600360006101000a81548173ffffffffffffffffffffffffffffffffffffffff021916908373ffffffffffffffffffffffffffffffffffffffff160217905550737a250d5630b4cf539739df2c5dacb4c659f2488d6000806101000a81548173ffffffffffffffffffffffffffffffffffffffff021916908373ffffffffffffffffffffffffffffffffffffffff160217905550612fed806100b56000396000f3fe60806040526004361061007f5760003560e01c8063b18d30a21161004e578063b18d30a214610145578063b7afb0ad1461016e578063ca53421114610197578063fafbed4d146101b357610086565b8063150b7a021461008b57806315f03d22146100c8578063735de9f7146100f15780638b92f59d1461011c57610086565b3661008657005b600080fd5b34801561009757600080fd5b506100b260048036038101906100ad9190611fbc565b6101dc565b6040516100bf919061265b565b60405180910390f35b3480156100d457600080fd5b506100ef60048036038101906100ea9190611f93565b6101f1565b005b3480156100fd57600080fd5b50610106610335565b6040516101139190612676565b60405180910390f35b34801561012857600080fd5b50610143600480360381019061013e9190612102565b610359565b005b34801561015157600080fd5b5061016c60048036038101906101679190611f93565b61080f565b005b34801561017a57600080fd5b50610195600480360381019061019091906121cf565b610953565b005b6101b160048036038101906101ac91906120b3565b610d69565b005b3480156101bf57600080fd5b506101da60048036038101906101d5919061203c565b611022565b005b600063150b7a0260e01b905095945050505050565b3373ffffffffffffffffffffffffffffffffffffffff16600360009054906101000a900473ffffffffffffffffffffffffffffffffffffffff1673ffffffffffffffffffffffffffffffffffffffff1614610281576040517f08c379a0000000000000000000000000000000000000000000000000000000008152600401610278906127d3565b60405180910390fd5b600073ffffffffffffffffffffffffffffffffffffffff168173ffffffffffffffffffffffffffffffffffffffff1614156102f1576040517f08c379a00000000000000000000000000000000000000000000000000000000081526004016102e8906126f3565b60405180910390fd5b80600160006101000a81548173ffffffffffffffffffffffffffffffffffffffff021916908373ffffffffffffffffffffffffffffffffffffffff16021790555050565b60008054906101000a900473ffffffffffffffffffffffffffffffffffffffff1681565b600084905060008173ffffffffffffffffffffffffffffffffffffffff1663dd62ed3e33306040518363ffffffff1660e01b815260040161039b9291906125d2565b60206040518083038186803b1580156103b357600080fd5b505afa1580156103c7573d6000803e3d6000fd5b505050506040513d601f19601f820116820180604052508101906103eb91906121f8565b905060006103f882611548565b905061041c604051806060016040528060358152602001612f8360359139826116f5565b9050858210158190610464576040517f08c379a000000000000000000000000000000000000000000000000000000000815260040161045b9190612691565b60405180910390fd5b5061047187333089611739565b8273ffffffffffffffffffffffffffffffffffffffff1663095ea7b3737a250d5630b4cf539739df2c5dacb4c659f2488d886040518363ffffffff1660e01b81526004016104c0929190612632565b602060405180830381600087803b1580156104da57600080fd5b505af11580156104ee573d6000803e3d6000fd5b505050506040513d601f19601f8201168201806040525081019061051291906121a6565b610551576040517f08c379a000000000000000000000000000000000000000000000000000000000815260040161054890612753565b60405180910390fd5b6000600267ffffffffffffffff811115610594577f4e487b7100000000000000000000000000000000000000000000000000000000600052604160045260246000fd5b6040519080825280602002602001820160405280156105c25781602001602082028036833780820191505090505b5090508781600081518110610600577f4e487b7100000000000000000000000000000000000000000000000000000000600052603260045260246000fd5b602002602001019073ffffffffffffffffffffffffffffffffffffffff16908173ffffffffffffffffffffffffffffffffffffffff168152505060008054906101000a900473ffffffffffffffffffffffffffffffffffffffff1673ffffffffffffffffffffffffffffffffffffffff1663ad5c46486040518163ffffffff1660e01b815260040160206040518083038186803b1580156106a057600080fd5b505afa1580156106b4573d6000803e3d6000fd5b505050506040513d601f19601f820116820180604052508101906106d89190611f6a565b81600181518110610712577f4e487b7100000000000000000000000000000000000000000000000000000000600052603260045260246000fd5b602002602001019073ffffffffffffffffffffffffffffffffffffffff16908173ffffffffffffffffffffffffffffffffffffffff168152505060008054906101000a900473ffffffffffffffffffffffffffffffffffffffff1673ffffffffffffffffffffffffffffffffffffffff166318cbafe5888884338a6040518663ffffffff1660e01b81526004016107ad95949392919061285a565b600060405180830381600087803b1580156107c757600080fd5b505af11580156107db573d6000803e3d6000fd5b505050506040513d6000823e3d601f19601f820116820180604052508101906108049190612165565b505050505050505050565b3373ffffffffffffffffffffffffffffffffffffffff16600360009054906101000a900473ffffffffffffffffffffffffffffffffffffffff1673ffffffffffffffffffffffffffffffffffffffff161461089f576040517f08c379a000000000000000000000000000000000000000000000000000000000815260040161089690612733565b60405180910390fd5b600073ffffffffffffffffffffffffffffffffffffffff168173ffffffffffffffffffffffffffffffffffffffff16141561090f576040517f08c379a0000000000000000000000000000000000000000000000000000000008152600401610906906126d3565b60405180910390fd5b80600260006101000a81548173ffffffffffffffffffffffffffffffffffffffff021916908373ffffffffffffffffffffffffffffffffffffffff16021790555050565b3073ffffffffffffffffffffffffffffffffffffffff163373ffffffffffffffffffffffffffffffffffffffff1614156109c2576040517f08c379a00000000000000000000000000000000000000000000000000000000081526004016109b990612713565b60405180910390fd5b600073ffffffffffffffffffffffffffffffffffffffff163373ffffffffffffffffffffffffffffffffffffffff161415610a32576040517f08c379a0000000000000000000000000000000000000000000000000000000008152600401610a2990612793565b60405180910390fd5b60008111610a75576040517f08c379a0000000000000000000000000000000000000000000000000000000008152600401610a6c906126b3565b60405180910390fd5b6000600260009054906101000a900473ffffffffffffffffffffffffffffffffffffffff1673ffffffffffffffffffffffffffffffffffffffff166370a08231306040518263ffffffff1660e01b8152600401610ad291906125b7565b60206040518083038186803b158015610aea57600080fd5b505afa158015610afe573d6000803e3d6000fd5b505050506040513d601f19601f82011682018060405250810190610b2291906121f8565b90506000600160009054906101000a900473ffffffffffffffffffffffffffffffffffffffff1673ffffffffffffffffffffffffffffffffffffffff1663717947b1846040518263ffffffff1660e01b8152600401610b8191906127f3565b60006040518083038186803b158015610b9957600080fd5b505afa158015610bad573d6000803e3d6000fd5b505050506040513d6000823e3d601f19601f82011682018060405250810190610bd69190612221565b5050965050505050505080821015610c23576040517f08c379a0000000000000000000000000000000000000000000000000000000008152600401610c1a90612773565b60405180910390fd5b600160009054906101000a900473ffffffffffffffffffffffffffffffffffffffff1673ffffffffffffffffffffffffffffffffffffffff166342842e0e3330866040518463ffffffff1660e01b8152600401610c82939291906125fb565b600060405180830381600087803b158015610c9c57600080fd5b505af1158015610cb0573d6000803e3d6000fd5b50505050600260009054906101000a900473ffffffffffffffffffffffffffffffffffffffff1673ffffffffffffffffffffffffffffffffffffffff1663a9059cbb33836040518363ffffffff1660e01b8152600401610d11929190612632565b602060405180830381600087803b158015610d2b57600080fd5b505af1158015610d3f573d6000803e3d6000fd5b505050506040513d601f19601f82011682018060405250810190610d6391906121a6565b50505050565b6000600267ffffffffffffffff811115610dac577f4e487b7100000000000000000000000000000000000000000000000000000000600052604160045260246000fd5b604051908082528060200260200182016040528015610dda5781602001602082028036833780820191505090505b50905060008054906101000a900473ffffffffffffffffffffffffffffffffffffffff1673ffffffffffffffffffffffffffffffffffffffff1663ad5c46486040518163ffffffff1660e01b815260040160206040518083038186803b158015610e4357600080fd5b505afa158015610e57573d6000803e3d6000fd5b505050506040513d601f19601f82011682018060405250810190610e7b9190611f6a565b81600081518110610eb5577f4e487b7100000000000000000000000000000000000000000000000000000000600052603260045260246000fd5b602002602001019073ffffffffffffffffffffffffffffffffffffffff16908173ffffffffffffffffffffffffffffffffffffffff16815250508381600181518110610f2a577f4e487b7100000000000000000000000000000000000000000000000000000000600052603260045260246000fd5b602002602001019073ffffffffffffffffffffffffffffffffffffffff16908173ffffffffffffffffffffffffffffffffffffffff168152505060008054906101000a900473ffffffffffffffffffffffffffffffffffffffff1673ffffffffffffffffffffffffffffffffffffffff16637ff36ab534858433876040518663ffffffff1660e01b8152600401610fc4949392919061280e565b6000604051808303818588803b158015610fdd57600080fd5b505af1158015610ff1573d6000803e3d6000fd5b50505050506040513d6000823e3d601f19601f8201168201806040525081019061101b9190612165565b5050505050565b60008573ffffffffffffffffffffffffffffffffffffffff1663dd62ed3e33306040518363ffffffff1660e01b815260040161105f9291906125d2565b60206040518083038186803b15801561107757600080fd5b505afa15801561108b573d6000803e3d6000fd5b505050506040513d601f19601f820116820180604052508101906110af91906121f8565b905060006110bc82611548565b90506110e0604051806060016040528060358152602001612f8360359139826116f5565b9050858210158190611128576040517f08c379a000000000000000000000000000000000000000000000000000000000815260040161111f9190612691565b60405180910390fd5b5061113587333089611739565b8673ffffffffffffffffffffffffffffffffffffffff1663095ea7b3737a250d5630b4cf539739df2c5dacb4c659f2488d886040518363ffffffff1660e01b8152600401611184929190612632565b602060405180830381600087803b15801561119e57600080fd5b505af11580156111b2573d6000803e3d6000fd5b505050506040513d601f19601f820116820180604052508101906111d691906121a6565b611215576040517f08c379a000000000000000000000000000000000000000000000000000000000815260040161120c90612753565b60405180910390fd5b6000600367ffffffffffffffff811115611258577f4e487b7100000000000000000000000000000000000000000000000000000000600052604160045260246000fd5b6040519080825280602002602001820160405280156112865781602001602082028036833780820191505090505b50905087816000815181106112c4577f4e487b7100000000000000000000000000000000000000000000000000000000600052603260045260246000fd5b602002602001019073ffffffffffffffffffffffffffffffffffffffff16908173ffffffffffffffffffffffffffffffffffffffff168152505060008054906101000a900473ffffffffffffffffffffffffffffffffffffffff1673ffffffffffffffffffffffffffffffffffffffff1663ad5c46486040518163ffffffff1660e01b815260040160206040518083038186803b15801561136457600080fd5b505afa158015611378573d6000803e3d6000fd5b505050506040513d601f19601f8201168201806040525081019061139c9190611f6a565b816001815181106113d6577f4e487b7100000000000000000000000000000000000000000000000000000000600052603260045260246000fd5b602002602001019073ffffffffffffffffffffffffffffffffffffffff16908173ffffffffffffffffffffffffffffffffffffffff1681525050858160028151811061144b577f4e487b7100000000000000000000000000000000000000000000000000000000600052603260045260246000fd5b602002602001019073ffffffffffffffffffffffffffffffffffffffff16908173ffffffffffffffffffffffffffffffffffffffff168152505060008054906101000a900473ffffffffffffffffffffffffffffffffffffffff1673ffffffffffffffffffffffffffffffffffffffff166338ed173988878433896040518663ffffffff1660e01b81526004016114e695949392919061285a565b600060405180830381600087803b15801561150057600080fd5b505af1158015611514573d6000803e3d6000fd5b505050506040513d6000823e3d601f19601f8201168201806040525081019061153d9190612165565b505050505050505050565b60606000821415611590576040518060400160405280600181526020017f300000000000000000000000000000000000000000000000000000000000000081525090506116f0565b600082905060005b600082146115c25780806115ab90612b6a565b915050600a826115bb91906129f7565b9150611598565b60008167ffffffffffffffff811115611604577f4e487b7100000000000000000000000000000000000000000000000000000000600052604160045260246000fd5b6040519080825280601f01601f1916602001820160405280156116365781602001600182028036833780820191505090505b5090505b600085146116e95760018261164f9190612a28565b9150600a8561165e9190612bb3565b603061166a91906129a1565b60f81b8183815181106116a6577f4e487b7100000000000000000000000000000000000000000000000000000000600052603260045260246000fd5b60200101907effffffffffffffffffffffffffffffffffffffffffffffffffffffffffffff1916908160001a905350600a856116e291906129f7565b945061163a565b8093505050505b919050565b60606117318383604051806020016040528060008152506040518060200160405280600081525060405180602001604052806000815250611872565b905092915050565b6000808573ffffffffffffffffffffffffffffffffffffffff166323b872dd86868660405160240161176d939291906125fb565b6040516020818303038152906040529060e01b6020820180517bffffffffffffffffffffffffffffffffffffffffffffffffffffffff83818316178352505050506040516117bb91906125a0565b6000604051808303816000865af19150503d80600081146117f8576040519150601f19603f3d011682016040523d82523d6000602084013e6117fd565b606091505b509150915081801561182b575060008151148061182a57508080602001905181019061182991906121a6565b5b5b61186a576040517f08c379a0000000000000000000000000000000000000000000000000000000008152600401611861906127b3565b60405180910390fd5b505050505050565b6060600086905060008690506000869050600086905060008690506000815183518551875189516118a391906129a1565b6118ad91906129a1565b6118b791906129a1565b6118c191906129a1565b67ffffffffffffffff811115611900577f4e487b7100000000000000000000000000000000000000000000000000000000600052604160045260246000fd5b6040519080825280601f01601f1916602001820160405280156119325781602001600182028036833780820191505090505b5090506000819050600080600091505b8851821015611a1657888281518110611984577f4e487b7100000000000000000000000000000000000000000000000000000000600052603260045260246000fd5b602001015160f81c60f81b83828061199b90612b6a565b9350815181106119d4577f4e487b7100000000000000000000000000000000000000000000000000000000600052603260045260246000fd5b60200101907effffffffffffffffffffffffffffffffffffffffffffffffffffffffffffff1916908160001a9053508180611a0e90612b6a565b925050611942565b600091505b8751821015611aef57878281518110611a5d577f4e487b7100000000000000000000000000000000000000000000000000000000600052603260045260246000fd5b602001015160f81c60f81b838280611a7490612b6a565b935081518110611aad577f4e487b7100000000000000000000000000000000000000000000000000000000600052603260045260246000fd5b60200101907effffffffffffffffffffffffffffffffffffffffffffffffffffffffffffff1916908160001a9053508180611ae790612b6a565b925050611a1b565b600091505b8651821015611bc857868281518110611b36577f4e487b7100000000000000000000000000000000000000000000000000000000600052603260045260246000fd5b602001015160f81c60f81b838280611b4d90612b6a565b935081518110611b86577f4e487b7100000000000000000000000000000000000000000000000000000000600052603260045260246000fd5b60200101907effffffffffffffffffffffffffffffffffffffffffffffffffffffffffffff1916908160001a9053508180611bc090612b6a565b925050611af4565b600091505b8551821015611ca157858281518110611c0f577f4e487b7100000000000000000000000000000000000000000000000000000000600052603260045260246000fd5b602001015160f81c60f81b838280611c2690612b6a565b935081518110611c5f577f4e487b7100000000000000000000000000000000000000000000000000000000600052603260045260246000fd5b60200101907effffffffffffffffffffffffffffffffffffffffffffffffffffffffffffff1916908160001a9053508180611c9990612b6a565b925050611bcd565b600091505b8451821015611d7a57848281518110611ce8577f4e487b7100000000000000000000000000000000000000000000000000000000600052603260045260246000fd5b602001015160f81c60f81b838280611cff90612b6a565b935081518110611d38577f4e487b7100000000000000000000000000000000000000000000000000000000600052603260045260246000fd5b60200101907effffffffffffffffffffffffffffffffffffffffffffffffffffffffffffff1916908160001a9053508180611d7290612b6a565b925050611ca6565b82995050505050505050505095945050505050565b6000611da2611d9d846128d9565b6128b4565b90508083825260208201905082856020860282011115611dc157600080fd5b60005b85811015611df15781611dd78882611f55565b845260208401935060208301925050600181019050611dc4565b5050509392505050565b6000611e0e611e0984612905565b6128b4565b905082815260208101848484011115611e2657600080fd5b611e31848285612b06565b509392505050565b600081359050611e4881612f26565b92915050565b600081519050611e5d81612f26565b92915050565b600081359050611e7281612f3d565b92915050565b600081519050611e8781612f3d565b92915050565b600082601f830112611e9e57600080fd5b8151611eae848260208601611d8f565b91505092915050565b600081519050611ec681612f54565b92915050565b60008083601f840112611ede57600080fd5b8235905067ffffffffffffffff811115611ef757600080fd5b602083019150836001820283011115611f0f57600080fd5b9250929050565b600082601f830112611f2757600080fd5b8151611f37848260208601611dfb565b91505092915050565b600081359050611f4f81612f6b565b92915050565b600081519050611f6481612f6b565b92915050565b600060208284031215611f7c57600080fd5b6000611f8a84828501611e4e565b91505092915050565b600060208284031215611fa557600080fd5b6000611fb384828501611e63565b91505092915050565b600080600080600060808688031215611fd457600080fd5b6000611fe288828901611e39565b9550506020611ff388828901611e39565b945050604061200488828901611f40565b935050606086013567ffffffffffffffff81111561202157600080fd5b61202d88828901611ecc565b92509250509295509295909350565b600080600080600060a0868803121561205457600080fd5b600061206288828901611e39565b955050602061207388828901611f40565b945050604061208488828901611e39565b935050606061209588828901611f40565b92505060806120a688828901611f40565b9150509295509295909350565b6000806000606084860312156120c857600080fd5b60006120d686828701611e39565b93505060206120e786828701611f40565b92505060406120f886828701611f40565b9150509250925092565b6000806000806080858703121561211857600080fd5b600061212687828801611e39565b945050602061213787828801611f40565b935050604061214887828801611f40565b925050606061215987828801611f40565b91505092959194509250565b60006020828403121561217757600080fd5b600082015167ffffffffffffffff81111561219157600080fd5b61219d84828501611e8d565b91505092915050565b6000602082840312156121b857600080fd5b60006121c684828501611eb7565b91505092915050565b6000602082840312156121e157600080fd5b60006121ef84828501611f40565b91505092915050565b60006020828403121561220a57600080fd5b600061221884828501611f55565b91505092915050565b60008060008060008060008060006101208a8c03121561224057600080fd5b600061224e8c828d01611f55565b99505060208a015167ffffffffffffffff81111561226b57600080fd5b6122778c828d01611f16565b98505060408a015167ffffffffffffffff81111561229457600080fd5b6122a08c828d01611f16565b97505060606122b18c828d01611e78565b96505060806122c28c828d01611e78565b95505060a06122d38c828d01611e78565b94505060c06122e48c828d01611f55565b93505060e06122f58c828d01611f55565b9250506101006123078c828d01611eb7565b9150509295985092959850929598565b6000612323838361232f565b60208301905092915050565b61233881612a5c565b82525050565b61234781612a5c565b82525050565b600061235882612946565b6123628185612974565b935061236d83612936565b8060005b8381101561239e5781516123858882612317565b975061239083612967565b925050600181019050612371565b5085935050505092915050565b6123b481612a8c565b82525050565b60006123c582612951565b6123cf8185612985565b93506123df818560208601612b06565b80840191505092915050565b6123f481612ae2565b82525050565b60006124058261295c565b61240f8185612990565b935061241f818560208601612b06565b61242881612c71565b840191505092915050565b6000612440602083612990565b915061244b82612c82565b602082019050919050565b6000612463602b83612990565b915061246e82612cab565b604082019050919050565b6000612486602b83612990565b915061249182612cfa565b604082019050919050565b60006124a9604083612990565b91506124b482612d49565b604082019050919050565b60006124cc603583612990565b91506124d782612d98565b604082019050919050565b60006124ef601e83612990565b91506124fa82612de7565b602082019050919050565b6000612512602c83612990565b915061251d82612e10565b604082019050919050565b6000612535602083612990565b915061254082612e5f565b602082019050919050565b6000612558602483612990565b915061256382612e88565b604082019050919050565b600061257b603583612990565b915061258682612ed7565b604082019050919050565b61259a81612ad8565b82525050565b60006125ac82846123ba565b915081905092915050565b60006020820190506125cc600083018461233e565b92915050565b60006040820190506125e7600083018561233e565b6125f4602083018461233e565b9392505050565b6000606082019050612610600083018661233e565b61261d602083018561233e565b61262a6040830184612591565b949350505050565b6000604082019050612647600083018561233e565b6126546020830184612591565b9392505050565b600060208201905061267060008301846123ab565b92915050565b600060208201905061268b60008301846123eb565b92915050565b600060208201905081810360008301526126ab81846123fa565b905092915050565b600060208201905081810360008301526126cc81612433565b9050919050565b600060208201905081810360008301526126ec81612456565b9050919050565b6000602082019050818103600083015261270c81612479565b9050919050565b6000602082019050818103600083015261272c8161249c565b9050919050565b6000602082019050818103600083015261274c816124bf565b9050919050565b6000602082019050818103600083015261276c816124e2565b9050919050565b6000602082019050818103600083015261278c81612505565b9050919050565b600060208201905081810360008301526127ac81612528565b9050919050565b600060208201905081810360008301526127cc8161254b565b9050919050565b600060208201905081810360008301526127ec8161256e565b9050919050565b60006020820190506128086000830184612591565b92915050565b60006080820190506128236000830187612591565b8181036020830152612835818661234d565b9050612844604083018561233e565b6128516060830184612591565b95945050505050565b600060a08201905061286f6000830188612591565b61287c6020830187612591565b818103604083015261288e818661234d565b905061289d606083018561233e565b6128aa6080830184612591565b9695505050505050565b60006128be6128cf565b90506128ca8282612b39565b919050565b6000604051905090565b600067ffffffffffffffff8211156128f4576128f3612c42565b5b602082029050602081019050919050565b600067ffffffffffffffff8211156129205761291f612c42565b5b61292982612c71565b9050602081019050919050565b6000819050602082019050919050565b600081519050919050565b600081519050919050565b600081519050919050565b6000602082019050919050565b600082825260208201905092915050565b600081905092915050565b600082825260208201905092915050565b60006129ac82612ad8565b91506129b783612ad8565b9250827fffffffffffffffffffffffffffffffffffffffffffffffffffffffffffffffff038211156129ec576129eb612be4565b5b828201905092915050565b6000612a0282612ad8565b9150612a0d83612ad8565b925082612a1d57612a1c612c13565b5b828204905092915050565b6000612a3382612ad8565b9150612a3e83612ad8565b925082821015612a5157612a50612be4565b5b828203905092915050565b6000612a6782612ab8565b9050919050565b6000612a7982612ab8565b9050919050565b60008115159050919050565b60007fffffffff0000000000000000000000000000000000000000000000000000000082169050919050565b600073ffffffffffffffffffffffffffffffffffffffff82169050919050565b6000819050919050565b6000612aed82612af4565b9050919050565b6000612aff82612ab8565b9050919050565b60005b83811015612b24578082015181840152602081019050612b09565b83811115612b33576000848401525b50505050565b612b4282612c71565b810181811067ffffffffffffffff82111715612b6157612b60612c42565b5b80604052505050565b6000612b7582612ad8565b91507fffffffffffffffffffffffffffffffffffffffffffffffffffffffffffffffff821415612ba857612ba7612be4565b5b600182019050919050565b6000612bbe82612ad8565b9150612bc983612ad8565b925082612bd957612bd8612c13565b5b828206905092915050565b7f4e487b7100000000000000000000000000000000000000000000000000000000600052601160045260246000fd5b7f4e487b7100000000000000000000000000000000000000000000000000000000600052601260045260246000fd5b7f4e487b7100000000000000000000000000000000000000000000000000000000600052604160045260246000fd5b6000601f19601f8301169050919050565b7f73776170504e4654746f4f43415428293a20496e76616c6964204e4654204944600082015250565b7f4f6364537761702e7365744f6361744164647265737328293a20496e76616c6960008201527f6420706172616d65746572000000000000000000000000000000000000000000602082015250565b7f4f6364537761702e736574504e46544164647265737328293a20496e76616c6960008201527f6420706172616d65746572000000000000000000000000000000000000000000602082015250565b7f73776170504e4654746f4f43415428293a204572726f723a2043616c6c65722060008201527f636f756c646e27742062652073616d6520746f20746869732061646472657373602082015250565b7f4f6364537761702e7365744f6361744164647265737328293a2043616c6c657260008201527f20666f7220206d7573742062652063726561746f720000000000000000000000602082015250565b7f617070726f766520666f722074686520726f75746572206661696c65642e0000600082015250565b7f496e73756666696369656e742062616c616e6365206f66204f43415420696e2060008201527f74686520636f6e74726163740000000000000000000000000000000000000000602082015250565b7f73776170504e4654746f4f43415428293a20496e76616c69642063616c6c6572600082015250565b7f5472616e7366657248656c7065723a205452414e534645525f46524f4d5f464160008201527f494c454400000000000000000000000000000000000000000000000000000000602082015250565b7f4f6364537761702e736574504e46544164647265737328293a2043616c6c657260008201527f20666f7220206d7573742062652063726561746f720000000000000000000000602082015250565b612f2f81612a5c565b8114612f3a57600080fd5b50565b612f4681612a6e565b8114612f5157600080fd5b50565b612f5d81612a80565b8114612f6857600080fd5b50565b612f7481612ad8565b8114612f7f57600080fd5b5056fe4e6f7420656e6f75676820616c6c6f77616e636520666f722074686520455243323020746f6b656e2e20616c6c6f77616e63653a20a2646970667358221220a12391dd93d28934994003cc4cdcefe82761bd04eeb96b05d593d604860f49dc64736f6c63430008040033",
  "immutableReferences": {},
  "source": "// SPDX-License-Identifier: MIT\npragma solidity ^0.8.0;\n\n// https://soliditydeveloper.com/uniswap2\n// https://docs.uniswap.org/protocol/V2/guides/smart-contract-integration/trading-from-a-smart-contract\n// https://ethereum.org/ru/developers/tutorials/transfers-and-approval-of-erc-20-tokens-from-a-solidity-smart-contract/\n// https://solidity-by-example.org/app/erc20/\n\nimport \"@uniswap/v2-periphery/contracts/interfaces/IUniswapV2Router02.sol\";\nimport '@uniswap/lib/contracts/libraries/TransferHelper.sol';\nimport \"@openzeppelin/contracts/token/ERC20/IERC20.sol\"; // openzeppelin 4.5 (for solidity 0.8.x)\nimport \"@openzeppelin/contracts/utils/Strings.sol\";\nimport \"@openzeppelin/contracts/token/ERC721/IERC721.sol\";\nimport \"./PawnNFTs.sol\";\nimport \"./OcatToken.sol\";\n\ncontract OcdSwap {\n\n    address private constant UNISWAP_ROUTER_ADDRESS = 0x7a250d5630B4cF539739dF2C5dAcb4c659F2488D;\n\n    IUniswapV2Router02 public uniswapRouter;\n    address payable private pnftAddress;\n    address payable private ocatAddress;\n    address payable private creator;\n\n    receive() external payable {}\n\n    constructor() {\n        creator = payable(msg.sender);\n        uniswapRouter = IUniswapV2Router02(UNISWAP_ROUTER_ADDRESS);\n    }\n\n    function setPnftAddress(address payable _pnftAddress) public {\n        require(creator == msg.sender, \"OcdSwap.setPNFTAddress(): Caller for  must be creator\");\n        require(_pnftAddress != address(0), \"OcdSwap.setPNFTAddress(): Invalid parameter\");\n        pnftAddress = _pnftAddress;\n    }\n\n    function setOcatAddress(address payable _ocatAddress) public {\n        require(creator == msg.sender, \"OcdSwap.setOcatAddress(): Caller for  must be creator\");\n        require(_ocatAddress != address(0), \"OcdSwap.setOcatAddress(): Invalid parameter\");\n        ocatAddress = _ocatAddress;\n    }\n\n    function swapFromETH(\n        address _tokenOut,\n        uint _amountOutMin,\n        uint _deadline\n    ) public payable {\n        // uint deadline = block.timestamp + 15; // using 'now' for convenience, for mainnet pass deadline from frontend!\n        address[] memory path = new address[](2);\n        path[0] = uniswapRouter.WETH();\n        path[1] = address(_tokenOut);\n        uniswapRouter.swapExactETHForTokens{value: msg.value}(_amountOutMin, path, msg.sender, _deadline);\n    }\n\n    function swapToETH(\n        address _tokenIn,\n        uint _amountIn,\n        uint _amountOutMin,\n        uint _deadline\n    ) public {\n        // transferFrom\n        IERC20 sellTokenContract = IERC20(_tokenIn);\n        //     Check for allowance\n        uint256 allowance = sellTokenContract.allowance(msg.sender, address(this));\n        string memory errorText = Strings.toString(allowance);\n        errorText = strConcat(\"Not enough allowance for the ERC20 token. allowance: \", errorText);\n        require(allowance >= _amountIn, errorText);\n        //     Do transferFrom\n        TransferHelper.safeTransferFrom(_tokenIn, msg.sender, address(this), _amountIn);\n\n        // approve\n        require(sellTokenContract.approve(address(UNISWAP_ROUTER_ADDRESS), _amountIn), 'approve for the router failed.');\n\n        address[] memory path = new address[](2);\n        path[0] = address(_tokenIn);\n        path[1] = uniswapRouter.WETH();\n        uniswapRouter.swapExactTokensForETH(_amountIn, _amountOutMin, path, msg.sender, _deadline);\n    }\n\n    function swapForERC20(\n        address _tokenIn,\n        uint _amountIn,\n        address _tokenOut,\n        uint _amountOutMin,\n        uint _deadline\n    ) public {\n        // transferFrom\n        //    Check for allowance\n        uint256 allowance = IERC20(_tokenIn).allowance(msg.sender, address(this));\n        string memory errorText = Strings.toString(allowance);\n        errorText = strConcat(\"Not enough allowance for the ERC20 token. allowance: \", errorText);\n        require(allowance >= _amountIn, errorText);\n        //     Do transferFrom\n        TransferHelper.safeTransferFrom(_tokenIn, msg.sender, address(this), _amountIn);\n\n        // approve\n        require(\n            IERC20(_tokenIn).approve(address(UNISWAP_ROUTER_ADDRESS), _amountIn), \n            'approve for the router failed.'\n        );\n\n        address[] memory path = new address[](3);\n        path[0] = _tokenIn;\n        path[1] = uniswapRouter.WETH();\n        path[2] = _tokenOut;\n        uniswapRouter.swapExactTokensForTokens(_amountIn, _amountOutMin, path, msg.sender, _deadline);\n    }\n\n    function onERC721Received(\n        address operator,\n        address from,\n        uint256 tokenId,\n        bytes calldata data\n    ) external returns (bytes4) {\n        return this.onERC721Received.selector;\n    }\n\n    function swapToOCAT(uint256 nftID) public {\n        require(msg.sender != address(this), \"swapPNFTtoOCAT(): Error: Caller couldn't be same to this address\");\n        require(msg.sender != address(0), \"swapPNFTtoOCAT(): Invalid caller\");\n        require(nftID > 0, \"swapPNFTtoOCAT(): Invalid NFT ID\");\n        uint256 ocatBalance = IERC20(ocatAddress).balanceOf(address(this));\n        // Get price for the NFT\n        (,,,,,,uint256 price,,) = PawnNFTs(payable(address(pnftAddress))).allPawnNFTs(nftID);\n        // uint256 price = nftItem.price;\n        require(ocatBalance >= price, \"Insufficient balance of OCAT in the contract\");\n        // safeTransferFrom: send NFT from caller to the address\n        IERC721(pnftAddress).safeTransferFrom(msg.sender, address(this), nftID);\n        // Pay OCAT for the NFT\n        IERC20(ocatAddress).transfer(msg.sender, price);\n        //   Then transfer OCATs from the address to caller\n        // TransferHelper.safeTransferFrom(ocatAddress, address(this), msg.sender, price);\n    }\n\n\n\n    ////////////////////////////////////////////////////////////////////////////////////////\n    function strConcat(\n            string memory _a, \n            string memory _b, \n            string memory _c, \n            string memory _d, \n            string memory _e\n    ) internal view returns (string memory){\n        bytes memory _ba = bytes(_a);\n        bytes memory _bb = bytes(_b);\n        bytes memory _bc = bytes(_c);\n        bytes memory _bd = bytes(_d);\n        bytes memory _be = bytes(_e);\n        string memory abcde = new string(_ba.length + _bb.length + _bc.length + _bd.length + _be.length);\n        bytes memory babcde = bytes(abcde);\n\n        uint i = 0;\n        uint k = 0;\n\n        for (i = 0; i < _ba.length; i++) babcde[k++] = _ba[i];\n        for (i = 0; i < _bb.length; i++) babcde[k++] = _bb[i];\n        for (i = 0; i < _bc.length; i++) babcde[k++] = _bc[i];\n        for (i = 0; i < _bd.length; i++) babcde[k++] = _bd[i];\n        for (i = 0; i < _be.length; i++) babcde[k++] = _be[i];\n        return string(babcde);\n    }\n\n    function strConcat(\n            string memory _a, \n            string memory _b, \n            string memory _c, \n            string memory _d\n    ) internal view returns (string memory) {\n        return strConcat(_a, _b, _c, _d, \"\");\n    }\n\n    function strConcat(\n            string memory _a, \n            string memory _b, \n            string memory _c\n    ) internal view returns (string memory) {\n        return strConcat(_a, _b, _c, \"\", \"\");\n    }\n\n    function strConcat(\n            string memory _a, \n            string memory _b\n    ) internal view returns (string memory) {\n        return strConcat(_a, _b, \"\", \"\", \"\");\n    }\n}\n",
  "sourcePath": "/home/vn/MyProjects/OpenchainDex/OpenchainTestVersion/server/contracts/OcdSwap.sol",
  "compiler": {
    "name": "solc",
    "version": "0.8.4+commit.c7e474f2.Emscripten.clang"
  },
  "schemaVersion": "3.4.4",
  "updatedAt": "2022-03-21T11:32:28.754Z",
  "networkType": "ethereum",
  "devdoc": {
    "kind": "dev",
    "methods": {},
    "version": 1
  },
  "userdoc": {
    "kind": "user",
    "methods": {},
    "version": 1
  }
}