{
  "contractName": "OcdSwap",
  "abi": [
    {
      "inputs": [],
      "stateMutability": "nonpayable",
      "type": "constructor"
    },
    {
      "inputs": [],
      "name": "uniswapRouter",
      "outputs": [
        {
          "internalType": "contract IUniswapV2Router02",
          "name": "",
          "type": "address"
        }
      ],
      "stateMutability": "view",
      "type": "function",
      "constant": true
    },
    {
      "stateMutability": "payable",
      "type": "receive",
      "payable": true
    },
    {
      "inputs": [
        {
          "internalType": "address payable",
          "name": "_pnftAddress",
          "type": "address"
        }
      ],
      "name": "setPnftAddress",
      "outputs": [],
      "stateMutability": "nonpayable",
      "type": "function"
    },
    {
      "inputs": [
        {
          "internalType": "address payable",
          "name": "_ocatAddress",
          "type": "address"
        }
      ],
      "name": "setOcatAddress",
      "outputs": [],
      "stateMutability": "nonpayable",
      "type": "function"
    },
    {
      "inputs": [
        {
          "internalType": "address",
          "name": "_tokenOut",
          "type": "address"
        },
        {
          "internalType": "uint256",
          "name": "_amountOutMin",
          "type": "uint256"
        },
        {
          "internalType": "uint256",
          "name": "_deadline",
          "type": "uint256"
        }
      ],
      "name": "swapFromETH",
      "outputs": [],
      "stateMutability": "payable",
      "type": "function",
      "payable": true
    },
    {
      "inputs": [
        {
          "internalType": "address",
          "name": "_tokenIn",
          "type": "address"
        },
        {
          "internalType": "uint256",
          "name": "_amountIn",
          "type": "uint256"
        },
        {
          "internalType": "uint256",
          "name": "_amountOutMin",
          "type": "uint256"
        },
        {
          "internalType": "uint256",
          "name": "_deadline",
          "type": "uint256"
        }
      ],
      "name": "swapToETH",
      "outputs": [],
      "stateMutability": "nonpayable",
      "type": "function"
    },
    {
      "inputs": [
        {
          "internalType": "address",
          "name": "_tokenIn",
          "type": "address"
        },
        {
          "internalType": "uint256",
          "name": "_amountIn",
          "type": "uint256"
        },
        {
          "internalType": "address",
          "name": "_tokenOut",
          "type": "address"
        },
        {
          "internalType": "uint256",
          "name": "_amountOutMin",
          "type": "uint256"
        },
        {
          "internalType": "uint256",
          "name": "_deadline",
          "type": "uint256"
        }
      ],
      "name": "swapForERC20",
      "outputs": [],
      "stateMutability": "nonpayable",
      "type": "function"
    },
    {
      "inputs": [
        {
          "internalType": "uint256",
          "name": "nftID",
          "type": "uint256"
        }
      ],
      "name": "swapToOCAT",
      "outputs": [],
      "stateMutability": "nonpayable",
      "type": "function"
    }
  ],
  "bytecode": "0x608060405234801561001057600080fd5b5033600360006101000a81548173ffffffffffffffffffffffffffffffffffffffff021916908373ffffffffffffffffffffffffffffffffffffffff160217905550737a250d5630b4cf539739df2c5dacb4c659f2488d6000806101000a81548173ffffffffffffffffffffffffffffffffffffffff021916908373ffffffffffffffffffffffffffffffffffffffff160217905550612dee806100b56000396000f3fe6080604052600436106100745760003560e01c8063b18d30a21161004e578063b18d30a2146100fd578063b7afb0ad14610126578063ca5342111461014f578063fafbed4d1461016b5761007b565b806315f03d2214610080578063735de9f7146100a95780638b92f59d146100d45761007b565b3661007b57005b600080fd5b34801561008c57600080fd5b506100a760048036038101906100a29190611e6a565b610194565b005b3480156100b557600080fd5b506100be6102d8565b6040516100cb91906124a3565b60405180910390f35b3480156100e057600080fd5b506100fb60048036038101906100f69190611f59565b6102fc565b005b34801561010957600080fd5b50610124600480360381019061011f9190611e6a565b6107b2565b005b34801561013257600080fd5b5061014d60048036038101906101489190612026565b6108f6565b005b61016960048036038101906101649190611f0a565b610c8a565b005b34801561017757600080fd5b50610192600480360381019061018d9190611e93565b610f43565b005b3373ffffffffffffffffffffffffffffffffffffffff16600360009054906101000a900473ffffffffffffffffffffffffffffffffffffffff1673ffffffffffffffffffffffffffffffffffffffff1614610224576040517f08c379a000000000000000000000000000000000000000000000000000000000815260040161021b90612600565b60405180910390fd5b600073ffffffffffffffffffffffffffffffffffffffff168173ffffffffffffffffffffffffffffffffffffffff161415610294576040517f08c379a000000000000000000000000000000000000000000000000000000000815260040161028b90612520565b60405180910390fd5b80600160006101000a81548173ffffffffffffffffffffffffffffffffffffffff021916908373ffffffffffffffffffffffffffffffffffffffff16021790555050565b60008054906101000a900473ffffffffffffffffffffffffffffffffffffffff1681565b600084905060008173ffffffffffffffffffffffffffffffffffffffff1663dd62ed3e33306040518363ffffffff1660e01b815260040161033e92919061241a565b60206040518083038186803b15801561035657600080fd5b505afa15801561036a573d6000803e3d6000fd5b505050506040513d601f19601f8201168201806040525081019061038e919061204f565b9050600061039b82611469565b90506103bf604051806060016040528060358152602001612d846035913982611616565b9050858210158190610407576040517f08c379a00000000000000000000000000000000000000000000000000000000081526004016103fe91906124be565b60405180910390fd5b506104148733308961165a565b8273ffffffffffffffffffffffffffffffffffffffff1663095ea7b3737a250d5630b4cf539739df2c5dacb4c659f2488d886040518363ffffffff1660e01b815260040161046392919061247a565b602060405180830381600087803b15801561047d57600080fd5b505af1158015610491573d6000803e3d6000fd5b505050506040513d601f19601f820116820180604052508101906104b59190611ffd565b6104f4576040517f08c379a00000000000000000000000000000000000000000000000000000000081526004016104eb90612580565b60405180910390fd5b6000600267ffffffffffffffff811115610537577f4e487b7100000000000000000000000000000000000000000000000000000000600052604160045260246000fd5b6040519080825280602002602001820160405280156105655781602001602082028036833780820191505090505b50905087816000815181106105a3577f4e487b7100000000000000000000000000000000000000000000000000000000600052603260045260246000fd5b602002602001019073ffffffffffffffffffffffffffffffffffffffff16908173ffffffffffffffffffffffffffffffffffffffff168152505060008054906101000a900473ffffffffffffffffffffffffffffffffffffffff1673ffffffffffffffffffffffffffffffffffffffff1663ad5c46486040518163ffffffff1660e01b815260040160206040518083038186803b15801561064357600080fd5b505afa158015610657573d6000803e3d6000fd5b505050506040513d601f19601f8201168201806040525081019061067b9190611e41565b816001815181106106b5577f4e487b7100000000000000000000000000000000000000000000000000000000600052603260045260246000fd5b602002602001019073ffffffffffffffffffffffffffffffffffffffff16908173ffffffffffffffffffffffffffffffffffffffff168152505060008054906101000a900473ffffffffffffffffffffffffffffffffffffffff1673ffffffffffffffffffffffffffffffffffffffff166318cbafe5888884338a6040518663ffffffff1660e01b8152600401610750959493929190612687565b600060405180830381600087803b15801561076a57600080fd5b505af115801561077e573d6000803e3d6000fd5b505050506040513d6000823e3d601f19601f820116820180604052508101906107a79190611fbc565b505050505050505050565b3373ffffffffffffffffffffffffffffffffffffffff16600360009054906101000a900473ffffffffffffffffffffffffffffffffffffffff1673ffffffffffffffffffffffffffffffffffffffff1614610842576040517f08c379a000000000000000000000000000000000000000000000000000000000815260040161083990612560565b60405180910390fd5b600073ffffffffffffffffffffffffffffffffffffffff168173ffffffffffffffffffffffffffffffffffffffff1614156108b2576040517f08c379a00000000000000000000000000000000000000000000000000000000081526004016108a990612500565b60405180910390fd5b80600260006101000a81548173ffffffffffffffffffffffffffffffffffffffff021916908373ffffffffffffffffffffffffffffffffffffffff16021790555050565b3073ffffffffffffffffffffffffffffffffffffffff163373ffffffffffffffffffffffffffffffffffffffff161415610965576040517f08c379a000000000000000000000000000000000000000000000000000000000815260040161095c90612540565b60405180910390fd5b600073ffffffffffffffffffffffffffffffffffffffff163373ffffffffffffffffffffffffffffffffffffffff1614156109d5576040517f08c379a00000000000000000000000000000000000000000000000000000000081526004016109cc906125c0565b60405180910390fd5b60008111610a18576040517f08c379a0000000000000000000000000000000000000000000000000000000008152600401610a0f906124e0565b60405180910390fd5b6000600260009054906101000a900473ffffffffffffffffffffffffffffffffffffffff1673ffffffffffffffffffffffffffffffffffffffff166370a08231306040518263ffffffff1660e01b8152600401610a7591906123ff565b60206040518083038186803b158015610a8d57600080fd5b505afa158015610aa1573d6000803e3d6000fd5b505050506040513d601f19601f82011682018060405250810190610ac5919061204f565b90506000600160009054906101000a900473ffffffffffffffffffffffffffffffffffffffff1673ffffffffffffffffffffffffffffffffffffffff1663717947b1846040518263ffffffff1660e01b8152600401610b249190612620565b60006040518083038186803b158015610b3c57600080fd5b505afa158015610b50573d6000803e3d6000fd5b505050506040513d6000823e3d601f19601f82011682018060405250810190610b799190612078565b5050965050505050505080821015610bc6576040517f08c379a0000000000000000000000000000000000000000000000000000000008152600401610bbd906125a0565b60405180910390fd5b610bf4600260009054906101000a900473ffffffffffffffffffffffffffffffffffffffff1630338461165a565b600160009054906101000a900473ffffffffffffffffffffffffffffffffffffffff1673ffffffffffffffffffffffffffffffffffffffff166342842e0e3330866040518463ffffffff1660e01b8152600401610c5393929190612443565b600060405180830381600087803b158015610c6d57600080fd5b505af1158015610c81573d6000803e3d6000fd5b50505050505050565b6000600267ffffffffffffffff811115610ccd577f4e487b7100000000000000000000000000000000000000000000000000000000600052604160045260246000fd5b604051908082528060200260200182016040528015610cfb5781602001602082028036833780820191505090505b50905060008054906101000a900473ffffffffffffffffffffffffffffffffffffffff1673ffffffffffffffffffffffffffffffffffffffff1663ad5c46486040518163ffffffff1660e01b815260040160206040518083038186803b158015610d6457600080fd5b505afa158015610d78573d6000803e3d6000fd5b505050506040513d601f19601f82011682018060405250810190610d9c9190611e41565b81600081518110610dd6577f4e487b7100000000000000000000000000000000000000000000000000000000600052603260045260246000fd5b602002602001019073ffffffffffffffffffffffffffffffffffffffff16908173ffffffffffffffffffffffffffffffffffffffff16815250508381600181518110610e4b577f4e487b7100000000000000000000000000000000000000000000000000000000600052603260045260246000fd5b602002602001019073ffffffffffffffffffffffffffffffffffffffff16908173ffffffffffffffffffffffffffffffffffffffff168152505060008054906101000a900473ffffffffffffffffffffffffffffffffffffffff1673ffffffffffffffffffffffffffffffffffffffff16637ff36ab534858433876040518663ffffffff1660e01b8152600401610ee5949392919061263b565b6000604051808303818588803b158015610efe57600080fd5b505af1158015610f12573d6000803e3d6000fd5b50505050506040513d6000823e3d601f19601f82011682018060405250810190610f3c9190611fbc565b5050505050565b60008573ffffffffffffffffffffffffffffffffffffffff1663dd62ed3e33306040518363ffffffff1660e01b8152600401610f8092919061241a565b60206040518083038186803b158015610f9857600080fd5b505afa158015610fac573d6000803e3d6000fd5b505050506040513d601f19601f82011682018060405250810190610fd0919061204f565b90506000610fdd82611469565b9050611001604051806060016040528060358152602001612d846035913982611616565b9050858210158190611049576040517f08c379a000000000000000000000000000000000000000000000000000000000815260040161104091906124be565b60405180910390fd5b506110568733308961165a565b8673ffffffffffffffffffffffffffffffffffffffff1663095ea7b3737a250d5630b4cf539739df2c5dacb4c659f2488d886040518363ffffffff1660e01b81526004016110a592919061247a565b602060405180830381600087803b1580156110bf57600080fd5b505af11580156110d3573d6000803e3d6000fd5b505050506040513d601f19601f820116820180604052508101906110f79190611ffd565b611136576040517f08c379a000000000000000000000000000000000000000000000000000000000815260040161112d90612580565b60405180910390fd5b6000600367ffffffffffffffff811115611179577f4e487b7100000000000000000000000000000000000000000000000000000000600052604160045260246000fd5b6040519080825280602002602001820160405280156111a75781602001602082028036833780820191505090505b50905087816000815181106111e5577f4e487b7100000000000000000000000000000000000000000000000000000000600052603260045260246000fd5b602002602001019073ffffffffffffffffffffffffffffffffffffffff16908173ffffffffffffffffffffffffffffffffffffffff168152505060008054906101000a900473ffffffffffffffffffffffffffffffffffffffff1673ffffffffffffffffffffffffffffffffffffffff1663ad5c46486040518163ffffffff1660e01b815260040160206040518083038186803b15801561128557600080fd5b505afa158015611299573d6000803e3d6000fd5b505050506040513d601f19601f820116820180604052508101906112bd9190611e41565b816001815181106112f7577f4e487b7100000000000000000000000000000000000000000000000000000000600052603260045260246000fd5b602002602001019073ffffffffffffffffffffffffffffffffffffffff16908173ffffffffffffffffffffffffffffffffffffffff1681525050858160028151811061136c577f4e487b7100000000000000000000000000000000000000000000000000000000600052603260045260246000fd5b602002602001019073ffffffffffffffffffffffffffffffffffffffff16908173ffffffffffffffffffffffffffffffffffffffff168152505060008054906101000a900473ffffffffffffffffffffffffffffffffffffffff1673ffffffffffffffffffffffffffffffffffffffff166338ed173988878433896040518663ffffffff1660e01b8152600401611407959493929190612687565b600060405180830381600087803b15801561142157600080fd5b505af1158015611435573d6000803e3d6000fd5b505050506040513d6000823e3d601f19601f8201168201806040525081019061145e9190611fbc565b505050505050505050565b606060008214156114b1576040518060400160405280600181526020017f30000000000000000000000000000000000000000000000000000000000000008152509050611611565b600082905060005b600082146114e35780806114cc9061296b565b915050600a826114dc9190612824565b91506114b9565b60008167ffffffffffffffff811115611525577f4e487b7100000000000000000000000000000000000000000000000000000000600052604160045260246000fd5b6040519080825280601f01601f1916602001820160405280156115575781602001600182028036833780820191505090505b5090505b6000851461160a576001826115709190612855565b9150600a8561157f91906129b4565b603061158b91906127ce565b60f81b8183815181106115c7577f4e487b7100000000000000000000000000000000000000000000000000000000600052603260045260246000fd5b60200101907effffffffffffffffffffffffffffffffffffffffffffffffffffffffffffff1916908160001a905350600a856116039190612824565b945061155b565b8093505050505b919050565b60606116528383604051806020016040528060008152506040518060200160405280600081525060405180602001604052806000815250611793565b905092915050565b6000808573ffffffffffffffffffffffffffffffffffffffff166323b872dd86868660405160240161168e93929190612443565b6040516020818303038152906040529060e01b6020820180517bffffffffffffffffffffffffffffffffffffffffffffffffffffffff83818316178352505050506040516116dc91906123e8565b6000604051808303816000865af19150503d8060008114611719576040519150601f19603f3d011682016040523d82523d6000602084013e61171e565b606091505b509150915081801561174c575060008151148061174b57508080602001905181019061174a9190611ffd565b5b5b61178b576040517f08c379a0000000000000000000000000000000000000000000000000000000008152600401611782906125e0565b60405180910390fd5b505050505050565b6060600086905060008690506000869050600086905060008690506000815183518551875189516117c491906127ce565b6117ce91906127ce565b6117d891906127ce565b6117e291906127ce565b67ffffffffffffffff811115611821577f4e487b7100000000000000000000000000000000000000000000000000000000600052604160045260246000fd5b6040519080825280601f01601f1916602001820160405280156118535781602001600182028036833780820191505090505b5090506000819050600080600091505b8851821015611937578882815181106118a5577f4e487b7100000000000000000000000000000000000000000000000000000000600052603260045260246000fd5b602001015160f81c60f81b8382806118bc9061296b565b9350815181106118f5577f4e487b7100000000000000000000000000000000000000000000000000000000600052603260045260246000fd5b60200101907effffffffffffffffffffffffffffffffffffffffffffffffffffffffffffff1916908160001a905350818061192f9061296b565b925050611863565b600091505b8751821015611a105787828151811061197e577f4e487b7100000000000000000000000000000000000000000000000000000000600052603260045260246000fd5b602001015160f81c60f81b8382806119959061296b565b9350815181106119ce577f4e487b7100000000000000000000000000000000000000000000000000000000600052603260045260246000fd5b60200101907effffffffffffffffffffffffffffffffffffffffffffffffffffffffffffff1916908160001a9053508180611a089061296b565b92505061193c565b600091505b8651821015611ae957868281518110611a57577f4e487b7100000000000000000000000000000000000000000000000000000000600052603260045260246000fd5b602001015160f81c60f81b838280611a6e9061296b565b935081518110611aa7577f4e487b7100000000000000000000000000000000000000000000000000000000600052603260045260246000fd5b60200101907effffffffffffffffffffffffffffffffffffffffffffffffffffffffffffff1916908160001a9053508180611ae19061296b565b925050611a15565b600091505b8551821015611bc257858281518110611b30577f4e487b7100000000000000000000000000000000000000000000000000000000600052603260045260246000fd5b602001015160f81c60f81b838280611b479061296b565b935081518110611b80577f4e487b7100000000000000000000000000000000000000000000000000000000600052603260045260246000fd5b60200101907effffffffffffffffffffffffffffffffffffffffffffffffffffffffffffff1916908160001a9053508180611bba9061296b565b925050611aee565b600091505b8451821015611c9b57848281518110611c09577f4e487b7100000000000000000000000000000000000000000000000000000000600052603260045260246000fd5b602001015160f81c60f81b838280611c209061296b565b935081518110611c59577f4e487b7100000000000000000000000000000000000000000000000000000000600052603260045260246000fd5b60200101907effffffffffffffffffffffffffffffffffffffffffffffffffffffffffffff1916908160001a9053508180611c939061296b565b925050611bc7565b82995050505050505050505095945050505050565b6000611cc3611cbe84612706565b6126e1565b90508083825260208201905082856020860282011115611ce257600080fd5b60005b85811015611d125781611cf88882611e2c565b845260208401935060208301925050600181019050611ce5565b5050509392505050565b6000611d2f611d2a84612732565b6126e1565b905082815260208101848484011115611d4757600080fd5b611d52848285612907565b509392505050565b600081359050611d6981612d27565b92915050565b600081519050611d7e81612d27565b92915050565b600081359050611d9381612d3e565b92915050565b600081519050611da881612d3e565b92915050565b600082601f830112611dbf57600080fd5b8151611dcf848260208601611cb0565b91505092915050565b600081519050611de781612d55565b92915050565b600082601f830112611dfe57600080fd5b8151611e0e848260208601611d1c565b91505092915050565b600081359050611e2681612d6c565b92915050565b600081519050611e3b81612d6c565b92915050565b600060208284031215611e5357600080fd5b6000611e6184828501611d6f565b91505092915050565b600060208284031215611e7c57600080fd5b6000611e8a84828501611d84565b91505092915050565b600080600080600060a08688031215611eab57600080fd5b6000611eb988828901611d5a565b9550506020611eca88828901611e17565b9450506040611edb88828901611d5a565b9350506060611eec88828901611e17565b9250506080611efd88828901611e17565b9150509295509295909350565b600080600060608486031215611f1f57600080fd5b6000611f2d86828701611d5a565b9350506020611f3e86828701611e17565b9250506040611f4f86828701611e17565b9150509250925092565b60008060008060808587031215611f6f57600080fd5b6000611f7d87828801611d5a565b9450506020611f8e87828801611e17565b9350506040611f9f87828801611e17565b9250506060611fb087828801611e17565b91505092959194509250565b600060208284031215611fce57600080fd5b600082015167ffffffffffffffff811115611fe857600080fd5b611ff484828501611dae565b91505092915050565b60006020828403121561200f57600080fd5b600061201d84828501611dd8565b91505092915050565b60006020828403121561203857600080fd5b600061204684828501611e17565b91505092915050565b60006020828403121561206157600080fd5b600061206f84828501611e2c565b91505092915050565b60008060008060008060008060006101208a8c03121561209757600080fd5b60006120a58c828d01611e2c565b99505060208a015167ffffffffffffffff8111156120c257600080fd5b6120ce8c828d01611ded565b98505060408a015167ffffffffffffffff8111156120eb57600080fd5b6120f78c828d01611ded565b97505060606121088c828d01611d99565b96505060806121198c828d01611d99565b95505060a061212a8c828d01611d99565b94505060c061213b8c828d01611e2c565b93505060e061214c8c828d01611e2c565b92505061010061215e8c828d01611dd8565b9150509295985092959850929598565b600061217a8383612186565b60208301905092915050565b61218f81612889565b82525050565b61219e81612889565b82525050565b60006121af82612773565b6121b981856127a1565b93506121c483612763565b8060005b838110156121f55781516121dc888261216e565b97506121e783612794565b9250506001810190506121c8565b5085935050505092915050565b600061220d8261277e565b61221781856127b2565b9350612227818560208601612907565b80840191505092915050565b61223c816128e3565b82525050565b600061224d82612789565b61225781856127bd565b9350612267818560208601612907565b61227081612a72565b840191505092915050565b60006122886020836127bd565b915061229382612a83565b602082019050919050565b60006122ab602b836127bd565b91506122b682612aac565b604082019050919050565b60006122ce602b836127bd565b91506122d982612afb565b604082019050919050565b60006122f16040836127bd565b91506122fc82612b4a565b604082019050919050565b60006123146035836127bd565b915061231f82612b99565b604082019050919050565b6000612337601e836127bd565b915061234282612be8565b602082019050919050565b600061235a602c836127bd565b915061236582612c11565b604082019050919050565b600061237d6020836127bd565b915061238882612c60565b602082019050919050565b60006123a06024836127bd565b91506123ab82612c89565b604082019050919050565b60006123c36035836127bd565b91506123ce82612cd8565b604082019050919050565b6123e2816128d9565b82525050565b60006123f48284612202565b915081905092915050565b60006020820190506124146000830184612195565b92915050565b600060408201905061242f6000830185612195565b61243c6020830184612195565b9392505050565b60006060820190506124586000830186612195565b6124656020830185612195565b61247260408301846123d9565b949350505050565b600060408201905061248f6000830185612195565b61249c60208301846123d9565b9392505050565b60006020820190506124b86000830184612233565b92915050565b600060208201905081810360008301526124d88184612242565b905092915050565b600060208201905081810360008301526124f98161227b565b9050919050565b600060208201905081810360008301526125198161229e565b9050919050565b60006020820190508181036000830152612539816122c1565b9050919050565b60006020820190508181036000830152612559816122e4565b9050919050565b6000602082019050818103600083015261257981612307565b9050919050565b600060208201905081810360008301526125998161232a565b9050919050565b600060208201905081810360008301526125b98161234d565b9050919050565b600060208201905081810360008301526125d981612370565b9050919050565b600060208201905081810360008301526125f981612393565b9050919050565b60006020820190508181036000830152612619816123b6565b9050919050565b600060208201905061263560008301846123d9565b92915050565b600060808201905061265060008301876123d9565b818103602083015261266281866121a4565b90506126716040830185612195565b61267e60608301846123d9565b95945050505050565b600060a08201905061269c60008301886123d9565b6126a960208301876123d9565b81810360408301526126bb81866121a4565b90506126ca6060830185612195565b6126d760808301846123d9565b9695505050505050565b60006126eb6126fc565b90506126f7828261293a565b919050565b6000604051905090565b600067ffffffffffffffff82111561272157612720612a43565b5b602082029050602081019050919050565b600067ffffffffffffffff82111561274d5761274c612a43565b5b61275682612a72565b9050602081019050919050565b6000819050602082019050919050565b600081519050919050565b600081519050919050565b600081519050919050565b6000602082019050919050565b600082825260208201905092915050565b600081905092915050565b600082825260208201905092915050565b60006127d9826128d9565b91506127e4836128d9565b9250827fffffffffffffffffffffffffffffffffffffffffffffffffffffffffffffffff03821115612819576128186129e5565b5b828201905092915050565b600061282f826128d9565b915061283a836128d9565b92508261284a57612849612a14565b5b828204905092915050565b6000612860826128d9565b915061286b836128d9565b92508282101561287e5761287d6129e5565b5b828203905092915050565b6000612894826128b9565b9050919050565b60006128a6826128b9565b9050919050565b60008115159050919050565b600073ffffffffffffffffffffffffffffffffffffffff82169050919050565b6000819050919050565b60006128ee826128f5565b9050919050565b6000612900826128b9565b9050919050565b60005b8381101561292557808201518184015260208101905061290a565b83811115612934576000848401525b50505050565b61294382612a72565b810181811067ffffffffffffffff8211171561296257612961612a43565b5b80604052505050565b6000612976826128d9565b91507fffffffffffffffffffffffffffffffffffffffffffffffffffffffffffffffff8214156129a9576129a86129e5565b5b600182019050919050565b60006129bf826128d9565b91506129ca836128d9565b9250826129da576129d9612a14565b5b828206905092915050565b7f4e487b7100000000000000000000000000000000000000000000000000000000600052601160045260246000fd5b7f4e487b7100000000000000000000000000000000000000000000000000000000600052601260045260246000fd5b7f4e487b7100000000000000000000000000000000000000000000000000000000600052604160045260246000fd5b6000601f19601f8301169050919050565b7f73776170504e4654746f4f43415428293a20496e76616c6964204e4654204944600082015250565b7f4f6364537761702e7365744f6361744164647265737328293a20496e76616c6960008201527f6420706172616d65746572000000000000000000000000000000000000000000602082015250565b7f4f6364537761702e736574504e46544164647265737328293a20496e76616c6960008201527f6420706172616d65746572000000000000000000000000000000000000000000602082015250565b7f73776170504e4654746f4f43415428293a204572726f723a2043616c6c65722060008201527f636f756c646e27742062652073616d6520746f20746869732061646472657373602082015250565b7f4f6364537761702e7365744f6361744164647265737328293a2043616c6c657260008201527f20666f7220206d7573742062652063726561746f720000000000000000000000602082015250565b7f617070726f766520666f722074686520726f75746572206661696c65642e0000600082015250565b7f496e73756666696369656e742062616c616e6365206f66204f43415420696e2060008201527f74686520636f6e74726163740000000000000000000000000000000000000000602082015250565b7f73776170504e4654746f4f43415428293a20496e76616c69642063616c6c6572600082015250565b7f5472616e7366657248656c7065723a205452414e534645525f46524f4d5f464160008201527f494c454400000000000000000000000000000000000000000000000000000000602082015250565b7f4f6364537761702e736574504e46544164647265737328293a2043616c6c657260008201527f20666f7220206d7573742062652063726561746f720000000000000000000000602082015250565b612d3081612889565b8114612d3b57600080fd5b50565b612d478161289b565b8114612d5257600080fd5b50565b612d5e816128ad565b8114612d6957600080fd5b50565b612d75816128d9565b8114612d8057600080fd5b5056fe4e6f7420656e6f75676820616c6c6f77616e636520666f722074686520455243323020746f6b656e2e20616c6c6f77616e63653a20a2646970667358221220a84350d0bf01cf10bf05574611ec56e52066d58ab007bfb68020cd2e959b7f0d64736f6c63430008040033",
  "immutableReferences": {},
  "source": "// SPDX-License-Identifier: MIT\npragma solidity ^0.8.0;\n\n// https://soliditydeveloper.com/uniswap2\n// https://docs.uniswap.org/protocol/V2/guides/smart-contract-integration/trading-from-a-smart-contract\n// https://ethereum.org/ru/developers/tutorials/transfers-and-approval-of-erc-20-tokens-from-a-solidity-smart-contract/\n// https://solidity-by-example.org/app/erc20/\n\nimport \"@uniswap/v2-periphery/contracts/interfaces/IUniswapV2Router02.sol\";\nimport '@uniswap/lib/contracts/libraries/TransferHelper.sol';\nimport \"@openzeppelin/contracts/token/ERC20/IERC20.sol\"; // openzeppelin 4.5 (for solidity 0.8.x)\nimport \"@openzeppelin/contracts/utils/Strings.sol\";\nimport \"@openzeppelin/contracts/token/ERC721/IERC721.sol\";\nimport \"./PawnNFTs.sol\";\nimport \"./OcatToken.sol\";\n\ncontract OcdSwap {\n\n    address private constant UNISWAP_ROUTER_ADDRESS = 0x7a250d5630B4cF539739dF2C5dAcb4c659F2488D;\n\n    IUniswapV2Router02 public uniswapRouter;\n    address payable private pnftAddress;\n    address payable private ocatAddress;\n    address payable private creator;\n\n    receive() external payable {}\n\n    constructor() {\n        creator = payable(msg.sender);\n        uniswapRouter = IUniswapV2Router02(UNISWAP_ROUTER_ADDRESS);\n    }\n\n    function setPnftAddress(address payable _pnftAddress) public {\n        require(creator == msg.sender, \"OcdSwap.setPNFTAddress(): Caller for  must be creator\");\n        require(_pnftAddress != address(0), \"OcdSwap.setPNFTAddress(): Invalid parameter\");\n        pnftAddress = _pnftAddress;\n    }\n\n    function setOcatAddress(address payable _ocatAddress) public {\n        require(creator == msg.sender, \"OcdSwap.setOcatAddress(): Caller for  must be creator\");\n        require(_ocatAddress != address(0), \"OcdSwap.setOcatAddress(): Invalid parameter\");\n        ocatAddress = _ocatAddress;\n    }\n\n    function swapFromETH(\n        address _tokenOut,\n        uint _amountOutMin,\n        uint _deadline\n    ) public payable {\n        // uint deadline = block.timestamp + 15; // using 'now' for convenience, for mainnet pass deadline from frontend!\n        address[] memory path = new address[](2);\n        path[0] = uniswapRouter.WETH();\n        path[1] = address(_tokenOut);\n        uniswapRouter.swapExactETHForTokens{value: msg.value}(_amountOutMin, path, msg.sender, _deadline);\n    }\n\n    function swapToETH(\n        address _tokenIn,\n        uint _amountIn,\n        uint _amountOutMin,\n        uint _deadline\n    ) public {\n        // transferFrom\n        IERC20 sellTokenContract = IERC20(_tokenIn);\n        //     Check for allowance\n        uint256 allowance = sellTokenContract.allowance(msg.sender, address(this));\n        string memory errorText = Strings.toString(allowance);\n        errorText = strConcat(\"Not enough allowance for the ERC20 token. allowance: \", errorText);\n        require(allowance >= _amountIn, errorText);\n        //     Do transferFrom\n        TransferHelper.safeTransferFrom(_tokenIn, msg.sender, address(this), _amountIn);\n\n        // approve\n        require(sellTokenContract.approve(address(UNISWAP_ROUTER_ADDRESS), _amountIn), 'approve for the router failed.');\n\n        address[] memory path = new address[](2);\n        path[0] = address(_tokenIn);\n        path[1] = uniswapRouter.WETH();\n        uniswapRouter.swapExactTokensForETH(_amountIn, _amountOutMin, path, msg.sender, _deadline);\n    }\n\n    function swapForERC20(\n        address _tokenIn,\n        uint _amountIn,\n        address _tokenOut,\n        uint _amountOutMin,\n        uint _deadline\n    ) public {\n        // transferFrom\n        //    Check for allowance\n        uint256 allowance = IERC20(_tokenIn).allowance(msg.sender, address(this));\n        string memory errorText = Strings.toString(allowance);\n        errorText = strConcat(\"Not enough allowance for the ERC20 token. allowance: \", errorText);\n        require(allowance >= _amountIn, errorText);\n        //     Do transferFrom\n        TransferHelper.safeTransferFrom(_tokenIn, msg.sender, address(this), _amountIn);\n\n        // approve\n        require(\n            IERC20(_tokenIn).approve(address(UNISWAP_ROUTER_ADDRESS), _amountIn), \n            'approve for the router failed.'\n        );\n\n        address[] memory path = new address[](3);\n        path[0] = _tokenIn;\n        path[1] = uniswapRouter.WETH();\n        path[2] = _tokenOut;\n        uniswapRouter.swapExactTokensForTokens(_amountIn, _amountOutMin, path, msg.sender, _deadline);\n    }\n\n\n    function swapToOCAT(uint256 nftID) public {\n        require(msg.sender != address(this), \"swapPNFTtoOCAT(): Error: Caller couldn't be same to this address\");\n        require(msg.sender != address(0), \"swapPNFTtoOCAT(): Invalid caller\");\n        require(nftID > 0, \"swapPNFTtoOCAT(): Invalid NFT ID\");\n        uint256 ocatBalance = IERC20(ocatAddress).balanceOf(address(this));\n        (,,,,,,uint256 price,,) = PawnNFTs(payable(address(pnftAddress))).allPawnNFTs(nftID);\n        // uint256 price = nftItem.price;\n        require(ocatBalance >= price, \"Insufficient balance of OCAT in the contract\");\n        // Pay OCAT for the NFT\n        //   First get price for the NFT\n        //   Then transfer OCATs from the address to caller\n        TransferHelper.safeTransferFrom(ocatAddress, address(this), msg.sender, price);\n        // safeTransferFrom: send NFT from caller to the address\n        IERC721(pnftAddress).safeTransferFrom(msg.sender, address(this), nftID);\n    }\n\n\n\n    ////////////////////////////////////////////////////////////////////////////////////////\n    function strConcat(\n            string memory _a, \n            string memory _b, \n            string memory _c, \n            string memory _d, \n            string memory _e\n    ) internal view returns (string memory){\n        bytes memory _ba = bytes(_a);\n        bytes memory _bb = bytes(_b);\n        bytes memory _bc = bytes(_c);\n        bytes memory _bd = bytes(_d);\n        bytes memory _be = bytes(_e);\n        string memory abcde = new string(_ba.length + _bb.length + _bc.length + _bd.length + _be.length);\n        bytes memory babcde = bytes(abcde);\n\n        uint i = 0;\n        uint k = 0;\n\n        for (i = 0; i < _ba.length; i++) babcde[k++] = _ba[i];\n        for (i = 0; i < _bb.length; i++) babcde[k++] = _bb[i];\n        for (i = 0; i < _bc.length; i++) babcde[k++] = _bc[i];\n        for (i = 0; i < _bd.length; i++) babcde[k++] = _bd[i];\n        for (i = 0; i < _be.length; i++) babcde[k++] = _be[i];\n        return string(babcde);\n    }\n\n    function strConcat(\n            string memory _a, \n            string memory _b, \n            string memory _c, \n            string memory _d\n    ) internal view returns (string memory) {\n        return strConcat(_a, _b, _c, _d, \"\");\n    }\n\n    function strConcat(\n            string memory _a, \n            string memory _b, \n            string memory _c\n    ) internal view returns (string memory) {\n        return strConcat(_a, _b, _c, \"\", \"\");\n    }\n\n    function strConcat(\n            string memory _a, \n            string memory _b\n    ) internal view returns (string memory) {\n        return strConcat(_a, _b, \"\", \"\", \"\");\n    }\n}\n",
  "sourcePath": "/home/vn/MyProjects/OpenchainDex/OpenchainTestVersion/server/contracts/OcdSwap.sol",
  "compiler": {
    "name": "solc",
    "version": "0.8.4+commit.c7e474f2.Emscripten.clang"
  },
  "schemaVersion": "3.4.4",
  "updatedAt": "2022-03-21T05:50:17.998Z",
  "networkType": "ethereum",
  "devdoc": {
    "kind": "dev",
    "methods": {},
    "version": 1
  },
  "userdoc": {
    "kind": "user",
    "methods": {},
    "version": 1
  }
}