{
  "contractName": "OcxAdmin",
  "abi": [
    {
      "inputs": [],
      "stateMutability": "nonpayable",
      "type": "constructor"
    },
    {
      "inputs": [
        {
          "internalType": "address",
          "name": "_admin",
          "type": "address"
        }
      ],
      "name": "addAdmin",
      "outputs": [],
      "stateMutability": "nonpayable",
      "type": "function"
    },
    {
      "inputs": [
        {
          "internalType": "address",
          "name": "_address",
          "type": "address"
        }
      ],
      "name": "isAdmin",
      "outputs": [
        {
          "internalType": "bool",
          "name": "yes",
          "type": "bool"
        }
      ],
      "stateMutability": "view",
      "type": "function"
    }
  ],
  "bytecode": "0x608060405234801561001057600080fd5b50336001806101000a81548173ffffffffffffffffffffffffffffffffffffffff021916908373ffffffffffffffffffffffffffffffffffffffff1602179055506100603361006560201b60201c565b61044c565b600073ffffffffffffffffffffffffffffffffffffffff1660018054906101000a900473ffffffffffffffffffffffffffffffffffffffff1673ffffffffffffffffffffffffffffffffffffffff1614156100f5576040517f08c379a00000000000000000000000000000000000000000000000000000000081526004016100ec9061030d565b60405180910390fd5b60018054906101000a900473ffffffffffffffffffffffffffffffffffffffff1673ffffffffffffffffffffffffffffffffffffffff163373ffffffffffffffffffffffffffffffffffffffff1614610183576040517f08c379a000000000000000000000000000000000000000000000000000000000815260040161017a906102ed565b60405180910390fd5b80600073ffffffffffffffffffffffffffffffffffffffff168173ffffffffffffffffffffffffffffffffffffffff1614156101f4576040517f08c379a00000000000000000000000000000000000000000000000000000000081526004016101eb9061032d565b60405180910390fd5b60016000808473ffffffffffffffffffffffffffffffffffffffff1673ffffffffffffffffffffffffffffffffffffffff16815260200190815260200160002060006101000a81548160ff02191690831515021790555060018060009054906101000a900460ff16610266919061035e565b600160006101000a81548160ff021916908360ff1602179055505050565b6000610291601e8361034d565b915061029c826103d1565b602082019050919050565b60006102b460178361034d565b91506102bf826103fa565b602082019050919050565b60006102d760198361034d565b91506102e282610423565b602082019050919050565b6000602082019050818103600083015261030681610284565b9050919050565b60006020820190508181036000830152610326816102a7565b9050919050565b60006020820190508181036000830152610346816102ca565b9050919050565b600082825260208201905092915050565b600061036982610395565b915061037483610395565b92508260ff0382111561038a576103896103a2565b5b828201905092915050565b600060ff82169050919050565b7f4e487b7100000000000000000000000000000000000000000000000000000000600052601160045260246000fd5b7f466f722063616c6c65722065787065637465642062652063726561746f720000600082015250565b7f496e76616c69642063726561746f722061646472657373000000000000000000600082015250565b7f4578706563746564206e6f6e2d7a65726f206164647265737300000000000000600082015250565b6105b68061045b6000396000f3fe608060405234801561001057600080fd5b50600436106100365760003560e01c806324d7806c1461003b578063704802751461006b575b600080fd5b61005560048036038101906100509190610310565b610087565b60405161006291906103b1565b60405180910390f35b61008560048036038101906100809190610310565b6100dc565b005b60008060008373ffffffffffffffffffffffffffffffffffffffff1673ffffffffffffffffffffffffffffffffffffffff16815260200190815260200160002060009054906101000a900460ff169050919050565b600073ffffffffffffffffffffffffffffffffffffffff1660018054906101000a900473ffffffffffffffffffffffffffffffffffffffff1673ffffffffffffffffffffffffffffffffffffffff16141561016c576040517f08c379a0000000000000000000000000000000000000000000000000000000008152600401610163906103ec565b60405180910390fd5b60018054906101000a900473ffffffffffffffffffffffffffffffffffffffff1673ffffffffffffffffffffffffffffffffffffffff163373ffffffffffffffffffffffffffffffffffffffff16146101fa576040517f08c379a00000000000000000000000000000000000000000000000000000000081526004016101f1906103cc565b60405180910390fd5b80600073ffffffffffffffffffffffffffffffffffffffff168173ffffffffffffffffffffffffffffffffffffffff16141561026b576040517f08c379a00000000000000000000000000000000000000000000000000000000081526004016102629061040c565b60405180910390fd5b60016000808473ffffffffffffffffffffffffffffffffffffffff1673ffffffffffffffffffffffffffffffffffffffff16815260200190815260200160002060006101000a81548160ff02191690831515021790555060018060009054906101000a900460ff166102dd919061043d565b600160006101000a81548160ff021916908360ff1602179055505050565b60008135905061030a81610569565b92915050565b60006020828403121561032257600080fd5b6000610330848285016102fb565b91505092915050565b61034281610486565b82525050565b6000610355601e8361042c565b9150610360826104ee565b602082019050919050565b600061037860178361042c565b915061038382610517565b602082019050919050565b600061039b60198361042c565b91506103a682610540565b602082019050919050565b60006020820190506103c66000830184610339565b92915050565b600060208201905081810360008301526103e581610348565b9050919050565b600060208201905081810360008301526104058161036b565b9050919050565b600060208201905081810360008301526104258161038e565b9050919050565b600082825260208201905092915050565b6000610448826104b2565b9150610453836104b2565b92508260ff03821115610469576104686104bf565b5b828201905092915050565b600061047f82610492565b9050919050565b60008115159050919050565b600073ffffffffffffffffffffffffffffffffffffffff82169050919050565b600060ff82169050919050565b7f4e487b7100000000000000000000000000000000000000000000000000000000600052601160045260246000fd5b7f466f722063616c6c65722065787065637465642062652063726561746f720000600082015250565b7f496e76616c69642063726561746f722061646472657373000000000000000000600082015250565b7f4578706563746564206e6f6e2d7a65726f206164647265737300000000000000600082015250565b61057281610474565b811461057d57600080fd5b5056fea2646970667358221220938ec80e10ee6021a27b511cf3d84200e194e538786009523199696a5e7f972564736f6c63430008040033",
  "immutableReferences": {},
  "source": "// SPDX-License-Identifier: MIT\npragma solidity ^0.8.0;\n\ncontract OcxAdmin {\n    mapping(address => bool) internal adminGroup;\n    uint8                    internal adminCount;\n    address payable          internal creator;\n\n    constructor() {\n        creator = payable(msg.sender);\n        addAdmin(msg.sender);\n\t}\n\n    modifier onlyCreator virtual {\n        require(creator != address(0), \"Invalid creator address\");\n        require(msg.sender == creator, \"For caller expected be creator\");\n        _;\n    }\n    modifier onlyValidAddress(address _address) virtual {\n        require(_address != address(0), \"Expected non-zero address\");\n        _;\n    }\n    modifier onlyAdmin virtual {\n        require(msg.sender != address(0), \"Invalid creator address\");\n        require(adminGroup[msg.sender], \"Must be admin\");\n        _;\n    }\n\n    function addAdmin(address _admin) public virtual\n    onlyCreator onlyValidAddress(_admin) {\n        adminGroup[_admin] = true;\n        adminCount = adminCount + 1;\n    }\n\n    function isAdmin(address _address) public view virtual \n    returns(bool yes) {\n        yes = adminGroup[_address];\n    }\n}",
  "sourcePath": "/home/openchainx/OpenchainTestVersion/server/contracts/OcxAdmin.sol",
  "compiler": {
    "name": "solc",
    "version": "0.8.4+commit.c7e474f2.Emscripten.clang"
  },
  "schemaVersion": "3.4.7",
  "updatedAt": "2022-05-03T03:24:01.139Z",
  "devdoc": {
    "kind": "dev",
    "methods": {},
    "version": 1
  },
  "userdoc": {
    "kind": "user",
    "methods": {},
    "version": 1
  }
}