{
  "contractName": "OcxBalancer",
  "abi": [
    {
      "inputs": [],
      "stateMutability": "nonpayable",
      "type": "constructor"
    },
    {
      "inputs": [
        {
          "internalType": "address",
          "name": "_admin",
          "type": "address"
        }
      ],
      "name": "addAdmin",
      "outputs": [],
      "stateMutability": "nonpayable",
      "type": "function"
    },
    {
      "inputs": [
        {
          "internalType": "uint256",
          "name": "price",
          "type": "uint256"
        }
      ],
      "name": "convertToOcat",
      "outputs": [
        {
          "internalType": "uint256",
          "name": "_ocatPrice",
          "type": "uint256"
        }
      ],
      "stateMutability": "nonpayable",
      "type": "function"
    },
    {
      "inputs": [
        {
          "internalType": "address",
          "name": "_address",
          "type": "address"
        }
      ],
      "name": "isAdmin",
      "outputs": [
        {
          "internalType": "bool",
          "name": "yes",
          "type": "bool"
        }
      ],
      "stateMutability": "view",
      "type": "function"
    },
    {
      "inputs": [],
      "name": "ocatPrice",
      "outputs": [
        {
          "internalType": "uint256",
          "name": "",
          "type": "uint256"
        }
      ],
      "stateMutability": "view",
      "type": "function"
    },
    {
      "inputs": [
        {
          "internalType": "enum CommonContracts",
          "name": "contractIndex",
          "type": "uint8"
        },
        {
          "internalType": "address payable",
          "name": "_address",
          "type": "address"
        }
      ],
      "name": "setAddress",
      "outputs": [],
      "stateMutability": "nonpayable",
      "type": "function"
    },
    {
      "inputs": [
        {
          "internalType": "uint256",
          "name": "price",
          "type": "uint256"
        }
      ],
      "name": "setOcatPrice",
      "outputs": [],
      "stateMutability": "nonpayable",
      "type": "function"
    },
    {
      "inputs": [],
      "name": "run",
      "outputs": [],
      "stateMutability": "nonpayable",
      "type": "function"
    }
  ],
  "bytecode": "0x60806040523480156200001157600080fd5b50336001806101000a81548173ffffffffffffffffffffffffffffffffffffffff021916908373ffffffffffffffffffffffffffffffffffffffff16021790555062000063336200007260201b60201c565b6103e86002819055506200047d565b600073ffffffffffffffffffffffffffffffffffffffff1660018054906101000a900473ffffffffffffffffffffffffffffffffffffffff1673ffffffffffffffffffffffffffffffffffffffff16141562000105576040517f08c379a0000000000000000000000000000000000000000000000000000000008152600401620000fc9062000333565b60405180910390fd5b60018054906101000a900473ffffffffffffffffffffffffffffffffffffffff1673ffffffffffffffffffffffffffffffffffffffff163373ffffffffffffffffffffffffffffffffffffffff161462000196576040517f08c379a00000000000000000000000000000000000000000000000000000000081526004016200018d9062000311565b60405180910390fd5b80600073ffffffffffffffffffffffffffffffffffffffff168173ffffffffffffffffffffffffffffffffffffffff1614156200020a576040517f08c379a0000000000000000000000000000000000000000000000000000000008152600401620002019062000355565b60405180910390fd5b60016000808473ffffffffffffffffffffffffffffffffffffffff1673ffffffffffffffffffffffffffffffffffffffff16815260200190815260200160002060006101000a81548160ff02191690831515021790555060018060009054906101000a900460ff166200027e919062000388565b600160006101000a81548160ff021916908360ff1602179055505050565b6000620002ab601e8362000377565b9150620002b88262000402565b602082019050919050565b6000620002d260178362000377565b9150620002df826200042b565b602082019050919050565b6000620002f960198362000377565b9150620003068262000454565b602082019050919050565b600060208201905081810360008301526200032c816200029c565b9050919050565b600060208201905081810360008301526200034e81620002c3565b9050919050565b600060208201905081810360008301526200037081620002ea565b9050919050565b600082825260208201905092915050565b60006200039582620003c6565b9150620003a283620003c6565b92508260ff03821115620003bb57620003ba620003d3565b5b828201905092915050565b600060ff82169050919050565b7f4e487b7100000000000000000000000000000000000000000000000000000000600052601160045260246000fd5b7f466f722063616c6c65722065787065637465642062652063726561746f720000600082015250565b7f496e76616c69642063726561746f722061646472657373000000000000000000600082015250565b7f4578706563746564206e6f6e2d7a65726f206164647265737300000000000000600082015250565b612130806200048d6000396000f3fe608060405234801561001057600080fd5b506004361061007d5760003560e01c8063a7d9cfbc1161005b578063a7d9cfbc146100ea578063bb3f6c6a14610108578063c040622614610124578063dbcd95801461012e5761007d565b80630589c4e51461008257806324d7806c1461009e57806370480275146100ce575b600080fd5b61009c6004803603810190610097919061167a565b61015e565b005b6100b860048036038101906100b39190611651565b610616565b6040516100c59190611923565b60405180910390f35b6100e860048036038101906100e39190611651565b61066b565b005b6100f261088a565b6040516100ff9190611af9565b60405180910390f35b610122600480360381019061011d91906116df565b610890565b005b61012c61089a565b005b610148600480360381019061014391906116df565b61141e565b6040516101559190611af9565b60405180910390f35b600073ffffffffffffffffffffffffffffffffffffffff1660018054906101000a900473ffffffffffffffffffffffffffffffffffffffff1673ffffffffffffffffffffffffffffffffffffffff1614156101ee576040517f08c379a00000000000000000000000000000000000000000000000000000000081526004016101e59061197e565b60405180910390fd5b60018054906101000a900473ffffffffffffffffffffffffffffffffffffffff1673ffffffffffffffffffffffffffffffffffffffff163373ffffffffffffffffffffffffffffffffffffffff161461027c576040517f08c379a00000000000000000000000000000000000000000000000000000000081526004016102739061195e565b60405180910390fd5b80600073ffffffffffffffffffffffffffffffffffffffff168173ffffffffffffffffffffffffffffffffffffffff1614156102ed576040517f08c379a00000000000000000000000000000000000000000000000000000000081526004016102e490611a12565b60405180910390fd5b600073ffffffffffffffffffffffffffffffffffffffff163373ffffffffffffffffffffffffffffffffffffffff16141561035d576040517f08c379a00000000000000000000000000000000000000000000000000000000081526004016103549061197e565b60405180910390fd5b6000803373ffffffffffffffffffffffffffffffffffffffff1673ffffffffffffffffffffffffffffffffffffffff16815260200190815260200160002060009054906101000a900460ff166103e8576040517f08c379a00000000000000000000000000000000000000000000000000000000081526004016103df90611a65565b60405180910390fd5b60006009811115610422577f4e487b7100000000000000000000000000000000000000000000000000000000600052602160045260246000fd5b600981111561045a577f4e487b7100000000000000000000000000000000000000000000000000000000600052602160045260246000fd5b836009811115610493577f4e487b7100000000000000000000000000000000000000000000000000000000600052602160045260246000fd5b1015801561051057506009808111156104d5577f4e487b7100000000000000000000000000000000000000000000000000000000600052602160045260246000fd5b83600981111561050e577f4e487b7100000000000000000000000000000000000000000000000000000000600052602160045260246000fd5b105b61054f576040517f08c379a00000000000000000000000000000000000000000000000000000000081526004016105469061193e565b60405180910390fd5b816003600085600981111561058d577f4e487b7100000000000000000000000000000000000000000000000000000000600052602160045260246000fd5b60098111156105c5577f4e487b7100000000000000000000000000000000000000000000000000000000600052602160045260246000fd5b815260200190815260200160002060006101000a81548173ffffffffffffffffffffffffffffffffffffffff021916908373ffffffffffffffffffffffffffffffffffffffff160217905550505050565b60008060008373ffffffffffffffffffffffffffffffffffffffff1673ffffffffffffffffffffffffffffffffffffffff16815260200190815260200160002060009054906101000a900460ff169050919050565b600073ffffffffffffffffffffffffffffffffffffffff1660018054906101000a900473ffffffffffffffffffffffffffffffffffffffff1673ffffffffffffffffffffffffffffffffffffffff1614156106fb576040517f08c379a00000000000000000000000000000000000000000000000000000000081526004016106f29061197e565b60405180910390fd5b60018054906101000a900473ffffffffffffffffffffffffffffffffffffffff1673ffffffffffffffffffffffffffffffffffffffff163373ffffffffffffffffffffffffffffffffffffffff1614610789576040517f08c379a00000000000000000000000000000000000000000000000000000000081526004016107809061195e565b60405180910390fd5b80600073ffffffffffffffffffffffffffffffffffffffff168173ffffffffffffffffffffffffffffffffffffffff1614156107fa576040517f08c379a00000000000000000000000000000000000000000000000000000000081526004016107f190611a12565b60405180910390fd5b60016000808473ffffffffffffffffffffffffffffffffffffffff1673ffffffffffffffffffffffffffffffffffffffff16815260200190815260200160002060006101000a81548160ff02191690831515021790555060018060009054906101000a900460ff1661086c9190611b4a565b600160006101000a81548160ff021916908360ff1602179055505050565b60025481565b8060028190555050565b60036000600760098111156108d8577f4e487b7100000000000000000000000000000000000000000000000000000000600052602160045260246000fd5b6009811115610910577f4e487b7100000000000000000000000000000000000000000000000000000000600052602160045260246000fd5b815260200190815260200160002060009054906101000a900473ffffffffffffffffffffffffffffffffffffffff16600073ffffffffffffffffffffffffffffffffffffffff168173ffffffffffffffffffffffffffffffffffffffff1614156109af576040517f08c379a00000000000000000000000000000000000000000000000000000000081526004016109a690611a12565b60405180910390fd5b60036000600160098111156109ed577f4e487b7100000000000000000000000000000000000000000000000000000000600052602160045260246000fd5b6009811115610a25577f4e487b7100000000000000000000000000000000000000000000000000000000600052602160045260246000fd5b815260200190815260200160002060009054906101000a900473ffffffffffffffffffffffffffffffffffffffff16600073ffffffffffffffffffffffffffffffffffffffff168173ffffffffffffffffffffffffffffffffffffffff161415610ac4576040517f08c379a0000000000000000000000000000000000000000000000000000000008152600401610abb90611a12565b60405180910390fd5b600073ffffffffffffffffffffffffffffffffffffffff163373ffffffffffffffffffffffffffffffffffffffff161415610b34576040517f08c379a0000000000000000000000000000000000000000000000000000000008152600401610b2b9061197e565b60405180910390fd5b6000803373ffffffffffffffffffffffffffffffffffffffff1673ffffffffffffffffffffffffffffffffffffffff16815260200190815260200160002060009054906101000a900460ff16610bbf576040517f08c379a0000000000000000000000000000000000000000000000000000000008152600401610bb690611a65565b60405180910390fd5b60006003600060076009811115610bff577f4e487b7100000000000000000000000000000000000000000000000000000000600052602160045260246000fd5b6009811115610c37577f4e487b7100000000000000000000000000000000000000000000000000000000600052602160045260246000fd5b815260200190815260200160002060009054906101000a900473ffffffffffffffffffffffffffffffffffffffff16905060008173ffffffffffffffffffffffffffffffffffffffff1663ed66a3806040518163ffffffff1660e01b8152600401610ca190611a32565b604080518083038186803b158015610cb857600080fd5b505afa158015610ccc573d6000803e3d6000fd5b505050506040513d601f19601f82011682018060405250810190610cf091906116b6565b905060006004600001541415610d32578060046000820151816000015560208201518160010160006101000a81548160ff021916908360ff1602179055509050505b80600001516004600001541461112857600060046000015460648360000151610d5b9190611d23565b610d659190611b81565b9050605a811080610d765750606e81115b156110f557606e811115610f3e57600060646003600060016009811115610dc6577f4e487b7100000000000000000000000000000000000000000000000000000000600052602160045260246000fd5b6009811115610dfe577f4e487b7100000000000000000000000000000000000000000000000000000000600052602160045260246000fd5b815260200190815260200160002060009054906101000a900473ffffffffffffffffffffffffffffffffffffffff1673ffffffffffffffffffffffffffffffffffffffff166318160ddd6040518163ffffffff1660e01b815260040160206040518083038186803b158015610e7257600080fd5b505afa158015610e86573d6000803e3d6000fd5b505050506040513d601f19601f82011682018060405250810190610eaa9190611708565b836064610eb79190611d7d565b610ec19190611d23565b610ecb9190611b81565b90508373ffffffffffffffffffffffffffffffffffffffff1663480d5d3d826040518263ffffffff1660e01b8152600401610f069190611af9565b600060405180830381600087803b158015610f2057600080fd5b505af1158015610f34573d6000803e3d6000fd5b50505050506110f4565b600060646003600060016009811115610f80577f4e487b7100000000000000000000000000000000000000000000000000000000600052602160045260246000fd5b6009811115610fb8577f4e487b7100000000000000000000000000000000000000000000000000000000600052602160045260246000fd5b815260200190815260200160002060009054906101000a900473ffffffffffffffffffffffffffffffffffffffff1673ffffffffffffffffffffffffffffffffffffffff166318160ddd6040518163ffffffff1660e01b815260040160206040518083038186803b15801561102c57600080fd5b505afa158015611040573d6000803e3d6000fd5b505050506040513d601f19601f820116820180604052508101906110649190611708565b6064846110719190611d7d565b61107b9190611d23565b6110859190611b81565b90508373ffffffffffffffffffffffffffffffffffffffff1663722b239e826040518263ffffffff1660e01b81526004016110c09190611af9565b600060405180830381600087803b1580156110da57600080fd5b505af11580156110ee573d6000803e3d6000fd5b50505050505b5b8160046000820151816000015560208201518160010160006101000a81548160ff021916908360ff160217905550905050505b60008273ffffffffffffffffffffffffffffffffffffffff1663ed66a3806040518163ffffffff1660e01b815260040161116190611a85565b604080518083038186803b15801561117857600080fd5b505afa15801561118c573d6000803e3d6000fd5b505050506040513d601f19601f820116820180604052508101906111b091906116b6565b905060008373ffffffffffffffffffffffffffffffffffffffff1663ed66a3806040518163ffffffff1660e01b81526004016111eb90611a85565b604080518083038186803b15801561120257600080fd5b505afa158015611216573d6000803e3d6000fd5b505050506040513d601f19601f8201168201806040525081019061123a91906116b6565b90506000816000015114156112b8578373ffffffffffffffffffffffffffffffffffffffff16636ad7b16a836040518263ffffffff1660e01b81526004016112829190611ab8565b600060405180830381600087803b15801561129c57600080fd5b505af11580156112b0573d6000803e3d6000fd5b505050508190505b81600001518160000151146114165760008160000151606484600001516112df9190611d23565b6112e99190611b81565b905060008573ffffffffffffffffffffffffffffffffffffffff1663ed66a3806040518163ffffffff1660e01b81526004016113249061199e565b604080518083038186803b15801561133b57600080fd5b505afa15801561134f573d6000803e3d6000fd5b505050506040513d601f19601f8201168201806040525081019061137391906116b6565b90508573ffffffffffffffffffffffffffffffffffffffff16636ad7b16a604051806040016040528060648686600001516113ae9190611d23565b6113b89190611b81565b8152602001600660ff168152506040518263ffffffff1660e01b81526004016113e191906119d1565b600060405180830381600087803b1580156113fb57600080fd5b505af115801561140f573d6000803e3d6000fd5b5050505050505b505050505050565b60006003600a61142e9190611c05565b600254600360006001600981111561146f577f4e487b7100000000000000000000000000000000000000000000000000000000600052602160045260246000fd5b60098111156114a7577f4e487b7100000000000000000000000000000000000000000000000000000000600052602160045260246000fd5b815260200190815260200160002060009054906101000a900473ffffffffffffffffffffffffffffffffffffffff1673ffffffffffffffffffffffffffffffffffffffff1663313ce5676040518163ffffffff1660e01b8152600401602060405180830381600087803b15801561151d57600080fd5b505af1158015611531573d6000803e3d6000fd5b505050506040513d601f19601f820116820180604052508101906115559190611731565b600a6115619190611c05565b8461156c9190611d23565b6115769190611d23565b6115809190611b81565b9050919050565b6000813590506115968161208e565b92915050565b6000813590506115ab816120a5565b92915050565b6000813590506115c0816120bc565b92915050565b6000604082840312156115d857600080fd5b6115e26040611b14565b905060006115f284828501611627565b60008301525060206116068482850161163c565b60208301525092915050565b600081359050611621816120cc565b92915050565b600081519050611636816120cc565b92915050565b60008151905061164b816120e3565b92915050565b60006020828403121561166357600080fd5b600061167184828501611587565b91505092915050565b6000806040838503121561168d57600080fd5b600061169b858286016115b1565b92505060206116ac8582860161159c565b9150509250929050565b6000604082840312156116c857600080fd5b60006116d6848285016115c6565b91505092915050565b6000602082840312156116f157600080fd5b60006116ff84828501611612565b91505092915050565b60006020828403121561171a57600080fd5b600061172884828501611627565b91505092915050565b60006020828403121561174357600080fd5b60006117518482850161163c565b91505092915050565b61176381611dd5565b82525050565b6000611776600383611b39565b915061178182611ef4565b602082019050919050565b6000611799601683611b39565b91506117a482611f1d565b602082019050919050565b60006117bc601e83611b39565b91506117c782611f46565b602082019050919050565b60006117df601783611b39565b91506117ea82611f6f565b602082019050919050565b6000611802600483611b39565b915061180d82611f98565b602082019050919050565b6000611825601983611b39565b915061183082611fc1565b602082019050919050565b6000611848600383611b39565b915061185382611fea565b602082019050919050565b600061186b600d83611b39565b915061187682612013565b602082019050919050565b600061188e600383611b39565b91506118998261203c565b602082019050919050565b60006118b1600383611b39565b91506118bc82612065565b602082019050919050565b6040820160008201516118dd60008501826118f6565b5060208201516118f06020850182611914565b50505050565b6118ff81611e01565b82525050565b61190e81611e01565b82525050565b61191d81611e0b565b82525050565b6000602082019050611938600083018461175a565b92915050565b600060208201905081810360008301526119578161178c565b9050919050565b60006020820190508181036000830152611977816117af565b9050919050565b60006020820190508181036000830152611997816117d2565b9050919050565b600060408201905081810360008301526119b7816117f5565b905081810360208301526119ca81611769565b9050919050565b600060808201905081810360008301526119ea816117f5565b905081810360208301526119fd81611769565b9050611a0c60408301846118c7565b92915050565b60006020820190508181036000830152611a2b81611818565b9050919050565b60006040820190508181036000830152611a4b8161183b565b90508181036020830152611a5e81611881565b9050919050565b60006020820190508181036000830152611a7e8161185e565b9050919050565b60006040820190508181036000830152611a9e816118a4565b90508181036020830152611ab181611881565b9050919050565b60006080820190508181036000830152611ad1816118a4565b90508181036020830152611ae481611881565b9050611af360408301846118c7565b92915050565b6000602082019050611b0e6000830184611905565b92915050565b6000611b1e611b2f565b9050611b2a8282611e18565b919050565b6000604051905090565b600082825260208201905092915050565b6000611b5582611e0b565b9150611b6083611e0b565b92508260ff03821115611b7657611b75611e49565b5b828201905092915050565b6000611b8c82611e01565b9150611b9783611e01565b925082611ba757611ba6611e78565b5b828204905092915050565b6000808291508390505b6001851115611bfc57808604811115611bd857611bd7611e49565b5b6001851615611be75780820291505b8081029050611bf585611ee7565b9450611bbc565b94509492505050565b6000611c1082611e01565b9150611c1b83611e0b565b9250611c487fffffffffffffffffffffffffffffffffffffffffffffffffffffffffffffffff8484611c50565b905092915050565b600082611c605760019050611d1c565b81611c6e5760009050611d1c565b8160018114611c845760028114611c8e57611cbd565b6001915050611d1c565b60ff841115611ca057611c9f611e49565b5b8360020a915084821115611cb757611cb6611e49565b5b50611d1c565b5060208310610133831016604e8410600b8410161715611cf25782820a905083811115611ced57611cec611e49565b5b611d1c565b611cff8484846001611bb2565b92509050818404811115611d1657611d15611e49565b5b81810290505b9392505050565b6000611d2e82611e01565b9150611d3983611e01565b9250817fffffffffffffffffffffffffffffffffffffffffffffffffffffffffffffffff0483118215151615611d7257611d71611e49565b5b828202905092915050565b6000611d8882611e01565b9150611d9383611e01565b925082821015611da657611da5611e49565b5b828203905092915050565b6000611dbc82611de1565b9050919050565b6000611dce82611de1565b9050919050565b60008115159050919050565b600073ffffffffffffffffffffffffffffffffffffffff82169050919050565b6000819050919050565b600060ff82169050919050565b611e2182611ed6565b810181811067ffffffffffffffff82111715611e4057611e3f611ea7565b5b80604052505050565b7f4e487b7100000000000000000000000000000000000000000000000000000000600052601160045260246000fd5b7f4e487b7100000000000000000000000000000000000000000000000000000000600052601260045260246000fd5b7f4e487b7100000000000000000000000000000000000000000000000000000000600052604160045260246000fd5b6000601f19601f8301169050919050565b60008160011c9050919050565b7f4f43580000000000000000000000000000000000000000000000000000000000600082015250565b7f496e76616c696420636f6e747261637420696e64657800000000000000000000600082015250565b7f466f722063616c6c65722065787065637465642062652063726561746f720000600082015250565b7f496e76616c69642063726561746f722061646472657373000000000000000000600082015250565b7f4f43415400000000000000000000000000000000000000000000000000000000600082015250565b7f4578706563746564206e6f6e2d7a65726f206164647265737300000000000000600082015250565b7f4554480000000000000000000000000000000000000000000000000000000000600082015250565b7f4d7573742062652061646d696e00000000000000000000000000000000000000600082015250565b7f4155440000000000000000000000000000000000000000000000000000000000600082015250565b7f554e490000000000000000000000000000000000000000000000000000000000600082015250565b61209781611db1565b81146120a257600080fd5b50565b6120ae81611dc3565b81146120b957600080fd5b50565b600a81106120c957600080fd5b50565b6120d581611e01565b81146120e057600080fd5b50565b6120ec81611e0b565b81146120f757600080fd5b5056fea2646970667358221220f292b96c852b1c341b6944fedb92d58076ba1737634bc4b73b3a67289ad5848764736f6c63430008040033",
  "immutableReferences": {},
  "source": "// SPDX-License-Identifier: MIT\r\npragma solidity ^0.8.0;\r\n\r\nimport \"@openzeppelin/contracts/token/ERC20/IERC20.sol\"; // openzeppelin 4.5 (for solidity 0.8.x)\r\n// import \"@openzeppelin/contracts/utils/math/SafeMath.sol\";\r\nimport '../OcxBase.sol';\r\nimport '../interface/IOcxBalancer.sol';\r\nimport '../interface/IOcxExchange.sol';\r\nimport '../interface/IOcxERC20.sol';\r\nimport \"../common/OcxCommon.sol\";\r\n\r\ncontract OcxBalancer is OcxBase, IOcxBalancer {\r\n\r\n    uint256 private constant MAX_ALLOWED_OCAT_PRICE = 110;\r\n    uint256 private constant MIN_ALLOWED_OCAT_PRICE =  90;\r\n\r\n    OcxPrice ethAudQuote;\r\n\r\n    constructor(\r\n    ) {\r\n    }\r\n    /*\r\n     * A user try to swap OCAT to UNI in our site\r\n     * The system accept and swap OCAT into OCX/OCAT Uniswap pool and get OCX\r\n     * The system swap OCX into OCX/UNI Uniswap pool and get UNI\r\n     * The system return UNI for the user's OCAT\r\n     * As a result, OCAT price to UNI changes\r\n     * The stable algorithm fill back \r\n     */\r\n    function run() external\r\n    onlyValidAddress(contractAddress[CommonContracts.EXCHANGE]) \r\n    onlyValidAddress(contractAddress[CommonContracts.OCAT]) \r\n    onlyAdmin {\r\n        IOcxExchange ocXchange = IOcxExchange(contractAddress[CommonContracts.EXCHANGE]);\r\n        // Check ETH:AUD quote\r\n        OcxPrice memory newEthAudQuote = ocXchange.getQuote(\"ETH\", \"AUD\");\r\n        if (ethAudQuote.value == 0) {\r\n            ethAudQuote = newEthAudQuote;\r\n        }\r\n        if (ethAudQuote.value != newEthAudQuote.value) {\r\n            uint changePercentage = (newEthAudQuote.value * 100) / ethAudQuote.value;\r\n            if (changePercentage < MIN_ALLOWED_OCAT_PRICE || changePercentage > MAX_ALLOWED_OCAT_PRICE) {\r\n                if (changePercentage > MAX_ALLOWED_OCAT_PRICE) { // If ETH price drop than 10%\r\n                    // Force OcxExchange to burn OCAT *******\r\n                    uint256 decreaseAmount = \r\n                        (\r\n                            (100 - changePercentage) * \r\n                            IERC20(contractAddress[CommonContracts.OCAT]).totalSupply()\r\n                        ) / 100;\r\n                    // Burn bought OCAT\r\n                    ocXchange.burnOcat(decreaseAmount);\r\n                } else {\r\n                    // Force OcxExchange to mint OCAT\r\n                    uint256 increaseAmount = \r\n                        (\r\n                            (changePercentage - 100) * \r\n                            IERC20(contractAddress[CommonContracts.OCAT]).totalSupply()\r\n                        ) / 100;\r\n                    // Mint bought OCAT\r\n                    ocXchange.mintOcat(increaseAmount);\r\n                }\r\n            }            \r\n            ethAudQuote = newEthAudQuote;\r\n        }\r\n        // Check UNI:AUD quote\r\n        OcxPrice memory uniAudQuote = ocXchange.getQuote(\"UNI\", \"AUD\");\r\n        OcxPrice memory oldUniAudQuote = ocXchange.getQuote(\"UNI\", \"AUD\");\r\n        if (oldUniAudQuote.value == 0) {\r\n            ocXchange.setQuote(\"UNI\", \"AUD\", uniAudQuote);\r\n            oldUniAudQuote = uniAudQuote;\r\n        }\r\n        if (oldUniAudQuote.value != uniAudQuote.value) {\r\n            // Update OCAT:OCX quote by change rate of OCAT:UNI\r\n            uint changePercentage = (uniAudQuote.value * 100) / oldUniAudQuote.value;\r\n            OcxPrice memory oldOcatOcxQuote = ocXchange.getQuote(\"OCAT\", \"OCX\");\r\n            ocXchange.setQuote(\r\n                \"OCAT\", \"OCX\", OcxPrice(oldOcatOcxQuote.value * changePercentage / 100, QUOTE_DECIMALS)\r\n            );\r\n        }\r\n    }\r\n}\r\n",
  "sourcePath": "E:\\Work\\OpenchainTestVersion\\server\\contracts\\balancer\\OcxBalancer.sol",
  "compiler": {
    "name": "solc",
    "version": "0.8.4+commit.c7e474f2.Emscripten.clang"
  },
  "schemaVersion": "3.4.7",
  "updatedAt": "2022-05-04T11:04:02.120Z",
  "devdoc": {
    "kind": "dev",
    "methods": {},
    "version": 1
  },
  "userdoc": {
    "kind": "user",
    "methods": {},
    "version": 1
  }
}