{
  "contractName": "OcxBalancer",
  "abi": [
    {
      "inputs": [],
      "stateMutability": "nonpayable",
      "type": "constructor"
    },
    {
      "inputs": [
        {
          "internalType": "address",
          "name": "_admin",
          "type": "address"
        }
      ],
      "name": "addAdmin",
      "outputs": [],
      "stateMutability": "nonpayable",
      "type": "function"
    },
    {
      "inputs": [
        {
          "internalType": "uint256",
          "name": "price",
          "type": "uint256"
        }
      ],
      "name": "convertToOcat",
      "outputs": [
        {
          "internalType": "uint256",
          "name": "_ocatPrice",
          "type": "uint256"
        }
      ],
      "stateMutability": "nonpayable",
      "type": "function"
    },
    {
      "inputs": [
        {
          "internalType": "address",
          "name": "_address",
          "type": "address"
        }
      ],
      "name": "isAdmin",
      "outputs": [
        {
          "internalType": "bool",
          "name": "yes",
          "type": "bool"
        }
      ],
      "stateMutability": "view",
      "type": "function",
      "constant": true
    },
    {
      "inputs": [],
      "name": "ocatPrice",
      "outputs": [
        {
          "internalType": "uint256",
          "name": "",
          "type": "uint256"
        }
      ],
      "stateMutability": "view",
      "type": "function",
      "constant": true
    },
    {
      "inputs": [
        {
          "internalType": "enum CommonContracts",
          "name": "contractIndex",
          "type": "uint8"
        },
        {
          "internalType": "address payable",
          "name": "_address",
          "type": "address"
        }
      ],
      "name": "setCommonContractAddress",
      "outputs": [],
      "stateMutability": "nonpayable",
      "type": "function"
    },
    {
      "inputs": [
        {
          "internalType": "uint256",
          "name": "price",
          "type": "uint256"
        }
      ],
      "name": "setOcatPrice",
      "outputs": [],
      "stateMutability": "nonpayable",
      "type": "function"
    },
    {
      "inputs": [],
      "name": "run",
      "outputs": [],
      "stateMutability": "nonpayable",
      "type": "function"
    }
  ],
  "bytecode": "0x60806040523480156200001157600080fd5b50336001806101000a81548173ffffffffffffffffffffffffffffffffffffffff021916908373ffffffffffffffffffffffffffffffffffffffff16021790555062000063336200007260201b60201c565b6103e86002819055506200047d565b600073ffffffffffffffffffffffffffffffffffffffff1660018054906101000a900473ffffffffffffffffffffffffffffffffffffffff1673ffffffffffffffffffffffffffffffffffffffff16141562000105576040517f08c379a0000000000000000000000000000000000000000000000000000000008152600401620000fc9062000333565b60405180910390fd5b60018054906101000a900473ffffffffffffffffffffffffffffffffffffffff1673ffffffffffffffffffffffffffffffffffffffff163373ffffffffffffffffffffffffffffffffffffffff161462000196576040517f08c379a00000000000000000000000000000000000000000000000000000000081526004016200018d9062000311565b60405180910390fd5b80600073ffffffffffffffffffffffffffffffffffffffff168173ffffffffffffffffffffffffffffffffffffffff1614156200020a576040517f08c379a0000000000000000000000000000000000000000000000000000000008152600401620002019062000355565b60405180910390fd5b60016000808473ffffffffffffffffffffffffffffffffffffffff1673ffffffffffffffffffffffffffffffffffffffff16815260200190815260200160002060006101000a81548160ff02191690831515021790555060018060009054906101000a900460ff166200027e919062000388565b600160006101000a81548160ff021916908360ff1602179055505050565b6000620002ab601e8362000377565b9150620002b88262000402565b602082019050919050565b6000620002d260178362000377565b9150620002df826200042b565b602082019050919050565b6000620002f960198362000377565b9150620003068262000454565b602082019050919050565b600060208201905081810360008301526200032c816200029c565b9050919050565b600060208201905081810360008301526200034e81620002c3565b9050919050565b600060208201905081810360008301526200037081620002ea565b9050919050565b600082825260208201905092915050565b60006200039582620003c6565b9150620003a283620003c6565b92508260ff03821115620003bb57620003ba620003d3565b5b828201905092915050565b600060ff82169050919050565b7f4e487b7100000000000000000000000000000000000000000000000000000000600052601160045260246000fd5b7f466f722063616c6c65722065787065637465642062652063726561746f720000600082015250565b7f496e76616c69642063726561746f722061646472657373000000000000000000600082015250565b7f4578706563746564206e6f6e2d7a65726f206164647265737300000000000000600082015250565b612292806200048d6000396000f3fe608060405234801561001057600080fd5b506004361061007d5760003560e01c8063a7d9cfbc1161005b578063a7d9cfbc146100ea578063bb3f6c6a14610108578063c040622614610124578063dbcd95801461012e5761007d565b806324d7806c1461008257806359de0961146100b257806370480275146100ce575b600080fd5b61009c60048036038101906100979190611829565b61015e565b6040516100a99190611ac4565b60405180910390f35b6100cc60048036038101906100c79190611852565b6101b3565b005b6100e860048036038101906100e39190611829565b61066b565b005b6100f261088a565b6040516100ff9190611c45565b60405180910390f35b610122600480360381019061011d91906118b7565b610890565b005b61012c61089a565b005b610148600480360381019061014391906118b7565b6115f6565b6040516101559190611c45565b60405180910390f35b60008060008373ffffffffffffffffffffffffffffffffffffffff1673ffffffffffffffffffffffffffffffffffffffff16815260200190815260200160002060009054906101000a900460ff169050919050565b600073ffffffffffffffffffffffffffffffffffffffff1660018054906101000a900473ffffffffffffffffffffffffffffffffffffffff1673ffffffffffffffffffffffffffffffffffffffff161415610243576040517f08c379a000000000000000000000000000000000000000000000000000000000815260040161023a90611b7f565b60405180910390fd5b60018054906101000a900473ffffffffffffffffffffffffffffffffffffffff1673ffffffffffffffffffffffffffffffffffffffff163373ffffffffffffffffffffffffffffffffffffffff16146102d1576040517f08c379a00000000000000000000000000000000000000000000000000000000081526004016102c890611b5f565b60405180910390fd5b80600073ffffffffffffffffffffffffffffffffffffffff168173ffffffffffffffffffffffffffffffffffffffff161415610342576040517f08c379a000000000000000000000000000000000000000000000000000000000815260040161033990611b9f565b60405180910390fd5b600073ffffffffffffffffffffffffffffffffffffffff163373ffffffffffffffffffffffffffffffffffffffff1614156103b2576040517f08c379a00000000000000000000000000000000000000000000000000000000081526004016103a990611b7f565b60405180910390fd5b6000803373ffffffffffffffffffffffffffffffffffffffff1673ffffffffffffffffffffffffffffffffffffffff16815260200190815260200160002060009054906101000a900460ff1661043d576040517f08c379a000000000000000000000000000000000000000000000000000000000815260040161043490611bf2565b60405180910390fd5b60006009811115610477577f4e487b7100000000000000000000000000000000000000000000000000000000600052602160045260246000fd5b60098111156104af577f4e487b7100000000000000000000000000000000000000000000000000000000600052602160045260246000fd5b8360098111156104e8577f4e487b7100000000000000000000000000000000000000000000000000000000600052602160045260246000fd5b10158015610565575060098081111561052a577f4e487b7100000000000000000000000000000000000000000000000000000000600052602160045260246000fd5b836009811115610563577f4e487b7100000000000000000000000000000000000000000000000000000000600052602160045260246000fd5b105b6105a4576040517f08c379a000000000000000000000000000000000000000000000000000000000815260040161059b90611b3f565b60405180910390fd5b81600360008560098111156105e2577f4e487b7100000000000000000000000000000000000000000000000000000000600052602160045260246000fd5b600981111561061a577f4e487b7100000000000000000000000000000000000000000000000000000000600052602160045260246000fd5b815260200190815260200160002060006101000a81548173ffffffffffffffffffffffffffffffffffffffff021916908373ffffffffffffffffffffffffffffffffffffffff160217905550505050565b600073ffffffffffffffffffffffffffffffffffffffff1660018054906101000a900473ffffffffffffffffffffffffffffffffffffffff1673ffffffffffffffffffffffffffffffffffffffff1614156106fb576040517f08c379a00000000000000000000000000000000000000000000000000000000081526004016106f290611b7f565b60405180910390fd5b60018054906101000a900473ffffffffffffffffffffffffffffffffffffffff1673ffffffffffffffffffffffffffffffffffffffff163373ffffffffffffffffffffffffffffffffffffffff1614610789576040517f08c379a000000000000000000000000000000000000000000000000000000000815260040161078090611b5f565b60405180910390fd5b80600073ffffffffffffffffffffffffffffffffffffffff168173ffffffffffffffffffffffffffffffffffffffff1614156107fa576040517f08c379a00000000000000000000000000000000000000000000000000000000081526004016107f190611b9f565b60405180910390fd5b60016000808473ffffffffffffffffffffffffffffffffffffffff1673ffffffffffffffffffffffffffffffffffffffff16815260200190815260200160002060006101000a81548160ff02191690831515021790555060018060009054906101000a900460ff1661086c9190611c96565b600160006101000a81548160ff021916908360ff1602179055505050565b60025481565b8060028190555050565b60036000600660098111156108d8577f4e487b7100000000000000000000000000000000000000000000000000000000600052602160045260246000fd5b6009811115610910577f4e487b7100000000000000000000000000000000000000000000000000000000600052602160045260246000fd5b815260200190815260200160002060009054906101000a900473ffffffffffffffffffffffffffffffffffffffff16600073ffffffffffffffffffffffffffffffffffffffff168173ffffffffffffffffffffffffffffffffffffffff1614156109af576040517f08c379a00000000000000000000000000000000000000000000000000000000081526004016109a690611b9f565b60405180910390fd5b60036000600760098111156109ed577f4e487b7100000000000000000000000000000000000000000000000000000000600052602160045260246000fd5b6009811115610a25577f4e487b7100000000000000000000000000000000000000000000000000000000600052602160045260246000fd5b815260200190815260200160002060009054906101000a900473ffffffffffffffffffffffffffffffffffffffff16600073ffffffffffffffffffffffffffffffffffffffff168173ffffffffffffffffffffffffffffffffffffffff161415610ac4576040517f08c379a0000000000000000000000000000000000000000000000000000000008152600401610abb90611b9f565b60405180910390fd5b6003600060016009811115610b02577f4e487b7100000000000000000000000000000000000000000000000000000000600052602160045260246000fd5b6009811115610b3a577f4e487b7100000000000000000000000000000000000000000000000000000000600052602160045260246000fd5b815260200190815260200160002060009054906101000a900473ffffffffffffffffffffffffffffffffffffffff16600073ffffffffffffffffffffffffffffffffffffffff168173ffffffffffffffffffffffffffffffffffffffff161415610bd9576040517f08c379a0000000000000000000000000000000000000000000000000000000008152600401610bd090611b9f565b60405180910390fd5b600073ffffffffffffffffffffffffffffffffffffffff163373ffffffffffffffffffffffffffffffffffffffff161415610c49576040517f08c379a0000000000000000000000000000000000000000000000000000000008152600401610c4090611b7f565b60405180910390fd5b6000803373ffffffffffffffffffffffffffffffffffffffff1673ffffffffffffffffffffffffffffffffffffffff16815260200190815260200160002060009054906101000a900460ff16610cd4576040517f08c379a0000000000000000000000000000000000000000000000000000000008152600401610ccb90611bf2565b60405180910390fd5b60006003600060066009811115610d14577f4e487b7100000000000000000000000000000000000000000000000000000000600052602160045260246000fd5b6009811115610d4c577f4e487b7100000000000000000000000000000000000000000000000000000000600052602160045260246000fd5b815260200190815260200160002060009054906101000a900473ffffffffffffffffffffffffffffffffffffffff16905060006003600060076009811115610dbd577f4e487b7100000000000000000000000000000000000000000000000000000000600052602160045260246000fd5b6009811115610df5577f4e487b7100000000000000000000000000000000000000000000000000000000600052602160045260246000fd5b815260200190815260200160002060009054906101000a900473ffffffffffffffffffffffffffffffffffffffff16905060008273ffffffffffffffffffffffffffffffffffffffff1663045a2ab76040518163ffffffff1660e01b8152600401610e5f90611bbf565b604080518083038186803b158015610e7657600080fd5b505afa158015610e8a573d6000803e3d6000fd5b505050506040513d601f19601f82011682018060405250810190610eae919061188e565b905060006004600001541415610ef0578060046000820151816000015560208201518160010160006101000a81548160ff021916908360ff1602179055509050505b8060000151600460000154146112e657600060046000015460648360000151610f199190611e6f565b610f239190611ccd565b9050605a811080610f345750606e81115b156112b357606e8111156110fc57600060646003600060016009811115610f84577f4e487b7100000000000000000000000000000000000000000000000000000000600052602160045260246000fd5b6009811115610fbc577f4e487b7100000000000000000000000000000000000000000000000000000000600052602160045260246000fd5b815260200190815260200160002060009054906101000a900473ffffffffffffffffffffffffffffffffffffffff1673ffffffffffffffffffffffffffffffffffffffff166318160ddd6040518163ffffffff1660e01b815260040160206040518083038186803b15801561103057600080fd5b505afa158015611044573d6000803e3d6000fd5b505050506040513d601f19601f8201168201806040525081019061106891906118e0565b8360646110759190611ec9565b61107f9190611e6f565b6110899190611ccd565b90508373ffffffffffffffffffffffffffffffffffffffff1663480d5d3d826040518263ffffffff1660e01b81526004016110c49190611c45565b600060405180830381600087803b1580156110de57600080fd5b505af11580156110f2573d6000803e3d6000fd5b50505050506112b2565b60006064600360006001600981111561113e577f4e487b7100000000000000000000000000000000000000000000000000000000600052602160045260246000fd5b6009811115611176577f4e487b7100000000000000000000000000000000000000000000000000000000600052602160045260246000fd5b815260200190815260200160002060009054906101000a900473ffffffffffffffffffffffffffffffffffffffff1673ffffffffffffffffffffffffffffffffffffffff166318160ddd6040518163ffffffff1660e01b815260040160206040518083038186803b1580156111ea57600080fd5b505afa1580156111fe573d6000803e3d6000fd5b505050506040513d601f19601f8201168201806040525081019061122291906118e0565b60648461122f9190611ec9565b6112399190611e6f565b6112439190611ccd565b90508373ffffffffffffffffffffffffffffffffffffffff1663722b239e826040518263ffffffff1660e01b815260040161127e9190611c45565b600060405180830381600087803b15801561129857600080fd5b505af11580156112ac573d6000803e3d6000fd5b50505050505b5b8160046000820151816000015560208201518160010160006101000a81548160ff021916908360ff160217905550905050505b60008373ffffffffffffffffffffffffffffffffffffffff1663045a2ab76040518163ffffffff1660e01b815260040161131f90611c12565b604080518083038186803b15801561133657600080fd5b505afa15801561134a573d6000803e3d6000fd5b505050506040513d601f19601f8201168201806040525081019061136e919061188e565b905060008373ffffffffffffffffffffffffffffffffffffffff16632b712315600560046040518363ffffffff1660e01b81526004016113af929190611adf565b604080518083038186803b1580156113c657600080fd5b505afa1580156113da573d6000803e3d6000fd5b505050506040513d601f19601f820116820180604052508101906113fe919061188e565b9050600081600001511415611482578373ffffffffffffffffffffffffffffffffffffffff1663db08730860056004856040518463ffffffff1660e01b815260040161144c93929190611b08565b600060405180830381600087803b15801561146657600080fd5b505af115801561147a573d6000803e3d6000fd5b505050508190505b81600001518160000151146115ec5760008160000151606484600001516114a99190611e6f565b6114b39190611ccd565b905060008573ffffffffffffffffffffffffffffffffffffffff16632b712315600160026040518363ffffffff1660e01b81526004016114f4929190611adf565b604080518083038186803b15801561150b57600080fd5b505afa15801561151f573d6000803e3d6000fd5b505050506040513d601f19601f82011682018060405250810190611543919061188e565b90508573ffffffffffffffffffffffffffffffffffffffff1663db08730860016002604051806040016040528060648888600001516115829190611e6f565b61158c9190611ccd565b8152602001600660ff168152506040518463ffffffff1660e01b81526004016115b793929190611b08565b600060405180830381600087803b1580156115d157600080fd5b505af11580156115e5573d6000803e3d6000fd5b5050505050505b5050505050505050565b60006003600a6116069190611d51565b6002546003600060016009811115611647577f4e487b7100000000000000000000000000000000000000000000000000000000600052602160045260246000fd5b600981111561167f577f4e487b7100000000000000000000000000000000000000000000000000000000600052602160045260246000fd5b815260200190815260200160002060009054906101000a900473ffffffffffffffffffffffffffffffffffffffff1673ffffffffffffffffffffffffffffffffffffffff1663313ce5676040518163ffffffff1660e01b8152600401602060405180830381600087803b1580156116f557600080fd5b505af1158015611709573d6000803e3d6000fd5b505050506040513d601f19601f8201168201806040525081019061172d9190611909565b600a6117399190611d51565b846117449190611e6f565b61174e9190611e6f565b6117589190611ccd565b9050919050565b60008135905061176e816121f0565b92915050565b60008135905061178381612207565b92915050565b6000813590506117988161221e565b92915050565b6000604082840312156117b057600080fd5b6117ba6040611c60565b905060006117ca848285016117ff565b60008301525060206117de84828501611814565b60208301525092915050565b6000813590506117f98161222e565b92915050565b60008151905061180e8161222e565b92915050565b60008151905061182381612245565b92915050565b60006020828403121561183b57600080fd5b60006118498482850161175f565b91505092915050565b6000806040838503121561186557600080fd5b600061187385828601611789565b925050602061188485828601611774565b9150509250929050565b6000604082840312156118a057600080fd5b60006118ae8482850161179e565b91505092915050565b6000602082840312156118c957600080fd5b60006118d7848285016117ea565b91505092915050565b6000602082840312156118f257600080fd5b6000611900848285016117ff565b91505092915050565b60006020828403121561191b57600080fd5b600061192984828501611814565b91505092915050565b61193b81611f21565b82525050565b61194a81611f77565b82525050565b600061195d601683611c85565b915061196882612094565b602082019050919050565b6000611980601e83611c85565b915061198b826120bd565b602082019050919050565b60006119a3601783611c85565b91506119ae826120e6565b602082019050919050565b60006119c6601983611c85565b91506119d18261210f565b602082019050919050565b60006119e9600383611c85565b91506119f482612138565b602082019050919050565b6000611a0c600d83611c85565b9150611a1782612161565b602082019050919050565b6000611a2f600383611c85565b9150611a3a8261218a565b602082019050919050565b6000611a52600383611c85565b9150611a5d826121b3565b602082019050919050565b604082016000820151611a7e6000850182611a97565b506020820151611a916020850182611ab5565b50505050565b611aa081611f60565b82525050565b611aaf81611f60565b82525050565b611abe81611f6a565b82525050565b6000602082019050611ad96000830184611932565b92915050565b6000604082019050611af46000830185611941565b611b016020830184611941565b9392505050565b6000608082019050611b1d6000830186611941565b611b2a6020830185611941565b611b376040830184611a68565b949350505050565b60006020820190508181036000830152611b5881611950565b9050919050565b60006020820190508181036000830152611b7881611973565b9050919050565b60006020820190508181036000830152611b9881611996565b9050919050565b60006020820190508181036000830152611bb8816119b9565b9050919050565b60006040820190508181036000830152611bd8816119dc565b90508181036020830152611beb81611a22565b9050919050565b60006020820190508181036000830152611c0b816119ff565b9050919050565b60006040820190508181036000830152611c2b81611a45565b90508181036020830152611c3e81611a22565b9050919050565b6000602082019050611c5a6000830184611aa6565b92915050565b6000611c6a611c7b565b9050611c768282611f89565b919050565b6000604051905090565b600082825260208201905092915050565b6000611ca182611f6a565b9150611cac83611f6a565b92508260ff03821115611cc257611cc1611fba565b5b828201905092915050565b6000611cd882611f60565b9150611ce383611f60565b925082611cf357611cf2611fe9565b5b828204905092915050565b6000808291508390505b6001851115611d4857808604811115611d2457611d23611fba565b5b6001851615611d335780820291505b8081029050611d4185612087565b9450611d08565b94509492505050565b6000611d5c82611f60565b9150611d6783611f6a565b9250611d947fffffffffffffffffffffffffffffffffffffffffffffffffffffffffffffffff8484611d9c565b905092915050565b600082611dac5760019050611e68565b81611dba5760009050611e68565b8160018114611dd05760028114611dda57611e09565b6001915050611e68565b60ff841115611dec57611deb611fba565b5b8360020a915084821115611e0357611e02611fba565b5b50611e68565b5060208310610133831016604e8410600b8410161715611e3e5782820a905083811115611e3957611e38611fba565b5b611e68565b611e4b8484846001611cfe565b92509050818404811115611e6257611e61611fba565b5b81810290505b9392505050565b6000611e7a82611f60565b9150611e8583611f60565b9250817fffffffffffffffffffffffffffffffffffffffffffffffffffffffffffffffff0483118215151615611ebe57611ebd611fba565b5b828202905092915050565b6000611ed482611f60565b9150611edf83611f60565b925082821015611ef257611ef1611fba565b5b828203905092915050565b6000611f0882611f40565b9050919050565b6000611f1a82611f40565b9050919050565b60008115159050919050565b6000819050611f3b826121dc565b919050565b600073ffffffffffffffffffffffffffffffffffffffff82169050919050565b6000819050919050565b600060ff82169050919050565b6000611f8282611f2d565b9050919050565b611f9282612076565b810181811067ffffffffffffffff82111715611fb157611fb0612047565b5b80604052505050565b7f4e487b7100000000000000000000000000000000000000000000000000000000600052601160045260246000fd5b7f4e487b7100000000000000000000000000000000000000000000000000000000600052601260045260246000fd5b7f4e487b7100000000000000000000000000000000000000000000000000000000600052602160045260246000fd5b7f4e487b7100000000000000000000000000000000000000000000000000000000600052604160045260246000fd5b6000601f19601f8301169050919050565b60008160011c9050919050565b7f496e76616c696420636f6e747261637420696e64657800000000000000000000600082015250565b7f466f722063616c6c65722065787065637465642062652063726561746f720000600082015250565b7f496e76616c69642063726561746f722061646472657373000000000000000000600082015250565b7f4578706563746564206e6f6e2d7a65726f206164647265737300000000000000600082015250565b7f4554480000000000000000000000000000000000000000000000000000000000600082015250565b7f4d7573742062652061646d696e00000000000000000000000000000000000000600082015250565b7f4155440000000000000000000000000000000000000000000000000000000000600082015250565b7f554e490000000000000000000000000000000000000000000000000000000000600082015250565b600881106121ed576121ec612018565b5b50565b6121f981611efd565b811461220457600080fd5b50565b61221081611f0f565b811461221b57600080fd5b50565b600a811061222b57600080fd5b50565b61223781611f60565b811461224257600080fd5b50565b61224e81611f6a565b811461225957600080fd5b5056fea2646970667358221220c8956993a4c75f232da1463d11571c219b20f5bfb1f8cf0547d18d3867d488c164736f6c63430008040033",
  "immutableReferences": {},
  "source": "// SPDX-License-Identifier: MIT\npragma solidity ^0.8.0;\n\nimport \"@openzeppelin/contracts/token/ERC20/IERC20.sol\"; // openzeppelin 4.5 (for solidity 0.8.x)\n// import \"@openzeppelin/contracts/utils/math/SafeMath.sol\";\nimport '../OcxBase.sol';\nimport '../interface/IOcxBalancer.sol';\nimport '../interface/IOcxExchange.sol';\nimport '../interface/IOcxPriceOracle.sol';\nimport '../interface/IOcxERC20.sol';\nimport \"../common/OcxCommon.sol\";\n\ncontract OcxBalancer is OcxBase, IOcxBalancer {\n\n    uint256 private constant MAX_ALLOWED_OCAT_PRICE = 110;\n    uint256 private constant MIN_ALLOWED_OCAT_PRICE =  90;\n\n    OcxPrice ethAudQuote;\n\n    constructor(\n    ) {\n    }\n    /*\n     * A user try to swap OCAT to UNI in our site\n     * The system accept and swap OCAT into OCX/OCAT Uniswap pool and get OCX\n     * The system swap OCX into OCX/UNI Uniswap pool and get UNI\n     * The system return UNI for the user's OCAT\n     * As a result, OCAT price to UNI changes\n     * The stable algorithm fill back \n     */\n    function run() external\n    onlyValidAddress(contractAddress[CommonContracts.PRICE_ORACLE])\n    onlyValidAddress(contractAddress[CommonContracts.EXCHANGE]) \n    onlyValidAddress(contractAddress[CommonContracts.OCAT]) \n    onlyAdmin {\n        IOcxPriceOracle priceOracle = IOcxPriceOracle(contractAddress[CommonContracts.PRICE_ORACLE]);\n        IOcxExchange ocXchange = IOcxExchange(contractAddress[CommonContracts.EXCHANGE]);\n        // Check ETH:AUD quote\n        OcxPrice memory newEthAudQuote = priceOracle.getCurrencyRatio(\"ETH\", \"AUD\");\n        if (ethAudQuote.value == 0) {\n            ethAudQuote = newEthAudQuote;\n        }\n        if (ethAudQuote.value != newEthAudQuote.value) {\n            uint changePercentage = (newEthAudQuote.value * 100) / ethAudQuote.value;\n            if (changePercentage < MIN_ALLOWED_OCAT_PRICE || changePercentage > MAX_ALLOWED_OCAT_PRICE) {\n                if (changePercentage > MAX_ALLOWED_OCAT_PRICE) { // If ETH price drop than 10%\n                    // Force OcxExchange to burn OCAT *******\n                    uint256 decreaseAmount = \n                        (\n                            (100 - changePercentage) * \n                            IERC20(contractAddress[CommonContracts.OCAT]).totalSupply()\n                        ) / 100;\n                    // Burn bought OCAT\n                    ocXchange.burnOcat(decreaseAmount);\n                } else {\n                    // Force OcxExchange to mint OCAT\n                    uint256 increaseAmount = \n                        (\n                            (changePercentage - 100) * \n                            IERC20(contractAddress[CommonContracts.OCAT]).totalSupply()\n                        ) / 100;\n                    // Mint bought OCAT\n                    ocXchange.mintOcat(increaseAmount);\n                }\n            }            \n            ethAudQuote = newEthAudQuote;\n        }\n        // Check UNI:AUD quote\n        OcxPrice memory uniAudQuote = priceOracle.getCurrencyRatio(\"UNI\", \"AUD\");\n        OcxPrice memory oldUniAudQuote = ocXchange.getQuote(CurrencyIndex.UNI, CurrencyIndex.AUD);\n        if (oldUniAudQuote.value == 0) {\n            ocXchange.setQuote(CurrencyIndex.UNI, CurrencyIndex.AUD, uniAudQuote);\n            oldUniAudQuote = uniAudQuote;\n        }\n        if (oldUniAudQuote.value != uniAudQuote.value) {\n            // Update OCAT:OCX quote by change rate of OCAT:UNI\n            uint changePercentage = (uniAudQuote.value * 100) / oldUniAudQuote.value;\n            OcxPrice memory oldOcatOcxQuote = ocXchange.getQuote(CurrencyIndex.OCAT, CurrencyIndex.OCX);\n            ocXchange.setQuote(\n                CurrencyIndex.OCAT, \n                CurrencyIndex.OCX,\n                OcxPrice(oldOcatOcxQuote.value * changePercentage / 100, QUOTE_DECIMALS)\n            );\n        }\n    }\n}\n",
  "sourcePath": "/home/openchainx/OpenchainTestVersion/server/contracts/balancer/OcxBalancer.sol",
  "compiler": {
    "name": "solc",
    "version": "0.8.4+commit.c7e474f2.Emscripten.clang"
  },
  "schemaVersion": "3.4.7",
  "updatedAt": "2022-05-03T10:03:19.083Z",
  "networkType": "ethereum",
  "devdoc": {
    "kind": "dev",
    "methods": {},
    "version": 1
  },
  "userdoc": {
    "kind": "user",
    "methods": {},
    "version": 1
  }
}