{
  "contractName": "OcxBase",
  "abi": [
    {
      "inputs": [],
      "stateMutability": "nonpayable",
      "type": "constructor"
    },
    {
      "inputs": [
        {
          "internalType": "address",
          "name": "_admin",
          "type": "address"
        }
      ],
      "name": "addAdmin",
      "outputs": [],
      "stateMutability": "nonpayable",
      "type": "function"
    },
    {
      "inputs": [
        {
          "internalType": "address",
          "name": "_address",
          "type": "address"
        }
      ],
      "name": "isAdmin",
      "outputs": [
        {
          "internalType": "bool",
          "name": "yes",
          "type": "bool"
        }
      ],
      "stateMutability": "view",
      "type": "function"
    },
    {
      "inputs": [],
      "name": "ocatPrice",
      "outputs": [
        {
          "internalType": "uint256",
          "name": "",
          "type": "uint256"
        }
      ],
      "stateMutability": "view",
      "type": "function"
    },
    {
      "inputs": [
        {
          "internalType": "enum CommonContracts",
          "name": "contractIndex",
          "type": "uint8"
        },
        {
          "internalType": "address payable",
          "name": "_address",
          "type": "address"
        }
      ],
      "name": "setAddress",
      "outputs": [],
      "stateMutability": "nonpayable",
      "type": "function"
    },
    {
      "inputs": [
        {
          "internalType": "uint256",
          "name": "price",
          "type": "uint256"
        }
      ],
      "name": "setOcatPrice",
      "outputs": [],
      "stateMutability": "nonpayable",
      "type": "function"
    },
    {
      "inputs": [
        {
          "internalType": "uint256",
          "name": "price",
          "type": "uint256"
        }
      ],
      "name": "convertToOcat",
      "outputs": [
        {
          "internalType": "uint256",
          "name": "_ocatPrice",
          "type": "uint256"
        }
      ],
      "stateMutability": "nonpayable",
      "type": "function"
    }
  ],
  "bytecode": "0x60806040523480156200001157600080fd5b50336001806101000a81548173ffffffffffffffffffffffffffffffffffffffff021916908373ffffffffffffffffffffffffffffffffffffffff16021790555062000063336200007260201b60201c565b6103e86002819055506200047d565b600073ffffffffffffffffffffffffffffffffffffffff1660018054906101000a900473ffffffffffffffffffffffffffffffffffffffff1673ffffffffffffffffffffffffffffffffffffffff16141562000105576040517f08c379a0000000000000000000000000000000000000000000000000000000008152600401620000fc9062000333565b60405180910390fd5b60018054906101000a900473ffffffffffffffffffffffffffffffffffffffff1673ffffffffffffffffffffffffffffffffffffffff163373ffffffffffffffffffffffffffffffffffffffff161462000196576040517f08c379a00000000000000000000000000000000000000000000000000000000081526004016200018d9062000311565b60405180910390fd5b80600073ffffffffffffffffffffffffffffffffffffffff168173ffffffffffffffffffffffffffffffffffffffff1614156200020a576040517f08c379a0000000000000000000000000000000000000000000000000000000008152600401620002019062000355565b60405180910390fd5b60016000808473ffffffffffffffffffffffffffffffffffffffff1673ffffffffffffffffffffffffffffffffffffffff16815260200190815260200160002060006101000a81548160ff02191690831515021790555060018060009054906101000a900460ff166200027e919062000388565b600160006101000a81548160ff021916908360ff1602179055505050565b6000620002ab601e8362000377565b9150620002b88262000402565b602082019050919050565b6000620002d260178362000377565b9150620002df826200042b565b602082019050919050565b6000620002f960198362000377565b9150620003068262000454565b602082019050919050565b600060208201905081810360008301526200032c816200029c565b9050919050565b600060208201905081810360008301526200034e81620002c3565b9050919050565b600060208201905081810360008301526200037081620002ea565b9050919050565b600082825260208201905092915050565b60006200039582620003c6565b9150620003a283620003c6565b92508260ff03821115620003bb57620003ba620003d3565b5b828201905092915050565b600060ff82169050919050565b7f4e487b7100000000000000000000000000000000000000000000000000000000600052601160045260246000fd5b7f466f722063616c6c65722065787065637465642062652063726561746f720000600082015250565b7f496e76616c69642063726561746f722061646472657373000000000000000000600082015250565b7f4578706563746564206e6f6e2d7a65726f206164647265737300000000000000600082015250565b611126806200048d6000396000f3fe608060405234801561001057600080fd5b50600436106100625760003560e01c80630589c4e51461006757806324d7806c1461008357806370480275146100b3578063a7d9cfbc146100cf578063bb3f6c6a146100ed578063dbcd958014610109575b600080fd5b610081600480360381019061007c9190610a70565b610139565b005b61009d60048036038101906100989190610a47565b6105f1565b6040516100aa9190610bcb565b60405180910390f35b6100cd60048036038101906100c89190610a47565b610646565b005b6100d7610865565b6040516100e49190610c86565b60405180910390f35b61010760048036038101906101029190610aac565b61086b565b005b610123600480360381019061011e9190610aac565b610875565b6040516101309190610c86565b60405180910390f35b600073ffffffffffffffffffffffffffffffffffffffff1660018054906101000a900473ffffffffffffffffffffffffffffffffffffffff1673ffffffffffffffffffffffffffffffffffffffff1614156101c9576040517f08c379a00000000000000000000000000000000000000000000000000000000081526004016101c090610c26565b60405180910390fd5b60018054906101000a900473ffffffffffffffffffffffffffffffffffffffff1673ffffffffffffffffffffffffffffffffffffffff163373ffffffffffffffffffffffffffffffffffffffff1614610257576040517f08c379a000000000000000000000000000000000000000000000000000000000815260040161024e90610c06565b60405180910390fd5b80600073ffffffffffffffffffffffffffffffffffffffff168173ffffffffffffffffffffffffffffffffffffffff1614156102c8576040517f08c379a00000000000000000000000000000000000000000000000000000000081526004016102bf90610c46565b60405180910390fd5b600073ffffffffffffffffffffffffffffffffffffffff163373ffffffffffffffffffffffffffffffffffffffff161415610338576040517f08c379a000000000000000000000000000000000000000000000000000000000815260040161032f90610c26565b60405180910390fd5b6000803373ffffffffffffffffffffffffffffffffffffffff1673ffffffffffffffffffffffffffffffffffffffff16815260200190815260200160002060009054906101000a900460ff166103c3576040517f08c379a00000000000000000000000000000000000000000000000000000000081526004016103ba90610c66565b60405180910390fd5b600060098111156103fd577f4e487b7100000000000000000000000000000000000000000000000000000000600052602160045260246000fd5b6009811115610435577f4e487b7100000000000000000000000000000000000000000000000000000000600052602160045260246000fd5b83600981111561046e577f4e487b7100000000000000000000000000000000000000000000000000000000600052602160045260246000fd5b101580156104eb57506009808111156104b0577f4e487b7100000000000000000000000000000000000000000000000000000000600052602160045260246000fd5b8360098111156104e9577f4e487b7100000000000000000000000000000000000000000000000000000000600052602160045260246000fd5b105b61052a576040517f08c379a000000000000000000000000000000000000000000000000000000000815260040161052190610be6565b60405180910390fd5b8160036000856009811115610568577f4e487b7100000000000000000000000000000000000000000000000000000000600052602160045260246000fd5b60098111156105a0577f4e487b7100000000000000000000000000000000000000000000000000000000600052602160045260246000fd5b815260200190815260200160002060006101000a81548173ffffffffffffffffffffffffffffffffffffffff021916908373ffffffffffffffffffffffffffffffffffffffff160217905550505050565b60008060008373ffffffffffffffffffffffffffffffffffffffff1673ffffffffffffffffffffffffffffffffffffffff16815260200190815260200160002060009054906101000a900460ff169050919050565b600073ffffffffffffffffffffffffffffffffffffffff1660018054906101000a900473ffffffffffffffffffffffffffffffffffffffff1673ffffffffffffffffffffffffffffffffffffffff1614156106d6576040517f08c379a00000000000000000000000000000000000000000000000000000000081526004016106cd90610c26565b60405180910390fd5b60018054906101000a900473ffffffffffffffffffffffffffffffffffffffff1673ffffffffffffffffffffffffffffffffffffffff163373ffffffffffffffffffffffffffffffffffffffff1614610764576040517f08c379a000000000000000000000000000000000000000000000000000000000815260040161075b90610c06565b60405180910390fd5b80600073ffffffffffffffffffffffffffffffffffffffff168173ffffffffffffffffffffffffffffffffffffffff1614156107d5576040517f08c379a00000000000000000000000000000000000000000000000000000000081526004016107cc90610c46565b60405180910390fd5b60016000808473ffffffffffffffffffffffffffffffffffffffff1673ffffffffffffffffffffffffffffffffffffffff16815260200190815260200160002060006101000a81548160ff02191690831515021790555060018060009054906101000a900460ff166108479190610cb2565b600160006101000a81548160ff021916908360ff1602179055505050565b60025481565b8060028190555050565b60006003600a6108859190610d6d565b60025460036000600160098111156108c6577f4e487b7100000000000000000000000000000000000000000000000000000000600052602160045260246000fd5b60098111156108fe577f4e487b7100000000000000000000000000000000000000000000000000000000600052602160045260246000fd5b815260200190815260200160002060009054906101000a900473ffffffffffffffffffffffffffffffffffffffff1673ffffffffffffffffffffffffffffffffffffffff1663313ce5676040518163ffffffff1660e01b8152600401602060405180830381600087803b15801561097457600080fd5b505af1158015610988573d6000803e3d6000fd5b505050506040513d601f19601f820116820180604052508101906109ac9190610ad5565b600a6109b89190610d6d565b846109c39190610e8b565b6109cd9190610e8b565b6109d79190610ce9565b9050919050565b6000813590506109ed81611084565b92915050565b600081359050610a028161109b565b92915050565b600081359050610a17816110b2565b92915050565b600081359050610a2c816110c2565b92915050565b600081519050610a41816110d9565b92915050565b600060208284031215610a5957600080fd5b6000610a67848285016109de565b91505092915050565b60008060408385031215610a8357600080fd5b6000610a9185828601610a08565b9250506020610aa2858286016109f3565b9150509250929050565b600060208284031215610abe57600080fd5b6000610acc84828501610a1d565b91505092915050565b600060208284031215610ae757600080fd5b6000610af584828501610a32565b91505092915050565b610b0781610f09565b82525050565b6000610b1a601683610ca1565b9150610b2582610fb7565b602082019050919050565b6000610b3d601e83610ca1565b9150610b4882610fe0565b602082019050919050565b6000610b60601783610ca1565b9150610b6b82611009565b602082019050919050565b6000610b83601983610ca1565b9150610b8e82611032565b602082019050919050565b6000610ba6600d83610ca1565b9150610bb18261105b565b602082019050919050565b610bc581610f35565b82525050565b6000602082019050610be06000830184610afe565b92915050565b60006020820190508181036000830152610bff81610b0d565b9050919050565b60006020820190508181036000830152610c1f81610b30565b9050919050565b60006020820190508181036000830152610c3f81610b53565b9050919050565b60006020820190508181036000830152610c5f81610b76565b9050919050565b60006020820190508181036000830152610c7f81610b99565b9050919050565b6000602082019050610c9b6000830184610bbc565b92915050565b600082825260208201905092915050565b6000610cbd82610f3f565b9150610cc883610f3f565b92508260ff03821115610cde57610cdd610f4c565b5b828201905092915050565b6000610cf482610f35565b9150610cff83610f35565b925082610d0f57610d0e610f7b565b5b828204905092915050565b6000808291508390505b6001851115610d6457808604811115610d4057610d3f610f4c565b5b6001851615610d4f5780820291505b8081029050610d5d85610faa565b9450610d24565b94509492505050565b6000610d7882610f35565b9150610d8383610f3f565b9250610db07fffffffffffffffffffffffffffffffffffffffffffffffffffffffffffffffff8484610db8565b905092915050565b600082610dc85760019050610e84565b81610dd65760009050610e84565b8160018114610dec5760028114610df657610e25565b6001915050610e84565b60ff841115610e0857610e07610f4c565b5b8360020a915084821115610e1f57610e1e610f4c565b5b50610e84565b5060208310610133831016604e8410600b8410161715610e5a5782820a905083811115610e5557610e54610f4c565b5b610e84565b610e678484846001610d1a565b92509050818404811115610e7e57610e7d610f4c565b5b81810290505b9392505050565b6000610e9682610f35565b9150610ea183610f35565b9250817fffffffffffffffffffffffffffffffffffffffffffffffffffffffffffffffff0483118215151615610eda57610ed9610f4c565b5b828202905092915050565b6000610ef082610f15565b9050919050565b6000610f0282610f15565b9050919050565b60008115159050919050565b600073ffffffffffffffffffffffffffffffffffffffff82169050919050565b6000819050919050565b600060ff82169050919050565b7f4e487b7100000000000000000000000000000000000000000000000000000000600052601160045260246000fd5b7f4e487b7100000000000000000000000000000000000000000000000000000000600052601260045260246000fd5b60008160011c9050919050565b7f496e76616c696420636f6e747261637420696e64657800000000000000000000600082015250565b7f466f722063616c6c65722065787065637465642062652063726561746f720000600082015250565b7f496e76616c69642063726561746f722061646472657373000000000000000000600082015250565b7f4578706563746564206e6f6e2d7a65726f206164647265737300000000000000600082015250565b7f4d7573742062652061646d696e00000000000000000000000000000000000000600082015250565b61108d81610ee5565b811461109857600080fd5b50565b6110a481610ef7565b81146110af57600080fd5b50565b600a81106110bf57600080fd5b50565b6110cb81610f35565b81146110d657600080fd5b50565b6110e281610f3f565b81146110ed57600080fd5b5056fea2646970667358221220cbf32fb77045740f811b6cd2f625e58b8bc1d208848144fa9e260d43b6f6f13064736f6c63430008040033",
  "immutableReferences": {},
  "source": "// SPDX-License-Identifier: MIT\npragma solidity ^0.8.0;\n\nimport \"./OcxAdmin.sol\";\nimport \"./common/OcxCommon.sol\";\nimport './interface/IOcxBase.sol';\nimport './interface/IOcat.sol';\n\ncontract OcxBase is OcxAdmin, IOcxBase {\n\n    uint256                     public ocatPrice;\n    uint8                       constant OCAT_PRICE_DECIMALS = 3;\n    /**\n     * Available contract names: WETH, OCAT, OCX, PNFT, PRICE_ORACLE, BALANCER\n     */\n    mapping(CommonContracts => address) internal contractAddress;\n\n    constructor() {\n        ocatPrice = 1000;\n    }\n\n    modifier onlyValidCaller virtual {\n        require(msg.sender != address(0), \"Expected non-zero address of caller\");\n        _;\n    }\n    function _compareStrings(string memory a, string memory b) internal pure returns (bool) {\n        return (keccak256(abi.encodePacked((a))) == keccak256(abi.encodePacked((b))));\n    }\n    function setAddress(CommonContracts contractIndex, address payable _address) \n    public override\n    onlyCreator onlyValidAddress(_address) onlyAdmin {\n        require(contractIndex >= CommonContracts(0) && contractIndex < CommonContracts.CONRACT_COUNT, \n                \"Invalid contract index\");\n        contractAddress[contractIndex] = _address;\n    }\n    function setOcatPrice(uint256 price) public override {\n        ocatPrice = price;\n    }\n    function convertToOcat(uint256 price) public override returns(uint256 _ocatPrice) {\n        _ocatPrice = (price * (10 ** IOcat(contractAddress[CommonContracts.OCAT]).decimals()) * ocatPrice) / \n                    (10 ** OCAT_PRICE_DECIMALS);\n    }\n}\n",
  "sourcePath": "/home/openchainx/OpenchainTestVersion/server/contracts/OcxBase.sol",
  "compiler": {
    "name": "solc",
    "version": "0.8.4+commit.c7e474f2.Emscripten.clang"
  },
  "schemaVersion": "3.4.7",
  "updatedAt": "2022-05-04T23:49:09.425Z",
  "devdoc": {
    "kind": "dev",
    "methods": {},
    "version": 1
  },
  "userdoc": {
    "kind": "user",
    "methods": {},
    "version": 1
  }
}