{
  "contractName": "OcxBalancer",
  "abi": [
    {
      "inputs": [],
      "stateMutability": "nonpayable",
      "type": "constructor"
    },
    {
      "inputs": [
        {
          "internalType": "address",
          "name": "_admin",
          "type": "address"
        }
      ],
      "name": "addAdmin",
      "outputs": [],
      "stateMutability": "nonpayable",
      "type": "function"
    },
    {
      "inputs": [
        {
          "internalType": "uint256",
          "name": "price",
          "type": "uint256"
        }
      ],
      "name": "convertToOcat",
      "outputs": [
        {
          "internalType": "uint256",
          "name": "_ocatPrice",
          "type": "uint256"
        }
      ],
      "stateMutability": "nonpayable",
      "type": "function"
    },
    {
      "inputs": [
        {
          "internalType": "address",
          "name": "_address",
          "type": "address"
        }
      ],
      "name": "isAdmin",
      "outputs": [
        {
          "internalType": "bool",
          "name": "yes",
          "type": "bool"
        }
      ],
      "stateMutability": "view",
      "type": "function",
      "constant": true
    },
    {
      "inputs": [],
      "name": "ocatPrice",
      "outputs": [
        {
          "internalType": "uint256",
          "name": "",
          "type": "uint256"
        }
      ],
      "stateMutability": "view",
      "type": "function",
      "constant": true
    },
    {
      "inputs": [
        {
          "internalType": "enum CommonContracts",
          "name": "contractIndex",
          "type": "uint8"
        },
        {
          "internalType": "address payable",
          "name": "_address",
          "type": "address"
        }
      ],
      "name": "setAddress",
      "outputs": [],
      "stateMutability": "nonpayable",
      "type": "function"
    },
    {
      "inputs": [
        {
          "internalType": "uint256",
          "name": "price",
          "type": "uint256"
        }
      ],
      "name": "setOcatPrice",
      "outputs": [],
      "stateMutability": "nonpayable",
      "type": "function"
    },
    {
      "inputs": [],
      "name": "run",
      "outputs": [],
      "stateMutability": "nonpayable",
      "type": "function"
    }
  ],
  "bytecode": "0x60806040523480156200001157600080fd5b50336001806101000a81548173ffffffffffffffffffffffffffffffffffffffff021916908373ffffffffffffffffffffffffffffffffffffffff16021790555062000063336200007260201b60201c565b6103e86002819055506200047d565b600073ffffffffffffffffffffffffffffffffffffffff1660018054906101000a900473ffffffffffffffffffffffffffffffffffffffff1673ffffffffffffffffffffffffffffffffffffffff16141562000105576040517f08c379a0000000000000000000000000000000000000000000000000000000008152600401620000fc9062000333565b60405180910390fd5b60018054906101000a900473ffffffffffffffffffffffffffffffffffffffff1673ffffffffffffffffffffffffffffffffffffffff163373ffffffffffffffffffffffffffffffffffffffff161462000196576040517f08c379a00000000000000000000000000000000000000000000000000000000081526004016200018d9062000311565b60405180910390fd5b80600073ffffffffffffffffffffffffffffffffffffffff168173ffffffffffffffffffffffffffffffffffffffff1614156200020a576040517f08c379a0000000000000000000000000000000000000000000000000000000008152600401620002019062000355565b60405180910390fd5b60016000808473ffffffffffffffffffffffffffffffffffffffff1673ffffffffffffffffffffffffffffffffffffffff16815260200190815260200160002060006101000a81548160ff02191690831515021790555060018060009054906101000a900460ff166200027e919062000388565b600160006101000a81548160ff021916908360ff1602179055505050565b6000620002ab601e8362000377565b9150620002b88262000402565b602082019050919050565b6000620002d260178362000377565b9150620002df826200042b565b602082019050919050565b6000620002f960198362000377565b9150620003068262000454565b602082019050919050565b600060208201905081810360008301526200032c816200029c565b9050919050565b600060208201905081810360008301526200034e81620002c3565b9050919050565b600060208201905081810360008301526200037081620002ea565b9050919050565b600082825260208201905092915050565b60006200039582620003c6565b9150620003a283620003c6565b92508260ff03821115620003bb57620003ba620003d3565b5b828201905092915050565b600060ff82169050919050565b7f4e487b7100000000000000000000000000000000000000000000000000000000600052601160045260246000fd5b7f466f722063616c6c65722065787065637465642062652063726561746f720000600082015250565b7f496e76616c69642063726561746f722061646472657373000000000000000000600082015250565b7f4578706563746564206e6f6e2d7a65726f206164647265737300000000000000600082015250565b6122c7806200048d6000396000f3fe608060405234801561001057600080fd5b506004361061007d5760003560e01c8063a7d9cfbc1161005b578063a7d9cfbc146100ea578063bb3f6c6a14610108578063c040622614610124578063dbcd95801461012e5761007d565b80630589c4e51461008257806324d7806c1461009e57806370480275146100ce575b600080fd5b61009c60048036038101906100979190611833565b61015e565b005b6100b860048036038101906100b3919061180a565b610616565b6040516100c59190611a9e565b60405180910390f35b6100e860048036038101906100e3919061180a565b61066b565b005b6100f261088a565b6040516100ff9190611c90565b60405180910390f35b610122600480360381019061011d9190611898565b610890565b005b61012c61089a565b005b61014860048036038101906101439190611898565b6115d7565b6040516101559190611c90565b60405180910390f35b600073ffffffffffffffffffffffffffffffffffffffff1660018054906101000a900473ffffffffffffffffffffffffffffffffffffffff1673ffffffffffffffffffffffffffffffffffffffff1614156101ee576040517f08c379a00000000000000000000000000000000000000000000000000000000081526004016101e590611af9565b60405180910390fd5b60018054906101000a900473ffffffffffffffffffffffffffffffffffffffff1673ffffffffffffffffffffffffffffffffffffffff163373ffffffffffffffffffffffffffffffffffffffff161461027c576040517f08c379a000000000000000000000000000000000000000000000000000000000815260040161027390611ad9565b60405180910390fd5b80600073ffffffffffffffffffffffffffffffffffffffff168173ffffffffffffffffffffffffffffffffffffffff1614156102ed576040517f08c379a00000000000000000000000000000000000000000000000000000000081526004016102e490611b9b565b60405180910390fd5b600073ffffffffffffffffffffffffffffffffffffffff163373ffffffffffffffffffffffffffffffffffffffff16141561035d576040517f08c379a000000000000000000000000000000000000000000000000000000000815260040161035490611af9565b60405180910390fd5b6000803373ffffffffffffffffffffffffffffffffffffffff1673ffffffffffffffffffffffffffffffffffffffff16815260200190815260200160002060009054906101000a900460ff166103e8576040517f08c379a00000000000000000000000000000000000000000000000000000000081526004016103df90611bee565b60405180910390fd5b60006009811115610422577f4e487b7100000000000000000000000000000000000000000000000000000000600052602160045260246000fd5b600981111561045a577f4e487b7100000000000000000000000000000000000000000000000000000000600052602160045260246000fd5b836009811115610493577f4e487b7100000000000000000000000000000000000000000000000000000000600052602160045260246000fd5b1015801561051057506009808111156104d5577f4e487b7100000000000000000000000000000000000000000000000000000000600052602160045260246000fd5b83600981111561050e577f4e487b7100000000000000000000000000000000000000000000000000000000600052602160045260246000fd5b105b61054f576040517f08c379a000000000000000000000000000000000000000000000000000000000815260040161054690611ab9565b60405180910390fd5b816003600085600981111561058d577f4e487b7100000000000000000000000000000000000000000000000000000000600052602160045260246000fd5b60098111156105c5577f4e487b7100000000000000000000000000000000000000000000000000000000600052602160045260246000fd5b815260200190815260200160002060006101000a81548173ffffffffffffffffffffffffffffffffffffffff021916908373ffffffffffffffffffffffffffffffffffffffff160217905550505050565b60008060008373ffffffffffffffffffffffffffffffffffffffff1673ffffffffffffffffffffffffffffffffffffffff16815260200190815260200160002060009054906101000a900460ff169050919050565b600073ffffffffffffffffffffffffffffffffffffffff1660018054906101000a900473ffffffffffffffffffffffffffffffffffffffff1673ffffffffffffffffffffffffffffffffffffffff1614156106fb576040517f08c379a00000000000000000000000000000000000000000000000000000000081526004016106f290611af9565b60405180910390fd5b60018054906101000a900473ffffffffffffffffffffffffffffffffffffffff1673ffffffffffffffffffffffffffffffffffffffff163373ffffffffffffffffffffffffffffffffffffffff1614610789576040517f08c379a000000000000000000000000000000000000000000000000000000000815260040161078090611ad9565b60405180910390fd5b80600073ffffffffffffffffffffffffffffffffffffffff168173ffffffffffffffffffffffffffffffffffffffff1614156107fa576040517f08c379a00000000000000000000000000000000000000000000000000000000081526004016107f190611b9b565b60405180910390fd5b60016000808473ffffffffffffffffffffffffffffffffffffffff1673ffffffffffffffffffffffffffffffffffffffff16815260200190815260200160002060006101000a81548160ff02191690831515021790555060018060009054906101000a900460ff1661086c9190611ce1565b600160006101000a81548160ff021916908360ff1602179055505050565b60025481565b8060028190555050565b60036000600760098111156108d8577f4e487b7100000000000000000000000000000000000000000000000000000000600052602160045260246000fd5b6009811115610910577f4e487b7100000000000000000000000000000000000000000000000000000000600052602160045260246000fd5b815260200190815260200160002060009054906101000a900473ffffffffffffffffffffffffffffffffffffffff16600073ffffffffffffffffffffffffffffffffffffffff168173ffffffffffffffffffffffffffffffffffffffff1614156109af576040517f08c379a00000000000000000000000000000000000000000000000000000000081526004016109a690611b9b565b60405180910390fd5b60036000600660098111156109ed577f4e487b7100000000000000000000000000000000000000000000000000000000600052602160045260246000fd5b6009811115610a25577f4e487b7100000000000000000000000000000000000000000000000000000000600052602160045260246000fd5b815260200190815260200160002060009054906101000a900473ffffffffffffffffffffffffffffffffffffffff16600073ffffffffffffffffffffffffffffffffffffffff168173ffffffffffffffffffffffffffffffffffffffff161415610ac4576040517f08c379a0000000000000000000000000000000000000000000000000000000008152600401610abb90611b9b565b60405180910390fd5b6003600060016009811115610b02577f4e487b7100000000000000000000000000000000000000000000000000000000600052602160045260246000fd5b6009811115610b3a577f4e487b7100000000000000000000000000000000000000000000000000000000600052602160045260246000fd5b815260200190815260200160002060009054906101000a900473ffffffffffffffffffffffffffffffffffffffff16600073ffffffffffffffffffffffffffffffffffffffff168173ffffffffffffffffffffffffffffffffffffffff161415610bd9576040517f08c379a0000000000000000000000000000000000000000000000000000000008152600401610bd090611b9b565b60405180910390fd5b600073ffffffffffffffffffffffffffffffffffffffff163373ffffffffffffffffffffffffffffffffffffffff161415610c49576040517f08c379a0000000000000000000000000000000000000000000000000000000008152600401610c4090611af9565b60405180910390fd5b6000803373ffffffffffffffffffffffffffffffffffffffff1673ffffffffffffffffffffffffffffffffffffffff16815260200190815260200160002060009054906101000a900460ff16610cd4576040517f08c379a0000000000000000000000000000000000000000000000000000000008152600401610ccb90611bee565b60405180910390fd5b60006003600060066009811115610d14577f4e487b7100000000000000000000000000000000000000000000000000000000600052602160045260246000fd5b6009811115610d4c577f4e487b7100000000000000000000000000000000000000000000000000000000600052602160045260246000fd5b815260200190815260200160002060009054906101000a900473ffffffffffffffffffffffffffffffffffffffff16905060006003600060076009811115610dbd577f4e487b7100000000000000000000000000000000000000000000000000000000600052602160045260246000fd5b6009811115610df5577f4e487b7100000000000000000000000000000000000000000000000000000000600052602160045260246000fd5b815260200190815260200160002060009054906101000a900473ffffffffffffffffffffffffffffffffffffffff16905060008273ffffffffffffffffffffffffffffffffffffffff166381af6cd16040518163ffffffff1660e01b8152600401610e5f90611bbb565b6040805180830381600087803b158015610e7857600080fd5b505af1158015610e8c573d6000803e3d6000fd5b505050506040513d601f19601f82011682018060405250810190610eb0919061186f565b905060006004600001541415610ef2578060046000820151816000015560208201518160010160006101000a81548160ff021916908360ff1602179055509050505b8060000151600460000154146112e857600060046000015460648360000151610f1b9190611eba565b610f259190611d18565b9050605a811080610f365750606e81115b156112b557606e8111156110fe57600060646003600060016009811115610f86577f4e487b7100000000000000000000000000000000000000000000000000000000600052602160045260246000fd5b6009811115610fbe577f4e487b7100000000000000000000000000000000000000000000000000000000600052602160045260246000fd5b815260200190815260200160002060009054906101000a900473ffffffffffffffffffffffffffffffffffffffff1673ffffffffffffffffffffffffffffffffffffffff166318160ddd6040518163ffffffff1660e01b815260040160206040518083038186803b15801561103257600080fd5b505afa158015611046573d6000803e3d6000fd5b505050506040513d601f19601f8201168201806040525081019061106a91906118c1565b8360646110779190611f14565b6110819190611eba565b61108b9190611d18565b90508373ffffffffffffffffffffffffffffffffffffffff1663480d5d3d826040518263ffffffff1660e01b81526004016110c69190611c90565b600060405180830381600087803b1580156110e057600080fd5b505af11580156110f4573d6000803e3d6000fd5b50505050506112b4565b600060646003600060016009811115611140577f4e487b7100000000000000000000000000000000000000000000000000000000600052602160045260246000fd5b6009811115611178577f4e487b7100000000000000000000000000000000000000000000000000000000600052602160045260246000fd5b815260200190815260200160002060009054906101000a900473ffffffffffffffffffffffffffffffffffffffff1673ffffffffffffffffffffffffffffffffffffffff166318160ddd6040518163ffffffff1660e01b815260040160206040518083038186803b1580156111ec57600080fd5b505afa158015611200573d6000803e3d6000fd5b505050506040513d601f19601f8201168201806040525081019061122491906118c1565b6064846112319190611f14565b61123b9190611eba565b6112459190611d18565b90508373ffffffffffffffffffffffffffffffffffffffff1663722b239e826040518263ffffffff1660e01b81526004016112809190611c90565b600060405180830381600087803b15801561129a57600080fd5b505af11580156112ae573d6000803e3d6000fd5b50505050505b5b8160046000820151816000015560208201518160010160006101000a81548160ff021916908360ff160217905550905050505b60008373ffffffffffffffffffffffffffffffffffffffff166381af6cd16040518163ffffffff1660e01b815260040161132190611c0e565b6040805180830381600087803b15801561133a57600080fd5b505af115801561134e573d6000803e3d6000fd5b505050506040513d601f19601f82011682018060405250810190611372919061186f565b905060008373ffffffffffffffffffffffffffffffffffffffff1663ed66a3806040518163ffffffff1660e01b81526004016113ad90611c0e565b604080518083038186803b1580156113c457600080fd5b505afa1580156113d8573d6000803e3d6000fd5b505050506040513d601f19601f820116820180604052508101906113fc919061186f565b9050600081600001511415611484578373ffffffffffffffffffffffffffffffffffffffff1663f4c74c51836000015184602001516040518363ffffffff1660e01b815260040161144e929190611c41565b600060405180830381600087803b15801561146857600080fd5b505af115801561147c573d6000803e3d6000fd5b505050508190505b81600001518160000151146115cd5760008160000151606484600001516114ab9190611eba565b6114b59190611d18565b905060008573ffffffffffffffffffffffffffffffffffffffff1663ed66a3806040518163ffffffff1660e01b81526004016114f090611b19565b604080518083038186803b15801561150757600080fd5b505afa15801561151b573d6000803e3d6000fd5b505050506040513d601f19601f8201168201806040525081019061153f919061186f565b90508573ffffffffffffffffffffffffffffffffffffffff1663f4c74c51606484846000015161156f9190611eba565b6115799190611d18565b60066040518363ffffffff1660e01b8152600401611598929190611b4c565b600060405180830381600087803b1580156115b257600080fd5b505af11580156115c6573d6000803e3d6000fd5b5050505050505b5050505050505050565b60006003600a6115e79190611d9c565b6002546003600060016009811115611628577f4e487b7100000000000000000000000000000000000000000000000000000000600052602160045260246000fd5b6009811115611660577f4e487b7100000000000000000000000000000000000000000000000000000000600052602160045260246000fd5b815260200190815260200160002060009054906101000a900473ffffffffffffffffffffffffffffffffffffffff1673ffffffffffffffffffffffffffffffffffffffff1663313ce5676040518163ffffffff1660e01b8152600401602060405180830381600087803b1580156116d657600080fd5b505af11580156116ea573d6000803e3d6000fd5b505050506040513d601f19601f8201168201806040525081019061170e91906118ea565b600a61171a9190611d9c565b846117259190611eba565b61172f9190611eba565b6117399190611d18565b9050919050565b60008135905061174f81612225565b92915050565b6000813590506117648161223c565b92915050565b60008135905061177981612253565b92915050565b60006040828403121561179157600080fd5b61179b6040611cab565b905060006117ab848285016117e0565b60008301525060206117bf848285016117f5565b60208301525092915050565b6000813590506117da81612263565b92915050565b6000815190506117ef81612263565b92915050565b6000815190506118048161227a565b92915050565b60006020828403121561181c57600080fd5b600061182a84828501611740565b91505092915050565b6000806040838503121561184657600080fd5b60006118548582860161176a565b925050602061186585828601611755565b9150509250929050565b60006040828403121561188157600080fd5b600061188f8482850161177f565b91505092915050565b6000602082840312156118aa57600080fd5b60006118b8848285016117cb565b91505092915050565b6000602082840312156118d357600080fd5b60006118e1848285016117e0565b91505092915050565b6000602082840312156118fc57600080fd5b600061190a848285016117f5565b91505092915050565b61191c81611f6c565b82525050565b600061192f600383611cd0565b915061193a8261208b565b602082019050919050565b6000611952601683611cd0565b915061195d826120b4565b602082019050919050565b6000611975601e83611cd0565b9150611980826120dd565b602082019050919050565b6000611998601783611cd0565b91506119a382612106565b602082019050919050565b60006119bb600483611cd0565b91506119c68261212f565b602082019050919050565b60006119de601983611cd0565b91506119e982612158565b602082019050919050565b6000611a01600383611cd0565b9150611a0c82612181565b602082019050919050565b6000611a24600d83611cd0565b9150611a2f826121aa565b602082019050919050565b6000611a47600383611cd0565b9150611a52826121d3565b602082019050919050565b6000611a6a600383611cd0565b9150611a75826121fc565b602082019050919050565b611a8981611f98565b82525050565b611a9881611fa2565b82525050565b6000602082019050611ab36000830184611913565b92915050565b60006020820190508181036000830152611ad281611945565b9050919050565b60006020820190508181036000830152611af281611968565b9050919050565b60006020820190508181036000830152611b128161198b565b9050919050565b60006040820190508181036000830152611b32816119ae565b90508181036020830152611b4581611922565b9050919050565b60006080820190508181036000830152611b65816119ae565b90508181036020830152611b7881611922565b9050611b876040830185611a80565b611b946060830184611a8f565b9392505050565b60006020820190508181036000830152611bb4816119d1565b9050919050565b60006040820190508181036000830152611bd4816119f4565b90508181036020830152611be781611a3a565b9050919050565b60006020820190508181036000830152611c0781611a17565b9050919050565b60006040820190508181036000830152611c2781611a5d565b90508181036020830152611c3a81611a3a565b9050919050565b60006080820190508181036000830152611c5a81611a5d565b90508181036020830152611c6d81611a3a565b9050611c7c6040830185611a80565b611c896060830184611a8f565b9392505050565b6000602082019050611ca56000830184611a80565b92915050565b6000611cb5611cc6565b9050611cc18282611faf565b919050565b6000604051905090565b600082825260208201905092915050565b6000611cec82611fa2565b9150611cf783611fa2565b92508260ff03821115611d0d57611d0c611fe0565b5b828201905092915050565b6000611d2382611f98565b9150611d2e83611f98565b925082611d3e57611d3d61200f565b5b828204905092915050565b6000808291508390505b6001851115611d9357808604811115611d6f57611d6e611fe0565b5b6001851615611d7e5780820291505b8081029050611d8c8561207e565b9450611d53565b94509492505050565b6000611da782611f98565b9150611db283611fa2565b9250611ddf7fffffffffffffffffffffffffffffffffffffffffffffffffffffffffffffffff8484611de7565b905092915050565b600082611df75760019050611eb3565b81611e055760009050611eb3565b8160018114611e1b5760028114611e2557611e54565b6001915050611eb3565b60ff841115611e3757611e36611fe0565b5b8360020a915084821115611e4e57611e4d611fe0565b5b50611eb3565b5060208310610133831016604e8410600b8410161715611e895782820a905083811115611e8457611e83611fe0565b5b611eb3565b611e968484846001611d49565b92509050818404811115611ead57611eac611fe0565b5b81810290505b9392505050565b6000611ec582611f98565b9150611ed083611f98565b9250817fffffffffffffffffffffffffffffffffffffffffffffffffffffffffffffffff0483118215151615611f0957611f08611fe0565b5b828202905092915050565b6000611f1f82611f98565b9150611f2a83611f98565b925082821015611f3d57611f3c611fe0565b5b828203905092915050565b6000611f5382611f78565b9050919050565b6000611f6582611f78565b9050919050565b60008115159050919050565b600073ffffffffffffffffffffffffffffffffffffffff82169050919050565b6000819050919050565b600060ff82169050919050565b611fb88261206d565b810181811067ffffffffffffffff82111715611fd757611fd661203e565b5b80604052505050565b7f4e487b7100000000000000000000000000000000000000000000000000000000600052601160045260246000fd5b7f4e487b7100000000000000000000000000000000000000000000000000000000600052601260045260246000fd5b7f4e487b7100000000000000000000000000000000000000000000000000000000600052604160045260246000fd5b6000601f19601f8301169050919050565b60008160011c9050919050565b7f4f43580000000000000000000000000000000000000000000000000000000000600082015250565b7f496e76616c696420636f6e747261637420696e64657800000000000000000000600082015250565b7f466f722063616c6c65722065787065637465642062652063726561746f720000600082015250565b7f496e76616c69642063726561746f722061646472657373000000000000000000600082015250565b7f4f43415400000000000000000000000000000000000000000000000000000000600082015250565b7f4578706563746564206e6f6e2d7a65726f206164647265737300000000000000600082015250565b7f4554480000000000000000000000000000000000000000000000000000000000600082015250565b7f4d7573742062652061646d696e00000000000000000000000000000000000000600082015250565b7f4155440000000000000000000000000000000000000000000000000000000000600082015250565b7f554e490000000000000000000000000000000000000000000000000000000000600082015250565b61222e81611f48565b811461223957600080fd5b50565b61224581611f5a565b811461225057600080fd5b50565b600a811061226057600080fd5b50565b61226c81611f98565b811461227757600080fd5b50565b61228381611fa2565b811461228e57600080fd5b5056fea264697066735822122044a1e590e11cd788f2440c0a9add4f4db6ccf04db4ed1eb8fa3f31b38d0dce8b64736f6c63430008040033",
  "immutableReferences": {},
  "source": "// SPDX-License-Identifier: MIT\npragma solidity ^0.8.0;\n\nimport \"@openzeppelin/contracts/token/ERC20/IERC20.sol\"; // openzeppelin 4.5 (for solidity 0.8.x)\n// import \"@openzeppelin/contracts/utils/math/SafeMath.sol\";\nimport '../OcxBase.sol';\nimport '../interface/IOcxBalancer.sol';\nimport '../interface/IOcxPriceOracle.sol';\nimport '../interface/IOcxExchange.sol';\nimport '../interface/IOcxERC20.sol';\nimport \"../common/OcxCommon.sol\";\n\ncontract OcxBalancer is OcxBase, IOcxBalancer {\n\n    uint256 private constant MAX_ALLOWED_OCAT_PRICE = 110;\n    uint256 private constant MIN_ALLOWED_OCAT_PRICE =  90;\n\n    OcxPrice ethAudQuote;\n\n    constructor(\n    ) {\n    }\n    /*\n     * A user try to swap OCAT to UNI in our site\n     * The system accept and swap OCAT into OCX/OCAT Uniswap pool and get OCX\n     * The system swap OCX into OCX/UNI Uniswap pool and get UNI\n     * The system return UNI for the user's OCAT\n     * As a result, OCAT price to UNI changes\n     * The stable algorithm fill back \n     */\n    function run() external\n    onlyValidAddress(contractAddress[CommonContracts.EXCHANGE]) \n    onlyValidAddress(contractAddress[CommonContracts.PRICE_ORACLE]) \n    onlyValidAddress(contractAddress[CommonContracts.OCAT]) \n    onlyAdmin {\n        IOcxPriceOracle ocxPriceOracle = IOcxPriceOracle(contractAddress[CommonContracts.PRICE_ORACLE]);\n        IOcxExchange ocXchange = IOcxExchange(contractAddress[CommonContracts.EXCHANGE]);\n        // Check ETH:AUD quote\n        OcxPrice memory newEthAudQuote = ocxPriceOracle.getCryptoPrice(\"ETH\", \"AUD\");\n        if (ethAudQuote.value == 0) {\n            ethAudQuote = newEthAudQuote;\n        }\n        if (ethAudQuote.value != newEthAudQuote.value) {\n            uint changePercentage = (newEthAudQuote.value * 100) / ethAudQuote.value;\n            if (changePercentage < MIN_ALLOWED_OCAT_PRICE || changePercentage > MAX_ALLOWED_OCAT_PRICE) {\n                if (changePercentage > MAX_ALLOWED_OCAT_PRICE) { // If ETH price drop than 10%\n                    // Force OcxExchange to burn OCAT *******\n                    uint256 decreaseAmount = \n                        (\n                            (100 - changePercentage) * \n                            IERC20(contractAddress[CommonContracts.OCAT]).totalSupply()\n                        ) / 100;\n                    // Burn bought OCAT\n                    ocXchange.burnOcat(decreaseAmount);\n                } else {\n                    // Force OcxExchange to mint OCAT\n                    uint256 increaseAmount = \n                        (\n                            (changePercentage - 100) * \n                            IERC20(contractAddress[CommonContracts.OCAT]).totalSupply()\n                        ) / 100;\n                    // Mint bought OCAT\n                    ocXchange.mintOcat(increaseAmount);\n                }\n            }            \n            ethAudQuote = newEthAudQuote;\n        }\n        // Check UNI:AUD quote\n        OcxPrice memory uniAudQuote = ocxPriceOracle.getCryptoPrice(\"UNI\", \"AUD\");\n        OcxPrice memory oldUniAudQuote = ocXchange.getQuote(\"UNI\", \"AUD\");\n        if (oldUniAudQuote.value == 0) {\n            ocXchange.setQuote(\"UNI\", \"AUD\", uniAudQuote.value, uniAudQuote.decimals);\n            oldUniAudQuote = uniAudQuote;\n        }\n        if (oldUniAudQuote.value != uniAudQuote.value) {\n            // Update OCAT:OCX quote by change rate of UNI:AUD\n            uint changePercentage = (uniAudQuote.value * 100) / oldUniAudQuote.value;\n            OcxPrice memory oldOcatOcxQuote = ocXchange.getQuote(\"OCAT\", \"OCX\");\n            ocXchange.setQuote(\n                \"OCAT\", \n                \"OCX\", \n                oldOcatOcxQuote.value * changePercentage / 100, \n                QUOTE_DECIMALS\n            );\n        }\n    }\n}\n",
  "sourcePath": "/home/openchainx/OpenchainTestVersion/server/contracts/balancer/OcxBalancer.sol",
  "compiler": {
    "name": "solc",
    "version": "0.8.4+commit.c7e474f2.Emscripten.clang"
  },
  "schemaVersion": "3.4.7",
  "updatedAt": "2022-05-04T20:46:48.556Z",
  "networkType": "ethereum",
  "devdoc": {
    "kind": "dev",
    "methods": {},
    "version": 1
  },
  "userdoc": {
    "kind": "user",
    "methods": {},
    "version": 1
  }
}