{
  "contractName": "OcxExchange",
  "abi": [
    {
      "inputs": [],
      "stateMutability": "nonpayable",
      "type": "constructor"
    },
    {
      "anonymous": false,
      "inputs": [
        {
          "indexed": false,
          "internalType": "uint256",
          "name": "",
          "type": "uint256"
        }
      ],
      "name": "estimatedOcxAmountForBurningOcat",
      "type": "event"
    },
    {
      "inputs": [
        {
          "internalType": "address",
          "name": "_admin",
          "type": "address"
        }
      ],
      "name": "addAdmin",
      "outputs": [],
      "stateMutability": "nonpayable",
      "type": "function"
    },
    {
      "inputs": [
        {
          "internalType": "uint256",
          "name": "price",
          "type": "uint256"
        }
      ],
      "name": "convertToOcat",
      "outputs": [
        {
          "internalType": "uint256",
          "name": "_ocatPrice",
          "type": "uint256"
        }
      ],
      "stateMutability": "nonpayable",
      "type": "function"
    },
    {
      "inputs": [
        {
          "internalType": "address",
          "name": "_address",
          "type": "address"
        }
      ],
      "name": "isAdmin",
      "outputs": [
        {
          "internalType": "bool",
          "name": "yes",
          "type": "bool"
        }
      ],
      "stateMutability": "view",
      "type": "function",
      "constant": true
    },
    {
      "inputs": [],
      "name": "ocatPrice",
      "outputs": [
        {
          "internalType": "uint256",
          "name": "",
          "type": "uint256"
        }
      ],
      "stateMutability": "view",
      "type": "function",
      "constant": true
    },
    {
      "inputs": [],
      "name": "quoter",
      "outputs": [
        {
          "internalType": "contract IQuoter",
          "name": "",
          "type": "address"
        }
      ],
      "stateMutability": "view",
      "type": "function",
      "constant": true
    },
    {
      "inputs": [
        {
          "internalType": "enum CommonContracts",
          "name": "contractIndex",
          "type": "uint8"
        },
        {
          "internalType": "address payable",
          "name": "_address",
          "type": "address"
        }
      ],
      "name": "setCommonContractAddress",
      "outputs": [],
      "stateMutability": "nonpayable",
      "type": "function"
    },
    {
      "inputs": [
        {
          "internalType": "uint256",
          "name": "price",
          "type": "uint256"
        }
      ],
      "name": "setOcatPrice",
      "outputs": [],
      "stateMutability": "nonpayable",
      "type": "function"
    },
    {
      "inputs": [],
      "name": "uniswapRouter",
      "outputs": [
        {
          "internalType": "contract ISwapRouter",
          "name": "",
          "type": "address"
        }
      ],
      "stateMutability": "view",
      "type": "function",
      "constant": true
    },
    {
      "stateMutability": "payable",
      "type": "receive",
      "payable": true
    },
    {
      "inputs": [
        {
          "internalType": "address",
          "name": "_tokenIn",
          "type": "address"
        },
        {
          "internalType": "uint256",
          "name": "_amountIn",
          "type": "uint256"
        },
        {
          "internalType": "address",
          "name": "_tokenOut",
          "type": "address"
        },
        {
          "internalType": "uint256",
          "name": "_amountOutMin",
          "type": "uint256"
        },
        {
          "internalType": "uint256",
          "name": "_deadline",
          "type": "uint256"
        }
      ],
      "name": "swap",
      "outputs": [
        {
          "internalType": "uint256",
          "name": "amountOut",
          "type": "uint256"
        }
      ],
      "stateMutability": "nonpayable",
      "type": "function"
    },
    {
      "inputs": [],
      "name": "mintOcat",
      "outputs": [],
      "stateMutability": "payable",
      "type": "function",
      "payable": true
    },
    {
      "inputs": [
        {
          "internalType": "uint256",
          "name": "amount",
          "type": "uint256"
        }
      ],
      "name": "mintOcx",
      "outputs": [],
      "stateMutability": "payable",
      "type": "function",
      "payable": true
    },
    {
      "inputs": [
        {
          "internalType": "enum CurrencyIndex",
          "name": "left",
          "type": "uint8"
        },
        {
          "internalType": "enum CurrencyIndex",
          "name": "right",
          "type": "uint8"
        },
        {
          "components": [
            {
              "internalType": "uint256",
              "name": "value",
              "type": "uint256"
            },
            {
              "internalType": "uint8",
              "name": "decimals",
              "type": "uint8"
            }
          ],
          "internalType": "struct OcxPrice",
          "name": "newQuote",
          "type": "tuple"
        }
      ],
      "name": "setQuote",
      "outputs": [],
      "stateMutability": "nonpayable",
      "type": "function"
    },
    {
      "inputs": [
        {
          "internalType": "enum CurrencyIndex",
          "name": "left",
          "type": "uint8"
        },
        {
          "internalType": "enum CurrencyIndex",
          "name": "right",
          "type": "uint8"
        }
      ],
      "name": "getQuote",
      "outputs": [
        {
          "components": [
            {
              "internalType": "uint256",
              "name": "value",
              "type": "uint256"
            },
            {
              "internalType": "uint8",
              "name": "decimals",
              "type": "uint8"
            }
          ],
          "internalType": "struct OcxPrice",
          "name": "",
          "type": "tuple"
        }
      ],
      "stateMutability": "view",
      "type": "function",
      "constant": true
    }
  ],
  "bytecode": "0x60806040523480156200001157600080fd5b50336001806101000a81548173ffffffffffffffffffffffffffffffffffffffff021916908373ffffffffffffffffffffffffffffffffffffffff16021790555062000063336200007260201b60201c565b6103e86002819055506200047d565b600073ffffffffffffffffffffffffffffffffffffffff1660018054906101000a900473ffffffffffffffffffffffffffffffffffffffff1673ffffffffffffffffffffffffffffffffffffffff16141562000105576040517f08c379a0000000000000000000000000000000000000000000000000000000008152600401620000fc9062000333565b60405180910390fd5b60018054906101000a900473ffffffffffffffffffffffffffffffffffffffff1673ffffffffffffffffffffffffffffffffffffffff163373ffffffffffffffffffffffffffffffffffffffff161462000196576040517f08c379a00000000000000000000000000000000000000000000000000000000081526004016200018d9062000311565b60405180910390fd5b80600073ffffffffffffffffffffffffffffffffffffffff168173ffffffffffffffffffffffffffffffffffffffff1614156200020a576040517f08c379a0000000000000000000000000000000000000000000000000000000008152600401620002019062000355565b60405180910390fd5b60016000808473ffffffffffffffffffffffffffffffffffffffff1673ffffffffffffffffffffffffffffffffffffffff16815260200190815260200160002060006101000a81548160ff02191690831515021790555060018060009054906101000a900460ff166200027e919062000388565b600160006101000a81548160ff021916908360ff1602179055505050565b6000620002ab601e8362000377565b9150620002b88262000402565b602082019050919050565b6000620002d260178362000377565b9150620002df826200042b565b602082019050919050565b6000620002f960198362000377565b9150620003068262000454565b602082019050919050565b600060208201905081810360008301526200032c816200029c565b9050919050565b600060208201905081810360008301526200034e81620002c3565b9050919050565b600060208201905081810360008301526200037081620002ea565b9050919050565b600082825260208201905092915050565b60006200039582620003c6565b9150620003a283620003c6565b92508260ff03821115620003bb57620003ba620003d3565b5b828201905092915050565b600060ff82169050919050565b7f4e487b7100000000000000000000000000000000000000000000000000000000600052601160045260246000fd5b7f466f722063616c6c65722065787065637465642062652063726561746f720000600082015250565b7f496e76616c69642063726561746f722061646472657373000000000000000000600082015250565b7f4578706563746564206e6f6e2d7a65726f206164647265737300000000000000600082015250565b613ac0806200048d6000396000f3fe6080604052600436106100c65760003560e01c8063704802751161007f578063bb3f6c6a11610059578063bb3f6c6a14610257578063c6bbd5a714610280578063db087308146102ab578063dbcd9580146102d4576100cd565b806370480275146101d8578063735de9f714610201578063a7d9cfbc1461022c576100cd565b80631b73cae1146100d257806324d7806c146100ee5780632b7123151461012b5780632b7387a41461016857806359de0961146101725780635e75228f1461019b576100cd565b366100cd57005b600080fd5b6100ec60048036038101906100e79190612d58565b610311565b005b3480156100fa57600080fd5b5061011560048036038101906101109190612b9f565b61051e565b6040516101229190613169565b60405180910390f35b34801561013757600080fd5b50610152600480360381019061014d9190612ca4565b610573565b60405161015f9190613309565b60405180910390f35b6101706106bc565b005b34801561017e57600080fd5b5061019960048036038101906101949190612c68565b610c9b565b005b3480156101a757600080fd5b506101c260048036038101906101bd9190612bc8565b611153565b6040516101cf9190613324565b60405180910390f35b3480156101e457600080fd5b506101ff60048036038101906101fa9190612b9f565b61206e565b005b34801561020d57600080fd5b5061021661228d565b604051610223919061319f565b60405180910390f35b34801561023857600080fd5b506102416122a5565b60405161024e9190613324565b60405180910390f35b34801561026357600080fd5b5061027e60048036038101906102799190612d58565b6122ab565b005b34801561028c57600080fd5b506102956122b5565b6040516102a29190613184565b60405180910390f35b3480156102b757600080fd5b506102d260048036038101906102cd9190612ce0565b6122cd565b005b3480156102e057600080fd5b506102fb60048036038101906102f69190612d58565b612408565b6040516103089190613324565b60405180910390f35b600073ffffffffffffffffffffffffffffffffffffffff163373ffffffffffffffffffffffffffffffffffffffff161415610381576040517f08c379a00000000000000000000000000000000000000000000000000000000081526004016103789061321a565b60405180910390fd5b6000803373ffffffffffffffffffffffffffffffffffffffff1673ffffffffffffffffffffffffffffffffffffffff16815260200190815260200160002060009054906101000a900460ff1661040c576040517f08c379a0000000000000000000000000000000000000000000000000000000008152600401610403906132cd565b60405180910390fd5b600360006002600981111561044a577f4e487b7100000000000000000000000000000000000000000000000000000000600052602160045260246000fd5b6009811115610482577f4e487b7100000000000000000000000000000000000000000000000000000000600052602160045260246000fd5b815260200190815260200160002060009054906101000a900473ffffffffffffffffffffffffffffffffffffffff1673ffffffffffffffffffffffffffffffffffffffff1663a0712d68826040518263ffffffff1660e01b81526004016104e99190613324565b600060405180830381600087803b15801561050357600080fd5b505af1158015610517573d6000803e3d6000fd5b5050505050565b60008060008373ffffffffffffffffffffffffffffffffffffffff1673ffffffffffffffffffffffffffffffffffffffff16815260200190815260200160002060009054906101000a900460ff169050919050565b61057b612a2d565b600460008460078111156105b8577f4e487b7100000000000000000000000000000000000000000000000000000000600052602160045260246000fd5b60078111156105f0577f4e487b7100000000000000000000000000000000000000000000000000000000600052602160045260246000fd5b8152602001908152602001600020600001600083600781111561063c577f4e487b7100000000000000000000000000000000000000000000000000000000600052602160045260246000fd5b6007811115610674577f4e487b7100000000000000000000000000000000000000000000000000000000600052602160045260246000fd5b8152602001908152602001600020604051806040016040529081600082015481526020016001820160009054906101000a900460ff1660ff1660ff1681525050905092915050565b600073ffffffffffffffffffffffffffffffffffffffff163373ffffffffffffffffffffffffffffffffffffffff16141561072c576040517f08c379a00000000000000000000000000000000000000000000000000000000081526004016107239061321a565b60405180910390fd5b6000803373ffffffffffffffffffffffffffffffffffffffff1673ffffffffffffffffffffffffffffffffffffffff16815260200190815260200160002060009054906101000a900460ff166107b7576040517f08c379a00000000000000000000000000000000000000000000000000000000081526004016107ae906132cd565b60405180910390fd5b60036000600660098111156107f5577f4e487b7100000000000000000000000000000000000000000000000000000000600052602160045260246000fd5b600981111561082d577f4e487b7100000000000000000000000000000000000000000000000000000000600052602160045260246000fd5b815260200190815260200160002060009054906101000a900473ffffffffffffffffffffffffffffffffffffffff16600073ffffffffffffffffffffffffffffffffffffffff168173ffffffffffffffffffffffffffffffffffffffff1614156108cc576040517f08c379a00000000000000000000000000000000000000000000000000000000081526004016108c3906132ad565b60405180910390fd5b600360006001600981111561090a577f4e487b7100000000000000000000000000000000000000000000000000000000600052602160045260246000fd5b6009811115610942577f4e487b7100000000000000000000000000000000000000000000000000000000600052602160045260246000fd5b815260200190815260200160002060009054906101000a900473ffffffffffffffffffffffffffffffffffffffff16600073ffffffffffffffffffffffffffffffffffffffff168173ffffffffffffffffffffffffffffffffffffffff1614156109e1576040517f08c379a00000000000000000000000000000000000000000000000000000000081526004016109d8906132ad565b60405180910390fd5b60006003600060066009811115610a21577f4e487b7100000000000000000000000000000000000000000000000000000000600052602160045260246000fd5b6009811115610a59577f4e487b7100000000000000000000000000000000000000000000000000000000600052602160045260246000fd5b815260200190815260200160002060009054906101000a900473ffffffffffffffffffffffffffffffffffffffff1673ffffffffffffffffffffffffffffffffffffffff1663045a2ab76040518163ffffffff1660e01b8152600401610abe9061325a565b604080518083038186803b158015610ad557600080fd5b505afa158015610ae9573d6000803e3d6000fd5b505050506040513d601f19601f82011682018060405250810190610b0d9190612d2f565b905060006003600060016009811115610b4f577f4e487b7100000000000000000000000000000000000000000000000000000000600052602160045260246000fd5b6009811115610b87577f4e487b7100000000000000000000000000000000000000000000000000000000600052602160045260246000fd5b815260200190815260200160002060009054906101000a900473ffffffffffffffffffffffffffffffffffffffff1673ffffffffffffffffffffffffffffffffffffffff1663313ce5676040518163ffffffff1660e01b8152600401602060405180830381600087803b158015610bfd57600080fd5b505af1158015610c11573d6000803e3d6000fd5b505050506040513d601f19601f82011682018060405250810190610c359190612daa565b9050610c95826020015160ff16670de0b6b3a7640000610c559190613614565b67ffffffffffffffff1682600a610c6c919061349c565b846000015134610c7c91906135ba565b610c8691906135ba565b610c909190613418565b612571565b50505050565b600073ffffffffffffffffffffffffffffffffffffffff1660018054906101000a900473ffffffffffffffffffffffffffffffffffffffff1673ffffffffffffffffffffffffffffffffffffffff161415610d2b576040517f08c379a0000000000000000000000000000000000000000000000000000000008152600401610d229061321a565b60405180910390fd5b60018054906101000a900473ffffffffffffffffffffffffffffffffffffffff1673ffffffffffffffffffffffffffffffffffffffff163373ffffffffffffffffffffffffffffffffffffffff1614610db9576040517f08c379a0000000000000000000000000000000000000000000000000000000008152600401610db0906131fa565b60405180910390fd5b80600073ffffffffffffffffffffffffffffffffffffffff168173ffffffffffffffffffffffffffffffffffffffff161415610e2a576040517f08c379a0000000000000000000000000000000000000000000000000000000008152600401610e21906132ad565b60405180910390fd5b600073ffffffffffffffffffffffffffffffffffffffff163373ffffffffffffffffffffffffffffffffffffffff161415610e9a576040517f08c379a0000000000000000000000000000000000000000000000000000000008152600401610e919061321a565b60405180910390fd5b6000803373ffffffffffffffffffffffffffffffffffffffff1673ffffffffffffffffffffffffffffffffffffffff16815260200190815260200160002060009054906101000a900460ff16610f25576040517f08c379a0000000000000000000000000000000000000000000000000000000008152600401610f1c906132cd565b60405180910390fd5b60006009811115610f5f577f4e487b7100000000000000000000000000000000000000000000000000000000600052602160045260246000fd5b6009811115610f97577f4e487b7100000000000000000000000000000000000000000000000000000000600052602160045260246000fd5b836009811115610fd0577f4e487b7100000000000000000000000000000000000000000000000000000000600052602160045260246000fd5b1015801561104d5750600980811115611012577f4e487b7100000000000000000000000000000000000000000000000000000000600052602160045260246000fd5b83600981111561104b577f4e487b7100000000000000000000000000000000000000000000000000000000600052602160045260246000fd5b105b61108c576040517f08c379a0000000000000000000000000000000000000000000000000000000008152600401611083906131ba565b60405180910390fd5b81600360008560098111156110ca577f4e487b7100000000000000000000000000000000000000000000000000000000600052602160045260246000fd5b6009811115611102577f4e487b7100000000000000000000000000000000000000000000000000000000600052602160045260246000fd5b815260200190815260200160002060006101000a81548173ffffffffffffffffffffffffffffffffffffffff021916908373ffffffffffffffffffffffffffffffffffffffff160217905550505050565b600060036000806009811115611192577f4e487b7100000000000000000000000000000000000000000000000000000000600052602160045260246000fd5b60098111156111ca577f4e487b7100000000000000000000000000000000000000000000000000000000600052602160045260246000fd5b815260200190815260200160002060009054906101000a900473ffffffffffffffffffffffffffffffffffffffff1673ffffffffffffffffffffffffffffffffffffffff168673ffffffffffffffffffffffffffffffffffffffff16146113df5760008673ffffffffffffffffffffffffffffffffffffffff1663dd62ed3e33306040518363ffffffff1660e01b81526004016112689291906130e0565b60206040518083038186803b15801561128057600080fd5b505afa158015611294573d6000803e3d6000fd5b505050506040513d601f19601f820116820180604052508101906112b89190612d81565b9050858110156112fd576040517f08c379a00000000000000000000000000000000000000000000000000000000081526004016112f49061323a565b60405180910390fd5b8673ffffffffffffffffffffffffffffffffffffffff1663095ea7b373e592427a0aece92de3edee1f18e0157c05861564886040518363ffffffff1660e01b815260040161134c929190613140565b602060405180830381600087803b15801561136657600080fd5b505af115801561137a573d6000803e3d6000fd5b505050506040513d601f19601f8201168201806040525081019061139e9190612c3f565b6113dd576040517f08c379a00000000000000000000000000000000000000000000000000000000081526004016113d4906131da565b60405180910390fd5b505b6113eb863330886128d5565b6000339050600360006001600981111561142e577f4e487b7100000000000000000000000000000000000000000000000000000000600052602160045260246000fd5b6009811115611466577f4e487b7100000000000000000000000000000000000000000000000000000000600052602160045260246000fd5b815260200190815260200160002060009054906101000a900473ffffffffffffffffffffffffffffffffffffffff1673ffffffffffffffffffffffffffffffffffffffff168773ffffffffffffffffffffffffffffffffffffffff1614801561159e57506003600060046009811115611508577f4e487b7100000000000000000000000000000000000000000000000000000000600052602160045260246000fd5b6009811115611540577f4e487b7100000000000000000000000000000000000000000000000000000000600052602160045260246000fd5b815260200190815260200160002060009054906101000a900473ffffffffffffffffffffffffffffffffffffffff1673ffffffffffffffffffffffffffffffffffffffff168573ffffffffffffffffffffffffffffffffffffffff16145b156118b557600060046000600160078111156115e3577f4e487b7100000000000000000000000000000000000000000000000000000000600052602160045260246000fd5b600781111561161b577f4e487b7100000000000000000000000000000000000000000000000000000000600052602160045260246000fd5b8152602001908152602001600020600001600060026007811115611668577f4e487b7100000000000000000000000000000000000000000000000000000000600052602160045260246000fd5b60078111156116a0577f4e487b7100000000000000000000000000000000000000000000000000000000600052602160045260246000fd5b815260200190815260200160002060000154876116bd91906135ba565b905060036000600260098111156116fd577f4e487b7100000000000000000000000000000000000000000000000000000000600052602160045260246000fd5b6009811115611735577f4e487b7100000000000000000000000000000000000000000000000000000000600052602160045260246000fd5b815260200190815260200160002060009054906101000a900473ffffffffffffffffffffffffffffffffffffffff1673ffffffffffffffffffffffffffffffffffffffff1663095ea7b373e592427a0aece92de3edee1f18e0157c05861564836040518363ffffffff1660e01b81526004016117b2929190613140565b602060405180830381600087803b1580156117cc57600080fd5b505af11580156117e0573d6000803e3d6000fd5b505050506040513d601f19601f820116820180604052508101906118049190612c3f565b506003600060026009811115611843577f4e487b7100000000000000000000000000000000000000000000000000000000600052602160045260246000fd5b600981111561187b577f4e487b7100000000000000000000000000000000000000000000000000000000600052602160045260246000fd5b815260200190815260200160002060009054906101000a900473ffffffffffffffffffffffffffffffffffffffff16975080965050611b14565b60036000600460098111156118f3577f4e487b7100000000000000000000000000000000000000000000000000000000600052602160045260246000fd5b600981111561192b577f4e487b7100000000000000000000000000000000000000000000000000000000600052602160045260246000fd5b815260200190815260200160002060009054906101000a900473ffffffffffffffffffffffffffffffffffffffff1673ffffffffffffffffffffffffffffffffffffffff168773ffffffffffffffffffffffffffffffffffffffff16148015611a63575060036000600160098111156119cd577f4e487b7100000000000000000000000000000000000000000000000000000000600052602160045260246000fd5b6009811115611a05577f4e487b7100000000000000000000000000000000000000000000000000000000600052602160045260246000fd5b815260200190815260200160002060009054906101000a900473ffffffffffffffffffffffffffffffffffffffff1673ffffffffffffffffffffffffffffffffffffffff168573ffffffffffffffffffffffffffffffffffffffff16145b15611b13576003600060026009811115611aa6577f4e487b7100000000000000000000000000000000000000000000000000000000600052602160045260246000fd5b6009811115611ade577f4e487b7100000000000000000000000000000000000000000000000000000000600052602160045260246000fd5b815260200190815260200160002060009054906101000a900473ffffffffffffffffffffffffffffffffffffffff1694503090505b5b60006040518061010001604052808973ffffffffffffffffffffffffffffffffffffffff1681526020018773ffffffffffffffffffffffffffffffffffffffff168152602001610bb862ffffff1681526020018373ffffffffffffffffffffffffffffffffffffffff168152602001600f42611b90919061338b565b815260200188815260200160008152602001600073ffffffffffffffffffffffffffffffffffffffff16815250905073e592427a0aece92de3edee1f18e0157c0586156473ffffffffffffffffffffffffffffffffffffffff1663414bf389826040518263ffffffff1660e01b8152600401611c0c91906132ed565b602060405180830381600087803b158015611c2657600080fd5b505af1158015611c3a573d6000803e3d6000fd5b505050506040513d601f19601f82011682018060405250810190611c5e9190612d81565b92506003600060046009811115611c9e577f4e487b7100000000000000000000000000000000000000000000000000000000600052602160045260246000fd5b6009811115611cd6577f4e487b7100000000000000000000000000000000000000000000000000000000600052602160045260246000fd5b815260200190815260200160002060009054906101000a900473ffffffffffffffffffffffffffffffffffffffff1673ffffffffffffffffffffffffffffffffffffffff168873ffffffffffffffffffffffffffffffffffffffff16148015611e0e57506003600060016009811115611d78577f4e487b7100000000000000000000000000000000000000000000000000000000600052602160045260246000fd5b6009811115611db0577f4e487b7100000000000000000000000000000000000000000000000000000000600052602160045260246000fd5b815260200190815260200160002060009054906101000a900473ffffffffffffffffffffffffffffffffffffffff1673ffffffffffffffffffffffffffffffffffffffff168673ffffffffffffffffffffffffffffffffffffffff16145b156120635760006004600060016007811115611e53577f4e487b7100000000000000000000000000000000000000000000000000000000600052602160045260246000fd5b6007811115611e8b577f4e487b7100000000000000000000000000000000000000000000000000000000600052602160045260246000fd5b8152602001908152602001600020600001600060026007811115611ed8577f4e487b7100000000000000000000000000000000000000000000000000000000600052602160045260246000fd5b6007811115611f10577f4e487b7100000000000000000000000000000000000000000000000000000000600052602160045260246000fd5b81526020019081526020016000206000015484611f2d9190613418565b90506003600060016009811115611f6d577f4e487b7100000000000000000000000000000000000000000000000000000000600052602160045260246000fd5b6009811115611fa5577f4e487b7100000000000000000000000000000000000000000000000000000000600052602160045260246000fd5b815260200190815260200160002060009054906101000a900473ffffffffffffffffffffffffffffffffffffffff1673ffffffffffffffffffffffffffffffffffffffff1663a9059cbb33836040518363ffffffff1660e01b815260040161200e929190613140565b602060405180830381600087803b15801561202857600080fd5b505af115801561203c573d6000803e3d6000fd5b505050506040513d601f19601f820116820180604052508101906120609190612c3f565b50505b505095945050505050565b600073ffffffffffffffffffffffffffffffffffffffff1660018054906101000a900473ffffffffffffffffffffffffffffffffffffffff1673ffffffffffffffffffffffffffffffffffffffff1614156120fe576040517f08c379a00000000000000000000000000000000000000000000000000000000081526004016120f59061321a565b60405180910390fd5b60018054906101000a900473ffffffffffffffffffffffffffffffffffffffff1673ffffffffffffffffffffffffffffffffffffffff163373ffffffffffffffffffffffffffffffffffffffff161461218c576040517f08c379a0000000000000000000000000000000000000000000000000000000008152600401612183906131fa565b60405180910390fd5b80600073ffffffffffffffffffffffffffffffffffffffff168173ffffffffffffffffffffffffffffffffffffffff1614156121fd576040517f08c379a00000000000000000000000000000000000000000000000000000000081526004016121f4906132ad565b60405180910390fd5b60016000808473ffffffffffffffffffffffffffffffffffffffff1673ffffffffffffffffffffffffffffffffffffffff16815260200190815260200160002060006101000a81548160ff02191690831515021790555060018060009054906101000a900460ff1661226f91906133e1565b600160006101000a81548160ff021916908360ff1602179055505050565b73e592427a0aece92de3edee1f18e0157c0586156481565b60025481565b8060028190555050565b73b27308f9f90d607463bb33ea1bebb41c27ce5ab681565b806004600085600781111561230b577f4e487b7100000000000000000000000000000000000000000000000000000000600052602160045260246000fd5b6007811115612343577f4e487b7100000000000000000000000000000000000000000000000000000000600052602160045260246000fd5b8152602001908152602001600020600001600084600781111561238f577f4e487b7100000000000000000000000000000000000000000000000000000000600052602160045260246000fd5b60078111156123c7577f4e487b7100000000000000000000000000000000000000000000000000000000600052602160045260246000fd5b81526020019081526020016000206000820151816000015560208201518160010160006101000a81548160ff021916908360ff160217905550905050505050565b60006003600a612418919061349c565b6002546003600060016009811115612459577f4e487b7100000000000000000000000000000000000000000000000000000000600052602160045260246000fd5b6009811115612491577f4e487b7100000000000000000000000000000000000000000000000000000000600052602160045260246000fd5b815260200190815260200160002060009054906101000a900473ffffffffffffffffffffffffffffffffffffffff1673ffffffffffffffffffffffffffffffffffffffff1663313ce5676040518163ffffffff1660e01b8152600401602060405180830381600087803b15801561250757600080fd5b505af115801561251b573d6000803e3d6000fd5b505050506040513d601f19601f8201168201806040525081019061253f9190612daa565b600a61254b919061349c565b8461255691906135ba565b61256091906135ba565b61256a9190613418565b9050919050565b600073ffffffffffffffffffffffffffffffffffffffff163373ffffffffffffffffffffffffffffffffffffffff1614156125e1576040517f08c379a00000000000000000000000000000000000000000000000000000000081526004016125d89061321a565b60405180910390fd5b6000803373ffffffffffffffffffffffffffffffffffffffff1673ffffffffffffffffffffffffffffffffffffffff16815260200190815260200160002060009054906101000a900460ff1661266c576040517f08c379a0000000000000000000000000000000000000000000000000000000008152600401612663906132cd565b60405180910390fd5b60036000600160098111156126aa577f4e487b7100000000000000000000000000000000000000000000000000000000600052602160045260246000fd5b60098111156126e2577f4e487b7100000000000000000000000000000000000000000000000000000000600052602160045260246000fd5b815260200190815260200160002060009054906101000a900473ffffffffffffffffffffffffffffffffffffffff1673ffffffffffffffffffffffffffffffffffffffff1663a0712d68826040518263ffffffff1660e01b81526004016127499190613324565b600060405180830381600087803b15801561276357600080fd5b505af1158015612777573d6000803e3d6000fd5b505050506128d160036000600160098111156127bc577f4e487b7100000000000000000000000000000000000000000000000000000000600052602160045260246000fd5b60098111156127f4577f4e487b7100000000000000000000000000000000000000000000000000000000600052602160045260246000fd5b815260200190815260200160002060009054906101000a900473ffffffffffffffffffffffffffffffffffffffff16826003600060026009811115612862577f4e487b7100000000000000000000000000000000000000000000000000000000600052602160045260246000fd5b600981111561289a577f4e487b7100000000000000000000000000000000000000000000000000000000600052602160045260246000fd5b815260200190815260200160002060009054906101000a900473ffffffffffffffffffffffffffffffffffffffff16600042611153565b5050565b6000808573ffffffffffffffffffffffffffffffffffffffff166323b872dd60e01b86868660405160240161290c93929190613109565b604051602081830303815290604052907bffffffffffffffffffffffffffffffffffffffffffffffffffffffff19166020820180517bffffffffffffffffffffffffffffffffffffffffffffffffffffffff838183161783525050505060405161297691906130c9565b6000604051808303816000865af19150503d80600081146129b3576040519150601f19603f3d011682016040523d82523d6000602084013e6129b8565b606091505b50915091508180156129e657506000815114806129e55750808060200190518101906129e49190612c3f565b5b5b612a25576040517f08c379a0000000000000000000000000000000000000000000000000000000008152600401612a1c9061328d565b60405180910390fd5b505050505050565b604051806040016040528060008152602001600060ff1681525090565b600081359050612a59816139f7565b92915050565b600081359050612a6e81613a0e565b92915050565b600081519050612a8381613a25565b92915050565b600081359050612a9881613a3c565b92915050565b600081359050612aad81613a4c565b92915050565b600060408284031215612ac557600080fd5b612acf604061333f565b90506000612adf84828501612b4b565b6000830152506020612af384828501612b75565b60208301525092915050565b600060408284031215612b1157600080fd5b612b1b604061333f565b90506000612b2b84828501612b60565b6000830152506020612b3f84828501612b8a565b60208301525092915050565b600081359050612b5a81613a5c565b92915050565b600081519050612b6f81613a5c565b92915050565b600081359050612b8481613a73565b92915050565b600081519050612b9981613a73565b92915050565b600060208284031215612bb157600080fd5b6000612bbf84828501612a4a565b91505092915050565b600080600080600060a08688031215612be057600080fd5b6000612bee88828901612a4a565b9550506020612bff88828901612b4b565b9450506040612c1088828901612a4a565b9350506060612c2188828901612b4b565b9250506080612c3288828901612b4b565b9150509295509295909350565b600060208284031215612c5157600080fd5b6000612c5f84828501612a74565b91505092915050565b60008060408385031215612c7b57600080fd5b6000612c8985828601612a89565b9250506020612c9a85828601612a5f565b9150509250929050565b60008060408385031215612cb757600080fd5b6000612cc585828601612a9e565b9250506020612cd685828601612a9e565b9150509250929050565b600080600060808486031215612cf557600080fd5b6000612d0386828701612a9e565b9350506020612d1486828701612a9e565b9250506040612d2586828701612ab3565b9150509250925092565b600060408284031215612d4157600080fd5b6000612d4f84828501612aff565b91505092915050565b600060208284031215612d6a57600080fd5b6000612d7884828501612b4b565b91505092915050565b600060208284031215612d9357600080fd5b6000612da184828501612b60565b91505092915050565b600060208284031215612dbc57600080fd5b6000612dca84828501612b8a565b91505092915050565b612ddc81613656565b82525050565b612deb81613656565b82525050565b612dfa8161367a565b82525050565b6000612e0b82613364565b612e15818561336f565b9350612e25818560208601613728565b80840191505092915050565b612e3a816136e0565b82525050565b612e4981613704565b82525050565b6000612e5c60038361337a565b9150612e6782613837565b602082019050919050565b6000612e7f60168361337a565b9150612e8a82613860565b602082019050919050565b6000612ea260328361337a565b9150612ead82613889565b604082019050919050565b6000612ec5601e8361337a565b9150612ed0826138d8565b602082019050919050565b6000612ee860178361337a565b9150612ef382613901565b602082019050919050565b6000612f0b60168361337a565b9150612f168261392a565b602082019050919050565b6000612f2e60048361337a565b9150612f3982613953565b602082019050919050565b6000612f5160038361337a565b9150612f5c8261397c565b602082019050919050565b6000612f7460198361337a565b9150612f7f826139a5565b602082019050919050565b6000612f97600d8361337a565b9150612fa2826139ce565b602082019050919050565b61010082016000820151612fc46000850182612dd3565b506020820151612fd76020850182612dd3565b506040820151612fea604085018261308d565b506060820151612ffd6060850182612dd3565b506080820151613010608085018261309c565b5060a082015161302360a085018261309c565b5060c082015161303660c085018261309c565b5060e082015161304960e085018261307e565b50505050565b604082016000820151613065600085018261309c565b50602082015161307860208501826130ba565b50505050565b61308781613686565b82525050565b613096816136a6565b82525050565b6130a5816136b5565b82525050565b6130b4816136b5565b82525050565b6130c3816136d3565b82525050565b60006130d58284612e00565b915081905092915050565b60006040820190506130f56000830185612de2565b6131026020830184612de2565b9392505050565b600060608201905061311e6000830186612de2565b61312b6020830185612de2565b61313860408301846130ab565b949350505050565b60006040820190506131556000830185612de2565b61316260208301846130ab565b9392505050565b600060208201905061317e6000830184612df1565b92915050565b60006020820190506131996000830184612e31565b92915050565b60006020820190506131b46000830184612e40565b92915050565b600060208201905081810360008301526131d381612e72565b9050919050565b600060208201905081810360008301526131f381612e95565b9050919050565b6000602082019050818103600083015261321381612eb8565b9050919050565b6000602082019050818103600083015261323381612edb565b9050919050565b6000602082019050818103600083015261325381612efe565b9050919050565b6000604082019050818103600083015261327381612f21565b9050818103602083015261328681612e4f565b9050919050565b600060208201905081810360008301526132a681612f44565b9050919050565b600060208201905081810360008301526132c681612f67565b9050919050565b600060208201905081810360008301526132e681612f8a565b9050919050565b6000610100820190506133036000830184612fad565b92915050565b600060408201905061331e600083018461304f565b92915050565b600060208201905061333960008301846130ab565b92915050565b600061334961335a565b9050613355828261375b565b919050565b6000604051905090565b600081519050919050565b600081905092915050565b600082825260208201905092915050565b6000613396826136b5565b91506133a1836136b5565b9250827fffffffffffffffffffffffffffffffffffffffffffffffffffffffffffffffff038211156133d6576133d561378c565b5b828201905092915050565b60006133ec826136d3565b91506133f7836136d3565b92508260ff0382111561340d5761340c61378c565b5b828201905092915050565b6000613423826136b5565b915061342e836136b5565b92508261343e5761343d6137bb565b5b828204905092915050565b6000808291508390505b60018511156134935780860481111561346f5761346e61378c565b5b600185161561347e5780820291505b808102905061348c8561382a565b9450613453565b94509492505050565b60006134a7826136b5565b91506134b2836136d3565b92506134df7fffffffffffffffffffffffffffffffffffffffffffffffffffffffffffffffff84846134e7565b905092915050565b6000826134f757600190506135b3565b8161350557600090506135b3565b816001811461351b576002811461352557613554565b60019150506135b3565b60ff8411156135375761353661378c565b5b8360020a91508482111561354e5761354d61378c565b5b506135b3565b5060208310610133831016604e8410600b84101617156135895782820a9050838111156135845761358361378c565b5b6135b3565b6135968484846001613449565b925090508184048111156135ad576135ac61378c565b5b81810290505b9392505050565b60006135c5826136b5565b91506135d0836136b5565b9250817fffffffffffffffffffffffffffffffffffffffffffffffffffffffffffffffff04831182151516156136095761360861378c565b5b828202905092915050565b600061361f826136bf565b915061362a836136bf565b92508167ffffffffffffffff048311821515161561364b5761364a61378c565b5b828202905092915050565b600061366182613686565b9050919050565b600061367382613686565b9050919050565b60008115159050919050565b600073ffffffffffffffffffffffffffffffffffffffff82169050919050565b600062ffffff82169050919050565b6000819050919050565b600067ffffffffffffffff82169050919050565b600060ff82169050919050565b60006136eb826136f2565b9050919050565b60006136fd82613686565b9050919050565b600061370f82613716565b9050919050565b600061372182613686565b9050919050565b60005b8381101561374657808201518184015260208101905061372b565b83811115613755576000848401525b50505050565b61376482613819565b810181811067ffffffffffffffff82111715613783576137826137ea565b5b80604052505050565b7f4e487b7100000000000000000000000000000000000000000000000000000000600052601160045260246000fd5b7f4e487b7100000000000000000000000000000000000000000000000000000000600052601260045260246000fd5b7f4e487b7100000000000000000000000000000000000000000000000000000000600052604160045260246000fd5b6000601f19601f8301169050919050565b60008160011c9050919050565b7f4f43580000000000000000000000000000000000000000000000000000000000600082015250565b7f496e76616c696420636f6e747261637420696e64657800000000000000000000600082015250565b7f4f637845786368616e67652e7377617028293a20617070726f766520666f722060008201527f74686520726f75746572206661696c65642e0000000000000000000000000000602082015250565b7f466f722063616c6c65722065787065637465642062652063726561746f720000600082015250565b7f496e76616c69642063726561746f722061646472657373000000000000000000600082015250565b7f496e73756666696369656e7420616c6c6f77616e636500000000000000000000600082015250565b7f4f43415400000000000000000000000000000000000000000000000000000000600082015250565b7f5354460000000000000000000000000000000000000000000000000000000000600082015250565b7f4578706563746564206e6f6e2d7a65726f206164647265737300000000000000600082015250565b7f4d7573742062652061646d696e00000000000000000000000000000000000000600082015250565b613a0081613656565b8114613a0b57600080fd5b50565b613a1781613668565b8114613a2257600080fd5b50565b613a2e8161367a565b8114613a3957600080fd5b50565b600a8110613a4957600080fd5b50565b60088110613a5957600080fd5b50565b613a65816136b5565b8114613a7057600080fd5b50565b613a7c816136d3565b8114613a8757600080fd5b5056fea2646970667358221220959acdc248e822c92390f8ab3d46213ab6aeedbedda4a289bfb635416a0f08fe64736f6c63430008040033",
  "immutableReferences": {},
  "source": "// SPDX-License-Identifier: MIT\npragma solidity ^0.8.0;\n\n// https://soliditydeveloper.com/uniswap2\n// https://docs.uniswap.org/protocol/V2/guides/smart-contract-integration/trading-from-a-smart-contract\n// https://ethereum.org/ru/developers/tutorials/transfers-and-approval-of-erc-20-tokens-from-a-solidity-smart-contract/\n// https://solidity-by-example.org/app/erc20/\n\nimport \"@uniswap/v3-periphery/contracts/interfaces/ISwapRouter.sol\";\nimport \"@uniswap/v3-periphery/contracts/interfaces/IQuoter.sol\";\n// import \"@uniswap/v2-periphery/contracts/interfaces/IUniswapV2Router02.sol\";\nimport '@uniswap/v3-periphery/contracts/libraries/TransferHelper.sol';\nimport \"@openzeppelin/contracts/token/ERC20/IERC20.sol\"; // openzeppelin 4.5 (for solidity 0.8.x)\nimport \"@openzeppelin/contracts/utils/Strings.sol\";\nimport \"@openzeppelin/contracts/token/ERC721/IERC721.sol\";\nimport \"./OcxBase.sol\";\nimport \"./PawnNFTs.sol\";\nimport \"./OcatToken.sol\";\nimport \"./common/OcxCommon.sol\";\n\ncontract OcxExchange is OcxBase {\n\n    // IUniswapV2Router02  public uniswapRouter;\n    ISwapRouter public constant uniswapRouter = ISwapRouter(UNISWAP_V3_ROUTER_ADDRESS);\n    IQuoter public constant quoter = IQuoter(UNISWAP_V3_QUOTER_ADDRESS);\n    // address payable private ocxLocalPoolAddress;\n    mapping(CurrencyIndex => CurrencyPriceInfo) private quotes;\n\n\n    event estimatedOcxAmountForBurningOcat(uint256);\n\n    receive() external payable {}\n\n    constructor() {\n        // uniswapRouter = IUniswapV2Router02(UNISWAP_V3_ROUTER_ADDRESS);\n    }\n\n    function swap(\n        address _tokenIn,\n        uint _amountIn,\n        address _tokenOut,\n        uint _amountOutMin,\n        uint _deadline\n    ) public \n    returns(uint amountOut) {\n        // transferFrom\n        //    Check for allowance\n        if (_tokenIn != contractAddress[CommonContracts.WETH]) {\n            uint256 allowance = IERC20(_tokenIn).allowance(msg.sender, address(this));\n            require(allowance >= _amountIn, \"Insufficient allowance\");\n            //     Do transferFrom\n            // approve\n            require(\n                IERC20(_tokenIn).approve(address(UNISWAP_V3_ROUTER_ADDRESS), _amountIn), \n                'OcxExchange.swap(): approve for the router failed.'\n            );\n        }\n        TransferHelper.safeTransferFrom(_tokenIn, msg.sender, address(this), _amountIn);\n        address recipient = msg.sender;\n        if (_tokenIn == contractAddress[CommonContracts.OCAT] \n         && _tokenOut == contractAddress[CommonContracts.UNI]) {\n            uint256 ocxAmount = _amountIn * quotes[CurrencyIndex.OCAT].vs[CurrencyIndex.OCX].value;\n            IERC20(contractAddress[CommonContracts.OCX]).approve(UNISWAP_V3_ROUTER_ADDRESS, ocxAmount);\n            _tokenIn = contractAddress[CommonContracts.OCX];\n            _amountIn = ocxAmount;\n        } else if (_tokenIn == contractAddress[CommonContracts.UNI] \n                && _tokenOut == contractAddress[CommonContracts.OCAT]) {\n            // Tophalf for UNI->OCAT swap\n            _tokenOut = contractAddress[CommonContracts.OCX];\n            recipient = address(this);\n        }\n\n        ISwapRouter.ExactInputSingleParams memory params =\n            ISwapRouter.ExactInputSingleParams({\n                tokenIn: _tokenIn,\n                tokenOut: _tokenOut,\n                fee: POOL_FEE,\n                recipient: recipient,\n                deadline: block.timestamp + 15,\n                amountIn: _amountIn,\n                amountOutMinimum: 0,\n                sqrtPriceLimitX96: 0\n            });\n\n        // The call to `exactInputSingle` executes the swap.\n        amountOut = uniswapRouter.exactInputSingle(params);\n\n        // Bottomhalf for UNI->OCAT swap\n        if (_tokenIn == contractAddress[CommonContracts.UNI] \n        && _tokenOut == contractAddress[CommonContracts.OCAT]) {\n            uint256 ocatAmount = amountOut / quotes[CurrencyIndex.OCAT].vs[CurrencyIndex.OCX].value;\n            IERC20(contractAddress[CommonContracts.OCAT]).transfer(msg.sender, ocatAmount);\n        }\n    }\n    /**\n     *  Mint OCAT by funding ETH\n     */\n    function mintOcat() public payable \n    onlyAdmin onlyValidAddress(contractAddress[CommonContracts.PRICE_ORACLE]) \n    onlyValidAddress(contractAddress[CommonContracts.OCAT]) {\n        OcxPrice memory ethAudPriceInfo = IOcxPriceOracle(\n            contractAddress[CommonContracts.PRICE_ORACLE]\n        ).getCurrencyRatio(\"OCAT\", \"OCX\");\n        uint8 ocatDecimals = IOcat(contractAddress[CommonContracts.OCAT]).decimals();\n        mintOcat(\n            (msg.value * ethAudPriceInfo.value * (10**ocatDecimals)) / \n            ((10**18) * ethAudPriceInfo.decimals)\n        );\n    }\n    /**\n     * Mint OCAT as specified amount\n     */\n    function mintOcat(uint256 amount) internal onlyAdmin {\n        IOcxERC20(contractAddress[CommonContracts.OCAT]).mint(amount);\n        swap(\n            contractAddress[CommonContracts.OCAT], amount, \n            contractAddress[CommonContracts.OCX], 0, \n            block.timestamp\n        );\n    }\n    function _getEstimatedOcxforOcat(uint ocatAmount) internal returns (uint256) {\n        address tokenIn = contractAddress[CommonContracts.OCX];\n        address tokenOut = contractAddress[CommonContracts.OCAT];\n        uint24 fee = 3000;\n        uint160 sqrtPriceLimitX96 = 0;\n\n        // getQuoteAtTick()\n        return quoter.quoteExactOutputSingle(\n            tokenIn,\n            tokenOut,\n            fee,\n            ocatAmount,\n            sqrtPriceLimitX96\n        );\n    }\n    function burnOcat(uint256 amount) internal onlyAdmin {\n        IERC20 ocat = IERC20(contractAddress[CommonContracts.OCAT]);\n        if (ocat.balanceOf(address(this)) < amount) {\n            uint256 ocxAmount = _getEstimatedOcxforOcat(amount);\n            IERC20 ocx = IERC20(contractAddress[CommonContracts.OCX]);\n            /*********************************************************\n             * Warn to admin to deposit additional ETHs\n             *********************************************************/\n            require(ocx.balanceOf(address(this)) < ocxAmount, \"1\");\n            //////////////////////////////////////////////////////////\n            emit estimatedOcxAmountForBurningOcat(ocxAmount);\n            IERC20(contractAddress[CommonContracts.OCX]).approve(UNISWAP_V3_ROUTER_ADDRESS, ocxAmount);\n            swap(\n                contractAddress[CommonContracts.OCX], ocxAmount, \n                contractAddress[CommonContracts.OCAT], 0, \n                block.timestamp\n            );\n        }\n        IOcxERC20(contractAddress[CommonContracts.OCAT]).burn(amount);\n    }\n    function mintOcx(uint256 amount) public payable onlyAdmin  {\n        IOcxERC20(contractAddress[CommonContracts.OCX]).mint(amount);\n    }\n    function burnOcx(uint256 amount) internal onlyAdmin {\n        IOcxERC20(contractAddress[CommonContracts.OCX]).burn(amount);\n    }\n    function setQuote(CurrencyIndex left, CurrencyIndex right, OcxPrice memory newQuote) public {\n        quotes[left].vs[right] = newQuote;\n    }\n    function getQuote(CurrencyIndex left, CurrencyIndex right) public view returns(OcxPrice memory) {\n        return quotes[left].vs[right];\n    }\n}\n",
  "sourcePath": "/home/openchainx/OpenchainTestVersion/server/contracts/OcxExchange.sol",
  "compiler": {
    "name": "solc",
    "version": "0.8.4+commit.c7e474f2.Emscripten.clang"
  },
  "schemaVersion": "3.4.7",
  "updatedAt": "2022-05-03T03:31:11.556Z",
  "networkType": "ethereum",
  "devdoc": {
    "kind": "dev",
    "methods": {},
    "version": 1
  },
  "userdoc": {
    "kind": "user",
    "methods": {
      "mintOcat()": {
        "notice": "Mint OCAT by funding ETH"
      }
    },
    "version": 1
  }
}