{
  "contractName": "OcxExchange",
  "abi": [
    {
      "inputs": [],
      "stateMutability": "nonpayable",
      "type": "constructor"
    },
    {
      "anonymous": false,
      "inputs": [
        {
          "indexed": false,
          "internalType": "uint256",
          "name": "",
          "type": "uint256"
        }
      ],
      "name": "estimatedOcxAmountForBurningOcat",
      "type": "event"
    },
    {
      "inputs": [
        {
          "internalType": "address",
          "name": "_admin",
          "type": "address"
        }
      ],
      "name": "addAdmin",
      "outputs": [],
      "stateMutability": "nonpayable",
      "type": "function"
    },
    {
      "inputs": [
        {
          "internalType": "uint256",
          "name": "price",
          "type": "uint256"
        }
      ],
      "name": "convertToOcat",
      "outputs": [
        {
          "internalType": "uint256",
          "name": "_ocatPrice",
          "type": "uint256"
        }
      ],
      "stateMutability": "nonpayable",
      "type": "function"
    },
    {
      "inputs": [
        {
          "internalType": "address",
          "name": "_address",
          "type": "address"
        }
      ],
      "name": "isAdmin",
      "outputs": [
        {
          "internalType": "bool",
          "name": "yes",
          "type": "bool"
        }
      ],
      "stateMutability": "view",
      "type": "function",
      "constant": true
    },
    {
      "inputs": [],
      "name": "ocatPrice",
      "outputs": [
        {
          "internalType": "uint256",
          "name": "",
          "type": "uint256"
        }
      ],
      "stateMutability": "view",
      "type": "function",
      "constant": true
    },
    {
      "inputs": [],
      "name": "quoter",
      "outputs": [
        {
          "internalType": "contract IQuoter",
          "name": "",
          "type": "address"
        }
      ],
      "stateMutability": "view",
      "type": "function",
      "constant": true
    },
    {
      "inputs": [
        {
          "internalType": "enum CommonContracts",
          "name": "contractIndex",
          "type": "uint8"
        },
        {
          "internalType": "address payable",
          "name": "_address",
          "type": "address"
        }
      ],
      "name": "setAddress",
      "outputs": [],
      "stateMutability": "nonpayable",
      "type": "function"
    },
    {
      "inputs": [
        {
          "internalType": "uint256",
          "name": "price",
          "type": "uint256"
        }
      ],
      "name": "setOcatPrice",
      "outputs": [],
      "stateMutability": "nonpayable",
      "type": "function"
    },
    {
      "inputs": [],
      "name": "uniswapRouter",
      "outputs": [
        {
          "internalType": "contract ISwapRouter",
          "name": "",
          "type": "address"
        }
      ],
      "stateMutability": "view",
      "type": "function",
      "constant": true
    },
    {
      "stateMutability": "payable",
      "type": "receive",
      "payable": true
    },
    {
      "inputs": [
        {
          "internalType": "address",
          "name": "_tokenIn",
          "type": "address"
        },
        {
          "internalType": "uint256",
          "name": "_amountIn",
          "type": "uint256"
        },
        {
          "internalType": "address",
          "name": "_tokenOut",
          "type": "address"
        },
        {
          "internalType": "uint256",
          "name": "_amountOutMin",
          "type": "uint256"
        },
        {
          "internalType": "uint256",
          "name": "_deadline",
          "type": "uint256"
        }
      ],
      "name": "swap",
      "outputs": [
        {
          "internalType": "uint256",
          "name": "amountOut",
          "type": "uint256"
        }
      ],
      "stateMutability": "nonpayable",
      "type": "function"
    },
    {
      "inputs": [
        {
          "internalType": "uint256",
          "name": "amountIn",
          "type": "uint256"
        },
        {
          "internalType": "address[2]",
          "name": "path",
          "type": "address[2]"
        }
      ],
      "name": "getAmountsOut",
      "outputs": [
        {
          "internalType": "uint256",
          "name": "expectedAmountOut",
          "type": "uint256"
        }
      ],
      "stateMutability": "nonpayable",
      "type": "function"
    },
    {
      "inputs": [],
      "name": "mintOcat",
      "outputs": [],
      "stateMutability": "payable",
      "type": "function",
      "payable": true
    },
    {
      "inputs": [
        {
          "internalType": "uint256",
          "name": "amount",
          "type": "uint256"
        }
      ],
      "name": "mintOcx",
      "outputs": [],
      "stateMutability": "payable",
      "type": "function",
      "payable": true
    },
    {
      "inputs": [
        {
          "internalType": "string",
          "name": "left",
          "type": "string"
        },
        {
          "internalType": "string",
          "name": "right",
          "type": "string"
        },
        {
          "internalType": "uint256",
          "name": "newQuote",
          "type": "uint256"
        },
        {
          "internalType": "uint8",
          "name": "quoteDecimals",
          "type": "uint8"
        }
      ],
      "name": "setQuote",
      "outputs": [],
      "stateMutability": "nonpayable",
      "type": "function"
    },
    {
      "inputs": [
        {
          "internalType": "string",
          "name": "left",
          "type": "string"
        },
        {
          "internalType": "string",
          "name": "right",
          "type": "string"
        }
      ],
      "name": "getQuote",
      "outputs": [
        {
          "components": [
            {
              "internalType": "uint256",
              "name": "value",
              "type": "uint256"
            },
            {
              "internalType": "uint8",
              "name": "decimals",
              "type": "uint8"
            }
          ],
          "internalType": "struct OcxPrice",
          "name": "",
          "type": "tuple"
        }
      ],
      "stateMutability": "view",
      "type": "function",
      "constant": true
    }
  ],
  "bytecode": "0x60806040523480156200001157600080fd5b50336001806101000a81548173ffffffffffffffffffffffffffffffffffffffff021916908373ffffffffffffffffffffffffffffffffffffffff16021790555062000063336200007260201b60201c565b6103e86002819055506200047d565b600073ffffffffffffffffffffffffffffffffffffffff1660018054906101000a900473ffffffffffffffffffffffffffffffffffffffff1673ffffffffffffffffffffffffffffffffffffffff16141562000105576040517f08c379a0000000000000000000000000000000000000000000000000000000008152600401620000fc9062000333565b60405180910390fd5b60018054906101000a900473ffffffffffffffffffffffffffffffffffffffff1673ffffffffffffffffffffffffffffffffffffffff163373ffffffffffffffffffffffffffffffffffffffff161462000196576040517f08c379a00000000000000000000000000000000000000000000000000000000081526004016200018d9062000311565b60405180910390fd5b80600073ffffffffffffffffffffffffffffffffffffffff168173ffffffffffffffffffffffffffffffffffffffff1614156200020a576040517f08c379a0000000000000000000000000000000000000000000000000000000008152600401620002019062000355565b60405180910390fd5b60016000808473ffffffffffffffffffffffffffffffffffffffff1673ffffffffffffffffffffffffffffffffffffffff16815260200190815260200160002060006101000a81548160ff02191690831515021790555060018060009054906101000a900460ff166200027e919062000388565b600160006101000a81548160ff021916908360ff1602179055505050565b6000620002ab601e8362000377565b9150620002b88262000402565b602082019050919050565b6000620002d260178362000377565b9150620002df826200042b565b602082019050919050565b6000620002f960198362000377565b9150620003068262000454565b602082019050919050565b600060208201905081810360008301526200032c816200029c565b9050919050565b600060208201905081810360008301526200034e81620002c3565b9050919050565b600060208201905081810360008301526200037081620002ea565b9050919050565b600082825260208201905092915050565b60006200039582620003c6565b9150620003a283620003c6565b92508260ff03821115620003bb57620003ba620003d3565b5b828201905092915050565b600060ff82169050919050565b7f4e487b7100000000000000000000000000000000000000000000000000000000600052601160045260246000fd5b7f466f722063616c6c65722065787065637465642062652063726561746f720000600082015250565b7f496e76616c69642063726561746f722061646472657373000000000000000000600082015250565b7f4578706563746564206e6f6e2d7a65726f206164647265737300000000000000600082015250565b614734806200048d6000396000f3fe6080604052600436106100e15760003560e01c8063a7d9cfbc1161007f578063c6bbd5a711610059578063c6bbd5a71461029b578063dbcd9580146102c6578063ed66a38014610303578063f4c74c5114610340576100e8565b8063a7d9cfbc1461020a578063bb3f6c6a14610235578063bd5f68b01461025e576100e8565b80632b7387a4116100bb5780632b7387a41461016f5780635e75228f1461017957806370480275146101b6578063735de9f7146101df576100e8565b80630589c4e5146100ed5780631b73cae11461011657806324d7806c14610132576100e8565b366100e857005b600080fd5b3480156100f957600080fd5b50610114600480360381019061010f91906135da565b610369565b005b610130600480360381019061012b9190613715565b610821565b005b34801561013e57600080fd5b5061015960048036038101906101549190613511565b610a2e565b6040516101669190613c58565b60405180910390f35b610177610a83565b005b34801561018557600080fd5b506101a0600480360381019061019b919061353a565b610fa3565b6040516101ad9190613e40565b60405180910390f35b3480156101c257600080fd5b506101dd60048036038101906101d89190613511565b611fd2565b005b3480156101eb57600080fd5b506101f46121f1565b6040516102019190613c8e565b60405180910390f35b34801561021657600080fd5b5061021f612209565b60405161022c9190613e40565b60405180910390f35b34801561024157600080fd5b5061025c60048036038101906102579190613715565b61220f565b005b34801561026a57600080fd5b5061028560048036038101906102809190613767565b612219565b6040516102929190613e40565b60405180910390f35b3480156102a757600080fd5b506102b0612bfa565b6040516102bd9190613c73565b60405180910390f35b3480156102d257600080fd5b506102ed60048036038101906102e89190613715565b612c12565b6040516102fa9190613e40565b60405180910390f35b34801561030f57600080fd5b5061032a60048036038101906103259190613616565b612d7b565b6040516103379190613e25565b60405180910390f35b34801561034c57600080fd5b5061036760048036038101906103629190613682565b612dfa565b005b600073ffffffffffffffffffffffffffffffffffffffff1660018054906101000a900473ffffffffffffffffffffffffffffffffffffffff1673ffffffffffffffffffffffffffffffffffffffff1614156103f9576040517f08c379a00000000000000000000000000000000000000000000000000000000081526004016103f090613d09565b60405180910390fd5b60018054906101000a900473ffffffffffffffffffffffffffffffffffffffff1673ffffffffffffffffffffffffffffffffffffffff163373ffffffffffffffffffffffffffffffffffffffff1614610487576040517f08c379a000000000000000000000000000000000000000000000000000000000815260040161047e90613ce9565b60405180910390fd5b80600073ffffffffffffffffffffffffffffffffffffffff168173ffffffffffffffffffffffffffffffffffffffff1614156104f8576040517f08c379a00000000000000000000000000000000000000000000000000000000081526004016104ef90613d89565b60405180910390fd5b600073ffffffffffffffffffffffffffffffffffffffff163373ffffffffffffffffffffffffffffffffffffffff161415610568576040517f08c379a000000000000000000000000000000000000000000000000000000000815260040161055f90613d09565b60405180910390fd5b6000803373ffffffffffffffffffffffffffffffffffffffff1673ffffffffffffffffffffffffffffffffffffffff16815260200190815260200160002060009054906101000a900460ff166105f3576040517f08c379a00000000000000000000000000000000000000000000000000000000081526004016105ea90613de9565b60405180910390fd5b6000600981111561062d577f4e487b7100000000000000000000000000000000000000000000000000000000600052602160045260246000fd5b6009811115610665577f4e487b7100000000000000000000000000000000000000000000000000000000600052602160045260246000fd5b83600981111561069e577f4e487b7100000000000000000000000000000000000000000000000000000000600052602160045260246000fd5b1015801561071b57506009808111156106e0577f4e487b7100000000000000000000000000000000000000000000000000000000600052602160045260246000fd5b836009811115610719577f4e487b7100000000000000000000000000000000000000000000000000000000600052602160045260246000fd5b105b61075a576040517f08c379a000000000000000000000000000000000000000000000000000000000815260040161075190613ca9565b60405180910390fd5b8160036000856009811115610798577f4e487b7100000000000000000000000000000000000000000000000000000000600052602160045260246000fd5b60098111156107d0577f4e487b7100000000000000000000000000000000000000000000000000000000600052602160045260246000fd5b815260200190815260200160002060006101000a81548173ffffffffffffffffffffffffffffffffffffffff021916908373ffffffffffffffffffffffffffffffffffffffff160217905550505050565b600073ffffffffffffffffffffffffffffffffffffffff163373ffffffffffffffffffffffffffffffffffffffff161415610891576040517f08c379a000000000000000000000000000000000000000000000000000000000815260040161088890613d09565b60405180910390fd5b6000803373ffffffffffffffffffffffffffffffffffffffff1673ffffffffffffffffffffffffffffffffffffffff16815260200190815260200160002060009054906101000a900460ff1661091c576040517f08c379a000000000000000000000000000000000000000000000000000000000815260040161091390613de9565b60405180910390fd5b600360006002600981111561095a577f4e487b7100000000000000000000000000000000000000000000000000000000600052602160045260246000fd5b6009811115610992577f4e487b7100000000000000000000000000000000000000000000000000000000600052602160045260246000fd5b815260200190815260200160002060009054906101000a900473ffffffffffffffffffffffffffffffffffffffff1673ffffffffffffffffffffffffffffffffffffffff1663a0712d68826040518263ffffffff1660e01b81526004016109f99190613e40565b600060405180830381600087803b158015610a1357600080fd5b505af1158015610a27573d6000803e3d6000fd5b5050505050565b60008060008373ffffffffffffffffffffffffffffffffffffffff1673ffffffffffffffffffffffffffffffffffffffff16815260200190815260200160002060009054906101000a900460ff169050919050565b600073ffffffffffffffffffffffffffffffffffffffff163373ffffffffffffffffffffffffffffffffffffffff161415610af3576040517f08c379a0000000000000000000000000000000000000000000000000000000008152600401610aea90613d09565b60405180910390fd5b6000803373ffffffffffffffffffffffffffffffffffffffff1673ffffffffffffffffffffffffffffffffffffffff16815260200190815260200160002060009054906101000a900460ff16610b7e576040517f08c379a0000000000000000000000000000000000000000000000000000000008152600401610b7590613de9565b60405180910390fd5b6003600060066009811115610bbc577f4e487b7100000000000000000000000000000000000000000000000000000000600052602160045260246000fd5b6009811115610bf4577f4e487b7100000000000000000000000000000000000000000000000000000000600052602160045260246000fd5b815260200190815260200160002060009054906101000a900473ffffffffffffffffffffffffffffffffffffffff16600073ffffffffffffffffffffffffffffffffffffffff168173ffffffffffffffffffffffffffffffffffffffff161415610c93576040517f08c379a0000000000000000000000000000000000000000000000000000000008152600401610c8a90613d89565b60405180910390fd5b6003600060016009811115610cd1577f4e487b7100000000000000000000000000000000000000000000000000000000600052602160045260246000fd5b6009811115610d09577f4e487b7100000000000000000000000000000000000000000000000000000000600052602160045260246000fd5b815260200190815260200160002060009054906101000a900473ffffffffffffffffffffffffffffffffffffffff16600073ffffffffffffffffffffffffffffffffffffffff168173ffffffffffffffffffffffffffffffffffffffff161415610da8576040517f08c379a0000000000000000000000000000000000000000000000000000000008152600401610d9f90613d89565b60405180910390fd5b60006004604051610db890613b9f565b9081526020016040518091039020600001604051610dd590613b8a565b9081526020016040518091039020604051806040016040529081600082015481526020016001820160009054906101000a900460ff1660ff1660ff1681525050905060006003600060016009811115610e57577f4e487b7100000000000000000000000000000000000000000000000000000000600052602160045260246000fd5b6009811115610e8f577f4e487b7100000000000000000000000000000000000000000000000000000000600052602160045260246000fd5b815260200190815260200160002060009054906101000a900473ffffffffffffffffffffffffffffffffffffffff1673ffffffffffffffffffffffffffffffffffffffff1663313ce5676040518163ffffffff1660e01b8152600401602060405180830381600087803b158015610f0557600080fd5b505af1158015610f19573d6000803e3d6000fd5b505050506040513d601f19601f82011682018060405250810190610f3d91906137a3565b9050610f9d826020015160ff16670de0b6b3a7640000610f5d91906141e8565b67ffffffffffffffff1682600a610f749190614070565b846000015134610f84919061418e565b610f8e919061418e565b610f989190613fa1565b612e9e565b50505050565b6000806004604051610fb490613b9f565b9081526020016040518091039020600001604051610fd190613b8a565b908152602001604051809103902060010160009054906101000a900460ff1660ff1611611033576040517f08c379a000000000000000000000000000000000000000000000000000000000815260040161102a90613dc9565b60405180910390fd5b60036000806009811115611070577f4e487b7100000000000000000000000000000000000000000000000000000000600052602160045260246000fd5b60098111156110a8577f4e487b7100000000000000000000000000000000000000000000000000000000600052602160045260246000fd5b815260200190815260200160002060009054906101000a900473ffffffffffffffffffffffffffffffffffffffff1673ffffffffffffffffffffffffffffffffffffffff168673ffffffffffffffffffffffffffffffffffffffff16146112bd5760008673ffffffffffffffffffffffffffffffffffffffff1663dd62ed3e33306040518363ffffffff1660e01b8152600401611146929190613bcf565b60206040518083038186803b15801561115e57600080fd5b505afa158015611172573d6000803e3d6000fd5b505050506040513d601f19601f82011682018060405250810190611196919061373e565b9050858110156111db576040517f08c379a00000000000000000000000000000000000000000000000000000000081526004016111d290613d29565b60405180910390fd5b8673ffffffffffffffffffffffffffffffffffffffff1663095ea7b373e592427a0aece92de3edee1f18e0157c05861564886040518363ffffffff1660e01b815260040161122a929190613c2f565b602060405180830381600087803b15801561124457600080fd5b505af1158015611258573d6000803e3d6000fd5b505050506040513d601f19601f8201168201806040525081019061127c91906135b1565b6112bb576040517f08c379a00000000000000000000000000000000000000000000000000000000081526004016112b290613cc9565b60405180910390fd5b505b6112c986333088613202565b6000339050600360006001600981111561130c577f4e487b7100000000000000000000000000000000000000000000000000000000600052602160045260246000fd5b6009811115611344577f4e487b7100000000000000000000000000000000000000000000000000000000600052602160045260246000fd5b815260200190815260200160002060009054906101000a900473ffffffffffffffffffffffffffffffffffffffff1673ffffffffffffffffffffffffffffffffffffffff168773ffffffffffffffffffffffffffffffffffffffff1614801561147c575060036000600460098111156113e6577f4e487b7100000000000000000000000000000000000000000000000000000000600052602160045260246000fd5b600981111561141e577f4e487b7100000000000000000000000000000000000000000000000000000000600052602160045260246000fd5b815260200190815260200160002060009054906101000a900473ffffffffffffffffffffffffffffffffffffffff1673ffffffffffffffffffffffffffffffffffffffff168573ffffffffffffffffffffffffffffffffffffffff16145b1561189857600060036000600260098111156114c1577f4e487b7100000000000000000000000000000000000000000000000000000000600052602160045260246000fd5b60098111156114f9577f4e487b7100000000000000000000000000000000000000000000000000000000600052602160045260246000fd5b815260200190815260200160002060009054906101000a900473ffffffffffffffffffffffffffffffffffffffff1673ffffffffffffffffffffffffffffffffffffffff166370a08231306040518263ffffffff1660e01b81526004016115609190613bb4565b60206040518083038186803b15801561157857600080fd5b505afa15801561158c573d6000803e3d6000fd5b505050506040513d601f19601f820116820180604052508101906115b0919061373e565b9050600060046040516115c290613b9f565b90815260200160405180910390206000016040516115df90613b8a565b908152602001604051809103902060010160009054906101000a900460ff16600a61160a9190614070565b600460405161161890613b9f565b908152602001604051809103902060000160405161163590613b8a565b90815260200160405180910390206000015489611652919061418e565b61165c9190613fa1565b9050808210156116a1576040517f08c379a000000000000000000000000000000000000000000000000000000000815260040161169890613da9565b60405180910390fd5b60036000600260098111156116df577f4e487b7100000000000000000000000000000000000000000000000000000000600052602160045260246000fd5b6009811115611717577f4e487b7100000000000000000000000000000000000000000000000000000000600052602160045260246000fd5b815260200190815260200160002060009054906101000a900473ffffffffffffffffffffffffffffffffffffffff1673ffffffffffffffffffffffffffffffffffffffff1663095ea7b373e592427a0aece92de3edee1f18e0157c05861564836040518363ffffffff1660e01b8152600401611794929190613c2f565b602060405180830381600087803b1580156117ae57600080fd5b505af11580156117c2573d6000803e3d6000fd5b505050506040513d601f19601f820116820180604052508101906117e691906135b1565b506003600060026009811115611825577f4e487b7100000000000000000000000000000000000000000000000000000000600052602160045260246000fd5b600981111561185d577f4e487b7100000000000000000000000000000000000000000000000000000000600052602160045260246000fd5b815260200190815260200160002060009054906101000a900473ffffffffffffffffffffffffffffffffffffffff1698508097505050611af7565b60036000600460098111156118d6577f4e487b7100000000000000000000000000000000000000000000000000000000600052602160045260246000fd5b600981111561190e577f4e487b7100000000000000000000000000000000000000000000000000000000600052602160045260246000fd5b815260200190815260200160002060009054906101000a900473ffffffffffffffffffffffffffffffffffffffff1673ffffffffffffffffffffffffffffffffffffffff168773ffffffffffffffffffffffffffffffffffffffff16148015611a46575060036000600160098111156119b0577f4e487b7100000000000000000000000000000000000000000000000000000000600052602160045260246000fd5b60098111156119e8577f4e487b7100000000000000000000000000000000000000000000000000000000600052602160045260246000fd5b815260200190815260200160002060009054906101000a900473ffffffffffffffffffffffffffffffffffffffff1673ffffffffffffffffffffffffffffffffffffffff168573ffffffffffffffffffffffffffffffffffffffff16145b15611af6576003600060026009811115611a89577f4e487b7100000000000000000000000000000000000000000000000000000000600052602160045260246000fd5b6009811115611ac1577f4e487b7100000000000000000000000000000000000000000000000000000000600052602160045260246000fd5b815260200190815260200160002060009054906101000a900473ffffffffffffffffffffffffffffffffffffffff1694503090505b5b60006040518061010001604052808973ffffffffffffffffffffffffffffffffffffffff1681526020018773ffffffffffffffffffffffffffffffffffffffff168152602001610bb862ffffff1681526020018373ffffffffffffffffffffffffffffffffffffffff1681526020018542611b729190613f14565b8152602001888152602001868152602001600073ffffffffffffffffffffffffffffffffffffffff16815250905073e592427a0aece92de3edee1f18e0157c0586156473ffffffffffffffffffffffffffffffffffffffff1663414bf389826040518263ffffffff1660e01b8152600401611bed9190613e09565b602060405180830381600087803b158015611c0757600080fd5b505af1158015611c1b573d6000803e3d6000fd5b505050506040513d601f19601f82011682018060405250810190611c3f919061373e565b92506003600060046009811115611c7f577f4e487b7100000000000000000000000000000000000000000000000000000000600052602160045260246000fd5b6009811115611cb7577f4e487b7100000000000000000000000000000000000000000000000000000000600052602160045260246000fd5b815260200190815260200160002060009054906101000a900473ffffffffffffffffffffffffffffffffffffffff1673ffffffffffffffffffffffffffffffffffffffff168873ffffffffffffffffffffffffffffffffffffffff16148015611def57506003600060016009811115611d59577f4e487b7100000000000000000000000000000000000000000000000000000000600052602160045260246000fd5b6009811115611d91577f4e487b7100000000000000000000000000000000000000000000000000000000600052602160045260246000fd5b815260200190815260200160002060009054906101000a900473ffffffffffffffffffffffffffffffffffffffff1673ffffffffffffffffffffffffffffffffffffffff168673ffffffffffffffffffffffffffffffffffffffff16145b15611fc75760006004604051611e0490613b9f565b9081526020016040518091039020600001604051611e2190613b8a565b9081526020016040518091039020600001546004604051611e4190613b9f565b9081526020016040518091039020600001604051611e5e90613b8a565b908152602001604051809103902060000154600a611e7c9190614025565b85611e87919061418e565b611e919190613fa1565b90506003600060016009811115611ed1577f4e487b7100000000000000000000000000000000000000000000000000000000600052602160045260246000fd5b6009811115611f09577f4e487b7100000000000000000000000000000000000000000000000000000000600052602160045260246000fd5b815260200190815260200160002060009054906101000a900473ffffffffffffffffffffffffffffffffffffffff1673ffffffffffffffffffffffffffffffffffffffff1663a9059cbb33836040518363ffffffff1660e01b8152600401611f72929190613c2f565b602060405180830381600087803b158015611f8c57600080fd5b505af1158015611fa0573d6000803e3d6000fd5b505050506040513d601f19601f82011682018060405250810190611fc491906135b1565b50505b505095945050505050565b600073ffffffffffffffffffffffffffffffffffffffff1660018054906101000a900473ffffffffffffffffffffffffffffffffffffffff1673ffffffffffffffffffffffffffffffffffffffff161415612062576040517f08c379a000000000000000000000000000000000000000000000000000000000815260040161205990613d09565b60405180910390fd5b60018054906101000a900473ffffffffffffffffffffffffffffffffffffffff1673ffffffffffffffffffffffffffffffffffffffff163373ffffffffffffffffffffffffffffffffffffffff16146120f0576040517f08c379a00000000000000000000000000000000000000000000000000000000081526004016120e790613ce9565b60405180910390fd5b80600073ffffffffffffffffffffffffffffffffffffffff168173ffffffffffffffffffffffffffffffffffffffff161415612161576040517f08c379a000000000000000000000000000000000000000000000000000000000815260040161215890613d89565b60405180910390fd5b60016000808473ffffffffffffffffffffffffffffffffffffffff1673ffffffffffffffffffffffffffffffffffffffff16815260200190815260200160002060006101000a81548160ff02191690831515021790555060018060009054906101000a900460ff166121d39190613f6a565b600160006101000a81548160ff021916908360ff1602179055505050565b73e592427a0aece92de3edee1f18e0157c0586156481565b60025481565b8060028190555050565b600081600060028110612255577f4e487b7100000000000000000000000000000000000000000000000000000000600052603260045260246000fd5b6020020151600073ffffffffffffffffffffffffffffffffffffffff168173ffffffffffffffffffffffffffffffffffffffff1614156122ca576040517f08c379a00000000000000000000000000000000000000000000000000000000081526004016122c190613d89565b60405180910390fd5b82600160028110612304577f4e487b7100000000000000000000000000000000000000000000000000000000600052603260045260246000fd5b6020020151600073ffffffffffffffffffffffffffffffffffffffff168173ffffffffffffffffffffffffffffffffffffffff161415612379576040517f08c379a000000000000000000000000000000000000000000000000000000000815260040161237090613d89565b60405180910390fd5b600085116123bc576040517f08c379a00000000000000000000000000000000000000000000000000000000081526004016123b390613d49565b60405180910390fd5b6000600f426123cb9190613f14565b9050600085600060028110612409577f4e487b7100000000000000000000000000000000000000000000000000000000600052603260045260246000fd5b6020020151905060008660016002811061244c577f4e487b7100000000000000000000000000000000000000000000000000000000600052603260045260246000fd5b602002015190506000610bb89050600033905060008060036000600160098111156124a0577f4e487b7100000000000000000000000000000000000000000000000000000000600052602160045260246000fd5b60098111156124d8577f4e487b7100000000000000000000000000000000000000000000000000000000600052602160045260246000fd5b815260200190815260200160002060009054906101000a900473ffffffffffffffffffffffffffffffffffffffff1673ffffffffffffffffffffffffffffffffffffffff168b600060028110612557577f4e487b7100000000000000000000000000000000000000000000000000000000600052603260045260246000fd5b602002015173ffffffffffffffffffffffffffffffffffffffff1614156127e15760036000600460098111156125b6577f4e487b7100000000000000000000000000000000000000000000000000000000600052602160045260246000fd5b60098111156125ee577f4e487b7100000000000000000000000000000000000000000000000000000000600052602160045260246000fd5b815260200190815260200160002060009054906101000a900473ffffffffffffffffffffffffffffffffffffffff1673ffffffffffffffffffffffffffffffffffffffff168b60016002811061266d577f4e487b7100000000000000000000000000000000000000000000000000000000600052603260045260246000fd5b602002015173ffffffffffffffffffffffffffffffffffffffff1614156127e057600460405161269c90613b9f565b90815260200160405180910390206000016040516126b990613b8a565b908152602001604051809103902060010160009054906101000a900460ff16600a6126e49190614070565b8c60046040516126f390613b9f565b908152602001604051809103902060000160405161271090613b8a565b90815260200160405180910390206000015461272c919061418e565b6127369190613fa1565b9b506003600060026009811115612776577f4e487b7100000000000000000000000000000000000000000000000000000000600052602160045260246000fd5b60098111156127ae577f4e487b7100000000000000000000000000000000000000000000000000000000600052602160045260246000fd5b815260200190815260200160002060009054906101000a900473ffffffffffffffffffffffffffffffffffffffff1695505b5b60006040518061010001604052808873ffffffffffffffffffffffffffffffffffffffff1681526020018773ffffffffffffffffffffffffffffffffffffffff1681526020018662ffffff1681526020018573ffffffffffffffffffffffffffffffffffffffff1681526020018981526020018e81526020018481526020018373ffffffffffffffffffffffffffffffffffffffff16815250905073e592427a0aece92de3edee1f18e0157c0586156473ffffffffffffffffffffffffffffffffffffffff1663414bf389826040518263ffffffff1660e01b81526004016128c99190613e09565b602060405180830381600087803b1580156128e357600080fd5b505af11580156128f7573d6000803e3d6000fd5b505050506040513d601f19601f8201168201806040525081019061291b919061373e565b9a50600360006004600981111561295b577f4e487b7100000000000000000000000000000000000000000000000000000000600052602160045260246000fd5b6009811115612993577f4e487b7100000000000000000000000000000000000000000000000000000000600052602160045260246000fd5b815260200190815260200160002060009054906101000a900473ffffffffffffffffffffffffffffffffffffffff1673ffffffffffffffffffffffffffffffffffffffff168c600060028110612a12577f4e487b7100000000000000000000000000000000000000000000000000000000600052603260045260246000fd5b602002015173ffffffffffffffffffffffffffffffffffffffff16148015612b4757506003600060016009811115612a73577f4e487b7100000000000000000000000000000000000000000000000000000000600052602160045260246000fd5b6009811115612aab577f4e487b7100000000000000000000000000000000000000000000000000000000600052602160045260246000fd5b815260200190815260200160002060009054906101000a900473ffffffffffffffffffffffffffffffffffffffff1673ffffffffffffffffffffffffffffffffffffffff168c600160028110612b2a577f4e487b7100000000000000000000000000000000000000000000000000000000600052603260045260246000fd5b602002015173ffffffffffffffffffffffffffffffffffffffff16145b15612bea576004604051612b5a90613b9f565b9081526020016040518091039020600001604051612b7790613b8a565b9081526020016040518091039020600001546004604051612b9790613b9f565b9081526020016040518091039020600001604051612bb490613b8a565b908152602001604051809103902060000154600a612bd29190614025565b8c612bdd919061418e565b612be79190613fa1565b9a505b5050505050505050505092915050565b73b27308f9f90d607463bb33ea1bebb41c27ce5ab681565b60006003600a612c229190614070565b6002546003600060016009811115612c63577f4e487b7100000000000000000000000000000000000000000000000000000000600052602160045260246000fd5b6009811115612c9b577f4e487b7100000000000000000000000000000000000000000000000000000000600052602160045260246000fd5b815260200190815260200160002060009054906101000a900473ffffffffffffffffffffffffffffffffffffffff1673ffffffffffffffffffffffffffffffffffffffff1663313ce5676040518163ffffffff1660e01b8152600401602060405180830381600087803b158015612d1157600080fd5b505af1158015612d25573d6000803e3d6000fd5b505050506040513d601f19601f82011682018060405250810190612d4991906137a3565b600a612d559190614070565b84612d60919061418e565b612d6a919061418e565b612d749190613fa1565b9050919050565b612d8361335a565b600483604051612d939190613b73565b908152602001604051809103902060000182604051612db29190613b73565b9081526020016040518091039020604051806040016040529081600082015481526020016001820160009054906101000a900460ff1660ff1660ff1681525050905092915050565b81600485604051612e0b9190613b73565b908152602001604051809103902060000184604051612e2a9190613b73565b90815260200160405180910390206000018190555080600485604051612e509190613b73565b908152602001604051809103902060000184604051612e6f9190613b73565b908152602001604051809103902060010160006101000a81548160ff021916908360ff16021790555050505050565b600073ffffffffffffffffffffffffffffffffffffffff163373ffffffffffffffffffffffffffffffffffffffff161415612f0e576040517f08c379a0000000000000000000000000000000000000000000000000000000008152600401612f0590613d09565b60405180910390fd5b6000803373ffffffffffffffffffffffffffffffffffffffff1673ffffffffffffffffffffffffffffffffffffffff16815260200190815260200160002060009054906101000a900460ff16612f99576040517f08c379a0000000000000000000000000000000000000000000000000000000008152600401612f9090613de9565b60405180910390fd5b6003600060016009811115612fd7577f4e487b7100000000000000000000000000000000000000000000000000000000600052602160045260246000fd5b600981111561300f577f4e487b7100000000000000000000000000000000000000000000000000000000600052602160045260246000fd5b815260200190815260200160002060009054906101000a900473ffffffffffffffffffffffffffffffffffffffff1673ffffffffffffffffffffffffffffffffffffffff1663a0712d68826040518263ffffffff1660e01b81526004016130769190613e40565b600060405180830381600087803b15801561309057600080fd5b505af11580156130a4573d6000803e3d6000fd5b505050506131fe60036000600160098111156130e9577f4e487b7100000000000000000000000000000000000000000000000000000000600052602160045260246000fd5b6009811115613121577f4e487b7100000000000000000000000000000000000000000000000000000000600052602160045260246000fd5b815260200190815260200160002060009054906101000a900473ffffffffffffffffffffffffffffffffffffffff1682600360006002600981111561318f577f4e487b7100000000000000000000000000000000000000000000000000000000600052602160045260246000fd5b60098111156131c7577f4e487b7100000000000000000000000000000000000000000000000000000000600052602160045260246000fd5b815260200190815260200160002060009054906101000a900473ffffffffffffffffffffffffffffffffffffffff16600042610fa3565b5050565b6000808573ffffffffffffffffffffffffffffffffffffffff166323b872dd60e01b86868660405160240161323993929190613bf8565b604051602081830303815290604052907bffffffffffffffffffffffffffffffffffffffffffffffffffffffff19166020820180517bffffffffffffffffffffffffffffffffffffffffffffffffffffffff83818316178352505050506040516132a39190613b5c565b6000604051808303816000865af19150503d80600081146132e0576040519150601f19603f3d011682016040523d82523d6000602084013e6132e5565b606091505b5091509150818015613313575060008151148061331257508080602001905181019061331191906135b1565b5b5b613352576040517f08c379a000000000000000000000000000000000000000000000000000000000815260040161334990613d69565b60405180910390fd5b505050505050565b604051806040016040528060008152602001600060ff1681525090565b600061338a61338584613e80565b613e5b565b905080828560208602820111156133a057600080fd5b60005b858110156133d057816133b68882613418565b8452602084019350602083019250506001810190506133a3565b5050509392505050565b60006133ed6133e884613ea6565b613e5b565b90508281526020810184848401111561340557600080fd5b6134108482856142fc565b509392505050565b6000813590506134278161467b565b92915050565b60008135905061343c81614692565b92915050565b600082601f83011261345357600080fd5b6002613460848285613377565b91505092915050565b600081519050613478816146a9565b92915050565b60008135905061348d816146c0565b92915050565b600082601f8301126134a457600080fd5b81356134b48482602086016133da565b91505092915050565b6000813590506134cc816146d0565b92915050565b6000815190506134e1816146d0565b92915050565b6000813590506134f6816146e7565b92915050565b60008151905061350b816146e7565b92915050565b60006020828403121561352357600080fd5b600061353184828501613418565b91505092915050565b600080600080600060a0868803121561355257600080fd5b600061356088828901613418565b9550506020613571888289016134bd565b945050604061358288828901613418565b9350506060613593888289016134bd565b92505060806135a4888289016134bd565b9150509295509295909350565b6000602082840312156135c357600080fd5b60006135d184828501613469565b91505092915050565b600080604083850312156135ed57600080fd5b60006135fb8582860161347e565b925050602061360c8582860161342d565b9150509250929050565b6000806040838503121561362957600080fd5b600083013567ffffffffffffffff81111561364357600080fd5b61364f85828601613493565b925050602083013567ffffffffffffffff81111561366c57600080fd5b61367885828601613493565b9150509250929050565b6000806000806080858703121561369857600080fd5b600085013567ffffffffffffffff8111156136b257600080fd5b6136be87828801613493565b945050602085013567ffffffffffffffff8111156136db57600080fd5b6136e787828801613493565b93505060406136f8878288016134bd565b9250506060613709878288016134e7565b91505092959194509250565b60006020828403121561372757600080fd5b6000613735848285016134bd565b91505092915050565b60006020828403121561375057600080fd5b600061375e848285016134d2565b91505092915050565b6000806060838503121561377a57600080fd5b6000613788858286016134bd565b925050602061379985828601613442565b9150509250929050565b6000602082840312156137b557600080fd5b60006137c3848285016134fc565b91505092915050565b6137d58161422a565b82525050565b6137e48161422a565b82525050565b6137f38161424e565b82525050565b600061380482613ed7565b61380e8185613eed565b935061381e81856020860161430b565b80840191505092915050565b613833816142b4565b82525050565b613842816142d8565b82525050565b600061385382613ee2565b61385d8185613f09565b935061386d81856020860161430b565b80840191505092915050565b6000613886600383613f09565b91506138918261441a565b600382019050919050565b60006138a9601683613ef8565b91506138b482614443565b602082019050919050565b60006138cc603283613ef8565b91506138d78261446c565b604082019050919050565b60006138ef601e83613ef8565b91506138fa826144bb565b602082019050919050565b6000613912601783613ef8565b915061391d826144e4565b602082019050919050565b6000613935601683613ef8565b91506139408261450d565b602082019050919050565b6000613958601083613ef8565b915061396382614536565b602082019050919050565b600061397b600483613f09565b91506139868261455f565b600482019050919050565b600061399e600383613ef8565b91506139a982614588565b602082019050919050565b60006139c1601983613ef8565b91506139cc826145b1565b602082019050919050565b60006139e4602883613ef8565b91506139ef826145da565b604082019050919050565b6000613a07601683613ef8565b9150613a1282614629565b602082019050919050565b6000613a2a600d83613ef8565b9150613a3582614652565b602082019050919050565b61010082016000820151613a5760008501826137cc565b506020820151613a6a60208501826137cc565b506040820151613a7d6040850182613b20565b506060820151613a9060608501826137cc565b506080820151613aa36080850182613b2f565b5060a0820151613ab660a0850182613b2f565b5060c0820151613ac960c0850182613b2f565b5060e0820151613adc60e0850182613b11565b50505050565b604082016000820151613af86000850182613b2f565b506020820151613b0b6020850182613b4d565b50505050565b613b1a8161425a565b82525050565b613b298161427a565b82525050565b613b3881614289565b82525050565b613b4781614289565b82525050565b613b56816142a7565b82525050565b6000613b6882846137f9565b915081905092915050565b6000613b7f8284613848565b915081905092915050565b6000613b9582613879565b9150819050919050565b6000613baa8261396e565b9150819050919050565b6000602082019050613bc960008301846137db565b92915050565b6000604082019050613be460008301856137db565b613bf160208301846137db565b9392505050565b6000606082019050613c0d60008301866137db565b613c1a60208301856137db565b613c276040830184613b3e565b949350505050565b6000604082019050613c4460008301856137db565b613c516020830184613b3e565b9392505050565b6000602082019050613c6d60008301846137ea565b92915050565b6000602082019050613c88600083018461382a565b92915050565b6000602082019050613ca36000830184613839565b92915050565b60006020820190508181036000830152613cc28161389c565b9050919050565b60006020820190508181036000830152613ce2816138bf565b9050919050565b60006020820190508181036000830152613d02816138e2565b9050919050565b60006020820190508181036000830152613d2281613905565b9050919050565b60006020820190508181036000830152613d4281613928565b9050919050565b60006020820190508181036000830152613d628161394b565b9050919050565b60006020820190508181036000830152613d8281613991565b9050919050565b60006020820190508181036000830152613da2816139b4565b9050919050565b60006020820190508181036000830152613dc2816139d7565b9050919050565b60006020820190508181036000830152613de2816139fa565b9050919050565b60006020820190508181036000830152613e0281613a1d565b9050919050565b600061010082019050613e1f6000830184613a40565b92915050565b6000604082019050613e3a6000830184613ae2565b92915050565b6000602082019050613e556000830184613b3e565b92915050565b6000613e65613e76565b9050613e71828261433e565b919050565b6000604051905090565b600067ffffffffffffffff821115613e9b57613e9a6143cd565b5b602082029050919050565b600067ffffffffffffffff821115613ec157613ec06143cd565b5b613eca826143fc565b9050602081019050919050565b600081519050919050565b600081519050919050565b600081905092915050565b600082825260208201905092915050565b600081905092915050565b6000613f1f82614289565b9150613f2a83614289565b9250827fffffffffffffffffffffffffffffffffffffffffffffffffffffffffffffffff03821115613f5f57613f5e61436f565b5b828201905092915050565b6000613f75826142a7565b9150613f80836142a7565b92508260ff03821115613f9657613f9561436f565b5b828201905092915050565b6000613fac82614289565b9150613fb783614289565b925082613fc757613fc661439e565b5b828204905092915050565b6000808291508390505b600185111561401c57808604811115613ff857613ff761436f565b5b60018516156140075780820291505b80810290506140158561440d565b9450613fdc565b94509492505050565b600061403082614289565b915061403b83614289565b92506140687fffffffffffffffffffffffffffffffffffffffffffffffffffffffffffffffff84846140bb565b905092915050565b600061407b82614289565b9150614086836142a7565b92506140b37fffffffffffffffffffffffffffffffffffffffffffffffffffffffffffffffff84846140bb565b905092915050565b6000826140cb5760019050614187565b816140d95760009050614187565b81600181146140ef57600281146140f957614128565b6001915050614187565b60ff84111561410b5761410a61436f565b5b8360020a9150848211156141225761412161436f565b5b50614187565b5060208310610133831016604e8410600b841016171561415d5782820a9050838111156141585761415761436f565b5b614187565b61416a8484846001613fd2565b925090508184048111156141815761418061436f565b5b81810290505b9392505050565b600061419982614289565b91506141a483614289565b9250817fffffffffffffffffffffffffffffffffffffffffffffffffffffffffffffffff04831182151516156141dd576141dc61436f565b5b828202905092915050565b60006141f382614293565b91506141fe83614293565b92508167ffffffffffffffff048311821515161561421f5761421e61436f565b5b828202905092915050565b60006142358261425a565b9050919050565b60006142478261425a565b9050919050565b60008115159050919050565b600073ffffffffffffffffffffffffffffffffffffffff82169050919050565b600062ffffff82169050919050565b6000819050919050565b600067ffffffffffffffff82169050919050565b600060ff82169050919050565b60006142bf826142c6565b9050919050565b60006142d18261425a565b9050919050565b60006142e3826142ea565b9050919050565b60006142f58261425a565b9050919050565b82818337600083830152505050565b60005b8381101561432957808201518184015260208101905061430e565b83811115614338576000848401525b50505050565b614347826143fc565b810181811067ffffffffffffffff82111715614366576143656143cd565b5b80604052505050565b7f4e487b7100000000000000000000000000000000000000000000000000000000600052601160045260246000fd5b7f4e487b7100000000000000000000000000000000000000000000000000000000600052601260045260246000fd5b7f4e487b7100000000000000000000000000000000000000000000000000000000600052604160045260246000fd5b6000601f19601f8301169050919050565b60008160011c9050919050565b7f4f43580000000000000000000000000000000000000000000000000000000000600082015250565b7f496e76616c696420636f6e747261637420696e64657800000000000000000000600082015250565b7f4f637845786368616e67652e7377617028293a20617070726f766520666f722060008201527f74686520726f75746572206661696c65642e0000000000000000000000000000602082015250565b7f466f722063616c6c65722065787065637465642062652063726561746f720000600082015250565b7f496e76616c69642063726561746f722061646472657373000000000000000000600082015250565b7f496e73756666696369656e7420616c6c6f77616e636500000000000000000000600082015250565b7f496e76616c696420616d6f756e74496e00000000000000000000000000000000600082015250565b7f4f43415400000000000000000000000000000000000000000000000000000000600082015250565b7f5354460000000000000000000000000000000000000000000000000000000000600082015250565b7f4578706563746564206e6f6e2d7a65726f206164647265737300000000000000600082015250565b7f496e73756666696369656e74204f43582062616c616e636520696e207468652060008201527f636f6e7472616374000000000000000000000000000000000000000000000000602082015250565b7f496e76616c6964204f4341542f4f43582071756f746500000000000000000000600082015250565b7f4d7573742062652061646d696e00000000000000000000000000000000000000600082015250565b6146848161422a565b811461468f57600080fd5b50565b61469b8161423c565b81146146a657600080fd5b50565b6146b28161424e565b81146146bd57600080fd5b50565b600a81106146cd57600080fd5b50565b6146d981614289565b81146146e457600080fd5b50565b6146f0816142a7565b81146146fb57600080fd5b5056fea26469706673582212206412abbe22ae2aebcea5fd8988825e392332678fba6eb2098e1d0bfafa3fd6ac64736f6c63430008040033",
  "immutableReferences": {},
  "source": "// SPDX-License-Identifier: MIT\npragma solidity ^0.8.0;\n\n// https://soliditydeveloper.com/uniswap2\n// https://docs.uniswap.org/protocol/V2/guides/smart-contract-integration/trading-from-a-smart-contract\n// https://ethereum.org/ru/developers/tutorials/transfers-and-approval-of-erc-20-tokens-from-a-solidity-smart-contract/\n// https://solidity-by-example.org/app/erc20/\n\nimport \"@uniswap/v3-periphery/contracts/interfaces/ISwapRouter.sol\";\nimport \"@uniswap/v3-periphery/contracts/interfaces/IQuoter.sol\";\n// import \"@uniswap/v2-periphery/contracts/interfaces/IUniswapV2Router02.sol\";\nimport '@uniswap/v3-periphery/contracts/libraries/TransferHelper.sol';\nimport \"@openzeppelin/contracts/token/ERC20/IERC20.sol\"; // openzeppelin 4.5 (for solidity 0.8.x)\nimport \"@openzeppelin/contracts/utils/Strings.sol\";\nimport \"@openzeppelin/contracts/token/ERC721/IERC721.sol\";\nimport \"./OcxBase.sol\";\nimport \"./PawnNFTs.sol\";\nimport \"./OcatToken.sol\";\nimport \"./common/OcxCommon.sol\";\n\ncontract OcxExchange is OcxBase {\n\n    // IUniswapV2Router02  public uniswapRouter;\n    ISwapRouter public constant uniswapRouter = ISwapRouter(UNISWAP_V3_ROUTER_ADDRESS);\n    IQuoter public constant quoter = IQuoter(UNISWAP_V3_QUOTER_ADDRESS);\n    // address payable private ocxLocalPoolAddress;\n    mapping(string => CurrencyPriceInfo) private quotes;\n\n\n    event estimatedOcxAmountForBurningOcat(uint256);\n\n    receive() external payable {}\n\n    constructor() {\n        // uniswapRouter = IUniswapV2Router02(UNISWAP_V3_ROUTER_ADDRESS);\n    }\n\n    function swap(\n        address _tokenIn,\n        uint _amountIn,\n        address _tokenOut,\n        uint _amountOutMin,\n        uint _deadline\n    ) public \n    returns(uint amountOut) {\n        require(quotes[\"OCAT\"].vs[\"OCX\"].decimals > 0, \"Invalid OCAT/OCX quote\");\n        // transferFrom\n        //    Check for allowance\n        if (_tokenIn != contractAddress[CommonContracts.WETH]) {\n            uint256 allowance = IERC20(_tokenIn).allowance(msg.sender, address(this));\n            require(allowance >= _amountIn, \"Insufficient allowance\");\n            //     Do transferFrom\n            // approve\n            require(\n                IERC20(_tokenIn).approve(address(UNISWAP_V3_ROUTER_ADDRESS), _amountIn), \n                'OcxExchange.swap(): approve for the router failed.'\n            );\n        }\n        TransferHelper.safeTransferFrom(_tokenIn, msg.sender, address(this), _amountIn);\n        // \n        address recipient = msg.sender;\n        if (_tokenIn == contractAddress[CommonContracts.OCAT] \n         && _tokenOut == contractAddress[CommonContracts.UNI]) {\n            uint256 ocxBalance = IERC20(contractAddress[CommonContracts.OCX]).balanceOf(address(this));\n            uint256 ocxAmount = (_amountIn * quotes[\"OCAT\"].vs[\"OCX\"].value) / \n                                (10 ** quotes[\"OCAT\"].vs[\"OCX\"].decimals);\n            require(ocxBalance >= ocxAmount, \"Insufficient OCX balance in the contract\");\n            IERC20(contractAddress[CommonContracts.OCX]).approve(UNISWAP_V3_ROUTER_ADDRESS, ocxAmount);\n            _tokenIn = contractAddress[CommonContracts.OCX];\n            _amountIn = ocxAmount;\n        } else if (_tokenIn == contractAddress[CommonContracts.UNI] \n                && _tokenOut == contractAddress[CommonContracts.OCAT]) {\n            // Tophalf for UNI->OCAT swap\n            _tokenOut = contractAddress[CommonContracts.OCX];\n            recipient = address(this);\n        }\n\n        ISwapRouter.ExactInputSingleParams memory params =\n            ISwapRouter.ExactInputSingleParams({\n                tokenIn: _tokenIn,\n                tokenOut: _tokenOut,\n                fee: POOL_FEE,\n                recipient: recipient,\n                deadline: block.timestamp + _deadline,\n                amountIn: _amountIn,\n                amountOutMinimum: _amountOutMin,\n                sqrtPriceLimitX96: 0\n            });\n\n        // The call to `exactInputSingle` executes the swap.\n        amountOut = uniswapRouter.exactInputSingle(params);\n\n        // Bottomhalf for UNI->OCAT swap\n        if (_tokenIn == contractAddress[CommonContracts.UNI] \n        && _tokenOut == contractAddress[CommonContracts.OCAT]) {\n            uint256 ocatAmount = (amountOut * (10 ** quotes[\"OCAT\"].vs[\"OCX\"].value)) / \n                                quotes[\"OCAT\"].vs[\"OCX\"].value;\n            IERC20(contractAddress[CommonContracts.OCAT]).transfer(msg.sender, ocatAmount);\n        }\n    }\n    function getAmountsOut(uint256 amountIn, address[2] memory path) public \n    onlyValidAddress(path[0]) onlyValidAddress(path[1])\n    returns(uint256 expectedAmountOut) {\n        require(amountIn > 0, \"Invalid amountIn\");\n        uint256 deadline = block.timestamp + 15; // using 'now' for convenience, for mainnet pass deadline from frontend!\n        address tokenIn = path[0];\n        address tokenOut = path[1];\n        uint24 fee = 3000;\n        address recipient = msg.sender;\n        uint256 amountOutMinimum = 0;\n        uint160 sqrtPriceLimitX96 = 0;\n\n        if (path[0] == contractAddress[CommonContracts.OCAT]) {\n            if (path[1] == contractAddress[CommonContracts.UNI]) {\n                // Get OCAT:OCX quote and calculate OCX amount for \"amountIn\"\n                amountIn = (quotes[\"OCAT\"].vs[\"OCX\"].value * amountIn) / \n                           (10 ** quotes[\"OCAT\"].vs[\"OCX\"].decimals);\n                // Get OCX:UNI quote\n                // Multiple it by OCAT:OCX quote\n                tokenIn = contractAddress[CommonContracts.OCX];\n            }\n        }\n        ISwapRouter.ExactInputSingleParams  memory params = ISwapRouter.ExactInputSingleParams  (\n            tokenIn,\n            tokenOut,\n            fee,\n            recipient,\n            deadline,\n            amountIn,\n            amountOutMinimum,\n            sqrtPriceLimitX96\n        );\n        expectedAmountOut = uniswapRouter.exactInputSingle(params);\n        if (path[0] == contractAddress[CommonContracts.UNI] \n        && path[1] == contractAddress[CommonContracts.OCAT]) {\n            expectedAmountOut = (expectedAmountOut * (10 ** quotes[\"OCAT\"].vs[\"OCX\"].value)) / \n                                quotes[\"OCAT\"].vs[\"OCX\"].value;\n        }\n    }\n    /**\n     *  Mint OCAT by funding ETH\n     */\n    function mintOcat() public payable \n    onlyAdmin onlyValidAddress(contractAddress[CommonContracts.PRICE_ORACLE]) \n    onlyValidAddress(contractAddress[CommonContracts.OCAT]) {\n        OcxPrice memory ethAudPriceInfo = quotes[\"OCAT\"].vs[\"OCX\"];\n        uint8 ocatDecimals = IOcat(contractAddress[CommonContracts.OCAT]).decimals();\n        mintOcat(\n            (msg.value * ethAudPriceInfo.value * (10**ocatDecimals)) / \n            ((10**18) * ethAudPriceInfo.decimals)\n        );\n    }\n    /**\n     * Mint OCAT as specified amount\n     */\n    function mintOcat(uint256 amount) internal onlyAdmin {\n        IOcxERC20(contractAddress[CommonContracts.OCAT]).mint(amount);\n        swap(\n            contractAddress[CommonContracts.OCAT], amount, \n            contractAddress[CommonContracts.OCX], 0, \n            block.timestamp\n        );\n    }\n    function _getEstimatedOcxforOcat(uint ocatAmount) internal returns (uint256) {\n        address tokenIn = contractAddress[CommonContracts.OCX];\n        address tokenOut = contractAddress[CommonContracts.OCAT];\n        uint24 fee = 3000;\n        uint160 sqrtPriceLimitX96 = 0;\n\n        // getQuoteAtTick()\n        return quoter.quoteExactOutputSingle(\n            tokenIn,\n            tokenOut,\n            fee,\n            ocatAmount,\n            sqrtPriceLimitX96\n        );\n    }\n    function burnOcat(uint256 amount) internal onlyAdmin {\n        IERC20 ocat = IERC20(contractAddress[CommonContracts.OCAT]);\n        if (ocat.balanceOf(address(this)) < amount) {\n            uint256 ocxAmount = _getEstimatedOcxforOcat(amount);\n            IERC20 ocx = IERC20(contractAddress[CommonContracts.OCX]);\n            /*********************************************************\n             * Warn to admin to deposit additional ETHs\n             *********************************************************/\n            require(ocx.balanceOf(address(this)) < ocxAmount, \"1\");\n            //////////////////////////////////////////////////////////\n            emit estimatedOcxAmountForBurningOcat(ocxAmount);\n            IERC20(contractAddress[CommonContracts.OCX]).approve(UNISWAP_V3_ROUTER_ADDRESS, ocxAmount);\n            swap(\n                contractAddress[CommonContracts.OCX], ocxAmount, \n                contractAddress[CommonContracts.OCAT], 0, \n                block.timestamp\n            );\n        }\n        IOcxERC20(contractAddress[CommonContracts.OCAT]).burn(amount);\n    }\n    function mintOcx(uint256 amount) public payable onlyAdmin  {\n        IOcxERC20(contractAddress[CommonContracts.OCX]).mint(amount);\n    }\n    function burnOcx(uint256 amount) internal onlyAdmin {\n        IOcxERC20(contractAddress[CommonContracts.OCX]).burn(amount);\n    }\n    function setQuote(string memory left, string memory right, uint256 newQuote, uint8 quoteDecimals) public {\n        quotes[left].vs[right].value = newQuote;\n        quotes[left].vs[right].decimals = quoteDecimals;\n    }\n    function getQuote(string memory left, string memory right) public view returns(OcxPrice memory) {\n        return quotes[left].vs[right];\n    }\n}\n",
  "sourcePath": "/home/openchainx/OpenchainTestVersion/server/contracts/OcxExchange.sol",
  "compiler": {
    "name": "solc",
    "version": "0.8.4+commit.c7e474f2.Emscripten.clang"
  },
  "schemaVersion": "3.4.7",
  "updatedAt": "2022-05-04T20:46:48.498Z",
  "networkType": "ethereum",
  "devdoc": {
    "kind": "dev",
    "methods": {},
    "version": 1
  },
  "userdoc": {
    "kind": "user",
    "methods": {
      "mintOcat()": {
        "notice": "Mint OCAT by funding ETH"
      }
    },
    "version": 1
  }
}