{
  "contractName": "OcxExchange",
  "abi": [
    {
      "inputs": [],
      "stateMutability": "nonpayable",
      "type": "constructor"
    },
    {
      "anonymous": false,
      "inputs": [
        {
          "indexed": false,
          "internalType": "uint256",
          "name": "",
          "type": "uint256"
        }
      ],
      "name": "estimatedOcxAmountForBurningOcat",
      "type": "event"
    },
    {
      "inputs": [
        {
          "internalType": "address",
          "name": "_admin",
          "type": "address"
        }
      ],
      "name": "addAdmin",
      "outputs": [],
      "stateMutability": "nonpayable",
      "type": "function"
    },
    {
      "inputs": [
        {
          "internalType": "uint256",
          "name": "price",
          "type": "uint256"
        }
      ],
      "name": "convertToOcat",
      "outputs": [
        {
          "internalType": "uint256",
          "name": "_ocatPrice",
          "type": "uint256"
        }
      ],
      "stateMutability": "nonpayable",
      "type": "function"
    },
    {
      "inputs": [
        {
          "internalType": "address",
          "name": "_address",
          "type": "address"
        }
      ],
      "name": "isAdmin",
      "outputs": [
        {
          "internalType": "bool",
          "name": "yes",
          "type": "bool"
        }
      ],
      "stateMutability": "view",
      "type": "function",
      "constant": true
    },
    {
      "inputs": [],
      "name": "ocatPrice",
      "outputs": [
        {
          "internalType": "uint256",
          "name": "",
          "type": "uint256"
        }
      ],
      "stateMutability": "view",
      "type": "function",
      "constant": true
    },
    {
      "inputs": [],
      "name": "quoter",
      "outputs": [
        {
          "internalType": "contract IQuoter",
          "name": "",
          "type": "address"
        }
      ],
      "stateMutability": "view",
      "type": "function",
      "constant": true
    },
    {
      "inputs": [
        {
          "internalType": "enum CommonContracts",
          "name": "contractIndex",
          "type": "uint8"
        },
        {
          "internalType": "address payable",
          "name": "_address",
          "type": "address"
        }
      ],
      "name": "setCommonContractAddress",
      "outputs": [],
      "stateMutability": "nonpayable",
      "type": "function"
    },
    {
      "inputs": [
        {
          "internalType": "uint256",
          "name": "price",
          "type": "uint256"
        }
      ],
      "name": "setOcatPrice",
      "outputs": [],
      "stateMutability": "nonpayable",
      "type": "function"
    },
    {
      "inputs": [],
      "name": "uniswapRouter",
      "outputs": [
        {
          "internalType": "contract ISwapRouter",
          "name": "",
          "type": "address"
        }
      ],
      "stateMutability": "view",
      "type": "function",
      "constant": true
    },
    {
      "stateMutability": "payable",
      "type": "receive",
      "payable": true
    },
    {
      "inputs": [
        {
          "internalType": "address",
          "name": "_tokenIn",
          "type": "address"
        },
        {
          "internalType": "uint256",
          "name": "_amountIn",
          "type": "uint256"
        },
        {
          "internalType": "address",
          "name": "_tokenOut",
          "type": "address"
        },
        {
          "internalType": "uint256",
          "name": "_amountOutMin",
          "type": "uint256"
        },
        {
          "internalType": "uint256",
          "name": "_deadline",
          "type": "uint256"
        }
      ],
      "name": "swap",
      "outputs": [
        {
          "internalType": "uint256",
          "name": "amountOut",
          "type": "uint256"
        }
      ],
      "stateMutability": "nonpayable",
      "type": "function"
    },
    {
      "inputs": [
        {
          "internalType": "uint256",
          "name": "amountIn",
          "type": "uint256"
        },
        {
          "internalType": "address[2]",
          "name": "path",
          "type": "address[2]"
        }
      ],
      "name": "getAmountsOut",
      "outputs": [
        {
          "internalType": "uint256",
          "name": "expectedAmountOut",
          "type": "uint256"
        }
      ],
      "stateMutability": "nonpayable",
      "type": "function"
    },
    {
      "inputs": [],
      "name": "mintOcat",
      "outputs": [],
      "stateMutability": "payable",
      "type": "function",
      "payable": true
    },
    {
      "inputs": [
        {
          "internalType": "uint256",
          "name": "amount",
          "type": "uint256"
        }
      ],
      "name": "mintOcx",
      "outputs": [],
      "stateMutability": "payable",
      "type": "function",
      "payable": true
    },
    {
      "inputs": [
        {
          "internalType": "enum CurrencyIndex",
          "name": "left",
          "type": "uint8"
        },
        {
          "internalType": "enum CurrencyIndex",
          "name": "right",
          "type": "uint8"
        },
        {
          "components": [
            {
              "internalType": "uint256",
              "name": "value",
              "type": "uint256"
            },
            {
              "internalType": "uint8",
              "name": "decimals",
              "type": "uint8"
            }
          ],
          "internalType": "struct OcxPrice",
          "name": "newQuote",
          "type": "tuple"
        }
      ],
      "name": "setQuote",
      "outputs": [],
      "stateMutability": "nonpayable",
      "type": "function"
    },
    {
      "inputs": [
        {
          "internalType": "enum CurrencyIndex",
          "name": "left",
          "type": "uint8"
        },
        {
          "internalType": "enum CurrencyIndex",
          "name": "right",
          "type": "uint8"
        }
      ],
      "name": "getQuote",
      "outputs": [
        {
          "components": [
            {
              "internalType": "uint256",
              "name": "value",
              "type": "uint256"
            },
            {
              "internalType": "uint8",
              "name": "decimals",
              "type": "uint8"
            }
          ],
          "internalType": "struct OcxPrice",
          "name": "",
          "type": "tuple"
        }
      ],
      "stateMutability": "view",
      "type": "function",
      "constant": true
    }
  ],
  "bytecode": "0x60806040523480156200001157600080fd5b50336001806101000a81548173ffffffffffffffffffffffffffffffffffffffff021916908373ffffffffffffffffffffffffffffffffffffffff16021790555062000063336200007260201b60201c565b6103e86002819055506200047d565b600073ffffffffffffffffffffffffffffffffffffffff1660018054906101000a900473ffffffffffffffffffffffffffffffffffffffff1673ffffffffffffffffffffffffffffffffffffffff16141562000105576040517f08c379a0000000000000000000000000000000000000000000000000000000008152600401620000fc9062000333565b60405180910390fd5b60018054906101000a900473ffffffffffffffffffffffffffffffffffffffff1673ffffffffffffffffffffffffffffffffffffffff163373ffffffffffffffffffffffffffffffffffffffff161462000196576040517f08c379a00000000000000000000000000000000000000000000000000000000081526004016200018d9062000311565b60405180910390fd5b80600073ffffffffffffffffffffffffffffffffffffffff168173ffffffffffffffffffffffffffffffffffffffff1614156200020a576040517f08c379a0000000000000000000000000000000000000000000000000000000008152600401620002019062000355565b60405180910390fd5b60016000808473ffffffffffffffffffffffffffffffffffffffff1673ffffffffffffffffffffffffffffffffffffffff16815260200190815260200160002060006101000a81548160ff02191690831515021790555060018060009054906101000a900460ff166200027e919062000388565b600160006101000a81548160ff021916908360ff1602179055505050565b6000620002ab601e8362000377565b9150620002b88262000402565b602082019050919050565b6000620002d260178362000377565b9150620002df826200042b565b602082019050919050565b6000620002f960198362000377565b9150620003068262000454565b602082019050919050565b600060208201905081810360008301526200032c816200029c565b9050919050565b600060208201905081810360008301526200034e81620002c3565b9050919050565b600060208201905081810360008301526200037081620002ea565b9050919050565b600082825260208201905092915050565b60006200039582620003c6565b9150620003a283620003c6565b92508260ff03821115620003bb57620003ba620003d3565b5b828201905092915050565b600060ff82169050919050565b7f4e487b7100000000000000000000000000000000000000000000000000000000600052601160045260246000fd5b7f466f722063616c6c65722065787065637465642062652063726561746f720000600082015250565b7f496e76616c69642063726561746f722061646472657373000000000000000000600082015250565b7f4578706563746564206e6f6e2d7a65726f206164647265737300000000000000600082015250565b6143f4806200048d6000396000f3fe6080604052600436106100e15760003560e01c8063735de9f71161007f578063bd5f68b011610059578063bd5f68b01461029b578063c6bbd5a7146102d8578063db08730814610303578063dbcd95801461032c576100e8565b8063735de9f71461021c578063a7d9cfbc14610247578063bb3f6c6a14610272576100e8565b80632b7387a4116100bb5780632b7387a41461018357806359de09611461018d5780635e75228f146101b657806370480275146101f3576100e8565b80631b73cae1146100ed57806324d7806c146101095780632b71231514610146576100e8565b366100e857005b600080fd5b610107600480360381019061010291906135be565b610369565b005b34801561011557600080fd5b50610130600480360381019061012b9190613405565b610576565b60405161013d9190613a2e565b60405180910390f35b34801561015257600080fd5b5061016d6004803603810190610168919061350a565b6105cb565b60405161017a9190613bee565b60405180910390f35b61018b610714565b005b34801561019957600080fd5b506101b460048036038101906101af91906134ce565b610cf3565b005b3480156101c257600080fd5b506101dd60048036038101906101d8919061342e565b6111ab565b6040516101ea9190613c09565b60405180910390f35b3480156101ff57600080fd5b5061021a60048036038101906102159190613405565b6120c6565b005b34801561022857600080fd5b506102316122e5565b60405161023e9190613a64565b60405180910390f35b34801561025357600080fd5b5061025c6122fd565b6040516102699190613c09565b60405180910390f35b34801561027e57600080fd5b50610299600480360381019061029491906135be565b612303565b005b3480156102a757600080fd5b506102c260048036038101906102bd9190613610565b61230d565b6040516102cf9190613c09565b60405180910390f35b3480156102e457600080fd5b506102ed612a91565b6040516102fa9190613a49565b60405180910390f35b34801561030f57600080fd5b5061032a60048036038101906103259190613546565b612aa9565b005b34801561033857600080fd5b50610353600480360381019061034e91906135be565b612be4565b6040516103609190613c09565b60405180910390f35b600073ffffffffffffffffffffffffffffffffffffffff163373ffffffffffffffffffffffffffffffffffffffff1614156103d9576040517f08c379a00000000000000000000000000000000000000000000000000000000081526004016103d090613adf565b60405180910390fd5b6000803373ffffffffffffffffffffffffffffffffffffffff1673ffffffffffffffffffffffffffffffffffffffff16815260200190815260200160002060009054906101000a900460ff16610464576040517f08c379a000000000000000000000000000000000000000000000000000000000815260040161045b90613bb2565b60405180910390fd5b60036000600260098111156104a2577f4e487b7100000000000000000000000000000000000000000000000000000000600052602160045260246000fd5b60098111156104da577f4e487b7100000000000000000000000000000000000000000000000000000000600052602160045260246000fd5b815260200190815260200160002060009054906101000a900473ffffffffffffffffffffffffffffffffffffffff1673ffffffffffffffffffffffffffffffffffffffff1663a0712d68826040518263ffffffff1660e01b81526004016105419190613c09565b600060405180830381600087803b15801561055b57600080fd5b505af115801561056f573d6000803e3d6000fd5b5050505050565b60008060008373ffffffffffffffffffffffffffffffffffffffff1673ffffffffffffffffffffffffffffffffffffffff16815260200190815260200160002060009054906101000a900460ff169050919050565b6105d3613209565b60046000846007811115610610577f4e487b7100000000000000000000000000000000000000000000000000000000600052602160045260246000fd5b6007811115610648577f4e487b7100000000000000000000000000000000000000000000000000000000600052602160045260246000fd5b81526020019081526020016000206000016000836007811115610694577f4e487b7100000000000000000000000000000000000000000000000000000000600052602160045260246000fd5b60078111156106cc577f4e487b7100000000000000000000000000000000000000000000000000000000600052602160045260246000fd5b8152602001908152602001600020604051806040016040529081600082015481526020016001820160009054906101000a900460ff1660ff1660ff1681525050905092915050565b600073ffffffffffffffffffffffffffffffffffffffff163373ffffffffffffffffffffffffffffffffffffffff161415610784576040517f08c379a000000000000000000000000000000000000000000000000000000000815260040161077b90613adf565b60405180910390fd5b6000803373ffffffffffffffffffffffffffffffffffffffff1673ffffffffffffffffffffffffffffffffffffffff16815260200190815260200160002060009054906101000a900460ff1661080f576040517f08c379a000000000000000000000000000000000000000000000000000000000815260040161080690613bb2565b60405180910390fd5b600360006006600981111561084d577f4e487b7100000000000000000000000000000000000000000000000000000000600052602160045260246000fd5b6009811115610885577f4e487b7100000000000000000000000000000000000000000000000000000000600052602160045260246000fd5b815260200190815260200160002060009054906101000a900473ffffffffffffffffffffffffffffffffffffffff16600073ffffffffffffffffffffffffffffffffffffffff168173ffffffffffffffffffffffffffffffffffffffff161415610924576040517f08c379a000000000000000000000000000000000000000000000000000000000815260040161091b90613b92565b60405180910390fd5b6003600060016009811115610962577f4e487b7100000000000000000000000000000000000000000000000000000000600052602160045260246000fd5b600981111561099a577f4e487b7100000000000000000000000000000000000000000000000000000000600052602160045260246000fd5b815260200190815260200160002060009054906101000a900473ffffffffffffffffffffffffffffffffffffffff16600073ffffffffffffffffffffffffffffffffffffffff168173ffffffffffffffffffffffffffffffffffffffff161415610a39576040517f08c379a0000000000000000000000000000000000000000000000000000000008152600401610a3090613b92565b60405180910390fd5b60006003600060066009811115610a79577f4e487b7100000000000000000000000000000000000000000000000000000000600052602160045260246000fd5b6009811115610ab1577f4e487b7100000000000000000000000000000000000000000000000000000000600052602160045260246000fd5b815260200190815260200160002060009054906101000a900473ffffffffffffffffffffffffffffffffffffffff1673ffffffffffffffffffffffffffffffffffffffff1663045a2ab76040518163ffffffff1660e01b8152600401610b1690613b3f565b604080518083038186803b158015610b2d57600080fd5b505afa158015610b41573d6000803e3d6000fd5b505050506040513d601f19601f82011682018060405250810190610b659190613595565b905060006003600060016009811115610ba7577f4e487b7100000000000000000000000000000000000000000000000000000000600052602160045260246000fd5b6009811115610bdf577f4e487b7100000000000000000000000000000000000000000000000000000000600052602160045260246000fd5b815260200190815260200160002060009054906101000a900473ffffffffffffffffffffffffffffffffffffffff1673ffffffffffffffffffffffffffffffffffffffff1663313ce5676040518163ffffffff1660e01b8152600401602060405180830381600087803b158015610c5557600080fd5b505af1158015610c69573d6000803e3d6000fd5b505050506040513d601f19601f82011682018060405250810190610c8d919061364c565b9050610ced826020015160ff16670de0b6b3a7640000610cad9190613f1f565b67ffffffffffffffff1682600a610cc49190613da7565b846000015134610cd49190613ec5565b610cde9190613ec5565b610ce89190613d23565b612d4d565b50505050565b600073ffffffffffffffffffffffffffffffffffffffff1660018054906101000a900473ffffffffffffffffffffffffffffffffffffffff1673ffffffffffffffffffffffffffffffffffffffff161415610d83576040517f08c379a0000000000000000000000000000000000000000000000000000000008152600401610d7a90613adf565b60405180910390fd5b60018054906101000a900473ffffffffffffffffffffffffffffffffffffffff1673ffffffffffffffffffffffffffffffffffffffff163373ffffffffffffffffffffffffffffffffffffffff1614610e11576040517f08c379a0000000000000000000000000000000000000000000000000000000008152600401610e0890613abf565b60405180910390fd5b80600073ffffffffffffffffffffffffffffffffffffffff168173ffffffffffffffffffffffffffffffffffffffff161415610e82576040517f08c379a0000000000000000000000000000000000000000000000000000000008152600401610e7990613b92565b60405180910390fd5b600073ffffffffffffffffffffffffffffffffffffffff163373ffffffffffffffffffffffffffffffffffffffff161415610ef2576040517f08c379a0000000000000000000000000000000000000000000000000000000008152600401610ee990613adf565b60405180910390fd5b6000803373ffffffffffffffffffffffffffffffffffffffff1673ffffffffffffffffffffffffffffffffffffffff16815260200190815260200160002060009054906101000a900460ff16610f7d576040517f08c379a0000000000000000000000000000000000000000000000000000000008152600401610f7490613bb2565b60405180910390fd5b60006009811115610fb7577f4e487b7100000000000000000000000000000000000000000000000000000000600052602160045260246000fd5b6009811115610fef577f4e487b7100000000000000000000000000000000000000000000000000000000600052602160045260246000fd5b836009811115611028577f4e487b7100000000000000000000000000000000000000000000000000000000600052602160045260246000fd5b101580156110a5575060098081111561106a577f4e487b7100000000000000000000000000000000000000000000000000000000600052602160045260246000fd5b8360098111156110a3577f4e487b7100000000000000000000000000000000000000000000000000000000600052602160045260246000fd5b105b6110e4576040517f08c379a00000000000000000000000000000000000000000000000000000000081526004016110db90613a7f565b60405180910390fd5b8160036000856009811115611122577f4e487b7100000000000000000000000000000000000000000000000000000000600052602160045260246000fd5b600981111561115a577f4e487b7100000000000000000000000000000000000000000000000000000000600052602160045260246000fd5b815260200190815260200160002060006101000a81548173ffffffffffffffffffffffffffffffffffffffff021916908373ffffffffffffffffffffffffffffffffffffffff160217905550505050565b6000600360008060098111156111ea577f4e487b7100000000000000000000000000000000000000000000000000000000600052602160045260246000fd5b6009811115611222577f4e487b7100000000000000000000000000000000000000000000000000000000600052602160045260246000fd5b815260200190815260200160002060009054906101000a900473ffffffffffffffffffffffffffffffffffffffff1673ffffffffffffffffffffffffffffffffffffffff168673ffffffffffffffffffffffffffffffffffffffff16146114375760008673ffffffffffffffffffffffffffffffffffffffff1663dd62ed3e33306040518363ffffffff1660e01b81526004016112c09291906139a5565b60206040518083038186803b1580156112d857600080fd5b505afa1580156112ec573d6000803e3d6000fd5b505050506040513d601f19601f8201168201806040525081019061131091906135e7565b905085811015611355576040517f08c379a000000000000000000000000000000000000000000000000000000000815260040161134c90613aff565b60405180910390fd5b8673ffffffffffffffffffffffffffffffffffffffff1663095ea7b373e592427a0aece92de3edee1f18e0157c05861564886040518363ffffffff1660e01b81526004016113a4929190613a05565b602060405180830381600087803b1580156113be57600080fd5b505af11580156113d2573d6000803e3d6000fd5b505050506040513d601f19601f820116820180604052508101906113f691906134a5565b611435576040517f08c379a000000000000000000000000000000000000000000000000000000000815260040161142c90613a9f565b60405180910390fd5b505b611443863330886130b1565b60003390506003600060016009811115611486577f4e487b7100000000000000000000000000000000000000000000000000000000600052602160045260246000fd5b60098111156114be577f4e487b7100000000000000000000000000000000000000000000000000000000600052602160045260246000fd5b815260200190815260200160002060009054906101000a900473ffffffffffffffffffffffffffffffffffffffff1673ffffffffffffffffffffffffffffffffffffffff168773ffffffffffffffffffffffffffffffffffffffff161480156115f657506003600060046009811115611560577f4e487b7100000000000000000000000000000000000000000000000000000000600052602160045260246000fd5b6009811115611598577f4e487b7100000000000000000000000000000000000000000000000000000000600052602160045260246000fd5b815260200190815260200160002060009054906101000a900473ffffffffffffffffffffffffffffffffffffffff1673ffffffffffffffffffffffffffffffffffffffff168573ffffffffffffffffffffffffffffffffffffffff16145b1561190d576000600460006001600781111561163b577f4e487b7100000000000000000000000000000000000000000000000000000000600052602160045260246000fd5b6007811115611673577f4e487b7100000000000000000000000000000000000000000000000000000000600052602160045260246000fd5b81526020019081526020016000206000016000600260078111156116c0577f4e487b7100000000000000000000000000000000000000000000000000000000600052602160045260246000fd5b60078111156116f8577f4e487b7100000000000000000000000000000000000000000000000000000000600052602160045260246000fd5b815260200190815260200160002060000154876117159190613ec5565b90506003600060026009811115611755577f4e487b7100000000000000000000000000000000000000000000000000000000600052602160045260246000fd5b600981111561178d577f4e487b7100000000000000000000000000000000000000000000000000000000600052602160045260246000fd5b815260200190815260200160002060009054906101000a900473ffffffffffffffffffffffffffffffffffffffff1673ffffffffffffffffffffffffffffffffffffffff1663095ea7b373e592427a0aece92de3edee1f18e0157c05861564836040518363ffffffff1660e01b815260040161180a929190613a05565b602060405180830381600087803b15801561182457600080fd5b505af1158015611838573d6000803e3d6000fd5b505050506040513d601f19601f8201168201806040525081019061185c91906134a5565b50600360006002600981111561189b577f4e487b7100000000000000000000000000000000000000000000000000000000600052602160045260246000fd5b60098111156118d3577f4e487b7100000000000000000000000000000000000000000000000000000000600052602160045260246000fd5b815260200190815260200160002060009054906101000a900473ffffffffffffffffffffffffffffffffffffffff16975080965050611b6c565b600360006004600981111561194b577f4e487b7100000000000000000000000000000000000000000000000000000000600052602160045260246000fd5b6009811115611983577f4e487b7100000000000000000000000000000000000000000000000000000000600052602160045260246000fd5b815260200190815260200160002060009054906101000a900473ffffffffffffffffffffffffffffffffffffffff1673ffffffffffffffffffffffffffffffffffffffff168773ffffffffffffffffffffffffffffffffffffffff16148015611abb57506003600060016009811115611a25577f4e487b7100000000000000000000000000000000000000000000000000000000600052602160045260246000fd5b6009811115611a5d577f4e487b7100000000000000000000000000000000000000000000000000000000600052602160045260246000fd5b815260200190815260200160002060009054906101000a900473ffffffffffffffffffffffffffffffffffffffff1673ffffffffffffffffffffffffffffffffffffffff168573ffffffffffffffffffffffffffffffffffffffff16145b15611b6b576003600060026009811115611afe577f4e487b7100000000000000000000000000000000000000000000000000000000600052602160045260246000fd5b6009811115611b36577f4e487b7100000000000000000000000000000000000000000000000000000000600052602160045260246000fd5b815260200190815260200160002060009054906101000a900473ffffffffffffffffffffffffffffffffffffffff1694503090505b5b60006040518061010001604052808973ffffffffffffffffffffffffffffffffffffffff1681526020018773ffffffffffffffffffffffffffffffffffffffff168152602001610bb862ffffff1681526020018373ffffffffffffffffffffffffffffffffffffffff168152602001600f42611be89190613c96565b815260200188815260200160008152602001600073ffffffffffffffffffffffffffffffffffffffff16815250905073e592427a0aece92de3edee1f18e0157c0586156473ffffffffffffffffffffffffffffffffffffffff1663414bf389826040518263ffffffff1660e01b8152600401611c649190613bd2565b602060405180830381600087803b158015611c7e57600080fd5b505af1158015611c92573d6000803e3d6000fd5b505050506040513d601f19601f82011682018060405250810190611cb691906135e7565b92506003600060046009811115611cf6577f4e487b7100000000000000000000000000000000000000000000000000000000600052602160045260246000fd5b6009811115611d2e577f4e487b7100000000000000000000000000000000000000000000000000000000600052602160045260246000fd5b815260200190815260200160002060009054906101000a900473ffffffffffffffffffffffffffffffffffffffff1673ffffffffffffffffffffffffffffffffffffffff168873ffffffffffffffffffffffffffffffffffffffff16148015611e6657506003600060016009811115611dd0577f4e487b7100000000000000000000000000000000000000000000000000000000600052602160045260246000fd5b6009811115611e08577f4e487b7100000000000000000000000000000000000000000000000000000000600052602160045260246000fd5b815260200190815260200160002060009054906101000a900473ffffffffffffffffffffffffffffffffffffffff1673ffffffffffffffffffffffffffffffffffffffff168673ffffffffffffffffffffffffffffffffffffffff16145b156120bb5760006004600060016007811115611eab577f4e487b7100000000000000000000000000000000000000000000000000000000600052602160045260246000fd5b6007811115611ee3577f4e487b7100000000000000000000000000000000000000000000000000000000600052602160045260246000fd5b8152602001908152602001600020600001600060026007811115611f30577f4e487b7100000000000000000000000000000000000000000000000000000000600052602160045260246000fd5b6007811115611f68577f4e487b7100000000000000000000000000000000000000000000000000000000600052602160045260246000fd5b81526020019081526020016000206000015484611f859190613d23565b90506003600060016009811115611fc5577f4e487b7100000000000000000000000000000000000000000000000000000000600052602160045260246000fd5b6009811115611ffd577f4e487b7100000000000000000000000000000000000000000000000000000000600052602160045260246000fd5b815260200190815260200160002060009054906101000a900473ffffffffffffffffffffffffffffffffffffffff1673ffffffffffffffffffffffffffffffffffffffff1663a9059cbb33836040518363ffffffff1660e01b8152600401612066929190613a05565b602060405180830381600087803b15801561208057600080fd5b505af1158015612094573d6000803e3d6000fd5b505050506040513d601f19601f820116820180604052508101906120b891906134a5565b50505b505095945050505050565b600073ffffffffffffffffffffffffffffffffffffffff1660018054906101000a900473ffffffffffffffffffffffffffffffffffffffff1673ffffffffffffffffffffffffffffffffffffffff161415612156576040517f08c379a000000000000000000000000000000000000000000000000000000000815260040161214d90613adf565b60405180910390fd5b60018054906101000a900473ffffffffffffffffffffffffffffffffffffffff1673ffffffffffffffffffffffffffffffffffffffff163373ffffffffffffffffffffffffffffffffffffffff16146121e4576040517f08c379a00000000000000000000000000000000000000000000000000000000081526004016121db90613abf565b60405180910390fd5b80600073ffffffffffffffffffffffffffffffffffffffff168173ffffffffffffffffffffffffffffffffffffffff161415612255576040517f08c379a000000000000000000000000000000000000000000000000000000000815260040161224c90613b92565b60405180910390fd5b60016000808473ffffffffffffffffffffffffffffffffffffffff1673ffffffffffffffffffffffffffffffffffffffff16815260200190815260200160002060006101000a81548160ff02191690831515021790555060018060009054906101000a900460ff166122c79190613cec565b600160006101000a81548160ff021916908360ff1602179055505050565b73e592427a0aece92de3edee1f18e0157c0586156481565b60025481565b8060028190555050565b600081600060028110612349577f4e487b7100000000000000000000000000000000000000000000000000000000600052603260045260246000fd5b6020020151600073ffffffffffffffffffffffffffffffffffffffff168173ffffffffffffffffffffffffffffffffffffffff1614156123be576040517f08c379a00000000000000000000000000000000000000000000000000000000081526004016123b590613b92565b60405180910390fd5b826001600281106123f8577f4e487b7100000000000000000000000000000000000000000000000000000000600052603260045260246000fd5b6020020151600073ffffffffffffffffffffffffffffffffffffffff168173ffffffffffffffffffffffffffffffffffffffff16141561246d576040517f08c379a000000000000000000000000000000000000000000000000000000000815260040161246490613b92565b60405180910390fd5b600085116124b0576040517f08c379a00000000000000000000000000000000000000000000000000000000081526004016124a790613b1f565b60405180910390fd5b6000600f426124bf9190613c96565b90506000856000600281106124fd577f4e487b7100000000000000000000000000000000000000000000000000000000600052603260045260246000fd5b60200201519050600086600160028110612540577f4e487b7100000000000000000000000000000000000000000000000000000000600052603260045260246000fd5b602002015190506000610bb8905060003390506000806003600060016009811115612594577f4e487b7100000000000000000000000000000000000000000000000000000000600052602160045260246000fd5b60098111156125cc577f4e487b7100000000000000000000000000000000000000000000000000000000600052602160045260246000fd5b815260200190815260200160002060009054906101000a900473ffffffffffffffffffffffffffffffffffffffff1673ffffffffffffffffffffffffffffffffffffffff168b60006002811061264b577f4e487b7100000000000000000000000000000000000000000000000000000000600052603260045260246000fd5b602002015173ffffffffffffffffffffffffffffffffffffffff1614156129455760036000600460098111156126aa577f4e487b7100000000000000000000000000000000000000000000000000000000600052602160045260246000fd5b60098111156126e2577f4e487b7100000000000000000000000000000000000000000000000000000000600052602160045260246000fd5b815260200190815260200160002060009054906101000a900473ffffffffffffffffffffffffffffffffffffffff1673ffffffffffffffffffffffffffffffffffffffff168b600160028110612761577f4e487b7100000000000000000000000000000000000000000000000000000000600052603260045260246000fd5b602002015173ffffffffffffffffffffffffffffffffffffffff161415612944578b60046000600160078111156127c1577f4e487b7100000000000000000000000000000000000000000000000000000000600052602160045260246000fd5b60078111156127f9577f4e487b7100000000000000000000000000000000000000000000000000000000600052602160045260246000fd5b8152602001908152602001600020600001600060026007811115612846577f4e487b7100000000000000000000000000000000000000000000000000000000600052602160045260246000fd5b600781111561287e577f4e487b7100000000000000000000000000000000000000000000000000000000600052602160045260246000fd5b81526020019081526020016000206000015461289a9190613ec5565b9b5060036000600260098111156128da577f4e487b7100000000000000000000000000000000000000000000000000000000600052602160045260246000fd5b6009811115612912577f4e487b7100000000000000000000000000000000000000000000000000000000600052602160045260246000fd5b815260200190815260200160002060009054906101000a900473ffffffffffffffffffffffffffffffffffffffff1695505b5b60006040518061010001604052808873ffffffffffffffffffffffffffffffffffffffff1681526020018773ffffffffffffffffffffffffffffffffffffffff1681526020018662ffffff1681526020018573ffffffffffffffffffffffffffffffffffffffff1681526020018981526020018e81526020018481526020018373ffffffffffffffffffffffffffffffffffffffff16815250905073e592427a0aece92de3edee1f18e0157c0586156473ffffffffffffffffffffffffffffffffffffffff1663414bf389826040518263ffffffff1660e01b8152600401612a2d9190613bd2565b602060405180830381600087803b158015612a4757600080fd5b505af1158015612a5b573d6000803e3d6000fd5b505050506040513d601f19601f82011682018060405250810190612a7f91906135e7565b9a505050505050505050505092915050565b73b27308f9f90d607463bb33ea1bebb41c27ce5ab681565b8060046000856007811115612ae7577f4e487b7100000000000000000000000000000000000000000000000000000000600052602160045260246000fd5b6007811115612b1f577f4e487b7100000000000000000000000000000000000000000000000000000000600052602160045260246000fd5b81526020019081526020016000206000016000846007811115612b6b577f4e487b7100000000000000000000000000000000000000000000000000000000600052602160045260246000fd5b6007811115612ba3577f4e487b7100000000000000000000000000000000000000000000000000000000600052602160045260246000fd5b81526020019081526020016000206000820151816000015560208201518160010160006101000a81548160ff021916908360ff160217905550905050505050565b60006003600a612bf49190613da7565b6002546003600060016009811115612c35577f4e487b7100000000000000000000000000000000000000000000000000000000600052602160045260246000fd5b6009811115612c6d577f4e487b7100000000000000000000000000000000000000000000000000000000600052602160045260246000fd5b815260200190815260200160002060009054906101000a900473ffffffffffffffffffffffffffffffffffffffff1673ffffffffffffffffffffffffffffffffffffffff1663313ce5676040518163ffffffff1660e01b8152600401602060405180830381600087803b158015612ce357600080fd5b505af1158015612cf7573d6000803e3d6000fd5b505050506040513d601f19601f82011682018060405250810190612d1b919061364c565b600a612d279190613da7565b84612d329190613ec5565b612d3c9190613ec5565b612d469190613d23565b9050919050565b600073ffffffffffffffffffffffffffffffffffffffff163373ffffffffffffffffffffffffffffffffffffffff161415612dbd576040517f08c379a0000000000000000000000000000000000000000000000000000000008152600401612db490613adf565b60405180910390fd5b6000803373ffffffffffffffffffffffffffffffffffffffff1673ffffffffffffffffffffffffffffffffffffffff16815260200190815260200160002060009054906101000a900460ff16612e48576040517f08c379a0000000000000000000000000000000000000000000000000000000008152600401612e3f90613bb2565b60405180910390fd5b6003600060016009811115612e86577f4e487b7100000000000000000000000000000000000000000000000000000000600052602160045260246000fd5b6009811115612ebe577f4e487b7100000000000000000000000000000000000000000000000000000000600052602160045260246000fd5b815260200190815260200160002060009054906101000a900473ffffffffffffffffffffffffffffffffffffffff1673ffffffffffffffffffffffffffffffffffffffff1663a0712d68826040518263ffffffff1660e01b8152600401612f259190613c09565b600060405180830381600087803b158015612f3f57600080fd5b505af1158015612f53573d6000803e3d6000fd5b505050506130ad6003600060016009811115612f98577f4e487b7100000000000000000000000000000000000000000000000000000000600052602160045260246000fd5b6009811115612fd0577f4e487b7100000000000000000000000000000000000000000000000000000000600052602160045260246000fd5b815260200190815260200160002060009054906101000a900473ffffffffffffffffffffffffffffffffffffffff1682600360006002600981111561303e577f4e487b7100000000000000000000000000000000000000000000000000000000600052602160045260246000fd5b6009811115613076577f4e487b7100000000000000000000000000000000000000000000000000000000600052602160045260246000fd5b815260200190815260200160002060009054906101000a900473ffffffffffffffffffffffffffffffffffffffff166000426111ab565b5050565b6000808573ffffffffffffffffffffffffffffffffffffffff166323b872dd60e01b8686866040516024016130e8939291906139ce565b604051602081830303815290604052907bffffffffffffffffffffffffffffffffffffffffffffffffffffffff19166020820180517bffffffffffffffffffffffffffffffffffffffffffffffffffffffff8381831617835250505050604051613152919061398e565b6000604051808303816000865af19150503d806000811461318f576040519150601f19603f3d011682016040523d82523d6000602084013e613194565b606091505b50915091508180156131c257506000815114806131c15750808060200190518101906131c091906134a5565b5b5b613201576040517f08c379a00000000000000000000000000000000000000000000000000000000081526004016131f890613b72565b60405180910390fd5b505050505050565b604051806040016040528060008152602001600060ff1681525090565b600061323961323484613c49565b613c24565b9050808285602086028201111561324f57600080fd5b60005b8581101561327f57816132658882613289565b845260208401935060208301925050600181019050613252565b5050509392505050565b6000813590506132988161432b565b92915050565b6000813590506132ad81614342565b92915050565b600082601f8301126132c457600080fd5b60026132d1848285613226565b91505092915050565b6000815190506132e981614359565b92915050565b6000813590506132fe81614370565b92915050565b60008135905061331381614380565b92915050565b60006040828403121561332b57600080fd5b6133356040613c24565b90506000613345848285016133b1565b6000830152506020613359848285016133db565b60208301525092915050565b60006040828403121561337757600080fd5b6133816040613c24565b90506000613391848285016133c6565b60008301525060206133a5848285016133f0565b60208301525092915050565b6000813590506133c081614390565b92915050565b6000815190506133d581614390565b92915050565b6000813590506133ea816143a7565b92915050565b6000815190506133ff816143a7565b92915050565b60006020828403121561341757600080fd5b600061342584828501613289565b91505092915050565b600080600080600060a0868803121561344657600080fd5b600061345488828901613289565b9550506020613465888289016133b1565b945050604061347688828901613289565b9350506060613487888289016133b1565b9250506080613498888289016133b1565b9150509295509295909350565b6000602082840312156134b757600080fd5b60006134c5848285016132da565b91505092915050565b600080604083850312156134e157600080fd5b60006134ef858286016132ef565b92505060206135008582860161329e565b9150509250929050565b6000806040838503121561351d57600080fd5b600061352b85828601613304565b925050602061353c85828601613304565b9150509250929050565b60008060006080848603121561355b57600080fd5b600061356986828701613304565b935050602061357a86828701613304565b925050604061358b86828701613319565b9150509250925092565b6000604082840312156135a757600080fd5b60006135b584828501613365565b91505092915050565b6000602082840312156135d057600080fd5b60006135de848285016133b1565b91505092915050565b6000602082840312156135f957600080fd5b6000613607848285016133c6565b91505092915050565b6000806060838503121561362357600080fd5b6000613631858286016133b1565b9250506020613642858286016132b3565b9150509250929050565b60006020828403121561365e57600080fd5b600061366c848285016133f0565b91505092915050565b61367e81613f61565b82525050565b61368d81613f61565b82525050565b61369c81613f85565b82525050565b60006136ad82613c6f565b6136b78185613c7a565b93506136c7818560208601614033565b80840191505092915050565b6136dc81613feb565b82525050565b6136eb8161400f565b82525050565b60006136fe600383613c85565b915061370982614142565b602082019050919050565b6000613721601683613c85565b915061372c8261416b565b602082019050919050565b6000613744603283613c85565b915061374f82614194565b604082019050919050565b6000613767601e83613c85565b9150613772826141e3565b602082019050919050565b600061378a601783613c85565b91506137958261420c565b602082019050919050565b60006137ad601683613c85565b91506137b882614235565b602082019050919050565b60006137d0601083613c85565b91506137db8261425e565b602082019050919050565b60006137f3600483613c85565b91506137fe82614287565b602082019050919050565b6000613816600383613c85565b9150613821826142b0565b602082019050919050565b6000613839601983613c85565b9150613844826142d9565b602082019050919050565b600061385c600d83613c85565b915061386782614302565b602082019050919050565b610100820160008201516138896000850182613675565b50602082015161389c6020850182613675565b5060408201516138af6040850182613952565b5060608201516138c26060850182613675565b5060808201516138d56080850182613961565b5060a08201516138e860a0850182613961565b5060c08201516138fb60c0850182613961565b5060e082015161390e60e0850182613943565b50505050565b60408201600082015161392a6000850182613961565b50602082015161393d602085018261397f565b50505050565b61394c81613f91565b82525050565b61395b81613fb1565b82525050565b61396a81613fc0565b82525050565b61397981613fc0565b82525050565b61398881613fde565b82525050565b600061399a82846136a2565b915081905092915050565b60006040820190506139ba6000830185613684565b6139c76020830184613684565b9392505050565b60006060820190506139e36000830186613684565b6139f06020830185613684565b6139fd6040830184613970565b949350505050565b6000604082019050613a1a6000830185613684565b613a276020830184613970565b9392505050565b6000602082019050613a436000830184613693565b92915050565b6000602082019050613a5e60008301846136d3565b92915050565b6000602082019050613a7960008301846136e2565b92915050565b60006020820190508181036000830152613a9881613714565b9050919050565b60006020820190508181036000830152613ab881613737565b9050919050565b60006020820190508181036000830152613ad88161375a565b9050919050565b60006020820190508181036000830152613af88161377d565b9050919050565b60006020820190508181036000830152613b18816137a0565b9050919050565b60006020820190508181036000830152613b38816137c3565b9050919050565b60006040820190508181036000830152613b58816137e6565b90508181036020830152613b6b816136f1565b9050919050565b60006020820190508181036000830152613b8b81613809565b9050919050565b60006020820190508181036000830152613bab8161382c565b9050919050565b60006020820190508181036000830152613bcb8161384f565b9050919050565b600061010082019050613be86000830184613872565b92915050565b6000604082019050613c036000830184613914565b92915050565b6000602082019050613c1e6000830184613970565b92915050565b6000613c2e613c3f565b9050613c3a8282614066565b919050565b6000604051905090565b600067ffffffffffffffff821115613c6457613c636140f5565b5b602082029050919050565b600081519050919050565b600081905092915050565b600082825260208201905092915050565b6000613ca182613fc0565b9150613cac83613fc0565b9250827fffffffffffffffffffffffffffffffffffffffffffffffffffffffffffffffff03821115613ce157613ce0614097565b5b828201905092915050565b6000613cf782613fde565b9150613d0283613fde565b92508260ff03821115613d1857613d17614097565b5b828201905092915050565b6000613d2e82613fc0565b9150613d3983613fc0565b925082613d4957613d486140c6565b5b828204905092915050565b6000808291508390505b6001851115613d9e57808604811115613d7a57613d79614097565b5b6001851615613d895780820291505b8081029050613d9785614135565b9450613d5e565b94509492505050565b6000613db282613fc0565b9150613dbd83613fde565b9250613dea7fffffffffffffffffffffffffffffffffffffffffffffffffffffffffffffffff8484613df2565b905092915050565b600082613e025760019050613ebe565b81613e105760009050613ebe565b8160018114613e265760028114613e3057613e5f565b6001915050613ebe565b60ff841115613e4257613e41614097565b5b8360020a915084821115613e5957613e58614097565b5b50613ebe565b5060208310610133831016604e8410600b8410161715613e945782820a905083811115613e8f57613e8e614097565b5b613ebe565b613ea18484846001613d54565b92509050818404811115613eb857613eb7614097565b5b81810290505b9392505050565b6000613ed082613fc0565b9150613edb83613fc0565b9250817fffffffffffffffffffffffffffffffffffffffffffffffffffffffffffffffff0483118215151615613f1457613f13614097565b5b828202905092915050565b6000613f2a82613fca565b9150613f3583613fca565b92508167ffffffffffffffff0483118215151615613f5657613f55614097565b5b828202905092915050565b6000613f6c82613f91565b9050919050565b6000613f7e82613f91565b9050919050565b60008115159050919050565b600073ffffffffffffffffffffffffffffffffffffffff82169050919050565b600062ffffff82169050919050565b6000819050919050565b600067ffffffffffffffff82169050919050565b600060ff82169050919050565b6000613ff682613ffd565b9050919050565b600061400882613f91565b9050919050565b600061401a82614021565b9050919050565b600061402c82613f91565b9050919050565b60005b83811015614051578082015181840152602081019050614036565b83811115614060576000848401525b50505050565b61406f82614124565b810181811067ffffffffffffffff8211171561408e5761408d6140f5565b5b80604052505050565b7f4e487b7100000000000000000000000000000000000000000000000000000000600052601160045260246000fd5b7f4e487b7100000000000000000000000000000000000000000000000000000000600052601260045260246000fd5b7f4e487b7100000000000000000000000000000000000000000000000000000000600052604160045260246000fd5b6000601f19601f8301169050919050565b60008160011c9050919050565b7f4f43580000000000000000000000000000000000000000000000000000000000600082015250565b7f496e76616c696420636f6e747261637420696e64657800000000000000000000600082015250565b7f4f637845786368616e67652e7377617028293a20617070726f766520666f722060008201527f74686520726f75746572206661696c65642e0000000000000000000000000000602082015250565b7f466f722063616c6c65722065787065637465642062652063726561746f720000600082015250565b7f496e76616c69642063726561746f722061646472657373000000000000000000600082015250565b7f496e73756666696369656e7420616c6c6f77616e636500000000000000000000600082015250565b7f496e76616c696420616d6f756e74496e00000000000000000000000000000000600082015250565b7f4f43415400000000000000000000000000000000000000000000000000000000600082015250565b7f5354460000000000000000000000000000000000000000000000000000000000600082015250565b7f4578706563746564206e6f6e2d7a65726f206164647265737300000000000000600082015250565b7f4d7573742062652061646d696e00000000000000000000000000000000000000600082015250565b61433481613f61565b811461433f57600080fd5b50565b61434b81613f73565b811461435657600080fd5b50565b61436281613f85565b811461436d57600080fd5b50565b600a811061437d57600080fd5b50565b6008811061438d57600080fd5b50565b61439981613fc0565b81146143a457600080fd5b50565b6143b081613fde565b81146143bb57600080fd5b5056fea2646970667358221220cdda426a2eccf4c0cc9b89535f360965f222b56ef862195c6f16d19e31ef228964736f6c63430008040033",
  "immutableReferences": {},
  "source": "// SPDX-License-Identifier: MIT\r\npragma solidity ^0.8.0;\r\n\r\n// https://soliditydeveloper.com/uniswap2\r\n// https://docs.uniswap.org/protocol/V2/guides/smart-contract-integration/trading-from-a-smart-contract\r\n// https://ethereum.org/ru/developers/tutorials/transfers-and-approval-of-erc-20-tokens-from-a-solidity-smart-contract/\r\n// https://solidity-by-example.org/app/erc20/\r\n\r\nimport \"@uniswap/v3-periphery/contracts/interfaces/ISwapRouter.sol\";\r\nimport \"@uniswap/v3-periphery/contracts/interfaces/IQuoter.sol\";\r\n// import \"@uniswap/v2-periphery/contracts/interfaces/IUniswapV2Router02.sol\";\r\nimport '@uniswap/v3-periphery/contracts/libraries/TransferHelper.sol';\r\nimport \"@openzeppelin/contracts/token/ERC20/IERC20.sol\"; // openzeppelin 4.5 (for solidity 0.8.x)\r\nimport \"@openzeppelin/contracts/utils/Strings.sol\";\r\nimport \"@openzeppelin/contracts/token/ERC721/IERC721.sol\";\r\nimport \"./OcxBase.sol\";\r\nimport \"./PawnNFTs.sol\";\r\nimport \"./OcatToken.sol\";\r\nimport \"./common/OcxCommon.sol\";\r\n\r\ncontract OcxExchange is OcxBase {\r\n\r\n    // IUniswapV2Router02  public uniswapRouter;\r\n    ISwapRouter public constant uniswapRouter = ISwapRouter(UNISWAP_V3_ROUTER_ADDRESS);\r\n    IQuoter public constant quoter = IQuoter(UNISWAP_V3_QUOTER_ADDRESS);\r\n    // address payable private ocxLocalPoolAddress;\r\n    mapping(CurrencyIndex => CurrencyPriceInfo) private quotes;\r\n\r\n    event estimatedOcxAmountForBurningOcat(uint256);\r\n\r\n    receive() external payable {}\r\n\r\n    constructor() {\r\n        // uniswapRouter = IUniswapV2Router02(UNISWAP_V3_ROUTER_ADDRESS);\r\n    }\r\n\r\n    function swap(\r\n        address _tokenIn,\r\n        uint _amountIn,\r\n        address _tokenOut,\r\n        uint _amountOutMin,\r\n        uint _deadline\r\n    ) public \r\n    returns(uint amountOut) {\r\n        // transferFrom\r\n        //    Check for allowance\r\n        if (_tokenIn != contractAddress[CommonContracts.WETH]) {\r\n            uint256 allowance = IERC20(_tokenIn).allowance(msg.sender, address(this));\r\n            require(allowance >= _amountIn, \"Insufficient allowance\");\r\n            //     Do transferFrom\r\n            // approve\r\n            require(\r\n                IERC20(_tokenIn).approve(address(UNISWAP_V3_ROUTER_ADDRESS), _amountIn), \r\n                'OcxExchange.swap(): approve for the router failed.'\r\n            );\r\n        }\r\n        TransferHelper.safeTransferFrom(_tokenIn, msg.sender, address(this), _amountIn);\r\n        address recipient = msg.sender;\r\n        if (_tokenIn == contractAddress[CommonContracts.OCAT] \r\n         && _tokenOut == contractAddress[CommonContracts.UNI]) {\r\n            uint256 ocxAmount = _amountIn * quotes[CurrencyIndex.OCAT].vs[CurrencyIndex.OCX].value;\r\n            IERC20(contractAddress[CommonContracts.OCX]).approve(UNISWAP_V3_ROUTER_ADDRESS, ocxAmount);\r\n            _tokenIn = contractAddress[CommonContracts.OCX];\r\n            _amountIn = ocxAmount;\r\n        } else if (_tokenIn == contractAddress[CommonContracts.UNI] \r\n                && _tokenOut == contractAddress[CommonContracts.OCAT]) {\r\n            // Tophalf for UNI->OCAT swap\r\n            _tokenOut = contractAddress[CommonContracts.OCX];\r\n            recipient = address(this);\r\n        }\r\n\r\n        ISwapRouter.ExactInputSingleParams memory params =\r\n            ISwapRouter.ExactInputSingleParams({\r\n                tokenIn: _tokenIn,\r\n                tokenOut: _tokenOut,\r\n                fee: POOL_FEE,\r\n                recipient: recipient,\r\n                deadline: block.timestamp + 15,\r\n                amountIn: _amountIn,\r\n                amountOutMinimum: 0,\r\n                sqrtPriceLimitX96: 0\r\n            });\r\n\r\n        // The call to `exactInputSingle` executes the swap.\r\n        amountOut = uniswapRouter.exactInputSingle(params);\r\n\r\n        // Bottomhalf for UNI->OCAT swap\r\n        if (_tokenIn == contractAddress[CommonContracts.UNI] \r\n        && _tokenOut == contractAddress[CommonContracts.OCAT]) {\r\n            uint256 ocatAmount = amountOut / quotes[CurrencyIndex.OCAT].vs[CurrencyIndex.OCX].value;\r\n            IERC20(contractAddress[CommonContracts.OCAT]).transfer(msg.sender, ocatAmount);\r\n        }\r\n    }\r\n    function getAmountsOut(uint256 amountIn, address[2] memory path) public \r\n    onlyValidAddress(path[0]) onlyValidAddress(path[1])\r\n    returns(uint256 expectedAmountOut) {\r\n        require(amountIn > 0, \"Invalid amountIn\");\r\n        uint256 deadline = block.timestamp + 15; // using 'now' for convenience, for mainnet pass deadline from frontend!\r\n        address tokenIn = path[0];\r\n        address tokenOut = path[1];\r\n        uint24 fee = 3000;\r\n        address recipient = msg.sender;\r\n        uint256 amountOutMinimum = 0;\r\n        uint160 sqrtPriceLimitX96 = 0;\r\n\r\n        if (path[0] == contractAddress[CommonContracts.OCAT]) {\r\n            if (path[1] == contractAddress[CommonContracts.UNI]) {\r\n                // Get OCAT:OCX quote and calculate OCX amount for \"amountIn\"\r\n                amountIn = quotes[CurrencyIndex.OCAT].vs[CurrencyIndex.OCX].value * amountIn;\r\n                // Get OCX:UNI quote\r\n                // Multiple it by OCAT:OCX quote\r\n                tokenIn = contractAddress[CommonContracts.OCX];\r\n            }\r\n        }\r\n        ISwapRouter.ExactInputSingleParams  memory params = ISwapRouter.ExactInputSingleParams  (\r\n            tokenIn,\r\n            tokenOut,\r\n            fee,\r\n            recipient,\r\n            deadline,\r\n            amountIn,\r\n            amountOutMinimum,\r\n            sqrtPriceLimitX96\r\n        );\r\n        expectedAmountOut = uniswapRouter.exactInputSingle(params);\r\n    }\r\n    /**\r\n     *  Mint OCAT by funding ETH\r\n     */\r\n    function mintOcat() public payable \r\n    onlyAdmin onlyValidAddress(contractAddress[CommonContracts.PRICE_ORACLE]) \r\n    onlyValidAddress(contractAddress[CommonContracts.OCAT]) {\r\n        OcxPrice memory ethAudPriceInfo = IOcxPriceOracle(\r\n            contractAddress[CommonContracts.PRICE_ORACLE]\r\n        ).getCurrencyRatio(\"OCAT\", \"OCX\");\r\n        uint8 ocatDecimals = IOcat(contractAddress[CommonContracts.OCAT]).decimals();\r\n        mintOcat(\r\n            (msg.value * ethAudPriceInfo.value * (10**ocatDecimals)) / \r\n            ((10**18) * ethAudPriceInfo.decimals)\r\n        );\r\n    }\r\n    /**\r\n     * Mint OCAT as specified amount\r\n     */\r\n    function mintOcat(uint256 amount) internal onlyAdmin {\r\n        IOcxERC20(contractAddress[CommonContracts.OCAT]).mint(amount);\r\n        swap(\r\n            contractAddress[CommonContracts.OCAT], amount, \r\n            contractAddress[CommonContracts.OCX], 0, \r\n            block.timestamp\r\n        );\r\n    }\r\n    function _getEstimatedOcxforOcat(uint ocatAmount) internal returns (uint256) {\r\n        address tokenIn = contractAddress[CommonContracts.OCX];\r\n        address tokenOut = contractAddress[CommonContracts.OCAT];\r\n        uint24 fee = 3000;\r\n        uint160 sqrtPriceLimitX96 = 0;\r\n\r\n        // getQuoteAtTick()\r\n        return quoter.quoteExactOutputSingle(\r\n            tokenIn,\r\n            tokenOut,\r\n            fee,\r\n            ocatAmount,\r\n            sqrtPriceLimitX96\r\n        );\r\n    }\r\n    function burnOcat(uint256 amount) internal onlyAdmin {\r\n        IERC20 ocat = IERC20(contractAddress[CommonContracts.OCAT]);\r\n        if (ocat.balanceOf(address(this)) < amount) {\r\n            uint256 ocxAmount = _getEstimatedOcxforOcat(amount);\r\n            IERC20 ocx = IERC20(contractAddress[CommonContracts.OCX]);\r\n            /*********************************************************\r\n             * Warn to admin to deposit additional ETHs\r\n             *********************************************************/\r\n            require(ocx.balanceOf(address(this)) < ocxAmount, \"1\");\r\n            //////////////////////////////////////////////////////////\r\n            emit estimatedOcxAmountForBurningOcat(ocxAmount);\r\n            IERC20(contractAddress[CommonContracts.OCX]).approve(UNISWAP_V3_ROUTER_ADDRESS, ocxAmount);\r\n            swap(\r\n                contractAddress[CommonContracts.OCX], ocxAmount, \r\n                contractAddress[CommonContracts.OCAT], 0, \r\n                block.timestamp\r\n            );\r\n        }\r\n        IOcxERC20(contractAddress[CommonContracts.OCAT]).burn(amount);\r\n    }\r\n    function mintOcx(uint256 amount) public payable onlyAdmin  {\r\n        IOcxERC20(contractAddress[CommonContracts.OCX]).mint(amount);\r\n    }\r\n    function burnOcx(uint256 amount) internal onlyAdmin {\r\n        IOcxERC20(contractAddress[CommonContracts.OCX]).burn(amount);\r\n    }\r\n    function setQuote(CurrencyIndex left, CurrencyIndex right, OcxPrice memory newQuote) public {\r\n        quotes[left].vs[right] = newQuote;\r\n    }\r\n    function getQuote(CurrencyIndex left, CurrencyIndex right) public view returns(OcxPrice memory) {\r\n        return quotes[left].vs[right];\r\n    }\r\n}\r\n",
  "sourcePath": "F:\\Workspace\\OpenChainDex\\OpenchainTestVersion\\server\\contracts\\OcxExchange.sol",
  "compiler": {
    "name": "solc",
    "version": "0.8.4+commit.c7e474f2.Emscripten.clang"
  },
  "schemaVersion": "3.4.7",
  "updatedAt": "2022-05-03T09:25:50.777Z",
  "networkType": "ethereum",
  "devdoc": {
    "kind": "dev",
    "methods": {},
    "version": 1
  },
  "userdoc": {
    "kind": "user",
    "methods": {
      "mintOcat()": {
        "notice": "Mint OCAT by funding ETH"
      }
    },
    "version": 1
  }
}