{
  "contractName": "OcxExchange",
  "abi": [
    {
      "inputs": [],
      "stateMutability": "nonpayable",
      "type": "constructor"
    },
    {
      "inputs": [],
      "name": "uniswapRouter",
      "outputs": [
        {
          "internalType": "contract IUniswapV2Router02",
          "name": "",
          "type": "address"
        }
      ],
      "stateMutability": "view",
      "type": "function",
      "constant": true
    },
    {
      "stateMutability": "payable",
      "type": "receive",
      "payable": true
    },
    {
      "inputs": [
        {
          "internalType": "address payable",
          "name": "_pnftAddress",
          "type": "address"
        }
      ],
      "name": "setPnftAddress",
      "outputs": [],
      "stateMutability": "nonpayable",
      "type": "function"
    },
    {
      "inputs": [
        {
          "internalType": "address payable",
          "name": "_ocatAddress",
          "type": "address"
        }
      ],
      "name": "setOcatAddress",
      "outputs": [],
      "stateMutability": "nonpayable",
      "type": "function"
    },
    {
      "inputs": [
        {
          "internalType": "address payable",
          "name": "_ocxLocalPoolAddress",
          "type": "address"
        }
      ],
      "name": "setOcxLocalPoolAddress",
      "outputs": [],
      "stateMutability": "nonpayable",
      "type": "function"
    },
    {
      "inputs": [
        {
          "internalType": "address",
          "name": "_tokenOut",
          "type": "address"
        },
        {
          "internalType": "uint256",
          "name": "_amountOutMin",
          "type": "uint256"
        },
        {
          "internalType": "uint256",
          "name": "_deadline",
          "type": "uint256"
        }
      ],
      "name": "swapFromETH",
      "outputs": [],
      "stateMutability": "payable",
      "type": "function",
      "payable": true
    },
    {
      "inputs": [
        {
          "internalType": "address",
          "name": "_tokenIn",
          "type": "address"
        },
        {
          "internalType": "uint256",
          "name": "_amountIn",
          "type": "uint256"
        },
        {
          "internalType": "uint256",
          "name": "_amountOutMin",
          "type": "uint256"
        },
        {
          "internalType": "uint256",
          "name": "_deadline",
          "type": "uint256"
        }
      ],
      "name": "swapToETH",
      "outputs": [],
      "stateMutability": "nonpayable",
      "type": "function"
    },
    {
      "inputs": [
        {
          "internalType": "address",
          "name": "_tokenIn",
          "type": "address"
        },
        {
          "internalType": "uint256",
          "name": "_amountIn",
          "type": "uint256"
        },
        {
          "internalType": "address",
          "name": "_tokenOut",
          "type": "address"
        },
        {
          "internalType": "uint256",
          "name": "_amountOutMin",
          "type": "uint256"
        },
        {
          "internalType": "uint256",
          "name": "_deadline",
          "type": "uint256"
        }
      ],
      "name": "swapForERC20",
      "outputs": [],
      "stateMutability": "nonpayable",
      "type": "function"
    }
  ],
  "bytecode": "0x608060405234801561001057600080fd5b5033600460006101000a81548173ffffffffffffffffffffffffffffffffffffffff021916908373ffffffffffffffffffffffffffffffffffffffff160217905550737a250d5630b4cf539739df2c5dacb4c659f2488d6000806101000a81548173ffffffffffffffffffffffffffffffffffffffff021916908373ffffffffffffffffffffffffffffffffffffffff1602179055506129f5806100b56000396000f3fe6080604052600436106100745760003560e01c806394b367c71161004e57806394b367c7146100fd578063b18d30a214610126578063ca5342111461014f578063fafbed4d1461016b5761007b565b806315f03d2214610080578063735de9f7146100a95780638b92f59d146100d45761007b565b3661007b57005b600080fd5b34801561008c57600080fd5b506100a760048036038101906100a29190611c89565b610194565b005b3480156100b557600080fd5b506100be6102d8565b6040516100cb9190612151565b60405180910390f35b3480156100e057600080fd5b506100fb60048036038101906100f69190611d78565b6102fc565b005b34801561010957600080fd5b50610124600480360381019061011f9190611c89565b6107b2565b005b34801561013257600080fd5b5061014d60048036038101906101489190611c89565b6108f6565b005b61016960048036038101906101649190611d29565b610a3a565b005b34801561017757600080fd5b50610192600480360381019061018d9190611cb2565b610ddf565b005b3373ffffffffffffffffffffffffffffffffffffffff16600460009054906101000a900473ffffffffffffffffffffffffffffffffffffffff1673ffffffffffffffffffffffffffffffffffffffff1614610224576040517f08c379a000000000000000000000000000000000000000000000000000000000815260040161021b9061218e565b60405180910390fd5b600073ffffffffffffffffffffffffffffffffffffffff168173ffffffffffffffffffffffffffffffffffffffff161415610294576040517f08c379a000000000000000000000000000000000000000000000000000000000815260040161028b906121ee565b60405180910390fd5b80600160006101000a81548173ffffffffffffffffffffffffffffffffffffffff021916908373ffffffffffffffffffffffffffffffffffffffff16021790555050565b60008054906101000a900473ffffffffffffffffffffffffffffffffffffffff1681565b600084905060008173ffffffffffffffffffffffffffffffffffffffff1663dd62ed3e33306040518363ffffffff1660e01b815260040161033e9291906120c8565b60206040518083038186803b15801561035657600080fd5b505afa15801561036a573d6000803e3d6000fd5b505050506040513d601f19601f8201168201806040525081019061038e9190611e45565b9050600061039b82611305565b90506103bf60405180606001604052806035815260200161298b60359139826114b2565b9050858210158190610407576040517f08c379a00000000000000000000000000000000000000000000000000000000081526004016103fe919061216c565b60405180910390fd5b50610414873330896114f6565b8273ffffffffffffffffffffffffffffffffffffffff1663095ea7b3737a250d5630b4cf539739df2c5dacb4c659f2488d886040518363ffffffff1660e01b8152600401610463929190612128565b602060405180830381600087803b15801561047d57600080fd5b505af1158015610491573d6000803e3d6000fd5b505050506040513d601f19601f820116820180604052508101906104b59190611e1c565b6104f4576040517f08c379a00000000000000000000000000000000000000000000000000000000081526004016104eb9061222e565b60405180910390fd5b6000600267ffffffffffffffff811115610537577f4e487b7100000000000000000000000000000000000000000000000000000000600052604160045260246000fd5b6040519080825280602002602001820160405280156105655781602001602082028036833780820191505090505b50905087816000815181106105a3577f4e487b7100000000000000000000000000000000000000000000000000000000600052603260045260246000fd5b602002602001019073ffffffffffffffffffffffffffffffffffffffff16908173ffffffffffffffffffffffffffffffffffffffff168152505060008054906101000a900473ffffffffffffffffffffffffffffffffffffffff1673ffffffffffffffffffffffffffffffffffffffff1663ad5c46486040518163ffffffff1660e01b815260040160206040518083038186803b15801561064357600080fd5b505afa158015610657573d6000803e3d6000fd5b505050506040513d601f19601f8201168201806040525081019061067b9190611c60565b816001815181106106b5577f4e487b7100000000000000000000000000000000000000000000000000000000600052603260045260246000fd5b602002602001019073ffffffffffffffffffffffffffffffffffffffff16908173ffffffffffffffffffffffffffffffffffffffff168152505060008054906101000a900473ffffffffffffffffffffffffffffffffffffffff1673ffffffffffffffffffffffffffffffffffffffff166318cbafe5888884338a6040518663ffffffff1660e01b8152600401610750959493929190612311565b600060405180830381600087803b15801561076a57600080fd5b505af115801561077e573d6000803e3d6000fd5b505050506040513d6000823e3d601f19601f820116820180604052508101906107a79190611ddb565b505050505050505050565b3373ffffffffffffffffffffffffffffffffffffffff16600460009054906101000a900473ffffffffffffffffffffffffffffffffffffffff1673ffffffffffffffffffffffffffffffffffffffff1614610842576040517f08c379a0000000000000000000000000000000000000000000000000000000008152600401610839906121ce565b60405180910390fd5b600073ffffffffffffffffffffffffffffffffffffffff168173ffffffffffffffffffffffffffffffffffffffff1614156108b2576040517f08c379a00000000000000000000000000000000000000000000000000000000081526004016108a9906121ae565b60405180910390fd5b80600360006101000a81548173ffffffffffffffffffffffffffffffffffffffff021916908373ffffffffffffffffffffffffffffffffffffffff16021790555050565b3373ffffffffffffffffffffffffffffffffffffffff16600460009054906101000a900473ffffffffffffffffffffffffffffffffffffffff1673ffffffffffffffffffffffffffffffffffffffff1614610986576040517f08c379a000000000000000000000000000000000000000000000000000000000815260040161097d9061224e565b60405180910390fd5b600073ffffffffffffffffffffffffffffffffffffffff168173ffffffffffffffffffffffffffffffffffffffff1614156109f6576040517f08c379a00000000000000000000000000000000000000000000000000000000081526004016109ed9061220e565b60405180910390fd5b80600260006101000a81548173ffffffffffffffffffffffffffffffffffffffff021916908373ffffffffffffffffffffffffffffffffffffffff16021790555050565b6000600267ffffffffffffffff811115610a7d577f4e487b7100000000000000000000000000000000000000000000000000000000600052604160045260246000fd5b604051908082528060200260200182016040528015610aab5781602001602082028036833780820191505090505b50905060008054906101000a900473ffffffffffffffffffffffffffffffffffffffff1673ffffffffffffffffffffffffffffffffffffffff1663ad5c46486040518163ffffffff1660e01b815260040160206040518083038186803b158015610b1457600080fd5b505afa158015610b28573d6000803e3d6000fd5b505050506040513d601f19601f82011682018060405250810190610b4c9190611c60565b81600081518110610b86577f4e487b7100000000000000000000000000000000000000000000000000000000600052603260045260246000fd5b602002602001019073ffffffffffffffffffffffffffffffffffffffff16908173ffffffffffffffffffffffffffffffffffffffff16815250508381600181518110610bfb577f4e487b7100000000000000000000000000000000000000000000000000000000600052603260045260246000fd5b602002602001019073ffffffffffffffffffffffffffffffffffffffff16908173ffffffffffffffffffffffffffffffffffffffff1681525050600260009054906101000a900473ffffffffffffffffffffffffffffffffffffffff1673ffffffffffffffffffffffffffffffffffffffff168473ffffffffffffffffffffffffffffffffffffffff1614610d465760008054906101000a900473ffffffffffffffffffffffffffffffffffffffff1673ffffffffffffffffffffffffffffffffffffffff16637ff36ab5848333866040518563ffffffff1660e01b8152600401610ce994939291906122c5565b600060405180830381600087803b158015610d0357600080fd5b505af1158015610d17573d6000803e3d6000fd5b505050506040513d6000823e3d601f19601f82011682018060405250810190610d409190611ddb565b50610dd9565b600360009054906101000a900473ffffffffffffffffffffffffffffffffffffffff1673ffffffffffffffffffffffffffffffffffffffff1663aebf1ffc348533866040518563ffffffff1660e01b8152600401610da69392919061228e565b6000604051808303818588803b158015610dbf57600080fd5b505af1158015610dd3573d6000803e3d6000fd5b50505050505b50505050565b60008573ffffffffffffffffffffffffffffffffffffffff1663dd62ed3e33306040518363ffffffff1660e01b8152600401610e1c9291906120c8565b60206040518083038186803b158015610e3457600080fd5b505afa158015610e48573d6000803e3d6000fd5b505050506040513d601f19601f82011682018060405250810190610e6c9190611e45565b90506000610e7982611305565b9050610e9d60405180606001604052806035815260200161298b60359139826114b2565b9050858210158190610ee5576040517f08c379a0000000000000000000000000000000000000000000000000000000008152600401610edc919061216c565b60405180910390fd5b50610ef2873330896114f6565b8673ffffffffffffffffffffffffffffffffffffffff1663095ea7b3737a250d5630b4cf539739df2c5dacb4c659f2488d886040518363ffffffff1660e01b8152600401610f41929190612128565b602060405180830381600087803b158015610f5b57600080fd5b505af1158015610f6f573d6000803e3d6000fd5b505050506040513d601f19601f82011682018060405250810190610f939190611e1c565b610fd2576040517f08c379a0000000000000000000000000000000000000000000000000000000008152600401610fc99061222e565b60405180910390fd5b6000600367ffffffffffffffff811115611015577f4e487b7100000000000000000000000000000000000000000000000000000000600052604160045260246000fd5b6040519080825280602002602001820160405280156110435781602001602082028036833780820191505090505b5090508781600081518110611081577f4e487b7100000000000000000000000000000000000000000000000000000000600052603260045260246000fd5b602002602001019073ffffffffffffffffffffffffffffffffffffffff16908173ffffffffffffffffffffffffffffffffffffffff168152505060008054906101000a900473ffffffffffffffffffffffffffffffffffffffff1673ffffffffffffffffffffffffffffffffffffffff1663ad5c46486040518163ffffffff1660e01b815260040160206040518083038186803b15801561112157600080fd5b505afa158015611135573d6000803e3d6000fd5b505050506040513d601f19601f820116820180604052508101906111599190611c60565b81600181518110611193577f4e487b7100000000000000000000000000000000000000000000000000000000600052603260045260246000fd5b602002602001019073ffffffffffffffffffffffffffffffffffffffff16908173ffffffffffffffffffffffffffffffffffffffff16815250508581600281518110611208577f4e487b7100000000000000000000000000000000000000000000000000000000600052603260045260246000fd5b602002602001019073ffffffffffffffffffffffffffffffffffffffff16908173ffffffffffffffffffffffffffffffffffffffff168152505060008054906101000a900473ffffffffffffffffffffffffffffffffffffffff1673ffffffffffffffffffffffffffffffffffffffff166338ed173988878433896040518663ffffffff1660e01b81526004016112a3959493929190612311565b600060405180830381600087803b1580156112bd57600080fd5b505af11580156112d1573d6000803e3d6000fd5b505050506040513d6000823e3d601f19601f820116820180604052508101906112fa9190611ddb565b505050505050505050565b6060600082141561134d576040518060400160405280600181526020017f300000000000000000000000000000000000000000000000000000000000000081525090506114ad565b600082905060005b6000821461137f578080611368906125c4565b915050600a82611378919061247d565b9150611355565b60008167ffffffffffffffff8111156113c1577f4e487b7100000000000000000000000000000000000000000000000000000000600052604160045260246000fd5b6040519080825280601f01601f1916602001820160405280156113f35781602001600182028036833780820191505090505b5090505b600085146114a65760018261140c91906124ae565b9150600a8561141b919061260d565b60306114279190612427565b60f81b818381518110611463577f4e487b7100000000000000000000000000000000000000000000000000000000600052603260045260246000fd5b60200101907effffffffffffffffffffffffffffffffffffffffffffffffffffffffffffff1916908160001a905350600a8561149f919061247d565b94506113f7565b8093505050505b919050565b60606114ee838360405180602001604052806000815250604051806020016040528060008152506040518060200160405280600081525061162f565b905092915050565b6000808573ffffffffffffffffffffffffffffffffffffffff166323b872dd86868660405160240161152a939291906120f1565b6040516020818303038152906040529060e01b6020820180517bffffffffffffffffffffffffffffffffffffffffffffffffffffffff838183161783525050505060405161157891906120b1565b6000604051808303816000865af19150503d80600081146115b5576040519150601f19603f3d011682016040523d82523d6000602084013e6115ba565b606091505b50915091508180156115e857506000815114806115e75750808060200190518101906115e69190611e1c565b5b5b611627576040517f08c379a000000000000000000000000000000000000000000000000000000000815260040161161e9061226e565b60405180910390fd5b505050505050565b6060600086905060008690506000869050600086905060008690506000815183518551875189516116609190612427565b61166a9190612427565b6116749190612427565b61167e9190612427565b67ffffffffffffffff8111156116bd577f4e487b7100000000000000000000000000000000000000000000000000000000600052604160045260246000fd5b6040519080825280601f01601f1916602001820160405280156116ef5781602001600182028036833780820191505090505b5090506000819050600080600091505b88518210156117d357888281518110611741577f4e487b7100000000000000000000000000000000000000000000000000000000600052603260045260246000fd5b602001015160f81c60f81b838280611758906125c4565b935081518110611791577f4e487b7100000000000000000000000000000000000000000000000000000000600052603260045260246000fd5b60200101907effffffffffffffffffffffffffffffffffffffffffffffffffffffffffffff1916908160001a90535081806117cb906125c4565b9250506116ff565b600091505b87518210156118ac5787828151811061181a577f4e487b7100000000000000000000000000000000000000000000000000000000600052603260045260246000fd5b602001015160f81c60f81b838280611831906125c4565b93508151811061186a577f4e487b7100000000000000000000000000000000000000000000000000000000600052603260045260246000fd5b60200101907effffffffffffffffffffffffffffffffffffffffffffffffffffffffffffff1916908160001a90535081806118a4906125c4565b9250506117d8565b600091505b8651821015611985578682815181106118f3577f4e487b7100000000000000000000000000000000000000000000000000000000600052603260045260246000fd5b602001015160f81c60f81b83828061190a906125c4565b935081518110611943577f4e487b7100000000000000000000000000000000000000000000000000000000600052603260045260246000fd5b60200101907effffffffffffffffffffffffffffffffffffffffffffffffffffffffffffff1916908160001a905350818061197d906125c4565b9250506118b1565b600091505b8551821015611a5e578582815181106119cc577f4e487b7100000000000000000000000000000000000000000000000000000000600052603260045260246000fd5b602001015160f81c60f81b8382806119e3906125c4565b935081518110611a1c577f4e487b7100000000000000000000000000000000000000000000000000000000600052603260045260246000fd5b60200101907effffffffffffffffffffffffffffffffffffffffffffffffffffffffffffff1916908160001a9053508180611a56906125c4565b92505061198a565b600091505b8451821015611b3757848281518110611aa5577f4e487b7100000000000000000000000000000000000000000000000000000000600052603260045260246000fd5b602001015160f81c60f81b838280611abc906125c4565b935081518110611af5577f4e487b7100000000000000000000000000000000000000000000000000000000600052603260045260246000fd5b60200101907effffffffffffffffffffffffffffffffffffffffffffffffffffffffffffff1916908160001a9053508180611b2f906125c4565b925050611a63565b82995050505050505050505095945050505050565b6000611b5f611b5a84612390565b61236b565b90508083825260208201905082856020860282011115611b7e57600080fd5b60005b85811015611bae5781611b948882611c4b565b845260208401935060208301925050600181019050611b81565b5050509392505050565b600081359050611bc78161292e565b92915050565b600081519050611bdc8161292e565b92915050565b600081359050611bf181612945565b92915050565b600082601f830112611c0857600080fd5b8151611c18848260208601611b4c565b91505092915050565b600081519050611c308161295c565b92915050565b600081359050611c4581612973565b92915050565b600081519050611c5a81612973565b92915050565b600060208284031215611c7257600080fd5b6000611c8084828501611bcd565b91505092915050565b600060208284031215611c9b57600080fd5b6000611ca984828501611be2565b91505092915050565b600080600080600060a08688031215611cca57600080fd5b6000611cd888828901611bb8565b9550506020611ce988828901611c36565b9450506040611cfa88828901611bb8565b9350506060611d0b88828901611c36565b9250506080611d1c88828901611c36565b9150509295509295909350565b600080600060608486031215611d3e57600080fd5b6000611d4c86828701611bb8565b9350506020611d5d86828701611c36565b9250506040611d6e86828701611c36565b9150509250925092565b60008060008060808587031215611d8e57600080fd5b6000611d9c87828801611bb8565b9450506020611dad87828801611c36565b9350506040611dbe87828801611c36565b9250506060611dcf87828801611c36565b91505092959194509250565b600060208284031215611ded57600080fd5b600082015167ffffffffffffffff811115611e0757600080fd5b611e1384828501611bf7565b91505092915050565b600060208284031215611e2e57600080fd5b6000611e3c84828501611c21565b91505092915050565b600060208284031215611e5757600080fd5b6000611e6584828501611c4b565b91505092915050565b6000611e7a8383611e95565b60208301905092915050565b611e8f816124f4565b82525050565b611e9e816124e2565b82525050565b611ead816124e2565b82525050565b6000611ebe826123cc565b611ec881856123fa565b9350611ed3836123bc565b8060005b83811015611f04578151611eeb8882611e6e565b9750611ef6836123ed565b925050600181019050611ed7565b5085935050505092915050565b6000611f1c826123d7565b611f26818561240b565b9350611f36818560208601612560565b80840191505092915050565b611f4b8161253c565b82525050565b6000611f5c826123e2565b611f668185612416565b9350611f76818560208601612560565b611f7f816126cb565b840191505092915050565b6000611f97603983612416565b9150611fa2826126dc565b604082019050919050565b6000611fba603483612416565b9150611fc58261272b565b604082019050919050565b6000611fdd603e83612416565b9150611fe88261277a565b604082019050919050565b6000612000602f83612416565b915061200b826127c9565b604082019050919050565b6000612023602f83612416565b915061202e82612818565b604082019050919050565b6000612046601e83612416565b915061205182612867565b602082019050919050565b6000612069603983612416565b915061207482612890565b604082019050919050565b600061208c602483612416565b9150612097826128df565b604082019050919050565b6120ab81612532565b82525050565b60006120bd8284611f11565b915081905092915050565b60006040820190506120dd6000830185611ea4565b6120ea6020830184611ea4565b9392505050565b60006060820190506121066000830186611ea4565b6121136020830185611ea4565b61212060408301846120a2565b949350505050565b600060408201905061213d6000830185611ea4565b61214a60208301846120a2565b9392505050565b60006020820190506121666000830184611f42565b92915050565b600060208201905081810360008301526121868184611f51565b905092915050565b600060208201905081810360008301526121a781611f8a565b9050919050565b600060208201905081810360008301526121c781611fad565b9050919050565b600060208201905081810360008301526121e781611fd0565b9050919050565b6000602082019050818103600083015261220781611ff3565b9050919050565b6000602082019050818103600083015261222781612016565b9050919050565b6000602082019050818103600083015261224781612039565b9050919050565b600060208201905081810360008301526122678161205c565b9050919050565b600060208201905081810360008301526122878161207f565b9050919050565b60006060820190506122a360008301866120a2565b6122b06020830185611e86565b6122bd60408301846120a2565b949350505050565b60006080820190506122da60008301876120a2565b81810360208301526122ec8186611eb3565b90506122fb6040830185611ea4565b61230860608301846120a2565b95945050505050565b600060a08201905061232660008301886120a2565b61233360208301876120a2565b81810360408301526123458186611eb3565b90506123546060830185611ea4565b61236160808301846120a2565b9695505050505050565b6000612375612386565b90506123818282612593565b919050565b6000604051905090565b600067ffffffffffffffff8211156123ab576123aa61269c565b5b602082029050602081019050919050565b6000819050602082019050919050565b600081519050919050565b600081519050919050565b600081519050919050565b6000602082019050919050565b600082825260208201905092915050565b600081905092915050565b600082825260208201905092915050565b600061243282612532565b915061243d83612532565b9250827fffffffffffffffffffffffffffffffffffffffffffffffffffffffffffffffff038211156124725761247161263e565b5b828201905092915050565b600061248882612532565b915061249383612532565b9250826124a3576124a261266d565b5b828204905092915050565b60006124b982612532565b91506124c483612532565b9250828210156124d7576124d661263e565b5b828203905092915050565b60006124ed82612512565b9050919050565b60006124ff82612512565b9050919050565b60008115159050919050565b600073ffffffffffffffffffffffffffffffffffffffff82169050919050565b6000819050919050565b60006125478261254e565b9050919050565b600061255982612512565b9050919050565b60005b8381101561257e578082015181840152602081019050612563565b8381111561258d576000848401525b50505050565b61259c826126cb565b810181811067ffffffffffffffff821117156125bb576125ba61269c565b5b80604052505050565b60006125cf82612532565b91507fffffffffffffffffffffffffffffffffffffffffffffffffffffffffffffffff8214156126025761260161263e565b5b600182019050919050565b600061261882612532565b915061262383612532565b9250826126335761263261266d565b5b828206905092915050565b7f4e487b7100000000000000000000000000000000000000000000000000000000600052601160045260246000fd5b7f4e487b7100000000000000000000000000000000000000000000000000000000600052601260045260246000fd5b7f4e487b7100000000000000000000000000000000000000000000000000000000600052604160045260246000fd5b6000601f19601f8301169050919050565b7f4f637845786368616e67652e736574504e46544164647265737328293a20436160008201527f6c6c657220666f7220206d7573742062652063726561746f7200000000000000602082015250565b7f4f637845786368616e67652e7365744c6f63616c506f6f6c416464726573732860008201527f293a20496e76616c696420706172616d65746572000000000000000000000000602082015250565b7f4f637845786368616e67652e7365744c6f63616c506f6f6c416464726573732860008201527f293a2043616c6c657220666f7220206d7573742062652063726561746f720000602082015250565b7f4f637845786368616e67652e736574504e46544164647265737328293a20496e60008201527f76616c696420706172616d657465720000000000000000000000000000000000602082015250565b7f4f637845786368616e67652e7365744f6361744164647265737328293a20496e60008201527f76616c696420706172616d657465720000000000000000000000000000000000602082015250565b7f617070726f766520666f722074686520726f75746572206661696c65642e0000600082015250565b7f4f637845786368616e67652e7365744f6361744164647265737328293a20436160008201527f6c6c657220666f7220206d7573742062652063726561746f7200000000000000602082015250565b7f5472616e7366657248656c7065723a205452414e534645525f46524f4d5f464160008201527f494c454400000000000000000000000000000000000000000000000000000000602082015250565b612937816124e2565b811461294257600080fd5b50565b61294e816124f4565b811461295957600080fd5b50565b61296581612506565b811461297057600080fd5b50565b61297c81612532565b811461298757600080fd5b5056fe4e6f7420656e6f75676820616c6c6f77616e636520666f722074686520455243323020746f6b656e2e20616c6c6f77616e63653a20a2646970667358221220a41acd2fc80e316beaccb51794bc83045ba90903c93b1418d08577f2d1e5a91064736f6c63430008040033",
  "immutableReferences": {},
  "source": "// SPDX-License-Identifier: MIT\npragma solidity ^0.8.0;\n\n// https://soliditydeveloper.com/uniswap2\n// https://docs.uniswap.org/protocol/V2/guides/smart-contract-integration/trading-from-a-smart-contract\n// https://ethereum.org/ru/developers/tutorials/transfers-and-approval-of-erc-20-tokens-from-a-solidity-smart-contract/\n// https://solidity-by-example.org/app/erc20/\n\nimport \"@uniswap/v2-periphery/contracts/interfaces/IUniswapV2Router02.sol\";\nimport '@uniswap/lib/contracts/libraries/TransferHelper.sol';\nimport \"@openzeppelin/contracts/token/ERC20/IERC20.sol\"; // openzeppelin 4.5 (for solidity 0.8.x)\nimport \"@openzeppelin/contracts/utils/Strings.sol\";\nimport \"@openzeppelin/contracts/token/ERC721/IERC721.sol\";\nimport \"./PawnNFTs.sol\";\nimport \"./OcatToken.sol\";\nimport \"./OcxLocalPool.sol\";\n\ncontract OcxExchange {\n\n    address private constant UNISWAP_ROUTER_ADDRESS = 0x7a250d5630B4cF539739dF2C5dAcb4c659F2488D;\n\n    IUniswapV2Router02 public uniswapRouter;\n    address payable private pnftAddress;\n    address payable private ocatAddress;\n    address payable private ocxLocalPoolAddress;\n    address payable private creator;\n\n    receive() external payable {}\n\n    constructor() {\n        creator = payable(msg.sender);\n        uniswapRouter = IUniswapV2Router02(UNISWAP_ROUTER_ADDRESS);\n    }\n\n    function setPnftAddress(address payable _pnftAddress) public {\n        require(creator == msg.sender, \"OcxExchange.setPNFTAddress(): Caller for  must be creator\");\n        require(_pnftAddress != address(0), \"OcxExchange.setPNFTAddress(): Invalid parameter\");\n        pnftAddress = _pnftAddress;\n    }\n\n    function setOcatAddress(address payable _ocatAddress) public {\n        require(creator == msg.sender, \"OcxExchange.setOcatAddress(): Caller for  must be creator\");\n        require(_ocatAddress != address(0), \"OcxExchange.setOcatAddress(): Invalid parameter\");\n        ocatAddress = _ocatAddress;\n    }\n\n    function setOcxLocalPoolAddress(address payable _ocxLocalPoolAddress) public {\n        require(creator == msg.sender, \"OcxExchange.setLocalPoolAddress(): Caller for  must be creator\");\n        require(_ocxLocalPoolAddress != address(0), \"OcxExchange.setLocalPoolAddress(): Invalid parameter\");\n        ocxLocalPoolAddress = _ocxLocalPoolAddress;\n    }\n\n    function swapFromETH(\n        address _tokenOut,\n        uint _amountOutMin,\n        uint _deadline\n    ) public payable {\n        // uint deadline = block.timestamp + 15; // using 'now' for convenience, for mainnet pass deadline from frontend!\n        address[] memory path = new address[](2);\n        path[0] = uniswapRouter.WETH();\n        path[1] = address(_tokenOut);\n        if (_tokenOut != ocatAddress) {\n            uniswapRouter.swapExactETHForTokens(_amountOutMin, path, msg.sender, _deadline);\n        } else {\n            OcxLocalPool(ocxLocalPoolAddress).swapEthToOcat{\n                value: msg.value\n            }(_amountOutMin, payable(msg.sender), _deadline);\n        }\n    }\n\n    function swapToETH(\n        address _tokenIn,\n        uint _amountIn,\n        uint _amountOutMin,\n        uint _deadline\n    ) public {\n        // transferFrom\n        IERC20 sellTokenContract = IERC20(_tokenIn);\n        //     Check for allowance\n        uint256 allowance = sellTokenContract.allowance(msg.sender, address(this));\n        string memory errorText = Strings.toString(allowance);\n        errorText = strConcat(\"Not enough allowance for the ERC20 token. allowance: \", errorText);\n        require(allowance >= _amountIn, errorText);\n        //     Do transferFrom\n        TransferHelper.safeTransferFrom(_tokenIn, msg.sender, address(this), _amountIn);\n\n        // approve\n        require(sellTokenContract.approve(address(UNISWAP_ROUTER_ADDRESS), _amountIn), 'approve for the router failed.');\n\n        address[] memory path = new address[](2);\n        path[0] = address(_tokenIn);\n        path[1] = uniswapRouter.WETH();\n        uniswapRouter.swapExactTokensForETH(_amountIn, _amountOutMin, path, msg.sender, _deadline);\n    }\n\n    function swapForERC20(\n        address _tokenIn,\n        uint _amountIn,\n        address _tokenOut,\n        uint _amountOutMin,\n        uint _deadline\n    ) public {\n        // transferFrom\n        //    Check for allowance\n        uint256 allowance = IERC20(_tokenIn).allowance(msg.sender, address(this));\n        string memory errorText = Strings.toString(allowance);\n        errorText = strConcat(\"Not enough allowance for the ERC20 token. allowance: \", errorText);\n        require(allowance >= _amountIn, errorText);\n        //     Do transferFrom\n        TransferHelper.safeTransferFrom(_tokenIn, msg.sender, address(this), _amountIn);\n\n        // approve\n        require(\n            IERC20(_tokenIn).approve(address(UNISWAP_ROUTER_ADDRESS), _amountIn), \n            'approve for the router failed.'\n        );\n\n        address[] memory path = new address[](3);\n        path[0] = _tokenIn;\n        path[1] = uniswapRouter.WETH();\n        path[2] = _tokenOut;\n        uniswapRouter.swapExactTokensForTokens(_amountIn, _amountOutMin, path, msg.sender, _deadline);\n    }\n\n    ////////////////////////////////////////////////////////////////////////////////////////\n    function strConcat(\n            string memory _a, \n            string memory _b, \n            string memory _c, \n            string memory _d, \n            string memory _e\n    ) internal view returns (string memory){\n        bytes memory _ba = bytes(_a);\n        bytes memory _bb = bytes(_b);\n        bytes memory _bc = bytes(_c);\n        bytes memory _bd = bytes(_d);\n        bytes memory _be = bytes(_e);\n        string memory abcde = new string(_ba.length + _bb.length + _bc.length + _bd.length + _be.length);\n        bytes memory babcde = bytes(abcde);\n\n        uint i = 0;\n        uint k = 0;\n\n        for (i = 0; i < _ba.length; i++) babcde[k++] = _ba[i];\n        for (i = 0; i < _bb.length; i++) babcde[k++] = _bb[i];\n        for (i = 0; i < _bc.length; i++) babcde[k++] = _bc[i];\n        for (i = 0; i < _bd.length; i++) babcde[k++] = _bd[i];\n        for (i = 0; i < _be.length; i++) babcde[k++] = _be[i];\n        return string(babcde);\n    }\n\n    function strConcat(\n            string memory _a, \n            string memory _b, \n            string memory _c, \n            string memory _d\n    ) internal view returns (string memory) {\n        return strConcat(_a, _b, _c, _d, \"\");\n    }\n\n    function strConcat(\n            string memory _a, \n            string memory _b, \n            string memory _c\n    ) internal view returns (string memory) {\n        return strConcat(_a, _b, _c, \"\", \"\");\n    }\n\n    function strConcat(\n            string memory _a, \n            string memory _b\n    ) internal view returns (string memory) {\n        return strConcat(_a, _b, \"\", \"\", \"\");\n    }\n}\n",
  "sourcePath": "/home/cowboy/OpenchainTestVersion/server/contracts/OcxExchange.sol",
  "compiler": {
    "name": "solc",
    "version": "0.8.4+commit.c7e474f2.Emscripten.clang"
  },
  "schemaVersion": "3.4.6",
  "updatedAt": "2022-03-30T02:54:28.907Z",
  "networkType": "ethereum",
  "devdoc": {
    "kind": "dev",
    "methods": {},
    "version": 1
  },
  "userdoc": {
    "kind": "user",
    "methods": {},
    "version": 1
  }
}