{
  "contractName": "OcxExchange",
  "abi": [
    {
      "inputs": [],
      "stateMutability": "nonpayable",
      "type": "constructor"
    },
    {
      "inputs": [],
      "name": "uniswapRouter",
      "outputs": [
        {
          "internalType": "contract IUniswapV2Router02",
          "name": "",
          "type": "address"
        }
      ],
      "stateMutability": "view",
      "type": "function"
    },
    {
      "stateMutability": "payable",
      "type": "receive"
    },
    {
      "inputs": [
        {
          "internalType": "address payable",
          "name": "_pnftAddress",
          "type": "address"
        }
      ],
      "name": "setPnftAddress",
      "outputs": [],
      "stateMutability": "nonpayable",
      "type": "function"
    },
    {
      "inputs": [
        {
          "internalType": "address payable",
          "name": "_ocatAddress",
          "type": "address"
        }
      ],
      "name": "setOcatAddress",
      "outputs": [],
      "stateMutability": "nonpayable",
      "type": "function"
    },
    {
      "inputs": [
        {
          "internalType": "address payable",
          "name": "_ocxLocalPoolAddress",
          "type": "address"
        }
      ],
      "name": "setOcxLocalPoolAddress",
      "outputs": [],
      "stateMutability": "nonpayable",
      "type": "function"
    },
    {
      "inputs": [
        {
          "internalType": "address",
          "name": "_tokenOut",
          "type": "address"
        },
        {
          "internalType": "uint256",
          "name": "_amountOutMin",
          "type": "uint256"
        },
        {
          "internalType": "uint256",
          "name": "_deadline",
          "type": "uint256"
        }
      ],
      "name": "swapFromETH",
      "outputs": [],
      "stateMutability": "payable",
      "type": "function"
    },
    {
      "inputs": [
        {
          "internalType": "address",
          "name": "_tokenIn",
          "type": "address"
        },
        {
          "internalType": "uint256",
          "name": "_amountIn",
          "type": "uint256"
        },
        {
          "internalType": "uint256",
          "name": "_amountOutMin",
          "type": "uint256"
        },
        {
          "internalType": "uint256",
          "name": "_deadline",
          "type": "uint256"
        }
      ],
      "name": "swapToETH",
      "outputs": [],
      "stateMutability": "nonpayable",
      "type": "function"
    },
    {
      "inputs": [
        {
          "internalType": "address",
          "name": "_tokenIn",
          "type": "address"
        },
        {
          "internalType": "uint256",
          "name": "_amountIn",
          "type": "uint256"
        },
        {
          "internalType": "address",
          "name": "_tokenOut",
          "type": "address"
        },
        {
          "internalType": "uint256",
          "name": "_amountOutMin",
          "type": "uint256"
        },
        {
          "internalType": "uint256",
          "name": "_deadline",
          "type": "uint256"
        }
      ],
      "name": "swapForERC20",
      "outputs": [],
      "stateMutability": "nonpayable",
      "type": "function"
    }
  ],
  "bytecode": "0x608060405234801561001057600080fd5b5033600460006101000a81548173ffffffffffffffffffffffffffffffffffffffff021916908373ffffffffffffffffffffffffffffffffffffffff160217905550737a250d5630b4cf539739df2c5dacb4c659f2488d6000806101000a81548173ffffffffffffffffffffffffffffffffffffffff021916908373ffffffffffffffffffffffffffffffffffffffff160217905550612ced806100b56000396000f3fe6080604052600436106100745760003560e01c806394b367c71161004e57806394b367c7146100fd578063b18d30a214610126578063ca5342111461014f578063fafbed4d1461016b5761007b565b806315f03d2214610080578063735de9f7146100a95780638b92f59d146100d45761007b565b3661007b57005b600080fd5b34801561008c57600080fd5b506100a760048036038101906100a29190612042565b610194565b005b3480156100b557600080fd5b506100be61036c565b6040516100cb91906124c4565b60405180910390f35b3480156100e057600080fd5b506100fb60048036038101906100f69190612131565b610390565b005b34801561010957600080fd5b50610124600480360381019061011f9190612042565b610a43565b005b34801561013257600080fd5b5061014d60048036038101906101489190612042565b610c1b565b005b610169600480360381019061016491906120e2565b610df3565b005b34801561017757600080fd5b50610192600480360381019061018d919061206b565b611198565b005b600073ffffffffffffffffffffffffffffffffffffffff16600460009054906101000a900473ffffffffffffffffffffffffffffffffffffffff1673ffffffffffffffffffffffffffffffffffffffff161415610226576040517f08c379a000000000000000000000000000000000000000000000000000000000815260040161021d90612541565b60405180910390fd5b600460009054906101000a900473ffffffffffffffffffffffffffffffffffffffff1673ffffffffffffffffffffffffffffffffffffffff163373ffffffffffffffffffffffffffffffffffffffff16146102b6576040517f08c379a00000000000000000000000000000000000000000000000000000000081526004016102ad90612521565b60405180910390fd5b80600073ffffffffffffffffffffffffffffffffffffffff168173ffffffffffffffffffffffffffffffffffffffff161415610327576040517f08c379a000000000000000000000000000000000000000000000000000000000815260040161031e90612581565b60405180910390fd5b81600160006101000a81548173ffffffffffffffffffffffffffffffffffffffff021916908373ffffffffffffffffffffffffffffffffffffffff1602179055505050565b60008054906101000a900473ffffffffffffffffffffffffffffffffffffffff1681565b600084905060008173ffffffffffffffffffffffffffffffffffffffff1663dd62ed3e33306040518363ffffffff1660e01b81526004016103d292919061243b565b60206040518083038186803b1580156103ea57600080fd5b505afa1580156103fe573d6000803e3d6000fd5b505050506040513d601f19601f8201168201806040525081019061042291906121fe565b9050600061042f826116be565b90506104536040518060800160405280604e8152602001612c6a604e91398261186b565b905085821015819061049b576040517f08c379a000000000000000000000000000000000000000000000000000000000815260040161049291906124df565b60405180910390fd5b506104a8873330896118af565b6000600267ffffffffffffffff8111156104eb577f4e487b7100000000000000000000000000000000000000000000000000000000600052604160045260246000fd5b6040519080825280602002602001820160405280156105195781602001602082028036833780820191505090505b5090508781600081518110610557577f4e487b7100000000000000000000000000000000000000000000000000000000600052603260045260246000fd5b602002602001019073ffffffffffffffffffffffffffffffffffffffff16908173ffffffffffffffffffffffffffffffffffffffff168152505060008054906101000a900473ffffffffffffffffffffffffffffffffffffffff1673ffffffffffffffffffffffffffffffffffffffff1663ad5c46486040518163ffffffff1660e01b815260040160206040518083038186803b1580156105f757600080fd5b505afa15801561060b573d6000803e3d6000fd5b505050506040513d601f19601f8201168201806040525081019061062f9190612019565b81600181518110610669577f4e487b7100000000000000000000000000000000000000000000000000000000600052603260045260246000fd5b602002602001019073ffffffffffffffffffffffffffffffffffffffff16908173ffffffffffffffffffffffffffffffffffffffff1681525050600260009054906101000a900473ffffffffffffffffffffffffffffffffffffffff1673ffffffffffffffffffffffffffffffffffffffff168873ffffffffffffffffffffffffffffffffffffffff1614610896578373ffffffffffffffffffffffffffffffffffffffff1663095ea7b3737a250d5630b4cf539739df2c5dacb4c659f2488d896040518363ffffffff1660e01b815260040161074792919061249b565b602060405180830381600087803b15801561076157600080fd5b505af1158015610775573d6000803e3d6000fd5b505050506040513d601f19601f8201168201806040525081019061079991906121d5565b6107d8576040517f08c379a00000000000000000000000000000000000000000000000000000000081526004016107cf90612561565b60405180910390fd5b60008054906101000a900473ffffffffffffffffffffffffffffffffffffffff1673ffffffffffffffffffffffffffffffffffffffff166318cbafe5888884338a6040518663ffffffff1660e01b8152600401610839959493929190612689565b600060405180830381600087803b15801561085357600080fd5b505af1158015610867573d6000803e3d6000fd5b505050506040513d6000823e3d601f19601f820116820180604052508101906108909190612194565b50610a39565b8373ffffffffffffffffffffffffffffffffffffffff1663095ea7b3600360009054906101000a900473ffffffffffffffffffffffffffffffffffffffff16896040518363ffffffff1660e01b81526004016108f392919061249b565b602060405180830381600087803b15801561090d57600080fd5b505af1158015610921573d6000803e3d6000fd5b505050506040513d601f19601f8201168201806040525081019061094591906121d5565b610984576040517f08c379a000000000000000000000000000000000000000000000000000000000815260040161097b90612561565b60405180910390fd5b600360009054906101000a900473ffffffffffffffffffffffffffffffffffffffff1673ffffffffffffffffffffffffffffffffffffffff16639d26bc1a888833896040518563ffffffff1660e01b81526004016109e59493929190612644565b602060405180830381600087803b1580156109ff57600080fd5b505af1158015610a13573d6000803e3d6000fd5b505050506040513d601f19601f82011682018060405250810190610a3791906121fe565b505b5050505050505050565b600073ffffffffffffffffffffffffffffffffffffffff16600460009054906101000a900473ffffffffffffffffffffffffffffffffffffffff1673ffffffffffffffffffffffffffffffffffffffff161415610ad5576040517f08c379a0000000000000000000000000000000000000000000000000000000008152600401610acc90612541565b60405180910390fd5b600460009054906101000a900473ffffffffffffffffffffffffffffffffffffffff1673ffffffffffffffffffffffffffffffffffffffff163373ffffffffffffffffffffffffffffffffffffffff1614610b65576040517f08c379a0000000000000000000000000000000000000000000000000000000008152600401610b5c90612521565b60405180910390fd5b80600073ffffffffffffffffffffffffffffffffffffffff168173ffffffffffffffffffffffffffffffffffffffff161415610bd6576040517f08c379a0000000000000000000000000000000000000000000000000000000008152600401610bcd90612581565b60405180910390fd5b81600360006101000a81548173ffffffffffffffffffffffffffffffffffffffff021916908373ffffffffffffffffffffffffffffffffffffffff1602179055505050565b600073ffffffffffffffffffffffffffffffffffffffff16600460009054906101000a900473ffffffffffffffffffffffffffffffffffffffff1673ffffffffffffffffffffffffffffffffffffffff161415610cad576040517f08c379a0000000000000000000000000000000000000000000000000000000008152600401610ca490612541565b60405180910390fd5b600460009054906101000a900473ffffffffffffffffffffffffffffffffffffffff1673ffffffffffffffffffffffffffffffffffffffff163373ffffffffffffffffffffffffffffffffffffffff1614610d3d576040517f08c379a0000000000000000000000000000000000000000000000000000000008152600401610d3490612521565b60405180910390fd5b80600073ffffffffffffffffffffffffffffffffffffffff168173ffffffffffffffffffffffffffffffffffffffff161415610dae576040517f08c379a0000000000000000000000000000000000000000000000000000000008152600401610da590612581565b60405180910390fd5b81600260006101000a81548173ffffffffffffffffffffffffffffffffffffffff021916908373ffffffffffffffffffffffffffffffffffffffff1602179055505050565b6000600267ffffffffffffffff811115610e36577f4e487b7100000000000000000000000000000000000000000000000000000000600052604160045260246000fd5b604051908082528060200260200182016040528015610e645781602001602082028036833780820191505090505b50905060008054906101000a900473ffffffffffffffffffffffffffffffffffffffff1673ffffffffffffffffffffffffffffffffffffffff1663ad5c46486040518163ffffffff1660e01b815260040160206040518083038186803b158015610ecd57600080fd5b505afa158015610ee1573d6000803e3d6000fd5b505050506040513d601f19601f82011682018060405250810190610f059190612019565b81600081518110610f3f577f4e487b7100000000000000000000000000000000000000000000000000000000600052603260045260246000fd5b602002602001019073ffffffffffffffffffffffffffffffffffffffff16908173ffffffffffffffffffffffffffffffffffffffff16815250508381600181518110610fb4577f4e487b7100000000000000000000000000000000000000000000000000000000600052603260045260246000fd5b602002602001019073ffffffffffffffffffffffffffffffffffffffff16908173ffffffffffffffffffffffffffffffffffffffff1681525050600260009054906101000a900473ffffffffffffffffffffffffffffffffffffffff1673ffffffffffffffffffffffffffffffffffffffff168473ffffffffffffffffffffffffffffffffffffffff16146110ff5760008054906101000a900473ffffffffffffffffffffffffffffffffffffffff1673ffffffffffffffffffffffffffffffffffffffff16637ff36ab5848333866040518563ffffffff1660e01b81526004016110a294939291906125f8565b600060405180830381600087803b1580156110bc57600080fd5b505af11580156110d0573d6000803e3d6000fd5b505050506040513d6000823e3d601f19601f820116820180604052508101906110f99190612194565b50611192565b600360009054906101000a900473ffffffffffffffffffffffffffffffffffffffff1673ffffffffffffffffffffffffffffffffffffffff1663aebf1ffc348533866040518563ffffffff1660e01b815260040161115f939291906125c1565b6000604051808303818588803b15801561117857600080fd5b505af115801561118c573d6000803e3d6000fd5b50505050505b50505050565b60008573ffffffffffffffffffffffffffffffffffffffff1663dd62ed3e33306040518363ffffffff1660e01b81526004016111d592919061243b565b60206040518083038186803b1580156111ed57600080fd5b505afa158015611201573d6000803e3d6000fd5b505050506040513d601f19601f8201168201806040525081019061122591906121fe565b90506000611232826116be565b9050611256604051806080016040528060518152602001612c19605191398261186b565b905085821015819061129e576040517f08c379a000000000000000000000000000000000000000000000000000000000815260040161129591906124df565b60405180910390fd5b506112ab873330896118af565b8673ffffffffffffffffffffffffffffffffffffffff1663095ea7b3737a250d5630b4cf539739df2c5dacb4c659f2488d886040518363ffffffff1660e01b81526004016112fa92919061249b565b602060405180830381600087803b15801561131457600080fd5b505af1158015611328573d6000803e3d6000fd5b505050506040513d601f19601f8201168201806040525081019061134c91906121d5565b61138b576040517f08c379a000000000000000000000000000000000000000000000000000000000815260040161138290612501565b60405180910390fd5b6000600367ffffffffffffffff8111156113ce577f4e487b7100000000000000000000000000000000000000000000000000000000600052604160045260246000fd5b6040519080825280602002602001820160405280156113fc5781602001602082028036833780820191505090505b509050878160008151811061143a577f4e487b7100000000000000000000000000000000000000000000000000000000600052603260045260246000fd5b602002602001019073ffffffffffffffffffffffffffffffffffffffff16908173ffffffffffffffffffffffffffffffffffffffff168152505060008054906101000a900473ffffffffffffffffffffffffffffffffffffffff1673ffffffffffffffffffffffffffffffffffffffff1663ad5c46486040518163ffffffff1660e01b815260040160206040518083038186803b1580156114da57600080fd5b505afa1580156114ee573d6000803e3d6000fd5b505050506040513d601f19601f820116820180604052508101906115129190612019565b8160018151811061154c577f4e487b7100000000000000000000000000000000000000000000000000000000600052603260045260246000fd5b602002602001019073ffffffffffffffffffffffffffffffffffffffff16908173ffffffffffffffffffffffffffffffffffffffff168152505085816002815181106115c1577f4e487b7100000000000000000000000000000000000000000000000000000000600052603260045260246000fd5b602002602001019073ffffffffffffffffffffffffffffffffffffffff16908173ffffffffffffffffffffffffffffffffffffffff168152505060008054906101000a900473ffffffffffffffffffffffffffffffffffffffff1673ffffffffffffffffffffffffffffffffffffffff166338ed173988878433896040518663ffffffff1660e01b815260040161165c959493929190612689565b600060405180830381600087803b15801561167657600080fd5b505af115801561168a573d6000803e3d6000fd5b505050506040513d6000823e3d601f19601f820116820180604052508101906116b39190612194565b505050505050505050565b60606000821415611706576040518060400160405280600181526020017f30000000000000000000000000000000000000000000000000000000000000008152509050611866565b600082905060005b600082146117385780806117219061293c565b915050600a8261173191906127f5565b915061170e565b60008167ffffffffffffffff81111561177a577f4e487b7100000000000000000000000000000000000000000000000000000000600052604160045260246000fd5b6040519080825280601f01601f1916602001820160405280156117ac5781602001600182028036833780820191505090505b5090505b6000851461185f576001826117c59190612826565b9150600a856117d49190612985565b60306117e0919061279f565b60f81b81838151811061181c577f4e487b7100000000000000000000000000000000000000000000000000000000600052603260045260246000fd5b60200101907effffffffffffffffffffffffffffffffffffffffffffffffffffffffffffff1916908160001a905350600a8561185891906127f5565b94506117b0565b8093505050505b919050565b60606118a783836040518060200160405280600081525060405180602001604052806000815250604051806020016040528060008152506119e8565b905092915050565b6000808573ffffffffffffffffffffffffffffffffffffffff166323b872dd8686866040516024016118e393929190612464565b6040516020818303038152906040529060e01b6020820180517bffffffffffffffffffffffffffffffffffffffffffffffffffffffff83818316178352505050506040516119319190612424565b6000604051808303816000865af19150503d806000811461196e576040519150601f19603f3d011682016040523d82523d6000602084013e611973565b606091505b50915091508180156119a157506000815114806119a057508080602001905181019061199f91906121d5565b5b5b6119e0576040517f08c379a00000000000000000000000000000000000000000000000000000000081526004016119d7906125a1565b60405180910390fd5b505050505050565b606060008690506000869050600086905060008690506000869050600081518351855187518951611a19919061279f565b611a23919061279f565b611a2d919061279f565b611a37919061279f565b67ffffffffffffffff811115611a76577f4e487b7100000000000000000000000000000000000000000000000000000000600052604160045260246000fd5b6040519080825280601f01601f191660200182016040528015611aa85781602001600182028036833780820191505090505b5090506000819050600080600091505b8851821015611b8c57888281518110611afa577f4e487b7100000000000000000000000000000000000000000000000000000000600052603260045260246000fd5b602001015160f81c60f81b838280611b119061293c565b935081518110611b4a577f4e487b7100000000000000000000000000000000000000000000000000000000600052603260045260246000fd5b60200101907effffffffffffffffffffffffffffffffffffffffffffffffffffffffffffff1916908160001a9053508180611b849061293c565b925050611ab8565b600091505b8751821015611c6557878281518110611bd3577f4e487b7100000000000000000000000000000000000000000000000000000000600052603260045260246000fd5b602001015160f81c60f81b838280611bea9061293c565b935081518110611c23577f4e487b7100000000000000000000000000000000000000000000000000000000600052603260045260246000fd5b60200101907effffffffffffffffffffffffffffffffffffffffffffffffffffffffffffff1916908160001a9053508180611c5d9061293c565b925050611b91565b600091505b8651821015611d3e57868281518110611cac577f4e487b7100000000000000000000000000000000000000000000000000000000600052603260045260246000fd5b602001015160f81c60f81b838280611cc39061293c565b935081518110611cfc577f4e487b7100000000000000000000000000000000000000000000000000000000600052603260045260246000fd5b60200101907effffffffffffffffffffffffffffffffffffffffffffffffffffffffffffff1916908160001a9053508180611d369061293c565b925050611c6a565b600091505b8551821015611e1757858281518110611d85577f4e487b7100000000000000000000000000000000000000000000000000000000600052603260045260246000fd5b602001015160f81c60f81b838280611d9c9061293c565b935081518110611dd5577f4e487b7100000000000000000000000000000000000000000000000000000000600052603260045260246000fd5b60200101907effffffffffffffffffffffffffffffffffffffffffffffffffffffffffffff1916908160001a9053508180611e0f9061293c565b925050611d43565b600091505b8451821015611ef057848281518110611e5e577f4e487b7100000000000000000000000000000000000000000000000000000000600052603260045260246000fd5b602001015160f81c60f81b838280611e759061293c565b935081518110611eae577f4e487b7100000000000000000000000000000000000000000000000000000000600052603260045260246000fd5b60200101907effffffffffffffffffffffffffffffffffffffffffffffffffffffffffffff1916908160001a9053508180611ee89061293c565b925050611e1c565b82995050505050505050505095945050505050565b6000611f18611f1384612708565b6126e3565b90508083825260208201905082856020860282011115611f3757600080fd5b60005b85811015611f675781611f4d8882612004565b845260208401935060208301925050600181019050611f3a565b5050509392505050565b600081359050611f8081612bbc565b92915050565b600081519050611f9581612bbc565b92915050565b600081359050611faa81612bd3565b92915050565b600082601f830112611fc157600080fd5b8151611fd1848260208601611f05565b91505092915050565b600081519050611fe981612bea565b92915050565b600081359050611ffe81612c01565b92915050565b60008151905061201381612c01565b92915050565b60006020828403121561202b57600080fd5b600061203984828501611f86565b91505092915050565b60006020828403121561205457600080fd5b600061206284828501611f9b565b91505092915050565b600080600080600060a0868803121561208357600080fd5b600061209188828901611f71565b95505060206120a288828901611fef565b94505060406120b388828901611f71565b93505060606120c488828901611fef565b92505060806120d588828901611fef565b9150509295509295909350565b6000806000606084860312156120f757600080fd5b600061210586828701611f71565b935050602061211686828701611fef565b925050604061212786828701611fef565b9150509250925092565b6000806000806080858703121561214757600080fd5b600061215587828801611f71565b945050602061216687828801611fef565b935050604061217787828801611fef565b925050606061218887828801611fef565b91505092959194509250565b6000602082840312156121a657600080fd5b600082015167ffffffffffffffff8111156121c057600080fd5b6121cc84828501611fb0565b91505092915050565b6000602082840312156121e757600080fd5b60006121f584828501611fda565b91505092915050565b60006020828403121561221057600080fd5b600061221e84828501612004565b91505092915050565b6000612233838361224e565b60208301905092915050565b6122488161286c565b82525050565b6122578161285a565b82525050565b6122668161285a565b82525050565b600061227782612744565b6122818185612772565b935061228c83612734565b8060005b838110156122bd5781516122a48882612227565b97506122af83612765565b925050600181019050612290565b5085935050505092915050565b60006122d58261274f565b6122df8185612783565b93506122ef8185602086016128d8565b80840191505092915050565b612304816128b4565b82525050565b60006123158261275a565b61231f818561278e565b935061232f8185602086016128d8565b61233881612a43565b840191505092915050565b6000612350603a8361278e565b915061235b82612a54565b604082019050919050565b600061237360168361278e565b915061237e82612aa3565b602082019050919050565b600061239660178361278e565b91506123a182612acc565b602082019050919050565b60006123b960378361278e565b91506123c482612af5565b604082019050919050565b60006123dc601e8361278e565b91506123e782612b44565b602082019050919050565b60006123ff60248361278e565b915061240a82612b6d565b604082019050919050565b61241e816128aa565b82525050565b600061243082846122ca565b915081905092915050565b6000604082019050612450600083018561225d565b61245d602083018461225d565b9392505050565b6000606082019050612479600083018661225d565b612486602083018561225d565b6124936040830184612415565b949350505050565b60006040820190506124b0600083018561225d565b6124bd6020830184612415565b9392505050565b60006020820190506124d960008301846122fb565b92915050565b600060208201905081810360008301526124f9818461230a565b905092915050565b6000602082019050818103600083015261251a81612343565b9050919050565b6000602082019050818103600083015261253a81612366565b9050919050565b6000602082019050818103600083015261255a81612389565b9050919050565b6000602082019050818103600083015261257a816123ac565b9050919050565b6000602082019050818103600083015261259a816123cf565b9050919050565b600060208201905081810360008301526125ba816123f2565b9050919050565b60006060820190506125d66000830186612415565b6125e3602083018561223f565b6125f06040830184612415565b949350505050565b600060808201905061260d6000830187612415565b818103602083015261261f818661226c565b905061262e604083018561225d565b61263b6060830184612415565b95945050505050565b60006080820190506126596000830187612415565b6126666020830186612415565b612673604083018561223f565b6126806060830184612415565b95945050505050565b600060a08201905061269e6000830188612415565b6126ab6020830187612415565b81810360408301526126bd818661226c565b90506126cc606083018561225d565b6126d96080830184612415565b9695505050505050565b60006126ed6126fe565b90506126f9828261290b565b919050565b6000604051905090565b600067ffffffffffffffff82111561272357612722612a14565b5b602082029050602081019050919050565b6000819050602082019050919050565b600081519050919050565b600081519050919050565b600081519050919050565b6000602082019050919050565b600082825260208201905092915050565b600081905092915050565b600082825260208201905092915050565b60006127aa826128aa565b91506127b5836128aa565b9250827fffffffffffffffffffffffffffffffffffffffffffffffffffffffffffffffff038211156127ea576127e96129b6565b5b828201905092915050565b6000612800826128aa565b915061280b836128aa565b92508261281b5761281a6129e5565b5b828204905092915050565b6000612831826128aa565b915061283c836128aa565b92508282101561284f5761284e6129b6565b5b828203905092915050565b60006128658261288a565b9050919050565b60006128778261288a565b9050919050565b60008115159050919050565b600073ffffffffffffffffffffffffffffffffffffffff82169050919050565b6000819050919050565b60006128bf826128c6565b9050919050565b60006128d18261288a565b9050919050565b60005b838110156128f65780820151818401526020810190506128db565b83811115612905576000848401525b50505050565b61291482612a43565b810181811067ffffffffffffffff8211171561293357612932612a14565b5b80604052505050565b6000612947826128aa565b91507fffffffffffffffffffffffffffffffffffffffffffffffffffffffffffffffff82141561297a576129796129b6565b5b600182019050919050565b6000612990826128aa565b915061299b836128aa565b9250826129ab576129aa6129e5565b5b828206905092915050565b7f4e487b7100000000000000000000000000000000000000000000000000000000600052601160045260246000fd5b7f4e487b7100000000000000000000000000000000000000000000000000000000600052601260045260246000fd5b7f4e487b7100000000000000000000000000000000000000000000000000000000600052604160045260246000fd5b6000601f19601f8301169050919050565b7f4f637845786368616e67652e73776170466f72455243323028293a206170707260008201527f6f766520666f722074686520726f75746572206661696c65642e000000000000602082015250565b7f43616c6c6572206d7573742062652063726561746f7200000000000000000000600082015250565b7f496e76616c69642063726561746f722061646472657373000000000000000000600082015250565b7f4f637845786368616e67652e73776170546f45544828293a20617070726f766560008201527f20666f722074686520726f75746572206661696c65642e000000000000000000602082015250565b7f5468652061646472657373206d7573742063616e2774206265207a65726f0000600082015250565b7f5472616e7366657248656c7065723a205452414e534645525f46524f4d5f464160008201527f494c454400000000000000000000000000000000000000000000000000000000602082015250565b612bc58161285a565b8114612bd057600080fd5b50565b612bdc8161286c565b8114612be757600080fd5b50565b612bf38161287e565b8114612bfe57600080fd5b50565b612c0a816128aa565b8114612c1557600080fd5b5056fe4f637845786368616e67652e73776170466f72455243323028293a204e6f7420656e6f75676820616c6c6f77616e636520666f722074686520455243323020746f6b656e2e20616c6c6f77616e63653a204f637845786368616e67652e73776170546f45544828293a204e6f7420656e6f75676820616c6c6f77616e636520666f722074686520455243323020746f6b656e2e20616c6c6f77616e63653a20a26469706673582212203696418528a96f3acbf194c10cb644101b42efb1730f9931fe7f94e6da357e7c64736f6c63430008040033",
  "immutableReferences": {},
  "source": "// SPDX-License-Identifier: MIT\npragma solidity ^0.8.0;\n\n// https://soliditydeveloper.com/uniswap2\n// https://docs.uniswap.org/protocol/V2/guides/smart-contract-integration/trading-from-a-smart-contract\n// https://ethereum.org/ru/developers/tutorials/transfers-and-approval-of-erc-20-tokens-from-a-solidity-smart-contract/\n// https://solidity-by-example.org/app/erc20/\n\nimport \"@uniswap/v2-periphery/contracts/interfaces/IUniswapV2Router02.sol\";\nimport '@uniswap/lib/contracts/libraries/TransferHelper.sol';\nimport \"@openzeppelin/contracts/token/ERC20/IERC20.sol\"; // openzeppelin 4.5 (for solidity 0.8.x)\nimport \"@openzeppelin/contracts/utils/Strings.sol\";\nimport \"@openzeppelin/contracts/token/ERC721/IERC721.sol\";\nimport \"./PawnNFTs.sol\";\nimport \"./OcatToken.sol\";\nimport \"./OcxLocalPool.sol\";\n\ncontract OcxExchange {\n\n    address private constant UNISWAP_ROUTER_ADDRESS = 0x7a250d5630B4cF539739dF2C5dAcb4c659F2488D;\n\n    IUniswapV2Router02 public uniswapRouter;\n    address payable private pnftAddress;\n    address payable private ocatAddress;\n    address payable private ocxLocalPoolAddress;\n    address payable private creator;\n\n    receive() external payable {}\n\n    constructor() {\n        creator = payable(msg.sender);\n        uniswapRouter = IUniswapV2Router02(UNISWAP_ROUTER_ADDRESS);\n    }\n\n    modifier onlyCreator {\n        require(creator != address(0), \"Invalid creator address\");\n        require(msg.sender == creator, \"Caller must be creator\");\n        _;\n    }\n\n    modifier mustBeNoneZero(address _address) {\n        require(_address != address(0), \"The address must can't be zero\");\n        _;\n    }\n\n    function setPnftAddress(address payable _pnftAddress) public \n    onlyCreator mustBeNoneZero(_pnftAddress) {\n        pnftAddress = _pnftAddress;\n    }\n\n    function setOcatAddress(address payable _ocatAddress) public \n    onlyCreator mustBeNoneZero(_ocatAddress) {\n        ocatAddress = _ocatAddress;\n    }\n\n    function setOcxLocalPoolAddress(address payable _ocxLocalPoolAddress) public \n    onlyCreator mustBeNoneZero(_ocxLocalPoolAddress) {\n        ocxLocalPoolAddress = _ocxLocalPoolAddress;\n    }\n\n    function swapFromETH(\n        address _tokenOut,\n        uint _amountOutMin,\n        uint _deadline\n    ) public payable {\n        // uint deadline = block.timestamp + 15; // using 'now' for convenience, for mainnet pass deadline from frontend!\n        address[] memory path = new address[](2);\n        path[0] = uniswapRouter.WETH();\n        path[1] = address(_tokenOut);\n        if (_tokenOut != ocatAddress) {\n            uniswapRouter.swapExactETHForTokens(_amountOutMin, path, msg.sender, _deadline);\n        } else {\n            OcxLocalPool(ocxLocalPoolAddress).swapEthToOcat{\n                value: msg.value\n            }(_amountOutMin, payable(msg.sender), _deadline);\n        }\n    }\n\n    function swapToETH(\n        address _tokenIn,\n        uint _amountIn,\n        uint _amountOutMin,\n        uint _deadline\n    ) public {\n        // transferFrom\n        IERC20 sellTokenContract = IERC20(_tokenIn);\n        //     Check for allowance\n        uint256 allowance = sellTokenContract.allowance(msg.sender, address(this));\n        string memory errorText = Strings.toString(allowance);\n        errorText = strConcat(\"OcxExchange.swapToETH(): Not enough allowance for the ERC20 token. allowance: \", errorText);\n        require(allowance >= _amountIn, errorText);\n        //     Do transferFrom\n        TransferHelper.safeTransferFrom(_tokenIn, msg.sender, address(this), _amountIn);\n\n        address[] memory path = new address[](2);\n        path[0] = address(_tokenIn);\n        path[1] = uniswapRouter.WETH();\n        if (_tokenIn != ocatAddress) {\n            // approve\n            require(\n                sellTokenContract.approve(\n                    address(UNISWAP_ROUTER_ADDRESS), \n                    _amountIn\n                ), \n                'OcxExchange.swapToETH(): approve for the router failed.'\n            );\n            uniswapRouter.swapExactTokensForETH(\n                _amountIn, \n                _amountOutMin, \n                path, \n                msg.sender, \n                _deadline\n            );\n        } else {\n            // approve\n            require(\n                sellTokenContract.approve(\n                    address(ocxLocalPoolAddress), \n                    _amountIn\n                ), \n                'OcxExchange.swapToETH(): approve for the router failed.'\n            );\n            OcxLocalPool(ocxLocalPoolAddress).swapOcatToEth(\n                _amountIn,\n                _amountOutMin, \n                payable(msg.sender), \n                _deadline\n            );\n        }\n    }\n\n    function swapForERC20(\n        address _tokenIn,\n        uint _amountIn,\n        address _tokenOut,\n        uint _amountOutMin,\n        uint _deadline\n    ) public {\n        // transferFrom\n        //    Check for allowance\n        uint256 allowance = IERC20(_tokenIn).allowance(msg.sender, address(this));\n        string memory errorText = Strings.toString(allowance);\n        errorText = strConcat(\"OcxExchange.swapForERC20(): Not enough allowance for the ERC20 token. allowance: \", errorText);\n        require(allowance >= _amountIn, errorText);\n        //     Do transferFrom\n        TransferHelper.safeTransferFrom(_tokenIn, msg.sender, address(this), _amountIn);\n\n        // approve\n        require(\n            IERC20(_tokenIn).approve(address(UNISWAP_ROUTER_ADDRESS), _amountIn), \n            'OcxExchange.swapForERC20(): approve for the router failed.'\n        );\n\n        address[] memory path = new address[](3);\n        path[0] = _tokenIn;\n        path[1] = uniswapRouter.WETH();\n        path[2] = _tokenOut;\n        uniswapRouter.swapExactTokensForTokens(_amountIn, _amountOutMin, path, msg.sender, _deadline);\n    }\n\n    ////////////////////////////////////////////////////////////////////////////////////////\n    function strConcat(\n            string memory _a, \n            string memory _b, \n            string memory _c, \n            string memory _d, \n            string memory _e\n    ) internal pure returns (string memory){\n        bytes memory _ba = bytes(_a);\n        bytes memory _bb = bytes(_b);\n        bytes memory _bc = bytes(_c);\n        bytes memory _bd = bytes(_d);\n        bytes memory _be = bytes(_e);\n        string memory abcde = new string(_ba.length + _bb.length + _bc.length + _bd.length + _be.length);\n        bytes memory babcde = bytes(abcde);\n\n        uint i = 0;\n        uint k = 0;\n\n        for (i = 0; i < _ba.length; i++) babcde[k++] = _ba[i];\n        for (i = 0; i < _bb.length; i++) babcde[k++] = _bb[i];\n        for (i = 0; i < _bc.length; i++) babcde[k++] = _bc[i];\n        for (i = 0; i < _bd.length; i++) babcde[k++] = _bd[i];\n        for (i = 0; i < _be.length; i++) babcde[k++] = _be[i];\n        return string(babcde);\n    }\n\n    function strConcat(\n            string memory _a, \n            string memory _b, \n            string memory _c, \n            string memory _d\n    ) internal pure returns (string memory) {\n        return strConcat(_a, _b, _c, _d, \"\");\n    }\n\n    function strConcat(\n            string memory _a, \n            string memory _b, \n            string memory _c\n    ) internal pure returns (string memory) {\n        return strConcat(_a, _b, _c, \"\", \"\");\n    }\n\n    function strConcat(\n            string memory _a, \n            string memory _b\n    ) internal pure returns (string memory) {\n        return strConcat(_a, _b, \"\", \"\", \"\");\n    }\n}\n",
  "sourcePath": "/home/cowboy/OpenchainTestVersion/server/contracts/OcxExchange.sol",
  "compiler": {
    "name": "solc",
    "version": "0.8.4+commit.c7e474f2.Emscripten.clang"
  },
  "schemaVersion": "3.4.6",
  "updatedAt": "2022-04-13T20:58:12.100Z",
  "devdoc": {
    "kind": "dev",
    "methods": {},
    "version": 1
  },
  "userdoc": {
    "kind": "user",
    "methods": {},
    "version": 1
  }
}