{
  "contractName": "OcxExchange",
  "abi": [
    {
      "inputs": [],
      "stateMutability": "nonpayable",
      "type": "constructor"
    },
    {
      "anonymous": false,
      "inputs": [
        {
          "indexed": false,
          "internalType": "uint256",
          "name": "",
          "type": "uint256"
        }
      ],
      "name": "estimatedOcxAmountForBurningOcat",
      "type": "event"
    },
    {
      "inputs": [
        {
          "internalType": "address",
          "name": "_admin",
          "type": "address"
        }
      ],
      "name": "addAdmin",
      "outputs": [],
      "stateMutability": "nonpayable",
      "type": "function"
    },
    {
      "inputs": [
        {
          "internalType": "uint256",
          "name": "price",
          "type": "uint256"
        }
      ],
      "name": "convertToOcat",
      "outputs": [
        {
          "internalType": "uint256",
          "name": "_ocatPrice",
          "type": "uint256"
        }
      ],
      "stateMutability": "nonpayable",
      "type": "function"
    },
    {
      "inputs": [
        {
          "internalType": "address",
          "name": "_address",
          "type": "address"
        }
      ],
      "name": "isAdmin",
      "outputs": [
        {
          "internalType": "bool",
          "name": "yes",
          "type": "bool"
        }
      ],
      "stateMutability": "view",
      "type": "function"
    },
    {
      "inputs": [],
      "name": "ocatPrice",
      "outputs": [
        {
          "internalType": "uint256",
          "name": "",
          "type": "uint256"
        }
      ],
      "stateMutability": "view",
      "type": "function"
    },
    {
      "inputs": [],
      "name": "quoter",
      "outputs": [
        {
          "internalType": "contract IQuoter",
          "name": "",
          "type": "address"
        }
      ],
      "stateMutability": "view",
      "type": "function"
    },
    {
      "inputs": [
        {
          "internalType": "enum CommonContracts",
          "name": "contractIndex",
          "type": "uint8"
        },
        {
          "internalType": "address payable",
          "name": "_address",
          "type": "address"
        }
      ],
      "name": "setAddress",
      "outputs": [],
      "stateMutability": "nonpayable",
      "type": "function"
    },
    {
      "inputs": [
        {
          "internalType": "uint256",
          "name": "price",
          "type": "uint256"
        }
      ],
      "name": "setOcatPrice",
      "outputs": [],
      "stateMutability": "nonpayable",
      "type": "function"
    },
    {
      "inputs": [],
      "name": "uniswapRouter",
      "outputs": [
        {
          "internalType": "contract ISwapRouter",
          "name": "",
          "type": "address"
        }
      ],
      "stateMutability": "view",
      "type": "function"
    },
    {
      "stateMutability": "payable",
      "type": "receive"
    },
    {
      "inputs": [
        {
          "internalType": "address",
          "name": "_tokenIn",
          "type": "address"
        },
        {
          "internalType": "uint256",
          "name": "_amountIn",
          "type": "uint256"
        },
        {
          "internalType": "address",
          "name": "_tokenOut",
          "type": "address"
        },
        {
          "internalType": "uint256",
          "name": "_amountOutMin",
          "type": "uint256"
        },
        {
          "internalType": "uint256",
          "name": "_deadline",
          "type": "uint256"
        }
      ],
      "name": "swap",
      "outputs": [
        {
          "internalType": "uint256",
          "name": "amountOut",
          "type": "uint256"
        }
      ],
      "stateMutability": "nonpayable",
      "type": "function"
    },
    {
      "inputs": [
        {
          "internalType": "uint256",
          "name": "amountIn",
          "type": "uint256"
        },
        {
          "internalType": "address[2]",
          "name": "path",
          "type": "address[2]"
        }
      ],
      "name": "getAmountsOut",
      "outputs": [
        {
          "internalType": "uint256",
          "name": "expectedAmountOut",
          "type": "uint256"
        }
      ],
      "stateMutability": "nonpayable",
      "type": "function"
    },
    {
      "inputs": [],
      "name": "mintOcat",
      "outputs": [],
      "stateMutability": "payable",
      "type": "function"
    },
    {
      "inputs": [
        {
          "internalType": "uint256",
          "name": "amount",
          "type": "uint256"
        }
      ],
      "name": "mintOcx",
      "outputs": [],
      "stateMutability": "payable",
      "type": "function"
    },
    {
      "inputs": [
        {
          "internalType": "string",
          "name": "left",
          "type": "string"
        },
        {
          "internalType": "string",
          "name": "right",
          "type": "string"
        },
        {
          "components": [
            {
              "internalType": "uint256",
              "name": "value",
              "type": "uint256"
            },
            {
              "internalType": "uint8",
              "name": "decimals",
              "type": "uint8"
            }
          ],
          "internalType": "struct OcxPrice",
          "name": "newQuote",
          "type": "tuple"
        }
      ],
      "name": "setQuote",
      "outputs": [],
      "stateMutability": "nonpayable",
      "type": "function"
    },
    {
      "inputs": [
        {
          "internalType": "string",
          "name": "left",
          "type": "string"
        },
        {
          "internalType": "string",
          "name": "right",
          "type": "string"
        }
      ],
      "name": "getQuote",
      "outputs": [
        {
          "components": [
            {
              "internalType": "uint256",
              "name": "value",
              "type": "uint256"
            },
            {
              "internalType": "uint8",
              "name": "decimals",
              "type": "uint8"
            }
          ],
          "internalType": "struct OcxPrice",
          "name": "",
          "type": "tuple"
        }
      ],
      "stateMutability": "view",
      "type": "function"
    }
  ],
  "bytecode": "0x60806040523480156200001157600080fd5b50336001806101000a81548173ffffffffffffffffffffffffffffffffffffffff021916908373ffffffffffffffffffffffffffffffffffffffff16021790555062000063336200007260201b60201c565b6103e86002819055506200047d565b600073ffffffffffffffffffffffffffffffffffffffff1660018054906101000a900473ffffffffffffffffffffffffffffffffffffffff1673ffffffffffffffffffffffffffffffffffffffff16141562000105576040517f08c379a0000000000000000000000000000000000000000000000000000000008152600401620000fc9062000333565b60405180910390fd5b60018054906101000a900473ffffffffffffffffffffffffffffffffffffffff1673ffffffffffffffffffffffffffffffffffffffff163373ffffffffffffffffffffffffffffffffffffffff161462000196576040517f08c379a00000000000000000000000000000000000000000000000000000000081526004016200018d9062000311565b60405180910390fd5b80600073ffffffffffffffffffffffffffffffffffffffff168173ffffffffffffffffffffffffffffffffffffffff1614156200020a576040517f08c379a0000000000000000000000000000000000000000000000000000000008152600401620002019062000355565b60405180910390fd5b60016000808473ffffffffffffffffffffffffffffffffffffffff1673ffffffffffffffffffffffffffffffffffffffff16815260200190815260200160002060006101000a81548160ff02191690831515021790555060018060009054906101000a900460ff166200027e919062000388565b600160006101000a81548160ff021916908360ff1602179055505050565b6000620002ab601e8362000377565b9150620002b88262000402565b602082019050919050565b6000620002d260178362000377565b9150620002df826200042b565b602082019050919050565b6000620002f960198362000377565b9150620003068262000454565b602082019050919050565b600060208201905081810360008301526200032c816200029c565b9050919050565b600060208201905081810360008301526200034e81620002c3565b9050919050565b600060208201905081810360008301526200037081620002ea565b9050919050565b600082825260208201905092915050565b60006200039582620003c6565b9150620003a283620003c6565b92508260ff03821115620003bb57620003ba620003d3565b5b828201905092915050565b600060ff82169050919050565b7f4e487b7100000000000000000000000000000000000000000000000000000000600052601160045260246000fd5b7f466f722063616c6c65722065787065637465642062652063726561746f720000600082015250565b7f496e76616c69642063726561746f722061646472657373000000000000000000600082015250565b7f4578706563746564206e6f6e2d7a65726f206164647265737300000000000000600082015250565b61442e806200048d6000396000f3fe6080604052600436106100e15760003560e01c8063735de9f71161007f578063bd5f68b011610059578063bd5f68b014610287578063c6bbd5a7146102c4578063dbcd9580146102ef578063ed66a3801461032c576100e8565b8063735de9f714610208578063a7d9cfbc14610233578063bb3f6c6a1461025e576100e8565b80632b7387a4116100bb5780632b7387a41461016f5780635e75228f146101795780636ad7b16a146101b657806370480275146101df576100e8565b80630589c4e5146100ed5780631b73cae11461011657806324d7806c14610132576100e8565b366100e857005b600080fd5b3480156100f957600080fd5b50610114600480360381019061010f9190613333565b610369565b005b610130600480360381019061012b919061345a565b610821565b005b34801561013e57600080fd5b506101596004803603810190610154919061326a565b610a2e565b604051610166919061399d565b60405180910390f35b610177610a83565b005b34801561018557600080fd5b506101a0600480360381019061019b9190613293565b610fa3565b6040516101ad9190613b85565b60405180910390f35b3480156101c257600080fd5b506101dd60048036038101906101d891906133db565b611fdf565b005b3480156101eb57600080fd5b506102066004803603810190610201919061326a565b612050565b005b34801561021457600080fd5b5061021d61226f565b60405161022a91906139d3565b60405180910390f35b34801561023f57600080fd5b50610248612287565b6040516102559190613b85565b60405180910390f35b34801561026a57600080fd5b506102856004803603810190610280919061345a565b61228d565b005b34801561029357600080fd5b506102ae60048036038101906102a991906134ac565b612297565b6040516102bb9190613b85565b60405180910390f35b3480156102d057600080fd5b506102d96129ab565b6040516102e691906139b8565b60405180910390f35b3480156102fb57600080fd5b506103166004803603810190610311919061345a565b6129c3565b6040516103239190613b85565b60405180910390f35b34801561033857600080fd5b50610353600480360381019061034e919061336f565b612b2c565b6040516103609190613b6a565b60405180910390f35b600073ffffffffffffffffffffffffffffffffffffffff1660018054906101000a900473ffffffffffffffffffffffffffffffffffffffff1673ffffffffffffffffffffffffffffffffffffffff1614156103f9576040517f08c379a00000000000000000000000000000000000000000000000000000000081526004016103f090613a4e565b60405180910390fd5b60018054906101000a900473ffffffffffffffffffffffffffffffffffffffff1673ffffffffffffffffffffffffffffffffffffffff163373ffffffffffffffffffffffffffffffffffffffff1614610487576040517f08c379a000000000000000000000000000000000000000000000000000000000815260040161047e90613a2e565b60405180910390fd5b80600073ffffffffffffffffffffffffffffffffffffffff168173ffffffffffffffffffffffffffffffffffffffff1614156104f8576040517f08c379a00000000000000000000000000000000000000000000000000000000081526004016104ef90613ace565b60405180910390fd5b600073ffffffffffffffffffffffffffffffffffffffff163373ffffffffffffffffffffffffffffffffffffffff161415610568576040517f08c379a000000000000000000000000000000000000000000000000000000000815260040161055f90613a4e565b60405180910390fd5b6000803373ffffffffffffffffffffffffffffffffffffffff1673ffffffffffffffffffffffffffffffffffffffff16815260200190815260200160002060009054906101000a900460ff166105f3576040517f08c379a00000000000000000000000000000000000000000000000000000000081526004016105ea90613b2e565b60405180910390fd5b6000600981111561062d577f4e487b7100000000000000000000000000000000000000000000000000000000600052602160045260246000fd5b6009811115610665577f4e487b7100000000000000000000000000000000000000000000000000000000600052602160045260246000fd5b83600981111561069e577f4e487b7100000000000000000000000000000000000000000000000000000000600052602160045260246000fd5b1015801561071b57506009808111156106e0577f4e487b7100000000000000000000000000000000000000000000000000000000600052602160045260246000fd5b836009811115610719577f4e487b7100000000000000000000000000000000000000000000000000000000600052602160045260246000fd5b105b61075a576040517f08c379a0000000000000000000000000000000000000000000000000000000008152600401610751906139ee565b60405180910390fd5b8160036000856009811115610798577f4e487b7100000000000000000000000000000000000000000000000000000000600052602160045260246000fd5b60098111156107d0577f4e487b7100000000000000000000000000000000000000000000000000000000600052602160045260246000fd5b815260200190815260200160002060006101000a81548173ffffffffffffffffffffffffffffffffffffffff021916908373ffffffffffffffffffffffffffffffffffffffff160217905550505050565b600073ffffffffffffffffffffffffffffffffffffffff163373ffffffffffffffffffffffffffffffffffffffff161415610891576040517f08c379a000000000000000000000000000000000000000000000000000000000815260040161088890613a4e565b60405180910390fd5b6000803373ffffffffffffffffffffffffffffffffffffffff1673ffffffffffffffffffffffffffffffffffffffff16815260200190815260200160002060009054906101000a900460ff1661091c576040517f08c379a000000000000000000000000000000000000000000000000000000000815260040161091390613b2e565b60405180910390fd5b600360006002600981111561095a577f4e487b7100000000000000000000000000000000000000000000000000000000600052602160045260246000fd5b6009811115610992577f4e487b7100000000000000000000000000000000000000000000000000000000600052602160045260246000fd5b815260200190815260200160002060009054906101000a900473ffffffffffffffffffffffffffffffffffffffff1673ffffffffffffffffffffffffffffffffffffffff1663a0712d68826040518263ffffffff1660e01b81526004016109f99190613b85565b600060405180830381600087803b158015610a1357600080fd5b505af1158015610a27573d6000803e3d6000fd5b5050505050565b60008060008373ffffffffffffffffffffffffffffffffffffffff1673ffffffffffffffffffffffffffffffffffffffff16815260200190815260200160002060009054906101000a900460ff169050919050565b600073ffffffffffffffffffffffffffffffffffffffff163373ffffffffffffffffffffffffffffffffffffffff161415610af3576040517f08c379a0000000000000000000000000000000000000000000000000000000008152600401610aea90613a4e565b60405180910390fd5b6000803373ffffffffffffffffffffffffffffffffffffffff1673ffffffffffffffffffffffffffffffffffffffff16815260200190815260200160002060009054906101000a900460ff16610b7e576040517f08c379a0000000000000000000000000000000000000000000000000000000008152600401610b7590613b2e565b60405180910390fd5b6003600060066009811115610bbc577f4e487b7100000000000000000000000000000000000000000000000000000000600052602160045260246000fd5b6009811115610bf4577f4e487b7100000000000000000000000000000000000000000000000000000000600052602160045260246000fd5b815260200190815260200160002060009054906101000a900473ffffffffffffffffffffffffffffffffffffffff16600073ffffffffffffffffffffffffffffffffffffffff168173ffffffffffffffffffffffffffffffffffffffff161415610c93576040517f08c379a0000000000000000000000000000000000000000000000000000000008152600401610c8a90613ace565b60405180910390fd5b6003600060016009811115610cd1577f4e487b7100000000000000000000000000000000000000000000000000000000600052602160045260246000fd5b6009811115610d09577f4e487b7100000000000000000000000000000000000000000000000000000000600052602160045260246000fd5b815260200190815260200160002060009054906101000a900473ffffffffffffffffffffffffffffffffffffffff16600073ffffffffffffffffffffffffffffffffffffffff168173ffffffffffffffffffffffffffffffffffffffff161415610da8576040517f08c379a0000000000000000000000000000000000000000000000000000000008152600401610d9f90613ace565b60405180910390fd5b60006004604051610db8906138e4565b9081526020016040518091039020600001604051610dd5906138cf565b9081526020016040518091039020604051806040016040529081600082015481526020016001820160009054906101000a900460ff1660ff1660ff1681525050905060006003600060016009811115610e57577f4e487b7100000000000000000000000000000000000000000000000000000000600052602160045260246000fd5b6009811115610e8f577f4e487b7100000000000000000000000000000000000000000000000000000000600052602160045260246000fd5b815260200190815260200160002060009054906101000a900473ffffffffffffffffffffffffffffffffffffffff1673ffffffffffffffffffffffffffffffffffffffff1663313ce5676040518163ffffffff1660e01b8152600401602060405180830381600087803b158015610f0557600080fd5b505af1158015610f19573d6000803e3d6000fd5b505050506040513d601f19601f82011682018060405250810190610f3d91906134e8565b9050610f9d826020015160ff16670de0b6b3a7640000610f5d9190613ee2565b67ffffffffffffffff1682600a610f749190613d6a565b846000015134610f849190613e88565b610f8e9190613e88565b610f989190613ce6565b612bab565b50505050565b6000806004604051610fb4906138e4565b9081526020016040518091039020600001604051610fd1906138cf565b908152602001604051809103902060010160009054906101000a900460ff1660ff1611611033576040517f08c379a000000000000000000000000000000000000000000000000000000000815260040161102a90613b0e565b60405180910390fd5b60036000806009811115611070577f4e487b7100000000000000000000000000000000000000000000000000000000600052602160045260246000fd5b60098111156110a8577f4e487b7100000000000000000000000000000000000000000000000000000000600052602160045260246000fd5b815260200190815260200160002060009054906101000a900473ffffffffffffffffffffffffffffffffffffffff1673ffffffffffffffffffffffffffffffffffffffff168673ffffffffffffffffffffffffffffffffffffffff16146112bd5760008673ffffffffffffffffffffffffffffffffffffffff1663dd62ed3e33306040518363ffffffff1660e01b8152600401611146929190613914565b60206040518083038186803b15801561115e57600080fd5b505afa158015611172573d6000803e3d6000fd5b505050506040513d601f19601f820116820180604052508101906111969190613483565b9050858110156111db576040517f08c379a00000000000000000000000000000000000000000000000000000000081526004016111d290613a6e565b60405180910390fd5b8673ffffffffffffffffffffffffffffffffffffffff1663095ea7b373e592427a0aece92de3edee1f18e0157c05861564886040518363ffffffff1660e01b815260040161122a929190613974565b602060405180830381600087803b15801561124457600080fd5b505af1158015611258573d6000803e3d6000fd5b505050506040513d601f19601f8201168201806040525081019061127c919061330a565b6112bb576040517f08c379a00000000000000000000000000000000000000000000000000000000081526004016112b290613a0e565b60405180910390fd5b505b6112c986333088612f0f565b6000339050600360006001600981111561130c577f4e487b7100000000000000000000000000000000000000000000000000000000600052602160045260246000fd5b6009811115611344577f4e487b7100000000000000000000000000000000000000000000000000000000600052602160045260246000fd5b815260200190815260200160002060009054906101000a900473ffffffffffffffffffffffffffffffffffffffff1673ffffffffffffffffffffffffffffffffffffffff168773ffffffffffffffffffffffffffffffffffffffff1614801561147c575060036000600460098111156113e6577f4e487b7100000000000000000000000000000000000000000000000000000000600052602160045260246000fd5b600981111561141e577f4e487b7100000000000000000000000000000000000000000000000000000000600052602160045260246000fd5b815260200190815260200160002060009054906101000a900473ffffffffffffffffffffffffffffffffffffffff1673ffffffffffffffffffffffffffffffffffffffff168573ffffffffffffffffffffffffffffffffffffffff16145b1561189857600060036000600260098111156114c1577f4e487b7100000000000000000000000000000000000000000000000000000000600052602160045260246000fd5b60098111156114f9577f4e487b7100000000000000000000000000000000000000000000000000000000600052602160045260246000fd5b815260200190815260200160002060009054906101000a900473ffffffffffffffffffffffffffffffffffffffff1673ffffffffffffffffffffffffffffffffffffffff166370a08231306040518263ffffffff1660e01b815260040161156091906138f9565b60206040518083038186803b15801561157857600080fd5b505afa15801561158c573d6000803e3d6000fd5b505050506040513d601f19601f820116820180604052508101906115b09190613483565b9050600060046040516115c2906138e4565b90815260200160405180910390206000016040516115df906138cf565b908152602001604051809103902060010160009054906101000a900460ff16600a61160a9190613d6a565b6004604051611618906138e4565b9081526020016040518091039020600001604051611635906138cf565b908152602001604051809103902060000154896116529190613e88565b61165c9190613ce6565b9050808210156116a1576040517f08c379a000000000000000000000000000000000000000000000000000000000815260040161169890613aee565b60405180910390fd5b60036000600260098111156116df577f4e487b7100000000000000000000000000000000000000000000000000000000600052602160045260246000fd5b6009811115611717577f4e487b7100000000000000000000000000000000000000000000000000000000600052602160045260246000fd5b815260200190815260200160002060009054906101000a900473ffffffffffffffffffffffffffffffffffffffff1673ffffffffffffffffffffffffffffffffffffffff1663095ea7b373e592427a0aece92de3edee1f18e0157c05861564836040518363ffffffff1660e01b8152600401611794929190613974565b602060405180830381600087803b1580156117ae57600080fd5b505af11580156117c2573d6000803e3d6000fd5b505050506040513d601f19601f820116820180604052508101906117e6919061330a565b506003600060026009811115611825577f4e487b7100000000000000000000000000000000000000000000000000000000600052602160045260246000fd5b600981111561185d577f4e487b7100000000000000000000000000000000000000000000000000000000600052602160045260246000fd5b815260200190815260200160002060009054906101000a900473ffffffffffffffffffffffffffffffffffffffff1698508097505050611af7565b60036000600460098111156118d6577f4e487b7100000000000000000000000000000000000000000000000000000000600052602160045260246000fd5b600981111561190e577f4e487b7100000000000000000000000000000000000000000000000000000000600052602160045260246000fd5b815260200190815260200160002060009054906101000a900473ffffffffffffffffffffffffffffffffffffffff1673ffffffffffffffffffffffffffffffffffffffff168773ffffffffffffffffffffffffffffffffffffffff16148015611a46575060036000600160098111156119b0577f4e487b7100000000000000000000000000000000000000000000000000000000600052602160045260246000fd5b60098111156119e8577f4e487b7100000000000000000000000000000000000000000000000000000000600052602160045260246000fd5b815260200190815260200160002060009054906101000a900473ffffffffffffffffffffffffffffffffffffffff1673ffffffffffffffffffffffffffffffffffffffff168573ffffffffffffffffffffffffffffffffffffffff16145b15611af6576003600060026009811115611a89577f4e487b7100000000000000000000000000000000000000000000000000000000600052602160045260246000fd5b6009811115611ac1577f4e487b7100000000000000000000000000000000000000000000000000000000600052602160045260246000fd5b815260200190815260200160002060009054906101000a900473ffffffffffffffffffffffffffffffffffffffff1694503090505b5b60006040518061010001604052808973ffffffffffffffffffffffffffffffffffffffff1681526020018773ffffffffffffffffffffffffffffffffffffffff168152602001610bb862ffffff1681526020018373ffffffffffffffffffffffffffffffffffffffff1681526020018542611b729190613c59565b8152602001888152602001868152602001600073ffffffffffffffffffffffffffffffffffffffff16815250905073e592427a0aece92de3edee1f18e0157c0586156473ffffffffffffffffffffffffffffffffffffffff1663414bf389826040518263ffffffff1660e01b8152600401611bed9190613b4e565b602060405180830381600087803b158015611c0757600080fd5b505af1158015611c1b573d6000803e3d6000fd5b505050506040513d601f19601f82011682018060405250810190611c3f9190613483565b92506003600060046009811115611c7f577f4e487b7100000000000000000000000000000000000000000000000000000000600052602160045260246000fd5b6009811115611cb7577f4e487b7100000000000000000000000000000000000000000000000000000000600052602160045260246000fd5b815260200190815260200160002060009054906101000a900473ffffffffffffffffffffffffffffffffffffffff1673ffffffffffffffffffffffffffffffffffffffff168873ffffffffffffffffffffffffffffffffffffffff16148015611def57506003600060016009811115611d59577f4e487b7100000000000000000000000000000000000000000000000000000000600052602160045260246000fd5b6009811115611d91577f4e487b7100000000000000000000000000000000000000000000000000000000600052602160045260246000fd5b815260200190815260200160002060009054906101000a900473ffffffffffffffffffffffffffffffffffffffff1673ffffffffffffffffffffffffffffffffffffffff168673ffffffffffffffffffffffffffffffffffffffff16145b15611fd45760006004604051611e04906138e4565b9081526020016040518091039020600001604051611e21906138cf565b908152602001604051809103902060010160009054906101000a900460ff16600a611e4c9190613d6a565b6004604051611e5a906138e4565b9081526020016040518091039020600001604051611e77906138cf565b90815260200160405180910390206000015485611e949190613ce6565b611e9e9190613ce6565b90506003600060016009811115611ede577f4e487b7100000000000000000000000000000000000000000000000000000000600052602160045260246000fd5b6009811115611f16577f4e487b7100000000000000000000000000000000000000000000000000000000600052602160045260246000fd5b815260200190815260200160002060009054906101000a900473ffffffffffffffffffffffffffffffffffffffff1673ffffffffffffffffffffffffffffffffffffffff1663a9059cbb33836040518363ffffffff1660e01b8152600401611f7f929190613974565b602060405180830381600087803b158015611f9957600080fd5b505af1158015611fad573d6000803e3d6000fd5b505050506040513d601f19601f82011682018060405250810190611fd1919061330a565b50505b505095945050505050565b80600484604051611ff091906138b8565b90815260200160405180910390206000018360405161200f91906138b8565b90815260200160405180910390206000820151816000015560208201518160010160006101000a81548160ff021916908360ff160217905550905050505050565b600073ffffffffffffffffffffffffffffffffffffffff1660018054906101000a900473ffffffffffffffffffffffffffffffffffffffff1673ffffffffffffffffffffffffffffffffffffffff1614156120e0576040517f08c379a00000000000000000000000000000000000000000000000000000000081526004016120d790613a4e565b60405180910390fd5b60018054906101000a900473ffffffffffffffffffffffffffffffffffffffff1673ffffffffffffffffffffffffffffffffffffffff163373ffffffffffffffffffffffffffffffffffffffff161461216e576040517f08c379a000000000000000000000000000000000000000000000000000000000815260040161216590613a2e565b60405180910390fd5b80600073ffffffffffffffffffffffffffffffffffffffff168173ffffffffffffffffffffffffffffffffffffffff1614156121df576040517f08c379a00000000000000000000000000000000000000000000000000000000081526004016121d690613ace565b60405180910390fd5b60016000808473ffffffffffffffffffffffffffffffffffffffff1673ffffffffffffffffffffffffffffffffffffffff16815260200190815260200160002060006101000a81548160ff02191690831515021790555060018060009054906101000a900460ff166122519190613caf565b600160006101000a81548160ff021916908360ff1602179055505050565b73e592427a0aece92de3edee1f18e0157c0586156481565b60025481565b8060028190555050565b6000816000600281106122d3577f4e487b7100000000000000000000000000000000000000000000000000000000600052603260045260246000fd5b6020020151600073ffffffffffffffffffffffffffffffffffffffff168173ffffffffffffffffffffffffffffffffffffffff161415612348576040517f08c379a000000000000000000000000000000000000000000000000000000000815260040161233f90613ace565b60405180910390fd5b82600160028110612382577f4e487b7100000000000000000000000000000000000000000000000000000000600052603260045260246000fd5b6020020151600073ffffffffffffffffffffffffffffffffffffffff168173ffffffffffffffffffffffffffffffffffffffff1614156123f7576040517f08c379a00000000000000000000000000000000000000000000000000000000081526004016123ee90613ace565b60405180910390fd5b6000851161243a576040517f08c379a000000000000000000000000000000000000000000000000000000000815260040161243190613a8e565b60405180910390fd5b6000600f426124499190613c59565b9050600085600060028110612487577f4e487b7100000000000000000000000000000000000000000000000000000000600052603260045260246000fd5b602002015190506000866001600281106124ca577f4e487b7100000000000000000000000000000000000000000000000000000000600052603260045260246000fd5b602002015190506000610bb890506000339050600080600360006001600981111561251e577f4e487b7100000000000000000000000000000000000000000000000000000000600052602160045260246000fd5b6009811115612556577f4e487b7100000000000000000000000000000000000000000000000000000000600052602160045260246000fd5b815260200190815260200160002060009054906101000a900473ffffffffffffffffffffffffffffffffffffffff1673ffffffffffffffffffffffffffffffffffffffff168b6000600281106125d5577f4e487b7100000000000000000000000000000000000000000000000000000000600052603260045260246000fd5b602002015173ffffffffffffffffffffffffffffffffffffffff16141561285f576003600060046009811115612634577f4e487b7100000000000000000000000000000000000000000000000000000000600052602160045260246000fd5b600981111561266c577f4e487b7100000000000000000000000000000000000000000000000000000000600052602160045260246000fd5b815260200190815260200160002060009054906101000a900473ffffffffffffffffffffffffffffffffffffffff1673ffffffffffffffffffffffffffffffffffffffff168b6001600281106126eb577f4e487b7100000000000000000000000000000000000000000000000000000000600052603260045260246000fd5b602002015173ffffffffffffffffffffffffffffffffffffffff16141561285e57600460405161271a906138e4565b9081526020016040518091039020600001604051612737906138cf565b908152602001604051809103902060010160009054906101000a900460ff16600a6127629190613d6a565b8c6004604051612771906138e4565b908152602001604051809103902060000160405161278e906138cf565b9081526020016040518091039020600001546127aa9190613e88565b6127b49190613ce6565b9b5060036000600260098111156127f4577f4e487b7100000000000000000000000000000000000000000000000000000000600052602160045260246000fd5b600981111561282c577f4e487b7100000000000000000000000000000000000000000000000000000000600052602160045260246000fd5b815260200190815260200160002060009054906101000a900473ffffffffffffffffffffffffffffffffffffffff1695505b5b60006040518061010001604052808873ffffffffffffffffffffffffffffffffffffffff1681526020018773ffffffffffffffffffffffffffffffffffffffff1681526020018662ffffff1681526020018573ffffffffffffffffffffffffffffffffffffffff1681526020018981526020018e81526020018481526020018373ffffffffffffffffffffffffffffffffffffffff16815250905073e592427a0aece92de3edee1f18e0157c0586156473ffffffffffffffffffffffffffffffffffffffff1663414bf389826040518263ffffffff1660e01b81526004016129479190613b4e565b602060405180830381600087803b15801561296157600080fd5b505af1158015612975573d6000803e3d6000fd5b505050506040513d601f19601f820116820180604052508101906129999190613483565b9a505050505050505050505092915050565b73b27308f9f90d607463bb33ea1bebb41c27ce5ab681565b60006003600a6129d39190613d6a565b6002546003600060016009811115612a14577f4e487b7100000000000000000000000000000000000000000000000000000000600052602160045260246000fd5b6009811115612a4c577f4e487b7100000000000000000000000000000000000000000000000000000000600052602160045260246000fd5b815260200190815260200160002060009054906101000a900473ffffffffffffffffffffffffffffffffffffffff1673ffffffffffffffffffffffffffffffffffffffff1663313ce5676040518163ffffffff1660e01b8152600401602060405180830381600087803b158015612ac257600080fd5b505af1158015612ad6573d6000803e3d6000fd5b505050506040513d601f19601f82011682018060405250810190612afa91906134e8565b600a612b069190613d6a565b84612b119190613e88565b612b1b9190613e88565b612b259190613ce6565b9050919050565b612b34613067565b600483604051612b4491906138b8565b908152602001604051809103902060000182604051612b6391906138b8565b9081526020016040518091039020604051806040016040529081600082015481526020016001820160009054906101000a900460ff1660ff1660ff1681525050905092915050565b600073ffffffffffffffffffffffffffffffffffffffff163373ffffffffffffffffffffffffffffffffffffffff161415612c1b576040517f08c379a0000000000000000000000000000000000000000000000000000000008152600401612c1290613a4e565b60405180910390fd5b6000803373ffffffffffffffffffffffffffffffffffffffff1673ffffffffffffffffffffffffffffffffffffffff16815260200190815260200160002060009054906101000a900460ff16612ca6576040517f08c379a0000000000000000000000000000000000000000000000000000000008152600401612c9d90613b2e565b60405180910390fd5b6003600060016009811115612ce4577f4e487b7100000000000000000000000000000000000000000000000000000000600052602160045260246000fd5b6009811115612d1c577f4e487b7100000000000000000000000000000000000000000000000000000000600052602160045260246000fd5b815260200190815260200160002060009054906101000a900473ffffffffffffffffffffffffffffffffffffffff1673ffffffffffffffffffffffffffffffffffffffff1663a0712d68826040518263ffffffff1660e01b8152600401612d839190613b85565b600060405180830381600087803b158015612d9d57600080fd5b505af1158015612db1573d6000803e3d6000fd5b50505050612f0b6003600060016009811115612df6577f4e487b7100000000000000000000000000000000000000000000000000000000600052602160045260246000fd5b6009811115612e2e577f4e487b7100000000000000000000000000000000000000000000000000000000600052602160045260246000fd5b815260200190815260200160002060009054906101000a900473ffffffffffffffffffffffffffffffffffffffff16826003600060026009811115612e9c577f4e487b7100000000000000000000000000000000000000000000000000000000600052602160045260246000fd5b6009811115612ed4577f4e487b7100000000000000000000000000000000000000000000000000000000600052602160045260246000fd5b815260200190815260200160002060009054906101000a900473ffffffffffffffffffffffffffffffffffffffff16600042610fa3565b5050565b6000808573ffffffffffffffffffffffffffffffffffffffff166323b872dd60e01b868686604051602401612f469392919061393d565b604051602081830303815290604052907bffffffffffffffffffffffffffffffffffffffffffffffffffffffff19166020820180517bffffffffffffffffffffffffffffffffffffffffffffffffffffffff8381831617835250505050604051612fb091906138a1565b6000604051808303816000865af19150503d8060008114612fed576040519150601f19603f3d011682016040523d82523d6000602084013e612ff2565b606091505b5091509150818015613020575060008151148061301f57508080602001905181019061301e919061330a565b5b5b61305f576040517f08c379a000000000000000000000000000000000000000000000000000000000815260040161305690613aae565b60405180910390fd5b505050505050565b604051806040016040528060008152602001600060ff1681525090565b600061309761309284613bc5565b613ba0565b905080828560208602820111156130ad57600080fd5b60005b858110156130dd57816130c38882613125565b8452602084019350602083019250506001810190506130b0565b5050509392505050565b60006130fa6130f584613beb565b613ba0565b90508281526020810184848401111561311257600080fd5b61311d848285613ff6565b509392505050565b60008135905061313481614375565b92915050565b6000813590506131498161438c565b92915050565b600082601f83011261316057600080fd5b600261316d848285613084565b91505092915050565b600081519050613185816143a3565b92915050565b60008135905061319a816143ba565b92915050565b600082601f8301126131b157600080fd5b81356131c18482602086016130e7565b91505092915050565b6000604082840312156131dc57600080fd5b6131e66040613ba0565b905060006131f684828501613216565b600083015250602061320a84828501613240565b60208301525092915050565b600081359050613225816143ca565b92915050565b60008151905061323a816143ca565b92915050565b60008135905061324f816143e1565b92915050565b600081519050613264816143e1565b92915050565b60006020828403121561327c57600080fd5b600061328a84828501613125565b91505092915050565b600080600080600060a086880312156132ab57600080fd5b60006132b988828901613125565b95505060206132ca88828901613216565b94505060406132db88828901613125565b93505060606132ec88828901613216565b92505060806132fd88828901613216565b9150509295509295909350565b60006020828403121561331c57600080fd5b600061332a84828501613176565b91505092915050565b6000806040838503121561334657600080fd5b60006133548582860161318b565b92505060206133658582860161313a565b9150509250929050565b6000806040838503121561338257600080fd5b600083013567ffffffffffffffff81111561339c57600080fd5b6133a8858286016131a0565b925050602083013567ffffffffffffffff8111156133c557600080fd5b6133d1858286016131a0565b9150509250929050565b6000806000608084860312156133f057600080fd5b600084013567ffffffffffffffff81111561340a57600080fd5b613416868287016131a0565b935050602084013567ffffffffffffffff81111561343357600080fd5b61343f868287016131a0565b9250506040613450868287016131ca565b9150509250925092565b60006020828403121561346c57600080fd5b600061347a84828501613216565b91505092915050565b60006020828403121561349557600080fd5b60006134a38482850161322b565b91505092915050565b600080606083850312156134bf57600080fd5b60006134cd85828601613216565b92505060206134de8582860161314f565b9150509250929050565b6000602082840312156134fa57600080fd5b600061350884828501613255565b91505092915050565b61351a81613f24565b82525050565b61352981613f24565b82525050565b61353881613f48565b82525050565b600061354982613c1c565b6135538185613c32565b9350613563818560208601614005565b80840191505092915050565b61357881613fae565b82525050565b61358781613fd2565b82525050565b600061359882613c27565b6135a28185613c4e565b93506135b2818560208601614005565b80840191505092915050565b60006135cb600383613c4e565b91506135d682614114565b600382019050919050565b60006135ee601683613c3d565b91506135f98261413d565b602082019050919050565b6000613611603283613c3d565b915061361c82614166565b604082019050919050565b6000613634601e83613c3d565b915061363f826141b5565b602082019050919050565b6000613657601783613c3d565b9150613662826141de565b602082019050919050565b600061367a601683613c3d565b915061368582614207565b602082019050919050565b600061369d601083613c3d565b91506136a882614230565b602082019050919050565b60006136c0600483613c4e565b91506136cb82614259565b600482019050919050565b60006136e3600383613c3d565b91506136ee82614282565b602082019050919050565b6000613706601983613c3d565b9150613711826142ab565b602082019050919050565b6000613729602883613c3d565b9150613734826142d4565b604082019050919050565b600061374c601683613c3d565b915061375782614323565b602082019050919050565b600061376f600d83613c3d565b915061377a8261434c565b602082019050919050565b6101008201600082015161379c6000850182613511565b5060208201516137af6020850182613511565b5060408201516137c26040850182613865565b5060608201516137d56060850182613511565b5060808201516137e86080850182613874565b5060a08201516137fb60a0850182613874565b5060c082015161380e60c0850182613874565b5060e082015161382160e0850182613856565b50505050565b60408201600082015161383d6000850182613874565b5060208201516138506020850182613892565b50505050565b61385f81613f54565b82525050565b61386e81613f74565b82525050565b61387d81613f83565b82525050565b61388c81613f83565b82525050565b61389b81613fa1565b82525050565b60006138ad828461353e565b915081905092915050565b60006138c4828461358d565b915081905092915050565b60006138da826135be565b9150819050919050565b60006138ef826136b3565b9150819050919050565b600060208201905061390e6000830184613520565b92915050565b60006040820190506139296000830185613520565b6139366020830184613520565b9392505050565b60006060820190506139526000830186613520565b61395f6020830185613520565b61396c6040830184613883565b949350505050565b60006040820190506139896000830185613520565b6139966020830184613883565b9392505050565b60006020820190506139b2600083018461352f565b92915050565b60006020820190506139cd600083018461356f565b92915050565b60006020820190506139e8600083018461357e565b92915050565b60006020820190508181036000830152613a07816135e1565b9050919050565b60006020820190508181036000830152613a2781613604565b9050919050565b60006020820190508181036000830152613a4781613627565b9050919050565b60006020820190508181036000830152613a678161364a565b9050919050565b60006020820190508181036000830152613a878161366d565b9050919050565b60006020820190508181036000830152613aa781613690565b9050919050565b60006020820190508181036000830152613ac7816136d6565b9050919050565b60006020820190508181036000830152613ae7816136f9565b9050919050565b60006020820190508181036000830152613b078161371c565b9050919050565b60006020820190508181036000830152613b278161373f565b9050919050565b60006020820190508181036000830152613b4781613762565b9050919050565b600061010082019050613b646000830184613785565b92915050565b6000604082019050613b7f6000830184613827565b92915050565b6000602082019050613b9a6000830184613883565b92915050565b6000613baa613bbb565b9050613bb68282614038565b919050565b6000604051905090565b600067ffffffffffffffff821115613be057613bdf6140c7565b5b602082029050919050565b600067ffffffffffffffff821115613c0657613c056140c7565b5b613c0f826140f6565b9050602081019050919050565b600081519050919050565b600081519050919050565b600081905092915050565b600082825260208201905092915050565b600081905092915050565b6000613c6482613f83565b9150613c6f83613f83565b9250827fffffffffffffffffffffffffffffffffffffffffffffffffffffffffffffffff03821115613ca457613ca3614069565b5b828201905092915050565b6000613cba82613fa1565b9150613cc583613fa1565b92508260ff03821115613cdb57613cda614069565b5b828201905092915050565b6000613cf182613f83565b9150613cfc83613f83565b925082613d0c57613d0b614098565b5b828204905092915050565b6000808291508390505b6001851115613d6157808604811115613d3d57613d3c614069565b5b6001851615613d4c5780820291505b8081029050613d5a85614107565b9450613d21565b94509492505050565b6000613d7582613f83565b9150613d8083613fa1565b9250613dad7fffffffffffffffffffffffffffffffffffffffffffffffffffffffffffffffff8484613db5565b905092915050565b600082613dc55760019050613e81565b81613dd35760009050613e81565b8160018114613de95760028114613df357613e22565b6001915050613e81565b60ff841115613e0557613e04614069565b5b8360020a915084821115613e1c57613e1b614069565b5b50613e81565b5060208310610133831016604e8410600b8410161715613e575782820a905083811115613e5257613e51614069565b5b613e81565b613e648484846001613d17565b92509050818404811115613e7b57613e7a614069565b5b81810290505b9392505050565b6000613e9382613f83565b9150613e9e83613f83565b9250817fffffffffffffffffffffffffffffffffffffffffffffffffffffffffffffffff0483118215151615613ed757613ed6614069565b5b828202905092915050565b6000613eed82613f8d565b9150613ef883613f8d565b92508167ffffffffffffffff0483118215151615613f1957613f18614069565b5b828202905092915050565b6000613f2f82613f54565b9050919050565b6000613f4182613f54565b9050919050565b60008115159050919050565b600073ffffffffffffffffffffffffffffffffffffffff82169050919050565b600062ffffff82169050919050565b6000819050919050565b600067ffffffffffffffff82169050919050565b600060ff82169050919050565b6000613fb982613fc0565b9050919050565b6000613fcb82613f54565b9050919050565b6000613fdd82613fe4565b9050919050565b6000613fef82613f54565b9050919050565b82818337600083830152505050565b60005b83811015614023578082015181840152602081019050614008565b83811115614032576000848401525b50505050565b614041826140f6565b810181811067ffffffffffffffff821117156140605761405f6140c7565b5b80604052505050565b7f4e487b7100000000000000000000000000000000000000000000000000000000600052601160045260246000fd5b7f4e487b7100000000000000000000000000000000000000000000000000000000600052601260045260246000fd5b7f4e487b7100000000000000000000000000000000000000000000000000000000600052604160045260246000fd5b6000601f19601f8301169050919050565b60008160011c9050919050565b7f4f43580000000000000000000000000000000000000000000000000000000000600082015250565b7f496e76616c696420636f6e747261637420696e64657800000000000000000000600082015250565b7f4f637845786368616e67652e7377617028293a20617070726f766520666f722060008201527f74686520726f75746572206661696c65642e0000000000000000000000000000602082015250565b7f466f722063616c6c65722065787065637465642062652063726561746f720000600082015250565b7f496e76616c69642063726561746f722061646472657373000000000000000000600082015250565b7f496e73756666696369656e7420616c6c6f77616e636500000000000000000000600082015250565b7f496e76616c696420616d6f756e74496e00000000000000000000000000000000600082015250565b7f4f43415400000000000000000000000000000000000000000000000000000000600082015250565b7f5354460000000000000000000000000000000000000000000000000000000000600082015250565b7f4578706563746564206e6f6e2d7a65726f206164647265737300000000000000600082015250565b7f496e73756666696369656e74204f43582062616c616e636520696e207468652060008201527f636f6e7472616374000000000000000000000000000000000000000000000000602082015250565b7f496e76616c6964204f4341542f4f43582071756f746500000000000000000000600082015250565b7f4d7573742062652061646d696e00000000000000000000000000000000000000600082015250565b61437e81613f24565b811461438957600080fd5b50565b61439581613f36565b81146143a057600080fd5b50565b6143ac81613f48565b81146143b757600080fd5b50565b600a81106143c757600080fd5b50565b6143d381613f83565b81146143de57600080fd5b50565b6143ea81613fa1565b81146143f557600080fd5b5056fea26469706673582212202abac296a21db5c25b106fcfff38c1592982edf7e680892f20f3386b2f48b91964736f6c63430008040033",
  "immutableReferences": {},
  "source": "// SPDX-License-Identifier: MIT\r\npragma solidity ^0.8.0;\r\n\r\n// https://soliditydeveloper.com/uniswap2\r\n// https://docs.uniswap.org/protocol/V2/guides/smart-contract-integration/trading-from-a-smart-contract\r\n// https://ethereum.org/ru/developers/tutorials/transfers-and-approval-of-erc-20-tokens-from-a-solidity-smart-contract/\r\n// https://solidity-by-example.org/app/erc20/\r\n\r\nimport \"@uniswap/v3-periphery/contracts/interfaces/ISwapRouter.sol\";\r\nimport \"@uniswap/v3-periphery/contracts/interfaces/IQuoter.sol\";\r\n// import \"@uniswap/v2-periphery/contracts/interfaces/IUniswapV2Router02.sol\";\r\nimport '@uniswap/v3-periphery/contracts/libraries/TransferHelper.sol';\r\nimport \"@openzeppelin/contracts/token/ERC20/IERC20.sol\"; // openzeppelin 4.5 (for solidity 0.8.x)\r\nimport \"@openzeppelin/contracts/utils/Strings.sol\";\r\nimport \"@openzeppelin/contracts/token/ERC721/IERC721.sol\";\r\nimport \"./OcxBase.sol\";\r\nimport \"./PawnNFTs.sol\";\r\nimport \"./OcatToken.sol\";\r\nimport \"./common/OcxCommon.sol\";\r\n\r\ncontract OcxExchange is OcxBase {\r\n\r\n    // IUniswapV2Router02  public uniswapRouter;\r\n    ISwapRouter public constant uniswapRouter = ISwapRouter(UNISWAP_V3_ROUTER_ADDRESS);\r\n    IQuoter public constant quoter = IQuoter(UNISWAP_V3_QUOTER_ADDRESS);\r\n    // address payable private ocxLocalPoolAddress;\r\n    mapping(string => CurrencyPriceInfo) private quotes;\r\n\r\n\r\n    event estimatedOcxAmountForBurningOcat(uint256);\r\n\r\n    receive() external payable {}\r\n\r\n    constructor() {\r\n        // uniswapRouter = IUniswapV2Router02(UNISWAP_V3_ROUTER_ADDRESS);\r\n    }\r\n\r\n    function swap(\r\n        address _tokenIn,\r\n        uint _amountIn,\r\n        address _tokenOut,\r\n        uint _amountOutMin,\r\n        uint _deadline\r\n    ) public \r\n    returns(uint amountOut) {\r\n        require(quotes[\"OCAT\"].vs[\"OCX\"].decimals > 0, \"Invalid OCAT/OCX quote\");\r\n        // transferFrom\r\n        //    Check for allowance\r\n        if (_tokenIn != contractAddress[CommonContracts.WETH]) {\r\n            uint256 allowance = IERC20(_tokenIn).allowance(msg.sender, address(this));\r\n            require(allowance >= _amountIn, \"Insufficient allowance\");\r\n            //     Do transferFrom\r\n            // approve\r\n            require(\r\n                IERC20(_tokenIn).approve(address(UNISWAP_V3_ROUTER_ADDRESS), _amountIn), \r\n                'OcxExchange.swap(): approve for the router failed.'\r\n            );\r\n        }\r\n        TransferHelper.safeTransferFrom(_tokenIn, msg.sender, address(this), _amountIn);\r\n        // \r\n        address recipient = msg.sender;\r\n        if (_tokenIn == contractAddress[CommonContracts.OCAT] \r\n         && _tokenOut == contractAddress[CommonContracts.UNI]) {\r\n            uint256 ocxBalance = IERC20(contractAddress[CommonContracts.OCX]).balanceOf(address(this));\r\n            uint256 ocxAmount = (_amountIn * quotes[\"OCAT\"].vs[\"OCX\"].value) / \r\n                                (10 ** quotes[\"OCAT\"].vs[\"OCX\"].decimals);\r\n            require(ocxBalance >= ocxAmount, \"Insufficient OCX balance in the contract\");\r\n            IERC20(contractAddress[CommonContracts.OCX]).approve(UNISWAP_V3_ROUTER_ADDRESS, ocxAmount);\r\n            _tokenIn = contractAddress[CommonContracts.OCX];\r\n            _amountIn = ocxAmount;\r\n        } else if (_tokenIn == contractAddress[CommonContracts.UNI] \r\n                && _tokenOut == contractAddress[CommonContracts.OCAT]) {\r\n            // Tophalf for UNI->OCAT swap\r\n            _tokenOut = contractAddress[CommonContracts.OCX];\r\n            recipient = address(this);\r\n        }\r\n\r\n        ISwapRouter.ExactInputSingleParams memory params =\r\n            ISwapRouter.ExactInputSingleParams({\r\n                tokenIn: _tokenIn,\r\n                tokenOut: _tokenOut,\r\n                fee: POOL_FEE,\r\n                recipient: recipient,\r\n                deadline: block.timestamp + _deadline,\r\n                amountIn: _amountIn,\r\n                amountOutMinimum: _amountOutMin,\r\n                sqrtPriceLimitX96: 0\r\n            });\r\n\r\n        // The call to `exactInputSingle` executes the swap.\r\n        amountOut = uniswapRouter.exactInputSingle(params);\r\n\r\n        // Bottomhalf for UNI->OCAT swap\r\n        if (_tokenIn == contractAddress[CommonContracts.UNI] \r\n        && _tokenOut == contractAddress[CommonContracts.OCAT]) {\r\n            uint256 ocatAmount = (amountOut / quotes[\"OCAT\"].vs[\"OCX\"].value) / \r\n                                 (10 ** quotes[\"OCAT\"].vs[\"OCX\"].decimals);\r\n            IERC20(contractAddress[CommonContracts.OCAT]).transfer(msg.sender, ocatAmount);\r\n        }\r\n    }\r\n    function getAmountsOut(uint256 amountIn, address[2] memory path) public \r\n    onlyValidAddress(path[0]) onlyValidAddress(path[1])\r\n    returns(uint256 expectedAmountOut) {\r\n        require(amountIn > 0, \"Invalid amountIn\");\r\n        uint256 deadline = block.timestamp + 15; // using 'now' for convenience, for mainnet pass deadline from frontend!\r\n        address tokenIn = path[0];\r\n        address tokenOut = path[1];\r\n        uint24 fee = 3000;\r\n        address recipient = msg.sender;\r\n        uint256 amountOutMinimum = 0;\r\n        uint160 sqrtPriceLimitX96 = 0;\r\n\r\n        if (path[0] == contractAddress[CommonContracts.OCAT]) {\r\n            if (path[1] == contractAddress[CommonContracts.UNI]) {\r\n                // Get OCAT:OCX quote and calculate OCX amount for \"amountIn\"\r\n                amountIn = (quotes[\"OCAT\"].vs[\"OCX\"].value * amountIn) / \r\n                           (10 ** quotes[\"OCAT\"].vs[\"OCX\"].decimals);\r\n                // Get OCX:UNI quote\r\n                // Multiple it by OCAT:OCX quote\r\n                tokenIn = contractAddress[CommonContracts.OCX];\r\n            }\r\n        }\r\n        ISwapRouter.ExactInputSingleParams  memory params = ISwapRouter.ExactInputSingleParams  (\r\n            tokenIn,\r\n            tokenOut,\r\n            fee,\r\n            recipient,\r\n            deadline,\r\n            amountIn,\r\n            amountOutMinimum,\r\n            sqrtPriceLimitX96\r\n        );\r\n        expectedAmountOut = uniswapRouter.exactInputSingle(params);\r\n    }\r\n    /**\r\n     *  Mint OCAT by funding ETH\r\n     */\r\n    function mintOcat() public payable \r\n    onlyAdmin onlyValidAddress(contractAddress[CommonContracts.PRICE_ORACLE]) \r\n    onlyValidAddress(contractAddress[CommonContracts.OCAT]) {\r\n        OcxPrice memory ethAudPriceInfo = quotes[\"OCAT\"].vs[\"OCX\"];\r\n        uint8 ocatDecimals = IOcat(contractAddress[CommonContracts.OCAT]).decimals();\r\n        mintOcat(\r\n            (msg.value * ethAudPriceInfo.value * (10**ocatDecimals)) / \r\n            ((10**18) * ethAudPriceInfo.decimals)\r\n        );\r\n    }\r\n    /**\r\n     * Mint OCAT as specified amount\r\n     */\r\n    function mintOcat(uint256 amount) internal onlyAdmin {\r\n        IOcxERC20(contractAddress[CommonContracts.OCAT]).mint(amount);\r\n        swap(\r\n            contractAddress[CommonContracts.OCAT], amount, \r\n            contractAddress[CommonContracts.OCX], 0, \r\n            block.timestamp\r\n        );\r\n    }\r\n    function _getEstimatedOcxforOcat(uint ocatAmount) internal returns (uint256) {\r\n        address tokenIn = contractAddress[CommonContracts.OCX];\r\n        address tokenOut = contractAddress[CommonContracts.OCAT];\r\n        uint24 fee = 3000;\r\n        uint160 sqrtPriceLimitX96 = 0;\r\n\r\n        // getQuoteAtTick()\r\n        return quoter.quoteExactOutputSingle(\r\n            tokenIn,\r\n            tokenOut,\r\n            fee,\r\n            ocatAmount,\r\n            sqrtPriceLimitX96\r\n        );\r\n    }\r\n    function burnOcat(uint256 amount) internal onlyAdmin {\r\n        IERC20 ocat = IERC20(contractAddress[CommonContracts.OCAT]);\r\n        if (ocat.balanceOf(address(this)) < amount) {\r\n            uint256 ocxAmount = _getEstimatedOcxforOcat(amount);\r\n            IERC20 ocx = IERC20(contractAddress[CommonContracts.OCX]);\r\n            /*********************************************************\r\n             * Warn to admin to deposit additional ETHs\r\n             *********************************************************/\r\n            require(ocx.balanceOf(address(this)) < ocxAmount, \"1\");\r\n            //////////////////////////////////////////////////////////\r\n            emit estimatedOcxAmountForBurningOcat(ocxAmount);\r\n            IERC20(contractAddress[CommonContracts.OCX]).approve(UNISWAP_V3_ROUTER_ADDRESS, ocxAmount);\r\n            swap(\r\n                contractAddress[CommonContracts.OCX], ocxAmount, \r\n                contractAddress[CommonContracts.OCAT], 0, \r\n                block.timestamp\r\n            );\r\n        }\r\n        IOcxERC20(contractAddress[CommonContracts.OCAT]).burn(amount);\r\n    }\r\n    function mintOcx(uint256 amount) public payable onlyAdmin  {\r\n        IOcxERC20(contractAddress[CommonContracts.OCX]).mint(amount);\r\n    }\r\n    function burnOcx(uint256 amount) internal onlyAdmin {\r\n        IOcxERC20(contractAddress[CommonContracts.OCX]).burn(amount);\r\n    }\r\n    function setQuote(string memory left, string memory right, OcxPrice memory newQuote) public {\r\n        quotes[left].vs[right] = newQuote;\r\n    }\r\n    function getQuote(string memory left, string memory right) public view returns(OcxPrice memory) {\r\n        return quotes[left].vs[right];\r\n    }\r\n}\r\n",
  "sourcePath": "E:\\Work\\OpenchainTestVersion\\server\\contracts\\OcxExchange.sol",
  "compiler": {
    "name": "solc",
    "version": "0.8.4+commit.c7e474f2.Emscripten.clang"
  },
  "schemaVersion": "3.4.7",
  "updatedAt": "2022-05-04T11:04:01.656Z",
  "devdoc": {
    "kind": "dev",
    "methods": {},
    "version": 1
  },
  "userdoc": {
    "kind": "user",
    "methods": {
      "mintOcat()": {
        "notice": "Mint OCAT by funding ETH"
      }
    },
    "version": 1
  }
}