{
  "contractName": "OcxExchange",
  "abi": [
    {
      "inputs": [],
      "stateMutability": "nonpayable",
      "type": "constructor"
    },
    {
      "anonymous": false,
      "inputs": [
        {
          "indexed": false,
          "internalType": "uint256",
          "name": "",
          "type": "uint256"
        }
      ],
      "name": "estimatedOcxAmountForBurningOcat",
      "type": "event"
    },
    {
      "inputs": [
        {
          "internalType": "address",
          "name": "_admin",
          "type": "address"
        }
      ],
      "name": "addAdmin",
      "outputs": [],
      "stateMutability": "nonpayable",
      "type": "function"
    },
    {
      "inputs": [
        {
          "internalType": "uint256",
          "name": "price",
          "type": "uint256"
        }
      ],
      "name": "convertToOcat",
      "outputs": [
        {
          "internalType": "uint256",
          "name": "_ocatPrice",
          "type": "uint256"
        }
      ],
      "stateMutability": "nonpayable",
      "type": "function"
    },
    {
      "inputs": [
        {
          "internalType": "address",
          "name": "_address",
          "type": "address"
        }
      ],
      "name": "isAdmin",
      "outputs": [
        {
          "internalType": "bool",
          "name": "yes",
          "type": "bool"
        }
      ],
      "stateMutability": "view",
      "type": "function",
      "constant": true
    },
    {
      "inputs": [],
      "name": "ocatPrice",
      "outputs": [
        {
          "internalType": "uint256",
          "name": "",
          "type": "uint256"
        }
      ],
      "stateMutability": "view",
      "type": "function",
      "constant": true
    },
    {
      "inputs": [],
      "name": "quoter",
      "outputs": [
        {
          "internalType": "contract IQuoter",
          "name": "",
          "type": "address"
        }
      ],
      "stateMutability": "view",
      "type": "function",
      "constant": true
    },
    {
      "inputs": [
        {
          "internalType": "enum CommonContracts",
          "name": "contractIndex",
          "type": "uint8"
        },
        {
          "internalType": "address payable",
          "name": "_address",
          "type": "address"
        }
      ],
      "name": "setAddress",
      "outputs": [],
      "stateMutability": "nonpayable",
      "type": "function"
    },
    {
      "inputs": [
        {
          "internalType": "uint256",
          "name": "price",
          "type": "uint256"
        }
      ],
      "name": "setOcatPrice",
      "outputs": [],
      "stateMutability": "nonpayable",
      "type": "function"
    },
    {
      "inputs": [],
      "name": "uniswapRouter",
      "outputs": [
        {
          "internalType": "contract ISwapRouter",
          "name": "",
          "type": "address"
        }
      ],
      "stateMutability": "view",
      "type": "function",
      "constant": true
    },
    {
      "stateMutability": "payable",
      "type": "receive",
      "payable": true
    },
    {
      "inputs": [
        {
          "internalType": "address",
          "name": "_tokenIn",
          "type": "address"
        },
        {
          "internalType": "uint256",
          "name": "_amountIn",
          "type": "uint256"
        },
        {
          "internalType": "address",
          "name": "_tokenOut",
          "type": "address"
        },
        {
          "internalType": "uint256",
          "name": "_amountOutMin",
          "type": "uint256"
        },
        {
          "internalType": "uint256",
          "name": "_deadline",
          "type": "uint256"
        }
      ],
      "name": "swap",
      "outputs": [
        {
          "internalType": "uint256",
          "name": "amountOut",
          "type": "uint256"
        }
      ],
      "stateMutability": "nonpayable",
      "type": "function"
    },
    {
      "inputs": [
        {
          "internalType": "uint256",
          "name": "amountIn",
          "type": "uint256"
        },
        {
          "internalType": "address[2]",
          "name": "path",
          "type": "address[2]"
        }
      ],
      "name": "getAmountsOut",
      "outputs": [
        {
          "internalType": "uint256",
          "name": "expectedAmountOut",
          "type": "uint256"
        }
      ],
      "stateMutability": "nonpayable",
      "type": "function"
    },
    {
      "inputs": [],
      "name": "mintOcat",
      "outputs": [],
      "stateMutability": "payable",
      "type": "function",
      "payable": true
    },
    {
      "inputs": [
        {
          "internalType": "uint256",
          "name": "amount",
          "type": "uint256"
        }
      ],
      "name": "mintOcx",
      "outputs": [],
      "stateMutability": "payable",
      "type": "function",
      "payable": true
    },
    {
      "inputs": [
        {
          "internalType": "string",
          "name": "left",
          "type": "string"
        },
        {
          "internalType": "string",
          "name": "right",
          "type": "string"
        },
        {
          "components": [
            {
              "internalType": "uint256",
              "name": "value",
              "type": "uint256"
            },
            {
              "internalType": "uint8",
              "name": "decimals",
              "type": "uint8"
            }
          ],
          "internalType": "struct OcxPrice",
          "name": "newQuote",
          "type": "tuple"
        }
      ],
      "name": "setQuote",
      "outputs": [],
      "stateMutability": "nonpayable",
      "type": "function"
    },
    {
      "inputs": [
        {
          "internalType": "string",
          "name": "left",
          "type": "string"
        },
        {
          "internalType": "string",
          "name": "right",
          "type": "string"
        }
      ],
      "name": "getQuote",
      "outputs": [
        {
          "components": [
            {
              "internalType": "uint256",
              "name": "value",
              "type": "uint256"
            },
            {
              "internalType": "uint8",
              "name": "decimals",
              "type": "uint8"
            }
          ],
          "internalType": "struct OcxPrice",
          "name": "",
          "type": "tuple"
        }
      ],
      "stateMutability": "view",
      "type": "function",
      "constant": true
    }
  ],
  "bytecode": "0x60806040523480156200001157600080fd5b50336001806101000a81548173ffffffffffffffffffffffffffffffffffffffff021916908373ffffffffffffffffffffffffffffffffffffffff16021790555062000063336200007260201b60201c565b6103e86002819055506200047d565b600073ffffffffffffffffffffffffffffffffffffffff1660018054906101000a900473ffffffffffffffffffffffffffffffffffffffff1673ffffffffffffffffffffffffffffffffffffffff16141562000105576040517f08c379a0000000000000000000000000000000000000000000000000000000008152600401620000fc9062000333565b60405180910390fd5b60018054906101000a900473ffffffffffffffffffffffffffffffffffffffff1673ffffffffffffffffffffffffffffffffffffffff163373ffffffffffffffffffffffffffffffffffffffff161462000196576040517f08c379a00000000000000000000000000000000000000000000000000000000081526004016200018d9062000311565b60405180910390fd5b80600073ffffffffffffffffffffffffffffffffffffffff168173ffffffffffffffffffffffffffffffffffffffff1614156200020a576040517f08c379a0000000000000000000000000000000000000000000000000000000008152600401620002019062000355565b60405180910390fd5b60016000808473ffffffffffffffffffffffffffffffffffffffff1673ffffffffffffffffffffffffffffffffffffffff16815260200190815260200160002060006101000a81548160ff02191690831515021790555060018060009054906101000a900460ff166200027e919062000388565b600160006101000a81548160ff021916908360ff1602179055505050565b6000620002ab601e8362000377565b9150620002b88262000402565b602082019050919050565b6000620002d260178362000377565b9150620002df826200042b565b602082019050919050565b6000620002f960198362000377565b9150620003068262000454565b602082019050919050565b600060208201905081810360008301526200032c816200029c565b9050919050565b600060208201905081810360008301526200034e81620002c3565b9050919050565b600060208201905081810360008301526200037081620002ea565b9050919050565b600082825260208201905092915050565b60006200039582620003c6565b9150620003a283620003c6565b92508260ff03821115620003bb57620003ba620003d3565b5b828201905092915050565b600060ff82169050919050565b7f4e487b7100000000000000000000000000000000000000000000000000000000600052601160045260246000fd5b7f466f722063616c6c65722065787065637465642062652063726561746f720000600082015250565b7f496e76616c69642063726561746f722061646472657373000000000000000000600082015250565b7f4578706563746564206e6f6e2d7a65726f206164647265737300000000000000600082015250565b614052806200048d6000396000f3fe6080604052600436106100e15760003560e01c8063735de9f71161007f578063bd5f68b011610059578063bd5f68b014610287578063c6bbd5a7146102c4578063dbcd9580146102ef578063ed66a3801461032c576100e8565b8063735de9f714610208578063a7d9cfbc14610233578063bb3f6c6a1461025e576100e8565b80632b7387a4116100bb5780632b7387a41461016f5780635e75228f146101795780636ad7b16a146101b657806370480275146101df576100e8565b80630589c4e5146100ed5780631b73cae11461011657806324d7806c14610132576100e8565b366100e857005b600080fd5b3480156100f957600080fd5b50610114600480360381019061010f9190613070565b610369565b005b610130600480360381019061012b9190613197565b610821565b005b34801561013e57600080fd5b5061015960048036038101906101549190612fa7565b610a2e565b6040516101669190613679565b60405180910390f35b610177610a83565b005b34801561018557600080fd5b506101a0600480360381019061019b9190612fd0565b610fa3565b6040516101ad9190613821565b60405180910390f35b3480156101c257600080fd5b506101dd60048036038101906101d89190613118565b611d1c565b005b3480156101eb57600080fd5b5061020660048036038101906102019190612fa7565b611d8d565b005b34801561021457600080fd5b5061021d611fac565b60405161022a91906136af565b60405180910390f35b34801561023f57600080fd5b50610248611fc4565b6040516102559190613821565b60405180910390f35b34801561026a57600080fd5b5061028560048036038101906102809190613197565b611fca565b005b34801561029357600080fd5b506102ae60048036038101906102a991906131e9565b611fd4565b6040516102bb9190613821565b60405180910390f35b3480156102d057600080fd5b506102d96126e8565b6040516102e69190613694565b60405180910390f35b3480156102fb57600080fd5b5061031660048036038101906103119190613197565b612700565b6040516103239190613821565b60405180910390f35b34801561033857600080fd5b50610353600480360381019061034e91906130ac565b612869565b6040516103609190613806565b60405180910390f35b600073ffffffffffffffffffffffffffffffffffffffff1660018054906101000a900473ffffffffffffffffffffffffffffffffffffffff1673ffffffffffffffffffffffffffffffffffffffff1614156103f9576040517f08c379a00000000000000000000000000000000000000000000000000000000081526004016103f09061372a565b60405180910390fd5b60018054906101000a900473ffffffffffffffffffffffffffffffffffffffff1673ffffffffffffffffffffffffffffffffffffffff163373ffffffffffffffffffffffffffffffffffffffff1614610487576040517f08c379a000000000000000000000000000000000000000000000000000000000815260040161047e9061370a565b60405180910390fd5b80600073ffffffffffffffffffffffffffffffffffffffff168173ffffffffffffffffffffffffffffffffffffffff1614156104f8576040517f08c379a00000000000000000000000000000000000000000000000000000000081526004016104ef906137aa565b60405180910390fd5b600073ffffffffffffffffffffffffffffffffffffffff163373ffffffffffffffffffffffffffffffffffffffff161415610568576040517f08c379a000000000000000000000000000000000000000000000000000000000815260040161055f9061372a565b60405180910390fd5b6000803373ffffffffffffffffffffffffffffffffffffffff1673ffffffffffffffffffffffffffffffffffffffff16815260200190815260200160002060009054906101000a900460ff166105f3576040517f08c379a00000000000000000000000000000000000000000000000000000000081526004016105ea906137ca565b60405180910390fd5b6000600981111561062d577f4e487b7100000000000000000000000000000000000000000000000000000000600052602160045260246000fd5b6009811115610665577f4e487b7100000000000000000000000000000000000000000000000000000000600052602160045260246000fd5b83600981111561069e577f4e487b7100000000000000000000000000000000000000000000000000000000600052602160045260246000fd5b1015801561071b57506009808111156106e0577f4e487b7100000000000000000000000000000000000000000000000000000000600052602160045260246000fd5b836009811115610719577f4e487b7100000000000000000000000000000000000000000000000000000000600052602160045260246000fd5b105b61075a576040517f08c379a0000000000000000000000000000000000000000000000000000000008152600401610751906136ca565b60405180910390fd5b8160036000856009811115610798577f4e487b7100000000000000000000000000000000000000000000000000000000600052602160045260246000fd5b60098111156107d0577f4e487b7100000000000000000000000000000000000000000000000000000000600052602160045260246000fd5b815260200190815260200160002060006101000a81548173ffffffffffffffffffffffffffffffffffffffff021916908373ffffffffffffffffffffffffffffffffffffffff160217905550505050565b600073ffffffffffffffffffffffffffffffffffffffff163373ffffffffffffffffffffffffffffffffffffffff161415610891576040517f08c379a00000000000000000000000000000000000000000000000000000000081526004016108889061372a565b60405180910390fd5b6000803373ffffffffffffffffffffffffffffffffffffffff1673ffffffffffffffffffffffffffffffffffffffff16815260200190815260200160002060009054906101000a900460ff1661091c576040517f08c379a0000000000000000000000000000000000000000000000000000000008152600401610913906137ca565b60405180910390fd5b600360006002600981111561095a577f4e487b7100000000000000000000000000000000000000000000000000000000600052602160045260246000fd5b6009811115610992577f4e487b7100000000000000000000000000000000000000000000000000000000600052602160045260246000fd5b815260200190815260200160002060009054906101000a900473ffffffffffffffffffffffffffffffffffffffff1673ffffffffffffffffffffffffffffffffffffffff1663a0712d68826040518263ffffffff1660e01b81526004016109f99190613821565b600060405180830381600087803b158015610a1357600080fd5b505af1158015610a27573d6000803e3d6000fd5b5050505050565b60008060008373ffffffffffffffffffffffffffffffffffffffff1673ffffffffffffffffffffffffffffffffffffffff16815260200190815260200160002060009054906101000a900460ff169050919050565b600073ffffffffffffffffffffffffffffffffffffffff163373ffffffffffffffffffffffffffffffffffffffff161415610af3576040517f08c379a0000000000000000000000000000000000000000000000000000000008152600401610aea9061372a565b60405180910390fd5b6000803373ffffffffffffffffffffffffffffffffffffffff1673ffffffffffffffffffffffffffffffffffffffff16815260200190815260200160002060009054906101000a900460ff16610b7e576040517f08c379a0000000000000000000000000000000000000000000000000000000008152600401610b75906137ca565b60405180910390fd5b6003600060066009811115610bbc577f4e487b7100000000000000000000000000000000000000000000000000000000600052602160045260246000fd5b6009811115610bf4577f4e487b7100000000000000000000000000000000000000000000000000000000600052602160045260246000fd5b815260200190815260200160002060009054906101000a900473ffffffffffffffffffffffffffffffffffffffff16600073ffffffffffffffffffffffffffffffffffffffff168173ffffffffffffffffffffffffffffffffffffffff161415610c93576040517f08c379a0000000000000000000000000000000000000000000000000000000008152600401610c8a906137aa565b60405180910390fd5b6003600060016009811115610cd1577f4e487b7100000000000000000000000000000000000000000000000000000000600052602160045260246000fd5b6009811115610d09577f4e487b7100000000000000000000000000000000000000000000000000000000600052602160045260246000fd5b815260200190815260200160002060009054906101000a900473ffffffffffffffffffffffffffffffffffffffff16600073ffffffffffffffffffffffffffffffffffffffff168173ffffffffffffffffffffffffffffffffffffffff161415610da8576040517f08c379a0000000000000000000000000000000000000000000000000000000008152600401610d9f906137aa565b60405180910390fd5b60006004604051610db8906135db565b9081526020016040518091039020600001604051610dd5906135c6565b9081526020016040518091039020604051806040016040529081600082015481526020016001820160009054906101000a900460ff1660ff1660ff1681525050905060006003600060016009811115610e57577f4e487b7100000000000000000000000000000000000000000000000000000000600052602160045260246000fd5b6009811115610e8f577f4e487b7100000000000000000000000000000000000000000000000000000000600052602160045260246000fd5b815260200190815260200160002060009054906101000a900473ffffffffffffffffffffffffffffffffffffffff1673ffffffffffffffffffffffffffffffffffffffff1663313ce5676040518163ffffffff1660e01b8152600401602060405180830381600087803b158015610f0557600080fd5b505af1158015610f19573d6000803e3d6000fd5b505050506040513d601f19601f82011682018060405250810190610f3d9190613225565b9050610f9d826020015160ff16670de0b6b3a7640000610f5d9190613b7e565b67ffffffffffffffff1682600a610f749190613a06565b846000015134610f849190613b24565b610f8e9190613b24565b610f989190613982565b6128e8565b50505050565b600060036000806009811115610fe2577f4e487b7100000000000000000000000000000000000000000000000000000000600052602160045260246000fd5b600981111561101a577f4e487b7100000000000000000000000000000000000000000000000000000000600052602160045260246000fd5b815260200190815260200160002060009054906101000a900473ffffffffffffffffffffffffffffffffffffffff1673ffffffffffffffffffffffffffffffffffffffff168673ffffffffffffffffffffffffffffffffffffffff161461122f5760008673ffffffffffffffffffffffffffffffffffffffff1663dd62ed3e33306040518363ffffffff1660e01b81526004016110b89291906135f0565b60206040518083038186803b1580156110d057600080fd5b505afa1580156110e4573d6000803e3d6000fd5b505050506040513d601f19601f8201168201806040525081019061110891906131c0565b90508581101561114d576040517f08c379a00000000000000000000000000000000000000000000000000000000081526004016111449061374a565b60405180910390fd5b8673ffffffffffffffffffffffffffffffffffffffff1663095ea7b373e592427a0aece92de3edee1f18e0157c05861564886040518363ffffffff1660e01b815260040161119c929190613650565b602060405180830381600087803b1580156111b657600080fd5b505af11580156111ca573d6000803e3d6000fd5b505050506040513d601f19601f820116820180604052508101906111ee9190613047565b61122d576040517f08c379a0000000000000000000000000000000000000000000000000000000008152600401611224906136ea565b60405180910390fd5b505b61123b86333088612c4c565b6000339050600360006001600981111561127e577f4e487b7100000000000000000000000000000000000000000000000000000000600052602160045260246000fd5b60098111156112b6577f4e487b7100000000000000000000000000000000000000000000000000000000600052602160045260246000fd5b815260200190815260200160002060009054906101000a900473ffffffffffffffffffffffffffffffffffffffff1673ffffffffffffffffffffffffffffffffffffffff168773ffffffffffffffffffffffffffffffffffffffff161480156113ee57506003600060046009811115611358577f4e487b7100000000000000000000000000000000000000000000000000000000600052602160045260246000fd5b6009811115611390577f4e487b7100000000000000000000000000000000000000000000000000000000600052602160045260246000fd5b815260200190815260200160002060009054906101000a900473ffffffffffffffffffffffffffffffffffffffff1673ffffffffffffffffffffffffffffffffffffffff168573ffffffffffffffffffffffffffffffffffffffff16145b156116355760006004604051611403906135db565b9081526020016040518091039020600001604051611420906135c6565b9081526020016040518091039020600001548761143d9190613b24565b9050600360006002600981111561147d577f4e487b7100000000000000000000000000000000000000000000000000000000600052602160045260246000fd5b60098111156114b5577f4e487b7100000000000000000000000000000000000000000000000000000000600052602160045260246000fd5b815260200190815260200160002060009054906101000a900473ffffffffffffffffffffffffffffffffffffffff1673ffffffffffffffffffffffffffffffffffffffff1663095ea7b373e592427a0aece92de3edee1f18e0157c05861564836040518363ffffffff1660e01b8152600401611532929190613650565b602060405180830381600087803b15801561154c57600080fd5b505af1158015611560573d6000803e3d6000fd5b505050506040513d601f19601f820116820180604052508101906115849190613047565b5060036000600260098111156115c3577f4e487b7100000000000000000000000000000000000000000000000000000000600052602160045260246000fd5b60098111156115fb577f4e487b7100000000000000000000000000000000000000000000000000000000600052602160045260246000fd5b815260200190815260200160002060009054906101000a900473ffffffffffffffffffffffffffffffffffffffff16975080965050611894565b6003600060046009811115611673577f4e487b7100000000000000000000000000000000000000000000000000000000600052602160045260246000fd5b60098111156116ab577f4e487b7100000000000000000000000000000000000000000000000000000000600052602160045260246000fd5b815260200190815260200160002060009054906101000a900473ffffffffffffffffffffffffffffffffffffffff1673ffffffffffffffffffffffffffffffffffffffff168773ffffffffffffffffffffffffffffffffffffffff161480156117e35750600360006001600981111561174d577f4e487b7100000000000000000000000000000000000000000000000000000000600052602160045260246000fd5b6009811115611785577f4e487b7100000000000000000000000000000000000000000000000000000000600052602160045260246000fd5b815260200190815260200160002060009054906101000a900473ffffffffffffffffffffffffffffffffffffffff1673ffffffffffffffffffffffffffffffffffffffff168573ffffffffffffffffffffffffffffffffffffffff16145b15611893576003600060026009811115611826577f4e487b7100000000000000000000000000000000000000000000000000000000600052602160045260246000fd5b600981111561185e577f4e487b7100000000000000000000000000000000000000000000000000000000600052602160045260246000fd5b815260200190815260200160002060009054906101000a900473ffffffffffffffffffffffffffffffffffffffff1694503090505b5b60006040518061010001604052808973ffffffffffffffffffffffffffffffffffffffff1681526020018773ffffffffffffffffffffffffffffffffffffffff168152602001610bb862ffffff1681526020018373ffffffffffffffffffffffffffffffffffffffff168152602001854261190f91906138f5565b8152602001888152602001868152602001600073ffffffffffffffffffffffffffffffffffffffff16815250905073e592427a0aece92de3edee1f18e0157c0586156473ffffffffffffffffffffffffffffffffffffffff1663414bf389826040518263ffffffff1660e01b815260040161198a91906137ea565b602060405180830381600087803b1580156119a457600080fd5b505af11580156119b8573d6000803e3d6000fd5b505050506040513d601f19601f820116820180604052508101906119dc91906131c0565b92506003600060046009811115611a1c577f4e487b7100000000000000000000000000000000000000000000000000000000600052602160045260246000fd5b6009811115611a54577f4e487b7100000000000000000000000000000000000000000000000000000000600052602160045260246000fd5b815260200190815260200160002060009054906101000a900473ffffffffffffffffffffffffffffffffffffffff1673ffffffffffffffffffffffffffffffffffffffff168873ffffffffffffffffffffffffffffffffffffffff16148015611b8c57506003600060016009811115611af6577f4e487b7100000000000000000000000000000000000000000000000000000000600052602160045260246000fd5b6009811115611b2e577f4e487b7100000000000000000000000000000000000000000000000000000000600052602160045260246000fd5b815260200190815260200160002060009054906101000a900473ffffffffffffffffffffffffffffffffffffffff1673ffffffffffffffffffffffffffffffffffffffff168673ffffffffffffffffffffffffffffffffffffffff16145b15611d115760006004604051611ba1906135db565b9081526020016040518091039020600001604051611bbe906135c6565b90815260200160405180910390206000015484611bdb9190613982565b90506003600060016009811115611c1b577f4e487b7100000000000000000000000000000000000000000000000000000000600052602160045260246000fd5b6009811115611c53577f4e487b7100000000000000000000000000000000000000000000000000000000600052602160045260246000fd5b815260200190815260200160002060009054906101000a900473ffffffffffffffffffffffffffffffffffffffff1673ffffffffffffffffffffffffffffffffffffffff1663a9059cbb33836040518363ffffffff1660e01b8152600401611cbc929190613650565b602060405180830381600087803b158015611cd657600080fd5b505af1158015611cea573d6000803e3d6000fd5b505050506040513d601f19601f82011682018060405250810190611d0e9190613047565b50505b505095945050505050565b80600484604051611d2d91906135af565b908152602001604051809103902060000183604051611d4c91906135af565b90815260200160405180910390206000820151816000015560208201518160010160006101000a81548160ff021916908360ff160217905550905050505050565b600073ffffffffffffffffffffffffffffffffffffffff1660018054906101000a900473ffffffffffffffffffffffffffffffffffffffff1673ffffffffffffffffffffffffffffffffffffffff161415611e1d576040517f08c379a0000000000000000000000000000000000000000000000000000000008152600401611e149061372a565b60405180910390fd5b60018054906101000a900473ffffffffffffffffffffffffffffffffffffffff1673ffffffffffffffffffffffffffffffffffffffff163373ffffffffffffffffffffffffffffffffffffffff1614611eab576040517f08c379a0000000000000000000000000000000000000000000000000000000008152600401611ea29061370a565b60405180910390fd5b80600073ffffffffffffffffffffffffffffffffffffffff168173ffffffffffffffffffffffffffffffffffffffff161415611f1c576040517f08c379a0000000000000000000000000000000000000000000000000000000008152600401611f13906137aa565b60405180910390fd5b60016000808473ffffffffffffffffffffffffffffffffffffffff1673ffffffffffffffffffffffffffffffffffffffff16815260200190815260200160002060006101000a81548160ff02191690831515021790555060018060009054906101000a900460ff16611f8e919061394b565b600160006101000a81548160ff021916908360ff1602179055505050565b73e592427a0aece92de3edee1f18e0157c0586156481565b60025481565b8060028190555050565b600081600060028110612010577f4e487b7100000000000000000000000000000000000000000000000000000000600052603260045260246000fd5b6020020151600073ffffffffffffffffffffffffffffffffffffffff168173ffffffffffffffffffffffffffffffffffffffff161415612085576040517f08c379a000000000000000000000000000000000000000000000000000000000815260040161207c906137aa565b60405180910390fd5b826001600281106120bf577f4e487b7100000000000000000000000000000000000000000000000000000000600052603260045260246000fd5b6020020151600073ffffffffffffffffffffffffffffffffffffffff168173ffffffffffffffffffffffffffffffffffffffff161415612134576040517f08c379a000000000000000000000000000000000000000000000000000000000815260040161212b906137aa565b60405180910390fd5b60008511612177576040517f08c379a000000000000000000000000000000000000000000000000000000000815260040161216e9061376a565b60405180910390fd5b6000600f4261218691906138f5565b90506000856000600281106121c4577f4e487b7100000000000000000000000000000000000000000000000000000000600052603260045260246000fd5b60200201519050600086600160028110612207577f4e487b7100000000000000000000000000000000000000000000000000000000600052603260045260246000fd5b602002015190506000610bb890506000339050600080600360006001600981111561225b577f4e487b7100000000000000000000000000000000000000000000000000000000600052602160045260246000fd5b6009811115612293577f4e487b7100000000000000000000000000000000000000000000000000000000600052602160045260246000fd5b815260200190815260200160002060009054906101000a900473ffffffffffffffffffffffffffffffffffffffff1673ffffffffffffffffffffffffffffffffffffffff168b600060028110612312577f4e487b7100000000000000000000000000000000000000000000000000000000600052603260045260246000fd5b602002015173ffffffffffffffffffffffffffffffffffffffff16141561259c576003600060046009811115612371577f4e487b7100000000000000000000000000000000000000000000000000000000600052602160045260246000fd5b60098111156123a9577f4e487b7100000000000000000000000000000000000000000000000000000000600052602160045260246000fd5b815260200190815260200160002060009054906101000a900473ffffffffffffffffffffffffffffffffffffffff1673ffffffffffffffffffffffffffffffffffffffff168b600160028110612428577f4e487b7100000000000000000000000000000000000000000000000000000000600052603260045260246000fd5b602002015173ffffffffffffffffffffffffffffffffffffffff16141561259b576004604051612457906135db565b9081526020016040518091039020600001604051612474906135c6565b908152602001604051809103902060010160009054906101000a900460ff16600a61249f9190613a06565b8c60046040516124ae906135db565b90815260200160405180910390206000016040516124cb906135c6565b9081526020016040518091039020600001546124e79190613b24565b6124f19190613982565b9b506003600060026009811115612531577f4e487b7100000000000000000000000000000000000000000000000000000000600052602160045260246000fd5b6009811115612569577f4e487b7100000000000000000000000000000000000000000000000000000000600052602160045260246000fd5b815260200190815260200160002060009054906101000a900473ffffffffffffffffffffffffffffffffffffffff1695505b5b60006040518061010001604052808873ffffffffffffffffffffffffffffffffffffffff1681526020018773ffffffffffffffffffffffffffffffffffffffff1681526020018662ffffff1681526020018573ffffffffffffffffffffffffffffffffffffffff1681526020018981526020018e81526020018481526020018373ffffffffffffffffffffffffffffffffffffffff16815250905073e592427a0aece92de3edee1f18e0157c0586156473ffffffffffffffffffffffffffffffffffffffff1663414bf389826040518263ffffffff1660e01b815260040161268491906137ea565b602060405180830381600087803b15801561269e57600080fd5b505af11580156126b2573d6000803e3d6000fd5b505050506040513d601f19601f820116820180604052508101906126d691906131c0565b9a505050505050505050505092915050565b73b27308f9f90d607463bb33ea1bebb41c27ce5ab681565b60006003600a6127109190613a06565b6002546003600060016009811115612751577f4e487b7100000000000000000000000000000000000000000000000000000000600052602160045260246000fd5b6009811115612789577f4e487b7100000000000000000000000000000000000000000000000000000000600052602160045260246000fd5b815260200190815260200160002060009054906101000a900473ffffffffffffffffffffffffffffffffffffffff1673ffffffffffffffffffffffffffffffffffffffff1663313ce5676040518163ffffffff1660e01b8152600401602060405180830381600087803b1580156127ff57600080fd5b505af1158015612813573d6000803e3d6000fd5b505050506040513d601f19601f820116820180604052508101906128379190613225565b600a6128439190613a06565b8461284e9190613b24565b6128589190613b24565b6128629190613982565b9050919050565b612871612da4565b60048360405161288191906135af565b9081526020016040518091039020600001826040516128a091906135af565b9081526020016040518091039020604051806040016040529081600082015481526020016001820160009054906101000a900460ff1660ff1660ff1681525050905092915050565b600073ffffffffffffffffffffffffffffffffffffffff163373ffffffffffffffffffffffffffffffffffffffff161415612958576040517f08c379a000000000000000000000000000000000000000000000000000000000815260040161294f9061372a565b60405180910390fd5b6000803373ffffffffffffffffffffffffffffffffffffffff1673ffffffffffffffffffffffffffffffffffffffff16815260200190815260200160002060009054906101000a900460ff166129e3576040517f08c379a00000000000000000000000000000000000000000000000000000000081526004016129da906137ca565b60405180910390fd5b6003600060016009811115612a21577f4e487b7100000000000000000000000000000000000000000000000000000000600052602160045260246000fd5b6009811115612a59577f4e487b7100000000000000000000000000000000000000000000000000000000600052602160045260246000fd5b815260200190815260200160002060009054906101000a900473ffffffffffffffffffffffffffffffffffffffff1673ffffffffffffffffffffffffffffffffffffffff1663a0712d68826040518263ffffffff1660e01b8152600401612ac09190613821565b600060405180830381600087803b158015612ada57600080fd5b505af1158015612aee573d6000803e3d6000fd5b50505050612c486003600060016009811115612b33577f4e487b7100000000000000000000000000000000000000000000000000000000600052602160045260246000fd5b6009811115612b6b577f4e487b7100000000000000000000000000000000000000000000000000000000600052602160045260246000fd5b815260200190815260200160002060009054906101000a900473ffffffffffffffffffffffffffffffffffffffff16826003600060026009811115612bd9577f4e487b7100000000000000000000000000000000000000000000000000000000600052602160045260246000fd5b6009811115612c11577f4e487b7100000000000000000000000000000000000000000000000000000000600052602160045260246000fd5b815260200190815260200160002060009054906101000a900473ffffffffffffffffffffffffffffffffffffffff16600042610fa3565b5050565b6000808573ffffffffffffffffffffffffffffffffffffffff166323b872dd60e01b868686604051602401612c8393929190613619565b604051602081830303815290604052907bffffffffffffffffffffffffffffffffffffffffffffffffffffffff19166020820180517bffffffffffffffffffffffffffffffffffffffffffffffffffffffff8381831617835250505050604051612ced9190613598565b6000604051808303816000865af19150503d8060008114612d2a576040519150601f19603f3d011682016040523d82523d6000602084013e612d2f565b606091505b5091509150818015612d5d5750600081511480612d5c575080806020019051810190612d5b9190613047565b5b5b612d9c576040517f08c379a0000000000000000000000000000000000000000000000000000000008152600401612d939061378a565b60405180910390fd5b505050505050565b604051806040016040528060008152602001600060ff1681525090565b6000612dd4612dcf84613861565b61383c565b90508082856020860282011115612dea57600080fd5b60005b85811015612e1a5781612e008882612e62565b845260208401935060208301925050600181019050612ded565b5050509392505050565b6000612e37612e3284613887565b61383c565b905082815260208101848484011115612e4f57600080fd5b612e5a848285613c92565b509392505050565b600081359050612e7181613f99565b92915050565b600081359050612e8681613fb0565b92915050565b600082601f830112612e9d57600080fd5b6002612eaa848285612dc1565b91505092915050565b600081519050612ec281613fc7565b92915050565b600081359050612ed781613fde565b92915050565b600082601f830112612eee57600080fd5b8135612efe848260208601612e24565b91505092915050565b600060408284031215612f1957600080fd5b612f23604061383c565b90506000612f3384828501612f53565b6000830152506020612f4784828501612f7d565b60208301525092915050565b600081359050612f6281613fee565b92915050565b600081519050612f7781613fee565b92915050565b600081359050612f8c81614005565b92915050565b600081519050612fa181614005565b92915050565b600060208284031215612fb957600080fd5b6000612fc784828501612e62565b91505092915050565b600080600080600060a08688031215612fe857600080fd5b6000612ff688828901612e62565b955050602061300788828901612f53565b945050604061301888828901612e62565b935050606061302988828901612f53565b925050608061303a88828901612f53565b9150509295509295909350565b60006020828403121561305957600080fd5b600061306784828501612eb3565b91505092915050565b6000806040838503121561308357600080fd5b600061309185828601612ec8565b92505060206130a285828601612e77565b9150509250929050565b600080604083850312156130bf57600080fd5b600083013567ffffffffffffffff8111156130d957600080fd5b6130e585828601612edd565b925050602083013567ffffffffffffffff81111561310257600080fd5b61310e85828601612edd565b9150509250929050565b60008060006080848603121561312d57600080fd5b600084013567ffffffffffffffff81111561314757600080fd5b61315386828701612edd565b935050602084013567ffffffffffffffff81111561317057600080fd5b61317c86828701612edd565b925050604061318d86828701612f07565b9150509250925092565b6000602082840312156131a957600080fd5b60006131b784828501612f53565b91505092915050565b6000602082840312156131d257600080fd5b60006131e084828501612f68565b91505092915050565b600080606083850312156131fc57600080fd5b600061320a85828601612f53565b925050602061321b85828601612e8c565b9150509250929050565b60006020828403121561323757600080fd5b600061324584828501612f92565b91505092915050565b61325781613bc0565b82525050565b61326681613bc0565b82525050565b61327581613be4565b82525050565b6000613286826138b8565b61329081856138ce565b93506132a0818560208601613ca1565b80840191505092915050565b6132b581613c4a565b82525050565b6132c481613c6e565b82525050565b60006132d5826138c3565b6132df81856138ea565b93506132ef818560208601613ca1565b80840191505092915050565b60006133086003836138ea565b915061331382613db0565b600382019050919050565b600061332b6016836138d9565b915061333682613dd9565b602082019050919050565b600061334e6032836138d9565b915061335982613e02565b604082019050919050565b6000613371601e836138d9565b915061337c82613e51565b602082019050919050565b60006133946017836138d9565b915061339f82613e7a565b602082019050919050565b60006133b76016836138d9565b91506133c282613ea3565b602082019050919050565b60006133da6010836138d9565b91506133e582613ecc565b602082019050919050565b60006133fd6004836138ea565b915061340882613ef5565b600482019050919050565b60006134206003836138d9565b915061342b82613f1e565b602082019050919050565b60006134436019836138d9565b915061344e82613f47565b602082019050919050565b6000613466600d836138d9565b915061347182613f70565b602082019050919050565b61010082016000820151613493600085018261324e565b5060208201516134a6602085018261324e565b5060408201516134b9604085018261355c565b5060608201516134cc606085018261324e565b5060808201516134df608085018261356b565b5060a08201516134f260a085018261356b565b5060c082015161350560c085018261356b565b5060e082015161351860e085018261354d565b50505050565b604082016000820151613534600085018261356b565b5060208201516135476020850182613589565b50505050565b61355681613bf0565b82525050565b61356581613c10565b82525050565b61357481613c1f565b82525050565b61358381613c1f565b82525050565b61359281613c3d565b82525050565b60006135a4828461327b565b915081905092915050565b60006135bb82846132ca565b915081905092915050565b60006135d1826132fb565b9150819050919050565b60006135e6826133f0565b9150819050919050565b6000604082019050613605600083018561325d565b613612602083018461325d565b9392505050565b600060608201905061362e600083018661325d565b61363b602083018561325d565b613648604083018461357a565b949350505050565b6000604082019050613665600083018561325d565b613672602083018461357a565b9392505050565b600060208201905061368e600083018461326c565b92915050565b60006020820190506136a960008301846132ac565b92915050565b60006020820190506136c460008301846132bb565b92915050565b600060208201905081810360008301526136e38161331e565b9050919050565b6000602082019050818103600083015261370381613341565b9050919050565b6000602082019050818103600083015261372381613364565b9050919050565b6000602082019050818103600083015261374381613387565b9050919050565b60006020820190508181036000830152613763816133aa565b9050919050565b60006020820190508181036000830152613783816133cd565b9050919050565b600060208201905081810360008301526137a381613413565b9050919050565b600060208201905081810360008301526137c381613436565b9050919050565b600060208201905081810360008301526137e381613459565b9050919050565b600061010082019050613800600083018461347c565b92915050565b600060408201905061381b600083018461351e565b92915050565b6000602082019050613836600083018461357a565b92915050565b6000613846613857565b90506138528282613cd4565b919050565b6000604051905090565b600067ffffffffffffffff82111561387c5761387b613d63565b5b602082029050919050565b600067ffffffffffffffff8211156138a2576138a1613d63565b5b6138ab82613d92565b9050602081019050919050565b600081519050919050565b600081519050919050565b600081905092915050565b600082825260208201905092915050565b600081905092915050565b600061390082613c1f565b915061390b83613c1f565b9250827fffffffffffffffffffffffffffffffffffffffffffffffffffffffffffffffff038211156139405761393f613d05565b5b828201905092915050565b600061395682613c3d565b915061396183613c3d565b92508260ff0382111561397757613976613d05565b5b828201905092915050565b600061398d82613c1f565b915061399883613c1f565b9250826139a8576139a7613d34565b5b828204905092915050565b6000808291508390505b60018511156139fd578086048111156139d9576139d8613d05565b5b60018516156139e85780820291505b80810290506139f685613da3565b94506139bd565b94509492505050565b6000613a1182613c1f565b9150613a1c83613c3d565b9250613a497fffffffffffffffffffffffffffffffffffffffffffffffffffffffffffffffff8484613a51565b905092915050565b600082613a615760019050613b1d565b81613a6f5760009050613b1d565b8160018114613a855760028114613a8f57613abe565b6001915050613b1d565b60ff841115613aa157613aa0613d05565b5b8360020a915084821115613ab857613ab7613d05565b5b50613b1d565b5060208310610133831016604e8410600b8410161715613af35782820a905083811115613aee57613aed613d05565b5b613b1d565b613b0084848460016139b3565b92509050818404811115613b1757613b16613d05565b5b81810290505b9392505050565b6000613b2f82613c1f565b9150613b3a83613c1f565b9250817fffffffffffffffffffffffffffffffffffffffffffffffffffffffffffffffff0483118215151615613b7357613b72613d05565b5b828202905092915050565b6000613b8982613c29565b9150613b9483613c29565b92508167ffffffffffffffff0483118215151615613bb557613bb4613d05565b5b828202905092915050565b6000613bcb82613bf0565b9050919050565b6000613bdd82613bf0565b9050919050565b60008115159050919050565b600073ffffffffffffffffffffffffffffffffffffffff82169050919050565b600062ffffff82169050919050565b6000819050919050565b600067ffffffffffffffff82169050919050565b600060ff82169050919050565b6000613c5582613c5c565b9050919050565b6000613c6782613bf0565b9050919050565b6000613c7982613c80565b9050919050565b6000613c8b82613bf0565b9050919050565b82818337600083830152505050565b60005b83811015613cbf578082015181840152602081019050613ca4565b83811115613cce576000848401525b50505050565b613cdd82613d92565b810181811067ffffffffffffffff82111715613cfc57613cfb613d63565b5b80604052505050565b7f4e487b7100000000000000000000000000000000000000000000000000000000600052601160045260246000fd5b7f4e487b7100000000000000000000000000000000000000000000000000000000600052601260045260246000fd5b7f4e487b7100000000000000000000000000000000000000000000000000000000600052604160045260246000fd5b6000601f19601f8301169050919050565b60008160011c9050919050565b7f4f43580000000000000000000000000000000000000000000000000000000000600082015250565b7f496e76616c696420636f6e747261637420696e64657800000000000000000000600082015250565b7f4f637845786368616e67652e7377617028293a20617070726f766520666f722060008201527f74686520726f75746572206661696c65642e0000000000000000000000000000602082015250565b7f466f722063616c6c65722065787065637465642062652063726561746f720000600082015250565b7f496e76616c69642063726561746f722061646472657373000000000000000000600082015250565b7f496e73756666696369656e7420616c6c6f77616e636500000000000000000000600082015250565b7f496e76616c696420616d6f756e74496e00000000000000000000000000000000600082015250565b7f4f43415400000000000000000000000000000000000000000000000000000000600082015250565b7f5354460000000000000000000000000000000000000000000000000000000000600082015250565b7f4578706563746564206e6f6e2d7a65726f206164647265737300000000000000600082015250565b7f4d7573742062652061646d696e00000000000000000000000000000000000000600082015250565b613fa281613bc0565b8114613fad57600080fd5b50565b613fb981613bd2565b8114613fc457600080fd5b50565b613fd081613be4565b8114613fdb57600080fd5b50565b600a8110613feb57600080fd5b50565b613ff781613c1f565b811461400257600080fd5b50565b61400e81613c3d565b811461401957600080fd5b5056fea26469706673582212205223eea29f250187691708408824b28354dda9d55a41b3a2c997672bdd2aae5864736f6c63430008040033",
  "immutableReferences": {},
  "source": "// SPDX-License-Identifier: MIT\r\npragma solidity ^0.8.0;\r\n\r\n// https://soliditydeveloper.com/uniswap2\r\n// https://docs.uniswap.org/protocol/V2/guides/smart-contract-integration/trading-from-a-smart-contract\r\n// https://ethereum.org/ru/developers/tutorials/transfers-and-approval-of-erc-20-tokens-from-a-solidity-smart-contract/\r\n// https://solidity-by-example.org/app/erc20/\r\n\r\nimport \"@uniswap/v3-periphery/contracts/interfaces/ISwapRouter.sol\";\r\nimport \"@uniswap/v3-periphery/contracts/interfaces/IQuoter.sol\";\r\n// import \"@uniswap/v2-periphery/contracts/interfaces/IUniswapV2Router02.sol\";\r\nimport '@uniswap/v3-periphery/contracts/libraries/TransferHelper.sol';\r\nimport \"@openzeppelin/contracts/token/ERC20/IERC20.sol\"; // openzeppelin 4.5 (for solidity 0.8.x)\r\nimport \"@openzeppelin/contracts/utils/Strings.sol\";\r\nimport \"@openzeppelin/contracts/token/ERC721/IERC721.sol\";\r\nimport \"./OcxBase.sol\";\r\nimport \"./PawnNFTs.sol\";\r\nimport \"./OcatToken.sol\";\r\nimport \"./common/OcxCommon.sol\";\r\n\r\ncontract OcxExchange is OcxBase {\r\n\r\n    // IUniswapV2Router02  public uniswapRouter;\r\n    ISwapRouter public constant uniswapRouter = ISwapRouter(UNISWAP_V3_ROUTER_ADDRESS);\r\n    IQuoter public constant quoter = IQuoter(UNISWAP_V3_QUOTER_ADDRESS);\r\n    // address payable private ocxLocalPoolAddress;\r\n    mapping(string => CurrencyPriceInfo) private quotes;\r\n\r\n\r\n    event estimatedOcxAmountForBurningOcat(uint256);\r\n\r\n    receive() external payable {}\r\n\r\n    constructor() {\r\n        // uniswapRouter = IUniswapV2Router02(UNISWAP_V3_ROUTER_ADDRESS);\r\n    }\r\n\r\n    function swap(\r\n        address _tokenIn,\r\n        uint _amountIn,\r\n        address _tokenOut,\r\n        uint _amountOutMin,\r\n        uint _deadline\r\n    ) public \r\n    returns(uint amountOut) {\r\n        // transferFrom\r\n        //    Check for allowance\r\n        if (_tokenIn != contractAddress[CommonContracts.WETH]) {\r\n            uint256 allowance = IERC20(_tokenIn).allowance(msg.sender, address(this));\r\n            require(allowance >= _amountIn, \"Insufficient allowance\");\r\n            //     Do transferFrom\r\n            // approve\r\n            require(\r\n                IERC20(_tokenIn).approve(address(UNISWAP_V3_ROUTER_ADDRESS), _amountIn), \r\n                'OcxExchange.swap(): approve for the router failed.'\r\n            );\r\n        }\r\n        TransferHelper.safeTransferFrom(_tokenIn, msg.sender, address(this), _amountIn);\r\n        address recipient = msg.sender;\r\n        if (_tokenIn == contractAddress[CommonContracts.OCAT] \r\n         && _tokenOut == contractAddress[CommonContracts.UNI]) {\r\n            uint256 ocxAmount = _amountIn * quotes[\"OCAT\"].vs[\"OCX\"].value;\r\n            IERC20(contractAddress[CommonContracts.OCX]).approve(UNISWAP_V3_ROUTER_ADDRESS, ocxAmount);\r\n            _tokenIn = contractAddress[CommonContracts.OCX];\r\n            _amountIn = ocxAmount;\r\n        } else if (_tokenIn == contractAddress[CommonContracts.UNI] \r\n                && _tokenOut == contractAddress[CommonContracts.OCAT]) {\r\n            // Tophalf for UNI->OCAT swap\r\n            _tokenOut = contractAddress[CommonContracts.OCX];\r\n            recipient = address(this);\r\n        }\r\n\r\n        ISwapRouter.ExactInputSingleParams memory params =\r\n            ISwapRouter.ExactInputSingleParams({\r\n                tokenIn: _tokenIn,\r\n                tokenOut: _tokenOut,\r\n                fee: POOL_FEE,\r\n                recipient: recipient,\r\n                deadline: block.timestamp + _deadline,\r\n                amountIn: _amountIn,\r\n                amountOutMinimum: _amountOutMin,\r\n                sqrtPriceLimitX96: 0\r\n            });\r\n\r\n        // The call to `exactInputSingle` executes the swap.\r\n        amountOut = uniswapRouter.exactInputSingle(params);\r\n\r\n        // Bottomhalf for UNI->OCAT swap\r\n        if (_tokenIn == contractAddress[CommonContracts.UNI] \r\n        && _tokenOut == contractAddress[CommonContracts.OCAT]) {\r\n            uint256 ocatAmount = amountOut / quotes[\"OCAT\"].vs[\"OCX\"].value;\r\n            IERC20(contractAddress[CommonContracts.OCAT]).transfer(msg.sender, ocatAmount);\r\n        }\r\n    }\r\n    function getAmountsOut(uint256 amountIn, address[2] memory path) public \r\n    onlyValidAddress(path[0]) onlyValidAddress(path[1])\r\n    returns(uint256 expectedAmountOut) {\r\n        require(amountIn > 0, \"Invalid amountIn\");\r\n        uint256 deadline = block.timestamp + 15; // using 'now' for convenience, for mainnet pass deadline from frontend!\r\n        address tokenIn = path[0];\r\n        address tokenOut = path[1];\r\n        uint24 fee = 3000;\r\n        address recipient = msg.sender;\r\n        uint256 amountOutMinimum = 0;\r\n        uint160 sqrtPriceLimitX96 = 0;\r\n\r\n        if (path[0] == contractAddress[CommonContracts.OCAT]) {\r\n            if (path[1] == contractAddress[CommonContracts.UNI]) {\r\n                // Get OCAT:OCX quote and calculate OCX amount for \"amountIn\"\r\n                amountIn = (quotes[\"OCAT\"].vs[\"OCX\"].value * amountIn) / \r\n                           (10 ** quotes[\"OCAT\"].vs[\"OCX\"].decimals);\r\n                // Get OCX:UNI quote\r\n                // Multiple it by OCAT:OCX quote\r\n                tokenIn = contractAddress[CommonContracts.OCX];\r\n            }\r\n        }\r\n        ISwapRouter.ExactInputSingleParams  memory params = ISwapRouter.ExactInputSingleParams  (\r\n            tokenIn,\r\n            tokenOut,\r\n            fee,\r\n            recipient,\r\n            deadline,\r\n            amountIn,\r\n            amountOutMinimum,\r\n            sqrtPriceLimitX96\r\n        );\r\n        expectedAmountOut = uniswapRouter.exactInputSingle(params);\r\n    }\r\n    /**\r\n     *  Mint OCAT by funding ETH\r\n     */\r\n    function mintOcat() public payable \r\n    onlyAdmin onlyValidAddress(contractAddress[CommonContracts.PRICE_ORACLE]) \r\n    onlyValidAddress(contractAddress[CommonContracts.OCAT]) {\r\n        OcxPrice memory ethAudPriceInfo = quotes[\"OCAT\"].vs[\"OCX\"];\r\n        uint8 ocatDecimals = IOcat(contractAddress[CommonContracts.OCAT]).decimals();\r\n        mintOcat(\r\n            (msg.value * ethAudPriceInfo.value * (10**ocatDecimals)) / \r\n            ((10**18) * ethAudPriceInfo.decimals)\r\n        );\r\n    }\r\n    /**\r\n     * Mint OCAT as specified amount\r\n     */\r\n    function mintOcat(uint256 amount) internal onlyAdmin {\r\n        IOcxERC20(contractAddress[CommonContracts.OCAT]).mint(amount);\r\n        swap(\r\n            contractAddress[CommonContracts.OCAT], amount, \r\n            contractAddress[CommonContracts.OCX], 0, \r\n            block.timestamp\r\n        );\r\n    }\r\n    function _getEstimatedOcxforOcat(uint ocatAmount) internal returns (uint256) {\r\n        address tokenIn = contractAddress[CommonContracts.OCX];\r\n        address tokenOut = contractAddress[CommonContracts.OCAT];\r\n        uint24 fee = 3000;\r\n        uint160 sqrtPriceLimitX96 = 0;\r\n\r\n        // getQuoteAtTick()\r\n        return quoter.quoteExactOutputSingle(\r\n            tokenIn,\r\n            tokenOut,\r\n            fee,\r\n            ocatAmount,\r\n            sqrtPriceLimitX96\r\n        );\r\n    }\r\n    function burnOcat(uint256 amount) internal onlyAdmin {\r\n        IERC20 ocat = IERC20(contractAddress[CommonContracts.OCAT]);\r\n        if (ocat.balanceOf(address(this)) < amount) {\r\n            uint256 ocxAmount = _getEstimatedOcxforOcat(amount);\r\n            IERC20 ocx = IERC20(contractAddress[CommonContracts.OCX]);\r\n            /*********************************************************\r\n             * Warn to admin to deposit additional ETHs\r\n             *********************************************************/\r\n            require(ocx.balanceOf(address(this)) < ocxAmount, \"1\");\r\n            //////////////////////////////////////////////////////////\r\n            emit estimatedOcxAmountForBurningOcat(ocxAmount);\r\n            IERC20(contractAddress[CommonContracts.OCX]).approve(UNISWAP_V3_ROUTER_ADDRESS, ocxAmount);\r\n            swap(\r\n                contractAddress[CommonContracts.OCX], ocxAmount, \r\n                contractAddress[CommonContracts.OCAT], 0, \r\n                block.timestamp\r\n            );\r\n        }\r\n        IOcxERC20(contractAddress[CommonContracts.OCAT]).burn(amount);\r\n    }\r\n    function mintOcx(uint256 amount) public payable onlyAdmin  {\r\n        IOcxERC20(contractAddress[CommonContracts.OCX]).mint(amount);\r\n    }\r\n    function burnOcx(uint256 amount) internal onlyAdmin {\r\n        IOcxERC20(contractAddress[CommonContracts.OCX]).burn(amount);\r\n    }\r\n    function setQuote(string memory left, string memory right, OcxPrice memory newQuote) public {\r\n        quotes[left].vs[right] = newQuote;\r\n    }\r\n    function getQuote(string memory left, string memory right) public view returns(OcxPrice memory) {\r\n        return quotes[left].vs[right];\r\n    }\r\n}\r\n",
  "sourcePath": "F:\\Workspace\\OpenChainDex\\OpenchainTestVersion\\server\\contracts\\OcxExchange.sol",
  "compiler": {
    "name": "solc",
    "version": "0.8.4+commit.c7e474f2.Emscripten.clang"
  },
  "schemaVersion": "3.4.7",
  "updatedAt": "2022-05-04T09:52:03.125Z",
  "networkType": "ethereum",
  "devdoc": {
    "kind": "dev",
    "methods": {},
    "version": 1
  },
  "userdoc": {
    "kind": "user",
    "methods": {
      "mintOcat()": {
        "notice": "Mint OCAT by funding ETH"
      }
    },
    "version": 1
  }
}