{
  "contractName": "OcxExchange",
  "abi": [
    {
      "inputs": [],
      "stateMutability": "nonpayable",
      "type": "constructor"
    },
    {
      "anonymous": false,
      "inputs": [
        {
          "indexed": false,
          "internalType": "uint256",
          "name": "",
          "type": "uint256"
        }
      ],
      "name": "estimatedOcxAmountForBurningOcat",
      "type": "event"
    },
    {
      "inputs": [
        {
          "internalType": "address",
          "name": "_admin",
          "type": "address"
        }
      ],
      "name": "addAdmin",
      "outputs": [],
      "stateMutability": "nonpayable",
      "type": "function"
    },
    {
      "inputs": [
        {
          "internalType": "uint256",
          "name": "price",
          "type": "uint256"
        }
      ],
      "name": "convertToOcat",
      "outputs": [
        {
          "internalType": "uint256",
          "name": "_ocatPrice",
          "type": "uint256"
        }
      ],
      "stateMutability": "nonpayable",
      "type": "function"
    },
    {
      "inputs": [
        {
          "internalType": "address",
          "name": "_address",
          "type": "address"
        }
      ],
      "name": "isAdmin",
      "outputs": [
        {
          "internalType": "bool",
          "name": "yes",
          "type": "bool"
        }
      ],
      "stateMutability": "view",
      "type": "function",
      "constant": true
    },
    {
      "inputs": [],
      "name": "ocatPrice",
      "outputs": [
        {
          "internalType": "uint256",
          "name": "",
          "type": "uint256"
        }
      ],
      "stateMutability": "view",
      "type": "function",
      "constant": true
    },
    {
      "inputs": [],
      "name": "quoter",
      "outputs": [
        {
          "internalType": "contract IQuoter",
          "name": "",
          "type": "address"
        }
      ],
      "stateMutability": "view",
      "type": "function",
      "constant": true
    },
    {
      "inputs": [
        {
          "internalType": "enum CommonContracts",
          "name": "contractIndex",
          "type": "uint8"
        },
        {
          "internalType": "address payable",
          "name": "_address",
          "type": "address"
        }
      ],
      "name": "setCommonContractAddress",
      "outputs": [],
      "stateMutability": "nonpayable",
      "type": "function"
    },
    {
      "inputs": [
        {
          "internalType": "uint256",
          "name": "price",
          "type": "uint256"
        }
      ],
      "name": "setOcatPrice",
      "outputs": [],
      "stateMutability": "nonpayable",
      "type": "function"
    },
    {
      "inputs": [],
      "name": "uniswapRouter",
      "outputs": [
        {
          "internalType": "contract ISwapRouter",
          "name": "",
          "type": "address"
        }
      ],
      "stateMutability": "view",
      "type": "function",
      "constant": true
    },
    {
      "stateMutability": "payable",
      "type": "receive",
      "payable": true
    },
    {
      "inputs": [
        {
          "internalType": "address",
          "name": "_tokenIn",
          "type": "address"
        },
        {
          "internalType": "uint256",
          "name": "_amountIn",
          "type": "uint256"
        },
        {
          "internalType": "address",
          "name": "_tokenOut",
          "type": "address"
        },
        {
          "internalType": "uint256",
          "name": "_amountOutMin",
          "type": "uint256"
        },
        {
          "internalType": "uint256",
          "name": "_deadline",
          "type": "uint256"
        }
      ],
      "name": "swap",
      "outputs": [
        {
          "internalType": "uint256",
          "name": "amountOut",
          "type": "uint256"
        }
      ],
      "stateMutability": "nonpayable",
      "type": "function"
    },
    {
      "inputs": [
        {
          "internalType": "uint256",
          "name": "amountIn",
          "type": "uint256"
        },
        {
          "internalType": "address[2]",
          "name": "path",
          "type": "address[2]"
        }
      ],
      "name": "getAmountsOut",
      "outputs": [
        {
          "internalType": "uint256",
          "name": "expectedAmountOut",
          "type": "uint256"
        }
      ],
      "stateMutability": "nonpayable",
      "type": "function"
    },
    {
      "inputs": [],
      "name": "mintOcat",
      "outputs": [],
      "stateMutability": "payable",
      "type": "function",
      "payable": true
    },
    {
      "inputs": [
        {
          "internalType": "uint256",
          "name": "amount",
          "type": "uint256"
        }
      ],
      "name": "mintOcx",
      "outputs": [],
      "stateMutability": "payable",
      "type": "function",
      "payable": true
    },
    {
      "inputs": [
        {
          "internalType": "enum CurrencyIndex",
          "name": "left",
          "type": "uint8"
        },
        {
          "internalType": "enum CurrencyIndex",
          "name": "right",
          "type": "uint8"
        },
        {
          "components": [
            {
              "internalType": "uint256",
              "name": "value",
              "type": "uint256"
            },
            {
              "internalType": "uint8",
              "name": "decimals",
              "type": "uint8"
            }
          ],
          "internalType": "struct OcxPrice",
          "name": "newQuote",
          "type": "tuple"
        }
      ],
      "name": "setQuote",
      "outputs": [],
      "stateMutability": "nonpayable",
      "type": "function"
    },
    {
      "inputs": [
        {
          "internalType": "enum CurrencyIndex",
          "name": "left",
          "type": "uint8"
        },
        {
          "internalType": "enum CurrencyIndex",
          "name": "right",
          "type": "uint8"
        }
      ],
      "name": "getQuote",
      "outputs": [
        {
          "components": [
            {
              "internalType": "uint256",
              "name": "value",
              "type": "uint256"
            },
            {
              "internalType": "uint8",
              "name": "decimals",
              "type": "uint8"
            }
          ],
          "internalType": "struct OcxPrice",
          "name": "",
          "type": "tuple"
        }
      ],
      "stateMutability": "view",
      "type": "function",
      "constant": true
    }
  ],
  "bytecode": "0x60806040523480156200001157600080fd5b50336001806101000a81548173ffffffffffffffffffffffffffffffffffffffff021916908373ffffffffffffffffffffffffffffffffffffffff16021790555062000063336200007260201b60201c565b6103e86002819055506200047d565b600073ffffffffffffffffffffffffffffffffffffffff1660018054906101000a900473ffffffffffffffffffffffffffffffffffffffff1673ffffffffffffffffffffffffffffffffffffffff16141562000105576040517f08c379a0000000000000000000000000000000000000000000000000000000008152600401620000fc9062000333565b60405180910390fd5b60018054906101000a900473ffffffffffffffffffffffffffffffffffffffff1673ffffffffffffffffffffffffffffffffffffffff163373ffffffffffffffffffffffffffffffffffffffff161462000196576040517f08c379a00000000000000000000000000000000000000000000000000000000081526004016200018d9062000311565b60405180910390fd5b80600073ffffffffffffffffffffffffffffffffffffffff168173ffffffffffffffffffffffffffffffffffffffff1614156200020a576040517f08c379a0000000000000000000000000000000000000000000000000000000008152600401620002019062000355565b60405180910390fd5b60016000808473ffffffffffffffffffffffffffffffffffffffff1673ffffffffffffffffffffffffffffffffffffffff16815260200190815260200160002060006101000a81548160ff02191690831515021790555060018060009054906101000a900460ff166200027e919062000388565b600160006101000a81548160ff021916908360ff1602179055505050565b6000620002ab601e8362000377565b9150620002b88262000402565b602082019050919050565b6000620002d260178362000377565b9150620002df826200042b565b602082019050919050565b6000620002f960198362000377565b9150620003068262000454565b602082019050919050565b600060208201905081810360008301526200032c816200029c565b9050919050565b600060208201905081810360008301526200034e81620002c3565b9050919050565b600060208201905081810360008301526200037081620002ea565b9050919050565b600082825260208201905092915050565b60006200039582620003c6565b9150620003a283620003c6565b92508260ff03821115620003bb57620003ba620003d3565b5b828201905092915050565b600060ff82169050919050565b7f4e487b7100000000000000000000000000000000000000000000000000000000600052601160045260246000fd5b7f466f722063616c6c65722065787065637465642062652063726561746f720000600082015250565b7f496e76616c69642063726561746f722061646472657373000000000000000000600082015250565b7f4578706563746564206e6f6e2d7a65726f206164647265737300000000000000600082015250565b614524806200048d6000396000f3fe6080604052600436106100e15760003560e01c8063735de9f71161007f578063bd5f68b011610059578063bd5f68b01461029b578063c6bbd5a7146102d8578063db08730814610303578063dbcd95801461032c576100e8565b8063735de9f71461021c578063a7d9cfbc14610247578063bb3f6c6a14610272576100e8565b80632b7387a4116100bb5780632b7387a41461018357806359de09611461018d5780635e75228f146101b657806370480275146101f3576100e8565b80631b73cae1146100ed57806324d7806c146101095780632b71231514610146576100e8565b366100e857005b600080fd5b610107600480360381019061010291906136ee565b610369565b005b34801561011557600080fd5b50610130600480360381019061012b9190613535565b610576565b60405161013d9190613b5e565b60405180910390f35b34801561015257600080fd5b5061016d6004803603810190610168919061363a565b6105cb565b60405161017a9190613d1e565b60405180910390f35b61018b610714565b005b34801561019957600080fd5b506101b460048036038101906101af91906135fe565b610cf3565b005b3480156101c257600080fd5b506101dd60048036038101906101d8919061355e565b6111ab565b6040516101ea9190613d39565b60405180910390f35b3480156101ff57600080fd5b5061021a60048036038101906102159190613535565b6120c6565b005b34801561022857600080fd5b506102316122e5565b60405161023e9190613b94565b60405180910390f35b34801561025357600080fd5b5061025c6122fd565b6040516102699190613d39565b60405180910390f35b34801561027e57600080fd5b50610299600480360381019061029491906136ee565b612303565b005b3480156102a757600080fd5b506102c260048036038101906102bd9190613740565b61230d565b6040516102cf9190613d39565b60405180910390f35b3480156102e457600080fd5b506102ed612bc1565b6040516102fa9190613b79565b60405180910390f35b34801561030f57600080fd5b5061032a60048036038101906103259190613676565b612bd9565b005b34801561033857600080fd5b50610353600480360381019061034e91906136ee565b612d14565b6040516103609190613d39565b60405180910390f35b600073ffffffffffffffffffffffffffffffffffffffff163373ffffffffffffffffffffffffffffffffffffffff1614156103d9576040517f08c379a00000000000000000000000000000000000000000000000000000000081526004016103d090613c0f565b60405180910390fd5b6000803373ffffffffffffffffffffffffffffffffffffffff1673ffffffffffffffffffffffffffffffffffffffff16815260200190815260200160002060009054906101000a900460ff16610464576040517f08c379a000000000000000000000000000000000000000000000000000000000815260040161045b90613ce2565b60405180910390fd5b60036000600260098111156104a2577f4e487b7100000000000000000000000000000000000000000000000000000000600052602160045260246000fd5b60098111156104da577f4e487b7100000000000000000000000000000000000000000000000000000000600052602160045260246000fd5b815260200190815260200160002060009054906101000a900473ffffffffffffffffffffffffffffffffffffffff1673ffffffffffffffffffffffffffffffffffffffff1663a0712d68826040518263ffffffff1660e01b81526004016105419190613d39565b600060405180830381600087803b15801561055b57600080fd5b505af115801561056f573d6000803e3d6000fd5b5050505050565b60008060008373ffffffffffffffffffffffffffffffffffffffff1673ffffffffffffffffffffffffffffffffffffffff16815260200190815260200160002060009054906101000a900460ff169050919050565b6105d3613339565b60046000846007811115610610577f4e487b7100000000000000000000000000000000000000000000000000000000600052602160045260246000fd5b6007811115610648577f4e487b7100000000000000000000000000000000000000000000000000000000600052602160045260246000fd5b81526020019081526020016000206000016000836007811115610694577f4e487b7100000000000000000000000000000000000000000000000000000000600052602160045260246000fd5b60078111156106cc577f4e487b7100000000000000000000000000000000000000000000000000000000600052602160045260246000fd5b8152602001908152602001600020604051806040016040529081600082015481526020016001820160009054906101000a900460ff1660ff1660ff1681525050905092915050565b600073ffffffffffffffffffffffffffffffffffffffff163373ffffffffffffffffffffffffffffffffffffffff161415610784576040517f08c379a000000000000000000000000000000000000000000000000000000000815260040161077b90613c0f565b60405180910390fd5b6000803373ffffffffffffffffffffffffffffffffffffffff1673ffffffffffffffffffffffffffffffffffffffff16815260200190815260200160002060009054906101000a900460ff1661080f576040517f08c379a000000000000000000000000000000000000000000000000000000000815260040161080690613ce2565b60405180910390fd5b600360006006600981111561084d577f4e487b7100000000000000000000000000000000000000000000000000000000600052602160045260246000fd5b6009811115610885577f4e487b7100000000000000000000000000000000000000000000000000000000600052602160045260246000fd5b815260200190815260200160002060009054906101000a900473ffffffffffffffffffffffffffffffffffffffff16600073ffffffffffffffffffffffffffffffffffffffff168173ffffffffffffffffffffffffffffffffffffffff161415610924576040517f08c379a000000000000000000000000000000000000000000000000000000000815260040161091b90613cc2565b60405180910390fd5b6003600060016009811115610962577f4e487b7100000000000000000000000000000000000000000000000000000000600052602160045260246000fd5b600981111561099a577f4e487b7100000000000000000000000000000000000000000000000000000000600052602160045260246000fd5b815260200190815260200160002060009054906101000a900473ffffffffffffffffffffffffffffffffffffffff16600073ffffffffffffffffffffffffffffffffffffffff168173ffffffffffffffffffffffffffffffffffffffff161415610a39576040517f08c379a0000000000000000000000000000000000000000000000000000000008152600401610a3090613cc2565b60405180910390fd5b60006003600060066009811115610a79577f4e487b7100000000000000000000000000000000000000000000000000000000600052602160045260246000fd5b6009811115610ab1577f4e487b7100000000000000000000000000000000000000000000000000000000600052602160045260246000fd5b815260200190815260200160002060009054906101000a900473ffffffffffffffffffffffffffffffffffffffff1673ffffffffffffffffffffffffffffffffffffffff1663045a2ab76040518163ffffffff1660e01b8152600401610b1690613c6f565b604080518083038186803b158015610b2d57600080fd5b505afa158015610b41573d6000803e3d6000fd5b505050506040513d601f19601f82011682018060405250810190610b6591906136c5565b905060006003600060016009811115610ba7577f4e487b7100000000000000000000000000000000000000000000000000000000600052602160045260246000fd5b6009811115610bdf577f4e487b7100000000000000000000000000000000000000000000000000000000600052602160045260246000fd5b815260200190815260200160002060009054906101000a900473ffffffffffffffffffffffffffffffffffffffff1673ffffffffffffffffffffffffffffffffffffffff1663313ce5676040518163ffffffff1660e01b8152600401602060405180830381600087803b158015610c5557600080fd5b505af1158015610c69573d6000803e3d6000fd5b505050506040513d601f19601f82011682018060405250810190610c8d919061377c565b9050610ced826020015160ff16670de0b6b3a7640000610cad919061404f565b67ffffffffffffffff1682600a610cc49190613ed7565b846000015134610cd49190613ff5565b610cde9190613ff5565b610ce89190613e53565b612e7d565b50505050565b600073ffffffffffffffffffffffffffffffffffffffff1660018054906101000a900473ffffffffffffffffffffffffffffffffffffffff1673ffffffffffffffffffffffffffffffffffffffff161415610d83576040517f08c379a0000000000000000000000000000000000000000000000000000000008152600401610d7a90613c0f565b60405180910390fd5b60018054906101000a900473ffffffffffffffffffffffffffffffffffffffff1673ffffffffffffffffffffffffffffffffffffffff163373ffffffffffffffffffffffffffffffffffffffff1614610e11576040517f08c379a0000000000000000000000000000000000000000000000000000000008152600401610e0890613bef565b60405180910390fd5b80600073ffffffffffffffffffffffffffffffffffffffff168173ffffffffffffffffffffffffffffffffffffffff161415610e82576040517f08c379a0000000000000000000000000000000000000000000000000000000008152600401610e7990613cc2565b60405180910390fd5b600073ffffffffffffffffffffffffffffffffffffffff163373ffffffffffffffffffffffffffffffffffffffff161415610ef2576040517f08c379a0000000000000000000000000000000000000000000000000000000008152600401610ee990613c0f565b60405180910390fd5b6000803373ffffffffffffffffffffffffffffffffffffffff1673ffffffffffffffffffffffffffffffffffffffff16815260200190815260200160002060009054906101000a900460ff16610f7d576040517f08c379a0000000000000000000000000000000000000000000000000000000008152600401610f7490613ce2565b60405180910390fd5b60006009811115610fb7577f4e487b7100000000000000000000000000000000000000000000000000000000600052602160045260246000fd5b6009811115610fef577f4e487b7100000000000000000000000000000000000000000000000000000000600052602160045260246000fd5b836009811115611028577f4e487b7100000000000000000000000000000000000000000000000000000000600052602160045260246000fd5b101580156110a5575060098081111561106a577f4e487b7100000000000000000000000000000000000000000000000000000000600052602160045260246000fd5b8360098111156110a3577f4e487b7100000000000000000000000000000000000000000000000000000000600052602160045260246000fd5b105b6110e4576040517f08c379a00000000000000000000000000000000000000000000000000000000081526004016110db90613baf565b60405180910390fd5b8160036000856009811115611122577f4e487b7100000000000000000000000000000000000000000000000000000000600052602160045260246000fd5b600981111561115a577f4e487b7100000000000000000000000000000000000000000000000000000000600052602160045260246000fd5b815260200190815260200160002060006101000a81548173ffffffffffffffffffffffffffffffffffffffff021916908373ffffffffffffffffffffffffffffffffffffffff160217905550505050565b6000600360008060098111156111ea577f4e487b7100000000000000000000000000000000000000000000000000000000600052602160045260246000fd5b6009811115611222577f4e487b7100000000000000000000000000000000000000000000000000000000600052602160045260246000fd5b815260200190815260200160002060009054906101000a900473ffffffffffffffffffffffffffffffffffffffff1673ffffffffffffffffffffffffffffffffffffffff168673ffffffffffffffffffffffffffffffffffffffff16146114375760008673ffffffffffffffffffffffffffffffffffffffff1663dd62ed3e33306040518363ffffffff1660e01b81526004016112c0929190613ad5565b60206040518083038186803b1580156112d857600080fd5b505afa1580156112ec573d6000803e3d6000fd5b505050506040513d601f19601f820116820180604052508101906113109190613717565b905085811015611355576040517f08c379a000000000000000000000000000000000000000000000000000000000815260040161134c90613c2f565b60405180910390fd5b8673ffffffffffffffffffffffffffffffffffffffff1663095ea7b373e592427a0aece92de3edee1f18e0157c05861564886040518363ffffffff1660e01b81526004016113a4929190613b35565b602060405180830381600087803b1580156113be57600080fd5b505af11580156113d2573d6000803e3d6000fd5b505050506040513d601f19601f820116820180604052508101906113f691906135d5565b611435576040517f08c379a000000000000000000000000000000000000000000000000000000000815260040161142c90613bcf565b60405180910390fd5b505b611443863330886131e1565b60003390506003600060016009811115611486577f4e487b7100000000000000000000000000000000000000000000000000000000600052602160045260246000fd5b60098111156114be577f4e487b7100000000000000000000000000000000000000000000000000000000600052602160045260246000fd5b815260200190815260200160002060009054906101000a900473ffffffffffffffffffffffffffffffffffffffff1673ffffffffffffffffffffffffffffffffffffffff168773ffffffffffffffffffffffffffffffffffffffff161480156115f657506003600060046009811115611560577f4e487b7100000000000000000000000000000000000000000000000000000000600052602160045260246000fd5b6009811115611598577f4e487b7100000000000000000000000000000000000000000000000000000000600052602160045260246000fd5b815260200190815260200160002060009054906101000a900473ffffffffffffffffffffffffffffffffffffffff1673ffffffffffffffffffffffffffffffffffffffff168573ffffffffffffffffffffffffffffffffffffffff16145b1561190d576000600460006001600781111561163b577f4e487b7100000000000000000000000000000000000000000000000000000000600052602160045260246000fd5b6007811115611673577f4e487b7100000000000000000000000000000000000000000000000000000000600052602160045260246000fd5b81526020019081526020016000206000016000600260078111156116c0577f4e487b7100000000000000000000000000000000000000000000000000000000600052602160045260246000fd5b60078111156116f8577f4e487b7100000000000000000000000000000000000000000000000000000000600052602160045260246000fd5b815260200190815260200160002060000154876117159190613ff5565b90506003600060026009811115611755577f4e487b7100000000000000000000000000000000000000000000000000000000600052602160045260246000fd5b600981111561178d577f4e487b7100000000000000000000000000000000000000000000000000000000600052602160045260246000fd5b815260200190815260200160002060009054906101000a900473ffffffffffffffffffffffffffffffffffffffff1673ffffffffffffffffffffffffffffffffffffffff1663095ea7b373e592427a0aece92de3edee1f18e0157c05861564836040518363ffffffff1660e01b815260040161180a929190613b35565b602060405180830381600087803b15801561182457600080fd5b505af1158015611838573d6000803e3d6000fd5b505050506040513d601f19601f8201168201806040525081019061185c91906135d5565b50600360006002600981111561189b577f4e487b7100000000000000000000000000000000000000000000000000000000600052602160045260246000fd5b60098111156118d3577f4e487b7100000000000000000000000000000000000000000000000000000000600052602160045260246000fd5b815260200190815260200160002060009054906101000a900473ffffffffffffffffffffffffffffffffffffffff16975080965050611b6c565b600360006004600981111561194b577f4e487b7100000000000000000000000000000000000000000000000000000000600052602160045260246000fd5b6009811115611983577f4e487b7100000000000000000000000000000000000000000000000000000000600052602160045260246000fd5b815260200190815260200160002060009054906101000a900473ffffffffffffffffffffffffffffffffffffffff1673ffffffffffffffffffffffffffffffffffffffff168773ffffffffffffffffffffffffffffffffffffffff16148015611abb57506003600060016009811115611a25577f4e487b7100000000000000000000000000000000000000000000000000000000600052602160045260246000fd5b6009811115611a5d577f4e487b7100000000000000000000000000000000000000000000000000000000600052602160045260246000fd5b815260200190815260200160002060009054906101000a900473ffffffffffffffffffffffffffffffffffffffff1673ffffffffffffffffffffffffffffffffffffffff168573ffffffffffffffffffffffffffffffffffffffff16145b15611b6b576003600060026009811115611afe577f4e487b7100000000000000000000000000000000000000000000000000000000600052602160045260246000fd5b6009811115611b36577f4e487b7100000000000000000000000000000000000000000000000000000000600052602160045260246000fd5b815260200190815260200160002060009054906101000a900473ffffffffffffffffffffffffffffffffffffffff1694503090505b5b60006040518061010001604052808973ffffffffffffffffffffffffffffffffffffffff1681526020018773ffffffffffffffffffffffffffffffffffffffff168152602001610bb862ffffff1681526020018373ffffffffffffffffffffffffffffffffffffffff168152602001600f42611be89190613dc6565b815260200188815260200160008152602001600073ffffffffffffffffffffffffffffffffffffffff16815250905073e592427a0aece92de3edee1f18e0157c0586156473ffffffffffffffffffffffffffffffffffffffff1663414bf389826040518263ffffffff1660e01b8152600401611c649190613d02565b602060405180830381600087803b158015611c7e57600080fd5b505af1158015611c92573d6000803e3d6000fd5b505050506040513d601f19601f82011682018060405250810190611cb69190613717565b92506003600060046009811115611cf6577f4e487b7100000000000000000000000000000000000000000000000000000000600052602160045260246000fd5b6009811115611d2e577f4e487b7100000000000000000000000000000000000000000000000000000000600052602160045260246000fd5b815260200190815260200160002060009054906101000a900473ffffffffffffffffffffffffffffffffffffffff1673ffffffffffffffffffffffffffffffffffffffff168873ffffffffffffffffffffffffffffffffffffffff16148015611e6657506003600060016009811115611dd0577f4e487b7100000000000000000000000000000000000000000000000000000000600052602160045260246000fd5b6009811115611e08577f4e487b7100000000000000000000000000000000000000000000000000000000600052602160045260246000fd5b815260200190815260200160002060009054906101000a900473ffffffffffffffffffffffffffffffffffffffff1673ffffffffffffffffffffffffffffffffffffffff168673ffffffffffffffffffffffffffffffffffffffff16145b156120bb5760006004600060016007811115611eab577f4e487b7100000000000000000000000000000000000000000000000000000000600052602160045260246000fd5b6007811115611ee3577f4e487b7100000000000000000000000000000000000000000000000000000000600052602160045260246000fd5b8152602001908152602001600020600001600060026007811115611f30577f4e487b7100000000000000000000000000000000000000000000000000000000600052602160045260246000fd5b6007811115611f68577f4e487b7100000000000000000000000000000000000000000000000000000000600052602160045260246000fd5b81526020019081526020016000206000015484611f859190613e53565b90506003600060016009811115611fc5577f4e487b7100000000000000000000000000000000000000000000000000000000600052602160045260246000fd5b6009811115611ffd577f4e487b7100000000000000000000000000000000000000000000000000000000600052602160045260246000fd5b815260200190815260200160002060009054906101000a900473ffffffffffffffffffffffffffffffffffffffff1673ffffffffffffffffffffffffffffffffffffffff1663a9059cbb33836040518363ffffffff1660e01b8152600401612066929190613b35565b602060405180830381600087803b15801561208057600080fd5b505af1158015612094573d6000803e3d6000fd5b505050506040513d601f19601f820116820180604052508101906120b891906135d5565b50505b505095945050505050565b600073ffffffffffffffffffffffffffffffffffffffff1660018054906101000a900473ffffffffffffffffffffffffffffffffffffffff1673ffffffffffffffffffffffffffffffffffffffff161415612156576040517f08c379a000000000000000000000000000000000000000000000000000000000815260040161214d90613c0f565b60405180910390fd5b60018054906101000a900473ffffffffffffffffffffffffffffffffffffffff1673ffffffffffffffffffffffffffffffffffffffff163373ffffffffffffffffffffffffffffffffffffffff16146121e4576040517f08c379a00000000000000000000000000000000000000000000000000000000081526004016121db90613bef565b60405180910390fd5b80600073ffffffffffffffffffffffffffffffffffffffff168173ffffffffffffffffffffffffffffffffffffffff161415612255576040517f08c379a000000000000000000000000000000000000000000000000000000000815260040161224c90613cc2565b60405180910390fd5b60016000808473ffffffffffffffffffffffffffffffffffffffff1673ffffffffffffffffffffffffffffffffffffffff16815260200190815260200160002060006101000a81548160ff02191690831515021790555060018060009054906101000a900460ff166122c79190613e1c565b600160006101000a81548160ff021916908360ff1602179055505050565b73e592427a0aece92de3edee1f18e0157c0586156481565b60025481565b8060028190555050565b600081600060028110612349577f4e487b7100000000000000000000000000000000000000000000000000000000600052603260045260246000fd5b6020020151600073ffffffffffffffffffffffffffffffffffffffff168173ffffffffffffffffffffffffffffffffffffffff1614156123be576040517f08c379a00000000000000000000000000000000000000000000000000000000081526004016123b590613cc2565b60405180910390fd5b826001600281106123f8577f4e487b7100000000000000000000000000000000000000000000000000000000600052603260045260246000fd5b6020020151600073ffffffffffffffffffffffffffffffffffffffff168173ffffffffffffffffffffffffffffffffffffffff16141561246d576040517f08c379a000000000000000000000000000000000000000000000000000000000815260040161246490613cc2565b60405180910390fd5b600085116124b0576040517f08c379a00000000000000000000000000000000000000000000000000000000081526004016124a790613c4f565b60405180910390fd5b6000600f426124bf9190613dc6565b90506000856000600281106124fd577f4e487b7100000000000000000000000000000000000000000000000000000000600052603260045260246000fd5b60200201519050600086600160028110612540577f4e487b7100000000000000000000000000000000000000000000000000000000600052603260045260246000fd5b602002015190506000610bb8905060003390506000806003600060016009811115612594577f4e487b7100000000000000000000000000000000000000000000000000000000600052602160045260246000fd5b60098111156125cc577f4e487b7100000000000000000000000000000000000000000000000000000000600052602160045260246000fd5b815260200190815260200160002060009054906101000a900473ffffffffffffffffffffffffffffffffffffffff1673ffffffffffffffffffffffffffffffffffffffff168b60006002811061264b577f4e487b7100000000000000000000000000000000000000000000000000000000600052603260045260246000fd5b602002015173ffffffffffffffffffffffffffffffffffffffff161415612a755760036000600460098111156126aa577f4e487b7100000000000000000000000000000000000000000000000000000000600052602160045260246000fd5b60098111156126e2577f4e487b7100000000000000000000000000000000000000000000000000000000600052602160045260246000fd5b815260200190815260200160002060009054906101000a900473ffffffffffffffffffffffffffffffffffffffff1673ffffffffffffffffffffffffffffffffffffffff168b600160028110612761577f4e487b7100000000000000000000000000000000000000000000000000000000600052603260045260246000fd5b602002015173ffffffffffffffffffffffffffffffffffffffff161415612a745760046000600160078111156127c0577f4e487b7100000000000000000000000000000000000000000000000000000000600052602160045260246000fd5b60078111156127f8577f4e487b7100000000000000000000000000000000000000000000000000000000600052602160045260246000fd5b8152602001908152602001600020600001600060026007811115612845577f4e487b7100000000000000000000000000000000000000000000000000000000600052602160045260246000fd5b600781111561287d577f4e487b7100000000000000000000000000000000000000000000000000000000600052602160045260246000fd5b815260200190815260200160002060010160009054906101000a900460ff16600a6128a89190613ed7565b8c60046000600160078111156128e7577f4e487b7100000000000000000000000000000000000000000000000000000000600052602160045260246000fd5b600781111561291f577f4e487b7100000000000000000000000000000000000000000000000000000000600052602160045260246000fd5b815260200190815260200160002060000160006002600781111561296c577f4e487b7100000000000000000000000000000000000000000000000000000000600052602160045260246000fd5b60078111156129a4577f4e487b7100000000000000000000000000000000000000000000000000000000600052602160045260246000fd5b8152602001908152602001600020600001546129c09190613ff5565b6129ca9190613e53565b9b506003600060026009811115612a0a577f4e487b7100000000000000000000000000000000000000000000000000000000600052602160045260246000fd5b6009811115612a42577f4e487b7100000000000000000000000000000000000000000000000000000000600052602160045260246000fd5b815260200190815260200160002060009054906101000a900473ffffffffffffffffffffffffffffffffffffffff1695505b5b60006040518061010001604052808873ffffffffffffffffffffffffffffffffffffffff1681526020018773ffffffffffffffffffffffffffffffffffffffff1681526020018662ffffff1681526020018573ffffffffffffffffffffffffffffffffffffffff1681526020018981526020018e81526020018481526020018373ffffffffffffffffffffffffffffffffffffffff16815250905073e592427a0aece92de3edee1f18e0157c0586156473ffffffffffffffffffffffffffffffffffffffff1663414bf389826040518263ffffffff1660e01b8152600401612b5d9190613d02565b602060405180830381600087803b158015612b7757600080fd5b505af1158015612b8b573d6000803e3d6000fd5b505050506040513d601f19601f82011682018060405250810190612baf9190613717565b9a505050505050505050505092915050565b73b27308f9f90d607463bb33ea1bebb41c27ce5ab681565b8060046000856007811115612c17577f4e487b7100000000000000000000000000000000000000000000000000000000600052602160045260246000fd5b6007811115612c4f577f4e487b7100000000000000000000000000000000000000000000000000000000600052602160045260246000fd5b81526020019081526020016000206000016000846007811115612c9b577f4e487b7100000000000000000000000000000000000000000000000000000000600052602160045260246000fd5b6007811115612cd3577f4e487b7100000000000000000000000000000000000000000000000000000000600052602160045260246000fd5b81526020019081526020016000206000820151816000015560208201518160010160006101000a81548160ff021916908360ff160217905550905050505050565b60006003600a612d249190613ed7565b6002546003600060016009811115612d65577f4e487b7100000000000000000000000000000000000000000000000000000000600052602160045260246000fd5b6009811115612d9d577f4e487b7100000000000000000000000000000000000000000000000000000000600052602160045260246000fd5b815260200190815260200160002060009054906101000a900473ffffffffffffffffffffffffffffffffffffffff1673ffffffffffffffffffffffffffffffffffffffff1663313ce5676040518163ffffffff1660e01b8152600401602060405180830381600087803b158015612e1357600080fd5b505af1158015612e27573d6000803e3d6000fd5b505050506040513d601f19601f82011682018060405250810190612e4b919061377c565b600a612e579190613ed7565b84612e629190613ff5565b612e6c9190613ff5565b612e769190613e53565b9050919050565b600073ffffffffffffffffffffffffffffffffffffffff163373ffffffffffffffffffffffffffffffffffffffff161415612eed576040517f08c379a0000000000000000000000000000000000000000000000000000000008152600401612ee490613c0f565b60405180910390fd5b6000803373ffffffffffffffffffffffffffffffffffffffff1673ffffffffffffffffffffffffffffffffffffffff16815260200190815260200160002060009054906101000a900460ff16612f78576040517f08c379a0000000000000000000000000000000000000000000000000000000008152600401612f6f90613ce2565b60405180910390fd5b6003600060016009811115612fb6577f4e487b7100000000000000000000000000000000000000000000000000000000600052602160045260246000fd5b6009811115612fee577f4e487b7100000000000000000000000000000000000000000000000000000000600052602160045260246000fd5b815260200190815260200160002060009054906101000a900473ffffffffffffffffffffffffffffffffffffffff1673ffffffffffffffffffffffffffffffffffffffff1663a0712d68826040518263ffffffff1660e01b81526004016130559190613d39565b600060405180830381600087803b15801561306f57600080fd5b505af1158015613083573d6000803e3d6000fd5b505050506131dd60036000600160098111156130c8577f4e487b7100000000000000000000000000000000000000000000000000000000600052602160045260246000fd5b6009811115613100577f4e487b7100000000000000000000000000000000000000000000000000000000600052602160045260246000fd5b815260200190815260200160002060009054906101000a900473ffffffffffffffffffffffffffffffffffffffff1682600360006002600981111561316e577f4e487b7100000000000000000000000000000000000000000000000000000000600052602160045260246000fd5b60098111156131a6577f4e487b7100000000000000000000000000000000000000000000000000000000600052602160045260246000fd5b815260200190815260200160002060009054906101000a900473ffffffffffffffffffffffffffffffffffffffff166000426111ab565b5050565b6000808573ffffffffffffffffffffffffffffffffffffffff166323b872dd60e01b86868660405160240161321893929190613afe565b604051602081830303815290604052907bffffffffffffffffffffffffffffffffffffffffffffffffffffffff19166020820180517bffffffffffffffffffffffffffffffffffffffffffffffffffffffff83818316178352505050506040516132829190613abe565b6000604051808303816000865af19150503d80600081146132bf576040519150601f19603f3d011682016040523d82523d6000602084013e6132c4565b606091505b50915091508180156132f257506000815114806132f15750808060200190518101906132f091906135d5565b5b5b613331576040517f08c379a000000000000000000000000000000000000000000000000000000000815260040161332890613ca2565b60405180910390fd5b505050505050565b604051806040016040528060008152602001600060ff1681525090565b600061336961336484613d79565b613d54565b9050808285602086028201111561337f57600080fd5b60005b858110156133af578161339588826133b9565b845260208401935060208301925050600181019050613382565b5050509392505050565b6000813590506133c88161445b565b92915050565b6000813590506133dd81614472565b92915050565b600082601f8301126133f457600080fd5b6002613401848285613356565b91505092915050565b60008151905061341981614489565b92915050565b60008135905061342e816144a0565b92915050565b600081359050613443816144b0565b92915050565b60006040828403121561345b57600080fd5b6134656040613d54565b90506000613475848285016134e1565b60008301525060206134898482850161350b565b60208301525092915050565b6000604082840312156134a757600080fd5b6134b16040613d54565b905060006134c1848285016134f6565b60008301525060206134d584828501613520565b60208301525092915050565b6000813590506134f0816144c0565b92915050565b600081519050613505816144c0565b92915050565b60008135905061351a816144d7565b92915050565b60008151905061352f816144d7565b92915050565b60006020828403121561354757600080fd5b6000613555848285016133b9565b91505092915050565b600080600080600060a0868803121561357657600080fd5b6000613584888289016133b9565b9550506020613595888289016134e1565b94505060406135a6888289016133b9565b93505060606135b7888289016134e1565b92505060806135c8888289016134e1565b9150509295509295909350565b6000602082840312156135e757600080fd5b60006135f58482850161340a565b91505092915050565b6000806040838503121561361157600080fd5b600061361f8582860161341f565b9250506020613630858286016133ce565b9150509250929050565b6000806040838503121561364d57600080fd5b600061365b85828601613434565b925050602061366c85828601613434565b9150509250929050565b60008060006080848603121561368b57600080fd5b600061369986828701613434565b93505060206136aa86828701613434565b92505060406136bb86828701613449565b9150509250925092565b6000604082840312156136d757600080fd5b60006136e584828501613495565b91505092915050565b60006020828403121561370057600080fd5b600061370e848285016134e1565b91505092915050565b60006020828403121561372957600080fd5b6000613737848285016134f6565b91505092915050565b6000806060838503121561375357600080fd5b6000613761858286016134e1565b9250506020613772858286016133e3565b9150509250929050565b60006020828403121561378e57600080fd5b600061379c84828501613520565b91505092915050565b6137ae81614091565b82525050565b6137bd81614091565b82525050565b6137cc816140b5565b82525050565b60006137dd82613d9f565b6137e78185613daa565b93506137f7818560208601614163565b80840191505092915050565b61380c8161411b565b82525050565b61381b8161413f565b82525050565b600061382e600383613db5565b915061383982614272565b602082019050919050565b6000613851601683613db5565b915061385c8261429b565b602082019050919050565b6000613874603283613db5565b915061387f826142c4565b604082019050919050565b6000613897601e83613db5565b91506138a282614313565b602082019050919050565b60006138ba601783613db5565b91506138c58261433c565b602082019050919050565b60006138dd601683613db5565b91506138e882614365565b602082019050919050565b6000613900601083613db5565b915061390b8261438e565b602082019050919050565b6000613923600483613db5565b915061392e826143b7565b602082019050919050565b6000613946600383613db5565b9150613951826143e0565b602082019050919050565b6000613969601983613db5565b915061397482614409565b602082019050919050565b600061398c600d83613db5565b915061399782614432565b602082019050919050565b610100820160008201516139b960008501826137a5565b5060208201516139cc60208501826137a5565b5060408201516139df6040850182613a82565b5060608201516139f260608501826137a5565b506080820151613a056080850182613a91565b5060a0820151613a1860a0850182613a91565b5060c0820151613a2b60c0850182613a91565b5060e0820151613a3e60e0850182613a73565b50505050565b604082016000820151613a5a6000850182613a91565b506020820151613a6d6020850182613aaf565b50505050565b613a7c816140c1565b82525050565b613a8b816140e1565b82525050565b613a9a816140f0565b82525050565b613aa9816140f0565b82525050565b613ab88161410e565b82525050565b6000613aca82846137d2565b915081905092915050565b6000604082019050613aea60008301856137b4565b613af760208301846137b4565b9392505050565b6000606082019050613b1360008301866137b4565b613b2060208301856137b4565b613b2d6040830184613aa0565b949350505050565b6000604082019050613b4a60008301856137b4565b613b576020830184613aa0565b9392505050565b6000602082019050613b7360008301846137c3565b92915050565b6000602082019050613b8e6000830184613803565b92915050565b6000602082019050613ba96000830184613812565b92915050565b60006020820190508181036000830152613bc881613844565b9050919050565b60006020820190508181036000830152613be881613867565b9050919050565b60006020820190508181036000830152613c088161388a565b9050919050565b60006020820190508181036000830152613c28816138ad565b9050919050565b60006020820190508181036000830152613c48816138d0565b9050919050565b60006020820190508181036000830152613c68816138f3565b9050919050565b60006040820190508181036000830152613c8881613916565b90508181036020830152613c9b81613821565b9050919050565b60006020820190508181036000830152613cbb81613939565b9050919050565b60006020820190508181036000830152613cdb8161395c565b9050919050565b60006020820190508181036000830152613cfb8161397f565b9050919050565b600061010082019050613d1860008301846139a2565b92915050565b6000604082019050613d336000830184613a44565b92915050565b6000602082019050613d4e6000830184613aa0565b92915050565b6000613d5e613d6f565b9050613d6a8282614196565b919050565b6000604051905090565b600067ffffffffffffffff821115613d9457613d93614225565b5b602082029050919050565b600081519050919050565b600081905092915050565b600082825260208201905092915050565b6000613dd1826140f0565b9150613ddc836140f0565b9250827fffffffffffffffffffffffffffffffffffffffffffffffffffffffffffffffff03821115613e1157613e106141c7565b5b828201905092915050565b6000613e278261410e565b9150613e328361410e565b92508260ff03821115613e4857613e476141c7565b5b828201905092915050565b6000613e5e826140f0565b9150613e69836140f0565b925082613e7957613e786141f6565b5b828204905092915050565b6000808291508390505b6001851115613ece57808604811115613eaa57613ea96141c7565b5b6001851615613eb95780820291505b8081029050613ec785614265565b9450613e8e565b94509492505050565b6000613ee2826140f0565b9150613eed8361410e565b9250613f1a7fffffffffffffffffffffffffffffffffffffffffffffffffffffffffffffffff8484613f22565b905092915050565b600082613f325760019050613fee565b81613f405760009050613fee565b8160018114613f565760028114613f6057613f8f565b6001915050613fee565b60ff841115613f7257613f716141c7565b5b8360020a915084821115613f8957613f886141c7565b5b50613fee565b5060208310610133831016604e8410600b8410161715613fc45782820a905083811115613fbf57613fbe6141c7565b5b613fee565b613fd18484846001613e84565b92509050818404811115613fe857613fe76141c7565b5b81810290505b9392505050565b6000614000826140f0565b915061400b836140f0565b9250817fffffffffffffffffffffffffffffffffffffffffffffffffffffffffffffffff0483118215151615614044576140436141c7565b5b828202905092915050565b600061405a826140fa565b9150614065836140fa565b92508167ffffffffffffffff0483118215151615614086576140856141c7565b5b828202905092915050565b600061409c826140c1565b9050919050565b60006140ae826140c1565b9050919050565b60008115159050919050565b600073ffffffffffffffffffffffffffffffffffffffff82169050919050565b600062ffffff82169050919050565b6000819050919050565b600067ffffffffffffffff82169050919050565b600060ff82169050919050565b60006141268261412d565b9050919050565b6000614138826140c1565b9050919050565b600061414a82614151565b9050919050565b600061415c826140c1565b9050919050565b60005b83811015614181578082015181840152602081019050614166565b83811115614190576000848401525b50505050565b61419f82614254565b810181811067ffffffffffffffff821117156141be576141bd614225565b5b80604052505050565b7f4e487b7100000000000000000000000000000000000000000000000000000000600052601160045260246000fd5b7f4e487b7100000000000000000000000000000000000000000000000000000000600052601260045260246000fd5b7f4e487b7100000000000000000000000000000000000000000000000000000000600052604160045260246000fd5b6000601f19601f8301169050919050565b60008160011c9050919050565b7f4f43580000000000000000000000000000000000000000000000000000000000600082015250565b7f496e76616c696420636f6e747261637420696e64657800000000000000000000600082015250565b7f4f637845786368616e67652e7377617028293a20617070726f766520666f722060008201527f74686520726f75746572206661696c65642e0000000000000000000000000000602082015250565b7f466f722063616c6c65722065787065637465642062652063726561746f720000600082015250565b7f496e76616c69642063726561746f722061646472657373000000000000000000600082015250565b7f496e73756666696369656e7420616c6c6f77616e636500000000000000000000600082015250565b7f496e76616c696420616d6f756e74496e00000000000000000000000000000000600082015250565b7f4f43415400000000000000000000000000000000000000000000000000000000600082015250565b7f5354460000000000000000000000000000000000000000000000000000000000600082015250565b7f4578706563746564206e6f6e2d7a65726f206164647265737300000000000000600082015250565b7f4d7573742062652061646d696e00000000000000000000000000000000000000600082015250565b61446481614091565b811461446f57600080fd5b50565b61447b816140a3565b811461448657600080fd5b50565b614492816140b5565b811461449d57600080fd5b50565b600a81106144ad57600080fd5b50565b600881106144bd57600080fd5b50565b6144c9816140f0565b81146144d457600080fd5b50565b6144e08161410e565b81146144eb57600080fd5b5056fea2646970667358221220e2597407d0be19ff63bb704d818c610eab4031dde2c99e6aeac0683fd799c19b64736f6c63430008040033",
  "immutableReferences": {},
  "source": "// SPDX-License-Identifier: MIT\npragma solidity ^0.8.0;\n\n// https://soliditydeveloper.com/uniswap2\n// https://docs.uniswap.org/protocol/V2/guides/smart-contract-integration/trading-from-a-smart-contract\n// https://ethereum.org/ru/developers/tutorials/transfers-and-approval-of-erc-20-tokens-from-a-solidity-smart-contract/\n// https://solidity-by-example.org/app/erc20/\n\nimport \"@uniswap/v3-periphery/contracts/interfaces/ISwapRouter.sol\";\nimport \"@uniswap/v3-periphery/contracts/interfaces/IQuoter.sol\";\n// import \"@uniswap/v2-periphery/contracts/interfaces/IUniswapV2Router02.sol\";\nimport '@uniswap/v3-periphery/contracts/libraries/TransferHelper.sol';\nimport \"@openzeppelin/contracts/token/ERC20/IERC20.sol\"; // openzeppelin 4.5 (for solidity 0.8.x)\nimport \"@openzeppelin/contracts/utils/Strings.sol\";\nimport \"@openzeppelin/contracts/token/ERC721/IERC721.sol\";\nimport \"./OcxBase.sol\";\nimport \"./PawnNFTs.sol\";\nimport \"./OcatToken.sol\";\nimport \"./common/OcxCommon.sol\";\n\ncontract OcxExchange is OcxBase {\n\n    // IUniswapV2Router02  public uniswapRouter;\n    ISwapRouter public constant uniswapRouter = ISwapRouter(UNISWAP_V3_ROUTER_ADDRESS);\n    IQuoter public constant quoter = IQuoter(UNISWAP_V3_QUOTER_ADDRESS);\n    // address payable private ocxLocalPoolAddress;\n    mapping(CurrencyIndex => CurrencyPriceInfo) private quotes;\n\n\n    event estimatedOcxAmountForBurningOcat(uint256);\n\n    receive() external payable {}\n\n    constructor() {\n        // uniswapRouter = IUniswapV2Router02(UNISWAP_V3_ROUTER_ADDRESS);\n    }\n\n    function swap(\n        address _tokenIn,\n        uint _amountIn,\n        address _tokenOut,\n        uint _amountOutMin,\n        uint _deadline\n    ) public \n    returns(uint amountOut) {\n        // transferFrom\n        //    Check for allowance\n        if (_tokenIn != contractAddress[CommonContracts.WETH]) {\n            uint256 allowance = IERC20(_tokenIn).allowance(msg.sender, address(this));\n            require(allowance >= _amountIn, \"Insufficient allowance\");\n            //     Do transferFrom\n            // approve\n            require(\n                IERC20(_tokenIn).approve(address(UNISWAP_V3_ROUTER_ADDRESS), _amountIn), \n                'OcxExchange.swap(): approve for the router failed.'\n            );\n        }\n        TransferHelper.safeTransferFrom(_tokenIn, msg.sender, address(this), _amountIn);\n        address recipient = msg.sender;\n        if (_tokenIn == contractAddress[CommonContracts.OCAT] \n         && _tokenOut == contractAddress[CommonContracts.UNI]) {\n            uint256 ocxAmount = _amountIn * quotes[CurrencyIndex.OCAT].vs[CurrencyIndex.OCX].value;\n            IERC20(contractAddress[CommonContracts.OCX]).approve(UNISWAP_V3_ROUTER_ADDRESS, ocxAmount);\n            _tokenIn = contractAddress[CommonContracts.OCX];\n            _amountIn = ocxAmount;\n        } else if (_tokenIn == contractAddress[CommonContracts.UNI] \n                && _tokenOut == contractAddress[CommonContracts.OCAT]) {\n            // Tophalf for UNI->OCAT swap\n            _tokenOut = contractAddress[CommonContracts.OCX];\n            recipient = address(this);\n        }\n\n        ISwapRouter.ExactInputSingleParams memory params =\n            ISwapRouter.ExactInputSingleParams({\n                tokenIn: _tokenIn,\n                tokenOut: _tokenOut,\n                fee: POOL_FEE,\n                recipient: recipient,\n                deadline: block.timestamp + 15,\n                amountIn: _amountIn,\n                amountOutMinimum: 0,\n                sqrtPriceLimitX96: 0\n            });\n\n        // The call to `exactInputSingle` executes the swap.\n        amountOut = uniswapRouter.exactInputSingle(params);\n\n        // Bottomhalf for UNI->OCAT swap\n        if (_tokenIn == contractAddress[CommonContracts.UNI] \n        && _tokenOut == contractAddress[CommonContracts.OCAT]) {\n            uint256 ocatAmount = amountOut / quotes[CurrencyIndex.OCAT].vs[CurrencyIndex.OCX].value;\n            IERC20(contractAddress[CommonContracts.OCAT]).transfer(msg.sender, ocatAmount);\n        }\n    }\n    function getAmountsOut(uint256 amountIn, address[2] memory path) public \n    onlyValidAddress(path[0]) onlyValidAddress(path[1])\n    returns(uint256 expectedAmountOut) {\n        require(amountIn > 0, \"Invalid amountIn\");\n        uint256 deadline = block.timestamp + 15; // using 'now' for convenience, for mainnet pass deadline from frontend!\n        address tokenIn = path[0];\n        address tokenOut = path[1];\n        uint24 fee = 3000;\n        address recipient = msg.sender;\n        uint256 amountOutMinimum = 0;\n        uint160 sqrtPriceLimitX96 = 0;\n\n        if (path[0] == contractAddress[CommonContracts.OCAT]) {\n            if (path[1] == contractAddress[CommonContracts.UNI]) {\n                // Get OCAT:OCX quote and calculate OCX amount for \"amountIn\"\n                amountIn = (quotes[CurrencyIndex.OCAT].vs[CurrencyIndex.OCX].value * amountIn) / \n                           (10 ** quotes[CurrencyIndex.OCAT].vs[CurrencyIndex.OCX].decimals);\n                // Get OCX:UNI quote\n                // Multiple it by OCAT:OCX quote\n                tokenIn = contractAddress[CommonContracts.OCX];\n            }\n        }\n        ISwapRouter.ExactInputSingleParams  memory params = ISwapRouter.ExactInputSingleParams  (\n            tokenIn,\n            tokenOut,\n            fee,\n            recipient,\n            deadline,\n            amountIn,\n            amountOutMinimum,\n            sqrtPriceLimitX96\n        );\n        expectedAmountOut = uniswapRouter.exactInputSingle(params);\n    }\n    /**\n     *  Mint OCAT by funding ETH\n     */\n    function mintOcat() public payable \n    onlyAdmin onlyValidAddress(contractAddress[CommonContracts.PRICE_ORACLE]) \n    onlyValidAddress(contractAddress[CommonContracts.OCAT]) {\n        OcxPrice memory ethAudPriceInfo = IOcxPriceOracle(\n            contractAddress[CommonContracts.PRICE_ORACLE]\n        ).getCurrencyRatio(\"OCAT\", \"OCX\");\n        uint8 ocatDecimals = IOcat(contractAddress[CommonContracts.OCAT]).decimals();\n        mintOcat(\n            (msg.value * ethAudPriceInfo.value * (10**ocatDecimals)) / \n            ((10**18) * ethAudPriceInfo.decimals)\n        );\n    }\n    /**\n     * Mint OCAT as specified amount\n     */\n    function mintOcat(uint256 amount) internal onlyAdmin {\n        IOcxERC20(contractAddress[CommonContracts.OCAT]).mint(amount);\n        swap(\n            contractAddress[CommonContracts.OCAT], amount, \n            contractAddress[CommonContracts.OCX], 0, \n            block.timestamp\n        );\n    }\n    function _getEstimatedOcxforOcat(uint ocatAmount) internal returns (uint256) {\n        address tokenIn = contractAddress[CommonContracts.OCX];\n        address tokenOut = contractAddress[CommonContracts.OCAT];\n        uint24 fee = 3000;\n        uint160 sqrtPriceLimitX96 = 0;\n\n        // getQuoteAtTick()\n        return quoter.quoteExactOutputSingle(\n            tokenIn,\n            tokenOut,\n            fee,\n            ocatAmount,\n            sqrtPriceLimitX96\n        );\n    }\n    function burnOcat(uint256 amount) internal onlyAdmin {\n        IERC20 ocat = IERC20(contractAddress[CommonContracts.OCAT]);\n        if (ocat.balanceOf(address(this)) < amount) {\n            uint256 ocxAmount = _getEstimatedOcxforOcat(amount);\n            IERC20 ocx = IERC20(contractAddress[CommonContracts.OCX]);\n            /*********************************************************\n             * Warn to admin to deposit additional ETHs\n             *********************************************************/\n            require(ocx.balanceOf(address(this)) < ocxAmount, \"1\");\n            //////////////////////////////////////////////////////////\n            emit estimatedOcxAmountForBurningOcat(ocxAmount);\n            IERC20(contractAddress[CommonContracts.OCX]).approve(UNISWAP_V3_ROUTER_ADDRESS, ocxAmount);\n            swap(\n                contractAddress[CommonContracts.OCX], ocxAmount, \n                contractAddress[CommonContracts.OCAT], 0, \n                block.timestamp\n            );\n        }\n        IOcxERC20(contractAddress[CommonContracts.OCAT]).burn(amount);\n    }\n    function mintOcx(uint256 amount) public payable onlyAdmin  {\n        IOcxERC20(contractAddress[CommonContracts.OCX]).mint(amount);\n    }\n    function burnOcx(uint256 amount) internal onlyAdmin {\n        IOcxERC20(contractAddress[CommonContracts.OCX]).burn(amount);\n    }\n    function setQuote(CurrencyIndex left, CurrencyIndex right, OcxPrice memory newQuote) public {\n        quotes[left].vs[right] = newQuote;\n    }\n    function getQuote(CurrencyIndex left, CurrencyIndex right) public view returns(OcxPrice memory) {\n        return quotes[left].vs[right];\n    }\n}\n",
  "sourcePath": "/home/openchainx/OpenchainTestVersion/server/contracts/OcxExchange.sol",
  "compiler": {
    "name": "solc",
    "version": "0.8.4+commit.c7e474f2.Emscripten.clang"
  },
  "schemaVersion": "3.4.7",
  "updatedAt": "2022-05-03T10:03:19.017Z",
  "networkType": "ethereum",
  "devdoc": {
    "kind": "dev",
    "methods": {},
    "version": 1
  },
  "userdoc": {
    "kind": "user",
    "methods": {
      "mintOcat()": {
        "notice": "Mint OCAT by funding ETH"
      }
    },
    "version": 1
  }
}