{
  "contractName": "OcxFeeManager",
  "abi": [
    {
      "inputs": [],
      "stateMutability": "nonpayable",
      "type": "constructor"
    },
    {
      "stateMutability": "payable",
      "type": "receive"
    },
    {
      "inputs": [
        {
          "internalType": "address",
          "name": "_address",
          "type": "address"
        }
      ],
      "name": "addOperator",
      "outputs": [],
      "stateMutability": "payable",
      "type": "function"
    },
    {
      "inputs": [
        {
          "internalType": "address",
          "name": "contractAddress",
          "type": "address"
        },
        {
          "internalType": "uint8",
          "name": "feeType",
          "type": "uint8"
        },
        {
          "internalType": "uint8",
          "name": "feeValue",
          "type": "uint8"
        }
      ],
      "name": "setContractFee",
      "outputs": [],
      "stateMutability": "nonpayable",
      "type": "function"
    }
  ],
  "bytecode": "0x608060405234801561001057600080fd5b5033600073ffffffffffffffffffffffffffffffffffffffff168173ffffffffffffffffffffffffffffffffffffffff161415610082576040517f08c379a0000000000000000000000000000000000000000000000000000000008152600401610079906100eb565b60405180910390fd5b336000806101000a81548173ffffffffffffffffffffffffffffffffffffffff021916908373ffffffffffffffffffffffffffffffffffffffff1602179055505061016b565b60006100d560248361010b565b91506100e08261011c565b604082019050919050565b60006020820190508181036000830152610104816100c8565b9050919050565b600082825260208201905092915050565b7f43616c6c65722068617665206e6f7420746f2068617665207a65726f2061646460008201527f7265737300000000000000000000000000000000000000000000000000000000602082015250565b6107518061017a6000396000f3fe60806040526004361061002d5760003560e01c80634a977357146100395780639870d7fe1461006257610034565b3661003457005b600080fd5b34801561004557600080fd5b50610060600480360381019061005b91906104f7565b61007e565b005b61007c600480360381019061007791906104ce565b610274565b005b82600073ffffffffffffffffffffffffffffffffffffffff168173ffffffffffffffffffffffffffffffffffffffff1614156100ef576040517f08c379a00000000000000000000000000000000000000000000000000000000081526004016100e69061058c565b60405180910390fd5b6000805b6001805490508160ff1610156101ba5760018160ff1681548110610140577f4e487b7100000000000000000000000000000000000000000000000000000000600052603260045260246000fd5b9060005260206000200160009054906101000a900473ffffffffffffffffffffffffffffffffffffffff1673ffffffffffffffffffffffffffffffffffffffff163373ffffffffffffffffffffffffffffffffffffffff1614156101a757600191506101ba565b80806101b29061061c565b9150506100f3565b50806101fb576040517f08c379a00000000000000000000000000000000000000000000000000000000081526004016101f2906105ac565b60405180910390fd5b82600260008773ffffffffffffffffffffffffffffffffffffffff1673ffffffffffffffffffffffffffffffffffffffff16815260200190815260200160002060000160008660ff1660ff16815260200190815260200160002060006101000a81548160ff021916908360ff1602179055505050505050565b60008054906101000a900473ffffffffffffffffffffffffffffffffffffffff1673ffffffffffffffffffffffffffffffffffffffff163373ffffffffffffffffffffffffffffffffffffffff161415610303576040517f08c379a00000000000000000000000000000000000000000000000000000000081526004016102fa9061058c565b60405180910390fd5b80600073ffffffffffffffffffffffffffffffffffffffff168173ffffffffffffffffffffffffffffffffffffffff161415610374576040517f08c379a000000000000000000000000000000000000000000000000000000000815260040161036b9061058c565b60405180910390fd5b60005b6001805490508160ff16101561043b5760018160ff16815481106103c4577f4e487b7100000000000000000000000000000000000000000000000000000000600052603260045260246000fd5b9060005260206000200160009054906101000a900473ffffffffffffffffffffffffffffffffffffffff1673ffffffffffffffffffffffffffffffffffffffff168373ffffffffffffffffffffffffffffffffffffffff16141561042857506104a0565b80806104339061061c565b915050610377565b506001829080600181540180825580915050600190039060005260206000200160009091909190916101000a81548173ffffffffffffffffffffffffffffffffffffffff021916908373ffffffffffffffffffffffffffffffffffffffff1602179055505b5050565b6000813590506104b3816106ed565b92915050565b6000813590506104c881610704565b92915050565b6000602082840312156104e057600080fd5b60006104ee848285016104a4565b91505092915050565b60008060006060848603121561050c57600080fd5b600061051a868287016104a4565b935050602061052b868287016104b9565b925050604061053c868287016104b9565b9150509250925092565b60006105536024836105cc565b915061055e82610675565b604082019050919050565b60006105766010836105cc565b9150610581826106c4565b602082019050919050565b600060208201905081810360008301526105a581610546565b9050919050565b600060208201905081810360008301526105c581610569565b9050919050565b600082825260208201905092915050565b60006105e8826105ef565b9050919050565b600073ffffffffffffffffffffffffffffffffffffffff82169050919050565b600060ff82169050919050565b60006106278261060f565b915060ff82141561063b5761063a610646565b5b600182019050919050565b7f4e487b7100000000000000000000000000000000000000000000000000000000600052601160045260246000fd5b7f43616c6c65722068617665206e6f7420746f2068617665207a65726f2061646460008201527f7265737300000000000000000000000000000000000000000000000000000000602082015250565b7f4e6f7420616c6c6f776564207573657200000000000000000000000000000000600082015250565b6106f6816105dd565b811461070157600080fd5b50565b61070d8161060f565b811461071857600080fd5b5056fea2646970667358221220156bb67587abc856060c2087617036f4c0f3c7b714e7b1673408f399484c283d64736f6c63430008040033",
  "immutableReferences": {},
  "source": "// SPDX-License-Identifier: MIT\npragma solidity ^0.8.0;\n\nimport \"./CommonTypes.sol\";\n\ncontract OcxFeeManager {\n\n    struct OcxFee {\n        mapping(uint8 => uint8) fees;\n    }\n\n    address payable private creator;\n    address[]       private allowedOperators;\n    mapping(address => OcxFee) private contractFee;\n\n    receive() external payable {}\n\n    modifier mustNoneZeroAddress(address _address) {\n        require(_address != address(0), \"Caller have not to have zero address\");\n        _;\n    }\n\n    modifier onlyCreator {\n        require(msg.sender != creator, \"Caller have not to have zero address\");\n        _;\n    }\n\n    modifier callerMustBeAllowed {\n        bool isAllowed = false;\n        for (uint8 i = 0; i < allowedOperators.length; i++) {\n            if (msg.sender == allowedOperators[i]) {\n                isAllowed = true;\n                break;\n            }\n        }\n        require(isAllowed, \"Not allowed user\");\n        _;\n    }\n\n    constructor() mustNoneZeroAddress(msg.sender) {\n        creator = payable(msg.sender);\n    }\n\n    function addOperator(address _address) public payable \n    onlyCreator mustNoneZeroAddress(_address) {\n        for (uint8 i = 0; i < allowedOperators.length; i++) {\n            if (_address == allowedOperators[i]) {\n                return;\n            }\n        }\n        allowedOperators.push(_address);\n    }\n\n    function setContractFee(address contractAddress, uint8 feeType, uint8 feeValue) public \n    mustNoneZeroAddress(contractAddress) callerMustBeAllowed {\n        contractFee[contractAddress].fees[feeType] = feeValue;\n    }\n}\n",
  "sourcePath": "/home/cowboy/OpenchainTestVersion/server/contracts/OcxFeeManager.sol",
  "compiler": {
    "name": "solc",
    "version": "0.8.4+commit.c7e474f2.Emscripten.clang"
  },
  "schemaVersion": "3.4.6",
  "updatedAt": "2022-04-13T20:58:12.149Z",
  "devdoc": {
    "kind": "dev",
    "methods": {},
    "version": 1
  },
  "userdoc": {
    "kind": "user",
    "methods": {},
    "version": 1
  }
}