{
  "contractName": "OcxLocalPool",
  "abi": [
    {
      "inputs": [],
      "stateMutability": "nonpayable",
      "type": "constructor"
    },
    {
      "anonymous": false,
      "inputs": [
        {
          "indexed": false,
          "internalType": "uint256",
          "name": "",
          "type": "uint256"
        }
      ],
      "name": "AmountToRetrieve",
      "type": "event"
    },
    {
      "inputs": [],
      "name": "poolCount",
      "outputs": [
        {
          "internalType": "uint8",
          "name": "",
          "type": "uint8"
        }
      ],
      "stateMutability": "view",
      "type": "function",
      "constant": true
    },
    {
      "inputs": [
        {
          "internalType": "uint8",
          "name": "",
          "type": "uint8"
        }
      ],
      "name": "poolList",
      "outputs": [
        {
          "internalType": "uint256",
          "name": "k",
          "type": "uint256"
        },
        {
          "internalType": "uint256",
          "name": "prevK",
          "type": "uint256"
        },
        {
          "internalType": "uint256",
          "name": "prevQuote",
          "type": "uint256"
        },
        {
          "internalType": "uint256",
          "name": "quoteOrig",
          "type": "uint256"
        },
        {
          "internalType": "uint256",
          "name": "quote",
          "type": "uint256"
        }
      ],
      "stateMutability": "view",
      "type": "function",
      "constant": true
    },
    {
      "inputs": [
        {
          "internalType": "address",
          "name": "",
          "type": "address"
        }
      ],
      "name": "shares",
      "outputs": [
        {
          "internalType": "uint8",
          "name": "poolCount",
          "type": "uint8"
        }
      ],
      "stateMutability": "view",
      "type": "function",
      "constant": true
    },
    {
      "stateMutability": "payable",
      "type": "receive",
      "payable": true
    },
    {
      "inputs": [
        {
          "internalType": "address payable",
          "name": "_ocatAddress",
          "type": "address"
        }
      ],
      "name": "setOcatAddress",
      "outputs": [],
      "stateMutability": "nonpayable",
      "type": "function"
    },
    {
      "inputs": [
        {
          "internalType": "uint256",
          "name": "_amountOutMin",
          "type": "uint256"
        },
        {
          "internalType": "address payable",
          "name": "to",
          "type": "address"
        },
        {
          "internalType": "uint256",
          "name": "_deadline",
          "type": "uint256"
        }
      ],
      "name": "swapEthToOcat",
      "outputs": [],
      "stateMutability": "payable",
      "type": "function",
      "payable": true
    },
    {
      "inputs": [
        {
          "internalType": "uint256",
          "name": "_amountIn",
          "type": "uint256"
        },
        {
          "internalType": "uint256",
          "name": "_amountOutMin",
          "type": "uint256"
        },
        {
          "internalType": "address payable",
          "name": "to",
          "type": "address"
        },
        {
          "internalType": "uint256",
          "name": "_deadline",
          "type": "uint256"
        }
      ],
      "name": "swapOcatToEth",
      "outputs": [
        {
          "internalType": "uint256",
          "name": "amountOut",
          "type": "uint256"
        }
      ],
      "stateMutability": "nonpayable",
      "type": "function"
    },
    {
      "inputs": [
        {
          "internalType": "address",
          "name": "token",
          "type": "address"
        },
        {
          "internalType": "uint256",
          "name": "amount",
          "type": "uint256"
        }
      ],
      "name": "addLiquidityWithETH",
      "outputs": [],
      "stateMutability": "payable",
      "type": "function",
      "payable": true
    }
  ],
  "bytecode": "0x608060405234801561001057600080fd5b5033600160006101000a81548173ffffffffffffffffffffffffffffffffffffffff021916908373ffffffffffffffffffffffffffffffffffffffff160217905550613f01806100616000396000f3fe6080604052600436106100745760003560e01c8063aebf1ffc1161004e578063aebf1ffc1461011a578063b18d30a214610136578063ce7c2ac21461015f578063f525cb681461019c5761007b565b80635c4f127c1461008057806362eaaf201461009c5780639d26bc1a146100dd5761007b565b3661007b57005b600080fd5b61009a60048036038101906100959190612b42565b6101c7565b005b3480156100a857600080fd5b506100c360048036038101906100be9190612c82565b6112ba565b6040516100d49594939291906134ca565b60405180910390f35b3480156100e957600080fd5b5061010460048036038101906100ff9190612c1f565b6112f0565b60405161011191906134af565b60405180910390f35b610134600480360381019061012f9190612bd0565b611b7b565b005b34801561014257600080fd5b5061015d60048036038101906101589190612b19565b612220565b005b34801561016b57600080fd5b5061018660048036038101906101819190612af0565b612363565b604051610193919061351d565b60405180910390f35b3480156101a857600080fd5b506101b161238e565b6040516101be919061351d565b60405180910390f35b600073ffffffffffffffffffffffffffffffffffffffff163373ffffffffffffffffffffffffffffffffffffffff161415610237576040517f08c379a000000000000000000000000000000000000000000000000000000000815260040161022e906132ef565b60405180910390fd5b600073ffffffffffffffffffffffffffffffffffffffff168273ffffffffffffffffffffffffffffffffffffffff1614156102a7576040517f08c379a000000000000000000000000000000000000000000000000000000000815260040161029e906132af565b60405180910390fd5b600081116102ea576040517f08c379a00000000000000000000000000000000000000000000000000000000081526004016102e19061322f565b60405180910390fd5b3373ffffffffffffffffffffffffffffffffffffffff16600160009054906101000a900473ffffffffffffffffffffffffffffffffffffffff1673ffffffffffffffffffffffffffffffffffffffff161461037a576040517f08c379a0000000000000000000000000000000000000000000000000000000008152600401610371906132cf565b60405180910390fd5b600080600190506000806003600a6103929190613639565b905061039f6000876123a1565b80955081945082965050505083610a10576103b86129b6565b6000816000600281106103f4577f4e487b7100000000000000000000000000000000000000000000000000000000600052603260045260246000fd5b602002019073ffffffffffffffffffffffffffffffffffffffff16908173ffffffffffffffffffffffffffffffffffffffff16815250508681600160028110610466577f4e487b7100000000000000000000000000000000000000000000000000000000600052603260045260246000fd5b602002019073ffffffffffffffffffffffffffffffffffffffff16908173ffffffffffffffffffffffffffffffffffffffff16815250508534111561058b5786816000600281106104e0577f4e487b7100000000000000000000000000000000000000000000000000000000600052603260045260246000fd5b602002019073ffffffffffffffffffffffffffffffffffffffff16908173ffffffffffffffffffffffffffffffffffffffff1681525050600081600160028110610553577f4e487b7100000000000000000000000000000000000000000000000000000000600052603260045260246000fd5b602002019073ffffffffffffffffffffffffffffffffffffffff16908173ffffffffffffffffffffffffffffffffffffffff16815250505b6040518060400160405280600073ffffffffffffffffffffffffffffffffffffffff1673ffffffffffffffffffffffffffffffffffffffff1681526020018873ffffffffffffffffffffffffffffffffffffffff1673ffffffffffffffffffffffffffffffffffffffff1681525060026000600360009054906101000a900460ff1660ff1660ff1681526020019081526020016000206000019060026106329291906129d8565b503460026000600360009054906101000a900460ff1660ff1660ff16815260200190815260200160002060020160008073ffffffffffffffffffffffffffffffffffffffff1673ffffffffffffffffffffffffffffffffffffffff168152602001908152602001600020819055508560026000600360009054906101000a900460ff1660ff1660ff16815260200190815260200160002060020160008973ffffffffffffffffffffffffffffffffffffffff1673ffffffffffffffffffffffffffffffffffffffff1681526020019081526020016000208190555085346107199190613757565b60026000600360009054906101000a900460ff1660ff1660ff16815260200190815260200160002060030181905550600060026000600360009054906101000a900460ff1660ff1660ff168152602001908152602001600020600401819055508060026000600360009054906101000a900460ff1660ff1660ff1681526020019081526020016000206005019060026107b39291906129d8565b5060026000600360009054906101000a900460ff1660ff1660ff16815260200190815260200160002060020160008260006002811061081b577f4e487b7100000000000000000000000000000000000000000000000000000000600052603260045260246000fd5b602002015173ffffffffffffffffffffffffffffffffffffffff1673ffffffffffffffffffffffffffffffffffffffff168152602001908152602001600020548260026000600360009054906101000a900460ff1660ff1660ff1681526020019081526020016000206002016000846001600281106108c3577f4e487b7100000000000000000000000000000000000000000000000000000000600052603260045260246000fd5b602002015173ffffffffffffffffffffffffffffffffffffffff1673ffffffffffffffffffffffffffffffffffffffff1681526020019081526020016000205461090d9190613757565b61091791906135b5565b60026000600360009054906101000a900460ff1660ff1660ff1681526020019081526020016000206009018190555060026000600360009054906101000a900460ff1660ff1660ff1681526020019081526020016000206009015460026000600360009054906101000a900460ff1660ff1660ff16815260200190815260200160002060080181905550600060026000600360009054906101000a900460ff1660ff1660ff168152602001908152602001600020600701819055506003600081819054906101000a900460ff16809291906109f1906138b5565b91906101000a81548160ff021916908360ff1602179055505050610d55565b6000348287610a1f9190613757565b610a2991906135b5565b90506000600260008560ff1660ff168152602001908152602001600020600801548383610a569190613757565b610a6091906135b5565b905060026003610a7091906137b1565b600a610a7c9190613639565b6062610a889190613757565b81118015610aba575060026003610a9f91906137b1565b600a610aab9190613639565b6066610ab79190613757565b81105b610af9576040517f08c379a0000000000000000000000000000000000000000000000000000000008152600401610af09061324f565b60405180910390fd5b34600260008660ff1660ff16815260200190815260200160002060020160008073ffffffffffffffffffffffffffffffffffffffff1673ffffffffffffffffffffffffffffffffffffffff1681526020019081526020016000206000828254610b62919061355f565b9250508190555086600260008660ff1660ff16815260200190815260200160002060020160008a73ffffffffffffffffffffffffffffffffffffffff1673ffffffffffffffffffffffffffffffffffffffff1681526020019081526020016000206000828254610bd2919061355f565b92505081905550600260008560ff1660ff16815260200190815260200160002060030154600260008660ff1660ff16815260200190815260200160002060040181905550600260008560ff1660ff16815260200190815260200160002060020160008973ffffffffffffffffffffffffffffffffffffffff1673ffffffffffffffffffffffffffffffffffffffff16815260200190815260200160002054600260008660ff1660ff16815260200190815260200160002060020160008073ffffffffffffffffffffffffffffffffffffffff1673ffffffffffffffffffffffffffffffffffffffff16815260200190815260200160002054610cd49190613757565b600260008660ff1660ff16815260200190815260200160002060030181905550600260008560ff1660ff16815260200190815260200160002060090154600260008660ff1660ff1681526020019081526020016000206007018190555081600260008660ff1660ff1681526020019081526020016000206009018190555050505b6000935060005b600460003373ffffffffffffffffffffffffffffffffffffffff1673ffffffffffffffffffffffffffffffffffffffff16815260200190815260200160002060010160009054906101000a900460ff1660ff168160ff161015610fac57600460003373ffffffffffffffffffffffffffffffffffffffff1673ffffffffffffffffffffffffffffffffffffffff16815260200190815260200160002060000160008260ff1660ff16815260200190815260200160002060000160009054906101000a900460ff1660ff168360ff161415610f995734600460003373ffffffffffffffffffffffffffffffffffffffff1673ffffffffffffffffffffffffffffffffffffffff16815260200190815260200160002060000160008360ff1660ff16815260200190815260200160002060010160008073ffffffffffffffffffffffffffffffffffffffff1673ffffffffffffffffffffffffffffffffffffffff1681526020019081526020016000206000828254610ed9919061355f565b9250508190555085600460003373ffffffffffffffffffffffffffffffffffffffff1673ffffffffffffffffffffffffffffffffffffffff16815260200190815260200160002060000160008360ff1660ff16815260200190815260200160002060010160008973ffffffffffffffffffffffffffffffffffffffff1673ffffffffffffffffffffffffffffffffffffffff1681526020019081526020016000206000828254610f89919061355f565b9250508190555060019450610fac565b8080610fa4906138b5565b915050610d5c565b50836111d35781600460003373ffffffffffffffffffffffffffffffffffffffff1673ffffffffffffffffffffffffffffffffffffffff16815260200190815260200160002060000160008060ff16815260200190815260200160002060000160006101000a81548160ff021916908360ff16021790555034600460003373ffffffffffffffffffffffffffffffffffffffff1673ffffffffffffffffffffffffffffffffffffffff16815260200190815260200160002060000160008060ff16815260200190815260200160002060010160008073ffffffffffffffffffffffffffffffffffffffff1673ffffffffffffffffffffffffffffffffffffffff1681526020019081526020016000208190555084600460003373ffffffffffffffffffffffffffffffffffffffff1673ffffffffffffffffffffffffffffffffffffffff16815260200190815260200160002060000160008060ff16815260200190815260200160002060010160008873ffffffffffffffffffffffffffffffffffffffff1673ffffffffffffffffffffffffffffffffffffffff16815260200190815260200160002081905550600460003373ffffffffffffffffffffffffffffffffffffffff1673ffffffffffffffffffffffffffffffffffffffff168152602001908152602001600020600101600081819054906101000a900460ff16809291906111b9906138b5565b91906101000a81548160ff021916908360ff160217905550505b60008673ffffffffffffffffffffffffffffffffffffffff1663dd62ed3e33306040518363ffffffff1660e01b81526004016112109291906130e6565b60206040518083038186803b15801561122857600080fd5b505afa15801561123c573d6000803e3d6000fd5b505050506040513d601f19601f820116820180604052508101906112609190612ba7565b9050858110156112a5576040517f08c379a000000000000000000000000000000000000000000000000000000000815260040161129c9061316f565b60405180910390fd5b6112b187333089612757565b50505050505050565b60026020528060005260406000206000915090508060030154908060040154908060070154908060080154908060090154905085565b60008073ffffffffffffffffffffffffffffffffffffffff168373ffffffffffffffffffffffffffffffffffffffff161415611361576040517f08c379a0000000000000000000000000000000000000000000000000000000008152600401611358906131ef565b60405180910390fd5b3073ffffffffffffffffffffffffffffffffffffffff168373ffffffffffffffffffffffffffffffffffffffff1614156113d0576040517f08c379a00000000000000000000000000000000000000000000000000000000081526004016113c79061330f565b60405180910390fd5b60008511611413576040517f08c379a000000000000000000000000000000000000000000000000000000000815260040161140a9061348f565b60405180910390fd5b600080600061144360008054906101000a900473ffffffffffffffffffffffffffffffffffffffff1660006123a1565b92509250925082611489576040517f08c379a0000000000000000000000000000000000000000000000000000000008152600401611480906133ef565b60405180910390fd5b6000600260008460ff1660ff16815260200190815260200160002060020160008073ffffffffffffffffffffffffffffffffffffffff1673ffffffffffffffffffffffffffffffffffffffff1681526020019081526020016000205490506000600260008560ff1660ff16815260200190815260200160002060020160008060009054906101000a900473ffffffffffffffffffffffffffffffffffffffff1673ffffffffffffffffffffffffffffffffffffffff1673ffffffffffffffffffffffffffffffffffffffff168152602001908152602001600020549050600082116115a9576040517f08c379a00000000000000000000000000000000000000000000000000000000081526004016115a09061320f565b60405180910390fd5b8882116115eb576040517f08c379a00000000000000000000000000000000000000000000000000000000081526004016115e29061336f565b60405180910390fd5b60008a826115f9919061355f565b600260008760ff1660ff1681526020019081526020016000206003015461162091906135b5565b9050808311611664576040517f08c379a000000000000000000000000000000000000000000000000000000000815260040161165b906133af565b60405180910390fd5b808361167091906137b1565b9650898710156116b5576040517f08c379a00000000000000000000000000000000000000000000000000000000081526004016116ac9061326f565b60405180910390fd5b7fd1b1b510e169b19048c41a78e951db334c9b07265d1b5e112ad361651a1564af876040516116e491906134af565b60405180910390a160008060009054906101000a900473ffffffffffffffffffffffffffffffffffffffff1673ffffffffffffffffffffffffffffffffffffffff1663dd62ed3e8b306040518363ffffffff1660e01b815260040161174a9291906130bd565b60206040518083038186803b15801561176257600080fd5b505afa158015611776573d6000803e3d6000fd5b505050506040513d601f19601f8201168201806040525081019061179a9190612ba7565b90508b8110156117df576040517f08c379a00000000000000000000000000000000000000000000000000000000081526004016117d69061340f565b60405180910390fd5b61180b60008054906101000a900473ffffffffffffffffffffffffffffffffffffffff1633308f612757565b6118153389612890565b7fd1b1b510e169b19048c41a78e951db334c9b07265d1b5e112ad361651a1564af8860405161184491906134af565b60405180910390a18b600260008860ff1660ff16815260200190815260200160002060020160008060009054906101000a900473ffffffffffffffffffffffffffffffffffffffff1673ffffffffffffffffffffffffffffffffffffffff1673ffffffffffffffffffffffffffffffffffffffff16815260200190815260200160002060008282546118d6919061355f565b9250508190555087600260008860ff1660ff16815260200190815260200160002060020160008073ffffffffffffffffffffffffffffffffffffffff1673ffffffffffffffffffffffffffffffffffffffff168152602001908152602001600020600082825461194691906137b1565b92505081905550600260008760ff1660ff16815260200190815260200160002060090154600260008860ff1660ff16815260200190815260200160002060070181905550600260008760ff1660ff1681526020019081526020016000206002016000600260008960ff1660ff1681526020019081526020016000206005016000600281106119fd577f4e487b7100000000000000000000000000000000000000000000000000000000600052603260045260246000fd5b0160009054906101000a900473ffffffffffffffffffffffffffffffffffffffff1673ffffffffffffffffffffffffffffffffffffffff1673ffffffffffffffffffffffffffffffffffffffff168152602001908152602001600020546003600a611a689190613639565b600260008960ff1660ff1681526020019081526020016000206002016000600260008b60ff1660ff168152602001908152602001600020600501600160028110611adb577f4e487b7100000000000000000000000000000000000000000000000000000000600052603260045260246000fd5b0160009054906101000a900473ffffffffffffffffffffffffffffffffffffffff1673ffffffffffffffffffffffffffffffffffffffff1673ffffffffffffffffffffffffffffffffffffffff16815260200190815260200160002054611b429190613757565b611b4c91906135b5565b600260008860ff1660ff1681526020019081526020016000206009018190555050505050505050949350505050565b600073ffffffffffffffffffffffffffffffffffffffff168273ffffffffffffffffffffffffffffffffffffffff1614158015611be457503073ffffffffffffffffffffffffffffffffffffffff168273ffffffffffffffffffffffffffffffffffffffff1614155b611c23576040517f08c379a0000000000000000000000000000000000000000000000000000000008152600401611c1a906131cf565b60405180910390fd5b60003411611c66576040517f08c379a0000000000000000000000000000000000000000000000000000000008152600401611c5d9061332f565b60405180910390fd5b6000806000611c9760008060009054906101000a900473ffffffffffffffffffffffffffffffffffffffff166123a1565b92509250925082611cdd576040517f08c379a0000000000000000000000000000000000000000000000000000000008152600401611cd49061344f565b60405180910390fd5b6000600260008460ff1660ff16815260200190815260200160002060020160008073ffffffffffffffffffffffffffffffffffffffff1673ffffffffffffffffffffffffffffffffffffffff1681526020019081526020016000205490506000600260008560ff1660ff16815260200190815260200160002060020160008060009054906101000a900473ffffffffffffffffffffffffffffffffffffffff1673ffffffffffffffffffffffffffffffffffffffff1673ffffffffffffffffffffffffffffffffffffffff16815260200190815260200160002054905060008111611dfd576040517f08c379a0000000000000000000000000000000000000000000000000000000008152600401611df49061334f565b60405180910390fd5b878111611e3f576040517f08c379a0000000000000000000000000000000000000000000000000000000008152600401611e369061338f565b60405180910390fd5b60003483611e4d919061355f565b600260008760ff1660ff16815260200190815260200160002060030154611e7491906135b5565b9050808211611eb8576040517f08c379a0000000000000000000000000000000000000000000000000000000008152600401611eaf9061346f565b60405180910390fd5b60008183611ec691906137b1565b905089811015611f0b576040517f08c379a0000000000000000000000000000000000000000000000000000000008152600401611f029061328f565b60405180910390fd5b60008054906101000a900473ffffffffffffffffffffffffffffffffffffffff1673ffffffffffffffffffffffffffffffffffffffff1663a9059cbb33836040518363ffffffff1660e01b8152600401611f66929190613146565b602060405180830381600087803b158015611f8057600080fd5b505af1158015611f94573d6000803e3d6000fd5b505050506040513d601f19601f82011682018060405250810190611fb89190612b7e565b5034600260008860ff1660ff16815260200190815260200160002060020160008073ffffffffffffffffffffffffffffffffffffffff1673ffffffffffffffffffffffffffffffffffffffff1681526020019081526020016000206000828254612022919061355f565b9250508190555080600260008860ff1660ff16815260200190815260200160002060020160008060009054906101000a900473ffffffffffffffffffffffffffffffffffffffff1673ffffffffffffffffffffffffffffffffffffffff1673ffffffffffffffffffffffffffffffffffffffff16815260200190815260200160002060008282546120b391906137b1565b92505081905550600260008760ff1660ff16815260200190815260200160002060090154600260008860ff1660ff1681526020019081526020016000206007018190555060006003600a6121079190613639565b600260008960ff1660ff16815260200190815260200160002060020160008073ffffffffffffffffffffffffffffffffffffffff1673ffffffffffffffffffffffffffffffffffffffff1681526020019081526020016000205461216b9190613757565b9050600260008860ff1660ff16815260200190815260200160002060020160008060009054906101000a900473ffffffffffffffffffffffffffffffffffffffff1673ffffffffffffffffffffffffffffffffffffffff1673ffffffffffffffffffffffffffffffffffffffff16815260200190815260200160002054816121f391906135b5565b600260008960ff1660ff168152602001908152602001600020600901819055505050505050505050505050565b3373ffffffffffffffffffffffffffffffffffffffff16600160009054906101000a900473ffffffffffffffffffffffffffffffffffffffff1673ffffffffffffffffffffffffffffffffffffffff16146122b0576040517f08c379a00000000000000000000000000000000000000000000000000000000081526004016122a7906131af565b60405180910390fd5b600073ffffffffffffffffffffffffffffffffffffffff168173ffffffffffffffffffffffffffffffffffffffff161415612320576040517f08c379a00000000000000000000000000000000000000000000000000000000081526004016123179061318f565b60405180910390fd5b806000806101000a81548173ffffffffffffffffffffffffffffffffffffffff021916908373ffffffffffffffffffffffffffffffffffffffff16021790555050565b60046020528060005260406000206000915090508060010160009054906101000a900460ff16905081565b600360009054906101000a900460ff1681565b6000806000809250600091506001905060005b600360009054906101000a900460ff1660ff168160ff16101561274f578573ffffffffffffffffffffffffffffffffffffffff16600260008360ff1660ff16815260200190815260200160002060000160006002811061243d577f4e487b7100000000000000000000000000000000000000000000000000000000600052603260045260246000fd5b0160009054906101000a900473ffffffffffffffffffffffffffffffffffffffff1673ffffffffffffffffffffffffffffffffffffffff1614801561252357508473ffffffffffffffffffffffffffffffffffffffff16600260008360ff1660ff1681526020019081526020016000206000016001600281106124e9577f4e487b7100000000000000000000000000000000000000000000000000000000600052603260045260246000fd5b0160009054906101000a900473ffffffffffffffffffffffffffffffffffffffff1673ffffffffffffffffffffffffffffffffffffffff16145b8061267c57508573ffffffffffffffffffffffffffffffffffffffff16600260008360ff1660ff168152602001908152602001600020600001600160028110612595577f4e487b7100000000000000000000000000000000000000000000000000000000600052603260045260246000fd5b0160009054906101000a900473ffffffffffffffffffffffffffffffffffffffff1673ffffffffffffffffffffffffffffffffffffffff1614801561267b57508473ffffffffffffffffffffffffffffffffffffffff16600260008360ff1660ff168152602001908152602001600020600001600060028110612641577f4e487b7100000000000000000000000000000000000000000000000000000000600052603260045260246000fd5b0160009054906101000a900473ffffffffffffffffffffffffffffffffffffffff1673ffffffffffffffffffffffffffffffffffffffff16145b5b1561273c57600193508092508573ffffffffffffffffffffffffffffffffffffffff16600260008360ff1660ff1681526020019081526020016000206000016001600281106126f4577f4e487b7100000000000000000000000000000000000000000000000000000000600052603260045260246000fd5b0160009054906101000a900473ffffffffffffffffffffffffffffffffffffffff1673ffffffffffffffffffffffffffffffffffffffff16141561273757600091505b61274f565b8080612747906138b5565b9150506123b4565b509250925092565b6000808573ffffffffffffffffffffffffffffffffffffffff166323b872dd86868660405160240161278b9392919061310f565b6040516020818303038152906040529060e01b6020820180517bffffffffffffffffffffffffffffffffffffffffffffffffffffffff83818316178352505050506040516127d991906130a6565b6000604051808303816000865af19150503d8060008114612816576040519150601f19603f3d011682016040523d82523d6000602084013e61281b565b606091505b509150915081801561284957506000815114806128485750808060200190518101906128479190612b7e565b5b5b612888576040517f08c379a000000000000000000000000000000000000000000000000000000000815260040161287f9061342f565b60405180910390fd5b505050505050565b60008273ffffffffffffffffffffffffffffffffffffffff1682600067ffffffffffffffff8111156128eb577f4e487b7100000000000000000000000000000000000000000000000000000000600052604160045260246000fd5b6040519080825280601f01601f19166020018201604052801561291d5781602001600182028036833780820191505090505b5060405161292b91906130a6565b60006040518083038185875af1925050503d8060008114612968576040519150601f19603f3d011682016040523d82523d6000602084013e61296d565b606091505b50509050806129b1576040517f08c379a00000000000000000000000000000000000000000000000000000000081526004016129a8906133cf565b60405180910390fd5b505050565b6040518060400160405280600290602082028036833780820191505090505090565b8260028101928215612a44579160200282015b82811115612a435782518260006101000a81548173ffffffffffffffffffffffffffffffffffffffff021916908373ffffffffffffffffffffffffffffffffffffffff160217905550916020019190600101906129eb565b5b509050612a519190612a55565b5090565b5b80821115612a6e576000816000905550600101612a56565b5090565b600081359050612a8181613e58565b92915050565b600081359050612a9681613e6f565b92915050565b600081519050612aab81613e86565b92915050565b600081359050612ac081613e9d565b92915050565b600081519050612ad581613e9d565b92915050565b600081359050612aea81613eb4565b92915050565b600060208284031215612b0257600080fd5b6000612b1084828501612a72565b91505092915050565b600060208284031215612b2b57600080fd5b6000612b3984828501612a87565b91505092915050565b60008060408385031215612b5557600080fd5b6000612b6385828601612a72565b9250506020612b7485828601612ab1565b9150509250929050565b600060208284031215612b9057600080fd5b6000612b9e84828501612a9c565b91505092915050565b600060208284031215612bb957600080fd5b6000612bc784828501612ac6565b91505092915050565b600080600060608486031215612be557600080fd5b6000612bf386828701612ab1565b9350506020612c0486828701612a87565b9250506040612c1586828701612ab1565b9150509250925092565b60008060008060808587031215612c3557600080fd5b6000612c4387828801612ab1565b9450506020612c5487828801612ab1565b9350506040612c6587828801612a87565b9250506060612c7687828801612ab1565b91505092959194509250565b600060208284031215612c9457600080fd5b6000612ca284828501612adb565b91505092915050565b612cb48161384c565b82525050565b612cc3816137e5565b82525050565b6000612cd482613538565b612cde8185613543565b9350612cee818560208601613882565b80840191505092915050565b6000612d0760448361354e565b9150612d128261394a565b606082019050919050565b6000612d2a60148361354e565b9150612d35826139bf565b602082019050919050565b6000612d4d60148361354e565b9150612d58826139e8565b602082019050919050565b6000612d7060138361354e565b9150612d7b82613a11565b602082019050919050565b6000612d9360138361354e565b9150612d9e82613a3a565b602082019050919050565b6000612db660138361354e565b9150612dc182613a63565b602082019050919050565b6000612dd9600e8361354e565b9150612de482613a8c565b602082019050919050565b6000612dfc60258361354e565b9150612e0782613ab5565b604082019050919050565b6000612e1f60138361354e565b9150612e2a82613b04565b602082019050919050565b6000612e4260138361354e565b9150612e4d82613b2d565b602082019050919050565b6000612e65600d8361354e565b9150612e7082613b56565b602082019050919050565b6000612e8860218361354e565b9150612e9382613b7f565b604082019050919050565b6000612eab600e8361354e565b9150612eb682613bce565b602082019050919050565b6000612ece60138361354e565b9150612ed982613bf7565b602082019050919050565b6000612ef160138361354e565b9150612efc82613c20565b602082019050919050565b6000612f1460138361354e565b9150612f1f82613c49565b602082019050919050565b6000612f3760138361354e565b9150612f4282613c72565b602082019050919050565b6000612f5a60138361354e565b9150612f6582613c9b565b602082019050919050565b6000612f7d60138361354e565b9150612f8882613cc4565b602082019050919050565b6000612fa060238361354e565b9150612fab82613ced565b604082019050919050565b6000612fc360138361354e565b9150612fce82613d3c565b602082019050919050565b6000612fe660138361354e565b9150612ff182613d65565b602082019050919050565b600061300960248361354e565b915061301482613d8e565b604082019050919050565b600061302c60138361354e565b915061303782613ddd565b602082019050919050565b600061304f60138361354e565b915061305a82613e06565b602082019050919050565b600061307260138361354e565b915061307d82613e2f565b602082019050919050565b61309181613835565b82525050565b6130a08161383f565b82525050565b60006130b28284612cc9565b915081905092915050565b60006040820190506130d26000830185612cab565b6130df6020830184612cba565b9392505050565b60006040820190506130fb6000830185612cba565b6131086020830184612cba565b9392505050565b60006060820190506131246000830186612cba565b6131316020830185612cba565b61313e6040830184613088565b949350505050565b600060408201905061315b6000830185612cba565b6131686020830184613088565b9392505050565b6000602082019050818103600083015261318881612cfa565b9050919050565b600060208201905081810360008301526131a881612d1d565b9050919050565b600060208201905081810360008301526131c881612d40565b9050919050565b600060208201905081810360008301526131e881612d63565b9050919050565b6000602082019050818103600083015261320881612d86565b9050919050565b6000602082019050818103600083015261322881612da9565b9050919050565b6000602082019050818103600083015261324881612dcc565b9050919050565b6000602082019050818103600083015261326881612def565b9050919050565b6000602082019050818103600083015261328881612e12565b9050919050565b600060208201905081810360008301526132a881612e35565b9050919050565b600060208201905081810360008301526132c881612e58565b9050919050565b600060208201905081810360008301526132e881612e7b565b9050919050565b6000602082019050818103600083015261330881612e9e565b9050919050565b6000602082019050818103600083015261332881612ec1565b9050919050565b6000602082019050818103600083015261334881612ee4565b9050919050565b6000602082019050818103600083015261336881612f07565b9050919050565b6000602082019050818103600083015261338881612f2a565b9050919050565b600060208201905081810360008301526133a881612f4d565b9050919050565b600060208201905081810360008301526133c881612f70565b9050919050565b600060208201905081810360008301526133e881612f93565b9050919050565b6000602082019050818103600083015261340881612fb6565b9050919050565b6000602082019050818103600083015261342881612fd9565b9050919050565b6000602082019050818103600083015261344881612ffc565b9050919050565b600060208201905081810360008301526134688161301f565b9050919050565b6000602082019050818103600083015261348881613042565b9050919050565b600060208201905081810360008301526134a881613065565b9050919050565b60006020820190506134c46000830184613088565b92915050565b600060a0820190506134df6000830188613088565b6134ec6020830187613088565b6134f96040830186613088565b6135066060830185613088565b6135136080830184613088565b9695505050505050565b60006020820190506135326000830184613097565b92915050565b600081519050919050565b600081905092915050565b600082825260208201905092915050565b600061356a82613835565b915061357583613835565b9250827fffffffffffffffffffffffffffffffffffffffffffffffffffffffffffffffff038211156135aa576135a96138df565b5b828201905092915050565b60006135c082613835565b91506135cb83613835565b9250826135db576135da61390e565b5b828204905092915050565b6000808291508390505b60018511156136305780860481111561360c5761360b6138df565b5b600185161561361b5780820291505b80810290506136298561393d565b94506135f0565b94509492505050565b600061364482613835565b915061364f83613835565b925061367c7fffffffffffffffffffffffffffffffffffffffffffffffffffffffffffffffff8484613684565b905092915050565b6000826136945760019050613750565b816136a25760009050613750565b81600181146136b857600281146136c2576136f1565b6001915050613750565b60ff8411156136d4576136d36138df565b5b8360020a9150848211156136eb576136ea6138df565b5b50613750565b5060208310610133831016604e8410600b84101617156137265782820a905083811115613721576137206138df565b5b613750565b61373384848460016135e6565b9250905081840481111561374a576137496138df565b5b81810290505b9392505050565b600061376282613835565b915061376d83613835565b9250817fffffffffffffffffffffffffffffffffffffffffffffffffffffffffffffffff04831182151516156137a6576137a56138df565b5b828202905092915050565b60006137bc82613835565b91506137c783613835565b9250828210156137da576137d96138df565b5b828203905092915050565b60006137f082613815565b9050919050565b600061380282613815565b9050919050565b60008115159050919050565b600073ffffffffffffffffffffffffffffffffffffffff82169050919050565b6000819050919050565b600060ff82169050919050565b60006138578261385e565b9050919050565b600061386982613870565b9050919050565b600061387b82613815565b9050919050565b60005b838110156138a0578082015181840152602081019050613885565b838111156138af576000848401525b50505050565b60006138c08261383f565b915060ff8214156138d4576138d36138df565b5b600182019050919050565b7f4e487b7100000000000000000000000000000000000000000000000000000000600052601160045260246000fd5b7f4e487b7100000000000000000000000000000000000000000000000000000000600052601260045260246000fd5b60008160011c9050919050565b7f4f63784c6f63616c506f6f6c2e6164644c697175696469747928293a20496e7360008201527f756666696369656e7420616c6c6f77616e636520666f72207365636f6e64207460208201527f6f6b656e00000000000000000000000000000000000000000000000000000000604082015250565b7f7365744f6361744164647265737328293a202d32000000000000000000000000600082015250565b7f7365744f6361744164647265737328293a202d31000000000000000000000000600082015250565b7f73776170457468546f4f63617428293a202d3100000000000000000000000000600082015250565b7f737761704f636174546f45746828293a202d3100000000000000000000000000600082015250565b7f737761704f636174546f45746828293a202d3500000000000000000000000000600082015250565b7f496e76616c696420616d6f756e74000000000000000000000000000000000000600082015250565b7f496e76616c69642071756f7465286f7574206f662072616e67653a203938257e60008201527f3130322529000000000000000000000000000000000000000000000000000000602082015250565b7f737761704f636174546f45746828293a202d3800000000000000000000000000600082015250565b7f73776170457468546f4f63617428293a202d3700000000000000000000000000600082015250565b7f496e76616c696420746f6b656e00000000000000000000000000000000000000600082015250565b7f6164644c69717569646974795769746845544828293a204e6f20616c6c6f776560008201527f6400000000000000000000000000000000000000000000000000000000000000602082015250565b7f496e76616c69642073656e646572000000000000000000000000000000000000600082015250565b7f737761704f636174546f45746828293a202d3200000000000000000000000000600082015250565b7f73776170457468546f4f63617428293a202d3200000000000000000000000000600082015250565b7f73776170457468546f4f63617428293a202d3400000000000000000000000000600082015250565b7f737761704f636174546f45746828293a202d3600000000000000000000000000600082015250565b7f73776170457468546f4f63617428293a202d3500000000000000000000000000600082015250565b7f737761704f636174546f45746828293a202d3700000000000000000000000000600082015250565b7f5472616e7366657248656c7065723a204554485f5452414e534645525f46414960008201527f4c45440000000000000000000000000000000000000000000000000000000000602082015250565b7f737761704f636174546f45746828293a202d3400000000000000000000000000600082015250565b7f737761704f636174546f45746828293a202d3900000000000000000000000000600082015250565b7f5472616e7366657248656c7065723a205452414e534645525f46524f4d5f464160008201527f494c454400000000000000000000000000000000000000000000000000000000602082015250565b7f73776170457468546f4f63617428293a202d3300000000000000000000000000600082015250565b7f73776170457468546f4f63617428293a202d3600000000000000000000000000600082015250565b7f737761704f636174546f45746828293a202d3300000000000000000000000000600082015250565b613e61816137e5565b8114613e6c57600080fd5b50565b613e78816137f7565b8114613e8357600080fd5b50565b613e8f81613809565b8114613e9a57600080fd5b50565b613ea681613835565b8114613eb157600080fd5b50565b613ebd8161383f565b8114613ec857600080fd5b5056fea2646970667358221220bbd52c861c7097ab52c4909494514d8ab774ecf9a43dc6eafc1d549c1ea4825264736f6c63430008040033",
  "immutableReferences": {},
  "source": "// SPDX-License-Identifier: MIT\npragma solidity ^0.8.0;\n\nimport \"@openzeppelin/contracts/token/ERC20/IERC20.sol\"; // openzeppelin 4.5 (for solidity 0.8.x)\n// import \"@openzeppelin/contracts/utils/math/SafeMath.sol\";\nimport '@uniswap/lib/contracts/libraries/TransferHelper.sol';\n\n\ncontract OcxLocalPool {\n\n    uint256 private constant QUOTE_DECIMALS = 3; // Must be more than 3 at least\n\n    address payable private ocatAddress;\n\n    address payable private creator;\n\n    struct Pool {\n        address[2] tokens;\n        mapping(address => uint256) amounts;\n        uint256 k;\n        uint256 prevK;\n        address[2] quoteOrder;\n        uint256 prevQuote;\n        uint256 quoteOrig;\n        uint256 quote;\n    }\n\n    struct SharingPool {\n        uint8 index;\n        mapping(address => uint256) sharingAmounts;\n    }\n\n    struct SharingPools {\n        mapping(uint8 => SharingPool) pools;\n        uint8                         poolCount;\n    }\n\n    mapping(uint8 => Pool) public   poolList;\n    uint8 public                    poolCount;\n\n    // mapping(address => PoolShare) public shares;\n    mapping(address => SharingPools) public shares;\n\n    event AmountToRetrieve(uint256);\n    \n    receive() external payable {}\n\n    constructor() {\n        creator = payable(msg.sender);\n    }\n\n    /*\n     * Error Code\n     *  -1: Caller for  must be creator\n     *  -2: Invalid parameter\n     */\n    function setOcatAddress(address payable _ocatAddress) public {\n        require(creator == msg.sender, \"setOcatAddress(): -1\");\n        require(_ocatAddress != address(0), \"setOcatAddress(): -2\");\n        ocatAddress = _ocatAddress;\n    }\n\n    /*\n     * Error Code\n     *  -1: Invalid sender\n     *  -2: Invalid ETH amount\n     *  -3: No pool for ETH/OCAT\n     *  -4: No balance for OCAT in the pool\n     *  -5: Insufficient OCAT balance in the pool(1)\n     *  -6: Insufficient OCAT balance in the pool(2)\n     *  -7: Insufficient OCAT balance in the pool(3)\n     */\n    function swapEthToOcat(uint _amountOutMin, address payable to, uint _deadline) public payable {\n        require(to != address(0) && to != address(this), \"swapEthToOcat(): -1\");\n        require(msg.value > 0, \"swapEthToOcat(): -2\");\n        // Find the ETH/OCAT pool\n        (bool bFound, uint8 poolIndex, bool isInTurn) = _getPoolIndex(address(0), ocatAddress);\n        // Check if the pool exists\n        require(bFound, \"swapEthToOcat(): -3\");\n        // Get ETH balance in the pool\n        uint256 ethPoolBalance = poolList[poolIndex].amounts[address(0)];\n        uint256 ocatPoolBalance = poolList[poolIndex].amounts[ocatAddress];\n        // Ensure that OCAT balance is more than 0\n        require(ocatPoolBalance > 0, \"swapEthToOcat(): -4\");\n        // Ensure that OCAT balance >= _amountOutMin\n        require(ocatPoolBalance > _amountOutMin, \"swapEthToOcat(): -5\");\n        // Calculate the output amount of OCAT \n        uint256 newOcatPoolBalance = poolList[poolIndex].k / (ethPoolBalance + msg.value);\n        require(ocatPoolBalance > newOcatPoolBalance, \"swapEthToOcat(): -6\");\n        uint256 amountOut = ocatPoolBalance - newOcatPoolBalance;\n        require(amountOut >= _amountOutMin, \"swapEthToOcat(): -7\");\n\n        // Transfer OCAT to the sender\n        IERC20(ocatAddress).transfer(msg.sender, amountOut);\n\n        // Update the quote for the pool\n        poolList[poolIndex].amounts[address(0)] += msg.value;\n        poolList[poolIndex].amounts[ocatAddress] -= amountOut;\n        poolList[poolIndex].prevQuote = poolList[poolIndex].quote;\n\n        // (bool ret, uint256 newEthPoolBalance) = SafeMath.tryMul(\n        //     poolList[poolIndex].amounts[address(0)], \n        //     10 ** QUOTE_DECIMALS\n        // );\n        uint256 newEthPoolBalance = poolList[poolIndex].amounts[address(0)] * (10 ** QUOTE_DECIMALS);\n        // require(ret, \"new ETH balance in the pool is overflowed\");\n        poolList[poolIndex].quote = newEthPoolBalance / poolList[poolIndex].amounts[ocatAddress];\n    }\n\n    /*\n     * Error Code\n     *  -1: Invalid sender\n     *  -2: The sender must be different than this\n     *  -3: Invalid ETH amount\n     *  -4: No pool for ETH-OCAT\n     *  -5: No balance for ETH in the pool\n     *  -6: Insufficient ETH balance in the pool(1)\n     *  -7: Insufficient ETH balance in the pool(2)\n     *  -8: Insufficient ETH balance in the pool(3)\n     *  -9: Insufficient allowed amount for input token\n     */\n    function swapOcatToEth(\n            uint _amountIn, \n            uint _amountOutMin, \n            address payable to, \n            uint _deadline\n    ) public returns (uint256 amountOut) {\n        require(to != address(0), \"swapOcatToEth(): -1\");\n        require(to != address(this), \"swapOcatToEth(): -2\");\n        require(_amountIn > 0, \"swapOcatToEth(): -3\");\n        // Find the ETH/OCAT pool\n        (bool bFound, uint8 poolIndex, bool isInTurn) = _getPoolIndex(ocatAddress, address(0));\n        // Check if the pool exists\n        require(bFound, \"swapOcatToEth(): -4\");\n        // Get ETH balance in the pool\n        uint256 ethPoolBalance = poolList[poolIndex].amounts[address(0)];\n        uint256 ocatPoolBalance = poolList[poolIndex].amounts[ocatAddress];\n        // Ensure that OCAT balance is more than 0\n        require(ethPoolBalance > 0, \"swapOcatToEth(): -5\");\n        // Ensure that OCAT balance >= _amountOutMin\n        require(ethPoolBalance > _amountOutMin, \"swapOcatToEth(): -6\");\n        // Calculate the output amount of OCAT \n        uint256 newPoolEthBalance = (poolList[poolIndex].k / (ocatPoolBalance + _amountIn));\n        require(ethPoolBalance > newPoolEthBalance, \"swapOcatToEth(): -7\");\n        amountOut = ethPoolBalance - newPoolEthBalance;\n        require(amountOut >= _amountOutMin, \"swapOcatToEth(): -8\");\n        emit AmountToRetrieve(amountOut);\n        // Transfer OCAT from the sender\n        // First check allowance of OCAT amount from the sender\n        uint256 allowance = IERC20(ocatAddress).allowance(to, address(this));\n        require(allowance >= _amountIn, \"swapOcatToEth(): -9\");\n        // Transfer OCAT from the sender\n        TransferHelper.safeTransferFrom(ocatAddress, msg.sender, address(this), _amountIn);\n        // Transfer ETH to the sender\n        TransferHelper.safeTransferETH(msg.sender, amountOut);\n\n        emit AmountToRetrieve(amountOut);\n\n        // Update the quote for the pool\n        poolList[poolIndex].amounts[ocatAddress] += _amountIn;\n        poolList[poolIndex].amounts[address(0)] -= amountOut;\n        poolList[poolIndex].prevQuote = poolList[poolIndex].quote;\n\n        poolList[poolIndex].quote = \n            (poolList[poolIndex].amounts[poolList[poolIndex].quoteOrder[1]] * (10 ** QUOTE_DECIMALS)) / \n                poolList[poolIndex].amounts[poolList[poolIndex].quoteOrder[0]];\n    }\n\n    function _getPoolIndex(\n        address token0,\n        address token1\n     ) internal view returns (bool bFound, uint8 poolIndex, bool isInTurn)  {\n        bFound = false;\n        poolIndex = 0;\n        isInTurn = true;\n        for (uint8 i = 0; i < poolCount; i++) {\n            if ((poolList[i].tokens[0] == token0 && poolList[i].tokens[1] == token1) \n            || (poolList[i].tokens[1] == token0 && poolList[i].tokens[0] == token1)) {\n                bFound = true;\n                poolIndex = i;\n                if (poolList[i].tokens[1] == token0) {\n                    isInTurn = false;\n                }\n                break;\n            }\n        }\n    }\n\n    // function addLiquidity(\n    //     address[2] memory tokens, \n    //     uint256[2] memory amounts\n    // ) public {\n    //     require(msg.sender != address(0), \"Invalid sender\");\n    //     require(tokens[0] != address(0) && tokens[1] != address(0), \"Invalid tokens\");\n    //     require(tokens[0] != tokens[1], \"Same tokens\");\n    //     require(amounts[0] > 0 && amounts[1] > 0, \"Invalid amounts\");\n    //     // If the amount of OCAT is limited, then assert sender must be creator\n    //     // Otherwise OCAT is mintable with swapping from/to PNFT continuosly,\n    //     //   following assertion must be removed\n    //     require(creator == msg.sender);\n\n    //     // Get quote\n    //     // ...uint256((quote / poolList[poolIndex].quoteOrig) * 100)\n    //     // Transfer token A and B from msg.sender to this address\n\n    //     bool bExist = false;\n    //     bool isInTurn = true;\n    //     uint8 poolIndex = 0;\n    //     uint256 quoteMultiplier = 10 ** QUOTE_DECIMALS;\n\n    //     (bExist, poolIndex, isInTurn) = _getPoolIndex(tokens[0], tokens[1]);\n    //     if (!bExist) {\n    //         address[2] memory quoteOrder;\n    //         quoteOrder[0] = tokens[0];\n    //         quoteOrder[1] = tokens[1];\n\n    //         if (amounts[0] > amounts[1]) {\n    //             quoteOrder[0] = tokens[1];\n    //             quoteOrder[1] = tokens[0];\n    //         }\n    //         poolList[poolCount].tokens = tokens;\n    //         poolList[poolCount].amounts[tokens[0]] = amounts[0];\n    //         poolList[poolCount].amounts[tokens[1]] = amounts[1];\n    //         poolList[poolCount].k = amounts[0] * amounts[1];\n    //         poolList[poolCount].prevK = 0;\n    //         poolList[poolCount].quoteOrder = quoteOrder;\n    //         poolList[poolCount].quote = uint256(\n    //             (poolList[poolCount].amounts[quoteOrder[1]] * quoteMultiplier) / \n    //             poolList[poolCount].amounts[quoteOrder[0]]\n    //         );\n    //         poolList[poolCount].quoteOrig = poolList[poolCount].quote;\n    //         poolList[poolCount].prevQuote = 0;\n\n    //         poolCount++;\n\n    //     } else {\n    //         // If order for token in parameter in against pool is revered, swap\n    //         if (!isInTurn) {\n    //             address tmpToken = tokens[0];\n    //             tokens[0] = tokens[1];\n    //             tokens[1] = tmpToken;\n    //             uint256 tmpAmount = amounts[0];\n    //             amounts[0] = amounts[1];\n    //             amounts[1] = tmpAmount;\n    //         }\n    //         // Check quote\n    //         uint256 newQuote = uint256(\n    //             (amounts[1] * quoteMultiplier) / \n    //             amounts[0]\n    //         );\n    //         uint256 quoteRate = uint256(\n    //                                 (newQuote * quoteMultiplier) / \n    //                                 poolList[poolIndex].quoteOrig\n    //                             );\n    //         // Check if new quote >= 98% and <= 102%\n    //         require(\n    //             quoteRate > 98 * (10 ** (QUOTE_DECIMALS - 2)) && \n    //                 quoteRate < 102 * (10 ** (QUOTE_DECIMALS - 2)), \n    //             \"Invalid quote(out of range: 98%~102%)\"\n    //         );\n    //         // Update pool\n    //         poolList[poolIndex].amounts[tokens[0]] += amounts[0];\n    //         poolList[poolIndex].amounts[tokens[1]] += amounts[1];\n    //         poolList[poolIndex].prevK = poolList[poolIndex].k;\n    //         poolList[poolIndex].k = poolList[poolIndex].amounts[tokens[0]] * \n    //             poolList[poolIndex].amounts[tokens[1]];\n    //         poolList[poolIndex].prevQuote = poolList[poolIndex].quote;\n    //         poolList[poolIndex].quote = newQuote;\n    //     }\n    //     // Update pool share\n    //     bExist = false;\n    //     for (uint8 i = 0; i < shares[msg.sender].poolCount; i++) {\n    //         if (poolIndex == shares[msg.sender].pools[i].index) {\n    //             shares[msg.sender].pools[i].sharingAmounts[tokens[0]] += amounts[0];\n    //             shares[msg.sender].pools[i].sharingAmounts[tokens[1]] += amounts[1];\n    //             bExist = true;\n    //             break;\n    //         }\n    //     }\n    //     if (!bExist) {\n    //         shares[msg.sender].pools[0].index = poolIndex;\n    //         shares[msg.sender].pools[0].sharingAmounts[tokens[0]] = amounts[0];\n    //         shares[msg.sender].pools[0].sharingAmounts[tokens[1]] = amounts[1];\n    //         shares[msg.sender].poolCount++;\n    //     }\n\n    //     // Transfer amounts for both tokens from the sender\n    //     uint256 allowance = IERC20(tokens[0]).allowance(msg.sender, address(this));\n    //     require(allowance >= amounts[0], \"OcxLocalPool.addLiquidity(): Insufficient allowance for first token\");\n    //     allowance = IERC20(tokens[1]).allowance(msg.sender, address(this));\n    //     require(allowance >= amounts[1], \"OcxLocalPool.addLiquidity(): Insufficient allowance for second token\");\n    //     TransferHelper.safeTransferFrom(tokens[0], msg.sender, address(this), amounts[0]);\n    //     TransferHelper.safeTransferFrom(tokens[1], msg.sender, address(this), amounts[1]);\n\n    //     // Mint LP token to return\n    //     // ...\n    // }\n\n    function addLiquidityWithETH(\n        address token, \n        uint256 amount\n    ) public payable {\n        require(msg.sender != address(0), \"Invalid sender\");\n        require(token != address(0), \"Invalid token\");\n        require(amount > 0, \"Invalid amount\");\n        // If the amount of OCAT is limited, then assert sender must be creator\n        // Otherwise OCAT is mintable with swapping from/to PNFT continuosly,\n        //   following assertion must be removed\n        require(creator == msg.sender, \"addLiquidityWithETH(): No allowed\");\n\n        // Get quote\n        // ...uint256((quote / poolList[poolIndex].quoteOrig) * 100)\n        // Transfer token A and B from msg.sender to this address\n\n        bool bExist = false;\n        bool isInTurn = true;\n        uint8 poolIndex = 0;\n        uint256 quoteMultiplier = 10 ** QUOTE_DECIMALS;\n\n        (bExist, poolIndex, isInTurn) = _getPoolIndex(address(0), token);\n        if (!bExist) {\n            address[2] memory quoteOrder;\n            quoteOrder[0] = address(0);\n            quoteOrder[1] = token;\n\n            if (msg.value > amount) {\n                quoteOrder[0] = token;\n                quoteOrder[1] = address(0);\n            }\n            poolList[poolCount].tokens = [address(0), token];\n            poolList[poolCount].amounts[address(0)] = msg.value;\n            poolList[poolCount].amounts[token] = amount;\n            poolList[poolCount].k = msg.value * amount;\n            poolList[poolCount].prevK = 0;\n            poolList[poolCount].quoteOrder = quoteOrder;\n            poolList[poolCount].quote = uint256(\n                (poolList[poolCount].amounts[quoteOrder[1]] * quoteMultiplier) / \n                poolList[poolCount].amounts[quoteOrder[0]]\n            );\n            poolList[poolCount].quoteOrig = poolList[poolCount].quote;\n            poolList[poolCount].prevQuote = 0;\n\n            poolCount++;\n\n        } else {\n            // Check quote\n            uint256 newQuote = uint256(\n                (amount * quoteMultiplier) / \n                msg.value\n            );\n            uint256 quoteRate = uint256(\n                                    (newQuote * quoteMultiplier) / \n                                    poolList[poolIndex].quoteOrig\n                                );\n            // Check if new quote >= 98% and <= 102%\n            require(\n                quoteRate > 98 * (10 ** (QUOTE_DECIMALS - 2)) && \n                    quoteRate < 102 * (10 ** (QUOTE_DECIMALS - 2)), \n                \"Invalid quote(out of range: 98%~102%)\"\n            );\n            // Update pool\n            poolList[poolIndex].amounts[address(0)] += msg.value;\n            poolList[poolIndex].amounts[token] += amount;\n            poolList[poolIndex].prevK = poolList[poolIndex].k;\n            poolList[poolIndex].k = poolList[poolIndex].amounts[address(0)] * \n                poolList[poolIndex].amounts[token];\n            poolList[poolIndex].prevQuote = poolList[poolIndex].quote;\n            poolList[poolIndex].quote = newQuote;\n        }\n        // Update pool share\n        bExist = false;\n        for (uint8 i = 0; i < shares[msg.sender].poolCount; i++) {\n            if (poolIndex == shares[msg.sender].pools[i].index) {\n                shares[msg.sender].pools[i].sharingAmounts[address(0)] += msg.value;\n                shares[msg.sender].pools[i].sharingAmounts[token] += amount;\n                bExist = true;\n                break;\n            }\n        }\n        if (!bExist) {\n            shares[msg.sender].pools[0].index = poolIndex;\n            shares[msg.sender].pools[0].sharingAmounts[address(0)] = msg.value;\n            shares[msg.sender].pools[0].sharingAmounts[token] = amount;\n            shares[msg.sender].poolCount++;\n        }\n\n        // Transfer amounts for both tokens from the sender\n        uint256 allowance = IERC20(token).allowance(msg.sender, address(this));\n        require(allowance >= amount, \"OcxLocalPool.addLiquidity(): Insufficient allowance for second token\");\n        TransferHelper.safeTransferFrom(token, msg.sender, address(this), amount);\n\n        // Mint LP token to return\n        // ...\n    }\n}\n",
  "sourcePath": "/home/cowboy/OpenchainTestVersion/server/contracts/OcxLocalPool.sol",
  "compiler": {
    "name": "solc",
    "version": "0.8.4+commit.c7e474f2.Emscripten.clang"
  },
  "schemaVersion": "3.4.6",
  "updatedAt": "2022-04-01T18:51:00.047Z",
  "networkType": "ethereum",
  "devdoc": {
    "kind": "dev",
    "methods": {},
    "version": 1
  },
  "userdoc": {
    "kind": "user",
    "methods": {},
    "version": 1
  }
}