{
  "contractName": "OcxLocalPool",
  "abi": [
    {
      "inputs": [],
      "stateMutability": "nonpayable",
      "type": "constructor"
    },
    {
      "inputs": [
        {
          "internalType": "address",
          "name": "",
          "type": "address"
        },
        {
          "internalType": "uint256",
          "name": "",
          "type": "uint256"
        }
      ],
      "name": "poolShare",
      "outputs": [
        {
          "internalType": "uint8",
          "name": "poolIndex",
          "type": "uint8"
        }
      ],
      "stateMutability": "view",
      "type": "function",
      "constant": true
    },
    {
      "stateMutability": "payable",
      "type": "receive",
      "payable": true
    },
    {
      "inputs": [
        {
          "internalType": "address payable",
          "name": "_ocatAddress",
          "type": "address"
        }
      ],
      "name": "setOcatAddress",
      "outputs": [],
      "stateMutability": "nonpayable",
      "type": "function"
    },
    {
      "inputs": [
        {
          "internalType": "uint256",
          "name": "_amountOutMin",
          "type": "uint256"
        },
        {
          "internalType": "address payable",
          "name": "to",
          "type": "address"
        },
        {
          "internalType": "uint256",
          "name": "_deadline",
          "type": "uint256"
        }
      ],
      "name": "swapEthToOcat",
      "outputs": [],
      "stateMutability": "payable",
      "type": "function",
      "payable": true
    },
    {
      "inputs": [
        {
          "internalType": "uint256",
          "name": "_amountIn",
          "type": "uint256"
        },
        {
          "internalType": "uint256",
          "name": "_amountOutMin",
          "type": "uint256"
        },
        {
          "internalType": "address payable",
          "name": "to",
          "type": "address"
        },
        {
          "internalType": "uint256",
          "name": "_deadline",
          "type": "uint256"
        }
      ],
      "name": "swapOcatToEth",
      "outputs": [],
      "stateMutability": "nonpayable",
      "type": "function"
    },
    {
      "inputs": [
        {
          "internalType": "address[2]",
          "name": "tokens",
          "type": "address[2]"
        },
        {
          "internalType": "uint256[2]",
          "name": "amounts",
          "type": "uint256[2]"
        }
      ],
      "name": "addLiquidity",
      "outputs": [],
      "stateMutability": "nonpayable",
      "type": "function"
    }
  ],
  "bytecode": "0x608060405234801561001057600080fd5b5033600160006101000a81548173ffffffffffffffffffffffffffffffffffffffff021916908373ffffffffffffffffffffffffffffffffffffffff160217905550613b2e806100616000396000f3fe60806040526004361061004e5760003560e01c80638287435f1461005a5780639d26bc1a14610083578063aebf1ffc146100ac578063b18d30a2146100c8578063f3b8fd55146100f157610055565b3661005557005b600080fd5b34801561006657600080fd5b50610081600480360381019061007c9190612cad565b61012e565b005b34801561008f57600080fd5b506100aa60048036038101906100a59190612d38565b611974565b005b6100c660048036038101906100c19190612ce9565b61197a565b005b3480156100d457600080fd5b506100ef60048036038101906100ea9190612c48565b612353565b005b3480156100fd57600080fd5b5061011860048036038101906101139190612c71565b612496565b60405161012591906131da565b60405180910390f35b600073ffffffffffffffffffffffffffffffffffffffff163373ffffffffffffffffffffffffffffffffffffffff16141561019e576040517f08c379a00000000000000000000000000000000000000000000000000000000081526004016101959061313a565b60405180910390fd5b600073ffffffffffffffffffffffffffffffffffffffff16826000600281106101f0577f4e487b7100000000000000000000000000000000000000000000000000000000600052603260045260246000fd5b602002015173ffffffffffffffffffffffffffffffffffffffff16141580156102845750600073ffffffffffffffffffffffffffffffffffffffff1682600160028110610266577f4e487b7100000000000000000000000000000000000000000000000000000000600052603260045260246000fd5b602002015173ffffffffffffffffffffffffffffffffffffffff1614155b6102c3576040517f08c379a00000000000000000000000000000000000000000000000000000000081526004016102ba9061303a565b60405180910390fd5b816001600281106102fd577f4e487b7100000000000000000000000000000000000000000000000000000000600052603260045260246000fd5b602002015173ffffffffffffffffffffffffffffffffffffffff1682600060028110610352577f4e487b7100000000000000000000000000000000000000000000000000000000600052603260045260246000fd5b602002015173ffffffffffffffffffffffffffffffffffffffff1614156103ae576040517f08c379a00000000000000000000000000000000000000000000000000000000081526004016103a590612ffa565b60405180910390fd5b6000816000600281106103ea577f4e487b7100000000000000000000000000000000000000000000000000000000600052603260045260246000fd5b602002015111801561043a5750600081600160028110610433577f4e487b7100000000000000000000000000000000000000000000000000000000600052603260045260246000fd5b6020020151115b610479576040517f08c379a00000000000000000000000000000000000000000000000000000000081526004016104709061305a565b60405180910390fd5b3373ffffffffffffffffffffffffffffffffffffffff16600160009054906101000a900473ffffffffffffffffffffffffffffffffffffffff1673ffffffffffffffffffffffffffffffffffffffff16146104d357600080fd5b600080600190506000806006600a6104eb9190613351565b90506105738660006002811061052a577f4e487b7100000000000000000000000000000000000000000000000000000000600052603260045260246000fd5b602002015187600160028110610569577f4e487b7100000000000000000000000000000000000000000000000000000000600052603260045260246000fd5b60200201516124de565b809550819450829650505050836109dd5760006040518060400160405280600060ff168152602001600160ff168152509050856001600281106105df577f4e487b7100000000000000000000000000000000000000000000000000000000600052603260045260246000fd5b60200201518660006002811061061e577f4e487b7100000000000000000000000000000000000000000000000000000000600052603260045260246000fd5b60200201511015610649576040518060400160405280600160ff168152602001600060ff1681525090505b60026040518061010001604052808981526020018881526020018860016002811061069d577f4e487b7100000000000000000000000000000000000000000000000000000000600052603260045260246000fd5b6020020151896000600281106106dc577f4e487b7100000000000000000000000000000000000000000000000000000000600052603260045260246000fd5b60200201516106eb919061346f565b81526020016000815260200183815260200160008152602001888460016002811061073f577f4e487b7100000000000000000000000000000000000000000000000000000000600052603260045260246000fd5b602002015160ff166002811061077e577f4e487b7100000000000000000000000000000000000000000000000000000000600052603260045260246000fd5b6020020151858a866000600281106107bf577f4e487b7100000000000000000000000000000000000000000000000000000000600052603260045260246000fd5b602002015160ff16600281106107fe577f4e487b7100000000000000000000000000000000000000000000000000000000600052603260045260246000fd5b602002015161080d919061346f565b61081791906132cd565b81526020018884600160028110610857577f4e487b7100000000000000000000000000000000000000000000000000000000600052603260045260246000fd5b602002015160ff1660028110610896577f4e487b7100000000000000000000000000000000000000000000000000000000600052603260045260246000fd5b6020020151858a866000600281106108d7577f4e487b7100000000000000000000000000000000000000000000000000000000600052603260045260246000fd5b602002015160ff1660028110610916577f4e487b7100000000000000000000000000000000000000000000000000000000600052603260045260246000fd5b6020020151610925919061346f565b61092f91906132cd565b81525090806001815401808255809150506001900390600052602060002090600a0201600090919091909150600082015181600001906002610972929190612981565b5060208201518160020190600261098a9291906129fe565b5060408201518160040155606082015181600501556080820151816006019060026109b6929190612a3e565b5060a0820151816007015560c0820151816008015560e0820151816009015550505061156c565b82610c5357600086600060028110610a1e577f4e487b7100000000000000000000000000000000000000000000000000000000600052603260045260246000fd5b6020020151905086600160028110610a5f577f4e487b7100000000000000000000000000000000000000000000000000000000600052603260045260246000fd5b602002015187600060028110610a9e577f4e487b7100000000000000000000000000000000000000000000000000000000600052603260045260246000fd5b602002019073ffffffffffffffffffffffffffffffffffffffff16908173ffffffffffffffffffffffffffffffffffffffff16815250508087600160028110610b10577f4e487b7100000000000000000000000000000000000000000000000000000000600052603260045260246000fd5b602002019073ffffffffffffffffffffffffffffffffffffffff16908173ffffffffffffffffffffffffffffffffffffffff1681525050600086600060028110610b83577f4e487b7100000000000000000000000000000000000000000000000000000000600052603260045260246000fd5b6020020151905086600160028110610bc4577f4e487b7100000000000000000000000000000000000000000000000000000000600052603260045260246000fd5b602002015187600060028110610c03577f4e487b7100000000000000000000000000000000000000000000000000000000600052603260045260246000fd5b6020020181815250508087600160028110610c47577f4e487b7100000000000000000000000000000000000000000000000000000000600052603260045260246000fd5b60200201818152505050505b60008560028460ff1681548110610c93577f4e487b7100000000000000000000000000000000000000000000000000000000600052603260045260246000fd5b90600052602060002090600a0201600601600160028110610cdd577f4e487b7100000000000000000000000000000000000000000000000000000000600052603260045260246000fd5b602091828204019190069054906101000a900460ff1660ff1660028110610d2d577f4e487b7100000000000000000000000000000000000000000000000000000000600052603260045260246000fd5b6020020151828760028660ff1681548110610d71577f4e487b7100000000000000000000000000000000000000000000000000000000600052603260045260246000fd5b90600052602060002090600a0201600601600060028110610dbb577f4e487b7100000000000000000000000000000000000000000000000000000000600052603260045260246000fd5b602091828204019190069054906101000a900460ff1660ff1660028110610e0b577f4e487b7100000000000000000000000000000000000000000000000000000000600052603260045260246000fd5b6020020151610e1a919061346f565b610e2491906132cd565b9050600060028460ff1681548110610e65577f4e487b7100000000000000000000000000000000000000000000000000000000600052603260045260246000fd5b90600052602060002090600a0201600801548383610e83919061346f565b610e8d91906132cd565b905060036006610e9d91906134c9565b600a610ea99190613351565b6103d4610eb6919061346f565b81118015610ee9575060036006610ecd91906134c9565b600a610ed99190613351565b6103fc610ee6919061346f565b81105b610f28576040517f08c379a0000000000000000000000000000000000000000000000000000000008152600401610f1f906130ba565b60405180910390fd5b600060028560ff1681548110610f67577f4e487b7100000000000000000000000000000000000000000000000000000000600052603260045260246000fd5b90600052602060002090600a02016040518061010001604052908160008201600280602002604051908101604052809291908260028015610ff3576020028201915b8160009054906101000a900473ffffffffffffffffffffffffffffffffffffffff1673ffffffffffffffffffffffffffffffffffffffff1681526020019060010190808311610fa9575b5050505050815260200160028201600280602002604051908101604052809291908260028015611038576020028201915b815481526020019060010190808311611024575b505050505081526020016004820154815260200160058201548152602001600682016002806020026040519081016040528092919082600280156110b7576020028201916000905b82829054906101000a900460ff1660ff16815260200190600101906020826000010492830192600103820291508084116110805790505b50505050508152602001600782015481526020016008820154815260200160098201548152505090508760006002811061111a577f4e487b7100000000000000000000000000000000000000000000000000000000600052603260045260246000fd5b6020020151816020015160006002811061115d577f4e487b7100000000000000000000000000000000000000000000000000000000600052603260045260246000fd5b6020020181815161116e9190613277565b91508181525050876001600281106111af577f4e487b7100000000000000000000000000000000000000000000000000000000600052603260045260246000fd5b602002015181602001516001600281106111f2577f4e487b7100000000000000000000000000000000000000000000000000000000600052603260045260246000fd5b602002018181516112039190613277565b9150818152505080604001518160600181815250508060200151600160028110611256577f4e487b7100000000000000000000000000000000000000000000000000000000600052603260045260246000fd5b60200201518160200151600060028110611299577f4e487b7100000000000000000000000000000000000000000000000000000000600052603260045260246000fd5b60200201516112a8919061346f565b8160400181815250508060e001518160a0018181525050806020015160028660ff1681548110611301577f4e487b7100000000000000000000000000000000000000000000000000000000600052603260045260246000fd5b90600052602060002090600a020160060160016002811061134b577f4e487b7100000000000000000000000000000000000000000000000000000000600052603260045260246000fd5b602091828204019190069054906101000a900460ff1660ff166002811061139b577f4e487b7100000000000000000000000000000000000000000000000000000000600052603260045260246000fd5b602002015184826020015160028860ff16815481106113e3577f4e487b7100000000000000000000000000000000000000000000000000000000600052603260045260246000fd5b90600052602060002090600a020160060160006002811061142d577f4e487b7100000000000000000000000000000000000000000000000000000000600052603260045260246000fd5b602091828204019190069054906101000a900460ff1660ff166002811061147d577f4e487b7100000000000000000000000000000000000000000000000000000000600052603260045260246000fd5b602002015161148c919061346f565b61149691906132cd565b8160e00181815250508060028660ff16815481106114dd577f4e487b7100000000000000000000000000000000000000000000000000000000600052603260045260246000fd5b90600052602060002090600a0201600082015181600001906002611502929190612981565b5060208201518160020190600261151a9291906129fe565b506040820151816004015560608201518160050155608082015181600601906002611546929190612a3e565b5060a0820151816007015560c0820151816008015560e082015181600901559050505050505b6000935060005b600360003373ffffffffffffffffffffffffffffffffffffffff1673ffffffffffffffffffffffffffffffffffffffff168152602001908152602001600020805490508110156118aa57600360003373ffffffffffffffffffffffffffffffffffffffff1673ffffffffffffffffffffffffffffffffffffffff1681526020019081526020016000208181548110611634577f4e487b7100000000000000000000000000000000000000000000000000000000600052603260045260246000fd5b906000526020600020906003020160000160009054906101000a900460ff1660ff168360ff161415611897578560006002811061169a577f4e487b7100000000000000000000000000000000000000000000000000000000600052603260045260246000fd5b6020020151600360003373ffffffffffffffffffffffffffffffffffffffff1673ffffffffffffffffffffffffffffffffffffffff1681526020019081526020016000208281548110611716577f4e487b7100000000000000000000000000000000000000000000000000000000600052603260045260246000fd5b9060005260206000209060030201600101600060028110611760577f4e487b7100000000000000000000000000000000000000000000000000000000600052603260045260246000fd5b0160008282546117709190613277565b92505081905550856001600281106117b1577f4e487b7100000000000000000000000000000000000000000000000000000000600052603260045260246000fd5b6020020151600360003373ffffffffffffffffffffffffffffffffffffffff1673ffffffffffffffffffffffffffffffffffffffff168152602001908152602001600020828154811061182d577f4e487b7100000000000000000000000000000000000000000000000000000000600052603260045260246000fd5b9060005260206000209060030201600101600160028110611877577f4e487b7100000000000000000000000000000000000000000000000000000000600052603260045260246000fd5b0160008282546118879190613277565b92505081905550600194506118aa565b80806118a290613589565b915050611573565b508361196c57600360003373ffffffffffffffffffffffffffffffffffffffff1673ffffffffffffffffffffffffffffffffffffffff16815260200190815260200160002060405180604001604052808460ff16815260200187815250908060018154018082558091505060019003906000526020600020906003020160009091909190915060008201518160000160006101000a81548160ff021916908360ff1602179055506020820151816001019060026119689291906129fe565b5050505b505050505050565b50505050565b600073ffffffffffffffffffffffffffffffffffffffff168273ffffffffffffffffffffffffffffffffffffffff1614156119ea576040517f08c379a00000000000000000000000000000000000000000000000000000000081526004016119e19061301a565b60405180910390fd5b3073ffffffffffffffffffffffffffffffffffffffff168273ffffffffffffffffffffffffffffffffffffffff161415611a59576040517f08c379a0000000000000000000000000000000000000000000000000000000008152600401611a509061317a565b60405180910390fd5b60003411611a9c576040517f08c379a0000000000000000000000000000000000000000000000000000000008152600401611a939061319a565b60405180910390fd5b6000806000611adf73b4fbf271143f4fbf7b91a5ded31805e42b2208d660008054906101000a900473ffffffffffffffffffffffffffffffffffffffff166124de565b92509250925082611b25576040517f08c379a0000000000000000000000000000000000000000000000000000000008152600401611b1c90612fda565b60405180910390fd5b600060028360ff1681548110611b64577f4e487b7100000000000000000000000000000000000000000000000000000000600052603260045260246000fd5b90600052602060002090600a020160020182611b81576001611b84565b60005b60ff1660028110611bbe577f4e487b7100000000000000000000000000000000000000000000000000000000600052603260045260246000fd5b01549050600060028460ff1681548110611c01577f4e487b7100000000000000000000000000000000000000000000000000000000600052603260045260246000fd5b90600052602060002090600a02016002018315611c1f576001611c22565b60005b60ff1660028110611c5c577f4e487b7100000000000000000000000000000000000000000000000000000000600052603260045260246000fd5b0154905060008111611ca3576040517f08c379a0000000000000000000000000000000000000000000000000000000008152600401611c9a906130da565b60405180910390fd5b878111611ce5576040517f08c379a0000000000000000000000000000000000000000000000000000000008152600401611cdc9061311a565b60405180910390fd5b3482611cf19190613277565b60028560ff1681548110611d2e577f4e487b7100000000000000000000000000000000000000000000000000000000600052603260045260246000fd5b90600052602060002090600a020160040154611d4a91906132cd565b811015611d8c576040517f08c379a0000000000000000000000000000000000000000000000000000000008152600401611d83906130fa565b60405180910390fd5b60003483611d9a9190613277565b60028660ff1681548110611dd7577f4e487b7100000000000000000000000000000000000000000000000000000000600052603260045260246000fd5b90600052602060002090600a020160040154611df391906132cd565b82611dfe91906134c9565b905060008111611e43576040517f08c379a0000000000000000000000000000000000000000000000000000000008152600401611e3a9061315a565b60405180910390fd5b88811015611e86576040517f08c379a0000000000000000000000000000000000000000000000000000000008152600401611e7d9061307a565b60405180910390fd5b3460028660ff1681548110611ec4577f4e487b7100000000000000000000000000000000000000000000000000000000600052603260045260246000fd5b90600052602060002090600a020160020185611ee1576001611ee4565b60005b60ff1660028110611f1e577f4e487b7100000000000000000000000000000000000000000000000000000000600052603260045260246000fd5b016000828254611f2e9190613277565b925050819055508060028660ff1681548110611f73577f4e487b7100000000000000000000000000000000000000000000000000000000600052603260045260246000fd5b90600052602060002090600a02016002018515611f91576001611f94565b60005b60ff1660028110611fce577f4e487b7100000000000000000000000000000000000000000000000000000000600052603260045260246000fd5b016000828254611fde91906134c9565b9250508190555060028560ff1681548110612022577f4e487b7100000000000000000000000000000000000000000000000000000000600052603260045260246000fd5b90600052602060002090600a02016009015460028660ff1681548110612071577f4e487b7100000000000000000000000000000000000000000000000000000000600052603260045260246000fd5b90600052602060002090600a02016007018190555060028560ff16815481106120c3577f4e487b7100000000000000000000000000000000000000000000000000000000600052603260045260246000fd5b90600052602060002090600a020160020160028660ff1681548110612111577f4e487b7100000000000000000000000000000000000000000000000000000000600052603260045260246000fd5b90600052602060002090600a020160060160016002811061215b577f4e487b7100000000000000000000000000000000000000000000000000000000600052603260045260246000fd5b602091828204019190069054906101000a900460ff1660ff16600281106121ab577f4e487b7100000000000000000000000000000000000000000000000000000000600052603260045260246000fd5b01546006600a6121bb9190613351565b60028760ff16815481106121f8577f4e487b7100000000000000000000000000000000000000000000000000000000600052603260045260246000fd5b90600052602060002090600a020160020160028860ff1681548110612246577f4e487b7100000000000000000000000000000000000000000000000000000000600052603260045260246000fd5b90600052602060002090600a0201600601600060028110612290577f4e487b7100000000000000000000000000000000000000000000000000000000600052603260045260246000fd5b602091828204019190069054906101000a900460ff1660ff16600281106122e0577f4e487b7100000000000000000000000000000000000000000000000000000000600052603260045260246000fd5b01546122ec919061346f565b6122f691906132cd565b60028660ff1681548110612333577f4e487b7100000000000000000000000000000000000000000000000000000000600052603260045260246000fd5b90600052602060002090600a020160090181905550505050505050505050565b3373ffffffffffffffffffffffffffffffffffffffff16600160009054906101000a900473ffffffffffffffffffffffffffffffffffffffff1673ffffffffffffffffffffffffffffffffffffffff16146123e3576040517f08c379a00000000000000000000000000000000000000000000000000000000081526004016123da906131ba565b60405180910390fd5b600073ffffffffffffffffffffffffffffffffffffffff168173ffffffffffffffffffffffffffffffffffffffff161415612453576040517f08c379a000000000000000000000000000000000000000000000000000000000815260040161244a9061309a565b60405180910390fd5b806000806101000a81548173ffffffffffffffffffffffffffffffffffffffff021916908373ffffffffffffffffffffffffffffffffffffffff16021790555050565b600360205281600052604060002081815481106124b257600080fd5b9060005260206000209060030201600091509150508060000160009054906101000a900460ff16905081565b6000806000809250600091506001905060005b6002805490508160ff161015612979578573ffffffffffffffffffffffffffffffffffffffff1660028260ff1681548110612555577f4e487b7100000000000000000000000000000000000000000000000000000000600052603260045260246000fd5b90600052602060002090600a020160000160006002811061259f577f4e487b7100000000000000000000000000000000000000000000000000000000600052603260045260246000fd5b0160009054906101000a900473ffffffffffffffffffffffffffffffffffffffff1673ffffffffffffffffffffffffffffffffffffffff161480156126b757508473ffffffffffffffffffffffffffffffffffffffff1660028260ff1681548110612633577f4e487b7100000000000000000000000000000000000000000000000000000000600052603260045260246000fd5b90600052602060002090600a020160000160016002811061267d577f4e487b7100000000000000000000000000000000000000000000000000000000600052603260045260246000fd5b0160009054906101000a900473ffffffffffffffffffffffffffffffffffffffff1673ffffffffffffffffffffffffffffffffffffffff16145b8061287457508573ffffffffffffffffffffffffffffffffffffffff1660028260ff1681548110612711577f4e487b7100000000000000000000000000000000000000000000000000000000600052603260045260246000fd5b90600052602060002090600a020160000160016002811061275b577f4e487b7100000000000000000000000000000000000000000000000000000000600052603260045260246000fd5b0160009054906101000a900473ffffffffffffffffffffffffffffffffffffffff1673ffffffffffffffffffffffffffffffffffffffff1614801561287357508473ffffffffffffffffffffffffffffffffffffffff1660028260ff16815481106127ef577f4e487b7100000000000000000000000000000000000000000000000000000000600052603260045260246000fd5b90600052602060002090600a0201600001600060028110612839577f4e487b7100000000000000000000000000000000000000000000000000000000600052603260045260246000fd5b0160009054906101000a900473ffffffffffffffffffffffffffffffffffffffff1673ffffffffffffffffffffffffffffffffffffffff16145b5b1561296657600193508092508573ffffffffffffffffffffffffffffffffffffffff1660028260ff16815481106128d4577f4e487b7100000000000000000000000000000000000000000000000000000000600052603260045260246000fd5b90600052602060002090600a020160000160016002811061291e577f4e487b7100000000000000000000000000000000000000000000000000000000600052603260045260246000fd5b0160009054906101000a900473ffffffffffffffffffffffffffffffffffffffff1673ffffffffffffffffffffffffffffffffffffffff16141561296157600091505b612979565b8080612971906135d2565b9150506124f1565b509250925092565b82600281019282156129ed579160200282015b828111156129ec5782518260006101000a81548173ffffffffffffffffffffffffffffffffffffffff021916908373ffffffffffffffffffffffffffffffffffffffff16021790555091602001919060010190612994565b5b5090506129fa9190612ad8565b5090565b8260028101928215612a2d579160200282015b82811115612a2c578251825591602001919060010190612a11565b5b509050612a3a9190612ad8565b5090565b826002601f01602090048101928215612ac75791602002820160005b83821115612a9857835183826101000a81548160ff021916908360ff1602179055509260200192600101602081600001049283019260010302612a5a565b8015612ac55782816101000a81549060ff0219169055600101602081600001049283019260010302612a98565b505b509050612ad49190612ad8565b5090565b5b80821115612af1576000816000905550600101612ad9565b5090565b6000612b08612b038461321a565b6131f5565b90508082856020860282011115612b1e57600080fd5b60005b85811015612b4e5781612b348882612bbb565b845260208401935060208301925050600181019050612b21565b5050509392505050565b6000612b6b612b6684613240565b6131f5565b90508082856020860282011115612b8157600080fd5b60005b85811015612bb15781612b978882612c33565b845260208401935060208301925050600181019050612b84565b5050509392505050565b600081359050612bca81613ab3565b92915050565b600081359050612bdf81613aca565b92915050565b600082601f830112612bf657600080fd5b6002612c03848285612af5565b91505092915050565b600082601f830112612c1d57600080fd5b6002612c2a848285612b58565b91505092915050565b600081359050612c4281613ae1565b92915050565b600060208284031215612c5a57600080fd5b6000612c6884828501612bd0565b91505092915050565b60008060408385031215612c8457600080fd5b6000612c9285828601612bbb565b9250506020612ca385828601612c33565b9150509250929050565b60008060808385031215612cc057600080fd5b6000612cce85828601612be5565b9250506040612cdf85828601612c0c565b9150509250929050565b600080600060608486031215612cfe57600080fd5b6000612d0c86828701612c33565b9350506020612d1d86828701612bd0565b9250506040612d2e86828701612c33565b9150509250925092565b60008060008060808587031215612d4e57600080fd5b6000612d5c87828801612c33565b9450506020612d6d87828801612c33565b9350506040612d7e87828801612bd0565b9250506060612d8f87828801612c33565b91505092959194509250565b6000612da8602583613266565b9150612db3826136a7565b604082019050919050565b6000612dcb600b83613266565b9150612dd6826136f6565b602082019050919050565b6000612dee601f83613266565b9150612df98261371f565b602082019050919050565b6000612e11600e83613266565b9150612e1c82613748565b602082019050919050565b6000612e34600f83613266565b9150612e3f82613771565b602082019050919050565b6000612e57603d83613266565b9150612e628261379a565b604082019050919050565b6000612e7a603083613266565b9150612e85826137e9565b604082019050919050565b6000612e9d600d83613266565b9150612ea882613838565b602082019050919050565b6000612ec0603083613266565b9150612ecb82613861565b604082019050919050565b6000612ee3603d83613266565b9150612eee826138b0565b604082019050919050565b6000612f06603d83613266565b9150612f11826138ff565b604082019050919050565b6000612f29600e83613266565b9150612f348261394e565b602082019050919050565b6000612f4c603d83613266565b9150612f5782613977565b604082019050919050565b6000612f6f603783613266565b9150612f7a826139c6565b604082019050919050565b6000612f92602383613266565b9150612f9d82613a15565b604082019050919050565b6000612fb5603a83613266565b9150612fc082613a64565b604082019050919050565b612fd48161354b565b82525050565b60006020820190508181036000830152612ff381612d9b565b9050919050565b6000602082019050818103600083015261301381612dbe565b9050919050565b6000602082019050818103600083015261303381612de1565b9050919050565b6000602082019050818103600083015261305381612e04565b9050919050565b6000602082019050818103600083015261307381612e27565b9050919050565b6000602082019050818103600083015261309381612e4a565b9050919050565b600060208201905081810360008301526130b381612e6d565b9050919050565b600060208201905081810360008301526130d381612e90565b9050919050565b600060208201905081810360008301526130f381612eb3565b9050919050565b6000602082019050818103600083015261311381612ed6565b9050919050565b6000602082019050818103600083015261313381612ef9565b9050919050565b6000602082019050818103600083015261315381612f1c565b9050919050565b6000602082019050818103600083015261317381612f3f565b9050919050565b6000602082019050818103600083015261319381612f62565b9050919050565b600060208201905081810360008301526131b381612f85565b9050919050565b600060208201905081810360008301526131d381612fa8565b9050919050565b60006020820190506131ef6000830184612fcb565b92915050565b60006131ff613210565b905061320b8282613558565b919050565b6000604051905090565b600067ffffffffffffffff8211156132355761323461365a565b5b602082029050919050565b600067ffffffffffffffff82111561325b5761325a61365a565b5b602082029050919050565b600082825260208201905092915050565b600061328282613541565b915061328d83613541565b9250827fffffffffffffffffffffffffffffffffffffffffffffffffffffffffffffffff038211156132c2576132c16135fc565b5b828201905092915050565b60006132d882613541565b91506132e383613541565b9250826132f3576132f261362b565b5b828204905092915050565b6000808291508390505b600185111561334857808604811115613324576133236135fc565b5b60018516156133335780820291505b80810290506133418561369a565b9450613308565b94509492505050565b600061335c82613541565b915061336783613541565b92506133947fffffffffffffffffffffffffffffffffffffffffffffffffffffffffffffffff848461339c565b905092915050565b6000826133ac5760019050613468565b816133ba5760009050613468565b81600181146133d057600281146133da57613409565b6001915050613468565b60ff8411156133ec576133eb6135fc565b5b8360020a915084821115613403576134026135fc565b5b50613468565b5060208310610133831016604e8410600b841016171561343e5782820a905083811115613439576134386135fc565b5b613468565b61344b84848460016132fe565b92509050818404811115613462576134616135fc565b5b81810290505b9392505050565b600061347a82613541565b915061348583613541565b9250817fffffffffffffffffffffffffffffffffffffffffffffffffffffffffffffffff04831182151516156134be576134bd6135fc565b5b828202905092915050565b60006134d482613541565b91506134df83613541565b9250828210156134f2576134f16135fc565b5b828203905092915050565b600061350882613521565b9050919050565b600061351a82613521565b9050919050565b600073ffffffffffffffffffffffffffffffffffffffff82169050919050565b6000819050919050565b600060ff82169050919050565b61356182613689565b810181811067ffffffffffffffff821117156135805761357f61365a565b5b80604052505050565b600061359482613541565b91507fffffffffffffffffffffffffffffffffffffffffffffffffffffffffffffffff8214156135c7576135c66135fc565b5b600182019050919050565b60006135dd8261354b565b915060ff8214156135f1576135f06135fc565b5b600182019050919050565b7f4e487b7100000000000000000000000000000000000000000000000000000000600052601160045260246000fd5b7f4e487b7100000000000000000000000000000000000000000000000000000000600052601260045260246000fd5b7f4e487b7100000000000000000000000000000000000000000000000000000000600052604160045260246000fd5b6000601f19601f8301169050919050565b60008160011c9050919050565b7f73776170457468546f4f63617428293a204e6f20706f6f6c20666f722045544860008201527f2d4f434154000000000000000000000000000000000000000000000000000000602082015250565b7f53616d6520746f6b656e73000000000000000000000000000000000000000000600082015250565b7f73776170457468546f4f63617428293a20496e76616c69642073656e64657200600082015250565b7f496e76616c696420746f6b656e73000000000000000000000000000000000000600082015250565b7f496e76616c696420616d6f756e74730000000000000000000000000000000000600082015250565b7f73776170457468546f4f63617428293a20496e73756666696369656e7420626160008201527f6c616e636520666f72204f43415420696e2074686520706f6f6c283429000000602082015250565b7f4f63784c6f63616c506f6f6c2e7365744f6361744164647265737328293a204960008201527f6e76616c696420706172616d6574657200000000000000000000000000000000602082015250565b7f496e76616c69642071756f746500000000000000000000000000000000000000600082015250565b7f73776170457468546f4f63617428293a204e6f2062616c616e636520666f722060008201527f4f43415420696e2074686520706f6f6c00000000000000000000000000000000602082015250565b7f73776170457468546f4f63617428293a20496e73756666696369656e7420626160008201527f6c616e636520666f72204f43415420696e2074686520706f6f6c283229000000602082015250565b7f73776170457468546f4f63617428293a20496e73756666696369656e7420626160008201527f6c616e636520666f72204f43415420696e2074686520706f6f6c283129000000602082015250565b7f496e76616c69642073656e646572000000000000000000000000000000000000600082015250565b7f73776170457468546f4f63617428293a20496e73756666696369656e7420626160008201527f6c616e636520666f72204f43415420696e2074686520706f6f6c283329000000602082015250565b7f73776170457468546f4f63617428293a205468652073656e646572206d75737460008201527f20626520646966666572656e74207468616e2074686973000000000000000000602082015250565b7f73776170457468546f4f63617428293a20496e76616c69642045544820616d6f60008201527f756e740000000000000000000000000000000000000000000000000000000000602082015250565b7f4f63784c6f63616c506f6f6c2e7365744f6361744164647265737328293a204360008201527f616c6c657220666f7220206d7573742062652063726561746f72000000000000602082015250565b613abc816134fd565b8114613ac757600080fd5b50565b613ad38161350f565b8114613ade57600080fd5b50565b613aea81613541565b8114613af557600080fd5b5056fea26469706673582212202fa13a3cb656eca089591359883ab5f1ae83b4ac670ca4795a987850acfcea2864736f6c63430008040033",
  "immutableReferences": {},
  "source": "// SPDX-License-Identifier: MIT\npragma solidity ^0.8.0;\n\ncontract OcxLocalPool {\n\n    uint256 private constant QUOTE_DECIMALS = 6; // Must be more than 3 at least\n    address private constant WETH = 0xB4FBF271143F4FBf7B91A5ded31805e42b2208d6;\n\n    address payable private ocatAddress;\n    address payable private creator;\n\n    struct Pool {\n        address[2] tokens;\n        uint256[2] amounts;\n        uint256 k;\n        uint256 prevK;\n        uint8[2] quoteOrder;\n        uint256 prevQuote;\n        uint256 quoteOrig;\n        uint256 quote;\n    }\n\n    struct PoolShare {\n        uint8 poolIndex;\n        uint256[2] amounts;\n    }\n\n\n    Pool[] poolList;\n    // mapping(address => PoolShare) public poolShare;\n    mapping(address => PoolShare[]) public poolShare;\n\n    receive() external payable {}\n\n    constructor() {\n        creator = payable(msg.sender);\n    }\n\n    function setOcatAddress(address payable _ocatAddress) public {\n        require(creator == msg.sender, \"OcxLocalPool.setOcatAddress(): Caller for  must be creator\");\n        require(_ocatAddress != address(0), \"OcxLocalPool.setOcatAddress(): Invalid parameter\");\n        ocatAddress = _ocatAddress;\n    }\n\n    function swapEthToOcat(uint _amountOutMin, address payable to, uint _deadline) public payable {\n        require(to != address(0), \"swapEthToOcat(): Invalid sender\");\n        require(to != address(this), \"swapEthToOcat(): The sender must be different than this\");\n        require(msg.value > 0, \"swapEthToOcat(): Invalid ETH amount\");\n        // Find the ETH/OCAT pool\n        (bool bFound, uint8 poolIndex, bool isInTurn) = _getPoolIndex(WETH, ocatAddress);\n        // Check if the pool exists\n        require(bFound, \"swapEthToOcat(): No pool for ETH-OCAT\");\n        // Get ETH balance in the pool\n        uint256 ethPoolBalance = poolList[poolIndex].amounts[isInTurn?0:1];\n        uint256 ocatPoolBalance = poolList[poolIndex].amounts[!isInTurn?0:1];\n        // Ensure that OCAT balance is more than 0\n        require(ocatPoolBalance > 0, \"swapEthToOcat(): No balance for OCAT in the pool\");\n        // Ensure that OCAT balance >= _amountOutMin\n        require(ocatPoolBalance > _amountOutMin, \"swapEthToOcat(): Insufficient balance for OCAT in the pool(1)\");\n        // Calculate the output amount of OCAT \n        require(ocatPoolBalance >= (poolList[poolIndex].k / (ethPoolBalance + msg.value)), \"swapEthToOcat(): Insufficient balance for OCAT in the pool(2)\");\n        uint256 amountOut = ocatPoolBalance - (poolList[poolIndex].k / (ethPoolBalance + msg.value));\n        require(amountOut > 0, \"swapEthToOcat(): Insufficient balance for OCAT in the pool(3)\");\n        require(amountOut >= _amountOutMin, \"swapEthToOcat(): Insufficient balance for OCAT in the pool(4)\");\n        // Transfer ETH from the sender\n        // ...\n        // Transfer OCAT to the sender\n        // ...\n        // Update the quote for the pool\n        poolList[poolIndex].amounts[isInTurn?0:1] += msg.value;\n        poolList[poolIndex].amounts[!isInTurn?0:1] -= amountOut;\n        poolList[poolIndex].prevQuote = poolList[poolIndex].quote;\n\n        poolList[poolIndex].quote = \n            (poolList[poolIndex].amounts[poolList[poolIndex].quoteOrder[0]] * (10 ** QUOTE_DECIMALS)) / \n                poolList[poolIndex].amounts[poolList[poolIndex].quoteOrder[1]];\n    }\n\n    function swapOcatToEth(uint _amountIn, uint _amountOutMin, address payable to, uint _deadline) public {\n\n    }\n\n    function _getPoolIndex(\n        address token0,\n        address token1\n     ) internal view returns (bool bFound, uint8 poolIndex, bool isInTurn)  {\n        bFound = false;\n        poolIndex = 0;\n        isInTurn = true;\n        for (uint8 i = 0; i < poolList.length; i++) {\n            if ((poolList[i].tokens[0] == token0 && poolList[i].tokens[1] == token1) \n            || (poolList[i].tokens[1] == token0 && poolList[i].tokens[0] == token1)) {\n                bFound = true;\n                poolIndex = i;\n                if (poolList[i].tokens[1] == token0) {\n                    isInTurn = false;\n                }\n                break;\n            }\n        }\n    }\n\n    function addLiquidity(\n        address[2] memory tokens, \n        uint256[2] memory amounts\n    ) public {\n        require(msg.sender != address(0), \"Invalid sender\");\n        require(tokens[0] != address(0) && tokens[1] != address(0), \"Invalid tokens\");\n        require(tokens[0] != tokens[1], \"Same tokens\");\n        require(amounts[0] > 0 && amounts[1] > 0, \"Invalid amounts\");\n        // If the amount of OCAT is limited, then assert sender must be creator\n        // Otherwise OCAT is mintable with swapping from/to PNFT continuosly,\n        //   following assertion must be removed\n        require(creator == msg.sender);\n\n        // Get quote\n        // ...uint256((quote / poolList[poolIndex].quoteOrig) * 100)\n        // Transfer token A and B from msg.sender to this address\n\n        bool bExist = false;\n        bool isInTurn = true;\n        uint8 poolIndex = 0;\n        uint256 quoteMultiplier = 10 ** QUOTE_DECIMALS;\n\n        (bExist, poolIndex, isInTurn) = _getPoolIndex(tokens[0], tokens[1]);\n        if (!bExist) {\n            uint8[2] memory quoteOrder = [0, 1];\n            if (amounts[0] < amounts[1]) {\n                quoteOrder = [1, 0];\n            }\n            poolList.push(Pool(\n                {\n                    tokens: tokens,\n                    amounts: amounts, \n                    k: amounts[0] * amounts[1],\n                    prevK: 0,\n                    quoteOrder: quoteOrder,\n                    quoteOrig: uint256((amounts[quoteOrder[0]] * quoteMultiplier) / amounts[quoteOrder[1]]),\n                    quote: uint256((amounts[quoteOrder[0]] * quoteMultiplier) / amounts[quoteOrder[1]]),\n                    prevQuote: 0\n                })\n            );\n        } else {\n            // If order for token in parameter in against pool is revered, swap\n            if (!isInTurn) {\n                address tmpToken = tokens[0];\n                tokens[0] = tokens[1];\n                tokens[1] = tmpToken;\n                uint256 tmpAmount = amounts[0];\n                amounts[0] = amounts[1];\n                amounts[1] = tmpAmount;\n            }\n            // Check quote\n            uint256 quote = uint256(\n                (amounts[poolList[poolIndex].quoteOrder[0]] * quoteMultiplier) / \n                amounts[poolList[poolIndex].quoteOrder[1]]\n            );\n            uint256 quoteRate = uint256((quote * quoteMultiplier) / poolList[poolIndex].quoteOrig);\n            require(\n                quoteRate > 980 * (10 ** (QUOTE_DECIMALS - 3)) && \n                    quoteRate < 1020 * (10 ** (QUOTE_DECIMALS - 3)), \n                \"Invalid quote\"\n            );\n            // Update pool\n            Pool memory pool = poolList[poolIndex];\n            pool.amounts[0] += amounts[0];\n            pool.amounts[1] += amounts[1];\n            pool.prevK = pool.k;\n            pool.k = pool.amounts[0] * pool.amounts[1];\n            pool.prevQuote = pool.quote;\n            pool.quote = uint256(\n                (pool.amounts[poolList[poolIndex].quoteOrder[0]] * quoteMultiplier) / \n                pool.amounts[poolList[poolIndex].quoteOrder[1]]\n            );\n            poolList[poolIndex] = pool;\n        }\n        // Update pool share\n        bExist = false;\n        for (uint i = 0; i < poolShare[msg.sender].length; i++) {\n            if (poolIndex == poolShare[msg.sender][i].poolIndex) {\n                poolShare[msg.sender][i].amounts[0] += amounts[0];\n                poolShare[msg.sender][i].amounts[1] += amounts[1];\n                bExist = true;\n                break;\n            }\n        }\n        if (!bExist) {\n            poolShare[msg.sender].push(PoolShare(poolIndex, amounts));\n        }\n\n        // Mint LP token to return\n        // ...\n        // Transfer ETH and OCAT amounts from the sender\n        // ...\n    }\n}\n",
  "sourcePath": "/home/cowboy/OpenchainTestVersion/server/contracts/OcxLocalPool.sol",
  "compiler": {
    "name": "solc",
    "version": "0.8.4+commit.c7e474f2.Emscripten.clang"
  },
  "schemaVersion": "3.4.6",
  "updatedAt": "2022-03-30T04:38:00.969Z",
  "networkType": "ethereum",
  "devdoc": {
    "kind": "dev",
    "methods": {},
    "version": 1
  },
  "userdoc": {
    "kind": "user",
    "methods": {},
    "version": 1
  }
}