{
  "contractName": "OcxLocalPool",
  "abi": [
    {
      "inputs": [],
      "stateMutability": "nonpayable",
      "type": "constructor"
    },
    {
      "inputs": [
        {
          "internalType": "address",
          "name": "_admin",
          "type": "address"
        }
      ],
      "name": "addAdmin",
      "outputs": [],
      "stateMutability": "nonpayable",
      "type": "function"
    },
    {
      "inputs": [
        {
          "internalType": "address",
          "name": "_address",
          "type": "address"
        }
      ],
      "name": "isAdmin",
      "outputs": [
        {
          "internalType": "bool",
          "name": "yes",
          "type": "bool"
        }
      ],
      "stateMutability": "view",
      "type": "function"
    },
    {
      "inputs": [],
      "name": "poolCount",
      "outputs": [
        {
          "internalType": "uint256",
          "name": "",
          "type": "uint256"
        }
      ],
      "stateMutability": "view",
      "type": "function"
    },
    {
      "inputs": [
        {
          "internalType": "uint256",
          "name": "",
          "type": "uint256"
        }
      ],
      "name": "poolList",
      "outputs": [
        {
          "internalType": "uint256",
          "name": "k",
          "type": "uint256"
        },
        {
          "internalType": "uint256",
          "name": "prevK",
          "type": "uint256"
        },
        {
          "internalType": "uint256",
          "name": "prevQuote",
          "type": "uint256"
        },
        {
          "internalType": "uint256",
          "name": "quoteOrig",
          "type": "uint256"
        },
        {
          "internalType": "uint256",
          "name": "quote",
          "type": "uint256"
        }
      ],
      "stateMutability": "view",
      "type": "function"
    },
    {
      "stateMutability": "payable",
      "type": "receive"
    },
    {
      "inputs": [
        {
          "internalType": "address[2]",
          "name": "path",
          "type": "address[2]"
        },
        {
          "internalType": "uint256",
          "name": "amountIn",
          "type": "uint256"
        },
        {
          "internalType": "uint256",
          "name": "amountOutMin",
          "type": "uint256"
        },
        {
          "internalType": "uint256",
          "name": "",
          "type": "uint256"
        }
      ],
      "name": "swap",
      "outputs": [],
      "stateMutability": "payable",
      "type": "function"
    },
    {
      "inputs": [
        {
          "internalType": "address[2]",
          "name": "path",
          "type": "address[2]"
        }
      ],
      "name": "getQuote",
      "outputs": [
        {
          "internalType": "uint256",
          "name": "value",
          "type": "uint256"
        },
        {
          "internalType": "uint256",
          "name": "decimals",
          "type": "uint256"
        }
      ],
      "stateMutability": "view",
      "type": "function"
    },
    {
      "inputs": [
        {
          "internalType": "address[2]",
          "name": "path",
          "type": "address[2]"
        },
        {
          "internalType": "uint256",
          "name": "amountIn",
          "type": "uint256"
        }
      ],
      "name": "getAmountOutWithExactAmountIn",
      "outputs": [
        {
          "internalType": "uint256",
          "name": "amountOut",
          "type": "uint256"
        }
      ],
      "stateMutability": "view",
      "type": "function"
    },
    {
      "inputs": [
        {
          "internalType": "address[2]",
          "name": "path",
          "type": "address[2]"
        },
        {
          "internalType": "uint256",
          "name": "amountOut",
          "type": "uint256"
        }
      ],
      "name": "getExactAmountOut",
      "outputs": [
        {
          "internalType": "uint256",
          "name": "amountIn",
          "type": "uint256"
        }
      ],
      "stateMutability": "view",
      "type": "function"
    },
    {
      "inputs": [
        {
          "internalType": "address[2]",
          "name": "tokenPair",
          "type": "address[2]"
        },
        {
          "internalType": "uint256[2]",
          "name": "amounts",
          "type": "uint256[2]"
        }
      ],
      "name": "addLiquidity",
      "outputs": [],
      "stateMutability": "nonpayable",
      "type": "function"
    }
  ],
  "bytecode": "0x60806040523480156200001157600080fd5b50336001806101000a81548173ffffffffffffffffffffffffffffffffffffffff021916908373ffffffffffffffffffffffffffffffffffffffff16021790555062000063336200006960201b60201c565b62000474565b600073ffffffffffffffffffffffffffffffffffffffff1660018054906101000a900473ffffffffffffffffffffffffffffffffffffffff1673ffffffffffffffffffffffffffffffffffffffff161415620000fc576040517f08c379a0000000000000000000000000000000000000000000000000000000008152600401620000f3906200032a565b60405180910390fd5b60018054906101000a900473ffffffffffffffffffffffffffffffffffffffff1673ffffffffffffffffffffffffffffffffffffffff163373ffffffffffffffffffffffffffffffffffffffff16146200018d576040517f08c379a0000000000000000000000000000000000000000000000000000000008152600401620001849062000308565b60405180910390fd5b80600073ffffffffffffffffffffffffffffffffffffffff168173ffffffffffffffffffffffffffffffffffffffff16141562000201576040517f08c379a0000000000000000000000000000000000000000000000000000000008152600401620001f8906200034c565b60405180910390fd5b60016000808473ffffffffffffffffffffffffffffffffffffffff1673ffffffffffffffffffffffffffffffffffffffff16815260200190815260200160002060006101000a81548160ff02191690831515021790555060018060009054906101000a900460ff166200027591906200037f565b600160006101000a81548160ff021916908360ff1602179055505050565b6000620002a2601e836200036e565b9150620002af82620003f9565b602082019050919050565b6000620002c96017836200036e565b9150620002d68262000422565b602082019050919050565b6000620002f06019836200036e565b9150620002fd826200044b565b602082019050919050565b60006020820190508181036000830152620003238162000293565b9050919050565b600060208201905081810360008301526200034581620002ba565b9050919050565b600060208201905081810360008301526200036781620002e1565b9050919050565b600082825260208201905092915050565b60006200038c82620003bd565b91506200039983620003bd565b92508260ff03821115620003b257620003b1620003ca565b5b828201905092915050565b600060ff82169050919050565b7f4e487b7100000000000000000000000000000000000000000000000000000000600052601160045260246000fd5b7f466f722063616c6c65722065787065637465642062652063726561746f720000600082015250565b7f496e76616c69642063726561746f722061646472657373000000000000000000600082015250565b7f4578706563746564206e6f6e2d7a65726f206164647265737300000000000000600082015250565b6147cb80620004846000396000f3fe60806040526004361061008a5760003560e01c80637048027511610059578063704802751461018e57806379bda80f146101b75780638287435f146101f55780639cb7919a1461021e578063f525cb681461023a57610091565b806324d7806c146100965780632a48235b146100d35780632da5c2e214610114578063497998271461015157610091565b3661009157005b600080fd5b3480156100a257600080fd5b506100bd60048036038101906100b891906138ff565b610265565b6040516100ca9190613d95565b60405180910390f35b3480156100df57600080fd5b506100fa60048036038101906100f59190613a55565b6102ba565b60405161010b959493929190613f94565b60405180910390f35b34801561012057600080fd5b5061013b6004803603810190610136919061398d565b6102f0565b6040516101489190613f50565b60405180910390f35b34801561015d57600080fd5b506101786004803603810190610173919061398d565b6107a2565b6040516101859190613f50565b60405180910390f35b34801561019a57600080fd5b506101b560048036038101906101b091906138ff565b610b67565b005b3480156101c357600080fd5b506101de60048036038101906101d99190613928565b610d86565b6040516101ec929190613f6b565b60405180910390f35b34801561020157600080fd5b5061021c60048036038101906102179190613951565b610e4e565b005b610238600480360381019061023391906139c9565b612523565b005b34801561024657600080fd5b5061024f612d48565b60405161025c9190613f50565b60405180910390f35b60008060008373ffffffffffffffffffffffffffffffffffffffff1673ffffffffffffffffffffffffffffffffffffffff16815260200190815260200160002060009054906101000a900460ff169050919050565b60026020528060005260406000206000915090508060030154908060040154908060070154908060080154908060090154905085565b6000808211610334576040517f08c379a000000000000000000000000000000000000000000000000000000000815260040161032b90613e10565b60405180910390fd5b600080600061034286612d4e565b92509250925082610388576040517f08c379a000000000000000000000000000000000000000000000000000000000815260040161037f90613ef0565b60405180910390fd5b600085600260008560ff1681526020019081526020016000206002016000896000600281106103e0577f4e487b7100000000000000000000000000000000000000000000000000000000600052603260045260246000fd5b602002015173ffffffffffffffffffffffffffffffffffffffff1673ffffffffffffffffffffffffffffffffffffffff1681526020019081526020016000205461042a919061407f565b9050600387600060028110610468577f4e487b7100000000000000000000000000000000000000000000000000000000600052603260045260246000fd5b602002015173ffffffffffffffffffffffffffffffffffffffff1663313ce5676040518163ffffffff1660e01b815260040160206040518083038186803b1580156104b257600080fd5b505afa1580156104c6573d6000803e3d6000fd5b505050506040513d601f19601f820116820180604052508101906104ea9190613aa7565b6104f4919061433c565b600a6105009190614190565b8161050b919061410c565b9050600060038860016002811061054b577f4e487b7100000000000000000000000000000000000000000000000000000000600052603260045260246000fd5b602002015173ffffffffffffffffffffffffffffffffffffffff1663313ce5676040518163ffffffff1660e01b815260040160206040518083038186803b15801561059557600080fd5b505afa1580156105a9573d6000803e3d6000fd5b505050506040513d601f19601f820116820180604052508101906105cd9190613aa7565b6105d7919061433c565b600a6105e39190614190565b600260008660ff16815260200190815260200160002060020160008a600160028110610638577f4e487b7100000000000000000000000000000000000000000000000000000000600052603260045260246000fd5b602002015173ffffffffffffffffffffffffffffffffffffffff1673ffffffffffffffffffffffffffffffffffffffff16815260200190815260200160002054610682919061410c565b905081600260008660ff168152602001908152602001600020600301546106a9919061410c565b816106b49190614308565b95506003886001600281106106f2577f4e487b7100000000000000000000000000000000000000000000000000000000600052603260045260246000fd5b602002015173ffffffffffffffffffffffffffffffffffffffff1663313ce5676040518163ffffffff1660e01b815260040160206040518083038186803b15801561073c57600080fd5b505afa158015610750573d6000803e3d6000fd5b505050506040513d601f19601f820116820180604052508101906107749190613aa7565b61077e919061433c565b600a61078a9190614190565b8661079591906142ae565b9550505050505092915050565b60008082116107e6576040517f08c379a00000000000000000000000000000000000000000000000000000000081526004016107dd90613f10565b60405180910390fd5b60008060006107f486612d4e565b9250925092508261083a576040517f08c379a000000000000000000000000000000000000000000000000000000000815260040161083190613ef0565b60405180910390fd5b600260008360ff16815260200190815260200160002060020160008760006002811061088f577f4e487b7100000000000000000000000000000000000000000000000000000000600052603260045260246000fd5b602002015173ffffffffffffffffffffffffffffffffffffffff1673ffffffffffffffffffffffffffffffffffffffff1681526020019081526020016000205460038760006002811061090b577f4e487b7100000000000000000000000000000000000000000000000000000000600052603260045260246000fd5b602002015173ffffffffffffffffffffffffffffffffffffffff1663313ce5676040518163ffffffff1660e01b815260040160206040518083038186803b15801561095557600080fd5b505afa158015610969573d6000803e3d6000fd5b505050506040513d601f19601f8201168201806040525081019061098d9190613aa7565b610997919061433c565b600a6109a39190614190565b866109ae919061410c565b600260008560ff168152602001908152602001600020600201600089600160028110610a03577f4e487b7100000000000000000000000000000000000000000000000000000000600052603260045260246000fd5b602002015173ffffffffffffffffffffffffffffffffffffffff1673ffffffffffffffffffffffffffffffffffffffff16815260200190815260200160002054610a4d9190614308565b600260008560ff16815260200190815260200160002060030154610a71919061410c565b610a7b9190614308565b9350600386600060028110610ab9577f4e487b7100000000000000000000000000000000000000000000000000000000600052603260045260246000fd5b602002015173ffffffffffffffffffffffffffffffffffffffff1663313ce5676040518163ffffffff1660e01b815260040160206040518083038186803b158015610b0357600080fd5b505afa158015610b17573d6000803e3d6000fd5b505050506040513d601f19601f82011682018060405250810190610b3b9190613aa7565b610b45919061433c565b600a610b519190614190565b84610b5c91906142ae565b935050505092915050565b600073ffffffffffffffffffffffffffffffffffffffff1660018054906101000a900473ffffffffffffffffffffffffffffffffffffffff1673ffffffffffffffffffffffffffffffffffffffff161415610bf7576040517f08c379a0000000000000000000000000000000000000000000000000000000008152600401610bee90613df0565b60405180910390fd5b60018054906101000a900473ffffffffffffffffffffffffffffffffffffffff1673ffffffffffffffffffffffffffffffffffffffff163373ffffffffffffffffffffffffffffffffffffffff1614610c85576040517f08c379a0000000000000000000000000000000000000000000000000000000008152600401610c7c90613dd0565b60405180910390fd5b80600073ffffffffffffffffffffffffffffffffffffffff168173ffffffffffffffffffffffffffffffffffffffff161415610cf6576040517f08c379a0000000000000000000000000000000000000000000000000000000008152600401610ced90613ed0565b60405180910390fd5b60016000808473ffffffffffffffffffffffffffffffffffffffff1673ffffffffffffffffffffffffffffffffffffffff16815260200190815260200160002060006101000a81548160ff02191690831515021790555060018060009054906101000a900460ff16610d6891906140d5565b600160006101000a81548160ff021916908360ff1602179055505050565b6000806000806000610d9786612d4e565b92509250925082610ddd576040517f08c379a0000000000000000000000000000000000000000000000000000000008152600401610dd490613ef0565b60405180910390fd5b600260008360ff16815260200190815260200160002060090154945080610e3f57600260008360ff1681526020019081526020016000206009015460026006600a610e289190614190565b610e329190614190565b610e3c919061410c565b94505b600660ff169350505050915091565b600073ffffffffffffffffffffffffffffffffffffffff1660018054906101000a900473ffffffffffffffffffffffffffffffffffffffff1673ffffffffffffffffffffffffffffffffffffffff161415610ede576040517f08c379a0000000000000000000000000000000000000000000000000000000008152600401610ed590613df0565b60405180910390fd5b60018054906101000a900473ffffffffffffffffffffffffffffffffffffffff1673ffffffffffffffffffffffffffffffffffffffff163373ffffffffffffffffffffffffffffffffffffffff1614610f6c576040517f08c379a0000000000000000000000000000000000000000000000000000000008152600401610f6390613dd0565b60405180910390fd5b81600060028110610fa6577f4e487b7100000000000000000000000000000000000000000000000000000000600052603260045260246000fd5b6020020151600073ffffffffffffffffffffffffffffffffffffffff168173ffffffffffffffffffffffffffffffffffffffff16141561101b576040517f08c379a000000000000000000000000000000000000000000000000000000000815260040161101290613ed0565b60405180910390fd5b82600160028110611055577f4e487b7100000000000000000000000000000000000000000000000000000000600052603260045260246000fd5b6020020151600073ffffffffffffffffffffffffffffffffffffffff168173ffffffffffffffffffffffffffffffffffffffff1614156110ca576040517f08c379a00000000000000000000000000000000000000000000000000000000081526004016110c190613ed0565b60405180910390fd5b83600160028110611104577f4e487b7100000000000000000000000000000000000000000000000000000000600052603260045260246000fd5b602002015173ffffffffffffffffffffffffffffffffffffffff1684600060028110611159577f4e487b7100000000000000000000000000000000000000000000000000000000600052603260045260246000fd5b602002015173ffffffffffffffffffffffffffffffffffffffff1614156111b5576040517f08c379a00000000000000000000000000000000000000000000000000000000081526004016111ac90613e70565b60405180910390fd5b6000836000600281106111f1577f4e487b7100000000000000000000000000000000000000000000000000000000600052603260045260246000fd5b602002015111611236576040517f08c379a000000000000000000000000000000000000000000000000000000000815260040161122d90613db0565b60405180910390fd5b600083600160028110611272577f4e487b7100000000000000000000000000000000000000000000000000000000600052603260045260246000fd5b6020020151116112b7576040517f08c379a00000000000000000000000000000000000000000000000000000000081526004016112ae90613e30565b60405180910390fd5b60008060006112c587612d4e565b925092509250826118435760008790508660016002811061130f577f4e487b7100000000000000000000000000000000000000000000000000000000600052603260045260246000fd5b60200201518760006002811061134e577f4e487b7100000000000000000000000000000000000000000000000000000000600052603260045260246000fd5b602002015110156114455760405180604001604052808960016002811061139e577f4e487b7100000000000000000000000000000000000000000000000000000000600052603260045260246000fd5b602002015173ffffffffffffffffffffffffffffffffffffffff1673ffffffffffffffffffffffffffffffffffffffff1681526020018960006002811061140e577f4e487b7100000000000000000000000000000000000000000000000000000000600052603260045260246000fd5b602002015173ffffffffffffffffffffffffffffffffffffffff1673ffffffffffffffffffffffffffffffffffffffff1681525090505b8760026000600354815260200190815260200160002060000190600261146c9291906136e8565b50866000600281106114a7577f4e487b7100000000000000000000000000000000000000000000000000000000600052603260045260246000fd5b602002015160026000600354815260200190815260200160002060020160008a600060028110611500577f4e487b7100000000000000000000000000000000000000000000000000000000600052603260045260246000fd5b602002015173ffffffffffffffffffffffffffffffffffffffff1673ffffffffffffffffffffffffffffffffffffffff168152602001908152602001600020819055508660016002811061157d577f4e487b7100000000000000000000000000000000000000000000000000000000600052603260045260246000fd5b602002015160026000600354815260200190815260200160002060020160008a6001600281106115d6577f4e487b7100000000000000000000000000000000000000000000000000000000600052603260045260246000fd5b602002015173ffffffffffffffffffffffffffffffffffffffff1673ffffffffffffffffffffffffffffffffffffffff1681526020019081526020016000208190555061162460035461321b565b600060026000600354815260200190815260200160002060040181905550806002600060035481526020019081526020016000206005019060026116699291906136e8565b506002600060035481526020019081526020016000206002016000826001600281106116be577f4e487b7100000000000000000000000000000000000000000000000000000000600052603260045260246000fd5b602002015173ffffffffffffffffffffffffffffffffffffffff1673ffffffffffffffffffffffffffffffffffffffff168152602001908152602001600020546006600a61170c9190614190565b600260006003548152602001908152602001600020600201600084600060028110611760577f4e487b7100000000000000000000000000000000000000000000000000000000600052603260045260246000fd5b602002015173ffffffffffffffffffffffffffffffffffffffff1673ffffffffffffffffffffffffffffffffffffffff168152602001908152602001600020546117aa91906142ae565b6117b4919061410c565b600260006003548152602001908152602001600020600801819055506002600060035481526020019081526020016000206008015460026000600354815260200190815260200160002060090181905550600060026000600354815260200190815260200160002060070181905550600160036000828254611836919061407f565b925050819055505061216f565b80611ab957600087600060028110611884577f4e487b7100000000000000000000000000000000000000000000000000000000600052603260045260246000fd5b60200201519050876001600281106118c5577f4e487b7100000000000000000000000000000000000000000000000000000000600052603260045260246000fd5b602002015188600060028110611904577f4e487b7100000000000000000000000000000000000000000000000000000000600052603260045260246000fd5b602002019073ffffffffffffffffffffffffffffffffffffffff16908173ffffffffffffffffffffffffffffffffffffffff16815250508088600160028110611976577f4e487b7100000000000000000000000000000000000000000000000000000000600052603260045260246000fd5b602002019073ffffffffffffffffffffffffffffffffffffffff16908173ffffffffffffffffffffffffffffffffffffffff16815250506000876000600281106119e9577f4e487b7100000000000000000000000000000000000000000000000000000000600052603260045260246000fd5b6020020151905087600160028110611a2a577f4e487b7100000000000000000000000000000000000000000000000000000000600052603260045260246000fd5b602002015188600060028110611a69577f4e487b7100000000000000000000000000000000000000000000000000000000600052603260045260246000fd5b6020020181815250508088600160028110611aad577f4e487b7100000000000000000000000000000000000000000000000000000000600052603260045260246000fd5b60200201818152505050505b6000600260008460ff1681526020019081526020016000206002016000600260008660ff168152602001908152602001600020600501600160028110611b28577f4e487b7100000000000000000000000000000000000000000000000000000000600052603260045260246000fd5b0160009054906101000a900473ffffffffffffffffffffffffffffffffffffffff1673ffffffffffffffffffffffffffffffffffffffff1673ffffffffffffffffffffffffffffffffffffffff168152602001908152602001600020546006600a611b939190614190565b600260008660ff1681526020019081526020016000206002016000600260008860ff168152602001908152602001600020600501600060028110611c00577f4e487b7100000000000000000000000000000000000000000000000000000000600052603260045260246000fd5b0160009054906101000a900473ffffffffffffffffffffffffffffffffffffffff1673ffffffffffffffffffffffffffffffffffffffff1673ffffffffffffffffffffffffffffffffffffffff16815260200190815260200160002054611c6791906142ae565b611c71919061410c565b90506000600260008560ff168152602001908152602001600020600801546006600a611c9d9190614190565b83611ca891906142ae565b611cb2919061410c565b905060036006611cc2919061433c565b600a611cce9190614190565b6103d4611cdb91906142ae565b81118015611d0e575060036006611cf2919061433c565b600a611cfe9190614190565b6103fc611d0b91906142ae565b81105b611d4d576040517f08c379a0000000000000000000000000000000000000000000000000000000008152600401611d4490613e50565b60405180910390fd5b87600060028110611d87577f4e487b7100000000000000000000000000000000000000000000000000000000600052603260045260246000fd5b6020020151600260008660ff16815260200190815260200160002060020160008b600060028110611de1577f4e487b7100000000000000000000000000000000000000000000000000000000600052603260045260246000fd5b602002015173ffffffffffffffffffffffffffffffffffffffff1673ffffffffffffffffffffffffffffffffffffffff1681526020019081526020016000206000828254611e2f919061407f565b9250508190555087600160028110611e70577f4e487b7100000000000000000000000000000000000000000000000000000000600052603260045260246000fd5b6020020151600260008660ff16815260200190815260200160002060020160008b600160028110611eca577f4e487b7100000000000000000000000000000000000000000000000000000000600052603260045260246000fd5b602002015173ffffffffffffffffffffffffffffffffffffffff1673ffffffffffffffffffffffffffffffffffffffff1681526020019081526020016000206000828254611f18919061407f565b92505081905550600260008560ff16815260200190815260200160002060030154600260008660ff16815260200190815260200160002060040181905550611f628460ff1661321b565b600260008560ff16815260200190815260200160002060090154600260008660ff16815260200190815260200160002060070181905550600260008560ff1681526020019081526020016000206002016000600260008760ff168152602001908152602001600020600501600160028110612006577f4e487b7100000000000000000000000000000000000000000000000000000000600052603260045260246000fd5b0160009054906101000a900473ffffffffffffffffffffffffffffffffffffffff1673ffffffffffffffffffffffffffffffffffffffff1673ffffffffffffffffffffffffffffffffffffffff168152602001908152602001600020546006600a6120719190614190565b600260008760ff1681526020019081526020016000206002016000600260008960ff1681526020019081526020016000206005016000600281106120de577f4e487b7100000000000000000000000000000000000000000000000000000000600052603260045260246000fd5b0160009054906101000a900473ffffffffffffffffffffffffffffffffffffffff1673ffffffffffffffffffffffffffffffffffffffff1673ffffffffffffffffffffffffffffffffffffffff1681526020019081526020016000205461214591906142ae565b61214f919061410c565b600260008660ff1681526020019081526020016000206009018190555050505b6000876000600281106121ab577f4e487b7100000000000000000000000000000000000000000000000000000000600052603260045260246000fd5b602002015173ffffffffffffffffffffffffffffffffffffffff1663dd62ed3e33306040518363ffffffff1660e01b81526004016121ea929190613d0c565b60206040518083038186803b15801561220257600080fd5b505afa158015612216573d6000803e3d6000fd5b505050506040513d601f19601f8201168201806040525081019061223a9190613a7e565b905086600060028110612276577f4e487b7100000000000000000000000000000000000000000000000000000000600052603260045260246000fd5b60200201518110156122bd576040517f08c379a00000000000000000000000000000000000000000000000000000000081526004016122b490613e90565b60405180910390fd5b612345886000600281106122fa577f4e487b7100000000000000000000000000000000000000000000000000000000600052603260045260246000fd5b602002015133308a60006002811061233b577f4e487b7100000000000000000000000000000000000000000000000000000000600052603260045260246000fd5b60200201516135af565b8760016002811061237f577f4e487b7100000000000000000000000000000000000000000000000000000000600052603260045260246000fd5b602002015173ffffffffffffffffffffffffffffffffffffffff1663dd62ed3e33306040518363ffffffff1660e01b81526004016123be929190613d0c565b60206040518083038186803b1580156123d657600080fd5b505afa1580156123ea573d6000803e3d6000fd5b505050506040513d601f19601f8201168201806040525081019061240e9190613a7e565b90508660016002811061244a577f4e487b7100000000000000000000000000000000000000000000000000000000600052603260045260246000fd5b6020020151811015612491576040517f08c379a000000000000000000000000000000000000000000000000000000000815260040161248890613eb0565b60405180910390fd5b612519886001600281106124ce577f4e487b7100000000000000000000000000000000000000000000000000000000600052603260045260246000fd5b602002015133308a60016002811061250f577f4e487b7100000000000000000000000000000000000000000000000000000000600052603260045260246000fd5b60200201516135af565b5050505050505050565b8360006002811061255d577f4e487b7100000000000000000000000000000000000000000000000000000000600052603260045260246000fd5b6020020151600073ffffffffffffffffffffffffffffffffffffffff168173ffffffffffffffffffffffffffffffffffffffff1614156125d2576040517f08c379a00000000000000000000000000000000000000000000000000000000081526004016125c990613ed0565b60405180910390fd5b8460016002811061260c577f4e487b7100000000000000000000000000000000000000000000000000000000600052603260045260246000fd5b6020020151600073ffffffffffffffffffffffffffffffffffffffff168173ffffffffffffffffffffffffffffffffffffffff161415612681576040517f08c379a000000000000000000000000000000000000000000000000000000000815260040161267890613ed0565b60405180910390fd5b600085116126c4576040517f08c379a00000000000000000000000000000000000000000000000000000000081526004016126bb90613e70565b60405180910390fd5b6000806126d088612d4e565b509150915081612715576040517f08c379a000000000000000000000000000000000000000000000000000000000815260040161270c90613db0565b60405180910390fd5b6000861015612759576040517f08c379a000000000000000000000000000000000000000000000000000000000815260040161275090613e30565b60405180910390fd5b600061276589896102f0565b9050868110156127aa576040517f08c379a00000000000000000000000000000000000000000000000000000000081526004016127a190613e50565b60405180910390fd5b6000896000600281106127e6577f4e487b7100000000000000000000000000000000000000000000000000000000600052603260045260246000fd5b602002015173ffffffffffffffffffffffffffffffffffffffff1663dd62ed3e33306040518363ffffffff1660e01b8152600401612825929190613d0c565b60206040518083038186803b15801561283d57600080fd5b505afa158015612851573d6000803e3d6000fd5b505050506040513d601f19601f820116820180604052508101906128759190613a7e565b9050888110156128ba576040517f08c379a00000000000000000000000000000000000000000000000000000000081526004016128b190613e90565b60405180910390fd5b6129048a6000600281106128f7577f4e487b7100000000000000000000000000000000000000000000000000000000600052603260045260246000fd5b602002015133308c6135af565b8960016002811061293e577f4e487b7100000000000000000000000000000000000000000000000000000000600052603260045260246000fd5b602002015173ffffffffffffffffffffffffffffffffffffffff1663a9059cbb33846040518363ffffffff1660e01b815260040161297d929190613d6c565b602060405180830381600087803b15801561299757600080fd5b505af11580156129ab573d6000803e3d6000fd5b505050506040513d601f19601f820116820180604052508101906129cf9190613a2c565b5088600260008560ff16815260200190815260200160002060020160008c600060028110612a26577f4e487b7100000000000000000000000000000000000000000000000000000000600052603260045260246000fd5b602002015173ffffffffffffffffffffffffffffffffffffffff1673ffffffffffffffffffffffffffffffffffffffff1681526020019081526020016000206000828254612a74919061407f565b9250508190555081600260008560ff16815260200190815260200160002060020160008c600160028110612ad1577f4e487b7100000000000000000000000000000000000000000000000000000000600052603260045260246000fd5b602002015173ffffffffffffffffffffffffffffffffffffffff1673ffffffffffffffffffffffffffffffffffffffff1681526020019081526020016000206000828254612b1f9190614308565b92505081905550600260008460ff16815260200190815260200160002060090154600260008560ff16815260200190815260200160002060070181905550600260008460ff1681526020019081526020016000206002016000600260008660ff168152602001908152602001600020600501600160028110612bca577f4e487b7100000000000000000000000000000000000000000000000000000000600052603260045260246000fd5b0160009054906101000a900473ffffffffffffffffffffffffffffffffffffffff1673ffffffffffffffffffffffffffffffffffffffff1673ffffffffffffffffffffffffffffffffffffffff168152602001908152602001600020546006600a612c359190614190565b600260008660ff1681526020019081526020016000206002016000600260008860ff168152602001908152602001600020600501600060028110612ca2577f4e487b7100000000000000000000000000000000000000000000000000000000600052603260045260246000fd5b0160009054906101000a900473ffffffffffffffffffffffffffffffffffffffff1673ffffffffffffffffffffffffffffffffffffffff1673ffffffffffffffffffffffffffffffffffffffff16815260200190815260200160002054612d0991906142ae565b612d13919061410c565b600260008560ff16815260200190815260200160002060090181905550612d3c8360ff1661321b565b50505050505050505050565b60035481565b6000806000809250600091506001905060005b6003548160ff1610156132135784600060028110612da8577f4e487b7100000000000000000000000000000000000000000000000000000000600052603260045260246000fd5b602002015173ffffffffffffffffffffffffffffffffffffffff16600260008360ff168152602001908152602001600020600001600060028110612e15577f4e487b7100000000000000000000000000000000000000000000000000000000600052603260045260246000fd5b0160009054906101000a900473ffffffffffffffffffffffffffffffffffffffff1673ffffffffffffffffffffffffffffffffffffffff16148015612f36575084600160028110612e8f577f4e487b7100000000000000000000000000000000000000000000000000000000600052603260045260246000fd5b602002015173ffffffffffffffffffffffffffffffffffffffff16600260008360ff168152602001908152602001600020600001600160028110612efc577f4e487b7100000000000000000000000000000000000000000000000000000000600052603260045260246000fd5b0160009054906101000a900473ffffffffffffffffffffffffffffffffffffffff1673ffffffffffffffffffffffffffffffffffffffff16145b80613105575084600060028110612f76577f4e487b7100000000000000000000000000000000000000000000000000000000600052603260045260246000fd5b602002015173ffffffffffffffffffffffffffffffffffffffff16600260008360ff168152602001908152602001600020600001600160028110612fe3577f4e487b7100000000000000000000000000000000000000000000000000000000600052603260045260246000fd5b0160009054906101000a900473ffffffffffffffffffffffffffffffffffffffff1673ffffffffffffffffffffffffffffffffffffffff1614801561310457508460016002811061305d577f4e487b7100000000000000000000000000000000000000000000000000000000600052603260045260246000fd5b602002015173ffffffffffffffffffffffffffffffffffffffff16600260008360ff1681526020019081526020016000206000016000600281106130ca577f4e487b7100000000000000000000000000000000000000000000000000000000600052603260045260246000fd5b0160009054906101000a900473ffffffffffffffffffffffffffffffffffffffff1673ffffffffffffffffffffffffffffffffffffffff16145b5b1561320057600193508092508460006002811061314b577f4e487b7100000000000000000000000000000000000000000000000000000000600052603260045260246000fd5b602002015173ffffffffffffffffffffffffffffffffffffffff16600260008360ff1681526020019081526020016000206000016001600281106131b8577f4e487b7100000000000000000000000000000000000000000000000000000000600052603260045260246000fd5b0160009054906101000a900473ffffffffffffffffffffffffffffffffffffffff1673ffffffffffffffffffffffffffffffffffffffff1614156131fb57600091505b613213565b808061320b90614429565b915050612d61565b509193909250565b6000600260008381526020019081526020016000206000016002806020026040519081016040528092919082600280156132a0576020028201915b8160009054906101000a900473ffffffffffffffffffffffffffffffffffffffff1673ffffffffffffffffffffffffffffffffffffffff1681526020019060010190808311613256575b505050505090506003816001600281106132e3577f4e487b7100000000000000000000000000000000000000000000000000000000600052603260045260246000fd5b602002015173ffffffffffffffffffffffffffffffffffffffff1663313ce5676040518163ffffffff1660e01b815260040160206040518083038186803b15801561332d57600080fd5b505afa158015613341573d6000803e3d6000fd5b505050506040513d601f19601f820116820180604052508101906133659190613aa7565b61336f919061433c565b600a61337b9190614190565b600260008481526020019081526020016000206002016000836001600281106133cd577f4e487b7100000000000000000000000000000000000000000000000000000000600052603260045260246000fd5b602002015173ffffffffffffffffffffffffffffffffffffffff1673ffffffffffffffffffffffffffffffffffffffff16815260200190815260200160002054613417919061410c565b600382600060028110613453577f4e487b7100000000000000000000000000000000000000000000000000000000600052603260045260246000fd5b602002015173ffffffffffffffffffffffffffffffffffffffff1663313ce5676040518163ffffffff1660e01b815260040160206040518083038186803b15801561349d57600080fd5b505afa1580156134b1573d6000803e3d6000fd5b505050506040513d601f19601f820116820180604052508101906134d59190613aa7565b6134df919061433c565b600a6134eb9190614190565b6002600085815260200190815260200160002060020160008460006002811061353d577f4e487b7100000000000000000000000000000000000000000000000000000000600052603260045260246000fd5b602002015173ffffffffffffffffffffffffffffffffffffffff1673ffffffffffffffffffffffffffffffffffffffff16815260200190815260200160002054613587919061410c565b61359191906142ae565b60026000848152602001908152602001600020600301819055505050565b6000808573ffffffffffffffffffffffffffffffffffffffff166323b872dd8686866040516024016135e393929190613d35565b6040516020818303038152906040529060e01b6020820180517bffffffffffffffffffffffffffffffffffffffffffffffffffffffff83818316178352505050506040516136319190613cf5565b6000604051808303816000865af19150503d806000811461366e576040519150601f19603f3d011682016040523d82523d6000602084013e613673565b606091505b50915091508180156136a157506000815114806136a057508080602001905181019061369f9190613a2c565b5b5b6136e0576040517f08c379a00000000000000000000000000000000000000000000000000000000081526004016136d790613f30565b60405180910390fd5b505050505050565b8260028101928215613754579160200282015b828111156137535782518260006101000a81548173ffffffffffffffffffffffffffffffffffffffff021916908373ffffffffffffffffffffffffffffffffffffffff160217905550916020019190600101906136fb565b5b5090506137619190613765565b5090565b5b8082111561377e576000816000905550600101613766565b5090565b60006137956137908461400c565b613fe7565b905080828560208602820111156137ab57600080fd5b60005b858110156137db57816137c18882613848565b8452602084019350602083019250506001810190506137ae565b5050509392505050565b60006137f86137f384614032565b613fe7565b9050808285602086028201111561380e57600080fd5b60005b8581101561383e578161382488826138c0565b845260208401935060208301925050600181019050613811565b5050509392505050565b60008135905061385781614739565b92915050565b600082601f83011261386e57600080fd5b600261387b848285613782565b91505092915050565b600082601f83011261389557600080fd5b60026138a28482856137e5565b91505092915050565b6000815190506138ba81614750565b92915050565b6000813590506138cf81614767565b92915050565b6000815190506138e481614767565b92915050565b6000815190506138f98161477e565b92915050565b60006020828403121561391157600080fd5b600061391f84828501613848565b91505092915050565b60006040828403121561393a57600080fd5b60006139488482850161385d565b91505092915050565b6000806080838503121561396457600080fd5b60006139728582860161385d565b925050604061398385828601613884565b9150509250929050565b600080606083850312156139a057600080fd5b60006139ae8582860161385d565b92505060406139bf858286016138c0565b9150509250929050565b60008060008060a085870312156139df57600080fd5b60006139ed8782880161385d565b94505060406139fe878288016138c0565b9350506060613a0f878288016138c0565b9250506080613a20878288016138c0565b91505092959194509250565b600060208284031215613a3e57600080fd5b6000613a4c848285016138ab565b91505092915050565b600060208284031215613a6757600080fd5b6000613a75848285016138c0565b91505092915050565b600060208284031215613a9057600080fd5b6000613a9e848285016138d5565b91505092915050565b600060208284031215613ab957600080fd5b6000613ac7848285016138ea565b91505092915050565b613ad981614370565b82525050565b613ae881614382565b82525050565b6000613af982614058565b613b038185614063565b9350613b138185602086016143c5565b80840191505092915050565b6000613b2c60028361406e565b9150613b37826144fe565b602082019050919050565b6000613b4f601e8361406e565b9150613b5a82614527565b602082019050919050565b6000613b7260178361406e565b9150613b7d82614550565b602082019050919050565b6000613b95601e8361406e565b9150613ba082614579565b602082019050919050565b6000613bb860028361406e565b9150613bc3826145a2565b602082019050919050565b6000613bdb60028361406e565b9150613be6826145cb565b602082019050919050565b6000613bfe60028361406e565b9150613c09826145f4565b602082019050919050565b6000613c2160028361406e565b9150613c2c8261461d565b602082019050919050565b6000613c4460028361406e565b9150613c4f82614646565b602082019050919050565b6000613c6760198361406e565b9150613c728261466f565b602082019050919050565b6000613c8a601b8361406e565b9150613c9582614698565b602082019050919050565b6000613cad601f8361406e565b9150613cb8826146c1565b602082019050919050565b6000613cd060248361406e565b9150613cdb826146ea565b604082019050919050565b613cef816143ae565b82525050565b6000613d018284613aee565b915081905092915050565b6000604082019050613d216000830185613ad0565b613d2e6020830184613ad0565b9392505050565b6000606082019050613d4a6000830186613ad0565b613d576020830185613ad0565b613d646040830184613ce6565b949350505050565b6000604082019050613d816000830185613ad0565b613d8e6020830184613ce6565b9392505050565b6000602082019050613daa6000830184613adf565b92915050565b60006020820190508181036000830152613dc981613b1f565b9050919050565b60006020820190508181036000830152613de981613b42565b9050919050565b60006020820190508181036000830152613e0981613b65565b9050919050565b60006020820190508181036000830152613e2981613b88565b9050919050565b60006020820190508181036000830152613e4981613bab565b9050919050565b60006020820190508181036000830152613e6981613bce565b9050919050565b60006020820190508181036000830152613e8981613bf1565b9050919050565b60006020820190508181036000830152613ea981613c14565b9050919050565b60006020820190508181036000830152613ec981613c37565b9050919050565b60006020820190508181036000830152613ee981613c5a565b9050919050565b60006020820190508181036000830152613f0981613c7d565b9050919050565b60006020820190508181036000830152613f2981613ca0565b9050919050565b60006020820190508181036000830152613f4981613cc3565b9050919050565b6000602082019050613f656000830184613ce6565b92915050565b6000604082019050613f806000830185613ce6565b613f8d6020830184613ce6565b9392505050565b600060a082019050613fa96000830188613ce6565b613fb66020830187613ce6565b613fc36040830186613ce6565b613fd06060830185613ce6565b613fdd6080830184613ce6565b9695505050505050565b6000613ff1614002565b9050613ffd82826143f8565b919050565b6000604051905090565b600067ffffffffffffffff821115614027576140266144b1565b5b602082029050919050565b600067ffffffffffffffff82111561404d5761404c6144b1565b5b602082029050919050565b600081519050919050565b600081905092915050565b600082825260208201905092915050565b600061408a826143ae565b9150614095836143ae565b9250827fffffffffffffffffffffffffffffffffffffffffffffffffffffffffffffffff038211156140ca576140c9614453565b5b828201905092915050565b60006140e0826143b8565b91506140eb836143b8565b92508260ff0382111561410157614100614453565b5b828201905092915050565b6000614117826143ae565b9150614122836143ae565b92508261413257614131614482565b5b828204905092915050565b6000808291508390505b60018511156141875780860481111561416357614162614453565b5b60018516156141725780820291505b8081029050614180856144f1565b9450614147565b94509492505050565b600061419b826143ae565b91506141a6836143b8565b92506141d37fffffffffffffffffffffffffffffffffffffffffffffffffffffffffffffffff84846141db565b905092915050565b6000826141eb57600190506142a7565b816141f957600090506142a7565b816001811461420f576002811461421957614248565b60019150506142a7565b60ff84111561422b5761422a614453565b5b8360020a91508482111561424257614241614453565b5b506142a7565b5060208310610133831016604e8410600b841016171561427d5782820a90508381111561427857614277614453565b5b6142a7565b61428a848484600161413d565b925090508184048111156142a1576142a0614453565b5b81810290505b9392505050565b60006142b9826143ae565b91506142c4836143ae565b9250817fffffffffffffffffffffffffffffffffffffffffffffffffffffffffffffffff04831182151516156142fd576142fc614453565b5b828202905092915050565b6000614313826143ae565b915061431e836143ae565b92508282101561433157614330614453565b5b828203905092915050565b6000614347826143b8565b9150614352836143b8565b92508282101561436557614364614453565b5b828203905092915050565b600061437b8261438e565b9050919050565b60008115159050919050565b600073ffffffffffffffffffffffffffffffffffffffff82169050919050565b6000819050919050565b600060ff82169050919050565b60005b838110156143e35780820151818401526020810190506143c8565b838111156143f2576000848401525b50505050565b614401826144e0565b810181811067ffffffffffffffff821117156144205761441f6144b1565b5b80604052505050565b6000614434826143b8565b915060ff82141561444857614447614453565b5b600182019050919050565b7f4e487b7100000000000000000000000000000000000000000000000000000000600052601160045260246000fd5b7f4e487b7100000000000000000000000000000000000000000000000000000000600052601260045260246000fd5b7f4e487b7100000000000000000000000000000000000000000000000000000000600052604160045260246000fd5b6000601f19601f8301169050919050565b60008160011c9050919050565b7f2d32000000000000000000000000000000000000000000000000000000000000600082015250565b7f466f722063616c6c65722065787065637465642062652063726561746f720000600082015250565b7f496e76616c69642063726561746f722061646472657373000000000000000000600082015250565b7f616d6f756e74496e206d757374206265206c6172676572207468616e20300000600082015250565b7f2d33000000000000000000000000000000000000000000000000000000000000600082015250565b7f2d34000000000000000000000000000000000000000000000000000000000000600082015250565b7f2d31000000000000000000000000000000000000000000000000000000000000600082015250565b7f2d35000000000000000000000000000000000000000000000000000000000000600082015250565b7f2d36000000000000000000000000000000000000000000000000000000000000600082015250565b7f4578706563746564206e6f6e2d7a65726f206164647265737300000000000000600082015250565b7f4e6f742065786973742073756368206120746f6b656e20706169720000000000600082015250565b7f616d6f756e744f7574206d757374206265206c6172676572207468616e203000600082015250565b7f5472616e7366657248656c7065723a205452414e534645525f46524f4d5f464160008201527f494c454400000000000000000000000000000000000000000000000000000000602082015250565b61474281614370565b811461474d57600080fd5b50565b61475981614382565b811461476457600080fd5b50565b614770816143ae565b811461477b57600080fd5b50565b614787816143b8565b811461479257600080fd5b5056fea26469706673582212204c2d66cdf8b582959599125c7961bbe87d48971f0aa7730b9586e0c6c1c7daf564736f6c63430008040033",
  "immutableReferences": {},
  "source": "// SPDX-License-Identifier: MIT\r\npragma solidity ^0.8.0;\r\nimport \"@openzeppelin/contracts/token/ERC20/IERC20.sol\"; // openzeppelin 4.5 (for solidity 0.8.x)\r\nimport '@uniswap/lib/contracts/libraries/TransferHelper.sol';\r\nimport './OcxAdmin.sol';\r\nimport './interface/IOcxERC20.sol';\r\nimport './common/OcxCommon.sol';\r\n\r\ncontract OcxLocalPool is OcxAdmin {\r\n\r\n    struct Pool {\r\n        address[2] tokenPair;\r\n        mapping(address => uint256) amounts;\r\n        uint256 k;\r\n        uint256 prevK;\r\n        address[2] quoteOrder;\r\n        uint256 prevQuote;\r\n        uint256 quoteOrig;\r\n        uint256 quote;\r\n    }\r\n\r\n    // struct PoolShare {\r\n    //     uint8 poolIndex;\r\n    //     uint256[2] amounts;\r\n    // }\r\n\r\n    mapping(uint256 => Pool) public poolList;\r\n    uint256                  public poolCount;\r\n    // mapping(address => PoolShare[]) public poolShare;\r\n\r\n    receive() external payable {}\r\n\r\n    constructor() {\r\n    }\r\n\r\n    function _getPoolIndex(address[2] memory tokenPair) \r\n    internal view \r\n    returns (bool bFound, uint8 poolIndex, bool isInTurn)  {\r\n        bFound = false;\r\n        poolIndex = 0;\r\n        isInTurn = true;\r\n        for (uint8 i = 0; i < poolCount; i++) {\r\n            if ((poolList[i].tokenPair[0] == tokenPair[0] && poolList[i].tokenPair[1] == tokenPair[1]) \r\n            || (poolList[i].tokenPair[1] == tokenPair[0] && poolList[i].tokenPair[0] == tokenPair[1])) {\r\n                bFound = true;\r\n                poolIndex = i;\r\n                if (poolList[i].tokenPair[1] == tokenPair[0]) {\r\n                    isInTurn = false;\r\n                }\r\n                break;\r\n            }\r\n        }\r\n    }\r\n\r\n    function _updateK(uint256 poolIndex) internal {\r\n        address[2] memory tkAddress = poolList[poolIndex].tokenPair;\r\n        poolList[poolIndex].k = (poolList[poolIndex].amounts[tkAddress[0]] / (10 ** (IOcxERC20(tkAddress[0]).decimals() - 3))) \r\n                                * (poolList[poolIndex].amounts[tkAddress[1]] / (10 ** (IOcxERC20(tkAddress[1]).decimals() - 3)));\r\n    }\r\n\r\n    /*\r\n     * Error: \r\n     *      -1: OcxLocalPool.swap(): Invalid ETH amount\r\n     *      -2: OcxLocalPool.swap(): No pool for ETH-OCAT\r\n     *      -3: OcxLocalPool.swap(): No balance for OCAT in the pool\r\n     *      -4: OcxLocalPool.swap(): Insufficient balance for output of path[1]\r\n     *      -5: OcxLocalPool.swap(): Insufficient allowance for path[0]\r\n     */\r\n    function swap(\r\n                address[2] memory path,\r\n                uint256 amountIn, \r\n                uint256 amountOutMin, \r\n                uint256 ) \r\n    public payable \r\n    onlyValidAddress(path[0]) onlyValidAddress(path[1]) {\r\n        require(amountIn > 0, \"-1\");\r\n        // Find the ETH/OCAT pool\r\n        (bool bFound, uint8 poolIndex, ) = _getPoolIndex(path);\r\n        // Check if the pool exists\r\n        require(bFound, \"-2\");\r\n        // Get ETH balance in the pool\r\n        // Ensure that OCAT balance is more than 0\r\n        require(amountOutMin >= 0, \"-3\");\r\n        // Ensure that OCAT balance >= amountOutMin\r\n        uint256 amountOut = getAmountOutWithExactAmountIn(path, amountIn);\r\n        require(amountOut >= amountOutMin, \"-4\");\r\n\r\n        // Transfer ETH from the sender\r\n        // First check allowance of ETH amount from the sender\r\n        uint256 allowance = IERC20(path[0]).allowance(msg.sender, address(this));\r\n        require(allowance >= amountIn, \"-5\");\r\n        // Transfer ETH from the sender\r\n        TransferHelper.safeTransferFrom(path[0], msg.sender, address(this), amountIn);\r\n        // // Transfer OCAT to the sender\r\n        IERC20(path[1]).transfer(msg.sender, amountOut);\r\n\r\n        // Update the quote for the pool\r\n        poolList[poolIndex].amounts[path[0]] += amountIn;\r\n        poolList[poolIndex].amounts[path[1]] -= amountOut;\r\n        poolList[poolIndex].prevQuote = poolList[poolIndex].quote;\r\n        poolList[poolIndex].quote = \r\n            (poolList[poolIndex].amounts[poolList[poolIndex].quoteOrder[0]] * \r\n                                                        (10 ** QUOTE_DECIMALS)) / \r\n            poolList[poolIndex].amounts[poolList[poolIndex].quoteOrder[1]];\r\n        // Update the K for the pool\r\n        _updateK(poolIndex);\r\n    }\r\n\r\n    function getQuote(address[2] memory path) public view\r\n    returns (uint256 value, uint256 decimals) {\r\n        (bool bExist, uint8 poolIndex, bool isInTurn) = _getPoolIndex(path);\r\n        require(bExist, \"Not exist such a token pair\");\r\n        value = poolList[poolIndex].quote;\r\n        if (!isInTurn) {\r\n            value = (QUOTE_MULTIPLIER ** 2) / poolList[poolIndex].quote;\r\n        }\r\n        decimals = QUOTE_DECIMALS;\r\n    }\r\n\r\n    function getAmountOutWithExactAmountIn(address[2] memory path, uint256 amountIn) public view\r\n    returns (uint256 amountOut) {\r\n        require(amountIn > 0, \"amountIn must be larger than 0\");\r\n        (bool bExist, uint8 poolIndex, bool isInTurn) = _getPoolIndex(path);\r\n        require(bExist, \"Not exist such a token pair\");\r\n        uint256 newToken0Balance = poolList[poolIndex].amounts[path[0]] + amountIn;\r\n        newToken0Balance = newToken0Balance / (10**(IOcxERC20(path[0]).decimals() - 3));\r\n        uint256 oldToken1Balance = poolList[poolIndex].amounts[path[1]] / \r\n                                   ( 10**(IOcxERC20(path[1]).decimals() - 3) );\r\n        amountOut = oldToken1Balance - poolList[poolIndex].k / newToken0Balance;\r\n        amountOut = amountOut * (10**(IOcxERC20(path[1]).decimals() - 3));\r\n    }\r\n\r\n    function getExactAmountOut(address[2] memory path, uint256 amountOut) public view\r\n    returns (uint256 amountIn) {\r\n        require(amountOut > 0, \"amountOut must be larger than 0\");\r\n        (bool bExist, uint8 poolIndex, bool isInTurn) = _getPoolIndex(path);\r\n        require(bExist, \"Not exist such a token pair\");\r\n        amountIn = poolList[poolIndex].k / (poolList[poolIndex].amounts[path[1]] \r\n                                            - amountOut / (10**(IOcxERC20(path[0]).decimals() - 3)))\r\n                    - poolList[poolIndex].amounts[path[0]];\r\n        amountIn = amountIn * (10**(IOcxERC20(path[0]).decimals() - 3));\r\n    }\r\n\r\n    /*\r\n     * Error: \r\n     *      -1: OcxLocalPool.addLiquidity(): Same tokenPair\r\n     *      -2: OcxLocalPool.addLiquidity(): Invalid amount for first token\r\n     *      -3: OcxLocalPool.addLiquidity(): Invalid amount for second token\r\n     *      -4: OcxLocalPool.addLiquidity(): Invalid quote\r\n     *      -5: OcxLocalPool.swap(): Insufficient allowance for first token\r\n     *      -6: OcxLocalPool.swap(): Insufficient allowance for second token\r\n     */\r\n    function addLiquidity(\r\n        address[2] memory tokenPair, \r\n        uint256[2] memory amounts\r\n    ) public \r\n    onlyCreator onlyValidAddress(tokenPair[0]) onlyValidAddress(tokenPair[1]) {\r\n\r\n        require(tokenPair[0] != tokenPair[1], \"-1\");\r\n        require(amounts[0] > 0, \"-2\");\r\n        require(amounts[1] > 0, \"-3\");\r\n\r\n        (bool bExist, uint8 poolIndex, bool isInTurn) = _getPoolIndex(tokenPair);\r\n        if (!bExist) {\r\n            address[2] memory quoteOrder = tokenPair;\r\n            if (amounts[0] < amounts[1]) {\r\n                quoteOrder = [tokenPair[1], tokenPair[0]];\r\n            }\r\n            poolList[poolCount].tokenPair = tokenPair;\r\n            poolList[poolCount].amounts[tokenPair[0]] = amounts[0];\r\n            poolList[poolCount].amounts[tokenPair[1]] = amounts[1];\r\n            _updateK(poolCount);\r\n            poolList[poolCount].prevK = 0;\r\n            poolList[poolCount].quoteOrder = quoteOrder;\r\n            poolList[poolCount].quoteOrig = \r\n                uint256(\r\n                    (poolList[poolCount].amounts[quoteOrder[0]] * QUOTE_MULTIPLIER ) / \r\n                    poolList[poolCount].amounts[quoteOrder[1]]\r\n                );\r\n            poolList[poolCount].quote = poolList[poolCount].quoteOrig;\r\n            poolList[poolCount].prevQuote = 0;\r\n            poolCount += 1;\r\n        } else {\r\n            // If order for token in parameter in against pool is revered, swap\r\n            if (!isInTurn) {\r\n                address tmpToken = tokenPair[0];\r\n                tokenPair[0] = tokenPair[1];\r\n                tokenPair[1] = tmpToken;\r\n                uint256 tmpAmount = amounts[0];\r\n                amounts[0] = amounts[1];\r\n                amounts[1] = tmpAmount;\r\n            }\r\n            // Check quote\r\n            uint256 quote = uint256(\r\n                (poolList[poolIndex].amounts[poolList[poolIndex].quoteOrder[0]] * QUOTE_MULTIPLIER) / \r\n                poolList[poolIndex].amounts[poolList[poolIndex].quoteOrder[1]]\r\n            );\r\n            uint256 quoteRate = uint256((quote * QUOTE_MULTIPLIER) / poolList[poolIndex].quoteOrig);\r\n            // Check if new quote >= 98% and <= 102%\r\n            require(\r\n                quoteRate > 980 * (10 ** (QUOTE_DECIMALS - 3)) && \r\n                quoteRate < 1020 * (10 ** (QUOTE_DECIMALS - 3)), \r\n                \"-4\"\r\n            );\r\n            // Update pool\r\n            poolList[poolIndex].amounts[tokenPair[0]] += amounts[0];\r\n            poolList[poolIndex].amounts[tokenPair[1]] += amounts[1];\r\n            poolList[poolIndex].prevK = poolList[poolIndex].k;\r\n            _updateK(poolIndex);\r\n            poolList[poolIndex].prevQuote = poolList[poolIndex].quote;\r\n            poolList[poolIndex].quote = uint256(\r\n                (poolList[poolIndex].amounts[poolList[poolIndex].quoteOrder[0]] * QUOTE_MULTIPLIER) / \r\n                poolList[poolIndex].amounts[poolList[poolIndex].quoteOrder[1]]\r\n            );\r\n        }\r\n        // Receive path[0] as amount\r\n        uint256 allowance = IERC20(tokenPair[0]).allowance(msg.sender, address(this));\r\n        require(allowance >= amounts[0], \"-5\");\r\n        // Transfer path[0] from the sender\r\n        TransferHelper.safeTransferFrom(tokenPair[0], msg.sender, address(this), amounts[0]);\r\n        // Receive path[1] as amount\r\n        allowance = IERC20(tokenPair[1]).allowance(msg.sender, address(this));\r\n        require(allowance >= amounts[1], \"-6\");\r\n        // Transfer path[1] from the sender\r\n        TransferHelper.safeTransferFrom(tokenPair[1], msg.sender, address(this), amounts[1]);\r\n        // // Update pool share\r\n        // bExist = false;\r\n        // for (uint i = 0; i < poolShare[msg.sender].length; i++) {\r\n        //     if (poolIndex == poolShare[msg.sender][i].poolIndex) {\r\n        //         poolShare[msg.sender][i].amounts[0] += amounts[0];\r\n        //         poolShare[msg.sender][i].amounts[1] += amounts[1];\r\n        //         bExist = true;\r\n        //         break;\r\n        //     }\r\n        // }\r\n        // if (!bExist) {\r\n        //     poolShare[msg.sender].push(PoolShare(poolIndex, amounts));\r\n        // }\r\n\r\n        // Mint LP token to return\r\n        // ...\r\n        // Transfer ETH and OCAT amounts from the sender\r\n        // ...\r\n    }\r\n}\r\n",
  "sourcePath": "E:\\Work\\OpenchainTestVersion\\server\\contracts\\OcxLocalPool.sol",
  "compiler": {
    "name": "solc",
    "version": "0.8.4+commit.c7e474f2.Emscripten.clang"
  },
  "schemaVersion": "3.4.7",
  "updatedAt": "2022-05-05T00:02:32.825Z",
  "devdoc": {
    "kind": "dev",
    "methods": {},
    "version": 1
  },
  "userdoc": {
    "kind": "user",
    "methods": {},
    "version": 1
  }
}