{
  "contractName": "OcxLPToken",
  "abi": [
    {
      "inputs": [],
      "stateMutability": "nonpayable",
      "type": "constructor"
    },
    {
      "anonymous": false,
      "inputs": [
        {
          "indexed": true,
          "internalType": "address",
          "name": "owner",
          "type": "address"
        },
        {
          "indexed": true,
          "internalType": "address",
          "name": "spender",
          "type": "address"
        },
        {
          "indexed": false,
          "internalType": "uint256",
          "name": "value",
          "type": "uint256"
        }
      ],
      "name": "Approval",
      "type": "event"
    },
    {
      "anonymous": false,
      "inputs": [
        {
          "indexed": true,
          "internalType": "address",
          "name": "from",
          "type": "address"
        },
        {
          "indexed": true,
          "internalType": "address",
          "name": "to",
          "type": "address"
        },
        {
          "indexed": false,
          "internalType": "uint256",
          "name": "value",
          "type": "uint256"
        }
      ],
      "name": "Transfer",
      "type": "event"
    },
    {
      "inputs": [
        {
          "internalType": "address",
          "name": "owner",
          "type": "address"
        },
        {
          "internalType": "address",
          "name": "spender",
          "type": "address"
        }
      ],
      "name": "allowance",
      "outputs": [
        {
          "internalType": "uint256",
          "name": "",
          "type": "uint256"
        }
      ],
      "stateMutability": "view",
      "type": "function"
    },
    {
      "inputs": [
        {
          "internalType": "address",
          "name": "spender",
          "type": "address"
        },
        {
          "internalType": "uint256",
          "name": "amount",
          "type": "uint256"
        }
      ],
      "name": "approve",
      "outputs": [
        {
          "internalType": "bool",
          "name": "",
          "type": "bool"
        }
      ],
      "stateMutability": "nonpayable",
      "type": "function"
    },
    {
      "inputs": [
        {
          "internalType": "address",
          "name": "account",
          "type": "address"
        }
      ],
      "name": "balanceOf",
      "outputs": [
        {
          "internalType": "uint256",
          "name": "",
          "type": "uint256"
        }
      ],
      "stateMutability": "view",
      "type": "function"
    },
    {
      "inputs": [
        {
          "internalType": "address",
          "name": "spender",
          "type": "address"
        },
        {
          "internalType": "uint256",
          "name": "subtractedValue",
          "type": "uint256"
        }
      ],
      "name": "decreaseAllowance",
      "outputs": [
        {
          "internalType": "bool",
          "name": "",
          "type": "bool"
        }
      ],
      "stateMutability": "nonpayable",
      "type": "function"
    },
    {
      "inputs": [
        {
          "internalType": "address",
          "name": "spender",
          "type": "address"
        },
        {
          "internalType": "uint256",
          "name": "addedValue",
          "type": "uint256"
        }
      ],
      "name": "increaseAllowance",
      "outputs": [
        {
          "internalType": "bool",
          "name": "",
          "type": "bool"
        }
      ],
      "stateMutability": "nonpayable",
      "type": "function"
    },
    {
      "inputs": [],
      "name": "name",
      "outputs": [
        {
          "internalType": "string",
          "name": "",
          "type": "string"
        }
      ],
      "stateMutability": "view",
      "type": "function"
    },
    {
      "inputs": [],
      "name": "symbol",
      "outputs": [
        {
          "internalType": "string",
          "name": "",
          "type": "string"
        }
      ],
      "stateMutability": "view",
      "type": "function"
    },
    {
      "inputs": [],
      "name": "totalSupply",
      "outputs": [
        {
          "internalType": "uint256",
          "name": "",
          "type": "uint256"
        }
      ],
      "stateMutability": "view",
      "type": "function"
    },
    {
      "inputs": [
        {
          "internalType": "address",
          "name": "to",
          "type": "address"
        },
        {
          "internalType": "uint256",
          "name": "amount",
          "type": "uint256"
        }
      ],
      "name": "transfer",
      "outputs": [
        {
          "internalType": "bool",
          "name": "",
          "type": "bool"
        }
      ],
      "stateMutability": "nonpayable",
      "type": "function"
    },
    {
      "inputs": [
        {
          "internalType": "address",
          "name": "from",
          "type": "address"
        },
        {
          "internalType": "address",
          "name": "to",
          "type": "address"
        },
        {
          "internalType": "uint256",
          "name": "amount",
          "type": "uint256"
        }
      ],
      "name": "transferFrom",
      "outputs": [
        {
          "internalType": "bool",
          "name": "",
          "type": "bool"
        }
      ],
      "stateMutability": "nonpayable",
      "type": "function"
    },
    {
      "stateMutability": "payable",
      "type": "receive"
    },
    {
      "inputs": [
        {
          "internalType": "address payable",
          "name": "poolAddress",
          "type": "address"
        }
      ],
      "name": "setOcxPoolAddress",
      "outputs": [],
      "stateMutability": "nonpayable",
      "type": "function"
    },
    {
      "inputs": [
        {
          "internalType": "address payable",
          "name": "to",
          "type": "address"
        },
        {
          "internalType": "uint256",
          "name": "amount",
          "type": "uint256"
        }
      ],
      "name": "mint",
      "outputs": [
        {
          "internalType": "bool",
          "name": "",
          "type": "bool"
        }
      ],
      "stateMutability": "nonpayable",
      "type": "function"
    },
    {
      "inputs": [],
      "name": "decimals",
      "outputs": [
        {
          "internalType": "uint8",
          "name": "",
          "type": "uint8"
        }
      ],
      "stateMutability": "view",
      "type": "function"
    }
  ],
  "bytecode": "0x60806040523480156200001157600080fd5b5060405180606001604052806033815260200162001d3d603391396040518060400160405280600581526020017f4f43584c5000000000000000000000000000000000000000000000000000000081525081600390805190602001906200007a929190620000f9565b50806004908051906020019062000093929190620000f9565b50505033600660006101000a81548173ffffffffffffffffffffffffffffffffffffffff021916908373ffffffffffffffffffffffffffffffffffffffff1602179055506003600660146101000a81548160ff021916908360ff1602179055506200020e565b8280546200010790620001a9565b90600052602060002090601f0160209004810192826200012b576000855562000177565b82601f106200014657805160ff191683800117855562000177565b8280016001018555821562000177579182015b828111156200017657825182559160200191906001019062000159565b5b5090506200018691906200018a565b5090565b5b80821115620001a55760008160009055506001016200018b565b5090565b60006002820490506001821680620001c257607f821691505b60208210811415620001d957620001d8620001df565b5b50919050565b7f4e487b7100000000000000000000000000000000000000000000000000000000600052602260045260246000fd5b611b1f806200021e6000396000f3fe6080604052600436106100c65760003560e01c806340c10f191161007f578063a457c2d711610059578063a457c2d7146102af578063a9059cbb146102ec578063d14ce3ca14610329578063dd62ed3e14610352576100cd565b806340c10f191461020a57806370a082311461024757806395d89b4114610284576100cd565b806306fdde03146100d2578063095ea7b3146100fd57806318160ddd1461013a57806323b872dd14610165578063313ce567146101a257806339509351146101cd576100cd565b366100cd57005b600080fd5b3480156100de57600080fd5b506100e761038f565b6040516100f49190611309565b60405180910390f35b34801561010957600080fd5b50610124600480360381019061011f91906110ee565b610421565b60405161013191906112ee565b60405180910390f35b34801561014657600080fd5b5061014f610444565b60405161015c919061146b565b60405180910390f35b34801561017157600080fd5b5061018c6004803603810190610187919061109f565b61044e565b60405161019991906112ee565b60405180910390f35b3480156101ae57600080fd5b506101b761047d565b6040516101c49190611486565b60405180910390f35b3480156101d957600080fd5b506101f460048036038101906101ef91906110ee565b610494565b60405161020191906112ee565b60405180910390f35b34801561021657600080fd5b50610231600480360381019061022c9190611027565b61053e565b60405161023e91906112ee565b60405180910390f35b34801561025357600080fd5b5061026e60048036038101906102699190610fd5565b61060a565b60405161027b919061146b565b60405180910390f35b34801561029057600080fd5b50610299610652565b6040516102a69190611309565b60405180910390f35b3480156102bb57600080fd5b506102d660048036038101906102d191906110ee565b6106e4565b6040516102e391906112ee565b60405180910390f35b3480156102f857600080fd5b50610313600480360381019061030e91906110ee565b6107ce565b60405161032091906112ee565b60405180910390f35b34801561033557600080fd5b50610350600480360381019061034b9190610ffe565b6107f1565b005b34801561035e57600080fd5b5061037960048036038101906103749190611063565b6108c5565b604051610386919061146b565b60405180910390f35b60606003805461039e90611778565b80601f01602080910402602001604051908101604052809291908181526020018280546103ca90611778565b80156104175780601f106103ec57610100808354040283529160200191610417565b820191906000526020600020905b8154815290600101906020018083116103fa57829003601f168201915b5050505050905090565b60008061042c61094c565b9050610439818585610954565b600191505092915050565b6000600254905090565b60008061045961094c565b9050610466858285610b1f565b610471858585610bab565b60019150509392505050565b6000600660149054906101000a900460ff16905090565b60008061049f61094c565b9050610533818585600160008673ffffffffffffffffffffffffffffffffffffffff1673ffffffffffffffffffffffffffffffffffffffff16815260200190815260200160002060008973ffffffffffffffffffffffffffffffffffffffff1673ffffffffffffffffffffffffffffffffffffffff1681526020019081526020016000205461052e91906114bd565b610954565b600191505092915050565b6000600560009054906101000a900473ffffffffffffffffffffffffffffffffffffffff1673ffffffffffffffffffffffffffffffffffffffff163373ffffffffffffffffffffffffffffffffffffffff16146105d0576040517f08c379a00000000000000000000000000000000000000000000000000000000081526004016105c7906113cb565b60405180910390fd5b61060083600660149054906101000a900460ff16600a6105f09190611566565b846105fb9190611684565b610e2c565b6001905092915050565b60008060008373ffffffffffffffffffffffffffffffffffffffff1673ffffffffffffffffffffffffffffffffffffffff168152602001908152602001600020549050919050565b60606004805461066190611778565b80601f016020809104026020016040519081016040528092919081815260200182805461068d90611778565b80156106da5780601f106106af576101008083540402835291602001916106da565b820191906000526020600020905b8154815290600101906020018083116106bd57829003601f168201915b5050505050905090565b6000806106ef61094c565b90506000600160008373ffffffffffffffffffffffffffffffffffffffff1673ffffffffffffffffffffffffffffffffffffffff16815260200190815260200160002060008673ffffffffffffffffffffffffffffffffffffffff1673ffffffffffffffffffffffffffffffffffffffff168152602001908152602001600020549050838110156107b5576040517f08c379a00000000000000000000000000000000000000000000000000000000081526004016107ac9061142b565b60405180910390fd5b6107c28286868403610954565b60019250505092915050565b6000806107d961094c565b90506107e6818585610bab565b600191505092915050565b600660009054906101000a900473ffffffffffffffffffffffffffffffffffffffff1673ffffffffffffffffffffffffffffffffffffffff163373ffffffffffffffffffffffffffffffffffffffff1614610881576040517f08c379a0000000000000000000000000000000000000000000000000000000008152600401610878906113ab565b60405180910390fd5b80600560006101000a81548173ffffffffffffffffffffffffffffffffffffffff021916908373ffffffffffffffffffffffffffffffffffffffff16021790555050565b6000600160008473ffffffffffffffffffffffffffffffffffffffff1673ffffffffffffffffffffffffffffffffffffffff16815260200190815260200160002060008373ffffffffffffffffffffffffffffffffffffffff1673ffffffffffffffffffffffffffffffffffffffff16815260200190815260200160002054905092915050565b600033905090565b600073ffffffffffffffffffffffffffffffffffffffff168373ffffffffffffffffffffffffffffffffffffffff1614156109c4576040517f08c379a00000000000000000000000000000000000000000000000000000000081526004016109bb9061140b565b60405180910390fd5b600073ffffffffffffffffffffffffffffffffffffffff168273ffffffffffffffffffffffffffffffffffffffff161415610a34576040517f08c379a0000000000000000000000000000000000000000000000000000000008152600401610a2b9061134b565b60405180910390fd5b80600160008573ffffffffffffffffffffffffffffffffffffffff1673ffffffffffffffffffffffffffffffffffffffff16815260200190815260200160002060008473ffffffffffffffffffffffffffffffffffffffff1673ffffffffffffffffffffffffffffffffffffffff168152602001908152602001600020819055508173ffffffffffffffffffffffffffffffffffffffff168373ffffffffffffffffffffffffffffffffffffffff167f8c5be1e5ebec7d5bd14f71427d1e84f3dd0314c0f7b2291e5b200ac8c7c3b92583604051610b12919061146b565b60405180910390a3505050565b6000610b2b84846108c5565b90507fffffffffffffffffffffffffffffffffffffffffffffffffffffffffffffffff8114610ba55781811015610b97576040517f08c379a0000000000000000000000000000000000000000000000000000000008152600401610b8e9061136b565b60405180910390fd5b610ba48484848403610954565b5b50505050565b600073ffffffffffffffffffffffffffffffffffffffff168373ffffffffffffffffffffffffffffffffffffffff161415610c1b576040517f08c379a0000000000000000000000000000000000000000000000000000000008152600401610c12906113eb565b60405180910390fd5b600073ffffffffffffffffffffffffffffffffffffffff168273ffffffffffffffffffffffffffffffffffffffff161415610c8b576040517f08c379a0000000000000000000000000000000000000000000000000000000008152600401610c829061132b565b60405180910390fd5b610c96838383610f8c565b60008060008573ffffffffffffffffffffffffffffffffffffffff1673ffffffffffffffffffffffffffffffffffffffff16815260200190815260200160002054905081811015610d1c576040517f08c379a0000000000000000000000000000000000000000000000000000000008152600401610d139061138b565b60405180910390fd5b8181036000808673ffffffffffffffffffffffffffffffffffffffff1673ffffffffffffffffffffffffffffffffffffffff16815260200190815260200160002081905550816000808573ffffffffffffffffffffffffffffffffffffffff1673ffffffffffffffffffffffffffffffffffffffff1681526020019081526020016000206000828254610daf91906114bd565b925050819055508273ffffffffffffffffffffffffffffffffffffffff168473ffffffffffffffffffffffffffffffffffffffff167fddf252ad1be2c89b69c2b068fc378daa952ba7f163c4a11628f55a4df523b3ef84604051610e13919061146b565b60405180910390a3610e26848484610f91565b50505050565b600073ffffffffffffffffffffffffffffffffffffffff168273ffffffffffffffffffffffffffffffffffffffff161415610e9c576040517f08c379a0000000000000000000000000000000000000000000000000000000008152600401610e939061144b565b60405180910390fd5b610ea860008383610f8c565b8060026000828254610eba91906114bd565b92505081905550806000808473ffffffffffffffffffffffffffffffffffffffff1673ffffffffffffffffffffffffffffffffffffffff1681526020019081526020016000206000828254610f0f91906114bd565b925050819055508173ffffffffffffffffffffffffffffffffffffffff16600073ffffffffffffffffffffffffffffffffffffffff167fddf252ad1be2c89b69c2b068fc378daa952ba7f163c4a11628f55a4df523b3ef83604051610f74919061146b565b60405180910390a3610f8860008383610f91565b5050565b505050565b505050565b600081359050610fa581611aa4565b92915050565b600081359050610fba81611abb565b92915050565b600081359050610fcf81611ad2565b92915050565b600060208284031215610fe757600080fd5b6000610ff584828501610f96565b91505092915050565b60006020828403121561101057600080fd5b600061101e84828501610fab565b91505092915050565b6000806040838503121561103a57600080fd5b600061104885828601610fab565b925050602061105985828601610fc0565b9150509250929050565b6000806040838503121561107657600080fd5b600061108485828601610f96565b925050602061109585828601610f96565b9150509250929050565b6000806000606084860312156110b457600080fd5b60006110c286828701610f96565b93505060206110d386828701610f96565b92505060406110e486828701610fc0565b9150509250925092565b6000806040838503121561110157600080fd5b600061110f85828601610f96565b925050602061112085828601610fc0565b9150509250929050565b61113381611702565b82525050565b6000611144826114a1565b61114e81856114ac565b935061115e818560208601611745565b61116781611808565b840191505092915050565b600061117f6023836114ac565b915061118a82611826565b604082019050919050565b60006111a26022836114ac565b91506111ad82611875565b604082019050919050565b60006111c5601d836114ac565b91506111d0826118c4565b602082019050919050565b60006111e86026836114ac565b91506111f3826118ed565b604082019050919050565b600061120b600e836114ac565b91506112168261193c565b602082019050919050565b600061122e600e836114ac565b915061123982611965565b602082019050919050565b60006112516025836114ac565b915061125c8261198e565b604082019050919050565b60006112746024836114ac565b915061127f826119dd565b604082019050919050565b60006112976025836114ac565b91506112a282611a2c565b604082019050919050565b60006112ba601f836114ac565b91506112c582611a7b565b602082019050919050565b6112d98161172e565b82525050565b6112e881611738565b82525050565b6000602082019050611303600083018461112a565b92915050565b600060208201905081810360008301526113238184611139565b905092915050565b6000602082019050818103600083015261134481611172565b9050919050565b6000602082019050818103600083015261136481611195565b9050919050565b60006020820190508181036000830152611384816111b8565b9050919050565b600060208201905081810360008301526113a4816111db565b9050919050565b600060208201905081810360008301526113c4816111fe565b9050919050565b600060208201905081810360008301526113e481611221565b9050919050565b6000602082019050818103600083015261140481611244565b9050919050565b6000602082019050818103600083015261142481611267565b9050919050565b600060208201905081810360008301526114448161128a565b9050919050565b60006020820190508181036000830152611464816112ad565b9050919050565b600060208201905061148060008301846112d0565b92915050565b600060208201905061149b60008301846112df565b92915050565b600081519050919050565b600082825260208201905092915050565b60006114c88261172e565b91506114d38361172e565b9250827fffffffffffffffffffffffffffffffffffffffffffffffffffffffffffffffff03821115611508576115076117aa565b5b828201905092915050565b6000808291508390505b600185111561155d57808604811115611539576115386117aa565b5b60018516156115485780820291505b808102905061155685611819565b945061151d565b94509492505050565b60006115718261172e565b915061157c83611738565b92506115a97fffffffffffffffffffffffffffffffffffffffffffffffffffffffffffffffff84846115b1565b905092915050565b6000826115c1576001905061167d565b816115cf576000905061167d565b81600181146115e557600281146115ef5761161e565b600191505061167d565b60ff841115611601576116006117aa565b5b8360020a915084821115611618576116176117aa565b5b5061167d565b5060208310610133831016604e8410600b84101617156116535782820a90508381111561164e5761164d6117aa565b5b61167d565b6116608484846001611513565b92509050818404811115611677576116766117aa565b5b81810290505b9392505050565b600061168f8261172e565b915061169a8361172e565b9250817fffffffffffffffffffffffffffffffffffffffffffffffffffffffffffffffff04831182151516156116d3576116d26117aa565b5b828202905092915050565b60006116e98261170e565b9050919050565b60006116fb8261170e565b9050919050565b60008115159050919050565b600073ffffffffffffffffffffffffffffffffffffffff82169050919050565b6000819050919050565b600060ff82169050919050565b60005b83811015611763578082015181840152602081019050611748565b83811115611772576000848401525b50505050565b6000600282049050600182168061179057607f821691505b602082108114156117a4576117a36117d9565b5b50919050565b7f4e487b7100000000000000000000000000000000000000000000000000000000600052601160045260246000fd5b7f4e487b7100000000000000000000000000000000000000000000000000000000600052602260045260246000fd5b6000601f19601f8301169050919050565b60008160011c9050919050565b7f45524332303a207472616e7366657220746f20746865207a65726f206164647260008201527f6573730000000000000000000000000000000000000000000000000000000000602082015250565b7f45524332303a20617070726f766520746f20746865207a65726f20616464726560008201527f7373000000000000000000000000000000000000000000000000000000000000602082015250565b7f45524332303a20696e73756666696369656e7420616c6c6f77616e6365000000600082015250565b7f45524332303a207472616e7366657220616d6f756e742065786365656473206260008201527f616c616e63650000000000000000000000000000000000000000000000000000602082015250565b7f496e76616c69642073656e646572000000000000000000000000000000000000600082015250565b7f496e76616c6964206d696e746572000000000000000000000000000000000000600082015250565b7f45524332303a207472616e736665722066726f6d20746865207a65726f20616460008201527f6472657373000000000000000000000000000000000000000000000000000000602082015250565b7f45524332303a20617070726f76652066726f6d20746865207a65726f2061646460008201527f7265737300000000000000000000000000000000000000000000000000000000602082015250565b7f45524332303a2064656372656173656420616c6c6f77616e63652062656c6f7760008201527f207a65726f000000000000000000000000000000000000000000000000000000602082015250565b7f45524332303a206d696e7420746f20746865207a65726f206164647265737300600082015250565b611aad816116de565b8114611ab857600080fd5b50565b611ac4816116f0565b8114611acf57600080fd5b50565b611adb8161172e565b8114611ae657600080fd5b5056fea2646970667358221220dc09371849867487d1e5d0e5b921d92754f2cedc16a5ce897defe63dfad6b8e464736f6c634300080400334c69717569646974792050726f766964657220436f696e20666f72204f70656e636861696e446578204c6f63616c20506f6f6c",
  "immutableReferences": {},
  "source": "// SPDX-License-Identifier: MIT\npragma solidity ^0.8.0;\n\nimport \"@openzeppelin/contracts/token/ERC20/ERC20.sol\";\n\ncontract OcxLPToken is ERC20 {\n\n    address payable private ocxPool;\n    address payable private creator;\n    uint8           private _decimals;\n\n    receive() external payable {}\n\n    constructor() ERC20(\"Liquidity Provider Coin for OpenchainDex Local Pool\", \"OCXLP\") {\n        creator = payable(msg.sender);\n        _decimals = 3;\n    }\n\n    function setOcxPoolAddress(address payable poolAddress) public {\n        require(msg.sender == creator , \"Invalid sender\");\n        ocxPool = poolAddress;\n    }\n\n    function mint(address payable to, uint256 amount) public returns(bool) {\n        require(msg.sender == ocxPool, \"Invalid minter\");\n        super._mint(to, amount * (10 ** _decimals));\n        return true;\n    }\n\n    function decimals() public view virtual override returns (uint8) {\n        return _decimals;\n    }\n    /**\n    * Custom accessor to create a unique token\n    */\n}\n",
  "sourcePath": "/home/cowboy/OpenchainTestVersion/server/contracts/OcxLPToken.sol",
  "compiler": {
    "name": "solc",
    "version": "0.8.4+commit.c7e474f2.Emscripten.clang"
  },
  "schemaVersion": "3.4.6",
  "updatedAt": "2022-04-13T08:46:29.832Z",
  "networkType": "ethereum",
  "devdoc": {
    "kind": "dev",
    "methods": {
      "allowance(address,address)": {
        "details": "See {IERC20-allowance}."
      },
      "approve(address,uint256)": {
        "details": "See {IERC20-approve}. NOTE: If `amount` is the maximum `uint256`, the allowance is not updated on `transferFrom`. This is semantically equivalent to an infinite approval. Requirements: - `spender` cannot be the zero address."
      },
      "balanceOf(address)": {
        "details": "See {IERC20-balanceOf}."
      },
      "decimals()": {
        "details": "Returns the number of decimals used to get its user representation. For example, if `decimals` equals `2`, a balance of `505` tokens should be displayed to a user as `5.05` (`505 / 10 ** 2`). Tokens usually opt for a value of 18, imitating the relationship between Ether and Wei. This is the value {ERC20} uses, unless this function is overridden; NOTE: This information is only used for _display_ purposes: it in no way affects any of the arithmetic of the contract, including {IERC20-balanceOf} and {IERC20-transfer}."
      },
      "decreaseAllowance(address,uint256)": {
        "details": "Atomically decreases the allowance granted to `spender` by the caller. This is an alternative to {approve} that can be used as a mitigation for problems described in {IERC20-approve}. Emits an {Approval} event indicating the updated allowance. Requirements: - `spender` cannot be the zero address. - `spender` must have allowance for the caller of at least `subtractedValue`."
      },
      "increaseAllowance(address,uint256)": {
        "details": "Atomically increases the allowance granted to `spender` by the caller. This is an alternative to {approve} that can be used as a mitigation for problems described in {IERC20-approve}. Emits an {Approval} event indicating the updated allowance. Requirements: - `spender` cannot be the zero address."
      },
      "name()": {
        "details": "Returns the name of the token."
      },
      "symbol()": {
        "details": "Returns the symbol of the token, usually a shorter version of the name."
      },
      "totalSupply()": {
        "details": "See {IERC20-totalSupply}."
      },
      "transfer(address,uint256)": {
        "details": "See {IERC20-transfer}. Requirements: - `to` cannot be the zero address. - the caller must have a balance of at least `amount`."
      },
      "transferFrom(address,address,uint256)": {
        "details": "See {IERC20-transferFrom}. Emits an {Approval} event indicating the updated allowance. This is not required by the EIP. See the note at the beginning of {ERC20}. NOTE: Does not update the allowance if the current allowance is the maximum `uint256`. Requirements: - `from` and `to` cannot be the zero address. - `from` must have a balance of at least `amount`. - the caller must have allowance for ``from``'s tokens of at least `amount`."
      }
    },
    "version": 1
  },
  "userdoc": {
    "kind": "user",
    "methods": {},
    "version": 1
  }
}