{
  "contractName": "OcxLocalPool",
  "abi": [
    {
      "inputs": [],
      "stateMutability": "nonpayable",
      "type": "constructor"
    },
    {
      "inputs": [
        {
          "internalType": "uint256",
          "name": "",
          "type": "uint256"
        }
      ],
      "name": "poolList",
      "outputs": [
        {
          "internalType": "uint256",
          "name": "k",
          "type": "uint256"
        },
        {
          "internalType": "uint256",
          "name": "prevK",
          "type": "uint256"
        },
        {
          "internalType": "uint256",
          "name": "prevQuote",
          "type": "uint256"
        },
        {
          "internalType": "uint256",
          "name": "quoteOrig",
          "type": "uint256"
        },
        {
          "internalType": "uint256",
          "name": "quote",
          "type": "uint256"
        }
      ],
      "stateMutability": "view",
      "type": "function",
      "constant": true
    },
    {
      "inputs": [
        {
          "internalType": "address",
          "name": "",
          "type": "address"
        },
        {
          "internalType": "uint256",
          "name": "",
          "type": "uint256"
        }
      ],
      "name": "poolShare",
      "outputs": [
        {
          "internalType": "uint8",
          "name": "poolIndex",
          "type": "uint8"
        }
      ],
      "stateMutability": "view",
      "type": "function",
      "constant": true
    },
    {
      "stateMutability": "payable",
      "type": "receive",
      "payable": true
    },
    {
      "inputs": [
        {
          "internalType": "address payable",
          "name": "_ocatAddress",
          "type": "address"
        }
      ],
      "name": "setOcatAddress",
      "outputs": [],
      "stateMutability": "nonpayable",
      "type": "function"
    },
    {
      "inputs": [
        {
          "internalType": "uint256",
          "name": "_amountOutMin",
          "type": "uint256"
        },
        {
          "internalType": "address payable",
          "name": "to",
          "type": "address"
        },
        {
          "internalType": "uint256",
          "name": "_deadline",
          "type": "uint256"
        }
      ],
      "name": "swapEthToOcat",
      "outputs": [],
      "stateMutability": "payable",
      "type": "function",
      "payable": true
    },
    {
      "inputs": [
        {
          "internalType": "uint256",
          "name": "_amountIn",
          "type": "uint256"
        },
        {
          "internalType": "uint256",
          "name": "_amountOutMin",
          "type": "uint256"
        },
        {
          "internalType": "address payable",
          "name": "to",
          "type": "address"
        },
        {
          "internalType": "uint256",
          "name": "_deadline",
          "type": "uint256"
        }
      ],
      "name": "swapOcatToEth",
      "outputs": [],
      "stateMutability": "nonpayable",
      "type": "function"
    },
    {
      "inputs": [
        {
          "internalType": "address[2]",
          "name": "tokens",
          "type": "address[2]"
        },
        {
          "internalType": "uint256[2]",
          "name": "amounts",
          "type": "uint256[2]"
        }
      ],
      "name": "addLiquidity",
      "outputs": [],
      "stateMutability": "nonpayable",
      "type": "function"
    }
  ],
  "bytecode": "0x608060405234801561001057600080fd5b5033600160006101000a81548173ffffffffffffffffffffffffffffffffffffffff021916908373ffffffffffffffffffffffffffffffffffffffff160217905550615a7480620000626000396000f3fe6080604052600436106100595760003560e01c80632a48235b146100655780638287435f146100a65780639d26bc1a146100cf578063aebf1ffc146100f8578063b18d30a214610114578063f3b8fd551461013d57610060565b3661006057005b600080fd5b34801561007157600080fd5b5061008c60048036038101906100879190613ffd565b61017a565b60405161009d959493929190614a11565b60405180910390f35b3480156100b257600080fd5b506100cd60048036038101906100c89190613f98565b6101c0565b005b3480156100db57600080fd5b506100f660048036038101906100f1919061409e565b611db1565b005b610112600480360381019061010d919061404f565b61294d565b005b34801561012057600080fd5b5061013b60048036038101906101369190613f33565b6134db565b005b34801561014957600080fd5b50610164600480360381019061015f9190613f5c565b61361e565b6040516101719190614a64565b60405180910390f35b6002818154811061018a57600080fd5b90600052602060002090600a02016000915090508060040154908060050154908060070154908060080154908060090154905085565b600073ffffffffffffffffffffffffffffffffffffffff163373ffffffffffffffffffffffffffffffffffffffff161415610230576040517f08c379a0000000000000000000000000000000000000000000000000000000008152600401610227906147f1565b60405180910390fd5b600073ffffffffffffffffffffffffffffffffffffffff1682600060028110610282577f4e487b7100000000000000000000000000000000000000000000000000000000600052603260045260246000fd5b602002015173ffffffffffffffffffffffffffffffffffffffff16141580156103165750600073ffffffffffffffffffffffffffffffffffffffff16826001600281106102f8577f4e487b7100000000000000000000000000000000000000000000000000000000600052603260045260246000fd5b602002015173ffffffffffffffffffffffffffffffffffffffff1614155b610355576040517f08c379a000000000000000000000000000000000000000000000000000000000815260040161034c906146f1565b60405180910390fd5b8160016002811061038f577f4e487b7100000000000000000000000000000000000000000000000000000000600052603260045260246000fd5b602002015173ffffffffffffffffffffffffffffffffffffffff16826000600281106103e4577f4e487b7100000000000000000000000000000000000000000000000000000000600052603260045260246000fd5b602002015173ffffffffffffffffffffffffffffffffffffffff161415610440576040517f08c379a000000000000000000000000000000000000000000000000000000000815260040161043790614651565b60405180910390fd5b60008160006002811061047c577f4e487b7100000000000000000000000000000000000000000000000000000000600052603260045260246000fd5b60200201511180156104cc57506000816001600281106104c5577f4e487b7100000000000000000000000000000000000000000000000000000000600052603260045260246000fd5b6020020151115b61050b576040517f08c379a000000000000000000000000000000000000000000000000000000000815260040161050290614731565b60405180910390fd5b3373ffffffffffffffffffffffffffffffffffffffff16600160009054906101000a900473ffffffffffffffffffffffffffffffffffffffff1673ffffffffffffffffffffffffffffffffffffffff161461056557600080fd5b600080600190506000806006600a61057d9190614bf1565b9050610605866000600281106105bc577f4e487b7100000000000000000000000000000000000000000000000000000000600052603260045260246000fd5b6020020151876001600281106105fb577f4e487b7100000000000000000000000000000000000000000000000000000000600052603260045260246000fd5b6020020151613666565b80955081945082965050505083610a6f5760006040518060400160405280600060ff168152602001600160ff16815250905085600160028110610671577f4e487b7100000000000000000000000000000000000000000000000000000000600052603260045260246000fd5b6020020151866000600281106106b0577f4e487b7100000000000000000000000000000000000000000000000000000000600052603260045260246000fd5b602002015110156106db576040518060400160405280600160ff168152602001600060ff1681525090505b60026040518061010001604052808981526020018881526020018860016002811061072f577f4e487b7100000000000000000000000000000000000000000000000000000000600052603260045260246000fd5b60200201518960006002811061076e577f4e487b7100000000000000000000000000000000000000000000000000000000600052603260045260246000fd5b602002015161077d9190614d0f565b8152602001600081526020018381526020016000815260200188846001600281106107d1577f4e487b7100000000000000000000000000000000000000000000000000000000600052603260045260246000fd5b602002015160ff1660028110610810577f4e487b7100000000000000000000000000000000000000000000000000000000600052603260045260246000fd5b6020020151858a86600060028110610851577f4e487b7100000000000000000000000000000000000000000000000000000000600052603260045260246000fd5b602002015160ff1660028110610890577f4e487b7100000000000000000000000000000000000000000000000000000000600052603260045260246000fd5b602002015161089f9190614d0f565b6108a99190614b6d565b815260200188846001600281106108e9577f4e487b7100000000000000000000000000000000000000000000000000000000600052603260045260246000fd5b602002015160ff1660028110610928577f4e487b7100000000000000000000000000000000000000000000000000000000600052603260045260246000fd5b6020020151858a86600060028110610969577f4e487b7100000000000000000000000000000000000000000000000000000000600052603260045260246000fd5b602002015160ff16600281106109a8577f4e487b7100000000000000000000000000000000000000000000000000000000600052603260045260246000fd5b60200201516109b79190614d0f565b6109c19190614b6d565b81525090806001815401808255809150506001900390600052602060002090600a0201600090919091909150600082015181600001906002610a04929190613c42565b50602082015181600201906002610a1c929190613cbf565b506040820151816004015560608201518160050155608082015181600601906002610a48929190613cff565b5060a0820151816007015560c0820151816008015560e082015181600901555050506115fe565b82610ce557600086600060028110610ab0577f4e487b7100000000000000000000000000000000000000000000000000000000600052603260045260246000fd5b6020020151905086600160028110610af1577f4e487b7100000000000000000000000000000000000000000000000000000000600052603260045260246000fd5b602002015187600060028110610b30577f4e487b7100000000000000000000000000000000000000000000000000000000600052603260045260246000fd5b602002019073ffffffffffffffffffffffffffffffffffffffff16908173ffffffffffffffffffffffffffffffffffffffff16815250508087600160028110610ba2577f4e487b7100000000000000000000000000000000000000000000000000000000600052603260045260246000fd5b602002019073ffffffffffffffffffffffffffffffffffffffff16908173ffffffffffffffffffffffffffffffffffffffff1681525050600086600060028110610c15577f4e487b7100000000000000000000000000000000000000000000000000000000600052603260045260246000fd5b6020020151905086600160028110610c56577f4e487b7100000000000000000000000000000000000000000000000000000000600052603260045260246000fd5b602002015187600060028110610c95577f4e487b7100000000000000000000000000000000000000000000000000000000600052603260045260246000fd5b6020020181815250508087600160028110610cd9577f4e487b7100000000000000000000000000000000000000000000000000000000600052603260045260246000fd5b60200201818152505050505b60008560028460ff1681548110610d25577f4e487b7100000000000000000000000000000000000000000000000000000000600052603260045260246000fd5b90600052602060002090600a0201600601600160028110610d6f577f4e487b7100000000000000000000000000000000000000000000000000000000600052603260045260246000fd5b602091828204019190069054906101000a900460ff1660ff1660028110610dbf577f4e487b7100000000000000000000000000000000000000000000000000000000600052603260045260246000fd5b6020020151828760028660ff1681548110610e03577f4e487b7100000000000000000000000000000000000000000000000000000000600052603260045260246000fd5b90600052602060002090600a0201600601600060028110610e4d577f4e487b7100000000000000000000000000000000000000000000000000000000600052603260045260246000fd5b602091828204019190069054906101000a900460ff1660ff1660028110610e9d577f4e487b7100000000000000000000000000000000000000000000000000000000600052603260045260246000fd5b6020020151610eac9190614d0f565b610eb69190614b6d565b9050600060028460ff1681548110610ef7577f4e487b7100000000000000000000000000000000000000000000000000000000600052603260045260246000fd5b90600052602060002090600a0201600801548383610f159190614d0f565b610f1f9190614b6d565b905060036006610f2f9190614d69565b600a610f3b9190614bf1565b6103d4610f489190614d0f565b81118015610f7b575060036006610f5f9190614d69565b600a610f6b9190614bf1565b6103fc610f789190614d0f565b81105b610fba576040517f08c379a0000000000000000000000000000000000000000000000000000000008152600401610fb190614771565b60405180910390fd5b600060028560ff1681548110610ff9577f4e487b7100000000000000000000000000000000000000000000000000000000600052603260045260246000fd5b90600052602060002090600a02016040518061010001604052908160008201600280602002604051908101604052809291908260028015611085576020028201915b8160009054906101000a900473ffffffffffffffffffffffffffffffffffffffff1673ffffffffffffffffffffffffffffffffffffffff168152602001906001019080831161103b575b50505050508152602001600282016002806020026040519081016040528092919082600280156110ca576020028201915b8154815260200190600101908083116110b6575b50505050508152602001600482015481526020016005820154815260200160068201600280602002604051908101604052809291908260028015611149576020028201916000905b82829054906101000a900460ff1660ff16815260200190600101906020826000010492830192600103820291508084116111125790505b5050505050815260200160078201548152602001600882015481526020016009820154815250509050876000600281106111ac577f4e487b7100000000000000000000000000000000000000000000000000000000600052603260045260246000fd5b602002015181602001516000600281106111ef577f4e487b7100000000000000000000000000000000000000000000000000000000600052603260045260246000fd5b602002018181516112009190614b17565b9150818152505087600160028110611241577f4e487b7100000000000000000000000000000000000000000000000000000000600052603260045260246000fd5b60200201518160200151600160028110611284577f4e487b7100000000000000000000000000000000000000000000000000000000600052603260045260246000fd5b602002018181516112959190614b17565b91508181525050806040015181606001818152505080602001516001600281106112e8577f4e487b7100000000000000000000000000000000000000000000000000000000600052603260045260246000fd5b6020020151816020015160006002811061132b577f4e487b7100000000000000000000000000000000000000000000000000000000600052603260045260246000fd5b602002015161133a9190614d0f565b8160400181815250508060e001518160a0018181525050806020015160028660ff1681548110611393577f4e487b7100000000000000000000000000000000000000000000000000000000600052603260045260246000fd5b90600052602060002090600a02016006016001600281106113dd577f4e487b7100000000000000000000000000000000000000000000000000000000600052603260045260246000fd5b602091828204019190069054906101000a900460ff1660ff166002811061142d577f4e487b7100000000000000000000000000000000000000000000000000000000600052603260045260246000fd5b602002015184826020015160028860ff1681548110611475577f4e487b7100000000000000000000000000000000000000000000000000000000600052603260045260246000fd5b90600052602060002090600a02016006016000600281106114bf577f4e487b7100000000000000000000000000000000000000000000000000000000600052603260045260246000fd5b602091828204019190069054906101000a900460ff1660ff166002811061150f577f4e487b7100000000000000000000000000000000000000000000000000000000600052603260045260246000fd5b602002015161151e9190614d0f565b6115289190614b6d565b8160e00181815250508060028660ff168154811061156f577f4e487b7100000000000000000000000000000000000000000000000000000000600052603260045260246000fd5b90600052602060002090600a0201600082015181600001906002611594929190613c42565b506020820151816002019060026115ac929190613cbf565b5060408201518160040155606082015181600501556080820151816006019060026115d8929190613cff565b5060a0820151816007015560c0820151816008015560e082015181600901559050505050505b6000935060005b600360003373ffffffffffffffffffffffffffffffffffffffff1673ffffffffffffffffffffffffffffffffffffffff1681526020019081526020016000208054905081101561193c57600360003373ffffffffffffffffffffffffffffffffffffffff1673ffffffffffffffffffffffffffffffffffffffff16815260200190815260200160002081815481106116c6577f4e487b7100000000000000000000000000000000000000000000000000000000600052603260045260246000fd5b906000526020600020906003020160000160009054906101000a900460ff1660ff168360ff161415611929578560006002811061172c577f4e487b7100000000000000000000000000000000000000000000000000000000600052603260045260246000fd5b6020020151600360003373ffffffffffffffffffffffffffffffffffffffff1673ffffffffffffffffffffffffffffffffffffffff16815260200190815260200160002082815481106117a8577f4e487b7100000000000000000000000000000000000000000000000000000000600052603260045260246000fd5b90600052602060002090600302016001016000600281106117f2577f4e487b7100000000000000000000000000000000000000000000000000000000600052603260045260246000fd5b0160008282546118029190614b17565b9250508190555085600160028110611843577f4e487b7100000000000000000000000000000000000000000000000000000000600052603260045260246000fd5b6020020151600360003373ffffffffffffffffffffffffffffffffffffffff1673ffffffffffffffffffffffffffffffffffffffff16815260200190815260200160002082815481106118bf577f4e487b7100000000000000000000000000000000000000000000000000000000600052603260045260246000fd5b9060005260206000209060030201600101600160028110611909577f4e487b7100000000000000000000000000000000000000000000000000000000600052603260045260246000fd5b0160008282546119199190614b17565b925050819055506001945061193c565b808061193490614e9e565b915050611605565b50836119fe57600360003373ffffffffffffffffffffffffffffffffffffffff1673ffffffffffffffffffffffffffffffffffffffff16815260200190815260200160002060405180604001604052808460ff16815260200187815250908060018154018082558091505060019003906000526020600020906003020160009091909190915060008201518160000160006101000a81548160ff021916908360ff1602179055506020820151816001019060026119fa929190613cbf565b5050505b600086600060028110611a3a577f4e487b7100000000000000000000000000000000000000000000000000000000600052603260045260246000fd5b602002015173ffffffffffffffffffffffffffffffffffffffff1663dd62ed3e33306040518363ffffffff1660e01b8152600401611a799291906145c8565b60206040518083038186803b158015611a9157600080fd5b505afa158015611aa5573d6000803e3d6000fd5b505050506040513d601f19601f82011682018060405250810190611ac99190614026565b905085600060028110611b05577f4e487b7100000000000000000000000000000000000000000000000000000000600052603260045260246000fd5b6020020151811015611b4c576040517f08c379a0000000000000000000000000000000000000000000000000000000008152600401611b43906148f1565b60405180910390fd5b86600160028110611b86577f4e487b7100000000000000000000000000000000000000000000000000000000600052603260045260246000fd5b602002015173ffffffffffffffffffffffffffffffffffffffff1663dd62ed3e33306040518363ffffffff1660e01b8152600401611bc59291906145c8565b60206040518083038186803b158015611bdd57600080fd5b505afa158015611bf1573d6000803e3d6000fd5b505050506040513d601f19601f82011682018060405250810190611c159190614026565b905085600160028110611c51577f4e487b7100000000000000000000000000000000000000000000000000000000600052603260045260246000fd5b6020020151811015611c98576040517f08c379a0000000000000000000000000000000000000000000000000000000008152600401611c8f906146d1565b60405180910390fd5b611d2087600060028110611cd5577f4e487b7100000000000000000000000000000000000000000000000000000000600052603260045260246000fd5b6020020151333089600060028110611d16577f4e487b7100000000000000000000000000000000000000000000000000000000600052603260045260246000fd5b6020020151613b09565b611da887600160028110611d5d577f4e487b7100000000000000000000000000000000000000000000000000000000600052603260045260246000fd5b6020020151333089600160028110611d9e577f4e487b7100000000000000000000000000000000000000000000000000000000600052603260045260246000fd5b6020020151613b09565b50505050505050565b600073ffffffffffffffffffffffffffffffffffffffff168273ffffffffffffffffffffffffffffffffffffffff161415611e21576040517f08c379a0000000000000000000000000000000000000000000000000000000008152600401611e1890614691565b60405180910390fd5b3073ffffffffffffffffffffffffffffffffffffffff168273ffffffffffffffffffffffffffffffffffffffff161415611e90576040517f08c379a0000000000000000000000000000000000000000000000000000000008152600401611e8790614671565b60405180910390fd5b60008411611ed3576040517f08c379a0000000000000000000000000000000000000000000000000000000008152600401611eca90614851565b60405180910390fd5b6000806000611f1660008054906101000a900473ffffffffffffffffffffffffffffffffffffffff1673b4fbf271143f4fbf7b91a5ded31805e42b2208d6613666565b92509250925082611f5c576040517f08c379a0000000000000000000000000000000000000000000000000000000008152600401611f5390614791565b60405180910390fd5b600060028360ff1681548110611f9b577f4e487b7100000000000000000000000000000000000000000000000000000000600052603260045260246000fd5b90600052602060002090600a020160020182611fb8576001611fbb565b60005b60ff1660028110611ff5577f4e487b7100000000000000000000000000000000000000000000000000000000600052603260045260246000fd5b01549050600060028460ff1681548110612038577f4e487b7100000000000000000000000000000000000000000000000000000000600052603260045260246000fd5b90600052602060002090600a02016002018315612056576001612059565b60005b60ff1660028110612093577f4e487b7100000000000000000000000000000000000000000000000000000000600052603260045260246000fd5b01549050600082116120da576040517f08c379a00000000000000000000000000000000000000000000000000000000081526004016120d1906147b1565b60405180910390fd5b87821161211c576040517f08c379a000000000000000000000000000000000000000000000000000000000815260040161211390614871565b60405180910390fd5b88816121289190614b17565b60028560ff1681548110612165577f4e487b7100000000000000000000000000000000000000000000000000000000600052603260045260246000fd5b90600052602060002090600a0201600401546121819190614b6d565b8210156121c3576040517f08c379a00000000000000000000000000000000000000000000000000000000081526004016121ba90614831565b60405180910390fd5b600089826121d19190614b17565b60028660ff168154811061220e577f4e487b7100000000000000000000000000000000000000000000000000000000600052603260045260246000fd5b90600052602060002090600a02016004015461222a9190614b6d565b836122359190614d69565b90506000811161227a576040517f08c379a000000000000000000000000000000000000000000000000000000000815260040161227190614891565b60405180910390fd5b888110156122bd576040517f08c379a00000000000000000000000000000000000000000000000000000000081526004016122b490614711565b60405180910390fd5b60008060009054906101000a900473ffffffffffffffffffffffffffffffffffffffff1673ffffffffffffffffffffffffffffffffffffffff1663dd62ed3e8a306040518363ffffffff1660e01b815260040161231b92919061459f565b60206040518083038186803b15801561233357600080fd5b505afa158015612347573d6000803e3d6000fd5b505050506040513d601f19601f8201168201806040525081019061236b9190614026565b90508a8110156123b0576040517f08c379a00000000000000000000000000000000000000000000000000000000081526004016123a790614911565b60405180910390fd5b6123dc60008054906101000a900473ffffffffffffffffffffffffffffffffffffffff1633308e613b09565b73b4fbf271143f4fbf7b91a5ded31805e42b2208d673ffffffffffffffffffffffffffffffffffffffff1663a9059cbb33846040518363ffffffff1660e01b815260040161242b929190614628565b602060405180830381600087803b15801561244557600080fd5b505af1158015612459573d6000803e3d6000fd5b505050506040513d601f19601f8201168201806040525081019061247d9190613fd4565b508a60028760ff16815481106124bc577f4e487b7100000000000000000000000000000000000000000000000000000000600052603260045260246000fd5b90600052602060002090600a0201600201866124d95760016124dc565b60005b60ff1660028110612516577f4e487b7100000000000000000000000000000000000000000000000000000000600052603260045260246000fd5b0160008282546125269190614b17565b925050819055508160028760ff168154811061256b577f4e487b7100000000000000000000000000000000000000000000000000000000600052603260045260246000fd5b90600052602060002090600a0201600201861561258957600161258c565b60005b60ff16600281106125c6577f4e487b7100000000000000000000000000000000000000000000000000000000600052603260045260246000fd5b0160008282546125d69190614d69565b9250508190555060028660ff168154811061261a577f4e487b7100000000000000000000000000000000000000000000000000000000600052603260045260246000fd5b90600052602060002090600a02016009015460028760ff1681548110612669577f4e487b7100000000000000000000000000000000000000000000000000000000600052603260045260246000fd5b90600052602060002090600a02016007018190555060028660ff16815481106126bb577f4e487b7100000000000000000000000000000000000000000000000000000000600052603260045260246000fd5b90600052602060002090600a020160020160028760ff1681548110612709577f4e487b7100000000000000000000000000000000000000000000000000000000600052603260045260246000fd5b90600052602060002090600a0201600601600160028110612753577f4e487b7100000000000000000000000000000000000000000000000000000000600052603260045260246000fd5b602091828204019190069054906101000a900460ff1660ff16600281106127a3577f4e487b7100000000000000000000000000000000000000000000000000000000600052603260045260246000fd5b01546006600a6127b39190614bf1565b60028860ff16815481106127f0577f4e487b7100000000000000000000000000000000000000000000000000000000600052603260045260246000fd5b90600052602060002090600a020160020160028960ff168154811061283e577f4e487b7100000000000000000000000000000000000000000000000000000000600052603260045260246000fd5b90600052602060002090600a0201600601600060028110612888577f4e487b7100000000000000000000000000000000000000000000000000000000600052603260045260246000fd5b602091828204019190069054906101000a900460ff1660ff16600281106128d8577f4e487b7100000000000000000000000000000000000000000000000000000000600052603260045260246000fd5b01546128e49190614d0f565b6128ee9190614b6d565b60028760ff168154811061292b577f4e487b7100000000000000000000000000000000000000000000000000000000600052603260045260246000fd5b90600052602060002090600a0201600901819055505050505050505050505050565b600073ffffffffffffffffffffffffffffffffffffffff168273ffffffffffffffffffffffffffffffffffffffff1614156129bd576040517f08c379a00000000000000000000000000000000000000000000000000000000081526004016129b490614971565b60405180910390fd5b3073ffffffffffffffffffffffffffffffffffffffff168273ffffffffffffffffffffffffffffffffffffffff161415612a2c576040517f08c379a0000000000000000000000000000000000000000000000000000000008152600401612a23906146b1565b60405180910390fd5b60003411612a6f576040517f08c379a0000000000000000000000000000000000000000000000000000000008152600401612a6690614931565b60405180910390fd5b6000806000612ab273b4fbf271143f4fbf7b91a5ded31805e42b2208d660008054906101000a900473ffffffffffffffffffffffffffffffffffffffff16613666565b92509250925082612af8576040517f08c379a0000000000000000000000000000000000000000000000000000000008152600401612aef90614811565b60405180910390fd5b600060028360ff1681548110612b37577f4e487b7100000000000000000000000000000000000000000000000000000000600052603260045260246000fd5b90600052602060002090600a020160020182612b54576001612b57565b60005b60ff1660028110612b91577f4e487b7100000000000000000000000000000000000000000000000000000000600052603260045260246000fd5b01549050600060028460ff1681548110612bd4577f4e487b7100000000000000000000000000000000000000000000000000000000600052603260045260246000fd5b90600052602060002090600a02016002018315612bf2576001612bf5565b60005b60ff1660028110612c2f577f4e487b7100000000000000000000000000000000000000000000000000000000600052603260045260246000fd5b0154905060008111612c76576040517f08c379a0000000000000000000000000000000000000000000000000000000008152600401612c6d906147d1565b60405180910390fd5b878111612cb8576040517f08c379a0000000000000000000000000000000000000000000000000000000008152600401612caf906148b1565b60405180910390fd5b3482612cc49190614b17565b60028560ff1681548110612d01577f4e487b7100000000000000000000000000000000000000000000000000000000600052603260045260246000fd5b90600052602060002090600a020160040154612d1d9190614b6d565b811015612d5f576040517f08c379a0000000000000000000000000000000000000000000000000000000008152600401612d56906149f1565b60405180910390fd5b60003483612d6d9190614b17565b60028660ff1681548110612daa577f4e487b7100000000000000000000000000000000000000000000000000000000600052603260045260246000fd5b90600052602060002090600a020160040154612dc69190614b6d565b82612dd19190614d69565b905060008111612e16576040517f08c379a0000000000000000000000000000000000000000000000000000000008152600401612e0d90614951565b60405180910390fd5b88811015612e59576040517f08c379a0000000000000000000000000000000000000000000000000000000008152600401612e5090614991565b60405180910390fd5b600073b4fbf271143f4fbf7b91a5ded31805e42b2208d673ffffffffffffffffffffffffffffffffffffffff1663dd62ed3e8a306040518363ffffffff1660e01b8152600401612eaa92919061459f565b60206040518083038186803b158015612ec257600080fd5b505afa158015612ed6573d6000803e3d6000fd5b505050506040513d601f19601f82011682018060405250810190612efa9190614026565b905034811015612f3f576040517f08c379a0000000000000000000000000000000000000000000000000000000008152600401612f36906148d1565b60405180910390fd5b612f5f73b4fbf271143f4fbf7b91a5ded31805e42b2208d6333034613b09565b60008054906101000a900473ffffffffffffffffffffffffffffffffffffffff1673ffffffffffffffffffffffffffffffffffffffff1663a9059cbb33846040518363ffffffff1660e01b8152600401612fba929190614628565b602060405180830381600087803b158015612fd457600080fd5b505af1158015612fe8573d6000803e3d6000fd5b505050506040513d601f19601f8201168201806040525081019061300c9190613fd4565b503460028760ff168154811061304b577f4e487b7100000000000000000000000000000000000000000000000000000000600052603260045260246000fd5b90600052602060002090600a02016002018661306857600161306b565b60005b60ff16600281106130a5577f4e487b7100000000000000000000000000000000000000000000000000000000600052603260045260246000fd5b0160008282546130b59190614b17565b925050819055508160028760ff16815481106130fa577f4e487b7100000000000000000000000000000000000000000000000000000000600052603260045260246000fd5b90600052602060002090600a0201600201861561311857600161311b565b60005b60ff1660028110613155577f4e487b7100000000000000000000000000000000000000000000000000000000600052603260045260246000fd5b0160008282546131659190614d69565b9250508190555060028660ff16815481106131a9577f4e487b7100000000000000000000000000000000000000000000000000000000600052603260045260246000fd5b90600052602060002090600a02016009015460028760ff16815481106131f8577f4e487b7100000000000000000000000000000000000000000000000000000000600052603260045260246000fd5b90600052602060002090600a02016007018190555060028660ff168154811061324a577f4e487b7100000000000000000000000000000000000000000000000000000000600052603260045260246000fd5b90600052602060002090600a020160020160028760ff1681548110613298577f4e487b7100000000000000000000000000000000000000000000000000000000600052603260045260246000fd5b90600052602060002090600a02016006016001600281106132e2577f4e487b7100000000000000000000000000000000000000000000000000000000600052603260045260246000fd5b602091828204019190069054906101000a900460ff1660ff1660028110613332577f4e487b7100000000000000000000000000000000000000000000000000000000600052603260045260246000fd5b01546006600a6133429190614bf1565b60028860ff168154811061337f577f4e487b7100000000000000000000000000000000000000000000000000000000600052603260045260246000fd5b90600052602060002090600a020160020160028960ff16815481106133cd577f4e487b7100000000000000000000000000000000000000000000000000000000600052603260045260246000fd5b90600052602060002090600a0201600601600060028110613417577f4e487b7100000000000000000000000000000000000000000000000000000000600052603260045260246000fd5b602091828204019190069054906101000a900460ff1660ff1660028110613467577f4e487b7100000000000000000000000000000000000000000000000000000000600052603260045260246000fd5b01546134739190614d0f565b61347d9190614b6d565b60028760ff16815481106134ba577f4e487b7100000000000000000000000000000000000000000000000000000000600052603260045260246000fd5b90600052602060002090600a02016009018190555050505050505050505050565b3373ffffffffffffffffffffffffffffffffffffffff16600160009054906101000a900473ffffffffffffffffffffffffffffffffffffffff1673ffffffffffffffffffffffffffffffffffffffff161461356b576040517f08c379a0000000000000000000000000000000000000000000000000000000008152600401613562906149b1565b60405180910390fd5b600073ffffffffffffffffffffffffffffffffffffffff168173ffffffffffffffffffffffffffffffffffffffff1614156135db576040517f08c379a00000000000000000000000000000000000000000000000000000000081526004016135d290614751565b60405180910390fd5b806000806101000a81548173ffffffffffffffffffffffffffffffffffffffff021916908373ffffffffffffffffffffffffffffffffffffffff16021790555050565b6003602052816000526040600020818154811061363a57600080fd5b9060005260206000209060030201600091509150508060000160009054906101000a900460ff16905081565b6000806000809250600091506001905060005b6002805490508160ff161015613b01578573ffffffffffffffffffffffffffffffffffffffff1660028260ff16815481106136dd577f4e487b7100000000000000000000000000000000000000000000000000000000600052603260045260246000fd5b90600052602060002090600a0201600001600060028110613727577f4e487b7100000000000000000000000000000000000000000000000000000000600052603260045260246000fd5b0160009054906101000a900473ffffffffffffffffffffffffffffffffffffffff1673ffffffffffffffffffffffffffffffffffffffff1614801561383f57508473ffffffffffffffffffffffffffffffffffffffff1660028260ff16815481106137bb577f4e487b7100000000000000000000000000000000000000000000000000000000600052603260045260246000fd5b90600052602060002090600a0201600001600160028110613805577f4e487b7100000000000000000000000000000000000000000000000000000000600052603260045260246000fd5b0160009054906101000a900473ffffffffffffffffffffffffffffffffffffffff1673ffffffffffffffffffffffffffffffffffffffff16145b806139fc57508573ffffffffffffffffffffffffffffffffffffffff1660028260ff1681548110613899577f4e487b7100000000000000000000000000000000000000000000000000000000600052603260045260246000fd5b90600052602060002090600a02016000016001600281106138e3577f4e487b7100000000000000000000000000000000000000000000000000000000600052603260045260246000fd5b0160009054906101000a900473ffffffffffffffffffffffffffffffffffffffff1673ffffffffffffffffffffffffffffffffffffffff161480156139fb57508473ffffffffffffffffffffffffffffffffffffffff1660028260ff1681548110613977577f4e487b7100000000000000000000000000000000000000000000000000000000600052603260045260246000fd5b90600052602060002090600a02016000016000600281106139c1577f4e487b7100000000000000000000000000000000000000000000000000000000600052603260045260246000fd5b0160009054906101000a900473ffffffffffffffffffffffffffffffffffffffff1673ffffffffffffffffffffffffffffffffffffffff16145b5b15613aee57600193508092508573ffffffffffffffffffffffffffffffffffffffff1660028260ff1681548110613a5c577f4e487b7100000000000000000000000000000000000000000000000000000000600052603260045260246000fd5b90600052602060002090600a0201600001600160028110613aa6577f4e487b7100000000000000000000000000000000000000000000000000000000600052603260045260246000fd5b0160009054906101000a900473ffffffffffffffffffffffffffffffffffffffff1673ffffffffffffffffffffffffffffffffffffffff161415613ae957600091505b613b01565b8080613af990614ee7565b915050613679565b509250925092565b6000808573ffffffffffffffffffffffffffffffffffffffff166323b872dd868686604051602401613b3d939291906145f1565b6040516020818303038152906040529060e01b6020820180517bffffffffffffffffffffffffffffffffffffffffffffffffffffffff8381831617835250505050604051613b8b9190614588565b6000604051808303816000865af19150503d8060008114613bc8576040519150601f19603f3d011682016040523d82523d6000602084013e613bcd565b606091505b5091509150818015613bfb5750600081511480613bfa575080806020019051810190613bf99190613fd4565b5b5b613c3a576040517f08c379a0000000000000000000000000000000000000000000000000000000008152600401613c31906149d1565b60405180910390fd5b505050505050565b8260028101928215613cae579160200282015b82811115613cad5782518260006101000a81548173ffffffffffffffffffffffffffffffffffffffff021916908373ffffffffffffffffffffffffffffffffffffffff16021790555091602001919060010190613c55565b5b509050613cbb9190613d99565b5090565b8260028101928215613cee579160200282015b82811115613ced578251825591602001919060010190613cd2565b5b509050613cfb9190613d99565b5090565b826002601f01602090048101928215613d885791602002820160005b83821115613d5957835183826101000a81548160ff021916908360ff1602179055509260200192600101602081600001049283019260010302613d1b565b8015613d865782816101000a81549060ff0219169055600101602081600001049283019260010302613d59565b505b509050613d959190613d99565b5090565b5b80821115613db2576000816000905550600101613d9a565b5090565b6000613dc9613dc484614aa4565b614a7f565b90508082856020860282011115613ddf57600080fd5b60005b85811015613e0f5781613df58882613e7c565b845260208401935060208301925050600181019050613de2565b5050509392505050565b6000613e2c613e2784614aca565b614a7f565b90508082856020860282011115613e4257600080fd5b60005b85811015613e725781613e588882613f09565b845260208401935060208301925050600181019050613e45565b5050509392505050565b600081359050613e8b816159e2565b92915050565b600081359050613ea0816159f9565b92915050565b600082601f830112613eb757600080fd5b6002613ec4848285613db6565b91505092915050565b600082601f830112613ede57600080fd5b6002613eeb848285613e19565b91505092915050565b600081519050613f0381615a10565b92915050565b600081359050613f1881615a27565b92915050565b600081519050613f2d81615a27565b92915050565b600060208284031215613f4557600080fd5b6000613f5384828501613e91565b91505092915050565b60008060408385031215613f6f57600080fd5b6000613f7d85828601613e7c565b9250506020613f8e85828601613f09565b9150509250929050565b60008060808385031215613fab57600080fd5b6000613fb985828601613ea6565b9250506040613fca85828601613ecd565b9150509250929050565b600060208284031215613fe657600080fd5b6000613ff484828501613ef4565b91505092915050565b60006020828403121561400f57600080fd5b600061401d84828501613f09565b91505092915050565b60006020828403121561403857600080fd5b600061404684828501613f1e565b91505092915050565b60008060006060848603121561406457600080fd5b600061407286828701613f09565b935050602061408386828701613e91565b925050604061409486828701613f09565b9150509250925092565b600080600080608085870312156140b457600080fd5b60006140c287828801613f09565b94505060206140d387828801613f09565b93505060406140e487828801613e91565b92505060606140f587828801613f09565b91505092959194509250565b61410a81614e04565b82525050565b61411981614d9d565b82525050565b600061412a82614af0565b6141348185614afb565b9350614144818560208601614e3a565b80840191505092915050565b600061415d600b83614b06565b915061416882614fbc565b602082019050919050565b6000614180604483614b06565b915061418b82614fe5565b606082019050919050565b60006141a3602c83614b06565b91506141ae8261505a565b604082019050919050565b60006141c6604483614b06565b91506141d1826150a9565b606082019050919050565b60006141e9604483614b06565b91506141f48261511e565b606082019050919050565b600061420c600e83614b06565b915061421782615193565b602082019050919050565b600061422f604983614b06565b915061423a826151bc565b606082019050919050565b6000614252600f83614b06565b915061425d82615231565b602082019050919050565b6000614275603083614b06565b91506142808261525a565b604082019050919050565b6000614298600d83614b06565b91506142a3826152a9565b602082019050919050565b60006142bb603283614b06565b91506142c6826152d2565b604082019050919050565b60006142de603c83614b06565b91506142e982615321565b604082019050919050565b6000614301603d83614b06565b915061430c82615370565b604082019050919050565b6000614324600e83614b06565b915061432f826153bf565b602082019050919050565b6000614347603283614b06565b9150614352826153e8565b604082019050919050565b600061436a604983614b06565b915061437582615437565b606082019050919050565b600061438d603083614b06565b9150614398826154ac565b604082019050919050565b60006143b0604983614b06565b91506143bb826154fb565b606082019050919050565b60006143d3604983614b06565b91506143de82615570565b606082019050919050565b60006143f6604a83614b06565b9150614401826155e5565b606082019050919050565b6000614419600083614b06565b91506144248261565a565b600082019050919050565b600061443c604383614b06565b91506144478261565d565b606082019050919050565b600061445f604983614b06565b915061446a826156d2565b606082019050919050565b6000614482603083614b06565b915061448d82615747565b604082019050919050565b60006144a5604a83614b06565b91506144b082615796565b606082019050919050565b60006144c8602c83614b06565b91506144d38261580b565b604082019050919050565b60006144eb604a83614b06565b91506144f68261585a565b606082019050919050565b600061450e603a83614b06565b9150614519826158cf565b604082019050919050565b6000614531602483614b06565b915061453c8261591e565b604082019050919050565b6000614554604a83614b06565b915061455f8261596d565b606082019050919050565b61457381614ded565b82525050565b61458281614df7565b82525050565b6000614594828461411f565b915081905092915050565b60006040820190506145b46000830185614101565b6145c16020830184614110565b9392505050565b60006040820190506145dd6000830185614110565b6145ea6020830184614110565b9392505050565b60006060820190506146066000830186614110565b6146136020830185614110565b614620604083018461456a565b949350505050565b600060408201905061463d6000830185614110565b61464a602083018461456a565b9392505050565b6000602082019050818103600083015261466a81614150565b9050919050565b6000602082019050818103600083015261468a81614173565b9050919050565b600060208201905081810360008301526146aa81614196565b9050919050565b600060208201905081810360008301526146ca816141b9565b9050919050565b600060208201905081810360008301526146ea816141dc565b9050919050565b6000602082019050818103600083015261470a816141ff565b9050919050565b6000602082019050818103600083015261472a81614222565b9050919050565b6000602082019050818103600083015261474a81614245565b9050919050565b6000602082019050818103600083015261476a81614268565b9050919050565b6000602082019050818103600083015261478a8161428b565b9050919050565b600060208201905081810360008301526147aa816142ae565b9050919050565b600060208201905081810360008301526147ca816142d1565b9050919050565b600060208201905081810360008301526147ea816142f4565b9050919050565b6000602082019050818103600083015261480a81614317565b9050919050565b6000602082019050818103600083015261482a8161433a565b9050919050565b6000602082019050818103600083015261484a8161435d565b9050919050565b6000602082019050818103600083015261486a81614380565b9050919050565b6000602082019050818103600083015261488a816143a3565b9050919050565b600060208201905081810360008301526148aa816143c6565b9050919050565b600060208201905081810360008301526148ca816143e9565b9050919050565b600060208201905081810360008301526148ea8161440c565b9050919050565b6000602082019050818103600083015261490a8161442f565b9050919050565b6000602082019050818103600083015261492a81614452565b9050919050565b6000602082019050818103600083015261494a81614475565b9050919050565b6000602082019050818103600083015261496a81614498565b9050919050565b6000602082019050818103600083015261498a816144bb565b9050919050565b600060208201905081810360008301526149aa816144de565b9050919050565b600060208201905081810360008301526149ca81614501565b9050919050565b600060208201905081810360008301526149ea81614524565b9050919050565b60006020820190508181036000830152614a0a81614547565b9050919050565b600060a082019050614a26600083018861456a565b614a33602083018761456a565b614a40604083018661456a565b614a4d606083018561456a565b614a5a608083018461456a565b9695505050505050565b6000602082019050614a796000830184614579565b92915050565b6000614a89614a9a565b9050614a958282614e6d565b919050565b6000604051905090565b600067ffffffffffffffff821115614abf57614abe614f6f565b5b602082029050919050565b600067ffffffffffffffff821115614ae557614ae4614f6f565b5b602082029050919050565b600081519050919050565b600081905092915050565b600082825260208201905092915050565b6000614b2282614ded565b9150614b2d83614ded565b9250827fffffffffffffffffffffffffffffffffffffffffffffffffffffffffffffffff03821115614b6257614b61614f11565b5b828201905092915050565b6000614b7882614ded565b9150614b8383614ded565b925082614b9357614b92614f40565b5b828204905092915050565b6000808291508390505b6001851115614be857808604811115614bc457614bc3614f11565b5b6001851615614bd35780820291505b8081029050614be185614faf565b9450614ba8565b94509492505050565b6000614bfc82614ded565b9150614c0783614ded565b9250614c347fffffffffffffffffffffffffffffffffffffffffffffffffffffffffffffffff8484614c3c565b905092915050565b600082614c4c5760019050614d08565b81614c5a5760009050614d08565b8160018114614c705760028114614c7a57614ca9565b6001915050614d08565b60ff841115614c8c57614c8b614f11565b5b8360020a915084821115614ca357614ca2614f11565b5b50614d08565b5060208310610133831016604e8410600b8410161715614cde5782820a905083811115614cd957614cd8614f11565b5b614d08565b614ceb8484846001614b9e565b92509050818404811115614d0257614d01614f11565b5b81810290505b9392505050565b6000614d1a82614ded565b9150614d2583614ded565b9250817fffffffffffffffffffffffffffffffffffffffffffffffffffffffffffffffff0483118215151615614d5e57614d5d614f11565b5b828202905092915050565b6000614d7482614ded565b9150614d7f83614ded565b925082821015614d9257614d91614f11565b5b828203905092915050565b6000614da882614dcd565b9050919050565b6000614dba82614dcd565b9050919050565b60008115159050919050565b600073ffffffffffffffffffffffffffffffffffffffff82169050919050565b6000819050919050565b600060ff82169050919050565b6000614e0f82614e16565b9050919050565b6000614e2182614e28565b9050919050565b6000614e3382614dcd565b9050919050565b60005b83811015614e58578082015181840152602081019050614e3d565b83811115614e67576000848401525b50505050565b614e7682614f9e565b810181811067ffffffffffffffff82111715614e9557614e94614f6f565b5b80604052505050565b6000614ea982614ded565b91507fffffffffffffffffffffffffffffffffffffffffffffffffffffffffffffffff821415614edc57614edb614f11565b5b600182019050919050565b6000614ef282614df7565b915060ff821415614f0657614f05614f11565b5b600182019050919050565b7f4e487b7100000000000000000000000000000000000000000000000000000000600052601160045260246000fd5b7f4e487b7100000000000000000000000000000000000000000000000000000000600052601260045260246000fd5b7f4e487b7100000000000000000000000000000000000000000000000000000000600052604160045260246000fd5b6000601f19601f8301169050919050565b60008160011c9050919050565b7f53616d6520746f6b656e73000000000000000000000000000000000000000000600082015250565b7f4f63784c6f63616c506f6f6c2e737761704f636174546f45746828293a20546860008201527f652073656e646572206d75737420626520646966666572656e74207468616e2060208201527f7468697300000000000000000000000000000000000000000000000000000000604082015250565b7f4f63784c6f63616c506f6f6c2e737761704f636174546f45746828293a20496e60008201527f76616c69642073656e6465720000000000000000000000000000000000000000602082015250565b7f4f63784c6f63616c506f6f6c2e73776170457468546f4f63617428293a20546860008201527f652073656e646572206d75737420626520646966666572656e74207468616e2060208201527f7468697300000000000000000000000000000000000000000000000000000000604082015250565b7f4f63784c6f63616c506f6f6c2e6164644c697175696469747928293a20496e7360008201527f756666696369656e7420616c6c6f77616e636520666f72207365636f6e64207460208201527f6f6b656e00000000000000000000000000000000000000000000000000000000604082015250565b7f496e76616c696420746f6b656e73000000000000000000000000000000000000600082015250565b7f4f63784c6f63616c506f6f6c2e737761704f636174546f45746828293a20496e60008201527f73756666696369656e742062616c616e636520666f722045544820696e20746860208201527f6520706f6f6c2834290000000000000000000000000000000000000000000000604082015250565b7f496e76616c696420616d6f756e74730000000000000000000000000000000000600082015250565b7f4f63784c6f63616c506f6f6c2e7365744f6361744164647265737328293a204960008201527f6e76616c696420706172616d6574657200000000000000000000000000000000602082015250565b7f496e76616c69642071756f746500000000000000000000000000000000000000600082015250565b7f4f63784c6f63616c506f6f6c2e737761704f636174546f45746828293a204e6f60008201527f20706f6f6c20666f72204554482d4f4341540000000000000000000000000000602082015250565b7f4f63784c6f63616c506f6f6c2e737761704f636174546f45746828293a204e6f60008201527f2062616c616e636520666f722045544820696e2074686520706f6f6c00000000602082015250565b7f4f63784c6f63616c506f6f6c2e73776170457468546f4f63617428293a204e6f60008201527f2062616c616e636520666f72204f43415420696e2074686520706f6f6c000000602082015250565b7f496e76616c69642073656e646572000000000000000000000000000000000000600082015250565b7f4f63784c6f63616c506f6f6c2e73776170457468546f4f63617428293a204e6f60008201527f20706f6f6c20666f72204554482d4f4341540000000000000000000000000000602082015250565b7f4f63784c6f63616c506f6f6c2e737761704f636174546f45746828293a20496e60008201527f73756666696369656e742062616c616e636520666f722045544820696e20746860208201527f6520706f6f6c2832290000000000000000000000000000000000000000000000604082015250565b7f4f63784c6f63616c506f6f6c2e737761704f636174546f45746828293a20496e60008201527f76616c69642045544820616d6f756e7400000000000000000000000000000000602082015250565b7f4f63784c6f63616c506f6f6c2e737761704f636174546f45746828293a20496e60008201527f73756666696369656e742062616c616e636520666f722045544820696e20746860208201527f6520706f6f6c2831290000000000000000000000000000000000000000000000604082015250565b7f4f63784c6f63616c506f6f6c2e737761704f636174546f45746828293a20496e60008201527f73756666696369656e742062616c616e636520666f722045544820696e20746860208201527f6520706f6f6c2833290000000000000000000000000000000000000000000000604082015250565b7f4f63784c6f63616c506f6f6c2e73776170457468546f4f63617428293a20496e60008201527f73756666696369656e742062616c616e636520666f72204f43415420696e207460208201527f686520706f6f6c28312900000000000000000000000000000000000000000000604082015250565b50565b7f4f63784c6f63616c506f6f6c2e6164644c697175696469747928293a20496e7360008201527f756666696369656e7420616c6c6f77616e636520666f7220666972737420746f60208201527f6b656e0000000000000000000000000000000000000000000000000000000000604082015250565b7f4f63784c6f63616c506f6f6c2e737761704f636174546f45746828293a20496e60008201527f73756666696369656e7420616c6c6f77656420616d6f756e7420666f7220696e60208201527f70757420746f6b656e0000000000000000000000000000000000000000000000604082015250565b7f4f63784c6f63616c506f6f6c2e73776170457468546f4f63617428293a20496e60008201527f76616c69642045544820616d6f756e7400000000000000000000000000000000602082015250565b7f4f63784c6f63616c506f6f6c2e73776170457468546f4f63617428293a20496e60008201527f73756666696369656e742062616c616e636520666f72204f43415420696e207460208201527f686520706f6f6c28332900000000000000000000000000000000000000000000604082015250565b7f4f63784c6f63616c506f6f6c2e73776170457468546f4f63617428293a20496e60008201527f76616c69642073656e6465720000000000000000000000000000000000000000602082015250565b7f4f63784c6f63616c506f6f6c2e73776170457468546f4f63617428293a20496e60008201527f73756666696369656e742062616c616e636520666f72204f43415420696e207460208201527f686520706f6f6c28342900000000000000000000000000000000000000000000604082015250565b7f4f63784c6f63616c506f6f6c2e7365744f6361744164647265737328293a204360008201527f616c6c657220666f7220206d7573742062652063726561746f72000000000000602082015250565b7f5472616e7366657248656c7065723a205452414e534645525f46524f4d5f464160008201527f494c454400000000000000000000000000000000000000000000000000000000602082015250565b7f4f63784c6f63616c506f6f6c2e73776170457468546f4f63617428293a20496e60008201527f73756666696369656e742062616c616e636520666f72204f43415420696e207460208201527f686520706f6f6c28322900000000000000000000000000000000000000000000604082015250565b6159eb81614d9d565b81146159f657600080fd5b50565b615a0281614daf565b8114615a0d57600080fd5b50565b615a1981614dc1565b8114615a2457600080fd5b50565b615a3081614ded565b8114615a3b57600080fd5b5056fea2646970667358221220b7034f11101edf8d01301611515a771cabae766a1b79aa5cb2b78e1908e133bd64736f6c63430008040033",
  "immutableReferences": {},
  "source": "// SPDX-License-Identifier: MIT\npragma solidity ^0.8.0;\n\nimport \"@openzeppelin/contracts/token/ERC20/IERC20.sol\"; // openzeppelin 4.5 (for solidity 0.8.x)\nimport '@uniswap/lib/contracts/libraries/TransferHelper.sol';\n\ncontract OcxLocalPool {\n\n    uint256 private constant QUOTE_DECIMALS = 6; // Must be more than 3 at least\n    address private constant WETH = 0xB4FBF271143F4FBf7B91A5ded31805e42b2208d6;\n\n    address payable private ocatAddress;\n    address payable private creator;\n\n    struct Pool {\n        address[2] tokens;\n        uint256[2] amounts;\n        uint256 k;\n        uint256 prevK;\n        uint8[2] quoteOrder;\n        uint256 prevQuote;\n        uint256 quoteOrig;\n        uint256 quote;\n    }\n\n    struct PoolShare {\n        uint8 poolIndex;\n        uint256[2] amounts;\n    }\n\n\n    Pool[] public poolList;\n    // mapping(address => PoolShare) public poolShare;\n    mapping(address => PoolShare[]) public poolShare;\n\n    receive() external payable {}\n\n    constructor() {\n        creator = payable(msg.sender);\n    }\n\n    function setOcatAddress(address payable _ocatAddress) public {\n        require(creator == msg.sender, \"OcxLocalPool.setOcatAddress(): Caller for  must be creator\");\n        require(_ocatAddress != address(0), \"OcxLocalPool.setOcatAddress(): Invalid parameter\");\n        ocatAddress = _ocatAddress;\n    }\n\n    function swapEthToOcat(uint _amountOutMin, address payable to, uint _deadline) public payable {\n        require(to != address(0), \"OcxLocalPool.swapEthToOcat(): Invalid sender\");\n        require(to != address(this), \"OcxLocalPool.swapEthToOcat(): The sender must be different than this\");\n        require(msg.value > 0, \"OcxLocalPool.swapEthToOcat(): Invalid ETH amount\");\n        // Find the ETH/OCAT pool\n        (bool bFound, uint8 poolIndex, bool isInTurn) = _getPoolIndex(WETH, ocatAddress);\n        // Check if the pool exists\n        require(bFound, \"OcxLocalPool.swapEthToOcat(): No pool for ETH-OCAT\");\n        // Get ETH balance in the pool\n        uint256 ethPoolBalance = poolList[poolIndex].amounts[isInTurn?0:1];\n        uint256 ocatPoolBalance = poolList[poolIndex].amounts[!isInTurn?0:1];\n        // Ensure that OCAT balance is more than 0\n        require(ocatPoolBalance > 0, \"OcxLocalPool.swapEthToOcat(): No balance for OCAT in the pool\");\n        // Ensure that OCAT balance >= _amountOutMin\n        require(ocatPoolBalance > _amountOutMin, \"OcxLocalPool.swapEthToOcat(): Insufficient balance for OCAT in the pool(1)\");\n        // Calculate the output amount of OCAT \n        require(ocatPoolBalance >= (poolList[poolIndex].k / (ethPoolBalance + msg.value)), \"OcxLocalPool.swapEthToOcat(): Insufficient balance for OCAT in the pool(2)\");\n        uint256 amountOut = ocatPoolBalance - (poolList[poolIndex].k / (ethPoolBalance + msg.value));\n        require(amountOut > 0, \"OcxLocalPool.swapEthToOcat(): Insufficient balance for OCAT in the pool(3)\");\n        require(amountOut >= _amountOutMin, \"OcxLocalPool.swapEthToOcat(): Insufficient balance for OCAT in the pool(4)\");\n\n        // Transfer ETH from the sender\n        // First check allowance of ETH amount from the sender\n        uint256 allowance = IERC20(WETH).allowance(to, address(this));\n        require(allowance >= msg.value, \"\");\n        // Transfer ETH from the sender\n        TransferHelper.safeTransferFrom(WETH, msg.sender, address(this), msg.value);\n        // Transfer OCAT to the sender\n        IERC20(ocatAddress).transfer(msg.sender, amountOut);\n\n        // Update the quote for the pool\n        poolList[poolIndex].amounts[isInTurn?0:1] += msg.value;\n        poolList[poolIndex].amounts[!isInTurn?0:1] -= amountOut;\n        poolList[poolIndex].prevQuote = poolList[poolIndex].quote;\n\n        poolList[poolIndex].quote = \n            (poolList[poolIndex].amounts[poolList[poolIndex].quoteOrder[0]] * (10 ** QUOTE_DECIMALS)) / \n                poolList[poolIndex].amounts[poolList[poolIndex].quoteOrder[1]];\n    }\n\n    function swapOcatToEth(uint _amountIn, uint _amountOutMin, address payable to, uint _deadline) public {\n        require(to != address(0), \"OcxLocalPool.swapOcatToEth(): Invalid sender\");\n        require(to != address(this), \"OcxLocalPool.swapOcatToEth(): The sender must be different than this\");\n        require(_amountIn > 0, \"OcxLocalPool.swapOcatToEth(): Invalid ETH amount\");\n        // Find the ETH/OCAT pool\n        (bool bFound, uint8 poolIndex, bool isInTurn) = _getPoolIndex(ocatAddress, WETH);\n        // Check if the pool exists\n        require(bFound, \"OcxLocalPool.swapOcatToEth(): No pool for ETH-OCAT\");\n        // Get ETH balance in the pool\n        uint256 ethPoolBalance = poolList[poolIndex].amounts[isInTurn?0:1];\n        uint256 ocatPoolBalance = poolList[poolIndex].amounts[!isInTurn?0:1];\n        // Ensure that OCAT balance is more than 0\n        require(ethPoolBalance > 0, \"OcxLocalPool.swapOcatToEth(): No balance for ETH in the pool\");\n        // Ensure that OCAT balance >= _amountOutMin\n        require(ethPoolBalance > _amountOutMin, \"OcxLocalPool.swapOcatToEth(): Insufficient balance for ETH in the pool(1)\");\n        // Calculate the output amount of OCAT \n        require(ethPoolBalance >= (poolList[poolIndex].k / (ocatPoolBalance + _amountIn)), \"OcxLocalPool.swapOcatToEth(): Insufficient balance for ETH in the pool(2)\");\n        uint256 amountOut = ethPoolBalance - (poolList[poolIndex].k / (ocatPoolBalance + _amountIn));\n        require(amountOut > 0, \"OcxLocalPool.swapOcatToEth(): Insufficient balance for ETH in the pool(3)\");\n        require(amountOut >= _amountOutMin, \"OcxLocalPool.swapOcatToEth(): Insufficient balance for ETH in the pool(4)\");\n        // Transfer OCAT from the sender\n        // First check allowance of OCAT amount from the sender\n        uint256 allowance = IERC20(ocatAddress).allowance(to, address(this));\n        require(allowance >= _amountIn, \"OcxLocalPool.swapOcatToEth(): Insufficient allowed amount for input token\");\n        // Transfer OCAT from the sender\n        TransferHelper.safeTransferFrom(ocatAddress, msg.sender, address(this), _amountIn);\n        // Transfer ETH to the sender\n        IERC20(WETH).transfer(msg.sender, amountOut);\n\n        // Update the quote for the pool\n        poolList[poolIndex].amounts[isInTurn?0:1] += _amountIn;\n        poolList[poolIndex].amounts[!isInTurn?0:1] -= amountOut;\n        poolList[poolIndex].prevQuote = poolList[poolIndex].quote;\n\n        poolList[poolIndex].quote = \n            (poolList[poolIndex].amounts[poolList[poolIndex].quoteOrder[0]] * (10 ** QUOTE_DECIMALS)) / \n                poolList[poolIndex].amounts[poolList[poolIndex].quoteOrder[1]];\n    }\n\n    function _getPoolIndex(\n        address token0,\n        address token1\n     ) internal view returns (bool bFound, uint8 poolIndex, bool isInTurn)  {\n        bFound = false;\n        poolIndex = 0;\n        isInTurn = true;\n        for (uint8 i = 0; i < poolList.length; i++) {\n            if ((poolList[i].tokens[0] == token0 && poolList[i].tokens[1] == token1) \n            || (poolList[i].tokens[1] == token0 && poolList[i].tokens[0] == token1)) {\n                bFound = true;\n                poolIndex = i;\n                if (poolList[i].tokens[1] == token0) {\n                    isInTurn = false;\n                }\n                break;\n            }\n        }\n    }\n\n    function addLiquidity(\n        address[2] memory tokens, \n        uint256[2] memory amounts\n    ) public {\n        require(msg.sender != address(0), \"Invalid sender\");\n        require(tokens[0] != address(0) && tokens[1] != address(0), \"Invalid tokens\");\n        require(tokens[0] != tokens[1], \"Same tokens\");\n        require(amounts[0] > 0 && amounts[1] > 0, \"Invalid amounts\");\n        // If the amount of OCAT is limited, then assert sender must be creator\n        // Otherwise OCAT is mintable with swapping from/to PNFT continuosly,\n        //   following assertion must be removed\n        require(creator == msg.sender);\n\n        // Get quote\n        // ...uint256((quote / poolList[poolIndex].quoteOrig) * 100)\n        // Transfer token A and B from msg.sender to this address\n\n        bool bExist = false;\n        bool isInTurn = true;\n        uint8 poolIndex = 0;\n        uint256 quoteMultiplier = 10 ** QUOTE_DECIMALS;\n\n        (bExist, poolIndex, isInTurn) = _getPoolIndex(tokens[0], tokens[1]);\n        if (!bExist) {\n            uint8[2] memory quoteOrder = [0, 1];\n            if (amounts[0] < amounts[1]) {\n                quoteOrder = [1, 0];\n            }\n            poolList.push(Pool(\n                {\n                    tokens: tokens,\n                    amounts: amounts, \n                    k: amounts[0] * amounts[1],\n                    prevK: 0,\n                    quoteOrder: quoteOrder,\n                    quoteOrig: uint256((amounts[quoteOrder[0]] * quoteMultiplier) / amounts[quoteOrder[1]]),\n                    quote: uint256((amounts[quoteOrder[0]] * quoteMultiplier) / amounts[quoteOrder[1]]),\n                    prevQuote: 0\n                })\n            );\n        } else {\n            // If order for token in parameter in against pool is revered, swap\n            if (!isInTurn) {\n                address tmpToken = tokens[0];\n                tokens[0] = tokens[1];\n                tokens[1] = tmpToken;\n                uint256 tmpAmount = amounts[0];\n                amounts[0] = amounts[1];\n                amounts[1] = tmpAmount;\n            }\n            // Check quote\n            uint256 quote = uint256(\n                (amounts[poolList[poolIndex].quoteOrder[0]] * quoteMultiplier) / \n                amounts[poolList[poolIndex].quoteOrder[1]]\n            );\n            uint256 quoteRate = uint256((quote * quoteMultiplier) / poolList[poolIndex].quoteOrig);\n            // Check if new quote >= 98% and <= 102%\n            require(\n                quoteRate > 980 * (10 ** (QUOTE_DECIMALS - 3)) && \n                    quoteRate < 1020 * (10 ** (QUOTE_DECIMALS - 3)), \n                \"Invalid quote\"\n            );\n            // Update pool\n            Pool memory pool = poolList[poolIndex];\n            pool.amounts[0] += amounts[0];\n            pool.amounts[1] += amounts[1];\n            pool.prevK = pool.k;\n            pool.k = pool.amounts[0] * pool.amounts[1];\n            pool.prevQuote = pool.quote;\n            pool.quote = uint256(\n                (pool.amounts[poolList[poolIndex].quoteOrder[0]] * quoteMultiplier) / \n                pool.amounts[poolList[poolIndex].quoteOrder[1]]\n            );\n            poolList[poolIndex] = pool;\n        }\n        // Update pool share\n        bExist = false;\n        for (uint i = 0; i < poolShare[msg.sender].length; i++) {\n            if (poolIndex == poolShare[msg.sender][i].poolIndex) {\n                poolShare[msg.sender][i].amounts[0] += amounts[0];\n                poolShare[msg.sender][i].amounts[1] += amounts[1];\n                bExist = true;\n                break;\n            }\n        }\n        if (!bExist) {\n            poolShare[msg.sender].push(PoolShare(poolIndex, amounts));\n        }\n\n        // Transfer amounts for both tokens from the sender\n        uint256 allowance = IERC20(tokens[0]).allowance(msg.sender, address(this));\n        require(allowance >= amounts[0], \"OcxLocalPool.addLiquidity(): Insufficient allowance for first token\");\n        allowance = IERC20(tokens[1]).allowance(msg.sender, address(this));\n        require(allowance >= amounts[1], \"OcxLocalPool.addLiquidity(): Insufficient allowance for second token\");\n        TransferHelper.safeTransferFrom(tokens[0], msg.sender, address(this), amounts[0]);\n        TransferHelper.safeTransferFrom(tokens[1], msg.sender, address(this), amounts[1]);\n\n        // Mint LP token to return\n        // ...\n    }\n}\n",
  "sourcePath": "/home/cowboy/OpenchainTestVersion/server/contracts/OcxLocalPool.sol",
  "compiler": {
    "name": "solc",
    "version": "0.8.4+commit.c7e474f2.Emscripten.clang"
  },
  "schemaVersion": "3.4.6",
  "updatedAt": "2022-03-31T15:03:24.686Z",
  "networkType": "ethereum",
  "devdoc": {
    "kind": "dev",
    "methods": {},
    "version": 1
  },
  "userdoc": {
    "kind": "user",
    "methods": {},
    "version": 1
  }
}