{
  "contractName": "OcxLPToken",
  "abi": [
    {
      "inputs": [],
      "stateMutability": "nonpayable",
      "type": "constructor"
    },
    {
      "anonymous": false,
      "inputs": [
        {
          "indexed": true,
          "internalType": "address",
          "name": "owner",
          "type": "address"
        },
        {
          "indexed": true,
          "internalType": "address",
          "name": "spender",
          "type": "address"
        },
        {
          "indexed": false,
          "internalType": "uint256",
          "name": "value",
          "type": "uint256"
        }
      ],
      "name": "Approval",
      "type": "event"
    },
    {
      "anonymous": false,
      "inputs": [
        {
          "indexed": true,
          "internalType": "address",
          "name": "from",
          "type": "address"
        },
        {
          "indexed": true,
          "internalType": "address",
          "name": "to",
          "type": "address"
        },
        {
          "indexed": false,
          "internalType": "uint256",
          "name": "value",
          "type": "uint256"
        }
      ],
      "name": "Transfer",
      "type": "event"
    },
    {
      "inputs": [
        {
          "internalType": "address",
          "name": "owner",
          "type": "address"
        },
        {
          "internalType": "address",
          "name": "spender",
          "type": "address"
        }
      ],
      "name": "allowance",
      "outputs": [
        {
          "internalType": "uint256",
          "name": "",
          "type": "uint256"
        }
      ],
      "stateMutability": "view",
      "type": "function"
    },
    {
      "inputs": [
        {
          "internalType": "address",
          "name": "spender",
          "type": "address"
        },
        {
          "internalType": "uint256",
          "name": "amount",
          "type": "uint256"
        }
      ],
      "name": "approve",
      "outputs": [
        {
          "internalType": "bool",
          "name": "",
          "type": "bool"
        }
      ],
      "stateMutability": "nonpayable",
      "type": "function"
    },
    {
      "inputs": [
        {
          "internalType": "address",
          "name": "account",
          "type": "address"
        }
      ],
      "name": "balanceOf",
      "outputs": [
        {
          "internalType": "uint256",
          "name": "",
          "type": "uint256"
        }
      ],
      "stateMutability": "view",
      "type": "function"
    },
    {
      "inputs": [
        {
          "internalType": "address",
          "name": "spender",
          "type": "address"
        },
        {
          "internalType": "uint256",
          "name": "subtractedValue",
          "type": "uint256"
        }
      ],
      "name": "decreaseAllowance",
      "outputs": [
        {
          "internalType": "bool",
          "name": "",
          "type": "bool"
        }
      ],
      "stateMutability": "nonpayable",
      "type": "function"
    },
    {
      "inputs": [
        {
          "internalType": "address",
          "name": "spender",
          "type": "address"
        },
        {
          "internalType": "uint256",
          "name": "addedValue",
          "type": "uint256"
        }
      ],
      "name": "increaseAllowance",
      "outputs": [
        {
          "internalType": "bool",
          "name": "",
          "type": "bool"
        }
      ],
      "stateMutability": "nonpayable",
      "type": "function"
    },
    {
      "inputs": [],
      "name": "name",
      "outputs": [
        {
          "internalType": "string",
          "name": "",
          "type": "string"
        }
      ],
      "stateMutability": "view",
      "type": "function"
    },
    {
      "inputs": [],
      "name": "symbol",
      "outputs": [
        {
          "internalType": "string",
          "name": "",
          "type": "string"
        }
      ],
      "stateMutability": "view",
      "type": "function"
    },
    {
      "inputs": [],
      "name": "totalSupply",
      "outputs": [
        {
          "internalType": "uint256",
          "name": "",
          "type": "uint256"
        }
      ],
      "stateMutability": "view",
      "type": "function"
    },
    {
      "inputs": [
        {
          "internalType": "address",
          "name": "to",
          "type": "address"
        },
        {
          "internalType": "uint256",
          "name": "amount",
          "type": "uint256"
        }
      ],
      "name": "transfer",
      "outputs": [
        {
          "internalType": "bool",
          "name": "",
          "type": "bool"
        }
      ],
      "stateMutability": "nonpayable",
      "type": "function"
    },
    {
      "inputs": [
        {
          "internalType": "address",
          "name": "from",
          "type": "address"
        },
        {
          "internalType": "address",
          "name": "to",
          "type": "address"
        },
        {
          "internalType": "uint256",
          "name": "amount",
          "type": "uint256"
        }
      ],
      "name": "transferFrom",
      "outputs": [
        {
          "internalType": "bool",
          "name": "",
          "type": "bool"
        }
      ],
      "stateMutability": "nonpayable",
      "type": "function"
    },
    {
      "stateMutability": "payable",
      "type": "receive"
    },
    {
      "inputs": [
        {
          "internalType": "address payable",
          "name": "poolAddress",
          "type": "address"
        }
      ],
      "name": "setOcxPoolAddress",
      "outputs": [],
      "stateMutability": "nonpayable",
      "type": "function"
    },
    {
      "inputs": [
        {
          "internalType": "address payable",
          "name": "to",
          "type": "address"
        },
        {
          "internalType": "uint256",
          "name": "amount",
          "type": "uint256"
        }
      ],
      "name": "mint",
      "outputs": [
        {
          "internalType": "bool",
          "name": "ret",
          "type": "bool"
        }
      ],
      "stateMutability": "nonpayable",
      "type": "function"
    },
    {
      "inputs": [],
      "name": "decimals",
      "outputs": [
        {
          "internalType": "uint8",
          "name": "",
          "type": "uint8"
        }
      ],
      "stateMutability": "view",
      "type": "function"
    }
  ],
  "bytecode": "0x60806040523480156200001157600080fd5b5060405180606001604052806033815260200162001d39603391396040518060400160405280600581526020017f4f43584c5000000000000000000000000000000000000000000000000000000081525081600390805190602001906200007a929190620000f9565b50806004908051906020019062000093929190620000f9565b50505033600660006101000a81548173ffffffffffffffffffffffffffffffffffffffff021916908373ffffffffffffffffffffffffffffffffffffffff1602179055506003600660146101000a81548160ff021916908360ff1602179055506200020e565b8280546200010790620001a9565b90600052602060002090601f0160209004810192826200012b576000855562000177565b82601f106200014657805160ff191683800117855562000177565b8280016001018555821562000177579182015b828111156200017657825182559160200191906001019062000159565b5b5090506200018691906200018a565b5090565b5b80821115620001a55760008160009055506001016200018b565b5090565b60006002820490506001821680620001c257607f821691505b60208210811415620001d957620001d8620001df565b5b50919050565b7f4e487b7100000000000000000000000000000000000000000000000000000000600052602260045260246000fd5b611b1b806200021e6000396000f3fe6080604052600436106100c65760003560e01c806340c10f191161007f578063a457c2d711610059578063a457c2d7146102af578063a9059cbb146102ec578063d14ce3ca14610329578063dd62ed3e14610352576100cd565b806340c10f191461020a57806370a082311461024757806395d89b4114610284576100cd565b806306fdde03146100d2578063095ea7b3146100fd57806318160ddd1461013a57806323b872dd14610165578063313ce567146101a257806339509351146101cd576100cd565b366100cd57005b600080fd5b3480156100de57600080fd5b506100e761038f565b6040516100f49190611305565b60405180910390f35b34801561010957600080fd5b50610124600480360381019061011f91906110ea565b610421565b60405161013191906112ea565b60405180910390f35b34801561014657600080fd5b5061014f610444565b60405161015c9190611467565b60405180910390f35b34801561017157600080fd5b5061018c6004803603810190610187919061109b565b61044e565b60405161019991906112ea565b60405180910390f35b3480156101ae57600080fd5b506101b761047d565b6040516101c49190611482565b60405180910390f35b3480156101d957600080fd5b506101f460048036038101906101ef91906110ea565b610494565b60405161020191906112ea565b60405180910390f35b34801561021657600080fd5b50610231600480360381019061022c9190611023565b61053e565b60405161023e91906112ea565b60405180910390f35b34801561025357600080fd5b5061026e60048036038101906102699190610fd1565b610606565b60405161027b9190611467565b60405180910390f35b34801561029057600080fd5b5061029961064e565b6040516102a69190611305565b60405180910390f35b3480156102bb57600080fd5b506102d660048036038101906102d191906110ea565b6106e0565b6040516102e391906112ea565b60405180910390f35b3480156102f857600080fd5b50610313600480360381019061030e91906110ea565b6107ca565b60405161032091906112ea565b60405180910390f35b34801561033557600080fd5b50610350600480360381019061034b9190610ffa565b6107ed565b005b34801561035e57600080fd5b506103796004803603810190610374919061105f565b6108c1565b6040516103869190611467565b60405180910390f35b60606003805461039e90611774565b80601f01602080910402602001604051908101604052809291908181526020018280546103ca90611774565b80156104175780601f106103ec57610100808354040283529160200191610417565b820191906000526020600020905b8154815290600101906020018083116103fa57829003601f168201915b5050505050905090565b60008061042c610948565b9050610439818585610950565b600191505092915050565b6000600254905090565b600080610459610948565b9050610466858285610b1b565b610471858585610ba7565b60019150509392505050565b6000600660149054906101000a900460ff16905090565b60008061049f610948565b9050610533818585600160008673ffffffffffffffffffffffffffffffffffffffff1673ffffffffffffffffffffffffffffffffffffffff16815260200190815260200160002060008973ffffffffffffffffffffffffffffffffffffffff1673ffffffffffffffffffffffffffffffffffffffff1681526020019081526020016000205461052e91906114b9565b610950565b600191505092915050565b6000600560009054906101000a900473ffffffffffffffffffffffffffffffffffffffff1673ffffffffffffffffffffffffffffffffffffffff163373ffffffffffffffffffffffffffffffffffffffff16146105d0576040517f08c379a00000000000000000000000000000000000000000000000000000000081526004016105c7906113c7565b60405180910390fd5b61060083600660149054906101000a900460ff16600a6105f09190611562565b846105fb9190611680565b610e28565b92915050565b60008060008373ffffffffffffffffffffffffffffffffffffffff1673ffffffffffffffffffffffffffffffffffffffff168152602001908152602001600020549050919050565b60606004805461065d90611774565b80601f016020809104026020016040519081016040528092919081815260200182805461068990611774565b80156106d65780601f106106ab576101008083540402835291602001916106d6565b820191906000526020600020905b8154815290600101906020018083116106b957829003601f168201915b5050505050905090565b6000806106eb610948565b90506000600160008373ffffffffffffffffffffffffffffffffffffffff1673ffffffffffffffffffffffffffffffffffffffff16815260200190815260200160002060008673ffffffffffffffffffffffffffffffffffffffff1673ffffffffffffffffffffffffffffffffffffffff168152602001908152602001600020549050838110156107b1576040517f08c379a00000000000000000000000000000000000000000000000000000000081526004016107a890611427565b60405180910390fd5b6107be8286868403610950565b60019250505092915050565b6000806107d5610948565b90506107e2818585610ba7565b600191505092915050565b600660009054906101000a900473ffffffffffffffffffffffffffffffffffffffff1673ffffffffffffffffffffffffffffffffffffffff163373ffffffffffffffffffffffffffffffffffffffff161461087d576040517f08c379a0000000000000000000000000000000000000000000000000000000008152600401610874906113a7565b60405180910390fd5b80600560006101000a81548173ffffffffffffffffffffffffffffffffffffffff021916908373ffffffffffffffffffffffffffffffffffffffff16021790555050565b6000600160008473ffffffffffffffffffffffffffffffffffffffff1673ffffffffffffffffffffffffffffffffffffffff16815260200190815260200160002060008373ffffffffffffffffffffffffffffffffffffffff1673ffffffffffffffffffffffffffffffffffffffff16815260200190815260200160002054905092915050565b600033905090565b600073ffffffffffffffffffffffffffffffffffffffff168373ffffffffffffffffffffffffffffffffffffffff1614156109c0576040517f08c379a00000000000000000000000000000000000000000000000000000000081526004016109b790611407565b60405180910390fd5b600073ffffffffffffffffffffffffffffffffffffffff168273ffffffffffffffffffffffffffffffffffffffff161415610a30576040517f08c379a0000000000000000000000000000000000000000000000000000000008152600401610a2790611347565b60405180910390fd5b80600160008573ffffffffffffffffffffffffffffffffffffffff1673ffffffffffffffffffffffffffffffffffffffff16815260200190815260200160002060008473ffffffffffffffffffffffffffffffffffffffff1673ffffffffffffffffffffffffffffffffffffffff168152602001908152602001600020819055508173ffffffffffffffffffffffffffffffffffffffff168373ffffffffffffffffffffffffffffffffffffffff167f8c5be1e5ebec7d5bd14f71427d1e84f3dd0314c0f7b2291e5b200ac8c7c3b92583604051610b0e9190611467565b60405180910390a3505050565b6000610b2784846108c1565b90507fffffffffffffffffffffffffffffffffffffffffffffffffffffffffffffffff8114610ba15781811015610b93576040517f08c379a0000000000000000000000000000000000000000000000000000000008152600401610b8a90611367565b60405180910390fd5b610ba08484848403610950565b5b50505050565b600073ffffffffffffffffffffffffffffffffffffffff168373ffffffffffffffffffffffffffffffffffffffff161415610c17576040517f08c379a0000000000000000000000000000000000000000000000000000000008152600401610c0e906113e7565b60405180910390fd5b600073ffffffffffffffffffffffffffffffffffffffff168273ffffffffffffffffffffffffffffffffffffffff161415610c87576040517f08c379a0000000000000000000000000000000000000000000000000000000008152600401610c7e90611327565b60405180910390fd5b610c92838383610f88565b60008060008573ffffffffffffffffffffffffffffffffffffffff1673ffffffffffffffffffffffffffffffffffffffff16815260200190815260200160002054905081811015610d18576040517f08c379a0000000000000000000000000000000000000000000000000000000008152600401610d0f90611387565b60405180910390fd5b8181036000808673ffffffffffffffffffffffffffffffffffffffff1673ffffffffffffffffffffffffffffffffffffffff16815260200190815260200160002081905550816000808573ffffffffffffffffffffffffffffffffffffffff1673ffffffffffffffffffffffffffffffffffffffff1681526020019081526020016000206000828254610dab91906114b9565b925050819055508273ffffffffffffffffffffffffffffffffffffffff168473ffffffffffffffffffffffffffffffffffffffff167fddf252ad1be2c89b69c2b068fc378daa952ba7f163c4a11628f55a4df523b3ef84604051610e0f9190611467565b60405180910390a3610e22848484610f8d565b50505050565b600073ffffffffffffffffffffffffffffffffffffffff168273ffffffffffffffffffffffffffffffffffffffff161415610e98576040517f08c379a0000000000000000000000000000000000000000000000000000000008152600401610e8f90611447565b60405180910390fd5b610ea460008383610f88565b8060026000828254610eb691906114b9565b92505081905550806000808473ffffffffffffffffffffffffffffffffffffffff1673ffffffffffffffffffffffffffffffffffffffff1681526020019081526020016000206000828254610f0b91906114b9565b925050819055508173ffffffffffffffffffffffffffffffffffffffff16600073ffffffffffffffffffffffffffffffffffffffff167fddf252ad1be2c89b69c2b068fc378daa952ba7f163c4a11628f55a4df523b3ef83604051610f709190611467565b60405180910390a3610f8460008383610f8d565b5050565b505050565b505050565b600081359050610fa181611aa0565b92915050565b600081359050610fb681611ab7565b92915050565b600081359050610fcb81611ace565b92915050565b600060208284031215610fe357600080fd5b6000610ff184828501610f92565b91505092915050565b60006020828403121561100c57600080fd5b600061101a84828501610fa7565b91505092915050565b6000806040838503121561103657600080fd5b600061104485828601610fa7565b925050602061105585828601610fbc565b9150509250929050565b6000806040838503121561107257600080fd5b600061108085828601610f92565b925050602061109185828601610f92565b9150509250929050565b6000806000606084860312156110b057600080fd5b60006110be86828701610f92565b93505060206110cf86828701610f92565b92505060406110e086828701610fbc565b9150509250925092565b600080604083850312156110fd57600080fd5b600061110b85828601610f92565b925050602061111c85828601610fbc565b9150509250929050565b61112f816116fe565b82525050565b60006111408261149d565b61114a81856114a8565b935061115a818560208601611741565b61116381611804565b840191505092915050565b600061117b6023836114a8565b915061118682611822565b604082019050919050565b600061119e6022836114a8565b91506111a982611871565b604082019050919050565b60006111c1601d836114a8565b91506111cc826118c0565b602082019050919050565b60006111e46026836114a8565b91506111ef826118e9565b604082019050919050565b6000611207600e836114a8565b915061121282611938565b602082019050919050565b600061122a600e836114a8565b915061123582611961565b602082019050919050565b600061124d6025836114a8565b91506112588261198a565b604082019050919050565b60006112706024836114a8565b915061127b826119d9565b604082019050919050565b60006112936025836114a8565b915061129e82611a28565b604082019050919050565b60006112b6601f836114a8565b91506112c182611a77565b602082019050919050565b6112d58161172a565b82525050565b6112e481611734565b82525050565b60006020820190506112ff6000830184611126565b92915050565b6000602082019050818103600083015261131f8184611135565b905092915050565b600060208201905081810360008301526113408161116e565b9050919050565b6000602082019050818103600083015261136081611191565b9050919050565b60006020820190508181036000830152611380816111b4565b9050919050565b600060208201905081810360008301526113a0816111d7565b9050919050565b600060208201905081810360008301526113c0816111fa565b9050919050565b600060208201905081810360008301526113e08161121d565b9050919050565b6000602082019050818103600083015261140081611240565b9050919050565b6000602082019050818103600083015261142081611263565b9050919050565b6000602082019050818103600083015261144081611286565b9050919050565b60006020820190508181036000830152611460816112a9565b9050919050565b600060208201905061147c60008301846112cc565b92915050565b600060208201905061149760008301846112db565b92915050565b600081519050919050565b600082825260208201905092915050565b60006114c48261172a565b91506114cf8361172a565b9250827fffffffffffffffffffffffffffffffffffffffffffffffffffffffffffffffff03821115611504576115036117a6565b5b828201905092915050565b6000808291508390505b600185111561155957808604811115611535576115346117a6565b5b60018516156115445780820291505b808102905061155285611815565b9450611519565b94509492505050565b600061156d8261172a565b915061157883611734565b92506115a57fffffffffffffffffffffffffffffffffffffffffffffffffffffffffffffffff84846115ad565b905092915050565b6000826115bd5760019050611679565b816115cb5760009050611679565b81600181146115e157600281146115eb5761161a565b6001915050611679565b60ff8411156115fd576115fc6117a6565b5b8360020a915084821115611614576116136117a6565b5b50611679565b5060208310610133831016604e8410600b841016171561164f5782820a90508381111561164a576116496117a6565b5b611679565b61165c848484600161150f565b92509050818404811115611673576116726117a6565b5b81810290505b9392505050565b600061168b8261172a565b91506116968361172a565b9250817fffffffffffffffffffffffffffffffffffffffffffffffffffffffffffffffff04831182151516156116cf576116ce6117a6565b5b828202905092915050565b60006116e58261170a565b9050919050565b60006116f78261170a565b9050919050565b60008115159050919050565b600073ffffffffffffffffffffffffffffffffffffffff82169050919050565b6000819050919050565b600060ff82169050919050565b60005b8381101561175f578082015181840152602081019050611744565b8381111561176e576000848401525b50505050565b6000600282049050600182168061178c57607f821691505b602082108114156117a05761179f6117d5565b5b50919050565b7f4e487b7100000000000000000000000000000000000000000000000000000000600052601160045260246000fd5b7f4e487b7100000000000000000000000000000000000000000000000000000000600052602260045260246000fd5b6000601f19601f8301169050919050565b60008160011c9050919050565b7f45524332303a207472616e7366657220746f20746865207a65726f206164647260008201527f6573730000000000000000000000000000000000000000000000000000000000602082015250565b7f45524332303a20617070726f766520746f20746865207a65726f20616464726560008201527f7373000000000000000000000000000000000000000000000000000000000000602082015250565b7f45524332303a20696e73756666696369656e7420616c6c6f77616e6365000000600082015250565b7f45524332303a207472616e7366657220616d6f756e742065786365656473206260008201527f616c616e63650000000000000000000000000000000000000000000000000000602082015250565b7f496e76616c69642073656e646572000000000000000000000000000000000000600082015250565b7f496e76616c6964206d696e746572000000000000000000000000000000000000600082015250565b7f45524332303a207472616e736665722066726f6d20746865207a65726f20616460008201527f6472657373000000000000000000000000000000000000000000000000000000602082015250565b7f45524332303a20617070726f76652066726f6d20746865207a65726f2061646460008201527f7265737300000000000000000000000000000000000000000000000000000000602082015250565b7f45524332303a2064656372656173656420616c6c6f77616e63652062656c6f7760008201527f207a65726f000000000000000000000000000000000000000000000000000000602082015250565b7f45524332303a206d696e7420746f20746865207a65726f206164647265737300600082015250565b611aa9816116da565b8114611ab457600080fd5b50565b611ac0816116ec565b8114611acb57600080fd5b50565b611ad78161172a565b8114611ae257600080fd5b5056fea26469706673582212208995aef68e50e744bb1ef961df4d4671b7422ed55410afcd9dc42408cb9c484c64736f6c634300080400334c69717569646974792050726f766964657220436f696e20666f72204f70656e636861696e446578204c6f63616c20506f6f6c",
  "immutableReferences": {},
  "source": "// SPDX-License-Identifier: MIT\r\npragma solidity ^0.8.0;\r\n\r\nimport \"@openzeppelin/contracts/token/ERC20/ERC20.sol\";\r\n\r\ncontract OcxLPToken is ERC20 {\r\n\r\n    address payable private ocxPool;\r\n    address payable private creator;\r\n    uint8           private _decimals;\r\n\r\n    receive() external payable {}\r\n\r\n    constructor() ERC20(\"Liquidity Provider Coin for OpenchainDex Local Pool\", \"OCXLP\") {\r\n        creator = payable(msg.sender);\r\n        _decimals = 3;\r\n    }\r\n\r\n    function setOcxPoolAddress(address payable poolAddress) public {\r\n        require(msg.sender == creator , \"Invalid sender\");\r\n        ocxPool = poolAddress;\r\n    }\r\n\r\n    function mint(address payable to, uint256 amount) public returns(bool ret) {\r\n        require(msg.sender == ocxPool, \"Invalid minter\");\r\n        super._mint(to, amount * (10 ** _decimals));\r\n    }\r\n\r\n    function decimals() public view virtual override returns (uint8) {\r\n        return _decimals;\r\n    }\r\n    /**\r\n    * Custom accessor to create a unique token\r\n    */\r\n}\r\n",
  "sourcePath": "E:\\Work\\OpenchainTestVersion\\server\\contracts\\OcxLPToken.sol",
  "compiler": {
    "name": "solc",
    "version": "0.8.4+commit.c7e474f2.Emscripten.clang"
  },
  "schemaVersion": "3.4.6",
  "updatedAt": "2022-04-06T04:07:16.208Z",
  "devdoc": {
    "kind": "dev",
    "methods": {
      "allowance(address,address)": {
        "details": "See {IERC20-allowance}."
      },
      "approve(address,uint256)": {
        "details": "See {IERC20-approve}. NOTE: If `amount` is the maximum `uint256`, the allowance is not updated on `transferFrom`. This is semantically equivalent to an infinite approval. Requirements: - `spender` cannot be the zero address."
      },
      "balanceOf(address)": {
        "details": "See {IERC20-balanceOf}."
      },
      "decimals()": {
        "details": "Returns the number of decimals used to get its user representation. For example, if `decimals` equals `2`, a balance of `505` tokens should be displayed to a user as `5.05` (`505 / 10 ** 2`). Tokens usually opt for a value of 18, imitating the relationship between Ether and Wei. This is the value {ERC20} uses, unless this function is overridden; NOTE: This information is only used for _display_ purposes: it in no way affects any of the arithmetic of the contract, including {IERC20-balanceOf} and {IERC20-transfer}."
      },
      "decreaseAllowance(address,uint256)": {
        "details": "Atomically decreases the allowance granted to `spender` by the caller. This is an alternative to {approve} that can be used as a mitigation for problems described in {IERC20-approve}. Emits an {Approval} event indicating the updated allowance. Requirements: - `spender` cannot be the zero address. - `spender` must have allowance for the caller of at least `subtractedValue`."
      },
      "increaseAllowance(address,uint256)": {
        "details": "Atomically increases the allowance granted to `spender` by the caller. This is an alternative to {approve} that can be used as a mitigation for problems described in {IERC20-approve}. Emits an {Approval} event indicating the updated allowance. Requirements: - `spender` cannot be the zero address."
      },
      "name()": {
        "details": "Returns the name of the token."
      },
      "symbol()": {
        "details": "Returns the symbol of the token, usually a shorter version of the name."
      },
      "totalSupply()": {
        "details": "See {IERC20-totalSupply}."
      },
      "transfer(address,uint256)": {
        "details": "See {IERC20-transfer}. Requirements: - `to` cannot be the zero address. - the caller must have a balance of at least `amount`."
      },
      "transferFrom(address,address,uint256)": {
        "details": "See {IERC20-transferFrom}. Emits an {Approval} event indicating the updated allowance. This is not required by the EIP. See the note at the beginning of {ERC20}. NOTE: Does not update the allowance if the current allowance is the maximum `uint256`. Requirements: - `from` and `to` cannot be the zero address. - `from` must have a balance of at least `amount`. - the caller must have allowance for ``from``'s tokens of at least `amount`."
      }
    },
    "version": 1
  },
  "userdoc": {
    "kind": "user",
    "methods": {},
    "version": 1
  }
}