{
  "contractName": "OcxLocalPool",
  "abi": [
    {
      "inputs": [],
      "stateMutability": "nonpayable",
      "type": "constructor"
    },
    {
      "anonymous": false,
      "inputs": [
        {
          "indexed": false,
          "internalType": "uint256",
          "name": "",
          "type": "uint256"
        }
      ],
      "name": "AmountToRetrieve",
      "type": "event"
    },
    {
      "inputs": [],
      "name": "poolCount",
      "outputs": [
        {
          "internalType": "uint8",
          "name": "",
          "type": "uint8"
        }
      ],
      "stateMutability": "view",
      "type": "function"
    },
    {
      "inputs": [
        {
          "internalType": "uint8",
          "name": "",
          "type": "uint8"
        }
      ],
      "name": "poolList",
      "outputs": [
        {
          "internalType": "uint256",
          "name": "k",
          "type": "uint256"
        },
        {
          "internalType": "uint256",
          "name": "prevK",
          "type": "uint256"
        },
        {
          "internalType": "uint256",
          "name": "prevQuote",
          "type": "uint256"
        },
        {
          "internalType": "uint256",
          "name": "quoteOrig",
          "type": "uint256"
        },
        {
          "internalType": "uint256",
          "name": "quote",
          "type": "uint256"
        }
      ],
      "stateMutability": "view",
      "type": "function"
    },
    {
      "inputs": [
        {
          "internalType": "address",
          "name": "",
          "type": "address"
        }
      ],
      "name": "shares",
      "outputs": [
        {
          "internalType": "uint8",
          "name": "poolCount",
          "type": "uint8"
        }
      ],
      "stateMutability": "view",
      "type": "function"
    },
    {
      "stateMutability": "payable",
      "type": "receive"
    },
    {
      "inputs": [
        {
          "internalType": "address payable",
          "name": "_ocatAddress",
          "type": "address"
        }
      ],
      "name": "setOcatAddress",
      "outputs": [],
      "stateMutability": "nonpayable",
      "type": "function"
    },
    {
      "inputs": [
        {
          "internalType": "address payable",
          "name": "_ocxlpAddress",
          "type": "address"
        }
      ],
      "name": "setOcxLPAddress",
      "outputs": [],
      "stateMutability": "nonpayable",
      "type": "function"
    },
    {
      "inputs": [
        {
          "internalType": "uint256",
          "name": "sellAmount",
          "type": "uint256"
        },
        {
          "internalType": "string[2]",
          "name": "path",
          "type": "string[2]"
        }
      ],
      "name": "getAmountsOut",
      "outputs": [
        {
          "internalType": "uint256",
          "name": "amountOut",
          "type": "uint256"
        },
        {
          "internalType": "uint8",
          "name": "poolIndex",
          "type": "uint8"
        }
      ],
      "stateMutability": "view",
      "type": "function"
    },
    {
      "inputs": [
        {
          "internalType": "uint256",
          "name": "_amountOutMin",
          "type": "uint256"
        },
        {
          "internalType": "address payable",
          "name": "to",
          "type": "address"
        },
        {
          "internalType": "uint256",
          "name": "_deadline",
          "type": "uint256"
        }
      ],
      "name": "swapEthToOcat",
      "outputs": [],
      "stateMutability": "payable",
      "type": "function"
    },
    {
      "inputs": [
        {
          "internalType": "uint256",
          "name": "_amountIn",
          "type": "uint256"
        },
        {
          "internalType": "uint256",
          "name": "_amountOutMin",
          "type": "uint256"
        },
        {
          "internalType": "address payable",
          "name": "to",
          "type": "address"
        },
        {
          "internalType": "uint256",
          "name": "_deadline",
          "type": "uint256"
        }
      ],
      "name": "swapOcatToEth",
      "outputs": [
        {
          "internalType": "uint256",
          "name": "amountOut",
          "type": "uint256"
        }
      ],
      "stateMutability": "nonpayable",
      "type": "function"
    },
    {
      "inputs": [
        {
          "internalType": "address",
          "name": "token",
          "type": "address"
        },
        {
          "internalType": "uint256",
          "name": "amount",
          "type": "uint256"
        }
      ],
      "name": "addLiquidityWithETH",
      "outputs": [],
      "stateMutability": "payable",
      "type": "function"
    }
  ],
  "bytecode": "0x608060405234801561001057600080fd5b5033600260006101000a81548173ffffffffffffffffffffffffffffffffffffffff021916908373ffffffffffffffffffffffffffffffffffffffff160217905550614652806100616000396000f3fe60806040526004361061008a5760003560e01c8063b18d30a211610059578063b18d30a21461014c578063ce7c2ac214610175578063e86ede26146101b2578063e9ee997a146101db578063f525cb681461021957610091565b80635c4f127c1461009657806362eaaf20146100b25780639d26bc1a146100f3578063aebf1ffc1461013057610091565b3661009157005b600080fd5b6100b060048036038101906100ab91906130fe565b610244565b005b3480156100be57600080fd5b506100d960048036038101906100d49190613292565b611337565b6040516100ea959493929190613b09565b60405180910390f35b3480156100ff57600080fd5b5061011a6004803603810190610115919061322f565b61136d565b6040516101279190613aee565b60405180910390f35b61014a6004803603810190610145919061318c565b611a26565b005b34801561015857600080fd5b50610173600480360381019061016e91906130d5565b611ef3565b005b34801561018157600080fd5b5061019c600480360381019061019791906130ac565b612036565b6040516101a99190613b85565b60405180910390f35b3480156101be57600080fd5b506101d960048036038101906101d491906130d5565b612061565b005b3480156101e757600080fd5b5061020260048036038101906101fd91906131db565b612232565b604051610210929190613b5c565b60405180910390f35b34801561022557600080fd5b5061022e6127e5565b60405161023b9190613b85565b60405180910390f35b600073ffffffffffffffffffffffffffffffffffffffff163373ffffffffffffffffffffffffffffffffffffffff1614156102b4576040517f08c379a00000000000000000000000000000000000000000000000000000000081526004016102ab906139ae565b60405180910390fd5b600073ffffffffffffffffffffffffffffffffffffffff168273ffffffffffffffffffffffffffffffffffffffff161415610324576040517f08c379a000000000000000000000000000000000000000000000000000000000815260040161031b9061396e565b60405180910390fd5b60008111610367576040517f08c379a000000000000000000000000000000000000000000000000000000000815260040161035e9061388e565b60405180910390fd5b3373ffffffffffffffffffffffffffffffffffffffff16600260009054906101000a900473ffffffffffffffffffffffffffffffffffffffff1673ffffffffffffffffffffffffffffffffffffffff16146103f7576040517f08c379a00000000000000000000000000000000000000000000000000000000081526004016103ee9061398e565b60405180910390fd5b600080600190506000806003600a61040f9190613d33565b905061041c6000876127f8565b80955081945082965050505083610a8d57610435612e66565b600081600060028110610471577f4e487b7100000000000000000000000000000000000000000000000000000000600052603260045260246000fd5b602002019073ffffffffffffffffffffffffffffffffffffffff16908173ffffffffffffffffffffffffffffffffffffffff168152505086816001600281106104e3577f4e487b7100000000000000000000000000000000000000000000000000000000600052603260045260246000fd5b602002019073ffffffffffffffffffffffffffffffffffffffff16908173ffffffffffffffffffffffffffffffffffffffff16815250508534111561060857868160006002811061055d577f4e487b7100000000000000000000000000000000000000000000000000000000600052603260045260246000fd5b602002019073ffffffffffffffffffffffffffffffffffffffff16908173ffffffffffffffffffffffffffffffffffffffff16815250506000816001600281106105d0577f4e487b7100000000000000000000000000000000000000000000000000000000600052603260045260246000fd5b602002019073ffffffffffffffffffffffffffffffffffffffff16908173ffffffffffffffffffffffffffffffffffffffff16815250505b6040518060400160405280600073ffffffffffffffffffffffffffffffffffffffff1673ffffffffffffffffffffffffffffffffffffffff1681526020018873ffffffffffffffffffffffffffffffffffffffff1673ffffffffffffffffffffffffffffffffffffffff1681525060036000600460009054906101000a900460ff1660ff1660ff1681526020019081526020016000206000019060026106af929190612e88565b503460036000600460009054906101000a900460ff1660ff1660ff16815260200190815260200160002060020160008073ffffffffffffffffffffffffffffffffffffffff1673ffffffffffffffffffffffffffffffffffffffff168152602001908152602001600020819055508560036000600460009054906101000a900460ff1660ff1660ff16815260200190815260200160002060020160008973ffffffffffffffffffffffffffffffffffffffff1673ffffffffffffffffffffffffffffffffffffffff1681526020019081526020016000208190555085346107969190613e51565b60036000600460009054906101000a900460ff1660ff1660ff16815260200190815260200160002060030181905550600060036000600460009054906101000a900460ff1660ff1660ff168152602001908152602001600020600401819055508060036000600460009054906101000a900460ff1660ff1660ff168152602001908152602001600020600501906002610830929190612e88565b5060036000600460009054906101000a900460ff1660ff1660ff168152602001908152602001600020600201600082600060028110610898577f4e487b7100000000000000000000000000000000000000000000000000000000600052603260045260246000fd5b602002015173ffffffffffffffffffffffffffffffffffffffff1673ffffffffffffffffffffffffffffffffffffffff168152602001908152602001600020548260036000600460009054906101000a900460ff1660ff1660ff168152602001908152602001600020600201600084600160028110610940577f4e487b7100000000000000000000000000000000000000000000000000000000600052603260045260246000fd5b602002015173ffffffffffffffffffffffffffffffffffffffff1673ffffffffffffffffffffffffffffffffffffffff1681526020019081526020016000205461098a9190613e51565b6109949190613caf565b60036000600460009054906101000a900460ff1660ff1660ff1681526020019081526020016000206009018190555060036000600460009054906101000a900460ff1660ff1660ff1681526020019081526020016000206009015460036000600460009054906101000a900460ff1660ff1660ff16815260200190815260200160002060080181905550600060036000600460009054906101000a900460ff1660ff1660ff168152602001908152602001600020600701819055506004600081819054906101000a900460ff1680929190610a6e90613fef565b91906101000a81548160ff021916908360ff1602179055505050610dd2565b6000348287610a9c9190613e51565b610aa69190613caf565b90506000600360008560ff1660ff168152602001908152602001600020600801548383610ad39190613e51565b610add9190613caf565b905060026003610aed9190613eab565b600a610af99190613d33565b6062610b059190613e51565b81118015610b37575060026003610b1c9190613eab565b600a610b289190613d33565b6066610b349190613e51565b81105b610b76576040517f08c379a0000000000000000000000000000000000000000000000000000000008152600401610b6d906138ae565b60405180910390fd5b34600360008660ff1660ff16815260200190815260200160002060020160008073ffffffffffffffffffffffffffffffffffffffff1673ffffffffffffffffffffffffffffffffffffffff1681526020019081526020016000206000828254610bdf9190613c59565b9250508190555086600360008660ff1660ff16815260200190815260200160002060020160008a73ffffffffffffffffffffffffffffffffffffffff1673ffffffffffffffffffffffffffffffffffffffff1681526020019081526020016000206000828254610c4f9190613c59565b92505081905550600360008560ff1660ff16815260200190815260200160002060030154600360008660ff1660ff16815260200190815260200160002060040181905550600360008560ff1660ff16815260200190815260200160002060020160008973ffffffffffffffffffffffffffffffffffffffff1673ffffffffffffffffffffffffffffffffffffffff16815260200190815260200160002054600360008660ff1660ff16815260200190815260200160002060020160008073ffffffffffffffffffffffffffffffffffffffff1673ffffffffffffffffffffffffffffffffffffffff16815260200190815260200160002054610d519190613e51565b600360008660ff1660ff16815260200190815260200160002060030181905550600360008560ff1660ff16815260200190815260200160002060090154600360008660ff1660ff1681526020019081526020016000206007018190555081600360008660ff1660ff1681526020019081526020016000206009018190555050505b6000935060005b600560003373ffffffffffffffffffffffffffffffffffffffff1673ffffffffffffffffffffffffffffffffffffffff16815260200190815260200160002060010160009054906101000a900460ff1660ff168160ff16101561102957600560003373ffffffffffffffffffffffffffffffffffffffff1673ffffffffffffffffffffffffffffffffffffffff16815260200190815260200160002060000160008260ff1660ff16815260200190815260200160002060000160009054906101000a900460ff1660ff168360ff1614156110165734600560003373ffffffffffffffffffffffffffffffffffffffff1673ffffffffffffffffffffffffffffffffffffffff16815260200190815260200160002060000160008360ff1660ff16815260200190815260200160002060010160008073ffffffffffffffffffffffffffffffffffffffff1673ffffffffffffffffffffffffffffffffffffffff1681526020019081526020016000206000828254610f569190613c59565b9250508190555085600560003373ffffffffffffffffffffffffffffffffffffffff1673ffffffffffffffffffffffffffffffffffffffff16815260200190815260200160002060000160008360ff1660ff16815260200190815260200160002060010160008973ffffffffffffffffffffffffffffffffffffffff1673ffffffffffffffffffffffffffffffffffffffff16815260200190815260200160002060008282546110069190613c59565b9250508190555060019450611029565b808061102190613fef565b915050610dd9565b50836112505781600560003373ffffffffffffffffffffffffffffffffffffffff1673ffffffffffffffffffffffffffffffffffffffff16815260200190815260200160002060000160008060ff16815260200190815260200160002060000160006101000a81548160ff021916908360ff16021790555034600560003373ffffffffffffffffffffffffffffffffffffffff1673ffffffffffffffffffffffffffffffffffffffff16815260200190815260200160002060000160008060ff16815260200190815260200160002060010160008073ffffffffffffffffffffffffffffffffffffffff1673ffffffffffffffffffffffffffffffffffffffff1681526020019081526020016000208190555084600560003373ffffffffffffffffffffffffffffffffffffffff1673ffffffffffffffffffffffffffffffffffffffff16815260200190815260200160002060000160008060ff16815260200190815260200160002060010160008873ffffffffffffffffffffffffffffffffffffffff1673ffffffffffffffffffffffffffffffffffffffff16815260200190815260200160002081905550600560003373ffffffffffffffffffffffffffffffffffffffff1673ffffffffffffffffffffffffffffffffffffffff168152602001908152602001600020600101600081819054906101000a900460ff168092919061123690613fef565b91906101000a81548160ff021916908360ff160217905550505b60008673ffffffffffffffffffffffffffffffffffffffff1663dd62ed3e33306040518363ffffffff1660e01b815260040161128d929190613745565b60206040518083038186803b1580156112a557600080fd5b505afa1580156112b9573d6000803e3d6000fd5b505050506040513d601f19601f820116820180604052508101906112dd9190613163565b905085811015611322576040517f08c379a0000000000000000000000000000000000000000000000000000000008152600401611319906137ce565b60405180910390fd5b61132e87333089612bae565b50505050505050565b60036020528060005260406000206000915090508060030154908060040154908060070154908060080154908060090154905085565b60008073ffffffffffffffffffffffffffffffffffffffff168373ffffffffffffffffffffffffffffffffffffffff1614156113de576040517f08c379a00000000000000000000000000000000000000000000000000000000081526004016113d59061386e565b60405180910390fd5b3073ffffffffffffffffffffffffffffffffffffffff168373ffffffffffffffffffffffffffffffffffffffff16141561144d576040517f08c379a0000000000000000000000000000000000000000000000000000000008152600401611444906139ce565b60405180910390fd5b60008511611490576040517f08c379a000000000000000000000000000000000000000000000000000000000815260040161148790613ace565b60405180910390fd5b600061151a8660405180604001604052806040518060400160405280600481526020017f4f4341540000000000000000000000000000000000000000000000000000000081525081526020016040518060400160405280600381526020017f4554480000000000000000000000000000000000000000000000000000000000815250815250612232565b809250819350505084821015611565576040517f08c379a000000000000000000000000000000000000000000000000000000000815260040161155c906138ee565b60405180910390fd5b7fd1b1b510e169b19048c41a78e951db334c9b07265d1b5e112ad361651a1564af826040516115949190613aee565b60405180910390a160008060009054906101000a900473ffffffffffffffffffffffffffffffffffffffff1673ffffffffffffffffffffffffffffffffffffffff1663dd62ed3e86306040518363ffffffff1660e01b81526004016115fa92919061371c565b60206040518083038186803b15801561161257600080fd5b505afa158015611626573d6000803e3d6000fd5b505050506040513d601f19601f8201168201806040525081019061164a9190613163565b90508681101561168f576040517f08c379a000000000000000000000000000000000000000000000000000000000815260040161168690613a8e565b60405180910390fd5b6116bb60008054906101000a900473ffffffffffffffffffffffffffffffffffffffff1686308a612bae565b6116c58584612ce7565b7fd1b1b510e169b19048c41a78e951db334c9b07265d1b5e112ad361651a1564af836040516116f49190613aee565b60405180910390a186600360008460ff1660ff16815260200190815260200160002060020160008060009054906101000a900473ffffffffffffffffffffffffffffffffffffffff1673ffffffffffffffffffffffffffffffffffffffff1673ffffffffffffffffffffffffffffffffffffffff16815260200190815260200160002060008282546117869190613c59565b9250508190555082600360008460ff1660ff16815260200190815260200160002060020160008073ffffffffffffffffffffffffffffffffffffffff1673ffffffffffffffffffffffffffffffffffffffff16815260200190815260200160002060008282546117f69190613eab565b92505081905550600360008360ff1660ff16815260200190815260200160002060090154600360008460ff1660ff16815260200190815260200160002060070181905550600360008360ff1660ff1681526020019081526020016000206002016000600360008560ff1660ff1681526020019081526020016000206005016000600281106118ad577f4e487b7100000000000000000000000000000000000000000000000000000000600052603260045260246000fd5b0160009054906101000a900473ffffffffffffffffffffffffffffffffffffffff1673ffffffffffffffffffffffffffffffffffffffff1673ffffffffffffffffffffffffffffffffffffffff168152602001908152602001600020546003600a6119189190613d33565b600360008560ff1660ff1681526020019081526020016000206002016000600360008760ff1660ff16815260200190815260200160002060050160016002811061198b577f4e487b7100000000000000000000000000000000000000000000000000000000600052603260045260246000fd5b0160009054906101000a900473ffffffffffffffffffffffffffffffffffffffff1673ffffffffffffffffffffffffffffffffffffffff1673ffffffffffffffffffffffffffffffffffffffff168152602001908152602001600020546119f29190613e51565b6119fc9190613caf565b600360008460ff1660ff168152602001908152602001600020600901819055505050949350505050565b600073ffffffffffffffffffffffffffffffffffffffff168273ffffffffffffffffffffffffffffffffffffffff1614158015611a8f57503073ffffffffffffffffffffffffffffffffffffffff168273ffffffffffffffffffffffffffffffffffffffff1614155b611ace576040517f08c379a0000000000000000000000000000000000000000000000000000000008152600401611ac59061382e565b60405180910390fd5b60003411611b11576040517f08c379a0000000000000000000000000000000000000000000000000000000008152600401611b08906139ee565b60405180910390fd5b600080611b9c3460405180604001604052806040518060400160405280600381526020017f455448000000000000000000000000000000000000000000000000000000000081525081526020016040518060400160405280600481526020017f4f43415400000000000000000000000000000000000000000000000000000000815250815250612232565b9150915084821015611be3576040517f08c379a0000000000000000000000000000000000000000000000000000000008152600401611bda9061392e565b60405180910390fd5b60008054906101000a900473ffffffffffffffffffffffffffffffffffffffff1673ffffffffffffffffffffffffffffffffffffffff1663a9059cbb33846040518363ffffffff1660e01b8152600401611c3e9291906137a5565b602060405180830381600087803b158015611c5857600080fd5b505af1158015611c6c573d6000803e3d6000fd5b505050506040513d601f19601f82011682018060405250810190611c90919061313a565b5034600360008360ff1660ff16815260200190815260200160002060020160008073ffffffffffffffffffffffffffffffffffffffff1673ffffffffffffffffffffffffffffffffffffffff1681526020019081526020016000206000828254611cfa9190613c59565b9250508190555081600360008360ff1660ff16815260200190815260200160002060020160008060009054906101000a900473ffffffffffffffffffffffffffffffffffffffff1673ffffffffffffffffffffffffffffffffffffffff1673ffffffffffffffffffffffffffffffffffffffff1681526020019081526020016000206000828254611d8b9190613eab565b92505081905550600360008260ff1660ff16815260200190815260200160002060090154600360008360ff1660ff1681526020019081526020016000206007018190555060006003600a611ddf9190613d33565b600360008460ff1660ff16815260200190815260200160002060020160008073ffffffffffffffffffffffffffffffffffffffff1673ffffffffffffffffffffffffffffffffffffffff16815260200190815260200160002054611e439190613e51565b9050600360008360ff1660ff16815260200190815260200160002060020160008060009054906101000a900473ffffffffffffffffffffffffffffffffffffffff1673ffffffffffffffffffffffffffffffffffffffff1673ffffffffffffffffffffffffffffffffffffffff1681526020019081526020016000205481611ecb9190613caf565b600360008460ff1660ff16815260200190815260200160002060090181905550505050505050565b3373ffffffffffffffffffffffffffffffffffffffff16600260009054906101000a900473ffffffffffffffffffffffffffffffffffffffff1673ffffffffffffffffffffffffffffffffffffffff1614611f83576040517f08c379a0000000000000000000000000000000000000000000000000000000008152600401611f7a9061380e565b60405180910390fd5b600073ffffffffffffffffffffffffffffffffffffffff168173ffffffffffffffffffffffffffffffffffffffff161415611ff3576040517f08c379a0000000000000000000000000000000000000000000000000000000008152600401611fea906137ee565b60405180910390fd5b806000806101000a81548173ffffffffffffffffffffffffffffffffffffffff021916908373ffffffffffffffffffffffffffffffffffffffff16021790555050565b60056020528060005260406000206000915090508060010160009054906101000a900460ff16905081565b3373ffffffffffffffffffffffffffffffffffffffff16600260009054906101000a900473ffffffffffffffffffffffffffffffffffffffff1673ffffffffffffffffffffffffffffffffffffffff16146120f1576040517f08c379a00000000000000000000000000000000000000000000000000000000081526004016120e89061380e565b60405180910390fd5b600073ffffffffffffffffffffffffffffffffffffffff168173ffffffffffffffffffffffffffffffffffffffff161415612161576040517f08c379a0000000000000000000000000000000000000000000000000000000008152600401612158906137ee565b60405180910390fd5b80600160006101000a81548173ffffffffffffffffffffffffffffffffffffffff021916908373ffffffffffffffffffffffffffffffffffffffff160217905550600160009054906101000a900473ffffffffffffffffffffffffffffffffffffffff1673ffffffffffffffffffffffffffffffffffffffff1663d14ce3ca306040518263ffffffff1660e01b81526004016121fd9190613701565b600060405180830381600087803b15801561221757600080fd5b505af115801561222b573d6000803e3d6000fd5b5050505050565b60008060006122b484600060028110612274577f4e487b7100000000000000000000000000000000000000000000000000000000600052603260045260246000fd5b60200201516040518060400160405280600381526020017f4554480000000000000000000000000000000000000000000000000000000000815250612e0d565b90506000612335856001600281106122f5577f4e487b7100000000000000000000000000000000000000000000000000000000600052603260045260246000fd5b60200201516040518060400160405280600481526020017f4f43415400000000000000000000000000000000000000000000000000000000815250612e0d565b905060006123b686600060028110612376577f4e487b7100000000000000000000000000000000000000000000000000000000600052603260045260246000fd5b60200201516040518060400160405280600481526020017f4f43415400000000000000000000000000000000000000000000000000000000815250612e0d565b90506000612437876001600281106123f7577f4e487b7100000000000000000000000000000000000000000000000000000000600052603260045260246000fd5b60200201516040518060400160405280600381526020017f4554480000000000000000000000000000000000000000000000000000000000815250612e0d565b90508380156124435750825b8061245457508180156124535750805b5b612493576040517f08c379a000000000000000000000000000000000000000000000000000000000815260040161248a90613a4e565b60405180910390fd5b6000806124c260008060009054906101000a900473ffffffffffffffffffffffffffffffffffffffff166127f8565b8093508199508294505050506000600360008960ff1660ff16815260200190815260200160002060020160008073ffffffffffffffffffffffffffffffffffffffff1673ffffffffffffffffffffffffffffffffffffffff1681526020019081526020016000205490506000600360008a60ff1660ff16815260200190815260200160002060020160008060009054906101000a900473ffffffffffffffffffffffffffffffffffffffff1673ffffffffffffffffffffffffffffffffffffffff1673ffffffffffffffffffffffffffffffffffffffff1681526020019081526020016000205490508780156125b55750865b156126ca57836125fa576040517f08c379a00000000000000000000000000000000000000000000000000000000081526004016125f190613a0e565b60405180910390fd5b6000811161263d576040517f08c379a000000000000000000000000000000000000000000000000000000000815260040161263490613a6e565b60405180910390fd5b60008c8361264b9190613c59565b600360008c60ff1660ff168152602001908152602001600020600301546126729190613caf565b90508082116126b6576040517f08c379a00000000000000000000000000000000000000000000000000000000081526004016126ad9061390e565b60405180910390fd5b80826126c29190613eab565b9a50506127d6565b8361270a576040517f08c379a0000000000000000000000000000000000000000000000000000000008152600401612701906138ce565b60405180910390fd5b6000821161274d576040517f08c379a00000000000000000000000000000000000000000000000000000000081526004016127449061384e565b60405180910390fd5b60008c8261275b9190613c59565b600360008c60ff1660ff168152602001908152602001600020600301546127829190613caf565b90508083116127c6576040517f08c379a00000000000000000000000000000000000000000000000000000000081526004016127bd9061394e565b60405180910390fd5b80836127d29190613eab565b9a50505b50505050505050509250929050565b600460009054906101000a900460ff1681565b6000806000809250600091506001905060005b600460009054906101000a900460ff1660ff168160ff161015612ba6578573ffffffffffffffffffffffffffffffffffffffff16600360008360ff1660ff168152602001908152602001600020600001600060028110612894577f4e487b7100000000000000000000000000000000000000000000000000000000600052603260045260246000fd5b0160009054906101000a900473ffffffffffffffffffffffffffffffffffffffff1673ffffffffffffffffffffffffffffffffffffffff1614801561297a57508473ffffffffffffffffffffffffffffffffffffffff16600360008360ff1660ff168152602001908152602001600020600001600160028110612940577f4e487b7100000000000000000000000000000000000000000000000000000000600052603260045260246000fd5b0160009054906101000a900473ffffffffffffffffffffffffffffffffffffffff1673ffffffffffffffffffffffffffffffffffffffff16145b80612ad357508573ffffffffffffffffffffffffffffffffffffffff16600360008360ff1660ff1681526020019081526020016000206000016001600281106129ec577f4e487b7100000000000000000000000000000000000000000000000000000000600052603260045260246000fd5b0160009054906101000a900473ffffffffffffffffffffffffffffffffffffffff1673ffffffffffffffffffffffffffffffffffffffff16148015612ad257508473ffffffffffffffffffffffffffffffffffffffff16600360008360ff1660ff168152602001908152602001600020600001600060028110612a98577f4e487b7100000000000000000000000000000000000000000000000000000000600052603260045260246000fd5b0160009054906101000a900473ffffffffffffffffffffffffffffffffffffffff1673ffffffffffffffffffffffffffffffffffffffff16145b5b15612b9357600193508092508573ffffffffffffffffffffffffffffffffffffffff16600360008360ff1660ff168152602001908152602001600020600001600160028110612b4b577f4e487b7100000000000000000000000000000000000000000000000000000000600052603260045260246000fd5b0160009054906101000a900473ffffffffffffffffffffffffffffffffffffffff1673ffffffffffffffffffffffffffffffffffffffff161415612b8e57600091505b612ba6565b8080612b9e90613fef565b91505061280b565b509250925092565b6000808573ffffffffffffffffffffffffffffffffffffffff166323b872dd868686604051602401612be29392919061376e565b6040516020818303038152906040529060e01b6020820180517bffffffffffffffffffffffffffffffffffffffffffffffffffffffff8381831617835250505050604051612c3091906136d3565b6000604051808303816000865af19150503d8060008114612c6d576040519150601f19603f3d011682016040523d82523d6000602084013e612c72565b606091505b5091509150818015612ca05750600081511480612c9f575080806020019051810190612c9e919061313a565b5b5b612cdf576040517f08c379a0000000000000000000000000000000000000000000000000000000008152600401612cd690613aae565b60405180910390fd5b505050505050565b60008273ffffffffffffffffffffffffffffffffffffffff1682600067ffffffffffffffff811115612d42577f4e487b7100000000000000000000000000000000000000000000000000000000600052604160045260246000fd5b6040519080825280601f01601f191660200182016040528015612d745781602001600182028036833780820191505090505b50604051612d8291906136d3565b60006040518083038185875af1925050503d8060008114612dbf576040519150601f19603f3d011682016040523d82523d6000602084013e612dc4565b606091505b5050905080612e08576040517f08c379a0000000000000000000000000000000000000000000000000000000008152600401612dff90613a2e565b60405180910390fd5b505050565b600081604051602001612e2091906136ea565b6040516020818303038152906040528051906020012083604051602001612e4791906136ea565b6040516020818303038152906040528051906020012014905092915050565b6040518060400160405280600290602082028036833780820191505090505090565b8260028101928215612ef4579160200282015b82811115612ef35782518260006101000a81548173ffffffffffffffffffffffffffffffffffffffff021916908373ffffffffffffffffffffffffffffffffffffffff16021790555091602001919060010190612e9b565b5b509050612f019190612f05565b5090565b5b80821115612f1e576000816000905550600101612f06565b5090565b6000612f35612f3084613bc5565b613ba0565b90508082856020860282011115612f4b57600080fd5b60005b85811015612f9557813567ffffffffffffffff811115612f6d57600080fd5b808601612f7a8982613043565b85526020850194506020840193505050600181019050612f4e565b5050509392505050565b6000612fb2612fad84613beb565b613ba0565b905082815260208101848484011115612fca57600080fd5b612fd5848285613f7c565b509392505050565b600081359050612fec816145a9565b92915050565b600081359050613001816145c0565b92915050565b600082601f83011261301857600080fd5b6002613025848285612f22565b91505092915050565b60008151905061303d816145d7565b92915050565b600082601f83011261305457600080fd5b8135613064848260208601612f9f565b91505092915050565b60008135905061307c816145ee565b92915050565b600081519050613091816145ee565b92915050565b6000813590506130a681614605565b92915050565b6000602082840312156130be57600080fd5b60006130cc84828501612fdd565b91505092915050565b6000602082840312156130e757600080fd5b60006130f584828501612ff2565b91505092915050565b6000806040838503121561311157600080fd5b600061311f85828601612fdd565b92505060206131308582860161306d565b9150509250929050565b60006020828403121561314c57600080fd5b600061315a8482850161302e565b91505092915050565b60006020828403121561317557600080fd5b600061318384828501613082565b91505092915050565b6000806000606084860312156131a157600080fd5b60006131af8682870161306d565b93505060206131c086828701612ff2565b92505060406131d18682870161306d565b9150509250925092565b600080604083850312156131ee57600080fd5b60006131fc8582860161306d565b925050602083013567ffffffffffffffff81111561321957600080fd5b61322585828601613007565b9150509250929050565b6000806000806080858703121561324557600080fd5b60006132538782880161306d565b94505060206132648782880161306d565b935050604061327587828801612ff2565b92505060606132868782880161306d565b91505092959194509250565b6000602082840312156132a457600080fd5b60006132b284828501613097565b91505092915050565b6132c481613f46565b82525050565b6132d381613ef1565b82525050565b6132e281613edf565b82525050565b60006132f382613c1c565b6132fd8185613c32565b935061330d818560208601613f8b565b80840191505092915050565b600061332482613c27565b61332e8185613c4e565b935061333e818560208601613f8b565b80840191505092915050565b6000613357604483613c3d565b9150613362826140c4565b606082019050919050565b600061337a601483613c3d565b915061338582614139565b602082019050919050565b600061339d601483613c3d565b91506133a882614162565b602082019050919050565b60006133c0601383613c3d565b91506133cb8261418b565b602082019050919050565b60006133e3601383613c3d565b91506133ee826141b4565b602082019050919050565b6000613406601383613c3d565b9150613411826141dd565b602082019050919050565b6000613429600e83613c3d565b915061343482614206565b602082019050919050565b600061344c602583613c3d565b91506134578261422f565b604082019050919050565b600061346f601383613c3d565b915061347a8261427e565b602082019050919050565b6000613492601383613c3d565b915061349d826142a7565b602082019050919050565b60006134b5601383613c3d565b91506134c0826142d0565b602082019050919050565b60006134d8601383613c3d565b91506134e3826142f9565b602082019050919050565b60006134fb601383613c3d565b915061350682614322565b602082019050919050565b600061351e600d83613c3d565b91506135298261434b565b602082019050919050565b6000613541602183613c3d565b915061354c82614374565b604082019050919050565b6000613564600e83613c3d565b915061356f826143c3565b602082019050919050565b6000613587601383613c3d565b9150613592826143ec565b602082019050919050565b60006135aa601383613c3d565b91506135b582614415565b602082019050919050565b60006135cd601383613c3d565b91506135d88261443e565b602082019050919050565b60006135f0602383613c3d565b91506135fb82614467565b604082019050919050565b6000613613601d83613c3d565b915061361e826144b6565b602082019050919050565b6000613636601383613c3d565b9150613641826144df565b602082019050919050565b6000613659601383613c3d565b915061366482614508565b602082019050919050565b600061367c602483613c3d565b915061368782614531565b604082019050919050565b600061369f601383613c3d565b91506136aa82614580565b602082019050919050565b6136be81613f2f565b82525050565b6136cd81613f39565b82525050565b60006136df82846132e8565b915081905092915050565b60006136f68284613319565b915081905092915050565b600060208201905061371660008301846132ca565b92915050565b600060408201905061373160008301856132bb565b61373e60208301846132d9565b9392505050565b600060408201905061375a60008301856132d9565b61376760208301846132d9565b9392505050565b600060608201905061378360008301866132d9565b61379060208301856132d9565b61379d60408301846136b5565b949350505050565b60006040820190506137ba60008301856132d9565b6137c760208301846136b5565b9392505050565b600060208201905081810360008301526137e78161334a565b9050919050565b600060208201905081810360008301526138078161336d565b9050919050565b6000602082019050818103600083015261382781613390565b9050919050565b60006020820190508181036000830152613847816133b3565b9050919050565b60006020820190508181036000830152613867816133d6565b9050919050565b60006020820190508181036000830152613887816133f9565b9050919050565b600060208201905081810360008301526138a78161341c565b9050919050565b600060208201905081810360008301526138c78161343f565b9050919050565b600060208201905081810360008301526138e781613462565b9050919050565b6000602082019050818103600083015261390781613485565b9050919050565b60006020820190508181036000830152613927816134a8565b9050919050565b60006020820190508181036000830152613947816134cb565b9050919050565b60006020820190508181036000830152613967816134ee565b9050919050565b6000602082019050818103600083015261398781613511565b9050919050565b600060208201905081810360008301526139a781613534565b9050919050565b600060208201905081810360008301526139c781613557565b9050919050565b600060208201905081810360008301526139e78161357a565b9050919050565b60006020820190508181036000830152613a078161359d565b9050919050565b60006020820190508181036000830152613a27816135c0565b9050919050565b60006020820190508181036000830152613a47816135e3565b9050919050565b60006020820190508181036000830152613a6781613606565b9050919050565b60006020820190508181036000830152613a8781613629565b9050919050565b60006020820190508181036000830152613aa78161364c565b9050919050565b60006020820190508181036000830152613ac78161366f565b9050919050565b60006020820190508181036000830152613ae781613692565b9050919050565b6000602082019050613b0360008301846136b5565b92915050565b600060a082019050613b1e60008301886136b5565b613b2b60208301876136b5565b613b3860408301866136b5565b613b4560608301856136b5565b613b5260808301846136b5565b9695505050505050565b6000604082019050613b7160008301856136b5565b613b7e60208301846136c4565b9392505050565b6000602082019050613b9a60008301846136c4565b92915050565b6000613baa613bbb565b9050613bb68282613fbe565b919050565b6000604051905090565b600067ffffffffffffffff821115613be057613bdf614077565b5b602082029050919050565b600067ffffffffffffffff821115613c0657613c05614077565b5b613c0f826140a6565b9050602081019050919050565b600081519050919050565b600081519050919050565b600081905092915050565b600082825260208201905092915050565b600081905092915050565b6000613c6482613f2f565b9150613c6f83613f2f565b9250827fffffffffffffffffffffffffffffffffffffffffffffffffffffffffffffffff03821115613ca457613ca3614019565b5b828201905092915050565b6000613cba82613f2f565b9150613cc583613f2f565b925082613cd557613cd4614048565b5b828204905092915050565b6000808291508390505b6001851115613d2a57808604811115613d0657613d05614019565b5b6001851615613d155780820291505b8081029050613d23856140b7565b9450613cea565b94509492505050565b6000613d3e82613f2f565b9150613d4983613f2f565b9250613d767fffffffffffffffffffffffffffffffffffffffffffffffffffffffffffffffff8484613d7e565b905092915050565b600082613d8e5760019050613e4a565b81613d9c5760009050613e4a565b8160018114613db25760028114613dbc57613deb565b6001915050613e4a565b60ff841115613dce57613dcd614019565b5b8360020a915084821115613de557613de4614019565b5b50613e4a565b5060208310610133831016604e8410600b8410161715613e205782820a905083811115613e1b57613e1a614019565b5b613e4a565b613e2d8484846001613ce0565b92509050818404811115613e4457613e43614019565b5b81810290505b9392505050565b6000613e5c82613f2f565b9150613e6783613f2f565b9250817fffffffffffffffffffffffffffffffffffffffffffffffffffffffffffffffff0483118215151615613ea057613e9f614019565b5b828202905092915050565b6000613eb682613f2f565b9150613ec183613f2f565b925082821015613ed457613ed3614019565b5b828203905092915050565b6000613eea82613f0f565b9050919050565b6000613efc82613f0f565b9050919050565b60008115159050919050565b600073ffffffffffffffffffffffffffffffffffffffff82169050919050565b6000819050919050565b600060ff82169050919050565b6000613f5182613f58565b9050919050565b6000613f6382613f6a565b9050919050565b6000613f7582613f0f565b9050919050565b82818337600083830152505050565b60005b83811015613fa9578082015181840152602081019050613f8e565b83811115613fb8576000848401525b50505050565b613fc7826140a6565b810181811067ffffffffffffffff82111715613fe657613fe5614077565b5b80604052505050565b6000613ffa82613f39565b915060ff82141561400e5761400d614019565b5b600182019050919050565b7f4e487b7100000000000000000000000000000000000000000000000000000000600052601160045260246000fd5b7f4e487b7100000000000000000000000000000000000000000000000000000000600052601260045260246000fd5b7f4e487b7100000000000000000000000000000000000000000000000000000000600052604160045260246000fd5b6000601f19601f8301169050919050565b60008160011c9050919050565b7f4f63784c6f63616c506f6f6c2e6164644c697175696469747928293a20496e7360008201527f756666696369656e7420616c6c6f77616e636520666f72207365636f6e64207460208201527f6f6b656e00000000000000000000000000000000000000000000000000000000604082015250565b7f7365744f6361744164647265737328293a202d32000000000000000000000000600082015250565b7f7365744f6361744164647265737328293a202d31000000000000000000000000600082015250565b7f73776170457468546f4f63617428293a202d3100000000000000000000000000600082015250565b7f676574416d6f756e74734f757428293a202d3500000000000000000000000000600082015250565b7f737761704f636174546f45746828293a202d3100000000000000000000000000600082015250565b7f496e76616c696420616d6f756e74000000000000000000000000000000000000600082015250565b7f496e76616c69642071756f7465286f7574206f662072616e67653a203938257e60008201527f3130322529000000000000000000000000000000000000000000000000000000602082015250565b7f676574416d6f756e74734f757428293a202d3400000000000000000000000000600082015250565b7f737761704f636174546f45746828293a202d3800000000000000000000000000600082015250565b7f676574416d6f756e74734f757428293a202d3300000000000000000000000000600082015250565b7f73776170457468546f4f63617428293a202d3700000000000000000000000000600082015250565b7f676574416d6f756e74734f757428293a202d3600000000000000000000000000600082015250565b7f496e76616c696420746f6b656e00000000000000000000000000000000000000600082015250565b7f6164644c69717569646974795769746845544828293a204e6f20616c6c6f776560008201527f6400000000000000000000000000000000000000000000000000000000000000602082015250565b7f496e76616c69642073656e646572000000000000000000000000000000000000600082015250565b7f737761704f636174546f45746828293a202d3200000000000000000000000000600082015250565b7f73776170457468546f4f63617428293a202d3200000000000000000000000000600082015250565b7f676574416d6f756e74734f757428293a202d3100000000000000000000000000600082015250565b7f5472616e7366657248656c7065723a204554485f5452414e534645525f46414960008201527f4c45440000000000000000000000000000000000000000000000000000000000602082015250565b7f676574416d6f756e74734f757428293a20496e76616c69642070617468000000600082015250565b7f676574416d6f756e74734f757428293a202d3200000000000000000000000000600082015250565b7f737761704f636174546f45746828293a202d3900000000000000000000000000600082015250565b7f5472616e7366657248656c7065723a205452414e534645525f46524f4d5f464160008201527f494c454400000000000000000000000000000000000000000000000000000000602082015250565b7f737761704f636174546f45746828293a202d3300000000000000000000000000600082015250565b6145b281613edf565b81146145bd57600080fd5b50565b6145c981613ef1565b81146145d457600080fd5b50565b6145e081613f03565b81146145eb57600080fd5b50565b6145f781613f2f565b811461460257600080fd5b50565b61460e81613f39565b811461461957600080fd5b5056fea2646970667358221220337f6209ab9c443dab93fb27726e079abd7d336bff5439cef12ec8cf69de767764736f6c63430008040033",
  "immutableReferences": {},
  "source": "// SPDX-License-Identifier: MIT\npragma solidity ^0.8.0;\n\nimport \"@openzeppelin/contracts/token/ERC20/IERC20.sol\"; // openzeppelin 4.5 (for solidity 0.8.x)\n// import \"@openzeppelin/contracts/utils/math/SafeMath.sol\";\nimport '@uniswap/lib/contracts/libraries/TransferHelper.sol';\nimport \"./OcxLPToken.sol\";\n\ncontract OcxLocalPool {\n\n    uint256 private constant QUOTE_DECIMALS = 3; // Must be more than 3 at least\n\n    address payable private ocatAddress;\n    address payable private ocxLPAddress;\n\n    address payable private creator;\n\n    struct Pool {\n        address[2] tokens;\n        mapping(address => uint256) amounts;\n        uint256 k;\n        uint256 prevK;\n        address[2] quoteOrder;\n        uint256 prevQuote;\n        uint256 quoteOrig;\n        uint256 quote;\n    }\n\n    struct SharingPool {\n        uint8 index;\n        mapping(address => uint256) sharingAmounts;\n    }\n\n    struct SharingPools {\n        mapping(uint8 => SharingPool) pools;\n        uint8                         poolCount;\n    }\n\n    mapping(uint8 => Pool) public   poolList;\n    uint8 public                    poolCount;\n\n    // mapping(address => PoolShare) public shares;\n    mapping(address => SharingPools) public shares;\n\n    event AmountToRetrieve(uint256);\n    \n    receive() external payable {}\n\n    constructor() {\n        creator = payable(msg.sender);\n    }\n\n    /*\n     * Error Code\n     *  -1: Caller for  must be creator\n     *  -2: Invalid parameter\n     */\n    function setOcatAddress(address payable _ocatAddress) public {\n        require(creator == msg.sender, \"setOcatAddress(): -1\");\n        require(_ocatAddress != address(0), \"setOcatAddress(): -2\");\n        ocatAddress = _ocatAddress;\n    }\n\n    /*\n     * Error Code\n     *  -1: Caller for  must be creator\n     *  -2: Invalid parameter\n     */\n    function setOcxLPAddress(address payable _ocxlpAddress) public {\n        require(creator == msg.sender, \"setOcatAddress(): -1\");\n        require(_ocxlpAddress != address(0), \"setOcatAddress(): -2\");\n        ocxLPAddress = _ocxlpAddress;\n        OcxLPToken(ocxLPAddress).setOcxPoolAddress( payable(address(this)) );\n    }\n\n    function _compareStrings(string memory a, string memory b) internal view returns (bool) {\n        return (keccak256(abi.encodePacked((a))) == keccak256(abi.encodePacked((b))));\n    }\n\n    function getAmountsOut(\n        uint256 sellAmount, \n        string[2] memory path\n    ) public view returns(uint256 amountOut, uint8 poolIndex) {\n        bool ret1 = _compareStrings(path[0], \"ETH\");\n        bool ret2 = _compareStrings(path[1], \"OCAT\");\n        bool ret3 = _compareStrings(path[0], \"OCAT\");\n        bool ret4 = _compareStrings(path[1], \"ETH\");\n        require(ret1 && ret2 || ret3 && ret4, \"getAmountsOut(): Invalid path\");\n\n        // Find the ETH/OCAT pool\n        bool bFound = false;\n        bool isInTurn = false;\n        (bFound, poolIndex, isInTurn) = _getPoolIndex(address(0), ocatAddress);\n        uint256 ethPoolBalance = poolList[poolIndex].amounts[address(0)];\n        uint256 ocatPoolBalance = poolList[poolIndex].amounts[ocatAddress];\n\n        if (ret1 && ret2) {\n            // Check if the pool exists\n            require(bFound, \"getAmountsOut(): -1\");\n            // Ensure that OCAT balance is more than 0\n            require(ocatPoolBalance > 0, \"getAmountsOut(): -2\");\n            // Calculate the output amount of OCAT \n            uint256 newOcatPoolBalance = poolList[poolIndex].k / (ethPoolBalance + sellAmount);\n            require(ocatPoolBalance > newOcatPoolBalance, \"getAmountsOut(): -3\");\n            amountOut = ocatPoolBalance - newOcatPoolBalance;\n        } else {\n            // Check if the pool exists\n            require(bFound, \"getAmountsOut(): -4\");\n            // Ensure that OCAT balance is more than 0\n            require(ethPoolBalance > 0, \"getAmountsOut(): -5\");\n            // Calculate the output amount of OCAT \n            uint256 newPoolEthBalance = (poolList[poolIndex].k / (ocatPoolBalance + sellAmount));\n            require(ethPoolBalance > newPoolEthBalance, \"getAmountsOut(): -6\");\n            amountOut = ethPoolBalance - newPoolEthBalance;            \n        }\n    }\n\n    /*\n     * Error Code\n     *  -1: Invalid sender\n     *  -2: Invalid ETH amount\n     *  -7: Insufficient OCAT balance in the pool(3)\n     */\n    function swapEthToOcat(uint _amountOutMin, address payable to, uint _deadline) public payable {\n        require(to != address(0) && to != address(this), \"swapEthToOcat(): -1\");\n        require(msg.value > 0, \"swapEthToOcat(): -2\");\n\n        (uint256 amountOut, uint8 poolIndex) = getAmountsOut(msg.value, [\"ETH\", \"OCAT\"]);\n        require(amountOut >= _amountOutMin, \"swapEthToOcat(): -7\");\n\n        // Transfer OCAT to the sender\n        IERC20(ocatAddress).transfer(msg.sender, amountOut);\n\n        // Update the quote for the pool\n        poolList[poolIndex].amounts[address(0)] += msg.value;\n        poolList[poolIndex].amounts[ocatAddress] -= amountOut;\n        poolList[poolIndex].prevQuote = poolList[poolIndex].quote;\n\n        // (bool ret, uint256 newEthPoolBalance) = SafeMath.tryMul(\n        //     poolList[poolIndex].amounts[address(0)], \n        //     10 ** QUOTE_DECIMALS\n        // );\n        uint256 newEthPoolBalance = poolList[poolIndex].amounts[address(0)] * (10 ** QUOTE_DECIMALS);\n        // require(ret, \"new ETH balance in the pool is overflowed\");\n        poolList[poolIndex].quote = newEthPoolBalance / poolList[poolIndex].amounts[ocatAddress];\n    }\n\n    /*\n     * Error Code\n     *  -1: Invalid sender\n     *  -2: The sender must be different than this\n     *  -8: Insufficient ETH balance in the pool(3)\n     *  -9: Insufficient allowed amount for input token\n     */\n    function swapOcatToEth(\n            uint _amountIn, \n            uint _amountOutMin, \n            address payable to, \n            uint _deadline\n    ) public returns (uint256 amountOut) {\n        require(to != address(0), \"swapOcatToEth(): -1\");\n        require(to != address(this), \"swapOcatToEth(): -2\");\n        require(_amountIn > 0, \"swapOcatToEth(): -3\");\n        // Get ETH balance in the pool\n        uint8 poolIndex;\n        (amountOut, poolIndex) = getAmountsOut(_amountIn, [\"OCAT\", \"ETH\"]);\n        require(amountOut >= _amountOutMin, \"swapOcatToEth(): -8\");\n        emit AmountToRetrieve(amountOut);\n        // Transfer OCAT from the sender\n        // First check allowance of OCAT amount from the sender\n        uint256 allowance = IERC20(ocatAddress).allowance(to, address(this));\n        require(allowance >= _amountIn, \"swapOcatToEth(): -9\");\n        // Transfer OCAT from the sender\n        TransferHelper.safeTransferFrom(ocatAddress, to, address(this), _amountIn);\n        // Transfer ETH to the sender\n        TransferHelper.safeTransferETH(to, amountOut);\n\n        emit AmountToRetrieve(amountOut);\n\n        // Update the quote for the pool\n        poolList[poolIndex].amounts[ocatAddress] += _amountIn;\n        poolList[poolIndex].amounts[address(0)] -= amountOut;\n        poolList[poolIndex].prevQuote = poolList[poolIndex].quote;\n\n        poolList[poolIndex].quote = \n            (poolList[poolIndex].amounts[poolList[poolIndex].quoteOrder[1]] * (10 ** QUOTE_DECIMALS)) / \n                poolList[poolIndex].amounts[poolList[poolIndex].quoteOrder[0]];\n    }\n\n    function _getPoolIndex(\n        address token0,\n        address token1\n     ) internal view returns (bool bFound, uint8 poolIndex, bool isInTurn)  {\n        bFound = false;\n        poolIndex = 0;\n        isInTurn = true;\n        for (uint8 i = 0; i < poolCount; i++) {\n            if ((poolList[i].tokens[0] == token0 && poolList[i].tokens[1] == token1) \n            || (poolList[i].tokens[1] == token0 && poolList[i].tokens[0] == token1)) {\n                bFound = true;\n                poolIndex = i;\n                if (poolList[i].tokens[1] == token0) {\n                    isInTurn = false;\n                }\n                break;\n            }\n        }\n    }\n\n    function addLiquidityWithETH(\n        address token, \n        uint256 amount\n    ) public payable {\n        require(msg.sender != address(0), \"Invalid sender\");\n        require(token != address(0), \"Invalid token\");\n        require(amount > 0, \"Invalid amount\");\n        // If the amount of OCAT is limited, then assert sender must be creator\n        // Otherwise OCAT is mintable with swapping from/to PNFT continuosly,\n        //   following assertion must be removed\n        require(creator == msg.sender, \"addLiquidityWithETH(): No allowed\");\n\n        // Get quote\n        // ...uint256((quote / poolList[poolIndex].quoteOrig) * 100)\n        // Transfer token A and B from msg.sender to this address\n\n        bool bExist = false;\n        bool isInTurn = true;\n        uint8 poolIndex = 0;\n        uint256 quoteMultiplier = 10 ** QUOTE_DECIMALS;\n\n        (bExist, poolIndex, isInTurn) = _getPoolIndex(address(0), token);\n        if (!bExist) {\n            address[2] memory quoteOrder;\n            quoteOrder[0] = address(0);\n            quoteOrder[1] = token;\n\n            if (msg.value > amount) {\n                quoteOrder[0] = token;\n                quoteOrder[1] = address(0);\n            }\n            poolList[poolCount].tokens = [address(0), token];\n            poolList[poolCount].amounts[address(0)] = msg.value;\n            poolList[poolCount].amounts[token] = amount;\n            poolList[poolCount].k = msg.value * amount;\n            poolList[poolCount].prevK = 0;\n            poolList[poolCount].quoteOrder = quoteOrder;\n            poolList[poolCount].quote = uint256(\n                (poolList[poolCount].amounts[quoteOrder[1]] * quoteMultiplier) / \n                poolList[poolCount].amounts[quoteOrder[0]]\n            );\n            poolList[poolCount].quoteOrig = poolList[poolCount].quote;\n            poolList[poolCount].prevQuote = 0;\n\n            poolCount++;\n\n        } else {\n            // Check quote\n            uint256 newQuote = uint256(\n                (amount * quoteMultiplier) / \n                msg.value\n            );\n            uint256 quoteRate = uint256(\n                (newQuote * quoteMultiplier) / \n                poolList[poolIndex].quoteOrig\n            );\n            // Check if new quote >= 98% and <= 102%\n            require(\n                quoteRate > 98 * (10 ** (QUOTE_DECIMALS - 2)) && \n                    quoteRate < 102 * (10 ** (QUOTE_DECIMALS - 2)), \n                \"Invalid quote(out of range: 98%~102%)\"\n            );\n            // Update pool\n            poolList[poolIndex].amounts[address(0)] += msg.value;\n            poolList[poolIndex].amounts[token] += amount;\n            poolList[poolIndex].prevK = poolList[poolIndex].k;\n            poolList[poolIndex].k = poolList[poolIndex].amounts[address(0)] * \n                poolList[poolIndex].amounts[token];\n            poolList[poolIndex].prevQuote = poolList[poolIndex].quote;\n            poolList[poolIndex].quote = newQuote;\n        }\n        // Update pool share\n        bExist = false;\n        for (uint8 i = 0; i < shares[msg.sender].poolCount; i++) {\n            if (poolIndex == shares[msg.sender].pools[i].index) {\n                shares[msg.sender].pools[i].sharingAmounts[address(0)] += msg.value;\n                shares[msg.sender].pools[i].sharingAmounts[token] += amount;\n                bExist = true;\n                break;\n            }\n        }\n        if (!bExist) {\n            shares[msg.sender].pools[0].index = poolIndex;\n            shares[msg.sender].pools[0].sharingAmounts[address(0)] = msg.value;\n            shares[msg.sender].pools[0].sharingAmounts[token] = amount;\n            shares[msg.sender].poolCount++;\n        }\n\n        // Transfer amounts for both tokens from the sender\n        uint256 allowance = IERC20(token).allowance(msg.sender, address(this));\n        require(allowance >= amount, \"OcxLocalPool.addLiquidity(): Insufficient allowance for second token\");\n        TransferHelper.safeTransferFrom(token, msg.sender, address(this), amount);\n\n        // Mint LP token to return\n        // ...\n        // uint256 newMintAmount = msg.value * amount;\n        // IERC20(ocxLPAddress).mint(newMintAmount);\n        // // Send the amount with fee substracted\n        // IERC20(ocxLPAddress).transfer(msg.sender, (newMintAmount * 100 - 2) / 100)\n    }\n}\n",
  "sourcePath": "/home/cowboy/OpenchainTestVersion/server/contracts/OcxLocalPool.sol",
  "compiler": {
    "name": "solc",
    "version": "0.8.4+commit.c7e474f2.Emscripten.clang"
  },
  "schemaVersion": "3.4.6",
  "updatedAt": "2022-04-05T01:46:46.200Z",
  "devdoc": {
    "kind": "dev",
    "methods": {},
    "version": 1
  },
  "userdoc": {
    "kind": "user",
    "methods": {},
    "version": 1
  }
}