{
  "contractName": "OcxLocalPool",
  "abi": [
    {
      "inputs": [],
      "stateMutability": "nonpayable",
      "type": "constructor"
    },
    {
      "anonymous": false,
      "inputs": [
        {
          "indexed": false,
          "internalType": "uint256",
          "name": "",
          "type": "uint256"
        }
      ],
      "name": "AmountToRetrieve",
      "type": "event"
    },
    {
      "inputs": [],
      "name": "poolCount",
      "outputs": [
        {
          "internalType": "uint8",
          "name": "",
          "type": "uint8"
        }
      ],
      "stateMutability": "view",
      "type": "function",
      "constant": true
    },
    {
      "inputs": [
        {
          "internalType": "uint8",
          "name": "",
          "type": "uint8"
        }
      ],
      "name": "poolList",
      "outputs": [
        {
          "internalType": "uint256",
          "name": "k",
          "type": "uint256"
        },
        {
          "internalType": "uint256",
          "name": "prevK",
          "type": "uint256"
        },
        {
          "internalType": "uint256",
          "name": "prevQuote",
          "type": "uint256"
        },
        {
          "internalType": "uint256",
          "name": "quoteOrig",
          "type": "uint256"
        },
        {
          "internalType": "uint256",
          "name": "quote",
          "type": "uint256"
        }
      ],
      "stateMutability": "view",
      "type": "function",
      "constant": true
    },
    {
      "inputs": [
        {
          "internalType": "address",
          "name": "",
          "type": "address"
        }
      ],
      "name": "shares",
      "outputs": [
        {
          "internalType": "uint8",
          "name": "poolCount",
          "type": "uint8"
        }
      ],
      "stateMutability": "view",
      "type": "function",
      "constant": true
    },
    {
      "stateMutability": "payable",
      "type": "receive",
      "payable": true
    },
    {
      "inputs": [
        {
          "internalType": "address payable",
          "name": "_wethAddress",
          "type": "address"
        }
      ],
      "name": "setWethAddress",
      "outputs": [],
      "stateMutability": "nonpayable",
      "type": "function"
    },
    {
      "inputs": [
        {
          "internalType": "address payable",
          "name": "_ocatAddress",
          "type": "address"
        }
      ],
      "name": "setOcatAddress",
      "outputs": [],
      "stateMutability": "nonpayable",
      "type": "function"
    },
    {
      "inputs": [
        {
          "internalType": "uint256",
          "name": "_amountOutMin",
          "type": "uint256"
        },
        {
          "internalType": "address payable",
          "name": "to",
          "type": "address"
        },
        {
          "internalType": "uint256",
          "name": "_deadline",
          "type": "uint256"
        }
      ],
      "name": "swapEthToOcat",
      "outputs": [],
      "stateMutability": "payable",
      "type": "function",
      "payable": true
    },
    {
      "inputs": [
        {
          "internalType": "uint256",
          "name": "_amountIn",
          "type": "uint256"
        },
        {
          "internalType": "uint256",
          "name": "_amountOutMin",
          "type": "uint256"
        },
        {
          "internalType": "address payable",
          "name": "to",
          "type": "address"
        },
        {
          "internalType": "uint256",
          "name": "_deadline",
          "type": "uint256"
        }
      ],
      "name": "swapOcatToEth",
      "outputs": [
        {
          "internalType": "uint256",
          "name": "amountOut",
          "type": "uint256"
        }
      ],
      "stateMutability": "nonpayable",
      "type": "function"
    },
    {
      "inputs": [
        {
          "internalType": "address[2]",
          "name": "tokens",
          "type": "address[2]"
        },
        {
          "internalType": "uint256[2]",
          "name": "amounts",
          "type": "uint256[2]"
        }
      ],
      "name": "addLiquidity",
      "outputs": [],
      "stateMutability": "nonpayable",
      "type": "function"
    }
  ],
  "bytecode": "0x608060405273b4fbf271143f4fbf7b91a5ded31805e42b2208d66000806101000a81548173ffffffffffffffffffffffffffffffffffffffff021916908373ffffffffffffffffffffffffffffffffffffffff16021790555034801561006457600080fd5b5033600260006101000a81548173ffffffffffffffffffffffffffffffffffffffff021916908373ffffffffffffffffffffffffffffffffffffffff160217905550615cba80620000b66000396000f3fe60806040526004361061007f5760003560e01c8063aebf1ffc1161004e578063aebf1ffc1461015b578063b18d30a214610177578063ce7c2ac2146101a0578063f525cb68146101dd57610086565b806362eaaf201461008b5780638287435f146100cc5780639d26bc1a146100f5578063a96e24231461013257610086565b3661008657005b600080fd5b34801561009757600080fd5b506100b260048036038101906100ad91906140c7565b610208565b6040516100c3959493929190614b27565b60405180910390f35b3480156100d857600080fd5b506100f360048036038101906100ee9190613f87565b61023e565b005b34801561010157600080fd5b5061011c60048036038101906101179190614064565b612139565b6040516101299190614b0c565b60405180910390f35b34801561013e57600080fd5b5061015960048036038101906101549190613f5e565b612c45565b005b61017560048036038101906101709190614015565b612d88565b005b34801561018357600080fd5b5061019e60048036038101906101999190613f5e565b613676565b005b3480156101ac57600080fd5b506101c760048036038101906101c29190613f35565b6137ba565b6040516101d49190614b7a565b60405180910390f35b3480156101e957600080fd5b506101f26137e5565b6040516101ff9190614b7a565b60405180910390f35b60036020528060005260406000206000915090508060030154908060040154908060070154908060080154908060090154905085565b600073ffffffffffffffffffffffffffffffffffffffff163373ffffffffffffffffffffffffffffffffffffffff1614156102ae576040517f08c379a00000000000000000000000000000000000000000000000000000000081526004016102a59061490c565b60405180910390fd5b600073ffffffffffffffffffffffffffffffffffffffff1682600060028110610300577f4e487b7100000000000000000000000000000000000000000000000000000000600052603260045260246000fd5b602002015173ffffffffffffffffffffffffffffffffffffffff16141580156103945750600073ffffffffffffffffffffffffffffffffffffffff1682600160028110610376577f4e487b7100000000000000000000000000000000000000000000000000000000600052603260045260246000fd5b602002015173ffffffffffffffffffffffffffffffffffffffff1614155b6103d3576040517f08c379a00000000000000000000000000000000000000000000000000000000081526004016103ca906147ac565b60405180910390fd5b8160016002811061040d577f4e487b7100000000000000000000000000000000000000000000000000000000600052603260045260246000fd5b602002015173ffffffffffffffffffffffffffffffffffffffff1682600060028110610462577f4e487b7100000000000000000000000000000000000000000000000000000000600052603260045260246000fd5b602002015173ffffffffffffffffffffffffffffffffffffffff1614156104be576040517f08c379a00000000000000000000000000000000000000000000000000000000081526004016104b5906146cc565b60405180910390fd5b6000816000600281106104fa577f4e487b7100000000000000000000000000000000000000000000000000000000600052603260045260246000fd5b602002015111801561054a5750600081600160028110610543577f4e487b7100000000000000000000000000000000000000000000000000000000600052603260045260246000fd5b6020020151115b610589576040517f08c379a00000000000000000000000000000000000000000000000000000000081526004016105809061482c565b60405180910390fd5b3373ffffffffffffffffffffffffffffffffffffffff16600260009054906101000a900473ffffffffffffffffffffffffffffffffffffffff1673ffffffffffffffffffffffffffffffffffffffff16146105e357600080fd5b600080600190506000806003600a6105fb9190614d07565b90506106838660006002811061063a577f4e487b7100000000000000000000000000000000000000000000000000000000600052603260045260246000fd5b602002015187600160028110610679577f4e487b7100000000000000000000000000000000000000000000000000000000600052603260045260246000fd5b60200201516137f8565b80955081945082965050505083610f6d5761069c613ce7565b866000600281106106d6577f4e487b7100000000000000000000000000000000000000000000000000000000600052603260045260246000fd5b602002015181600060028110610715577f4e487b7100000000000000000000000000000000000000000000000000000000600052603260045260246000fd5b602002019073ffffffffffffffffffffffffffffffffffffffff16908173ffffffffffffffffffffffffffffffffffffffff168152505086600160028110610786577f4e487b7100000000000000000000000000000000000000000000000000000000600052603260045260246000fd5b6020020151816001600281106107c5577f4e487b7100000000000000000000000000000000000000000000000000000000600052603260045260246000fd5b602002019073ffffffffffffffffffffffffffffffffffffffff16908173ffffffffffffffffffffffffffffffffffffffff168152505085600160028110610836577f4e487b7100000000000000000000000000000000000000000000000000000000600052603260045260246000fd5b602002015186600060028110610875577f4e487b7100000000000000000000000000000000000000000000000000000000600052603260045260246000fd5b602002015111156109e157866001600281106108ba577f4e487b7100000000000000000000000000000000000000000000000000000000600052603260045260246000fd5b6020020151816000600281106108f9577f4e487b7100000000000000000000000000000000000000000000000000000000600052603260045260246000fd5b602002019073ffffffffffffffffffffffffffffffffffffffff16908173ffffffffffffffffffffffffffffffffffffffff16815250508660006002811061096a577f4e487b7100000000000000000000000000000000000000000000000000000000600052603260045260246000fd5b6020020151816001600281106109a9577f4e487b7100000000000000000000000000000000000000000000000000000000600052603260045260246000fd5b602002019073ffffffffffffffffffffffffffffffffffffffff16908173ffffffffffffffffffffffffffffffffffffffff16815250505b8660036000600460009054906101000a900460ff1660ff1660ff168152602001908152602001600020600001906002610a1b929190613d09565b5085600060028110610a56577f4e487b7100000000000000000000000000000000000000000000000000000000600052603260045260246000fd5b602002015160036000600460009054906101000a900460ff1660ff1660ff168152602001908152602001600020600201600089600060028110610ac2577f4e487b7100000000000000000000000000000000000000000000000000000000600052603260045260246000fd5b602002015173ffffffffffffffffffffffffffffffffffffffff1673ffffffffffffffffffffffffffffffffffffffff1681526020019081526020016000208190555085600160028110610b3f577f4e487b7100000000000000000000000000000000000000000000000000000000600052603260045260246000fd5b602002015160036000600460009054906101000a900460ff1660ff1660ff168152602001908152602001600020600201600089600160028110610bab577f4e487b7100000000000000000000000000000000000000000000000000000000600052603260045260246000fd5b602002015173ffffffffffffffffffffffffffffffffffffffff1673ffffffffffffffffffffffffffffffffffffffff1681526020019081526020016000208190555085600160028110610c28577f4e487b7100000000000000000000000000000000000000000000000000000000600052603260045260246000fd5b602002015186600060028110610c67577f4e487b7100000000000000000000000000000000000000000000000000000000600052603260045260246000fd5b6020020151610c769190614e25565b60036000600460009054906101000a900460ff1660ff1660ff16815260200190815260200160002060030181905550600060036000600460009054906101000a900460ff1660ff1660ff168152602001908152602001600020600401819055508060036000600460009054906101000a900460ff1660ff1660ff168152602001908152602001600020600501906002610d10929190613d09565b5060036000600460009054906101000a900460ff1660ff1660ff168152602001908152602001600020600201600082600060028110610d78577f4e487b7100000000000000000000000000000000000000000000000000000000600052603260045260246000fd5b602002015173ffffffffffffffffffffffffffffffffffffffff1673ffffffffffffffffffffffffffffffffffffffff168152602001908152602001600020548260036000600460009054906101000a900460ff1660ff1660ff168152602001908152602001600020600201600084600160028110610e20577f4e487b7100000000000000000000000000000000000000000000000000000000600052603260045260246000fd5b602002015173ffffffffffffffffffffffffffffffffffffffff1673ffffffffffffffffffffffffffffffffffffffff16815260200190815260200160002054610e6a9190614e25565b610e749190614c83565b60036000600460009054906101000a900460ff1660ff1660ff1681526020019081526020016000206009018190555060036000600460009054906101000a900460ff1660ff1660ff1681526020019081526020016000206009015460036000600460009054906101000a900460ff1660ff1660ff16815260200190815260200160002060080181905550600060036000600460009054906101000a900460ff1660ff1660ff168152602001908152602001600020600701819055506004600081819054906101000a900460ff1680929190610f4e90614fb4565b91906101000a81548160ff021916908360ff1602179055505050611718565b826111e357600086600060028110610fae577f4e487b7100000000000000000000000000000000000000000000000000000000600052603260045260246000fd5b6020020151905086600160028110610fef577f4e487b7100000000000000000000000000000000000000000000000000000000600052603260045260246000fd5b60200201518760006002811061102e577f4e487b7100000000000000000000000000000000000000000000000000000000600052603260045260246000fd5b602002019073ffffffffffffffffffffffffffffffffffffffff16908173ffffffffffffffffffffffffffffffffffffffff168152505080876001600281106110a0577f4e487b7100000000000000000000000000000000000000000000000000000000600052603260045260246000fd5b602002019073ffffffffffffffffffffffffffffffffffffffff16908173ffffffffffffffffffffffffffffffffffffffff1681525050600086600060028110611113577f4e487b7100000000000000000000000000000000000000000000000000000000600052603260045260246000fd5b6020020151905086600160028110611154577f4e487b7100000000000000000000000000000000000000000000000000000000600052603260045260246000fd5b602002015187600060028110611193577f4e487b7100000000000000000000000000000000000000000000000000000000600052603260045260246000fd5b60200201818152505080876001600281106111d7577f4e487b7100000000000000000000000000000000000000000000000000000000600052603260045260246000fd5b60200201818152505050505b60008560006002811061121f577f4e487b7100000000000000000000000000000000000000000000000000000000600052603260045260246000fd5b6020020151828760016002811061125f577f4e487b7100000000000000000000000000000000000000000000000000000000600052603260045260246000fd5b602002015161126e9190614e25565b6112789190614c83565b90506000600360008560ff1660ff1681526020019081526020016000206008015483836112a59190614e25565b6112af9190614c83565b9050600260036112bf9190614e7f565b600a6112cb9190614d07565b60626112d79190614e25565b811180156113095750600260036112ee9190614e7f565b600a6112fa9190614d07565b60666113069190614e25565b81105b611348576040517f08c379a000000000000000000000000000000000000000000000000000000000815260040161133f9061480c565b60405180910390fd5b86600060028110611382577f4e487b7100000000000000000000000000000000000000000000000000000000600052603260045260246000fd5b6020020151600360008660ff1660ff16815260200190815260200160002060020160008a6000600281106113df577f4e487b7100000000000000000000000000000000000000000000000000000000600052603260045260246000fd5b602002015173ffffffffffffffffffffffffffffffffffffffff1673ffffffffffffffffffffffffffffffffffffffff168152602001908152602001600020600082825461142d9190614c2d565b925050819055508660016002811061146e577f4e487b7100000000000000000000000000000000000000000000000000000000600052603260045260246000fd5b6020020151600360008660ff1660ff16815260200190815260200160002060020160008a6001600281106114cb577f4e487b7100000000000000000000000000000000000000000000000000000000600052603260045260246000fd5b602002015173ffffffffffffffffffffffffffffffffffffffff1673ffffffffffffffffffffffffffffffffffffffff16815260200190815260200160002060008282546115199190614c2d565b92505081905550600360008560ff1660ff16815260200190815260200160002060030154600360008660ff1660ff16815260200190815260200160002060040181905550600360008560ff1660ff1681526020019081526020016000206002016000896001600281106115b5577f4e487b7100000000000000000000000000000000000000000000000000000000600052603260045260246000fd5b602002015173ffffffffffffffffffffffffffffffffffffffff1673ffffffffffffffffffffffffffffffffffffffff16815260200190815260200160002054600360008660ff1660ff16815260200190815260200160002060020160008a60006002811061164d577f4e487b7100000000000000000000000000000000000000000000000000000000600052603260045260246000fd5b602002015173ffffffffffffffffffffffffffffffffffffffff1673ffffffffffffffffffffffffffffffffffffffff168152602001908152602001600020546116979190614e25565b600360008660ff1660ff16815260200190815260200160002060030181905550600360008560ff1660ff16815260200190815260200160002060090154600360008660ff1660ff1681526020019081526020016000206007018190555081600360008660ff1660ff1681526020019081526020016000206009018190555050505b6000935060005b600560003373ffffffffffffffffffffffffffffffffffffffff1673ffffffffffffffffffffffffffffffffffffffff16815260200190815260200160002060010160009054906101000a900460ff1660ff168160ff161015611a6757600560003373ffffffffffffffffffffffffffffffffffffffff1673ffffffffffffffffffffffffffffffffffffffff16815260200190815260200160002060000160008260ff1660ff16815260200190815260200160002060000160009054906101000a900460ff1660ff168360ff161415611a54578560006002811061182d577f4e487b7100000000000000000000000000000000000000000000000000000000600052603260045260246000fd5b6020020151600560003373ffffffffffffffffffffffffffffffffffffffff1673ffffffffffffffffffffffffffffffffffffffff16815260200190815260200160002060000160008360ff1660ff1681526020019081526020016000206001016000896000600281106118ca577f4e487b7100000000000000000000000000000000000000000000000000000000600052603260045260246000fd5b602002015173ffffffffffffffffffffffffffffffffffffffff1673ffffffffffffffffffffffffffffffffffffffff16815260200190815260200160002060008282546119189190614c2d565b9250508190555085600160028110611959577f4e487b7100000000000000000000000000000000000000000000000000000000600052603260045260246000fd5b6020020151600560003373ffffffffffffffffffffffffffffffffffffffff1673ffffffffffffffffffffffffffffffffffffffff16815260200190815260200160002060000160008360ff1660ff1681526020019081526020016000206001016000896001600281106119f6577f4e487b7100000000000000000000000000000000000000000000000000000000600052603260045260246000fd5b602002015173ffffffffffffffffffffffffffffffffffffffff1673ffffffffffffffffffffffffffffffffffffffff1681526020019081526020016000206000828254611a449190614c2d565b9250508190555060019450611a67565b8080611a5f90614fb4565b91505061171f565b5083611d865781600560003373ffffffffffffffffffffffffffffffffffffffff1673ffffffffffffffffffffffffffffffffffffffff16815260200190815260200160002060000160008060ff16815260200190815260200160002060000160006101000a81548160ff021916908360ff16021790555084600060028110611b19577f4e487b7100000000000000000000000000000000000000000000000000000000600052603260045260246000fd5b6020020151600560003373ffffffffffffffffffffffffffffffffffffffff1673ffffffffffffffffffffffffffffffffffffffff16815260200190815260200160002060000160008060ff168152602001908152602001600020600101600088600060028110611bb3577f4e487b7100000000000000000000000000000000000000000000000000000000600052603260045260246000fd5b602002015173ffffffffffffffffffffffffffffffffffffffff1673ffffffffffffffffffffffffffffffffffffffff1681526020019081526020016000208190555084600160028110611c30577f4e487b7100000000000000000000000000000000000000000000000000000000600052603260045260246000fd5b6020020151600560003373ffffffffffffffffffffffffffffffffffffffff1673ffffffffffffffffffffffffffffffffffffffff16815260200190815260200160002060000160008060ff168152602001908152602001600020600101600088600160028110611cca577f4e487b7100000000000000000000000000000000000000000000000000000000600052603260045260246000fd5b602002015173ffffffffffffffffffffffffffffffffffffffff1673ffffffffffffffffffffffffffffffffffffffff16815260200190815260200160002081905550600560003373ffffffffffffffffffffffffffffffffffffffff1673ffffffffffffffffffffffffffffffffffffffff168152602001908152602001600020600101600081819054906101000a900460ff1680929190611d6c90614fb4565b91906101000a81548160ff021916908360ff160217905550505b600086600060028110611dc2577f4e487b7100000000000000000000000000000000000000000000000000000000600052603260045260246000fd5b602002015173ffffffffffffffffffffffffffffffffffffffff1663dd62ed3e33306040518363ffffffff1660e01b8152600401611e01929190614643565b60206040518083038186803b158015611e1957600080fd5b505afa158015611e2d573d6000803e3d6000fd5b505050506040513d601f19601f82011682018060405250810190611e519190613fec565b905085600060028110611e8d577f4e487b7100000000000000000000000000000000000000000000000000000000600052603260045260246000fd5b6020020151811015611ed4576040517f08c379a0000000000000000000000000000000000000000000000000000000008152600401611ecb906149ec565b60405180910390fd5b86600160028110611f0e577f4e487b7100000000000000000000000000000000000000000000000000000000600052603260045260246000fd5b602002015173ffffffffffffffffffffffffffffffffffffffff1663dd62ed3e33306040518363ffffffff1660e01b8152600401611f4d929190614643565b60206040518083038186803b158015611f6557600080fd5b505afa158015611f79573d6000803e3d6000fd5b505050506040513d601f19601f82011682018060405250810190611f9d9190613fec565b905085600160028110611fd9577f4e487b7100000000000000000000000000000000000000000000000000000000600052603260045260246000fd5b6020020151811015612020576040517f08c379a00000000000000000000000000000000000000000000000000000000081526004016120179061478c565b60405180910390fd5b6120a88760006002811061205d577f4e487b7100000000000000000000000000000000000000000000000000000000600052603260045260246000fd5b602002015133308960006002811061209e577f4e487b7100000000000000000000000000000000000000000000000000000000600052603260045260246000fd5b6020020151613bae565b612130876001600281106120e5577f4e487b7100000000000000000000000000000000000000000000000000000000600052603260045260246000fd5b6020020151333089600160028110612126577f4e487b7100000000000000000000000000000000000000000000000000000000600052603260045260246000fd5b6020020151613bae565b50505050505050565b60008073ffffffffffffffffffffffffffffffffffffffff168373ffffffffffffffffffffffffffffffffffffffff1614156121aa576040517f08c379a00000000000000000000000000000000000000000000000000000000081526004016121a19061472c565b60405180910390fd5b3073ffffffffffffffffffffffffffffffffffffffff168373ffffffffffffffffffffffffffffffffffffffff161415612219576040517f08c379a0000000000000000000000000000000000000000000000000000000008152600401612210906146ec565b60405180910390fd5b6000851161225c576040517f08c379a00000000000000000000000000000000000000000000000000000000081526004016122539061494c565b60405180910390fd5b60008060006122ad600160009054906101000a900473ffffffffffffffffffffffffffffffffffffffff1660008054906101000a900473ffffffffffffffffffffffffffffffffffffffff166137f8565b925092509250826122f3576040517f08c379a00000000000000000000000000000000000000000000000000000000081526004016122ea906148ac565b60405180910390fd5b6000600360008460ff1660ff16815260200190815260200160002060020160008060009054906101000a900473ffffffffffffffffffffffffffffffffffffffff1673ffffffffffffffffffffffffffffffffffffffff1673ffffffffffffffffffffffffffffffffffffffff1681526020019081526020016000205490506000600360008560ff1660ff1681526020019081526020016000206002016000600160009054906101000a900473ffffffffffffffffffffffffffffffffffffffff1673ffffffffffffffffffffffffffffffffffffffff1673ffffffffffffffffffffffffffffffffffffffff16815260200190815260200160002054905060008211612435576040517f08c379a000000000000000000000000000000000000000000000000000000000815260040161242c906148cc565b60405180910390fd5b888211612477576040517f08c379a000000000000000000000000000000000000000000000000000000000815260040161246e9061496c565b60405180910390fd5b60008a826124859190614c2d565b600360008760ff1660ff168152602001908152602001600020600301546124ac9190614c83565b9050808310156124f1576040517f08c379a00000000000000000000000000000000000000000000000000000000081526004016124e89061492c565b60405180910390fd5b80836124fd9190614e7f565b965060008711612542576040517f08c379a00000000000000000000000000000000000000000000000000000000081526004016125399061498c565b60405180910390fd5b89871015612585576040517f08c379a000000000000000000000000000000000000000000000000000000000815260040161257c906147cc565b60405180910390fd5b7fd1b1b510e169b19048c41a78e951db334c9b07265d1b5e112ad361651a1564af876040516125b49190614b0c565b60405180910390a16000600160009054906101000a900473ffffffffffffffffffffffffffffffffffffffff1673ffffffffffffffffffffffffffffffffffffffff1663dd62ed3e8b306040518363ffffffff1660e01b815260040161261b92919061461a565b60206040518083038186803b15801561263357600080fd5b505afa158015612647573d6000803e3d6000fd5b505050506040513d601f19601f8201168201806040525081019061266b9190613fec565b90508b8110156126b0576040517f08c379a00000000000000000000000000000000000000000000000000000000081526004016126a790614a0c565b60405180910390fd5b6126de600160009054906101000a900473ffffffffffffffffffffffffffffffffffffffff1633308f613bae565b60008054906101000a900473ffffffffffffffffffffffffffffffffffffffff1673ffffffffffffffffffffffffffffffffffffffff1663095ea7b3338a6040518363ffffffff1660e01b81526004016127399291906146a3565b602060405180830381600087803b15801561275357600080fd5b505af1158015612767573d6000803e3d6000fd5b505050506040513d601f19601f8201168201806040525081019061278b9190613fc3565b6127ca576040517f08c379a00000000000000000000000000000000000000000000000000000000081526004016127c19061488c565b60405180910390fd5b7fd1b1b510e169b19048c41a78e951db334c9b07265d1b5e112ad361651a1564af886040516127f99190614b0c565b60405180910390a160008060009054906101000a900473ffffffffffffffffffffffffffffffffffffffff1673ffffffffffffffffffffffffffffffffffffffff1663a9059cbb338b6040518363ffffffff1660e01b815260040161285f9291906146a3565b602060405180830381600087803b15801561287957600080fd5b505af115801561288d573d6000803e3d6000fd5b505050506040513d601f19601f820116820180604052508101906128b19190613fc3565b9050806128f3576040517f08c379a00000000000000000000000000000000000000000000000000000000081526004016128ea9061486c565b60405180910390fd5b8c600360008960ff1660ff1681526020019081526020016000206002016000600160009054906101000a900473ffffffffffffffffffffffffffffffffffffffff1673ffffffffffffffffffffffffffffffffffffffff1673ffffffffffffffffffffffffffffffffffffffff168152602001908152602001600020600082825461297e9190614c2d565b9250508190555088600360008960ff1660ff16815260200190815260200160002060020160008060009054906101000a900473ffffffffffffffffffffffffffffffffffffffff1673ffffffffffffffffffffffffffffffffffffffff1673ffffffffffffffffffffffffffffffffffffffff1681526020019081526020016000206000828254612a0f9190614e7f565b92505081905550600360008860ff1660ff16815260200190815260200160002060090154600360008960ff1660ff16815260200190815260200160002060070181905550600360008860ff1660ff1681526020019081526020016000206002016000600360008a60ff1660ff168152602001908152602001600020600501600060028110612ac6577f4e487b7100000000000000000000000000000000000000000000000000000000600052603260045260246000fd5b0160009054906101000a900473ffffffffffffffffffffffffffffffffffffffff1673ffffffffffffffffffffffffffffffffffffffff1673ffffffffffffffffffffffffffffffffffffffff168152602001908152602001600020546003600a612b319190614d07565b600360008a60ff1660ff1681526020019081526020016000206002016000600360008c60ff1660ff168152602001908152602001600020600501600160028110612ba4577f4e487b7100000000000000000000000000000000000000000000000000000000600052603260045260246000fd5b0160009054906101000a900473ffffffffffffffffffffffffffffffffffffffff1673ffffffffffffffffffffffffffffffffffffffff1673ffffffffffffffffffffffffffffffffffffffff16815260200190815260200160002054612c0b9190614e25565b612c159190614c83565b600360008960ff1660ff168152602001908152602001600020600901819055505050505050505050949350505050565b3373ffffffffffffffffffffffffffffffffffffffff16600260009054906101000a900473ffffffffffffffffffffffffffffffffffffffff1673ffffffffffffffffffffffffffffffffffffffff1614612cd5576040517f08c379a0000000000000000000000000000000000000000000000000000000008152600401612ccc9061470c565b60405180910390fd5b600073ffffffffffffffffffffffffffffffffffffffff168173ffffffffffffffffffffffffffffffffffffffff161415612d45576040517f08c379a0000000000000000000000000000000000000000000000000000000008152600401612d3c906147ec565b60405180910390fd5b806000806101000a81548173ffffffffffffffffffffffffffffffffffffffff021916908373ffffffffffffffffffffffffffffffffffffffff16021790555050565b600073ffffffffffffffffffffffffffffffffffffffff168273ffffffffffffffffffffffffffffffffffffffff161415612df8576040517f08c379a0000000000000000000000000000000000000000000000000000000008152600401612def90614a6c565b60405180910390fd5b3073ffffffffffffffffffffffffffffffffffffffff168273ffffffffffffffffffffffffffffffffffffffff161415612e67576040517f08c379a0000000000000000000000000000000000000000000000000000000008152600401612e5e9061476c565b60405180910390fd5b60003411612eaa576040517f08c379a0000000000000000000000000000000000000000000000000000000008152600401612ea190614a2c565b60405180910390fd5b6000806000612efb60008054906101000a900473ffffffffffffffffffffffffffffffffffffffff16600160009054906101000a900473ffffffffffffffffffffffffffffffffffffffff166137f8565b92509250925082612f41576040517f08c379a0000000000000000000000000000000000000000000000000000000008152600401612f389061474c565b60405180910390fd5b6000600360008460ff1660ff16815260200190815260200160002060020160008060009054906101000a900473ffffffffffffffffffffffffffffffffffffffff1673ffffffffffffffffffffffffffffffffffffffff1673ffffffffffffffffffffffffffffffffffffffff1681526020019081526020016000205490506000600360008560ff1660ff1681526020019081526020016000206002016000600160009054906101000a900473ffffffffffffffffffffffffffffffffffffffff1673ffffffffffffffffffffffffffffffffffffffff1673ffffffffffffffffffffffffffffffffffffffff16815260200190815260200160002054905060008111613083576040517f08c379a000000000000000000000000000000000000000000000000000000000815260040161307a906148ec565b60405180910390fd5b8781116130c5576040517f08c379a00000000000000000000000000000000000000000000000000000000081526004016130bc906149ac565b60405180910390fd5b34826130d19190614c2d565b600360008660ff1660ff168152602001908152602001600020600301546130f89190614c83565b81101561313a576040517f08c379a000000000000000000000000000000000000000000000000000000000815260040161313190614aec565b60405180910390fd5b600034836131489190614c2d565b600360008760ff1660ff1681526020019081526020016000206003015461316f9190614c83565b8261317a9190614e7f565b9050600081116131bf576040517f08c379a00000000000000000000000000000000000000000000000000000000081526004016131b690614a4c565b60405180910390fd5b88811015613202576040517f08c379a00000000000000000000000000000000000000000000000000000000081526004016131f990614a8c565b60405180910390fd5b60008060009054906101000a900473ffffffffffffffffffffffffffffffffffffffff1673ffffffffffffffffffffffffffffffffffffffff1663dd62ed3e8a306040518363ffffffff1660e01b815260040161326092919061461a565b60206040518083038186803b15801561327857600080fd5b505afa15801561328c573d6000803e3d6000fd5b505050506040513d601f19601f820116820180604052508101906132b09190613fec565b9050348110156132f5576040517f08c379a00000000000000000000000000000000000000000000000000000000081526004016132ec906149cc565b60405180910390fd5b61332160008054906101000a900473ffffffffffffffffffffffffffffffffffffffff16333034613bae565b600160009054906101000a900473ffffffffffffffffffffffffffffffffffffffff1673ffffffffffffffffffffffffffffffffffffffff1663a9059cbb33846040518363ffffffff1660e01b815260040161337e9291906146a3565b602060405180830381600087803b15801561339857600080fd5b505af11580156133ac573d6000803e3d6000fd5b505050506040513d601f19601f820116820180604052508101906133d09190613fc3565b5034600360008860ff1660ff16815260200190815260200160002060020160008060009054906101000a900473ffffffffffffffffffffffffffffffffffffffff1673ffffffffffffffffffffffffffffffffffffffff1673ffffffffffffffffffffffffffffffffffffffff168152602001908152602001600020600082825461345b9190614c2d565b9250508190555081600360008860ff1660ff1681526020019081526020016000206002016000600160009054906101000a900473ffffffffffffffffffffffffffffffffffffffff1673ffffffffffffffffffffffffffffffffffffffff1673ffffffffffffffffffffffffffffffffffffffff16815260200190815260200160002060008282546134ed9190614e7f565b92505081905550600360008760ff1660ff16815260200190815260200160002060090154600360008860ff1660ff16815260200190815260200160002060070181905550600360008760ff1660ff1681526020019081526020016000206002016000600160009054906101000a900473ffffffffffffffffffffffffffffffffffffffff1673ffffffffffffffffffffffffffffffffffffffff1673ffffffffffffffffffffffffffffffffffffffff168152602001908152602001600020546003600a6135bb9190614d07565b600360008960ff1660ff16815260200190815260200160002060020160008060009054906101000a900473ffffffffffffffffffffffffffffffffffffffff1673ffffffffffffffffffffffffffffffffffffffff1673ffffffffffffffffffffffffffffffffffffffff168152602001908152602001600020546136409190614e25565b61364a9190614c83565b600360008860ff1660ff1681526020019081526020016000206009018190555050505050505050505050565b3373ffffffffffffffffffffffffffffffffffffffff16600260009054906101000a900473ffffffffffffffffffffffffffffffffffffffff1673ffffffffffffffffffffffffffffffffffffffff1614613706576040517f08c379a00000000000000000000000000000000000000000000000000000000081526004016136fd90614aac565b60405180910390fd5b600073ffffffffffffffffffffffffffffffffffffffff168173ffffffffffffffffffffffffffffffffffffffff161415613776576040517f08c379a000000000000000000000000000000000000000000000000000000000815260040161376d9061484c565b60405180910390fd5b80600160006101000a81548173ffffffffffffffffffffffffffffffffffffffff021916908373ffffffffffffffffffffffffffffffffffffffff16021790555050565b60056020528060005260406000206000915090508060010160009054906101000a900460ff16905081565b600460009054906101000a900460ff1681565b6000806000809250600091506001905060005b600460009054906101000a900460ff1660ff168160ff161015613ba6578573ffffffffffffffffffffffffffffffffffffffff16600360008360ff1660ff168152602001908152602001600020600001600060028110613894577f4e487b7100000000000000000000000000000000000000000000000000000000600052603260045260246000fd5b0160009054906101000a900473ffffffffffffffffffffffffffffffffffffffff1673ffffffffffffffffffffffffffffffffffffffff1614801561397a57508473ffffffffffffffffffffffffffffffffffffffff16600360008360ff1660ff168152602001908152602001600020600001600160028110613940577f4e487b7100000000000000000000000000000000000000000000000000000000600052603260045260246000fd5b0160009054906101000a900473ffffffffffffffffffffffffffffffffffffffff1673ffffffffffffffffffffffffffffffffffffffff16145b80613ad357508573ffffffffffffffffffffffffffffffffffffffff16600360008360ff1660ff1681526020019081526020016000206000016001600281106139ec577f4e487b7100000000000000000000000000000000000000000000000000000000600052603260045260246000fd5b0160009054906101000a900473ffffffffffffffffffffffffffffffffffffffff1673ffffffffffffffffffffffffffffffffffffffff16148015613ad257508473ffffffffffffffffffffffffffffffffffffffff16600360008360ff1660ff168152602001908152602001600020600001600060028110613a98577f4e487b7100000000000000000000000000000000000000000000000000000000600052603260045260246000fd5b0160009054906101000a900473ffffffffffffffffffffffffffffffffffffffff1673ffffffffffffffffffffffffffffffffffffffff16145b5b15613b9357600193508092508573ffffffffffffffffffffffffffffffffffffffff16600360008360ff1660ff168152602001908152602001600020600001600160028110613b4b577f4e487b7100000000000000000000000000000000000000000000000000000000600052603260045260246000fd5b0160009054906101000a900473ffffffffffffffffffffffffffffffffffffffff1673ffffffffffffffffffffffffffffffffffffffff161415613b8e57600091505b613ba6565b8080613b9e90614fb4565b91505061380b565b509250925092565b6000808573ffffffffffffffffffffffffffffffffffffffff166323b872dd868686604051602401613be29392919061466c565b6040516020818303038152906040529060e01b6020820180517bffffffffffffffffffffffffffffffffffffffffffffffffffffffff8381831617835250505050604051613c309190614603565b6000604051808303816000865af19150503d8060008114613c6d576040519150601f19603f3d011682016040523d82523d6000602084013e613c72565b606091505b5091509150818015613ca05750600081511480613c9f575080806020019051810190613c9e9190613fc3565b5b5b613cdf576040517f08c379a0000000000000000000000000000000000000000000000000000000008152600401613cd690614acc565b60405180910390fd5b505050505050565b6040518060400160405280600290602082028036833780820191505090505090565b8260028101928215613d75579160200282015b82811115613d745782518260006101000a81548173ffffffffffffffffffffffffffffffffffffffff021916908373ffffffffffffffffffffffffffffffffffffffff16021790555091602001919060010190613d1c565b5b509050613d829190613d86565b5090565b5b80821115613d9f576000816000905550600101613d87565b5090565b6000613db6613db184614bba565b614b95565b90508082856020860282011115613dcc57600080fd5b60005b85811015613dfc5781613de28882613e69565b845260208401935060208301925050600181019050613dcf565b5050509392505050565b6000613e19613e1484614be0565b614b95565b90508082856020860282011115613e2f57600080fd5b60005b85811015613e5f5781613e458882613ef6565b845260208401935060208301925050600181019050613e32565b5050509392505050565b600081359050613e7881615c11565b92915050565b600081359050613e8d81615c28565b92915050565b600082601f830112613ea457600080fd5b6002613eb1848285613da3565b91505092915050565b600082601f830112613ecb57600080fd5b6002613ed8848285613e06565b91505092915050565b600081519050613ef081615c3f565b92915050565b600081359050613f0581615c56565b92915050565b600081519050613f1a81615c56565b92915050565b600081359050613f2f81615c6d565b92915050565b600060208284031215613f4757600080fd5b6000613f5584828501613e69565b91505092915050565b600060208284031215613f7057600080fd5b6000613f7e84828501613e7e565b91505092915050565b60008060808385031215613f9a57600080fd5b6000613fa885828601613e93565b9250506040613fb985828601613eba565b9150509250929050565b600060208284031215613fd557600080fd5b6000613fe384828501613ee1565b91505092915050565b600060208284031215613ffe57600080fd5b600061400c84828501613f0b565b91505092915050565b60008060006060848603121561402a57600080fd5b600061403886828701613ef6565b935050602061404986828701613e7e565b925050604061405a86828701613ef6565b9150509250925092565b6000806000806080858703121561407a57600080fd5b600061408887828801613ef6565b945050602061409987828801613ef6565b93505060406140aa87828801613e7e565b92505060606140bb87828801613ef6565b91505092959194509250565b6000602082840312156140d957600080fd5b60006140e784828501613f20565b91505092915050565b6140f981614f1a565b82525050565b61410881614eb3565b82525050565b600061411982614c06565b6141238185614c11565b9350614133818560208601614f50565b80840191505092915050565b600061414c600b83614c1c565b915061415782615089565b602082019050919050565b600061416f604483614c1c565b915061417a826150b2565b606082019050919050565b6000614192603a83614c1c565b915061419d82615127565b604082019050919050565b60006141b5602c83614c1c565b91506141c082615176565b604082019050919050565b60006141d8603283614c1c565b91506141e3826151c5565b604082019050919050565b60006141fb604483614c1c565b915061420682615214565b606082019050919050565b600061421e604483614c1c565b915061422982615289565b606082019050919050565b6000614241600e83614c1c565b915061424c826152fe565b602082019050919050565b6000614264604983614c1c565b915061426f82615327565b606082019050919050565b6000614287603083614c1c565b91506142928261539c565b604082019050919050565b60006142aa602583614c1c565b91506142b5826153eb565b604082019050919050565b60006142cd600f83614c1c565b91506142d88261543a565b602082019050919050565b60006142f0603083614c1c565b91506142fb82615463565b604082019050919050565b6000614313603e83614c1c565b915061431e826154b2565b604082019050919050565b6000614336603f83614c1c565b915061434182615501565b604082019050919050565b6000614359603283614c1c565b915061436482615550565b604082019050919050565b600061437c603c83614c1c565b91506143878261559f565b604082019050919050565b600061439f603d83614c1c565b91506143aa826155ee565b604082019050919050565b60006143c2600e83614c1c565b91506143cd8261563d565b602082019050919050565b60006143e5604983614c1c565b91506143f082615666565b606082019050919050565b6000614408603083614c1c565b9150614413826156db565b604082019050919050565b600061442b604983614c1c565b91506144368261572a565b606082019050919050565b600061444e604983614c1c565b91506144598261579f565b606082019050919050565b6000614471604a83614c1c565b915061447c82615814565b606082019050919050565b6000614494600083614c1c565b915061449f82615889565b600082019050919050565b60006144b7604383614c1c565b91506144c28261588c565b606082019050919050565b60006144da604983614c1c565b91506144e582615901565b606082019050919050565b60006144fd603083614c1c565b915061450882615976565b604082019050919050565b6000614520604a83614c1c565b915061452b826159c5565b606082019050919050565b6000614543602c83614c1c565b915061454e82615a3a565b604082019050919050565b6000614566604a83614c1c565b915061457182615a89565b606082019050919050565b6000614589603a83614c1c565b915061459482615afe565b604082019050919050565b60006145ac602483614c1c565b91506145b782615b4d565b604082019050919050565b60006145cf604a83614c1c565b91506145da82615b9c565b606082019050919050565b6145ee81614f03565b82525050565b6145fd81614f0d565b82525050565b600061460f828461410e565b915081905092915050565b600060408201905061462f60008301856140f0565b61463c60208301846140ff565b9392505050565b600060408201905061465860008301856140ff565b61466560208301846140ff565b9392505050565b600060608201905061468160008301866140ff565b61468e60208301856140ff565b61469b60408301846145e5565b949350505050565b60006040820190506146b860008301856140ff565b6146c560208301846145e5565b9392505050565b600060208201905081810360008301526146e58161413f565b9050919050565b6000602082019050818103600083015261470581614162565b9050919050565b6000602082019050818103600083015261472581614185565b9050919050565b60006020820190508181036000830152614745816141a8565b9050919050565b60006020820190508181036000830152614765816141cb565b9050919050565b60006020820190508181036000830152614785816141ee565b9050919050565b600060208201905081810360008301526147a581614211565b9050919050565b600060208201905081810360008301526147c581614234565b9050919050565b600060208201905081810360008301526147e581614257565b9050919050565b600060208201905081810360008301526148058161427a565b9050919050565b600060208201905081810360008301526148258161429d565b9050919050565b60006020820190508181036000830152614845816142c0565b9050919050565b60006020820190508181036000830152614865816142e3565b9050919050565b6000602082019050818103600083015261488581614306565b9050919050565b600060208201905081810360008301526148a581614329565b9050919050565b600060208201905081810360008301526148c58161434c565b9050919050565b600060208201905081810360008301526148e58161436f565b9050919050565b6000602082019050818103600083015261490581614392565b9050919050565b60006020820190508181036000830152614925816143b5565b9050919050565b60006020820190508181036000830152614945816143d8565b9050919050565b60006020820190508181036000830152614965816143fb565b9050919050565b600060208201905081810360008301526149858161441e565b9050919050565b600060208201905081810360008301526149a581614441565b9050919050565b600060208201905081810360008301526149c581614464565b9050919050565b600060208201905081810360008301526149e581614487565b9050919050565b60006020820190508181036000830152614a05816144aa565b9050919050565b60006020820190508181036000830152614a25816144cd565b9050919050565b60006020820190508181036000830152614a45816144f0565b9050919050565b60006020820190508181036000830152614a6581614513565b9050919050565b60006020820190508181036000830152614a8581614536565b9050919050565b60006020820190508181036000830152614aa581614559565b9050919050565b60006020820190508181036000830152614ac58161457c565b9050919050565b60006020820190508181036000830152614ae58161459f565b9050919050565b60006020820190508181036000830152614b05816145c2565b9050919050565b6000602082019050614b2160008301846145e5565b92915050565b600060a082019050614b3c60008301886145e5565b614b4960208301876145e5565b614b5660408301866145e5565b614b6360608301856145e5565b614b7060808301846145e5565b9695505050505050565b6000602082019050614b8f60008301846145f4565b92915050565b6000614b9f614bb0565b9050614bab8282614f83565b919050565b6000604051905090565b600067ffffffffffffffff821115614bd557614bd461503c565b5b602082029050919050565b600067ffffffffffffffff821115614bfb57614bfa61503c565b5b602082029050919050565b600081519050919050565b600081905092915050565b600082825260208201905092915050565b6000614c3882614f03565b9150614c4383614f03565b9250827fffffffffffffffffffffffffffffffffffffffffffffffffffffffffffffffff03821115614c7857614c77614fde565b5b828201905092915050565b6000614c8e82614f03565b9150614c9983614f03565b925082614ca957614ca861500d565b5b828204905092915050565b6000808291508390505b6001851115614cfe57808604811115614cda57614cd9614fde565b5b6001851615614ce95780820291505b8081029050614cf78561507c565b9450614cbe565b94509492505050565b6000614d1282614f03565b9150614d1d83614f03565b9250614d4a7fffffffffffffffffffffffffffffffffffffffffffffffffffffffffffffffff8484614d52565b905092915050565b600082614d625760019050614e1e565b81614d705760009050614e1e565b8160018114614d865760028114614d9057614dbf565b6001915050614e1e565b60ff841115614da257614da1614fde565b5b8360020a915084821115614db957614db8614fde565b5b50614e1e565b5060208310610133831016604e8410600b8410161715614df45782820a905083811115614def57614dee614fde565b5b614e1e565b614e018484846001614cb4565b92509050818404811115614e1857614e17614fde565b5b81810290505b9392505050565b6000614e3082614f03565b9150614e3b83614f03565b9250817fffffffffffffffffffffffffffffffffffffffffffffffffffffffffffffffff0483118215151615614e7457614e73614fde565b5b828202905092915050565b6000614e8a82614f03565b9150614e9583614f03565b925082821015614ea857614ea7614fde565b5b828203905092915050565b6000614ebe82614ee3565b9050919050565b6000614ed082614ee3565b9050919050565b60008115159050919050565b600073ffffffffffffffffffffffffffffffffffffffff82169050919050565b6000819050919050565b600060ff82169050919050565b6000614f2582614f2c565b9050919050565b6000614f3782614f3e565b9050919050565b6000614f4982614ee3565b9050919050565b60005b83811015614f6e578082015181840152602081019050614f53565b83811115614f7d576000848401525b50505050565b614f8c8261506b565b810181811067ffffffffffffffff82111715614fab57614faa61503c565b5b80604052505050565b6000614fbf82614f0d565b915060ff821415614fd357614fd2614fde565b5b600182019050919050565b7f4e487b7100000000000000000000000000000000000000000000000000000000600052601160045260246000fd5b7f4e487b7100000000000000000000000000000000000000000000000000000000600052601260045260246000fd5b7f4e487b7100000000000000000000000000000000000000000000000000000000600052604160045260246000fd5b6000601f19601f8301169050919050565b60008160011c9050919050565b7f53616d6520746f6b656e73000000000000000000000000000000000000000000600082015250565b7f4f63784c6f63616c506f6f6c2e737761704f636174546f45746828293a20546860008201527f652073656e646572206d75737420626520646966666572656e74207468616e2060208201527f7468697300000000000000000000000000000000000000000000000000000000604082015250565b7f4f63784c6f63616c506f6f6c2e736574576574684164647265737328293a204360008201527f616c6c657220666f7220206d7573742062652063726561746f72000000000000602082015250565b7f4f63784c6f63616c506f6f6c2e737761704f636174546f45746828293a20496e60008201527f76616c69642073656e6465720000000000000000000000000000000000000000602082015250565b7f4f63784c6f63616c506f6f6c2e73776170457468546f4f63617428293a204e6f60008201527f20706f6f6c20666f72204554482f4f4341540000000000000000000000000000602082015250565b7f4f63784c6f63616c506f6f6c2e73776170457468546f4f63617428293a20546860008201527f652073656e646572206d75737420626520646966666572656e74207468616e2060208201527f7468697300000000000000000000000000000000000000000000000000000000604082015250565b7f4f63784c6f63616c506f6f6c2e6164644c697175696469747928293a20496e7360008201527f756666696369656e7420616c6c6f77616e636520666f72207365636f6e64207460208201527f6f6b656e00000000000000000000000000000000000000000000000000000000604082015250565b7f496e76616c696420746f6b656e73000000000000000000000000000000000000600082015250565b7f4f63784c6f63616c506f6f6c2e737761704f636174546f45746828293a20496e60008201527f73756666696369656e742062616c616e636520666f722045544820696e20746860208201527f6520706f6f6c2834290000000000000000000000000000000000000000000000604082015250565b7f4f63784c6f63616c506f6f6c2e736574576574684164647265737328293a204960008201527f6e76616c696420706172616d6574657200000000000000000000000000000000602082015250565b7f496e76616c69642071756f7465286f7574206f662072616e67653a203938257e60008201527f3130322529000000000000000000000000000000000000000000000000000000602082015250565b7f496e76616c696420616d6f756e74730000000000000000000000000000000000600082015250565b7f4f63784c6f63616c506f6f6c2e7365744f6361744164647265737328293a204960008201527f6e76616c696420706172616d6574657200000000000000000000000000000000602082015250565b7f4f63784c6f63616c506f6f6c2e737761704f636174546f45746828293a20466160008201527f696c656420746f207472616e736665722045544820746f2073656e6465720000602082015250565b7f4f63784c6f63616c506f6f6c2e737761704f636174546f45746828293a20466160008201527f696c656420746f20617070726f7665205745544820666f722073656e64657200602082015250565b7f4f63784c6f63616c506f6f6c2e737761704f636174546f45746828293a204e6f60008201527f20706f6f6c20666f72204554482d4f4341540000000000000000000000000000602082015250565b7f4f63784c6f63616c506f6f6c2e737761704f636174546f45746828293a204e6f60008201527f2062616c616e636520666f722045544820696e2074686520706f6f6c00000000602082015250565b7f4f63784c6f63616c506f6f6c2e73776170457468546f4f63617428293a204e6f60008201527f2062616c616e636520666f72204f43415420696e2074686520706f6f6c000000602082015250565b7f496e76616c69642073656e646572000000000000000000000000000000000000600082015250565b7f4f63784c6f63616c506f6f6c2e737761704f636174546f45746828293a20496e60008201527f73756666696369656e742062616c616e636520666f722045544820696e20746860208201527f6520706f6f6c2832290000000000000000000000000000000000000000000000604082015250565b7f4f63784c6f63616c506f6f6c2e737761704f636174546f45746828293a20496e60008201527f76616c69642045544820616d6f756e7400000000000000000000000000000000602082015250565b7f4f63784c6f63616c506f6f6c2e737761704f636174546f45746828293a20496e60008201527f73756666696369656e742062616c616e636520666f722045544820696e20746860208201527f6520706f6f6c2831290000000000000000000000000000000000000000000000604082015250565b7f4f63784c6f63616c506f6f6c2e737761704f636174546f45746828293a20496e60008201527f73756666696369656e742062616c616e636520666f722045544820696e20746860208201527f6520706f6f6c2833290000000000000000000000000000000000000000000000604082015250565b7f4f63784c6f63616c506f6f6c2e73776170457468546f4f63617428293a20496e60008201527f73756666696369656e742062616c616e636520666f72204f43415420696e207460208201527f686520706f6f6c28312900000000000000000000000000000000000000000000604082015250565b50565b7f4f63784c6f63616c506f6f6c2e6164644c697175696469747928293a20496e7360008201527f756666696369656e7420616c6c6f77616e636520666f7220666972737420746f60208201527f6b656e0000000000000000000000000000000000000000000000000000000000604082015250565b7f4f63784c6f63616c506f6f6c2e737761704f636174546f45746828293a20496e60008201527f73756666696369656e7420616c6c6f77656420616d6f756e7420666f7220696e60208201527f70757420746f6b656e0000000000000000000000000000000000000000000000604082015250565b7f4f63784c6f63616c506f6f6c2e73776170457468546f4f63617428293a20496e60008201527f76616c69642045544820616d6f756e7400000000000000000000000000000000602082015250565b7f4f63784c6f63616c506f6f6c2e73776170457468546f4f63617428293a20496e60008201527f73756666696369656e742062616c616e636520666f72204f43415420696e207460208201527f686520706f6f6c28332900000000000000000000000000000000000000000000604082015250565b7f4f63784c6f63616c506f6f6c2e73776170457468546f4f63617428293a20496e60008201527f76616c69642073656e6465720000000000000000000000000000000000000000602082015250565b7f4f63784c6f63616c506f6f6c2e73776170457468546f4f63617428293a20496e60008201527f73756666696369656e742062616c616e636520666f72204f43415420696e207460208201527f686520706f6f6c28342900000000000000000000000000000000000000000000604082015250565b7f4f63784c6f63616c506f6f6c2e7365744f6361744164647265737328293a204360008201527f616c6c657220666f7220206d7573742062652063726561746f72000000000000602082015250565b7f5472616e7366657248656c7065723a205452414e534645525f46524f4d5f464160008201527f494c454400000000000000000000000000000000000000000000000000000000602082015250565b7f4f63784c6f63616c506f6f6c2e73776170457468546f4f63617428293a20496e60008201527f73756666696369656e742062616c616e636520666f72204f43415420696e207460208201527f686520706f6f6c28322900000000000000000000000000000000000000000000604082015250565b615c1a81614eb3565b8114615c2557600080fd5b50565b615c3181614ec5565b8114615c3c57600080fd5b50565b615c4881614ed7565b8114615c5357600080fd5b50565b615c5f81614f03565b8114615c6a57600080fd5b50565b615c7681614f0d565b8114615c8157600080fd5b5056fea26469706673582212201c452156c24992d5cdc754a0b21ccd6f6e9a39ee5b679918c14cbbfc1966151c64736f6c63430008040033",
  "immutableReferences": {},
  "source": "// SPDX-License-Identifier: MIT\npragma solidity ^0.8.0;\n\nimport \"@openzeppelin/contracts/token/ERC20/IERC20.sol\"; // openzeppelin 4.5 (for solidity 0.8.x)\nimport '@uniswap/lib/contracts/libraries/TransferHelper.sol';\n\ncontract OcxLocalPool {\n\n    uint256 private constant QUOTE_DECIMALS = 3; // Must be more than 3 at least\n\n    address payable private constant WETH = payable(address(0xB4FBF271143F4FBf7B91A5ded31805e42b2208d6));\n    address payable private wethAddress = WETH;\n    address payable private ocatAddress;\n\n    address payable private creator;\n\n    struct Pool {\n        address[2] tokens;\n        mapping(address => uint256) amounts;\n        uint256 k;\n        uint256 prevK;\n        address[2] quoteOrder;\n        uint256 prevQuote;\n        uint256 quoteOrig;\n        uint256 quote;\n    }\n\n    struct SharingPool {\n        uint8 index;\n        mapping(address => uint256) sharingAmounts;\n    }\n\n    struct SharingPools {\n        mapping(uint8 => SharingPool) pools;\n        uint8                         poolCount;\n    }\n\n    mapping(uint8 => Pool) public   poolList;\n    uint8 public                    poolCount;\n\n    // mapping(address => PoolShare) public shares;\n    mapping(address => SharingPools) public shares;\n\n    event AmountToRetrieve(uint256);\n    \n    receive() external payable {}\n\n    constructor() {\n        creator = payable(msg.sender);\n    }\n\n    function setWethAddress(address payable _wethAddress) public {\n        require(creator == msg.sender, \"OcxLocalPool.setWethAddress(): Caller for  must be creator\");\n        require(_wethAddress != address(0), \"OcxLocalPool.setWethAddress(): Invalid parameter\");\n        wethAddress = _wethAddress;\n    }\n\n    function setOcatAddress(address payable _ocatAddress) public {\n        require(creator == msg.sender, \"OcxLocalPool.setOcatAddress(): Caller for  must be creator\");\n        require(_ocatAddress != address(0), \"OcxLocalPool.setOcatAddress(): Invalid parameter\");\n        ocatAddress = _ocatAddress;\n    }\n\n    function swapEthToOcat(uint _amountOutMin, address payable to, uint _deadline) public payable {\n        require(to != address(0), \"OcxLocalPool.swapEthToOcat(): Invalid sender\");\n        require(to != address(this), \"OcxLocalPool.swapEthToOcat(): The sender must be different than this\");\n        require(msg.value > 0, \"OcxLocalPool.swapEthToOcat(): Invalid ETH amount\");\n        // Find the ETH/OCAT pool\n        (bool bFound, uint8 poolIndex, bool isInTurn) = _getPoolIndex(wethAddress, ocatAddress);\n        // Check if the pool exists\n        require(bFound, \"OcxLocalPool.swapEthToOcat(): No pool for ETH/OCAT\");\n        // Get ETH balance in the pool\n        uint256 ethPoolBalance = poolList[poolIndex].amounts[wethAddress];\n        uint256 ocatPoolBalance = poolList[poolIndex].amounts[ocatAddress];\n        // Ensure that OCAT balance is more than 0\n        require(ocatPoolBalance > 0, \"OcxLocalPool.swapEthToOcat(): No balance for OCAT in the pool\");\n        // Ensure that OCAT balance >= _amountOutMin\n        require(ocatPoolBalance > _amountOutMin, \"OcxLocalPool.swapEthToOcat(): Insufficient balance for OCAT in the pool(1)\");\n        // Calculate the output amount of OCAT \n        require(ocatPoolBalance >= (poolList[poolIndex].k / (ethPoolBalance + msg.value)), \"OcxLocalPool.swapEthToOcat(): Insufficient balance for OCAT in the pool(2)\");\n        uint256 amountOut = ocatPoolBalance - (poolList[poolIndex].k / (ethPoolBalance + msg.value));\n        require(amountOut > 0, \"OcxLocalPool.swapEthToOcat(): Insufficient balance for OCAT in the pool(3)\");\n        require(amountOut >= _amountOutMin, \"OcxLocalPool.swapEthToOcat(): Insufficient balance for OCAT in the pool(4)\");\n\n        // Transfer ETH from the sender\n        // First check allowance of ETH amount from the sender\n        uint256 allowance = IERC20(wethAddress).allowance(to, address(this));\n        require(allowance >= msg.value, \"\");\n        // Transfer ETH from the sender\n        TransferHelper.safeTransferFrom(wethAddress, msg.sender, address(this), msg.value);\n        // Transfer OCAT to the sender\n        IERC20(ocatAddress).transfer(msg.sender, amountOut);\n\n        // Update the quote for the pool\n        poolList[poolIndex].amounts[wethAddress] += msg.value;\n        poolList[poolIndex].amounts[ocatAddress] -= amountOut;\n        poolList[poolIndex].prevQuote = poolList[poolIndex].quote;\n\n        poolList[poolIndex].quote = \n            (poolList[poolIndex].amounts[wethAddress] * (10 ** QUOTE_DECIMALS)) / \n                poolList[poolIndex].amounts[ocatAddress];\n    }\n\n    function swapOcatToEth(\n            uint _amountIn, \n            uint _amountOutMin, \n            address payable to, \n            uint _deadline\n    ) public returns (uint256 amountOut) {\n        require(to != address(0), \"OcxLocalPool.swapOcatToEth(): Invalid sender\");\n        require(to != address(this), \"OcxLocalPool.swapOcatToEth(): The sender must be different than this\");\n        require(_amountIn > 0, \"OcxLocalPool.swapOcatToEth(): Invalid ETH amount\");\n        // Find the ETH/OCAT pool\n        (bool bFound, uint8 poolIndex, bool isInTurn) = _getPoolIndex(ocatAddress, wethAddress);\n        // Check if the pool exists\n        require(bFound, \"OcxLocalPool.swapOcatToEth(): No pool for ETH-OCAT\");\n        // Get ETH balance in the pool\n        uint256 ethPoolBalance = poolList[poolIndex].amounts[wethAddress];\n        uint256 ocatPoolBalance = poolList[poolIndex].amounts[ocatAddress];\n        // Ensure that OCAT balance is more than 0\n        require(ethPoolBalance > 0, \"OcxLocalPool.swapOcatToEth(): No balance for ETH in the pool\");\n        // Ensure that OCAT balance >= _amountOutMin\n        require(ethPoolBalance > _amountOutMin, \"OcxLocalPool.swapOcatToEth(): Insufficient balance for ETH in the pool(1)\");\n        // Calculate the output amount of OCAT \n        uint256 requiredLeavedPoolEthBalance = (poolList[poolIndex].k / (ocatPoolBalance + _amountIn));\n        require(ethPoolBalance >= requiredLeavedPoolEthBalance, \"OcxLocalPool.swapOcatToEth(): Insufficient balance for ETH in the pool(2)\");\n        amountOut = ethPoolBalance - requiredLeavedPoolEthBalance;\n        require(amountOut > 0, \"OcxLocalPool.swapOcatToEth(): Insufficient balance for ETH in the pool(3)\");\n        require(amountOut >= _amountOutMin, \"OcxLocalPool.swapOcatToEth(): Insufficient balance for ETH in the pool(4)\");\n        emit AmountToRetrieve(amountOut);\n        // Transfer OCAT from the sender\n        // First check allowance of OCAT amount from the sender\n        uint256 allowance = IERC20(ocatAddress).allowance(to, address(this));\n        require(allowance >= _amountIn, \"OcxLocalPool.swapOcatToEth(): Insufficient allowed amount for input token\");\n        // Transfer OCAT from the sender\n        TransferHelper.safeTransferFrom(ocatAddress, msg.sender, address(this), _amountIn);\n        // Transfer ETH to the sender\n        require(IERC20(wethAddress).approve(msg.sender, amountOut), 'OcxLocalPool.swapOcatToEth(): Failed to approve WETH for sender');\n        emit AmountToRetrieve(amountOut);\n\n        bool ret = IERC20(wethAddress).transfer(msg.sender, amountOut);\n        require(ret, \"OcxLocalPool.swapOcatToEth(): Failed to transfer ETH to sender\");\n\n        // Update the quote for the pool\n        poolList[poolIndex].amounts[ocatAddress] += _amountIn;\n        poolList[poolIndex].amounts[wethAddress] -= amountOut;\n        poolList[poolIndex].prevQuote = poolList[poolIndex].quote;\n\n        poolList[poolIndex].quote = \n            (poolList[poolIndex].amounts[poolList[poolIndex].quoteOrder[1]] * (10 ** QUOTE_DECIMALS)) / \n                poolList[poolIndex].amounts[poolList[poolIndex].quoteOrder[0]];\n    }\n\n    function _getPoolIndex(\n        address token0,\n        address token1\n     ) internal view returns (bool bFound, uint8 poolIndex, bool isInTurn)  {\n        bFound = false;\n        poolIndex = 0;\n        isInTurn = true;\n        for (uint8 i = 0; i < poolCount; i++) {\n            if ((poolList[i].tokens[0] == token0 && poolList[i].tokens[1] == token1) \n            || (poolList[i].tokens[1] == token0 && poolList[i].tokens[0] == token1)) {\n                bFound = true;\n                poolIndex = i;\n                if (poolList[i].tokens[1] == token0) {\n                    isInTurn = false;\n                }\n                break;\n            }\n        }\n    }\n\n    function addLiquidity(\n        address[2] memory tokens, \n        uint256[2] memory amounts\n    ) public {\n        require(msg.sender != address(0), \"Invalid sender\");\n        require(tokens[0] != address(0) && tokens[1] != address(0), \"Invalid tokens\");\n        require(tokens[0] != tokens[1], \"Same tokens\");\n        require(amounts[0] > 0 && amounts[1] > 0, \"Invalid amounts\");\n        // If the amount of OCAT is limited, then assert sender must be creator\n        // Otherwise OCAT is mintable with swapping from/to PNFT continuosly,\n        //   following assertion must be removed\n        require(creator == msg.sender);\n\n        // Get quote\n        // ...uint256((quote / poolList[poolIndex].quoteOrig) * 100)\n        // Transfer token A and B from msg.sender to this address\n\n        bool bExist = false;\n        bool isInTurn = true;\n        uint8 poolIndex = 0;\n        uint256 quoteMultiplier = 10 ** QUOTE_DECIMALS;\n\n        (bExist, poolIndex, isInTurn) = _getPoolIndex(tokens[0], tokens[1]);\n        if (!bExist) {\n            address[2] memory quoteOrder;\n            quoteOrder[0] = tokens[0];\n            quoteOrder[1] = tokens[1];\n\n            if (amounts[0] > amounts[1]) {\n                quoteOrder[0] = tokens[1];\n                quoteOrder[1] = tokens[0];\n            }\n            poolList[poolCount].tokens = tokens;\n            poolList[poolCount].amounts[tokens[0]] = amounts[0];\n            poolList[poolCount].amounts[tokens[1]] = amounts[1];\n            poolList[poolCount].k = amounts[0] * amounts[1];\n            poolList[poolCount].prevK = 0;\n            poolList[poolCount].quoteOrder = quoteOrder;\n            poolList[poolCount].quote = uint256(\n                (poolList[poolCount].amounts[quoteOrder[1]] * quoteMultiplier) / \n                poolList[poolCount].amounts[quoteOrder[0]]\n            );\n            poolList[poolCount].quoteOrig = poolList[poolCount].quote;\n            poolList[poolCount].prevQuote = 0;\n\n            poolCount++;\n\n        } else {\n            // If order for token in parameter in against pool is revered, swap\n            if (!isInTurn) {\n                address tmpToken = tokens[0];\n                tokens[0] = tokens[1];\n                tokens[1] = tmpToken;\n                uint256 tmpAmount = amounts[0];\n                amounts[0] = amounts[1];\n                amounts[1] = tmpAmount;\n            }\n            // Check quote\n            uint256 newQuote = uint256(\n                (amounts[1] * quoteMultiplier) / \n                amounts[0]\n            );\n            uint256 quoteRate = uint256(\n                                    (newQuote * quoteMultiplier) / \n                                    poolList[poolIndex].quoteOrig\n                                );\n            // Check if new quote >= 98% and <= 102%\n            require(\n                quoteRate > 98 * (10 ** (QUOTE_DECIMALS - 2)) && \n                    quoteRate < 102 * (10 ** (QUOTE_DECIMALS - 2)), \n                \"Invalid quote(out of range: 98%~102%)\"\n            );\n            // Update pool\n            poolList[poolIndex].amounts[tokens[0]] += amounts[0];\n            poolList[poolIndex].amounts[tokens[1]] += amounts[1];\n            poolList[poolIndex].prevK = poolList[poolIndex].k;\n            poolList[poolIndex].k = poolList[poolIndex].amounts[tokens[0]] * \n                poolList[poolIndex].amounts[tokens[1]];\n            poolList[poolIndex].prevQuote = poolList[poolIndex].quote;\n            poolList[poolIndex].quote = newQuote;\n        }\n        // Update pool share\n        bExist = false;\n        for (uint8 i = 0; i < shares[msg.sender].poolCount; i++) {\n            if (poolIndex == shares[msg.sender].pools[i].index) {\n                shares[msg.sender].pools[i].sharingAmounts[tokens[0]] += amounts[0];\n                shares[msg.sender].pools[i].sharingAmounts[tokens[1]] += amounts[1];\n                bExist = true;\n                break;\n            }\n        }\n        if (!bExist) {\n            shares[msg.sender].pools[0].index = poolIndex;\n            shares[msg.sender].pools[0].sharingAmounts[tokens[0]] = amounts[0];\n            shares[msg.sender].pools[0].sharingAmounts[tokens[1]] = amounts[1];\n            shares[msg.sender].poolCount++;\n        }\n\n        // Transfer amounts for both tokens from the sender\n        uint256 allowance = IERC20(tokens[0]).allowance(msg.sender, address(this));\n        require(allowance >= amounts[0], \"OcxLocalPool.addLiquidity(): Insufficient allowance for first token\");\n        allowance = IERC20(tokens[1]).allowance(msg.sender, address(this));\n        require(allowance >= amounts[1], \"OcxLocalPool.addLiquidity(): Insufficient allowance for second token\");\n        TransferHelper.safeTransferFrom(tokens[0], msg.sender, address(this), amounts[0]);\n        TransferHelper.safeTransferFrom(tokens[1], msg.sender, address(this), amounts[1]);\n\n        // Mint LP token to return\n        // ...\n    }\n}\n",
  "sourcePath": "/home/cowboy/OpenchainTestVersion/server/contracts/OcxLocalPool.sol",
  "compiler": {
    "name": "solc",
    "version": "0.8.4+commit.c7e474f2.Emscripten.clang"
  },
  "schemaVersion": "3.4.6",
  "updatedAt": "2022-04-01T08:59:30.907Z",
  "networkType": "ethereum",
  "devdoc": {
    "kind": "dev",
    "methods": {},
    "version": 1
  },
  "userdoc": {
    "kind": "user",
    "methods": {},
    "version": 1
  }
}