{
  "contractName": "OcxLocalPool",
  "abi": [
    {
      "inputs": [],
      "stateMutability": "nonpayable",
      "type": "constructor"
    },
    {
      "anonymous": false,
      "inputs": [
        {
          "indexed": false,
          "internalType": "uint256",
          "name": "",
          "type": "uint256"
        }
      ],
      "name": "AmountToRetrieve",
      "type": "event"
    },
    {
      "inputs": [],
      "name": "poolCount",
      "outputs": [
        {
          "internalType": "uint8",
          "name": "",
          "type": "uint8"
        }
      ],
      "stateMutability": "view",
      "type": "function",
      "constant": true
    },
    {
      "inputs": [
        {
          "internalType": "uint8",
          "name": "",
          "type": "uint8"
        }
      ],
      "name": "poolList",
      "outputs": [
        {
          "internalType": "uint256",
          "name": "k",
          "type": "uint256"
        },
        {
          "internalType": "uint256",
          "name": "prevK",
          "type": "uint256"
        },
        {
          "internalType": "uint256",
          "name": "prevQuote",
          "type": "uint256"
        },
        {
          "internalType": "uint256",
          "name": "quoteOrig",
          "type": "uint256"
        },
        {
          "internalType": "uint256",
          "name": "quote",
          "type": "uint256"
        }
      ],
      "stateMutability": "view",
      "type": "function",
      "constant": true
    },
    {
      "inputs": [
        {
          "internalType": "address",
          "name": "",
          "type": "address"
        }
      ],
      "name": "shares",
      "outputs": [
        {
          "internalType": "uint8",
          "name": "poolCount",
          "type": "uint8"
        }
      ],
      "stateMutability": "view",
      "type": "function",
      "constant": true
    },
    {
      "stateMutability": "payable",
      "type": "receive",
      "payable": true
    },
    {
      "inputs": [
        {
          "internalType": "address payable",
          "name": "_ocatAddress",
          "type": "address"
        }
      ],
      "name": "setOcatAddress",
      "outputs": [],
      "stateMutability": "nonpayable",
      "type": "function"
    },
    {
      "inputs": [
        {
          "internalType": "address payable",
          "name": "_ocxlpAddress",
          "type": "address"
        }
      ],
      "name": "setOcxLPAddress",
      "outputs": [],
      "stateMutability": "nonpayable",
      "type": "function"
    },
    {
      "inputs": [
        {
          "internalType": "uint256",
          "name": "sellAmount",
          "type": "uint256"
        },
        {
          "internalType": "string[2]",
          "name": "path",
          "type": "string[2]"
        }
      ],
      "name": "getAmountsOut",
      "outputs": [
        {
          "internalType": "uint256",
          "name": "amountOut",
          "type": "uint256"
        },
        {
          "internalType": "uint8",
          "name": "poolIndex",
          "type": "uint8"
        }
      ],
      "stateMutability": "view",
      "type": "function",
      "constant": true
    },
    {
      "inputs": [
        {
          "internalType": "uint256",
          "name": "_amountOutMin",
          "type": "uint256"
        },
        {
          "internalType": "address payable",
          "name": "to",
          "type": "address"
        },
        {
          "internalType": "uint256",
          "name": "",
          "type": "uint256"
        }
      ],
      "name": "swapEthToOcat",
      "outputs": [],
      "stateMutability": "payable",
      "type": "function",
      "payable": true
    },
    {
      "inputs": [
        {
          "internalType": "uint256",
          "name": "_amountIn",
          "type": "uint256"
        },
        {
          "internalType": "uint256",
          "name": "_amountOutMin",
          "type": "uint256"
        },
        {
          "internalType": "address payable",
          "name": "to",
          "type": "address"
        },
        {
          "internalType": "uint256",
          "name": "",
          "type": "uint256"
        }
      ],
      "name": "swapOcatToEth",
      "outputs": [
        {
          "internalType": "uint256",
          "name": "amountOut",
          "type": "uint256"
        }
      ],
      "stateMutability": "nonpayable",
      "type": "function"
    },
    {
      "inputs": [
        {
          "internalType": "address",
          "name": "token",
          "type": "address"
        },
        {
          "internalType": "uint256",
          "name": "amount",
          "type": "uint256"
        }
      ],
      "name": "addLiquidityWithETH",
      "outputs": [],
      "stateMutability": "payable",
      "type": "function",
      "payable": true
    }
  ],
  "bytecode": "0x608060405234801561001057600080fd5b5033600260006101000a81548173ffffffffffffffffffffffffffffffffffffffff021916908373ffffffffffffffffffffffffffffffffffffffff1602179055506147e6806100616000396000f3fe60806040526004361061008a5760003560e01c8063b18d30a211610059578063b18d30a21461014c578063ce7c2ac214610175578063e86ede26146101b2578063e9ee997a146101db578063f525cb681461021957610091565b80635c4f127c1461009657806362eaaf20146100b25780639d26bc1a146100f3578063aebf1ffc1461013057610091565b3661009157005b600080fd5b6100b060048036038101906100ab9190613226565b610244565b005b3480156100be57600080fd5b506100d960048036038101906100d491906133ba565b611337565b6040516100ea959493929190613c74565b60405180910390f35b3480156100ff57600080fd5b5061011a60048036038101906101159190613357565b61136d565b6040516101279190613c59565b60405180910390f35b61014a600480360381019061014591906132b4565b611a26565b005b34801561015857600080fd5b50610173600480360381019061016e91906131fd565b611ef3565b005b34801561018157600080fd5b5061019c600480360381019061019791906131d4565b6120ca565b6040516101a99190613cf0565b60405180910390f35b3480156101be57600080fd5b506101d960048036038101906101d491906131fd565b6120f5565b005b3480156101e757600080fd5b5061020260048036038101906101fd9190613303565b61235a565b604051610210929190613cc7565b60405180910390f35b34801561022557600080fd5b5061022e61290d565b60405161023b9190613cf0565b60405180910390f35b600073ffffffffffffffffffffffffffffffffffffffff163373ffffffffffffffffffffffffffffffffffffffff1614156102b4576040517f08c379a00000000000000000000000000000000000000000000000000000000081526004016102ab90613af9565b60405180910390fd5b600073ffffffffffffffffffffffffffffffffffffffff168273ffffffffffffffffffffffffffffffffffffffff161415610324576040517f08c379a000000000000000000000000000000000000000000000000000000000815260040161031b90613ab9565b60405180910390fd5b60008111610367576040517f08c379a000000000000000000000000000000000000000000000000000000000815260040161035e90613999565b60405180910390fd5b3373ffffffffffffffffffffffffffffffffffffffff16600260009054906101000a900473ffffffffffffffffffffffffffffffffffffffff1673ffffffffffffffffffffffffffffffffffffffff16146103f7576040517f08c379a00000000000000000000000000000000000000000000000000000000081526004016103ee90613ad9565b60405180910390fd5b600080600190506000806003600a61040f9190613e9e565b905061041c600087612920565b80955081945082965050505083610a8d57610435612f8e565b600081600060028110610471577f4e487b7100000000000000000000000000000000000000000000000000000000600052603260045260246000fd5b602002019073ffffffffffffffffffffffffffffffffffffffff16908173ffffffffffffffffffffffffffffffffffffffff168152505086816001600281106104e3577f4e487b7100000000000000000000000000000000000000000000000000000000600052603260045260246000fd5b602002019073ffffffffffffffffffffffffffffffffffffffff16908173ffffffffffffffffffffffffffffffffffffffff16815250508534111561060857868160006002811061055d577f4e487b7100000000000000000000000000000000000000000000000000000000600052603260045260246000fd5b602002019073ffffffffffffffffffffffffffffffffffffffff16908173ffffffffffffffffffffffffffffffffffffffff16815250506000816001600281106105d0577f4e487b7100000000000000000000000000000000000000000000000000000000600052603260045260246000fd5b602002019073ffffffffffffffffffffffffffffffffffffffff16908173ffffffffffffffffffffffffffffffffffffffff16815250505b6040518060400160405280600073ffffffffffffffffffffffffffffffffffffffff1673ffffffffffffffffffffffffffffffffffffffff1681526020018873ffffffffffffffffffffffffffffffffffffffff1673ffffffffffffffffffffffffffffffffffffffff1681525060036000600460009054906101000a900460ff1660ff1660ff1681526020019081526020016000206000019060026106af929190612fb0565b503460036000600460009054906101000a900460ff1660ff1660ff16815260200190815260200160002060020160008073ffffffffffffffffffffffffffffffffffffffff1673ffffffffffffffffffffffffffffffffffffffff168152602001908152602001600020819055508560036000600460009054906101000a900460ff1660ff1660ff16815260200190815260200160002060020160008973ffffffffffffffffffffffffffffffffffffffff1673ffffffffffffffffffffffffffffffffffffffff1681526020019081526020016000208190555085346107969190613fbc565b60036000600460009054906101000a900460ff1660ff1660ff16815260200190815260200160002060030181905550600060036000600460009054906101000a900460ff1660ff1660ff168152602001908152602001600020600401819055508060036000600460009054906101000a900460ff1660ff1660ff168152602001908152602001600020600501906002610830929190612fb0565b5060036000600460009054906101000a900460ff1660ff1660ff168152602001908152602001600020600201600082600060028110610898577f4e487b7100000000000000000000000000000000000000000000000000000000600052603260045260246000fd5b602002015173ffffffffffffffffffffffffffffffffffffffff1673ffffffffffffffffffffffffffffffffffffffff168152602001908152602001600020548260036000600460009054906101000a900460ff1660ff1660ff168152602001908152602001600020600201600084600160028110610940577f4e487b7100000000000000000000000000000000000000000000000000000000600052603260045260246000fd5b602002015173ffffffffffffffffffffffffffffffffffffffff1673ffffffffffffffffffffffffffffffffffffffff1681526020019081526020016000205461098a9190613fbc565b6109949190613e1a565b60036000600460009054906101000a900460ff1660ff1660ff1681526020019081526020016000206009018190555060036000600460009054906101000a900460ff1660ff1660ff1681526020019081526020016000206009015460036000600460009054906101000a900460ff1660ff1660ff16815260200190815260200160002060080181905550600060036000600460009054906101000a900460ff1660ff1660ff168152602001908152602001600020600701819055506004600081819054906101000a900460ff1680929190610a6e9061415a565b91906101000a81548160ff021916908360ff1602179055505050610dd2565b6000348287610a9c9190613fbc565b610aa69190613e1a565b90506000600360008560ff1660ff168152602001908152602001600020600801548383610ad39190613fbc565b610add9190613e1a565b905060026003610aed9190614016565b600a610af99190613e9e565b6062610b059190613fbc565b81118015610b37575060026003610b1c9190614016565b600a610b289190613e9e565b6066610b349190613fbc565b81105b610b76576040517f08c379a0000000000000000000000000000000000000000000000000000000008152600401610b6d906139d9565b60405180910390fd5b34600360008660ff1660ff16815260200190815260200160002060020160008073ffffffffffffffffffffffffffffffffffffffff1673ffffffffffffffffffffffffffffffffffffffff1681526020019081526020016000206000828254610bdf9190613dc4565b9250508190555086600360008660ff1660ff16815260200190815260200160002060020160008a73ffffffffffffffffffffffffffffffffffffffff1673ffffffffffffffffffffffffffffffffffffffff1681526020019081526020016000206000828254610c4f9190613dc4565b92505081905550600360008560ff1660ff16815260200190815260200160002060030154600360008660ff1660ff16815260200190815260200160002060040181905550600360008560ff1660ff16815260200190815260200160002060020160008973ffffffffffffffffffffffffffffffffffffffff1673ffffffffffffffffffffffffffffffffffffffff16815260200190815260200160002054600360008660ff1660ff16815260200190815260200160002060020160008073ffffffffffffffffffffffffffffffffffffffff1673ffffffffffffffffffffffffffffffffffffffff16815260200190815260200160002054610d519190613fbc565b600360008660ff1660ff16815260200190815260200160002060030181905550600360008560ff1660ff16815260200190815260200160002060090154600360008660ff1660ff1681526020019081526020016000206007018190555081600360008660ff1660ff1681526020019081526020016000206009018190555050505b6000935060005b600560003373ffffffffffffffffffffffffffffffffffffffff1673ffffffffffffffffffffffffffffffffffffffff16815260200190815260200160002060010160009054906101000a900460ff1660ff168160ff16101561102957600560003373ffffffffffffffffffffffffffffffffffffffff1673ffffffffffffffffffffffffffffffffffffffff16815260200190815260200160002060000160008260ff1660ff16815260200190815260200160002060000160009054906101000a900460ff1660ff168360ff1614156110165734600560003373ffffffffffffffffffffffffffffffffffffffff1673ffffffffffffffffffffffffffffffffffffffff16815260200190815260200160002060000160008360ff1660ff16815260200190815260200160002060010160008073ffffffffffffffffffffffffffffffffffffffff1673ffffffffffffffffffffffffffffffffffffffff1681526020019081526020016000206000828254610f569190613dc4565b9250508190555085600560003373ffffffffffffffffffffffffffffffffffffffff1673ffffffffffffffffffffffffffffffffffffffff16815260200190815260200160002060000160008360ff1660ff16815260200190815260200160002060010160008973ffffffffffffffffffffffffffffffffffffffff1673ffffffffffffffffffffffffffffffffffffffff16815260200190815260200160002060008282546110069190613dc4565b9250508190555060019450611029565b80806110219061415a565b915050610dd9565b50836112505781600560003373ffffffffffffffffffffffffffffffffffffffff1673ffffffffffffffffffffffffffffffffffffffff16815260200190815260200160002060000160008060ff16815260200190815260200160002060000160006101000a81548160ff021916908360ff16021790555034600560003373ffffffffffffffffffffffffffffffffffffffff1673ffffffffffffffffffffffffffffffffffffffff16815260200190815260200160002060000160008060ff16815260200190815260200160002060010160008073ffffffffffffffffffffffffffffffffffffffff1673ffffffffffffffffffffffffffffffffffffffff1681526020019081526020016000208190555084600560003373ffffffffffffffffffffffffffffffffffffffff1673ffffffffffffffffffffffffffffffffffffffff16815260200190815260200160002060000160008060ff16815260200190815260200160002060010160008873ffffffffffffffffffffffffffffffffffffffff1673ffffffffffffffffffffffffffffffffffffffff16815260200190815260200160002081905550600560003373ffffffffffffffffffffffffffffffffffffffff1673ffffffffffffffffffffffffffffffffffffffff168152602001908152602001600020600101600081819054906101000a900460ff16809291906112369061415a565b91906101000a81548160ff021916908360ff160217905550505b60008673ffffffffffffffffffffffffffffffffffffffff1663dd62ed3e33306040518363ffffffff1660e01b815260040161128d929190613890565b60206040518083038186803b1580156112a557600080fd5b505afa1580156112b9573d6000803e3d6000fd5b505050506040513d601f19601f820116820180604052508101906112dd919061328b565b905085811015611322576040517f08c379a000000000000000000000000000000000000000000000000000000000815260040161131990613919565b60405180910390fd5b61132e87333089612cd6565b50505050505050565b60036020528060005260406000206000915090508060030154908060040154908060070154908060080154908060090154905085565b60008073ffffffffffffffffffffffffffffffffffffffff168373ffffffffffffffffffffffffffffffffffffffff1614156113de576040517f08c379a00000000000000000000000000000000000000000000000000000000081526004016113d590613979565b60405180910390fd5b3073ffffffffffffffffffffffffffffffffffffffff168373ffffffffffffffffffffffffffffffffffffffff16141561144d576040517f08c379a000000000000000000000000000000000000000000000000000000000815260040161144490613b19565b60405180910390fd5b60008511611490576040517f08c379a000000000000000000000000000000000000000000000000000000000815260040161148790613c39565b60405180910390fd5b600061151a8660405180604001604052806040518060400160405280600481526020017f4f4341540000000000000000000000000000000000000000000000000000000081525081526020016040518060400160405280600381526020017f455448000000000000000000000000000000000000000000000000000000000081525081525061235a565b809250819350505084821015611565576040517f08c379a000000000000000000000000000000000000000000000000000000000815260040161155c90613a19565b60405180910390fd5b7fd1b1b510e169b19048c41a78e951db334c9b07265d1b5e112ad361651a1564af826040516115949190613c59565b60405180910390a160008060009054906101000a900473ffffffffffffffffffffffffffffffffffffffff1673ffffffffffffffffffffffffffffffffffffffff1663dd62ed3e86306040518363ffffffff1660e01b81526004016115fa929190613867565b60206040518083038186803b15801561161257600080fd5b505afa158015611626573d6000803e3d6000fd5b505050506040513d601f19601f8201168201806040525081019061164a919061328b565b90508681101561168f576040517f08c379a000000000000000000000000000000000000000000000000000000000815260040161168690613bf9565b60405180910390fd5b6116bb60008054906101000a900473ffffffffffffffffffffffffffffffffffffffff1686308a612cd6565b6116c58584612e0f565b7fd1b1b510e169b19048c41a78e951db334c9b07265d1b5e112ad361651a1564af836040516116f49190613c59565b60405180910390a186600360008460ff1660ff16815260200190815260200160002060020160008060009054906101000a900473ffffffffffffffffffffffffffffffffffffffff1673ffffffffffffffffffffffffffffffffffffffff1673ffffffffffffffffffffffffffffffffffffffff16815260200190815260200160002060008282546117869190613dc4565b9250508190555082600360008460ff1660ff16815260200190815260200160002060020160008073ffffffffffffffffffffffffffffffffffffffff1673ffffffffffffffffffffffffffffffffffffffff16815260200190815260200160002060008282546117f69190614016565b92505081905550600360008360ff1660ff16815260200190815260200160002060090154600360008460ff1660ff16815260200190815260200160002060070181905550600360008360ff1660ff1681526020019081526020016000206002016000600360008560ff1660ff1681526020019081526020016000206005016000600281106118ad577f4e487b7100000000000000000000000000000000000000000000000000000000600052603260045260246000fd5b0160009054906101000a900473ffffffffffffffffffffffffffffffffffffffff1673ffffffffffffffffffffffffffffffffffffffff1673ffffffffffffffffffffffffffffffffffffffff168152602001908152602001600020546003600a6119189190613e9e565b600360008560ff1660ff1681526020019081526020016000206002016000600360008760ff1660ff16815260200190815260200160002060050160016002811061198b577f4e487b7100000000000000000000000000000000000000000000000000000000600052603260045260246000fd5b0160009054906101000a900473ffffffffffffffffffffffffffffffffffffffff1673ffffffffffffffffffffffffffffffffffffffff1673ffffffffffffffffffffffffffffffffffffffff168152602001908152602001600020546119f29190613fbc565b6119fc9190613e1a565b600360008460ff1660ff168152602001908152602001600020600901819055505050949350505050565b600073ffffffffffffffffffffffffffffffffffffffff168273ffffffffffffffffffffffffffffffffffffffff1614158015611a8f57503073ffffffffffffffffffffffffffffffffffffffff168273ffffffffffffffffffffffffffffffffffffffff1614155b611ace576040517f08c379a0000000000000000000000000000000000000000000000000000000008152600401611ac590613939565b60405180910390fd5b60003411611b11576040517f08c379a0000000000000000000000000000000000000000000000000000000008152600401611b0890613b39565b60405180910390fd5b600080611b9c3460405180604001604052806040518060400160405280600381526020017f455448000000000000000000000000000000000000000000000000000000000081525081526020016040518060400160405280600481526020017f4f4341540000000000000000000000000000000000000000000000000000000081525081525061235a565b9150915084821015611be3576040517f08c379a0000000000000000000000000000000000000000000000000000000008152600401611bda90613a79565b60405180910390fd5b60008054906101000a900473ffffffffffffffffffffffffffffffffffffffff1673ffffffffffffffffffffffffffffffffffffffff1663a9059cbb33846040518363ffffffff1660e01b8152600401611c3e9291906138f0565b602060405180830381600087803b158015611c5857600080fd5b505af1158015611c6c573d6000803e3d6000fd5b505050506040513d601f19601f82011682018060405250810190611c909190613262565b5034600360008360ff1660ff16815260200190815260200160002060020160008073ffffffffffffffffffffffffffffffffffffffff1673ffffffffffffffffffffffffffffffffffffffff1681526020019081526020016000206000828254611cfa9190613dc4565b9250508190555081600360008360ff1660ff16815260200190815260200160002060020160008060009054906101000a900473ffffffffffffffffffffffffffffffffffffffff1673ffffffffffffffffffffffffffffffffffffffff1673ffffffffffffffffffffffffffffffffffffffff1681526020019081526020016000206000828254611d8b9190614016565b92505081905550600360008260ff1660ff16815260200190815260200160002060090154600360008360ff1660ff1681526020019081526020016000206007018190555060006003600a611ddf9190613e9e565b600360008460ff1660ff16815260200190815260200160002060020160008073ffffffffffffffffffffffffffffffffffffffff1673ffffffffffffffffffffffffffffffffffffffff16815260200190815260200160002054611e439190613fbc565b9050600360008360ff1660ff16815260200190815260200160002060020160008060009054906101000a900473ffffffffffffffffffffffffffffffffffffffff1673ffffffffffffffffffffffffffffffffffffffff1673ffffffffffffffffffffffffffffffffffffffff1681526020019081526020016000205481611ecb9190613e1a565b600360008460ff1660ff16815260200190815260200160002060090181905550505050505050565b600073ffffffffffffffffffffffffffffffffffffffff16600260009054906101000a900473ffffffffffffffffffffffffffffffffffffffff1673ffffffffffffffffffffffffffffffffffffffff161415611f85576040517f08c379a0000000000000000000000000000000000000000000000000000000008152600401611f7c90613a59565b60405180910390fd5b600260009054906101000a900473ffffffffffffffffffffffffffffffffffffffff1673ffffffffffffffffffffffffffffffffffffffff163373ffffffffffffffffffffffffffffffffffffffff1614612015576040517f08c379a000000000000000000000000000000000000000000000000000000000815260040161200c906139b9565b60405180910390fd5b80600073ffffffffffffffffffffffffffffffffffffffff168173ffffffffffffffffffffffffffffffffffffffff161415612086576040517f08c379a000000000000000000000000000000000000000000000000000000000815260040161207d90613b59565b60405180910390fd5b816000806101000a81548173ffffffffffffffffffffffffffffffffffffffff021916908373ffffffffffffffffffffffffffffffffffffffff1602179055505050565b60056020528060005260406000206000915090508060010160009054906101000a900460ff16905081565b600073ffffffffffffffffffffffffffffffffffffffff16600260009054906101000a900473ffffffffffffffffffffffffffffffffffffffff1673ffffffffffffffffffffffffffffffffffffffff161415612187576040517f08c379a000000000000000000000000000000000000000000000000000000000815260040161217e90613a59565b60405180910390fd5b600260009054906101000a900473ffffffffffffffffffffffffffffffffffffffff1673ffffffffffffffffffffffffffffffffffffffff163373ffffffffffffffffffffffffffffffffffffffff1614612217576040517f08c379a000000000000000000000000000000000000000000000000000000000815260040161220e906139b9565b60405180910390fd5b80600073ffffffffffffffffffffffffffffffffffffffff168173ffffffffffffffffffffffffffffffffffffffff161415612288576040517f08c379a000000000000000000000000000000000000000000000000000000000815260040161227f90613b59565b60405180910390fd5b81600160006101000a81548173ffffffffffffffffffffffffffffffffffffffff021916908373ffffffffffffffffffffffffffffffffffffffff160217905550600160009054906101000a900473ffffffffffffffffffffffffffffffffffffffff1673ffffffffffffffffffffffffffffffffffffffff1663d14ce3ca306040518263ffffffff1660e01b8152600401612324919061384c565b600060405180830381600087803b15801561233e57600080fd5b505af1158015612352573d6000803e3d6000fd5b505050505050565b60008060006123dc8460006002811061239c577f4e487b7100000000000000000000000000000000000000000000000000000000600052603260045260246000fd5b60200201516040518060400160405280600381526020017f4554480000000000000000000000000000000000000000000000000000000000815250612f35565b9050600061245d8560016002811061241d577f4e487b7100000000000000000000000000000000000000000000000000000000600052603260045260246000fd5b60200201516040518060400160405280600481526020017f4f43415400000000000000000000000000000000000000000000000000000000815250612f35565b905060006124de8660006002811061249e577f4e487b7100000000000000000000000000000000000000000000000000000000600052603260045260246000fd5b60200201516040518060400160405280600481526020017f4f43415400000000000000000000000000000000000000000000000000000000815250612f35565b9050600061255f8760016002811061251f577f4e487b7100000000000000000000000000000000000000000000000000000000600052603260045260246000fd5b60200201516040518060400160405280600381526020017f4554480000000000000000000000000000000000000000000000000000000000815250612f35565b905083801561256b5750825b8061257c575081801561257b5750805b5b6125bb576040517f08c379a00000000000000000000000000000000000000000000000000000000081526004016125b290613bb9565b60405180910390fd5b6000806125ea60008060009054906101000a900473ffffffffffffffffffffffffffffffffffffffff16612920565b8093508199508294505050506000600360008960ff1660ff16815260200190815260200160002060020160008073ffffffffffffffffffffffffffffffffffffffff1673ffffffffffffffffffffffffffffffffffffffff1681526020019081526020016000205490506000600360008a60ff1660ff16815260200190815260200160002060020160008060009054906101000a900473ffffffffffffffffffffffffffffffffffffffff1673ffffffffffffffffffffffffffffffffffffffff1673ffffffffffffffffffffffffffffffffffffffff1681526020019081526020016000205490508780156126dd5750865b156127f25783612722576040517f08c379a000000000000000000000000000000000000000000000000000000000815260040161271990613b79565b60405180910390fd5b60008111612765576040517f08c379a000000000000000000000000000000000000000000000000000000000815260040161275c90613bd9565b60405180910390fd5b60008c836127739190613dc4565b600360008c60ff1660ff1681526020019081526020016000206003015461279a9190613e1a565b90508082116127de576040517f08c379a00000000000000000000000000000000000000000000000000000000081526004016127d590613a39565b60405180910390fd5b80826127ea9190614016565b9a50506128fe565b83612832576040517f08c379a0000000000000000000000000000000000000000000000000000000008152600401612829906139f9565b60405180910390fd5b60008211612875576040517f08c379a000000000000000000000000000000000000000000000000000000000815260040161286c90613959565b60405180910390fd5b60008c826128839190613dc4565b600360008c60ff1660ff168152602001908152602001600020600301546128aa9190613e1a565b90508083116128ee576040517f08c379a00000000000000000000000000000000000000000000000000000000081526004016128e590613a99565b60405180910390fd5b80836128fa9190614016565b9a50505b50505050505050509250929050565b600460009054906101000a900460ff1681565b6000806000809250600091506001905060005b600460009054906101000a900460ff1660ff168160ff161015612cce578573ffffffffffffffffffffffffffffffffffffffff16600360008360ff1660ff1681526020019081526020016000206000016000600281106129bc577f4e487b7100000000000000000000000000000000000000000000000000000000600052603260045260246000fd5b0160009054906101000a900473ffffffffffffffffffffffffffffffffffffffff1673ffffffffffffffffffffffffffffffffffffffff16148015612aa257508473ffffffffffffffffffffffffffffffffffffffff16600360008360ff1660ff168152602001908152602001600020600001600160028110612a68577f4e487b7100000000000000000000000000000000000000000000000000000000600052603260045260246000fd5b0160009054906101000a900473ffffffffffffffffffffffffffffffffffffffff1673ffffffffffffffffffffffffffffffffffffffff16145b80612bfb57508573ffffffffffffffffffffffffffffffffffffffff16600360008360ff1660ff168152602001908152602001600020600001600160028110612b14577f4e487b7100000000000000000000000000000000000000000000000000000000600052603260045260246000fd5b0160009054906101000a900473ffffffffffffffffffffffffffffffffffffffff1673ffffffffffffffffffffffffffffffffffffffff16148015612bfa57508473ffffffffffffffffffffffffffffffffffffffff16600360008360ff1660ff168152602001908152602001600020600001600060028110612bc0577f4e487b7100000000000000000000000000000000000000000000000000000000600052603260045260246000fd5b0160009054906101000a900473ffffffffffffffffffffffffffffffffffffffff1673ffffffffffffffffffffffffffffffffffffffff16145b5b15612cbb57600193508092508573ffffffffffffffffffffffffffffffffffffffff16600360008360ff1660ff168152602001908152602001600020600001600160028110612c73577f4e487b7100000000000000000000000000000000000000000000000000000000600052603260045260246000fd5b0160009054906101000a900473ffffffffffffffffffffffffffffffffffffffff1673ffffffffffffffffffffffffffffffffffffffff161415612cb657600091505b612cce565b8080612cc69061415a565b915050612933565b509250925092565b6000808573ffffffffffffffffffffffffffffffffffffffff166323b872dd868686604051602401612d0a939291906138b9565b6040516020818303038152906040529060e01b6020820180517bffffffffffffffffffffffffffffffffffffffffffffffffffffffff8381831617835250505050604051612d58919061381e565b6000604051808303816000865af19150503d8060008114612d95576040519150601f19603f3d011682016040523d82523d6000602084013e612d9a565b606091505b5091509150818015612dc85750600081511480612dc7575080806020019051810190612dc69190613262565b5b5b612e07576040517f08c379a0000000000000000000000000000000000000000000000000000000008152600401612dfe90613c19565b60405180910390fd5b505050505050565b60008273ffffffffffffffffffffffffffffffffffffffff1682600067ffffffffffffffff811115612e6a577f4e487b7100000000000000000000000000000000000000000000000000000000600052604160045260246000fd5b6040519080825280601f01601f191660200182016040528015612e9c5781602001600182028036833780820191505090505b50604051612eaa919061381e565b60006040518083038185875af1925050503d8060008114612ee7576040519150601f19603f3d011682016040523d82523d6000602084013e612eec565b606091505b5050905080612f30576040517f08c379a0000000000000000000000000000000000000000000000000000000008152600401612f2790613b99565b60405180910390fd5b505050565b600081604051602001612f489190613835565b6040516020818303038152906040528051906020012083604051602001612f6f9190613835565b6040516020818303038152906040528051906020012014905092915050565b6040518060400160405280600290602082028036833780820191505090505090565b826002810192821561301c579160200282015b8281111561301b5782518260006101000a81548173ffffffffffffffffffffffffffffffffffffffff021916908373ffffffffffffffffffffffffffffffffffffffff16021790555091602001919060010190612fc3565b5b509050613029919061302d565b5090565b5b8082111561304657600081600090555060010161302e565b5090565b600061305d61305884613d30565b613d0b565b9050808285602086028201111561307357600080fd5b60005b858110156130bd57813567ffffffffffffffff81111561309557600080fd5b8086016130a2898261316b565b85526020850194506020840193505050600181019050613076565b5050509392505050565b60006130da6130d584613d56565b613d0b565b9050828152602081018484840111156130f257600080fd5b6130fd8482856140e7565b509392505050565b6000813590506131148161473d565b92915050565b60008135905061312981614754565b92915050565b600082601f83011261314057600080fd5b600261314d84828561304a565b91505092915050565b6000815190506131658161476b565b92915050565b600082601f83011261317c57600080fd5b813561318c8482602086016130c7565b91505092915050565b6000813590506131a481614782565b92915050565b6000815190506131b981614782565b92915050565b6000813590506131ce81614799565b92915050565b6000602082840312156131e657600080fd5b60006131f484828501613105565b91505092915050565b60006020828403121561320f57600080fd5b600061321d8482850161311a565b91505092915050565b6000806040838503121561323957600080fd5b600061324785828601613105565b925050602061325885828601613195565b9150509250929050565b60006020828403121561327457600080fd5b600061328284828501613156565b91505092915050565b60006020828403121561329d57600080fd5b60006132ab848285016131aa565b91505092915050565b6000806000606084860312156132c957600080fd5b60006132d786828701613195565b93505060206132e88682870161311a565b92505060406132f986828701613195565b9150509250925092565b6000806040838503121561331657600080fd5b600061332485828601613195565b925050602083013567ffffffffffffffff81111561334157600080fd5b61334d8582860161312f565b9150509250929050565b6000806000806080858703121561336d57600080fd5b600061337b87828801613195565b945050602061338c87828801613195565b935050604061339d8782880161311a565b92505060606133ae87828801613195565b91505092959194509250565b6000602082840312156133cc57600080fd5b60006133da848285016131bf565b91505092915050565b6133ec816140b1565b82525050565b6133fb8161405c565b82525050565b61340a8161404a565b82525050565b600061341b82613d87565b6134258185613d9d565b93506134358185602086016140f6565b80840191505092915050565b600061344c82613d92565b6134568185613db9565b93506134668185602086016140f6565b80840191505092915050565b600061347f604483613da8565b915061348a8261422f565b606082019050919050565b60006134a2601383613da8565b91506134ad826142a4565b602082019050919050565b60006134c5601383613da8565b91506134d0826142cd565b602082019050919050565b60006134e8601383613da8565b91506134f3826142f6565b602082019050919050565b600061350b600e83613da8565b91506135168261431f565b602082019050919050565b600061352e601683613da8565b915061353982614348565b602082019050919050565b6000613551602583613da8565b915061355c82614371565b604082019050919050565b6000613574601383613da8565b915061357f826143c0565b602082019050919050565b6000613597601383613da8565b91506135a2826143e9565b602082019050919050565b60006135ba601383613da8565b91506135c582614412565b602082019050919050565b60006135dd601783613da8565b91506135e88261443b565b602082019050919050565b6000613600601383613da8565b915061360b82614464565b602082019050919050565b6000613623601383613da8565b915061362e8261448d565b602082019050919050565b6000613646600d83613da8565b9150613651826144b6565b602082019050919050565b6000613669602183613da8565b9150613674826144df565b604082019050919050565b600061368c600e83613da8565b91506136978261452e565b602082019050919050565b60006136af601383613da8565b91506136ba82614557565b602082019050919050565b60006136d2601383613da8565b91506136dd82614580565b602082019050919050565b60006136f5601e83613da8565b9150613700826145a9565b602082019050919050565b6000613718601383613da8565b9150613723826145d2565b602082019050919050565b600061373b602383613da8565b9150613746826145fb565b604082019050919050565b600061375e601d83613da8565b91506137698261464a565b602082019050919050565b6000613781601383613da8565b915061378c82614673565b602082019050919050565b60006137a4601383613da8565b91506137af8261469c565b602082019050919050565b60006137c7602483613da8565b91506137d2826146c5565b604082019050919050565b60006137ea601383613da8565b91506137f582614714565b602082019050919050565b6138098161409a565b82525050565b613818816140a4565b82525050565b600061382a8284613410565b915081905092915050565b60006138418284613441565b915081905092915050565b600060208201905061386160008301846133f2565b92915050565b600060408201905061387c60008301856133e3565b6138896020830184613401565b9392505050565b60006040820190506138a56000830185613401565b6138b26020830184613401565b9392505050565b60006060820190506138ce6000830186613401565b6138db6020830185613401565b6138e86040830184613800565b949350505050565b60006040820190506139056000830185613401565b6139126020830184613800565b9392505050565b6000602082019050818103600083015261393281613472565b9050919050565b6000602082019050818103600083015261395281613495565b9050919050565b60006020820190508181036000830152613972816134b8565b9050919050565b60006020820190508181036000830152613992816134db565b9050919050565b600060208201905081810360008301526139b2816134fe565b9050919050565b600060208201905081810360008301526139d281613521565b9050919050565b600060208201905081810360008301526139f281613544565b9050919050565b60006020820190508181036000830152613a1281613567565b9050919050565b60006020820190508181036000830152613a328161358a565b9050919050565b60006020820190508181036000830152613a52816135ad565b9050919050565b60006020820190508181036000830152613a72816135d0565b9050919050565b60006020820190508181036000830152613a92816135f3565b9050919050565b60006020820190508181036000830152613ab281613616565b9050919050565b60006020820190508181036000830152613ad281613639565b9050919050565b60006020820190508181036000830152613af28161365c565b9050919050565b60006020820190508181036000830152613b128161367f565b9050919050565b60006020820190508181036000830152613b32816136a2565b9050919050565b60006020820190508181036000830152613b52816136c5565b9050919050565b60006020820190508181036000830152613b72816136e8565b9050919050565b60006020820190508181036000830152613b928161370b565b9050919050565b60006020820190508181036000830152613bb28161372e565b9050919050565b60006020820190508181036000830152613bd281613751565b9050919050565b60006020820190508181036000830152613bf281613774565b9050919050565b60006020820190508181036000830152613c1281613797565b9050919050565b60006020820190508181036000830152613c32816137ba565b9050919050565b60006020820190508181036000830152613c52816137dd565b9050919050565b6000602082019050613c6e6000830184613800565b92915050565b600060a082019050613c896000830188613800565b613c966020830187613800565b613ca36040830186613800565b613cb06060830185613800565b613cbd6080830184613800565b9695505050505050565b6000604082019050613cdc6000830185613800565b613ce9602083018461380f565b9392505050565b6000602082019050613d05600083018461380f565b92915050565b6000613d15613d26565b9050613d218282614129565b919050565b6000604051905090565b600067ffffffffffffffff821115613d4b57613d4a6141e2565b5b602082029050919050565b600067ffffffffffffffff821115613d7157613d706141e2565b5b613d7a82614211565b9050602081019050919050565b600081519050919050565b600081519050919050565b600081905092915050565b600082825260208201905092915050565b600081905092915050565b6000613dcf8261409a565b9150613dda8361409a565b9250827fffffffffffffffffffffffffffffffffffffffffffffffffffffffffffffffff03821115613e0f57613e0e614184565b5b828201905092915050565b6000613e258261409a565b9150613e308361409a565b925082613e4057613e3f6141b3565b5b828204905092915050565b6000808291508390505b6001851115613e9557808604811115613e7157613e70614184565b5b6001851615613e805780820291505b8081029050613e8e85614222565b9450613e55565b94509492505050565b6000613ea98261409a565b9150613eb48361409a565b9250613ee17fffffffffffffffffffffffffffffffffffffffffffffffffffffffffffffffff8484613ee9565b905092915050565b600082613ef95760019050613fb5565b81613f075760009050613fb5565b8160018114613f1d5760028114613f2757613f56565b6001915050613fb5565b60ff841115613f3957613f38614184565b5b8360020a915084821115613f5057613f4f614184565b5b50613fb5565b5060208310610133831016604e8410600b8410161715613f8b5782820a905083811115613f8657613f85614184565b5b613fb5565b613f988484846001613e4b565b92509050818404811115613faf57613fae614184565b5b81810290505b9392505050565b6000613fc78261409a565b9150613fd28361409a565b9250817fffffffffffffffffffffffffffffffffffffffffffffffffffffffffffffffff048311821515161561400b5761400a614184565b5b828202905092915050565b60006140218261409a565b915061402c8361409a565b92508282101561403f5761403e614184565b5b828203905092915050565b60006140558261407a565b9050919050565b60006140678261407a565b9050919050565b60008115159050919050565b600073ffffffffffffffffffffffffffffffffffffffff82169050919050565b6000819050919050565b600060ff82169050919050565b60006140bc826140c3565b9050919050565b60006140ce826140d5565b9050919050565b60006140e08261407a565b9050919050565b82818337600083830152505050565b60005b838110156141145780820151818401526020810190506140f9565b83811115614123576000848401525b50505050565b61413282614211565b810181811067ffffffffffffffff82111715614151576141506141e2565b5b80604052505050565b6000614165826140a4565b915060ff82141561417957614178614184565b5b600182019050919050565b7f4e487b7100000000000000000000000000000000000000000000000000000000600052601160045260246000fd5b7f4e487b7100000000000000000000000000000000000000000000000000000000600052601260045260246000fd5b7f4e487b7100000000000000000000000000000000000000000000000000000000600052604160045260246000fd5b6000601f19601f8301169050919050565b60008160011c9050919050565b7f4f63784c6f63616c506f6f6c2e6164644c697175696469747928293a20496e7360008201527f756666696369656e7420616c6c6f77616e636520666f72207365636f6e64207460208201527f6f6b656e00000000000000000000000000000000000000000000000000000000604082015250565b7f73776170457468546f4f63617428293a202d3100000000000000000000000000600082015250565b7f676574416d6f756e74734f757428293a202d3500000000000000000000000000600082015250565b7f737761704f636174546f45746828293a202d3100000000000000000000000000600082015250565b7f496e76616c696420616d6f756e74000000000000000000000000000000000000600082015250565b7f43616c6c6572206d7573742062652063726561746f7200000000000000000000600082015250565b7f496e76616c69642071756f7465286f7574206f662072616e67653a203938257e60008201527f3130322529000000000000000000000000000000000000000000000000000000602082015250565b7f676574416d6f756e74734f757428293a202d3400000000000000000000000000600082015250565b7f737761704f636174546f45746828293a202d3800000000000000000000000000600082015250565b7f676574416d6f756e74734f757428293a202d3300000000000000000000000000600082015250565b7f496e76616c69642063726561746f722061646472657373000000000000000000600082015250565b7f73776170457468546f4f63617428293a202d3700000000000000000000000000600082015250565b7f676574416d6f756e74734f757428293a202d3600000000000000000000000000600082015250565b7f496e76616c696420746f6b656e00000000000000000000000000000000000000600082015250565b7f6164644c69717569646974795769746845544828293a204e6f20616c6c6f776560008201527f6400000000000000000000000000000000000000000000000000000000000000602082015250565b7f496e76616c69642073656e646572000000000000000000000000000000000000600082015250565b7f737761704f636174546f45746828293a202d3200000000000000000000000000600082015250565b7f73776170457468546f4f63617428293a202d3200000000000000000000000000600082015250565b7f5468652061646472657373206d7573742063616e2774206265207a65726f0000600082015250565b7f676574416d6f756e74734f757428293a202d3100000000000000000000000000600082015250565b7f5472616e7366657248656c7065723a204554485f5452414e534645525f46414960008201527f4c45440000000000000000000000000000000000000000000000000000000000602082015250565b7f676574416d6f756e74734f757428293a20496e76616c69642070617468000000600082015250565b7f676574416d6f756e74734f757428293a202d3200000000000000000000000000600082015250565b7f737761704f636174546f45746828293a202d3900000000000000000000000000600082015250565b7f5472616e7366657248656c7065723a205452414e534645525f46524f4d5f464160008201527f494c454400000000000000000000000000000000000000000000000000000000602082015250565b7f737761704f636174546f45746828293a202d3300000000000000000000000000600082015250565b6147468161404a565b811461475157600080fd5b50565b61475d8161405c565b811461476857600080fd5b50565b6147748161406e565b811461477f57600080fd5b50565b61478b8161409a565b811461479657600080fd5b50565b6147a2816140a4565b81146147ad57600080fd5b5056fea264697066735822122036ee5e84d53fe181a9239211ffb22ee9d7e95efb2d84bdd34a626db3fd40030964736f6c63430008040033",
  "immutableReferences": {},
  "source": "// SPDX-License-Identifier: MIT\npragma solidity ^0.8.0;\n\nimport \"@openzeppelin/contracts/token/ERC20/IERC20.sol\"; // openzeppelin 4.5 (for solidity 0.8.x)\n// import \"@openzeppelin/contracts/utils/math/SafeMath.sol\";\nimport '@uniswap/lib/contracts/libraries/TransferHelper.sol';\nimport \"./OcxLPToken.sol\";\n\ncontract OcxLocalPool {\n\n    uint256 private constant QUOTE_DECIMALS = 3; // Must be more than 3 at least\n\n    address payable private ocatAddress;\n    address payable private ocxLPAddress;\n\n    address payable private creator;\n\n    struct Pool {\n        address[2] tokens;\n        mapping(address => uint256) amounts;\n        uint256 k;\n        uint256 prevK;\n        address[2] quoteOrder;\n        uint256 prevQuote;\n        uint256 quoteOrig;\n        uint256 quote;\n    }\n\n    struct SharingPool {\n        uint8 index;\n        mapping(address => uint256) sharingAmounts;\n    }\n\n    struct SharingPools {\n        mapping(uint8 => SharingPool) pools;\n        uint8                         poolCount;\n    }\n\n    mapping(uint8 => Pool) public   poolList;\n    uint8 public                    poolCount;\n\n    // mapping(address => PoolShare) public shares;\n    mapping(address => SharingPools) public shares;\n\n    event AmountToRetrieve(uint256);\n    \n    receive() external payable {}\n\n    constructor() {\n        creator = payable(msg.sender);\n    }\n\n    modifier callerMustBeCreator {\n        require(creator != address(0), \"Invalid creator address\");\n        require(msg.sender == creator, \"Caller must be creator\");\n        _;\n    }\n\n    modifier mustBeNoneZero(address _address) {\n        require(_address != address(0), \"The address must can't be zero\");\n        _;\n    }\n\n    /*\n     * Error Code\n     *  -1: Caller for  must be creator\n     *  -2: Invalid parameter\n     */\n    function setOcatAddress(address payable _ocatAddress) public \n    callerMustBeCreator mustBeNoneZero(_ocatAddress) {\n        ocatAddress = _ocatAddress;\n    }\n\n    /*\n     * Error Code\n     *  -1: Caller for  must be creator\n     *  -2: Invalid parameter\n     */\n    function setOcxLPAddress(address payable _ocxlpAddress) public \n    callerMustBeCreator mustBeNoneZero(_ocxlpAddress) {\n        ocxLPAddress = _ocxlpAddress;\n        OcxLPToken(ocxLPAddress).setOcxPoolAddress( payable(address(this)) );\n    }\n\n    function _compareStrings(string memory a, string memory b) internal pure returns (bool) {\n        return (keccak256(abi.encodePacked((a))) == keccak256(abi.encodePacked((b))));\n    }\n\n    function getAmountsOut(\n        uint256 sellAmount, \n        string[2] memory path\n    ) public view returns(uint256 amountOut, uint8 poolIndex) {\n        bool ret1 = _compareStrings(path[0], \"ETH\");\n        bool ret2 = _compareStrings(path[1], \"OCAT\");\n        bool ret3 = _compareStrings(path[0], \"OCAT\");\n        bool ret4 = _compareStrings(path[1], \"ETH\");\n        require(ret1 && ret2 || ret3 && ret4, \"getAmountsOut(): Invalid path\");\n\n        // Find the ETH/OCAT pool\n        bool bFound = false;\n        bool isInTurn = false;\n        (bFound, poolIndex, isInTurn) = _getPoolIndex(address(0), ocatAddress);\n        uint256 ethPoolBalance = poolList[poolIndex].amounts[address(0)];\n        uint256 ocatPoolBalance = poolList[poolIndex].amounts[ocatAddress];\n\n        if (ret1 && ret2) {\n            // Check if the pool exists\n            require(bFound, \"getAmountsOut(): -1\");\n            // Ensure that OCAT balance is more than 0\n            require(ocatPoolBalance > 0, \"getAmountsOut(): -2\");\n            // Calculate the output amount of OCAT \n            uint256 newOcatPoolBalance = poolList[poolIndex].k / (ethPoolBalance + sellAmount);\n            require(ocatPoolBalance > newOcatPoolBalance, \"getAmountsOut(): -3\");\n            amountOut = ocatPoolBalance - newOcatPoolBalance;\n        } else {\n            // Check if the pool exists\n            require(bFound, \"getAmountsOut(): -4\");\n            // Ensure that OCAT balance is more than 0\n            require(ethPoolBalance > 0, \"getAmountsOut(): -5\");\n            // Calculate the output amount of OCAT \n            uint256 newPoolEthBalance = (poolList[poolIndex].k / (ocatPoolBalance + sellAmount));\n            require(ethPoolBalance > newPoolEthBalance, \"getAmountsOut(): -6\");\n            amountOut = ethPoolBalance - newPoolEthBalance;            \n        }\n    }\n\n    /*\n     * Error Code\n     *  -1: Invalid sender\n     *  -2: Invalid ETH amount\n     *  -7: Insufficient OCAT balance in the pool(3)\n     */\n    function swapEthToOcat(uint _amountOutMin, address payable to, uint /*_deadline*/) public payable {\n        require(to != address(0) && to != address(this), \"swapEthToOcat(): -1\");\n        require(msg.value > 0, \"swapEthToOcat(): -2\");\n\n        (uint256 amountOut, uint8 poolIndex) = getAmountsOut(msg.value, [\"ETH\", \"OCAT\"]);\n        require(amountOut >= _amountOutMin, \"swapEthToOcat(): -7\");\n\n        // Transfer OCAT to the sender\n        IERC20(ocatAddress).transfer(msg.sender, amountOut);\n\n        // Update the quote for the pool\n        poolList[poolIndex].amounts[address(0)] += msg.value;\n        poolList[poolIndex].amounts[ocatAddress] -= amountOut;\n        poolList[poolIndex].prevQuote = poolList[poolIndex].quote;\n\n        // (bool ret, uint256 newEthPoolBalance) = SafeMath.tryMul(\n        //     poolList[poolIndex].amounts[address(0)], \n        //     10 ** QUOTE_DECIMALS\n        // );\n        uint256 newEthPoolBalance = poolList[poolIndex].amounts[address(0)] * (10 ** QUOTE_DECIMALS);\n        // require(ret, \"new ETH balance in the pool is overflowed\");\n        poolList[poolIndex].quote = newEthPoolBalance / poolList[poolIndex].amounts[ocatAddress];\n    }\n\n    /*\n     * Error Code\n     *  -1: Invalid sender\n     *  -2: The sender must be different than this\n     *  -8: Insufficient ETH balance in the pool(3)\n     *  -9: Insufficient allowed amount for input token\n     */\n    function swapOcatToEth(\n            uint _amountIn, \n            uint _amountOutMin, \n            address payable to, \n            uint /*_deadline*/\n    ) public returns (uint256 amountOut) {\n        require(to != address(0), \"swapOcatToEth(): -1\");\n        require(to != address(this), \"swapOcatToEth(): -2\");\n        require(_amountIn > 0, \"swapOcatToEth(): -3\");\n        // Get ETH balance in the pool\n        uint8 poolIndex;\n        (amountOut, poolIndex) = getAmountsOut(_amountIn, [\"OCAT\", \"ETH\"]);\n        require(amountOut >= _amountOutMin, \"swapOcatToEth(): -8\");\n        emit AmountToRetrieve(amountOut);\n        // Transfer OCAT from the sender\n        // First check allowance of OCAT amount from the sender\n        uint256 allowance = IERC20(ocatAddress).allowance(to, address(this));\n        require(allowance >= _amountIn, \"swapOcatToEth(): -9\");\n        // Transfer OCAT from the sender\n        TransferHelper.safeTransferFrom(ocatAddress, to, address(this), _amountIn);\n        // Transfer ETH to the sender\n        TransferHelper.safeTransferETH(to, amountOut);\n\n        emit AmountToRetrieve(amountOut);\n\n        // Update the quote for the pool\n        poolList[poolIndex].amounts[ocatAddress] += _amountIn;\n        poolList[poolIndex].amounts[address(0)] -= amountOut;\n        poolList[poolIndex].prevQuote = poolList[poolIndex].quote;\n\n        poolList[poolIndex].quote = \n            (poolList[poolIndex].amounts[poolList[poolIndex].quoteOrder[1]] * (10 ** QUOTE_DECIMALS)) / \n                poolList[poolIndex].amounts[poolList[poolIndex].quoteOrder[0]];\n    }\n\n    function _getPoolIndex(\n        address token0,\n        address token1\n     ) internal view returns (bool bFound, uint8 poolIndex, bool isInTurn)  {\n        bFound = false;\n        poolIndex = 0;\n        isInTurn = true;\n        for (uint8 i = 0; i < poolCount; i++) {\n            if ((poolList[i].tokens[0] == token0 && poolList[i].tokens[1] == token1) \n            || (poolList[i].tokens[1] == token0 && poolList[i].tokens[0] == token1)) {\n                bFound = true;\n                poolIndex = i;\n                if (poolList[i].tokens[1] == token0) {\n                    isInTurn = false;\n                }\n                break;\n            }\n        }\n    }\n\n    function addLiquidityWithETH(\n        address token, \n        uint256 amount\n    ) public payable {\n        require(msg.sender != address(0), \"Invalid sender\");\n        require(token != address(0), \"Invalid token\");\n        require(amount > 0, \"Invalid amount\");\n        // If the amount of OCAT is limited, then assert sender must be creator\n        // Otherwise OCAT is mintable with swapping from/to PNFT continuosly,\n        //   following assertion must be removed\n        require(creator == msg.sender, \"addLiquidityWithETH(): No allowed\");\n\n        // Get quote\n        // ...uint256((quote / poolList[poolIndex].quoteOrig) * 100)\n        // Transfer token A and B from msg.sender to this address\n\n        bool bExist = false;\n        bool isInTurn = true;\n        uint8 poolIndex = 0;\n        uint256 quoteMultiplier = 10 ** QUOTE_DECIMALS;\n\n        (bExist, poolIndex, isInTurn) = _getPoolIndex(address(0), token);\n        if (!bExist) {\n            address[2] memory quoteOrder;\n            quoteOrder[0] = address(0);\n            quoteOrder[1] = token;\n\n            if (msg.value > amount) {\n                quoteOrder[0] = token;\n                quoteOrder[1] = address(0);\n            }\n            poolList[poolCount].tokens = [address(0), token];\n            poolList[poolCount].amounts[address(0)] = msg.value;\n            poolList[poolCount].amounts[token] = amount;\n            poolList[poolCount].k = msg.value * amount;\n            poolList[poolCount].prevK = 0;\n            poolList[poolCount].quoteOrder = quoteOrder;\n            poolList[poolCount].quote = uint256(\n                (poolList[poolCount].amounts[quoteOrder[1]] * quoteMultiplier) / \n                poolList[poolCount].amounts[quoteOrder[0]]\n            );\n            poolList[poolCount].quoteOrig = poolList[poolCount].quote;\n            poolList[poolCount].prevQuote = 0;\n\n            poolCount++;\n\n        } else {\n            // Check quote\n            uint256 newQuote = uint256(\n                (amount * quoteMultiplier) / \n                msg.value\n            );\n            uint256 quoteRate = uint256(\n                (newQuote * quoteMultiplier) / \n                poolList[poolIndex].quoteOrig\n            );\n            // Check if new quote >= 98% and <= 102%\n            require(\n                quoteRate > 98 * (10 ** (QUOTE_DECIMALS - 2)) && \n                    quoteRate < 102 * (10 ** (QUOTE_DECIMALS - 2)), \n                \"Invalid quote(out of range: 98%~102%)\"\n            );\n            // Update pool\n            poolList[poolIndex].amounts[address(0)] += msg.value;\n            poolList[poolIndex].amounts[token] += amount;\n            poolList[poolIndex].prevK = poolList[poolIndex].k;\n            poolList[poolIndex].k = poolList[poolIndex].amounts[address(0)] * \n                poolList[poolIndex].amounts[token];\n            poolList[poolIndex].prevQuote = poolList[poolIndex].quote;\n            poolList[poolIndex].quote = newQuote;\n        }\n        // Update pool share\n        bExist = false;\n        for (uint8 i = 0; i < shares[msg.sender].poolCount; i++) {\n            if (poolIndex == shares[msg.sender].pools[i].index) {\n                shares[msg.sender].pools[i].sharingAmounts[address(0)] += msg.value;\n                shares[msg.sender].pools[i].sharingAmounts[token] += amount;\n                bExist = true;\n                break;\n            }\n        }\n        if (!bExist) {\n            shares[msg.sender].pools[0].index = poolIndex;\n            shares[msg.sender].pools[0].sharingAmounts[address(0)] = msg.value;\n            shares[msg.sender].pools[0].sharingAmounts[token] = amount;\n            shares[msg.sender].poolCount++;\n        }\n\n        // Transfer amounts for both tokens from the sender\n        uint256 allowance = IERC20(token).allowance(msg.sender, address(this));\n        require(allowance >= amount, \"OcxLocalPool.addLiquidity(): Insufficient allowance for second token\");\n        TransferHelper.safeTransferFrom(token, msg.sender, address(this), amount);\n\n        // Mint LP token to return\n        // ...\n        // uint256 newMintAmount = msg.value * amount;\n        // IERC20(ocxLPAddress).mint(newMintAmount);\n        // // Send the amount with fee substracted\n        // IERC20(ocxLPAddress).transfer(msg.sender, (newMintAmount * 100 - 2) / 100)\n    }\n}\n",
  "sourcePath": "/home/cowboy/OpenchainTestVersion/server/contracts/OcxLocalPool.sol",
  "compiler": {
    "name": "solc",
    "version": "0.8.4+commit.c7e474f2.Emscripten.clang"
  },
  "schemaVersion": "3.4.6",
  "updatedAt": "2022-04-09T06:58:09.490Z",
  "networkType": "ethereum",
  "devdoc": {
    "kind": "dev",
    "methods": {},
    "version": 1
  },
  "userdoc": {
    "kind": "user",
    "methods": {},
    "version": 1
  }
}