{
  "contractName": "OcxOcatEthPool",
  "abi": [
    {
      "inputs": [],
      "stateMutability": "nonpayable",
      "type": "constructor"
    },
    {
      "anonymous": false,
      "inputs": [
        {
          "indexed": false,
          "internalType": "uint256",
          "name": "",
          "type": "uint256"
        }
      ],
      "name": "SwappedFromOcat",
      "type": "event"
    },
    {
      "anonymous": false,
      "inputs": [
        {
          "indexed": false,
          "internalType": "uint256",
          "name": "",
          "type": "uint256"
        }
      ],
      "name": "SwappedToOcat",
      "type": "event"
    },
    {
      "inputs": [
        {
          "internalType": "address",
          "name": "_admin",
          "type": "address"
        }
      ],
      "name": "addAdmin",
      "outputs": [],
      "stateMutability": "nonpayable",
      "type": "function"
    },
    {
      "inputs": [
        {
          "internalType": "uint256",
          "name": "price",
          "type": "uint256"
        }
      ],
      "name": "convertToOcat",
      "outputs": [
        {
          "internalType": "uint256",
          "name": "_ocatPrice",
          "type": "uint256"
        }
      ],
      "stateMutability": "nonpayable",
      "type": "function"
    },
    {
      "inputs": [
        {
          "internalType": "address",
          "name": "_address",
          "type": "address"
        }
      ],
      "name": "isAdmin",
      "outputs": [
        {
          "internalType": "bool",
          "name": "yes",
          "type": "bool"
        }
      ],
      "stateMutability": "view",
      "type": "function"
    },
    {
      "inputs": [],
      "name": "localPool",
      "outputs": [
        {
          "internalType": "uint256",
          "name": "k",
          "type": "uint256"
        },
        {
          "internalType": "uint256",
          "name": "prevK",
          "type": "uint256"
        },
        {
          "internalType": "uint256",
          "name": "prevQuote",
          "type": "uint256"
        },
        {
          "internalType": "uint256",
          "name": "origQuote",
          "type": "uint256"
        },
        {
          "internalType": "uint256",
          "name": "quote",
          "type": "uint256"
        }
      ],
      "stateMutability": "view",
      "type": "function"
    },
    {
      "inputs": [],
      "name": "ocatPrice",
      "outputs": [
        {
          "internalType": "uint256",
          "name": "",
          "type": "uint256"
        }
      ],
      "stateMutability": "view",
      "type": "function"
    },
    {
      "inputs": [
        {
          "internalType": "enum CommonContracts",
          "name": "contractIndex",
          "type": "uint8"
        },
        {
          "internalType": "address payable",
          "name": "_address",
          "type": "address"
        }
      ],
      "name": "setCommonContractAddress",
      "outputs": [],
      "stateMutability": "nonpayable",
      "type": "function"
    },
    {
      "inputs": [
        {
          "internalType": "uint256",
          "name": "price",
          "type": "uint256"
        }
      ],
      "name": "setOcatPrice",
      "outputs": [],
      "stateMutability": "nonpayable",
      "type": "function"
    },
    {
      "stateMutability": "payable",
      "type": "receive"
    },
    {
      "inputs": [],
      "name": "init",
      "outputs": [],
      "stateMutability": "nonpayable",
      "type": "function"
    },
    {
      "inputs": [
        {
          "internalType": "uint256",
          "name": "sellAmount",
          "type": "uint256"
        },
        {
          "internalType": "string[2]",
          "name": "path",
          "type": "string[2]"
        }
      ],
      "name": "getAmountsOut",
      "outputs": [
        {
          "internalType": "uint256",
          "name": "amountOut",
          "type": "uint256"
        }
      ],
      "stateMutability": "view",
      "type": "function"
    },
    {
      "inputs": [
        {
          "internalType": "uint256",
          "name": "amountIn",
          "type": "uint256"
        },
        {
          "internalType": "uint256",
          "name": "amountOutMin",
          "type": "uint256"
        },
        {
          "internalType": "uint256",
          "name": "",
          "type": "uint256"
        }
      ],
      "name": "swapToOcat",
      "outputs": [
        {
          "internalType": "uint256",
          "name": "amountOut",
          "type": "uint256"
        }
      ],
      "stateMutability": "payable",
      "type": "function"
    },
    {
      "inputs": [
        {
          "internalType": "uint256",
          "name": "amountIn",
          "type": "uint256"
        },
        {
          "internalType": "uint256",
          "name": "amountOutMin",
          "type": "uint256"
        },
        {
          "internalType": "uint256",
          "name": "",
          "type": "uint256"
        }
      ],
      "name": "swapFromOcat",
      "outputs": [
        {
          "internalType": "uint256",
          "name": "amountOut",
          "type": "uint256"
        }
      ],
      "stateMutability": "payable",
      "type": "function"
    },
    {
      "inputs": [
        {
          "internalType": "uint256",
          "name": "ocatAmount",
          "type": "uint256"
        }
      ],
      "name": "addLiquidityWithEth",
      "outputs": [],
      "stateMutability": "payable",
      "type": "function"
    }
  ],
  "bytecode": "0x60806040523480156200001157600080fd5b50336001806101000a81548173ffffffffffffffffffffffffffffffffffffffff021916908373ffffffffffffffffffffffffffffffffffffffff16021790555062000063336200007260201b60201c565b6103e86002819055506200047d565b600073ffffffffffffffffffffffffffffffffffffffff1660018054906101000a900473ffffffffffffffffffffffffffffffffffffffff1673ffffffffffffffffffffffffffffffffffffffff16141562000105576040517f08c379a0000000000000000000000000000000000000000000000000000000008152600401620000fc9062000333565b60405180910390fd5b60018054906101000a900473ffffffffffffffffffffffffffffffffffffffff1673ffffffffffffffffffffffffffffffffffffffff163373ffffffffffffffffffffffffffffffffffffffff161462000196576040517f08c379a00000000000000000000000000000000000000000000000000000000081526004016200018d9062000311565b60405180910390fd5b80600073ffffffffffffffffffffffffffffffffffffffff168173ffffffffffffffffffffffffffffffffffffffff1614156200020a576040517f08c379a0000000000000000000000000000000000000000000000000000000008152600401620002019062000355565b60405180910390fd5b60016000808473ffffffffffffffffffffffffffffffffffffffff1673ffffffffffffffffffffffffffffffffffffffff16815260200190815260200160002060006101000a81548160ff02191690831515021790555060018060009054906101000a900460ff166200027e919062000388565b600160006101000a81548160ff021916908360ff1602179055505050565b6000620002ab601e8362000377565b9150620002b88262000402565b602082019050919050565b6000620002d260178362000377565b9150620002df826200042b565b602082019050919050565b6000620002f960198362000377565b9150620003068262000454565b602082019050919050565b600060208201905081810360008301526200032c816200029c565b9050919050565b600060208201905081810360008301526200034e81620002c3565b9050919050565b600060208201905081810360008301526200037081620002ea565b9050919050565b600082825260208201905092915050565b60006200039582620003c6565b9150620003a283620003c6565b92508260ff03821115620003bb57620003ba620003d3565b5b828201905092915050565b600060ff82169050919050565b7f4e487b7100000000000000000000000000000000000000000000000000000000600052601160045260246000fd5b7f466f722063616c6c65722065787065637465642062652063726561746f720000600082015250565b7f496e76616c69642063726561746f722061646472657373000000000000000000600082015250565b7f4578706563746564206e6f6e2d7a65726f206164647265737300000000000000600082015250565b613be1806200048d6000396000f3fe6080604052600436106100ab5760003560e01c8063a7d9cfbc11610064578063a7d9cfbc146101d5578063b1112c8014610200578063bb3f6c6a1461021c578063dbcd958014610245578063e1c7392a14610282578063e9ee997a14610299576100b2565b806324d7806c146100b757806359de0961146100f457806360d168681461011d578063704802751461014d57806398077e1614610176578063a18f9aec146101a6576100b2565b366100b257005b600080fd5b3480156100c357600080fd5b506100de60048036038101906100d99190612b09565b6102d6565b6040516100eb9190613008565b60405180910390f35b34801561010057600080fd5b5061011b60048036038101906101169190612b5b565b61032b565b005b61013760048036038101906101329190612c3d565b6107e3565b6040516101449190613203565b60405180910390f35b34801561015957600080fd5b50610174600480360381019061016f9190612b09565b610d53565b005b610190600480360381019061018b9190612c3d565b610f72565b60405161019d9190613203565b60405180910390f35b3480156101b257600080fd5b506101bb6116a1565b6040516101cc95949392919061321e565b60405180910390f35b3480156101e157600080fd5b506101ea6116c5565b6040516101f79190613203565b60405180910390f35b61021a60048036038101906102159190612b97565b6116cb565b005b34801561022857600080fd5b50610243600480360381019061023e9190612b97565b611ed9565b005b34801561025157600080fd5b5061026c60048036038101906102679190612b97565b611ee3565b6040516102799190613203565b60405180910390f35b34801561028e57600080fd5b5061029761204c565b005b3480156102a557600080fd5b506102c060048036038101906102bb9190612be9565b612174565b6040516102cd9190613203565b60405180910390f35b60008060008373ffffffffffffffffffffffffffffffffffffffff1673ffffffffffffffffffffffffffffffffffffffff16815260200190815260200160002060009054906101000a900460ff169050919050565b600073ffffffffffffffffffffffffffffffffffffffff1660018054906101000a900473ffffffffffffffffffffffffffffffffffffffff1673ffffffffffffffffffffffffffffffffffffffff1614156103bb576040517f08c379a00000000000000000000000000000000000000000000000000000000081526004016103b2906130c3565b60405180910390fd5b60018054906101000a900473ffffffffffffffffffffffffffffffffffffffff1673ffffffffffffffffffffffffffffffffffffffff163373ffffffffffffffffffffffffffffffffffffffff1614610449576040517f08c379a0000000000000000000000000000000000000000000000000000000008152600401610440906130a3565b60405180910390fd5b80600073ffffffffffffffffffffffffffffffffffffffff168173ffffffffffffffffffffffffffffffffffffffff1614156104ba576040517f08c379a00000000000000000000000000000000000000000000000000000000081526004016104b190613123565b60405180910390fd5b600073ffffffffffffffffffffffffffffffffffffffff163373ffffffffffffffffffffffffffffffffffffffff16141561052a576040517f08c379a0000000000000000000000000000000000000000000000000000000008152600401610521906130c3565b60405180910390fd5b6000803373ffffffffffffffffffffffffffffffffffffffff1673ffffffffffffffffffffffffffffffffffffffff16815260200190815260200160002060009054906101000a900460ff166105b5576040517f08c379a00000000000000000000000000000000000000000000000000000000081526004016105ac90613143565b60405180910390fd5b600060078111156105ef577f4e487b7100000000000000000000000000000000000000000000000000000000600052602160045260246000fd5b6007811115610627577f4e487b7100000000000000000000000000000000000000000000000000000000600052602160045260246000fd5b836007811115610660577f4e487b7100000000000000000000000000000000000000000000000000000000600052602160045260246000fd5b101580156106dd57506007808111156106a2577f4e487b7100000000000000000000000000000000000000000000000000000000600052602160045260246000fd5b8360078111156106db577f4e487b7100000000000000000000000000000000000000000000000000000000600052602160045260246000fd5b105b61071c576040517f08c379a000000000000000000000000000000000000000000000000000000000815260040161071390613043565b60405180910390fd5b816003600085600781111561075a577f4e487b7100000000000000000000000000000000000000000000000000000000600052602160045260246000fd5b6007811115610792577f4e487b7100000000000000000000000000000000000000000000000000000000600052602160045260246000fd5b815260200190815260200160002060006101000a81548173ffffffffffffffffffffffffffffffffffffffff021916908373ffffffffffffffffffffffffffffffffffffffff160217905550505050565b60008073ffffffffffffffffffffffffffffffffffffffff163373ffffffffffffffffffffffffffffffffffffffff161415610854576040517f08c379a000000000000000000000000000000000000000000000000000000000815260040161084b906130c3565b60405180910390fd5b6000803373ffffffffffffffffffffffffffffffffffffffff1673ffffffffffffffffffffffffffffffffffffffff16815260200190815260200160002060009054906101000a900460ff166108df576040517f08c379a00000000000000000000000000000000000000000000000000000000081526004016108d690613143565b60405180910390fd5b6109678460405180604001604052806040518060400160405280600381526020017f455448000000000000000000000000000000000000000000000000000000000081525081526020016040518060400160405280600481526020017f4f43415400000000000000000000000000000000000000000000000000000000815250815250612174565b9050828110156109ac576040517f08c379a00000000000000000000000000000000000000000000000000000000081526004016109a390613083565b60405180910390fd5b610a5b60036000600160078111156109ed577f4e487b7100000000000000000000000000000000000000000000000000000000600052602160045260246000fd5b6007811115610a25577f4e487b7100000000000000000000000000000000000000000000000000000000600052602160045260246000fd5b815260200190815260200160002060009054906101000a900473ffffffffffffffffffffffffffffffffffffffff163383612608565b83600460020160008073ffffffffffffffffffffffffffffffffffffffff1673ffffffffffffffffffffffffffffffffffffffff1681526020019081526020016000206000828254610aad919061332a565b9250508190555080600460020160006003600060016007811115610afa577f4e487b7100000000000000000000000000000000000000000000000000000000600052602160045260246000fd5b6007811115610b32577f4e487b7100000000000000000000000000000000000000000000000000000000600052602160045260246000fd5b815260200190815260200160002060009054906101000a900473ffffffffffffffffffffffffffffffffffffffff1673ffffffffffffffffffffffffffffffffffffffff1673ffffffffffffffffffffffffffffffffffffffff1681526020019081526020016000206000828254610baa91906135fe565b925050819055506004600701546004600501819055506009600a610bce919061343b565b600460020160008073ffffffffffffffffffffffffffffffffffffffff1673ffffffffffffffffffffffffffffffffffffffff16815260200190815260200160002054610c1b91906133b7565b600460020160006003600060016007811115610c60577f4e487b7100000000000000000000000000000000000000000000000000000000600052602160045260246000fd5b6007811115610c98577f4e487b7100000000000000000000000000000000000000000000000000000000600052602160045260246000fd5b815260200190815260200160002060009054906101000a900473ffffffffffffffffffffffffffffffffffffffff1673ffffffffffffffffffffffffffffffffffffffff1673ffffffffffffffffffffffffffffffffffffffff16815260200190815260200160002054610d0c91906133b7565b6004600701819055507fb7443fcc0b4d4d89af562c71accc29fa3e9a21ce28187f0b12f54eb9e39bd06e81604051610d449190613203565b60405180910390a19392505050565b600073ffffffffffffffffffffffffffffffffffffffff1660018054906101000a900473ffffffffffffffffffffffffffffffffffffffff1673ffffffffffffffffffffffffffffffffffffffff161415610de3576040517f08c379a0000000000000000000000000000000000000000000000000000000008152600401610dda906130c3565b60405180910390fd5b60018054906101000a900473ffffffffffffffffffffffffffffffffffffffff1673ffffffffffffffffffffffffffffffffffffffff163373ffffffffffffffffffffffffffffffffffffffff1614610e71576040517f08c379a0000000000000000000000000000000000000000000000000000000008152600401610e68906130a3565b60405180910390fd5b80600073ffffffffffffffffffffffffffffffffffffffff168173ffffffffffffffffffffffffffffffffffffffff161415610ee2576040517f08c379a0000000000000000000000000000000000000000000000000000000008152600401610ed990613123565b60405180910390fd5b60016000808473ffffffffffffffffffffffffffffffffffffffff1673ffffffffffffffffffffffffffffffffffffffff16815260200190815260200160002060006101000a81548160ff02191690831515021790555060018060009054906101000a900460ff16610f549190613380565b600160006101000a81548160ff021916908360ff1602179055505050565b60008073ffffffffffffffffffffffffffffffffffffffff163373ffffffffffffffffffffffffffffffffffffffff161415610fe3576040517f08c379a0000000000000000000000000000000000000000000000000000000008152600401610fda906130c3565b60405180910390fd5b6000803373ffffffffffffffffffffffffffffffffffffffff1673ffffffffffffffffffffffffffffffffffffffff16815260200190815260200160002060009054906101000a900460ff1661106e576040517f08c379a000000000000000000000000000000000000000000000000000000000815260040161106590613143565b60405180910390fd5b6110f68460405180604001604052806040518060400160405280600481526020017f4f4341540000000000000000000000000000000000000000000000000000000081525081526020016040518060400160405280600381526020017f4554480000000000000000000000000000000000000000000000000000000000815250815250612174565b90508281101561113b576040517f08c379a0000000000000000000000000000000000000000000000000000000008152600401611132906131a3565b60405180910390fd5b6000600360006001600781111561117b577f4e487b7100000000000000000000000000000000000000000000000000000000600052602160045260246000fd5b60078111156111b3577f4e487b7100000000000000000000000000000000000000000000000000000000600052602160045260246000fd5b815260200190815260200160002060009054906101000a900473ffffffffffffffffffffffffffffffffffffffff1673ffffffffffffffffffffffffffffffffffffffff1663dd62ed3e33306040518363ffffffff1660e01b815260040161121c929190612f7f565b60206040518083038186803b15801561123457600080fd5b505afa158015611248573d6000803e3d6000fd5b505050506040513d601f19601f8201168201806040525081019061126c9190612bc0565b9050848110156112b1576040517f08c379a00000000000000000000000000000000000000000000000000000000081526004016112a890613063565b60405180910390fd5b61136160036000600160078111156112f2577f4e487b7100000000000000000000000000000000000000000000000000000000600052602160045260246000fd5b600781111561132a577f4e487b7100000000000000000000000000000000000000000000000000000000600052602160045260246000fd5b815260200190815260200160002060009054906101000a900473ffffffffffffffffffffffffffffffffffffffff1633308861273e565b3373ffffffffffffffffffffffffffffffffffffffff166108fc839081150290604051600060405180830381858888f193505050501580156113a7573d6000803e3d6000fd5b50846004600201600060036000600160078111156113ee577f4e487b7100000000000000000000000000000000000000000000000000000000600052602160045260246000fd5b6007811115611426577f4e487b7100000000000000000000000000000000000000000000000000000000600052602160045260246000fd5b815260200190815260200160002060009054906101000a900473ffffffffffffffffffffffffffffffffffffffff1673ffffffffffffffffffffffffffffffffffffffff1673ffffffffffffffffffffffffffffffffffffffff168152602001908152602001600020600082825461149e919061332a565b9250508190555081600460020160008073ffffffffffffffffffffffffffffffffffffffff1673ffffffffffffffffffffffffffffffffffffffff16815260200190815260200160002060008282546114f791906135fe565b925050819055506004600701546004600501819055506009600a61151b919061343b565b600460020160008073ffffffffffffffffffffffffffffffffffffffff1673ffffffffffffffffffffffffffffffffffffffff1681526020019081526020016000205461156891906133b7565b6004600201600060036000600160078111156115ad577f4e487b7100000000000000000000000000000000000000000000000000000000600052602160045260246000fd5b60078111156115e5577f4e487b7100000000000000000000000000000000000000000000000000000000600052602160045260246000fd5b815260200190815260200160002060009054906101000a900473ffffffffffffffffffffffffffffffffffffffff1673ffffffffffffffffffffffffffffffffffffffff1673ffffffffffffffffffffffffffffffffffffffff1681526020019081526020016000205461165991906133b7565b6004600701819055507fc9d12378da567422b4ad04da9954c0a6992c9db02ebef54f7156e7296a0a1468826040516116919190613203565b60405180910390a1509392505050565b60048060030154908060040154908060050154908060060154908060070154905085565b60025481565b600073ffffffffffffffffffffffffffffffffffffffff163373ffffffffffffffffffffffffffffffffffffffff16141561173b576040517f08c379a0000000000000000000000000000000000000000000000000000000008152600401611732906130c3565b60405180910390fd5b6000803373ffffffffffffffffffffffffffffffffffffffff1673ffffffffffffffffffffffffffffffffffffffff16815260200190815260200160002060009054906101000a900460ff166117c6576040517f08c379a00000000000000000000000000000000000000000000000000000000081526004016117bd90613143565b60405180910390fd5b6003600060016007811115611804577f4e487b7100000000000000000000000000000000000000000000000000000000600052602160045260246000fd5b600781111561183c577f4e487b7100000000000000000000000000000000000000000000000000000000600052602160045260246000fd5b815260200190815260200160002060009054906101000a900473ffffffffffffffffffffffffffffffffffffffff16600073ffffffffffffffffffffffffffffffffffffffff168173ffffffffffffffffffffffffffffffffffffffff1614156118db576040517f08c379a00000000000000000000000000000000000000000000000000000000081526004016118d290613123565b60405180910390fd5b6000821161191e576040517f08c379a000000000000000000000000000000000000000000000000000000000815260040161191590613183565b60405180910390fd5b60006009600a61192e919061343b565b3461193991906133b7565b8361194491906133b7565b905060006003600a611956919061343b565b90506000600460060154141561197557816004600601819055506119a1565b6004600601546003600a611989919061343b565b8361199491906135a4565b61199e91906133b7565b90505b6103d4811180156119b357506103fc81105b6119f2576040517f08c379a00000000000000000000000000000000000000000000000000000000081526004016119e9906131e3565b60405180910390fd5b83600460020160006003600060016007811115611a38577f4e487b7100000000000000000000000000000000000000000000000000000000600052602160045260246000fd5b6007811115611a70577f4e487b7100000000000000000000000000000000000000000000000000000000600052602160045260246000fd5b815260200190815260200160002060009054906101000a900473ffffffffffffffffffffffffffffffffffffffff1673ffffffffffffffffffffffffffffffffffffffff1673ffffffffffffffffffffffffffffffffffffffff1681526020019081526020016000206000828254611ae8919061332a565b9250508190555034600460020160008073ffffffffffffffffffffffffffffffffffffffff1673ffffffffffffffffffffffffffffffffffffffff1681526020019081526020016000206000828254611b41919061332a565b925050819055506004600301546004800181905550600460020160008073ffffffffffffffffffffffffffffffffffffffff1673ffffffffffffffffffffffffffffffffffffffff16815260200190815260200160002054600460020160006003600060016007811115611bde577f4e487b7100000000000000000000000000000000000000000000000000000000600052602160045260246000fd5b6007811115611c16577f4e487b7100000000000000000000000000000000000000000000000000000000600052602160045260246000fd5b815260200190815260200160002060009054906101000a900473ffffffffffffffffffffffffffffffffffffffff1673ffffffffffffffffffffffffffffffffffffffff1673ffffffffffffffffffffffffffffffffffffffff16815260200190815260200160002054611c8a91906135a4565b6004600301819055506004600701546004600501819055508160046007018190555060006003600060016007811115611cec577f4e487b7100000000000000000000000000000000000000000000000000000000600052602160045260246000fd5b6007811115611d24577f4e487b7100000000000000000000000000000000000000000000000000000000600052602160045260246000fd5b815260200190815260200160002060009054906101000a900473ffffffffffffffffffffffffffffffffffffffff1673ffffffffffffffffffffffffffffffffffffffff1663dd62ed3e33306040518363ffffffff1660e01b8152600401611d8d929190612f7f565b60206040518083038186803b158015611da557600080fd5b505afa158015611db9573d6000803e3d6000fd5b505050506040513d601f19601f82011682018060405250810190611ddd9190612bc0565b905084811015611e22576040517f08c379a0000000000000000000000000000000000000000000000000000000008152600401611e1990613103565b60405180910390fd5b611ed26003600060016007811115611e63577f4e487b7100000000000000000000000000000000000000000000000000000000600052602160045260246000fd5b6007811115611e9b577f4e487b7100000000000000000000000000000000000000000000000000000000600052602160045260246000fd5b815260200190815260200160002060009054906101000a900473ffffffffffffffffffffffffffffffffffffffff1633308861273e565b5050505050565b8060028190555050565b60006003600a611ef39190613486565b6002546003600060016007811115611f34577f4e487b7100000000000000000000000000000000000000000000000000000000600052602160045260246000fd5b6007811115611f6c577f4e487b7100000000000000000000000000000000000000000000000000000000600052602160045260246000fd5b815260200190815260200160002060009054906101000a900473ffffffffffffffffffffffffffffffffffffffff1673ffffffffffffffffffffffffffffffffffffffff1663313ce5676040518163ffffffff1660e01b8152600401602060405180830381600087803b158015611fe257600080fd5b505af1158015611ff6573d6000803e3d6000fd5b505050506040513d601f19601f8201168201806040525081019061201a9190612c8c565b600a6120269190613486565b8461203191906135a4565b61203b91906135a4565b61204591906133b7565b9050919050565b60405180604001604052806003600060016007811115612095577f4e487b7100000000000000000000000000000000000000000000000000000000600052602160045260246000fd5b60078111156120cd577f4e487b7100000000000000000000000000000000000000000000000000000000600052602160045260246000fd5b815260200190815260200160002060009054906101000a900473ffffffffffffffffffffffffffffffffffffffff1673ffffffffffffffffffffffffffffffffffffffff1673ffffffffffffffffffffffffffffffffffffffff168152602001600073ffffffffffffffffffffffffffffffffffffffff1673ffffffffffffffffffffffffffffffffffffffff1681525060046000019060026121719291906128d0565b50565b6000806121f4836000600281106121b4577f4e487b7100000000000000000000000000000000000000000000000000000000600052603260045260246000fd5b60200201516040518060400160405280600481526020017f4f43415400000000000000000000000000000000000000000000000000000000815250612877565b9050600061227584600160028110612235577f4e487b7100000000000000000000000000000000000000000000000000000000600052603260045260246000fd5b60200201516040518060400160405280600381526020017f4554480000000000000000000000000000000000000000000000000000000000815250612877565b905060006122f6856000600281106122b6577f4e487b7100000000000000000000000000000000000000000000000000000000600052603260045260246000fd5b60200201516040518060400160405280600381526020017f4554480000000000000000000000000000000000000000000000000000000000815250612877565b9050600061237786600160028110612337577f4e487b7100000000000000000000000000000000000000000000000000000000600052603260045260246000fd5b60200201516040518060400160405280600481526020017f4f43415400000000000000000000000000000000000000000000000000000000815250612877565b90508380156123835750825b8061239457508180156123935750805b5b6123d3576040517f08c379a00000000000000000000000000000000000000000000000000000000081526004016123ca90613163565b60405180910390fd5b600060046002016000600360006001600781111561241a577f4e487b7100000000000000000000000000000000000000000000000000000000600052602160045260246000fd5b6007811115612452577f4e487b7100000000000000000000000000000000000000000000000000000000600052602160045260246000fd5b815260200190815260200160002060009054906101000a900473ffffffffffffffffffffffffffffffffffffffff1673ffffffffffffffffffffffffffffffffffffffff1673ffffffffffffffffffffffffffffffffffffffff1681526020019081526020016000205490506000600460020160008073ffffffffffffffffffffffffffffffffffffffff1673ffffffffffffffffffffffffffffffffffffffff16815260200190815260200160002054905085801561250f5750845b1561258a5760008983612522919061332a565b60046003015461253291906133b7565b9050808211612576576040517f08c379a000000000000000000000000000000000000000000000000000000000815260040161256d906130e3565b60405180910390fd5b808261258291906135fe565b9750506125fc565b60008982612598919061332a565b6004600301546125a891906133b7565b90508083116125ec576040517f08c379a00000000000000000000000000000000000000000000000000000000081526004016125e3906130e3565b60405180910390fd5b80836125f891906135fe565b9750505b50505050505092915050565b6000808473ffffffffffffffffffffffffffffffffffffffff1663a9059cbb858560405160240161263a929190612fdf565b6040516020818303038152906040529060e01b6020820180517bffffffffffffffffffffffffffffffffffffffffffffffffffffffff83818316178352505050506040516126889190612f51565b6000604051808303816000865af19150503d80600081146126c5576040519150601f19603f3d011682016040523d82523d6000602084013e6126ca565b606091505b50915091508180156126f857506000815114806126f75750808060200190518101906126f69190612b32565b5b5b612737576040517f08c379a000000000000000000000000000000000000000000000000000000000815260040161272e90613023565b60405180910390fd5b5050505050565b6000808573ffffffffffffffffffffffffffffffffffffffff166323b872dd86868660405160240161277293929190612fa8565b6040516020818303038152906040529060e01b6020820180517bffffffffffffffffffffffffffffffffffffffffffffffffffffffff83818316178352505050506040516127c09190612f51565b6000604051808303816000865af19150503d80600081146127fd576040519150601f19603f3d011682016040523d82523d6000602084013e612802565b606091505b5091509150818015612830575060008151148061282f57508080602001905181019061282e9190612b32565b5b5b61286f576040517f08c379a0000000000000000000000000000000000000000000000000000000008152600401612866906131c3565b60405180910390fd5b505050505050565b60008160405160200161288a9190612f68565b60405160208183030381529060405280519060200120836040516020016128b19190612f68565b6040516020818303038152906040528051906020012014905092915050565b826002810192821561293c579160200282015b8281111561293b5782518260006101000a81548173ffffffffffffffffffffffffffffffffffffffff021916908373ffffffffffffffffffffffffffffffffffffffff160217905550916020019190600101906128e3565b5b509050612949919061294d565b5090565b5b8082111561296657600081600090555060010161294e565b5090565b600061297d61297884613296565b613271565b9050808285602086028201111561299357600080fd5b60005b858110156129dd57813567ffffffffffffffff8111156129b557600080fd5b8086016129c28982612aa0565b85526020850194506020840193505050600181019050612996565b5050509392505050565b60006129fa6129f5846132bc565b613271565b905082815260208101848484011115612a1257600080fd5b612a1d848285613699565b509392505050565b600081359050612a3481613b28565b92915050565b600081359050612a4981613b3f565b92915050565b600082601f830112612a6057600080fd5b6002612a6d84828561296a565b91505092915050565b600081519050612a8581613b56565b92915050565b600081359050612a9a81613b6d565b92915050565b600082601f830112612ab157600080fd5b8135612ac18482602086016129e7565b91505092915050565b600081359050612ad981613b7d565b92915050565b600081519050612aee81613b7d565b92915050565b600081519050612b0381613b94565b92915050565b600060208284031215612b1b57600080fd5b6000612b2984828501612a25565b91505092915050565b600060208284031215612b4457600080fd5b6000612b5284828501612a76565b91505092915050565b60008060408385031215612b6e57600080fd5b6000612b7c85828601612a8b565b9250506020612b8d85828601612a3a565b9150509250929050565b600060208284031215612ba957600080fd5b6000612bb784828501612aca565b91505092915050565b600060208284031215612bd257600080fd5b6000612be084828501612adf565b91505092915050565b60008060408385031215612bfc57600080fd5b6000612c0a85828601612aca565b925050602083013567ffffffffffffffff811115612c2757600080fd5b612c3385828601612a4f565b9150509250929050565b600080600060608486031215612c5257600080fd5b6000612c6086828701612aca565b9350506020612c7186828701612aca565b9250506040612c8286828701612aca565b9150509250925092565b600060208284031215612c9e57600080fd5b6000612cac84828501612af4565b91505092915050565b612cbe81613632565b82525050565b612ccd81613656565b82525050565b6000612cde826132ed565b612ce88185613303565b9350612cf88185602086016136a8565b80840191505092915050565b6000612d0f826132f8565b612d19818561331f565b9350612d298185602086016136a8565b80840191505092915050565b6000612d42601f8361330e565b9150612d4d826137b7565b602082019050919050565b6000612d6560168361330e565b9150612d70826137e0565b602082019050919050565b6000612d88603e8361330e565b9150612d9382613809565b604082019050919050565b6000612dab60278361330e565b9150612db682613858565b604082019050919050565b6000612dce601e8361330e565b9150612dd9826138a7565b602082019050919050565b6000612df160178361330e565b9150612dfc826138d0565b602082019050919050565b6000612e1460358361330e565b9150612e1f826138f9565b604082019050919050565b6000612e37603e8361330e565b9150612e4282613948565b604082019050919050565b6000612e5a60198361330e565b9150612e6582613997565b602082019050919050565b6000612e7d600d8361330e565b9150612e88826139c0565b602082019050919050565b6000612ea0601d8361330e565b9150612eab826139e9565b602082019050919050565b6000612ec360138361330e565b9150612ece82613a12565b602082019050919050565b6000612ee660268361330e565b9150612ef182613a3b565b604082019050919050565b6000612f0960248361330e565b9150612f1482613a8a565b604082019050919050565b6000612f2c602f8361330e565b9150612f3782613ad9565b604082019050919050565b612f4b81613682565b82525050565b6000612f5d8284612cd3565b915081905092915050565b6000612f748284612d04565b915081905092915050565b6000604082019050612f946000830185612cb5565b612fa16020830184612cb5565b9392505050565b6000606082019050612fbd6000830186612cb5565b612fca6020830185612cb5565b612fd76040830184612f42565b949350505050565b6000604082019050612ff46000830185612cb5565b6130016020830184612f42565b9392505050565b600060208201905061301d6000830184612cc4565b92915050565b6000602082019050818103600083015261303c81612d35565b9050919050565b6000602082019050818103600083015261305c81612d58565b9050919050565b6000602082019050818103600083015261307c81612d7b565b9050919050565b6000602082019050818103600083015261309c81612d9e565b9050919050565b600060208201905081810360008301526130bc81612dc1565b9050919050565b600060208201905081810360008301526130dc81612de4565b9050919050565b600060208201905081810360008301526130fc81612e07565b9050919050565b6000602082019050818103600083015261311c81612e2a565b9050919050565b6000602082019050818103600083015261313c81612e4d565b9050919050565b6000602082019050818103600083015261315c81612e70565b9050919050565b6000602082019050818103600083015261317c81612e93565b9050919050565b6000602082019050818103600083015261319c81612eb6565b9050919050565b600060208201905081810360008301526131bc81612ed9565b9050919050565b600060208201905081810360008301526131dc81612efc565b9050919050565b600060208201905081810360008301526131fc81612f1f565b9050919050565b60006020820190506132186000830184612f42565b92915050565b600060a0820190506132336000830188612f42565b6132406020830187612f42565b61324d6040830186612f42565b61325a6060830185612f42565b6132676080830184612f42565b9695505050505050565b600061327b61328c565b905061328782826136db565b919050565b6000604051905090565b600067ffffffffffffffff8211156132b1576132b061376a565b5b602082029050919050565b600067ffffffffffffffff8211156132d7576132d661376a565b5b6132e082613799565b9050602081019050919050565b600081519050919050565b600081519050919050565b600081905092915050565b600082825260208201905092915050565b600081905092915050565b600061333582613682565b915061334083613682565b9250827fffffffffffffffffffffffffffffffffffffffffffffffffffffffffffffffff038211156133755761337461370c565b5b828201905092915050565b600061338b8261368c565b91506133968361368c565b92508260ff038211156133ac576133ab61370c565b5b828201905092915050565b60006133c282613682565b91506133cd83613682565b9250826133dd576133dc61373b565b5b828204905092915050565b6000808291508390505b60018511156134325780860481111561340e5761340d61370c565b5b600185161561341d5780820291505b808102905061342b856137aa565b94506133f2565b94509492505050565b600061344682613682565b915061345183613682565b925061347e7fffffffffffffffffffffffffffffffffffffffffffffffffffffffffffffffff84846134d1565b905092915050565b600061349182613682565b915061349c8361368c565b92506134c97fffffffffffffffffffffffffffffffffffffffffffffffffffffffffffffffff84846134d1565b905092915050565b6000826134e1576001905061359d565b816134ef576000905061359d565b8160018114613505576002811461350f5761353e565b600191505061359d565b60ff8411156135215761352061370c565b5b8360020a9150848211156135385761353761370c565b5b5061359d565b5060208310610133831016604e8410600b84101617156135735782820a90508381111561356e5761356d61370c565b5b61359d565b61358084848460016133e8565b925090508184048111156135975761359661370c565b5b81810290505b9392505050565b60006135af82613682565b91506135ba83613682565b9250817fffffffffffffffffffffffffffffffffffffffffffffffffffffffffffffffff04831182151516156135f3576135f261370c565b5b828202905092915050565b600061360982613682565b915061361483613682565b9250828210156136275761362661370c565b5b828203905092915050565b600061363d82613662565b9050919050565b600061364f82613662565b9050919050565b60008115159050919050565b600073ffffffffffffffffffffffffffffffffffffffff82169050919050565b6000819050919050565b600060ff82169050919050565b82818337600083830152505050565b60005b838110156136c65780820151818401526020810190506136ab565b838111156136d5576000848401525b50505050565b6136e482613799565b810181811067ffffffffffffffff821117156137035761370261376a565b5b80604052505050565b7f4e487b7100000000000000000000000000000000000000000000000000000000600052601160045260246000fd5b7f4e487b7100000000000000000000000000000000000000000000000000000000600052601260045260246000fd5b7f4e487b7100000000000000000000000000000000000000000000000000000000600052604160045260246000fd5b6000601f19601f8301169050919050565b60008160011c9050919050565b7f5472616e7366657248656c7065723a205452414e534645525f4641494c454400600082015250565b7f496e76616c696420636f6e747261637420696e64657800000000000000000000600082015250565b7f4f63784f636174457468506f6f6c2e7377617046726f6d4f63617428293a204960008201527f6e73756666696369656e7420616c6c6f77616e636520666f72204f4341540000602082015250565b7f496e73756666696369656e74204f4341542062616c616e636520666f7220796f60008201527f7572207377617000000000000000000000000000000000000000000000000000602082015250565b7f466f722063616c6c65722065787065637465642062652063726561746f720000600082015250565b7f496e76616c69642063726561746f722061646472657373000000000000000000600082015250565b7f676574416d6f756e74734f757428293a20496e73756666696369656e7420455460008201527f482062616c616e636520696e2074686520706f6f6c0000000000000000000000602082015250565b7f4f63784f636174457468506f6f6c2e6164644c697175696469747928293a204960008201527f6e73756666696369656e7420616c6c6f77616e636520666f72204f4341540000602082015250565b7f4578706563746564206e6f6e2d7a65726f206164647265737300000000000000600082015250565b7f4d7573742062652061646d696e00000000000000000000000000000000000000600082015250565b7f676574416d6f756e74734f757428293a20496e76616c69642070617468000000600082015250565b7f496e76616c6964204f43415420616d6f756e7400000000000000000000000000600082015250565b7f496e73756666696369656e74204554482062616c616e636520666f7220796f7560008201527f7220737761700000000000000000000000000000000000000000000000000000602082015250565b7f5472616e7366657248656c7065723a205452414e534645525f46524f4d5f464160008201527f494c454400000000000000000000000000000000000000000000000000000000602082015250565b7f496e76616c69642071756f7465286f7574206f6620656666656374697665207260008201527f616e67653a203938257e31303225290000000000000000000000000000000000602082015250565b613b3181613632565b8114613b3c57600080fd5b50565b613b4881613644565b8114613b5357600080fd5b50565b613b5f81613656565b8114613b6a57600080fd5b50565b60088110613b7a57600080fd5b50565b613b8681613682565b8114613b9157600080fd5b50565b613b9d8161368c565b8114613ba857600080fd5b5056fea26469706673582212208498a2b945b6ea50e679de1971031807ea11f3006c67baf72b54309d9f32839c64736f6c63430008040033",
  "immutableReferences": {},
  "source": "// SPDX-License-Identifier: MIT\r\npragma solidity ^0.8.0;\r\n\r\n/*\r\n * OCAT/ETH local pool\r\n */\r\nimport \"@openzeppelin/contracts/token/ERC20/IERC20.sol\"; // openzeppelin 4.5 (for solidity 0.8.x)\r\n// import \"@openzeppelin/contracts/utils/math/SafeMath.sol\";\r\nimport '@uniswap/lib/contracts/libraries/TransferHelper.sol';\r\nimport '../OcxBase.sol';\r\n\r\ncontract OcxOcatEthPool is OcxBase {\r\n\r\n    struct Pool {\r\n        address[2] tokenPair;\r\n        mapping(address => uint256) balance;\r\n        uint256 k;\r\n        uint256 prevK;\r\n        uint256 prevQuote;\r\n        uint256 origQuote;\r\n        uint256 quote;\r\n    }\r\n    Pool    public              localPool; // token pair: 0: OCAT, 1: ETH\r\n\r\n    uint256 private constant    QUOTE_DECIMALS = 9; // Must be more than 3 at least\r\n    uint256 private constant    QUOTE_MULTIPLIER = 10 ** QUOTE_DECIMALS;\r\n    uint256 private constant    QUOTE_RATE_DECIMALS = 3; // Must be more than 3 at least\r\n    uint256 private constant    QUOTE_RATE_MULTIPLIER = 10 ** QUOTE_RATE_DECIMALS;\r\n\r\n    address private constant    ETH_ADDRESS = address(0);\r\n\r\n\r\n    event SwappedFromOcat(uint256);\r\n    event SwappedToOcat(uint256);\r\n    \r\n    receive() external payable {}\r\n\r\n    constructor() {\r\n    }\r\n\r\n    // The method must be called after setOcatAddress()\r\n    function init() external {\r\n        localPool.tokenPair = [contractAddress[CommonContracts.OCAT], address(0)];\r\n    }\r\n\r\n    function getAmountsOut(\r\n        uint256 sellAmount, \r\n        string[2] memory path\r\n    ) public view returns(uint256 amountOut) {\r\n        bool ret1 = _compareStrings(path[0], \"OCAT\");\r\n        bool ret2 = _compareStrings(path[1], \"ETH\");\r\n        bool ret3 = _compareStrings(path[0], \"ETH\");\r\n        bool ret4 = _compareStrings(path[1], \"OCAT\");\r\n        require(ret1 && ret2 || ret3 && ret4, \"getAmountsOut(): Invalid path\");\r\n\r\n        // Find the ETH/OCAT pool\r\n        uint256 ocatPoolBalance = localPool.balance[contractAddress[CommonContracts.OCAT]];\r\n        uint256 ethPoolBalance = localPool.balance[ETH_ADDRESS];\r\n\r\n        if (ret1 && ret2) {\r\n            // Calculate the output amount of OCAT \r\n            uint256 newOcatPoolBalance = localPool.k / (ocatPoolBalance + sellAmount);\r\n            require(ethPoolBalance > newOcatPoolBalance, \"getAmountsOut(): Insufficient ETH balance in the pool\");\r\n            amountOut = ethPoolBalance - newOcatPoolBalance;\r\n        } else {\r\n            // Calculate the output amount of OCAT \r\n            uint256 newPoolEthBalance = (localPool.k / (ethPoolBalance + sellAmount));\r\n            require(ocatPoolBalance > newPoolEthBalance, \"getAmountsOut(): Insufficient ETH balance in the pool\");\r\n            amountOut = ocatPoolBalance - newPoolEthBalance;            \r\n        }\r\n    }\r\n\r\n    function swapToOcat(uint256 amountIn, uint256 amountOutMin, uint /*_deadline*/)  public payable\r\n    onlyAdmin returns(uint256 amountOut)\r\n    {\r\n        amountOut = getAmountsOut(amountIn, [\"ETH\", \"OCAT\"]);\r\n        require(amountOut >= amountOutMin, \"Insufficient OCAT balance for your swap\");\r\n\r\n        // Transfer OCAT to the sender\r\n        TransferHelper.safeTransfer(contractAddress[CommonContracts.OCAT], msg.sender, amountOut);\r\n\r\n        // Update the quote for the pool\r\n        localPool.balance[address(0)] += amountIn;\r\n        localPool.balance[contractAddress[CommonContracts.OCAT]] -= amountOut;\r\n        localPool.prevQuote = localPool.quote;\r\n        localPool.quote = localPool.balance[contractAddress[CommonContracts.OCAT]] / \r\n                            (localPool.balance[address(0)] / QUOTE_MULTIPLIER);\r\n        // require(ret, \"new ETH balance in the pool is overflowed\");\r\n        emit SwappedToOcat(amountOut);\r\n    }\r\n\r\n    function swapFromOcat(uint256 amountIn, uint256 amountOutMin, uint /*_deadline*/)  public payable\r\n    onlyAdmin returns(uint256 amountOut)\r\n    {\r\n        amountOut = getAmountsOut(amountIn, [\"OCAT\", \"ETH\"]);\r\n        require(amountOut >= amountOutMin, \"Insufficient ETH balance for your swap\");\r\n\r\n        // Transfer source token from the sender\r\n        uint256 allowance = IERC20(contractAddress[CommonContracts.OCAT]).allowance(msg.sender, address(this));\r\n        require(allowance >= amountIn, \"OcxOcatEthPool.swapFromOcat(): Insufficient allowance for OCAT\");\r\n        TransferHelper.safeTransferFrom(contractAddress[CommonContracts.OCAT], msg.sender, address(this), amountIn);\r\n\r\n        // Transfer target to the sender\r\n        payable(msg.sender).transfer(amountOut);\r\n\r\n        // Update the quote for the pool\r\n        localPool.balance[contractAddress[CommonContracts.OCAT]] += amountIn;\r\n        localPool.balance[address(0)] -= amountOut;\r\n        localPool.prevQuote = localPool.quote;\r\n        localPool.quote = localPool.balance[contractAddress[CommonContracts.OCAT]] / \r\n                            (localPool.balance[address(0)] / QUOTE_MULTIPLIER);\r\n        // require(ret, \"new ETH balance in the pool is overflowed\");\r\n        emit SwappedFromOcat(amountOut);\r\n    }\r\n\r\n    /*\r\n     * Parameters:\r\n     *      ocatAmount: amount of OCAT\r\n     *      msg.value: amount of ETH\r\n     */\r\n    function addLiquidityWithEth(\r\n        uint256 ocatAmount\r\n    ) public payable \r\n    onlyAdmin onlyValidAddress(contractAddress[CommonContracts.OCAT]) {\r\n        require(ocatAmount > 0, \"Invalid OCAT amount\");\r\n        // Get quote\r\n        // ...uint256((quote / localPool.origQuote) * 100)\r\n        // Transfer token A and B from msg.sender to this address\r\n\r\n        // Check quote\r\n        uint256 newQuote = uint256(ocatAmount / (msg.value / QUOTE_MULTIPLIER));\r\n        uint256 quoteRate = QUOTE_RATE_MULTIPLIER; // = 1 * QUOTE_RATE_MULTIPLIER ==> rate = 1.0\r\n        if (localPool.origQuote == 0) {\r\n            localPool.origQuote = newQuote;\r\n        } else {\r\n            quoteRate = uint256((newQuote * QUOTE_RATE_MULTIPLIER) / localPool.origQuote);\r\n        }\r\n        // Check if new quote >= 98% and <= 102% against original one\r\n        require(\r\n            quoteRate > 980 && \r\n            quoteRate < 1020, \r\n            \"Invalid quote(out of effective range: 98%~102%)\"\r\n        );\r\n        // Update pool\r\n        localPool.balance[contractAddress[CommonContracts.OCAT]] += ocatAmount;\r\n        localPool.balance[ETH_ADDRESS] += msg.value;\r\n        localPool.prevK = localPool.k;\r\n        localPool.k = localPool.balance[contractAddress[CommonContracts.OCAT]] * \r\n                    localPool.balance[ETH_ADDRESS];\r\n        localPool.prevQuote = localPool.quote;\r\n        localPool.quote = newQuote;\r\n\r\n        // Deposit OCAT, first token.\r\n        uint256 allowance = IERC20(contractAddress[CommonContracts.OCAT]).allowance(msg.sender, address(this));\r\n        require(allowance >= ocatAmount, \"OcxOcatEthPool.addLiquidity(): Insufficient allowance for OCAT\");\r\n        TransferHelper.safeTransferFrom(contractAddress[CommonContracts.OCAT], msg.sender, address(this), ocatAmount);\r\n        // For ETH, second token, No need deposit\r\n\r\n        // Mint LP token to return\r\n        // ...\r\n        // uint256 newMintAmount = ocatAmount * msg.value;\r\n        // IERC20(_ETH_ADDRESS).mint(newMintAmount);\r\n        // // Send the msg.value with fee substracted\r\n        // IERC20(_ETH_ADDRESS).transfer(msg.sender, (newMintAmount * 100 - 2) / 100)\r\n    }\r\n}\r\n",
  "sourcePath": "E:\\Work\\OpenchainTestVersion\\server\\contracts\\stable\\OcxOcatEthPool.sol",
  "compiler": {
    "name": "solc",
    "version": "0.8.4+commit.c7e474f2.Emscripten.clang"
  },
  "schemaVersion": "3.4.7",
  "updatedAt": "2022-05-02T06:25:42.365Z",
  "devdoc": {
    "kind": "dev",
    "methods": {},
    "version": 1
  },
  "userdoc": {
    "kind": "user",
    "methods": {},
    "version": 1
  }
}