{
  "contractName": "OcxPriceOracle",
  "abi": [
    {
      "inputs": [],
      "stateMutability": "nonpayable",
      "type": "constructor"
    },
    {
      "inputs": [],
      "name": "FIAT_PRICE_DECIMALS",
      "outputs": [
        {
          "internalType": "uint256",
          "name": "",
          "type": "uint256"
        }
      ],
      "stateMutability": "view",
      "type": "function",
      "constant": true
    },
    {
      "inputs": [],
      "name": "_feePercentageDecimals",
      "outputs": [
        {
          "internalType": "uint256",
          "name": "",
          "type": "uint256"
        }
      ],
      "stateMutability": "view",
      "type": "function",
      "constant": true
    },
    {
      "inputs": [
        {
          "internalType": "address",
          "name": "_admin",
          "type": "address"
        }
      ],
      "name": "addAdmin",
      "outputs": [],
      "stateMutability": "nonpayable",
      "type": "function"
    },
    {
      "inputs": [],
      "name": "applicationFee",
      "outputs": [
        {
          "internalType": "uint256",
          "name": "",
          "type": "uint256"
        }
      ],
      "stateMutability": "view",
      "type": "function",
      "constant": true
    },
    {
      "inputs": [
        {
          "internalType": "uint256",
          "name": "price",
          "type": "uint256"
        }
      ],
      "name": "convertToOcat",
      "outputs": [
        {
          "internalType": "uint256",
          "name": "_ocatPrice",
          "type": "uint256"
        }
      ],
      "stateMutability": "nonpayable",
      "type": "function"
    },
    {
      "inputs": [
        {
          "internalType": "address",
          "name": "_address",
          "type": "address"
        }
      ],
      "name": "isAdmin",
      "outputs": [
        {
          "internalType": "bool",
          "name": "yes",
          "type": "bool"
        }
      ],
      "stateMutability": "view",
      "type": "function",
      "constant": true
    },
    {
      "inputs": [],
      "name": "ocatPrice",
      "outputs": [
        {
          "internalType": "uint256",
          "name": "",
          "type": "uint256"
        }
      ],
      "stateMutability": "view",
      "type": "function",
      "constant": true
    },
    {
      "inputs": [],
      "name": "router",
      "outputs": [
        {
          "internalType": "contract IWitnetPriceRouter",
          "name": "",
          "type": "address"
        }
      ],
      "stateMutability": "view",
      "type": "function",
      "constant": true
    },
    {
      "inputs": [
        {
          "internalType": "enum CommonContracts",
          "name": "contractIndex",
          "type": "uint8"
        },
        {
          "internalType": "address payable",
          "name": "_address",
          "type": "address"
        }
      ],
      "name": "setAddress",
      "outputs": [],
      "stateMutability": "nonpayable",
      "type": "function"
    },
    {
      "inputs": [
        {
          "internalType": "uint256",
          "name": "price",
          "type": "uint256"
        }
      ],
      "name": "setOcatPrice",
      "outputs": [],
      "stateMutability": "nonpayable",
      "type": "function"
    },
    {
      "inputs": [],
      "name": "valuationFee",
      "outputs": [
        {
          "internalType": "uint256",
          "name": "",
          "type": "uint256"
        }
      ],
      "stateMutability": "view",
      "type": "function",
      "constant": true
    },
    {
      "inputs": [
        {
          "internalType": "enum FeeType",
          "name": "feeType",
          "type": "uint8"
        },
        {
          "internalType": "uint256",
          "name": "percentValue",
          "type": "uint256"
        }
      ],
      "name": "setFeePercentage",
      "outputs": [],
      "stateMutability": "nonpayable",
      "type": "function"
    },
    {
      "inputs": [
        {
          "internalType": "enum FeeType",
          "name": "feeType",
          "type": "uint8"
        }
      ],
      "name": "getFeePercentage",
      "outputs": [
        {
          "internalType": "uint256",
          "name": "percentage",
          "type": "uint256"
        },
        {
          "internalType": "uint256",
          "name": "feeDecimals",
          "type": "uint256"
        }
      ],
      "stateMutability": "view",
      "type": "function",
      "constant": true
    },
    {
      "inputs": [
        {
          "internalType": "uint256",
          "name": "_applicationFee",
          "type": "uint256"
        },
        {
          "internalType": "uint256",
          "name": "_valuationFee",
          "type": "uint256"
        }
      ],
      "name": "setSubmitFee",
      "outputs": [],
      "stateMutability": "nonpayable",
      "type": "function"
    },
    {
      "inputs": [],
      "name": "getSubmitFee",
      "outputs": [
        {
          "internalType": "uint256",
          "name": "application",
          "type": "uint256"
        },
        {
          "internalType": "uint256",
          "name": "valuation",
          "type": "uint256"
        }
      ],
      "stateMutability": "view",
      "type": "function",
      "constant": true
    },
    {
      "inputs": [
        {
          "internalType": "uint256",
          "name": "assetPrice",
          "type": "uint256"
        }
      ],
      "name": "getWeeklyFee",
      "outputs": [
        {
          "internalType": "uint256",
          "name": "value",
          "type": "uint256"
        },
        {
          "internalType": "uint256",
          "name": "feeDecimals",
          "type": "uint256"
        }
      ],
      "stateMutability": "view",
      "type": "function",
      "constant": true
    },
    {
      "inputs": [],
      "name": "getPnftFeePercentages",
      "outputs": [
        {
          "internalType": "uint256",
          "name": "mintFee",
          "type": "uint256"
        },
        {
          "internalType": "uint256",
          "name": "loanFee",
          "type": "uint256"
        },
        {
          "internalType": "uint256",
          "name": "restoreFee",
          "type": "uint256"
        },
        {
          "internalType": "uint256",
          "name": "feeDecimals",
          "type": "uint256"
        }
      ],
      "stateMutability": "view",
      "type": "function",
      "constant": true
    },
    {
      "inputs": [
        {
          "internalType": "string",
          "name": "cryptoName",
          "type": "string"
        },
        {
          "internalType": "string",
          "name": "fiatName",
          "type": "string"
        },
        {
          "internalType": "uint256",
          "name": "price",
          "type": "uint256"
        },
        {
          "internalType": "uint8",
          "name": "priceDecimals",
          "type": "uint8"
        }
      ],
      "name": "setCryptoPrice",
      "outputs": [],
      "stateMutability": "nonpayable",
      "type": "function"
    },
    {
      "inputs": [
        {
          "internalType": "string",
          "name": "cryptoName",
          "type": "string"
        },
        {
          "internalType": "string",
          "name": "fiatName",
          "type": "string"
        }
      ],
      "name": "getCryptoPrice",
      "outputs": [
        {
          "components": [
            {
              "internalType": "uint256",
              "name": "value",
              "type": "uint256"
            },
            {
              "internalType": "uint8",
              "name": "decimals",
              "type": "uint8"
            }
          ],
          "internalType": "struct OcxPrice",
          "name": "priceInfo",
          "type": "tuple"
        }
      ],
      "stateMutability": "nonpayable",
      "type": "function"
    }
  ],
  "bytecode": "0x6080604052600680556064600755603260085561138860095561f3c0600a553480156200002b57600080fd5b50336001806101000a81548173ffffffffffffffffffffffffffffffffffffffff021916908373ffffffffffffffffffffffffffffffffffffffff1602179055506200007d336200028760201b60201c565b6103e8600281905550731cf3aa9dbf4880d797945726b94b9d29164211be600460006101000a81548173ffffffffffffffffffffffffffffffffffffffff021916908373ffffffffffffffffffffffffffffffffffffffff160217905550611f40600560008060038111156200011c577f4e487b7100000000000000000000000000000000000000000000000000000000600052602160045260246000fd5b600381111562000155577f4e487b7100000000000000000000000000000000000000000000000000000000600052602160045260246000fd5b815260200190815260200160002081905550611f406005600060016003811115620001a9577f4e487b7100000000000000000000000000000000000000000000000000000000600052602160045260246000fd5b6003811115620001e2577f4e487b7100000000000000000000000000000000000000000000000000000000600052602160045260246000fd5b815260200190815260200160002081905550611f40600560006002600381111562000236577f4e487b7100000000000000000000000000000000000000000000000000000000600052602160045260246000fd5b60038111156200026f577f4e487b7100000000000000000000000000000000000000000000000000000000600052602160045260246000fd5b81526020019081526020016000208190555062000692565b600073ffffffffffffffffffffffffffffffffffffffff1660018054906101000a900473ffffffffffffffffffffffffffffffffffffffff1673ffffffffffffffffffffffffffffffffffffffff1614156200031a576040517f08c379a0000000000000000000000000000000000000000000000000000000008152600401620003119062000548565b60405180910390fd5b60018054906101000a900473ffffffffffffffffffffffffffffffffffffffff1673ffffffffffffffffffffffffffffffffffffffff163373ffffffffffffffffffffffffffffffffffffffff1614620003ab576040517f08c379a0000000000000000000000000000000000000000000000000000000008152600401620003a29062000526565b60405180910390fd5b80600073ffffffffffffffffffffffffffffffffffffffff168173ffffffffffffffffffffffffffffffffffffffff1614156200041f576040517f08c379a000000000000000000000000000000000000000000000000000000000815260040162000416906200056a565b60405180910390fd5b60016000808473ffffffffffffffffffffffffffffffffffffffff1673ffffffffffffffffffffffffffffffffffffffff16815260200190815260200160002060006101000a81548160ff02191690831515021790555060018060009054906101000a900460ff166200049391906200059d565b600160006101000a81548160ff021916908360ff1602179055505050565b6000620004c0601e836200058c565b9150620004cd8262000617565b602082019050919050565b6000620004e76017836200058c565b9150620004f48262000640565b602082019050919050565b60006200050e6019836200058c565b91506200051b8262000669565b602082019050919050565b600060208201905081810360008301526200054181620004b1565b9050919050565b600060208201905081810360008301526200056381620004d8565b9050919050565b600060208201905081810360008301526200058581620004ff565b9050919050565b600082825260208201905092915050565b6000620005aa82620005db565b9150620005b783620005db565b92508260ff03821115620005d057620005cf620005e8565b5b828201905092915050565b600060ff82169050919050565b7f4e487b7100000000000000000000000000000000000000000000000000000000600052601160045260246000fd5b7f466f722063616c6c65722065787065637465642062652063726561746f720000600082015250565b7f496e76616c69642063726561746f722061646472657373000000000000000000600082015250565b7f4578706563746564206e6f6e2d7a65726f206164647265737300000000000000600082015250565b6125d380620006a26000396000f3fe608060405234801561001057600080fd5b50600436106101215760003560e01c806381af6cd1116100ad578063c89be5a511610071578063c89be5a51461030d578063cdc0eec414610329578063d5b767051461034a578063dbcd958014610366578063f887ea401461039657610121565b806381af6cd1146102695780638e7f962614610299578063a7d9cfbc146102b7578063bb3f6c6a146102d5578063bbaaeef6146102f157610121565b80633edc70ad116100f45780633edc70ad146101ae5780634ad4f0f5146101cc57806361d9285a146101fd578063704802751461022e5780637ea2b8e01461024a57610121565b806304cbb47f146101265780630589c4e5146101445780631a5db30e1461016057806324d7806c1461017e575b600080fd5b61012e6103b4565b60405161013b9190611e58565b60405180910390f35b61015e6004803603810190610159919061183a565b6103ba565b005b610168610872565b6040516101759190611e58565b60405180910390f35b61019860048036038101906101939190611811565b610877565b6040516101a59190611d11565b60405180910390f35b6101b66108cc565b6040516101c39190611e58565b60405180910390f35b6101e660048036038101906101e19190611a29565b6108d2565b6040516101f4929190611e73565b60405180910390f35b61021760048036038101906102129190611876565b61090a565b604051610225929190611e73565b60405180910390f35b61024860048036038101906102439190611811565b610acc565b005b610252610ceb565b604051610260929190611e73565b60405180910390f35b610283600480360381019061027e919061192a565b610cfc565b6040516102909190611e3d565b60405180910390f35b6102a161104d565b6040516102ae9190611e58565b60405180910390f35b6102bf611053565b6040516102cc9190611e58565b60405180910390f35b6102ef60048036038101906102ea9190611a29565b611059565b005b61030b60048036038101906103069190611996565b611063565b005b61032760048036038101906103229190611a52565b611107565b005b610331611214565b6040516103419493929190611e9c565b60405180910390f35b610364600480360381019061035f919061189f565b6113b9565b005b610380600480360381019061037b9190611a29565b611540565b60405161038d9190611e58565b60405180910390f35b61039e6116a9565b6040516103ab9190611d2c565b60405180910390f35b60075481565b600073ffffffffffffffffffffffffffffffffffffffff1660018054906101000a900473ffffffffffffffffffffffffffffffffffffffff1673ffffffffffffffffffffffffffffffffffffffff16141561044a576040517f08c379a000000000000000000000000000000000000000000000000000000000815260040161044190611dbd565b60405180910390fd5b60018054906101000a900473ffffffffffffffffffffffffffffffffffffffff1673ffffffffffffffffffffffffffffffffffffffff163373ffffffffffffffffffffffffffffffffffffffff16146104d8576040517f08c379a00000000000000000000000000000000000000000000000000000000081526004016104cf90611d9d565b60405180910390fd5b80600073ffffffffffffffffffffffffffffffffffffffff168173ffffffffffffffffffffffffffffffffffffffff161415610549576040517f08c379a000000000000000000000000000000000000000000000000000000000815260040161054090611dfd565b60405180910390fd5b600073ffffffffffffffffffffffffffffffffffffffff163373ffffffffffffffffffffffffffffffffffffffff1614156105b9576040517f08c379a00000000000000000000000000000000000000000000000000000000081526004016105b090611dbd565b60405180910390fd5b6000803373ffffffffffffffffffffffffffffffffffffffff1673ffffffffffffffffffffffffffffffffffffffff16815260200190815260200160002060009054906101000a900460ff16610644576040517f08c379a000000000000000000000000000000000000000000000000000000000815260040161063b90611e1d565b60405180910390fd5b6000600981111561067e577f4e487b7100000000000000000000000000000000000000000000000000000000600052602160045260246000fd5b60098111156106b6577f4e487b7100000000000000000000000000000000000000000000000000000000600052602160045260246000fd5b8360098111156106ef577f4e487b7100000000000000000000000000000000000000000000000000000000600052602160045260246000fd5b1015801561076c5750600980811115610731577f4e487b7100000000000000000000000000000000000000000000000000000000600052602160045260246000fd5b83600981111561076a577f4e487b7100000000000000000000000000000000000000000000000000000000600052602160045260246000fd5b105b6107ab576040517f08c379a00000000000000000000000000000000000000000000000000000000081526004016107a290611d7d565b60405180910390fd5b81600360008560098111156107e9577f4e487b7100000000000000000000000000000000000000000000000000000000600052602160045260246000fd5b6009811115610821577f4e487b7100000000000000000000000000000000000000000000000000000000600052602160045260246000fd5b815260200190815260200160002060006101000a81548173ffffffffffffffffffffffffffffffffffffffff021916908373ffffffffffffffffffffffffffffffffffffffff160217905550505050565b600681565b60008060008373ffffffffffffffffffffffffffffffffffffffff1673ffffffffffffffffffffffffffffffffffffffff16815260200190815260200160002060009054906101000a900460ff169050919050565b60085481565b600080600654905060095483116108e95760095492505b6034600a546108f89190611f95565b836109039190612137565b9150915091565b60008060006003811115610947577f4e487b7100000000000000000000000000000000000000000000000000000000600052602160045260246000fd5b836003811115610980577f4e487b7100000000000000000000000000000000000000000000000000000000600052602160045260246000fd5b1180156109fd57506003808111156109c1577f4e487b7100000000000000000000000000000000000000000000000000000000600052602160045260246000fd5b8360038111156109fa577f4e487b7100000000000000000000000000000000000000000000000000000000600052602160045260246000fd5b11155b610a3c576040517f08c379a0000000000000000000000000000000000000000000000000000000008152600401610a3390611ddd565b60405180910390fd5b60056000846003811115610a79577f4e487b7100000000000000000000000000000000000000000000000000000000600052602160045260246000fd5b6003811115610ab1577f4e487b7100000000000000000000000000000000000000000000000000000000600052602160045260246000fd5b81526020019081526020016000205491506006549050915091565b600073ffffffffffffffffffffffffffffffffffffffff1660018054906101000a900473ffffffffffffffffffffffffffffffffffffffff1673ffffffffffffffffffffffffffffffffffffffff161415610b5c576040517f08c379a0000000000000000000000000000000000000000000000000000000008152600401610b5390611dbd565b60405180910390fd5b60018054906101000a900473ffffffffffffffffffffffffffffffffffffffff1673ffffffffffffffffffffffffffffffffffffffff163373ffffffffffffffffffffffffffffffffffffffff1614610bea576040517f08c379a0000000000000000000000000000000000000000000000000000000008152600401610be190611d9d565b60405180910390fd5b80600073ffffffffffffffffffffffffffffffffffffffff168173ffffffffffffffffffffffffffffffffffffffff161415610c5b576040517f08c379a0000000000000000000000000000000000000000000000000000000008152600401610c5290611dfd565b60405180910390fd5b60016000808473ffffffffffffffffffffffffffffffffffffffff1673ffffffffffffffffffffffffffffffffffffffff16815260200190815260200160002060006101000a81548160ff02191690831515021790555060018060009054906101000a900460ff16610ccd9190611f5e565b600160006101000a81548160ff021916908360ff1602179055505050565b600080600754915060085490509091565b610d046116cf565b6000600460009054906101000a900473ffffffffffffffffffffffffffffffffffffffff1673ffffffffffffffffffffffffffffffffffffffff1663f78eea837f24beead43216e490aa240ef0d32e18c57beea168f06eabb94f5193868d5009466040518263ffffffff1660e01b8152600401610d819190611d47565b60606040518083038186803b158015610d9957600080fd5b505afa158015610dad573d6000803e3d6000fd5b505050506040513d601f19601f82011682018060405250810190610dd191906118db565b5050905080600b604051610de490611cfc565b9081526020016040518091039020600001604051610e0190611ce7565b9081526020016040518091039020600001819055506006600b604051610e2690611cfc565b9081526020016040518091039020600001604051610e4390611ce7565b908152602001604051809103902060010160006101000a81548160ff021916908360ff1602179055506000600460009054906101000a900473ffffffffffffffffffffffffffffffffffffffff1673ffffffffffffffffffffffffffffffffffffffff1663f78eea837f3d15f7018db5cc80838b684361aaa100bfadf8a11e02d5c1c92e9c6af47626c86040518263ffffffff1660e01b8152600401610ee99190611d62565b60606040518083038186803b158015610f0157600080fd5b505afa158015610f15573d6000803e3d6000fd5b505050506040513d601f19601f82011682018060405250810190610f3991906118db565b5050905080600b604051610f4c90611cd2565b9081526020016040518091039020600001604051610f6990611ce7565b9081526020016040518091039020600001819055506006600b604051610f8e90611cd2565b9081526020016040518091039020600001604051610fab90611ce7565b908152602001604051809103902060010160006101000a81548160ff021916908360ff160217905550600b85604051610fe49190611cbb565b9081526020016040518091039020600001846040516110039190611cbb565b9081526020016040518091039020604051806040016040529081600082015481526020016001820160009054906101000a900460ff1660ff1660ff16815250509250505092915050565b60065481565b60025481565b8060028190555050565b81600b856040516110749190611cbb565b9081526020016040518091039020600001846040516110939190611cbb565b90815260200160405180910390206000018190555080600b856040516110b99190611cbb565b9081526020016040518091039020600001846040516110d89190611cbb565b908152602001604051809103902060010160006101000a81548160ff021916908360ff16021790555050505050565b600073ffffffffffffffffffffffffffffffffffffffff163373ffffffffffffffffffffffffffffffffffffffff161415611177576040517f08c379a000000000000000000000000000000000000000000000000000000000815260040161116e90611dbd565b60405180910390fd5b6000803373ffffffffffffffffffffffffffffffffffffffff1673ffffffffffffffffffffffffffffffffffffffff16815260200190815260200160002060009054906101000a900460ff16611202576040517f08c379a00000000000000000000000000000000000000000000000000000000081526004016111f990611e1d565b60405180910390fd5b81600781905550806008819055505050565b60008060008060065490506005600080600381111561125c577f4e487b7100000000000000000000000000000000000000000000000000000000600052602160045260246000fd5b6003811115611294577f4e487b7100000000000000000000000000000000000000000000000000000000600052602160045260246000fd5b815260200190815260200160002054935060056000600160038111156112e3577f4e487b7100000000000000000000000000000000000000000000000000000000600052602160045260246000fd5b600381111561131b577f4e487b7100000000000000000000000000000000000000000000000000000000600052602160045260246000fd5b8152602001908152602001600020549250600560006002600381111561136a577f4e487b7100000000000000000000000000000000000000000000000000000000600052602160045260246000fd5b60038111156113a2577f4e487b7100000000000000000000000000000000000000000000000000000000600052602160045260246000fd5b815260200190815260200160002054915090919293565b600073ffffffffffffffffffffffffffffffffffffffff163373ffffffffffffffffffffffffffffffffffffffff161415611429576040517f08c379a000000000000000000000000000000000000000000000000000000000815260040161142090611dbd565b60405180910390fd5b6000803373ffffffffffffffffffffffffffffffffffffffff1673ffffffffffffffffffffffffffffffffffffffff16815260200190815260200160002060009054906101000a900460ff166114b4576040517f08c379a00000000000000000000000000000000000000000000000000000000081526004016114ab90611e1d565b60405180910390fd5b80600560008460038111156114f2577f4e487b7100000000000000000000000000000000000000000000000000000000600052602160045260246000fd5b600381111561152a577f4e487b7100000000000000000000000000000000000000000000000000000000600052602160045260246000fd5b8152602001908152602001600020819055505050565b60006003600a6115509190612019565b6002546003600060016009811115611591577f4e487b7100000000000000000000000000000000000000000000000000000000600052602160045260246000fd5b60098111156115c9577f4e487b7100000000000000000000000000000000000000000000000000000000600052602160045260246000fd5b815260200190815260200160002060009054906101000a900473ffffffffffffffffffffffffffffffffffffffff1673ffffffffffffffffffffffffffffffffffffffff1663313ce5676040518163ffffffff1660e01b8152600401602060405180830381600087803b15801561163f57600080fd5b505af1158015611653573d6000803e3d6000fd5b505050506040513d601f19601f820116820180604052508101906116779190611a8e565b600a6116839190612019565b8461168e9190612137565b6116989190612137565b6116a29190611f95565b9050919050565b600460009054906101000a900473ffffffffffffffffffffffffffffffffffffffff1681565b604051806040016040528060008152602001600060ff1681525090565b60006116ff6116fa84611f06565b611ee1565b90508281526020810184848401111561171757600080fd5b61172284828561226e565b509392505050565b6000813590506117398161250a565b92915050565b60008135905061174e81612521565b92915050565b60008135905061176381612538565b92915050565b60008135905061177881612548565b92915050565b60008151905061178d81612558565b92915050565b600082601f8301126117a457600080fd5b81356117b48482602086016116ec565b91505092915050565b6000813590506117cc8161256f565b92915050565b6000815190506117e18161256f565b92915050565b6000813590506117f681612586565b92915050565b60008151905061180b81612586565b92915050565b60006020828403121561182357600080fd5b60006118318482850161172a565b91505092915050565b6000806040838503121561184d57600080fd5b600061185b85828601611754565b925050602061186c8582860161173f565b9150509250929050565b60006020828403121561188857600080fd5b600061189684828501611769565b91505092915050565b600080604083850312156118b257600080fd5b60006118c085828601611769565b92505060206118d1858286016117bd565b9150509250929050565b6000806000606084860312156118f057600080fd5b60006118fe8682870161177e565b935050602061190f868287016117d2565b9250506040611920868287016117d2565b9150509250925092565b6000806040838503121561193d57600080fd5b600083013567ffffffffffffffff81111561195757600080fd5b61196385828601611793565b925050602083013567ffffffffffffffff81111561198057600080fd5b61198c85828601611793565b9150509250929050565b600080600080608085870312156119ac57600080fd5b600085013567ffffffffffffffff8111156119c657600080fd5b6119d287828801611793565b945050602085013567ffffffffffffffff8111156119ef57600080fd5b6119fb87828801611793565b9350506040611a0c878288016117bd565b9250506060611a1d878288016117e7565b91505092959194509250565b600060208284031215611a3b57600080fd5b6000611a49848285016117bd565b91505092915050565b60008060408385031215611a6557600080fd5b6000611a73858286016117bd565b9250506020611a84858286016117bd565b9150509250929050565b600060208284031215611aa057600080fd5b6000611aae848285016117fc565b91505092915050565b611ac0816121b5565b82525050565b611acf81612216565b82525050565b611ade8161223a565b82525050565b611aed81612254565b82525050565b6000611afe82611f37565b611b088185611f53565b9350611b1881856020860161227d565b80840191505092915050565b6000611b31601683611f42565b9150611b3c82612399565b602082019050919050565b6000611b54601e83611f42565b9150611b5f826123c2565b602082019050919050565b6000611b77601783611f42565b9150611b82826123eb565b602082019050919050565b6000611b9a601083611f42565b9150611ba582612414565b602082019050919050565b6000611bbd601983611f42565b9150611bc88261243d565b602082019050919050565b6000611be0600383611f53565b9150611beb82612466565b600382019050919050565b6000611c03600d83611f42565b9150611c0e8261248f565b602082019050919050565b6000611c26600383611f53565b9150611c31826124b8565b600382019050919050565b6000611c49600383611f53565b9150611c54826124e1565b600382019050919050565b604082016000820151611c756000850182611c8e565b506020820151611c886020850182611cac565b50505050565b611c97816121ff565b82525050565b611ca6816121ff565b82525050565b611cb581612209565b82525050565b6000611cc78284611af3565b915081905092915050565b6000611cdd82611bd3565b9150819050919050565b6000611cf282611c19565b9150819050919050565b6000611d0782611c3c565b9150819050919050565b6000602082019050611d266000830184611ab7565b92915050565b6000602082019050611d416000830184611ac6565b92915050565b6000602082019050611d5c6000830184611ad5565b92915050565b6000602082019050611d776000830184611ae4565b92915050565b60006020820190508181036000830152611d9681611b24565b9050919050565b60006020820190508181036000830152611db681611b47565b9050919050565b60006020820190508181036000830152611dd681611b6a565b9050919050565b60006020820190508181036000830152611df681611b8d565b9050919050565b60006020820190508181036000830152611e1681611bb0565b9050919050565b60006020820190508181036000830152611e3681611bf6565b9050919050565b6000604082019050611e526000830184611c5f565b92915050565b6000602082019050611e6d6000830184611c9d565b92915050565b6000604082019050611e886000830185611c9d565b611e956020830184611c9d565b9392505050565b6000608082019050611eb16000830187611c9d565b611ebe6020830186611c9d565b611ecb6040830185611c9d565b611ed86060830184611c9d565b95945050505050565b6000611eeb611efc565b9050611ef782826122b0565b919050565b6000604051905090565b600067ffffffffffffffff821115611f2157611f2061233f565b5b611f2a8261236e565b9050602081019050919050565b600081519050919050565b600082825260208201905092915050565b600081905092915050565b6000611f6982612209565b9150611f7483612209565b92508260ff03821115611f8a57611f896122e1565b5b828201905092915050565b6000611fa0826121ff565b9150611fab836121ff565b925082611fbb57611fba612310565b5b828204905092915050565b6000808291508390505b600185111561201057808604811115611fec57611feb6122e1565b5b6001851615611ffb5780820291505b80810290506120098561238c565b9450611fd0565b94509492505050565b6000612024826121ff565b915061202f83612209565b925061205c7fffffffffffffffffffffffffffffffffffffffffffffffffffffffffffffffff8484612064565b905092915050565b6000826120745760019050612130565b816120825760009050612130565b816001811461209857600281146120a2576120d1565b6001915050612130565b60ff8411156120b4576120b36122e1565b5b8360020a9150848211156120cb576120ca6122e1565b5b50612130565b5060208310610133831016604e8410600b84101617156121065782820a905083811115612101576121006122e1565b5b612130565b6121138484846001611fc6565b9250905081840481111561212a576121296122e1565b5b81810290505b9392505050565b6000612142826121ff565b915061214d836121ff565b9250817fffffffffffffffffffffffffffffffffffffffffffffffffffffffffffffffff0483118215151615612186576121856122e1565b5b828202905092915050565b600061219c826121df565b9050919050565b60006121ae826121df565b9050919050565b60008115159050919050565b6000819050919050565b6000819050919050565b6000819050919050565b600073ffffffffffffffffffffffffffffffffffffffff82169050919050565b6000819050919050565b600060ff82169050919050565b600061222182612228565b9050919050565b6000612233826121df565b9050919050565b600061224d612248836121cb565b61237f565b9050919050565b6000612267612262836121d5565b61237f565b9050919050565b82818337600083830152505050565b60005b8381101561229b578082015181840152602081019050612280565b838111156122aa576000848401525b50505050565b6122b98261236e565b810181811067ffffffffffffffff821117156122d8576122d761233f565b5b80604052505050565b7f4e487b7100000000000000000000000000000000000000000000000000000000600052601160045260246000fd5b7f4e487b7100000000000000000000000000000000000000000000000000000000600052601260045260246000fd5b7f4e487b7100000000000000000000000000000000000000000000000000000000600052604160045260246000fd5b6000601f19601f8301169050919050565b60008160001b9050919050565b60008160011c9050919050565b7f496e76616c696420636f6e747261637420696e64657800000000000000000000600082015250565b7f466f722063616c6c65722065787065637465642062652063726561746f720000600082015250565b7f496e76616c69642063726561746f722061646472657373000000000000000000600082015250565b7f496e76616c696420666565207479706500000000000000000000000000000000600082015250565b7f4578706563746564206e6f6e2d7a65726f206164647265737300000000000000600082015250565b7f4554480000000000000000000000000000000000000000000000000000000000600082015250565b7f4d7573742062652061646d696e00000000000000000000000000000000000000600082015250565b7f5553440000000000000000000000000000000000000000000000000000000000600082015250565b7f4254430000000000000000000000000000000000000000000000000000000000600082015250565b61251381612191565b811461251e57600080fd5b50565b61252a816121a3565b811461253557600080fd5b50565b600a811061254557600080fd5b50565b6004811061255557600080fd5b50565b612561816121c1565b811461256c57600080fd5b50565b612578816121ff565b811461258357600080fd5b50565b61258f81612209565b811461259a57600080fd5b5056fea26469706673582212204e71387390529b96d8d6009ea5d34bb852aefeec50ff28d9873d3a3652d7d07464736f6c63430008040033",
  "immutableReferences": {},
  "source": "// SPDX-License-Identifier: MIT\r\npragma solidity ^0.8.0;\r\n\r\nimport \"witnet-solidity-bridge/contracts/interfaces/IWitnetPriceRouter.sol\";\r\nimport \"./OcxBase.sol\";\r\nimport \"./interface/IOcxPriceOracle.sol\";\r\n\r\ncontract OcxPriceOracle is OcxBase, IOcxPriceOracle {\r\n\r\n    IWitnetPriceRouter public router;\r\n    mapping(FeeType => uint256) internal feePercentages;\r\n    uint256  public _feePercentageDecimals = 6;\r\n    uint256  public applicationFee = 100;\r\n    uint256  public valuationFee = 50;\r\n    uint256  private minimumPawnablePrice = 5000;\r\n    uint256  private weeklyFeePercentage = 62400; // 6.24%\r\n    mapping(string => CurrencyPriceInfo) private cryptoPrice;\r\n    uint256  public constant FIAT_PRICE_DECIMALS = 6;\r\n\r\n    /**\r\n     * IMPORTANT: replace the address below with the WitnetPriceRouter address\r\n     * of the network you are using! Please find the address here:\r\n     * https://docs.witnet.io/smart-contracts/price-feeds/contract-addresses\r\n     */\r\n    constructor() {\r\n        // router = IWitnetPriceRouter(0x83a757eae821ad7b520d9a74952337138a80b2af); // for MainNet\r\n        router = IWitnetPriceRouter(0x1cF3Aa9DBF4880d797945726B94B9d29164211BE); // for Goerli\r\n        feePercentages[FeeType.PNFT_MINT_FEE] = 8000; // 0.8% \r\n        feePercentages[FeeType.PNFT_OCAT_SWAP_FEE] = 8000; // 0.8% \r\n        feePercentages[FeeType.OCAT_PNFT_SWAP_FEE] = 8000; // 0.8%\r\n    }\r\n    /* \r\n     * feeValue = real_percent_value * (10 ** _feePercentageDecimals) = real_percent_value * 10^6\r\n     */\r\n    function setFeePercentage(FeeType feeType, uint256 percentValue) public override\r\n    onlyAdmin {\r\n        feePercentages[feeType] = percentValue;\r\n    }\r\n    function getFeePercentage(FeeType feeType) public view override\r\n    returns(uint256 percentage, uint256 feeDecimals) {\r\n        require(feeType > FeeType.PNFT_MINT_FEE && \r\n                feeType <= FeeType.FEE_TYPE_SIZE, \"Invalid fee type\");\r\n        percentage = feePercentages[feeType];\r\n        feeDecimals = _feePercentageDecimals;\r\n    }\r\n    function setSubmitFee(uint256 _applicationFee, uint256 _valuationFee) public override\r\n    onlyAdmin {\r\n        applicationFee = _applicationFee;\r\n        valuationFee = _valuationFee;\r\n    }\r\n    /*\r\n     * Returns value of the application and valuation fee in fiat currency($)\r\n     */\r\n    function getSubmitFee() public view override\r\n    returns (uint256 application, uint256 valuation) {\r\n        application = applicationFee;\r\n        valuation = valuationFee;\r\n    }\r\n    function getWeeklyFee(uint256 assetPrice) public view override\r\n    returns(uint256 value, uint256 feeDecimals) {\r\n        feeDecimals = _feePercentageDecimals;\r\n        if (assetPrice <= minimumPawnablePrice) {\r\n            assetPrice = minimumPawnablePrice;\r\n        }\r\n        value = assetPrice * (weeklyFeePercentage / 52);\r\n    }\r\n    function getPnftFeePercentages() public view override\r\n    returns(uint256 mintFee, uint256 loanFee, uint256 restoreFee, uint256 feeDecimals) {\r\n        feeDecimals = _feePercentageDecimals;\r\n        mintFee = feePercentages[FeeType.PNFT_MINT_FEE];\r\n        loanFee = feePercentages[FeeType.PNFT_OCAT_SWAP_FEE];\r\n        restoreFee = feePercentages[FeeType.OCAT_PNFT_SWAP_FEE];\r\n    }\r\n    function setCryptoPrice(\r\n            string memory cryptoName, \r\n            string memory fiatName, \r\n            uint256 price, \r\n            uint8 priceDecimals\r\n    ) public override {\r\n        cryptoPrice[cryptoName].vs[fiatName].value = price;\r\n        cryptoPrice[cryptoName].vs[fiatName].decimals = priceDecimals;\r\n    }\r\n    function getCryptoPrice(\r\n            string memory cryptoName, \r\n            string memory fiatName\r\n    ) public override returns(OcxPrice memory priceInfo) {\r\n        (int256 btcUsdPrice,,) = router.valueFor(0x24beead43216e490aa240ef0d32e18c57beea168f06eabb94f5193868d500946);\r\n        cryptoPrice[\"BTC\"].vs[\"USD\"].value = uint256(btcUsdPrice);\r\n        cryptoPrice[\"BTC\"].vs[\"USD\"].decimals = 6;\r\n        (int256 ethUsdPrice,,) = router.valueFor(0x3d15f7018db5cc80838b684361aaa100bfadf8a11e02d5c1c92e9c6af47626c8);\r\n        cryptoPrice[\"ETH\"].vs[\"USD\"].value = uint256(ethUsdPrice);\r\n        cryptoPrice[\"ETH\"].vs[\"USD\"].decimals = 6;\r\n\r\n        priceInfo = cryptoPrice[cryptoName].vs[fiatName];\r\n    }\r\n}",
  "sourcePath": "E:\\Work\\OpenchainTestVersion\\server\\contracts\\OcxPriceOracle.sol",
  "compiler": {
    "name": "solc",
    "version": "0.8.4+commit.c7e474f2.Emscripten.clang"
  },
  "schemaVersion": "3.4.7",
  "updatedAt": "2022-05-05T00:08:05.352Z",
  "networkType": "ethereum",
  "devdoc": {
    "kind": "dev",
    "methods": {},
    "version": 1
  },
  "userdoc": {
    "kind": "user",
    "methods": {
      "constructor": {
        "notice": "IMPORTANT: replace the address below with the WitnetPriceRouter address of the network you are using! Please find the address here: https://docs.witnet.io/smart-contracts/price-feeds/contract-addresses"
      }
    },
    "version": 1
  }
}