{
  "contractName": "OcxPriceOracle",
  "abi": [
    {
      "inputs": [],
      "stateMutability": "nonpayable",
      "type": "constructor"
    },
    {
      "inputs": [],
      "name": "FIAT_PRICE_DECIMALS",
      "outputs": [
        {
          "internalType": "uint256",
          "name": "",
          "type": "uint256"
        }
      ],
      "stateMutability": "view",
      "type": "function",
      "constant": true
    },
    {
      "inputs": [],
      "name": "_feePercentageDecimals",
      "outputs": [
        {
          "internalType": "uint256",
          "name": "",
          "type": "uint256"
        }
      ],
      "stateMutability": "view",
      "type": "function",
      "constant": true
    },
    {
      "inputs": [
        {
          "internalType": "address",
          "name": "_admin",
          "type": "address"
        }
      ],
      "name": "addAdmin",
      "outputs": [],
      "stateMutability": "nonpayable",
      "type": "function"
    },
    {
      "inputs": [],
      "name": "applicationFee",
      "outputs": [
        {
          "internalType": "uint256",
          "name": "",
          "type": "uint256"
        }
      ],
      "stateMutability": "view",
      "type": "function",
      "constant": true
    },
    {
      "inputs": [
        {
          "internalType": "uint256",
          "name": "price",
          "type": "uint256"
        }
      ],
      "name": "convertToOcat",
      "outputs": [
        {
          "internalType": "uint256",
          "name": "_ocatPrice",
          "type": "uint256"
        }
      ],
      "stateMutability": "nonpayable",
      "type": "function"
    },
    {
      "inputs": [
        {
          "internalType": "address",
          "name": "_address",
          "type": "address"
        }
      ],
      "name": "isAdmin",
      "outputs": [
        {
          "internalType": "bool",
          "name": "yes",
          "type": "bool"
        }
      ],
      "stateMutability": "view",
      "type": "function",
      "constant": true
    },
    {
      "inputs": [],
      "name": "ocatPrice",
      "outputs": [
        {
          "internalType": "uint256",
          "name": "",
          "type": "uint256"
        }
      ],
      "stateMutability": "view",
      "type": "function",
      "constant": true
    },
    {
      "inputs": [],
      "name": "router",
      "outputs": [
        {
          "internalType": "contract IWitnetPriceRouter",
          "name": "",
          "type": "address"
        }
      ],
      "stateMutability": "view",
      "type": "function",
      "constant": true
    },
    {
      "inputs": [
        {
          "internalType": "enum CommonContracts",
          "name": "contractIndex",
          "type": "uint8"
        },
        {
          "internalType": "address payable",
          "name": "_address",
          "type": "address"
        }
      ],
      "name": "setCommonContractAddress",
      "outputs": [],
      "stateMutability": "nonpayable",
      "type": "function"
    },
    {
      "inputs": [
        {
          "internalType": "uint256",
          "name": "price",
          "type": "uint256"
        }
      ],
      "name": "setOcatPrice",
      "outputs": [],
      "stateMutability": "nonpayable",
      "type": "function"
    },
    {
      "inputs": [],
      "name": "valuationFee",
      "outputs": [
        {
          "internalType": "uint256",
          "name": "",
          "type": "uint256"
        }
      ],
      "stateMutability": "view",
      "type": "function",
      "constant": true
    },
    {
      "inputs": [
        {
          "internalType": "enum FeeType",
          "name": "feeType",
          "type": "uint8"
        },
        {
          "internalType": "uint256",
          "name": "percentValue",
          "type": "uint256"
        }
      ],
      "name": "setFeePercentage",
      "outputs": [],
      "stateMutability": "nonpayable",
      "type": "function"
    },
    {
      "inputs": [
        {
          "internalType": "enum FeeType",
          "name": "feeType",
          "type": "uint8"
        }
      ],
      "name": "getFeePercentage",
      "outputs": [
        {
          "internalType": "uint256",
          "name": "percentage",
          "type": "uint256"
        },
        {
          "internalType": "uint256",
          "name": "feeDecimals",
          "type": "uint256"
        }
      ],
      "stateMutability": "view",
      "type": "function",
      "constant": true
    },
    {
      "inputs": [
        {
          "internalType": "uint256",
          "name": "_applicationFee",
          "type": "uint256"
        },
        {
          "internalType": "uint256",
          "name": "_valuationFee",
          "type": "uint256"
        }
      ],
      "name": "setSubmitFee",
      "outputs": [],
      "stateMutability": "nonpayable",
      "type": "function"
    },
    {
      "inputs": [],
      "name": "getSubmitFee",
      "outputs": [
        {
          "internalType": "uint256",
          "name": "application",
          "type": "uint256"
        },
        {
          "internalType": "uint256",
          "name": "valuation",
          "type": "uint256"
        }
      ],
      "stateMutability": "view",
      "type": "function",
      "constant": true
    },
    {
      "inputs": [
        {
          "internalType": "uint256",
          "name": "assetPrice",
          "type": "uint256"
        }
      ],
      "name": "getWeeklyFee",
      "outputs": [
        {
          "internalType": "uint256",
          "name": "value",
          "type": "uint256"
        },
        {
          "internalType": "uint256",
          "name": "feeDecimals",
          "type": "uint256"
        }
      ],
      "stateMutability": "view",
      "type": "function",
      "constant": true
    },
    {
      "inputs": [],
      "name": "getPnftFeePercentages",
      "outputs": [
        {
          "internalType": "uint256",
          "name": "mintFee",
          "type": "uint256"
        },
        {
          "internalType": "uint256",
          "name": "loanFee",
          "type": "uint256"
        },
        {
          "internalType": "uint256",
          "name": "restoreFee",
          "type": "uint256"
        },
        {
          "internalType": "uint256",
          "name": "feeDecimals",
          "type": "uint256"
        }
      ],
      "stateMutability": "view",
      "type": "function",
      "constant": true
    },
    {
      "inputs": [],
      "name": "getBtcUsdPrice",
      "outputs": [
        {
          "components": [
            {
              "internalType": "uint256",
              "name": "value",
              "type": "uint256"
            },
            {
              "internalType": "uint8",
              "name": "decimals",
              "type": "uint8"
            }
          ],
          "internalType": "struct OcxPrice",
          "name": "priceObj",
          "type": "tuple"
        }
      ],
      "stateMutability": "view",
      "type": "function",
      "constant": true
    },
    {
      "inputs": [],
      "name": "getEthUsdPrice",
      "outputs": [
        {
          "components": [
            {
              "internalType": "uint256",
              "name": "value",
              "type": "uint256"
            },
            {
              "internalType": "uint8",
              "name": "decimals",
              "type": "uint8"
            }
          ],
          "internalType": "struct OcxPrice",
          "name": "priceObj",
          "type": "tuple"
        }
      ],
      "stateMutability": "view",
      "type": "function",
      "constant": true
    },
    {
      "inputs": [],
      "name": "getBtcEthPrice",
      "outputs": [
        {
          "components": [
            {
              "internalType": "uint256",
              "name": "value",
              "type": "uint256"
            },
            {
              "internalType": "uint8",
              "name": "decimals",
              "type": "uint8"
            }
          ],
          "internalType": "struct OcxPrice",
          "name": "",
          "type": "tuple"
        }
      ],
      "stateMutability": "view",
      "type": "function",
      "constant": true
    },
    {
      "inputs": [
        {
          "internalType": "string",
          "name": "leftCurrencyName",
          "type": "string"
        },
        {
          "internalType": "string",
          "name": "rightCurrencyName",
          "type": "string"
        },
        {
          "components": [
            {
              "internalType": "uint256",
              "name": "value",
              "type": "uint256"
            },
            {
              "internalType": "uint8",
              "name": "decimals",
              "type": "uint8"
            }
          ],
          "internalType": "struct OcxPrice",
          "name": "priceObj",
          "type": "tuple"
        }
      ],
      "name": "setCurrencyRatio",
      "outputs": [],
      "stateMutability": "nonpayable",
      "type": "function"
    },
    {
      "inputs": [
        {
          "internalType": "string",
          "name": "leftCurrencyName",
          "type": "string"
        },
        {
          "internalType": "string",
          "name": "rightCurrencyName",
          "type": "string"
        }
      ],
      "name": "getCurrencyRatio",
      "outputs": [
        {
          "components": [
            {
              "internalType": "uint256",
              "name": "value",
              "type": "uint256"
            },
            {
              "internalType": "uint8",
              "name": "decimals",
              "type": "uint8"
            }
          ],
          "internalType": "struct OcxPrice",
          "name": "",
          "type": "tuple"
        }
      ],
      "stateMutability": "view",
      "type": "function",
      "constant": true
    }
  ],
  "bytecode": "0x6080604052600680556064600755603260085561138860095561f3c0600a553480156200002b57600080fd5b50336001806101000a81548173ffffffffffffffffffffffffffffffffffffffff021916908373ffffffffffffffffffffffffffffffffffffffff1602179055506200007d336200058960201b60201c565b6103e8600281905550731cf3aa9dbf4880d797945726b94b9d29164211be600460006101000a81548173ffffffffffffffffffffffffffffffffffffffff021916908373ffffffffffffffffffffffffffffffffffffffff160217905550611f40600560008060038111156200011c577f4e487b7100000000000000000000000000000000000000000000000000000000600052602160045260246000fd5b600381111562000155577f4e487b7100000000000000000000000000000000000000000000000000000000600052602160045260246000fd5b815260200190815260200160002081905550611f406005600060016003811115620001a9577f4e487b7100000000000000000000000000000000000000000000000000000000600052602160045260246000fd5b6003811115620001e2577f4e487b7100000000000000000000000000000000000000000000000000000000600052602160045260246000fd5b815260200190815260200160002081905550611f40600560006002600381111562000236577f4e487b7100000000000000000000000000000000000000000000000000000000600052602160045260246000fd5b60038111156200026f577f4e487b7100000000000000000000000000000000000000000000000000000000600052602160045260246000fd5b8152602001908152602001600020819055506000600e60405162000293906200097e565b908152602001604051809103902060006101000a81548160ff02191690836007811115620002ea577f4e487b7100000000000000000000000000000000000000000000000000000000600052602160045260246000fd5b02179055506001600e604051620003019062000950565b908152602001604051809103902060006101000a81548160ff0219169083600781111562000358577f4e487b7100000000000000000000000000000000000000000000000000000000600052602160045260246000fd5b02179055506002600e6040516200036f9062000939565b908152602001604051809103902060006101000a81548160ff02191690836007811115620003c6577f4e487b7100000000000000000000000000000000000000000000000000000000600052602160045260246000fd5b02179055506003600e604051620003dd9062000995565b908152602001604051809103902060006101000a81548160ff0219169083600781111562000434577f4e487b7100000000000000000000000000000000000000000000000000000000600052602160045260246000fd5b02179055506004600e6040516200044b90620009ac565b908152602001604051809103902060006101000a81548160ff02191690836007811115620004a2577f4e487b7100000000000000000000000000000000000000000000000000000000600052602160045260246000fd5b02179055506005600e604051620004b990620009c3565b908152602001604051809103902060006101000a81548160ff0219169083600781111562000510577f4e487b7100000000000000000000000000000000000000000000000000000000600052602160045260246000fd5b02179055506006600e604051620005279062000967565b908152602001604051809103902060006101000a81548160ff021916908360078111156200057e577f4e487b7100000000000000000000000000000000000000000000000000000000600052602160045260246000fd5b021790555062000c70565b600073ffffffffffffffffffffffffffffffffffffffff1660018054906101000a900473ffffffffffffffffffffffffffffffffffffffff1673ffffffffffffffffffffffffffffffffffffffff1614156200061c576040517f08c379a00000000000000000000000000000000000000000000000000000000081526004016200061390620009fc565b60405180910390fd5b60018054906101000a900473ffffffffffffffffffffffffffffffffffffffff1673ffffffffffffffffffffffffffffffffffffffff163373ffffffffffffffffffffffffffffffffffffffff1614620006ad576040517f08c379a0000000000000000000000000000000000000000000000000000000008152600401620006a490620009da565b60405180910390fd5b80600073ffffffffffffffffffffffffffffffffffffffff168173ffffffffffffffffffffffffffffffffffffffff16141562000721576040517f08c379a0000000000000000000000000000000000000000000000000000000008152600401620007189062000a1e565b60405180910390fd5b60016000808473ffffffffffffffffffffffffffffffffffffffff1673ffffffffffffffffffffffffffffffffffffffff16815260200190815260200160002060006101000a81548160ff02191690831515021790555060018060009054906101000a900460ff1662000795919062000a5c565b600160006101000a81548160ff021916908360ff1602179055505050565b6000620007c260038362000a51565b9150620007cf8262000ad6565b600382019050919050565b6000620007e9601e8362000a40565b9150620007f68262000aff565b602082019050919050565b60006200081060178362000a40565b91506200081d8262000b28565b602082019050919050565b60006200083760048362000a51565b9150620008448262000b51565b600482019050919050565b60006200085e60038362000a51565b91506200086b8262000b7a565b600382019050919050565b60006200088560198362000a40565b9150620008928262000ba3565b602082019050919050565b6000620008ac60038362000a51565b9150620008b98262000bcc565b600382019050919050565b6000620008d360038362000a51565b9150620008e08262000bf5565b600382019050919050565b6000620008fa60038362000a51565b9150620009078262000c1e565b600382019050919050565b60006200092160038362000a51565b91506200092e8262000c47565b600382019050919050565b60006200094682620007b3565b9150819050919050565b60006200095d8262000828565b9150819050919050565b600062000974826200084f565b9150819050919050565b60006200098b826200089d565b9150819050919050565b6000620009a282620008c4565b9150819050919050565b6000620009b982620008eb565b9150819050919050565b6000620009d08262000912565b9150819050919050565b60006020820190508181036000830152620009f581620007da565b9050919050565b6000602082019050818103600083015262000a178162000801565b9050919050565b6000602082019050818103600083015262000a398162000876565b9050919050565b600082825260208201905092915050565b600081905092915050565b600062000a698262000a9a565b915062000a768362000a9a565b92508260ff0382111562000a8f5762000a8e62000aa7565b5b828201905092915050565b600060ff82169050919050565b7f4e487b7100000000000000000000000000000000000000000000000000000000600052601160045260246000fd5b7f4f43580000000000000000000000000000000000000000000000000000000000600082015250565b7f466f722063616c6c65722065787065637465642062652063726561746f720000600082015250565b7f496e76616c69642063726561746f722061646472657373000000000000000000600082015250565b7f4f43415400000000000000000000000000000000000000000000000000000000600082015250565b7f4441490000000000000000000000000000000000000000000000000000000000600082015250565b7f4578706563746564206e6f6e2d7a65726f206164647265737300000000000000600082015250565b7f4554480000000000000000000000000000000000000000000000000000000000600082015250565b7f5553440000000000000000000000000000000000000000000000000000000000600082015250565b7f4155440000000000000000000000000000000000000000000000000000000000600082015250565b7f554e490000000000000000000000000000000000000000000000000000000000600082015250565b612d9f8062000c806000396000f3fe608060405234801561001057600080fd5b50600436106101415760003560e01c806370480275116100b8578063bb3f6c6a1161007c578063bb3f6c6a1461036b578063c89be5a514610387578063cdc0eec4146103a3578063d5b76705146103c4578063dbcd9580146103e0578063f887ea401461041057610141565b806370480275146102d65780637ea2b8e0146102f25780638e7f962614610311578063a0a8045e1461032f578063a7d9cfbc1461034d57610141565b806324d7806c1161010a57806324d7806c146101ec5780633edc70ad1461021c5780634ad4f0f51461023a57806359de09611461026b57806361d9285a1461028757806364b60700146102b857610141565b8062e80f3214610146578063045a2ab71461016457806304cbb47f146101945780630e3e0a20146101b25780631a5db30e146101ce575b600080fd5b61014e61042e565b60405161015b919061265b565b60405180910390f35b61017e600480360381019061017991906121c1565b61048f565b60405161018b919061265b565b60405180910390f35b61019c6108d1565b6040516101a99190612676565b60405180910390f35b6101cc60048036038101906101c7919061222d565b6108d7565b005b6101d6610e06565b6040516101e39190612676565b60405180910390f35b610206600480360381019061020191906120a8565b610e0b565b604051610213919061250f565b60405180910390f35b610224610e60565b6040516102319190612676565b60405180910390f35b610254600480360381019061024f91906122ac565b610e66565b604051610262929190612691565b60405180910390f35b610285600480360381019061028091906120d1565b610e9e565b005b6102a1600480360381019061029c919061210d565b611356565b6040516102af929190612691565b60405180910390f35b6102c0611518565b6040516102cd919061265b565b60405180910390f35b6102f060048036038101906102eb91906120a8565b611612565b005b6102fa611831565b604051610308929190612691565b60405180910390f35b610319611842565b6040516103269190612676565b60405180910390f35b610337611848565b604051610344919061265b565b60405180910390f35b610355611942565b6040516103629190612676565b60405180910390f35b610385600480360381019061038091906122ac565b611948565b005b6103a1600480360381019061039c91906122d5565b611952565b005b6103ab611a5f565b6040516103bb94939291906126ba565b60405180910390f35b6103de60048036038101906103d99190612136565b611c04565b005b6103fa60048036038101906103f591906122ac565b611d8b565b6040516104079190612676565b60405180910390f35b610418611ef4565b604051610425919061252a565b60405180910390f35b610436611f1a565b6000610440611518565b9050600061044c611848565b9050604051806040016040528082600001518460000151620f42406104719190612955565b61047b91906127b3565b8152602001600660ff168152509250505090565b610497611f1a565b6000600e846040516104a991906124f8565b908152602001604051809103902060009054906101000a900460ff1690506000600e846040516104d991906124f8565b908152602001604051809103902060009054906101000a900460ff16905060006007811115610531577f4e487b7100000000000000000000000000000000000000000000000000000000600052602160045260246000fd5b6007811115610569577f4e487b7100000000000000000000000000000000000000000000000000000000600052602160045260246000fd5b8260078111156105a2577f4e487b7100000000000000000000000000000000000000000000000000000000600052602160045260246000fd5b1015801561061f57506007808111156105e4577f4e487b7100000000000000000000000000000000000000000000000000000000600052602160045260246000fd5b82600781111561061d577f4e487b7100000000000000000000000000000000000000000000000000000000600052602160045260246000fd5b105b801561074f575060006007811115610660577f4e487b7100000000000000000000000000000000000000000000000000000000600052602160045260246000fd5b6007811115610698577f4e487b7100000000000000000000000000000000000000000000000000000000600052602160045260246000fd5b8160078111156106d1577f4e487b7100000000000000000000000000000000000000000000000000000000600052602160045260246000fd5b1015801561074e5750600780811115610713577f4e487b7100000000000000000000000000000000000000000000000000000000600052602160045260246000fd5b81600781111561074c577f4e487b7100000000000000000000000000000000000000000000000000000000600052602160045260246000fd5b105b5b61078e576040517f08c379a0000000000000000000000000000000000000000000000000000000008152600401610785906125fb565b60405180910390fd5b600d60008360078111156107cb577f4e487b7100000000000000000000000000000000000000000000000000000000600052602160045260246000fd5b6007811115610803577f4e487b7100000000000000000000000000000000000000000000000000000000600052602160045260246000fd5b8152602001908152602001600020600001600082600781111561084f577f4e487b7100000000000000000000000000000000000000000000000000000000600052602160045260246000fd5b6007811115610887577f4e487b7100000000000000000000000000000000000000000000000000000000600052602160045260246000fd5b8152602001908152602001600020604051806040016040529081600082015481526020016001820160009054906101000a900460ff1660ff1660ff16815250509250505092915050565b60075481565b600073ffffffffffffffffffffffffffffffffffffffff163373ffffffffffffffffffffffffffffffffffffffff161415610947576040517f08c379a000000000000000000000000000000000000000000000000000000000815260040161093e906125bb565b60405180910390fd5b6000803373ffffffffffffffffffffffffffffffffffffffff1673ffffffffffffffffffffffffffffffffffffffff16815260200190815260200160002060009054906101000a900460ff166109d2576040517f08c379a00000000000000000000000000000000000000000000000000000000081526004016109c99061263b565b60405180910390fd5b6000600e846040516109e491906124f8565b908152602001604051809103902060009054906101000a900460ff1690506000600e84604051610a1491906124f8565b908152602001604051809103902060009054906101000a900460ff16905060006007811115610a6c577f4e487b7100000000000000000000000000000000000000000000000000000000600052602160045260246000fd5b6007811115610aa4577f4e487b7100000000000000000000000000000000000000000000000000000000600052602160045260246000fd5b826007811115610add577f4e487b7100000000000000000000000000000000000000000000000000000000600052602160045260246000fd5b10158015610b5a5750600780811115610b1f577f4e487b7100000000000000000000000000000000000000000000000000000000600052602160045260246000fd5b826007811115610b58577f4e487b7100000000000000000000000000000000000000000000000000000000600052602160045260246000fd5b105b8015610c8a575060006007811115610b9b577f4e487b7100000000000000000000000000000000000000000000000000000000600052602160045260246000fd5b6007811115610bd3577f4e487b7100000000000000000000000000000000000000000000000000000000600052602160045260246000fd5b816007811115610c0c577f4e487b7100000000000000000000000000000000000000000000000000000000600052602160045260246000fd5b10158015610c895750600780811115610c4e577f4e487b7100000000000000000000000000000000000000000000000000000000600052602160045260246000fd5b816007811115610c87577f4e487b7100000000000000000000000000000000000000000000000000000000600052602160045260246000fd5b105b5b610cc9576040517f08c379a0000000000000000000000000000000000000000000000000000000008152600401610cc0906125fb565b60405180910390fd5b82600d6000836007811115610d07577f4e487b7100000000000000000000000000000000000000000000000000000000600052602160045260246000fd5b6007811115610d3f577f4e487b7100000000000000000000000000000000000000000000000000000000600052602160045260246000fd5b81526020019081526020016000206000016000846007811115610d8b577f4e487b7100000000000000000000000000000000000000000000000000000000600052602160045260246000fd5b6007811115610dc3577f4e487b7100000000000000000000000000000000000000000000000000000000600052602160045260246000fd5b81526020019081526020016000206000820151816000015560208201518160010160006101000a81548160ff021916908360ff1602179055509050505050505050565b600681565b60008060008373ffffffffffffffffffffffffffffffffffffffff1673ffffffffffffffffffffffffffffffffffffffff16815260200190815260200160002060009054906101000a900460ff169050919050565b60085481565b60008060065490506009548311610e7d5760095492505b6034600a54610e8c91906127b3565b83610e979190612955565b9150915091565b600073ffffffffffffffffffffffffffffffffffffffff1660018054906101000a900473ffffffffffffffffffffffffffffffffffffffff1673ffffffffffffffffffffffffffffffffffffffff161415610f2e576040517f08c379a0000000000000000000000000000000000000000000000000000000008152600401610f25906125bb565b60405180910390fd5b60018054906101000a900473ffffffffffffffffffffffffffffffffffffffff1673ffffffffffffffffffffffffffffffffffffffff163373ffffffffffffffffffffffffffffffffffffffff1614610fbc576040517f08c379a0000000000000000000000000000000000000000000000000000000008152600401610fb39061259b565b60405180910390fd5b80600073ffffffffffffffffffffffffffffffffffffffff168173ffffffffffffffffffffffffffffffffffffffff16141561102d576040517f08c379a00000000000000000000000000000000000000000000000000000000081526004016110249061261b565b60405180910390fd5b600073ffffffffffffffffffffffffffffffffffffffff163373ffffffffffffffffffffffffffffffffffffffff16141561109d576040517f08c379a0000000000000000000000000000000000000000000000000000000008152600401611094906125bb565b60405180910390fd5b6000803373ffffffffffffffffffffffffffffffffffffffff1673ffffffffffffffffffffffffffffffffffffffff16815260200190815260200160002060009054906101000a900460ff16611128576040517f08c379a000000000000000000000000000000000000000000000000000000000815260040161111f9061263b565b60405180910390fd5b60006009811115611162577f4e487b7100000000000000000000000000000000000000000000000000000000600052602160045260246000fd5b600981111561119a577f4e487b7100000000000000000000000000000000000000000000000000000000600052602160045260246000fd5b8360098111156111d3577f4e487b7100000000000000000000000000000000000000000000000000000000600052602160045260246000fd5b101580156112505750600980811115611215577f4e487b7100000000000000000000000000000000000000000000000000000000600052602160045260246000fd5b83600981111561124e577f4e487b7100000000000000000000000000000000000000000000000000000000600052602160045260246000fd5b105b61128f576040517f08c379a00000000000000000000000000000000000000000000000000000000081526004016112869061257b565b60405180910390fd5b81600360008560098111156112cd577f4e487b7100000000000000000000000000000000000000000000000000000000600052602160045260246000fd5b6009811115611305577f4e487b7100000000000000000000000000000000000000000000000000000000600052602160045260246000fd5b815260200190815260200160002060006101000a81548173ffffffffffffffffffffffffffffffffffffffff021916908373ffffffffffffffffffffffffffffffffffffffff160217905550505050565b60008060006003811115611393577f4e487b7100000000000000000000000000000000000000000000000000000000600052602160045260246000fd5b8360038111156113cc577f4e487b7100000000000000000000000000000000000000000000000000000000600052602160045260246000fd5b118015611449575060038081111561140d577f4e487b7100000000000000000000000000000000000000000000000000000000600052602160045260246000fd5b836003811115611446577f4e487b7100000000000000000000000000000000000000000000000000000000600052602160045260246000fd5b11155b611488576040517f08c379a000000000000000000000000000000000000000000000000000000000815260040161147f906125db565b60405180910390fd5b600560008460038111156114c5577f4e487b7100000000000000000000000000000000000000000000000000000000600052602160045260246000fd5b60038111156114fd577f4e487b7100000000000000000000000000000000000000000000000000000000600052602160045260246000fd5b81526020019081526020016000205491506006549050915091565b611520611f1a565b6000600460009054906101000a900473ffffffffffffffffffffffffffffffffffffffff1673ffffffffffffffffffffffffffffffffffffffff1663f78eea837f24beead43216e490aa240ef0d32e18c57beea168f06eabb94f5193868d5009466040518263ffffffff1660e01b815260040161159d9190612545565b60606040518083038186803b1580156115b557600080fd5b505afa1580156115c9573d6000803e3d6000fd5b505050506040513d601f19601f820116820180604052508101906115ed9190612172565b50509050808260000181815250506006826020019060ff16908160ff16815250505090565b600073ffffffffffffffffffffffffffffffffffffffff1660018054906101000a900473ffffffffffffffffffffffffffffffffffffffff1673ffffffffffffffffffffffffffffffffffffffff1614156116a2576040517f08c379a0000000000000000000000000000000000000000000000000000000008152600401611699906125bb565b60405180910390fd5b60018054906101000a900473ffffffffffffffffffffffffffffffffffffffff1673ffffffffffffffffffffffffffffffffffffffff163373ffffffffffffffffffffffffffffffffffffffff1614611730576040517f08c379a00000000000000000000000000000000000000000000000000000000081526004016117279061259b565b60405180910390fd5b80600073ffffffffffffffffffffffffffffffffffffffff168173ffffffffffffffffffffffffffffffffffffffff1614156117a1576040517f08c379a00000000000000000000000000000000000000000000000000000000081526004016117989061261b565b60405180910390fd5b60016000808473ffffffffffffffffffffffffffffffffffffffff1673ffffffffffffffffffffffffffffffffffffffff16815260200190815260200160002060006101000a81548160ff02191690831515021790555060018060009054906101000a900460ff16611813919061277c565b600160006101000a81548160ff021916908360ff1602179055505050565b600080600754915060085490509091565b60065481565b611850611f1a565b6000600460009054906101000a900473ffffffffffffffffffffffffffffffffffffffff1673ffffffffffffffffffffffffffffffffffffffff1663f78eea837f3d15f7018db5cc80838b684361aaa100bfadf8a11e02d5c1c92e9c6af47626c86040518263ffffffff1660e01b81526004016118cd9190612560565b60606040518083038186803b1580156118e557600080fd5b505afa1580156118f9573d6000803e3d6000fd5b505050506040513d601f19601f8201168201806040525081019061191d9190612172565b50509050808260000181815250506006826020019060ff16908160ff16815250505090565b60025481565b8060028190555050565b600073ffffffffffffffffffffffffffffffffffffffff163373ffffffffffffffffffffffffffffffffffffffff1614156119c2576040517f08c379a00000000000000000000000000000000000000000000000000000000081526004016119b9906125bb565b60405180910390fd5b6000803373ffffffffffffffffffffffffffffffffffffffff1673ffffffffffffffffffffffffffffffffffffffff16815260200190815260200160002060009054906101000a900460ff16611a4d576040517f08c379a0000000000000000000000000000000000000000000000000000000008152600401611a449061263b565b60405180910390fd5b81600781905550806008819055505050565b600080600080600654905060056000806003811115611aa7577f4e487b7100000000000000000000000000000000000000000000000000000000600052602160045260246000fd5b6003811115611adf577f4e487b7100000000000000000000000000000000000000000000000000000000600052602160045260246000fd5b81526020019081526020016000205493506005600060016003811115611b2e577f4e487b7100000000000000000000000000000000000000000000000000000000600052602160045260246000fd5b6003811115611b66577f4e487b7100000000000000000000000000000000000000000000000000000000600052602160045260246000fd5b81526020019081526020016000205492506005600060026003811115611bb5577f4e487b7100000000000000000000000000000000000000000000000000000000600052602160045260246000fd5b6003811115611bed577f4e487b7100000000000000000000000000000000000000000000000000000000600052602160045260246000fd5b815260200190815260200160002054915090919293565b600073ffffffffffffffffffffffffffffffffffffffff163373ffffffffffffffffffffffffffffffffffffffff161415611c74576040517f08c379a0000000000000000000000000000000000000000000000000000000008152600401611c6b906125bb565b60405180910390fd5b6000803373ffffffffffffffffffffffffffffffffffffffff1673ffffffffffffffffffffffffffffffffffffffff16815260200190815260200160002060009054906101000a900460ff16611cff576040517f08c379a0000000000000000000000000000000000000000000000000000000008152600401611cf69061263b565b60405180910390fd5b8060056000846003811115611d3d577f4e487b7100000000000000000000000000000000000000000000000000000000600052602160045260246000fd5b6003811115611d75577f4e487b7100000000000000000000000000000000000000000000000000000000600052602160045260246000fd5b8152602001908152602001600020819055505050565b60006003600a611d9b9190612837565b6002546003600060016009811115611ddc577f4e487b7100000000000000000000000000000000000000000000000000000000600052602160045260246000fd5b6009811115611e14577f4e487b7100000000000000000000000000000000000000000000000000000000600052602160045260246000fd5b815260200190815260200160002060009054906101000a900473ffffffffffffffffffffffffffffffffffffffff1673ffffffffffffffffffffffffffffffffffffffff1663313ce5676040518163ffffffff1660e01b8152600401602060405180830381600087803b158015611e8a57600080fd5b505af1158015611e9e573d6000803e3d6000fd5b505050506040513d601f19601f82011682018060405250810190611ec29190612311565b600a611ece9190612837565b84611ed99190612955565b611ee39190612955565b611eed91906127b3565b9050919050565b600460009054906101000a900473ffffffffffffffffffffffffffffffffffffffff1681565b604051806040016040528060008152602001600060ff1681525090565b6000611f4a611f4584612724565b6126ff565b905082815260208101848484011115611f6257600080fd5b611f6d848285612a8c565b509392505050565b600081359050611f8481612cd6565b92915050565b600081359050611f9981612ced565b92915050565b600081359050611fae81612d04565b92915050565b600081359050611fc381612d14565b92915050565b600081519050611fd881612d24565b92915050565b600082601f830112611fef57600080fd5b8135611fff848260208601611f37565b91505092915050565b60006040828403121561201a57600080fd5b61202460406126ff565b9050600061203484828501612054565b60008301525060206120488482850161207e565b60208301525092915050565b60008135905061206381612d3b565b92915050565b60008151905061207881612d3b565b92915050565b60008135905061208d81612d52565b92915050565b6000815190506120a281612d52565b92915050565b6000602082840312156120ba57600080fd5b60006120c884828501611f75565b91505092915050565b600080604083850312156120e457600080fd5b60006120f285828601611f9f565b925050602061210385828601611f8a565b9150509250929050565b60006020828403121561211f57600080fd5b600061212d84828501611fb4565b91505092915050565b6000806040838503121561214957600080fd5b600061215785828601611fb4565b925050602061216885828601612054565b9150509250929050565b60008060006060848603121561218757600080fd5b600061219586828701611fc9565b93505060206121a686828701612069565b92505060406121b786828701612069565b9150509250925092565b600080604083850312156121d457600080fd5b600083013567ffffffffffffffff8111156121ee57600080fd5b6121fa85828601611fde565b925050602083013567ffffffffffffffff81111561221757600080fd5b61222385828601611fde565b9150509250929050565b60008060006080848603121561224257600080fd5b600084013567ffffffffffffffff81111561225c57600080fd5b61226886828701611fde565b935050602084013567ffffffffffffffff81111561228557600080fd5b61229186828701611fde565b92505060406122a286828701612008565b9150509250925092565b6000602082840312156122be57600080fd5b60006122cc84828501612054565b91505092915050565b600080604083850312156122e857600080fd5b60006122f685828601612054565b925050602061230785828601612054565b9150509250929050565b60006020828403121561232357600080fd5b600061233184828501612093565b91505092915050565b612343816129d3565b82525050565b61235281612a34565b82525050565b61236181612a58565b82525050565b61237081612a72565b82525050565b600061238182612755565b61238b8185612771565b935061239b818560208601612a9b565b80840191505092915050565b60006123b4601683612760565b91506123bf82612bb7565b602082019050919050565b60006123d7601e83612760565b91506123e282612be0565b602082019050919050565b60006123fa601783612760565b915061240582612c09565b602082019050919050565b600061241d601083612760565b915061242882612c32565b602082019050919050565b6000612440601283612760565b915061244b82612c5b565b602082019050919050565b6000612463601983612760565b915061246e82612c84565b602082019050919050565b6000612486600d83612760565b915061249182612cad565b602082019050919050565b6040820160008201516124b260008501826124cb565b5060208201516124c560208501826124e9565b50505050565b6124d481612a1d565b82525050565b6124e381612a1d565b82525050565b6124f281612a27565b82525050565b60006125048284612376565b915081905092915050565b6000602082019050612524600083018461233a565b92915050565b600060208201905061253f6000830184612349565b92915050565b600060208201905061255a6000830184612358565b92915050565b60006020820190506125756000830184612367565b92915050565b60006020820190508181036000830152612594816123a7565b9050919050565b600060208201905081810360008301526125b4816123ca565b9050919050565b600060208201905081810360008301526125d4816123ed565b9050919050565b600060208201905081810360008301526125f481612410565b9050919050565b6000602082019050818103600083015261261481612433565b9050919050565b6000602082019050818103600083015261263481612456565b9050919050565b6000602082019050818103600083015261265481612479565b9050919050565b6000604082019050612670600083018461249c565b92915050565b600060208201905061268b60008301846124da565b92915050565b60006040820190506126a660008301856124da565b6126b360208301846124da565b9392505050565b60006080820190506126cf60008301876124da565b6126dc60208301866124da565b6126e960408301856124da565b6126f660608301846124da565b95945050505050565b600061270961271a565b90506127158282612ace565b919050565b6000604051905090565b600067ffffffffffffffff82111561273f5761273e612b5d565b5b61274882612b8c565b9050602081019050919050565b600081519050919050565b600082825260208201905092915050565b600081905092915050565b600061278782612a27565b915061279283612a27565b92508260ff038211156127a8576127a7612aff565b5b828201905092915050565b60006127be82612a1d565b91506127c983612a1d565b9250826127d9576127d8612b2e565b5b828204905092915050565b6000808291508390505b600185111561282e5780860481111561280a57612809612aff565b5b60018516156128195780820291505b808102905061282785612baa565b94506127ee565b94509492505050565b600061284282612a1d565b915061284d83612a27565b925061287a7fffffffffffffffffffffffffffffffffffffffffffffffffffffffffffffffff8484612882565b905092915050565b600082612892576001905061294e565b816128a0576000905061294e565b81600181146128b657600281146128c0576128ef565b600191505061294e565b60ff8411156128d2576128d1612aff565b5b8360020a9150848211156128e9576128e8612aff565b5b5061294e565b5060208310610133831016604e8410600b84101617156129245782820a90508381111561291f5761291e612aff565b5b61294e565b61293184848460016127e4565b9250905081840481111561294857612947612aff565b5b81810290505b9392505050565b600061296082612a1d565b915061296b83612a1d565b9250817fffffffffffffffffffffffffffffffffffffffffffffffffffffffffffffffff04831182151516156129a4576129a3612aff565b5b828202905092915050565b60006129ba826129fd565b9050919050565b60006129cc826129fd565b9050919050565b60008115159050919050565b6000819050919050565b6000819050919050565b6000819050919050565b600073ffffffffffffffffffffffffffffffffffffffff82169050919050565b6000819050919050565b600060ff82169050919050565b6000612a3f82612a46565b9050919050565b6000612a51826129fd565b9050919050565b6000612a6b612a66836129e9565b612b9d565b9050919050565b6000612a85612a80836129f3565b612b9d565b9050919050565b82818337600083830152505050565b60005b83811015612ab9578082015181840152602081019050612a9e565b83811115612ac8576000848401525b50505050565b612ad782612b8c565b810181811067ffffffffffffffff82111715612af657612af5612b5d565b5b80604052505050565b7f4e487b7100000000000000000000000000000000000000000000000000000000600052601160045260246000fd5b7f4e487b7100000000000000000000000000000000000000000000000000000000600052601260045260246000fd5b7f4e487b7100000000000000000000000000000000000000000000000000000000600052604160045260246000fd5b6000601f19601f8301169050919050565b60008160001b9050919050565b60008160011c9050919050565b7f496e76616c696420636f6e747261637420696e64657800000000000000000000600082015250565b7f466f722063616c6c65722065787065637465642062652063726561746f720000600082015250565b7f496e76616c69642063726561746f722061646472657373000000000000000000600082015250565b7f496e76616c696420666565207479706500000000000000000000000000000000600082015250565b7f496e76616c696420636f696e20696e6465780000000000000000000000000000600082015250565b7f4578706563746564206e6f6e2d7a65726f206164647265737300000000000000600082015250565b7f4d7573742062652061646d696e00000000000000000000000000000000000000600082015250565b612cdf816129af565b8114612cea57600080fd5b50565b612cf6816129c1565b8114612d0157600080fd5b50565b600a8110612d1157600080fd5b50565b60048110612d2157600080fd5b50565b612d2d816129df565b8114612d3857600080fd5b50565b612d4481612a1d565b8114612d4f57600080fd5b50565b612d5b81612a27565b8114612d6657600080fd5b5056fea26469706673582212207edf7099ca32471b7bd305b945e2364c9de44c29796d159ed2b3553976d03c8a64736f6c63430008040033",
  "immutableReferences": {},
  "source": "// SPDX-License-Identifier: MIT\r\npragma solidity ^0.8.0;\r\n\r\nimport \"witnet-solidity-bridge/contracts/interfaces/IWitnetPriceRouter.sol\";\r\nimport \"./OcxBase.sol\";\r\nimport \"./interface/IOcxPriceOracle.sol\";\r\n\r\ncontract OcxPriceOracle is OcxBase, IOcxPriceOracle {\r\n\r\n    IWitnetPriceRouter public router;\r\n    mapping(FeeType => uint256) internal feePercentages;\r\n    uint256  public _feePercentageDecimals = 6;\r\n    uint256  public applicationFee = 100;\r\n    uint256  public valuationFee = 50;\r\n    uint256  private minimumPawnablePrice = 5000;\r\n    uint256  private weeklyFeePercentage = 62400; // 6.24%\r\n    OcxPrice  private ethAudPrice;\r\n    mapping(CurrencyIndex => CurrencyPriceInfo) private currencyPrice;\r\n    uint256  public constant FIAT_PRICE_DECIMALS = 6;\r\n    mapping(string => CurrencyIndex) currencyNameIndexMap;\r\n\r\n    /**\r\n     * IMPORTANT: replace the address below with the WitnetPriceRouter address\r\n     * of the network you are using! Please find the address here:\r\n     * https://docs.witnet.io/smart-contracts/price-feeds/contract-addresses\r\n     */\r\n    constructor() {\r\n        // router = IWitnetPriceRouter(0x83a757eae821ad7b520d9a74952337138a80b2af); // for MainNet\r\n        router = IWitnetPriceRouter(0x1cF3Aa9DBF4880d797945726B94B9d29164211BE); // for Goerli\r\n        feePercentages[FeeType.PNFT_MINT_FEE] = 8000; // 0.8% \r\n        feePercentages[FeeType.PNFT_OCAT_SWAP_FEE] = 8000; // 0.8% \r\n        feePercentages[FeeType.OCAT_PNFT_SWAP_FEE] = 8000; // 0.8%\r\n\r\n        currencyNameIndexMap[\"ETH\"] = CurrencyIndex.ETH;\r\n        currencyNameIndexMap[\"OCAT\"] = CurrencyIndex.OCAT;\r\n        currencyNameIndexMap[\"OCX\"] = CurrencyIndex.OCX;\r\n        currencyNameIndexMap[\"USD\"] = CurrencyIndex.USD;\r\n        currencyNameIndexMap[\"AUD\"] = CurrencyIndex.AUD;\r\n        currencyNameIndexMap[\"UNI\"] = CurrencyIndex.UNI;\r\n        currencyNameIndexMap[\"DAI\"] = CurrencyIndex.DAI;\r\n    }\r\n    /* \r\n     * feeValue = real_percent_value * (10 ** _feePercentageDecimals) = real_percent_value * 10^6\r\n     */\r\n    function setFeePercentage(FeeType feeType, uint256 percentValue) public override\r\n    onlyAdmin {\r\n        feePercentages[feeType] = percentValue;\r\n    }\r\n    function getFeePercentage(FeeType feeType) public view override\r\n    returns(uint256 percentage, uint256 feeDecimals) {\r\n        require(feeType > FeeType.PNFT_MINT_FEE && \r\n                feeType <= FeeType.FEE_TYPE_SIZE, \"Invalid fee type\");\r\n        percentage = feePercentages[feeType];\r\n        feeDecimals = _feePercentageDecimals;\r\n    }\r\n    function setSubmitFee(uint256 _applicationFee, uint256 _valuationFee) public override\r\n    onlyAdmin {\r\n        applicationFee = _applicationFee;\r\n        valuationFee = _valuationFee;\r\n    }\r\n    /*\r\n     * Returns value of the application and valuation fee in fiat currency($)\r\n     */\r\n    function getSubmitFee() public view override\r\n    returns (uint256 application, uint256 valuation) {\r\n        application = applicationFee;\r\n        valuation = valuationFee;\r\n    }\r\n    function getWeeklyFee(uint256 assetPrice) public view override\r\n    returns(uint256 value, uint256 feeDecimals) {\r\n        feeDecimals = _feePercentageDecimals;\r\n        if (assetPrice <= minimumPawnablePrice) {\r\n            assetPrice = minimumPawnablePrice;\r\n        }\r\n        value = assetPrice * (weeklyFeePercentage / 52);\r\n    }\r\n    function getPnftFeePercentages() public view override\r\n    returns(uint256 mintFee, uint256 loanFee, uint256 restoreFee, uint256 feeDecimals) {\r\n        feeDecimals = _feePercentageDecimals;\r\n        mintFee = feePercentages[FeeType.PNFT_MINT_FEE];\r\n        loanFee = feePercentages[FeeType.PNFT_OCAT_SWAP_FEE];\r\n        restoreFee = feePercentages[FeeType.OCAT_PNFT_SWAP_FEE];\r\n    }\r\n    /// Returns the BTC / USD price (6 decimals), ultimately provided by the Witnet oracle.\r\n    function getBtcUsdPrice() public view override\r\n    returns (OcxPrice memory priceObj) {\r\n        (int256 _v,,) = router.valueFor(0x24beead43216e490aa240ef0d32e18c57beea168f06eabb94f5193868d500946);\r\n        priceObj.value = uint256(_v);\r\n        priceObj.decimals = 6;\r\n    }\r\n    /// Returns the ETH / USD price (6 decimals), ultimately provided by the Witnet oracle.\r\n    function getEthUsdPrice() public view override\r\n    returns (OcxPrice memory priceObj) {\r\n        (int256 _v,,) = router.valueFor(0x3d15f7018db5cc80838b684361aaa100bfadf8a11e02d5c1c92e9c6af47626c8);\r\n        priceObj.value = uint256(_v);\r\n        priceObj.decimals = 6;\r\n    }\r\n    /// Returns the BTC / ETH price (6 decimals), derived from the ETH/USD and \r\n    /// the BTC/USD pairs that were ultimately provided by the Witnet oracle.\r\n    function getBtcEthPrice() public view override\r\n    returns (OcxPrice memory) {\r\n        OcxPrice memory btcUsdPrice = getBtcUsdPrice();\r\n        OcxPrice memory ethUsdPrice = getEthUsdPrice();\r\n        return OcxPrice((1000000 * btcUsdPrice.value) / ethUsdPrice.value, 6);\r\n    }\r\n    // price must be value was timed by 10^6\r\n    function setCurrencyRatio(string memory leftCurrencyName, string memory rightCurrencyName, OcxPrice memory priceObj) \r\n    public override onlyAdmin {\r\n        CurrencyIndex srcCurrencyIndex = currencyNameIndexMap[leftCurrencyName];\r\n        CurrencyIndex dstCurrencyIndex = currencyNameIndexMap[rightCurrencyName];\r\n        require (\r\n            (srcCurrencyIndex >= CurrencyIndex(0) && srcCurrencyIndex < CurrencyIndex.CURRENCY_COUNT) &&\r\n            (dstCurrencyIndex >= CurrencyIndex(0) && dstCurrencyIndex < CurrencyIndex.CURRENCY_COUNT),\r\n            \"Invalid coin index\"\r\n        );\r\n        currencyPrice[dstCurrencyIndex].vs[srcCurrencyIndex] = priceObj;\r\n    }\r\n    function getCurrencyRatio(string memory leftCurrencyName, string memory rightCurrencyName) \r\n    public view override \r\n    returns(OcxPrice memory ) {\r\n        CurrencyIndex srcCurrencyIndex = currencyNameIndexMap[leftCurrencyName];\r\n        CurrencyIndex dstCurrencyIndex = currencyNameIndexMap[rightCurrencyName];\r\n        require (\r\n            (srcCurrencyIndex >= CurrencyIndex(0) && srcCurrencyIndex < CurrencyIndex.CURRENCY_COUNT) &&\r\n            (dstCurrencyIndex >= CurrencyIndex(0) && dstCurrencyIndex < CurrencyIndex.CURRENCY_COUNT),\r\n            \"Invalid coin index\"\r\n        );\r\n        return currencyPrice[srcCurrencyIndex].vs[dstCurrencyIndex];\r\n    }\r\n}",
  "sourcePath": "F:\\Workspace\\OpenChainDex\\OpenchainTestVersion\\server\\contracts\\OcxPriceOracle.sol",
  "compiler": {
    "name": "solc",
    "version": "0.8.4+commit.c7e474f2.Emscripten.clang"
  },
  "schemaVersion": "3.4.7",
  "updatedAt": "2022-05-03T09:48:27.359Z",
  "networkType": "ethereum",
  "devdoc": {
    "kind": "dev",
    "methods": {},
    "version": 1
  },
  "userdoc": {
    "kind": "user",
    "methods": {
      "constructor": {
        "notice": "IMPORTANT: replace the address below with the WitnetPriceRouter address of the network you are using! Please find the address here: https://docs.witnet.io/smart-contracts/price-feeds/contract-addresses"
      },
      "getBtcEthPrice()": {
        "notice": "Returns the BTC / ETH price (6 decimals), derived from the ETH/USD and  the BTC/USD pairs that were ultimately provided by the Witnet oracle."
      },
      "getBtcUsdPrice()": {
        "notice": "Returns the BTC / USD price (6 decimals), ultimately provided by the Witnet oracle."
      },
      "getEthUsdPrice()": {
        "notice": "Returns the ETH / USD price (6 decimals), ultimately provided by the Witnet oracle."
      }
    },
    "version": 1
  }
}