{
  "contractName": "OcxPriceOracle",
  "abi": [
    {
      "inputs": [],
      "stateMutability": "nonpayable",
      "type": "constructor"
    },
    {
      "inputs": [],
      "name": "router",
      "outputs": [
        {
          "internalType": "contract IWitnetPriceRouter",
          "name": "",
          "type": "address"
        }
      ],
      "stateMutability": "view",
      "type": "function"
    },
    {
      "inputs": [],
      "name": "getBtcUsdPrice",
      "outputs": [
        {
          "internalType": "int256",
          "name": "_price",
          "type": "int256"
        }
      ],
      "stateMutability": "view",
      "type": "function"
    },
    {
      "inputs": [],
      "name": "getEthUsdPrice",
      "outputs": [
        {
          "internalType": "int256",
          "name": "_price",
          "type": "int256"
        }
      ],
      "stateMutability": "view",
      "type": "function"
    },
    {
      "inputs": [],
      "name": "getBtcEthPrice",
      "outputs": [
        {
          "internalType": "int256",
          "name": "_price",
          "type": "int256"
        }
      ],
      "stateMutability": "view",
      "type": "function"
    }
  ],
  "bytecode": "0x608060405234801561001057600080fd5b50731cf3aa9dbf4880d797945726b94b9d29164211be6000806101000a81548173ffffffffffffffffffffffffffffffffffffffff021916908373ffffffffffffffffffffffffffffffffffffffff1602179055506106d8806100746000396000f3fe608060405234801561001057600080fd5b506004361061004b5760003560e01c8062e80f321461005057806364b607001461006e578063a0a8045e1461008c578063f887ea40146100aa575b600080fd5b6100586100c8565b6040516100659190610397565b60405180910390f35b6100766100f7565b6040516100839190610397565b60405180910390f35b6100946101cd565b6040516100a19190610397565b60405180910390f35b6100b26102a3565b6040516100bf919061037c565b60405180910390f35b60006100d26101cd565b6100da6100f7565b620f42406100e89190610452565b6100f291906103e8565b905090565b60008060009054906101000a900473ffffffffffffffffffffffffffffffffffffffff1673ffffffffffffffffffffffffffffffffffffffff1663f78eea837f24beead43216e490aa240ef0d32e18c57beea168f06eabb94f5193868d5009466040518263ffffffff1660e01b815260040161017391906103b2565b60606040518083038186803b15801561018b57600080fd5b505afa15801561019f573d6000803e3d6000fd5b505050506040513d601f19601f820116820180604052508101906101c391906102f1565b9050508091505090565b60008060009054906101000a900473ffffffffffffffffffffffffffffffffffffffff1673ffffffffffffffffffffffffffffffffffffffff1663f78eea837f3d15f7018db5cc80838b684361aaa100bfadf8a11e02d5c1c92e9c6af47626c86040518263ffffffff1660e01b815260040161024991906103cd565b60606040518083038186803b15801561026157600080fd5b505afa158015610275573d6000803e3d6000fd5b505050506040513d601f19601f8201168201806040525081019061029991906102f1565b9050508091505090565b60008054906101000a900473ffffffffffffffffffffffffffffffffffffffff1681565b6000815190506102d681610674565b92915050565b6000815190506102eb8161068b565b92915050565b60008060006060848603121561030657600080fd5b6000610314868287016102c7565b9350506020610325868287016102dc565b9250506040610336868287016102dc565b9150509250925092565b610349816105b1565b82525050565b61035881610569565b82525050565b610367816105d5565b82525050565b610376816105ef565b82525050565b60006020820190506103916000830184610340565b92915050565b60006020820190506103ac600083018461034f565b92915050565b60006020820190506103c7600083018461035e565b92915050565b60006020820190506103e2600083018461036d565b92915050565b60006103f382610569565b91506103fe83610569565b92508261040e5761040d610638565b5b600160000383147f80000000000000000000000000000000000000000000000000000000000000008314161561044757610446610609565b5b828205905092915050565b600061045d82610569565b915061046883610569565b9250827f7fffffffffffffffffffffffffffffffffffffffffffffffffffffffffffffff04821160008413600084131616156104a7576104a6610609565b5b817f800000000000000000000000000000000000000000000000000000000000000005831260008412600084131616156104e4576104e3610609565b5b827f8000000000000000000000000000000000000000000000000000000000000000058212600084136000841216161561052157610520610609565b5b827f7fffffffffffffffffffffffffffffffffffffffffffffffffffffffffffffff058212600084126000841216161561055e5761055d610609565b5b828202905092915050565b6000819050919050565b6000819050919050565b6000819050919050565b600073ffffffffffffffffffffffffffffffffffffffff82169050919050565b6000819050919050565b60006105bc826105c3565b9050919050565b60006105ce82610587565b9050919050565b60006105e86105e383610573565b610667565b9050919050565b60006106026105fd8361057d565b610667565b9050919050565b7f4e487b7100000000000000000000000000000000000000000000000000000000600052601160045260246000fd5b7f4e487b7100000000000000000000000000000000000000000000000000000000600052601260045260246000fd5b60008160001b9050919050565b61067d81610569565b811461068857600080fd5b50565b610694816105a7565b811461069f57600080fd5b5056fea2646970667358221220008421f1cf887f2f3b62b27329f6ca3c59c616d318489c727ee02fce1c2424ba64736f6c63430008040033",
  "immutableReferences": {},
  "source": "// SPDX-License-Identifier: MIT\npragma solidity ^0.8.0;\n\nimport \"witnet-solidity-bridge/contracts/interfaces/IWitnetPriceRouter.sol\";\n\ncontract OcxPriceOracle {\n    IWitnetPriceRouter public router;\n    \n    /**\n     * IMPORTANT: replace the address below with the WitnetPriceRouter address\n     * of the network you are using! Please find the address here:\n     * https://docs.witnet.io/smart-contracts/price-feeds/contract-addresses\n     */\n    constructor() {\n        // router = IWitnetPriceRouter(0x83a757eae821ad7b520d9a74952337138a80b2af); // for MainNet\n        router = IWitnetPriceRouter(0x1cF3Aa9DBF4880d797945726B94B9d29164211BE); // for Goerli\n    }\n    \n    /// Returns the BTC / USD price (6 decimals), ultimately provided by the Witnet oracle.\n    function getBtcUsdPrice() public view returns (int256 _price) {\n        (_price,,) = router.valueFor(0x24beead43216e490aa240ef0d32e18c57beea168f06eabb94f5193868d500946);\n    }\n    \n    /// Returns the ETH / USD price (6 decimals), ultimately provided by the Witnet oracle.\n    function getEthUsdPrice() public view returns (int256 _price) {\n        (_price,,) = router.valueFor(0x3d15f7018db5cc80838b684361aaa100bfadf8a11e02d5c1c92e9c6af47626c8);\n    }\n    \n    /// Returns the BTC / ETH price (6 decimals), derived from the ETH/USD and \n    /// the BTC/USD pairs that were ultimately provided by the Witnet oracle.\n    function getBtcEthPrice() public view returns (int256 _price) {\n        return (1000000 * getBtcUsdPrice()) / getEthUsdPrice();\n    }\n}",
  "sourcePath": "/home/openchainx/OpenchainTestVersion/server/contracts/OcxPriceOracle.sol",
  "compiler": {
    "name": "solc",
    "version": "0.8.4+commit.c7e474f2.Emscripten.clang"
  },
  "schemaVersion": "3.4.6",
  "updatedAt": "2022-04-08T17:23:46.981Z",
  "devdoc": {
    "kind": "dev",
    "methods": {},
    "version": 1
  },
  "userdoc": {
    "kind": "user",
    "methods": {
      "constructor": {
        "notice": "IMPORTANT: replace the address below with the WitnetPriceRouter address of the network you are using! Please find the address here: https://docs.witnet.io/smart-contracts/price-feeds/contract-addresses"
      },
      "getBtcEthPrice()": {
        "notice": "Returns the BTC / ETH price (6 decimals), derived from the ETH/USD and  the BTC/USD pairs that were ultimately provided by the Witnet oracle."
      },
      "getBtcUsdPrice()": {
        "notice": "Returns the BTC / USD price (6 decimals), ultimately provided by the Witnet oracle."
      },
      "getEthUsdPrice()": {
        "notice": "Returns the ETH / USD price (6 decimals), ultimately provided by the Witnet oracle."
      }
    },
    "version": 1
  }
}