{
  "contractName": "OcxPriceOracle",
  "abi": [
    {
      "inputs": [],
      "stateMutability": "nonpayable",
      "type": "constructor"
    },
    {
      "inputs": [],
      "name": "FIAT_PRICE_DECIMALS",
      "outputs": [
        {
          "internalType": "uint256",
          "name": "",
          "type": "uint256"
        }
      ],
      "stateMutability": "view",
      "type": "function",
      "constant": true
    },
    {
      "inputs": [],
      "name": "_feePercentageDecimals",
      "outputs": [
        {
          "internalType": "uint256",
          "name": "",
          "type": "uint256"
        }
      ],
      "stateMutability": "view",
      "type": "function",
      "constant": true
    },
    {
      "inputs": [
        {
          "internalType": "address",
          "name": "_admin",
          "type": "address"
        }
      ],
      "name": "addAdmin",
      "outputs": [],
      "stateMutability": "nonpayable",
      "type": "function"
    },
    {
      "inputs": [],
      "name": "applicationFee",
      "outputs": [
        {
          "internalType": "uint256",
          "name": "",
          "type": "uint256"
        }
      ],
      "stateMutability": "view",
      "type": "function",
      "constant": true
    },
    {
      "inputs": [
        {
          "internalType": "uint256",
          "name": "price",
          "type": "uint256"
        }
      ],
      "name": "convertToOcat",
      "outputs": [
        {
          "internalType": "uint256",
          "name": "_ocatPrice",
          "type": "uint256"
        }
      ],
      "stateMutability": "nonpayable",
      "type": "function"
    },
    {
      "inputs": [
        {
          "internalType": "address",
          "name": "_address",
          "type": "address"
        }
      ],
      "name": "isAdmin",
      "outputs": [
        {
          "internalType": "bool",
          "name": "yes",
          "type": "bool"
        }
      ],
      "stateMutability": "view",
      "type": "function",
      "constant": true
    },
    {
      "inputs": [],
      "name": "ocatPrice",
      "outputs": [
        {
          "internalType": "uint256",
          "name": "",
          "type": "uint256"
        }
      ],
      "stateMutability": "view",
      "type": "function",
      "constant": true
    },
    {
      "inputs": [],
      "name": "router",
      "outputs": [
        {
          "internalType": "contract IWitnetPriceRouter",
          "name": "",
          "type": "address"
        }
      ],
      "stateMutability": "view",
      "type": "function",
      "constant": true
    },
    {
      "inputs": [
        {
          "internalType": "enum CommonContracts",
          "name": "contractIndex",
          "type": "uint8"
        },
        {
          "internalType": "address payable",
          "name": "_address",
          "type": "address"
        }
      ],
      "name": "setAddress",
      "outputs": [],
      "stateMutability": "nonpayable",
      "type": "function"
    },
    {
      "inputs": [
        {
          "internalType": "uint256",
          "name": "price",
          "type": "uint256"
        }
      ],
      "name": "setOcatPrice",
      "outputs": [],
      "stateMutability": "nonpayable",
      "type": "function"
    },
    {
      "inputs": [],
      "name": "valuationFee",
      "outputs": [
        {
          "internalType": "uint256",
          "name": "",
          "type": "uint256"
        }
      ],
      "stateMutability": "view",
      "type": "function",
      "constant": true
    },
    {
      "inputs": [
        {
          "internalType": "enum FeeType",
          "name": "feeType",
          "type": "uint8"
        },
        {
          "internalType": "uint256",
          "name": "percentValue",
          "type": "uint256"
        }
      ],
      "name": "setFeePercentage",
      "outputs": [],
      "stateMutability": "nonpayable",
      "type": "function"
    },
    {
      "inputs": [
        {
          "internalType": "enum FeeType",
          "name": "feeType",
          "type": "uint8"
        }
      ],
      "name": "getFeePercentage",
      "outputs": [
        {
          "internalType": "uint256",
          "name": "percentage",
          "type": "uint256"
        },
        {
          "internalType": "uint256",
          "name": "feeDecimals",
          "type": "uint256"
        }
      ],
      "stateMutability": "view",
      "type": "function",
      "constant": true
    },
    {
      "inputs": [
        {
          "internalType": "uint256",
          "name": "_applicationFee",
          "type": "uint256"
        },
        {
          "internalType": "uint256",
          "name": "_valuationFee",
          "type": "uint256"
        }
      ],
      "name": "setSubmitFee",
      "outputs": [],
      "stateMutability": "nonpayable",
      "type": "function"
    },
    {
      "inputs": [],
      "name": "getSubmitFee",
      "outputs": [
        {
          "internalType": "uint256",
          "name": "application",
          "type": "uint256"
        },
        {
          "internalType": "uint256",
          "name": "valuation",
          "type": "uint256"
        }
      ],
      "stateMutability": "view",
      "type": "function",
      "constant": true
    },
    {
      "inputs": [
        {
          "internalType": "uint256",
          "name": "assetPrice",
          "type": "uint256"
        }
      ],
      "name": "getWeeklyFee",
      "outputs": [
        {
          "internalType": "uint256",
          "name": "value",
          "type": "uint256"
        },
        {
          "internalType": "uint256",
          "name": "feeDecimals",
          "type": "uint256"
        }
      ],
      "stateMutability": "view",
      "type": "function",
      "constant": true
    },
    {
      "inputs": [],
      "name": "getPnftFeePercentages",
      "outputs": [
        {
          "internalType": "uint256",
          "name": "mintFee",
          "type": "uint256"
        },
        {
          "internalType": "uint256",
          "name": "loanFee",
          "type": "uint256"
        },
        {
          "internalType": "uint256",
          "name": "restoreFee",
          "type": "uint256"
        },
        {
          "internalType": "uint256",
          "name": "feeDecimals",
          "type": "uint256"
        }
      ],
      "stateMutability": "view",
      "type": "function",
      "constant": true
    },
    {
      "inputs": [],
      "name": "getBtcUsdPrice",
      "outputs": [
        {
          "components": [
            {
              "internalType": "uint256",
              "name": "value",
              "type": "uint256"
            },
            {
              "internalType": "uint8",
              "name": "decimals",
              "type": "uint8"
            }
          ],
          "internalType": "struct OcxPrice",
          "name": "priceObj",
          "type": "tuple"
        }
      ],
      "stateMutability": "view",
      "type": "function",
      "constant": true
    },
    {
      "inputs": [],
      "name": "getEthUsdPrice",
      "outputs": [
        {
          "components": [
            {
              "internalType": "uint256",
              "name": "value",
              "type": "uint256"
            },
            {
              "internalType": "uint8",
              "name": "decimals",
              "type": "uint8"
            }
          ],
          "internalType": "struct OcxPrice",
          "name": "priceObj",
          "type": "tuple"
        }
      ],
      "stateMutability": "view",
      "type": "function",
      "constant": true
    },
    {
      "inputs": [],
      "name": "getBtcEthPrice",
      "outputs": [
        {
          "components": [
            {
              "internalType": "uint256",
              "name": "value",
              "type": "uint256"
            },
            {
              "internalType": "uint8",
              "name": "decimals",
              "type": "uint8"
            }
          ],
          "internalType": "struct OcxPrice",
          "name": "",
          "type": "tuple"
        }
      ],
      "stateMutability": "view",
      "type": "function",
      "constant": true
    }
  ],
  "bytecode": "0x6080604052600680556064600755603260085561138860095561f3c0600a553480156200002b57600080fd5b50336001806101000a81548173ffffffffffffffffffffffffffffffffffffffff021916908373ffffffffffffffffffffffffffffffffffffffff1602179055506200007d336200058960201b60201c565b6103e8600281905550731cf3aa9dbf4880d797945726b94b9d29164211be600460006101000a81548173ffffffffffffffffffffffffffffffffffffffff021916908373ffffffffffffffffffffffffffffffffffffffff160217905550611f40600560008060038111156200011c577f4e487b7100000000000000000000000000000000000000000000000000000000600052602160045260246000fd5b600381111562000155577f4e487b7100000000000000000000000000000000000000000000000000000000600052602160045260246000fd5b815260200190815260200160002081905550611f406005600060016003811115620001a9577f4e487b7100000000000000000000000000000000000000000000000000000000600052602160045260246000fd5b6003811115620001e2577f4e487b7100000000000000000000000000000000000000000000000000000000600052602160045260246000fd5b815260200190815260200160002081905550611f40600560006002600381111562000236577f4e487b7100000000000000000000000000000000000000000000000000000000600052602160045260246000fd5b60038111156200026f577f4e487b7100000000000000000000000000000000000000000000000000000000600052602160045260246000fd5b8152602001908152602001600020819055506000600e60405162000293906200097e565b908152602001604051809103902060006101000a81548160ff02191690836007811115620002ea577f4e487b7100000000000000000000000000000000000000000000000000000000600052602160045260246000fd5b02179055506001600e604051620003019062000950565b908152602001604051809103902060006101000a81548160ff0219169083600781111562000358577f4e487b7100000000000000000000000000000000000000000000000000000000600052602160045260246000fd5b02179055506002600e6040516200036f9062000939565b908152602001604051809103902060006101000a81548160ff02191690836007811115620003c6577f4e487b7100000000000000000000000000000000000000000000000000000000600052602160045260246000fd5b02179055506003600e604051620003dd9062000995565b908152602001604051809103902060006101000a81548160ff0219169083600781111562000434577f4e487b7100000000000000000000000000000000000000000000000000000000600052602160045260246000fd5b02179055506004600e6040516200044b90620009ac565b908152602001604051809103902060006101000a81548160ff02191690836007811115620004a2577f4e487b7100000000000000000000000000000000000000000000000000000000600052602160045260246000fd5b02179055506005600e604051620004b990620009c3565b908152602001604051809103902060006101000a81548160ff0219169083600781111562000510577f4e487b7100000000000000000000000000000000000000000000000000000000600052602160045260246000fd5b02179055506006600e604051620005279062000967565b908152602001604051809103902060006101000a81548160ff021916908360078111156200057e577f4e487b7100000000000000000000000000000000000000000000000000000000600052602160045260246000fd5b021790555062000c70565b600073ffffffffffffffffffffffffffffffffffffffff1660018054906101000a900473ffffffffffffffffffffffffffffffffffffffff1673ffffffffffffffffffffffffffffffffffffffff1614156200061c576040517f08c379a00000000000000000000000000000000000000000000000000000000081526004016200061390620009fc565b60405180910390fd5b60018054906101000a900473ffffffffffffffffffffffffffffffffffffffff1673ffffffffffffffffffffffffffffffffffffffff163373ffffffffffffffffffffffffffffffffffffffff1614620006ad576040517f08c379a0000000000000000000000000000000000000000000000000000000008152600401620006a490620009da565b60405180910390fd5b80600073ffffffffffffffffffffffffffffffffffffffff168173ffffffffffffffffffffffffffffffffffffffff16141562000721576040517f08c379a0000000000000000000000000000000000000000000000000000000008152600401620007189062000a1e565b60405180910390fd5b60016000808473ffffffffffffffffffffffffffffffffffffffff1673ffffffffffffffffffffffffffffffffffffffff16815260200190815260200160002060006101000a81548160ff02191690831515021790555060018060009054906101000a900460ff1662000795919062000a5c565b600160006101000a81548160ff021916908360ff1602179055505050565b6000620007c260038362000a51565b9150620007cf8262000ad6565b600382019050919050565b6000620007e9601e8362000a40565b9150620007f68262000aff565b602082019050919050565b60006200081060178362000a40565b91506200081d8262000b28565b602082019050919050565b60006200083760048362000a51565b9150620008448262000b51565b600482019050919050565b60006200085e60038362000a51565b91506200086b8262000b7a565b600382019050919050565b60006200088560198362000a40565b9150620008928262000ba3565b602082019050919050565b6000620008ac60038362000a51565b9150620008b98262000bcc565b600382019050919050565b6000620008d360038362000a51565b9150620008e08262000bf5565b600382019050919050565b6000620008fa60038362000a51565b9150620009078262000c1e565b600382019050919050565b60006200092160038362000a51565b91506200092e8262000c47565b600382019050919050565b60006200094682620007b3565b9150819050919050565b60006200095d8262000828565b9150819050919050565b600062000974826200084f565b9150819050919050565b60006200098b826200089d565b9150819050919050565b6000620009a282620008c4565b9150819050919050565b6000620009b982620008eb565b9150819050919050565b6000620009d08262000912565b9150819050919050565b60006020820190508181036000830152620009f581620007da565b9050919050565b6000602082019050818103600083015262000a178162000801565b9050919050565b6000602082019050818103600083015262000a398162000876565b9050919050565b600082825260208201905092915050565b600081905092915050565b600062000a698262000a9a565b915062000a768362000a9a565b92508260ff0382111562000a8f5762000a8e62000aa7565b5b828201905092915050565b600060ff82169050919050565b7f4e487b7100000000000000000000000000000000000000000000000000000000600052601160045260246000fd5b7f4f43580000000000000000000000000000000000000000000000000000000000600082015250565b7f466f722063616c6c65722065787065637465642062652063726561746f720000600082015250565b7f496e76616c69642063726561746f722061646472657373000000000000000000600082015250565b7f4f43415400000000000000000000000000000000000000000000000000000000600082015250565b7f4441490000000000000000000000000000000000000000000000000000000000600082015250565b7f4578706563746564206e6f6e2d7a65726f206164647265737300000000000000600082015250565b7f4554480000000000000000000000000000000000000000000000000000000000600082015250565b7f5553440000000000000000000000000000000000000000000000000000000000600082015250565b7f4155440000000000000000000000000000000000000000000000000000000000600082015250565b7f554e490000000000000000000000000000000000000000000000000000000000600082015250565b6120458062000c806000396000f3fe608060405234801561001057600080fd5b506004361061012b5760003560e01c80637ea2b8e0116100ad578063c89be5a511610071578063c89be5a514610325578063cdc0eec414610341578063d5b7670514610362578063dbcd95801461037e578063f887ea40146103ae5761012b565b80637ea2b8e0146102905780638e7f9626146102af578063a0a8045e146102cd578063a7d9cfbc146102eb578063bb3f6c6a146103095761012b565b80633edc70ad116100f45780633edc70ad146101d65780634ad4f0f5146101f457806361d9285a1461022557806364b607001461025657806370480275146102745761012b565b8062e80f321461013057806304cbb47f1461014e5780630589c4e51461016c5780631a5db30e1461018857806324d7806c146101a6575b600080fd5b6101386103cc565b6040516101459190611a49565b60405180910390f35b61015661042d565b6040516101639190611a64565b60405180910390f35b61018660048036038101906101819190611635565b610433565b005b6101906108eb565b60405161019d9190611a64565b60405180910390f35b6101c060048036038101906101bb919061160c565b6108f0565b6040516101cd919061191d565b60405180910390f35b6101de610945565b6040516101eb9190611a64565b60405180910390f35b61020e60048036038101906102099190611725565b61094b565b60405161021c929190611a7f565b60405180910390f35b61023f600480360381019061023a9190611671565b610983565b60405161024d929190611a7f565b60405180910390f35b61025e610b45565b60405161026b9190611a49565b60405180910390f35b61028e6004803603810190610289919061160c565b610c3f565b005b610298610e5e565b6040516102a6929190611a7f565b60405180910390f35b6102b7610e6f565b6040516102c49190611a64565b60405180910390f35b6102d5610e75565b6040516102e29190611a49565b60405180910390f35b6102f3610f6f565b6040516103009190611a64565b60405180910390f35b610323600480360381019061031e9190611725565b610f75565b005b61033f600480360381019061033a919061174e565b610f7f565b005b61034961108c565b6040516103599493929190611aa8565b60405180910390f35b61037c6004803603810190610377919061169a565b611231565b005b61039860048036038101906103939190611725565b6113b8565b6040516103a59190611a64565b60405180910390f35b6103b6611521565b6040516103c39190611938565b60405180910390f35b6103d4611547565b60006103de610b45565b905060006103ea610e75565b9050604051806040016040528082600001518460000151620f424061040f9190611cd7565b6104199190611b35565b8152602001600660ff168152509250505090565b60075481565b600073ffffffffffffffffffffffffffffffffffffffff1660018054906101000a900473ffffffffffffffffffffffffffffffffffffffff1673ffffffffffffffffffffffffffffffffffffffff1614156104c3576040517f08c379a00000000000000000000000000000000000000000000000000000000081526004016104ba906119c9565b60405180910390fd5b60018054906101000a900473ffffffffffffffffffffffffffffffffffffffff1673ffffffffffffffffffffffffffffffffffffffff163373ffffffffffffffffffffffffffffffffffffffff1614610551576040517f08c379a0000000000000000000000000000000000000000000000000000000008152600401610548906119a9565b60405180910390fd5b80600073ffffffffffffffffffffffffffffffffffffffff168173ffffffffffffffffffffffffffffffffffffffff1614156105c2576040517f08c379a00000000000000000000000000000000000000000000000000000000081526004016105b990611a09565b60405180910390fd5b600073ffffffffffffffffffffffffffffffffffffffff163373ffffffffffffffffffffffffffffffffffffffff161415610632576040517f08c379a0000000000000000000000000000000000000000000000000000000008152600401610629906119c9565b60405180910390fd5b6000803373ffffffffffffffffffffffffffffffffffffffff1673ffffffffffffffffffffffffffffffffffffffff16815260200190815260200160002060009054906101000a900460ff166106bd576040517f08c379a00000000000000000000000000000000000000000000000000000000081526004016106b490611a29565b60405180910390fd5b600060098111156106f7577f4e487b7100000000000000000000000000000000000000000000000000000000600052602160045260246000fd5b600981111561072f577f4e487b7100000000000000000000000000000000000000000000000000000000600052602160045260246000fd5b836009811115610768577f4e487b7100000000000000000000000000000000000000000000000000000000600052602160045260246000fd5b101580156107e557506009808111156107aa577f4e487b7100000000000000000000000000000000000000000000000000000000600052602160045260246000fd5b8360098111156107e3577f4e487b7100000000000000000000000000000000000000000000000000000000600052602160045260246000fd5b105b610824576040517f08c379a000000000000000000000000000000000000000000000000000000000815260040161081b90611989565b60405180910390fd5b8160036000856009811115610862577f4e487b7100000000000000000000000000000000000000000000000000000000600052602160045260246000fd5b600981111561089a577f4e487b7100000000000000000000000000000000000000000000000000000000600052602160045260246000fd5b815260200190815260200160002060006101000a81548173ffffffffffffffffffffffffffffffffffffffff021916908373ffffffffffffffffffffffffffffffffffffffff160217905550505050565b600681565b60008060008373ffffffffffffffffffffffffffffffffffffffff1673ffffffffffffffffffffffffffffffffffffffff16815260200190815260200160002060009054906101000a900460ff169050919050565b60085481565b600080600654905060095483116109625760095492505b6034600a546109719190611b35565b8361097c9190611cd7565b9150915091565b600080600060038111156109c0577f4e487b7100000000000000000000000000000000000000000000000000000000600052602160045260246000fd5b8360038111156109f9577f4e487b7100000000000000000000000000000000000000000000000000000000600052602160045260246000fd5b118015610a765750600380811115610a3a577f4e487b7100000000000000000000000000000000000000000000000000000000600052602160045260246000fd5b836003811115610a73577f4e487b7100000000000000000000000000000000000000000000000000000000600052602160045260246000fd5b11155b610ab5576040517f08c379a0000000000000000000000000000000000000000000000000000000008152600401610aac906119e9565b60405180910390fd5b60056000846003811115610af2577f4e487b7100000000000000000000000000000000000000000000000000000000600052602160045260246000fd5b6003811115610b2a577f4e487b7100000000000000000000000000000000000000000000000000000000600052602160045260246000fd5b81526020019081526020016000205491506006549050915091565b610b4d611547565b6000600460009054906101000a900473ffffffffffffffffffffffffffffffffffffffff1673ffffffffffffffffffffffffffffffffffffffff1663f78eea837f24beead43216e490aa240ef0d32e18c57beea168f06eabb94f5193868d5009466040518263ffffffff1660e01b8152600401610bca9190611953565b60606040518083038186803b158015610be257600080fd5b505afa158015610bf6573d6000803e3d6000fd5b505050506040513d601f19601f82011682018060405250810190610c1a91906116d6565b50509050808260000181815250506006826020019060ff16908160ff16815250505090565b600073ffffffffffffffffffffffffffffffffffffffff1660018054906101000a900473ffffffffffffffffffffffffffffffffffffffff1673ffffffffffffffffffffffffffffffffffffffff161415610ccf576040517f08c379a0000000000000000000000000000000000000000000000000000000008152600401610cc6906119c9565b60405180910390fd5b60018054906101000a900473ffffffffffffffffffffffffffffffffffffffff1673ffffffffffffffffffffffffffffffffffffffff163373ffffffffffffffffffffffffffffffffffffffff1614610d5d576040517f08c379a0000000000000000000000000000000000000000000000000000000008152600401610d54906119a9565b60405180910390fd5b80600073ffffffffffffffffffffffffffffffffffffffff168173ffffffffffffffffffffffffffffffffffffffff161415610dce576040517f08c379a0000000000000000000000000000000000000000000000000000000008152600401610dc590611a09565b60405180910390fd5b60016000808473ffffffffffffffffffffffffffffffffffffffff1673ffffffffffffffffffffffffffffffffffffffff16815260200190815260200160002060006101000a81548160ff02191690831515021790555060018060009054906101000a900460ff16610e409190611afe565b600160006101000a81548160ff021916908360ff1602179055505050565b600080600754915060085490509091565b60065481565b610e7d611547565b6000600460009054906101000a900473ffffffffffffffffffffffffffffffffffffffff1673ffffffffffffffffffffffffffffffffffffffff1663f78eea837f3d15f7018db5cc80838b684361aaa100bfadf8a11e02d5c1c92e9c6af47626c86040518263ffffffff1660e01b8152600401610efa919061196e565b60606040518083038186803b158015610f1257600080fd5b505afa158015610f26573d6000803e3d6000fd5b505050506040513d601f19601f82011682018060405250810190610f4a91906116d6565b50509050808260000181815250506006826020019060ff16908160ff16815250505090565b60025481565b8060028190555050565b600073ffffffffffffffffffffffffffffffffffffffff163373ffffffffffffffffffffffffffffffffffffffff161415610fef576040517f08c379a0000000000000000000000000000000000000000000000000000000008152600401610fe6906119c9565b60405180910390fd5b6000803373ffffffffffffffffffffffffffffffffffffffff1673ffffffffffffffffffffffffffffffffffffffff16815260200190815260200160002060009054906101000a900460ff1661107a576040517f08c379a000000000000000000000000000000000000000000000000000000000815260040161107190611a29565b60405180910390fd5b81600781905550806008819055505050565b6000806000806006549050600560008060038111156110d4577f4e487b7100000000000000000000000000000000000000000000000000000000600052602160045260246000fd5b600381111561110c577f4e487b7100000000000000000000000000000000000000000000000000000000600052602160045260246000fd5b8152602001908152602001600020549350600560006001600381111561115b577f4e487b7100000000000000000000000000000000000000000000000000000000600052602160045260246000fd5b6003811115611193577f4e487b7100000000000000000000000000000000000000000000000000000000600052602160045260246000fd5b815260200190815260200160002054925060056000600260038111156111e2577f4e487b7100000000000000000000000000000000000000000000000000000000600052602160045260246000fd5b600381111561121a577f4e487b7100000000000000000000000000000000000000000000000000000000600052602160045260246000fd5b815260200190815260200160002054915090919293565b600073ffffffffffffffffffffffffffffffffffffffff163373ffffffffffffffffffffffffffffffffffffffff1614156112a1576040517f08c379a0000000000000000000000000000000000000000000000000000000008152600401611298906119c9565b60405180910390fd5b6000803373ffffffffffffffffffffffffffffffffffffffff1673ffffffffffffffffffffffffffffffffffffffff16815260200190815260200160002060009054906101000a900460ff1661132c576040517f08c379a000000000000000000000000000000000000000000000000000000000815260040161132390611a29565b60405180910390fd5b806005600084600381111561136a577f4e487b7100000000000000000000000000000000000000000000000000000000600052602160045260246000fd5b60038111156113a2577f4e487b7100000000000000000000000000000000000000000000000000000000600052602160045260246000fd5b8152602001908152602001600020819055505050565b60006003600a6113c89190611bb9565b6002546003600060016009811115611409577f4e487b7100000000000000000000000000000000000000000000000000000000600052602160045260246000fd5b6009811115611441577f4e487b7100000000000000000000000000000000000000000000000000000000600052602160045260246000fd5b815260200190815260200160002060009054906101000a900473ffffffffffffffffffffffffffffffffffffffff1673ffffffffffffffffffffffffffffffffffffffff1663313ce5676040518163ffffffff1660e01b8152600401602060405180830381600087803b1580156114b757600080fd5b505af11580156114cb573d6000803e3d6000fd5b505050506040513d601f19601f820116820180604052508101906114ef919061178a565b600a6114fb9190611bb9565b846115069190611cd7565b6115109190611cd7565b61151a9190611b35565b9050919050565b600460009054906101000a900473ffffffffffffffffffffffffffffffffffffffff1681565b604051806040016040528060008152602001600060ff1681525090565b60008135905061157381611f7c565b92915050565b60008135905061158881611f93565b92915050565b60008135905061159d81611faa565b92915050565b6000813590506115b281611fba565b92915050565b6000815190506115c781611fca565b92915050565b6000813590506115dc81611fe1565b92915050565b6000815190506115f181611fe1565b92915050565b60008151905061160681611ff8565b92915050565b60006020828403121561161e57600080fd5b600061162c84828501611564565b91505092915050565b6000806040838503121561164857600080fd5b60006116568582860161158e565b925050602061166785828601611579565b9150509250929050565b60006020828403121561168357600080fd5b6000611691848285016115a3565b91505092915050565b600080604083850312156116ad57600080fd5b60006116bb858286016115a3565b92505060206116cc858286016115cd565b9150509250929050565b6000806000606084860312156116eb57600080fd5b60006116f9868287016115b8565b935050602061170a868287016115e2565b925050604061171b868287016115e2565b9150509250925092565b60006020828403121561173757600080fd5b6000611745848285016115cd565b91505092915050565b6000806040838503121561176157600080fd5b600061176f858286016115cd565b9250506020611780858286016115cd565b9150509250929050565b60006020828403121561179c57600080fd5b60006117aa848285016115f7565b91505092915050565b6117bc81611d55565b82525050565b6117cb81611db6565b82525050565b6117da81611dda565b82525050565b6117e981611df4565b82525050565b60006117fc601683611aed565b915061180782611e86565b602082019050919050565b600061181f601e83611aed565b915061182a82611eaf565b602082019050919050565b6000611842601783611aed565b915061184d82611ed8565b602082019050919050565b6000611865601083611aed565b915061187082611f01565b602082019050919050565b6000611888601983611aed565b915061189382611f2a565b602082019050919050565b60006118ab600d83611aed565b91506118b682611f53565b602082019050919050565b6040820160008201516118d760008501826118f0565b5060208201516118ea602085018261190e565b50505050565b6118f981611d9f565b82525050565b61190881611d9f565b82525050565b61191781611da9565b82525050565b600060208201905061193260008301846117b3565b92915050565b600060208201905061194d60008301846117c2565b92915050565b600060208201905061196860008301846117d1565b92915050565b600060208201905061198360008301846117e0565b92915050565b600060208201905081810360008301526119a2816117ef565b9050919050565b600060208201905081810360008301526119c281611812565b9050919050565b600060208201905081810360008301526119e281611835565b9050919050565b60006020820190508181036000830152611a0281611858565b9050919050565b60006020820190508181036000830152611a228161187b565b9050919050565b60006020820190508181036000830152611a428161189e565b9050919050565b6000604082019050611a5e60008301846118c1565b92915050565b6000602082019050611a7960008301846118ff565b92915050565b6000604082019050611a9460008301856118ff565b611aa160208301846118ff565b9392505050565b6000608082019050611abd60008301876118ff565b611aca60208301866118ff565b611ad760408301856118ff565b611ae460608301846118ff565b95945050505050565b600082825260208201905092915050565b6000611b0982611da9565b9150611b1483611da9565b92508260ff03821115611b2a57611b29611e0e565b5b828201905092915050565b6000611b4082611d9f565b9150611b4b83611d9f565b925082611b5b57611b5a611e3d565b5b828204905092915050565b6000808291508390505b6001851115611bb057808604811115611b8c57611b8b611e0e565b5b6001851615611b9b5780820291505b8081029050611ba985611e79565b9450611b70565b94509492505050565b6000611bc482611d9f565b9150611bcf83611da9565b9250611bfc7fffffffffffffffffffffffffffffffffffffffffffffffffffffffffffffffff8484611c04565b905092915050565b600082611c145760019050611cd0565b81611c225760009050611cd0565b8160018114611c385760028114611c4257611c71565b6001915050611cd0565b60ff841115611c5457611c53611e0e565b5b8360020a915084821115611c6b57611c6a611e0e565b5b50611cd0565b5060208310610133831016604e8410600b8410161715611ca65782820a905083811115611ca157611ca0611e0e565b5b611cd0565b611cb38484846001611b66565b92509050818404811115611cca57611cc9611e0e565b5b81810290505b9392505050565b6000611ce282611d9f565b9150611ced83611d9f565b9250817fffffffffffffffffffffffffffffffffffffffffffffffffffffffffffffffff0483118215151615611d2657611d25611e0e565b5b828202905092915050565b6000611d3c82611d7f565b9050919050565b6000611d4e82611d7f565b9050919050565b60008115159050919050565b6000819050919050565b6000819050919050565b6000819050919050565b600073ffffffffffffffffffffffffffffffffffffffff82169050919050565b6000819050919050565b600060ff82169050919050565b6000611dc182611dc8565b9050919050565b6000611dd382611d7f565b9050919050565b6000611ded611de883611d6b565b611e6c565b9050919050565b6000611e07611e0283611d75565b611e6c565b9050919050565b7f4e487b7100000000000000000000000000000000000000000000000000000000600052601160045260246000fd5b7f4e487b7100000000000000000000000000000000000000000000000000000000600052601260045260246000fd5b60008160001b9050919050565b60008160011c9050919050565b7f496e76616c696420636f6e747261637420696e64657800000000000000000000600082015250565b7f466f722063616c6c65722065787065637465642062652063726561746f720000600082015250565b7f496e76616c69642063726561746f722061646472657373000000000000000000600082015250565b7f496e76616c696420666565207479706500000000000000000000000000000000600082015250565b7f4578706563746564206e6f6e2d7a65726f206164647265737300000000000000600082015250565b7f4d7573742062652061646d696e00000000000000000000000000000000000000600082015250565b611f8581611d31565b8114611f9057600080fd5b50565b611f9c81611d43565b8114611fa757600080fd5b50565b600a8110611fb757600080fd5b50565b60048110611fc757600080fd5b50565b611fd381611d61565b8114611fde57600080fd5b50565b611fea81611d9f565b8114611ff557600080fd5b50565b61200181611da9565b811461200c57600080fd5b5056fea26469706673582212209a55de6e4e171299e0f961a70e4fb352da2d75115f74f64eae8b06082afa772464736f6c63430008040033",
  "immutableReferences": {},
  "source": "// SPDX-License-Identifier: MIT\r\npragma solidity ^0.8.0;\r\n\r\nimport \"witnet-solidity-bridge/contracts/interfaces/IWitnetPriceRouter.sol\";\r\nimport \"./OcxBase.sol\";\r\nimport \"./interface/IOcxPriceOracle.sol\";\r\n\r\ncontract OcxPriceOracle is OcxBase, IOcxPriceOracle {\r\n\r\n    IWitnetPriceRouter public router;\r\n    mapping(FeeType => uint256) internal feePercentages;\r\n    uint256  public _feePercentageDecimals = 6;\r\n    uint256  public applicationFee = 100;\r\n    uint256  public valuationFee = 50;\r\n    uint256  private minimumPawnablePrice = 5000;\r\n    uint256  private weeklyFeePercentage = 62400; // 6.24%\r\n    OcxPrice  private ethAudPrice;\r\n    mapping(CurrencyIndex => CurrencyPriceInfo) private currencyPrice;\r\n    uint256  public constant FIAT_PRICE_DECIMALS = 6;\r\n    mapping(string => CurrencyIndex) currencyNameIndexMap;\r\n\r\n    /**\r\n     * IMPORTANT: replace the address below with the WitnetPriceRouter address\r\n     * of the network you are using! Please find the address here:\r\n     * https://docs.witnet.io/smart-contracts/price-feeds/contract-addresses\r\n     */\r\n    constructor() {\r\n        // router = IWitnetPriceRouter(0x83a757eae821ad7b520d9a74952337138a80b2af); // for MainNet\r\n        router = IWitnetPriceRouter(0x1cF3Aa9DBF4880d797945726B94B9d29164211BE); // for Goerli\r\n        feePercentages[FeeType.PNFT_MINT_FEE] = 8000; // 0.8% \r\n        feePercentages[FeeType.PNFT_OCAT_SWAP_FEE] = 8000; // 0.8% \r\n        feePercentages[FeeType.OCAT_PNFT_SWAP_FEE] = 8000; // 0.8%\r\n\r\n        currencyNameIndexMap[\"ETH\"] = CurrencyIndex.ETH;\r\n        currencyNameIndexMap[\"OCAT\"] = CurrencyIndex.OCAT;\r\n        currencyNameIndexMap[\"OCX\"] = CurrencyIndex.OCX;\r\n        currencyNameIndexMap[\"USD\"] = CurrencyIndex.USD;\r\n        currencyNameIndexMap[\"AUD\"] = CurrencyIndex.AUD;\r\n        currencyNameIndexMap[\"UNI\"] = CurrencyIndex.UNI;\r\n        currencyNameIndexMap[\"DAI\"] = CurrencyIndex.DAI;\r\n    }\r\n    /* \r\n     * feeValue = real_percent_value * (10 ** _feePercentageDecimals) = real_percent_value * 10^6\r\n     */\r\n    function setFeePercentage(FeeType feeType, uint256 percentValue) public override\r\n    onlyAdmin {\r\n        feePercentages[feeType] = percentValue;\r\n    }\r\n    function getFeePercentage(FeeType feeType) public view override\r\n    returns(uint256 percentage, uint256 feeDecimals) {\r\n        require(feeType > FeeType.PNFT_MINT_FEE && \r\n                feeType <= FeeType.FEE_TYPE_SIZE, \"Invalid fee type\");\r\n        percentage = feePercentages[feeType];\r\n        feeDecimals = _feePercentageDecimals;\r\n    }\r\n    function setSubmitFee(uint256 _applicationFee, uint256 _valuationFee) public override\r\n    onlyAdmin {\r\n        applicationFee = _applicationFee;\r\n        valuationFee = _valuationFee;\r\n    }\r\n    /*\r\n     * Returns value of the application and valuation fee in fiat currency($)\r\n     */\r\n    function getSubmitFee() public view override\r\n    returns (uint256 application, uint256 valuation) {\r\n        application = applicationFee;\r\n        valuation = valuationFee;\r\n    }\r\n    function getWeeklyFee(uint256 assetPrice) public view override\r\n    returns(uint256 value, uint256 feeDecimals) {\r\n        feeDecimals = _feePercentageDecimals;\r\n        if (assetPrice <= minimumPawnablePrice) {\r\n            assetPrice = minimumPawnablePrice;\r\n        }\r\n        value = assetPrice * (weeklyFeePercentage / 52);\r\n    }\r\n    function getPnftFeePercentages() public view override\r\n    returns(uint256 mintFee, uint256 loanFee, uint256 restoreFee, uint256 feeDecimals) {\r\n        feeDecimals = _feePercentageDecimals;\r\n        mintFee = feePercentages[FeeType.PNFT_MINT_FEE];\r\n        loanFee = feePercentages[FeeType.PNFT_OCAT_SWAP_FEE];\r\n        restoreFee = feePercentages[FeeType.OCAT_PNFT_SWAP_FEE];\r\n    }\r\n    /// Returns the BTC / USD price (6 decimals), ultimately provided by the Witnet oracle.\r\n    function getBtcUsdPrice() public view override\r\n    returns (OcxPrice memory priceObj) {\r\n        (int256 _v,,) = router.valueFor(0x24beead43216e490aa240ef0d32e18c57beea168f06eabb94f5193868d500946);\r\n        priceObj.value = uint256(_v);\r\n        priceObj.decimals = 6;\r\n    }\r\n    /// Returns the ETH / USD price (6 decimals), ultimately provided by the Witnet oracle.\r\n    function getEthUsdPrice() public view override\r\n    returns (OcxPrice memory priceObj) {\r\n        (int256 _v,,) = router.valueFor(0x3d15f7018db5cc80838b684361aaa100bfadf8a11e02d5c1c92e9c6af47626c8);\r\n        priceObj.value = uint256(_v);\r\n        priceObj.decimals = 6;\r\n    }\r\n    /// Returns the BTC / ETH price (6 decimals), derived from the ETH/USD and \r\n    /// the BTC/USD pairs that were ultimately provided by the Witnet oracle.\r\n    function getBtcEthPrice() public view override\r\n    returns (OcxPrice memory) {\r\n        OcxPrice memory btcUsdPrice = getBtcUsdPrice();\r\n        OcxPrice memory ethUsdPrice = getEthUsdPrice();\r\n        return OcxPrice((1000000 * btcUsdPrice.value) / ethUsdPrice.value, 6);\r\n    }\r\n}",
  "sourcePath": "F:\\Workspace\\OpenChainDex\\OpenchainTestVersion\\server\\contracts\\OcxPriceOracle.sol",
  "compiler": {
    "name": "solc",
    "version": "0.8.4+commit.c7e474f2.Emscripten.clang"
  },
  "schemaVersion": "3.4.7",
  "updatedAt": "2022-05-04T09:52:03.170Z",
  "networkType": "ethereum",
  "devdoc": {
    "kind": "dev",
    "methods": {},
    "version": 1
  },
  "userdoc": {
    "kind": "user",
    "methods": {
      "constructor": {
        "notice": "IMPORTANT: replace the address below with the WitnetPriceRouter address of the network you are using! Please find the address here: https://docs.witnet.io/smart-contracts/price-feeds/contract-addresses"
      },
      "getBtcEthPrice()": {
        "notice": "Returns the BTC / ETH price (6 decimals), derived from the ETH/USD and  the BTC/USD pairs that were ultimately provided by the Witnet oracle."
      },
      "getBtcUsdPrice()": {
        "notice": "Returns the BTC / USD price (6 decimals), ultimately provided by the Witnet oracle."
      },
      "getEthUsdPrice()": {
        "notice": "Returns the ETH / USD price (6 decimals), ultimately provided by the Witnet oracle."
      }
    },
    "version": 1
  }
}