{
  "contractName": "OcxPriceOracle",
  "abi": [
    {
      "inputs": [],
      "stateMutability": "nonpayable",
      "type": "constructor"
    },
    {
      "inputs": [],
      "name": "router",
      "outputs": [
        {
          "internalType": "contract IWitnetPriceRouter",
          "name": "",
          "type": "address"
        }
      ],
      "stateMutability": "view",
      "type": "function",
      "constant": true
    },
    {
      "inputs": [],
      "name": "getBtcUsdPrice",
      "outputs": [
        {
          "internalType": "int256",
          "name": "_price",
          "type": "int256"
        }
      ],
      "stateMutability": "view",
      "type": "function",
      "constant": true
    },
    {
      "inputs": [],
      "name": "getEthUsdPrice",
      "outputs": [
        {
          "internalType": "int256",
          "name": "_price",
          "type": "int256"
        }
      ],
      "stateMutability": "view",
      "type": "function",
      "constant": true
    },
    {
      "inputs": [],
      "name": "getAudUsdPrice",
      "outputs": [
        {
          "internalType": "int256",
          "name": "_price",
          "type": "int256"
        }
      ],
      "stateMutability": "view",
      "type": "function",
      "constant": true
    },
    {
      "inputs": [],
      "name": "getUniUsdPrice",
      "outputs": [
        {
          "internalType": "int256",
          "name": "_price",
          "type": "int256"
        }
      ],
      "stateMutability": "view",
      "type": "function",
      "constant": true
    },
    {
      "inputs": [],
      "name": "getDaiUsdPrice",
      "outputs": [
        {
          "internalType": "int256",
          "name": "_price",
          "type": "int256"
        }
      ],
      "stateMutability": "view",
      "type": "function",
      "constant": true
    },
    {
      "inputs": [],
      "name": "getBtcEthPrice",
      "outputs": [
        {
          "internalType": "int256",
          "name": "_price",
          "type": "int256"
        }
      ],
      "stateMutability": "view",
      "type": "function",
      "constant": true
    }
  ],
  "bytecode": "0x608060405234801561001057600080fd5b50731cf3aa9dbf4880d797945726b94b9d29164211be6000806101000a81548173ffffffffffffffffffffffffffffffffffffffff021916908373ffffffffffffffffffffffffffffffffffffffff160217905550610acf806100746000396000f3fe608060405234801561001057600080fd5b506004361061007c5760003560e01c806367dd919a1161005b57806367dd919a146100db5780637d15eace146100f9578063a0a8045e14610117578063f887ea40146101355761007c565b8062e80f32146100815780633cf3582f1461009f57806364b60700146100bd575b600080fd5b610089610153565b60405161009691906106d1565b60405180910390f35b6100a7610182565b6040516100b491906106d1565b60405180910390f35b6100c5610258565b6040516100d291906106d1565b60405180910390f35b6100e361032e565b6040516100f091906106d1565b60405180910390f35b610101610404565b60405161010e91906106d1565b60405180910390f35b61011f6104da565b60405161012c91906106d1565b60405180910390f35b61013d6105b0565b60405161014a91906106b6565b60405180910390f35b600061015d6104da565b610165610258565b620f424061017391906107dd565b61017d9190610773565b905090565b60008060009054906101000a900473ffffffffffffffffffffffffffffffffffffffff1673ffffffffffffffffffffffffffffffffffffffff1663f78eea837f9899e35601719f1348e09967349f72c7d04800f17c14992d6dcf2f17fac713ea6040518263ffffffff1660e01b81526004016101fe9190610758565b60606040518083038186803b15801561021657600080fd5b505afa15801561022a573d6000803e3d6000fd5b505050506040513d601f19601f8201168201806040525081019061024e91906105fe565b9050508091505090565b60008060009054906101000a900473ffffffffffffffffffffffffffffffffffffffff1673ffffffffffffffffffffffffffffffffffffffff1663f78eea837f24beead43216e490aa240ef0d32e18c57beea168f06eabb94f5193868d5009466040518263ffffffff1660e01b81526004016102d49190610707565b60606040518083038186803b1580156102ec57600080fd5b505afa158015610300573d6000803e3d6000fd5b505050506040513d601f19601f8201168201806040525081019061032491906105fe565b9050508091505090565b60008060009054906101000a900473ffffffffffffffffffffffffffffffffffffffff1673ffffffffffffffffffffffffffffffffffffffff1663f78eea837f1fc2367e3f9f6f95ca0c361732bd4c9b046d4e3dd6e205cd9885678780af3ed56040518263ffffffff1660e01b81526004016103aa91906106ec565b60606040518083038186803b1580156103c257600080fd5b505afa1580156103d6573d6000803e3d6000fd5b505050506040513d601f19601f820116820180604052508101906103fa91906105fe565b9050508091505090565b60008060009054906101000a900473ffffffffffffffffffffffffffffffffffffffff1673ffffffffffffffffffffffffffffffffffffffff1663f78eea837f010a795648074f580d7a1ecb53b91ff035ed7e5d77ae37f022e2a1a1135420556040518263ffffffff1660e01b8152600401610480919061073d565b60606040518083038186803b15801561049857600080fd5b505afa1580156104ac573d6000803e3d6000fd5b505050506040513d601f19601f820116820180604052508101906104d091906105fe565b9050508091505090565b60008060009054906101000a900473ffffffffffffffffffffffffffffffffffffffff1673ffffffffffffffffffffffffffffffffffffffff1663f78eea837f3d15f7018db5cc80838b684361aaa100bfadf8a11e02d5c1c92e9c6af47626c86040518263ffffffff1660e01b81526004016105569190610722565b60606040518083038186803b15801561056e57600080fd5b505afa158015610582573d6000803e3d6000fd5b505050506040513d601f19601f820116820180604052508101906105a691906105fe565b9050508091505090565b60008054906101000a900473ffffffffffffffffffffffffffffffffffffffff1681565b6000815190506105e381610a6b565b92915050565b6000815190506105f881610a82565b92915050565b60008060006060848603121561061357600080fd5b6000610621868287016105d4565b9350506020610632868287016105e9565b9250506040610643868287016105e9565b9150509250925092565b6106568161095a565b82525050565b610665816108f4565b82525050565b6106748161097e565b82525050565b61068381610998565b82525050565b610692816109b2565b82525050565b6106a1816109cc565b82525050565b6106b0816109e6565b82525050565b60006020820190506106cb600083018461064d565b92915050565b60006020820190506106e6600083018461065c565b92915050565b6000602082019050610701600083018461066b565b92915050565b600060208201905061071c600083018461067a565b92915050565b60006020820190506107376000830184610689565b92915050565b60006020820190506107526000830184610698565b92915050565b600060208201905061076d60008301846106a7565b92915050565b600061077e826108f4565b9150610789836108f4565b92508261079957610798610a2f565b5b600160000383147f8000000000000000000000000000000000000000000000000000000000000000831416156107d2576107d1610a00565b5b828205905092915050565b60006107e8826108f4565b91506107f3836108f4565b9250827f7fffffffffffffffffffffffffffffffffffffffffffffffffffffffffffffff048211600084136000841316161561083257610831610a00565b5b817f8000000000000000000000000000000000000000000000000000000000000000058312600084126000841316161561086f5761086e610a00565b5b827f800000000000000000000000000000000000000000000000000000000000000005821260008413600084121616156108ac576108ab610a00565b5b827f7fffffffffffffffffffffffffffffffffffffffffffffffffffffffffffffff05821260008412600084121616156108e9576108e8610a00565b5b828202905092915050565b6000819050919050565b6000819050919050565b6000819050919050565b6000819050919050565b6000819050919050565b6000819050919050565b600073ffffffffffffffffffffffffffffffffffffffff82169050919050565b6000819050919050565b60006109658261096c565b9050919050565b600061097782610930565b9050919050565b600061099161098c836108fe565b610a5e565b9050919050565b60006109ab6109a683610908565b610a5e565b9050919050565b60006109c56109c083610912565b610a5e565b9050919050565b60006109df6109da8361091c565b610a5e565b9050919050565b60006109f96109f483610926565b610a5e565b9050919050565b7f4e487b7100000000000000000000000000000000000000000000000000000000600052601160045260246000fd5b7f4e487b7100000000000000000000000000000000000000000000000000000000600052601260045260246000fd5b60008160001b9050919050565b610a74816108f4565b8114610a7f57600080fd5b50565b610a8b81610950565b8114610a9657600080fd5b5056fea26469706673582212206feb3e4cf8d99bf624126d0499a96e678c8a303f71488c3cc3465699f3e8df6464736f6c63430008040033",
  "immutableReferences": {},
  "source": "// SPDX-License-Identifier: MIT\r\npragma solidity ^0.8.0;\r\n\r\nimport \"witnet-solidity-bridge/contracts/interfaces/IWitnetPriceRouter.sol\";\r\n\r\ncontract OcxPriceOracle {\r\n    IWitnetPriceRouter public router;\r\n    \r\n    /**\r\n     * IMPORTANT: replace the address below with the WitnetPriceRouter address\r\n     * of the network you are using! Please find the address here:\r\n     * https://docs.witnet.io/smart-contracts/price-feeds/contract-addresses\r\n     */\r\n    constructor() {\r\n        // router = IWitnetPriceRouter(0x83a757eae821ad7b520d9a74952337138a80b2af); // for \r\n        router = IWitnetPriceRouter(0x1cF3Aa9DBF4880d797945726B94B9d29164211BE); // for Goerli\r\n    }\r\n    \r\n    /// Returns the BTC / USD price (6 decimals), ultimately provided by the Witnet oracle.\r\n    function getBtcUsdPrice() public view returns (int256 _price) {\r\n        // (_price,,) = router.valueFor(bytes32(uint256(0x24beead4)));\r\n        (_price,,) = router.valueFor(0x24beead43216e490aa240ef0d32e18c57beea168f06eabb94f5193868d500946);\r\n    }\r\n    \r\n    /// Returns the ETH / USD price (6 decimals), ultimately provided by the Witnet oracle.\r\n    function getEthUsdPrice() public view returns (int256 _price) {\r\n        // (_price,,) = router.valueFor(bytes32(uint256(0x3d15f701)));\r\n        (_price,,) = router.valueFor(0x3d15f7018db5cc80838b684361aaa100bfadf8a11e02d5c1c92e9c6af47626c8);\r\n    }\r\n    \r\n    /// Returns the ETH / USD price (6 decimals), ultimately provided by the Witnet oracle.\r\n    function getAudUsdPrice() public view returns (int256 _price) {\r\n        // (_price,,) = router.valueFor(bytes32(uint256(0x3d15f701)));\r\n        (_price,,) = router.valueFor(0x010a795648074f580d7a1ecb53b91ff035ed7e5d77ae37f022e2a1a113542055);\r\n    }\r\n    \r\n    function getUniUsdPrice() public view returns (int256 _price) {\r\n        (_price,,) = router.valueFor(0x1fc2367e3f9f6f95ca0c361732bd4c9b046d4e3dd6e205cd9885678780af3ed5);\r\n    }\r\n\r\n    function getDaiUsdPrice() public view returns (int256 _price) {\r\n        (_price,,) = router.valueFor(0x9899e35601719f1348e09967349f72c7d04800f17c14992d6dcf2f17fac713ea);\r\n    }\r\n\r\n    /// Returns the BTC / ETH price (6 decimals), derived from the ETH/USD and \r\n    /// the BTC/USD pairs that were ultimately provided by the Witnet oracle.\r\n    function getBtcEthPrice() public view returns (int256 _price) {\r\n        return (1000000 * getBtcUsdPrice()) / getEthUsdPrice();\r\n    }\r\n}",
  "sourcePath": "E:\\Work\\OpenchainTestVersion\\server\\contracts\\OcxPriceOracle.sol",
  "compiler": {
    "name": "solc",
    "version": "0.8.4+commit.c7e474f2.Emscripten.clang"
  },
  "schemaVersion": "3.4.6",
  "updatedAt": "2022-04-06T05:46:36.660Z",
  "networkType": "ethereum",
  "devdoc": {
    "kind": "dev",
    "methods": {},
    "version": 1
  },
  "userdoc": {
    "kind": "user",
    "methods": {
      "constructor": {
        "notice": "IMPORTANT: replace the address below with the WitnetPriceRouter address of the network you are using! Please find the address here: https://docs.witnet.io/smart-contracts/price-feeds/contract-addresses"
      },
      "getAudUsdPrice()": {
        "notice": "Returns the ETH / USD price (6 decimals), ultimately provided by the Witnet oracle."
      },
      "getBtcEthPrice()": {
        "notice": "Returns the BTC / ETH price (6 decimals), derived from the ETH/USD and  the BTC/USD pairs that were ultimately provided by the Witnet oracle."
      },
      "getBtcUsdPrice()": {
        "notice": "Returns the BTC / USD price (6 decimals), ultimately provided by the Witnet oracle."
      },
      "getEthUsdPrice()": {
        "notice": "Returns the ETH / USD price (6 decimals), ultimately provided by the Witnet oracle."
      }
    },
    "version": 1
  }
}