{
  "contractName": "OcxPriceOracle_Chainlink",
  "abi": [
    {
      "inputs": [],
      "stateMutability": "nonpayable",
      "type": "constructor"
    },
    {
      "inputs": [
        {
          "internalType": "string",
          "name": "",
          "type": "string"
        }
      ],
      "name": "symbolPairList",
      "outputs": [
        {
          "internalType": "address",
          "name": "",
          "type": "address"
        }
      ],
      "stateMutability": "view",
      "type": "function"
    },
    {
      "inputs": [
        {
          "internalType": "string",
          "name": "symbolPair",
          "type": "string"
        }
      ],
      "name": "getPrice",
      "outputs": [
        {
          "internalType": "int256",
          "name": "price",
          "type": "int256"
        }
      ],
      "stateMutability": "view",
      "type": "function"
    }
  ],
  "bytecode": "0x608060405234801561001057600080fd5b50735f4ec3df9cbd43714fe2740f5e3616155c5b84196001604051610034906100a8565b908152602001604051809103902060006101000a81548173ffffffffffffffffffffffffffffffffffffffff021916908373ffffffffffffffffffffffffffffffffffffffff1602179055506100f1565b60006100926006836100bd565b915061009d826100c8565b600682019050919050565b60006100b382610085565b9150819050919050565b600081905092915050565b7f4554485553440000000000000000000000000000000000000000000000000000600082015250565b6105a7806101006000396000f3fe608060405234801561001057600080fd5b50600436106100365760003560e01c80631587d6921461003b578063524f38891461006b575b600080fd5b6100556004803603810190610050919061025d565b61009b565b604051610062919061037b565b60405180910390f35b6100856004803603810190610080919061025d565b6100e4565b6040516100929190610396565b60405180910390f35b6001818051602081018201805184825260208301602085012081835280955050505050506000915054906101000a900473ffffffffffffffffffffffffffffffffffffffff1681565b60006001826040516100f69190610364565b908152602001604051809103902060009054906101000a900473ffffffffffffffffffffffffffffffffffffffff1673ffffffffffffffffffffffffffffffffffffffff1663feaf968c6040518163ffffffff1660e01b815260040160a06040518083038186803b15801561016a57600080fd5b505afa15801561017e573d6000803e3d6000fd5b505050506040513d601f19601f820116820180604052508101906101a2919061029e565b909192935090915090505080915050919050565b60006101c96101c4846103d6565b6103b1565b9050828152602081018484840111156101e157600080fd5b6101ec848285610479565b509392505050565b6000815190506102038161052c565b92915050565b600082601f83011261021a57600080fd5b813561022a8482602086016101b6565b91505092915050565b60008151905061024281610543565b92915050565b6000815190506102578161055a565b92915050565b60006020828403121561026f57600080fd5b600082013567ffffffffffffffff81111561028957600080fd5b61029584828501610209565b91505092915050565b600080600080600060a086880312156102b657600080fd5b60006102c488828901610248565b95505060206102d5888289016101f4565b94505060406102e688828901610233565b93505060606102f788828901610233565b925050608061030888828901610248565b9150509295509295909350565b61031e8161041d565b82525050565b61032d8161042f565b82525050565b600061033e82610407565b6103488185610412565b9350610358818560208601610488565b80840191505092915050565b60006103708284610333565b915081905092915050565b60006020820190506103906000830184610315565b92915050565b60006020820190506103ab6000830184610324565b92915050565b60006103bb6103cc565b90506103c782826104bb565b919050565b6000604051905090565b600067ffffffffffffffff8211156103f1576103f06104ec565b5b6103fa8261051b565b9050602081019050919050565b600081519050919050565b600081905092915050565b600061042882610439565b9050919050565b6000819050919050565b600073ffffffffffffffffffffffffffffffffffffffff82169050919050565b6000819050919050565b600069ffffffffffffffffffff82169050919050565b82818337600083830152505050565b60005b838110156104a657808201518184015260208101905061048b565b838111156104b5576000848401525b50505050565b6104c48261051b565b810181811067ffffffffffffffff821117156104e3576104e26104ec565b5b80604052505050565b7f4e487b7100000000000000000000000000000000000000000000000000000000600052604160045260246000fd5b6000601f19601f8301169050919050565b6105358161042f565b811461054057600080fd5b50565b61054c81610459565b811461055757600080fd5b50565b61056381610463565b811461056e57600080fd5b5056fea264697066735822122051b9bf3d9aa5fe4cb87a1c346184ca31b86f0777fcc4fbd76380a73a23973fbf64736f6c63430008040033",
  "immutableReferences": {},
  "source": "//SPDX-License-Identifier: MIT\npragma solidity ^0.8.0;\n\nimport \"@chainlink/contracts/src/v0.8/interfaces/AggregatorV3Interface.sol\";\n\ncontract OcxPriceOracle_Chainlink {\n\n    AggregatorV3Interface internal priceFeed;\n\n    mapping(string => address) public symbolPairList;\n\n    /*\n     * Supported symbol pair:\n     *      AUDUSD:\n     *      USDAUD:\n     *      ETHUSD:\n     *      UNIUSD:\n     *      DAIUSD:\n     *      ETHUNI:\n     *      ETHDAI:\n     *      ETHAUD:\n     *      UNIAUD:\n     *      DAIAUD:\n     */\n    constructor() {\n        symbolPairList['ETHUSD'] = 0x5f4eC3Df9cbd43714FE2740f5E3616155c5b8419;\n    }\n\n    function getPrice(string memory symbolPair) public view returns (int price) {\n        (, price, , ,) = AggregatorV3Interface(symbolPairList[symbolPair]).latestRoundData();\n    }\n}\n",
  "sourcePath": "/home/cowboy/OpenchainTestVersion/server/contracts/OcxPriceOracle_Chainlink.sol",
  "compiler": {
    "name": "solc",
    "version": "0.8.4+commit.c7e474f2.Emscripten.clang"
  },
  "schemaVersion": "3.4.6",
  "updatedAt": "2022-04-10T07:42:57.024Z",
  "devdoc": {
    "kind": "dev",
    "methods": {},
    "version": 1
  },
  "userdoc": {
    "kind": "user",
    "methods": {},
    "version": 1
  }
}