{
  "contractName": "OcxPriceOracle",
  "abi": [
    {
      "inputs": [],
      "stateMutability": "nonpayable",
      "type": "constructor"
    },
    {
      "inputs": [],
      "name": "router",
      "outputs": [
        {
          "internalType": "contract IWitnetPriceRouter",
          "name": "",
          "type": "address"
        }
      ],
      "stateMutability": "view",
      "type": "function",
      "constant": true
    },
    {
      "inputs": [],
      "name": "getBtcUsdPrice",
      "outputs": [
        {
          "internalType": "int256",
          "name": "_price",
          "type": "int256"
        }
      ],
      "stateMutability": "view",
      "type": "function",
      "constant": true
    },
    {
      "inputs": [],
      "name": "getEthUsdPrice",
      "outputs": [
        {
          "internalType": "int256",
          "name": "_price",
          "type": "int256"
        }
      ],
      "stateMutability": "view",
      "type": "function",
      "constant": true
    },
    {
      "inputs": [],
      "name": "getBtcEthPrice",
      "outputs": [
        {
          "internalType": "int256",
          "name": "_price",
          "type": "int256"
        }
      ],
      "stateMutability": "view",
      "type": "function",
      "constant": true
    }
  ],
  "bytecode": "0x608060405234801561001057600080fd5b50731cf3aa9dbf4880d797945726b94b9d29164211be6000806101000a81548173ffffffffffffffffffffffffffffffffffffffff021916908373ffffffffffffffffffffffffffffffffffffffff160217905550610631806100746000396000f3fe608060405234801561001057600080fd5b506004361061004b5760003560e01c8062e80f321461005057806364b607001461006e578063a0a8045e1461008c578063f887ea40146100aa575b600080fd5b6100586100c8565b6040516100659190610371565b60405180910390f35b6100766100f7565b6040516100839190610371565b60405180910390f35b6100946101b4565b6040516100a19190610371565b60405180910390f35b6100b2610271565b6040516100bf9190610356565b60405180910390f35b60006100d26101b4565b6100da6100f7565b620f42406100e891906103f6565b6100f2919061038c565b905090565b60008060009054906101000a900473ffffffffffffffffffffffffffffffffffffffff1673ffffffffffffffffffffffffffffffffffffffff1663f78eea836324beead460001b6040518263ffffffff1660e01b815260040161015a919061033b565b60606040518083038186803b15801561017257600080fd5b505afa158015610186573d6000803e3d6000fd5b505050506040513d601f19601f820116820180604052508101906101aa91906102bf565b9050508091505090565b60008060009054906101000a900473ffffffffffffffffffffffffffffffffffffffff1673ffffffffffffffffffffffffffffffffffffffff1663f78eea83633d15f70160001b6040518263ffffffff1660e01b8152600401610217919061033b565b60606040518083038186803b15801561022f57600080fd5b505afa158015610243573d6000803e3d6000fd5b505050506040513d601f19601f8201168201806040525081019061026791906102bf565b9050508091505090565b60008054906101000a900473ffffffffffffffffffffffffffffffffffffffff1681565b6000815190506102a4816105cd565b92915050565b6000815190506102b9816105e4565b92915050565b6000806000606084860312156102d457600080fd5b60006102e286828701610295565b93505060206102f3868287016102aa565b9250506040610304868287016102aa565b9150509250925092565b6103178161050d565b82525050565b6103268161054b565b82525050565b61033581610517565b82525050565b6000602082019050610350600083018461030e565b92915050565b600060208201905061036b600083018461031d565b92915050565b6000602082019050610386600083018461032c565b92915050565b600061039782610517565b91506103a283610517565b9250826103b2576103b161059e565b5b600160000383147f8000000000000000000000000000000000000000000000000000000000000000831416156103eb576103ea61056f565b5b828205905092915050565b600061040182610517565b915061040c83610517565b9250827f7fffffffffffffffffffffffffffffffffffffffffffffffffffffffffffffff048211600084136000841316161561044b5761044a61056f565b5b817f800000000000000000000000000000000000000000000000000000000000000005831260008412600084131616156104885761048761056f565b5b827f800000000000000000000000000000000000000000000000000000000000000005821260008413600084121616156104c5576104c461056f565b5b827f7fffffffffffffffffffffffffffffffffffffffffffffffffffffffffffffff05821260008412600084121616156105025761050161056f565b5b828202905092915050565b6000819050919050565b6000819050919050565b600073ffffffffffffffffffffffffffffffffffffffff82169050919050565b6000819050919050565b60006105568261055d565b9050919050565b600061056882610521565b9050919050565b7f4e487b7100000000000000000000000000000000000000000000000000000000600052601160045260246000fd5b7f4e487b7100000000000000000000000000000000000000000000000000000000600052601260045260246000fd5b6105d681610517565b81146105e157600080fd5b50565b6105ed81610541565b81146105f857600080fd5b5056fea2646970667358221220e72d29b3ac22f28b02d4afe0d60879ace5359e33ac5b996445e3ae6cd5c7e40364736f6c63430008040033",
  "immutableReferences": {},
  "source": "// SPDX-License-Identifier: MIT\r\npragma solidity ^0.8.0;\r\n\r\nimport \"witnet-solidity-bridge/contracts/interfaces/IWitnetPriceRouter.sol\";\r\n\r\ncontract OcxPriceOracle {\r\n    IWitnetPriceRouter public router;\r\n    \r\n    /**\r\n     * IMPORTANT: replace the address below with the WitnetPriceRouter address\r\n     * of the network you are using! Please find the address here:\r\n     * https://docs.witnet.io/smart-contracts/price-feeds/contract-addresses\r\n     */\r\n    constructor() {\r\n        // router = IWitnetPriceRouter(0x83a757eae821ad7b520d9a74952337138a80b2af); // for \r\n        router = IWitnetPriceRouter(0x1cF3Aa9DBF4880d797945726B94B9d29164211BE); // for Goerli\r\n    }\r\n    \r\n    /// Returns the BTC / USD price (6 decimals), ultimately provided by the Witnet oracle.\r\n    function getBtcUsdPrice() public view returns (int256 _price) {\r\n        (_price,,) = router.valueFor(bytes32(uint256(0x24beead4)));\r\n    }\r\n    \r\n    /// Returns the ETH / USD price (6 decimals), ultimately provided by the Witnet oracle.\r\n    function getEthUsdPrice() public view returns (int256 _price) {\r\n        (_price,,) = router.valueFor(bytes32(uint256(0x3d15f701)));\r\n    }\r\n    \r\n    /// Returns the BTC / ETH price (6 decimals), derived from the ETH/USD and \r\n    /// the BTC/USD pairs that were ultimately provided by the Witnet oracle.\r\n    function getBtcEthPrice() public view returns (int256 _price) {\r\n        return (1000000 * getBtcUsdPrice()) / getEthUsdPrice();\r\n    }\r\n}",
  "sourcePath": "E:\\Work\\OpenchainTestVersion\\server\\contracts\\OcxPriceOracle.sol",
  "compiler": {
    "name": "solc",
    "version": "0.8.4+commit.c7e474f2.Emscripten.clang"
  },
  "schemaVersion": "3.4.6",
  "updatedAt": "2022-04-06T02:32:45.082Z",
  "networkType": "ethereum",
  "devdoc": {
    "kind": "dev",
    "methods": {},
    "version": 1
  },
  "userdoc": {
    "kind": "user",
    "methods": {
      "constructor": {
        "notice": "IMPORTANT: replace the address below with the WitnetPriceRouter address of the network you are using! Please find the address here: https://docs.witnet.io/smart-contracts/price-feeds/contract-addresses"
      },
      "getBtcEthPrice()": {
        "notice": "Returns the BTC / ETH price (6 decimals), derived from the ETH/USD and  the BTC/USD pairs that were ultimately provided by the Witnet oracle."
      },
      "getBtcUsdPrice()": {
        "notice": "Returns the BTC / USD price (6 decimals), ultimately provided by the Witnet oracle."
      },
      "getEthUsdPrice()": {
        "notice": "Returns the ETH / USD price (6 decimals), ultimately provided by the Witnet oracle."
      }
    },
    "version": 1
  }
}