{
  "contractName": "OcxSwap",
  "abi": [
    {
      "inputs": [],
      "stateMutability": "nonpayable",
      "type": "constructor"
    },
    {
      "inputs": [],
      "name": "uniswapRouter",
      "outputs": [
        {
          "internalType": "contract IUniswapV2Router02",
          "name": "",
          "type": "address"
        }
      ],
      "stateMutability": "view",
      "type": "function"
    },
    {
      "stateMutability": "payable",
      "type": "receive"
    },
    {
      "inputs": [
        {
          "internalType": "address payable",
          "name": "_pnftAddress",
          "type": "address"
        }
      ],
      "name": "setPnftAddress",
      "outputs": [],
      "stateMutability": "nonpayable",
      "type": "function"
    },
    {
      "inputs": [
        {
          "internalType": "address payable",
          "name": "_ocatAddress",
          "type": "address"
        }
      ],
      "name": "setOcatAddress",
      "outputs": [],
      "stateMutability": "nonpayable",
      "type": "function"
    },
    {
      "inputs": [
        {
          "internalType": "address",
          "name": "_tokenOut",
          "type": "address"
        },
        {
          "internalType": "uint256",
          "name": "_amountOutMin",
          "type": "uint256"
        },
        {
          "internalType": "uint256",
          "name": "_deadline",
          "type": "uint256"
        }
      ],
      "name": "swapFromETH",
      "outputs": [],
      "stateMutability": "payable",
      "type": "function"
    },
    {
      "inputs": [
        {
          "internalType": "address",
          "name": "_tokenIn",
          "type": "address"
        },
        {
          "internalType": "uint256",
          "name": "_amountIn",
          "type": "uint256"
        },
        {
          "internalType": "uint256",
          "name": "_amountOutMin",
          "type": "uint256"
        },
        {
          "internalType": "uint256",
          "name": "_deadline",
          "type": "uint256"
        }
      ],
      "name": "swapToETH",
      "outputs": [],
      "stateMutability": "nonpayable",
      "type": "function"
    },
    {
      "inputs": [
        {
          "internalType": "address",
          "name": "_tokenIn",
          "type": "address"
        },
        {
          "internalType": "uint256",
          "name": "_amountIn",
          "type": "uint256"
        },
        {
          "internalType": "address",
          "name": "_tokenOut",
          "type": "address"
        },
        {
          "internalType": "uint256",
          "name": "_amountOutMin",
          "type": "uint256"
        },
        {
          "internalType": "uint256",
          "name": "_deadline",
          "type": "uint256"
        }
      ],
      "name": "swapForERC20",
      "outputs": [],
      "stateMutability": "nonpayable",
      "type": "function"
    },
    {
      "inputs": [
        {
          "internalType": "address",
          "name": "operator",
          "type": "address"
        },
        {
          "internalType": "address",
          "name": "from",
          "type": "address"
        },
        {
          "internalType": "uint256",
          "name": "tokenId",
          "type": "uint256"
        },
        {
          "internalType": "bytes",
          "name": "data",
          "type": "bytes"
        }
      ],
      "name": "onERC721Received",
      "outputs": [
        {
          "internalType": "bytes4",
          "name": "",
          "type": "bytes4"
        }
      ],
      "stateMutability": "nonpayable",
      "type": "function"
    },
    {
      "inputs": [
        {
          "internalType": "uint256",
          "name": "nftID",
          "type": "uint256"
        }
      ],
      "name": "exchangeToOcat",
      "outputs": [],
      "stateMutability": "nonpayable",
      "type": "function"
    },
    {
      "inputs": [
        {
          "internalType": "uint256",
          "name": "nftID",
          "type": "uint256"
        }
      ],
      "name": "exchangeFromOcat",
      "outputs": [],
      "stateMutability": "nonpayable",
      "type": "function"
    }
  ],
  "bytecode": "0x608060405234801561001057600080fd5b5033600360006101000a81548173ffffffffffffffffffffffffffffffffffffffff021916908373ffffffffffffffffffffffffffffffffffffffff160217905550737a250d5630b4cf539739df2c5dacb4c659f2488d6000806101000a81548173ffffffffffffffffffffffffffffffffffffffff021916908373ffffffffffffffffffffffffffffffffffffffff160217905550613447806100b56000396000f3fe60806040526004361061008a5760003560e01c8063735de9f711610059578063735de9f71461014e5780638b92f59d14610179578063b18d30a2146101a2578063ca534211146101cb578063fafbed4d146101e757610091565b806313ad82da14610096578063150b7a02146100bf57806315f03d22146100fc578063378321eb1461012557610091565b3661009157005b600080fd5b3480156100a257600080fd5b506100bd60048036038101906100b89190612597565b610210565b005b3480156100cb57600080fd5b506100e660048036038101906100e19190612384565b610626565b6040516100f39190612a46565b60405180910390f35b34801561010857600080fd5b50610123600480360381019061011e919061235b565b61063b565b005b34801561013157600080fd5b5061014c60048036038101906101479190612597565b61077f565b005b34801561015a57600080fd5b50610163610b13565b6040516101709190612a61565b60405180910390f35b34801561018557600080fd5b506101a0600480360381019061019b91906124ca565b610b37565b005b3480156101ae57600080fd5b506101c960048036038101906101c4919061235b565b610fed565b005b6101e560048036038101906101e0919061247b565b611131565b005b3480156101f357600080fd5b5061020e60048036038101906102099190612404565b6113ea565b005b3073ffffffffffffffffffffffffffffffffffffffff163373ffffffffffffffffffffffffffffffffffffffff16141561027f576040517f08c379a000000000000000000000000000000000000000000000000000000000815260040161027690612a9e565b60405180910390fd5b600073ffffffffffffffffffffffffffffffffffffffff163373ffffffffffffffffffffffffffffffffffffffff1614156102ef576040517f08c379a00000000000000000000000000000000000000000000000000000000081526004016102e690612abe565b60405180910390fd5b60008111610332576040517f08c379a000000000000000000000000000000000000000000000000000000000815260040161032990612ade565b60405180910390fd5b6000600260009054906101000a900473ffffffffffffffffffffffffffffffffffffffff1673ffffffffffffffffffffffffffffffffffffffff166370a08231306040518263ffffffff1660e01b815260040161038f91906129a2565b60206040518083038186803b1580156103a757600080fd5b505afa1580156103bb573d6000803e3d6000fd5b505050506040513d601f19601f820116820180604052508101906103df91906125c0565b90506000600160009054906101000a900473ffffffffffffffffffffffffffffffffffffffff1673ffffffffffffffffffffffffffffffffffffffff1663717947b1846040518263ffffffff1660e01b815260040161043e9190612bfe565b60006040518083038186803b15801561045657600080fd5b505afa15801561046a573d6000803e3d6000fd5b505050506040513d6000823e3d601f19601f8201168201806040525081019061049391906125e9565b50509650505050505050808210156104e0576040517f08c379a00000000000000000000000000000000000000000000000000000000081526004016104d790612b9e565b60405180910390fd5b600160009054906101000a900473ffffffffffffffffffffffffffffffffffffffff1673ffffffffffffffffffffffffffffffffffffffff166342842e0e3330866040518463ffffffff1660e01b815260040161053f939291906129e6565b600060405180830381600087803b15801561055957600080fd5b505af115801561056d573d6000803e3d6000fd5b50505050600260009054906101000a900473ffffffffffffffffffffffffffffffffffffffff1673ffffffffffffffffffffffffffffffffffffffff1663a9059cbb33836040518363ffffffff1660e01b81526004016105ce929190612a1d565b602060405180830381600087803b1580156105e857600080fd5b505af11580156105fc573d6000803e3d6000fd5b505050506040513d601f19601f82011682018060405250810190610620919061256e565b50505050565b600063150b7a0260e01b905095945050505050565b3373ffffffffffffffffffffffffffffffffffffffff16600360009054906101000a900473ffffffffffffffffffffffffffffffffffffffff1673ffffffffffffffffffffffffffffffffffffffff16146106cb576040517f08c379a00000000000000000000000000000000000000000000000000000000081526004016106c290612b3e565b60405180910390fd5b600073ffffffffffffffffffffffffffffffffffffffff168173ffffffffffffffffffffffffffffffffffffffff16141561073b576040517f08c379a000000000000000000000000000000000000000000000000000000000815260040161073290612b5e565b60405180910390fd5b80600160006101000a81548173ffffffffffffffffffffffffffffffffffffffff021916908373ffffffffffffffffffffffffffffffffffffffff16021790555050565b3073ffffffffffffffffffffffffffffffffffffffff163373ffffffffffffffffffffffffffffffffffffffff1614156107ee576040517f08c379a00000000000000000000000000000000000000000000000000000000081526004016107e590612a9e565b60405180910390fd5b600073ffffffffffffffffffffffffffffffffffffffff163373ffffffffffffffffffffffffffffffffffffffff16141561085e576040517f08c379a000000000000000000000000000000000000000000000000000000000815260040161085590612abe565b60405180910390fd5b600081116108a1576040517f08c379a000000000000000000000000000000000000000000000000000000000815260040161089890612ade565b60405180910390fd5b6000600260009054906101000a900473ffffffffffffffffffffffffffffffffffffffff1673ffffffffffffffffffffffffffffffffffffffff166370a08231336040518263ffffffff1660e01b81526004016108fe91906129a2565b60206040518083038186803b15801561091657600080fd5b505afa15801561092a573d6000803e3d6000fd5b505050506040513d601f19601f8201168201806040525081019061094e91906125c0565b90506000600160009054906101000a900473ffffffffffffffffffffffffffffffffffffffff1673ffffffffffffffffffffffffffffffffffffffff1663717947b1846040518263ffffffff1660e01b81526004016109ad9190612bfe565b60006040518083038186803b1580156109c557600080fd5b505afa1580156109d9573d6000803e3d6000fd5b505050506040513d6000823e3d601f19601f82011682018060405250810190610a0291906125e9565b5050965050505050505080821015610a4f576040517f08c379a0000000000000000000000000000000000000000000000000000000008152600401610a4690612b1e565b60405180910390fd5b610a7d600260009054906101000a900473ffffffffffffffffffffffffffffffffffffffff16333084611910565b600160009054906101000a900473ffffffffffffffffffffffffffffffffffffffff1673ffffffffffffffffffffffffffffffffffffffff166342842e0e3033866040518463ffffffff1660e01b8152600401610adc939291906129e6565b600060405180830381600087803b158015610af657600080fd5b505af1158015610b0a573d6000803e3d6000fd5b50505050505050565b60008054906101000a900473ffffffffffffffffffffffffffffffffffffffff1681565b600084905060008173ffffffffffffffffffffffffffffffffffffffff1663dd62ed3e33306040518363ffffffff1660e01b8152600401610b799291906129bd565b60206040518083038186803b158015610b9157600080fd5b505afa158015610ba5573d6000803e3d6000fd5b505050506040513d601f19601f82011682018060405250810190610bc991906125c0565b90506000610bd682611a49565b9050610bfa6040518060600160405280603581526020016133dd6035913982611bf6565b9050858210158190610c42576040517f08c379a0000000000000000000000000000000000000000000000000000000008152600401610c399190612a7c565b60405180910390fd5b50610c4f87333089611910565b8273ffffffffffffffffffffffffffffffffffffffff1663095ea7b3737a250d5630b4cf539739df2c5dacb4c659f2488d886040518363ffffffff1660e01b8152600401610c9e929190612a1d565b602060405180830381600087803b158015610cb857600080fd5b505af1158015610ccc573d6000803e3d6000fd5b505050506040513d601f19601f82011682018060405250810190610cf0919061256e565b610d2f576040517f08c379a0000000000000000000000000000000000000000000000000000000008152600401610d2690612b7e565b60405180910390fd5b6000600267ffffffffffffffff811115610d72577f4e487b7100000000000000000000000000000000000000000000000000000000600052604160045260246000fd5b604051908082528060200260200182016040528015610da05781602001602082028036833780820191505090505b5090508781600081518110610dde577f4e487b7100000000000000000000000000000000000000000000000000000000600052603260045260246000fd5b602002602001019073ffffffffffffffffffffffffffffffffffffffff16908173ffffffffffffffffffffffffffffffffffffffff168152505060008054906101000a900473ffffffffffffffffffffffffffffffffffffffff1673ffffffffffffffffffffffffffffffffffffffff1663ad5c46486040518163ffffffff1660e01b815260040160206040518083038186803b158015610e7e57600080fd5b505afa158015610e92573d6000803e3d6000fd5b505050506040513d601f19601f82011682018060405250810190610eb69190612332565b81600181518110610ef0577f4e487b7100000000000000000000000000000000000000000000000000000000600052603260045260246000fd5b602002602001019073ffffffffffffffffffffffffffffffffffffffff16908173ffffffffffffffffffffffffffffffffffffffff168152505060008054906101000a900473ffffffffffffffffffffffffffffffffffffffff1673ffffffffffffffffffffffffffffffffffffffff166318cbafe5888884338a6040518663ffffffff1660e01b8152600401610f8b959493929190612c65565b600060405180830381600087803b158015610fa557600080fd5b505af1158015610fb9573d6000803e3d6000fd5b505050506040513d6000823e3d601f19601f82011682018060405250810190610fe2919061252d565b505050505050505050565b3373ffffffffffffffffffffffffffffffffffffffff16600360009054906101000a900473ffffffffffffffffffffffffffffffffffffffff1673ffffffffffffffffffffffffffffffffffffffff161461107d576040517f08c379a000000000000000000000000000000000000000000000000000000000815260040161107490612afe565b60405180910390fd5b600073ffffffffffffffffffffffffffffffffffffffff168173ffffffffffffffffffffffffffffffffffffffff1614156110ed576040517f08c379a00000000000000000000000000000000000000000000000000000000081526004016110e490612bbe565b60405180910390fd5b80600260006101000a81548173ffffffffffffffffffffffffffffffffffffffff021916908373ffffffffffffffffffffffffffffffffffffffff16021790555050565b6000600267ffffffffffffffff811115611174577f4e487b7100000000000000000000000000000000000000000000000000000000600052604160045260246000fd5b6040519080825280602002602001820160405280156111a25781602001602082028036833780820191505090505b50905060008054906101000a900473ffffffffffffffffffffffffffffffffffffffff1673ffffffffffffffffffffffffffffffffffffffff1663ad5c46486040518163ffffffff1660e01b815260040160206040518083038186803b15801561120b57600080fd5b505afa15801561121f573d6000803e3d6000fd5b505050506040513d601f19601f820116820180604052508101906112439190612332565b8160008151811061127d577f4e487b7100000000000000000000000000000000000000000000000000000000600052603260045260246000fd5b602002602001019073ffffffffffffffffffffffffffffffffffffffff16908173ffffffffffffffffffffffffffffffffffffffff168152505083816001815181106112f2577f4e487b7100000000000000000000000000000000000000000000000000000000600052603260045260246000fd5b602002602001019073ffffffffffffffffffffffffffffffffffffffff16908173ffffffffffffffffffffffffffffffffffffffff168152505060008054906101000a900473ffffffffffffffffffffffffffffffffffffffff1673ffffffffffffffffffffffffffffffffffffffff16637ff36ab534858433876040518663ffffffff1660e01b815260040161138c9493929190612c19565b6000604051808303818588803b1580156113a557600080fd5b505af11580156113b9573d6000803e3d6000fd5b50505050506040513d6000823e3d601f19601f820116820180604052508101906113e3919061252d565b5050505050565b60008573ffffffffffffffffffffffffffffffffffffffff1663dd62ed3e33306040518363ffffffff1660e01b81526004016114279291906129bd565b60206040518083038186803b15801561143f57600080fd5b505afa158015611453573d6000803e3d6000fd5b505050506040513d601f19601f8201168201806040525081019061147791906125c0565b9050600061148482611a49565b90506114a86040518060600160405280603581526020016133dd6035913982611bf6565b90508582101581906114f0576040517f08c379a00000000000000000000000000000000000000000000000000000000081526004016114e79190612a7c565b60405180910390fd5b506114fd87333089611910565b8673ffffffffffffffffffffffffffffffffffffffff1663095ea7b3737a250d5630b4cf539739df2c5dacb4c659f2488d886040518363ffffffff1660e01b815260040161154c929190612a1d565b602060405180830381600087803b15801561156657600080fd5b505af115801561157a573d6000803e3d6000fd5b505050506040513d601f19601f8201168201806040525081019061159e919061256e565b6115dd576040517f08c379a00000000000000000000000000000000000000000000000000000000081526004016115d490612b7e565b60405180910390fd5b6000600367ffffffffffffffff811115611620577f4e487b7100000000000000000000000000000000000000000000000000000000600052604160045260246000fd5b60405190808252806020026020018201604052801561164e5781602001602082028036833780820191505090505b509050878160008151811061168c577f4e487b7100000000000000000000000000000000000000000000000000000000600052603260045260246000fd5b602002602001019073ffffffffffffffffffffffffffffffffffffffff16908173ffffffffffffffffffffffffffffffffffffffff168152505060008054906101000a900473ffffffffffffffffffffffffffffffffffffffff1673ffffffffffffffffffffffffffffffffffffffff1663ad5c46486040518163ffffffff1660e01b815260040160206040518083038186803b15801561172c57600080fd5b505afa158015611740573d6000803e3d6000fd5b505050506040513d601f19601f820116820180604052508101906117649190612332565b8160018151811061179e577f4e487b7100000000000000000000000000000000000000000000000000000000600052603260045260246000fd5b602002602001019073ffffffffffffffffffffffffffffffffffffffff16908173ffffffffffffffffffffffffffffffffffffffff16815250508581600281518110611813577f4e487b7100000000000000000000000000000000000000000000000000000000600052603260045260246000fd5b602002602001019073ffffffffffffffffffffffffffffffffffffffff16908173ffffffffffffffffffffffffffffffffffffffff168152505060008054906101000a900473ffffffffffffffffffffffffffffffffffffffff1673ffffffffffffffffffffffffffffffffffffffff166338ed173988878433896040518663ffffffff1660e01b81526004016118ae959493929190612c65565b600060405180830381600087803b1580156118c857600080fd5b505af11580156118dc573d6000803e3d6000fd5b505050506040513d6000823e3d601f19601f82011682018060405250810190611905919061252d565b505050505050505050565b6000808573ffffffffffffffffffffffffffffffffffffffff166323b872dd868686604051602401611944939291906129e6565b6040516020818303038152906040529060e01b6020820180517bffffffffffffffffffffffffffffffffffffffffffffffffffffffff8381831617835250505050604051611992919061298b565b6000604051808303816000865af19150503d80600081146119cf576040519150601f19603f3d011682016040523d82523d6000602084013e6119d4565b606091505b5091509150818015611a025750600081511480611a01575080806020019051810190611a00919061256e565b5b5b611a41576040517f08c379a0000000000000000000000000000000000000000000000000000000008152600401611a3890612bde565b60405180910390fd5b505050505050565b60606000821415611a91576040518060400160405280600181526020017f30000000000000000000000000000000000000000000000000000000000000008152509050611bf1565b600082905060005b60008214611ac3578080611aac90612f75565b915050600a82611abc9190612e02565b9150611a99565b60008167ffffffffffffffff811115611b05577f4e487b7100000000000000000000000000000000000000000000000000000000600052604160045260246000fd5b6040519080825280601f01601f191660200182016040528015611b375781602001600182028036833780820191505090505b5090505b60008514611bea57600182611b509190612e33565b9150600a85611b5f9190612fbe565b6030611b6b9190612dac565b60f81b818381518110611ba7577f4e487b7100000000000000000000000000000000000000000000000000000000600052603260045260246000fd5b60200101907effffffffffffffffffffffffffffffffffffffffffffffffffffffffffffff1916908160001a905350600a85611be39190612e02565b9450611b3b565b8093505050505b919050565b6060611c328383604051806020016040528060008152506040518060200160405280600081525060405180602001604052806000815250611c3a565b905092915050565b606060008690506000869050600086905060008690506000869050600081518351855187518951611c6b9190612dac565b611c759190612dac565b611c7f9190612dac565b611c899190612dac565b67ffffffffffffffff811115611cc8577f4e487b7100000000000000000000000000000000000000000000000000000000600052604160045260246000fd5b6040519080825280601f01601f191660200182016040528015611cfa5781602001600182028036833780820191505090505b5090506000819050600080600091505b8851821015611dde57888281518110611d4c577f4e487b7100000000000000000000000000000000000000000000000000000000600052603260045260246000fd5b602001015160f81c60f81b838280611d6390612f75565b935081518110611d9c577f4e487b7100000000000000000000000000000000000000000000000000000000600052603260045260246000fd5b60200101907effffffffffffffffffffffffffffffffffffffffffffffffffffffffffffff1916908160001a9053508180611dd690612f75565b925050611d0a565b600091505b8751821015611eb757878281518110611e25577f4e487b7100000000000000000000000000000000000000000000000000000000600052603260045260246000fd5b602001015160f81c60f81b838280611e3c90612f75565b935081518110611e75577f4e487b7100000000000000000000000000000000000000000000000000000000600052603260045260246000fd5b60200101907effffffffffffffffffffffffffffffffffffffffffffffffffffffffffffff1916908160001a9053508180611eaf90612f75565b925050611de3565b600091505b8651821015611f9057868281518110611efe577f4e487b7100000000000000000000000000000000000000000000000000000000600052603260045260246000fd5b602001015160f81c60f81b838280611f1590612f75565b935081518110611f4e577f4e487b7100000000000000000000000000000000000000000000000000000000600052603260045260246000fd5b60200101907effffffffffffffffffffffffffffffffffffffffffffffffffffffffffffff1916908160001a9053508180611f8890612f75565b925050611ebc565b600091505b855182101561206957858281518110611fd7577f4e487b7100000000000000000000000000000000000000000000000000000000600052603260045260246000fd5b602001015160f81c60f81b838280611fee90612f75565b935081518110612027577f4e487b7100000000000000000000000000000000000000000000000000000000600052603260045260246000fd5b60200101907effffffffffffffffffffffffffffffffffffffffffffffffffffffffffffff1916908160001a905350818061206190612f75565b925050611f95565b600091505b8451821015612142578482815181106120b0577f4e487b7100000000000000000000000000000000000000000000000000000000600052603260045260246000fd5b602001015160f81c60f81b8382806120c790612f75565b935081518110612100577f4e487b7100000000000000000000000000000000000000000000000000000000600052603260045260246000fd5b60200101907effffffffffffffffffffffffffffffffffffffffffffffffffffffffffffff1916908160001a905350818061213a90612f75565b92505061206e565b82995050505050505050505095945050505050565b600061216a61216584612ce4565b612cbf565b9050808382526020820190508285602086028201111561218957600080fd5b60005b858110156121b9578161219f888261231d565b84526020840193506020830192505060018101905061218c565b5050509392505050565b60006121d66121d184612d10565b612cbf565b9050828152602081018484840111156121ee57600080fd5b6121f9848285612f11565b509392505050565b60008135905061221081613380565b92915050565b60008151905061222581613380565b92915050565b60008135905061223a81613397565b92915050565b60008151905061224f81613397565b92915050565b600082601f83011261226657600080fd5b8151612276848260208601612157565b91505092915050565b60008151905061228e816133ae565b92915050565b60008083601f8401126122a657600080fd5b8235905067ffffffffffffffff8111156122bf57600080fd5b6020830191508360018202830111156122d757600080fd5b9250929050565b600082601f8301126122ef57600080fd5b81516122ff8482602086016121c3565b91505092915050565b600081359050612317816133c5565b92915050565b60008151905061232c816133c5565b92915050565b60006020828403121561234457600080fd5b600061235284828501612216565b91505092915050565b60006020828403121561236d57600080fd5b600061237b8482850161222b565b91505092915050565b60008060008060006080868803121561239c57600080fd5b60006123aa88828901612201565b95505060206123bb88828901612201565b94505060406123cc88828901612308565b935050606086013567ffffffffffffffff8111156123e957600080fd5b6123f588828901612294565b92509250509295509295909350565b600080600080600060a0868803121561241c57600080fd5b600061242a88828901612201565b955050602061243b88828901612308565b945050604061244c88828901612201565b935050606061245d88828901612308565b925050608061246e88828901612308565b9150509295509295909350565b60008060006060848603121561249057600080fd5b600061249e86828701612201565b93505060206124af86828701612308565b92505060406124c086828701612308565b9150509250925092565b600080600080608085870312156124e057600080fd5b60006124ee87828801612201565b94505060206124ff87828801612308565b935050604061251087828801612308565b925050606061252187828801612308565b91505092959194509250565b60006020828403121561253f57600080fd5b600082015167ffffffffffffffff81111561255957600080fd5b61256584828501612255565b91505092915050565b60006020828403121561258057600080fd5b600061258e8482850161227f565b91505092915050565b6000602082840312156125a957600080fd5b60006125b784828501612308565b91505092915050565b6000602082840312156125d257600080fd5b60006125e08482850161231d565b91505092915050565b60008060008060008060008060006101208a8c03121561260857600080fd5b60006126168c828d0161231d565b99505060208a015167ffffffffffffffff81111561263357600080fd5b61263f8c828d016122de565b98505060408a015167ffffffffffffffff81111561265c57600080fd5b6126688c828d016122de565b97505060606126798c828d01612240565b965050608061268a8c828d01612240565b95505060a061269b8c828d01612240565b94505060c06126ac8c828d0161231d565b93505060e06126bd8c828d0161231d565b9250506101006126cf8c828d0161227f565b9150509295985092959850929598565b60006126eb83836126f7565b60208301905092915050565b61270081612e67565b82525050565b61270f81612e67565b82525050565b600061272082612d51565b61272a8185612d7f565b935061273583612d41565b8060005b8381101561276657815161274d88826126df565b975061275883612d72565b925050600181019050612739565b5085935050505092915050565b61277c81612e97565b82525050565b600061278d82612d5c565b6127978185612d90565b93506127a7818560208601612f11565b80840191505092915050565b6127bc81612eed565b82525050565b60006127cd82612d67565b6127d78185612d9b565b93506127e7818560208601612f11565b6127f08161307c565b840191505092915050565b6000612808604083612d9b565b91506128138261308d565b604082019050919050565b600061282b602083612d9b565b9150612836826130dc565b602082019050919050565b600061284e602083612d9b565b915061285982613105565b602082019050919050565b6000612871603583612d9b565b915061287c8261312e565b604082019050919050565b6000612894602b83612d9b565b915061289f8261317d565b604082019050919050565b60006128b7603583612d9b565b91506128c2826131cc565b604082019050919050565b60006128da602b83612d9b565b91506128e58261321b565b604082019050919050565b60006128fd601e83612d9b565b91506129088261326a565b602082019050919050565b6000612920602c83612d9b565b915061292b82613293565b604082019050919050565b6000612943602b83612d9b565b915061294e826132e2565b604082019050919050565b6000612966602483612d9b565b915061297182613331565b604082019050919050565b61298581612ee3565b82525050565b60006129978284612782565b915081905092915050565b60006020820190506129b76000830184612706565b92915050565b60006040820190506129d26000830185612706565b6129df6020830184612706565b9392505050565b60006060820190506129fb6000830186612706565b612a086020830185612706565b612a15604083018461297c565b949350505050565b6000604082019050612a326000830185612706565b612a3f602083018461297c565b9392505050565b6000602082019050612a5b6000830184612773565b92915050565b6000602082019050612a7660008301846127b3565b92915050565b60006020820190508181036000830152612a9681846127c2565b905092915050565b60006020820190508181036000830152612ab7816127fb565b9050919050565b60006020820190508181036000830152612ad78161281e565b9050919050565b60006020820190508181036000830152612af781612841565b9050919050565b60006020820190508181036000830152612b1781612864565b9050919050565b60006020820190508181036000830152612b3781612887565b9050919050565b60006020820190508181036000830152612b57816128aa565b9050919050565b60006020820190508181036000830152612b77816128cd565b9050919050565b60006020820190508181036000830152612b97816128f0565b9050919050565b60006020820190508181036000830152612bb781612913565b9050919050565b60006020820190508181036000830152612bd781612936565b9050919050565b60006020820190508181036000830152612bf781612959565b9050919050565b6000602082019050612c13600083018461297c565b92915050565b6000608082019050612c2e600083018761297c565b8181036020830152612c408186612715565b9050612c4f6040830185612706565b612c5c606083018461297c565b95945050505050565b600060a082019050612c7a600083018861297c565b612c87602083018761297c565b8181036040830152612c998186612715565b9050612ca86060830185612706565b612cb5608083018461297c565b9695505050505050565b6000612cc9612cda565b9050612cd58282612f44565b919050565b6000604051905090565b600067ffffffffffffffff821115612cff57612cfe61304d565b5b602082029050602081019050919050565b600067ffffffffffffffff821115612d2b57612d2a61304d565b5b612d348261307c565b9050602081019050919050565b6000819050602082019050919050565b600081519050919050565b600081519050919050565b600081519050919050565b6000602082019050919050565b600082825260208201905092915050565b600081905092915050565b600082825260208201905092915050565b6000612db782612ee3565b9150612dc283612ee3565b9250827fffffffffffffffffffffffffffffffffffffffffffffffffffffffffffffffff03821115612df757612df6612fef565b5b828201905092915050565b6000612e0d82612ee3565b9150612e1883612ee3565b925082612e2857612e2761301e565b5b828204905092915050565b6000612e3e82612ee3565b9150612e4983612ee3565b925082821015612e5c57612e5b612fef565b5b828203905092915050565b6000612e7282612ec3565b9050919050565b6000612e8482612ec3565b9050919050565b60008115159050919050565b60007fffffffff0000000000000000000000000000000000000000000000000000000082169050919050565b600073ffffffffffffffffffffffffffffffffffffffff82169050919050565b6000819050919050565b6000612ef882612eff565b9050919050565b6000612f0a82612ec3565b9050919050565b60005b83811015612f2f578082015181840152602081019050612f14565b83811115612f3e576000848401525b50505050565b612f4d8261307c565b810181811067ffffffffffffffff82111715612f6c57612f6b61304d565b5b80604052505050565b6000612f8082612ee3565b91507fffffffffffffffffffffffffffffffffffffffffffffffffffffffffffffffff821415612fb357612fb2612fef565b5b600182019050919050565b6000612fc982612ee3565b9150612fd483612ee3565b925082612fe457612fe361301e565b5b828206905092915050565b7f4e487b7100000000000000000000000000000000000000000000000000000000600052601160045260246000fd5b7f4e487b7100000000000000000000000000000000000000000000000000000000600052601260045260246000fd5b7f4e487b7100000000000000000000000000000000000000000000000000000000600052604160045260246000fd5b6000601f19601f8301169050919050565b7f65786368616e6765546f4f63617428293a204572726f723a2043616c6c65722060008201527f636f756c646e27742062652073616d6520746f20746869732061646472657373602082015250565b7f65786368616e6765546f4f63617428293a20496e76616c69642063616c6c6572600082015250565b7f65786368616e6765546f4f63617428293a20496e76616c6964204e4654204944600082015250565b7f4f6378537761702e7365744f6361744164647265737328293a2043616c6c657260008201527f20666f7220206d7573742062652063726561746f720000000000000000000000602082015250565b7f496e73756666696369656e742062616c616e6365206f66204f43415420696e2060008201527f746865206163636f756e74000000000000000000000000000000000000000000602082015250565b7f4f6378537761702e736574504e46544164647265737328293a2043616c6c657260008201527f20666f7220206d7573742062652063726561746f720000000000000000000000602082015250565b7f4f6378537761702e736574504e46544164647265737328293a20496e76616c6960008201527f6420706172616d65746572000000000000000000000000000000000000000000602082015250565b7f617070726f766520666f722074686520726f75746572206661696c65642e0000600082015250565b7f496e73756666696369656e742062616c616e6365206f66204f43415420696e2060008201527f74686520636f6e74726163740000000000000000000000000000000000000000602082015250565b7f4f6378537761702e7365744f6361744164647265737328293a20496e76616c6960008201527f6420706172616d65746572000000000000000000000000000000000000000000602082015250565b7f5472616e7366657248656c7065723a205452414e534645525f46524f4d5f464160008201527f494c454400000000000000000000000000000000000000000000000000000000602082015250565b61338981612e67565b811461339457600080fd5b50565b6133a081612e79565b81146133ab57600080fd5b50565b6133b781612e8b565b81146133c257600080fd5b50565b6133ce81612ee3565b81146133d957600080fd5b5056fe4e6f7420656e6f75676820616c6c6f77616e636520666f722074686520455243323020746f6b656e2e20616c6c6f77616e63653a20a2646970667358221220af9668bc10d352d5a5afab7fe4af3263abe4387444db3f66d810c4e94989408364736f6c63430008040033",
  "immutableReferences": {},
  "source": "// SPDX-License-Identifier: MIT\npragma solidity ^0.8.0;\n\n// https://soliditydeveloper.com/uniswap2\n// https://docs.uniswap.org/protocol/V2/guides/smart-contract-integration/trading-from-a-smart-contract\n// https://ethereum.org/ru/developers/tutorials/transfers-and-approval-of-erc-20-tokens-from-a-solidity-smart-contract/\n// https://solidity-by-example.org/app/erc20/\n\nimport \"@uniswap/v2-periphery/contracts/interfaces/IUniswapV2Router02.sol\";\nimport '@uniswap/lib/contracts/libraries/TransferHelper.sol';\nimport \"@openzeppelin/contracts/token/ERC20/IERC20.sol\"; // openzeppelin 4.5 (for solidity 0.8.x)\nimport \"@openzeppelin/contracts/utils/Strings.sol\";\nimport \"@openzeppelin/contracts/token/ERC721/IERC721.sol\";\nimport \"./PawnNFTs.sol\";\nimport \"./OcatToken.sol\";\n\ncontract OcxSwap {\n\n    address private constant UNISWAP_ROUTER_ADDRESS = 0x7a250d5630B4cF539739dF2C5dAcb4c659F2488D;\n\n    IUniswapV2Router02 public uniswapRouter;\n    address payable private pnftAddress;\n    address payable private ocatAddress;\n    address payable private creator;\n\n    receive() external payable {}\n\n    constructor() {\n        creator = payable(msg.sender);\n        uniswapRouter = IUniswapV2Router02(UNISWAP_ROUTER_ADDRESS);\n    }\n\n    function setPnftAddress(address payable _pnftAddress) public {\n        require(creator == msg.sender, \"OcxSwap.setPNFTAddress(): Caller for  must be creator\");\n        require(_pnftAddress != address(0), \"OcxSwap.setPNFTAddress(): Invalid parameter\");\n        pnftAddress = _pnftAddress;\n    }\n\n    function setOcatAddress(address payable _ocatAddress) public {\n        require(creator == msg.sender, \"OcxSwap.setOcatAddress(): Caller for  must be creator\");\n        require(_ocatAddress != address(0), \"OcxSwap.setOcatAddress(): Invalid parameter\");\n        ocatAddress = _ocatAddress;\n    }\n\n    function swapFromETH(\n        address _tokenOut,\n        uint _amountOutMin,\n        uint _deadline\n    ) public payable {\n        // uint deadline = block.timestamp + 15; // using 'now' for convenience, for mainnet pass deadline from frontend!\n        address[] memory path = new address[](2);\n        path[0] = uniswapRouter.WETH();\n        path[1] = address(_tokenOut);\n        uniswapRouter.swapExactETHForTokens{value: msg.value}(_amountOutMin, path, msg.sender, _deadline);\n    }\n\n    function swapToETH(\n        address _tokenIn,\n        uint _amountIn,\n        uint _amountOutMin,\n        uint _deadline\n    ) public {\n        // transferFrom\n        IERC20 sellTokenContract = IERC20(_tokenIn);\n        //     Check for allowance\n        uint256 allowance = sellTokenContract.allowance(msg.sender, address(this));\n        string memory errorText = Strings.toString(allowance);\n        errorText = strConcat(\"Not enough allowance for the ERC20 token. allowance: \", errorText);\n        require(allowance >= _amountIn, errorText);\n        //     Do transferFrom\n        TransferHelper.safeTransferFrom(_tokenIn, msg.sender, address(this), _amountIn);\n\n        // approve\n        require(sellTokenContract.approve(address(UNISWAP_ROUTER_ADDRESS), _amountIn), 'approve for the router failed.');\n\n        address[] memory path = new address[](2);\n        path[0] = address(_tokenIn);\n        path[1] = uniswapRouter.WETH();\n        uniswapRouter.swapExactTokensForETH(_amountIn, _amountOutMin, path, msg.sender, _deadline);\n    }\n\n    function swapForERC20(\n        address _tokenIn,\n        uint _amountIn,\n        address _tokenOut,\n        uint _amountOutMin,\n        uint _deadline\n    ) public {\n        // transferFrom\n        //    Check for allowance\n        uint256 allowance = IERC20(_tokenIn).allowance(msg.sender, address(this));\n        string memory errorText = Strings.toString(allowance);\n        errorText = strConcat(\"Not enough allowance for the ERC20 token. allowance: \", errorText);\n        require(allowance >= _amountIn, errorText);\n        //     Do transferFrom\n        TransferHelper.safeTransferFrom(_tokenIn, msg.sender, address(this), _amountIn);\n\n        // approve\n        require(\n            IERC20(_tokenIn).approve(address(UNISWAP_ROUTER_ADDRESS), _amountIn), \n            'approve for the router failed.'\n        );\n\n        address[] memory path = new address[](3);\n        path[0] = _tokenIn;\n        path[1] = uniswapRouter.WETH();\n        path[2] = _tokenOut;\n        uniswapRouter.swapExactTokensForTokens(_amountIn, _amountOutMin, path, msg.sender, _deadline);\n    }\n\n    function onERC721Received(\n        address operator,\n        address from,\n        uint256 tokenId,\n        bytes calldata data\n    ) external returns (bytes4) {\n        return this.onERC721Received.selector;\n    }\n\n    function exchangeToOcat(uint256 nftID) public {\n        require(msg.sender != address(this), \"exchangeToOcat(): Error: Caller couldn't be same to this address\");\n        require(msg.sender != address(0), \"exchangeToOcat(): Invalid caller\");\n        require(nftID > 0, \"exchangeToOcat(): Invalid NFT ID\");\n        uint256 ocatBalance = IERC20(ocatAddress).balanceOf(address(this));\n        // Get price for the NFT\n        (,,,,,,uint256 price,,) = PawnNFTs(payable(address(pnftAddress))).allPawnNFTs(nftID);\n        // uint256 price = nftItem.price;\n        require(ocatBalance >= price, \"Insufficient balance of OCAT in the contract\");\n        // safeTransferFrom: send NFT from caller to the address\n        IERC721(pnftAddress).safeTransferFrom(msg.sender, address(this), nftID);\n        // Pay OCAT for the NFT\n        IERC20(ocatAddress).transfer(msg.sender, price);\n        //   Then transfer OCATs from the address to caller\n        // TransferHelper.safeTransferFrom(ocatAddress, address(this), msg.sender, price);\n    }\n\n    function exchangeFromOcat(uint256 nftID) public {\n        require(msg.sender != address(this), \"exchangeToOcat(): Error: Caller couldn't be same to this address\");\n        require(msg.sender != address(0), \"exchangeToOcat(): Invalid caller\");\n        require(nftID > 0, \"exchangeToOcat(): Invalid NFT ID\");\n        uint256 ocatBalance = IERC20(ocatAddress).balanceOf(msg.sender);\n        // Get price for the NFT\n        (,,,,,,uint256 price,,) = PawnNFTs(payable(address(pnftAddress))).allPawnNFTs(nftID);\n        // uint256 price = nftItem.price;\n        require(ocatBalance >= price, \"Insufficient balance of OCAT in the account\");\n        // safeTransferFrom: send NFT from caller to the address\n        TransferHelper.safeTransferFrom(ocatAddress, msg.sender, address(this), price);\n        // Pay OCAT for the NFT\n        IERC721(pnftAddress).safeTransferFrom(address(this), msg.sender, nftID);\n        //   Then transfer OCATs from the address to caller\n        // TransferHelper.safeTransferFrom(ocatAddress, address(this), msg.sender, price);\n    }\n\n\n\n    ////////////////////////////////////////////////////////////////////////////////////////\n    function strConcat(\n            string memory _a, \n            string memory _b, \n            string memory _c, \n            string memory _d, \n            string memory _e\n    ) internal view returns (string memory){\n        bytes memory _ba = bytes(_a);\n        bytes memory _bb = bytes(_b);\n        bytes memory _bc = bytes(_c);\n        bytes memory _bd = bytes(_d);\n        bytes memory _be = bytes(_e);\n        string memory abcde = new string(_ba.length + _bb.length + _bc.length + _bd.length + _be.length);\n        bytes memory babcde = bytes(abcde);\n\n        uint i = 0;\n        uint k = 0;\n\n        for (i = 0; i < _ba.length; i++) babcde[k++] = _ba[i];\n        for (i = 0; i < _bb.length; i++) babcde[k++] = _bb[i];\n        for (i = 0; i < _bc.length; i++) babcde[k++] = _bc[i];\n        for (i = 0; i < _bd.length; i++) babcde[k++] = _bd[i];\n        for (i = 0; i < _be.length; i++) babcde[k++] = _be[i];\n        return string(babcde);\n    }\n\n    function strConcat(\n            string memory _a, \n            string memory _b, \n            string memory _c, \n            string memory _d\n    ) internal view returns (string memory) {\n        return strConcat(_a, _b, _c, _d, \"\");\n    }\n\n    function strConcat(\n            string memory _a, \n            string memory _b, \n            string memory _c\n    ) internal view returns (string memory) {\n        return strConcat(_a, _b, _c, \"\", \"\");\n    }\n\n    function strConcat(\n            string memory _a, \n            string memory _b\n    ) internal view returns (string memory) {\n        return strConcat(_a, _b, \"\", \"\", \"\");\n    }\n}\n",
  "sourcePath": "/home/vn/MyProjects/OpenchainDex/OpenchainTestVersion/server/contracts/OcxSwap.sol",
  "compiler": {
    "name": "solc",
    "version": "0.8.4+commit.c7e474f2.Emscripten.clang"
  },
  "schemaVersion": "3.4.4",
  "updatedAt": "2022-03-23T14:33:26.735Z",
  "devdoc": {
    "kind": "dev",
    "methods": {},
    "version": 1
  },
  "userdoc": {
    "kind": "user",
    "methods": {},
    "version": 1
  }
}