{
  "contractName": "OcxToken",
  "abi": [
    {
      "inputs": [],
      "stateMutability": "nonpayable",
      "type": "constructor"
    },
    {
      "anonymous": false,
      "inputs": [
        {
          "indexed": true,
          "internalType": "address",
          "name": "owner",
          "type": "address"
        },
        {
          "indexed": true,
          "internalType": "address",
          "name": "spender",
          "type": "address"
        },
        {
          "indexed": false,
          "internalType": "uint256",
          "name": "value",
          "type": "uint256"
        }
      ],
      "name": "Approval",
      "type": "event"
    },
    {
      "anonymous": false,
      "inputs": [
        {
          "indexed": true,
          "internalType": "address",
          "name": "from",
          "type": "address"
        },
        {
          "indexed": true,
          "internalType": "address",
          "name": "to",
          "type": "address"
        },
        {
          "indexed": false,
          "internalType": "uint256",
          "name": "value",
          "type": "uint256"
        }
      ],
      "name": "Transfer",
      "type": "event"
    },
    {
      "anonymous": false,
      "inputs": [
        {
          "indexed": false,
          "internalType": "uint256",
          "name": "amount",
          "type": "uint256"
        }
      ],
      "name": "burned",
      "type": "event"
    },
    {
      "anonymous": false,
      "inputs": [
        {
          "indexed": false,
          "internalType": "uint256",
          "name": "amount",
          "type": "uint256"
        }
      ],
      "name": "minted",
      "type": "event"
    },
    {
      "inputs": [
        {
          "internalType": "address",
          "name": "_admin",
          "type": "address"
        }
      ],
      "name": "addAdmin",
      "outputs": [],
      "stateMutability": "nonpayable",
      "type": "function"
    },
    {
      "inputs": [
        {
          "internalType": "address",
          "name": "owner",
          "type": "address"
        },
        {
          "internalType": "address",
          "name": "spender",
          "type": "address"
        }
      ],
      "name": "allowance",
      "outputs": [
        {
          "internalType": "uint256",
          "name": "",
          "type": "uint256"
        }
      ],
      "stateMutability": "view",
      "type": "function",
      "constant": true
    },
    {
      "inputs": [
        {
          "internalType": "address",
          "name": "spender",
          "type": "address"
        },
        {
          "internalType": "uint256",
          "name": "amount",
          "type": "uint256"
        }
      ],
      "name": "approve",
      "outputs": [
        {
          "internalType": "bool",
          "name": "",
          "type": "bool"
        }
      ],
      "stateMutability": "nonpayable",
      "type": "function"
    },
    {
      "inputs": [
        {
          "internalType": "address",
          "name": "account",
          "type": "address"
        }
      ],
      "name": "balanceOf",
      "outputs": [
        {
          "internalType": "uint256",
          "name": "",
          "type": "uint256"
        }
      ],
      "stateMutability": "view",
      "type": "function",
      "constant": true
    },
    {
      "inputs": [
        {
          "internalType": "address",
          "name": "spender",
          "type": "address"
        },
        {
          "internalType": "uint256",
          "name": "subtractedValue",
          "type": "uint256"
        }
      ],
      "name": "decreaseAllowance",
      "outputs": [
        {
          "internalType": "bool",
          "name": "",
          "type": "bool"
        }
      ],
      "stateMutability": "nonpayable",
      "type": "function"
    },
    {
      "inputs": [
        {
          "internalType": "address",
          "name": "spender",
          "type": "address"
        },
        {
          "internalType": "uint256",
          "name": "addedValue",
          "type": "uint256"
        }
      ],
      "name": "increaseAllowance",
      "outputs": [
        {
          "internalType": "bool",
          "name": "",
          "type": "bool"
        }
      ],
      "stateMutability": "nonpayable",
      "type": "function"
    },
    {
      "inputs": [
        {
          "internalType": "address",
          "name": "_address",
          "type": "address"
        }
      ],
      "name": "isAdmin",
      "outputs": [
        {
          "internalType": "bool",
          "name": "yes",
          "type": "bool"
        }
      ],
      "stateMutability": "view",
      "type": "function",
      "constant": true
    },
    {
      "inputs": [],
      "name": "name",
      "outputs": [
        {
          "internalType": "string",
          "name": "",
          "type": "string"
        }
      ],
      "stateMutability": "view",
      "type": "function",
      "constant": true
    },
    {
      "inputs": [],
      "name": "symbol",
      "outputs": [
        {
          "internalType": "string",
          "name": "",
          "type": "string"
        }
      ],
      "stateMutability": "view",
      "type": "function",
      "constant": true
    },
    {
      "inputs": [],
      "name": "totalSupply",
      "outputs": [
        {
          "internalType": "uint256",
          "name": "",
          "type": "uint256"
        }
      ],
      "stateMutability": "view",
      "type": "function",
      "constant": true
    },
    {
      "inputs": [
        {
          "internalType": "address",
          "name": "to",
          "type": "address"
        },
        {
          "internalType": "uint256",
          "name": "amount",
          "type": "uint256"
        }
      ],
      "name": "transfer",
      "outputs": [
        {
          "internalType": "bool",
          "name": "",
          "type": "bool"
        }
      ],
      "stateMutability": "nonpayable",
      "type": "function"
    },
    {
      "inputs": [
        {
          "internalType": "address",
          "name": "from",
          "type": "address"
        },
        {
          "internalType": "address",
          "name": "to",
          "type": "address"
        },
        {
          "internalType": "uint256",
          "name": "amount",
          "type": "uint256"
        }
      ],
      "name": "transferFrom",
      "outputs": [
        {
          "internalType": "bool",
          "name": "",
          "type": "bool"
        }
      ],
      "stateMutability": "nonpayable",
      "type": "function"
    },
    {
      "stateMutability": "payable",
      "type": "receive",
      "payable": true
    },
    {
      "inputs": [
        {
          "internalType": "uint256",
          "name": "amount",
          "type": "uint256"
        }
      ],
      "name": "mint",
      "outputs": [],
      "stateMutability": "payable",
      "type": "function",
      "payable": true
    },
    {
      "inputs": [
        {
          "internalType": "uint256",
          "name": "amount",
          "type": "uint256"
        }
      ],
      "name": "burn",
      "outputs": [],
      "stateMutability": "nonpayable",
      "type": "function"
    },
    {
      "inputs": [],
      "name": "decimals",
      "outputs": [
        {
          "internalType": "uint8",
          "name": "",
          "type": "uint8"
        }
      ],
      "stateMutability": "view",
      "type": "function",
      "constant": true
    }
  ],
  "bytecode": "0x60806040523480156200001157600080fd5b50604051806060016040528060338152602001620027c8603391396040518060400160405280600381526020017f4f4358000000000000000000000000000000000000000000000000000000000081525081600390805190602001906200007a9291906200033a565b508060049080519060200190620000939291906200033a565b50505033600660016101000a81548173ffffffffffffffffffffffffffffffffffffffff021916908373ffffffffffffffffffffffffffffffffffffffff160217905550620000e8336200010a60201b60201c565b6009600660156101000a81548160ff021916908360ff16021790555062000630565b600073ffffffffffffffffffffffffffffffffffffffff16600660019054906101000a900473ffffffffffffffffffffffffffffffffffffffff1673ffffffffffffffffffffffffffffffffffffffff1614156200019f576040517f08c379a0000000000000000000000000000000000000000000000000000000008152600401620001969062000481565b60405180910390fd5b600660019054906101000a900473ffffffffffffffffffffffffffffffffffffffff1673ffffffffffffffffffffffffffffffffffffffff163373ffffffffffffffffffffffffffffffffffffffff161462000232576040517f08c379a000000000000000000000000000000000000000000000000000000000815260040162000229906200045f565b60405180910390fd5b80600073ffffffffffffffffffffffffffffffffffffffff168173ffffffffffffffffffffffffffffffffffffffff161415620002a6576040517f08c379a00000000000000000000000000000000000000000000000000000000081526004016200029d90620004a3565b60405180910390fd5b6001600560008473ffffffffffffffffffffffffffffffffffffffff1673ffffffffffffffffffffffffffffffffffffffff16815260200190815260200160002060006101000a81548160ff0219169083151502179055506001600660009054906101000a900460ff166200031c9190620004d6565b600660006101000a81548160ff021916908360ff1602179055505050565b828054620003489062000521565b90600052602060002090601f0160209004810192826200036c5760008555620003b8565b82601f106200038757805160ff1916838001178555620003b8565b82800160010185558215620003b8579182015b82811115620003b75782518255916020019190600101906200039a565b5b509050620003c79190620003cb565b5090565b5b80821115620003e6576000816000905550600101620003cc565b5090565b6000620003f9601e83620004c5565b91506200040682620005b5565b602082019050919050565b600062000420601783620004c5565b91506200042d82620005de565b602082019050919050565b600062000447601983620004c5565b9150620004548262000607565b602082019050919050565b600060208201905081810360008301526200047a81620003ea565b9050919050565b600060208201905081810360008301526200049c8162000411565b9050919050565b60006020820190508181036000830152620004be8162000438565b9050919050565b600082825260208201905092915050565b6000620004e38262000514565b9150620004f08362000514565b92508260ff0382111562000509576200050862000557565b5b828201905092915050565b600060ff82169050919050565b600060028204905060018216806200053a57607f821691505b6020821081141562000551576200055062000586565b5b50919050565b7f4e487b7100000000000000000000000000000000000000000000000000000000600052601160045260246000fd5b7f4e487b7100000000000000000000000000000000000000000000000000000000600052602260045260246000fd5b7f466f722063616c6c65722065787065637465642062652063726561746f720000600082015250565b7f496e76616c69642063726561746f722061646472657373000000000000000000600082015250565b7f4578706563746564206e6f6e2d7a65726f206164647265737300000000000000600082015250565b61218880620006406000396000f3fe6080604052600436106100ec5760003560e01c806342966c681161008a578063a0712d6811610059578063a0712d6814610327578063a457c2d714610343578063a9059cbb14610380578063dd62ed3e146103bd576100f3565b806342966c681461026d578063704802751461029657806370a08231146102bf57806395d89b41146102fc576100f3565b806323b872dd116100c657806323b872dd1461018b57806324d7806c146101c8578063313ce567146102055780633950935114610230576100f3565b806306fdde03146100f8578063095ea7b31461012357806318160ddd14610160576100f3565b366100f357005b600080fd5b34801561010457600080fd5b5061010d6103fa565b60405161011a919061194f565b60405180910390f35b34801561012f57600080fd5b5061014a6004803603810190610145919061165c565b61048c565b6040516101579190611934565b60405180910390f35b34801561016c57600080fd5b506101756104af565b6040516101829190611b51565b60405180910390f35b34801561019757600080fd5b506101b260048036038101906101ad919061160d565b6104b9565b6040516101bf9190611934565b60405180910390f35b3480156101d457600080fd5b506101ef60048036038101906101ea91906115a8565b6104e8565b6040516101fc9190611934565b60405180910390f35b34801561021157600080fd5b5061021a61053e565b6040516102279190611b6c565b60405180910390f35b34801561023c57600080fd5b506102576004803603810190610252919061165c565b610555565b6040516102649190611934565b60405180910390f35b34801561027957600080fd5b50610294600480360381019061028f9190611698565b6105ff565b005b3480156102a257600080fd5b506102bd60048036038101906102b891906115a8565b61078a565b005b3480156102cb57600080fd5b506102e660048036038101906102e191906115a8565b6109af565b6040516102f39190611b51565b60405180910390f35b34801561030857600080fd5b506103116109f7565b60405161031e919061194f565b60405180910390f35b610341600480360381019061033c9190611698565b610a89565b005b34801561034f57600080fd5b5061036a6004803603810190610365919061165c565b610bc9565b6040516103779190611934565b60405180910390f35b34801561038c57600080fd5b506103a760048036038101906103a2919061165c565b610cb3565b6040516103b49190611934565b60405180910390f35b3480156103c957600080fd5b506103e460048036038101906103df91906115d1565b610cd6565b6040516103f19190611b51565b60405180910390f35b60606003805461040990611cec565b80601f016020809104026020016040519081016040528092919081815260200182805461043590611cec565b80156104825780601f1061045757610100808354040283529160200191610482565b820191906000526020600020905b81548152906001019060200180831161046557829003601f168201915b5050505050905090565b600080610497610d5d565b90506104a4818585610d65565b600191505092915050565b6000600254905090565b6000806104c4610d5d565b90506104d1858285610f30565b6104dc858585610fbc565b60019150509392505050565b6000600560008373ffffffffffffffffffffffffffffffffffffffff1673ffffffffffffffffffffffffffffffffffffffff16815260200190815260200160002060009054906101000a900460ff169050919050565b6000600660159054906101000a900460ff16905090565b600080610560610d5d565b90506105f4818585600160008673ffffffffffffffffffffffffffffffffffffffff1673ffffffffffffffffffffffffffffffffffffffff16815260200190815260200160002060008973ffffffffffffffffffffffffffffffffffffffff1673ffffffffffffffffffffffffffffffffffffffff168152602001908152602001600020546105ef9190611ba3565b610d65565b600191505092915050565b600073ffffffffffffffffffffffffffffffffffffffff163373ffffffffffffffffffffffffffffffffffffffff16141561066f576040517f08c379a000000000000000000000000000000000000000000000000000000000815260040161066690611a31565b60405180910390fd5b600560003373ffffffffffffffffffffffffffffffffffffffff1673ffffffffffffffffffffffffffffffffffffffff16815260200190815260200160002060009054906101000a900460ff166106fb576040517f08c379a00000000000000000000000000000000000000000000000000000000081526004016106f290611ab1565b60405180910390fd5b80610705336109af565b1015610746576040517f08c379a000000000000000000000000000000000000000000000000000000000815260040161073d90611ad1565b60405180910390fd5b610750338261123d565b7f23250cae4640284325b9674615c3761bee977451a30bc4eee69efa47f356beba8160405161077f9190611b51565b60405180910390a150565b600073ffffffffffffffffffffffffffffffffffffffff16600660019054906101000a900473ffffffffffffffffffffffffffffffffffffffff1673ffffffffffffffffffffffffffffffffffffffff16141561081c576040517f08c379a000000000000000000000000000000000000000000000000000000000815260040161081390611a31565b60405180910390fd5b600660019054906101000a900473ffffffffffffffffffffffffffffffffffffffff1673ffffffffffffffffffffffffffffffffffffffff163373ffffffffffffffffffffffffffffffffffffffff16146108ac576040517f08c379a00000000000000000000000000000000000000000000000000000000081526004016108a3906119f1565b60405180910390fd5b80600073ffffffffffffffffffffffffffffffffffffffff168173ffffffffffffffffffffffffffffffffffffffff16141561091d576040517f08c379a000000000000000000000000000000000000000000000000000000000815260040161091490611a51565b60405180910390fd5b6001600560008473ffffffffffffffffffffffffffffffffffffffff1673ffffffffffffffffffffffffffffffffffffffff16815260200190815260200160002060006101000a81548160ff0219169083151502179055506001600660009054906101000a900460ff166109919190611bf9565b600660006101000a81548160ff021916908360ff1602179055505050565b60008060008373ffffffffffffffffffffffffffffffffffffffff1673ffffffffffffffffffffffffffffffffffffffff168152602001908152602001600020549050919050565b606060048054610a0690611cec565b80601f0160208091040260200160405190810160405280929190818152602001828054610a3290611cec565b8015610a7f5780601f10610a5457610100808354040283529160200191610a7f565b820191906000526020600020905b815481529060010190602001808311610a6257829003601f168201915b5050505050905090565b600073ffffffffffffffffffffffffffffffffffffffff163373ffffffffffffffffffffffffffffffffffffffff161415610af9576040517f08c379a0000000000000000000000000000000000000000000000000000000008152600401610af090611a31565b60405180910390fd5b600560003373ffffffffffffffffffffffffffffffffffffffff1673ffffffffffffffffffffffffffffffffffffffff16815260200190815260200160002060009054906101000a900460ff16610b85576040517f08c379a0000000000000000000000000000000000000000000000000000000008152600401610b7c90611ab1565b60405180910390fd5b610b8f3382611414565b7f7dc0bf3ff15656545da2c5f0567962839fe379f74aacdfc4e8025bb24e0c082d81604051610bbe9190611b51565b60405180910390a150565b600080610bd4610d5d565b90506000600160008373ffffffffffffffffffffffffffffffffffffffff1673ffffffffffffffffffffffffffffffffffffffff16815260200190815260200160002060008673ffffffffffffffffffffffffffffffffffffffff1673ffffffffffffffffffffffffffffffffffffffff16815260200190815260200160002054905083811015610c9a576040517f08c379a0000000000000000000000000000000000000000000000000000000008152600401610c9190611b11565b60405180910390fd5b610ca78286868403610d65565b60019250505092915050565b600080610cbe610d5d565b9050610ccb818585610fbc565b600191505092915050565b6000600160008473ffffffffffffffffffffffffffffffffffffffff1673ffffffffffffffffffffffffffffffffffffffff16815260200190815260200160002060008373ffffffffffffffffffffffffffffffffffffffff1673ffffffffffffffffffffffffffffffffffffffff16815260200190815260200160002054905092915050565b600033905090565b600073ffffffffffffffffffffffffffffffffffffffff168373ffffffffffffffffffffffffffffffffffffffff161415610dd5576040517f08c379a0000000000000000000000000000000000000000000000000000000008152600401610dcc90611af1565b60405180910390fd5b600073ffffffffffffffffffffffffffffffffffffffff168273ffffffffffffffffffffffffffffffffffffffff161415610e45576040517f08c379a0000000000000000000000000000000000000000000000000000000008152600401610e3c906119b1565b60405180910390fd5b80600160008573ffffffffffffffffffffffffffffffffffffffff1673ffffffffffffffffffffffffffffffffffffffff16815260200190815260200160002060008473ffffffffffffffffffffffffffffffffffffffff1673ffffffffffffffffffffffffffffffffffffffff168152602001908152602001600020819055508173ffffffffffffffffffffffffffffffffffffffff168373ffffffffffffffffffffffffffffffffffffffff167f8c5be1e5ebec7d5bd14f71427d1e84f3dd0314c0f7b2291e5b200ac8c7c3b92583604051610f239190611b51565b60405180910390a3505050565b6000610f3c8484610cd6565b90507fffffffffffffffffffffffffffffffffffffffffffffffffffffffffffffffff8114610fb65781811015610fa8576040517f08c379a0000000000000000000000000000000000000000000000000000000008152600401610f9f906119d1565b60405180910390fd5b610fb58484848403610d65565b5b50505050565b600073ffffffffffffffffffffffffffffffffffffffff168373ffffffffffffffffffffffffffffffffffffffff16141561102c576040517f08c379a000000000000000000000000000000000000000000000000000000000815260040161102390611a91565b60405180910390fd5b600073ffffffffffffffffffffffffffffffffffffffff168273ffffffffffffffffffffffffffffffffffffffff16141561109c576040517f08c379a000000000000000000000000000000000000000000000000000000000815260040161109390611971565b60405180910390fd5b6110a7838383611574565b60008060008573ffffffffffffffffffffffffffffffffffffffff1673ffffffffffffffffffffffffffffffffffffffff1681526020019081526020016000205490508181101561112d576040517f08c379a000000000000000000000000000000000000000000000000000000000815260040161112490611a11565b60405180910390fd5b8181036000808673ffffffffffffffffffffffffffffffffffffffff1673ffffffffffffffffffffffffffffffffffffffff16815260200190815260200160002081905550816000808573ffffffffffffffffffffffffffffffffffffffff1673ffffffffffffffffffffffffffffffffffffffff16815260200190815260200160002060008282546111c09190611ba3565b925050819055508273ffffffffffffffffffffffffffffffffffffffff168473ffffffffffffffffffffffffffffffffffffffff167fddf252ad1be2c89b69c2b068fc378daa952ba7f163c4a11628f55a4df523b3ef846040516112249190611b51565b60405180910390a3611237848484611579565b50505050565b600073ffffffffffffffffffffffffffffffffffffffff168273ffffffffffffffffffffffffffffffffffffffff1614156112ad576040517f08c379a00000000000000000000000000000000000000000000000000000000081526004016112a490611a71565b60405180910390fd5b6112b982600083611574565b60008060008473ffffffffffffffffffffffffffffffffffffffff1673ffffffffffffffffffffffffffffffffffffffff1681526020019081526020016000205490508181101561133f576040517f08c379a000000000000000000000000000000000000000000000000000000000815260040161133690611991565b60405180910390fd5b8181036000808573ffffffffffffffffffffffffffffffffffffffff1673ffffffffffffffffffffffffffffffffffffffff1681526020019081526020016000208190555081600260008282546113969190611c30565b92505081905550600073ffffffffffffffffffffffffffffffffffffffff168373ffffffffffffffffffffffffffffffffffffffff167fddf252ad1be2c89b69c2b068fc378daa952ba7f163c4a11628f55a4df523b3ef846040516113fb9190611b51565b60405180910390a361140f83600084611579565b505050565b600073ffffffffffffffffffffffffffffffffffffffff168273ffffffffffffffffffffffffffffffffffffffff161415611484576040517f08c379a000000000000000000000000000000000000000000000000000000000815260040161147b90611b31565b60405180910390fd5b61149060008383611574565b80600260008282546114a29190611ba3565b92505081905550806000808473ffffffffffffffffffffffffffffffffffffffff1673ffffffffffffffffffffffffffffffffffffffff16815260200190815260200160002060008282546114f79190611ba3565b925050819055508173ffffffffffffffffffffffffffffffffffffffff16600073ffffffffffffffffffffffffffffffffffffffff167fddf252ad1be2c89b69c2b068fc378daa952ba7f163c4a11628f55a4df523b3ef8360405161155c9190611b51565b60405180910390a361157060008383611579565b5050565b505050565b505050565b60008135905061158d81612124565b92915050565b6000813590506115a28161213b565b92915050565b6000602082840312156115ba57600080fd5b60006115c88482850161157e565b91505092915050565b600080604083850312156115e457600080fd5b60006115f28582860161157e565b92505060206116038582860161157e565b9150509250929050565b60008060006060848603121561162257600080fd5b60006116308682870161157e565b93505060206116418682870161157e565b925050604061165286828701611593565b9150509250925092565b6000806040838503121561166f57600080fd5b600061167d8582860161157e565b925050602061168e85828601611593565b9150509250929050565b6000602082840312156116aa57600080fd5b60006116b884828501611593565b91505092915050565b6116ca81611c76565b82525050565b60006116db82611b87565b6116e58185611b92565b93506116f5818560208601611cb9565b6116fe81611d7c565b840191505092915050565b6000611716602383611b92565b915061172182611d8d565b604082019050919050565b6000611739602283611b92565b915061174482611ddc565b604082019050919050565b600061175c602283611b92565b915061176782611e2b565b604082019050919050565b600061177f601d83611b92565b915061178a82611e7a565b602082019050919050565b60006117a2601e83611b92565b91506117ad82611ea3565b602082019050919050565b60006117c5602683611b92565b91506117d082611ecc565b604082019050919050565b60006117e8601783611b92565b91506117f382611f1b565b602082019050919050565b600061180b601983611b92565b915061181682611f44565b602082019050919050565b600061182e602183611b92565b915061183982611f6d565b604082019050919050565b6000611851602583611b92565b915061185c82611fbc565b604082019050919050565b6000611874600d83611b92565b915061187f8261200b565b602082019050919050565b6000611897602083611b92565b91506118a282612034565b602082019050919050565b60006118ba602483611b92565b91506118c58261205d565b604082019050919050565b60006118dd602583611b92565b91506118e8826120ac565b604082019050919050565b6000611900601f83611b92565b915061190b826120fb565b602082019050919050565b61191f81611ca2565b82525050565b61192e81611cac565b82525050565b600060208201905061194960008301846116c1565b92915050565b6000602082019050818103600083015261196981846116d0565b905092915050565b6000602082019050818103600083015261198a81611709565b9050919050565b600060208201905081810360008301526119aa8161172c565b9050919050565b600060208201905081810360008301526119ca8161174f565b9050919050565b600060208201905081810360008301526119ea81611772565b9050919050565b60006020820190508181036000830152611a0a81611795565b9050919050565b60006020820190508181036000830152611a2a816117b8565b9050919050565b60006020820190508181036000830152611a4a816117db565b9050919050565b60006020820190508181036000830152611a6a816117fe565b9050919050565b60006020820190508181036000830152611a8a81611821565b9050919050565b60006020820190508181036000830152611aaa81611844565b9050919050565b60006020820190508181036000830152611aca81611867565b9050919050565b60006020820190508181036000830152611aea8161188a565b9050919050565b60006020820190508181036000830152611b0a816118ad565b9050919050565b60006020820190508181036000830152611b2a816118d0565b9050919050565b60006020820190508181036000830152611b4a816118f3565b9050919050565b6000602082019050611b666000830184611916565b92915050565b6000602082019050611b816000830184611925565b92915050565b600081519050919050565b600082825260208201905092915050565b6000611bae82611ca2565b9150611bb983611ca2565b9250827fffffffffffffffffffffffffffffffffffffffffffffffffffffffffffffffff03821115611bee57611bed611d1e565b5b828201905092915050565b6000611c0482611cac565b9150611c0f83611cac565b92508260ff03821115611c2557611c24611d1e565b5b828201905092915050565b6000611c3b82611ca2565b9150611c4683611ca2565b925082821015611c5957611c58611d1e565b5b828203905092915050565b6000611c6f82611c82565b9050919050565b60008115159050919050565b600073ffffffffffffffffffffffffffffffffffffffff82169050919050565b6000819050919050565b600060ff82169050919050565b60005b83811015611cd7578082015181840152602081019050611cbc565b83811115611ce6576000848401525b50505050565b60006002820490506001821680611d0457607f821691505b60208210811415611d1857611d17611d4d565b5b50919050565b7f4e487b7100000000000000000000000000000000000000000000000000000000600052601160045260246000fd5b7f4e487b7100000000000000000000000000000000000000000000000000000000600052602260045260246000fd5b6000601f19601f8301169050919050565b7f45524332303a207472616e7366657220746f20746865207a65726f206164647260008201527f6573730000000000000000000000000000000000000000000000000000000000602082015250565b7f45524332303a206275726e20616d6f756e7420657863656564732062616c616e60008201527f6365000000000000000000000000000000000000000000000000000000000000602082015250565b7f45524332303a20617070726f766520746f20746865207a65726f20616464726560008201527f7373000000000000000000000000000000000000000000000000000000000000602082015250565b7f45524332303a20696e73756666696369656e7420616c6c6f77616e6365000000600082015250565b7f466f722063616c6c65722065787065637465642062652063726561746f720000600082015250565b7f45524332303a207472616e7366657220616d6f756e742065786365656473206260008201527f616c616e63650000000000000000000000000000000000000000000000000000602082015250565b7f496e76616c69642063726561746f722061646472657373000000000000000000600082015250565b7f4578706563746564206e6f6e2d7a65726f206164647265737300000000000000600082015250565b7f45524332303a206275726e2066726f6d20746865207a65726f2061646472657360008201527f7300000000000000000000000000000000000000000000000000000000000000602082015250565b7f45524332303a207472616e736665722066726f6d20746865207a65726f20616460008201527f6472657373000000000000000000000000000000000000000000000000000000602082015250565b7f4d7573742062652061646d696e00000000000000000000000000000000000000600082015250565b7f496e73756666696369656e74204f43582062616c616e636520746f206275726e600082015250565b7f45524332303a20617070726f76652066726f6d20746865207a65726f2061646460008201527f7265737300000000000000000000000000000000000000000000000000000000602082015250565b7f45524332303a2064656372656173656420616c6c6f77616e63652062656c6f7760008201527f207a65726f000000000000000000000000000000000000000000000000000000602082015250565b7f45524332303a206d696e7420746f20746865207a65726f206164647265737300600082015250565b61212d81611c64565b811461213857600080fd5b50565b61214481611ca2565b811461214f57600080fd5b5056fea26469706673582212203e6b7227ae73e6ff0ba9a296d46659410fa9c791a5b7540f81ff5cfb970d3ac864736f6c634300080400334c69717569646974792050726f766964657220436f696e20666f72204f70656e636861696e446578204c6f63616c20506f6f6c",
  "immutableReferences": {},
  "source": "// SPDX-License-Identifier: MIT\npragma solidity ^0.8.0;\n\nimport \"@openzeppelin/contracts/token/ERC20/ERC20.sol\";\nimport \"./OcxAdmin.sol\";\n\ncontract OcxToken is ERC20, OcxAdmin {\n\n    uint8           private _decimals;\n\n    event minted(uint256 amount);\n    event burned(uint256 amount);\n\n    receive() external payable {}\n\n    constructor() ERC20(\"Liquidity Provider Coin for OpenchainDex Local Pool\", \"OCX\") {\n        _decimals = 9; // In nano\n    }\n\n    function mint(uint256 amount) external payable\n    onlyAdmin {\n        super._mint(msg.sender, amount);\n        emit minted(amount);\n    }\n    function burn(uint256 amount) public onlyAdmin {\n        require(balanceOf(msg.sender) >= amount, \"Insufficient OCX balance to burn\");\n        super._burn(msg.sender, amount);\n        emit burned(amount);\n    }\n    function decimals() public view virtual override returns (uint8) {\n        return _decimals;\n    }\n    /**\n    * Custom accessor to create a unique token\n    */\n}\n",
  "sourcePath": "/home/openchainx/OpenchainTestVersion/server/contracts/OcxToken.sol",
  "compiler": {
    "name": "solc",
    "version": "0.8.4+commit.c7e474f2.Emscripten.clang"
  },
  "schemaVersion": "3.4.7",
  "updatedAt": "2022-05-03T10:03:18.972Z",
  "networkType": "ethereum",
  "devdoc": {
    "kind": "dev",
    "methods": {
      "allowance(address,address)": {
        "details": "See {IERC20-allowance}."
      },
      "approve(address,uint256)": {
        "details": "See {IERC20-approve}. NOTE: If `amount` is the maximum `uint256`, the allowance is not updated on `transferFrom`. This is semantically equivalent to an infinite approval. Requirements: - `spender` cannot be the zero address."
      },
      "balanceOf(address)": {
        "details": "See {IERC20-balanceOf}."
      },
      "decimals()": {
        "details": "Returns the number of decimals used to get its user representation. For example, if `decimals` equals `2`, a balance of `505` tokens should be displayed to a user as `5.05` (`505 / 10 ** 2`). Tokens usually opt for a value of 18, imitating the relationship between Ether and Wei. This is the value {ERC20} uses, unless this function is overridden; NOTE: This information is only used for _display_ purposes: it in no way affects any of the arithmetic of the contract, including {IERC20-balanceOf} and {IERC20-transfer}."
      },
      "decreaseAllowance(address,uint256)": {
        "details": "Atomically decreases the allowance granted to `spender` by the caller. This is an alternative to {approve} that can be used as a mitigation for problems described in {IERC20-approve}. Emits an {Approval} event indicating the updated allowance. Requirements: - `spender` cannot be the zero address. - `spender` must have allowance for the caller of at least `subtractedValue`."
      },
      "increaseAllowance(address,uint256)": {
        "details": "Atomically increases the allowance granted to `spender` by the caller. This is an alternative to {approve} that can be used as a mitigation for problems described in {IERC20-approve}. Emits an {Approval} event indicating the updated allowance. Requirements: - `spender` cannot be the zero address."
      },
      "name()": {
        "details": "Returns the name of the token."
      },
      "symbol()": {
        "details": "Returns the symbol of the token, usually a shorter version of the name."
      },
      "totalSupply()": {
        "details": "See {IERC20-totalSupply}."
      },
      "transfer(address,uint256)": {
        "details": "See {IERC20-transfer}. Requirements: - `to` cannot be the zero address. - the caller must have a balance of at least `amount`."
      },
      "transferFrom(address,address,uint256)": {
        "details": "See {IERC20-transferFrom}. Emits an {Approval} event indicating the updated allowance. This is not required by the EIP. See the note at the beginning of {ERC20}. NOTE: Does not update the allowance if the current allowance is the maximum `uint256`. Requirements: - `from` and `to` cannot be the zero address. - `from` must have a balance of at least `amount`. - the caller must have allowance for ``from``'s tokens of at least `amount`."
      }
    },
    "version": 1
  },
  "userdoc": {
    "kind": "user",
    "methods": {},
    "version": 1
  }
}