{
  "contractName": "OpenchainContract",
  "abi": [
    {
      "inputs": [],
      "stateMutability": "nonpayable",
      "type": "constructor"
    },
    {
      "inputs": [],
      "name": "uniswapRouter",
      "outputs": [
        {
          "internalType": "contract IUniswapV2Router02",
          "name": "",
          "type": "address"
        }
      ],
      "stateMutability": "view",
      "type": "function"
    },
    {
      "stateMutability": "payable",
      "type": "receive"
    },
    {
      "inputs": [
        {
          "internalType": "address",
          "name": "_tokenOut",
          "type": "address"
        },
        {
          "internalType": "uint256",
          "name": "_amountOutMin",
          "type": "uint256"
        },
        {
          "internalType": "uint256",
          "name": "_deadline",
          "type": "uint256"
        }
      ],
      "name": "swapFromETH",
      "outputs": [],
      "stateMutability": "payable",
      "type": "function"
    },
    {
      "inputs": [
        {
          "internalType": "address",
          "name": "_tokenIn",
          "type": "address"
        },
        {
          "internalType": "uint256",
          "name": "_amountIn",
          "type": "uint256"
        },
        {
          "internalType": "uint256",
          "name": "_amountOutMin",
          "type": "uint256"
        },
        {
          "internalType": "uint256",
          "name": "_deadline",
          "type": "uint256"
        }
      ],
      "name": "swapToETH",
      "outputs": [],
      "stateMutability": "nonpayable",
      "type": "function"
    },
    {
      "inputs": [
        {
          "internalType": "address",
          "name": "_tokenIn",
          "type": "address"
        },
        {
          "internalType": "uint256",
          "name": "_amountIn",
          "type": "uint256"
        },
        {
          "internalType": "address",
          "name": "_tokenOut",
          "type": "address"
        },
        {
          "internalType": "uint256",
          "name": "_amountOutMin",
          "type": "uint256"
        },
        {
          "internalType": "uint256",
          "name": "_deadline",
          "type": "uint256"
        }
      ],
      "name": "swapForERC20",
      "outputs": [],
      "stateMutability": "nonpayable",
      "type": "function"
    }
  ],
  "bytecode": "0x608060405234801561001057600080fd5b50737a250d5630b4cf539739df2c5dacb4c659f2488d6000806101000a81548173ffffffffffffffffffffffffffffffffffffffff021916908373ffffffffffffffffffffffffffffffffffffffff160217905550612084806100746000396000f3fe6080604052600436106100435760003560e01c8063735de9f71461004f5780638b92f59d1461007a578063ca534211146100a3578063fafbed4d146100bf5761004a565b3661004a57005b600080fd5b34801561005b57600080fd5b506100646100e8565b6040516100719190611ada565b60405180910390f35b34801561008657600080fd5b506100a1600480360381019061009c91906117e2565b61010c565b005b6100bd60048036038101906100b89190611793565b6105c2565b005b3480156100cb57600080fd5b506100e660048036038101906100e1919061171c565b61087b565b005b60008054906101000a900473ffffffffffffffffffffffffffffffffffffffff1681565b600084905060008173ffffffffffffffffffffffffffffffffffffffff1663dd62ed3e33306040518363ffffffff1660e01b815260040161014e929190611a51565b60206040518083038186803b15801561016657600080fd5b505afa15801561017a573d6000803e3d6000fd5b505050506040513d601f19601f8201168201806040525081019061019e91906118af565b905060006101ab82610dad565b90506101cf60405180606001604052806035815260200161201a6035913982610f5a565b9050858210158190610217576040517f08c379a000000000000000000000000000000000000000000000000000000000815260040161020e9190611af5565b60405180910390fd5b5061022487333089610f9e565b8273ffffffffffffffffffffffffffffffffffffffff1663095ea7b3737a250d5630b4cf539739df2c5dacb4c659f2488d886040518363ffffffff1660e01b8152600401610273929190611ab1565b602060405180830381600087803b15801561028d57600080fd5b505af11580156102a1573d6000803e3d6000fd5b505050506040513d601f19601f820116820180604052508101906102c59190611886565b610304576040517f08c379a00000000000000000000000000000000000000000000000000000000081526004016102fb90611b17565b60405180910390fd5b6000600267ffffffffffffffff811115610347577f4e487b7100000000000000000000000000000000000000000000000000000000600052604160045260246000fd5b6040519080825280602002602001820160405280156103755781602001602082028036833780820191505090505b50905087816000815181106103b3577f4e487b7100000000000000000000000000000000000000000000000000000000600052603260045260246000fd5b602002602001019073ffffffffffffffffffffffffffffffffffffffff16908173ffffffffffffffffffffffffffffffffffffffff168152505060008054906101000a900473ffffffffffffffffffffffffffffffffffffffff1673ffffffffffffffffffffffffffffffffffffffff1663ad5c46486040518163ffffffff1660e01b815260040160206040518083038186803b15801561045357600080fd5b505afa158015610467573d6000803e3d6000fd5b505050506040513d601f19601f8201168201806040525081019061048b91906116f3565b816001815181106104c5577f4e487b7100000000000000000000000000000000000000000000000000000000600052603260045260246000fd5b602002602001019073ffffffffffffffffffffffffffffffffffffffff16908173ffffffffffffffffffffffffffffffffffffffff168152505060008054906101000a900473ffffffffffffffffffffffffffffffffffffffff1673ffffffffffffffffffffffffffffffffffffffff166318cbafe5888884338a6040518663ffffffff1660e01b8152600401610560959493929190611ba3565b600060405180830381600087803b15801561057a57600080fd5b505af115801561058e573d6000803e3d6000fd5b505050506040513d6000823e3d601f19601f820116820180604052508101906105b79190611845565b505050505050505050565b6000600267ffffffffffffffff811115610605577f4e487b7100000000000000000000000000000000000000000000000000000000600052604160045260246000fd5b6040519080825280602002602001820160405280156106335781602001602082028036833780820191505090505b50905060008054906101000a900473ffffffffffffffffffffffffffffffffffffffff1673ffffffffffffffffffffffffffffffffffffffff1663ad5c46486040518163ffffffff1660e01b815260040160206040518083038186803b15801561069c57600080fd5b505afa1580156106b0573d6000803e3d6000fd5b505050506040513d601f19601f820116820180604052508101906106d491906116f3565b8160008151811061070e577f4e487b7100000000000000000000000000000000000000000000000000000000600052603260045260246000fd5b602002602001019073ffffffffffffffffffffffffffffffffffffffff16908173ffffffffffffffffffffffffffffffffffffffff16815250508381600181518110610783577f4e487b7100000000000000000000000000000000000000000000000000000000600052603260045260246000fd5b602002602001019073ffffffffffffffffffffffffffffffffffffffff16908173ffffffffffffffffffffffffffffffffffffffff168152505060008054906101000a900473ffffffffffffffffffffffffffffffffffffffff1673ffffffffffffffffffffffffffffffffffffffff16637ff36ab534858433876040518663ffffffff1660e01b815260040161081d9493929190611b57565b6000604051808303818588803b15801561083657600080fd5b505af115801561084a573d6000803e3d6000fd5b50505050506040513d6000823e3d601f19601f820116820180604052508101906108749190611845565b5050505050565b6000859050600084905060008273ffffffffffffffffffffffffffffffffffffffff1663dd62ed3e33306040518363ffffffff1660e01b81526004016108c2929190611a51565b60206040518083038186803b1580156108da57600080fd5b505afa1580156108ee573d6000803e3d6000fd5b505050506040513d601f19601f8201168201806040525081019061091291906118af565b9050600061091f82610dad565b905061094360405180606001604052806035815260200161201a6035913982610f5a565b905087821015819061098b576040517f08c379a00000000000000000000000000000000000000000000000000000000081526004016109829190611af5565b60405180910390fd5b506109988933308b610f9e565b8373ffffffffffffffffffffffffffffffffffffffff1663095ea7b3737a250d5630b4cf539739df2c5dacb4c659f2488d8a6040518363ffffffff1660e01b81526004016109e7929190611ab1565b602060405180830381600087803b158015610a0157600080fd5b505af1158015610a15573d6000803e3d6000fd5b505050506040513d601f19601f82011682018060405250810190610a399190611886565b610a78576040517f08c379a0000000000000000000000000000000000000000000000000000000008152600401610a6f90611b17565b60405180910390fd5b6000600367ffffffffffffffff811115610abb577f4e487b7100000000000000000000000000000000000000000000000000000000600052604160045260246000fd5b604051908082528060200260200182016040528015610ae95781602001602082028036833780820191505090505b5090508981600081518110610b27577f4e487b7100000000000000000000000000000000000000000000000000000000600052603260045260246000fd5b602002602001019073ffffffffffffffffffffffffffffffffffffffff16908173ffffffffffffffffffffffffffffffffffffffff168152505060008054906101000a900473ffffffffffffffffffffffffffffffffffffffff1673ffffffffffffffffffffffffffffffffffffffff1663ad5c46486040518163ffffffff1660e01b815260040160206040518083038186803b158015610bc757600080fd5b505afa158015610bdb573d6000803e3d6000fd5b505050506040513d601f19601f82011682018060405250810190610bff91906116f3565b81600181518110610c39577f4e487b7100000000000000000000000000000000000000000000000000000000600052603260045260246000fd5b602002602001019073ffffffffffffffffffffffffffffffffffffffff16908173ffffffffffffffffffffffffffffffffffffffff16815250508781600281518110610cae577f4e487b7100000000000000000000000000000000000000000000000000000000600052603260045260246000fd5b602002602001019073ffffffffffffffffffffffffffffffffffffffff16908173ffffffffffffffffffffffffffffffffffffffff168152505060008054906101000a900473ffffffffffffffffffffffffffffffffffffffff1673ffffffffffffffffffffffffffffffffffffffff166338ed17398a8984338b6040518663ffffffff1660e01b8152600401610d49959493929190611ba3565b600060405180830381600087803b158015610d6357600080fd5b505af1158015610d77573d6000803e3d6000fd5b505050506040513d6000823e3d601f19601f82011682018060405250810190610da09190611845565b5050505050505050505050565b60606000821415610df5576040518060400160405280600181526020017f30000000000000000000000000000000000000000000000000000000000000008152509050610f55565b600082905060005b60008214610e27578080610e1090611e44565b915050600a82610e209190611d0f565b9150610dfd565b60008167ffffffffffffffff811115610e69577f4e487b7100000000000000000000000000000000000000000000000000000000600052604160045260246000fd5b6040519080825280601f01601f191660200182016040528015610e9b5781602001600182028036833780820191505090505b5090505b60008514610f4e57600182610eb49190611d40565b9150600a85610ec39190611e8d565b6030610ecf9190611cb9565b60f81b818381518110610f0b577f4e487b7100000000000000000000000000000000000000000000000000000000600052603260045260246000fd5b60200101907effffffffffffffffffffffffffffffffffffffffffffffffffffffffffffff1916908160001a905350600a85610f479190611d0f565b9450610e9f565b8093505050505b919050565b6060610f9683836040518060200160405280600081525060405180602001604052806000815250604051806020016040528060008152506110d7565b905092915050565b6000808573ffffffffffffffffffffffffffffffffffffffff166323b872dd868686604051602401610fd293929190611a7a565b6040516020818303038152906040529060e01b6020820180517bffffffffffffffffffffffffffffffffffffffffffffffffffffffff83818316178352505050506040516110209190611a3a565b6000604051808303816000865af19150503d806000811461105d576040519150601f19603f3d011682016040523d82523d6000602084013e611062565b606091505b5091509150818015611090575060008151148061108f57508080602001905181019061108e9190611886565b5b5b6110cf576040517f08c379a00000000000000000000000000000000000000000000000000000000081526004016110c690611b37565b60405180910390fd5b505050505050565b6060600086905060008690506000869050600086905060008690506000815183518551875189516111089190611cb9565b6111129190611cb9565b61111c9190611cb9565b6111269190611cb9565b67ffffffffffffffff811115611165577f4e487b7100000000000000000000000000000000000000000000000000000000600052604160045260246000fd5b6040519080825280601f01601f1916602001820160405280156111975781602001600182028036833780820191505090505b5090506000819050600080600091505b885182101561127b578882815181106111e9577f4e487b7100000000000000000000000000000000000000000000000000000000600052603260045260246000fd5b602001015160f81c60f81b83828061120090611e44565b935081518110611239577f4e487b7100000000000000000000000000000000000000000000000000000000600052603260045260246000fd5b60200101907effffffffffffffffffffffffffffffffffffffffffffffffffffffffffffff1916908160001a905350818061127390611e44565b9250506111a7565b600091505b8751821015611354578782815181106112c2577f4e487b7100000000000000000000000000000000000000000000000000000000600052603260045260246000fd5b602001015160f81c60f81b8382806112d990611e44565b935081518110611312577f4e487b7100000000000000000000000000000000000000000000000000000000600052603260045260246000fd5b60200101907effffffffffffffffffffffffffffffffffffffffffffffffffffffffffffff1916908160001a905350818061134c90611e44565b925050611280565b600091505b865182101561142d5786828151811061139b577f4e487b7100000000000000000000000000000000000000000000000000000000600052603260045260246000fd5b602001015160f81c60f81b8382806113b290611e44565b9350815181106113eb577f4e487b7100000000000000000000000000000000000000000000000000000000600052603260045260246000fd5b60200101907effffffffffffffffffffffffffffffffffffffffffffffffffffffffffffff1916908160001a905350818061142590611e44565b925050611359565b600091505b855182101561150657858281518110611474577f4e487b7100000000000000000000000000000000000000000000000000000000600052603260045260246000fd5b602001015160f81c60f81b83828061148b90611e44565b9350815181106114c4577f4e487b7100000000000000000000000000000000000000000000000000000000600052603260045260246000fd5b60200101907effffffffffffffffffffffffffffffffffffffffffffffffffffffffffffff1916908160001a90535081806114fe90611e44565b925050611432565b600091505b84518210156115df5784828151811061154d577f4e487b7100000000000000000000000000000000000000000000000000000000600052603260045260246000fd5b602001015160f81c60f81b83828061156490611e44565b93508151811061159d577f4e487b7100000000000000000000000000000000000000000000000000000000600052603260045260246000fd5b60200101907effffffffffffffffffffffffffffffffffffffffffffffffffffffffffffff1916908160001a90535081806115d790611e44565b92505061150b565b82995050505050505050505095945050505050565b600061160761160284611c22565b611bfd565b9050808382526020820190508285602086028201111561162657600080fd5b60005b85811015611656578161163c88826116de565b845260208401935060208301925050600181019050611629565b5050509392505050565b60008135905061166f81611fd4565b92915050565b60008151905061168481611fd4565b92915050565b600082601f83011261169b57600080fd5b81516116ab8482602086016115f4565b91505092915050565b6000815190506116c381611feb565b92915050565b6000813590506116d881612002565b92915050565b6000815190506116ed81612002565b92915050565b60006020828403121561170557600080fd5b600061171384828501611675565b91505092915050565b600080600080600060a0868803121561173457600080fd5b600061174288828901611660565b9550506020611753888289016116c9565b945050604061176488828901611660565b9350506060611775888289016116c9565b9250506080611786888289016116c9565b9150509295509295909350565b6000806000606084860312156117a857600080fd5b60006117b686828701611660565b93505060206117c7868287016116c9565b92505060406117d8868287016116c9565b9150509250925092565b600080600080608085870312156117f857600080fd5b600061180687828801611660565b9450506020611817878288016116c9565b9350506040611828878288016116c9565b9250506060611839878288016116c9565b91505092959194509250565b60006020828403121561185757600080fd5b600082015167ffffffffffffffff81111561187157600080fd5b61187d8482850161168a565b91505092915050565b60006020828403121561189857600080fd5b60006118a6848285016116b4565b91505092915050565b6000602082840312156118c157600080fd5b60006118cf848285016116de565b91505092915050565b60006118e483836118f0565b60208301905092915050565b6118f981611d74565b82525050565b61190881611d74565b82525050565b600061191982611c5e565b6119238185611c8c565b935061192e83611c4e565b8060005b8381101561195f57815161194688826118d8565b975061195183611c7f565b925050600181019050611932565b5085935050505092915050565b600061197782611c69565b6119818185611c9d565b9350611991818560208601611de0565b80840191505092915050565b6119a681611dbc565b82525050565b60006119b782611c74565b6119c18185611ca8565b93506119d1818560208601611de0565b6119da81611f4b565b840191505092915050565b60006119f2601e83611ca8565b91506119fd82611f5c565b602082019050919050565b6000611a15602483611ca8565b9150611a2082611f85565b604082019050919050565b611a3481611db2565b82525050565b6000611a46828461196c565b915081905092915050565b6000604082019050611a6660008301856118ff565b611a7360208301846118ff565b9392505050565b6000606082019050611a8f60008301866118ff565b611a9c60208301856118ff565b611aa96040830184611a2b565b949350505050565b6000604082019050611ac660008301856118ff565b611ad36020830184611a2b565b9392505050565b6000602082019050611aef600083018461199d565b92915050565b60006020820190508181036000830152611b0f81846119ac565b905092915050565b60006020820190508181036000830152611b30816119e5565b9050919050565b60006020820190508181036000830152611b5081611a08565b9050919050565b6000608082019050611b6c6000830187611a2b565b8181036020830152611b7e818661190e565b9050611b8d60408301856118ff565b611b9a6060830184611a2b565b95945050505050565b600060a082019050611bb86000830188611a2b565b611bc56020830187611a2b565b8181036040830152611bd7818661190e565b9050611be660608301856118ff565b611bf36080830184611a2b565b9695505050505050565b6000611c07611c18565b9050611c138282611e13565b919050565b6000604051905090565b600067ffffffffffffffff821115611c3d57611c3c611f1c565b5b602082029050602081019050919050565b6000819050602082019050919050565b600081519050919050565b600081519050919050565b600081519050919050565b6000602082019050919050565b600082825260208201905092915050565b600081905092915050565b600082825260208201905092915050565b6000611cc482611db2565b9150611ccf83611db2565b9250827fffffffffffffffffffffffffffffffffffffffffffffffffffffffffffffffff03821115611d0457611d03611ebe565b5b828201905092915050565b6000611d1a82611db2565b9150611d2583611db2565b925082611d3557611d34611eed565b5b828204905092915050565b6000611d4b82611db2565b9150611d5683611db2565b925082821015611d6957611d68611ebe565b5b828203905092915050565b6000611d7f82611d92565b9050919050565b60008115159050919050565b600073ffffffffffffffffffffffffffffffffffffffff82169050919050565b6000819050919050565b6000611dc782611dce565b9050919050565b6000611dd982611d92565b9050919050565b60005b83811015611dfe578082015181840152602081019050611de3565b83811115611e0d576000848401525b50505050565b611e1c82611f4b565b810181811067ffffffffffffffff82111715611e3b57611e3a611f1c565b5b80604052505050565b6000611e4f82611db2565b91507fffffffffffffffffffffffffffffffffffffffffffffffffffffffffffffffff821415611e8257611e81611ebe565b5b600182019050919050565b6000611e9882611db2565b9150611ea383611db2565b925082611eb357611eb2611eed565b5b828206905092915050565b7f4e487b7100000000000000000000000000000000000000000000000000000000600052601160045260246000fd5b7f4e487b7100000000000000000000000000000000000000000000000000000000600052601260045260246000fd5b7f4e487b7100000000000000000000000000000000000000000000000000000000600052604160045260246000fd5b6000601f19601f8301169050919050565b7f617070726f766520666f722074686520726f75746572206661696c65642e0000600082015250565b7f5472616e7366657248656c7065723a205452414e534645525f46524f4d5f464160008201527f494c454400000000000000000000000000000000000000000000000000000000602082015250565b611fdd81611d74565b8114611fe857600080fd5b50565b611ff481611d86565b8114611fff57600080fd5b50565b61200b81611db2565b811461201657600080fd5b5056fe4e6f7420656e6f75676820616c6c6f77616e636520666f722074686520455243323020746f6b656e2e20616c6c6f77616e63653a20a26469706673582212200438b5c1adf581e3eebf720e2c6f36f37923ff628af54f8849033ea58cca16d464736f6c63430008040033",
  "immutableReferences": {},
  "source": "// SPDX-License-Identifier: MIT\npragma solidity >= 0.6.2;\n\n// https://soliditydeveloper.com/uniswap2\n// https://docs.uniswap.org/protocol/V2/guides/smart-contract-integration/trading-from-a-smart-contract\n// https://ethereum.org/ru/developers/tutorials/transfers-and-approval-of-erc-20-tokens-from-a-solidity-smart-contract/\n// https://solidity-by-example.org/app/erc20/\n\nimport \"@uniswap/v2-periphery/contracts/interfaces/IUniswapV2Router02.sol\";\nimport '@uniswap/lib/contracts/libraries/TransferHelper.sol';\nimport \"@openzeppelin/contracts/token/ERC20/IERC20.sol\"; // openzeppelin 4.5 (for solidity 0.8.x)\nimport \"@openzeppelin/contracts/utils/Strings.sol\";\n\ncontract OpenchainContract {\n\n    address private constant UNISWAP_ROUTER_ADDRESS =\n        0x7a250d5630B4cF539739dF2C5dAcb4c659F2488D;\n    IUniswapV2Router02 public uniswapRouter;\n\n    function strConcat(string memory _a, string memory _b, string memory _c, string memory _d, string memory _e) internal returns (string memory){\n        bytes memory _ba = bytes(_a);\n        bytes memory _bb = bytes(_b);\n        bytes memory _bc = bytes(_c);\n        bytes memory _bd = bytes(_d);\n        bytes memory _be = bytes(_e);\n        string memory abcde = new string(_ba.length + _bb.length + _bc.length + _bd.length + _be.length);\n        bytes memory babcde = bytes(abcde);\n\n        uint i = 0;\n        uint k = 0;\n\n        for (i = 0; i < _ba.length; i++) babcde[k++] = _ba[i];\n        for (i = 0; i < _bb.length; i++) babcde[k++] = _bb[i];\n        for (i = 0; i < _bc.length; i++) babcde[k++] = _bc[i];\n        for (i = 0; i < _bd.length; i++) babcde[k++] = _bd[i];\n        for (i = 0; i < _be.length; i++) babcde[k++] = _be[i];\n        return string(babcde);\n    }\n\n    function strConcat(string memory _a, string memory _b, string memory _c, string memory _d) internal returns (string memory) {\n        return strConcat(_a, _b, _c, _d, \"\");\n    }\n\n    function strConcat(string memory _a, string memory _b, string memory _c) internal returns (string memory) {\n        return strConcat(_a, _b, _c, \"\", \"\");\n    }\n\n    function strConcat(string memory _a, string memory _b) internal returns (string memory) {\n        return strConcat(_a, _b, \"\", \"\", \"\");\n    }\n\n    constructor() {\n        uniswapRouter = IUniswapV2Router02(UNISWAP_ROUTER_ADDRESS);\n    }\n\n    receive() external payable {}\n\n    function swapFromETH(\n        address _tokenOut,\n        uint _amountOutMin,\n        uint _deadline\n    ) public payable {\n        // uint deadline = block.timestamp + 15; // using 'now' for convenience, for mainnet pass deadline from frontend!\n        address[] memory path = new address[](2);\n        path[0] = uniswapRouter.WETH();\n        path[1] = address(_tokenOut);\n        uniswapRouter.swapExactETHForTokens{value: msg.value}(_amountOutMin, path, msg.sender, _deadline);\n    }\n\n    function swapToETH(\n        address _tokenIn,\n        uint _amountIn,\n        uint _amountOutMin,\n        uint _deadline\n    ) public {\n        // transferFrom\n        IERC20 sellTokenContract = IERC20(_tokenIn);\n        //     Check for allowance\n        uint256 allowance = sellTokenContract.allowance(msg.sender, address(this));\n        string memory errorText = Strings.toString(allowance);\n        errorText = strConcat(\"Not enough allowance for the ERC20 token. allowance: \", errorText);\n        require(allowance >= _amountIn, errorText);\n        //     Do transferFrom\n        TransferHelper.safeTransferFrom(_tokenIn, msg.sender, address(this), _amountIn);\n\n        // approve\n        require(sellTokenContract.approve(address(UNISWAP_ROUTER_ADDRESS), _amountIn), 'approve for the router failed.');\n\n        address[] memory path = new address[](2);\n        path[0] = address(_tokenIn);\n        path[1] = uniswapRouter.WETH();\n        uniswapRouter.swapExactTokensForETH(_amountIn, _amountOutMin, path, msg.sender, _deadline);\n    }\n\n    function swapForERC20(\n        address _tokenIn,\n        uint _amountIn,\n        address _tokenOut,\n        uint _amountOutMin,\n        uint _deadline\n    ) public {\n        // transferFrom\n        IERC20 sellTokenContract = IERC20(_tokenIn);\n        IERC20 buyTokenContract = IERC20(_tokenOut);\n        //     Check for allowance\n        uint256 allowance = sellTokenContract.allowance(msg.sender, address(this));\n        string memory errorText = Strings.toString(allowance);\n        errorText = strConcat(\"Not enough allowance for the ERC20 token. allowance: \", errorText);\n        require(allowance >= _amountIn, errorText);\n        //     Do transferFrom\n        TransferHelper.safeTransferFrom(_tokenIn, msg.sender, address(this), _amountIn);\n\n        // approve\n        require(sellTokenContract.approve(address(UNISWAP_ROUTER_ADDRESS), _amountIn), 'approve for the router failed.');\n\n        address[] memory path = new address[](3);\n        path[0] = address(_tokenIn);\n        path[1] = uniswapRouter.WETH();\n        path[2] = address(_tokenOut);\n        uniswapRouter.swapExactTokensForTokens(_amountIn, _amountOutMin, path, msg.sender, _deadline);\n    }\n}\n",
  "sourcePath": "/home/vn/MyProjects/OpenchainDex/OpenchainTestVersion/server/contracts/OpenchainContract.sol",
  "compiler": {
    "name": "solc",
    "version": "0.8.4+commit.c7e474f2.Emscripten.clang"
  },
  "schemaVersion": "3.4.4",
  "updatedAt": "2022-03-13T06:04:59.115Z",
  "devdoc": {
    "kind": "dev",
    "methods": {},
    "version": 1
  },
  "userdoc": {
    "kind": "user",
    "methods": {},
    "version": 1
  }
}