{
  "contractName": "OpenchainContract",
  "abi": [
    {
      "inputs": [],
      "stateMutability": "nonpayable",
      "type": "constructor"
    },
    {
      "inputs": [],
      "name": "uniswapRouter",
      "outputs": [
        {
          "internalType": "contract IUniswapV2Router02",
          "name": "",
          "type": "address"
        }
      ],
      "stateMutability": "view",
      "type": "function",
      "constant": true
    },
    {
      "inputs": [
        {
          "internalType": "address",
          "name": "_tokenOut",
          "type": "address"
        },
        {
          "internalType": "uint256",
          "name": "_amountOutMin",
          "type": "uint256"
        },
        {
          "internalType": "address",
          "name": "_to",
          "type": "address"
        },
        {
          "internalType": "uint256",
          "name": "_deadline",
          "type": "uint256"
        }
      ],
      "name": "swapETH",
      "outputs": [],
      "stateMutability": "payable",
      "type": "function",
      "payable": true
    }
  ],
  "bytecode": "0x608060405234801561001057600080fd5b50737a250d5630b4cf539739df2c5dacb4c659f2488d6000806101000a81548173ffffffffffffffffffffffffffffffffffffffff021916908373ffffffffffffffffffffffffffffffffffffffff1602179055506107e2806100746000396000f3fe6080604052600436106100295760003560e01c8063640ee94f1461002e578063735de9f71461004a575b600080fd5b61004860048036038101906100439190610466565b610075565b005b34801561005657600080fd5b5061005f61032f565b60405161006c91906105bc565b60405180910390f35b6000600267ffffffffffffffff8111156100b8577f4e487b7100000000000000000000000000000000000000000000000000000000600052604160045260246000fd5b6040519080825280602002602001820160405280156100e65781602001602082028036833780820191505090505b50905060008054906101000a900473ffffffffffffffffffffffffffffffffffffffff1673ffffffffffffffffffffffffffffffffffffffff1663ad5c46486040518163ffffffff1660e01b815260040160206040518083038186803b15801561014f57600080fd5b505afa158015610163573d6000803e3d6000fd5b505050506040513d601f19601f82011682018060405250810190610187919061043d565b816000815181106101c1577f4e487b7100000000000000000000000000000000000000000000000000000000600052603260045260246000fd5b602002602001019073ffffffffffffffffffffffffffffffffffffffff16908173ffffffffffffffffffffffffffffffffffffffff16815250508481600181518110610236577f4e487b7100000000000000000000000000000000000000000000000000000000600052603260045260246000fd5b602002602001019073ffffffffffffffffffffffffffffffffffffffff16908173ffffffffffffffffffffffffffffffffffffffff168152505060008054906101000a900473ffffffffffffffffffffffffffffffffffffffff1673ffffffffffffffffffffffffffffffffffffffff16637ff36ab534868487876040518663ffffffff1660e01b81526004016102d094939291906105d7565b6000604051808303818588803b1580156102e957600080fd5b505af11580156102fd573d6000803e3d6000fd5b50505050506040513d6000823e3d601f19601f8201168201806040525081019061032791906104c9565b505050505050565b60008054906101000a900473ffffffffffffffffffffffffffffffffffffffff1681565b600061036661036184610648565b610623565b9050808382526020820190508285602086028201111561038557600080fd5b60005b858110156103b5578161039b8882610428565b845260208401935060208301925050600181019050610388565b5050509392505050565b6000813590506103ce8161077e565b92915050565b6000815190506103e38161077e565b92915050565b600082601f8301126103fa57600080fd5b815161040a848260208601610353565b91505092915050565b60008135905061042281610795565b92915050565b60008151905061043781610795565b92915050565b60006020828403121561044f57600080fd5b600061045d848285016103d4565b91505092915050565b6000806000806080858703121561047c57600080fd5b600061048a878288016103bf565b945050602061049b87828801610413565b93505060406104ac878288016103bf565b92505060606104bd87828801610413565b91505092959194509250565b6000602082840312156104db57600080fd5b600082015167ffffffffffffffff8111156104f557600080fd5b610501848285016103e9565b91505092915050565b60006105168383610522565b60208301905092915050565b61052b816106ad565b82525050565b61053a816106ad565b82525050565b600061054b82610684565b610555818561069c565b935061056083610674565b8060005b83811015610591578151610578888261050a565b97506105838361068f565b925050600181019050610564565b5085935050505092915050565b6105a7816106e9565b82525050565b6105b6816106df565b82525050565b60006020820190506105d1600083018461059e565b92915050565b60006080820190506105ec60008301876105ad565b81810360208301526105fe8186610540565b905061060d6040830185610531565b61061a60608301846105ad565b95945050505050565b600061062d61063e565b9050610639828261070d565b919050565b6000604051905090565b600067ffffffffffffffff8211156106635761066261073e565b5b602082029050602081019050919050565b6000819050602082019050919050565b600081519050919050565b6000602082019050919050565b600082825260208201905092915050565b60006106b8826106bf565b9050919050565b600073ffffffffffffffffffffffffffffffffffffffff82169050919050565b6000819050919050565b60006106f4826106fb565b9050919050565b6000610706826106bf565b9050919050565b6107168261076d565b810181811067ffffffffffffffff821117156107355761073461073e565b5b80604052505050565b7f4e487b7100000000000000000000000000000000000000000000000000000000600052604160045260246000fd5b6000601f19601f8301169050919050565b610787816106ad565b811461079257600080fd5b50565b61079e816106df565b81146107a957600080fd5b5056fea264697066735822122009021a95838a11cbc2c757fa179accf0341b8b8464b3a6f6ca92da5f627e1e5164736f6c63430008040033",
  "immutableReferences": {},
  "source": "// SPDX-License-Identifier: MIT\npragma solidity >= 0.6.2;\n\n// https://soliditydeveloper.com/uniswap2\n// https://docs.uniswap.org/protocol/V2/guides/smart-contract-integration/trading-from-a-smart-contract\n\nimport \"@uniswap/v2-periphery/contracts/interfaces/IUniswapV2Router02.sol\";\n\ncontract OpenchainContract {\n\n    address private constant UNISWAP_ROUTER_ADDRESS =\n        0x7a250d5630B4cF539739dF2C5dAcb4c659F2488D;\n    IUniswapV2Router02 public uniswapRouter;\n    // address private constant WETH = \n    //     0xB4FBF271143F4FBf7B91A5ded31805e42b2208d6; \n        // 0xC02aaA39b223FE8D0A0e5C4F27eAD9083C756Cc2;\n    constructor() {\n        uniswapRouter = IUniswapV2Router02(UNISWAP_ROUTER_ADDRESS);\n    }\n\n    function swapETH(\n        address _tokenOut,\n        uint _amountOutMin,\n        address _to,\n        uint _deadline\n    ) public payable {\n        // uint deadline = block.timestamp + 15; // using 'now' for convenience, for mainnet pass deadline from frontend!\n        address[] memory path = new address[](2);\n        path[0] = uniswapRouter.WETH();\n        path[1] = address(_tokenOut);\n        uniswapRouter.swapExactETHForTokens{value: msg.value}(_amountOutMin, path, _to, _deadline);\n    }\n}\n",
  "sourcePath": "/home/vn/MyProjects/OpenchainDex/OpenchainTestVersion/server/contracts/OpenchainContract.sol",
  "compiler": {
    "name": "solc",
    "version": "0.8.4+commit.c7e474f2.Emscripten.clang"
  },
  "schemaVersion": "3.4.4",
  "updatedAt": "2022-03-12T03:42:48.070Z",
  "networkType": "ethereum",
  "devdoc": {
    "kind": "dev",
    "methods": {},
    "version": 1
  },
  "userdoc": {
    "kind": "user",
    "methods": {},
    "version": 1
  }
}