{
  "contractName": "PawnExchange",
  "abi": [
    {
      "inputs": [],
      "stateMutability": "nonpayable",
      "type": "constructor"
    },
    {
      "inputs": [
        {
          "internalType": "address payable",
          "name": "operator",
          "type": "address"
        },
        {
          "internalType": "address payable",
          "name": "from",
          "type": "address"
        },
        {
          "internalType": "uint256",
          "name": "tokenId",
          "type": "uint256"
        },
        {
          "internalType": "bytes",
          "name": "data",
          "type": "bytes"
        }
      ],
      "name": "onERC721Received",
      "outputs": [
        {
          "internalType": "bytes4",
          "name": "",
          "type": "bytes4"
        }
      ],
      "stateMutability": "pure",
      "type": "function",
      "constant": true
    },
    {
      "inputs": [
        {
          "internalType": "address payable",
          "name": "_pnftAddress",
          "type": "address"
        }
      ],
      "name": "setPnftAddress",
      "outputs": [],
      "stateMutability": "nonpayable",
      "type": "function"
    },
    {
      "inputs": [
        {
          "internalType": "address payable",
          "name": "_ocatAddress",
          "type": "address"
        }
      ],
      "name": "setOcatAddress",
      "outputs": [],
      "stateMutability": "nonpayable",
      "type": "function"
    },
    {
      "inputs": [
        {
          "internalType": "uint256",
          "name": "nftID",
          "type": "uint256"
        }
      ],
      "name": "exchangeToOcat",
      "outputs": [],
      "stateMutability": "nonpayable",
      "type": "function"
    },
    {
      "inputs": [
        {
          "internalType": "uint256",
          "name": "nftID",
          "type": "uint256"
        }
      ],
      "name": "exchangeFromOcat",
      "outputs": [],
      "stateMutability": "nonpayable",
      "type": "function"
    }
  ],
  "bytecode": "0x608060405234801561001057600080fd5b5033600260006101000a81548173ffffffffffffffffffffffffffffffffffffffff021916908373ffffffffffffffffffffffffffffffffffffffff16021790555061185a806100616000396000f3fe608060405234801561001057600080fd5b50600436106100575760003560e01c806313ad82da1461005c578063150b7a021461007857806315f03d22146100a8578063378321eb146100c4578063b18d30a2146100e0575b600080fd5b61007660048036038101906100719190610e62565b6100fc565b005b610092600480360381019061008d9190610db9565b61050f565b60405161009f91906111f8565b60405180910390f35b6100c260048036038101906100bd9190610d90565b610524565b005b6100de60048036038101906100d99190610e62565b610667565b005b6100fa60048036038101906100f59190610d90565b6109f8565b005b3073ffffffffffffffffffffffffffffffffffffffff163373ffffffffffffffffffffffffffffffffffffffff16141561016b576040517f08c379a000000000000000000000000000000000000000000000000000000000815260040161016290611213565b60405180910390fd5b600073ffffffffffffffffffffffffffffffffffffffff163373ffffffffffffffffffffffffffffffffffffffff1614156101db576040517f08c379a00000000000000000000000000000000000000000000000000000000081526004016101d290611253565b60405180910390fd5b6000811161021e576040517f08c379a000000000000000000000000000000000000000000000000000000000815260040161021590611273565b60405180910390fd5b6000600160009054906101000a900473ffffffffffffffffffffffffffffffffffffffff1673ffffffffffffffffffffffffffffffffffffffff166370a08231306040518263ffffffff1660e01b815260040161027b919061117d565b60206040518083038186803b15801561029357600080fd5b505afa1580156102a7573d6000803e3d6000fd5b505050506040513d601f19601f820116820180604052508101906102cb9190610e8b565b905060008060009054906101000a900473ffffffffffffffffffffffffffffffffffffffff1673ffffffffffffffffffffffffffffffffffffffff1663717947b1846040518263ffffffff1660e01b81526004016103299190611353565b60006040518083038186803b15801561034157600080fd5b505afa158015610355573d6000803e3d6000fd5b505050506040513d6000823e3d601f19601f8201168201806040525081019061037e9190610eb4565b50509650505050505050808210156103cb576040517f08c379a00000000000000000000000000000000000000000000000000000000081526004016103c2906112f3565b60405180910390fd5b60008054906101000a900473ffffffffffffffffffffffffffffffffffffffff1673ffffffffffffffffffffffffffffffffffffffff166342842e0e3330866040518463ffffffff1660e01b815260040161042893929190611198565b600060405180830381600087803b15801561044257600080fd5b505af1158015610456573d6000803e3d6000fd5b50505050600160009054906101000a900473ffffffffffffffffffffffffffffffffffffffff1673ffffffffffffffffffffffffffffffffffffffff1663a9059cbb33836040518363ffffffff1660e01b81526004016104b79291906111cf565b602060405180830381600087803b1580156104d157600080fd5b505af11580156104e5573d6000803e3d6000fd5b505050506040513d601f19601f820116820180604052508101906105099190610e39565b50505050565b600063150b7a0260e01b905095945050505050565b3373ffffffffffffffffffffffffffffffffffffffff16600260009054906101000a900473ffffffffffffffffffffffffffffffffffffffff1673ffffffffffffffffffffffffffffffffffffffff16146105b4576040517f08c379a00000000000000000000000000000000000000000000000000000000081526004016105ab90611233565b60405180910390fd5b600073ffffffffffffffffffffffffffffffffffffffff168173ffffffffffffffffffffffffffffffffffffffff161415610624576040517f08c379a000000000000000000000000000000000000000000000000000000000815260040161061b90611293565b60405180910390fd5b806000806101000a81548173ffffffffffffffffffffffffffffffffffffffff021916908373ffffffffffffffffffffffffffffffffffffffff16021790555050565b3073ffffffffffffffffffffffffffffffffffffffff163373ffffffffffffffffffffffffffffffffffffffff1614156106d6576040517f08c379a00000000000000000000000000000000000000000000000000000000081526004016106cd90611213565b60405180910390fd5b600073ffffffffffffffffffffffffffffffffffffffff163373ffffffffffffffffffffffffffffffffffffffff161415610746576040517f08c379a000000000000000000000000000000000000000000000000000000000815260040161073d90611253565b60405180910390fd5b60008111610789576040517f08c379a000000000000000000000000000000000000000000000000000000000815260040161078090611273565b60405180910390fd5b6000600160009054906101000a900473ffffffffffffffffffffffffffffffffffffffff1673ffffffffffffffffffffffffffffffffffffffff166370a08231336040518263ffffffff1660e01b81526004016107e6919061117d565b60206040518083038186803b1580156107fe57600080fd5b505afa158015610812573d6000803e3d6000fd5b505050506040513d601f19601f820116820180604052508101906108369190610e8b565b905060008060009054906101000a900473ffffffffffffffffffffffffffffffffffffffff1673ffffffffffffffffffffffffffffffffffffffff1663717947b1846040518263ffffffff1660e01b81526004016108949190611353565b60006040518083038186803b1580156108ac57600080fd5b505afa1580156108c0573d6000803e3d6000fd5b505050506040513d6000823e3d601f19601f820116820180604052508101906108e99190610eb4565b5050965050505050505080821015610936576040517f08c379a000000000000000000000000000000000000000000000000000000000815260040161092d906112d3565b60405180910390fd5b610964600160009054906101000a900473ffffffffffffffffffffffffffffffffffffffff16333084610b3c565b60008054906101000a900473ffffffffffffffffffffffffffffffffffffffff1673ffffffffffffffffffffffffffffffffffffffff166342842e0e3033866040518463ffffffff1660e01b81526004016109c193929190611198565b600060405180830381600087803b1580156109db57600080fd5b505af11580156109ef573d6000803e3d6000fd5b50505050505050565b3373ffffffffffffffffffffffffffffffffffffffff16600260009054906101000a900473ffffffffffffffffffffffffffffffffffffffff1673ffffffffffffffffffffffffffffffffffffffff1614610a88576040517f08c379a0000000000000000000000000000000000000000000000000000000008152600401610a7f90611313565b60405180910390fd5b600073ffffffffffffffffffffffffffffffffffffffff168173ffffffffffffffffffffffffffffffffffffffff161415610af8576040517f08c379a0000000000000000000000000000000000000000000000000000000008152600401610aef906112b3565b60405180910390fd5b80600160006101000a81548173ffffffffffffffffffffffffffffffffffffffff021916908373ffffffffffffffffffffffffffffffffffffffff16021790555050565b6000808573ffffffffffffffffffffffffffffffffffffffff166323b872dd868686604051602401610b7093929190611198565b6040516020818303038152906040529060e01b6020820180517bffffffffffffffffffffffffffffffffffffffffffffffffffffffff8381831617835250505050604051610bbe9190611166565b6000604051808303816000865af19150503d8060008114610bfb576040519150601f19603f3d011682016040523d82523d6000602084013e610c00565b606091505b5091509150818015610c2e5750600081511480610c2d575080806020019051810190610c2c9190610e39565b5b5b610c6d576040517f08c379a0000000000000000000000000000000000000000000000000000000008152600401610c6490611333565b60405180910390fd5b505050505050565b6000610c88610c8384611393565b61136e565b905082815260208101848484011115610ca057600080fd5b610cab848285611471565b509392505050565b600081359050610cc2816117df565b92915050565b600081519050610cd7816117df565b92915050565b600081519050610cec816117f6565b92915050565b60008083601f840112610d0457600080fd5b8235905067ffffffffffffffff811115610d1d57600080fd5b602083019150836001820283011115610d3557600080fd5b9250929050565b600082601f830112610d4d57600080fd5b8151610d5d848260208601610c75565b91505092915050565b600081359050610d758161180d565b92915050565b600081519050610d8a8161180d565b92915050565b600060208284031215610da257600080fd5b6000610db084828501610cb3565b91505092915050565b600080600080600060808688031215610dd157600080fd5b6000610ddf88828901610cb3565b9550506020610df088828901610cb3565b9450506040610e0188828901610d66565b935050606086013567ffffffffffffffff811115610e1e57600080fd5b610e2a88828901610cf2565b92509250509295509295909350565b600060208284031215610e4b57600080fd5b6000610e5984828501610cdd565b91505092915050565b600060208284031215610e7457600080fd5b6000610e8284828501610d66565b91505092915050565b600060208284031215610e9d57600080fd5b6000610eab84828501610d7b565b91505092915050565b60008060008060008060008060006101208a8c031215610ed357600080fd5b6000610ee18c828d01610d7b565b99505060208a015167ffffffffffffffff811115610efe57600080fd5b610f0a8c828d01610d3c565b98505060408a015167ffffffffffffffff811115610f2757600080fd5b610f338c828d01610d3c565b9750506060610f448c828d01610cc8565b9650506080610f558c828d01610cc8565b95505060a0610f668c828d01610cc8565b94505060c0610f778c828d01610d7b565b93505060e0610f888c828d01610d7b565b925050610100610f9a8c828d01610cdd565b9150509295985092959850929598565b610fb3816113eb565b82525050565b610fc28161141b565b82525050565b6000610fd3826113c4565b610fdd81856113cf565b9350610fed818560208601611471565b80840191505092915050565b60006110066040836113da565b915061101182611515565b604082019050919050565b60006110296039836113da565b915061103482611564565b604082019050919050565b600061104c6020836113da565b9150611057826115b3565b602082019050919050565b600061106f6020836113da565b915061107a826115dc565b602082019050919050565b6000611092602f836113da565b915061109d82611605565b604082019050919050565b60006110b5602f836113da565b91506110c082611654565b604082019050919050565b60006110d8602b836113da565b91506110e3826116a3565b604082019050919050565b60006110fb602c836113da565b9150611106826116f2565b604082019050919050565b600061111e6039836113da565b915061112982611741565b604082019050919050565b60006111416024836113da565b915061114c82611790565b604082019050919050565b61116081611467565b82525050565b60006111728284610fc8565b915081905092915050565b60006020820190506111926000830184610faa565b92915050565b60006060820190506111ad6000830186610faa565b6111ba6020830185610faa565b6111c76040830184611157565b949350505050565b60006040820190506111e46000830185610faa565b6111f16020830184611157565b9392505050565b600060208201905061120d6000830184610fb9565b92915050565b6000602082019050818103600083015261122c81610ff9565b9050919050565b6000602082019050818103600083015261124c8161101c565b9050919050565b6000602082019050818103600083015261126c8161103f565b9050919050565b6000602082019050818103600083015261128c81611062565b9050919050565b600060208201905081810360008301526112ac81611085565b9050919050565b600060208201905081810360008301526112cc816110a8565b9050919050565b600060208201905081810360008301526112ec816110cb565b9050919050565b6000602082019050818103600083015261130c816110ee565b9050919050565b6000602082019050818103600083015261132c81611111565b9050919050565b6000602082019050818103600083015261134c81611134565b9050919050565b60006020820190506113686000830184611157565b92915050565b6000611378611389565b905061138482826114a4565b919050565b6000604051905090565b600067ffffffffffffffff8211156113ae576113ad6114d5565b5b6113b782611504565b9050602081019050919050565b600081519050919050565b600081905092915050565b600082825260208201905092915050565b60006113f682611447565b9050919050565b600061140882611447565b9050919050565b60008115159050919050565b60007fffffffff0000000000000000000000000000000000000000000000000000000082169050919050565b600073ffffffffffffffffffffffffffffffffffffffff82169050919050565b6000819050919050565b60005b8381101561148f578082015181840152602081019050611474565b8381111561149e576000848401525b50505050565b6114ad82611504565b810181811067ffffffffffffffff821117156114cc576114cb6114d5565b5b80604052505050565b7f4e487b7100000000000000000000000000000000000000000000000000000000600052604160045260246000fd5b6000601f19601f8301169050919050565b7f65786368616e6765546f4f63617428293a204572726f723a2043616c6c65722060008201527f636f756c646e27742062652073616d6520746f20746869732061646472657373602082015250565b7f4f637845786368616e67652e736574504e46544164647265737328293a20436160008201527f6c6c657220666f7220206d7573742062652063726561746f7200000000000000602082015250565b7f65786368616e6765546f4f63617428293a20496e76616c69642063616c6c6572600082015250565b7f65786368616e6765546f4f63617428293a20496e76616c6964204e4654204944600082015250565b7f4f637845786368616e67652e736574504e46544164647265737328293a20496e60008201527f76616c696420706172616d657465720000000000000000000000000000000000602082015250565b7f4f637845786368616e67652e7365744f6361744164647265737328293a20496e60008201527f76616c696420706172616d657465720000000000000000000000000000000000602082015250565b7f496e73756666696369656e742062616c616e6365206f66204f43415420696e2060008201527f746865206163636f756e74000000000000000000000000000000000000000000602082015250565b7f496e73756666696369656e742062616c616e6365206f66204f43415420696e2060008201527f74686520636f6e74726163740000000000000000000000000000000000000000602082015250565b7f4f637845786368616e67652e7365744f6361744164647265737328293a20436160008201527f6c6c657220666f7220206d7573742062652063726561746f7200000000000000602082015250565b7f5472616e7366657248656c7065723a205452414e534645525f46524f4d5f464160008201527f494c454400000000000000000000000000000000000000000000000000000000602082015250565b6117e8816113fd565b81146117f357600080fd5b50565b6117ff8161140f565b811461180a57600080fd5b50565b61181681611467565b811461182157600080fd5b5056fea264697066735822122088cb781f9f5bec02ac8d821ea828c27a8ab0ead0d616ed8df26ce9750389a86564736f6c63430008040033",
  "immutableReferences": {},
  "source": "// SPDX-License-Identifier: MIT\npragma solidity ^0.8.0;\n\nimport \"@openzeppelin/contracts/token/ERC20/IERC20.sol\"; // openzeppelin 4.5 (for solidity 0.8.x)\nimport \"@openzeppelin/contracts/token/ERC721/IERC721.sol\";\nimport '@uniswap/lib/contracts/libraries/TransferHelper.sol';\nimport \"./PawnNFTs.sol\";\nimport \"./OcatToken.sol\";\n\ncontract PawnExchange {\n    \n    address payable private pnftAddress;\n    address payable private ocatAddress;\n    address payable private creator;\n\n    constructor() {\n        creator = payable(msg.sender);\n    }\n\n    function onERC721Received(\n        address payable operator,\n        address payable from,\n        uint256 tokenId,\n        bytes calldata data\n    ) external pure returns (bytes4) {\n        return this.onERC721Received.selector;\n    }\n\n    function setPnftAddress(address payable _pnftAddress) public {\n        require(creator == msg.sender, \"OcxExchange.setPNFTAddress(): Caller for  must be creator\");\n        require(_pnftAddress != address(0), \"OcxExchange.setPNFTAddress(): Invalid parameter\");\n        pnftAddress = _pnftAddress;\n    }\n\n    function setOcatAddress(address payable _ocatAddress) public {\n        require(creator == msg.sender, \"OcxExchange.setOcatAddress(): Caller for  must be creator\");\n        require(_ocatAddress != address(0), \"OcxExchange.setOcatAddress(): Invalid parameter\");\n        ocatAddress = _ocatAddress;\n    }\n\n    function exchangeToOcat(uint256 nftID) public {\n        require(msg.sender != address(this), \"exchangeToOcat(): Error: Caller couldn't be same to this address\");\n        require(msg.sender != address(0), \"exchangeToOcat(): Invalid caller\");\n        require(nftID > 0, \"exchangeToOcat(): Invalid NFT ID\");\n        uint256 ocatBalance = IERC20(ocatAddress).balanceOf(address(this));\n        // Get price for the NFT\n        (,,,,,,uint256 price,,) = PawnNFTs(payable(address(pnftAddress))).allPawnNFTs(nftID);\n        // uint256 price = nftItem.price;\n        require(ocatBalance >= price, \"Insufficient balance of OCAT in the contract\");\n        // safeTransferFrom: send NFT from caller to the address\n        IERC721(pnftAddress).safeTransferFrom(msg.sender, address(this), nftID);\n        // Pay OCAT for the NFT\n        IERC20(ocatAddress).transfer(msg.sender, price);\n        //   Then transfer OCATs from the address to caller\n        // TransferHelper.safeTransferFrom(ocatAddress, address(this), msg.sender, price);\n    }\n\n    function exchangeFromOcat(uint256 nftID) public {\n        require(msg.sender != address(this), \"exchangeToOcat(): Error: Caller couldn't be same to this address\");\n        require(msg.sender != address(0), \"exchangeToOcat(): Invalid caller\");\n        require(nftID > 0, \"exchangeToOcat(): Invalid NFT ID\");\n        uint256 ocatBalance = IERC20(ocatAddress).balanceOf(msg.sender);\n        // Get price for the NFT\n        (,,,,,,uint256 price,,) = PawnNFTs(payable(address(pnftAddress))).allPawnNFTs(nftID);\n        // uint256 price = nftItem.price;\n        require(ocatBalance >= price, \"Insufficient balance of OCAT in the account\");\n        // safeTransferFrom: send NFT from caller to the address\n        TransferHelper.safeTransferFrom(ocatAddress, msg.sender, address(this), price);\n        // Pay OCAT for the NFT\n        IERC721(pnftAddress).safeTransferFrom(address(this), msg.sender, nftID);\n        //   Then transfer OCATs from the address to caller\n        // TransferHelper.safeTransferFrom(ocatAddress, address(this), msg.sender, price);\n    } \n}",
  "sourcePath": "/home/cowboy/OpenchainTestVersion/server/contracts/PawnExchange.sol",
  "compiler": {
    "name": "solc",
    "version": "0.8.4+commit.c7e474f2.Emscripten.clang"
  },
  "schemaVersion": "3.4.6",
  "updatedAt": "2022-03-30T04:38:00.941Z",
  "networkType": "ethereum",
  "devdoc": {
    "kind": "dev",
    "methods": {},
    "version": 1
  },
  "userdoc": {
    "kind": "user",
    "methods": {},
    "version": 1
  }
}