{
  "contractName": "PawnNFTs",
  "abi": [
    {
      "inputs": [],
      "stateMutability": "nonpayable",
      "type": "constructor"
    },
    {
      "anonymous": false,
      "inputs": [
        {
          "indexed": true,
          "internalType": "address",
          "name": "owner",
          "type": "address"
        },
        {
          "indexed": true,
          "internalType": "address",
          "name": "approved",
          "type": "address"
        },
        {
          "indexed": true,
          "internalType": "uint256",
          "name": "tokenId",
          "type": "uint256"
        }
      ],
      "name": "Approval",
      "type": "event"
    },
    {
      "anonymous": false,
      "inputs": [
        {
          "indexed": true,
          "internalType": "address",
          "name": "owner",
          "type": "address"
        },
        {
          "indexed": true,
          "internalType": "address",
          "name": "operator",
          "type": "address"
        },
        {
          "indexed": false,
          "internalType": "bool",
          "name": "approved",
          "type": "bool"
        }
      ],
      "name": "ApprovalForAll",
      "type": "event"
    },
    {
      "anonymous": false,
      "inputs": [
        {
          "indexed": true,
          "internalType": "address",
          "name": "from",
          "type": "address"
        },
        {
          "indexed": true,
          "internalType": "address",
          "name": "to",
          "type": "address"
        },
        {
          "indexed": true,
          "internalType": "uint256",
          "name": "tokenId",
          "type": "uint256"
        }
      ],
      "name": "Transfer",
      "type": "event"
    },
    {
      "inputs": [
        {
          "internalType": "uint256",
          "name": "",
          "type": "uint256"
        }
      ],
      "name": "allPawnNFTs",
      "outputs": [
        {
          "internalType": "uint256",
          "name": "tokenId",
          "type": "uint256"
        },
        {
          "internalType": "string",
          "name": "tokenName",
          "type": "string"
        },
        {
          "internalType": "string",
          "name": "tokenURI",
          "type": "string"
        },
        {
          "internalType": "address payable",
          "name": "mintedBy",
          "type": "address"
        },
        {
          "internalType": "address payable",
          "name": "currentOwner",
          "type": "address"
        },
        {
          "internalType": "address payable",
          "name": "previousOwner",
          "type": "address"
        },
        {
          "internalType": "uint256",
          "name": "price",
          "type": "uint256"
        },
        {
          "internalType": "uint256",
          "name": "numberOfTransfers",
          "type": "uint256"
        },
        {
          "internalType": "bool",
          "name": "forSale",
          "type": "bool"
        }
      ],
      "stateMutability": "view",
      "type": "function",
      "constant": true
    },
    {
      "inputs": [
        {
          "internalType": "address",
          "name": "to",
          "type": "address"
        },
        {
          "internalType": "uint256",
          "name": "tokenId",
          "type": "uint256"
        }
      ],
      "name": "approve",
      "outputs": [],
      "stateMutability": "nonpayable",
      "type": "function"
    },
    {
      "inputs": [
        {
          "internalType": "address",
          "name": "owner",
          "type": "address"
        }
      ],
      "name": "balanceOf",
      "outputs": [
        {
          "internalType": "uint256",
          "name": "",
          "type": "uint256"
        }
      ],
      "stateMutability": "view",
      "type": "function",
      "constant": true
    },
    {
      "inputs": [],
      "name": "collectionName",
      "outputs": [
        {
          "internalType": "string",
          "name": "",
          "type": "string"
        }
      ],
      "stateMutability": "view",
      "type": "function",
      "constant": true
    },
    {
      "inputs": [],
      "name": "collectionNameSymbol",
      "outputs": [
        {
          "internalType": "string",
          "name": "",
          "type": "string"
        }
      ],
      "stateMutability": "view",
      "type": "function",
      "constant": true
    },
    {
      "inputs": [
        {
          "internalType": "uint256",
          "name": "tokenId",
          "type": "uint256"
        }
      ],
      "name": "getApproved",
      "outputs": [
        {
          "internalType": "address",
          "name": "",
          "type": "address"
        }
      ],
      "stateMutability": "view",
      "type": "function",
      "constant": true
    },
    {
      "inputs": [
        {
          "internalType": "address",
          "name": "owner",
          "type": "address"
        },
        {
          "internalType": "address",
          "name": "operator",
          "type": "address"
        }
      ],
      "name": "isApprovedForAll",
      "outputs": [
        {
          "internalType": "bool",
          "name": "",
          "type": "bool"
        }
      ],
      "stateMutability": "view",
      "type": "function",
      "constant": true
    },
    {
      "inputs": [],
      "name": "name",
      "outputs": [
        {
          "internalType": "string",
          "name": "",
          "type": "string"
        }
      ],
      "stateMutability": "view",
      "type": "function",
      "constant": true
    },
    {
      "inputs": [
        {
          "internalType": "uint256",
          "name": "tokenId",
          "type": "uint256"
        }
      ],
      "name": "ownerOf",
      "outputs": [
        {
          "internalType": "address",
          "name": "",
          "type": "address"
        }
      ],
      "stateMutability": "view",
      "type": "function",
      "constant": true
    },
    {
      "inputs": [],
      "name": "pawnNFTCounter",
      "outputs": [
        {
          "internalType": "uint256",
          "name": "",
          "type": "uint256"
        }
      ],
      "stateMutability": "view",
      "type": "function",
      "constant": true
    },
    {
      "inputs": [
        {
          "internalType": "address",
          "name": "from",
          "type": "address"
        },
        {
          "internalType": "address",
          "name": "to",
          "type": "address"
        },
        {
          "internalType": "uint256",
          "name": "tokenId",
          "type": "uint256"
        }
      ],
      "name": "safeTransferFrom",
      "outputs": [],
      "stateMutability": "nonpayable",
      "type": "function"
    },
    {
      "inputs": [
        {
          "internalType": "address",
          "name": "from",
          "type": "address"
        },
        {
          "internalType": "address",
          "name": "to",
          "type": "address"
        },
        {
          "internalType": "uint256",
          "name": "tokenId",
          "type": "uint256"
        },
        {
          "internalType": "bytes",
          "name": "_data",
          "type": "bytes"
        }
      ],
      "name": "safeTransferFrom",
      "outputs": [],
      "stateMutability": "nonpayable",
      "type": "function"
    },
    {
      "inputs": [
        {
          "internalType": "address",
          "name": "operator",
          "type": "address"
        },
        {
          "internalType": "bool",
          "name": "approved",
          "type": "bool"
        }
      ],
      "name": "setApprovalForAll",
      "outputs": [],
      "stateMutability": "nonpayable",
      "type": "function"
    },
    {
      "inputs": [
        {
          "internalType": "bytes4",
          "name": "interfaceId",
          "type": "bytes4"
        }
      ],
      "name": "supportsInterface",
      "outputs": [
        {
          "internalType": "bool",
          "name": "",
          "type": "bool"
        }
      ],
      "stateMutability": "view",
      "type": "function",
      "constant": true
    },
    {
      "inputs": [],
      "name": "symbol",
      "outputs": [
        {
          "internalType": "string",
          "name": "",
          "type": "string"
        }
      ],
      "stateMutability": "view",
      "type": "function",
      "constant": true
    },
    {
      "inputs": [
        {
          "internalType": "string",
          "name": "",
          "type": "string"
        }
      ],
      "name": "tokenNameExists",
      "outputs": [
        {
          "internalType": "bool",
          "name": "",
          "type": "bool"
        }
      ],
      "stateMutability": "view",
      "type": "function",
      "constant": true
    },
    {
      "inputs": [
        {
          "internalType": "string",
          "name": "",
          "type": "string"
        }
      ],
      "name": "tokenURIExists",
      "outputs": [
        {
          "internalType": "bool",
          "name": "",
          "type": "bool"
        }
      ],
      "stateMutability": "view",
      "type": "function",
      "constant": true
    },
    {
      "inputs": [
        {
          "internalType": "uint256",
          "name": "",
          "type": "uint256"
        }
      ],
      "name": "tokenURIs",
      "outputs": [
        {
          "internalType": "string",
          "name": "",
          "type": "string"
        }
      ],
      "stateMutability": "view",
      "type": "function",
      "constant": true
    },
    {
      "inputs": [
        {
          "internalType": "address",
          "name": "from",
          "type": "address"
        },
        {
          "internalType": "address",
          "name": "to",
          "type": "address"
        },
        {
          "internalType": "uint256",
          "name": "tokenId",
          "type": "uint256"
        }
      ],
      "name": "transferFrom",
      "outputs": [],
      "stateMutability": "nonpayable",
      "type": "function"
    },
    {
      "stateMutability": "payable",
      "type": "receive",
      "payable": true
    },
    {
      "inputs": [
        {
          "internalType": "uint256",
          "name": "tokenId",
          "type": "uint256"
        }
      ],
      "name": "tokenURI",
      "outputs": [
        {
          "internalType": "string",
          "name": "",
          "type": "string"
        }
      ],
      "stateMutability": "view",
      "type": "function",
      "constant": true
    },
    {
      "inputs": [],
      "name": "totalSupply",
      "outputs": [
        {
          "internalType": "uint256",
          "name": "",
          "type": "uint256"
        }
      ],
      "stateMutability": "view",
      "type": "function",
      "constant": true
    },
    {
      "inputs": [
        {
          "internalType": "string",
          "name": "_name",
          "type": "string"
        },
        {
          "internalType": "string",
          "name": "_tokenURI",
          "type": "string"
        },
        {
          "internalType": "uint256",
          "name": "_price",
          "type": "uint256"
        }
      ],
      "name": "mintPawnNFT",
      "outputs": [],
      "stateMutability": "nonpayable",
      "type": "function"
    },
    {
      "inputs": [
        {
          "internalType": "uint256",
          "name": "_tokenId",
          "type": "uint256"
        }
      ],
      "name": "getTokenOwner",
      "outputs": [
        {
          "internalType": "address",
          "name": "",
          "type": "address"
        }
      ],
      "stateMutability": "view",
      "type": "function",
      "constant": true
    },
    {
      "inputs": [
        {
          "internalType": "uint256",
          "name": "_tokenId",
          "type": "uint256"
        }
      ],
      "name": "getTokenMetaData",
      "outputs": [
        {
          "internalType": "string",
          "name": "",
          "type": "string"
        }
      ],
      "stateMutability": "view",
      "type": "function",
      "constant": true
    },
    {
      "inputs": [],
      "name": "getNumberOfTokensMinted",
      "outputs": [
        {
          "internalType": "uint256",
          "name": "",
          "type": "uint256"
        }
      ],
      "stateMutability": "view",
      "type": "function",
      "constant": true
    },
    {
      "inputs": [
        {
          "internalType": "address",
          "name": "_owner",
          "type": "address"
        }
      ],
      "name": "getTotalNumberOfTokensOwnedByAnAddress",
      "outputs": [
        {
          "internalType": "uint256",
          "name": "",
          "type": "uint256"
        }
      ],
      "stateMutability": "view",
      "type": "function",
      "constant": true
    },
    {
      "inputs": [
        {
          "internalType": "uint256",
          "name": "_tokenId",
          "type": "uint256"
        }
      ],
      "name": "getTokenExists",
      "outputs": [
        {
          "internalType": "bool",
          "name": "",
          "type": "bool"
        }
      ],
      "stateMutability": "view",
      "type": "function",
      "constant": true
    },
    {
      "inputs": [
        {
          "internalType": "uint256",
          "name": "_tokenId",
          "type": "uint256"
        }
      ],
      "name": "buyToken",
      "outputs": [],
      "stateMutability": "payable",
      "type": "function",
      "payable": true
    },
    {
      "inputs": [
        {
          "internalType": "uint256",
          "name": "_tokenId",
          "type": "uint256"
        },
        {
          "internalType": "uint256",
          "name": "_newPrice",
          "type": "uint256"
        }
      ],
      "name": "changeTokenPrice",
      "outputs": [],
      "stateMutability": "nonpayable",
      "type": "function"
    },
    {
      "inputs": [
        {
          "internalType": "uint256",
          "name": "_tokenId",
          "type": "uint256"
        }
      ],
      "name": "toggleForSale",
      "outputs": [],
      "stateMutability": "nonpayable",
      "type": "function"
    }
  ],
  "bytecode": "0x60806040523480156200001157600080fd5b5060405180606001604052806021815260200162004cfb602191396040518060400160405280600481526020017f504e46540000000000000000000000000000000000000000000000000000000081525081600090805190602001906200007a92919062000220565b5080600190805190602001906200009392919062000220565b505050620000a6620000ec60201b60201c565b60069080519060200190620000bd92919062000220565b50620000ce6200018660201b60201c565b60079080519060200190620000e592919062000220565b5062000335565b606060008054620000fd90620002d0565b80601f01602080910402602001604051908101604052809291908181526020018280546200012b90620002d0565b80156200017c5780601f1062000150576101008083540402835291602001916200017c565b820191906000526020600020905b8154815290600101906020018083116200015e57829003601f168201915b5050505050905090565b6060600180546200019790620002d0565b80601f0160208091040260200160405190810160405280929190818152602001828054620001c590620002d0565b8015620002165780601f10620001ea5761010080835404028352916020019162000216565b820191906000526020600020905b815481529060010190602001808311620001f857829003601f168201915b5050505050905090565b8280546200022e90620002d0565b90600052602060002090601f0160209004810192826200025257600085556200029e565b82601f106200026d57805160ff19168380011785556200029e565b828001600101855582156200029e579182015b828111156200029d57825182559160200191906001019062000280565b5b509050620002ad9190620002b1565b5090565b5b80821115620002cc576000816000905550600101620002b2565b5090565b60006002820490506001821680620002e957607f821691505b602082108114156200030057620002ff62000306565b5b50919050565b7f4e487b7100000000000000000000000000000000000000000000000000000000600052602260045260246000fd5b6149b680620003456000396000f3fe6080604052600436106101d15760003560e01c80636f9507f9116100f7578063a46b1fac11610095578063cc151f3a11610064578063cc151f3a14610710578063d170c91b1461073b578063e5326ab114610764578063e985e9c51461078f576101d8565b8063a46b1fac14610630578063a5cd761f1461066d578063b88d4fde146106aa578063c87b56dd146106d3576101d8565b806395d89b41116100d157806395d89b4114610588578063a03d7fc0146105b3578063a22cb465146105de578063a32018b914610607576101d8565b80636f9507f9146104db57806370a0823114610506578063717947b114610543576101d8565b80632d296bf11161016f57806362e8e8ac1161013e57806362e8e8ac146103fb5780636352211e1461042457806367c623cf146104615780636c8b703f1461049e576101d8565b80632d296bf11461033c57806342842e0e14610358578063439028501461038157806343d32ae7146103be576101d8565b8063095ea7b3116101ab578063095ea7b314610282578063142687f3146102ab57806318160ddd146102e857806323b872dd14610313576101d8565b806301ffc9a7146101dd57806306fdde031461021a578063081812fc14610245576101d8565b366101d857005b600080fd5b3480156101e957600080fd5b5061020460048036038101906101ff9190613949565b6107cc565b6040516102119190613e4d565b60405180910390f35b34801561022657600080fd5b5061022f6108ae565b60405161023c9190613e68565b60405180910390f35b34801561025157600080fd5b5061026c60048036038101906102679190613a5b565b610940565b6040516102799190613de6565b60405180910390f35b34801561028e57600080fd5b506102a960048036038101906102a4919061390d565b6109c5565b005b3480156102b757600080fd5b506102d260048036038101906102cd9190613a5b565b610add565b6040516102df9190613e4d565b60405180910390f35b3480156102f457600080fd5b506102fd610af4565b60405161030a919061408a565b60405180910390f35b34801561031f57600080fd5b5061033a60048036038101906103359190613807565b610afe565b005b61035660048036038101906103519190613a5b565b610b5e565b005b34801561036457600080fd5b5061037f600480360381019061037a9190613807565b611120565b005b34801561038d57600080fd5b506103a860048036038101906103a391906137a2565b611140565b6040516103b5919061408a565b60405180910390f35b3480156103ca57600080fd5b506103e560048036038101906103e0919061399b565b611157565b6040516103f29190613e4d565b60405180910390f35b34801561040757600080fd5b50610422600480360381019061041d9190613a84565b61118d565b005b34801561043057600080fd5b5061044b60048036038101906104469190613a5b565b611615565b6040516104589190613de6565b60405180910390f35b34801561046d57600080fd5b5061048860048036038101906104839190613a5b565b6116c7565b6040516104959190613e68565b60405180910390f35b3480156104aa57600080fd5b506104c560048036038101906104c09190613a5b565b6116df565b6040516104d29190613e68565b60405180910390f35b3480156104e757600080fd5b506104f061177f565b6040516104fd9190613e68565b60405180910390f35b34801561051257600080fd5b5061052d600480360381019061052891906137a2565b61180d565b60405161053a919061408a565b60405180910390f35b34801561054f57600080fd5b5061056a60048036038101906105659190613a5b565b6118c5565b60405161057f999897969594939291906140a5565b60405180910390f35b34801561059457600080fd5b5061059d611a90565b6040516105aa9190613e68565b60405180910390f35b3480156105bf57600080fd5b506105c8611b22565b6040516105d5919061408a565b60405180910390f35b3480156105ea57600080fd5b50610605600480360381019061060091906138d1565b611b28565b005b34801561061357600080fd5b5061062e60048036038101906106299190613a5b565b611b3e565b005b34801561063c57600080fd5b506106576004803603810190610652919061399b565b611ff0565b6040516106649190613e4d565b60405180910390f35b34801561067957600080fd5b50610694600480360381019061068f9190613a5b565b612026565b6040516106a19190613de6565b60405180910390f35b3480156106b657600080fd5b506106d160048036038101906106cc9190613856565b61203d565b005b3480156106df57600080fd5b506106fa60048036038101906106f59190613a5b565b61209f565b6040516107079190613e68565b60405180910390f35b34801561071c57600080fd5b5061072561218c565b604051610732919061408a565b60405180910390f35b34801561074757600080fd5b50610762600480360381019061075d91906139dc565b6121a0565b005b34801561077057600080fd5b506107796124f3565b6040516107869190613e68565b60405180910390f35b34801561079b57600080fd5b506107b660048036038101906107b191906137cb565b612581565b6040516107c39190613e4d565b60405180910390f35b60007f80ac58cd000000000000000000000000000000000000000000000000000000007bffffffffffffffffffffffffffffffffffffffffffffffffffffffff1916827bffffffffffffffffffffffffffffffffffffffffffffffffffffffff1916148061089757507f5b5e139f000000000000000000000000000000000000000000000000000000007bffffffffffffffffffffffffffffffffffffffffffffffffffffffff1916827bffffffffffffffffffffffffffffffffffffffffffffffffffffffff1916145b806108a757506108a682612615565b5b9050919050565b6060600080546108bd9061435c565b80601f01602080910402602001604051908101604052809291908181526020018280546108e99061435c565b80156109365780601f1061090b57610100808354040283529160200191610936565b820191906000526020600020905b81548152906001019060200180831161091957829003601f168201915b5050505050905090565b600061094b8261267f565b61098a576040517f08c379a000000000000000000000000000000000000000000000000000000000815260040161098190613fea565b60405180910390fd5b6004600083815260200190815260200160002060009054906101000a900473ffffffffffffffffffffffffffffffffffffffff169050919050565b60006109d082611615565b90508073ffffffffffffffffffffffffffffffffffffffff168373ffffffffffffffffffffffffffffffffffffffff161415610a41576040517f08c379a0000000000000000000000000000000000000000000000000000000008152600401610a389061402a565b60405180910390fd5b8073ffffffffffffffffffffffffffffffffffffffff16610a606126eb565b73ffffffffffffffffffffffffffffffffffffffff161480610a8f5750610a8e81610a896126eb565b612581565b5b610ace576040517f08c379a0000000000000000000000000000000000000000000000000000000008152600401610ac590613f6a565b60405180910390fd5b610ad883836126f3565b505050565b600080610ae98361267f565b905080915050919050565b6000600854905090565b610b0f610b096126eb565b826127ac565b610b4e576040517f08c379a0000000000000000000000000000000000000000000000000000000008152600401610b459061404a565b60405180910390fd5b610b5983838361288a565b505050565b600073ffffffffffffffffffffffffffffffffffffffff163373ffffffffffffffffffffffffffffffffffffffff161415610b9857600080fd5b610ba18161267f565b610baa57600080fd5b6000610bb582611615565b9050600073ffffffffffffffffffffffffffffffffffffffff168173ffffffffffffffffffffffffffffffffffffffff161415610bf157600080fd5b3373ffffffffffffffffffffffffffffffffffffffff168173ffffffffffffffffffffffffffffffffffffffff161415610c2a57600080fd5b6000600960008481526020019081526020016000206040518061012001604052908160008201548152602001600182018054610c659061435c565b80601f0160208091040260200160405190810160405280929190818152602001828054610c919061435c565b8015610cde5780601f10610cb357610100808354040283529160200191610cde565b820191906000526020600020905b815481529060010190602001808311610cc157829003601f168201915b50505050508152602001600282018054610cf79061435c565b80601f0160208091040260200160405190810160405280929190818152602001828054610d239061435c565b8015610d705780601f10610d4557610100808354040283529160200191610d70565b820191906000526020600020905b815481529060010190602001808311610d5357829003601f168201915b505050505081526020016003820160009054906101000a900473ffffffffffffffffffffffffffffffffffffffff1673ffffffffffffffffffffffffffffffffffffffff1673ffffffffffffffffffffffffffffffffffffffff1681526020016004820160009054906101000a900473ffffffffffffffffffffffffffffffffffffffff1673ffffffffffffffffffffffffffffffffffffffff1673ffffffffffffffffffffffffffffffffffffffff1681526020016005820160009054906101000a900473ffffffffffffffffffffffffffffffffffffffff1673ffffffffffffffffffffffffffffffffffffffff1673ffffffffffffffffffffffffffffffffffffffff16815260200160068201548152602001600782015481526020016008820160009054906101000a900460ff16151515158152505090508060c00151341015610ebd57600080fd5b806101000151610ecc57600080fd5b610ed782338561288a565b6000816080015190508073ffffffffffffffffffffffffffffffffffffffff166108fc349081150290604051600060405180830381858888f19350505050158015610f26573d6000803e3d6000fd5b5081608001518260a0019073ffffffffffffffffffffffffffffffffffffffff16908173ffffffffffffffffffffffffffffffffffffffff168152505033826080019073ffffffffffffffffffffffffffffffffffffffff16908173ffffffffffffffffffffffffffffffffffffffff168152505060018260e001818151610fae919061420a565b915081815250508160096000868152602001908152602001600020600082015181600001556020820151816001019080519060200190610fef9291906135c6565b50604082015181600201908051906020019061100c9291906135c6565b5060608201518160030160006101000a81548173ffffffffffffffffffffffffffffffffffffffff021916908373ffffffffffffffffffffffffffffffffffffffff16021790555060808201518160040160006101000a81548173ffffffffffffffffffffffffffffffffffffffff021916908373ffffffffffffffffffffffffffffffffffffffff16021790555060a08201518160050160006101000a81548173ffffffffffffffffffffffffffffffffffffffff021916908373ffffffffffffffffffffffffffffffffffffffff16021790555060c0820151816006015560e082015181600701556101008201518160080160006101000a81548160ff02191690831515021790555090505050505050565b61113b8383836040518060200160405280600081525061203d565b505050565b60008061114c8361180d565b905080915050919050565b600c818051602081018201805184825260208301602085012081835280955050505050506000915054906101000a900460ff1681565b600073ffffffffffffffffffffffffffffffffffffffff163373ffffffffffffffffffffffffffffffffffffffff1614156111c757600080fd5b6111d08261267f565b6111d957600080fd5b60006111e483611615565b90503373ffffffffffffffffffffffffffffffffffffffff168173ffffffffffffffffffffffffffffffffffffffff161461121e57600080fd5b60006009600085815260200190815260200160002060405180610120016040529081600082015481526020016001820180546112599061435c565b80601f01602080910402602001604051908101604052809291908181526020018280546112859061435c565b80156112d25780601f106112a7576101008083540402835291602001916112d2565b820191906000526020600020905b8154815290600101906020018083116112b557829003601f168201915b505050505081526020016002820180546112eb9061435c565b80601f01602080910402602001604051908101604052809291908181526020018280546113179061435c565b80156113645780601f1061133957610100808354040283529160200191611364565b820191906000526020600020905b81548152906001019060200180831161134757829003601f168201915b505050505081526020016003820160009054906101000a900473ffffffffffffffffffffffffffffffffffffffff1673ffffffffffffffffffffffffffffffffffffffff1673ffffffffffffffffffffffffffffffffffffffff1681526020016004820160009054906101000a900473ffffffffffffffffffffffffffffffffffffffff1673ffffffffffffffffffffffffffffffffffffffff1673ffffffffffffffffffffffffffffffffffffffff1681526020016005820160009054906101000a900473ffffffffffffffffffffffffffffffffffffffff1673ffffffffffffffffffffffffffffffffffffffff1673ffffffffffffffffffffffffffffffffffffffff16815260200160068201548152602001600782015481526020016008820160009054906101000a900460ff1615151515815250509050828160c001818152505080600960008681526020019081526020016000206000820151816000015560208201518160010190805190602001906114e49291906135c6565b5060408201518160020190805190602001906115019291906135c6565b5060608201518160030160006101000a81548173ffffffffffffffffffffffffffffffffffffffff021916908373ffffffffffffffffffffffffffffffffffffffff16021790555060808201518160040160006101000a81548173ffffffffffffffffffffffffffffffffffffffff021916908373ffffffffffffffffffffffffffffffffffffffff16021790555060a08201518160050160006101000a81548173ffffffffffffffffffffffffffffffffffffffff021916908373ffffffffffffffffffffffffffffffffffffffff16021790555060c0820151816006015560e082015181600701556101008201518160080160006101000a81548160ff02191690831515021790555090505050505050565b6000806002600084815260200190815260200160002060009054906101000a900473ffffffffffffffffffffffffffffffffffffffff169050600073ffffffffffffffffffffffffffffffffffffffff168173ffffffffffffffffffffffffffffffffffffffff1614156116be576040517f08c379a00000000000000000000000000000000000000000000000000000000081526004016116b590613faa565b60405180910390fd5b80915050919050565b606060006116d48361209f565b905080915050919050565b600a60205280600052604060002060009150905080546116fe9061435c565b80601f016020809104026020016040519081016040528092919081815260200182805461172a9061435c565b80156117775780601f1061174c57610100808354040283529160200191611777565b820191906000526020600020905b81548152906001019060200180831161175a57829003601f168201915b505050505081565b6007805461178c9061435c565b80601f01602080910402602001604051908101604052809291908181526020018280546117b89061435c565b80156118055780601f106117da57610100808354040283529160200191611805565b820191906000526020600020905b8154815290600101906020018083116117e857829003601f168201915b505050505081565b60008073ffffffffffffffffffffffffffffffffffffffff168273ffffffffffffffffffffffffffffffffffffffff16141561187e576040517f08c379a000000000000000000000000000000000000000000000000000000000815260040161187590613f8a565b60405180910390fd5b600360008373ffffffffffffffffffffffffffffffffffffffff1673ffffffffffffffffffffffffffffffffffffffff168152602001908152602001600020549050919050565b60096020528060005260406000206000915090508060000154908060010180546118ee9061435c565b80601f016020809104026020016040519081016040528092919081815260200182805461191a9061435c565b80156119675780601f1061193c57610100808354040283529160200191611967565b820191906000526020600020905b81548152906001019060200180831161194a57829003601f168201915b50505050509080600201805461197c9061435c565b80601f01602080910402602001604051908101604052809291908181526020018280546119a89061435c565b80156119f55780601f106119ca576101008083540402835291602001916119f5565b820191906000526020600020905b8154815290600101906020018083116119d857829003601f168201915b5050505050908060030160009054906101000a900473ffffffffffffffffffffffffffffffffffffffff16908060040160009054906101000a900473ffffffffffffffffffffffffffffffffffffffff16908060050160009054906101000a900473ffffffffffffffffffffffffffffffffffffffff16908060060154908060070154908060080160009054906101000a900460ff16905089565b606060018054611a9f9061435c565b80601f0160208091040260200160405190810160405280929190818152602001828054611acb9061435c565b8015611b185780601f10611aed57610100808354040283529160200191611b18565b820191906000526020600020905b815481529060010190602001808311611afb57829003601f168201915b5050505050905090565b60085481565b611b3a611b336126eb565b8383612af1565b5050565b600073ffffffffffffffffffffffffffffffffffffffff163373ffffffffffffffffffffffffffffffffffffffff161415611b7857600080fd5b611b818161267f565b611b8a57600080fd5b6000611b9582611615565b90503373ffffffffffffffffffffffffffffffffffffffff168173ffffffffffffffffffffffffffffffffffffffff1614611bcf57600080fd5b6000600960008481526020019081526020016000206040518061012001604052908160008201548152602001600182018054611c0a9061435c565b80601f0160208091040260200160405190810160405280929190818152602001828054611c369061435c565b8015611c835780601f10611c5857610100808354040283529160200191611c83565b820191906000526020600020905b815481529060010190602001808311611c6657829003601f168201915b50505050508152602001600282018054611c9c9061435c565b80601f0160208091040260200160405190810160405280929190818152602001828054611cc89061435c565b8015611d155780601f10611cea57610100808354040283529160200191611d15565b820191906000526020600020905b815481529060010190602001808311611cf857829003601f168201915b505050505081526020016003820160009054906101000a900473ffffffffffffffffffffffffffffffffffffffff1673ffffffffffffffffffffffffffffffffffffffff1673ffffffffffffffffffffffffffffffffffffffff1681526020016004820160009054906101000a900473ffffffffffffffffffffffffffffffffffffffff1673ffffffffffffffffffffffffffffffffffffffff1673ffffffffffffffffffffffffffffffffffffffff1681526020016005820160009054906101000a900473ffffffffffffffffffffffffffffffffffffffff1673ffffffffffffffffffffffffffffffffffffffff1673ffffffffffffffffffffffffffffffffffffffff16815260200160068201548152602001600782015481526020016008820160009054906101000a900460ff161515151581525050905080610100015115611e7357600081610100019015159081151581525050611e86565b6001816101000190151590811515815250505b8060096000858152602001908152602001600020600082015181600001556020820151816001019080519060200190611ec09291906135c6565b506040820151816002019080519060200190611edd9291906135c6565b5060608201518160030160006101000a81548173ffffffffffffffffffffffffffffffffffffffff021916908373ffffffffffffffffffffffffffffffffffffffff16021790555060808201518160040160006101000a81548173ffffffffffffffffffffffffffffffffffffffff021916908373ffffffffffffffffffffffffffffffffffffffff16021790555060a08201518160050160006101000a81548173ffffffffffffffffffffffffffffffffffffffff021916908373ffffffffffffffffffffffffffffffffffffffff16021790555060c0820151816006015560e082015181600701556101008201518160080160006101000a81548160ff021916908315150217905550905050505050565b600b818051602081018201805184825260208301602085012081835280955050505050506000915054906101000a900460ff1681565b60008061203283611615565b905080915050919050565b61204e6120486126eb565b836127ac565b61208d576040517f08c379a00000000000000000000000000000000000000000000000000000000081526004016120849061404a565b60405180910390fd5b61209984848484612c5e565b50505050565b60606120aa8261267f565b6120e9576040517f08c379a00000000000000000000000000000000000000000000000000000000081526004016120e09061400a565b60405180910390fd5b600a600083815260200190815260200160002080546121079061435c565b80601f01602080910402602001604051908101604052809291908181526020018280546121339061435c565b80156121805780601f1061215557610100808354040283529160200191612180565b820191906000526020600020905b81548152906001019060200180831161216357829003601f168201915b50505050509050919050565b600080612197610af4565b90508091505090565b600073ffffffffffffffffffffffffffffffffffffffff163373ffffffffffffffffffffffffffffffffffffffff1614156121da57600080fd5b600860008154809291906121ed906143bf565b91905055506121fd60085461267f565b1561220757600080fd5b600c826040516122179190613dcf565b908152602001604051809103902060009054906101000a900460ff161561223d57600080fd5b600b8360405161224d9190613dcf565b908152602001604051809103902060009054906101000a900460ff161561227357600080fd5b61227f33600854612cba565b61228b60085483612e94565b6001600c8360405161229d9190613dcf565b908152602001604051809103902060006101000a81548160ff0219169083151502179055506001600b846040516122d49190613dcf565b908152602001604051809103902060006101000a81548160ff021916908315150217905550600060405180610120016040528060085481526020018581526020018481526020013373ffffffffffffffffffffffffffffffffffffffff1681526020013373ffffffffffffffffffffffffffffffffffffffff168152602001600073ffffffffffffffffffffffffffffffffffffffff16815260200183815260200160008152602001600115158152509050806009600060085481526020019081526020016000206000820151816000015560208201518160010190805190602001906123c29291906135c6565b5060408201518160020190805190602001906123df9291906135c6565b5060608201518160030160006101000a81548173ffffffffffffffffffffffffffffffffffffffff021916908373ffffffffffffffffffffffffffffffffffffffff16021790555060808201518160040160006101000a81548173ffffffffffffffffffffffffffffffffffffffff021916908373ffffffffffffffffffffffffffffffffffffffff16021790555060a08201518160050160006101000a81548173ffffffffffffffffffffffffffffffffffffffff021916908373ffffffffffffffffffffffffffffffffffffffff16021790555060c0820151816006015560e082015181600701556101008201518160080160006101000a81548160ff02191690831515021790555090505050505050565b600680546125009061435c565b80601f016020809104026020016040519081016040528092919081815260200182805461252c9061435c565b80156125795780601f1061254e57610100808354040283529160200191612579565b820191906000526020600020905b81548152906001019060200180831161255c57829003601f168201915b505050505081565b6000600560008473ffffffffffffffffffffffffffffffffffffffff1673ffffffffffffffffffffffffffffffffffffffff16815260200190815260200160002060008373ffffffffffffffffffffffffffffffffffffffff1673ffffffffffffffffffffffffffffffffffffffff16815260200190815260200160002060009054906101000a900460ff16905092915050565b60007f01ffc9a7000000000000000000000000000000000000000000000000000000007bffffffffffffffffffffffffffffffffffffffffffffffffffffffff1916827bffffffffffffffffffffffffffffffffffffffffffffffffffffffff1916149050919050565b60008073ffffffffffffffffffffffffffffffffffffffff166002600084815260200190815260200160002060009054906101000a900473ffffffffffffffffffffffffffffffffffffffff1673ffffffffffffffffffffffffffffffffffffffff1614159050919050565b600033905090565b816004600083815260200190815260200160002060006101000a81548173ffffffffffffffffffffffffffffffffffffffff021916908373ffffffffffffffffffffffffffffffffffffffff160217905550808273ffffffffffffffffffffffffffffffffffffffff1661276683611615565b73ffffffffffffffffffffffffffffffffffffffff167f8c5be1e5ebec7d5bd14f71427d1e84f3dd0314c0f7b2291e5b200ac8c7c3b92560405160405180910390a45050565b60006127b78261267f565b6127f6576040517f08c379a00000000000000000000000000000000000000000000000000000000081526004016127ed90613f4a565b60405180910390fd5b600061280183611615565b90508073ffffffffffffffffffffffffffffffffffffffff168473ffffffffffffffffffffffffffffffffffffffff16148061287057508373ffffffffffffffffffffffffffffffffffffffff1661285884610940565b73ffffffffffffffffffffffffffffffffffffffff16145b8061288157506128808185612581565b5b91505092915050565b8273ffffffffffffffffffffffffffffffffffffffff166128aa82611615565b73ffffffffffffffffffffffffffffffffffffffff1614612900576040517f08c379a00000000000000000000000000000000000000000000000000000000081526004016128f790613eca565b60405180910390fd5b600073ffffffffffffffffffffffffffffffffffffffff168273ffffffffffffffffffffffffffffffffffffffff161415612970576040517f08c379a000000000000000000000000000000000000000000000000000000000815260040161296790613f0a565b60405180910390fd5b61297b838383612ec0565b6129866000826126f3565b6001600360008573ffffffffffffffffffffffffffffffffffffffff1673ffffffffffffffffffffffffffffffffffffffff16815260200190815260200160002060008282546129d69190614260565b925050819055506001600360008473ffffffffffffffffffffffffffffffffffffffff1673ffffffffffffffffffffffffffffffffffffffff1681526020019081526020016000206000828254612a2d919061420a565b92505081905550816002600083815260200190815260200160002060006101000a81548173ffffffffffffffffffffffffffffffffffffffff021916908373ffffffffffffffffffffffffffffffffffffffff160217905550808273ffffffffffffffffffffffffffffffffffffffff168473ffffffffffffffffffffffffffffffffffffffff167fddf252ad1be2c89b69c2b068fc378daa952ba7f163c4a11628f55a4df523b3ef60405160405180910390a4612aec838383612ec5565b505050565b8173ffffffffffffffffffffffffffffffffffffffff168373ffffffffffffffffffffffffffffffffffffffff161415612b60576040517f08c379a0000000000000000000000000000000000000000000000000000000008152600401612b5790613f2a565b60405180910390fd5b80600560008573ffffffffffffffffffffffffffffffffffffffff1673ffffffffffffffffffffffffffffffffffffffff16815260200190815260200160002060008473ffffffffffffffffffffffffffffffffffffffff1673ffffffffffffffffffffffffffffffffffffffff16815260200190815260200160002060006101000a81548160ff0219169083151502179055508173ffffffffffffffffffffffffffffffffffffffff168373ffffffffffffffffffffffffffffffffffffffff167f17307eab39ab6107e8899845ad3d59bd9653f200f220920489ca2b5937696c3183604051612c519190613e4d565b60405180910390a3505050565b612c6984848461288a565b612c758484848461340c565b612cb4576040517f08c379a0000000000000000000000000000000000000000000000000000000008152600401612cab90613eaa565b60405180910390fd5b50505050565b600073ffffffffffffffffffffffffffffffffffffffff168273ffffffffffffffffffffffffffffffffffffffff161415612d2a576040517f08c379a0000000000000000000000000000000000000000000000000000000008152600401612d2190613fca565b60405180910390fd5b612d338161267f565b15612d73576040517f08c379a0000000000000000000000000000000000000000000000000000000008152600401612d6a90613eea565b60405180910390fd5b612d7f60008383612ec0565b6001600360008473ffffffffffffffffffffffffffffffffffffffff1673ffffffffffffffffffffffffffffffffffffffff1681526020019081526020016000206000828254612dcf919061420a565b92505081905550816002600083815260200190815260200160002060006101000a81548173ffffffffffffffffffffffffffffffffffffffff021916908373ffffffffffffffffffffffffffffffffffffffff160217905550808273ffffffffffffffffffffffffffffffffffffffff16600073ffffffffffffffffffffffffffffffffffffffff167fddf252ad1be2c89b69c2b068fc378daa952ba7f163c4a11628f55a4df523b3ef60405160405180910390a4612e9060008383612ec5565b5050565b80600a60008481526020019081526020016000209080519060200190612ebb9291906135c6565b505050565b505050565b8173ffffffffffffffffffffffffffffffffffffffff16612ee582611615565b73ffffffffffffffffffffffffffffffffffffffff1614612f3b576040517f08c379a0000000000000000000000000000000000000000000000000000000008152600401612f329061406a565b60405180910390fd5b600073ffffffffffffffffffffffffffffffffffffffff168273ffffffffffffffffffffffffffffffffffffffff161415612fab576040517f08c379a0000000000000000000000000000000000000000000000000000000008152600401612fa290613e8a565b60405180910390fd5b6000600960008381526020019081526020016000206040518061012001604052908160008201548152602001600182018054612fe69061435c565b80601f01602080910402602001604051908101604052809291908181526020018280546130129061435c565b801561305f5780601f106130345761010080835404028352916020019161305f565b820191906000526020600020905b81548152906001019060200180831161304257829003601f168201915b505050505081526020016002820180546130789061435c565b80601f01602080910402602001604051908101604052809291908181526020018280546130a49061435c565b80156130f15780601f106130c6576101008083540402835291602001916130f1565b820191906000526020600020905b8154815290600101906020018083116130d457829003601f168201915b505050505081526020016003820160009054906101000a900473ffffffffffffffffffffffffffffffffffffffff1673ffffffffffffffffffffffffffffffffffffffff1673ffffffffffffffffffffffffffffffffffffffff1681526020016004820160009054906101000a900473ffffffffffffffffffffffffffffffffffffffff1673ffffffffffffffffffffffffffffffffffffffff1673ffffffffffffffffffffffffffffffffffffffff1681526020016005820160009054906101000a900473ffffffffffffffffffffffffffffffffffffffff1673ffffffffffffffffffffffffffffffffffffffff1673ffffffffffffffffffffffffffffffffffffffff16815260200160068201548152602001600782015481526020016008820160009054906101000a900460ff161515151581525050905080608001518160a0019073ffffffffffffffffffffffffffffffffffffffff16908173ffffffffffffffffffffffffffffffffffffffff168152505082816080019073ffffffffffffffffffffffffffffffffffffffff16908173ffffffffffffffffffffffffffffffffffffffff168152505080600960008481526020019081526020016000206000820151816000015560208201518160010190805190602001906132db9291906135c6565b5060408201518160020190805190602001906132f89291906135c6565b5060608201518160030160006101000a81548173ffffffffffffffffffffffffffffffffffffffff021916908373ffffffffffffffffffffffffffffffffffffffff16021790555060808201518160040160006101000a81548173ffffffffffffffffffffffffffffffffffffffff021916908373ffffffffffffffffffffffffffffffffffffffff16021790555060a08201518160050160006101000a81548173ffffffffffffffffffffffffffffffffffffffff021916908373ffffffffffffffffffffffffffffffffffffffff16021790555060c0820151816006015560e082015181600701556101008201518160080160006101000a81548160ff02191690831515021790555090505050505050565b600061342d8473ffffffffffffffffffffffffffffffffffffffff166135a3565b15613596578373ffffffffffffffffffffffffffffffffffffffff1663150b7a026134566126eb565b8786866040518563ffffffff1660e01b81526004016134789493929190613e01565b602060405180830381600087803b15801561349257600080fd5b505af19250505080156134c357506040513d601f19601f820116820180604052508101906134c09190613972565b60015b613546573d80600081146134f3576040519150601f19603f3d011682016040523d82523d6000602084013e6134f8565b606091505b5060008151141561353e576040517f08c379a000000000000000000000000000000000000000000000000000000000815260040161353590613eaa565b60405180910390fd5b805181602001fd5b63150b7a0260e01b7bffffffffffffffffffffffffffffffffffffffffffffffffffffffff1916817bffffffffffffffffffffffffffffffffffffffffffffffffffffffff19161491505061359b565b600190505b949350505050565b6000808273ffffffffffffffffffffffffffffffffffffffff163b119050919050565b8280546135d29061435c565b90600052602060002090601f0160209004810192826135f4576000855561363b565b82601f1061360d57805160ff191683800117855561363b565b8280016001018555821561363b579182015b8281111561363a57825182559160200191906001019061361f565b5b509050613648919061364c565b5090565b5b8082111561366557600081600090555060010161364d565b5090565b600061367c61367784614165565b614140565b90508281526020810184848401111561369457600080fd5b61369f84828561431a565b509392505050565b60006136ba6136b584614196565b614140565b9050828152602081018484840111156136d257600080fd5b6136dd84828561431a565b509392505050565b6000813590506136f481614924565b92915050565b6000813590506137098161493b565b92915050565b60008135905061371e81614952565b92915050565b60008151905061373381614952565b92915050565b600082601f83011261374a57600080fd5b813561375a848260208601613669565b91505092915050565b600082601f83011261377457600080fd5b81356137848482602086016136a7565b91505092915050565b60008135905061379c81614969565b92915050565b6000602082840312156137b457600080fd5b60006137c2848285016136e5565b91505092915050565b600080604083850312156137de57600080fd5b60006137ec858286016136e5565b92505060206137fd858286016136e5565b9150509250929050565b60008060006060848603121561381c57600080fd5b600061382a868287016136e5565b935050602061383b868287016136e5565b925050604061384c8682870161378d565b9150509250925092565b6000806000806080858703121561386c57600080fd5b600061387a878288016136e5565b945050602061388b878288016136e5565b935050604061389c8782880161378d565b925050606085013567ffffffffffffffff8111156138b957600080fd5b6138c587828801613739565b91505092959194509250565b600080604083850312156138e457600080fd5b60006138f2858286016136e5565b9250506020613903858286016136fa565b9150509250929050565b6000806040838503121561392057600080fd5b600061392e858286016136e5565b925050602061393f8582860161378d565b9150509250929050565b60006020828403121561395b57600080fd5b60006139698482850161370f565b91505092915050565b60006020828403121561398457600080fd5b600061399284828501613724565b91505092915050565b6000602082840312156139ad57600080fd5b600082013567ffffffffffffffff8111156139c757600080fd5b6139d384828501613763565b91505092915050565b6000806000606084860312156139f157600080fd5b600084013567ffffffffffffffff811115613a0b57600080fd5b613a1786828701613763565b935050602084013567ffffffffffffffff811115613a3457600080fd5b613a4086828701613763565b9250506040613a518682870161378d565b9150509250925092565b600060208284031215613a6d57600080fd5b6000613a7b8482850161378d565b91505092915050565b60008060408385031215613a9757600080fd5b6000613aa58582860161378d565b9250506020613ab68582860161378d565b9150509250929050565b613ac9816142a6565b82525050565b613ad881614294565b82525050565b613ae7816142b8565b82525050565b6000613af8826141c7565b613b0281856141dd565b9350613b12818560208601614329565b613b1b81614495565b840191505092915050565b6000613b31826141d2565b613b3b81856141ee565b9350613b4b818560208601614329565b613b5481614495565b840191505092915050565b6000613b6a826141d2565b613b7481856141ff565b9350613b84818560208601614329565b80840191505092915050565b6000613b9d6026836141ee565b9150613ba8826144a6565b604082019050919050565b6000613bc06032836141ee565b9150613bcb826144f5565b604082019050919050565b6000613be36025836141ee565b9150613bee82614544565b604082019050919050565b6000613c06601c836141ee565b9150613c1182614593565b602082019050919050565b6000613c296024836141ee565b9150613c34826145bc565b604082019050919050565b6000613c4c6019836141ee565b9150613c578261460b565b602082019050919050565b6000613c6f602c836141ee565b9150613c7a82614634565b604082019050919050565b6000613c926038836141ee565b9150613c9d82614683565b604082019050919050565b6000613cb5602a836141ee565b9150613cc0826146d2565b604082019050919050565b6000613cd86029836141ee565b9150613ce382614721565b604082019050919050565b6000613cfb6020836141ee565b9150613d0682614770565b602082019050919050565b6000613d1e602c836141ee565b9150613d2982614799565b604082019050919050565b6000613d416029836141ee565b9150613d4c826147e8565b604082019050919050565b6000613d646021836141ee565b9150613d6f82614837565b604082019050919050565b6000613d876031836141ee565b9150613d9282614886565b604082019050919050565b6000613daa6027836141ee565b9150613db5826148d5565b604082019050919050565b613dc981614310565b82525050565b6000613ddb8284613b5f565b915081905092915050565b6000602082019050613dfb6000830184613acf565b92915050565b6000608082019050613e166000830187613acf565b613e236020830186613acf565b613e306040830185613dc0565b8181036060830152613e428184613aed565b905095945050505050565b6000602082019050613e626000830184613ade565b92915050565b60006020820190508181036000830152613e828184613b26565b905092915050565b60006020820190508181036000830152613ea381613b90565b9050919050565b60006020820190508181036000830152613ec381613bb3565b9050919050565b60006020820190508181036000830152613ee381613bd6565b9050919050565b60006020820190508181036000830152613f0381613bf9565b9050919050565b60006020820190508181036000830152613f2381613c1c565b9050919050565b60006020820190508181036000830152613f4381613c3f565b9050919050565b60006020820190508181036000830152613f6381613c62565b9050919050565b60006020820190508181036000830152613f8381613c85565b9050919050565b60006020820190508181036000830152613fa381613ca8565b9050919050565b60006020820190508181036000830152613fc381613ccb565b9050919050565b60006020820190508181036000830152613fe381613cee565b9050919050565b6000602082019050818103600083015261400381613d11565b9050919050565b6000602082019050818103600083015261402381613d34565b9050919050565b6000602082019050818103600083015261404381613d57565b9050919050565b6000602082019050818103600083015261406381613d7a565b9050919050565b6000602082019050818103600083015261408381613d9d565b9050919050565b600060208201905061409f6000830184613dc0565b92915050565b6000610120820190506140bb600083018c613dc0565b81810360208301526140cd818b613b26565b905081810360408301526140e1818a613b26565b90506140f06060830189613ac0565b6140fd6080830188613ac0565b61410a60a0830187613ac0565b61411760c0830186613dc0565b61412460e0830185613dc0565b614132610100830184613ade565b9a9950505050505050505050565b600061414a61415b565b9050614156828261438e565b919050565b6000604051905090565b600067ffffffffffffffff8211156141805761417f614466565b5b61418982614495565b9050602081019050919050565b600067ffffffffffffffff8211156141b1576141b0614466565b5b6141ba82614495565b9050602081019050919050565b600081519050919050565b600081519050919050565b600082825260208201905092915050565b600082825260208201905092915050565b600081905092915050565b600061421582614310565b915061422083614310565b9250827fffffffffffffffffffffffffffffffffffffffffffffffffffffffffffffffff0382111561425557614254614408565b5b828201905092915050565b600061426b82614310565b915061427683614310565b92508282101561428957614288614408565b5b828203905092915050565b600061429f826142f0565b9050919050565b60006142b1826142f0565b9050919050565b60008115159050919050565b60007fffffffff0000000000000000000000000000000000000000000000000000000082169050919050565b600073ffffffffffffffffffffffffffffffffffffffff82169050919050565b6000819050919050565b82818337600083830152505050565b60005b8381101561434757808201518184015260208101905061432c565b83811115614356576000848401525b50505050565b6000600282049050600182168061437457607f821691505b6020821081141561438857614387614437565b5b50919050565b61439782614495565b810181811067ffffffffffffffff821117156143b6576143b5614466565b5b80604052505050565b60006143ca82614310565b91507fffffffffffffffffffffffffffffffffffffffffffffffffffffffffffffffff8214156143fd576143fc614408565b5b600182019050919050565b7f4e487b7100000000000000000000000000000000000000000000000000000000600052601160045260246000fd5b7f4e487b7100000000000000000000000000000000000000000000000000000000600052602260045260246000fd5b7f4e487b7100000000000000000000000000000000000000000000000000000000600052604160045260246000fd5b6000601f19601f8301169050919050565b7f5061776e4e4654733a207472616e7366657220746f20746865207a65726f206160008201527f6464726573730000000000000000000000000000000000000000000000000000602082015250565b7f4552433732313a207472616e7366657220746f206e6f6e20455243373231526560008201527f63656976657220696d706c656d656e7465720000000000000000000000000000602082015250565b7f4552433732313a207472616e736665722066726f6d20696e636f72726563742060008201527f6f776e6572000000000000000000000000000000000000000000000000000000602082015250565b7f4552433732313a20746f6b656e20616c7265616479206d696e74656400000000600082015250565b7f4552433732313a207472616e7366657220746f20746865207a65726f2061646460008201527f7265737300000000000000000000000000000000000000000000000000000000602082015250565b7f4552433732313a20617070726f766520746f2063616c6c657200000000000000600082015250565b7f4552433732313a206f70657261746f7220717565727920666f72206e6f6e657860008201527f697374656e7420746f6b656e0000000000000000000000000000000000000000602082015250565b7f4552433732313a20617070726f76652063616c6c6572206973206e6f74206f7760008201527f6e6572206e6f7220617070726f76656420666f7220616c6c0000000000000000602082015250565b7f4552433732313a2062616c616e636520717565727920666f7220746865207a6560008201527f726f206164647265737300000000000000000000000000000000000000000000602082015250565b7f4552433732313a206f776e657220717565727920666f72206e6f6e657869737460008201527f656e7420746f6b656e0000000000000000000000000000000000000000000000602082015250565b7f4552433732313a206d696e7420746f20746865207a65726f2061646472657373600082015250565b7f4552433732313a20617070726f76656420717565727920666f72206e6f6e657860008201527f697374656e7420746f6b656e0000000000000000000000000000000000000000602082015250565b7f5061776e4e4654733a2055524920717565727920666f72206e6f6e657869737460008201527f656e7420746f6b656e0000000000000000000000000000000000000000000000602082015250565b7f4552433732313a20617070726f76616c20746f2063757272656e74206f776e6560008201527f7200000000000000000000000000000000000000000000000000000000000000602082015250565b7f4552433732313a207472616e736665722063616c6c6572206973206e6f74206f60008201527f776e6572206e6f7220617070726f766564000000000000000000000000000000602082015250565b7f5061776e4e4654733a207472616e736665722066726f6d20696e636f7272656360008201527f74206f776e657200000000000000000000000000000000000000000000000000602082015250565b61492d81614294565b811461493857600080fd5b50565b614944816142b8565b811461494f57600080fd5b50565b61495b816142c4565b811461496657600080fd5b50565b61497281614310565b811461497d57600080fd5b5056fea264697066735822122058eb10a80544400c79939f4fcb6fbaf9ba53a94744ac549a8cc470ee18087e8264736f6c634300080400334f70656e636861696e205061776e696e67204e46547320436f6c6c656374696f6e",
  "immutableReferences": {},
  "source": "// SPDX-License-Identifier: MIT\npragma solidity ^0.8.0;\n\nimport \"@openzeppelin/contracts/token/ERC721/ERC721.sol\";\n\n// PawnNFTs smart contract inherits ERC721 interface\ncontract PawnNFTs is ERC721 {\n\n  // this contract's token collection name\n  string public collectionName;\n  // this contract's token symbol\n  string public collectionNameSymbol;\n  // total number of pawning NFTs minted\n  uint256 public pawnNFTCounter;\n\n  // define pawning NFT struct\n   struct PawnNFT {\n    uint256 tokenId;\n    string tokenName;\n    string tokenURI;\n    address payable mintedBy;\n    address payable currentOwner;\n    address payable previousOwner;\n    uint256 price;\n    uint256 numberOfTransfers;\n    bool forSale;\n  }\n\n  // map pawnNft's token id to pawning NFT\n  mapping(uint256 => PawnNFT) public allPawnNFTs;\n  // \n  mapping(uint256 => string) public tokenURIs;\n  // check if token name exists\n  mapping(string => bool) public tokenNameExists;\n  // check if token URI exists\n  mapping(string => bool) public tokenURIExists;\n\n  receive() external payable {}\n\n  // initialize contract while deployment with contract's collection name and token\n  constructor() ERC721(\"Openchain Pawning NFTs Collection\", \"PNFT\") {\n    collectionName = name();\n    collectionNameSymbol = symbol();\n  }\n\n  /**\n    * @dev Base URI for computing {tokenURI}. If set, the resulting URI for each\n    * token will be the concatenation of the `baseURI` and the `tokenId`. Empty\n    * by default, can be overriden in child contracts.\n    */\n  function tokenURI(uint256 tokenId) public view virtual override returns (string memory) {\n    require(_exists(tokenId), \"PawnNFTs: URI query for nonexistent token\");\n    // require(tokenURIs[tokenId] != 0, \"PawnNFTs: URI query for token without token URI\");\n    return tokenURIs[tokenId];\n  }\n  \n  function _setTokenURI(uint tokenId, string memory _tokenURI) internal {\n    tokenURIs[tokenId] = _tokenURI;\n  }\n\n  function totalSupply() public view returns(uint256) {\n    return pawnNFTCounter;\n  }\n\n  // mint a new pawning NFT\n  function mintPawnNFT(string memory _name, string memory _tokenURI, uint256 _price) external {\n    // check if thic fucntion caller is not an zero address account\n    require(msg.sender != address(0));\n    // increment counter\n    pawnNFTCounter ++;\n    // check if a token exists with the above token id => incremented counter\n    require(!_exists(pawnNFTCounter));\n\n    // check if the token URI already exists or not\n    require(!tokenURIExists[_tokenURI]);\n    // check if the token name already exists or not\n    require(!tokenNameExists[_name]);\n\n    // mint the token\n    _mint(msg.sender, pawnNFTCounter);\n    // set token URI (bind token id with the passed in token URI)\n    _setTokenURI(pawnNFTCounter, _tokenURI);\n\n    // make passed token URI as exists\n    tokenURIExists[_tokenURI] = true;\n    // make token name passed as exists\n    tokenNameExists[_name] = true;\n\n    // creat a new pawning NFT (struct) and pass in new values\n    PawnNFT memory newPawnNFT = PawnNFT(\n      pawnNFTCounter,\n      _name,\n      _tokenURI,\n      payable(msg.sender),\n      payable(msg.sender),\n      payable(address(0)),\n      _price,\n      0,\n      true\n    );\n    // add the token id and it's pawning NFT to all pawning NFTs mapping\n    allPawnNFTs[pawnNFTCounter] = newPawnNFT;\n  }\n\n  // get owner of the token\n  function getTokenOwner(uint256 _tokenId) public view returns(address) {\n    address _tokenOwner = ownerOf(_tokenId);\n    return _tokenOwner;\n  }\n\n  // get metadata of the token\n  function getTokenMetaData(uint _tokenId) public view returns(string memory) {\n    string memory tokenMetaData = tokenURI(_tokenId);\n    return tokenMetaData;\n  }\n\n  // get total number of tokens minted so far\n  function getNumberOfTokensMinted() public view returns(uint256) {\n    uint256 totalNumberOfTokensMinted = totalSupply();\n    return totalNumberOfTokensMinted;\n  }\n\n  // get total number of tokens owned by an address\n  function getTotalNumberOfTokensOwnedByAnAddress(address _owner) public view returns(uint256) {\n    uint256 totalNumberOfTokensOwned = balanceOf(_owner);\n    return totalNumberOfTokensOwned;\n  }\n\n  // check if the token already exists\n  function getTokenExists(uint256 _tokenId) public view returns(bool) {\n    bool tokenExists = _exists(_tokenId);\n    return tokenExists;\n  }\n\n  // by a token by passing in the token's id\n  function buyToken(uint256 _tokenId) public payable {\n    // check if the function caller is not an zero account address\n    require(msg.sender != address(0));\n    // check if the token id of the token being bought exists or not\n    require(_exists(_tokenId));\n    // get the token's owner\n    address tokenOwner = ownerOf(_tokenId);\n    // token's owner should not be an zero address account\n    require(tokenOwner != address(0));\n    // the one who wants to buy the token should not be the token's owner\n    require(tokenOwner != msg.sender);\n    // get that token from all pawning NFTs mapping and create a memory of it defined as (struct => PawnNFT)\n    PawnNFT memory pawnNft = allPawnNFTs[_tokenId];\n    // price sent in to buy should be equal to or more than the token's price\n    require(msg.value >= pawnNft.price);\n    // token should be for sale\n    require(pawnNft.forSale);\n    // transfer the token from owner to the caller of the function (buyer)\n    _transfer(tokenOwner, msg.sender, _tokenId);\n    // get owner of the token\n    address payable sendTo = pawnNft.currentOwner;\n    // send token's worth of ethers to the owner\n    sendTo.transfer(msg.value);\n    // update the token's previous owner\n    pawnNft.previousOwner = pawnNft.currentOwner;\n    // update the token's current owner\n    pawnNft.currentOwner = payable(msg.sender);\n    // update the how many times this token was transfered\n    pawnNft.numberOfTransfers += 1;\n    // set and update that token in the mapping\n    allPawnNFTs[_tokenId] = pawnNft;\n  }\n\n  function _afterTokenTransfer(\n      address from,\n      address to,\n      uint256 tokenId\n  ) internal virtual override {\n    // Now the owner of the token ID is \"to\"\n    require(ERC721.ownerOf(tokenId) == to, \"PawnNFTs: transfer from incorrect owner\");\n    require(to != address(0), \"PawnNFTs: transfer to the zero address\");\n\n    // update token's owner\n    PawnNFT memory pawnNft = allPawnNFTs[tokenId];\n    // update the token's previous owner\n    pawnNft.previousOwner = pawnNft.currentOwner;\n    // update the token's current owner\n    pawnNft.currentOwner = payable(to);\n    // set and update that token in the mapping\n    allPawnNFTs[tokenId] = pawnNft;\n  }\n\n  function changeTokenPrice(uint256 _tokenId, uint256 _newPrice) public {\n    // require caller of the function is not an empty address\n    require(msg.sender != address(0));\n    // require that token should exist\n    require(_exists(_tokenId));\n    // get the token's owner\n    address tokenOwner = ownerOf(_tokenId);\n    // check that token's owner should be equal to the caller of the function\n    require(tokenOwner == msg.sender);\n    // get that token from all pawning NFTs mapping and create a memory of it defined as (struct => PawnNFT)\n    PawnNFT memory pawnNft = allPawnNFTs[_tokenId];\n    // update token's price with new price\n    pawnNft.price = _newPrice;\n    // set and update that token in the mapping\n    allPawnNFTs[_tokenId] = pawnNft;\n  }\n\n  // switch between set for sale and set not for sale\n  function toggleForSale(uint256 _tokenId) public {\n    // require caller of the function is not an empty address\n    require(msg.sender != address(0));\n    // require that token should exist\n    require(_exists(_tokenId));\n    // get the token's owner\n    address tokenOwner = ownerOf(_tokenId);\n    // check that token's owner should be equal to the caller of the function\n    require(tokenOwner == msg.sender);\n    // get that token from all pawning NFTs mapping and create a memory of it defined as (struct => PawnNFT)\n    PawnNFT memory pawnNft = allPawnNFTs[_tokenId];\n    // if token's forSale is false make it true and vice versa\n    if(pawnNft.forSale) {\n      pawnNft.forSale = false;\n    } else {\n      pawnNft.forSale = true;\n    }\n    // set and update that token in the mapping\n    allPawnNFTs[_tokenId] = pawnNft;\n  }\n}",
  "sourcePath": "/home/vn/MyProjects/OpenchainDex/OpenchainTestVersion/server/contracts/PawnNFTs.sol",
  "compiler": {
    "name": "solc",
    "version": "0.8.4+commit.c7e474f2.Emscripten.clang"
  },
  "schemaVersion": "3.4.4",
  "updatedAt": "2022-03-16T01:49:03.529Z",
  "networkType": "ethereum",
  "devdoc": {
    "kind": "dev",
    "methods": {
      "approve(address,uint256)": {
        "details": "See {IERC721-approve}."
      },
      "balanceOf(address)": {
        "details": "See {IERC721-balanceOf}."
      },
      "getApproved(uint256)": {
        "details": "See {IERC721-getApproved}."
      },
      "isApprovedForAll(address,address)": {
        "details": "See {IERC721-isApprovedForAll}."
      },
      "name()": {
        "details": "See {IERC721Metadata-name}."
      },
      "ownerOf(uint256)": {
        "details": "See {IERC721-ownerOf}."
      },
      "safeTransferFrom(address,address,uint256)": {
        "details": "See {IERC721-safeTransferFrom}."
      },
      "safeTransferFrom(address,address,uint256,bytes)": {
        "details": "See {IERC721-safeTransferFrom}."
      },
      "setApprovalForAll(address,bool)": {
        "details": "See {IERC721-setApprovalForAll}."
      },
      "supportsInterface(bytes4)": {
        "details": "See {IERC165-supportsInterface}."
      },
      "symbol()": {
        "details": "See {IERC721Metadata-symbol}."
      },
      "tokenURI(uint256)": {
        "details": "Base URI for computing {tokenURI}. If set, the resulting URI for each token will be the concatenation of the `baseURI` and the `tokenId`. Empty by default, can be overriden in child contracts."
      },
      "transferFrom(address,address,uint256)": {
        "details": "See {IERC721-transferFrom}."
      }
    },
    "version": 1
  },
  "userdoc": {
    "kind": "user",
    "methods": {},
    "version": 1
  }
}