{
  "contractName": "PawnExchange",
  "abi": [
    {
      "inputs": [],
      "stateMutability": "nonpayable",
      "type": "constructor"
    },
    {
      "anonymous": false,
      "inputs": [
        {
          "indexed": false,
          "internalType": "uint256",
          "name": "effectiveOcats",
          "type": "uint256"
        },
        {
          "indexed": false,
          "internalType": "uint256",
          "name": "swapBackFee",
          "type": "uint256"
        }
      ],
      "name": "SwappedFromOcat",
      "type": "event"
    },
    {
      "anonymous": false,
      "inputs": [
        {
          "indexed": false,
          "internalType": "uint256",
          "name": "effectiveOcats",
          "type": "uint256"
        },
        {
          "indexed": false,
          "internalType": "uint256",
          "name": "swapfee",
          "type": "uint256"
        }
      ],
      "name": "SwappedToOcat",
      "type": "event"
    },
    {
      "inputs": [
        {
          "internalType": "address",
          "name": "_admin",
          "type": "address"
        }
      ],
      "name": "addAdmin",
      "outputs": [],
      "stateMutability": "nonpayable",
      "type": "function"
    },
    {
      "inputs": [
        {
          "internalType": "uint256",
          "name": "price",
          "type": "uint256"
        }
      ],
      "name": "convertToOcat",
      "outputs": [
        {
          "internalType": "uint256",
          "name": "_ocatPrice",
          "type": "uint256"
        }
      ],
      "stateMutability": "nonpayable",
      "type": "function"
    },
    {
      "inputs": [
        {
          "internalType": "address",
          "name": "_address",
          "type": "address"
        }
      ],
      "name": "isAdmin",
      "outputs": [
        {
          "internalType": "bool",
          "name": "yes",
          "type": "bool"
        }
      ],
      "stateMutability": "view",
      "type": "function"
    },
    {
      "inputs": [],
      "name": "ocatPrice",
      "outputs": [
        {
          "internalType": "uint256",
          "name": "",
          "type": "uint256"
        }
      ],
      "stateMutability": "view",
      "type": "function"
    },
    {
      "inputs": [
        {
          "internalType": "enum CommonContracts",
          "name": "contractIndex",
          "type": "uint8"
        },
        {
          "internalType": "address payable",
          "name": "_address",
          "type": "address"
        }
      ],
      "name": "setAddress",
      "outputs": [],
      "stateMutability": "nonpayable",
      "type": "function"
    },
    {
      "inputs": [
        {
          "internalType": "uint256",
          "name": "price",
          "type": "uint256"
        }
      ],
      "name": "setOcatPrice",
      "outputs": [],
      "stateMutability": "nonpayable",
      "type": "function"
    },
    {
      "inputs": [
        {
          "internalType": "address payable",
          "name": "",
          "type": "address"
        },
        {
          "internalType": "address payable",
          "name": "",
          "type": "address"
        },
        {
          "internalType": "uint256",
          "name": "",
          "type": "uint256"
        },
        {
          "internalType": "bytes",
          "name": "",
          "type": "bytes"
        }
      ],
      "name": "onERC721Received",
      "outputs": [
        {
          "internalType": "bytes4",
          "name": "",
          "type": "bytes4"
        }
      ],
      "stateMutability": "pure",
      "type": "function"
    },
    {
      "inputs": [
        {
          "internalType": "uint256",
          "name": "nftID",
          "type": "uint256"
        }
      ],
      "name": "exchangeToOcat",
      "outputs": [
        {
          "internalType": "uint256",
          "name": "effectiveOcats",
          "type": "uint256"
        },
        {
          "internalType": "uint256",
          "name": "txFee",
          "type": "uint256"
        }
      ],
      "stateMutability": "nonpayable",
      "type": "function"
    },
    {
      "inputs": [
        {
          "internalType": "uint256",
          "name": "nftID",
          "type": "uint256"
        }
      ],
      "name": "exchangeFromOcat",
      "outputs": [
        {
          "internalType": "uint256",
          "name": "effectiveOcats",
          "type": "uint256"
        },
        {
          "internalType": "uint256",
          "name": "swapBackFee",
          "type": "uint256"
        }
      ],
      "stateMutability": "nonpayable",
      "type": "function"
    }
  ],
  "bytecode": "0x60806040523480156200001157600080fd5b50336001806101000a81548173ffffffffffffffffffffffffffffffffffffffff021916908373ffffffffffffffffffffffffffffffffffffffff1602179055506200006333620000b260201b60201c565b6103e8600281905550336001806101000a81548173ffffffffffffffffffffffffffffffffffffffff021916908373ffffffffffffffffffffffffffffffffffffffff160217905550620004bd565b600073ffffffffffffffffffffffffffffffffffffffff1660018054906101000a900473ffffffffffffffffffffffffffffffffffffffff1673ffffffffffffffffffffffffffffffffffffffff16141562000145576040517f08c379a00000000000000000000000000000000000000000000000000000000081526004016200013c9062000373565b60405180910390fd5b60018054906101000a900473ffffffffffffffffffffffffffffffffffffffff1673ffffffffffffffffffffffffffffffffffffffff163373ffffffffffffffffffffffffffffffffffffffff1614620001d6576040517f08c379a0000000000000000000000000000000000000000000000000000000008152600401620001cd9062000351565b60405180910390fd5b80600073ffffffffffffffffffffffffffffffffffffffff168173ffffffffffffffffffffffffffffffffffffffff1614156200024a576040517f08c379a0000000000000000000000000000000000000000000000000000000008152600401620002419062000395565b60405180910390fd5b60016000808473ffffffffffffffffffffffffffffffffffffffff1673ffffffffffffffffffffffffffffffffffffffff16815260200190815260200160002060006101000a81548160ff02191690831515021790555060018060009054906101000a900460ff16620002be9190620003c8565b600160006101000a81548160ff021916908360ff1602179055505050565b6000620002eb601e83620003b7565b9150620002f88262000442565b602082019050919050565b600062000312601783620003b7565b91506200031f826200046b565b602082019050919050565b600062000339601983620003b7565b9150620003468262000494565b602082019050919050565b600060208201905081810360008301526200036c81620002dc565b9050919050565b600060208201905081810360008301526200038e8162000303565b9050919050565b60006020820190508181036000830152620003b0816200032a565b9050919050565b600082825260208201905092915050565b6000620003d58262000406565b9150620003e28362000406565b92508260ff03821115620003fb57620003fa62000413565b5b828201905092915050565b600060ff82169050919050565b7f4e487b7100000000000000000000000000000000000000000000000000000000600052601160045260246000fd5b7f466f722063616c6c65722065787065637465642062652063726561746f720000600082015250565b7f496e76616c69642063726561746f722061646472657373000000000000000000600082015250565b7f4578706563746564206e6f6e2d7a65726f206164647265737300000000000000600082015250565b61359080620004cd6000396000f3fe608060405234801561001057600080fd5b50600436106100935760003560e01c8063378321eb11610066578063378321eb146101455780637048027514610176578063a7d9cfbc14610192578063bb3f6c6a146101b0578063dbcd9580146101cc57610093565b80630589c4e51461009857806313ad82da146100b4578063150b7a02146100e557806324d7806c14610115575b600080fd5b6100b260048036038101906100ad919061247f565b6101fc565b005b6100ce60048036038101906100c991906124bb565b6106b4565b6040516100dc929190612c27565b60405180910390f35b6100ff60048036038101906100fa91906123d6565b6113e5565b60405161010c91906129d6565b60405180910390f35b61012f600480360381019061012a91906123ad565b6113fa565b60405161013c91906129bb565b60405180910390f35b61015f600480360381019061015a91906124bb565b61144f565b60405161016d929190612c27565b60405180910390f35b610190600480360381019061018b91906123ad565b611d82565b005b61019a611fa1565b6040516101a79190612c0c565b60405180910390f35b6101ca60048036038101906101c591906124bb565b611fa7565b005b6101e660048036038101906101e191906124bb565b611fb1565b6040516101f39190612c0c565b60405180910390f35b600073ffffffffffffffffffffffffffffffffffffffff1660018054906101000a900473ffffffffffffffffffffffffffffffffffffffff1673ffffffffffffffffffffffffffffffffffffffff16141561028c576040517f08c379a000000000000000000000000000000000000000000000000000000000815260040161028390612acc565b60405180910390fd5b60018054906101000a900473ffffffffffffffffffffffffffffffffffffffff1673ffffffffffffffffffffffffffffffffffffffff163373ffffffffffffffffffffffffffffffffffffffff161461031a576040517f08c379a000000000000000000000000000000000000000000000000000000000815260040161031190612aac565b60405180910390fd5b80600073ffffffffffffffffffffffffffffffffffffffff168173ffffffffffffffffffffffffffffffffffffffff16141561038b576040517f08c379a000000000000000000000000000000000000000000000000000000000815260040161038290612b4c565b60405180910390fd5b600073ffffffffffffffffffffffffffffffffffffffff163373ffffffffffffffffffffffffffffffffffffffff1614156103fb576040517f08c379a00000000000000000000000000000000000000000000000000000000081526004016103f290612acc565b60405180910390fd5b6000803373ffffffffffffffffffffffffffffffffffffffff1673ffffffffffffffffffffffffffffffffffffffff16815260200190815260200160002060009054906101000a900460ff16610486576040517f08c379a000000000000000000000000000000000000000000000000000000000815260040161047d90612b6c565b60405180910390fd5b600060098111156104c0577f4e487b7100000000000000000000000000000000000000000000000000000000600052602160045260246000fd5b60098111156104f8577f4e487b7100000000000000000000000000000000000000000000000000000000600052602160045260246000fd5b836009811115610531577f4e487b7100000000000000000000000000000000000000000000000000000000600052602160045260246000fd5b101580156105ae5750600980811115610573577f4e487b7100000000000000000000000000000000000000000000000000000000600052602160045260246000fd5b8360098111156105ac577f4e487b7100000000000000000000000000000000000000000000000000000000600052602160045260246000fd5b105b6105ed576040517f08c379a00000000000000000000000000000000000000000000000000000000081526004016105e490612a0c565b60405180910390fd5b816003600085600981111561062b577f4e487b7100000000000000000000000000000000000000000000000000000000600052602160045260246000fd5b6009811115610663577f4e487b7100000000000000000000000000000000000000000000000000000000600052602160045260246000fd5b815260200190815260200160002060006101000a81548173ffffffffffffffffffffffffffffffffffffffff021916908373ffffffffffffffffffffffffffffffffffffffff160217905550505050565b60008082600081116106fb576040517f08c379a00000000000000000000000000000000000000000000000000000000081526004016106f290612b2c565b60405180910390fd5b3073ffffffffffffffffffffffffffffffffffffffff163373ffffffffffffffffffffffffffffffffffffffff16141561076a576040517f08c379a000000000000000000000000000000000000000000000000000000000815260040161076190612a4c565b60405180910390fd5b600073ffffffffffffffffffffffffffffffffffffffff163373ffffffffffffffffffffffffffffffffffffffff1614156107da576040517f08c379a00000000000000000000000000000000000000000000000000000000081526004016107d190612bcc565b60405180910390fd5b6003600060016009811115610818577f4e487b7100000000000000000000000000000000000000000000000000000000600052602160045260246000fd5b6009811115610850577f4e487b7100000000000000000000000000000000000000000000000000000000600052602160045260246000fd5b815260200190815260200160002060009054906101000a900473ffffffffffffffffffffffffffffffffffffffff16600073ffffffffffffffffffffffffffffffffffffffff168173ffffffffffffffffffffffffffffffffffffffff1614156108ef576040517f08c379a00000000000000000000000000000000000000000000000000000000081526004016108e690612b4c565b60405180910390fd5b600360006003600981111561092d577f4e487b7100000000000000000000000000000000000000000000000000000000600052602160045260246000fd5b6009811115610965577f4e487b7100000000000000000000000000000000000000000000000000000000600052602160045260246000fd5b815260200190815260200160002060009054906101000a900473ffffffffffffffffffffffffffffffffffffffff16600073ffffffffffffffffffffffffffffffffffffffff168173ffffffffffffffffffffffffffffffffffffffff161415610a04576040517f08c379a00000000000000000000000000000000000000000000000000000000081526004016109fb90612b4c565b60405180910390fd5b6003600060066009811115610a42577f4e487b7100000000000000000000000000000000000000000000000000000000600052602160045260246000fd5b6009811115610a7a577f4e487b7100000000000000000000000000000000000000000000000000000000600052602160045260246000fd5b815260200190815260200160002060009054906101000a900473ffffffffffffffffffffffffffffffffffffffff16600073ffffffffffffffffffffffffffffffffffffffff168173ffffffffffffffffffffffffffffffffffffffff161415610b19576040517f08c379a0000000000000000000000000000000000000000000000000000000008152600401610b1090612b4c565b60405180910390fd5b6000806000806003600060036009811115610b5d577f4e487b7100000000000000000000000000000000000000000000000000000000600052602160045260246000fd5b6009811115610b95577f4e487b7100000000000000000000000000000000000000000000000000000000600052602160045260246000fd5b815260200190815260200160002060009054906101000a900473ffffffffffffffffffffffffffffffffffffffff1673ffffffffffffffffffffffffffffffffffffffff1663717947b18c6040518263ffffffff1660e01b8152600401610bfc9190612c0c565b60006040518083038186803b158015610c1457600080fd5b505afa158015610c28573d6000803e3d6000fd5b505050506040513d6000823e3d601f19601f82011682018060405250810190610c51919061250d565b50509750975097505096505050503373ffffffffffffffffffffffffffffffffffffffff168473ffffffffffffffffffffffffffffffffffffffff1614610ccd576040517f08c379a0000000000000000000000000000000000000000000000000000000008152600401610cc490612bac565b60405180910390fd5b600060025411610d12576040517f08c379a0000000000000000000000000000000000000000000000000000000008152600401610d0990612aec565b60405180910390fd5b6000811415610e2b576003600060016009811115610d59577f4e487b7100000000000000000000000000000000000000000000000000000000600052602160045260246000fd5b6009811115610d91577f4e487b7100000000000000000000000000000000000000000000000000000000600052602160045260246000fd5b815260200190815260200160002060009054906101000a900473ffffffffffffffffffffffffffffffffffffffff1673ffffffffffffffffffffffffffffffffffffffff1663a0712d68846040518263ffffffff1660e01b8152600401610df89190612c0c565b600060405180830381600087803b158015610e1257600080fd5b505af1158015610e26573d6000803e3d6000fd5b505050505b6003600060036009811115610e69577f4e487b7100000000000000000000000000000000000000000000000000000000600052602160045260246000fd5b6009811115610ea1577f4e487b7100000000000000000000000000000000000000000000000000000000600052602160045260246000fd5b815260200190815260200160002060009054906101000a900473ffffffffffffffffffffffffffffffffffffffff1673ffffffffffffffffffffffffffffffffffffffff166342842e0e33308e6040518463ffffffff1660e01b8152600401610f0c9392919061295b565b600060405180830381600087803b158015610f2657600080fd5b505af1158015610f3a573d6000803e3d6000fd5b505050506000806003600060066009811115610f7f577f4e487b7100000000000000000000000000000000000000000000000000000000600052602160045260246000fd5b6009811115610fb7577f4e487b7100000000000000000000000000000000000000000000000000000000600052602160045260246000fd5b815260200190815260200160002060009054906101000a900473ffffffffffffffffffffffffffffffffffffffff1673ffffffffffffffffffffffffffffffffffffffff166361d9285a60016040518263ffffffff1660e01b815260040161101f91906129f1565b604080518083038186803b15801561103657600080fd5b505afa15801561104a573d6000803e3d6000fd5b505050506040513d601f19601f8201168201806040525081019061106e9190612618565b9150915060009a5060008311156110a55780600a61108c9190612d88565b82866110989190612ef1565b6110a29190612d04565b9a505b8a8410156110e8576040517f08c379a00000000000000000000000000000000000000000000000000000000081526004016110df90612a2c565b60405180910390fd5b8a846110f49190612f4b565b9b5060006003600060016009811115611136577f4e487b7100000000000000000000000000000000000000000000000000000000600052602160045260246000fd5b600981111561116e577f4e487b7100000000000000000000000000000000000000000000000000000000600052602160045260246000fd5b815260200190815260200160002060009054906101000a900473ffffffffffffffffffffffffffffffffffffffff1673ffffffffffffffffffffffffffffffffffffffff166370a08231306040518263ffffffff1660e01b81526004016111d59190612940565b60206040518083038186803b1580156111ed57600080fd5b505afa158015611201573d6000803e3d6000fd5b505050506040513d601f19601f8201168201806040525081019061122591906124e4565b90508481101561126a576040517f08c379a000000000000000000000000000000000000000000000000000000000815260040161126190612a8c565b60405180910390fd5b60036000600160098111156112a8577f4e487b7100000000000000000000000000000000000000000000000000000000600052602160045260246000fd5b60098111156112e0577f4e487b7100000000000000000000000000000000000000000000000000000000600052602160045260246000fd5b815260200190815260200160002060009054906101000a900473ffffffffffffffffffffffffffffffffffffffff1673ffffffffffffffffffffffffffffffffffffffff1663a9059cbb338f6040518363ffffffff1660e01b8152600401611349929190612992565b602060405180830381600087803b15801561136357600080fd5b505af1158015611377573d6000803e3d6000fd5b505050506040513d601f19601f8201168201806040525081019061139b9190612456565b507fdf26ba1712ef61c6db90a8ee9b6a5c4b7001717811fe1086a93d3bcad12552918d8d6040516113cd929190612c27565b60405180910390a15050505050505050505050915091565b600063150b7a0260e01b905095945050505050565b60008060008373ffffffffffffffffffffffffffffffffffffffff1673ffffffffffffffffffffffffffffffffffffffff16815260200190815260200160002060009054906101000a900460ff169050919050565b600080600073ffffffffffffffffffffffffffffffffffffffff163373ffffffffffffffffffffffffffffffffffffffff1614156114c2576040517f08c379a00000000000000000000000000000000000000000000000000000000081526004016114b990612b0c565b60405180910390fd5b6003600060016009811115611500577f4e487b7100000000000000000000000000000000000000000000000000000000600052602160045260246000fd5b6009811115611538577f4e487b7100000000000000000000000000000000000000000000000000000000600052602160045260246000fd5b815260200190815260200160002060009054906101000a900473ffffffffffffffffffffffffffffffffffffffff16600073ffffffffffffffffffffffffffffffffffffffff168173ffffffffffffffffffffffffffffffffffffffff1614156115d7576040517f08c379a00000000000000000000000000000000000000000000000000000000081526004016115ce90612b4c565b60405180910390fd5b6003600060036009811115611615577f4e487b7100000000000000000000000000000000000000000000000000000000600052602160045260246000fd5b600981111561164d577f4e487b7100000000000000000000000000000000000000000000000000000000600052602160045260246000fd5b815260200190815260200160002060009054906101000a900473ffffffffffffffffffffffffffffffffffffffff16600073ffffffffffffffffffffffffffffffffffffffff168173ffffffffffffffffffffffffffffffffffffffff1614156116ec576040517f08c379a00000000000000000000000000000000000000000000000000000000081526004016116e390612b4c565b60405180910390fd5b6000806000600360006003600981111561172f577f4e487b7100000000000000000000000000000000000000000000000000000000600052602160045260246000fd5b6009811115611767577f4e487b7100000000000000000000000000000000000000000000000000000000600052602160045260246000fd5b815260200190815260200160002060009054906101000a900473ffffffffffffffffffffffffffffffffffffffff1673ffffffffffffffffffffffffffffffffffffffff1663717947b1896040518263ffffffff1660e01b81526004016117ce9190612c0c565b60006040518083038186803b1580156117e657600080fd5b505afa1580156117fa573d6000803e3d6000fd5b505050506040513d6000823e3d601f19601f82011682018060405250810190611823919061250d565b505050965096509650505050508273ffffffffffffffffffffffffffffffffffffffff163373ffffffffffffffffffffffffffffffffffffffff161461189e576040517f08c379a000000000000000000000000000000000000000000000000000000000815260040161189590612a6c565b60405180910390fd5b600060036000600160098111156118de577f4e487b7100000000000000000000000000000000000000000000000000000000600052602160045260246000fd5b6009811115611916577f4e487b7100000000000000000000000000000000000000000000000000000000600052602160045260246000fd5b815260200190815260200160002060009054906101000a900473ffffffffffffffffffffffffffffffffffffffff1673ffffffffffffffffffffffffffffffffffffffff166370a08231336040518263ffffffff1660e01b815260040161197d9190612940565b60206040518083038186803b15801561199557600080fd5b505afa1580156119a9573d6000803e3d6000fd5b505050506040513d601f19601f820116820180604052508101906119cd91906124e4565b905081811015611a12576040517f08c379a0000000000000000000000000000000000000000000000000000000008152600401611a0990612b8c565b60405180910390fd5b6000806003600060066009811115611a53577f4e487b7100000000000000000000000000000000000000000000000000000000600052602160045260246000fd5b6009811115611a8b577f4e487b7100000000000000000000000000000000000000000000000000000000600052602160045260246000fd5b815260200190815260200160002060009054906101000a900473ffffffffffffffffffffffffffffffffffffffff1673ffffffffffffffffffffffffffffffffffffffff166361d9285a60026040518263ffffffff1660e01b8152600401611af391906129f1565b604080518083038186803b158015611b0a57600080fd5b505afa158015611b1e573d6000803e3d6000fd5b505050506040513d601f19601f82011682018060405250810190611b429190612618565b9150915080600a611b539190612d88565b8286611b5f9190612ef1565b611b699190612d04565b98508884611b779190612f4b565b9950611c296003600060016009811115611bba577f4e487b7100000000000000000000000000000000000000000000000000000000600052602160045260246000fd5b6009811115611bf2577f4e487b7100000000000000000000000000000000000000000000000000000000600052602160045260246000fd5b815260200190815260200160002060009054906101000a900473ffffffffffffffffffffffffffffffffffffffff1633308761211a565b6003600060036009811115611c67577f4e487b7100000000000000000000000000000000000000000000000000000000600052602160045260246000fd5b6009811115611c9f577f4e487b7100000000000000000000000000000000000000000000000000000000600052602160045260246000fd5b815260200190815260200160002060009054906101000a900473ffffffffffffffffffffffffffffffffffffffff1673ffffffffffffffffffffffffffffffffffffffff166342842e0e30338e6040518463ffffffff1660e01b8152600401611d0a9392919061295b565b600060405180830381600087803b158015611d2457600080fd5b505af1158015611d38573d6000803e3d6000fd5b505050507f72aea6ac60f3802c7e2107c2c473d38b9cfada6c47c06b2db95a6ebc5da04b718a8a604051611d6d929190612c27565b60405180910390a15050505050505050915091565b600073ffffffffffffffffffffffffffffffffffffffff1660018054906101000a900473ffffffffffffffffffffffffffffffffffffffff1673ffffffffffffffffffffffffffffffffffffffff161415611e12576040517f08c379a0000000000000000000000000000000000000000000000000000000008152600401611e0990612acc565b60405180910390fd5b60018054906101000a900473ffffffffffffffffffffffffffffffffffffffff1673ffffffffffffffffffffffffffffffffffffffff163373ffffffffffffffffffffffffffffffffffffffff1614611ea0576040517f08c379a0000000000000000000000000000000000000000000000000000000008152600401611e9790612aac565b60405180910390fd5b80600073ffffffffffffffffffffffffffffffffffffffff168173ffffffffffffffffffffffffffffffffffffffff161415611f11576040517f08c379a0000000000000000000000000000000000000000000000000000000008152600401611f0890612b4c565b60405180910390fd5b60016000808473ffffffffffffffffffffffffffffffffffffffff1673ffffffffffffffffffffffffffffffffffffffff16815260200190815260200160002060006101000a81548160ff02191690831515021790555060018060009054906101000a900460ff16611f839190612ccd565b600160006101000a81548160ff021916908360ff1602179055505050565b60025481565b8060028190555050565b60006003600a611fc19190612dd3565b6002546003600060016009811115612002577f4e487b7100000000000000000000000000000000000000000000000000000000600052602160045260246000fd5b600981111561203a577f4e487b7100000000000000000000000000000000000000000000000000000000600052602160045260246000fd5b815260200190815260200160002060009054906101000a900473ffffffffffffffffffffffffffffffffffffffff1673ffffffffffffffffffffffffffffffffffffffff1663313ce5676040518163ffffffff1660e01b8152600401602060405180830381600087803b1580156120b057600080fd5b505af11580156120c4573d6000803e3d6000fd5b505050506040513d601f19601f820116820180604052508101906120e89190612654565b600a6120f49190612dd3565b846120ff9190612ef1565b6121099190612ef1565b6121139190612d04565b9050919050565b6000808573ffffffffffffffffffffffffffffffffffffffff166323b872dd86868660405160240161214e9392919061295b565b6040516020818303038152906040529060e01b6020820180517bffffffffffffffffffffffffffffffffffffffffffffffffffffffff838183161783525050505060405161219c9190612929565b6000604051808303816000865af19150503d80600081146121d9576040519150601f19603f3d011682016040523d82523d6000602084013e6121de565b606091505b509150915081801561220c575060008151148061220b57508080602001905181019061220a9190612456565b5b5b61224b576040517f08c379a000000000000000000000000000000000000000000000000000000000815260040161224290612bec565b60405180910390fd5b505050505050565b600061226661226184612c75565b612c50565b90508281526020810184848401111561227e57600080fd5b612289848285613037565b509392505050565b6000813590506122a0816134d7565b92915050565b6000813590506122b5816134ee565b92915050565b6000815190506122ca816134ee565b92915050565b6000815190506122df81613505565b92915050565b60008083601f8401126122f757600080fd5b8235905067ffffffffffffffff81111561231057600080fd5b60208301915083600182028301111561232857600080fd5b9250929050565b60008135905061233e8161351c565b92915050565b600082601f83011261235557600080fd5b8151612365848260208601612253565b91505092915050565b60008135905061237d8161352c565b92915050565b6000815190506123928161352c565b92915050565b6000815190506123a781613543565b92915050565b6000602082840312156123bf57600080fd5b60006123cd84828501612291565b91505092915050565b6000806000806000608086880312156123ee57600080fd5b60006123fc888289016122a6565b955050602061240d888289016122a6565b945050604061241e8882890161236e565b935050606086013567ffffffffffffffff81111561243b57600080fd5b612447888289016122e5565b92509250509295509295909350565b60006020828403121561246857600080fd5b6000612476848285016122d0565b91505092915050565b6000806040838503121561249257600080fd5b60006124a08582860161232f565b92505060206124b1858286016122a6565b9150509250929050565b6000602082840312156124cd57600080fd5b60006124db8482850161236e565b91505092915050565b6000602082840312156124f657600080fd5b600061250484828501612383565b91505092915050565b6000806000806000806000806000806101408b8d03121561252d57600080fd5b600061253b8d828e01612383565b9a505060208b015167ffffffffffffffff81111561255857600080fd5b6125648d828e01612344565b99505060408b015167ffffffffffffffff81111561258157600080fd5b61258d8d828e01612344565b985050606061259e8d828e016122bb565b97505060806125af8d828e016122bb565b96505060a06125c08d828e01612383565b95505060c06125d18d828e01612383565b94505060e06125e28d828e01612383565b9350506101006125f48d828e016122d0565b9250506101206126068d828e01612383565b9150509295989b9194979a5092959850565b6000806040838503121561262b57600080fd5b600061263985828601612383565b925050602061264a85828601612383565b9150509250929050565b60006020828403121561266657600080fd5b600061267484828501612398565b91505092915050565b61268681612f7f565b82525050565b61269581612fa3565b82525050565b6126a481612faf565b82525050565b60006126b582612ca6565b6126bf8185612cb1565b93506126cf818560208601613037565b80840191505092915050565b6126e481613025565b82525050565b60006126f7601683612cbc565b915061270282613175565b602082019050919050565b600061271a602f83612cbc565b91506127258261319e565b604082019050919050565b600061273d602e83612cbc565b9150612748826131ed565b604082019050919050565b6000612760600d83612cbc565b915061276b8261323c565b602082019050919050565b6000612783602983612cbc565b915061278e82613265565b604082019050919050565b60006127a6601e83612cbc565b91506127b1826132b4565b602082019050919050565b60006127c9601783612cbc565b91506127d4826132dd565b602082019050919050565b60006127ec601783612cbc565b91506127f782613306565b602082019050919050565b600061280f602383612cbc565b915061281a8261332f565b604082019050919050565b6000612832600e83612cbc565b915061283d8261337e565b602082019050919050565b6000612855601983612cbc565b9150612860826133a7565b602082019050919050565b6000612878600d83612cbc565b9150612883826133d0565b602082019050919050565b600061289b601983612cbc565b91506128a6826133f9565b602082019050919050565b60006128be600983612cbc565b91506128c982613422565b602082019050919050565b60006128e1601a83612cbc565b91506128ec8261344b565b602082019050919050565b6000612904602483612cbc565b915061290f82613474565b604082019050919050565b6129238161300e565b82525050565b600061293582846126aa565b915081905092915050565b6000602082019050612955600083018461267d565b92915050565b6000606082019050612970600083018661267d565b61297d602083018561267d565b61298a604083018461291a565b949350505050565b60006040820190506129a7600083018561267d565b6129b4602083018461291a565b9392505050565b60006020820190506129d0600083018461268c565b92915050565b60006020820190506129eb600083018461269b565b92915050565b6000602082019050612a0660008301846126db565b92915050565b60006020820190508181036000830152612a25816126ea565b9050919050565b60006020820190508181036000830152612a458161270d565b9050919050565b60006020820190508181036000830152612a6581612730565b9050919050565b60006020820190508181036000830152612a8581612753565b9050919050565b60006020820190508181036000830152612aa581612776565b9050919050565b60006020820190508181036000830152612ac581612799565b9050919050565b60006020820190508181036000830152612ae5816127bc565b9050919050565b60006020820190508181036000830152612b05816127df565b9050919050565b60006020820190508181036000830152612b2581612802565b9050919050565b60006020820190508181036000830152612b4581612825565b9050919050565b60006020820190508181036000830152612b6581612848565b9050919050565b60006020820190508181036000830152612b858161286b565b9050919050565b60006020820190508181036000830152612ba58161288e565b9050919050565b60006020820190508181036000830152612bc5816128b1565b9050919050565b60006020820190508181036000830152612be5816128d4565b9050919050565b60006020820190508181036000830152612c05816128f7565b9050919050565b6000602082019050612c21600083018461291a565b92915050565b6000604082019050612c3c600083018561291a565b612c49602083018461291a565b9392505050565b6000612c5a612c6b565b9050612c66828261306a565b919050565b6000604051905090565b600067ffffffffffffffff821115612c9057612c8f613128565b5b612c9982613157565b9050602081019050919050565b600081519050919050565b600081905092915050565b600082825260208201905092915050565b6000612cd882613018565b9150612ce383613018565b92508260ff03821115612cf957612cf861309b565b5b828201905092915050565b6000612d0f8261300e565b9150612d1a8361300e565b925082612d2a57612d296130ca565b5b828204905092915050565b6000808291508390505b6001851115612d7f57808604811115612d5b57612d5a61309b565b5b6001851615612d6a5780820291505b8081029050612d7885613168565b9450612d3f565b94509492505050565b6000612d938261300e565b9150612d9e8361300e565b9250612dcb7fffffffffffffffffffffffffffffffffffffffffffffffffffffffffffffffff8484612e1e565b905092915050565b6000612dde8261300e565b9150612de983613018565b9250612e167fffffffffffffffffffffffffffffffffffffffffffffffffffffffffffffffff8484612e1e565b905092915050565b600082612e2e5760019050612eea565b81612e3c5760009050612eea565b8160018114612e525760028114612e5c57612e8b565b6001915050612eea565b60ff841115612e6e57612e6d61309b565b5b8360020a915084821115612e8557612e8461309b565b5b50612eea565b5060208310610133831016604e8410600b8410161715612ec05782820a905083811115612ebb57612eba61309b565b5b612eea565b612ecd8484846001612d35565b92509050818404811115612ee457612ee361309b565b5b81810290505b9392505050565b6000612efc8261300e565b9150612f078361300e565b9250817fffffffffffffffffffffffffffffffffffffffffffffffffffffffffffffffff0483118215151615612f4057612f3f61309b565b5b828202905092915050565b6000612f568261300e565b9150612f618361300e565b925082821015612f7457612f7361309b565b5b828203905092915050565b6000612f8a82612fee565b9050919050565b6000612f9c82612fee565b9050919050565b60008115159050919050565b60007fffffffff0000000000000000000000000000000000000000000000000000000082169050919050565b6000819050612fe9826134c3565b919050565b600073ffffffffffffffffffffffffffffffffffffffff82169050919050565b6000819050919050565b600060ff82169050919050565b600061303082612fdb565b9050919050565b60005b8381101561305557808201518184015260208101905061303a565b83811115613064576000848401525b50505050565b61307382613157565b810181811067ffffffffffffffff8211171561309257613091613128565b5b80604052505050565b7f4e487b7100000000000000000000000000000000000000000000000000000000600052601160045260246000fd5b7f4e487b7100000000000000000000000000000000000000000000000000000000600052601260045260246000fd5b7f4e487b7100000000000000000000000000000000000000000000000000000000600052602160045260246000fd5b7f4e487b7100000000000000000000000000000000000000000000000000000000600052604160045260246000fd5b6000601f19601f8301169050919050565b60008160011c9050919050565b7f496e76616c696420636f6e747261637420696e64657800000000000000000000600082015250565b7f496e73756666696369656e7420504e465420707269636520666f72207468652060008201527f7472616e73616374696f6e206665650000000000000000000000000000000000602082015250565b7f4572726f723a2043616c6c657220636f756c646e27742062652073616d65207460008201527f6f20746869732061646472657373000000000000000000000000000000000000602082015250565b7f496e76616c6964206f776e657200000000000000000000000000000000000000600082015250565b7f496e73756666696369656e74204f4341542062616c616e6365206f662074686560008201527f20636f6e74726163740000000000000000000000000000000000000000000000602082015250565b7f466f722063616c6c65722065787065637465642062652063726561746f720000600082015250565b7f496e76616c69642063726561746f722061646472657373000000000000000000600082015250565b7f496e76616c696420504e46542f4f4341542071756f7465000000000000000000600082015250565b7f4578706563746564206e6f6e2d7a65726f2061646472657373206f662063616c60008201527f6c65720000000000000000000000000000000000000000000000000000000000602082015250565b7f496e76616c6964204e4654204944000000000000000000000000000000000000600082015250565b7f4578706563746564206e6f6e2d7a65726f206164647265737300000000000000600082015250565b7f4d7573742062652061646d696e00000000000000000000000000000000000000600082015250565b7f496e73756666696369656e74204f4341542062616c616e636500000000000000600082015250565b7f4e6f74206f776e65720000000000000000000000000000000000000000000000600082015250565b7f2a2a2a2a2a2a2a2a2a2a2a2a496e76616c69642063616c6c6572000000000000600082015250565b7f5472616e7366657248656c7065723a205452414e534645525f46524f4d5f464160008201527f494c454400000000000000000000000000000000000000000000000000000000602082015250565b600481106134d4576134d36130f9565b5b50565b6134e081612f7f565b81146134eb57600080fd5b50565b6134f781612f91565b811461350257600080fd5b50565b61350e81612fa3565b811461351957600080fd5b50565b600a811061352957600080fd5b50565b6135358161300e565b811461354057600080fd5b50565b61354c81613018565b811461355757600080fd5b5056fea2646970667358221220b0a0dddb918e0f66223f999b0c5b79937c2c51891e26006f29eff8f1bc5baeed64736f6c63430008040033",
  "immutableReferences": {},
  "source": "// SPDX-License-Identifier: MIT\r\npragma solidity ^0.8.0;\r\n\r\nimport \"@openzeppelin/contracts/token/ERC20/IERC20.sol\"; // openzeppelin 4.5 (for solidity 0.8.x)\r\nimport \"@openzeppelin/contracts/token/ERC721/IERC721.sol\";\r\nimport \"@uniswap/lib/contracts/libraries/TransferHelper.sol\";\r\nimport \"./OcxBase.sol\";\r\nimport \"./PawnNFTs.sol\";\r\nimport \"./interface/IOcat.sol\";\r\nimport \"./interface/IOcxPriceOracle.sol\";\r\n\r\ncontract PawnExchange is OcxBase {\r\n    \r\n    // 2 of 4: for calculation of percentage, another 2: for no fraction\r\n    // For example: 0.5% = 50 / (10 ** (2 + 2)) => 50\r\n    //              0.5% of 20000 = (50 * 20000) / (10 ** 4) = 100\r\n\r\n    event SwappedToOcat (uint256 effectiveOcats, uint256 swapfee);\r\n    event SwappedFromOcat(uint256 effectiveOcats, uint256 swapBackFee);\r\n\r\n    constructor() {\r\n        creator = payable(msg.sender);\r\n    }\r\n\r\n    function onERC721Received(\r\n        address payable /*operator*/,\r\n        address payable /*from*/,\r\n        uint256 /*tokenId*/,\r\n        bytes calldata /*data*/\r\n    ) external pure returns (bytes4) {\r\n        return this.onERC721Received.selector;\r\n    }\r\n\r\n    modifier validCaller {\r\n        require(msg.sender != address(this), \"Error: Caller couldn't be same to this address\");\r\n        require(msg.sender != address(0), \"************Invalid caller\");\r\n        _;\r\n    }\r\n\r\n    modifier validNftID(uint256 nftId) {\r\n        require(nftId > 0, \"Invalid NFT ID\");\r\n        _;\r\n    }\r\n\r\n    function exchangeToOcat(uint256 nftID) public \r\n    validNftID(nftID) validCaller onlyValidAddress(contractAddress[CommonContracts.OCAT]) \r\n    onlyValidAddress(contractAddress[CommonContracts.PNFT]) onlyValidAddress(contractAddress[CommonContracts.PRICE_ORACLE])\r\n    returns (uint256 effectiveOcats, uint256 txFee) {\r\n        // Get price for the NFT\r\n        (,,, address currentOwner,,uint256 originalPrice, uint256 currentPrice, uint256 txCounter,,) = \r\n            PawnNFTs(payable(address(contractAddress[CommonContracts.PNFT]))).allPawnNFTs(nftID);\r\n        require(currentOwner == msg.sender, \"Not owner\");\r\n        require(ocatPrice > 0, \"Invalid PNFT/OCAT quote\");\r\n\r\n        if (txCounter == 0) { // If it is first swap operation, then mint OCATs\r\n            IOcat(contractAddress[CommonContracts.OCAT]).mint(originalPrice);\r\n        }\r\n        // safeTransferFrom: send NFT from caller to the address\r\n        IERC721(contractAddress[CommonContracts.PNFT]).safeTransferFrom(msg.sender, address(this), nftID);\r\n        // Pay fee in OCAT to this address\r\n        (uint256 loanFee, uint256 feeDecimals) = \r\n            IOcxPriceOracle(contractAddress[CommonContracts.PRICE_ORACLE]).getFeePercentage(FeeType.PNFT_OCAT_SWAP_FEE);\r\n        txFee = 0;\r\n        if (txCounter > 0) {\r\n            txFee = (originalPrice * loanFee) / (10 ** feeDecimals);\r\n        }\r\n        require(currentPrice >= txFee, \"Insufficient PNFT price for the transaction fee\");\r\n        effectiveOcats = currentPrice - txFee;\r\n        uint256 ocatBalanceOfContract = IERC20(contractAddress[CommonContracts.OCAT]).balanceOf(address(this));\r\n        require(ocatBalanceOfContract >= currentPrice, \"Insufficient OCAT balance of the contract\");\r\n        // Pay OCAT for the NFT except swap fee or mint fee \r\n        IERC20(contractAddress[CommonContracts.OCAT]).transfer(msg.sender, effectiveOcats);\r\n        emit SwappedToOcat(effectiveOcats, txFee);\r\n    }\r\n\r\n    function exchangeFromOcat(uint256 nftID) public \r\n    onlyValidCaller onlyValidAddress(contractAddress[CommonContracts.OCAT]) onlyValidAddress(contractAddress[CommonContracts.PNFT])\r\n    returns(uint256 effectiveOcats, uint256 swapBackFee) {\r\n        // Get price for the NFT\r\n        (,,,, address payable previousOwner, uint256 originalPrice,uint256 currentPrice,,,) = \r\n            PawnNFTs(payable(address(contractAddress[CommonContracts.PNFT]))).allPawnNFTs(nftID);\r\n        require(msg.sender == previousOwner, \"Invalid owner\");\r\n        uint256 ocatBalance = IERC20(contractAddress[CommonContracts.OCAT]).balanceOf(msg.sender);\r\n        require(ocatBalance >= currentPrice, \"Insufficient OCAT balance\");\r\n        // Get restore fee\r\n        (uint256 restoreFee, uint256 feeDecimals) = \r\n            IOcxPriceOracle(contractAddress[CommonContracts.PRICE_ORACLE]).getFeePercentage(FeeType.OCAT_PNFT_SWAP_FEE);\r\n        swapBackFee = originalPrice * restoreFee / (10 ** feeDecimals);\r\n        effectiveOcats = currentPrice - swapBackFee;\r\n        // safeTransferFrom: send NFT from caller to the address\r\n        TransferHelper.safeTransferFrom(contractAddress[CommonContracts.OCAT], msg.sender, address(this), currentPrice);\r\n        // Distribute fee among the stakeholders\r\n        // Pay OCAT for the NFT\r\n        IERC721(contractAddress[CommonContracts.PNFT]).safeTransferFrom(address(this), msg.sender, nftID);\r\n        //   Then transfer OCATs from the address to caller\r\n        // TransferHelper.safeTransferFrom(contractAddress[CommonContracts.OCAT], address(this), msg.sender, currentPrice);\r\n        emit SwappedFromOcat(effectiveOcats, swapBackFee);\r\n    } \r\n}\r\n",
  "sourcePath": "E:\\Work\\OpenchainTestVersion\\server\\contracts\\PawnExchange.sol",
  "compiler": {
    "name": "solc",
    "version": "0.8.4+commit.c7e474f2.Emscripten.clang"
  },
  "schemaVersion": "3.4.7",
  "updatedAt": "2022-05-05T07:37:26.319Z",
  "devdoc": {
    "kind": "dev",
    "methods": {},
    "version": 1
  },
  "userdoc": {
    "kind": "user",
    "methods": {},
    "version": 1
  }
}