{
  "contractName": "PawnNFTs",
  "abi": [
    {
      "inputs": [],
      "stateMutability": "nonpayable",
      "type": "constructor"
    },
    {
      "anonymous": false,
      "inputs": [
        {
          "indexed": true,
          "internalType": "address",
          "name": "owner",
          "type": "address"
        },
        {
          "indexed": true,
          "internalType": "address",
          "name": "approved",
          "type": "address"
        },
        {
          "indexed": true,
          "internalType": "uint256",
          "name": "tokenId",
          "type": "uint256"
        }
      ],
      "name": "Approval",
      "type": "event"
    },
    {
      "anonymous": false,
      "inputs": [
        {
          "indexed": true,
          "internalType": "address",
          "name": "owner",
          "type": "address"
        },
        {
          "indexed": true,
          "internalType": "address",
          "name": "operator",
          "type": "address"
        },
        {
          "indexed": false,
          "internalType": "bool",
          "name": "approved",
          "type": "bool"
        }
      ],
      "name": "ApprovalForAll",
      "type": "event"
    },
    {
      "anonymous": false,
      "inputs": [
        {
          "indexed": true,
          "internalType": "address",
          "name": "from",
          "type": "address"
        },
        {
          "indexed": true,
          "internalType": "address",
          "name": "to",
          "type": "address"
        },
        {
          "indexed": true,
          "internalType": "uint256",
          "name": "tokenId",
          "type": "uint256"
        }
      ],
      "name": "Transfer",
      "type": "event"
    },
    {
      "inputs": [
        {
          "internalType": "address",
          "name": "_admin",
          "type": "address"
        }
      ],
      "name": "addAdmin",
      "outputs": [],
      "stateMutability": "nonpayable",
      "type": "function"
    },
    {
      "inputs": [
        {
          "internalType": "uint256",
          "name": "",
          "type": "uint256"
        }
      ],
      "name": "allPawnNFTs",
      "outputs": [
        {
          "internalType": "uint256",
          "name": "tokenId",
          "type": "uint256"
        },
        {
          "internalType": "string",
          "name": "tokenName",
          "type": "string"
        },
        {
          "internalType": "string",
          "name": "tokenURI",
          "type": "string"
        },
        {
          "internalType": "address payable",
          "name": "mintedBy",
          "type": "address"
        },
        {
          "internalType": "address payable",
          "name": "currentOwner",
          "type": "address"
        },
        {
          "internalType": "address payable",
          "name": "previousOwner",
          "type": "address"
        },
        {
          "internalType": "uint256",
          "name": "price",
          "type": "uint256"
        },
        {
          "internalType": "uint256",
          "name": "numberOfTransfers",
          "type": "uint256"
        },
        {
          "internalType": "bool",
          "name": "forSale",
          "type": "bool"
        },
        {
          "internalType": "bool",
          "name": "mintedNativeToken",
          "type": "bool"
        }
      ],
      "stateMutability": "view",
      "type": "function",
      "constant": true
    },
    {
      "inputs": [
        {
          "internalType": "address",
          "name": "to",
          "type": "address"
        },
        {
          "internalType": "uint256",
          "name": "tokenId",
          "type": "uint256"
        }
      ],
      "name": "approve",
      "outputs": [],
      "stateMutability": "nonpayable",
      "type": "function"
    },
    {
      "inputs": [
        {
          "internalType": "address",
          "name": "owner",
          "type": "address"
        }
      ],
      "name": "balanceOf",
      "outputs": [
        {
          "internalType": "uint256",
          "name": "",
          "type": "uint256"
        }
      ],
      "stateMutability": "view",
      "type": "function",
      "constant": true
    },
    {
      "inputs": [],
      "name": "collectionName",
      "outputs": [
        {
          "internalType": "string",
          "name": "",
          "type": "string"
        }
      ],
      "stateMutability": "view",
      "type": "function",
      "constant": true
    },
    {
      "inputs": [],
      "name": "collectionNameSymbol",
      "outputs": [
        {
          "internalType": "string",
          "name": "",
          "type": "string"
        }
      ],
      "stateMutability": "view",
      "type": "function",
      "constant": true
    },
    {
      "inputs": [],
      "name": "decimals",
      "outputs": [
        {
          "internalType": "uint256",
          "name": "",
          "type": "uint256"
        }
      ],
      "stateMutability": "view",
      "type": "function",
      "constant": true
    },
    {
      "inputs": [],
      "name": "getAdmins",
      "outputs": [
        {
          "internalType": "address[]",
          "name": "",
          "type": "address[]"
        }
      ],
      "stateMutability": "view",
      "type": "function",
      "constant": true
    },
    {
      "inputs": [
        {
          "internalType": "uint256",
          "name": "tokenId",
          "type": "uint256"
        }
      ],
      "name": "getApproved",
      "outputs": [
        {
          "internalType": "address",
          "name": "",
          "type": "address"
        }
      ],
      "stateMutability": "view",
      "type": "function",
      "constant": true
    },
    {
      "inputs": [
        {
          "internalType": "address",
          "name": "owner",
          "type": "address"
        },
        {
          "internalType": "address",
          "name": "operator",
          "type": "address"
        }
      ],
      "name": "isApprovedForAll",
      "outputs": [
        {
          "internalType": "bool",
          "name": "",
          "type": "bool"
        }
      ],
      "stateMutability": "view",
      "type": "function",
      "constant": true
    },
    {
      "inputs": [],
      "name": "name",
      "outputs": [
        {
          "internalType": "string",
          "name": "",
          "type": "string"
        }
      ],
      "stateMutability": "view",
      "type": "function",
      "constant": true
    },
    {
      "inputs": [
        {
          "internalType": "uint256",
          "name": "tokenId",
          "type": "uint256"
        }
      ],
      "name": "ownerOf",
      "outputs": [
        {
          "internalType": "address",
          "name": "",
          "type": "address"
        }
      ],
      "stateMutability": "view",
      "type": "function",
      "constant": true
    },
    {
      "inputs": [
        {
          "internalType": "address",
          "name": "from",
          "type": "address"
        },
        {
          "internalType": "address",
          "name": "to",
          "type": "address"
        },
        {
          "internalType": "uint256",
          "name": "tokenId",
          "type": "uint256"
        }
      ],
      "name": "safeTransferFrom",
      "outputs": [],
      "stateMutability": "nonpayable",
      "type": "function"
    },
    {
      "inputs": [
        {
          "internalType": "address",
          "name": "from",
          "type": "address"
        },
        {
          "internalType": "address",
          "name": "to",
          "type": "address"
        },
        {
          "internalType": "uint256",
          "name": "tokenId",
          "type": "uint256"
        },
        {
          "internalType": "bytes",
          "name": "_data",
          "type": "bytes"
        }
      ],
      "name": "safeTransferFrom",
      "outputs": [],
      "stateMutability": "nonpayable",
      "type": "function"
    },
    {
      "inputs": [
        {
          "internalType": "address",
          "name": "operator",
          "type": "address"
        },
        {
          "internalType": "bool",
          "name": "approved",
          "type": "bool"
        }
      ],
      "name": "setApprovalForAll",
      "outputs": [],
      "stateMutability": "nonpayable",
      "type": "function"
    },
    {
      "inputs": [
        {
          "internalType": "bytes4",
          "name": "interfaceId",
          "type": "bytes4"
        }
      ],
      "name": "supportsInterface",
      "outputs": [
        {
          "internalType": "bool",
          "name": "",
          "type": "bool"
        }
      ],
      "stateMutability": "view",
      "type": "function",
      "constant": true
    },
    {
      "inputs": [],
      "name": "symbol",
      "outputs": [
        {
          "internalType": "string",
          "name": "",
          "type": "string"
        }
      ],
      "stateMutability": "view",
      "type": "function",
      "constant": true
    },
    {
      "inputs": [
        {
          "internalType": "string",
          "name": "",
          "type": "string"
        }
      ],
      "name": "tokenNameExists",
      "outputs": [
        {
          "internalType": "bool",
          "name": "",
          "type": "bool"
        }
      ],
      "stateMutability": "view",
      "type": "function",
      "constant": true
    },
    {
      "inputs": [
        {
          "internalType": "string",
          "name": "",
          "type": "string"
        }
      ],
      "name": "tokenURIExists",
      "outputs": [
        {
          "internalType": "uint256",
          "name": "",
          "type": "uint256"
        }
      ],
      "stateMutability": "view",
      "type": "function",
      "constant": true
    },
    {
      "inputs": [
        {
          "internalType": "uint256",
          "name": "",
          "type": "uint256"
        }
      ],
      "name": "tokenURIs",
      "outputs": [
        {
          "internalType": "string",
          "name": "",
          "type": "string"
        }
      ],
      "stateMutability": "view",
      "type": "function",
      "constant": true
    },
    {
      "inputs": [
        {
          "internalType": "address",
          "name": "from",
          "type": "address"
        },
        {
          "internalType": "address",
          "name": "to",
          "type": "address"
        },
        {
          "internalType": "uint256",
          "name": "tokenId",
          "type": "uint256"
        }
      ],
      "name": "transferFrom",
      "outputs": [],
      "stateMutability": "nonpayable",
      "type": "function"
    },
    {
      "stateMutability": "payable",
      "type": "receive",
      "payable": true
    },
    {
      "inputs": [
        {
          "internalType": "uint256",
          "name": "tokenId",
          "type": "uint256"
        }
      ],
      "name": "tokenURI",
      "outputs": [
        {
          "internalType": "string",
          "name": "",
          "type": "string"
        }
      ],
      "stateMutability": "view",
      "type": "function",
      "constant": true
    },
    {
      "inputs": [],
      "name": "totalSupply",
      "outputs": [
        {
          "internalType": "uint256",
          "name": "",
          "type": "uint256"
        }
      ],
      "stateMutability": "view",
      "type": "function",
      "constant": true
    },
    {
      "inputs": [
        {
          "internalType": "uint8",
          "name": "_minPnftPrice",
          "type": "uint8"
        }
      ],
      "name": "setMinPnftPrice",
      "outputs": [],
      "stateMutability": "nonpayable",
      "type": "function"
    },
    {
      "inputs": [
        {
          "internalType": "string",
          "name": "_name",
          "type": "string"
        },
        {
          "internalType": "string",
          "name": "_tokenURI",
          "type": "string"
        },
        {
          "internalType": "uint256",
          "name": "_price",
          "type": "uint256"
        }
      ],
      "name": "mintPawnNFT",
      "outputs": [
        {
          "internalType": "uint256",
          "name": "",
          "type": "uint256"
        }
      ],
      "stateMutability": "nonpayable",
      "type": "function"
    },
    {
      "inputs": [
        {
          "internalType": "uint256",
          "name": "_tokenId",
          "type": "uint256"
        }
      ],
      "name": "getTokenOwner",
      "outputs": [
        {
          "internalType": "address",
          "name": "",
          "type": "address"
        }
      ],
      "stateMutability": "view",
      "type": "function",
      "constant": true
    },
    {
      "inputs": [
        {
          "internalType": "uint256",
          "name": "_tokenId",
          "type": "uint256"
        }
      ],
      "name": "getTokenMetaData",
      "outputs": [
        {
          "internalType": "string",
          "name": "tokenMetaData",
          "type": "string"
        }
      ],
      "stateMutability": "view",
      "type": "function",
      "constant": true
    },
    {
      "inputs": [
        {
          "internalType": "uint256",
          "name": "_tokenId",
          "type": "uint256"
        },
        {
          "internalType": "bool",
          "name": "_mintedNativeToken",
          "type": "bool"
        }
      ],
      "name": "setMintedNativeToken",
      "outputs": [],
      "stateMutability": "nonpayable",
      "type": "function"
    },
    {
      "inputs": [],
      "name": "getNumberOfTokensMinted",
      "outputs": [
        {
          "internalType": "uint256",
          "name": "totalNumberOfTokensMinted",
          "type": "uint256"
        }
      ],
      "stateMutability": "view",
      "type": "function",
      "constant": true
    },
    {
      "inputs": [
        {
          "internalType": "address",
          "name": "_owner",
          "type": "address"
        }
      ],
      "name": "getTotalNumberOfTokensOwnedByAnAddress",
      "outputs": [
        {
          "internalType": "uint256",
          "name": "totalNumberOfTokensOwned",
          "type": "uint256"
        }
      ],
      "stateMutability": "view",
      "type": "function",
      "constant": true
    },
    {
      "inputs": [
        {
          "internalType": "uint256",
          "name": "_tokenId",
          "type": "uint256"
        }
      ],
      "name": "getTokenExists",
      "outputs": [
        {
          "internalType": "bool",
          "name": "",
          "type": "bool"
        }
      ],
      "stateMutability": "view",
      "type": "function",
      "constant": true
    },
    {
      "inputs": [
        {
          "internalType": "uint256",
          "name": "_tokenId",
          "type": "uint256"
        }
      ],
      "name": "buyToken",
      "outputs": [],
      "stateMutability": "payable",
      "type": "function",
      "payable": true
    },
    {
      "inputs": [
        {
          "internalType": "uint256",
          "name": "_tokenId",
          "type": "uint256"
        },
        {
          "internalType": "uint256",
          "name": "_newPrice",
          "type": "uint256"
        }
      ],
      "name": "changeTokenPrice",
      "outputs": [],
      "stateMutability": "nonpayable",
      "type": "function"
    },
    {
      "inputs": [
        {
          "internalType": "uint256",
          "name": "_tokenId",
          "type": "uint256"
        }
      ],
      "name": "toggleForSale",
      "outputs": [],
      "stateMutability": "nonpayable",
      "type": "function"
    }
  ],
  "bytecode": "0x6080604052611388600b60006101000a81548167ffffffffffffffff021916908367ffffffffffffffff1602179055506000600c553480156200004157600080fd5b5060405180606001604052806021815260200162005f58602191396040518060400160405280600481526020017f504e4654000000000000000000000000000000000000000000000000000000008152508160009080519060200190620000aa92919062000291565b508060019080519060200190620000c392919062000291565b50505033600760006101000a81548173ffffffffffffffffffffffffffffffffffffffff021916908373ffffffffffffffffffffffffffffffffffffffff160217905550620001176200015d60201b60201c565b600890805190602001906200012e92919062000291565b506200013f620001f760201b60201c565b600990805190602001906200015692919062000291565b50620003a6565b6060600080546200016e9062000341565b80601f01602080910402602001604051908101604052809291908181526020018280546200019c9062000341565b8015620001ed5780601f10620001c157610100808354040283529160200191620001ed565b820191906000526020600020905b815481529060010190602001808311620001cf57829003601f168201915b5050505050905090565b606060018054620002089062000341565b80601f0160208091040260200160405190810160405280929190818152602001828054620002369062000341565b8015620002875780601f106200025b5761010080835404028352916020019162000287565b820191906000526020600020905b8154815290600101906020018083116200026957829003601f168201915b5050505050905090565b8280546200029f9062000341565b90600052602060002090601f016020900481019282620002c357600085556200030f565b82601f10620002de57805160ff19168380011785556200030f565b828001600101855582156200030f579182015b828111156200030e578251825591602001919060010190620002f1565b5b5090506200031e919062000322565b5090565b5b808211156200033d57600081600090555060010162000323565b5090565b600060028204905060018216806200035a57607f821691505b6020821081141562000371576200037062000377565b5b50919050565b7f4e487b7100000000000000000000000000000000000000000000000000000000600052602260045260246000fd5b615ba280620003b66000396000f3fe6080604052600436106101fd5760003560e01c80636f9507f91161010d578063a5cd761f116100a0578063d170c91b1161006f578063d170c91b146107bc578063d81bcb2d146107f9578063e5326ab114610822578063e985e9c51461084d578063f3ac38b71461088a57610204565b8063a5cd761f146106ee578063b88d4fde1461072b578063c87b56dd14610754578063cc151f3a1461079157610204565b806395d89b41116100dc57806395d89b4114610634578063a22cb4651461065f578063a32018b914610688578063a46b1fac146106b157610204565b80636f9507f91461055d578063704802751461058857806370a08231146105b1578063717947b1146105ee57610204565b8063313ce5671161019057806343d32ae71161015f57806343d32ae71461044057806362e8e8ac1461047d5780636352211e146104a657806367c623cf146104e35780636c8b703f1461052057610204565b8063313ce5671461038457806331ae450b146103af57806342842e0e146103da578063439028501461040357610204565b8063142687f3116101cc578063142687f3146102d757806318160ddd1461031457806323b872dd1461033f5780632d296bf11461036857610204565b806301ffc9a71461020957806306fdde0314610246578063081812fc14610271578063095ea7b3146102ae57610204565b3661020457005b600080fd5b34801561021557600080fd5b50610230600480360381019061022b9190614466565b6108b3565b60405161023d9190614c60565b60405180910390f35b34801561025257600080fd5b5061025b610995565b6040516102689190614c7b565b60405180910390f35b34801561027d57600080fd5b5061029860048036038101906102939190614578565b610a27565b6040516102a59190614bd7565b60405180910390f35b3480156102ba57600080fd5b506102d560048036038101906102d0919061442a565b610aac565b005b3480156102e357600080fd5b506102fe60048036038101906102f99190614578565b610bc4565b60405161030b9190614c60565b60405180910390f35b34801561032057600080fd5b50610329610bdb565b604051610336919061505d565b60405180910390f35b34801561034b57600080fd5b5061036660048036038101906103619190614324565b610bec565b005b610382600480360381019061037d9190614578565b610c4c565b005b34801561039057600080fd5b5061039961139d565b6040516103a6919061505d565b60405180910390f35b3480156103bb57600080fd5b506103c46113a3565b6040516103d19190614c3e565b60405180910390f35b3480156103e657600080fd5b5061040160048036038101906103fc9190614324565b611431565b005b34801561040f57600080fd5b5061042a600480360381019061042591906142bf565b611451565b604051610437919061505d565b60405180910390f35b34801561044c57600080fd5b50610467600480360381019061046291906144b8565b611463565b604051610474919061505d565b60405180910390f35b34801561048957600080fd5b506104a4600480360381019061049f91906145dd565b611491565b005b3480156104b257600080fd5b506104cd60048036038101906104c89190614578565b611a69565b6040516104da9190614bd7565b60405180910390f35b3480156104ef57600080fd5b5061050a60048036038101906105059190614578565b611b1b565b6040516105179190614c7b565b60405180910390f35b34801561052c57600080fd5b5061054760048036038101906105429190614578565b611b2d565b6040516105549190614c7b565b60405180910390f35b34801561056957600080fd5b50610572611bcd565b60405161057f9190614c7b565b60405180910390f35b34801561059457600080fd5b506105af60048036038101906105aa91906142bf565b611c5b565b005b3480156105bd57600080fd5b506105d860048036038101906105d391906142bf565b611f65565b6040516105e5919061505d565b60405180910390f35b3480156105fa57600080fd5b5061061560048036038101906106109190614578565b61201d565b60405161062b9a99989796959493929190615078565b60405180910390f35b34801561064057600080fd5b506106496121fb565b6040516106569190614c7b565b60405180910390f35b34801561066b57600080fd5b50610686600480360381019061068191906143ee565b61228d565b005b34801561069457600080fd5b506106af60048036038101906106aa9190614578565b6122a3565b005b3480156106bd57600080fd5b506106d860048036038101906106d391906144b8565b6128a5565b6040516106e59190614c60565b60405180910390f35b3480156106fa57600080fd5b5061071560048036038101906107109190614578565b6128db565b6040516107229190614bd7565b60405180910390f35b34801561073757600080fd5b50610752600480360381019061074d9190614373565b6128ed565b005b34801561076057600080fd5b5061077b60048036038101906107769190614578565b61294f565b6040516107889190614c7b565b60405180910390f35b34801561079d57600080fd5b506107a6612a3c565b6040516107b3919061505d565b60405180910390f35b3480156107c857600080fd5b506107e360048036038101906107de91906144f9565b612a4b565b6040516107f0919061505d565b60405180910390f35b34801561080557600080fd5b50610820600480360381019061081b91906145a1565b612ee1565b005b34801561082e57600080fd5b50610837612f6c565b6040516108449190614c7b565b60405180910390f35b34801561085957600080fd5b50610874600480360381019061086f91906142e8565b612ffa565b6040516108819190614c60565b60405180910390f35b34801561089657600080fd5b506108b160048036038101906108ac9190614619565b61308e565b005b60007f80ac58cd000000000000000000000000000000000000000000000000000000007bffffffffffffffffffffffffffffffffffffffffffffffffffffffff1916827bffffffffffffffffffffffffffffffffffffffffffffffffffffffff1916148061097e57507f5b5e139f000000000000000000000000000000000000000000000000000000007bffffffffffffffffffffffffffffffffffffffffffffffffffffffff1916827bffffffffffffffffffffffffffffffffffffffffffffffffffffffff1916145b8061098e575061098d826130bd565b5b9050919050565b6060600080546109a490615384565b80601f01602080910402602001604051908101604052809291908181526020018280546109d090615384565b8015610a1d5780601f106109f257610100808354040283529160200191610a1d565b820191906000526020600020905b815481529060010190602001808311610a0057829003601f168201915b5050505050905090565b6000610a3282613127565b610a71576040517f08c379a0000000000000000000000000000000000000000000000000000000008152600401610a6890614f1d565b60405180910390fd5b6004600083815260200190815260200160002060009054906101000a900473ffffffffffffffffffffffffffffffffffffffff169050919050565b6000610ab782611a69565b90508073ffffffffffffffffffffffffffffffffffffffff168373ffffffffffffffffffffffffffffffffffffffff161415610b28576040517f08c379a0000000000000000000000000000000000000000000000000000000008152600401610b1f90614fbd565b60405180910390fd5b8073ffffffffffffffffffffffffffffffffffffffff16610b47613193565b73ffffffffffffffffffffffffffffffffffffffff161480610b765750610b7581610b70613193565b612ffa565b5b610bb5576040517f08c379a0000000000000000000000000000000000000000000000000000000008152600401610bac90614e1d565b60405180910390fd5b610bbf838361319b565b505050565b600080610bd083613127565b905080915050919050565b6000610be7600a613254565b905090565b610bfd610bf7613193565b82613262565b610c3c576040517f08c379a0000000000000000000000000000000000000000000000000000000008152600401610c3390614ffd565b60405180910390fd5b610c47838383613340565b505050565b600073ffffffffffffffffffffffffffffffffffffffff163373ffffffffffffffffffffffffffffffffffffffff161415610cbc576040517f08c379a0000000000000000000000000000000000000000000000000000000008152600401610cb390614f7d565b60405180910390fd5b80610cc681613127565b610d05576040517f08c379a0000000000000000000000000000000000000000000000000000000008152600401610cfc9061501d565b60405180910390fd5b6000610d1082611a69565b9050600073ffffffffffffffffffffffffffffffffffffffff168173ffffffffffffffffffffffffffffffffffffffff161415610d82576040517f08c379a0000000000000000000000000000000000000000000000000000000008152600401610d7990614cdd565b60405180910390fd5b3373ffffffffffffffffffffffffffffffffffffffff168173ffffffffffffffffffffffffffffffffffffffff1614610df0576040517f08c379a0000000000000000000000000000000000000000000000000000000008152600401610de790614edd565b60405180910390fd5b6000600d60008581526020019081526020016000206040518061014001604052908160008201548152602001600182018054610e2b90615384565b80601f0160208091040260200160405190810160405280929190818152602001828054610e5790615384565b8015610ea45780601f10610e7957610100808354040283529160200191610ea4565b820191906000526020600020905b815481529060010190602001808311610e8757829003601f168201915b50505050508152602001600282018054610ebd90615384565b80601f0160208091040260200160405190810160405280929190818152602001828054610ee990615384565b8015610f365780601f10610f0b57610100808354040283529160200191610f36565b820191906000526020600020905b815481529060010190602001808311610f1957829003601f168201915b505050505081526020016003820160009054906101000a900473ffffffffffffffffffffffffffffffffffffffff1673ffffffffffffffffffffffffffffffffffffffff1673ffffffffffffffffffffffffffffffffffffffff1681526020016004820160009054906101000a900473ffffffffffffffffffffffffffffffffffffffff1673ffffffffffffffffffffffffffffffffffffffff1673ffffffffffffffffffffffffffffffffffffffff1681526020016005820160009054906101000a900473ffffffffffffffffffffffffffffffffffffffff1673ffffffffffffffffffffffffffffffffffffffff1673ffffffffffffffffffffffffffffffffffffffff16815260200160068201548152602001600782015481526020016008820160009054906101000a900460ff161515151581526020016008820160019054906101000a900460ff16151515158152505090508060c001513410156110d4576040517f08c379a00000000000000000000000000000000000000000000000000000000081526004016110cb90614f9d565b60405180910390fd5b806101000151611119576040517f08c379a000000000000000000000000000000000000000000000000000000000815260040161111090614c9d565b60405180910390fd5b600061112485611a69565b9050611131813387613340565b6000826080015190508073ffffffffffffffffffffffffffffffffffffffff166108fc349081150290604051600060405180830381858888f19350505050158015611180573d6000803e3d6000fd5b5082608001518360a0019073ffffffffffffffffffffffffffffffffffffffff16908173ffffffffffffffffffffffffffffffffffffffff168152505033836080019073ffffffffffffffffffffffffffffffffffffffff16908173ffffffffffffffffffffffffffffffffffffffff168152505060018360e0018181516112089190615225565b9150818152505082600d60008881526020019081526020016000206000820151816000015560208201518160010190805190602001906112499291906140ce565b5060408201518160020190805190602001906112669291906140ce565b5060608201518160030160006101000a81548173ffffffffffffffffffffffffffffffffffffffff021916908373ffffffffffffffffffffffffffffffffffffffff16021790555060808201518160040160006101000a81548173ffffffffffffffffffffffffffffffffffffffff021916908373ffffffffffffffffffffffffffffffffffffffff16021790555060a08201518160050160006101000a81548173ffffffffffffffffffffffffffffffffffffffff021916908373ffffffffffffffffffffffffffffffffffffffff16021790555060c0820151816006015560e082015181600701556101008201518160080160006101000a81548160ff0219169083151502179055506101208201518160080160016101000a81548160ff021916908315150217905550905050505050505050565b600c5481565b6060600680548060200260200160405190810160405280929190818152602001828054801561142757602002820191906000526020600020905b8160009054906101000a900473ffffffffffffffffffffffffffffffffffffffff1673ffffffffffffffffffffffffffffffffffffffff16815260200190600101908083116113dd575b5050505050905090565b61144c838383604051806020016040528060008152506128ed565b505050565b600061145c82611f65565b9050919050565b6010818051602081018201805184825260208301602085012081835280955050505050506000915090505481565b600073ffffffffffffffffffffffffffffffffffffffff163373ffffffffffffffffffffffffffffffffffffffff161415611501576040517f08c379a00000000000000000000000000000000000000000000000000000000081526004016114f890614f7d565b60405180910390fd5b8161150b81613127565b61154a576040517f08c379a00000000000000000000000000000000000000000000000000000000081526004016115419061501d565b60405180910390fd5b600061155582611a69565b9050600073ffffffffffffffffffffffffffffffffffffffff168173ffffffffffffffffffffffffffffffffffffffff1614156115c7576040517f08c379a00000000000000000000000000000000000000000000000000000000081526004016115be90614cdd565b60405180910390fd5b3373ffffffffffffffffffffffffffffffffffffffff168173ffffffffffffffffffffffffffffffffffffffff1614611635576040517f08c379a000000000000000000000000000000000000000000000000000000000815260040161162c90614edd565b60405180910390fd5b6000600d6000868152602001908152602001600020604051806101400160405290816000820154815260200160018201805461167090615384565b80601f016020809104026020016040519081016040528092919081815260200182805461169c90615384565b80156116e95780601f106116be576101008083540402835291602001916116e9565b820191906000526020600020905b8154815290600101906020018083116116cc57829003601f168201915b5050505050815260200160028201805461170290615384565b80601f016020809104026020016040519081016040528092919081815260200182805461172e90615384565b801561177b5780601f106117505761010080835404028352916020019161177b565b820191906000526020600020905b81548152906001019060200180831161175e57829003601f168201915b505050505081526020016003820160009054906101000a900473ffffffffffffffffffffffffffffffffffffffff1673ffffffffffffffffffffffffffffffffffffffff1673ffffffffffffffffffffffffffffffffffffffff1681526020016004820160009054906101000a900473ffffffffffffffffffffffffffffffffffffffff1673ffffffffffffffffffffffffffffffffffffffff1673ffffffffffffffffffffffffffffffffffffffff1681526020016005820160009054906101000a900473ffffffffffffffffffffffffffffffffffffffff1673ffffffffffffffffffffffffffffffffffffffff1673ffffffffffffffffffffffffffffffffffffffff16815260200160068201548152602001600782015481526020016008820160009054906101000a900460ff161515151581526020016008820160019054906101000a900460ff1615151515815250509050838160c001818152505080600d60008781526020019081526020016000206000820151816000015560208201518160010190805190602001906119169291906140ce565b5060408201518160020190805190602001906119339291906140ce565b5060608201518160030160006101000a81548173ffffffffffffffffffffffffffffffffffffffff021916908373ffffffffffffffffffffffffffffffffffffffff16021790555060808201518160040160006101000a81548173ffffffffffffffffffffffffffffffffffffffff021916908373ffffffffffffffffffffffffffffffffffffffff16021790555060a08201518160050160006101000a81548173ffffffffffffffffffffffffffffffffffffffff021916908373ffffffffffffffffffffffffffffffffffffffff16021790555060c0820151816006015560e082015181600701556101008201518160080160006101000a81548160ff0219169083151502179055506101208201518160080160016101000a81548160ff0219169083151502179055509050505050505050565b6000806002600084815260200190815260200160002060009054906101000a900473ffffffffffffffffffffffffffffffffffffffff169050600073ffffffffffffffffffffffffffffffffffffffff168173ffffffffffffffffffffffffffffffffffffffff161415611b12576040517f08c379a0000000000000000000000000000000000000000000000000000000008152600401611b0990614e7d565b60405180910390fd5b80915050919050565b6060611b268261294f565b9050919050565b600e6020528060005260406000206000915090508054611b4c90615384565b80601f0160208091040260200160405190810160405280929190818152602001828054611b7890615384565b8015611bc55780601f10611b9a57610100808354040283529160200191611bc5565b820191906000526020600020905b815481529060010190602001808311611ba857829003601f168201915b505050505081565b60098054611bda90615384565b80601f0160208091040260200160405190810160405280929190818152602001828054611c0690615384565b8015611c535780601f10611c2857610100808354040283529160200191611c53565b820191906000526020600020905b815481529060010190602001808311611c3657829003601f168201915b505050505081565b600073ffffffffffffffffffffffffffffffffffffffff16600760009054906101000a900473ffffffffffffffffffffffffffffffffffffffff1673ffffffffffffffffffffffffffffffffffffffff161415611ced576040517f08c379a0000000000000000000000000000000000000000000000000000000008152600401611ce490614d5d565b60405180910390fd5b600760009054906101000a900473ffffffffffffffffffffffffffffffffffffffff1673ffffffffffffffffffffffffffffffffffffffff163373ffffffffffffffffffffffffffffffffffffffff1614611d7d576040517f08c379a0000000000000000000000000000000000000000000000000000000008152600401611d7490614d3d565b60405180910390fd5b80600073ffffffffffffffffffffffffffffffffffffffff168173ffffffffffffffffffffffffffffffffffffffff161415611dee576040517f08c379a0000000000000000000000000000000000000000000000000000000008152600401611de590614f7d565b60405180910390fd5b6006808054905010611e35576040517f08c379a0000000000000000000000000000000000000000000000000000000008152600401611e2c9061503d565b60405180910390fd5b60005b6006805490508160ff161015611efc5760068160ff1681548110611e85577f4e487b7100000000000000000000000000000000000000000000000000000000600052603260045260246000fd5b9060005260206000200160009054906101000a900473ffffffffffffffffffffffffffffffffffffffff1673ffffffffffffffffffffffffffffffffffffffff168373ffffffffffffffffffffffffffffffffffffffff161415611ee95750611f61565b8080611ef4906153e7565b915050611e38565b506006829080600181540180825580915050600190039060005260206000200160009091909190916101000a81548173ffffffffffffffffffffffffffffffffffffffff021916908373ffffffffffffffffffffffffffffffffffffffff1602179055505b5050565b60008073ffffffffffffffffffffffffffffffffffffffff168273ffffffffffffffffffffffffffffffffffffffff161415611fd6576040517f08c379a0000000000000000000000000000000000000000000000000000000008152600401611fcd90614e5d565b60405180910390fd5b600360008373ffffffffffffffffffffffffffffffffffffffff1673ffffffffffffffffffffffffffffffffffffffff168152602001908152602001600020549050919050565b600d60205280600052604060002060009150905080600001549080600101805461204690615384565b80601f016020809104026020016040519081016040528092919081815260200182805461207290615384565b80156120bf5780601f10612094576101008083540402835291602001916120bf565b820191906000526020600020905b8154815290600101906020018083116120a257829003601f168201915b5050505050908060020180546120d490615384565b80601f016020809104026020016040519081016040528092919081815260200182805461210090615384565b801561214d5780601f106121225761010080835404028352916020019161214d565b820191906000526020600020905b81548152906001019060200180831161213057829003601f168201915b5050505050908060030160009054906101000a900473ffffffffffffffffffffffffffffffffffffffff16908060040160009054906101000a900473ffffffffffffffffffffffffffffffffffffffff16908060050160009054906101000a900473ffffffffffffffffffffffffffffffffffffffff16908060060154908060070154908060080160009054906101000a900460ff16908060080160019054906101000a900460ff1690508a565b60606001805461220a90615384565b80601f016020809104026020016040519081016040528092919081815260200182805461223690615384565b80156122835780601f1061225857610100808354040283529160200191612283565b820191906000526020600020905b81548152906001019060200180831161226657829003601f168201915b5050505050905090565b61229f612298613193565b83836135a7565b5050565b600073ffffffffffffffffffffffffffffffffffffffff163373ffffffffffffffffffffffffffffffffffffffff161415612313576040517f08c379a000000000000000000000000000000000000000000000000000000000815260040161230a90614f7d565b60405180910390fd5b8061231d81613127565b61235c576040517f08c379a00000000000000000000000000000000000000000000000000000000081526004016123539061501d565b60405180910390fd5b600061236782611a69565b9050600073ffffffffffffffffffffffffffffffffffffffff168173ffffffffffffffffffffffffffffffffffffffff1614156123d9576040517f08c379a00000000000000000000000000000000000000000000000000000000081526004016123d090614cdd565b60405180910390fd5b3373ffffffffffffffffffffffffffffffffffffffff168173ffffffffffffffffffffffffffffffffffffffff1614612447576040517f08c379a000000000000000000000000000000000000000000000000000000000815260040161243e90614edd565b60405180910390fd5b6000600d6000858152602001908152602001600020604051806101400160405290816000820154815260200160018201805461248290615384565b80601f01602080910402602001604051908101604052809291908181526020018280546124ae90615384565b80156124fb5780601f106124d0576101008083540402835291602001916124fb565b820191906000526020600020905b8154815290600101906020018083116124de57829003601f168201915b5050505050815260200160028201805461251490615384565b80601f016020809104026020016040519081016040528092919081815260200182805461254090615384565b801561258d5780601f106125625761010080835404028352916020019161258d565b820191906000526020600020905b81548152906001019060200180831161257057829003601f168201915b505050505081526020016003820160009054906101000a900473ffffffffffffffffffffffffffffffffffffffff1673ffffffffffffffffffffffffffffffffffffffff1673ffffffffffffffffffffffffffffffffffffffff1681526020016004820160009054906101000a900473ffffffffffffffffffffffffffffffffffffffff1673ffffffffffffffffffffffffffffffffffffffff1673ffffffffffffffffffffffffffffffffffffffff1681526020016005820160009054906101000a900473ffffffffffffffffffffffffffffffffffffffff1673ffffffffffffffffffffffffffffffffffffffff1673ffffffffffffffffffffffffffffffffffffffff16815260200160068201548152602001600782015481526020016008820160009054906101000a900460ff161515151581526020016008820160019054906101000a900460ff16151515158152505090508061010001511561270657600081610100019015159081151581525050612719565b6001816101000190151590811515815250505b80600d60008681526020019081526020016000206000820151816000015560208201518160010190805190602001906127539291906140ce565b5060408201518160020190805190602001906127709291906140ce565b5060608201518160030160006101000a81548173ffffffffffffffffffffffffffffffffffffffff021916908373ffffffffffffffffffffffffffffffffffffffff16021790555060808201518160040160006101000a81548173ffffffffffffffffffffffffffffffffffffffff021916908373ffffffffffffffffffffffffffffffffffffffff16021790555060a08201518160050160006101000a81548173ffffffffffffffffffffffffffffffffffffffff021916908373ffffffffffffffffffffffffffffffffffffffff16021790555060c0820151816006015560e082015181600701556101008201518160080160006101000a81548160ff0219169083151502179055506101208201518160080160016101000a81548160ff02191690831515021790555090505050505050565b600f818051602081018201805184825260208301602085012081835280955050505050506000915054906101000a900460ff1681565b60006128e682611a69565b9050919050565b6128fe6128f8613193565b83613262565b61293d576040517f08c379a000000000000000000000000000000000000000000000000000000000815260040161293490614ffd565b60405180910390fd5b61294984848484613714565b50505050565b606061295a82613127565b612999576040517f08c379a000000000000000000000000000000000000000000000000000000000815260040161299090614e9d565b60405180910390fd5b600e600083815260200190815260200160002080546129b790615384565b80601f01602080910402602001604051908101604052809291908181526020018280546129e390615384565b8015612a305780601f10612a0557610100808354040283529160200191612a30565b820191906000526020600020905b815481529060010190602001808311612a1357829003601f168201915b50505050509050919050565b6000612a46610bdb565b905090565b60008073ffffffffffffffffffffffffffffffffffffffff163373ffffffffffffffffffffffffffffffffffffffff161415612abc576040517f08c379a0000000000000000000000000000000000000000000000000000000008152600401612ab390614f7d565b60405180910390fd5b600b60009054906101000a900467ffffffffffffffff1667ffffffffffffffff16821015612b1f576040517f08c379a0000000000000000000000000000000000000000000000000000000008152600401612b1690614dfd565b60405180910390fd5b612b29600a613770565b6000612b35600a613254565b9050612b4081613127565b15612b80576040517f08c379a0000000000000000000000000000000000000000000000000000000008152600401612b7790614e3d565b60405180910390fd5b6000601085604051612b929190614bc0565b90815260200160405180910390205414612be1576040517f08c379a0000000000000000000000000000000000000000000000000000000008152600401612bd890614ebd565b60405180910390fd5b600f85604051612bf19190614bc0565b908152602001604051809103902060009054906101000a900460ff1615612c4d576040517f08c379a0000000000000000000000000000000000000000000000000000000008152600401612c4490614f3d565b60405180910390fd5b612c573382613786565b612c618185613960565b80601085604051612c729190614bc0565b9081526020016040518091039020819055506001600f86604051612c969190614bc0565b908152602001604051809103902060006101000a81548160ff02191690831515021790555060006040518061014001604052808381526020018781526020018681526020013373ffffffffffffffffffffffffffffffffffffffff1681526020013373ffffffffffffffffffffffffffffffffffffffff168152602001600073ffffffffffffffffffffffffffffffffffffffff1681526020018581526020016000815260200160011515815260200160001515815250905080600d6000848152602001908152602001600020600082015181600001556020820151816001019080519060200190612d899291906140ce565b506040820151816002019080519060200190612da69291906140ce565b5060608201518160030160006101000a81548173ffffffffffffffffffffffffffffffffffffffff021916908373ffffffffffffffffffffffffffffffffffffffff16021790555060808201518160040160006101000a81548173ffffffffffffffffffffffffffffffffffffffff021916908373ffffffffffffffffffffffffffffffffffffffff16021790555060a08201518160050160006101000a81548173ffffffffffffffffffffffffffffffffffffffff021916908373ffffffffffffffffffffffffffffffffffffffff16021790555060c0820151816006015560e082015181600701556101008201518160080160006101000a81548160ff0219169083151502179055506101208201518160080160016101000a81548160ff02191690831515021790555090505081925050509392505050565b6000600d60008481526020019081526020016000206000015411612f3a576040517f08c379a0000000000000000000000000000000000000000000000000000000008152600401612f3190614f5d565b60405180910390fd5b80600d600084815260200190815260200160002060080160016101000a81548160ff0219169083151502179055505050565b60088054612f7990615384565b80601f0160208091040260200160405190810160405280929190818152602001828054612fa590615384565b8015612ff25780601f10612fc757610100808354040283529160200191612ff2565b820191906000526020600020905b815481529060010190602001808311612fd557829003601f168201915b505050505081565b6000600560008473ffffffffffffffffffffffffffffffffffffffff1673ffffffffffffffffffffffffffffffffffffffff16815260200190815260200160002060008373ffffffffffffffffffffffffffffffffffffffff1673ffffffffffffffffffffffffffffffffffffffff16815260200190815260200160002060009054906101000a900460ff16905092915050565b8060ff16600b60006101000a81548167ffffffffffffffff021916908367ffffffffffffffff16021790555050565b60007f01ffc9a7000000000000000000000000000000000000000000000000000000007bffffffffffffffffffffffffffffffffffffffffffffffffffffffff1916827bffffffffffffffffffffffffffffffffffffffffffffffffffffffff1916149050919050565b60008073ffffffffffffffffffffffffffffffffffffffff166002600084815260200190815260200160002060009054906101000a900473ffffffffffffffffffffffffffffffffffffffff1673ffffffffffffffffffffffffffffffffffffffff1614159050919050565b600033905090565b816004600083815260200190815260200160002060006101000a81548173ffffffffffffffffffffffffffffffffffffffff021916908373ffffffffffffffffffffffffffffffffffffffff160217905550808273ffffffffffffffffffffffffffffffffffffffff1661320e83611a69565b73ffffffffffffffffffffffffffffffffffffffff167f8c5be1e5ebec7d5bd14f71427d1e84f3dd0314c0f7b2291e5b200ac8c7c3b92560405160405180910390a45050565b600081600001549050919050565b600061326d82613127565b6132ac576040517f08c379a00000000000000000000000000000000000000000000000000000000081526004016132a390614ddd565b60405180910390fd5b60006132b783611a69565b90508073ffffffffffffffffffffffffffffffffffffffff168473ffffffffffffffffffffffffffffffffffffffff16148061332657508373ffffffffffffffffffffffffffffffffffffffff1661330e84610a27565b73ffffffffffffffffffffffffffffffffffffffff16145b8061333757506133368185612ffa565b5b91505092915050565b8273ffffffffffffffffffffffffffffffffffffffff1661336082611a69565b73ffffffffffffffffffffffffffffffffffffffff16146133b6576040517f08c379a00000000000000000000000000000000000000000000000000000000081526004016133ad90614cfd565b60405180910390fd5b600073ffffffffffffffffffffffffffffffffffffffff168273ffffffffffffffffffffffffffffffffffffffff161415613426576040517f08c379a000000000000000000000000000000000000000000000000000000000815260040161341d90614d7d565b60405180910390fd5b61343183838361398c565b61343c60008261319b565b6001600360008573ffffffffffffffffffffffffffffffffffffffff1673ffffffffffffffffffffffffffffffffffffffff168152602001908152602001600020600082825461348c919061527b565b925050819055506001600360008473ffffffffffffffffffffffffffffffffffffffff1673ffffffffffffffffffffffffffffffffffffffff16815260200190815260200160002060008282546134e39190615225565b92505081905550816002600083815260200190815260200160002060006101000a81548173ffffffffffffffffffffffffffffffffffffffff021916908373ffffffffffffffffffffffffffffffffffffffff160217905550808273ffffffffffffffffffffffffffffffffffffffff168473ffffffffffffffffffffffffffffffffffffffff167fddf252ad1be2c89b69c2b068fc378daa952ba7f163c4a11628f55a4df523b3ef60405160405180910390a46135a2838383613991565b505050565b8173ffffffffffffffffffffffffffffffffffffffff168373ffffffffffffffffffffffffffffffffffffffff161415613616576040517f08c379a000000000000000000000000000000000000000000000000000000000815260040161360d90614dbd565b60405180910390fd5b80600560008573ffffffffffffffffffffffffffffffffffffffff1673ffffffffffffffffffffffffffffffffffffffff16815260200190815260200160002060008473ffffffffffffffffffffffffffffffffffffffff1673ffffffffffffffffffffffffffffffffffffffff16815260200190815260200160002060006101000a81548160ff0219169083151502179055508173ffffffffffffffffffffffffffffffffffffffff168373ffffffffffffffffffffffffffffffffffffffff167f17307eab39ab6107e8899845ad3d59bd9653f200f220920489ca2b5937696c31836040516137079190614c60565b60405180910390a3505050565b61371f848484613340565b61372b84848484613f14565b61376a576040517f08c379a000000000000000000000000000000000000000000000000000000000815260040161376190614cbd565b60405180910390fd5b50505050565b6001816000016000828254019250508190555050565b600073ffffffffffffffffffffffffffffffffffffffff168273ffffffffffffffffffffffffffffffffffffffff1614156137f6576040517f08c379a00000000000000000000000000000000000000000000000000000000081526004016137ed90614efd565b60405180910390fd5b6137ff81613127565b1561383f576040517f08c379a000000000000000000000000000000000000000000000000000000000815260040161383690614d1d565b60405180910390fd5b61384b6000838361398c565b6001600360008473ffffffffffffffffffffffffffffffffffffffff1673ffffffffffffffffffffffffffffffffffffffff168152602001908152602001600020600082825461389b9190615225565b92505081905550816002600083815260200190815260200160002060006101000a81548173ffffffffffffffffffffffffffffffffffffffff021916908373ffffffffffffffffffffffffffffffffffffffff160217905550808273ffffffffffffffffffffffffffffffffffffffff16600073ffffffffffffffffffffffffffffffffffffffff167fddf252ad1be2c89b69c2b068fc378daa952ba7f163c4a11628f55a4df523b3ef60405160405180910390a461395c60008383613991565b5050565b80600e600084815260200190815260200160002090805190602001906139879291906140ce565b505050565b505050565b8173ffffffffffffffffffffffffffffffffffffffff166139b182611a69565b73ffffffffffffffffffffffffffffffffffffffff1614613a07576040517f08c379a00000000000000000000000000000000000000000000000000000000081526004016139fe90614fdd565b60405180910390fd5b600073ffffffffffffffffffffffffffffffffffffffff168273ffffffffffffffffffffffffffffffffffffffff161415613a77576040517f08c379a0000000000000000000000000000000000000000000000000000000008152600401613a6e90614d9d565b60405180910390fd5b6000600d60008381526020019081526020016000206040518061014001604052908160008201548152602001600182018054613ab290615384565b80601f0160208091040260200160405190810160405280929190818152602001828054613ade90615384565b8015613b2b5780601f10613b0057610100808354040283529160200191613b2b565b820191906000526020600020905b815481529060010190602001808311613b0e57829003601f168201915b50505050508152602001600282018054613b4490615384565b80601f0160208091040260200160405190810160405280929190818152602001828054613b7090615384565b8015613bbd5780601f10613b9257610100808354040283529160200191613bbd565b820191906000526020600020905b815481529060010190602001808311613ba057829003601f168201915b505050505081526020016003820160009054906101000a900473ffffffffffffffffffffffffffffffffffffffff1673ffffffffffffffffffffffffffffffffffffffff1673ffffffffffffffffffffffffffffffffffffffff1681526020016004820160009054906101000a900473ffffffffffffffffffffffffffffffffffffffff1673ffffffffffffffffffffffffffffffffffffffff1673ffffffffffffffffffffffffffffffffffffffff1681526020016005820160009054906101000a900473ffffffffffffffffffffffffffffffffffffffff1673ffffffffffffffffffffffffffffffffffffffff1673ffffffffffffffffffffffffffffffffffffffff16815260200160068201548152602001600782015481526020016008820160009054906101000a900460ff161515151581526020016008820160019054906101000a900460ff161515151581525050905080608001518160a0019073ffffffffffffffffffffffffffffffffffffffff16908173ffffffffffffffffffffffffffffffffffffffff168152505082816080019073ffffffffffffffffffffffffffffffffffffffff16908173ffffffffffffffffffffffffffffffffffffffff168152505080600d6000848152602001908152602001600020600082015181600001556020820151816001019080519060200190613dc29291906140ce565b506040820151816002019080519060200190613ddf9291906140ce565b5060608201518160030160006101000a81548173ffffffffffffffffffffffffffffffffffffffff021916908373ffffffffffffffffffffffffffffffffffffffff16021790555060808201518160040160006101000a81548173ffffffffffffffffffffffffffffffffffffffff021916908373ffffffffffffffffffffffffffffffffffffffff16021790555060a08201518160050160006101000a81548173ffffffffffffffffffffffffffffffffffffffff021916908373ffffffffffffffffffffffffffffffffffffffff16021790555060c0820151816006015560e082015181600701556101008201518160080160006101000a81548160ff0219169083151502179055506101208201518160080160016101000a81548160ff02191690831515021790555090505050505050565b6000613f358473ffffffffffffffffffffffffffffffffffffffff166140ab565b1561409e578373ffffffffffffffffffffffffffffffffffffffff1663150b7a02613f5e613193565b8786866040518563ffffffff1660e01b8152600401613f809493929190614bf2565b602060405180830381600087803b158015613f9a57600080fd5b505af1925050508015613fcb57506040513d601f19601f82011682018060405250810190613fc8919061448f565b60015b61404e573d8060008114613ffb576040519150601f19603f3d011682016040523d82523d6000602084013e614000565b606091505b50600081511415614046576040517f08c379a000000000000000000000000000000000000000000000000000000000815260040161403d90614cbd565b60405180910390fd5b805181602001fd5b63150b7a0260e01b7bffffffffffffffffffffffffffffffffffffffffffffffffffffffff1916817bffffffffffffffffffffffffffffffffffffffffffffffffffffffff1916149150506140a3565b600190505b949350505050565b6000808273ffffffffffffffffffffffffffffffffffffffff163b119050919050565b8280546140da90615384565b90600052602060002090601f0160209004810192826140fc5760008555614143565b82601f1061411557805160ff1916838001178555614143565b82800160010185558215614143579182015b82811115614142578251825591602001919060010190614127565b5b5090506141509190614154565b5090565b5b8082111561416d576000816000905550600101614155565b5090565b600061418461417f84615147565b615122565b90508281526020810184848401111561419c57600080fd5b6141a7848285615342565b509392505050565b60006141c26141bd84615178565b615122565b9050828152602081018484840111156141da57600080fd5b6141e5848285615342565b509392505050565b6000813590506141fc81615af9565b92915050565b60008135905061421181615b10565b92915050565b60008135905061422681615b27565b92915050565b60008151905061423b81615b27565b92915050565b600082601f83011261425257600080fd5b8135614262848260208601614171565b91505092915050565b600082601f83011261427c57600080fd5b813561428c8482602086016141af565b91505092915050565b6000813590506142a481615b3e565b92915050565b6000813590506142b981615b55565b92915050565b6000602082840312156142d157600080fd5b60006142df848285016141ed565b91505092915050565b600080604083850312156142fb57600080fd5b6000614309858286016141ed565b925050602061431a858286016141ed565b9150509250929050565b60008060006060848603121561433957600080fd5b6000614347868287016141ed565b9350506020614358868287016141ed565b925050604061436986828701614295565b9150509250925092565b6000806000806080858703121561438957600080fd5b6000614397878288016141ed565b94505060206143a8878288016141ed565b93505060406143b987828801614295565b925050606085013567ffffffffffffffff8111156143d657600080fd5b6143e287828801614241565b91505092959194509250565b6000806040838503121561440157600080fd5b600061440f858286016141ed565b925050602061442085828601614202565b9150509250929050565b6000806040838503121561443d57600080fd5b600061444b858286016141ed565b925050602061445c85828601614295565b9150509250929050565b60006020828403121561447857600080fd5b600061448684828501614217565b91505092915050565b6000602082840312156144a157600080fd5b60006144af8482850161422c565b91505092915050565b6000602082840312156144ca57600080fd5b600082013567ffffffffffffffff8111156144e457600080fd5b6144f08482850161426b565b91505092915050565b60008060006060848603121561450e57600080fd5b600084013567ffffffffffffffff81111561452857600080fd5b6145348682870161426b565b935050602084013567ffffffffffffffff81111561455157600080fd5b61455d8682870161426b565b925050604061456e86828701614295565b9150509250925092565b60006020828403121561458a57600080fd5b600061459884828501614295565b91505092915050565b600080604083850312156145b457600080fd5b60006145c285828601614295565b92505060206145d385828601614202565b9150509250929050565b600080604083850312156145f057600080fd5b60006145fe85828601614295565b925050602061460f85828601614295565b9150509250929050565b60006020828403121561462b57600080fd5b6000614639848285016142aa565b91505092915050565b600061464e8383614669565b60208301905092915050565b614663816152c1565b82525050565b614672816152af565b82525050565b614681816152af565b82525050565b6000614692826151b9565b61469c81856151e7565b93506146a7836151a9565b8060005b838110156146d85781516146bf8882614642565b97506146ca836151da565b9250506001810190506146ab565b5085935050505092915050565b6146ee816152d3565b82525050565b60006146ff826151c4565b61470981856151f8565b9350614719818560208601615351565b6147228161549e565b840191505092915050565b6000614738826151cf565b6147428185615209565b9350614752818560208601615351565b61475b8161549e565b840191505092915050565b6000614771826151cf565b61477b818561521a565b935061478b818560208601615351565b80840191505092915050565b60006147a4600383615209565b91506147af826154af565b602082019050919050565b60006147c7603283615209565b91506147d2826154d8565b604082019050919050565b60006147ea600383615209565b91506147f582615527565b602082019050919050565b600061480d602583615209565b915061481882615550565b604082019050919050565b6000614830601c83615209565b915061483b8261559f565b602082019050919050565b6000614853601e83615209565b915061485e826155c8565b602082019050919050565b6000614876601783615209565b9150614881826155f1565b602082019050919050565b6000614899602483615209565b91506148a48261561a565b604082019050919050565b60006148bc600383615209565b91506148c782615669565b602082019050919050565b60006148df601983615209565b91506148ea82615692565b602082019050919050565b6000614902602c83615209565b915061490d826156bb565b604082019050919050565b6000614925600283615209565b91506149308261570a565b602082019050919050565b6000614948603883615209565b915061495382615733565b604082019050919050565b600061496b600283615209565b915061497682615782565b602082019050919050565b600061498e602a83615209565b9150614999826157ab565b604082019050919050565b60006149b1602983615209565b91506149bc826157fa565b604082019050919050565b60006149d4600283615209565b91506149df82615849565b602082019050919050565b60006149f7600283615209565b9150614a0282615872565b602082019050919050565b6000614a1a600383615209565b9150614a258261589b565b602082019050919050565b6000614a3d602083615209565b9150614a48826158c4565b602082019050919050565b6000614a60602c83615209565b9150614a6b826158ed565b604082019050919050565b6000614a83600283615209565b9150614a8e8261593c565b602082019050919050565b6000614aa6600283615209565b9150614ab182615965565b602082019050919050565b6000614ac9601983615209565b9150614ad48261598e565b602082019050919050565b6000614aec600383615209565b9150614af7826159b7565b602082019050919050565b6000614b0f602183615209565b9150614b1a826159e0565b604082019050919050565b6000614b32600383615209565b9150614b3d82615a2f565b602082019050919050565b6000614b55603183615209565b9150614b6082615a58565b604082019050919050565b6000614b78600283615209565b9150614b8382615aa7565b602082019050919050565b6000614b9b601383615209565b9150614ba682615ad0565b602082019050919050565b614bba8161532b565b82525050565b6000614bcc8284614766565b915081905092915050565b6000602082019050614bec6000830184614678565b92915050565b6000608082019050614c076000830187614678565b614c146020830186614678565b614c216040830185614bb1565b8181036060830152614c3381846146f4565b905095945050505050565b60006020820190508181036000830152614c588184614687565b905092915050565b6000602082019050614c7560008301846146e5565b92915050565b60006020820190508181036000830152614c95818461472d565b905092915050565b60006020820190508181036000830152614cb681614797565b9050919050565b60006020820190508181036000830152614cd6816147ba565b9050919050565b60006020820190508181036000830152614cf6816147dd565b9050919050565b60006020820190508181036000830152614d1681614800565b9050919050565b60006020820190508181036000830152614d3681614823565b9050919050565b60006020820190508181036000830152614d5681614846565b9050919050565b60006020820190508181036000830152614d7681614869565b9050919050565b60006020820190508181036000830152614d968161488c565b9050919050565b60006020820190508181036000830152614db6816148af565b9050919050565b60006020820190508181036000830152614dd6816148d2565b9050919050565b60006020820190508181036000830152614df6816148f5565b9050919050565b60006020820190508181036000830152614e1681614918565b9050919050565b60006020820190508181036000830152614e368161493b565b9050919050565b60006020820190508181036000830152614e568161495e565b9050919050565b60006020820190508181036000830152614e7681614981565b9050919050565b60006020820190508181036000830152614e96816149a4565b9050919050565b60006020820190508181036000830152614eb6816149c7565b9050919050565b60006020820190508181036000830152614ed6816149ea565b9050919050565b60006020820190508181036000830152614ef681614a0d565b9050919050565b60006020820190508181036000830152614f1681614a30565b9050919050565b60006020820190508181036000830152614f3681614a53565b9050919050565b60006020820190508181036000830152614f5681614a76565b9050919050565b60006020820190508181036000830152614f7681614a99565b9050919050565b60006020820190508181036000830152614f9681614abc565b9050919050565b60006020820190508181036000830152614fb681614adf565b9050919050565b60006020820190508181036000830152614fd681614b02565b9050919050565b60006020820190508181036000830152614ff681614b25565b9050919050565b6000602082019050818103600083015261501681614b48565b9050919050565b6000602082019050818103600083015261503681614b6b565b9050919050565b6000602082019050818103600083015261505681614b8e565b9050919050565b60006020820190506150726000830184614bb1565b92915050565b60006101408201905061508e600083018d614bb1565b81810360208301526150a0818c61472d565b905081810360408301526150b4818b61472d565b90506150c3606083018a61465a565b6150d0608083018961465a565b6150dd60a083018861465a565b6150ea60c0830187614bb1565b6150f760e0830186614bb1565b6151056101008301856146e5565b6151136101208301846146e5565b9b9a5050505050505050505050565b600061512c61513d565b905061513882826153b6565b919050565b6000604051905090565b600067ffffffffffffffff8211156151625761516161546f565b5b61516b8261549e565b9050602081019050919050565b600067ffffffffffffffff8211156151935761519261546f565b5b61519c8261549e565b9050602081019050919050565b6000819050602082019050919050565b600081519050919050565b600081519050919050565b600081519050919050565b6000602082019050919050565b600082825260208201905092915050565b600082825260208201905092915050565b600082825260208201905092915050565b600081905092915050565b60006152308261532b565b915061523b8361532b565b9250827fffffffffffffffffffffffffffffffffffffffffffffffffffffffffffffffff038211156152705761526f615411565b5b828201905092915050565b60006152868261532b565b91506152918361532b565b9250828210156152a4576152a3615411565b5b828203905092915050565b60006152ba8261530b565b9050919050565b60006152cc8261530b565b9050919050565b60008115159050919050565b60007fffffffff0000000000000000000000000000000000000000000000000000000082169050919050565b600073ffffffffffffffffffffffffffffffffffffffff82169050919050565b6000819050919050565b600060ff82169050919050565b82818337600083830152505050565b60005b8381101561536f578082015181840152602081019050615354565b8381111561537e576000848401525b50505050565b6000600282049050600182168061539c57607f821691505b602082108114156153b0576153af615440565b5b50919050565b6153bf8261549e565b810181811067ffffffffffffffff821117156153de576153dd61546f565b5b80604052505050565b60006153f282615335565b915060ff82141561540657615405615411565b5b600182019050919050565b7f4e487b7100000000000000000000000000000000000000000000000000000000600052601160045260246000fd5b7f4e487b7100000000000000000000000000000000000000000000000000000000600052602260045260246000fd5b7f4e487b7100000000000000000000000000000000000000000000000000000000600052604160045260246000fd5b6000601f19601f8301169050919050565b7f2d31330000000000000000000000000000000000000000000000000000000000600082015250565b7f4552433732313a207472616e7366657220746f206e6f6e20455243373231526560008201527f63656976657220696d706c656d656e7465720000000000000000000000000000602082015250565b7f2d31300000000000000000000000000000000000000000000000000000000000600082015250565b7f4552433732313a207472616e736665722066726f6d20696e636f72726563742060008201527f6f776e6572000000000000000000000000000000000000000000000000000000602082015250565b7f4552433732313a20746f6b656e20616c7265616479206d696e74656400000000600082015250565b7f466f722063616c6c65722065787065637465642062652063726561746f720000600082015250565b7f496e76616c69642063726561746f722061646472657373000000000000000000600082015250565b7f4552433732313a207472616e7366657220746f20746865207a65726f2061646460008201527f7265737300000000000000000000000000000000000000000000000000000000602082015250565b7f2d31350000000000000000000000000000000000000000000000000000000000600082015250565b7f4552433732313a20617070726f766520746f2063616c6c657200000000000000600082015250565b7f4552433732313a206f70657261746f7220717565727920666f72206e6f6e657860008201527f697374656e7420746f6b656e0000000000000000000000000000000000000000602082015250565b7f2d33000000000000000000000000000000000000000000000000000000000000600082015250565b7f4552433732313a20617070726f76652063616c6c6572206973206e6f74206f7760008201527f6e6572206e6f7220617070726f76656420666f7220616c6c0000000000000000602082015250565b7f2d34000000000000000000000000000000000000000000000000000000000000600082015250565b7f4552433732313a2062616c616e636520717565727920666f7220746865207a6560008201527f726f206164647265737300000000000000000000000000000000000000000000602082015250565b7f4552433732313a206f776e657220717565727920666f72206e6f6e657869737460008201527f656e7420746f6b656e0000000000000000000000000000000000000000000000602082015250565b7f2d31000000000000000000000000000000000000000000000000000000000000600082015250565b7f2d35000000000000000000000000000000000000000000000000000000000000600082015250565b7f2d31310000000000000000000000000000000000000000000000000000000000600082015250565b7f4552433732313a206d696e7420746f20746865207a65726f2061646472657373600082015250565b7f4552433732313a20617070726f76656420717565727920666f72206e6f6e657860008201527f697374656e7420746f6b656e0000000000000000000000000000000000000000602082015250565b7f2d36000000000000000000000000000000000000000000000000000000000000600082015250565b7f2d37000000000000000000000000000000000000000000000000000000000000600082015250565b7f4578706563746564206e6f6e2d7a65726f206164647265737300000000000000600082015250565b7f2d31320000000000000000000000000000000000000000000000000000000000600082015250565b7f4552433732313a20617070726f76616c20746f2063757272656e74206f776e6560008201527f7200000000000000000000000000000000000000000000000000000000000000602082015250565b7f2d31340000000000000000000000000000000000000000000000000000000000600082015250565b7f4552433732313a207472616e736665722063616c6c6572206973206e6f74206f60008201527f776e6572206e6f7220617070726f766564000000000000000000000000000000602082015250565b7f2d39000000000000000000000000000000000000000000000000000000000000600082015250565b7f41646d696e2067726f75702069732066756c6c00000000000000000000000000600082015250565b615b02816152af565b8114615b0d57600080fd5b50565b615b19816152d3565b8114615b2457600080fd5b50565b615b30816152df565b8114615b3b57600080fd5b50565b615b478161532b565b8114615b5257600080fd5b50565b615b5e81615335565b8114615b6957600080fd5b5056fea26469706673582212203dd4bf16e3f9239d5a9ef6185d3c15e887f2d16893620cea4dfbe1e13fd1e18264736f6c634300080400334f70656e636861696e205061776e696e67204e46547320436f6c6c656374696f6e",
  "immutableReferences": {},
  "source": "// SPDX-License-Identifier: MIT\npragma solidity ^0.8.0;\n\nimport \"@openzeppelin/contracts/utils/Counters.sol\";\nimport \"@openzeppelin/contracts/token/ERC721/ERC721.sol\";\nimport \"./AdministratedContract.sol\";\n\n  /*\n   * -2: mintPawnNFT(): Error: caller of zero address\n   * -3: Too small price\n   * -4: PawnNFTs.mintPawnNFT(): The token id already exists\n   * -5: PawnNFTs.mintPawnNFT(): The token URI already exists\n   * -6: PawnNFTs.mintPawnNFT(): The token name already exists\n   * -7: Invalid token id\n   * -8: buyToken(): Error: caller of zero address\n   * -9: buyToken(): The token id already exists\n   * -10: buyToken(): Error: token owner of zero address\n   * -11: buyToken(): Error: buyer is token owner\n   * -12: buyToken(): Not enough funds\n   * -13: buyToken(): Token should be for sale\n   * -14: PawnNFTs: transfer from incorrect owner\n   * -15: PawnNFTs: transfer to the zero address\n   * -16: \n   * -17: \n   * -18: \n   * -19: \n   * -20: \n   */\n\n// PawnNFTs smart contract inherits ERC721 interface\ncontract PawnNFTs is ERC721, AdministratedContract {\n\n  using Counters for Counters.Counter;\n\n  // this contract's token collection name\n  string public collectionName;\n  // this contract's token symbol\n  string public collectionNameSymbol;\n  // total number of pawning NFTs minted\n  Counters.Counter private pawnNFTCounter;\n\n  uint64          private minPnftPrice = 5000;\n\n  uint  public decimals = 0;\n  \n  // define pawning NFT struct\n  struct PawnNFT {\n    uint256 tokenId;\n    string tokenName;\n    string tokenURI;\n    address payable mintedBy;\n    address payable currentOwner;\n    address payable previousOwner;\n    uint256 price;\n    uint256 numberOfTransfers;\n    bool forSale;\n    bool mintedNativeToken;\n  }\n\n  // map pawnNft's token id to pawning NFT\n  mapping(uint256 => PawnNFT) public allPawnNFTs;\n  // \n  mapping(uint256 => string) public tokenURIs;\n  // check if token name exists\n  mapping(string => bool) public tokenNameExists;\n  // check if token URI exists\n  mapping(string => uint256) public tokenURIExists;\n\n  receive() external payable {}\n\n  // initialize contract while deployment with contract's collection name and token\n  constructor() ERC721(\"Openchain Pawning NFTs Collection\", \"PNFT\") {\n    collectionName = name();\n    collectionNameSymbol = symbol();\n  }\n\n  modifier onlyTokenOwner(uint256 _tokenId) virtual {\n    // check if the token id of the token being bought exists or not\n    require(_exists(_tokenId), \"-9\");\n    address tokenOwner = ownerOf(_tokenId);\n    // token's owner should not be an zero address account\n    require(tokenOwner != address(0), \"-10\");\n    // the one who wants to buy the token should not be the token's owner\n    require(tokenOwner == msg.sender, \"-11\");\n    _;\n  }\n\n  /**\n    * @dev Base URI for computing {tokenURI}. If set, the resulting URI for each\n    * token will be the concatenation of the `baseURI` and the `tokenId`. Empty\n    * by default, can be overriden in child contracts.\n    */\n  function tokenURI(uint256 tokenId) public view virtual override returns (string memory) {\n    require(_exists(tokenId), \"-1\");\n    // require(tokenURIs[tokenId] != 0, \"PawnNFTs: URI query for token without token URI\");\n    return tokenURIs[tokenId];\n  }\n  \n  function _setTokenURI(uint tokenId, string memory _tokenURI) internal {\n    tokenURIs[tokenId] = _tokenURI;\n  }\n\n  function totalSupply() public view returns(uint256) {\n    return pawnNFTCounter.current();\n  }\n\n  function setMinPnftPrice(uint8 _minPnftPrice) public \n  // onlyAdmin \n  {\n      minPnftPrice = _minPnftPrice;\n  }\n\n  // mint a new pawning NFT and return token ID\n  function mintPawnNFT(string memory _name, string memory _tokenURI, uint256 _price) external \n  onlyValidCaller returns(uint256) {\n    require(_price >= minPnftPrice, \"-3\");\n    // increment counter\n    pawnNFTCounter.increment();\n    uint256 newTokenID = pawnNFTCounter.current();\n    // check if a token exists with the above token id => incremented counter\n    require(!_exists(newTokenID), \"-4\");\n\n    // check if the token URI already exists or not\n    require(tokenURIExists[_tokenURI] == 0, \"-5\");\n    // check if the token name already exists or not\n    require(!tokenNameExists[_name], \"-6\");\n\n    // mint the token\n    _mint(msg.sender, newTokenID);\n    // set token URI (bind token id with the passed in token URI)\n    _setTokenURI(newTokenID, _tokenURI);\n\n    // make passed token URI as exists\n    tokenURIExists[_tokenURI] = newTokenID;\n    // make token name passed as exists\n    tokenNameExists[_name] = true;\n\n    // creat a new pawning NFT (struct) and pass in new values\n    PawnNFT memory newPawnNFT = PawnNFT(\n      newTokenID,\n      _name,\n      _tokenURI,\n      payable(msg.sender),\n      payable(msg.sender),\n      payable(address(0)),\n      _price,\n      0,\n      true,\n      false // mintedNativeToken\n    );\n    // add the token id and it's pawning NFT to all pawning NFTs mapping\n    allPawnNFTs[newTokenID] = newPawnNFT;\n    return newTokenID;\n  }\n\n  // get owner of the token\n  function getTokenOwner(uint256 _tokenId) public view returns(address) {\n    return ownerOf(_tokenId);\n  }\n\n  // get metadata of the token\n  function getTokenMetaData(uint _tokenId) public view \n  returns(string memory tokenMetaData) {\n    tokenMetaData = tokenURI(_tokenId);\n  }\n\n  function setMintedNativeToken(uint256 _tokenId, bool _mintedNativeToken) public {\n    require(allPawnNFTs[_tokenId].tokenId > 0, \"-7\");\n    allPawnNFTs[_tokenId].mintedNativeToken = _mintedNativeToken;\n  }\n\n  // get total number of tokens minted so far\n  function getNumberOfTokensMinted() public view \n  returns(uint256 totalNumberOfTokensMinted) {\n    totalNumberOfTokensMinted = totalSupply();\n  }\n\n  // get total number of tokens owned by an address\n  function getTotalNumberOfTokensOwnedByAnAddress(address _owner) public view \n  returns(uint256 totalNumberOfTokensOwned) {\n    totalNumberOfTokensOwned = balanceOf(_owner);\n  }\n\n  // check if the token already exists\n  function getTokenExists(uint256 _tokenId) public view returns(bool) {\n    bool tokenExists = _exists(_tokenId);\n    return tokenExists;\n  }\n\n  // by a token by passing in the token's id\n  function buyToken(uint256 _tokenId) public payable \n  onlyValidCaller onlyTokenOwner(_tokenId) {\n    // get that token from all pawning NFTs mapping and create a memory of it defined as (struct => PawnNFT)\n    PawnNFT memory pawnNft = allPawnNFTs[_tokenId];\n    // price sent in to buy should be equal to or more than the token's price\n    require(msg.value >= pawnNft.price, \"-12\");\n    // token should be for sale\n    require(pawnNft.forSale, \"-13\");\n    // transfer the token from owner to the caller of the function (buyer)\n    address tokenOwner = ownerOf(_tokenId);\n    _transfer(tokenOwner, msg.sender, _tokenId);\n    // get owner of the token\n    address payable sendTo = pawnNft.currentOwner;\n    // send token's worth of ethers to the owner\n    sendTo.transfer(msg.value);\n    // update the token's previous owner\n    pawnNft.previousOwner = pawnNft.currentOwner;\n    // update the token's current owner\n    pawnNft.currentOwner = payable(msg.sender);\n    // update the how many times this token was transfered\n    pawnNft.numberOfTransfers += 1;\n    // set and update that token in the mapping\n    allPawnNFTs[_tokenId] = pawnNft;\n  }\n\n  function _afterTokenTransfer(\n      address /*from*/,\n      address to,\n      uint256 tokenId\n  ) internal virtual override {\n    // Now the owner of the token ID is \"to\"\n    require(ERC721.ownerOf(tokenId) == to, \"-14\");\n    require(to != address(0), \"-15\");\n\n    // update token's owner\n    PawnNFT memory pawnNft = allPawnNFTs[tokenId];\n    // update the token's previous owner\n    pawnNft.previousOwner = pawnNft.currentOwner;\n    // update the token's current owner\n    pawnNft.currentOwner = payable(to);\n    // set and update that token in the mapping\n    allPawnNFTs[tokenId] = pawnNft;\n  }\n\n  function changeTokenPrice(uint256 _tokenId, uint256 _newPrice) public \n  onlyValidCaller onlyTokenOwner(_tokenId) {\n    // get that token from all pawning NFTs mapping and create a memory of it defined as (struct => PawnNFT)\n    PawnNFT memory pawnNft = allPawnNFTs[_tokenId];\n    // update token's price with new price\n    pawnNft.price = _newPrice;\n    // set and update that token in the mapping\n    allPawnNFTs[_tokenId] = pawnNft;\n  }\n\n  // switch between set for sale and set not for sale\n  function toggleForSale(uint256 _tokenId) public \n  onlyValidCaller onlyTokenOwner(_tokenId) {\n    // get that token from all pawning NFTs mapping and create a memory of it defined as (struct => PawnNFT)\n    PawnNFT memory pawnNft = allPawnNFTs[_tokenId];\n    // if token's forSale is false make it true and vice versa\n    if(pawnNft.forSale) {\n      pawnNft.forSale = false;\n    } else {\n      pawnNft.forSale = true;\n    }\n    // set and update that token in the mapping\n    allPawnNFTs[_tokenId] = pawnNft;\n  }\n}\n",
  "sourcePath": "/home/cowboy/OpenchainTestVersion/server/contracts/PawnNFTs.sol",
  "compiler": {
    "name": "solc",
    "version": "0.8.4+commit.c7e474f2.Emscripten.clang"
  },
  "schemaVersion": "3.4.6",
  "updatedAt": "2022-04-13T11:34:58.480Z",
  "networkType": "ethereum",
  "devdoc": {
    "kind": "dev",
    "methods": {
      "approve(address,uint256)": {
        "details": "See {IERC721-approve}."
      },
      "balanceOf(address)": {
        "details": "See {IERC721-balanceOf}."
      },
      "getApproved(uint256)": {
        "details": "See {IERC721-getApproved}."
      },
      "isApprovedForAll(address,address)": {
        "details": "See {IERC721-isApprovedForAll}."
      },
      "name()": {
        "details": "See {IERC721Metadata-name}."
      },
      "ownerOf(uint256)": {
        "details": "See {IERC721-ownerOf}."
      },
      "safeTransferFrom(address,address,uint256)": {
        "details": "See {IERC721-safeTransferFrom}."
      },
      "safeTransferFrom(address,address,uint256,bytes)": {
        "details": "See {IERC721-safeTransferFrom}."
      },
      "setApprovalForAll(address,bool)": {
        "details": "See {IERC721-setApprovalForAll}."
      },
      "supportsInterface(bytes4)": {
        "details": "See {IERC165-supportsInterface}."
      },
      "symbol()": {
        "details": "See {IERC721Metadata-symbol}."
      },
      "tokenURI(uint256)": {
        "details": "Base URI for computing {tokenURI}. If set, the resulting URI for each token will be the concatenation of the `baseURI` and the `tokenId`. Empty by default, can be overriden in child contracts."
      },
      "transferFrom(address,address,uint256)": {
        "details": "See {IERC721-transferFrom}."
      }
    },
    "version": 1
  },
  "userdoc": {
    "kind": "user",
    "methods": {},
    "version": 1
  }
}