{
  "contractName": "PawningContract",
  "abi": [
    {
      "inputs": [],
      "stateMutability": "nonpayable",
      "type": "constructor"
    },
    {
      "anonymous": false,
      "inputs": [
        {
          "indexed": true,
          "internalType": "uint256",
          "name": "itemId",
          "type": "uint256"
        },
        {
          "indexed": false,
          "internalType": "address",
          "name": "owner",
          "type": "address"
        }
      ],
      "name": "ItemPawned",
      "type": "event"
    },
    {
      "anonymous": false,
      "inputs": [
        {
          "indexed": true,
          "internalType": "uint256",
          "name": "itemId",
          "type": "uint256"
        },
        {
          "indexed": true,
          "internalType": "address",
          "name": "nftContract",
          "type": "address"
        },
        {
          "indexed": true,
          "internalType": "uint256",
          "name": "tokenId",
          "type": "uint256"
        },
        {
          "indexed": false,
          "internalType": "address",
          "name": "pawnee",
          "type": "address"
        },
        {
          "indexed": false,
          "internalType": "address",
          "name": "owner",
          "type": "address"
        },
        {
          "indexed": false,
          "internalType": "uint256",
          "name": "price",
          "type": "uint256"
        },
        {
          "indexed": false,
          "internalType": "bool",
          "name": "pawned",
          "type": "bool"
        }
      ],
      "name": "PawningItemCreated",
      "type": "event"
    },
    {
      "inputs": [],
      "name": "owner",
      "outputs": [
        {
          "internalType": "address",
          "name": "",
          "type": "address"
        }
      ],
      "stateMutability": "view",
      "type": "function"
    },
    {
      "stateMutability": "payable",
      "type": "receive"
    },
    {
      "inputs": [
        {
          "internalType": "address",
          "name": "nftContract",
          "type": "address"
        },
        {
          "internalType": "uint256",
          "name": "tokenId",
          "type": "uint256"
        },
        {
          "internalType": "uint256",
          "name": "price",
          "type": "uint256"
        }
      ],
      "name": "createPawningItem",
      "outputs": [],
      "stateMutability": "payable",
      "type": "function"
    },
    {
      "inputs": [
        {
          "internalType": "address",
          "name": "nftContract",
          "type": "address"
        },
        {
          "internalType": "uint256",
          "name": "itemId",
          "type": "uint256"
        }
      ],
      "name": "createMarketSale",
      "outputs": [],
      "stateMutability": "payable",
      "type": "function"
    },
    {
      "inputs": [],
      "name": "fetchPawningItems",
      "outputs": [
        {
          "components": [
            {
              "internalType": "uint256",
              "name": "itemId",
              "type": "uint256"
            },
            {
              "internalType": "address",
              "name": "nftContract",
              "type": "address"
            },
            {
              "internalType": "uint256",
              "name": "tokenId",
              "type": "uint256"
            },
            {
              "internalType": "address payable",
              "name": "pawnee",
              "type": "address"
            },
            {
              "internalType": "address payable",
              "name": "owner",
              "type": "address"
            },
            {
              "internalType": "uint256",
              "name": "price",
              "type": "uint256"
            },
            {
              "internalType": "bool",
              "name": "pawned",
              "type": "bool"
            }
          ],
          "internalType": "struct PawningContract.PawningItem[]",
          "name": "",
          "type": "tuple[]"
        }
      ],
      "stateMutability": "view",
      "type": "function"
    }
  ],
  "bytecode": "0x608060405234801561001057600080fd5b50600160008190555033600360006101000a81548173ffffffffffffffffffffffffffffffffffffffff021916908373ffffffffffffffffffffffffffffffffffffffff160217905550611190806100696000396000f3fe6080604052600436106100435760003560e01c806331da56851461004f5780638da5cb5b1461006b578063c23b139e14610096578063d2ae13bf146100b25761004a565b3661004a57005b600080fd5b61006960048036038101906100649190610b3b565b6100dd565b005b34801561007757600080fd5b506100806103fd565b60405161008d9190610d83565b60405180910390f35b6100b060048036038101906100ab9190610aff565b610423565b005b3480156100be57600080fd5b506100c761071a565b6040516100d49190610e1a565b60405180910390f35b60026000541415610123576040517f08c379a000000000000000000000000000000000000000000000000000000000815260040161011a90610e7c565b60405180910390fd5b60026000819055506000811161016e576040517f08c379a000000000000000000000000000000000000000000000000000000000815260040161016590610e9c565b60405180910390fd5b6101786001610a30565b60006101846001610a46565b90506040518060e001604052808281526020018573ffffffffffffffffffffffffffffffffffffffff1681526020018481526020013373ffffffffffffffffffffffffffffffffffffffff168152602001600073ffffffffffffffffffffffffffffffffffffffff16815260200183815260200160001515815250600460008381526020019081526020016000206000820151816000015560208201518160010160006101000a81548173ffffffffffffffffffffffffffffffffffffffff021916908373ffffffffffffffffffffffffffffffffffffffff1602179055506040820151816002015560608201518160030160006101000a81548173ffffffffffffffffffffffffffffffffffffffff021916908373ffffffffffffffffffffffffffffffffffffffff16021790555060808201518160040160006101000a81548173ffffffffffffffffffffffffffffffffffffffff021916908373ffffffffffffffffffffffffffffffffffffffff16021790555060a0820151816005015560c08201518160060160006101000a81548160ff0219169083151502179055509050508373ffffffffffffffffffffffffffffffffffffffff166323b872dd3330866040518463ffffffff1660e01b815260040161036593929190610d9e565b600060405180830381600087803b15801561037f57600080fd5b505af1158015610393573d6000803e3d6000fd5b50505050828473ffffffffffffffffffffffffffffffffffffffff16827fd030f8e94b446f830dc7f68054772cf676d3b3ea4773b84f4298ff75dda6acd03360008760006040516103e79493929190610dd5565b60405180910390a4506001600081905550505050565b600360009054906101000a900473ffffffffffffffffffffffffffffffffffffffff1681565b60026000541415610469576040517f08c379a000000000000000000000000000000000000000000000000000000000815260040161046090610e7c565b60405180910390fd5b600260008190555060006004600083815260200190815260200160002060050154905060006004600084815260200190815260200160002060020154905060006004600085815260200190815260200160002060060160009054906101000a900460ff169050823414610511576040517f08c379a000000000000000000000000000000000000000000000000000000000815260040161050890610e3c565b60405180910390fd5b600115158115151415610559576040517f08c379a000000000000000000000000000000000000000000000000000000000815260040161055090610e5c565b60405180910390fd5b837f42121e7bd0df4c5832ab1ed56664110b656515d84ce4dc47941764c7b281203d336040516105899190610d83565b60405180910390a26004600085815260200190815260200160002060030160009054906101000a900473ffffffffffffffffffffffffffffffffffffffff1673ffffffffffffffffffffffffffffffffffffffff166108fc349081150290604051600060405180830381858888f1935050505015801561060d573d6000803e3d6000fd5b508473ffffffffffffffffffffffffffffffffffffffff166323b872dd3033856040518463ffffffff1660e01b815260040161064b93929190610d9e565b600060405180830381600087803b15801561066557600080fd5b505af1158015610679573d6000803e3d6000fd5b50505050336004600086815260200190815260200160002060040160006101000a81548173ffffffffffffffffffffffffffffffffffffffff021916908373ffffffffffffffffffffffffffffffffffffffff1602179055506106dc6002610a30565b60016004600086815260200190815260200160002060060160006101000a81548160ff02191690831515021790555050505060016000819055505050565b606060006107286001610a46565b905060006107366002610a46565b6107406001610a46565b61074a9190610f5c565b90506000808267ffffffffffffffff81111561078f577f4e487b7100000000000000000000000000000000000000000000000000000000600052604160045260246000fd5b6040519080825280602002602001820160405280156107c857816020015b6107b5610a54565b8152602001906001900390816107ad5790505b50905060005b84811015610a2557600073ffffffffffffffffffffffffffffffffffffffff16600460006001846107ff9190610f06565b815260200190815260200160002060040160009054906101000a900473ffffffffffffffffffffffffffffffffffffffff1673ffffffffffffffffffffffffffffffffffffffff161415610a1257600060018261085c9190610f06565b90506000600460008381526020019081526020016000209050806040518060e0016040529081600082015481526020016001820160009054906101000a900473ffffffffffffffffffffffffffffffffffffffff1673ffffffffffffffffffffffffffffffffffffffff1673ffffffffffffffffffffffffffffffffffffffff168152602001600282015481526020016003820160009054906101000a900473ffffffffffffffffffffffffffffffffffffffff1673ffffffffffffffffffffffffffffffffffffffff1673ffffffffffffffffffffffffffffffffffffffff1681526020016004820160009054906101000a900473ffffffffffffffffffffffffffffffffffffffff1673ffffffffffffffffffffffffffffffffffffffff1673ffffffffffffffffffffffffffffffffffffffff168152602001600582015481526020016006820160009054906101000a900460ff1615151515815250508486815181106109f5577f4e487b7100000000000000000000000000000000000000000000000000000000600052603260045260246000fd5b6020026020010181905250600185610a0d9190610f06565b945050505b8080610a1d90610fea565b9150506107ce565b508094505050505090565b6001816000016000828254019250508190555050565b600081600001549050919050565b6040518060e0016040528060008152602001600073ffffffffffffffffffffffffffffffffffffffff16815260200160008152602001600073ffffffffffffffffffffffffffffffffffffffff168152602001600073ffffffffffffffffffffffffffffffffffffffff168152602001600081526020016000151581525090565b600081359050610ae48161112c565b92915050565b600081359050610af981611143565b92915050565b60008060408385031215610b1257600080fd5b6000610b2085828601610ad5565b9250506020610b3185828601610aea565b9150509250929050565b600080600060608486031215610b5057600080fd5b6000610b5e86828701610ad5565b9350506020610b6f86828701610aea565b9250506040610b8086828701610aea565b9150509250925092565b6000610b968383610cd7565b60e08301905092915050565b610bab81610fa2565b82525050565b610bba81610f90565b82525050565b610bc981610f90565b82525050565b6000610bda82610ecc565b610be48185610ee4565b9350610bef83610ebc565b8060005b83811015610c20578151610c078882610b8a565b9750610c1283610ed7565b925050600181019050610bf3565b5085935050505092915050565b610c3681610fb4565b82525050565b610c4581610fb4565b82525050565b6000610c58604083610ef5565b9150610c6382611062565b604082019050919050565b6000610c7b601e83610ef5565b9150610c86826110b1565b602082019050919050565b6000610c9e601f83610ef5565b9150610ca9826110da565b602082019050919050565b6000610cc1601c83610ef5565b9150610ccc82611103565b602082019050919050565b60e082016000820151610ced6000850182610d65565b506020820151610d006020850182610bb1565b506040820151610d136040850182610d65565b506060820151610d266060850182610ba2565b506080820151610d396080850182610ba2565b5060a0820151610d4c60a0850182610d65565b5060c0820151610d5f60c0850182610c2d565b50505050565b610d6e81610fe0565b82525050565b610d7d81610fe0565b82525050565b6000602082019050610d986000830184610bc0565b92915050565b6000606082019050610db36000830186610bc0565b610dc06020830185610bc0565b610dcd6040830184610d74565b949350505050565b6000608082019050610dea6000830187610bc0565b610df76020830186610bc0565b610e046040830185610d74565b610e116060830184610c3c565b95945050505050565b60006020820190508181036000830152610e348184610bcf565b905092915050565b60006020820190508181036000830152610e5581610c4b565b9050919050565b60006020820190508181036000830152610e7581610c6e565b9050919050565b60006020820190508181036000830152610e9581610c91565b9050919050565b60006020820190508181036000830152610eb581610cb4565b9050919050565b6000819050602082019050919050565b600081519050919050565b6000602082019050919050565b600082825260208201905092915050565b600082825260208201905092915050565b6000610f1182610fe0565b9150610f1c83610fe0565b9250827fffffffffffffffffffffffffffffffffffffffffffffffffffffffffffffffff03821115610f5157610f50611033565b5b828201905092915050565b6000610f6782610fe0565b9150610f7283610fe0565b925082821015610f8557610f84611033565b5b828203905092915050565b6000610f9b82610fc0565b9050919050565b6000610fad82610fc0565b9050919050565b60008115159050919050565b600073ffffffffffffffffffffffffffffffffffffffff82169050919050565b6000819050919050565b6000610ff582610fe0565b91507fffffffffffffffffffffffffffffffffffffffffffffffffffffffffffffffff82141561102857611027611033565b5b600182019050919050565b7f4e487b7100000000000000000000000000000000000000000000000000000000600052601160045260246000fd5b7f506c65617365207375626d6974207468652061736b696e67207072696365206960008201527f6e206f7264657220746f20636f6d706c65746520746865207075726368617365602082015250565b7f546869732053616c652068617320616c726564792066696e6e69736865640000600082015250565b7f5265656e7472616e637947756172643a207265656e7472616e742063616c6c00600082015250565b7f5072696365206d7573742062652067726561746572207468616e203000000000600082015250565b61113581610f90565b811461114057600080fd5b50565b61114c81610fe0565b811461115757600080fd5b5056fea26469706673582212208dc98b855a8cacfe83fadac64d7ffc7cf6cbdc710b816a1dc508ee7c9d1abcb764736f6c63430008040033",
  "immutableReferences": {},
  "source": "// SPDX-License-Identifier: MIT\npragma solidity ^0.8.0;\n\nimport \"@openzeppelin/contracts/utils/Counters.sol\";\nimport \"@openzeppelin/contracts/token/ERC721/ERC721.sol\";\nimport \"@openzeppelin/contracts/security/ReentrancyGuard.sol\";\n\ncontract PawningContract is ReentrancyGuard {\n    \n    using Counters for Counters.Counter;\n    Counters.Counter private _itemIds;\n    Counters.Counter private _itemsPawned;\n    \n    address public owner;\n    \n    receive() external payable {}\n\n    constructor() {\n        owner = msg.sender;\n    }\n    \n    struct PawningItem {\n        uint itemId;\n        address nftContract;\n        uint256 tokenId;\n        address payable pawnee;\n        address payable owner;\n        uint256 price;\n        bool pawned;\n    }\n\n    mapping(uint256 => PawningItem) private idToPawningItem;\n\n    event PawningItemCreated (\n        uint indexed itemId,\n        address indexed nftContract,\n        uint256 indexed tokenId,\n        address pawnee,\n        address owner,\n        uint256 price,\n        bool pawned\n    );\n\n    event ItemPawned (\n        uint indexed itemId,\n        address owner\n    );\n\n    function createPawningItem(\n        address nftContract,\n        uint256 tokenId,\n        uint256 price\n    ) public payable nonReentrant {\n        require(price > 0, \"Price must be greater than 0\");\n\n        _itemIds.increment();\n        uint256 itemId = _itemIds.current();\n\n        idToPawningItem[itemId] =  PawningItem(\n            itemId,\n            nftContract,\n            tokenId,\n            payable(msg.sender),\n            payable(address(0)),\n            price,\n            false\n        );\n\n        IERC721(nftContract).transferFrom(msg.sender, address(this), tokenId);\n\n        emit PawningItemCreated(\n            itemId,\n            nftContract,\n            tokenId,\n            msg.sender,\n            address(0),\n            price,\n            false\n        );\n    }\n\n    function createMarketSale(\n        address nftContract,\n        uint256 itemId\n    ) public payable nonReentrant {\n        uint price = idToPawningItem[itemId].price;\n        uint tokenId = idToPawningItem[itemId].tokenId;\n        bool pawned = idToPawningItem[itemId].pawned;\n        require(msg.value == price, \"Please submit the asking price in order to complete the purchase\");\n        require(pawned != true, \"This Sale has alredy finnished\");\n        emit ItemPawned(\n            itemId,\n            msg.sender\n        );\n\n        idToPawningItem[itemId].pawnee.transfer(msg.value);\n        IERC721(nftContract).transferFrom(address(this), msg.sender, tokenId);\n        idToPawningItem[itemId].owner = payable(msg.sender);\n        _itemsPawned.increment();\n        idToPawningItem[itemId].pawned = true;\n    }\n\n    function fetchPawningItems() public view returns (PawningItem[] memory) {\n        uint itemCount = _itemIds.current();\n        uint unpawnedItemCount = _itemIds.current() - _itemsPawned.current();\n        uint currentIndex = 0;\n\n        PawningItem[] memory items = new PawningItem[](unpawnedItemCount);\n        for (uint i = 0; i < itemCount; i++) {\n            if (idToPawningItem[i + 1].owner == address(0)) {\n                uint currentId = i + 1;\n                PawningItem storage currentItem = idToPawningItem[currentId];\n                items[currentIndex] = currentItem;\n                currentIndex += 1;\n            }\n        }\n        return items;\n    }\n}\n",
  "sourcePath": "/home/vn/MyProjects/OpenchainDex/OpenchainTestVersion/server/contracts/PawningContract.sol",
  "compiler": {
    "name": "solc",
    "version": "0.8.4+commit.c7e474f2.Emscripten.clang"
  },
  "schemaVersion": "3.4.4",
  "updatedAt": "2022-03-23T00:44:10.444Z",
  "devdoc": {
    "kind": "dev",
    "methods": {},
    "version": 1
  },
  "userdoc": {
    "kind": "user",
    "methods": {},
    "version": 1
  }
}