{
  "contractName": "PawnExchange",
  "abi": [
    {
      "inputs": [],
      "stateMutability": "nonpayable",
      "type": "constructor"
    },
    {
      "anonymous": false,
      "inputs": [
        {
          "indexed": false,
          "internalType": "uint256",
          "name": "realPrice",
          "type": "uint256"
        },
        {
          "indexed": false,
          "internalType": "uint256",
          "name": "fee",
          "type": "uint256"
        }
      ],
      "name": "SwappedToOcat",
      "type": "event"
    },
    {
      "inputs": [
        {
          "internalType": "address",
          "name": "_admin",
          "type": "address"
        }
      ],
      "name": "addAdmin",
      "outputs": [],
      "stateMutability": "nonpayable",
      "type": "function"
    },
    {
      "inputs": [],
      "name": "getAdmins",
      "outputs": [
        {
          "internalType": "address[]",
          "name": "",
          "type": "address[]"
        }
      ],
      "stateMutability": "view",
      "type": "function",
      "constant": true
    },
    {
      "inputs": [
        {
          "internalType": "address payable",
          "name": "",
          "type": "address"
        },
        {
          "internalType": "address payable",
          "name": "",
          "type": "address"
        },
        {
          "internalType": "uint256",
          "name": "",
          "type": "uint256"
        },
        {
          "internalType": "bytes",
          "name": "",
          "type": "bytes"
        }
      ],
      "name": "onERC721Received",
      "outputs": [
        {
          "internalType": "bytes4",
          "name": "",
          "type": "bytes4"
        }
      ],
      "stateMutability": "pure",
      "type": "function",
      "constant": true
    },
    {
      "inputs": [
        {
          "internalType": "address payable",
          "name": "_pnftAddress",
          "type": "address"
        }
      ],
      "name": "setPnftAddress",
      "outputs": [],
      "stateMutability": "nonpayable",
      "type": "function"
    },
    {
      "inputs": [
        {
          "internalType": "address payable",
          "name": "_ocatAddress",
          "type": "address"
        }
      ],
      "name": "setOcatAddress",
      "outputs": [],
      "stateMutability": "nonpayable",
      "type": "function"
    },
    {
      "inputs": [
        {
          "internalType": "address payable",
          "name": "_feeManager",
          "type": "address"
        }
      ],
      "name": "setFeeManager",
      "outputs": [],
      "stateMutability": "nonpayable",
      "type": "function"
    },
    {
      "inputs": [
        {
          "internalType": "uint8",
          "name": "_minPnftPrice",
          "type": "uint8"
        }
      ],
      "name": "setMinPnftPrice",
      "outputs": [],
      "stateMutability": "nonpayable",
      "type": "function"
    },
    {
      "inputs": [
        {
          "internalType": "enum FeeType",
          "name": "feeType",
          "type": "uint8"
        },
        {
          "internalType": "uint32",
          "name": "feeValue",
          "type": "uint32"
        }
      ],
      "name": "setFee",
      "outputs": [],
      "stateMutability": "nonpayable",
      "type": "function"
    },
    {
      "inputs": [
        {
          "internalType": "enum FeeType",
          "name": "feeType",
          "type": "uint8"
        }
      ],
      "name": "getFee",
      "outputs": [
        {
          "internalType": "uint32",
          "name": "",
          "type": "uint32"
        }
      ],
      "stateMutability": "view",
      "type": "function",
      "constant": true
    },
    {
      "inputs": [
        {
          "internalType": "uint256",
          "name": "nftID",
          "type": "uint256"
        }
      ],
      "name": "exchangeToOcat",
      "outputs": [
        {
          "internalType": "uint256",
          "name": "",
          "type": "uint256"
        },
        {
          "internalType": "uint256",
          "name": "",
          "type": "uint256"
        }
      ],
      "stateMutability": "nonpayable",
      "type": "function"
    },
    {
      "inputs": [
        {
          "internalType": "uint256",
          "name": "nftID",
          "type": "uint256"
        }
      ],
      "name": "exchangeFromOcat",
      "outputs": [],
      "stateMutability": "nonpayable",
      "type": "function"
    }
  ],
  "bytecode": "0x60806040526004600660006101000a81548160ff021916908360ff160217905550611388600860006101000a81548167ffffffffffffffff021916908367ffffffffffffffff1602179055503480156200005857600080fd5b5033600160006101000a81548173ffffffffffffffffffffffffffffffffffffffff021916908373ffffffffffffffffffffffffffffffffffffffff16021790555033600160006101000a81548173ffffffffffffffffffffffffffffffffffffffff021916908373ffffffffffffffffffffffffffffffffffffffff1602179055506032600760008060018111156200011b577f4e487b7100000000000000000000000000000000000000000000000000000000600052602160045260246000fd5b600181111562000154577f4e487b7100000000000000000000000000000000000000000000000000000000600052602160045260246000fd5b815260200190815260200160002060006101000a81548163ffffffff021916908363ffffffff160217905550603260076000600180811115620001c0577f4e487b7100000000000000000000000000000000000000000000000000000000600052602160045260246000fd5b6001811115620001f9577f4e487b7100000000000000000000000000000000000000000000000000000000600052602160045260246000fd5b815260200190815260200160002060006101000a81548163ffffffff021916908363ffffffff1602179055506001600581905550613258806200023d6000396000f3fe608060405234801561001057600080fd5b50600436106100a95760003560e01c806331ae450b1161007157806331ae450b14610177578063378321eb14610195578063472d35b9146101b157806370480275146101cd578063b18d30a2146101e9578063f3ac38b714610205576100a9565b806305c9399c146100ae578063083132c4146100ca57806313ad82da146100fa578063150b7a021461012b57806315f03d221461015b575b600080fd5b6100c860048036038101906100c391906121e0565b610221565b005b6100e460048036038101906100df91906121b7565b610444565b6040516100f19190612989565b60405180910390f35b610114600480360381019061010f919061221c565b61060d565b604051610122929190612960565b60405180910390f35b6101456004803603810190610140919061210e565b610e55565b6040516101529190612741565b60405180910390f35b610175600480360381019061017091906120e5565b610e6a565b005b61017f611121565b60405161018c919061271f565b60405180910390f35b6101af60048036038101906101aa919061221c565b6111af565b005b6101cb60048036038101906101c691906120e5565b611516565b005b6101e760048036038101906101e291906120bc565b6116ee565b005b61020360048036038101906101fe91906120e5565b6119b1565b005b61021f600480360381019061021a9190612379565b611c68565b005b600073ffffffffffffffffffffffffffffffffffffffff163373ffffffffffffffffffffffffffffffffffffffff161415610291576040517f08c379a00000000000000000000000000000000000000000000000000000000081526004016102889061279c565b60405180910390fd5b6000805b6000805490508160ff16101561035c5760008160ff16815481106102e2577f4e487b7100000000000000000000000000000000000000000000000000000000600052603260045260246000fd5b9060005260206000200160009054906101000a900473ffffffffffffffffffffffffffffffffffffffff1673ffffffffffffffffffffffffffffffffffffffff163373ffffffffffffffffffffffffffffffffffffffff161415610349576001915061035c565b808061035490612d91565b915050610295565b508061039d576040517f08c379a0000000000000000000000000000000000000000000000000000000008152600401610394906128bc565b60405180910390fd5b81600760008560018111156103db577f4e487b7100000000000000000000000000000000000000000000000000000000600052602160045260246000fd5b6001811115610413577f4e487b7100000000000000000000000000000000000000000000000000000000600052602160045260246000fd5b815260200190815260200160002060006101000a81548163ffffffff021916908363ffffffff160217905550505050565b600080600181111561047f577f4e487b7100000000000000000000000000000000000000000000000000000000600052602160045260246000fd5b8260018111156104b8577f4e487b7100000000000000000000000000000000000000000000000000000000600052602160045260246000fd5b148061053357506001808111156104f8577f4e487b7100000000000000000000000000000000000000000000000000000000600052602160045260246000fd5b826001811115610531577f4e487b7100000000000000000000000000000000000000000000000000000000600052602160045260246000fd5b145b610572576040517f08c379a0000000000000000000000000000000000000000000000000000000008152600401610569906127bc565b60405180910390fd5b600760008360018111156105af577f4e487b7100000000000000000000000000000000000000000000000000000000600052602160045260246000fd5b60018111156105e7577f4e487b7100000000000000000000000000000000000000000000000000000000600052602160045260246000fd5b815260200190815260200160002060009054906101000a900463ffffffff169050919050565b6000808260008111610654576040517f08c379a000000000000000000000000000000000000000000000000000000000815260040161064b906127fc565b60405180910390fd5b3073ffffffffffffffffffffffffffffffffffffffff163373ffffffffffffffffffffffffffffffffffffffff1614156106c3576040517f08c379a00000000000000000000000000000000000000000000000000000000081526004016106ba9061275c565b60405180910390fd5b600073ffffffffffffffffffffffffffffffffffffffff163373ffffffffffffffffffffffffffffffffffffffff161415610733576040517f08c379a000000000000000000000000000000000000000000000000000000000815260040161072a906128dc565b60405180910390fd5b6000806000600260009054906101000a900473ffffffffffffffffffffffffffffffffffffffff1673ffffffffffffffffffffffffffffffffffffffff1663717947b1886040518263ffffffff1660e01b8152600401610793919061291c565b60006040518083038186803b1580156107ab57600080fd5b505afa1580156107bf573d6000803e3d6000fd5b505050506040513d6000823e3d601f19601f820116820180604052508101906107e8919061226e565b995050509750509650505050503373ffffffffffffffffffffffffffffffffffffffff168373ffffffffffffffffffffffffffffffffffffffff1614610863576040517f08c379a000000000000000000000000000000000000000000000000000000000815260040161085a9061287c565b60405180910390fd5b600860009054906101000a900467ffffffffffffffff1667ffffffffffffffff168210156108c6576040517f08c379a00000000000000000000000000000000000000000000000000000000081526004016108bd9061281c565b60405180910390fd5b60006005541161090b576040517f08c379a0000000000000000000000000000000000000000000000000000000008152600401610902906127dc565b60405180910390fd5b60008260055461091b9190612bfc565b90506000600660009054906101000a900460ff16600a61093b9190612ade565b60076000806001811115610978577f4e487b7100000000000000000000000000000000000000000000000000000000600052602160045260246000fd5b60018111156109b0577f4e487b7100000000000000000000000000000000000000000000000000000000600052602160045260246000fd5b815260200190815260200160002060009054906101000a900463ffffffff1663ffffffff16836109e09190612bfc565b6109ea9190612a5a565b9050600081836109fa9190612c56565b905083610b2557600360009054906101000a900473ffffffffffffffffffffffffffffffffffffffff1673ffffffffffffffffffffffffffffffffffffffff166340c10f1930856040518363ffffffff1660e01b8152600401610a5e9291906126f6565b600060405180830381600087803b158015610a7857600080fd5b505af1158015610a8c573d6000803e3d6000fd5b50505050600260009054906101000a900473ffffffffffffffffffffffffffffffffffffffff1673ffffffffffffffffffffffffffffffffffffffff1663d81bcb2d8b60016040518363ffffffff1660e01b8152600401610aee929190612937565b600060405180830381600087803b158015610b0857600080fd5b505af1158015610b1c573d6000803e3d6000fd5b50505050610c19565b6000600360009054906101000a900473ffffffffffffffffffffffffffffffffffffffff1673ffffffffffffffffffffffffffffffffffffffff166370a08231306040518263ffffffff1660e01b8152600401610b8291906126a4565b60206040518083038186803b158015610b9a57600080fd5b505afa158015610bae573d6000803e3d6000fd5b505050506040513d601f19601f82011682018060405250810190610bd29190612245565b905085811015610c17576040517f08c379a0000000000000000000000000000000000000000000000000000000008152600401610c0e9061285c565b60405180910390fd5b505b600260009054906101000a900473ffffffffffffffffffffffffffffffffffffffff1673ffffffffffffffffffffffffffffffffffffffff166342842e0e33308d6040518463ffffffff1660e01b8152600401610c78939291906126bf565b600060405180830381600087803b158015610c9257600080fd5b505af1158015610ca6573d6000803e3d6000fd5b50505050600360009054906101000a900473ffffffffffffffffffffffffffffffffffffffff1673ffffffffffffffffffffffffffffffffffffffff1663a9059cbb30846040518363ffffffff1660e01b8152600401610d079291906126f6565b602060405180830381600087803b158015610d2157600080fd5b505af1158015610d35573d6000803e3d6000fd5b505050506040513d601f19601f82011682018060405250810190610d59919061218e565b50600360009054906101000a900473ffffffffffffffffffffffffffffffffffffffff1673ffffffffffffffffffffffffffffffffffffffff1663a9059cbb33836040518363ffffffff1660e01b8152600401610db79291906126f6565b602060405180830381600087803b158015610dd157600080fd5b505af1158015610de5573d6000803e3d6000fd5b505050506040513d601f19601f82011682018060405250810190610e09919061218e565b507fdf26ba1712ef61c6db90a8ee9b6a5c4b7001717811fe1086a93d3bcad12552918183604051610e3b929190612960565b60405180910390a180829850985050505050505050915091565b600063150b7a0260e01b905095945050505050565b3073ffffffffffffffffffffffffffffffffffffffff163373ffffffffffffffffffffffffffffffffffffffff161415610ed9576040517f08c379a0000000000000000000000000000000000000000000000000000000008152600401610ed09061275c565b60405180910390fd5b600073ffffffffffffffffffffffffffffffffffffffff163373ffffffffffffffffffffffffffffffffffffffff161415610f49576040517f08c379a0000000000000000000000000000000000000000000000000000000008152600401610f40906128dc565b60405180910390fd5b600073ffffffffffffffffffffffffffffffffffffffff16600160009054906101000a900473ffffffffffffffffffffffffffffffffffffffff1673ffffffffffffffffffffffffffffffffffffffff161415610fdb576040517f08c379a0000000000000000000000000000000000000000000000000000000008152600401610fd29061279c565b60405180910390fd5b600160009054906101000a900473ffffffffffffffffffffffffffffffffffffffff1673ffffffffffffffffffffffffffffffffffffffff163373ffffffffffffffffffffffffffffffffffffffff161461106b576040517f08c379a00000000000000000000000000000000000000000000000000000000081526004016110629061277c565b60405180910390fd5b80600073ffffffffffffffffffffffffffffffffffffffff168173ffffffffffffffffffffffffffffffffffffffff1614156110dc576040517f08c379a00000000000000000000000000000000000000000000000000000000081526004016110d39061283c565b60405180910390fd5b81600260006101000a81548173ffffffffffffffffffffffffffffffffffffffff021916908373ffffffffffffffffffffffffffffffffffffffff1602179055505050565b606060008054806020026020016040519081016040528092919081815260200182805480156111a557602002820191906000526020600020905b8160009054906101000a900473ffffffffffffffffffffffffffffffffffffffff1673ffffffffffffffffffffffffffffffffffffffff168152602001906001019080831161115b575b5050505050905090565b6000600360009054906101000a900473ffffffffffffffffffffffffffffffffffffffff1673ffffffffffffffffffffffffffffffffffffffff166370a08231336040518263ffffffff1660e01b815260040161120c91906126a4565b60206040518083038186803b15801561122457600080fd5b505afa158015611238573d6000803e3d6000fd5b505050506040513d601f19601f8201168201806040525081019061125c9190612245565b90506000600260009054906101000a900473ffffffffffffffffffffffffffffffffffffffff1673ffffffffffffffffffffffffffffffffffffffff1663717947b1846040518263ffffffff1660e01b81526004016112bb919061291c565b60006040518083038186803b1580156112d357600080fd5b505afa1580156112e7573d6000803e3d6000fd5b505050506040513d6000823e3d601f19601f82011682018060405250810190611310919061226e565b505050965050505050505060006005548261132b9190612bfc565b90506000600660009054906101000a900460ff16600a61134b9190612ade565b60076000600180811115611388577f4e487b7100000000000000000000000000000000000000000000000000000000600052602160045260246000fd5b60018111156113c0577f4e487b7100000000000000000000000000000000000000000000000000000000600052602160045260246000fd5b815260200190815260200160002060009054906101000a900463ffffffff1663ffffffff16836113f09190612bfc565b6113fa9190612a5a565b90506000818361140a9190612c56565b90508285101561144f576040517f08c379a00000000000000000000000000000000000000000000000000000000081526004016114469061289c565b60405180910390fd5b61147d600360009054906101000a900473ffffffffffffffffffffffffffffffffffffffff16333086611e14565b600260009054906101000a900473ffffffffffffffffffffffffffffffffffffffff1673ffffffffffffffffffffffffffffffffffffffff166342842e0e3033896040518463ffffffff1660e01b81526004016114dc939291906126bf565b600060405180830381600087803b1580156114f657600080fd5b505af115801561150a573d6000803e3d6000fd5b50505050505050505050565b600073ffffffffffffffffffffffffffffffffffffffff16600160009054906101000a900473ffffffffffffffffffffffffffffffffffffffff1673ffffffffffffffffffffffffffffffffffffffff1614156115a8576040517f08c379a000000000000000000000000000000000000000000000000000000000815260040161159f9061279c565b60405180910390fd5b600160009054906101000a900473ffffffffffffffffffffffffffffffffffffffff1673ffffffffffffffffffffffffffffffffffffffff163373ffffffffffffffffffffffffffffffffffffffff1614611638576040517f08c379a000000000000000000000000000000000000000000000000000000000815260040161162f9061277c565b60405180910390fd5b80600073ffffffffffffffffffffffffffffffffffffffff168173ffffffffffffffffffffffffffffffffffffffff1614156116a9576040517f08c379a00000000000000000000000000000000000000000000000000000000081526004016116a09061283c565b60405180910390fd5b81600460006101000a81548173ffffffffffffffffffffffffffffffffffffffff021916908373ffffffffffffffffffffffffffffffffffffffff1602179055505050565b600073ffffffffffffffffffffffffffffffffffffffff16600160009054906101000a900473ffffffffffffffffffffffffffffffffffffffff1673ffffffffffffffffffffffffffffffffffffffff161415611780576040517f08c379a00000000000000000000000000000000000000000000000000000000081526004016117779061279c565b60405180910390fd5b600160009054906101000a900473ffffffffffffffffffffffffffffffffffffffff1673ffffffffffffffffffffffffffffffffffffffff163373ffffffffffffffffffffffffffffffffffffffff1614611810576040517f08c379a00000000000000000000000000000000000000000000000000000000081526004016118079061277c565b60405180910390fd5b80600073ffffffffffffffffffffffffffffffffffffffff168173ffffffffffffffffffffffffffffffffffffffff161415611881576040517f08c379a00000000000000000000000000000000000000000000000000000000081526004016118789061283c565b60405180910390fd5b60005b6000805490508160ff1610156119485760008160ff16815481106118d1577f4e487b7100000000000000000000000000000000000000000000000000000000600052603260045260246000fd5b9060005260206000200160009054906101000a900473ffffffffffffffffffffffffffffffffffffffff1673ffffffffffffffffffffffffffffffffffffffff168373ffffffffffffffffffffffffffffffffffffffff16141561193557506119ad565b808061194090612d91565b915050611884565b506000829080600181540180825580915050600190039060005260206000200160009091909190916101000a81548173ffffffffffffffffffffffffffffffffffffffff021916908373ffffffffffffffffffffffffffffffffffffffff1602179055505b5050565b3073ffffffffffffffffffffffffffffffffffffffff163373ffffffffffffffffffffffffffffffffffffffff161415611a20576040517f08c379a0000000000000000000000000000000000000000000000000000000008152600401611a179061275c565b60405180910390fd5b600073ffffffffffffffffffffffffffffffffffffffff163373ffffffffffffffffffffffffffffffffffffffff161415611a90576040517f08c379a0000000000000000000000000000000000000000000000000000000008152600401611a87906128dc565b60405180910390fd5b80600073ffffffffffffffffffffffffffffffffffffffff168173ffffffffffffffffffffffffffffffffffffffff161415611b01576040517f08c379a0000000000000000000000000000000000000000000000000000000008152600401611af89061283c565b60405180910390fd5b600073ffffffffffffffffffffffffffffffffffffffff16600160009054906101000a900473ffffffffffffffffffffffffffffffffffffffff1673ffffffffffffffffffffffffffffffffffffffff161415611b93576040517f08c379a0000000000000000000000000000000000000000000000000000000008152600401611b8a9061279c565b60405180910390fd5b600160009054906101000a900473ffffffffffffffffffffffffffffffffffffffff1673ffffffffffffffffffffffffffffffffffffffff163373ffffffffffffffffffffffffffffffffffffffff1614611c23576040517f08c379a0000000000000000000000000000000000000000000000000000000008152600401611c1a9061277c565b60405180910390fd5b81600360006101000a81548173ffffffffffffffffffffffffffffffffffffffff021916908373ffffffffffffffffffffffffffffffffffffffff1602179055505050565b600073ffffffffffffffffffffffffffffffffffffffff163373ffffffffffffffffffffffffffffffffffffffff161415611cd8576040517f08c379a0000000000000000000000000000000000000000000000000000000008152600401611ccf9061279c565b60405180910390fd5b6000805b6000805490508160ff161015611da35760008160ff1681548110611d29577f4e487b7100000000000000000000000000000000000000000000000000000000600052603260045260246000fd5b9060005260206000200160009054906101000a900473ffffffffffffffffffffffffffffffffffffffff1673ffffffffffffffffffffffffffffffffffffffff163373ffffffffffffffffffffffffffffffffffffffff161415611d905760019150611da3565b8080611d9b90612d91565b915050611cdc565b5080611de4576040517f08c379a0000000000000000000000000000000000000000000000000000000008152600401611ddb906128bc565b60405180910390fd5b8160ff16600860006101000a81548167ffffffffffffffff021916908367ffffffffffffffff1602179055505050565b6000808573ffffffffffffffffffffffffffffffffffffffff166323b872dd868686604051602401611e48939291906126bf565b6040516020818303038152906040529060e01b6020820180517bffffffffffffffffffffffffffffffffffffffffffffffffffffffff8381831617835250505050604051611e96919061268d565b6000604051808303816000865af19150503d8060008114611ed3576040519150601f19603f3d011682016040523d82523d6000602084013e611ed8565b606091505b5091509150818015611f065750600081511480611f05575080806020019051810190611f04919061218e565b5b5b611f45576040517f08c379a0000000000000000000000000000000000000000000000000000000008152600401611f3c906128fc565b60405180910390fd5b505050505050565b6000611f60611f5b846129c9565b6129a4565b905082815260208101848484011115611f7857600080fd5b611f83848285612d2d565b509392505050565b600081359050611f9a81613188565b92915050565b600081359050611faf8161319f565b92915050565b600081519050611fc48161319f565b92915050565b600081519050611fd9816131b6565b92915050565b60008083601f840112611ff157600080fd5b8235905067ffffffffffffffff81111561200a57600080fd5b60208301915083600182028301111561202257600080fd5b9250929050565b600081359050612038816131cd565b92915050565b600082601f83011261204f57600080fd5b815161205f848260208601611f4d565b91505092915050565b600081359050612077816131dd565b92915050565b60008151905061208c816131dd565b92915050565b6000813590506120a1816131f4565b92915050565b6000813590506120b68161320b565b92915050565b6000602082840312156120ce57600080fd5b60006120dc84828501611f8b565b91505092915050565b6000602082840312156120f757600080fd5b600061210584828501611fa0565b91505092915050565b60008060008060006080868803121561212657600080fd5b600061213488828901611fa0565b955050602061214588828901611fa0565b945050604061215688828901612068565b935050606086013567ffffffffffffffff81111561217357600080fd5b61217f88828901611fdf565b92509250509295509295909350565b6000602082840312156121a057600080fd5b60006121ae84828501611fca565b91505092915050565b6000602082840312156121c957600080fd5b60006121d784828501612029565b91505092915050565b600080604083850312156121f357600080fd5b600061220185828601612029565b925050602061221285828601612092565b9150509250929050565b60006020828403121561222e57600080fd5b600061223c84828501612068565b91505092915050565b60006020828403121561225757600080fd5b60006122658482850161207d565b91505092915050565b6000806000806000806000806000806101408b8d03121561228e57600080fd5b600061229c8d828e0161207d565b9a505060208b015167ffffffffffffffff8111156122b957600080fd5b6122c58d828e0161203e565b99505060408b015167ffffffffffffffff8111156122e257600080fd5b6122ee8d828e0161203e565b98505060606122ff8d828e01611fb5565b97505060806123108d828e01611fb5565b96505060a06123218d828e01611fb5565b95505060c06123328d828e0161207d565b94505060e06123438d828e0161207d565b9350506101006123558d828e01611fca565b9250506101206123678d828e01611fca565b9150509295989b9194979a5092959850565b60006020828403121561238b57600080fd5b6000612399848285016120a7565b91505092915050565b60006123ae83836123ba565b60208301905092915050565b6123c381612c8a565b82525050565b6123d281612c8a565b82525050565b60006123e382612a0a565b6123ed8185612a2d565b93506123f8836129fa565b8060005b8381101561242957815161241088826123a2565b975061241b83612a20565b9250506001810190506123fc565b5085935050505092915050565b61243f81612cae565b82525050565b61244e81612cba565b82525050565b600061245f82612a15565b6124698185612a3e565b9350612479818560208601612d2d565b80840191505092915050565b6000612492602e83612a49565b915061249d82612e66565b604082019050919050565b60006124b5601e83612a49565b91506124c082612eb5565b602082019050919050565b60006124d8601783612a49565b91506124e382612ede565b602082019050919050565b60006124fb601083612a49565b915061250682612f07565b602082019050919050565b600061251e601783612a49565b915061252982612f30565b602082019050919050565b6000612541600e83612a49565b915061254c82612f59565b602082019050919050565b6000612564601883612a49565b915061256f82612f82565b602082019050919050565b6000612587601983612a49565b915061259282612fab565b602082019050919050565b60006125aa604b83612a49565b91506125b582612fd4565b606082019050919050565b60006125cd600983612a49565b91506125d882613049565b602082019050919050565b60006125f0604c83612a49565b91506125fb82613072565b606082019050919050565b6000612613601d83612a49565b915061261e826130e7565b602082019050919050565b6000612636601a83612a49565b915061264182613110565b602082019050919050565b6000612659602483612a49565b915061266482613139565b604082019050919050565b61267881612d06565b82525050565b61268781612d10565b82525050565b60006126998284612454565b915081905092915050565b60006020820190506126b960008301846123c9565b92915050565b60006060820190506126d460008301866123c9565b6126e160208301856123c9565b6126ee604083018461266f565b949350505050565b600060408201905061270b60008301856123c9565b612718602083018461266f565b9392505050565b6000602082019050818103600083015261273981846123d8565b905092915050565b60006020820190506127566000830184612445565b92915050565b6000602082019050818103600083015261277581612485565b9050919050565b60006020820190508181036000830152612795816124a8565b9050919050565b600060208201905081810360008301526127b5816124cb565b9050919050565b600060208201905081810360008301526127d5816124ee565b9050919050565b600060208201905081810360008301526127f581612511565b9050919050565b6000602082019050818103600083015261281581612534565b9050919050565b6000602082019050818103600083015261283581612557565b9050919050565b600060208201905081810360008301526128558161257a565b9050919050565b600060208201905081810360008301526128758161259d565b9050919050565b60006020820190508181036000830152612895816125c0565b9050919050565b600060208201905081810360008301526128b5816125e3565b9050919050565b600060208201905081810360008301526128d581612606565b9050919050565b600060208201905081810360008301526128f581612629565b9050919050565b600060208201905081810360008301526129158161264c565b9050919050565b6000602082019050612931600083018461266f565b92915050565b600060408201905061294c600083018561266f565b6129596020830184612436565b9392505050565b6000604082019050612975600083018561266f565b612982602083018461266f565b9392505050565b600060208201905061299e600083018461267e565b92915050565b60006129ae6129bf565b90506129ba8282612d60565b919050565b6000604051905090565b600067ffffffffffffffff8211156129e4576129e3612e19565b5b6129ed82612e48565b9050602081019050919050565b6000819050602082019050919050565b600081519050919050565b600081519050919050565b6000602082019050919050565b600082825260208201905092915050565b600081905092915050565b600082825260208201905092915050565b6000612a6582612d06565b9150612a7083612d06565b925082612a8057612a7f612dea565b5b828204905092915050565b6000808291508390505b6001851115612ad557808604811115612ab157612ab0612dbb565b5b6001851615612ac05780820291505b8081029050612ace85612e59565b9450612a95565b94509492505050565b6000612ae982612d06565b9150612af483612d20565b9250612b217fffffffffffffffffffffffffffffffffffffffffffffffffffffffffffffffff8484612b29565b905092915050565b600082612b395760019050612bf5565b81612b475760009050612bf5565b8160018114612b5d5760028114612b6757612b96565b6001915050612bf5565b60ff841115612b7957612b78612dbb565b5b8360020a915084821115612b9057612b8f612dbb565b5b50612bf5565b5060208310610133831016604e8410600b8410161715612bcb5782820a905083811115612bc657612bc5612dbb565b5b612bf5565b612bd88484846001612a8b565b92509050818404811115612bef57612bee612dbb565b5b81810290505b9392505050565b6000612c0782612d06565b9150612c1283612d06565b9250817fffffffffffffffffffffffffffffffffffffffffffffffffffffffffffffffff0483118215151615612c4b57612c4a612dbb565b5b828202905092915050565b6000612c6182612d06565b9150612c6c83612d06565b925082821015612c7f57612c7e612dbb565b5b828203905092915050565b6000612c9582612ce6565b9050919050565b6000612ca782612ce6565b9050919050565b60008115159050919050565b60007fffffffff0000000000000000000000000000000000000000000000000000000082169050919050565b600073ffffffffffffffffffffffffffffffffffffffff82169050919050565b6000819050919050565b600063ffffffff82169050919050565b600060ff82169050919050565b60005b83811015612d4b578082015181840152602081019050612d30565b83811115612d5a576000848401525b50505050565b612d6982612e48565b810181811067ffffffffffffffff82111715612d8857612d87612e19565b5b80604052505050565b6000612d9c82612d20565b915060ff821415612db057612daf612dbb565b5b600182019050919050565b7f4e487b7100000000000000000000000000000000000000000000000000000000600052601160045260246000fd5b7f4e487b7100000000000000000000000000000000000000000000000000000000600052601260045260246000fd5b7f4e487b7100000000000000000000000000000000000000000000000000000000600052604160045260246000fd5b6000601f19601f8301169050919050565b60008160011c9050919050565b7f4572726f723a2043616c6c657220636f756c646e27742062652073616d65207460008201527f6f20746869732061646472657373000000000000000000000000000000000000602082015250565b7f466f722063616c6c65722065787065637465642062652063726561746f720000600082015250565b7f496e76616c69642063726561746f722061646472657373000000000000000000600082015250565b7f496e76616c696420666565207479706500000000000000000000000000000000600082015250565b7f496e76616c696420504e46542f4f4341542071756f7465000000000000000000600082015250565b7f496e76616c6964204e4654204944000000000000000000000000000000000000600082015250565b7f546f6f20736d616c6c20707269636520666f7220504e46540000000000000000600082015250565b7f4578706563746564206e6f6e2d7a65726f206164647265737300000000000000600082015250565b7f5061776e45786368616e67652e65786368616e6765546f4f63617428293a204960008201527f6e73756666696369656e742062616c616e6365206f66204f43415420696e207460208201527f686520636f6e7472616374000000000000000000000000000000000000000000604082015250565b7f4e6f74206f776e65720000000000000000000000000000000000000000000000600082015250565b7f5061776e45786368616e67652e65786368616e676546726f6d4f63617428293a60008201527f20496e73756666696369656e742062616c616e6365206f66204f43415420696e60208201527f20746865206163636f756e740000000000000000000000000000000000000000604082015250565b7f496e76616c69642063616c6c65722e204d7573742062652061646d696e000000600082015250565b7f2a2a2a2a2a2a2a2a2a2a2a2a496e76616c69642063616c6c6572000000000000600082015250565b7f5472616e7366657248656c7065723a205452414e534645525f46524f4d5f464160008201527f494c454400000000000000000000000000000000000000000000000000000000602082015250565b61319181612c8a565b811461319c57600080fd5b50565b6131a881612c9c565b81146131b357600080fd5b50565b6131bf81612cae565b81146131ca57600080fd5b50565b600281106131da57600080fd5b50565b6131e681612d06565b81146131f157600080fd5b50565b6131fd81612d10565b811461320857600080fd5b50565b61321481612d20565b811461321f57600080fd5b5056fea26469706673582212204cf1695ef14e0075797e00f6fa6669213b26f3aa3e02eb03f7b9eca6146ed48164736f6c63430008040033",
  "immutableReferences": {},
  "source": "// SPDX-License-Identifier: MIT\npragma solidity ^0.8.0;\n\nimport \"@openzeppelin/contracts/token/ERC20/IERC20.sol\"; // openzeppelin 4.5 (for solidity 0.8.x)\nimport \"@openzeppelin/contracts/token/ERC721/IERC721.sol\";\nimport '@uniswap/lib/contracts/libraries/TransferHelper.sol';\nimport \"./PawnNFTs.sol\";\nimport \"./IOcat.sol\";\nimport \"./CommonTypes.sol\";\nimport \"./AdministratedContract.sol\";\n\ncontract PawnExchange is AdministratedContract {\n    \n    address payable private pnftAddress;\n    address payable private ocatAddress;\n    address payable private feeManager;\n    uint256         private pnftOcatQuote;\n\n    // 2 of 4: for calculation of percentage, another 2: for no fraction\n    // For example: 0.5% = 50 / (10 ** (2 + 2)) => 50\n    //              0.5% of 20000 = (50 * 20000) / (10 ** 4) = 100\n    uint8           private feeDecimal = 4; \n    mapping(FeeType => uint32) private fees;\n    uint64          private minPnftPrice = 5000;\n\n    event SwappedToOcat (uint256 realPrice, uint256 fee);\n\n    constructor() {\n        creator = payable(msg.sender);\n        fees[FeeType.PNFT_LOAN_FEE] = 50;     // 0.5% \n        fees[FeeType.PNFT_GETBACK_FEE] = 50; // 0.5%\n        pnftOcatQuote = 1;\n    }\n\n    function onERC721Received(\n        address payable /*operator*/,\n        address payable /*from*/,\n        uint256 /*tokenId*/,\n        bytes calldata /*data*/\n    ) external pure returns (bytes4) {\n        return this.onERC721Received.selector;\n    }\n\n    modifier validCaller {\n        require(msg.sender != address(this), \"Error: Caller couldn't be same to this address\");\n        require(msg.sender != address(0), \"************Invalid caller\");\n        _;\n    }\n\n    modifier validNftID(uint256 nftId) {\n        require(nftId > 0, \"Invalid NFT ID\");\n        _;\n    }\n\n    function setPnftAddress(address payable _pnftAddress) public \n    validCaller callerMustBeCreator mustNoneZeroAddress(_pnftAddress) {\n        pnftAddress = _pnftAddress;\n    }\n\n    function setOcatAddress(address payable _ocatAddress) public \n    validCaller mustNoneZeroAddress(_ocatAddress) callerMustBeCreator {\n        ocatAddress = _ocatAddress;\n    }\n\n    function setFeeManager(address payable _feeManager) public \n    callerMustBeCreator mustNoneZeroAddress(_feeManager) {\n        feeManager = _feeManager;\n    }\n\n    function setMinPnftPrice(uint8 _minPnftPrice) public \n    callerMustBeAdmin {\n        minPnftPrice = _minPnftPrice;\n    }\n\n    function setFee(FeeType feeType, uint32 feeValue) public\n    callerMustBeAdmin {\n        fees[feeType] = feeValue;\n    }\n\n    function getFee(FeeType feeType) public view returns(uint32) {\n        require(\n            feeType == FeeType.PNFT_LOAN_FEE ||\n            feeType == FeeType.PNFT_GETBACK_FEE,\n            \"Invalid fee type\"\n        );\n        return fees[feeType];\n    }\n\n    function exchangeToOcat(uint256 nftID) public \n    validNftID(nftID) validCaller \n    returns (uint256, uint256) {\n        // Get price for the NFT\n        (,,,,address currentOwner,,uint256 price,,,bool mintedNativeToken) = PawnNFTs(payable(address(pnftAddress))).allPawnNFTs(nftID);\n        require(currentOwner == msg.sender, \"Not owner\");\n        require(price >= minPnftPrice, \"Too small price for PNFT\");\n        require(pnftOcatQuote > 0, \"Invalid PNFT/OCAT quote\");\n\n        uint256 quotedPrice = pnftOcatQuote * price;\n        uint256 loanFee = quotedPrice * fees[FeeType.PNFT_LOAN_FEE] / (10 ** feeDecimal);\n        uint256 realPrice = quotedPrice - loanFee;\n\n        if (!mintedNativeToken) {\n            // Mint some OCATs for this PNFT\n            IOcat(ocatAddress).mint(address(this), quotedPrice);\n            PawnNFTs(pnftAddress).setMintedNativeToken(nftID, true);\n        } else {\n            uint256 ocatBalance = IERC20(ocatAddress).balanceOf(address(this));\n\t        require(ocatBalance >= price, \"PawnExchange.exchangeToOcat(): Insufficient balance of OCAT in the contract\");\n        }\n        // safeTransferFrom: send NFT from caller to the address\n        IERC721(pnftAddress).safeTransferFrom(msg.sender, address(this), nftID);\n        // Pay fee in OCAT to this address\n        IERC20(ocatAddress).transfer(address(this), loanFee);\n        // Pay OCAT for the NFT\n        IERC20(ocatAddress).transfer(msg.sender, realPrice);\n        emit SwappedToOcat(realPrice, loanFee);\n        //   Then transfer OCATs from the address to caller\n        // TransferHelper.safeTransferFrom(ocatAddress, address(this), msg.sender, quotedPrice);\n        return (realPrice, loanFee);\n    }\n\n    function exchangeFromOcat(uint256 nftID) public {\n        uint256 ocatBalance = IERC20(ocatAddress).balanceOf(msg.sender);\n        // Get price for the NFT\n        (,,,,,,uint256 price,,,) = PawnNFTs(payable(address(pnftAddress))).allPawnNFTs(nftID);\n        // uint256 price = nftItem.price;\n        uint256 quotedPrice = price * pnftOcatQuote;\n        uint256 getbackFee = quotedPrice * fees[FeeType.PNFT_GETBACK_FEE] / (10 ** feeDecimal);\n        uint256 realPrice = quotedPrice - getbackFee;\n\n        require(ocatBalance >= quotedPrice, \"PawnExchange.exchangeFromOcat(): Insufficient balance of OCAT in the account\");\n        // safeTransferFrom: send NFT from caller to the address\n        TransferHelper.safeTransferFrom(ocatAddress, msg.sender, address(this), quotedPrice);\n        // Distribute fee among the stakeholders\n\n        // Pay OCAT for the NFT\n        IERC721(pnftAddress).safeTransferFrom(address(this), msg.sender, nftID);\n        //   Then transfer OCATs from the address to caller\n        // TransferHelper.safeTransferFrom(ocatAddress, address(this), msg.sender, quotedPrice);\n    } \n}\n",
  "sourcePath": "/home/cowboy/OpenchainTestVersion/server/contracts/PawnExchange.sol",
  "compiler": {
    "name": "solc",
    "version": "0.8.4+commit.c7e474f2.Emscripten.clang"
  },
  "schemaVersion": "3.4.6",
  "updatedAt": "2022-04-13T08:46:30.099Z",
  "networkType": "ethereum",
  "devdoc": {
    "kind": "dev",
    "methods": {},
    "version": 1
  },
  "userdoc": {
    "kind": "user",
    "methods": {},
    "version": 1
  }
}