{
  "contractName": "PawnNFTs",
  "abi": [
    {
      "inputs": [],
      "stateMutability": "nonpayable",
      "type": "constructor"
    },
    {
      "anonymous": false,
      "inputs": [
        {
          "indexed": true,
          "internalType": "address",
          "name": "owner",
          "type": "address"
        },
        {
          "indexed": true,
          "internalType": "address",
          "name": "approved",
          "type": "address"
        },
        {
          "indexed": true,
          "internalType": "uint256",
          "name": "tokenId",
          "type": "uint256"
        }
      ],
      "name": "Approval",
      "type": "event"
    },
    {
      "anonymous": false,
      "inputs": [
        {
          "indexed": true,
          "internalType": "address",
          "name": "owner",
          "type": "address"
        },
        {
          "indexed": true,
          "internalType": "address",
          "name": "operator",
          "type": "address"
        },
        {
          "indexed": false,
          "internalType": "bool",
          "name": "approved",
          "type": "bool"
        }
      ],
      "name": "ApprovalForAll",
      "type": "event"
    },
    {
      "anonymous": false,
      "inputs": [
        {
          "indexed": true,
          "internalType": "address",
          "name": "from",
          "type": "address"
        },
        {
          "indexed": true,
          "internalType": "address",
          "name": "to",
          "type": "address"
        },
        {
          "indexed": true,
          "internalType": "uint256",
          "name": "tokenId",
          "type": "uint256"
        }
      ],
      "name": "Transfer",
      "type": "event"
    },
    {
      "inputs": [
        {
          "internalType": "address",
          "name": "_admin",
          "type": "address"
        }
      ],
      "name": "addAdmin",
      "outputs": [],
      "stateMutability": "nonpayable",
      "type": "function"
    },
    {
      "inputs": [
        {
          "internalType": "uint256",
          "name": "",
          "type": "uint256"
        }
      ],
      "name": "allPawnNFTs",
      "outputs": [
        {
          "internalType": "uint256",
          "name": "tokenId",
          "type": "uint256"
        },
        {
          "internalType": "string",
          "name": "tokenName",
          "type": "string"
        },
        {
          "internalType": "string",
          "name": "tokenURI",
          "type": "string"
        },
        {
          "internalType": "address payable",
          "name": "mintedBy",
          "type": "address"
        },
        {
          "internalType": "address payable",
          "name": "currentOwner",
          "type": "address"
        },
        {
          "internalType": "address payable",
          "name": "previousOwner",
          "type": "address"
        },
        {
          "internalType": "uint256",
          "name": "price",
          "type": "uint256"
        },
        {
          "internalType": "uint256",
          "name": "numberOfTransfers",
          "type": "uint256"
        },
        {
          "internalType": "bool",
          "name": "forSale",
          "type": "bool"
        },
        {
          "internalType": "bool",
          "name": "mintedNativeToken",
          "type": "bool"
        }
      ],
      "stateMutability": "view",
      "type": "function",
      "constant": true
    },
    {
      "inputs": [
        {
          "internalType": "address",
          "name": "to",
          "type": "address"
        },
        {
          "internalType": "uint256",
          "name": "tokenId",
          "type": "uint256"
        }
      ],
      "name": "approve",
      "outputs": [],
      "stateMutability": "nonpayable",
      "type": "function"
    },
    {
      "inputs": [
        {
          "internalType": "address",
          "name": "owner",
          "type": "address"
        }
      ],
      "name": "balanceOf",
      "outputs": [
        {
          "internalType": "uint256",
          "name": "",
          "type": "uint256"
        }
      ],
      "stateMutability": "view",
      "type": "function",
      "constant": true
    },
    {
      "inputs": [],
      "name": "decimals",
      "outputs": [
        {
          "internalType": "uint8",
          "name": "",
          "type": "uint8"
        }
      ],
      "stateMutability": "view",
      "type": "function",
      "constant": true
    },
    {
      "inputs": [],
      "name": "getAdmins",
      "outputs": [
        {
          "internalType": "address[]",
          "name": "",
          "type": "address[]"
        }
      ],
      "stateMutability": "view",
      "type": "function",
      "constant": true
    },
    {
      "inputs": [
        {
          "internalType": "uint256",
          "name": "tokenId",
          "type": "uint256"
        }
      ],
      "name": "getApproved",
      "outputs": [
        {
          "internalType": "address",
          "name": "",
          "type": "address"
        }
      ],
      "stateMutability": "view",
      "type": "function",
      "constant": true
    },
    {
      "inputs": [
        {
          "internalType": "address",
          "name": "owner",
          "type": "address"
        },
        {
          "internalType": "address",
          "name": "operator",
          "type": "address"
        }
      ],
      "name": "isApprovedForAll",
      "outputs": [
        {
          "internalType": "bool",
          "name": "",
          "type": "bool"
        }
      ],
      "stateMutability": "view",
      "type": "function",
      "constant": true
    },
    {
      "inputs": [],
      "name": "name",
      "outputs": [
        {
          "internalType": "string",
          "name": "",
          "type": "string"
        }
      ],
      "stateMutability": "view",
      "type": "function",
      "constant": true
    },
    {
      "inputs": [
        {
          "internalType": "uint256",
          "name": "tokenId",
          "type": "uint256"
        }
      ],
      "name": "ownerOf",
      "outputs": [
        {
          "internalType": "address",
          "name": "",
          "type": "address"
        }
      ],
      "stateMutability": "view",
      "type": "function",
      "constant": true
    },
    {
      "inputs": [
        {
          "internalType": "address",
          "name": "from",
          "type": "address"
        },
        {
          "internalType": "address",
          "name": "to",
          "type": "address"
        },
        {
          "internalType": "uint256",
          "name": "tokenId",
          "type": "uint256"
        }
      ],
      "name": "safeTransferFrom",
      "outputs": [],
      "stateMutability": "nonpayable",
      "type": "function"
    },
    {
      "inputs": [
        {
          "internalType": "address",
          "name": "from",
          "type": "address"
        },
        {
          "internalType": "address",
          "name": "to",
          "type": "address"
        },
        {
          "internalType": "uint256",
          "name": "tokenId",
          "type": "uint256"
        },
        {
          "internalType": "bytes",
          "name": "_data",
          "type": "bytes"
        }
      ],
      "name": "safeTransferFrom",
      "outputs": [],
      "stateMutability": "nonpayable",
      "type": "function"
    },
    {
      "inputs": [
        {
          "internalType": "address",
          "name": "operator",
          "type": "address"
        },
        {
          "internalType": "bool",
          "name": "approved",
          "type": "bool"
        }
      ],
      "name": "setApprovalForAll",
      "outputs": [],
      "stateMutability": "nonpayable",
      "type": "function"
    },
    {
      "inputs": [
        {
          "internalType": "bytes4",
          "name": "interfaceId",
          "type": "bytes4"
        }
      ],
      "name": "supportsInterface",
      "outputs": [
        {
          "internalType": "bool",
          "name": "",
          "type": "bool"
        }
      ],
      "stateMutability": "view",
      "type": "function",
      "constant": true
    },
    {
      "inputs": [],
      "name": "symbol",
      "outputs": [
        {
          "internalType": "string",
          "name": "",
          "type": "string"
        }
      ],
      "stateMutability": "view",
      "type": "function",
      "constant": true
    },
    {
      "inputs": [
        {
          "internalType": "string",
          "name": "",
          "type": "string"
        }
      ],
      "name": "tokenNameExists",
      "outputs": [
        {
          "internalType": "bool",
          "name": "",
          "type": "bool"
        }
      ],
      "stateMutability": "view",
      "type": "function",
      "constant": true
    },
    {
      "inputs": [
        {
          "internalType": "uint256",
          "name": "tokenId",
          "type": "uint256"
        }
      ],
      "name": "tokenURI",
      "outputs": [
        {
          "internalType": "string",
          "name": "",
          "type": "string"
        }
      ],
      "stateMutability": "view",
      "type": "function",
      "constant": true
    },
    {
      "inputs": [
        {
          "internalType": "string",
          "name": "",
          "type": "string"
        }
      ],
      "name": "tokenURIExists",
      "outputs": [
        {
          "internalType": "uint256",
          "name": "",
          "type": "uint256"
        }
      ],
      "stateMutability": "view",
      "type": "function",
      "constant": true
    },
    {
      "inputs": [
        {
          "internalType": "uint256",
          "name": "",
          "type": "uint256"
        }
      ],
      "name": "tokenURIs",
      "outputs": [
        {
          "internalType": "string",
          "name": "",
          "type": "string"
        }
      ],
      "stateMutability": "view",
      "type": "function",
      "constant": true
    },
    {
      "inputs": [
        {
          "internalType": "address",
          "name": "from",
          "type": "address"
        },
        {
          "internalType": "address",
          "name": "to",
          "type": "address"
        },
        {
          "internalType": "uint256",
          "name": "tokenId",
          "type": "uint256"
        }
      ],
      "name": "transferFrom",
      "outputs": [],
      "stateMutability": "nonpayable",
      "type": "function"
    },
    {
      "stateMutability": "payable",
      "type": "receive",
      "payable": true
    },
    {
      "inputs": [
        {
          "internalType": "uint8",
          "name": "_minPnftPrice",
          "type": "uint8"
        }
      ],
      "name": "setMinPnftPrice",
      "outputs": [],
      "stateMutability": "nonpayable",
      "type": "function"
    },
    {
      "inputs": [
        {
          "internalType": "string",
          "name": "_name",
          "type": "string"
        },
        {
          "internalType": "string",
          "name": "_tokenURI",
          "type": "string"
        },
        {
          "internalType": "uint256",
          "name": "_price",
          "type": "uint256"
        }
      ],
      "name": "mint",
      "outputs": [
        {
          "internalType": "uint256",
          "name": "newTokenID",
          "type": "uint256"
        }
      ],
      "stateMutability": "nonpayable",
      "type": "function"
    },
    {
      "inputs": [
        {
          "internalType": "uint256",
          "name": "_tokenId",
          "type": "uint256"
        }
      ],
      "name": "getTokenOwner",
      "outputs": [
        {
          "internalType": "address",
          "name": "",
          "type": "address"
        }
      ],
      "stateMutability": "view",
      "type": "function",
      "constant": true
    },
    {
      "inputs": [
        {
          "internalType": "uint256",
          "name": "_tokenId",
          "type": "uint256"
        }
      ],
      "name": "getTokenMetaData",
      "outputs": [
        {
          "internalType": "string",
          "name": "tokenMetaData",
          "type": "string"
        }
      ],
      "stateMutability": "view",
      "type": "function",
      "constant": true
    },
    {
      "inputs": [
        {
          "internalType": "uint256",
          "name": "_tokenId",
          "type": "uint256"
        },
        {
          "internalType": "bool",
          "name": "_mintedNativeToken",
          "type": "bool"
        }
      ],
      "name": "setMintedNativeToken",
      "outputs": [],
      "stateMutability": "nonpayable",
      "type": "function"
    },
    {
      "inputs": [
        {
          "internalType": "uint256",
          "name": "_tokenId",
          "type": "uint256"
        }
      ],
      "name": "exists",
      "outputs": [
        {
          "internalType": "bool",
          "name": "tokenExists",
          "type": "bool"
        }
      ],
      "stateMutability": "view",
      "type": "function",
      "constant": true
    },
    {
      "inputs": [
        {
          "internalType": "uint256",
          "name": "_tokenId",
          "type": "uint256"
        }
      ],
      "name": "buyToken",
      "outputs": [],
      "stateMutability": "payable",
      "type": "function",
      "payable": true
    },
    {
      "inputs": [
        {
          "internalType": "uint256",
          "name": "_tokenId",
          "type": "uint256"
        },
        {
          "internalType": "uint256",
          "name": "_newPrice",
          "type": "uint256"
        }
      ],
      "name": "changeTokenPrice",
      "outputs": [],
      "stateMutability": "nonpayable",
      "type": "function"
    },
    {
      "inputs": [
        {
          "internalType": "uint256",
          "name": "_tokenId",
          "type": "uint256"
        }
      ],
      "name": "toggleForSale",
      "outputs": [],
      "stateMutability": "nonpayable",
      "type": "function"
    }
  ],
  "bytecode": "0x6080604052611388600960006101000a81548167ffffffffffffffff021916908367ffffffffffffffff1602179055506000600960086101000a81548160ff021916908360ff1602179055503480156200005857600080fd5b5060405180606001604052806021815260200162005022602191396040518060400160405280600481526020017f504e4654000000000000000000000000000000000000000000000000000000008152508160009080519060200190620000c192919062000124565b508060019080519060200190620000da92919062000124565b50505033600760006101000a81548173ffffffffffffffffffffffffffffffffffffffff021916908373ffffffffffffffffffffffffffffffffffffffff16021790555062000239565b8280546200013290620001d4565b90600052602060002090601f016020900481019282620001565760008555620001a2565b82601f106200017157805160ff1916838001178555620001a2565b82800160010185558215620001a2579182015b82811115620001a157825182559160200191906001019062000184565b5b509050620001b19190620001b5565b5090565b5b80821115620001d0576000816000905550600101620001b6565b5090565b60006002820490506001821680620001ed57607f821691505b602082108114156200020457620002036200020a565b5b50919050565b7f4e487b7100000000000000000000000000000000000000000000000000000000600052602260045260246000fd5b614dd980620002496000396000f3fe6080604052600436106101c65760003560e01c80636c8b703f116100f7578063a46b1fac11610095578063d41d9a2711610064578063d41d9a27146106c7578063d81bcb2d14610704578063e985e9c51461072d578063f3ac38b71461076a576101cd565b8063a46b1fac146105e7578063a5cd761f14610624578063b88d4fde14610661578063c87b56dd1461068a576101cd565b8063717947b1116100d1578063717947b11461052457806395d89b411461056a578063a22cb46514610595578063a32018b9146105be576101cd565b80636c8b703f1461048157806370480275146104be57806370a08231146104e7576101cd565b806331ae450b116101645780634f558e791161013e5780634f558e79146103a157806362e8e8ac146103de5780636352211e1461040757806367c623cf14610444576101cd565b806331ae450b1461031057806342842e0e1461033b57806343d32ae714610364576101cd565b8063095ea7b3116101a0578063095ea7b31461027757806323b872dd146102a05780632d296bf1146102c9578063313ce567146102e5576101cd565b806301ffc9a7146101d257806306fdde031461020f578063081812fc1461023a576101cd565b366101cd57005b600080fd5b3480156101de57600080fd5b506101f960048036038101906101f49190613477565b610793565b6040516102069190613cea565b60405180910390f35b34801561021b57600080fd5b50610224610875565b6040516102319190613d05565b60405180910390f35b34801561024657600080fd5b50610261600480360381019061025c9190613589565b610907565b60405161026e9190613c61565b60405180910390f35b34801561028357600080fd5b5061029e6004803603810190610299919061343b565b61098c565b005b3480156102ac57600080fd5b506102c760048036038101906102c29190613335565b610aa4565b005b6102e360048036038101906102de9190613589565b610b04565b005b3480156102f157600080fd5b506102fa610f07565b60405161030791906141ec565b60405180910390f35b34801561031c57600080fd5b50610325610f1a565b6040516103329190613cc8565b60405180910390f35b34801561034757600080fd5b50610362600480360381019061035d9190613335565b610fa8565b005b34801561037057600080fd5b5061038b600480360381019061038691906134c9565b610fc8565b6040516103989190614127565b60405180910390f35b3480156103ad57600080fd5b506103c860048036038101906103c39190613589565b610ff6565b6040516103d59190613cea565b60405180910390f35b3480156103ea57600080fd5b50610405600480360381019061040091906135ee565b611008565b005b34801561041357600080fd5b5061042e60048036038101906104299190613589565b6111a4565b60405161043b9190613c61565b60405180910390f35b34801561045057600080fd5b5061046b60048036038101906104669190613589565b611256565b6040516104789190613d05565b60405180910390f35b34801561048d57600080fd5b506104a860048036038101906104a39190613589565b611268565b6040516104b59190613d05565b60405180910390f35b3480156104ca57600080fd5b506104e560048036038101906104e091906132d0565b611308565b005b3480156104f357600080fd5b5061050e600480360381019061050991906132d0565b611612565b60405161051b9190614127565b60405180910390f35b34801561053057600080fd5b5061054b60048036038101906105469190613589565b6116ca565b6040516105619a99989796959493929190614142565b60405180910390f35b34801561057657600080fd5b5061057f6118a8565b60405161058c9190613d05565b60405180910390f35b3480156105a157600080fd5b506105bc60048036038101906105b791906133ff565b61193a565b005b3480156105ca57600080fd5b506105e560048036038101906105e09190613589565b611950565b005b3480156105f357600080fd5b5061060e600480360381019061060991906134c9565b611b4b565b60405161061b9190613cea565b60405180910390f35b34801561063057600080fd5b5061064b60048036038101906106469190613589565b611b81565b6040516106589190613c61565b60405180910390f35b34801561066d57600080fd5b5061068860048036038101906106839190613384565b611b93565b005b34801561069657600080fd5b506106b160048036038101906106ac9190613589565b611bf5565b6040516106be9190613d05565b60405180910390f35b3480156106d357600080fd5b506106ee60048036038101906106e9919061350a565b611c9c565b6040516106fb9190614127565b60405180910390f35b34801561071057600080fd5b5061072b600480360381019061072691906135b2565b61214b565b005b34801561073957600080fd5b50610754600480360381019061074f91906132f9565b6121d6565b6040516107619190613cea565b60405180910390f35b34801561077657600080fd5b50610791600480360381019061078c919061362a565b61226a565b005b60007f80ac58cd000000000000000000000000000000000000000000000000000000007bffffffffffffffffffffffffffffffffffffffffffffffffffffffff1916827bffffffffffffffffffffffffffffffffffffffffffffffffffffffff1916148061085e57507f5b5e139f000000000000000000000000000000000000000000000000000000007bffffffffffffffffffffffffffffffffffffffffffffffffffffffff1916827bffffffffffffffffffffffffffffffffffffffffffffffffffffffff1916145b8061086e575061086d82612299565b5b9050919050565b6060600080546108849061449a565b80601f01602080910402602001604051908101604052809291908181526020018280546108b09061449a565b80156108fd5780601f106108d2576101008083540402835291602001916108fd565b820191906000526020600020905b8154815290600101906020018083116108e057829003601f168201915b5050505050905090565b600061091282612303565b610951576040517f08c379a000000000000000000000000000000000000000000000000000000000815260040161094890613fa7565b60405180910390fd5b6004600083815260200190815260200160002060009054906101000a900473ffffffffffffffffffffffffffffffffffffffff169050919050565b6000610997826111a4565b90508073ffffffffffffffffffffffffffffffffffffffff168373ffffffffffffffffffffffffffffffffffffffff161415610a08576040517f08c379a00000000000000000000000000000000000000000000000000000000081526004016109ff90614067565b60405180910390fd5b8073ffffffffffffffffffffffffffffffffffffffff16610a2761236f565b73ffffffffffffffffffffffffffffffffffffffff161480610a565750610a5581610a5061236f565b6121d6565b5b610a95576040517f08c379a0000000000000000000000000000000000000000000000000000000008152600401610a8c90613ec7565b60405180910390fd5b610a9f8383612377565b505050565b610ab5610aaf61236f565b82612430565b610af4576040517f08c379a0000000000000000000000000000000000000000000000000000000008152600401610aeb906140a7565b60405180910390fd5b610aff83838361250e565b505050565b80610b0e81612303565b610b4d576040517f08c379a0000000000000000000000000000000000000000000000000000000008152600401610b44906140e7565b60405180910390fd5b6000610b58826111a4565b9050600073ffffffffffffffffffffffffffffffffffffffff168173ffffffffffffffffffffffffffffffffffffffff161415610bca576040517f08c379a0000000000000000000000000000000000000000000000000000000008152600401610bc190613d87565b60405180910390fd5b600073ffffffffffffffffffffffffffffffffffffffff163373ffffffffffffffffffffffffffffffffffffffff161415610c3a576040517f08c379a0000000000000000000000000000000000000000000000000000000008152600401610c3190613d87565b60405180910390fd5b3373ffffffffffffffffffffffffffffffffffffffff168173ffffffffffffffffffffffffffffffffffffffff1614610ca8576040517f08c379a0000000000000000000000000000000000000000000000000000000008152600401610c9f90613f67565b60405180910390fd5b600a600084815260200190815260200160002060060154341015610d01576040517f08c379a0000000000000000000000000000000000000000000000000000000008152600401610cf890614047565b60405180910390fd5b600a600084815260200190815260200160002060080160009054906101000a900460ff16610d64576040517f08c379a0000000000000000000000000000000000000000000000000000000008152600401610d5b90613d47565b60405180910390fd5b610d77610d70846111a4565b338561250e565b600a600084815260200190815260200160002060040160009054906101000a900473ffffffffffffffffffffffffffffffffffffffff1673ffffffffffffffffffffffffffffffffffffffff166108fc349081150290604051600060405180830381858888f19350505050158015610df3573d6000803e3d6000fd5b50600a600084815260200190815260200160002060040160009054906101000a900473ffffffffffffffffffffffffffffffffffffffff16600a600085815260200190815260200160002060050160006101000a81548173ffffffffffffffffffffffffffffffffffffffff021916908373ffffffffffffffffffffffffffffffffffffffff16021790555033600a600085815260200190815260200160002060040160006101000a81548173ffffffffffffffffffffffffffffffffffffffff021916908373ffffffffffffffffffffffffffffffffffffffff1602179055506001600a60008581526020019081526020016000206007016000828254610efb919061430a565b92505081905550505050565b600960089054906101000a900460ff1681565b60606006805480602002602001604051908101604052809291908181526020018280548015610f9e57602002820191906000526020600020905b8160009054906101000a900473ffffffffffffffffffffffffffffffffffffffff1673ffffffffffffffffffffffffffffffffffffffff1681526020019060010190808311610f54575b5050505050905090565b610fc383838360405180602001604052806000815250611b93565b505050565b600d818051602081018201805184825260208301602085012081835280955050505050506000915090505481565b600061100182612303565b9050919050565b600073ffffffffffffffffffffffffffffffffffffffff163373ffffffffffffffffffffffffffffffffffffffff161415611078576040517f08c379a000000000000000000000000000000000000000000000000000000000815260040161106f90613e07565b60405180910390fd5b6000805b6006805490508160ff1610156111435760068160ff16815481106110c9577f4e487b7100000000000000000000000000000000000000000000000000000000600052603260045260246000fd5b9060005260206000200160009054906101000a900473ffffffffffffffffffffffffffffffffffffffff1673ffffffffffffffffffffffffffffffffffffffff163373ffffffffffffffffffffffffffffffffffffffff1614156111305760019150611143565b808061113b90614546565b91505061107c565b5080611184576040517f08c379a000000000000000000000000000000000000000000000000000000000815260040161117b906140c7565b60405180910390fd5b81600a600085815260200190815260200160002060060181905550505050565b6000806002600084815260200190815260200160002060009054906101000a900473ffffffffffffffffffffffffffffffffffffffff169050600073ffffffffffffffffffffffffffffffffffffffff168173ffffffffffffffffffffffffffffffffffffffff16141561124d576040517f08c379a000000000000000000000000000000000000000000000000000000000815260040161124490613f27565b60405180910390fd5b80915050919050565b606061126182611bf5565b9050919050565b600b60205280600052604060002060009150905080546112879061449a565b80601f01602080910402602001604051908101604052809291908181526020018280546112b39061449a565b80156113005780601f106112d557610100808354040283529160200191611300565b820191906000526020600020905b8154815290600101906020018083116112e357829003601f168201915b505050505081565b600073ffffffffffffffffffffffffffffffffffffffff16600760009054906101000a900473ffffffffffffffffffffffffffffffffffffffff1673ffffffffffffffffffffffffffffffffffffffff16141561139a576040517f08c379a000000000000000000000000000000000000000000000000000000000815260040161139190613e07565b60405180910390fd5b600760009054906101000a900473ffffffffffffffffffffffffffffffffffffffff1673ffffffffffffffffffffffffffffffffffffffff163373ffffffffffffffffffffffffffffffffffffffff161461142a576040517f08c379a000000000000000000000000000000000000000000000000000000000815260040161142190613de7565b60405180910390fd5b80600073ffffffffffffffffffffffffffffffffffffffff168173ffffffffffffffffffffffffffffffffffffffff16141561149b576040517f08c379a000000000000000000000000000000000000000000000000000000000815260040161149290614027565b60405180910390fd5b60068080549050106114e2576040517f08c379a00000000000000000000000000000000000000000000000000000000081526004016114d990614107565b60405180910390fd5b60005b6006805490508160ff1610156115a95760068160ff1681548110611532577f4e487b7100000000000000000000000000000000000000000000000000000000600052603260045260246000fd5b9060005260206000200160009054906101000a900473ffffffffffffffffffffffffffffffffffffffff1673ffffffffffffffffffffffffffffffffffffffff168373ffffffffffffffffffffffffffffffffffffffff161415611596575061160e565b80806115a190614546565b9150506114e5565b506006829080600181540180825580915050600190039060005260206000200160009091909190916101000a81548173ffffffffffffffffffffffffffffffffffffffff021916908373ffffffffffffffffffffffffffffffffffffffff1602179055505b5050565b60008073ffffffffffffffffffffffffffffffffffffffff168273ffffffffffffffffffffffffffffffffffffffff161415611683576040517f08c379a000000000000000000000000000000000000000000000000000000000815260040161167a90613f07565b60405180910390fd5b600360008373ffffffffffffffffffffffffffffffffffffffff1673ffffffffffffffffffffffffffffffffffffffff168152602001908152602001600020549050919050565b600a6020528060005260406000206000915090508060000154908060010180546116f39061449a565b80601f016020809104026020016040519081016040528092919081815260200182805461171f9061449a565b801561176c5780601f106117415761010080835404028352916020019161176c565b820191906000526020600020905b81548152906001019060200180831161174f57829003601f168201915b5050505050908060020180546117819061449a565b80601f01602080910402602001604051908101604052809291908181526020018280546117ad9061449a565b80156117fa5780601f106117cf576101008083540402835291602001916117fa565b820191906000526020600020905b8154815290600101906020018083116117dd57829003601f168201915b5050505050908060030160009054906101000a900473ffffffffffffffffffffffffffffffffffffffff16908060040160009054906101000a900473ffffffffffffffffffffffffffffffffffffffff16908060050160009054906101000a900473ffffffffffffffffffffffffffffffffffffffff16908060060154908060070154908060080160009054906101000a900460ff16908060080160019054906101000a900460ff1690508a565b6060600180546118b79061449a565b80601f01602080910402602001604051908101604052809291908181526020018280546118e39061449a565b80156119305780601f1061190557610100808354040283529160200191611930565b820191906000526020600020905b81548152906001019060200180831161191357829003601f168201915b5050505050905090565b61194c61194561236f565b8383612775565b5050565b8061195a81612303565b611999576040517f08c379a0000000000000000000000000000000000000000000000000000000008152600401611990906140e7565b60405180910390fd5b60006119a4826111a4565b9050600073ffffffffffffffffffffffffffffffffffffffff168173ffffffffffffffffffffffffffffffffffffffff161415611a16576040517f08c379a0000000000000000000000000000000000000000000000000000000008152600401611a0d90613d87565b60405180910390fd5b600073ffffffffffffffffffffffffffffffffffffffff163373ffffffffffffffffffffffffffffffffffffffff161415611a86576040517f08c379a0000000000000000000000000000000000000000000000000000000008152600401611a7d90613d87565b60405180910390fd5b3373ffffffffffffffffffffffffffffffffffffffff168173ffffffffffffffffffffffffffffffffffffffff1614611af4576040517f08c379a0000000000000000000000000000000000000000000000000000000008152600401611aeb90613f67565b60405180910390fd5b600a600084815260200190815260200160002060080160009054906101000a900460ff1615600a600085815260200190815260200160002060080160006101000a81548160ff021916908315150217905550505050565b600c818051602081018201805184825260208301602085012081835280955050505050506000915054906101000a900460ff1681565b6000611b8c826111a4565b9050919050565b611ba4611b9e61236f565b83612430565b611be3576040517f08c379a0000000000000000000000000000000000000000000000000000000008152600401611bda906140a7565b60405180910390fd5b611bef848484846128e2565b50505050565b6060611c0082612303565b611c3f576040517f08c379a0000000000000000000000000000000000000000000000000000000008152600401611c3690613fc7565b60405180910390fd5b6000611c4961293e565b90506000815111611c695760405180602001604052806000815250611c94565b80611c7384612955565b604051602001611c84929190613c3d565b6040516020818303038152906040525b915050919050565b60008073ffffffffffffffffffffffffffffffffffffffff163373ffffffffffffffffffffffffffffffffffffffff161415611d0d576040517f08c379a0000000000000000000000000000000000000000000000000000000008152600401611d0490613d27565b60405180910390fd5b600960009054906101000a900467ffffffffffffffff1667ffffffffffffffff16821015611d70576040517f08c379a0000000000000000000000000000000000000000000000000000000008152600401611d6790613ea7565b60405180910390fd5b600854905060086000815480929190611d88906144fd565b9190505550611d9681612303565b15611dd6576040517f08c379a0000000000000000000000000000000000000000000000000000000008152600401611dcd90613ee7565b60405180910390fd5b6000600d84604051611de89190613c26565b90815260200160405180910390205414611e37576040517f08c379a0000000000000000000000000000000000000000000000000000000008152600401611e2e90613f47565b60405180910390fd5b600c84604051611e479190613c26565b908152602001604051809103902060009054906101000a900460ff1615611ea3576040517f08c379a0000000000000000000000000000000000000000000000000000000008152600401611e9a90613fe7565b60405180910390fd5b611ead3382612b02565b82600b60008381526020019081526020016000209080519060200190611ed49291906130df565b5080600d84604051611ee69190613c26565b9081526020016040518091039020819055506001600c85604051611f0a9190613c26565b908152602001604051809103902060006101000a81548160ff0219169083151502179055506040518061014001604052808281526020018581526020018481526020013373ffffffffffffffffffffffffffffffffffffffff1681526020013373ffffffffffffffffffffffffffffffffffffffff168152602001600073ffffffffffffffffffffffffffffffffffffffff1681526020018381526020016000815260200160011515815260200160001515815250600a6000838152602001908152602001600020600082015181600001556020820151816001019080519060200190611ff89291906130df565b5060408201518160020190805190602001906120159291906130df565b5060608201518160030160006101000a81548173ffffffffffffffffffffffffffffffffffffffff021916908373ffffffffffffffffffffffffffffffffffffffff16021790555060808201518160040160006101000a81548173ffffffffffffffffffffffffffffffffffffffff021916908373ffffffffffffffffffffffffffffffffffffffff16021790555060a08201518160050160006101000a81548173ffffffffffffffffffffffffffffffffffffffff021916908373ffffffffffffffffffffffffffffffffffffffff16021790555060c0820151816006015560e082015181600701556101008201518160080160006101000a81548160ff0219169083151502179055506101208201518160080160016101000a81548160ff0219169083151502179055509050509392505050565b6000600a600084815260200190815260200160002060000154116121a4576040517f08c379a000000000000000000000000000000000000000000000000000000000815260040161219b90614007565b60405180910390fd5b80600a600084815260200190815260200160002060080160016101000a81548160ff0219169083151502179055505050565b6000600560008473ffffffffffffffffffffffffffffffffffffffff1673ffffffffffffffffffffffffffffffffffffffff16815260200190815260200160002060008373ffffffffffffffffffffffffffffffffffffffff1673ffffffffffffffffffffffffffffffffffffffff16815260200190815260200160002060009054906101000a900460ff16905092915050565b8060ff16600960006101000a81548167ffffffffffffffff021916908367ffffffffffffffff16021790555050565b60007f01ffc9a7000000000000000000000000000000000000000000000000000000007bffffffffffffffffffffffffffffffffffffffffffffffffffffffff1916827bffffffffffffffffffffffffffffffffffffffffffffffffffffffff1916149050919050565b60008073ffffffffffffffffffffffffffffffffffffffff166002600084815260200190815260200160002060009054906101000a900473ffffffffffffffffffffffffffffffffffffffff1673ffffffffffffffffffffffffffffffffffffffff1614159050919050565b600033905090565b816004600083815260200190815260200160002060006101000a81548173ffffffffffffffffffffffffffffffffffffffff021916908373ffffffffffffffffffffffffffffffffffffffff160217905550808273ffffffffffffffffffffffffffffffffffffffff166123ea836111a4565b73ffffffffffffffffffffffffffffffffffffffff167f8c5be1e5ebec7d5bd14f71427d1e84f3dd0314c0f7b2291e5b200ac8c7c3b92560405160405180910390a45050565b600061243b82612303565b61247a576040517f08c379a000000000000000000000000000000000000000000000000000000000815260040161247190613e87565b60405180910390fd5b6000612485836111a4565b90508073ffffffffffffffffffffffffffffffffffffffff168473ffffffffffffffffffffffffffffffffffffffff1614806124f457508373ffffffffffffffffffffffffffffffffffffffff166124dc84610907565b73ffffffffffffffffffffffffffffffffffffffff16145b80612505575061250481856121d6565b5b91505092915050565b8273ffffffffffffffffffffffffffffffffffffffff1661252e826111a4565b73ffffffffffffffffffffffffffffffffffffffff1614612584576040517f08c379a000000000000000000000000000000000000000000000000000000000815260040161257b90613da7565b60405180910390fd5b600073ffffffffffffffffffffffffffffffffffffffff168273ffffffffffffffffffffffffffffffffffffffff1614156125f4576040517f08c379a00000000000000000000000000000000000000000000000000000000081526004016125eb90613e27565b60405180910390fd5b6125ff838383612b20565b61260a600082612377565b6001600360008573ffffffffffffffffffffffffffffffffffffffff1673ffffffffffffffffffffffffffffffffffffffff168152602001908152602001600020600082825461265a9190614391565b925050819055506001600360008473ffffffffffffffffffffffffffffffffffffffff1673ffffffffffffffffffffffffffffffffffffffff16815260200190815260200160002060008282546126b1919061430a565b92505081905550816002600083815260200190815260200160002060006101000a81548173ffffffffffffffffffffffffffffffffffffffff021916908373ffffffffffffffffffffffffffffffffffffffff160217905550808273ffffffffffffffffffffffffffffffffffffffff168473ffffffffffffffffffffffffffffffffffffffff167fddf252ad1be2c89b69c2b068fc378daa952ba7f163c4a11628f55a4df523b3ef60405160405180910390a4612770838383612b25565b505050565b8173ffffffffffffffffffffffffffffffffffffffff168373ffffffffffffffffffffffffffffffffffffffff1614156127e4576040517f08c379a00000000000000000000000000000000000000000000000000000000081526004016127db90613e67565b60405180910390fd5b80600560008573ffffffffffffffffffffffffffffffffffffffff1673ffffffffffffffffffffffffffffffffffffffff16815260200190815260200160002060008473ffffffffffffffffffffffffffffffffffffffff1673ffffffffffffffffffffffffffffffffffffffff16815260200190815260200160002060006101000a81548160ff0219169083151502179055508173ffffffffffffffffffffffffffffffffffffffff168373ffffffffffffffffffffffffffffffffffffffff167f17307eab39ab6107e8899845ad3d59bd9653f200f220920489ca2b5937696c31836040516128d59190613cea565b60405180910390a3505050565b6128ed84848461250e565b6128f984848484612cf0565b612938576040517f08c379a000000000000000000000000000000000000000000000000000000000815260040161292f90613d67565b60405180910390fd5b50505050565b606060405180602001604052806000815250905090565b6060600082141561299d576040518060400160405280600181526020017f30000000000000000000000000000000000000000000000000000000000000008152509050612afd565b600082905060005b600082146129cf5780806129b8906144fd565b915050600a826129c89190614360565b91506129a5565b60008167ffffffffffffffff811115612a11577f4e487b7100000000000000000000000000000000000000000000000000000000600052604160045260246000fd5b6040519080825280601f01601f191660200182016040528015612a435781602001600182028036833780820191505090505b5090505b60008514612af657600182612a5c9190614391565b9150600a85612a6b9190614570565b6030612a77919061430a565b60f81b818381518110612ab3577f4e487b7100000000000000000000000000000000000000000000000000000000600052603260045260246000fd5b60200101907effffffffffffffffffffffffffffffffffffffffffffffffffffffffffffff1916908160001a905350600a85612aef9190614360565b9450612a47565b8093505050505b919050565b612b1c828260405180602001604052806000815250612e87565b5050565b505050565b8173ffffffffffffffffffffffffffffffffffffffff16612b45826111a4565b73ffffffffffffffffffffffffffffffffffffffff1614612b9b576040517f08c379a0000000000000000000000000000000000000000000000000000000008152600401612b9290614087565b60405180910390fd5b600073ffffffffffffffffffffffffffffffffffffffff168273ffffffffffffffffffffffffffffffffffffffff161415612c0b576040517f08c379a0000000000000000000000000000000000000000000000000000000008152600401612c0290613e47565b60405180910390fd5b600a600082815260200190815260200160002060040160009054906101000a900473ffffffffffffffffffffffffffffffffffffffff16600a600083815260200190815260200160002060050160006101000a81548173ffffffffffffffffffffffffffffffffffffffff021916908373ffffffffffffffffffffffffffffffffffffffff16021790555081600a600083815260200190815260200160002060040160006101000a81548173ffffffffffffffffffffffffffffffffffffffff021916908373ffffffffffffffffffffffffffffffffffffffff160217905550505050565b6000612d118473ffffffffffffffffffffffffffffffffffffffff16612ee2565b15612e7a578373ffffffffffffffffffffffffffffffffffffffff1663150b7a02612d3a61236f565b8786866040518563ffffffff1660e01b8152600401612d5c9493929190613c7c565b602060405180830381600087803b158015612d7657600080fd5b505af1925050508015612da757506040513d601f19601f82011682018060405250810190612da491906134a0565b60015b612e2a573d8060008114612dd7576040519150601f19603f3d011682016040523d82523d6000602084013e612ddc565b606091505b50600081511415612e22576040517f08c379a0000000000000000000000000000000000000000000000000000000008152600401612e1990613d67565b60405180910390fd5b805181602001fd5b63150b7a0260e01b7bffffffffffffffffffffffffffffffffffffffffffffffffffffffff1916817bffffffffffffffffffffffffffffffffffffffffffffffffffffffff191614915050612e7f565b600190505b949350505050565b612e918383612f05565b612e9e6000848484612cf0565b612edd576040517f08c379a0000000000000000000000000000000000000000000000000000000008152600401612ed490613d67565b60405180910390fd5b505050565b6000808273ffffffffffffffffffffffffffffffffffffffff163b119050919050565b600073ffffffffffffffffffffffffffffffffffffffff168273ffffffffffffffffffffffffffffffffffffffff161415612f75576040517f08c379a0000000000000000000000000000000000000000000000000000000008152600401612f6c90613f87565b60405180910390fd5b612f7e81612303565b15612fbe576040517f08c379a0000000000000000000000000000000000000000000000000000000008152600401612fb590613dc7565b60405180910390fd5b612fca60008383612b20565b6001600360008473ffffffffffffffffffffffffffffffffffffffff1673ffffffffffffffffffffffffffffffffffffffff168152602001908152602001600020600082825461301a919061430a565b92505081905550816002600083815260200190815260200160002060006101000a81548173ffffffffffffffffffffffffffffffffffffffff021916908373ffffffffffffffffffffffffffffffffffffffff160217905550808273ffffffffffffffffffffffffffffffffffffffff16600073ffffffffffffffffffffffffffffffffffffffff167fddf252ad1be2c89b69c2b068fc378daa952ba7f163c4a11628f55a4df523b3ef60405160405180910390a46130db60008383612b25565b5050565b8280546130eb9061449a565b90600052602060002090601f01602090048101928261310d5760008555613154565b82601f1061312657805160ff1916838001178555613154565b82800160010185558215613154579182015b82811115613153578251825591602001919060010190613138565b5b5090506131619190613165565b5090565b5b8082111561317e576000816000905550600101613166565b5090565b60006131956131908461422c565b614207565b9050828152602081018484840111156131ad57600080fd5b6131b8848285614458565b509392505050565b60006131d36131ce8461425d565b614207565b9050828152602081018484840111156131eb57600080fd5b6131f6848285614458565b509392505050565b60008135905061320d81614d30565b92915050565b60008135905061322281614d47565b92915050565b60008135905061323781614d5e565b92915050565b60008151905061324c81614d5e565b92915050565b600082601f83011261326357600080fd5b8135613273848260208601613182565b91505092915050565b600082601f83011261328d57600080fd5b813561329d8482602086016131c0565b91505092915050565b6000813590506132b581614d75565b92915050565b6000813590506132ca81614d8c565b92915050565b6000602082840312156132e257600080fd5b60006132f0848285016131fe565b91505092915050565b6000806040838503121561330c57600080fd5b600061331a858286016131fe565b925050602061332b858286016131fe565b9150509250929050565b60008060006060848603121561334a57600080fd5b6000613358868287016131fe565b9350506020613369868287016131fe565b925050604061337a868287016132a6565b9150509250925092565b6000806000806080858703121561339a57600080fd5b60006133a8878288016131fe565b94505060206133b9878288016131fe565b93505060406133ca878288016132a6565b925050606085013567ffffffffffffffff8111156133e757600080fd5b6133f387828801613252565b91505092959194509250565b6000806040838503121561341257600080fd5b6000613420858286016131fe565b925050602061343185828601613213565b9150509250929050565b6000806040838503121561344e57600080fd5b600061345c858286016131fe565b925050602061346d858286016132a6565b9150509250929050565b60006020828403121561348957600080fd5b600061349784828501613228565b91505092915050565b6000602082840312156134b257600080fd5b60006134c08482850161323d565b91505092915050565b6000602082840312156134db57600080fd5b600082013567ffffffffffffffff8111156134f557600080fd5b6135018482850161327c565b91505092915050565b60008060006060848603121561351f57600080fd5b600084013567ffffffffffffffff81111561353957600080fd5b6135458682870161327c565b935050602084013567ffffffffffffffff81111561356257600080fd5b61356e8682870161327c565b925050604061357f868287016132a6565b9150509250925092565b60006020828403121561359b57600080fd5b60006135a9848285016132a6565b91505092915050565b600080604083850312156135c557600080fd5b60006135d3858286016132a6565b92505060206135e485828601613213565b9150509250929050565b6000806040838503121561360157600080fd5b600061360f858286016132a6565b9250506020613620858286016132a6565b9150509250929050565b60006020828403121561363c57600080fd5b600061364a848285016132bb565b91505092915050565b600061365f838361367a565b60208301905092915050565b613674816143d7565b82525050565b613683816143c5565b82525050565b613692816143c5565b82525050565b60006136a38261429e565b6136ad81856142cc565b93506136b88361428e565b8060005b838110156136e95781516136d08882613653565b97506136db836142bf565b9250506001810190506136bc565b5085935050505092915050565b6136ff816143e9565b82525050565b6000613710826142a9565b61371a81856142dd565b935061372a818560208601614467565b6137338161465d565b840191505092915050565b6000613749826142b4565b61375381856142ee565b9350613763818560208601614467565b61376c8161465d565b840191505092915050565b6000613782826142b4565b61378c81856142ff565b935061379c818560208601614467565b80840191505092915050565b60006137b56011836142ee565b91506137c08261466e565b602082019050919050565b60006137d86003836142ee565b91506137e382614697565b602082019050919050565b60006137fb6032836142ee565b9150613806826146c0565b604082019050919050565b600061381e6003836142ee565b91506138298261470f565b602082019050919050565b60006138416025836142ee565b915061384c82614738565b604082019050919050565b6000613864601c836142ee565b915061386f82614787565b602082019050919050565b6000613887601e836142ee565b9150613892826147b0565b602082019050919050565b60006138aa6017836142ee565b91506138b5826147d9565b602082019050919050565b60006138cd6024836142ee565b91506138d882614802565b604082019050919050565b60006138f06003836142ee565b91506138fb82614851565b602082019050919050565b60006139136019836142ee565b915061391e8261487a565b602082019050919050565b6000613936602c836142ee565b9150613941826148a3565b604082019050919050565b60006139596002836142ee565b9150613964826148f2565b602082019050919050565b600061397c6038836142ee565b91506139878261491b565b604082019050919050565b600061399f6002836142ee565b91506139aa8261496a565b602082019050919050565b60006139c2602a836142ee565b91506139cd82614993565b604082019050919050565b60006139e56029836142ee565b91506139f0826149e2565b604082019050919050565b6000613a086002836142ee565b9150613a1382614a31565b602082019050919050565b6000613a2b6003836142ee565b9150613a3682614a5a565b602082019050919050565b6000613a4e6020836142ee565b9150613a5982614a83565b602082019050919050565b6000613a71602c836142ee565b9150613a7c82614aac565b604082019050919050565b6000613a94602f836142ee565b9150613a9f82614afb565b604082019050919050565b6000613ab76002836142ee565b9150613ac282614b4a565b602082019050919050565b6000613ada6002836142ee565b9150613ae582614b73565b602082019050919050565b6000613afd6019836142ee565b9150613b0882614b9c565b602082019050919050565b6000613b206003836142ee565b9150613b2b82614bc5565b602082019050919050565b6000613b436021836142ee565b9150613b4e82614bee565b604082019050919050565b6000613b666003836142ee565b9150613b7182614c3d565b602082019050919050565b6000613b896031836142ee565b9150613b9482614c66565b604082019050919050565b6000613bac601d836142ee565b9150613bb782614cb5565b602082019050919050565b6000613bcf6002836142ee565b9150613bda82614cde565b602082019050919050565b6000613bf26013836142ee565b9150613bfd82614d07565b602082019050919050565b613c1181614441565b82525050565b613c208161444b565b82525050565b6000613c328284613777565b915081905092915050565b6000613c498285613777565b9150613c558284613777565b91508190509392505050565b6000602082019050613c766000830184613689565b92915050565b6000608082019050613c916000830187613689565b613c9e6020830186613689565b613cab6040830185613c08565b8181036060830152613cbd8184613705565b905095945050505050565b60006020820190508181036000830152613ce28184613698565b905092915050565b6000602082019050613cff60008301846136f6565b92915050565b60006020820190508181036000830152613d1f818461373e565b905092915050565b60006020820190508181036000830152613d40816137a8565b9050919050565b60006020820190508181036000830152613d60816137cb565b9050919050565b60006020820190508181036000830152613d80816137ee565b9050919050565b60006020820190508181036000830152613da081613811565b9050919050565b60006020820190508181036000830152613dc081613834565b9050919050565b60006020820190508181036000830152613de081613857565b9050919050565b60006020820190508181036000830152613e008161387a565b9050919050565b60006020820190508181036000830152613e208161389d565b9050919050565b60006020820190508181036000830152613e40816138c0565b9050919050565b60006020820190508181036000830152613e60816138e3565b9050919050565b60006020820190508181036000830152613e8081613906565b9050919050565b60006020820190508181036000830152613ea081613929565b9050919050565b60006020820190508181036000830152613ec08161394c565b9050919050565b60006020820190508181036000830152613ee08161396f565b9050919050565b60006020820190508181036000830152613f0081613992565b9050919050565b60006020820190508181036000830152613f20816139b5565b9050919050565b60006020820190508181036000830152613f40816139d8565b9050919050565b60006020820190508181036000830152613f60816139fb565b9050919050565b60006020820190508181036000830152613f8081613a1e565b9050919050565b60006020820190508181036000830152613fa081613a41565b9050919050565b60006020820190508181036000830152613fc081613a64565b9050919050565b60006020820190508181036000830152613fe081613a87565b9050919050565b6000602082019050818103600083015261400081613aaa565b9050919050565b6000602082019050818103600083015261402081613acd565b9050919050565b6000602082019050818103600083015261404081613af0565b9050919050565b6000602082019050818103600083015261406081613b13565b9050919050565b6000602082019050818103600083015261408081613b36565b9050919050565b600060208201905081810360008301526140a081613b59565b9050919050565b600060208201905081810360008301526140c081613b7c565b9050919050565b600060208201905081810360008301526140e081613b9f565b9050919050565b6000602082019050818103600083015261410081613bc2565b9050919050565b6000602082019050818103600083015261412081613be5565b9050919050565b600060208201905061413c6000830184613c08565b92915050565b600061014082019050614158600083018d613c08565b818103602083015261416a818c61373e565b9050818103604083015261417e818b61373e565b905061418d606083018a61366b565b61419a608083018961366b565b6141a760a083018861366b565b6141b460c0830187613c08565b6141c160e0830186613c08565b6141cf6101008301856136f6565b6141dd6101208301846136f6565b9b9a5050505050505050505050565b60006020820190506142016000830184613c17565b92915050565b6000614211614222565b905061421d82826144cc565b919050565b6000604051905090565b600067ffffffffffffffff8211156142475761424661462e565b5b6142508261465d565b9050602081019050919050565b600067ffffffffffffffff8211156142785761427761462e565b5b6142818261465d565b9050602081019050919050565b6000819050602082019050919050565b600081519050919050565b600081519050919050565b600081519050919050565b6000602082019050919050565b600082825260208201905092915050565b600082825260208201905092915050565b600082825260208201905092915050565b600081905092915050565b600061431582614441565b915061432083614441565b9250827fffffffffffffffffffffffffffffffffffffffffffffffffffffffffffffffff03821115614355576143546145a1565b5b828201905092915050565b600061436b82614441565b915061437683614441565b925082614386576143856145d0565b5b828204905092915050565b600061439c82614441565b91506143a783614441565b9250828210156143ba576143b96145a1565b5b828203905092915050565b60006143d082614421565b9050919050565b60006143e282614421565b9050919050565b60008115159050919050565b60007fffffffff0000000000000000000000000000000000000000000000000000000082169050919050565b600073ffffffffffffffffffffffffffffffffffffffff82169050919050565b6000819050919050565b600060ff82169050919050565b82818337600083830152505050565b60005b8381101561448557808201518184015260208101905061446a565b83811115614494576000848401525b50505050565b600060028204905060018216806144b257607f821691505b602082108114156144c6576144c56145ff565b5b50919050565b6144d58261465d565b810181811067ffffffffffffffff821117156144f4576144f361462e565b5b80604052505050565b600061450882614441565b91507fffffffffffffffffffffffffffffffffffffffffffffffffffffffffffffffff82141561453b5761453a6145a1565b5b600182019050919050565b60006145518261444b565b915060ff821415614565576145646145a1565b5b600182019050919050565b600061457b82614441565b915061458683614441565b925082614596576145956145d0565b5b828206905092915050565b7f4e487b7100000000000000000000000000000000000000000000000000000000600052601160045260246000fd5b7f4e487b7100000000000000000000000000000000000000000000000000000000600052601260045260246000fd5b7f4e487b7100000000000000000000000000000000000000000000000000000000600052602260045260246000fd5b7f4e487b7100000000000000000000000000000000000000000000000000000000600052604160045260246000fd5b6000601f19601f8301169050919050565b7f4f6e6c792076616c69642063616c6c6572000000000000000000000000000000600082015250565b7f2d31330000000000000000000000000000000000000000000000000000000000600082015250565b7f4552433732313a207472616e7366657220746f206e6f6e20455243373231526560008201527f63656976657220696d706c656d656e7465720000000000000000000000000000602082015250565b7f2d31300000000000000000000000000000000000000000000000000000000000600082015250565b7f4552433732313a207472616e736665722066726f6d20696e636f72726563742060008201527f6f776e6572000000000000000000000000000000000000000000000000000000602082015250565b7f4552433732313a20746f6b656e20616c7265616479206d696e74656400000000600082015250565b7f466f722063616c6c65722065787065637465642062652063726561746f720000600082015250565b7f496e76616c69642063726561746f722061646472657373000000000000000000600082015250565b7f4552433732313a207472616e7366657220746f20746865207a65726f2061646460008201527f7265737300000000000000000000000000000000000000000000000000000000602082015250565b7f2d31350000000000000000000000000000000000000000000000000000000000600082015250565b7f4552433732313a20617070726f766520746f2063616c6c657200000000000000600082015250565b7f4552433732313a206f70657261746f7220717565727920666f72206e6f6e657860008201527f697374656e7420746f6b656e0000000000000000000000000000000000000000602082015250565b7f2d33000000000000000000000000000000000000000000000000000000000000600082015250565b7f4552433732313a20617070726f76652063616c6c6572206973206e6f74206f7760008201527f6e6572206e6f7220617070726f76656420666f7220616c6c0000000000000000602082015250565b7f2d34000000000000000000000000000000000000000000000000000000000000600082015250565b7f4552433732313a2062616c616e636520717565727920666f7220746865207a6560008201527f726f206164647265737300000000000000000000000000000000000000000000602082015250565b7f4552433732313a206f776e657220717565727920666f72206e6f6e657869737460008201527f656e7420746f6b656e0000000000000000000000000000000000000000000000602082015250565b7f2d35000000000000000000000000000000000000000000000000000000000000600082015250565b7f2d31310000000000000000000000000000000000000000000000000000000000600082015250565b7f4552433732313a206d696e7420746f20746865207a65726f2061646472657373600082015250565b7f4552433732313a20617070726f76656420717565727920666f72206e6f6e657860008201527f697374656e7420746f6b656e0000000000000000000000000000000000000000602082015250565b7f4552433732314d657461646174613a2055524920717565727920666f72206e6f60008201527f6e6578697374656e7420746f6b656e0000000000000000000000000000000000602082015250565b7f2d36000000000000000000000000000000000000000000000000000000000000600082015250565b7f2d37000000000000000000000000000000000000000000000000000000000000600082015250565b7f4578706563746564206e6f6e2d7a65726f206164647265737300000000000000600082015250565b7f2d31320000000000000000000000000000000000000000000000000000000000600082015250565b7f4552433732313a20617070726f76616c20746f2063757272656e74206f776e6560008201527f7200000000000000000000000000000000000000000000000000000000000000602082015250565b7f2d31340000000000000000000000000000000000000000000000000000000000600082015250565b7f4552433732313a207472616e736665722063616c6c6572206973206e6f74206f60008201527f776e6572206e6f7220617070726f766564000000000000000000000000000000602082015250565b7f496e76616c69642063616c6c65722e204d7573742062652061646d696e000000600082015250565b7f2d39000000000000000000000000000000000000000000000000000000000000600082015250565b7f41646d696e2067726f75702069732066756c6c00000000000000000000000000600082015250565b614d39816143c5565b8114614d4457600080fd5b50565b614d50816143e9565b8114614d5b57600080fd5b50565b614d67816143f5565b8114614d7257600080fd5b50565b614d7e81614441565b8114614d8957600080fd5b50565b614d958161444b565b8114614da057600080fd5b5056fea2646970667358221220923582e57d70dc7aee409ba02e600570090652cd0ec02d5633a74735e8ae5a0964736f6c634300080400334f70656e636861696e205061776e696e67204e46547320436f6c6c656374696f6e",
  "immutableReferences": {},
  "source": "// SPDX-License-Identifier: MIT\npragma solidity ^0.8.0;\n\n// import \"@openzeppelin/contracts/utils/Counters.sol\";\nimport \"@openzeppelin/contracts/token/ERC721/ERC721.sol\";\nimport \"./AdministratedContract.sol\";\n\n/*\n * -2: mint(): Error: caller of zero address\n * -3: Too small price\n * -4: PawnNFTs.mint(): The token id already exists\n * -5: PawnNFTs.mint(): The token URI already exists\n * -6: PawnNFTs.mint(): The token name already exists\n * -7: Invalid token id\n * -8: buyToken(): Error: caller of zero address\n * -9: buyToken(): The token id already exists\n * -10: buyToken(): Error: token owner of zero address\n * -11: buyToken(): Error: buyer is token owner\n * -12: buyToken(): Not enough funds\n * -13: buyToken(): Token should be for sale\n * -14: PawnNFTs: transfer from incorrect owner\n * -15: PawnNFTs: transfer to the zero address\n * -16: \n * -17: \n * -18: \n * -19: \n * -20: \n */\n\n// PawnNFTs smart contract inherits ERC721 interface\ncontract PawnNFTs is ERC721, AdministratedContract {\n\n  // this contract's token collection name\n  // string public collectionName;\n  // this contract's token symbol\n  // string public collectionNameSymbol;\n  // total number of pawning NFTs minted\n  uint256 private totalSupply;\n\n  uint64  private minPnftPrice = 5000;\n\n  uint8   public decimals = 0;\n  \n  // define pawning NFT struct\n  struct PawnNFT {\n    uint256 tokenId;\n    string tokenName;\n    string tokenURI;\n    address payable mintedBy;\n    address payable currentOwner;\n    address payable previousOwner;\n    uint256 price;\n    uint256 numberOfTransfers;\n    bool forSale;\n    bool mintedNativeToken;\n  }\n\n  // map pawnNft's token id to pawning NFT\n  mapping(uint256 => PawnNFT) public allPawnNFTs;\n  // \n  mapping(uint256 => string) public tokenURIs;\n  // check if token name exists\n  mapping(string => bool) public tokenNameExists;\n  // check if token URI exists\n  mapping(string => uint256) public tokenURIExists;\n\n  receive() external payable {}\n\n  // initialize contract while deployment with contract's collection name and token\n  constructor() ERC721(\"Openchain Pawning NFTs Collection\", \"PNFT\") {\n    // collectionName = name();\n    // collectionNameSymbol = symbol();\n  }\n\n  modifier onlyTokenOwner(uint256 _tokenId) virtual {\n    // check if the token id of the token being bought exists or not\n    require(_exists(_tokenId), \"-9\");\n    address tokenOwner = ownerOf(_tokenId);\n    // token's owner should not be an zero address account\n    require(tokenOwner != address(0), \"-10\");\n    // sender should not be an zero address account\n    require(msg.sender != address(0), \"-10\");\n    // the one who wants to buy the token should not be the token's owner\n    require(tokenOwner == msg.sender, \"-11\");\n    _;\n  }\n\n  function setMinPnftPrice(uint8 _minPnftPrice) public \n  // onlyAdmin \n  {\n      minPnftPrice = _minPnftPrice;\n  }\n\n  // mint a new pawning NFT and return token ID\n  function mint(string memory _name, string memory _tokenURI, uint256 _price) external \n  returns(uint256 newTokenID) {\n    require(msg.sender != address(0), \"Only valid caller\");\n    require(_price >= minPnftPrice, \"-3\");\n    // increment counter\n    newTokenID = totalSupply;\n    totalSupply++;\n    // check if a token exists with the above token id => incremented counter\n    require(!_exists(newTokenID), \"-4\");\n\n    // check if the token URI already exists or not\n    require(tokenURIExists[_tokenURI] == 0, \"-5\");\n    // check if the token name already exists or not\n    require(!tokenNameExists[_name], \"-6\");\n\n    // mint the token\n    _safeMint(msg.sender, newTokenID);\n    // set token URI (bind token id with the passed in token URI)\n    tokenURIs[newTokenID] = _tokenURI;\n\n    // make passed token URI as exists\n    tokenURIExists[_tokenURI] = newTokenID;\n    // make token name passed as exists\n    tokenNameExists[_name] = true;\n\n    // creat a new pawning NFT (struct) and pass in new values\n    allPawnNFTs[newTokenID] = PawnNFT(\n      newTokenID,\n      _name,\n      _tokenURI,\n      payable(msg.sender),\n      payable(msg.sender),\n      payable(address(0)),\n      _price,\n      0,\n      true,\n      false // mintedNativeToken\n    );\n    // add the token id and it's pawning NFT to all pawning NFTs mapping\n    // allPawnNFTs[newTokenID] = newPawnNFT;\n  }\n\n  // get owner of the token\n  function getTokenOwner(uint256 _tokenId) public view returns(address) {\n    return ownerOf(_tokenId);\n  }\n\n  // get metadata of the token\n  function getTokenMetaData(uint _tokenId) public view \n  returns(string memory tokenMetaData) {\n    tokenMetaData = tokenURI(_tokenId);\n  }\n\n  function setMintedNativeToken(uint256 _tokenId, bool _mintedNativeToken) public {\n    require(allPawnNFTs[_tokenId].tokenId > 0, \"-7\");\n    allPawnNFTs[_tokenId].mintedNativeToken = _mintedNativeToken;\n  }\n\n  // check if the token already exists\n  function exists(uint256 _tokenId) public view returns(bool tokenExists) {\n    tokenExists = _exists(_tokenId);\n  }\n\n  // by a token by passing in the token's id\n  function buyToken(uint256 _tokenId) public payable \n  onlyTokenOwner(_tokenId) {\n    // price sent in to buy should be equal to or more than the token's price\n    require(msg.value >= allPawnNFTs[_tokenId].price, \"-12\");\n    // token should be for sale\n    require(allPawnNFTs[_tokenId].forSale, \"-13\");\n    // transfer the token from owner to the caller of the function (buyer)\n    _transfer(ownerOf(_tokenId), msg.sender, _tokenId);\n    // send token's worth of ethers to the owner\n    allPawnNFTs[_tokenId].currentOwner.transfer(msg.value);\n    // update the token's previous owner\n    allPawnNFTs[_tokenId].previousOwner = allPawnNFTs[_tokenId].currentOwner;\n    // update the token's current owner\n    allPawnNFTs[_tokenId].currentOwner = payable(msg.sender);\n    // update the how many times this token was transfered\n    allPawnNFTs[_tokenId].numberOfTransfers += 1;\n  }\n\n  function _afterTokenTransfer(\n      address /*from*/,\n      address to,\n      uint256 tokenId\n  ) internal virtual override {\n    // Now the owner of the token ID is \"to\"\n    require(ERC721.ownerOf(tokenId) == to, \"-14\");\n    require(to != address(0), \"-15\");\n\n    // update the token's previous owner\n    allPawnNFTs[tokenId].previousOwner = allPawnNFTs[tokenId].currentOwner;\n    // update the token's current owner\n    allPawnNFTs[tokenId].currentOwner = payable(to);\n  }\n\n  function changeTokenPrice(uint256 _tokenId, uint256 _newPrice) public \n  // onlyTokenOwner(_tokenId) {\n  onlyAdmin \n  {\n    // update token's price with new price\n    allPawnNFTs[_tokenId].price = _newPrice;\n  }\n\n  // switch between set for sale and set not for sale\n  function toggleForSale(uint256 _tokenId) public \n  onlyTokenOwner(_tokenId) {\n    // if token's forSale is false make it true and vice versa\n    allPawnNFTs[_tokenId].forSale = !(allPawnNFTs[_tokenId].forSale);\n  }\n}\n",
  "sourcePath": "/home/cowboy/OpenchainTestVersion/server/contracts/PawnNFTs.sol",
  "compiler": {
    "name": "solc",
    "version": "0.8.4+commit.c7e474f2.Emscripten.clang"
  },
  "schemaVersion": "3.4.6",
  "updatedAt": "2022-04-13T20:58:24.127Z",
  "networkType": "ethereum",
  "devdoc": {
    "kind": "dev",
    "methods": {
      "approve(address,uint256)": {
        "details": "See {IERC721-approve}."
      },
      "balanceOf(address)": {
        "details": "See {IERC721-balanceOf}."
      },
      "getApproved(uint256)": {
        "details": "See {IERC721-getApproved}."
      },
      "isApprovedForAll(address,address)": {
        "details": "See {IERC721-isApprovedForAll}."
      },
      "name()": {
        "details": "See {IERC721Metadata-name}."
      },
      "ownerOf(uint256)": {
        "details": "See {IERC721-ownerOf}."
      },
      "safeTransferFrom(address,address,uint256)": {
        "details": "See {IERC721-safeTransferFrom}."
      },
      "safeTransferFrom(address,address,uint256,bytes)": {
        "details": "See {IERC721-safeTransferFrom}."
      },
      "setApprovalForAll(address,bool)": {
        "details": "See {IERC721-setApprovalForAll}."
      },
      "supportsInterface(bytes4)": {
        "details": "See {IERC165-supportsInterface}."
      },
      "symbol()": {
        "details": "See {IERC721Metadata-symbol}."
      },
      "tokenURI(uint256)": {
        "details": "See {IERC721Metadata-tokenURI}."
      },
      "transferFrom(address,address,uint256)": {
        "details": "See {IERC721-transferFrom}."
      }
    },
    "version": 1
  },
  "userdoc": {
    "kind": "user",
    "methods": {},
    "version": 1
  }
}