{
  "contractName": "PawnNFTs",
  "abi": [
    {
      "inputs": [],
      "stateMutability": "nonpayable",
      "type": "constructor"
    },
    {
      "anonymous": false,
      "inputs": [
        {
          "indexed": true,
          "internalType": "address",
          "name": "owner",
          "type": "address"
        },
        {
          "indexed": true,
          "internalType": "address",
          "name": "approved",
          "type": "address"
        },
        {
          "indexed": true,
          "internalType": "uint256",
          "name": "tokenId",
          "type": "uint256"
        }
      ],
      "name": "Approval",
      "type": "event"
    },
    {
      "anonymous": false,
      "inputs": [
        {
          "indexed": true,
          "internalType": "address",
          "name": "owner",
          "type": "address"
        },
        {
          "indexed": true,
          "internalType": "address",
          "name": "operator",
          "type": "address"
        },
        {
          "indexed": false,
          "internalType": "bool",
          "name": "approved",
          "type": "bool"
        }
      ],
      "name": "ApprovalForAll",
      "type": "event"
    },
    {
      "anonymous": false,
      "inputs": [
        {
          "indexed": true,
          "internalType": "address",
          "name": "from",
          "type": "address"
        },
        {
          "indexed": true,
          "internalType": "address",
          "name": "to",
          "type": "address"
        },
        {
          "indexed": true,
          "internalType": "uint256",
          "name": "tokenId",
          "type": "uint256"
        }
      ],
      "name": "Transfer",
      "type": "event"
    },
    {
      "inputs": [
        {
          "internalType": "uint256",
          "name": "",
          "type": "uint256"
        }
      ],
      "name": "allPawnNFTs",
      "outputs": [
        {
          "internalType": "uint256",
          "name": "tokenId",
          "type": "uint256"
        },
        {
          "internalType": "string",
          "name": "tokenName",
          "type": "string"
        },
        {
          "internalType": "string",
          "name": "tokenURI",
          "type": "string"
        },
        {
          "internalType": "address payable",
          "name": "mintedBy",
          "type": "address"
        },
        {
          "internalType": "address payable",
          "name": "currentOwner",
          "type": "address"
        },
        {
          "internalType": "address payable",
          "name": "previousOwner",
          "type": "address"
        },
        {
          "internalType": "uint256",
          "name": "price",
          "type": "uint256"
        },
        {
          "internalType": "uint256",
          "name": "numberOfTransfers",
          "type": "uint256"
        },
        {
          "internalType": "bool",
          "name": "forSale",
          "type": "bool"
        }
      ],
      "stateMutability": "view",
      "type": "function"
    },
    {
      "inputs": [
        {
          "internalType": "address",
          "name": "to",
          "type": "address"
        },
        {
          "internalType": "uint256",
          "name": "tokenId",
          "type": "uint256"
        }
      ],
      "name": "approve",
      "outputs": [],
      "stateMutability": "nonpayable",
      "type": "function"
    },
    {
      "inputs": [
        {
          "internalType": "address",
          "name": "owner",
          "type": "address"
        }
      ],
      "name": "balanceOf",
      "outputs": [
        {
          "internalType": "uint256",
          "name": "",
          "type": "uint256"
        }
      ],
      "stateMutability": "view",
      "type": "function"
    },
    {
      "inputs": [],
      "name": "collectionName",
      "outputs": [
        {
          "internalType": "string",
          "name": "",
          "type": "string"
        }
      ],
      "stateMutability": "view",
      "type": "function"
    },
    {
      "inputs": [],
      "name": "collectionNameSymbol",
      "outputs": [
        {
          "internalType": "string",
          "name": "",
          "type": "string"
        }
      ],
      "stateMutability": "view",
      "type": "function"
    },
    {
      "inputs": [],
      "name": "decimals",
      "outputs": [
        {
          "internalType": "uint256",
          "name": "",
          "type": "uint256"
        }
      ],
      "stateMutability": "view",
      "type": "function"
    },
    {
      "inputs": [
        {
          "internalType": "uint256",
          "name": "tokenId",
          "type": "uint256"
        }
      ],
      "name": "getApproved",
      "outputs": [
        {
          "internalType": "address",
          "name": "",
          "type": "address"
        }
      ],
      "stateMutability": "view",
      "type": "function"
    },
    {
      "inputs": [
        {
          "internalType": "address",
          "name": "owner",
          "type": "address"
        },
        {
          "internalType": "address",
          "name": "operator",
          "type": "address"
        }
      ],
      "name": "isApprovedForAll",
      "outputs": [
        {
          "internalType": "bool",
          "name": "",
          "type": "bool"
        }
      ],
      "stateMutability": "view",
      "type": "function"
    },
    {
      "inputs": [],
      "name": "name",
      "outputs": [
        {
          "internalType": "string",
          "name": "",
          "type": "string"
        }
      ],
      "stateMutability": "view",
      "type": "function"
    },
    {
      "inputs": [
        {
          "internalType": "uint256",
          "name": "tokenId",
          "type": "uint256"
        }
      ],
      "name": "ownerOf",
      "outputs": [
        {
          "internalType": "address",
          "name": "",
          "type": "address"
        }
      ],
      "stateMutability": "view",
      "type": "function"
    },
    {
      "inputs": [
        {
          "internalType": "address",
          "name": "from",
          "type": "address"
        },
        {
          "internalType": "address",
          "name": "to",
          "type": "address"
        },
        {
          "internalType": "uint256",
          "name": "tokenId",
          "type": "uint256"
        }
      ],
      "name": "safeTransferFrom",
      "outputs": [],
      "stateMutability": "nonpayable",
      "type": "function"
    },
    {
      "inputs": [
        {
          "internalType": "address",
          "name": "from",
          "type": "address"
        },
        {
          "internalType": "address",
          "name": "to",
          "type": "address"
        },
        {
          "internalType": "uint256",
          "name": "tokenId",
          "type": "uint256"
        },
        {
          "internalType": "bytes",
          "name": "_data",
          "type": "bytes"
        }
      ],
      "name": "safeTransferFrom",
      "outputs": [],
      "stateMutability": "nonpayable",
      "type": "function"
    },
    {
      "inputs": [
        {
          "internalType": "address",
          "name": "operator",
          "type": "address"
        },
        {
          "internalType": "bool",
          "name": "approved",
          "type": "bool"
        }
      ],
      "name": "setApprovalForAll",
      "outputs": [],
      "stateMutability": "nonpayable",
      "type": "function"
    },
    {
      "inputs": [
        {
          "internalType": "bytes4",
          "name": "interfaceId",
          "type": "bytes4"
        }
      ],
      "name": "supportsInterface",
      "outputs": [
        {
          "internalType": "bool",
          "name": "",
          "type": "bool"
        }
      ],
      "stateMutability": "view",
      "type": "function"
    },
    {
      "inputs": [],
      "name": "symbol",
      "outputs": [
        {
          "internalType": "string",
          "name": "",
          "type": "string"
        }
      ],
      "stateMutability": "view",
      "type": "function"
    },
    {
      "inputs": [
        {
          "internalType": "string",
          "name": "",
          "type": "string"
        }
      ],
      "name": "tokenNameExists",
      "outputs": [
        {
          "internalType": "bool",
          "name": "",
          "type": "bool"
        }
      ],
      "stateMutability": "view",
      "type": "function"
    },
    {
      "inputs": [
        {
          "internalType": "string",
          "name": "",
          "type": "string"
        }
      ],
      "name": "tokenURIExists",
      "outputs": [
        {
          "internalType": "uint256",
          "name": "",
          "type": "uint256"
        }
      ],
      "stateMutability": "view",
      "type": "function"
    },
    {
      "inputs": [
        {
          "internalType": "uint256",
          "name": "",
          "type": "uint256"
        }
      ],
      "name": "tokenURIs",
      "outputs": [
        {
          "internalType": "string",
          "name": "",
          "type": "string"
        }
      ],
      "stateMutability": "view",
      "type": "function"
    },
    {
      "inputs": [
        {
          "internalType": "address",
          "name": "from",
          "type": "address"
        },
        {
          "internalType": "address",
          "name": "to",
          "type": "address"
        },
        {
          "internalType": "uint256",
          "name": "tokenId",
          "type": "uint256"
        }
      ],
      "name": "transferFrom",
      "outputs": [],
      "stateMutability": "nonpayable",
      "type": "function"
    },
    {
      "stateMutability": "payable",
      "type": "receive"
    },
    {
      "inputs": [
        {
          "internalType": "uint256",
          "name": "tokenId",
          "type": "uint256"
        }
      ],
      "name": "tokenURI",
      "outputs": [
        {
          "internalType": "string",
          "name": "",
          "type": "string"
        }
      ],
      "stateMutability": "view",
      "type": "function"
    },
    {
      "inputs": [],
      "name": "totalSupply",
      "outputs": [
        {
          "internalType": "uint256",
          "name": "",
          "type": "uint256"
        }
      ],
      "stateMutability": "view",
      "type": "function"
    },
    {
      "inputs": [
        {
          "internalType": "string",
          "name": "_name",
          "type": "string"
        },
        {
          "internalType": "string",
          "name": "_tokenURI",
          "type": "string"
        },
        {
          "internalType": "uint256",
          "name": "_price",
          "type": "uint256"
        }
      ],
      "name": "mintPawnNFT",
      "outputs": [
        {
          "internalType": "uint256",
          "name": "",
          "type": "uint256"
        }
      ],
      "stateMutability": "nonpayable",
      "type": "function"
    },
    {
      "inputs": [
        {
          "internalType": "uint256",
          "name": "_tokenId",
          "type": "uint256"
        }
      ],
      "name": "getTokenOwner",
      "outputs": [
        {
          "internalType": "address",
          "name": "",
          "type": "address"
        }
      ],
      "stateMutability": "view",
      "type": "function"
    },
    {
      "inputs": [
        {
          "internalType": "uint256",
          "name": "_tokenId",
          "type": "uint256"
        }
      ],
      "name": "getTokenMetaData",
      "outputs": [
        {
          "internalType": "string",
          "name": "",
          "type": "string"
        }
      ],
      "stateMutability": "view",
      "type": "function"
    },
    {
      "inputs": [],
      "name": "getNumberOfTokensMinted",
      "outputs": [
        {
          "internalType": "uint256",
          "name": "",
          "type": "uint256"
        }
      ],
      "stateMutability": "view",
      "type": "function"
    },
    {
      "inputs": [
        {
          "internalType": "address",
          "name": "_owner",
          "type": "address"
        }
      ],
      "name": "getTotalNumberOfTokensOwnedByAnAddress",
      "outputs": [
        {
          "internalType": "uint256",
          "name": "",
          "type": "uint256"
        }
      ],
      "stateMutability": "view",
      "type": "function"
    },
    {
      "inputs": [
        {
          "internalType": "uint256",
          "name": "_tokenId",
          "type": "uint256"
        }
      ],
      "name": "getTokenExists",
      "outputs": [
        {
          "internalType": "bool",
          "name": "",
          "type": "bool"
        }
      ],
      "stateMutability": "view",
      "type": "function"
    },
    {
      "inputs": [
        {
          "internalType": "uint256",
          "name": "_tokenId",
          "type": "uint256"
        }
      ],
      "name": "buyToken",
      "outputs": [],
      "stateMutability": "payable",
      "type": "function"
    },
    {
      "inputs": [
        {
          "internalType": "uint256",
          "name": "_tokenId",
          "type": "uint256"
        },
        {
          "internalType": "uint256",
          "name": "_newPrice",
          "type": "uint256"
        }
      ],
      "name": "changeTokenPrice",
      "outputs": [],
      "stateMutability": "nonpayable",
      "type": "function"
    },
    {
      "inputs": [
        {
          "internalType": "uint256",
          "name": "_tokenId",
          "type": "uint256"
        }
      ],
      "name": "toggleForSale",
      "outputs": [],
      "stateMutability": "nonpayable",
      "type": "function"
    }
  ],
  "bytecode": "0x608060405260006009553480156200001657600080fd5b5060405180606001604052806021815260200162005926602191396040518060400160405280600481526020017f504e46540000000000000000000000000000000000000000000000000000000081525081600090805190602001906200007f92919062000225565b5080600190805190602001906200009892919062000225565b505050620000ab620000f160201b60201c565b60069080519060200190620000c292919062000225565b50620000d36200018b60201b60201c565b60079080519060200190620000ea92919062000225565b506200033a565b6060600080546200010290620002d5565b80601f01602080910402602001604051908101604052809291908181526020018280546200013090620002d5565b8015620001815780601f10620001555761010080835404028352916020019162000181565b820191906000526020600020905b8154815290600101906020018083116200016357829003601f168201915b5050505050905090565b6060600180546200019c90620002d5565b80601f0160208091040260200160405190810160405280929190818152602001828054620001ca90620002d5565b80156200021b5780601f10620001ef576101008083540402835291602001916200021b565b820191906000526020600020905b815481529060010190602001808311620001fd57829003601f168201915b5050505050905090565b8280546200023390620002d5565b90600052602060002090601f016020900481019282620002575760008555620002a3565b82601f106200027257805160ff1916838001178555620002a3565b82800160010185558215620002a3579182015b82811115620002a257825182559160200191906001019062000285565b5b509050620002b29190620002b6565b5090565b5b80821115620002d1576000816000905550600101620002b7565b5090565b60006002820490506001821680620002ee57607f821691505b602082108114156200030557620003046200030b565b5b50919050565b7f4e487b7100000000000000000000000000000000000000000000000000000000600052602260045260246000fd5b6155dc806200034a6000396000f3fe6080604052600436106101d15760003560e01c80636c8b703f116100f7578063a46b1fac11610095578063cc151f3a11610064578063cc151f3a14610710578063d170c91b1461073b578063e5326ab114610778578063e985e9c5146107a3576101d8565b8063a46b1fac14610630578063a5cd761f1461066d578063b88d4fde146106aa578063c87b56dd146106d3576101d8565b8063717947b1116100d1578063717947b11461056e57806395d89b41146105b3578063a22cb465146105de578063a32018b914610607576101d8565b80636c8b703f146104c95780636f9507f91461050657806370a0823114610531576101d8565b80632d296bf11161016f57806343d32ae71161013e57806343d32ae7146103e957806362e8e8ac146104265780636352211e1461044f57806367c623cf1461048c576101d8565b80632d296bf11461033c578063313ce5671461035857806342842e0e1461038357806343902850146103ac576101d8565b8063095ea7b3116101ab578063095ea7b314610282578063142687f3146102ab57806318160ddd146102e857806323b872dd14610313576101d8565b806301ffc9a7146101dd57806306fdde031461021a578063081812fc14610245576101d8565b366101d857005b600080fd5b3480156101e957600080fd5b5061020460048036038101906101ff9190613cbe565b6107e0565b60405161021191906143f2565b60405180910390f35b34801561022657600080fd5b5061022f6108c2565b60405161023c919061440d565b60405180910390f35b34801561025157600080fd5b5061026c60048036038101906102679190613dd0565b610954565b604051610279919061438b565b60405180910390f35b34801561028e57600080fd5b506102a960048036038101906102a49190613c82565b6109d9565b005b3480156102b757600080fd5b506102d260048036038101906102cd9190613dd0565b610af1565b6040516102df91906143f2565b60405180910390f35b3480156102f457600080fd5b506102fd610b08565b60405161030a919061482f565b60405180910390f35b34801561031f57600080fd5b5061033a60048036038101906103359190613b7c565b610b19565b005b61035660048036038101906103519190613dd0565b610b79565b005b34801561036457600080fd5b5061036d61127f565b60405161037a919061482f565b60405180910390f35b34801561038f57600080fd5b506103aa60048036038101906103a59190613b7c565b611285565b005b3480156103b857600080fd5b506103d360048036038101906103ce9190613b17565b6112a5565b6040516103e0919061482f565b60405180910390f35b3480156103f557600080fd5b50610410600480360381019061040b9190613d10565b6112bc565b60405161041d919061482f565b60405180910390f35b34801561043257600080fd5b5061044d60048036038101906104489190613df9565b6112ea565b005b34801561045b57600080fd5b5061047660048036038101906104719190613dd0565b611814565b604051610483919061438b565b60405180910390f35b34801561049857600080fd5b506104b360048036038101906104ae9190613dd0565b6118c6565b6040516104c0919061440d565b60405180910390f35b3480156104d557600080fd5b506104f060048036038101906104eb9190613dd0565b6118de565b6040516104fd919061440d565b60405180910390f35b34801561051257600080fd5b5061051b61197e565b604051610528919061440d565b60405180910390f35b34801561053d57600080fd5b5061055860048036038101906105539190613b17565b611a0c565b604051610565919061482f565b60405180910390f35b34801561057a57600080fd5b5061059560048036038101906105909190613dd0565b611ac4565b6040516105aa9998979695949392919061484a565b60405180910390f35b3480156105bf57600080fd5b506105c8611c8f565b6040516105d5919061440d565b60405180910390f35b3480156105ea57600080fd5b5061060560048036038101906106009190613c46565b611d21565b005b34801561061357600080fd5b5061062e60048036038101906106299190613dd0565b611d37565b005b34801561063c57600080fd5b5061065760048036038101906106529190613d10565b61228b565b60405161066491906143f2565b60405180910390f35b34801561067957600080fd5b50610694600480360381019061068f9190613dd0565b6122c1565b6040516106a1919061438b565b60405180910390f35b3480156106b657600080fd5b506106d160048036038101906106cc9190613bcb565b6122d8565b005b3480156106df57600080fd5b506106fa60048036038101906106f59190613dd0565b61233a565b604051610707919061440d565b60405180910390f35b34801561071c57600080fd5b50610725612427565b604051610732919061482f565b60405180910390f35b34801561074757600080fd5b50610762600480360381019061075d9190613d51565b61243b565b60405161076f919061482f565b60405180910390f35b34801561078457600080fd5b5061078d612844565b60405161079a919061440d565b60405180910390f35b3480156107af57600080fd5b506107ca60048036038101906107c59190613b40565b6128d2565b6040516107d791906143f2565b60405180910390f35b60007f80ac58cd000000000000000000000000000000000000000000000000000000007bffffffffffffffffffffffffffffffffffffffffffffffffffffffff1916827bffffffffffffffffffffffffffffffffffffffffffffffffffffffff191614806108ab57507f5b5e139f000000000000000000000000000000000000000000000000000000007bffffffffffffffffffffffffffffffffffffffffffffffffffffffff1916827bffffffffffffffffffffffffffffffffffffffffffffffffffffffff1916145b806108bb57506108ba82612966565b5b9050919050565b6060600080546108d190614b01565b80601f01602080910402602001604051908101604052809291908181526020018280546108fd90614b01565b801561094a5780601f1061091f5761010080835404028352916020019161094a565b820191906000526020600020905b81548152906001019060200180831161092d57829003601f168201915b5050505050905090565b600061095f826129d0565b61099e576040517f08c379a00000000000000000000000000000000000000000000000000000000081526004016109959061468f565b60405180910390fd5b6004600083815260200190815260200160002060009054906101000a900473ffffffffffffffffffffffffffffffffffffffff169050919050565b60006109e482611814565b90508073ffffffffffffffffffffffffffffffffffffffff168373ffffffffffffffffffffffffffffffffffffffff161415610a55576040517f08c379a0000000000000000000000000000000000000000000000000000000008152600401610a4c906146cf565b60405180910390fd5b8073ffffffffffffffffffffffffffffffffffffffff16610a74612a3c565b73ffffffffffffffffffffffffffffffffffffffff161480610aa35750610aa281610a9d612a3c565b6128d2565b5b610ae2576040517f08c379a0000000000000000000000000000000000000000000000000000000008152600401610ad9906145af565b60405180910390fd5b610aec8383612a44565b505050565b600080610afd836129d0565b905080915050919050565b6000610b146008612afd565b905090565b610b2a610b24612a3c565b82612b0b565b610b69576040517f08c379a0000000000000000000000000000000000000000000000000000000008152600401610b609061472f565b60405180910390fd5b610b74838383612be9565b505050565b600073ffffffffffffffffffffffffffffffffffffffff163373ffffffffffffffffffffffffffffffffffffffff161415610be9576040517f08c379a0000000000000000000000000000000000000000000000000000000008152600401610be09061470f565b60405180910390fd5b610bf2816129d0565b610c31576040517f08c379a0000000000000000000000000000000000000000000000000000000008152600401610c28906145ef565b60405180910390fd5b6000610c3c82611814565b9050600073ffffffffffffffffffffffffffffffffffffffff168173ffffffffffffffffffffffffffffffffffffffff161415610cae576040517f08c379a0000000000000000000000000000000000000000000000000000000008152600401610ca5906146af565b60405180910390fd5b3373ffffffffffffffffffffffffffffffffffffffff168173ffffffffffffffffffffffffffffffffffffffff161415610d1d576040517f08c379a0000000000000000000000000000000000000000000000000000000008152600401610d149061444f565b60405180910390fd5b6000600a60008481526020019081526020016000206040518061012001604052908160008201548152602001600182018054610d5890614b01565b80601f0160208091040260200160405190810160405280929190818152602001828054610d8490614b01565b8015610dd15780601f10610da657610100808354040283529160200191610dd1565b820191906000526020600020905b815481529060010190602001808311610db457829003601f168201915b50505050508152602001600282018054610dea90614b01565b80601f0160208091040260200160405190810160405280929190818152602001828054610e1690614b01565b8015610e635780601f10610e3857610100808354040283529160200191610e63565b820191906000526020600020905b815481529060010190602001808311610e4657829003601f168201915b505050505081526020016003820160009054906101000a900473ffffffffffffffffffffffffffffffffffffffff1673ffffffffffffffffffffffffffffffffffffffff1673ffffffffffffffffffffffffffffffffffffffff1681526020016004820160009054906101000a900473ffffffffffffffffffffffffffffffffffffffff1673ffffffffffffffffffffffffffffffffffffffff1673ffffffffffffffffffffffffffffffffffffffff1681526020016005820160009054906101000a900473ffffffffffffffffffffffffffffffffffffffff1673ffffffffffffffffffffffffffffffffffffffff1673ffffffffffffffffffffffffffffffffffffffff16815260200160068201548152602001600782015481526020016008820160009054906101000a900460ff16151515158152505090508060c00151341015610fe6576040517f08c379a0000000000000000000000000000000000000000000000000000000008152600401610fdd9061478f565b60405180910390fd5b80610100015161102b576040517f08c379a00000000000000000000000000000000000000000000000000000000081526004016110229061480f565b60405180910390fd5b611036823385612be9565b6000816080015190508073ffffffffffffffffffffffffffffffffffffffff166108fc349081150290604051600060405180830381858888f19350505050158015611085573d6000803e3d6000fd5b5081608001518260a0019073ffffffffffffffffffffffffffffffffffffffff16908173ffffffffffffffffffffffffffffffffffffffff168152505033826080019073ffffffffffffffffffffffffffffffffffffffff16908173ffffffffffffffffffffffffffffffffffffffff168152505060018260e00181815161110d91906149af565b9150818152505081600a600086815260200190815260200160002060008201518160000155602082015181600101908051906020019061114e92919061393b565b50604082015181600201908051906020019061116b92919061393b565b5060608201518160030160006101000a81548173ffffffffffffffffffffffffffffffffffffffff021916908373ffffffffffffffffffffffffffffffffffffffff16021790555060808201518160040160006101000a81548173ffffffffffffffffffffffffffffffffffffffff021916908373ffffffffffffffffffffffffffffffffffffffff16021790555060a08201518160050160006101000a81548173ffffffffffffffffffffffffffffffffffffffff021916908373ffffffffffffffffffffffffffffffffffffffff16021790555060c0820151816006015560e082015181600701556101008201518160080160006101000a81548160ff02191690831515021790555090505050505050565b60095481565b6112a0838383604051806020016040528060008152506122d8565b505050565b6000806112b183611a0c565b905080915050919050565b600d818051602081018201805184825260208301602085012081835280955050505050506000915090505481565b600073ffffffffffffffffffffffffffffffffffffffff163373ffffffffffffffffffffffffffffffffffffffff16141561135a576040517f08c379a0000000000000000000000000000000000000000000000000000000008152600401611351906147af565b60405180910390fd5b611363826129d0565b6113a2576040517f08c379a00000000000000000000000000000000000000000000000000000000081526004016113999061476f565b60405180910390fd5b60006113ad83611814565b90503373ffffffffffffffffffffffffffffffffffffffff168173ffffffffffffffffffffffffffffffffffffffff161461141d576040517f08c379a0000000000000000000000000000000000000000000000000000000008152600401611414906147cf565b60405180910390fd5b6000600a6000858152602001908152602001600020604051806101200160405290816000820154815260200160018201805461145890614b01565b80601f016020809104026020016040519081016040528092919081815260200182805461148490614b01565b80156114d15780601f106114a6576101008083540402835291602001916114d1565b820191906000526020600020905b8154815290600101906020018083116114b457829003601f168201915b505050505081526020016002820180546114ea90614b01565b80601f016020809104026020016040519081016040528092919081815260200182805461151690614b01565b80156115635780601f1061153857610100808354040283529160200191611563565b820191906000526020600020905b81548152906001019060200180831161154657829003601f168201915b505050505081526020016003820160009054906101000a900473ffffffffffffffffffffffffffffffffffffffff1673ffffffffffffffffffffffffffffffffffffffff1673ffffffffffffffffffffffffffffffffffffffff1681526020016004820160009054906101000a900473ffffffffffffffffffffffffffffffffffffffff1673ffffffffffffffffffffffffffffffffffffffff1673ffffffffffffffffffffffffffffffffffffffff1681526020016005820160009054906101000a900473ffffffffffffffffffffffffffffffffffffffff1673ffffffffffffffffffffffffffffffffffffffff1673ffffffffffffffffffffffffffffffffffffffff16815260200160068201548152602001600782015481526020016008820160009054906101000a900460ff1615151515815250509050828160c001818152505080600a60008681526020019081526020016000206000820151816000015560208201518160010190805190602001906116e392919061393b565b50604082015181600201908051906020019061170092919061393b565b5060608201518160030160006101000a81548173ffffffffffffffffffffffffffffffffffffffff021916908373ffffffffffffffffffffffffffffffffffffffff16021790555060808201518160040160006101000a81548173ffffffffffffffffffffffffffffffffffffffff021916908373ffffffffffffffffffffffffffffffffffffffff16021790555060a08201518160050160006101000a81548173ffffffffffffffffffffffffffffffffffffffff021916908373ffffffffffffffffffffffffffffffffffffffff16021790555060c0820151816006015560e082015181600701556101008201518160080160006101000a81548160ff02191690831515021790555090505050505050565b6000806002600084815260200190815260200160002060009054906101000a900473ffffffffffffffffffffffffffffffffffffffff169050600073ffffffffffffffffffffffffffffffffffffffff168173ffffffffffffffffffffffffffffffffffffffff1614156118bd576040517f08c379a00000000000000000000000000000000000000000000000000000000081526004016118b49061460f565b60405180910390fd5b80915050919050565b606060006118d38361233a565b905080915050919050565b600b60205280600052604060002060009150905080546118fd90614b01565b80601f016020809104026020016040519081016040528092919081815260200182805461192990614b01565b80156119765780601f1061194b57610100808354040283529160200191611976565b820191906000526020600020905b81548152906001019060200180831161195957829003601f168201915b505050505081565b6007805461198b90614b01565b80601f01602080910402602001604051908101604052809291908181526020018280546119b790614b01565b8015611a045780601f106119d957610100808354040283529160200191611a04565b820191906000526020600020905b8154815290600101906020018083116119e757829003601f168201915b505050505081565b60008073ffffffffffffffffffffffffffffffffffffffff168273ffffffffffffffffffffffffffffffffffffffff161415611a7d576040517f08c379a0000000000000000000000000000000000000000000000000000000008152600401611a74906145cf565b60405180910390fd5b600360008373ffffffffffffffffffffffffffffffffffffffff1673ffffffffffffffffffffffffffffffffffffffff168152602001908152602001600020549050919050565b600a602052806000526040600020600091509050806000015490806001018054611aed90614b01565b80601f0160208091040260200160405190810160405280929190818152602001828054611b1990614b01565b8015611b665780601f10611b3b57610100808354040283529160200191611b66565b820191906000526020600020905b815481529060010190602001808311611b4957829003601f168201915b505050505090806002018054611b7b90614b01565b80601f0160208091040260200160405190810160405280929190818152602001828054611ba790614b01565b8015611bf45780601f10611bc957610100808354040283529160200191611bf4565b820191906000526020600020905b815481529060010190602001808311611bd757829003601f168201915b5050505050908060030160009054906101000a900473ffffffffffffffffffffffffffffffffffffffff16908060040160009054906101000a900473ffffffffffffffffffffffffffffffffffffffff16908060050160009054906101000a900473ffffffffffffffffffffffffffffffffffffffff16908060060154908060070154908060080160009054906101000a900460ff16905089565b606060018054611c9e90614b01565b80601f0160208091040260200160405190810160405280929190818152602001828054611cca90614b01565b8015611d175780601f10611cec57610100808354040283529160200191611d17565b820191906000526020600020905b815481529060010190602001808311611cfa57829003601f168201915b5050505050905090565b611d33611d2c612a3c565b8383612e50565b5050565b600073ffffffffffffffffffffffffffffffffffffffff163373ffffffffffffffffffffffffffffffffffffffff161415611da7576040517f08c379a0000000000000000000000000000000000000000000000000000000008152600401611d9e9061450f565b60405180910390fd5b611db0816129d0565b611def576040517f08c379a0000000000000000000000000000000000000000000000000000000008152600401611de69061464f565b60405180910390fd5b6000611dfa82611814565b90503373ffffffffffffffffffffffffffffffffffffffff168173ffffffffffffffffffffffffffffffffffffffff1614611e6a576040517f08c379a0000000000000000000000000000000000000000000000000000000008152600401611e619061458f565b60405180910390fd5b6000600a60008481526020019081526020016000206040518061012001604052908160008201548152602001600182018054611ea590614b01565b80601f0160208091040260200160405190810160405280929190818152602001828054611ed190614b01565b8015611f1e5780601f10611ef357610100808354040283529160200191611f1e565b820191906000526020600020905b815481529060010190602001808311611f0157829003601f168201915b50505050508152602001600282018054611f3790614b01565b80601f0160208091040260200160405190810160405280929190818152602001828054611f6390614b01565b8015611fb05780601f10611f8557610100808354040283529160200191611fb0565b820191906000526020600020905b815481529060010190602001808311611f9357829003601f168201915b505050505081526020016003820160009054906101000a900473ffffffffffffffffffffffffffffffffffffffff1673ffffffffffffffffffffffffffffffffffffffff1673ffffffffffffffffffffffffffffffffffffffff1681526020016004820160009054906101000a900473ffffffffffffffffffffffffffffffffffffffff1673ffffffffffffffffffffffffffffffffffffffff1673ffffffffffffffffffffffffffffffffffffffff1681526020016005820160009054906101000a900473ffffffffffffffffffffffffffffffffffffffff1673ffffffffffffffffffffffffffffffffffffffff1673ffffffffffffffffffffffffffffffffffffffff16815260200160068201548152602001600782015481526020016008820160009054906101000a900460ff16151515158152505090508061010001511561210e57600081610100019015159081151581525050612121565b6001816101000190151590811515815250505b80600a600085815260200190815260200160002060008201518160000155602082015181600101908051906020019061215b92919061393b565b50604082015181600201908051906020019061217892919061393b565b5060608201518160030160006101000a81548173ffffffffffffffffffffffffffffffffffffffff021916908373ffffffffffffffffffffffffffffffffffffffff16021790555060808201518160040160006101000a81548173ffffffffffffffffffffffffffffffffffffffff021916908373ffffffffffffffffffffffffffffffffffffffff16021790555060a08201518160050160006101000a81548173ffffffffffffffffffffffffffffffffffffffff021916908373ffffffffffffffffffffffffffffffffffffffff16021790555060c0820151816006015560e082015181600701556101008201518160080160006101000a81548160ff021916908315150217905550905050505050565b600c818051602081018201805184825260208301602085012081835280955050505050506000915054906101000a900460ff1681565b6000806122cd83611814565b905080915050919050565b6122e96122e3612a3c565b83612b0b565b612328576040517f08c379a000000000000000000000000000000000000000000000000000000000815260040161231f9061472f565b60405180910390fd5b61233484848484612fbd565b50505050565b6060612345826129d0565b612384576040517f08c379a000000000000000000000000000000000000000000000000000000000815260040161237b9061466f565b60405180910390fd5b600b600083815260200190815260200160002080546123a290614b01565b80601f01602080910402602001604051908101604052809291908181526020018280546123ce90614b01565b801561241b5780601f106123f05761010080835404028352916020019161241b565b820191906000526020600020905b8154815290600101906020018083116123fe57829003601f168201915b50505050509050919050565b600080612432610b08565b90508091505090565b60008073ffffffffffffffffffffffffffffffffffffffff163373ffffffffffffffffffffffffffffffffffffffff1614156124ac576040517f08c379a00000000000000000000000000000000000000000000000000000000081526004016124a3906146ef565b60405180910390fd5b6124b66008613019565b60006124c26008612afd565b90506124cd816129d0565b1561250d576040517f08c379a0000000000000000000000000000000000000000000000000000000008152600401612504906147ef565b60405180910390fd5b6000600d8560405161251f9190614374565b9081526020016040518091039020541461256e576040517f08c379a0000000000000000000000000000000000000000000000000000000008152600401612565906144ef565b60405180910390fd5b600c8560405161257e9190614374565b908152602001604051809103902060009054906101000a900460ff16156125da576040517f08c379a00000000000000000000000000000000000000000000000000000000081526004016125d19061446f565b60405180910390fd5b6125e4338261302f565b6125ee8185613209565b80600d856040516125ff9190614374565b9081526020016040518091039020819055506001600c866040516126239190614374565b908152602001604051809103902060006101000a81548160ff02191690831515021790555060006040518061012001604052808381526020018781526020018681526020013373ffffffffffffffffffffffffffffffffffffffff1681526020013373ffffffffffffffffffffffffffffffffffffffff168152602001600073ffffffffffffffffffffffffffffffffffffffff1681526020018581526020016000815260200160011515815250905080600a600084815260200190815260200160002060008201518160000155602082015181600101908051906020019061270d92919061393b565b50604082015181600201908051906020019061272a92919061393b565b5060608201518160030160006101000a81548173ffffffffffffffffffffffffffffffffffffffff021916908373ffffffffffffffffffffffffffffffffffffffff16021790555060808201518160040160006101000a81548173ffffffffffffffffffffffffffffffffffffffff021916908373ffffffffffffffffffffffffffffffffffffffff16021790555060a08201518160050160006101000a81548173ffffffffffffffffffffffffffffffffffffffff021916908373ffffffffffffffffffffffffffffffffffffffff16021790555060c0820151816006015560e082015181600701556101008201518160080160006101000a81548160ff02191690831515021790555090505081925050509392505050565b6006805461285190614b01565b80601f016020809104026020016040519081016040528092919081815260200182805461287d90614b01565b80156128ca5780601f1061289f576101008083540402835291602001916128ca565b820191906000526020600020905b8154815290600101906020018083116128ad57829003601f168201915b505050505081565b6000600560008473ffffffffffffffffffffffffffffffffffffffff1673ffffffffffffffffffffffffffffffffffffffff16815260200190815260200160002060008373ffffffffffffffffffffffffffffffffffffffff1673ffffffffffffffffffffffffffffffffffffffff16815260200190815260200160002060009054906101000a900460ff16905092915050565b60007f01ffc9a7000000000000000000000000000000000000000000000000000000007bffffffffffffffffffffffffffffffffffffffffffffffffffffffff1916827bffffffffffffffffffffffffffffffffffffffffffffffffffffffff1916149050919050565b60008073ffffffffffffffffffffffffffffffffffffffff166002600084815260200190815260200160002060009054906101000a900473ffffffffffffffffffffffffffffffffffffffff1673ffffffffffffffffffffffffffffffffffffffff1614159050919050565b600033905090565b816004600083815260200190815260200160002060006101000a81548173ffffffffffffffffffffffffffffffffffffffff021916908373ffffffffffffffffffffffffffffffffffffffff160217905550808273ffffffffffffffffffffffffffffffffffffffff16612ab783611814565b73ffffffffffffffffffffffffffffffffffffffff167f8c5be1e5ebec7d5bd14f71427d1e84f3dd0314c0f7b2291e5b200ac8c7c3b92560405160405180910390a45050565b600081600001549050919050565b6000612b16826129d0565b612b55576040517f08c379a0000000000000000000000000000000000000000000000000000000008152600401612b4c9061456f565b60405180910390fd5b6000612b6083611814565b90508073ffffffffffffffffffffffffffffffffffffffff168473ffffffffffffffffffffffffffffffffffffffff161480612bcf57508373ffffffffffffffffffffffffffffffffffffffff16612bb784610954565b73ffffffffffffffffffffffffffffffffffffffff16145b80612be05750612bdf81856128d2565b5b91505092915050565b8273ffffffffffffffffffffffffffffffffffffffff16612c0982611814565b73ffffffffffffffffffffffffffffffffffffffff1614612c5f576040517f08c379a0000000000000000000000000000000000000000000000000000000008152600401612c56906144af565b60405180910390fd5b600073ffffffffffffffffffffffffffffffffffffffff168273ffffffffffffffffffffffffffffffffffffffff161415612ccf576040517f08c379a0000000000000000000000000000000000000000000000000000000008152600401612cc69061452f565b60405180910390fd5b612cda838383613235565b612ce5600082612a44565b6001600360008573ffffffffffffffffffffffffffffffffffffffff1673ffffffffffffffffffffffffffffffffffffffff1681526020019081526020016000206000828254612d359190614a05565b925050819055506001600360008473ffffffffffffffffffffffffffffffffffffffff1673ffffffffffffffffffffffffffffffffffffffff1681526020019081526020016000206000828254612d8c91906149af565b92505081905550816002600083815260200190815260200160002060006101000a81548173ffffffffffffffffffffffffffffffffffffffff021916908373ffffffffffffffffffffffffffffffffffffffff160217905550808273ffffffffffffffffffffffffffffffffffffffff168473ffffffffffffffffffffffffffffffffffffffff167fddf252ad1be2c89b69c2b068fc378daa952ba7f163c4a11628f55a4df523b3ef60405160405180910390a4612e4b83838361323a565b505050565b8173ffffffffffffffffffffffffffffffffffffffff168373ffffffffffffffffffffffffffffffffffffffff161415612ebf576040517f08c379a0000000000000000000000000000000000000000000000000000000008152600401612eb69061454f565b60405180910390fd5b80600560008573ffffffffffffffffffffffffffffffffffffffff1673ffffffffffffffffffffffffffffffffffffffff16815260200190815260200160002060008473ffffffffffffffffffffffffffffffffffffffff1673ffffffffffffffffffffffffffffffffffffffff16815260200190815260200160002060006101000a81548160ff0219169083151502179055508173ffffffffffffffffffffffffffffffffffffffff168373ffffffffffffffffffffffffffffffffffffffff167f17307eab39ab6107e8899845ad3d59bd9653f200f220920489ca2b5937696c3183604051612fb091906143f2565b60405180910390a3505050565b612fc8848484612be9565b612fd484848484613781565b613013576040517f08c379a000000000000000000000000000000000000000000000000000000000815260040161300a9061448f565b60405180910390fd5b50505050565b6001816000016000828254019250508190555050565b600073ffffffffffffffffffffffffffffffffffffffff168273ffffffffffffffffffffffffffffffffffffffff16141561309f576040517f08c379a00000000000000000000000000000000000000000000000000000000081526004016130969061462f565b60405180910390fd5b6130a8816129d0565b156130e8576040517f08c379a00000000000000000000000000000000000000000000000000000000081526004016130df906144cf565b60405180910390fd5b6130f460008383613235565b6001600360008473ffffffffffffffffffffffffffffffffffffffff1673ffffffffffffffffffffffffffffffffffffffff168152602001908152602001600020600082825461314491906149af565b92505081905550816002600083815260200190815260200160002060006101000a81548173ffffffffffffffffffffffffffffffffffffffff021916908373ffffffffffffffffffffffffffffffffffffffff160217905550808273ffffffffffffffffffffffffffffffffffffffff16600073ffffffffffffffffffffffffffffffffffffffff167fddf252ad1be2c89b69c2b068fc378daa952ba7f163c4a11628f55a4df523b3ef60405160405180910390a46132056000838361323a565b5050565b80600b6000848152602001908152602001600020908051906020019061323092919061393b565b505050565b505050565b8173ffffffffffffffffffffffffffffffffffffffff1661325a82611814565b73ffffffffffffffffffffffffffffffffffffffff16146132b0576040517f08c379a00000000000000000000000000000000000000000000000000000000081526004016132a79061474f565b60405180910390fd5b600073ffffffffffffffffffffffffffffffffffffffff168273ffffffffffffffffffffffffffffffffffffffff161415613320576040517f08c379a00000000000000000000000000000000000000000000000000000000081526004016133179061442f565b60405180910390fd5b6000600a6000838152602001908152602001600020604051806101200160405290816000820154815260200160018201805461335b90614b01565b80601f016020809104026020016040519081016040528092919081815260200182805461338790614b01565b80156133d45780601f106133a9576101008083540402835291602001916133d4565b820191906000526020600020905b8154815290600101906020018083116133b757829003601f168201915b505050505081526020016002820180546133ed90614b01565b80601f016020809104026020016040519081016040528092919081815260200182805461341990614b01565b80156134665780601f1061343b57610100808354040283529160200191613466565b820191906000526020600020905b81548152906001019060200180831161344957829003601f168201915b505050505081526020016003820160009054906101000a900473ffffffffffffffffffffffffffffffffffffffff1673ffffffffffffffffffffffffffffffffffffffff1673ffffffffffffffffffffffffffffffffffffffff1681526020016004820160009054906101000a900473ffffffffffffffffffffffffffffffffffffffff1673ffffffffffffffffffffffffffffffffffffffff1673ffffffffffffffffffffffffffffffffffffffff1681526020016005820160009054906101000a900473ffffffffffffffffffffffffffffffffffffffff1673ffffffffffffffffffffffffffffffffffffffff1673ffffffffffffffffffffffffffffffffffffffff16815260200160068201548152602001600782015481526020016008820160009054906101000a900460ff161515151581525050905080608001518160a0019073ffffffffffffffffffffffffffffffffffffffff16908173ffffffffffffffffffffffffffffffffffffffff168152505082816080019073ffffffffffffffffffffffffffffffffffffffff16908173ffffffffffffffffffffffffffffffffffffffff168152505080600a600084815260200190815260200160002060008201518160000155602082015181600101908051906020019061365092919061393b565b50604082015181600201908051906020019061366d92919061393b565b5060608201518160030160006101000a81548173ffffffffffffffffffffffffffffffffffffffff021916908373ffffffffffffffffffffffffffffffffffffffff16021790555060808201518160040160006101000a81548173ffffffffffffffffffffffffffffffffffffffff021916908373ffffffffffffffffffffffffffffffffffffffff16021790555060a08201518160050160006101000a81548173ffffffffffffffffffffffffffffffffffffffff021916908373ffffffffffffffffffffffffffffffffffffffff16021790555060c0820151816006015560e082015181600701556101008201518160080160006101000a81548160ff02191690831515021790555090505050505050565b60006137a28473ffffffffffffffffffffffffffffffffffffffff16613918565b1561390b578373ffffffffffffffffffffffffffffffffffffffff1663150b7a026137cb612a3c565b8786866040518563ffffffff1660e01b81526004016137ed94939291906143a6565b602060405180830381600087803b15801561380757600080fd5b505af192505050801561383857506040513d601f19601f820116820180604052508101906138359190613ce7565b60015b6138bb573d8060008114613868576040519150601f19603f3d011682016040523d82523d6000602084013e61386d565b606091505b506000815114156138b3576040517f08c379a00000000000000000000000000000000000000000000000000000000081526004016138aa9061448f565b60405180910390fd5b805181602001fd5b63150b7a0260e01b7bffffffffffffffffffffffffffffffffffffffffffffffffffffffff1916817bffffffffffffffffffffffffffffffffffffffffffffffffffffffff191614915050613910565b600190505b949350505050565b6000808273ffffffffffffffffffffffffffffffffffffffff163b119050919050565b82805461394790614b01565b90600052602060002090601f01602090048101928261396957600085556139b0565b82601f1061398257805160ff19168380011785556139b0565b828001600101855582156139b0579182015b828111156139af578251825591602001919060010190613994565b5b5090506139bd91906139c1565b5090565b5b808211156139da5760008160009055506001016139c2565b5090565b60006139f16139ec8461490a565b6148e5565b905082815260208101848484011115613a0957600080fd5b613a14848285614abf565b509392505050565b6000613a2f613a2a8461493b565b6148e5565b905082815260208101848484011115613a4757600080fd5b613a52848285614abf565b509392505050565b600081359050613a698161554a565b92915050565b600081359050613a7e81615561565b92915050565b600081359050613a9381615578565b92915050565b600081519050613aa881615578565b92915050565b600082601f830112613abf57600080fd5b8135613acf8482602086016139de565b91505092915050565b600082601f830112613ae957600080fd5b8135613af9848260208601613a1c565b91505092915050565b600081359050613b118161558f565b92915050565b600060208284031215613b2957600080fd5b6000613b3784828501613a5a565b91505092915050565b60008060408385031215613b5357600080fd5b6000613b6185828601613a5a565b9250506020613b7285828601613a5a565b9150509250929050565b600080600060608486031215613b9157600080fd5b6000613b9f86828701613a5a565b9350506020613bb086828701613a5a565b9250506040613bc186828701613b02565b9150509250925092565b60008060008060808587031215613be157600080fd5b6000613bef87828801613a5a565b9450506020613c0087828801613a5a565b9350506040613c1187828801613b02565b925050606085013567ffffffffffffffff811115613c2e57600080fd5b613c3a87828801613aae565b91505092959194509250565b60008060408385031215613c5957600080fd5b6000613c6785828601613a5a565b9250506020613c7885828601613a6f565b9150509250929050565b60008060408385031215613c9557600080fd5b6000613ca385828601613a5a565b9250506020613cb485828601613b02565b9150509250929050565b600060208284031215613cd057600080fd5b6000613cde84828501613a84565b91505092915050565b600060208284031215613cf957600080fd5b6000613d0784828501613a99565b91505092915050565b600060208284031215613d2257600080fd5b600082013567ffffffffffffffff811115613d3c57600080fd5b613d4884828501613ad8565b91505092915050565b600080600060608486031215613d6657600080fd5b600084013567ffffffffffffffff811115613d8057600080fd5b613d8c86828701613ad8565b935050602084013567ffffffffffffffff811115613da957600080fd5b613db586828701613ad8565b9250506040613dc686828701613b02565b9150509250925092565b600060208284031215613de257600080fd5b6000613df084828501613b02565b91505092915050565b60008060408385031215613e0c57600080fd5b6000613e1a85828601613b02565b9250506020613e2b85828601613b02565b9150509250929050565b613e3e81614a4b565b82525050565b613e4d81614a39565b82525050565b613e5c81614a5d565b82525050565b6000613e6d8261496c565b613e778185614982565b9350613e87818560208601614ace565b613e9081614bf1565b840191505092915050565b6000613ea682614977565b613eb08185614993565b9350613ec0818560208601614ace565b613ec981614bf1565b840191505092915050565b6000613edf82614977565b613ee981856149a4565b9350613ef9818560208601614ace565b80840191505092915050565b6000613f12602683614993565b9150613f1d82614c02565b604082019050919050565b6000613f35602783614993565b9150613f4082614c51565b604082019050919050565b6000613f58603583614993565b9150613f6382614ca0565b604082019050919050565b6000613f7b603283614993565b9150613f8682614cef565b604082019050919050565b6000613f9e602583614993565b9150613fa982614d3e565b604082019050919050565b6000613fc1601c83614993565b9150613fcc82614d8d565b602082019050919050565b6000613fe4603483614993565b9150613fef82614db6565b604082019050919050565b6000614007602e83614993565b915061401282614e05565b604082019050919050565b600061402a602483614993565b915061403582614e54565b604082019050919050565b600061404d601983614993565b915061405882614ea3565b602082019050919050565b6000614070602c83614993565b915061407b82614ecc565b604082019050919050565b6000614093603383614993565b915061409e82614f1b565b604082019050919050565b60006140b6603883614993565b91506140c182614f6a565b604082019050919050565b60006140d9602a83614993565b91506140e482614fb9565b604082019050919050565b60006140fc602783614993565b915061410782615008565b604082019050919050565b600061411f602983614993565b915061412a82615057565b604082019050919050565b6000614142602083614993565b915061414d826150a6565b602082019050919050565b6000614165603183614993565b9150614170826150cf565b604082019050919050565b6000614188602283614993565b91506141938261511e565b604082019050919050565b60006141ab602c83614993565b91506141b68261516d565b604082019050919050565b60006141ce602e83614993565b91506141d9826151bc565b604082019050919050565b60006141f1602183614993565b91506141fc8261520b565b604082019050919050565b6000614214603583614993565b915061421f8261525a565b604082019050919050565b6000614237602983614993565b9150614242826152a9565b604082019050919050565b600061425a603183614993565b9150614265826152f8565b604082019050919050565b600061427d602783614993565b915061428882615347565b604082019050919050565b60006142a0603483614993565b91506142ab82615396565b604082019050919050565b60006142c3601c83614993565b91506142ce826153e5565b602082019050919050565b60006142e6603183614993565b91506142f18261540e565b604082019050919050565b6000614309603683614993565b91506143148261545d565b604082019050919050565b600061432c603383614993565b9150614337826154ac565b604082019050919050565b600061434f602483614993565b915061435a826154fb565b604082019050919050565b61436e81614ab5565b82525050565b60006143808284613ed4565b915081905092915050565b60006020820190506143a06000830184613e44565b92915050565b60006080820190506143bb6000830187613e44565b6143c86020830186613e44565b6143d56040830185614365565b81810360608301526143e78184613e62565b905095945050505050565b60006020820190506144076000830184613e53565b92915050565b600060208201905081810360008301526144278184613e9b565b905092915050565b6000602082019050818103600083015261444881613f05565b9050919050565b6000602082019050818103600083015261446881613f28565b9050919050565b6000602082019050818103600083015261448881613f4b565b9050919050565b600060208201905081810360008301526144a881613f6e565b9050919050565b600060208201905081810360008301526144c881613f91565b9050919050565b600060208201905081810360008301526144e881613fb4565b9050919050565b6000602082019050818103600083015261450881613fd7565b9050919050565b6000602082019050818103600083015261452881613ffa565b9050919050565b600060208201905081810360008301526145488161401d565b9050919050565b6000602082019050818103600083015261456881614040565b9050919050565b6000602082019050818103600083015261458881614063565b9050919050565b600060208201905081810360008301526145a881614086565b9050919050565b600060208201905081810360008301526145c8816140a9565b9050919050565b600060208201905081810360008301526145e8816140cc565b9050919050565b60006020820190508181036000830152614608816140ef565b9050919050565b6000602082019050818103600083015261462881614112565b9050919050565b6000602082019050818103600083015261464881614135565b9050919050565b6000602082019050818103600083015261466881614158565b9050919050565b600060208201905081810360008301526146888161417b565b9050919050565b600060208201905081810360008301526146a88161419e565b9050919050565b600060208201905081810360008301526146c8816141c1565b9050919050565b600060208201905081810360008301526146e8816141e4565b9050919050565b6000602082019050818103600083015261470881614207565b9050919050565b600060208201905081810360008301526147288161422a565b9050919050565b600060208201905081810360008301526147488161424d565b9050919050565b6000602082019050818103600083015261476881614270565b9050919050565b6000602082019050818103600083015261478881614293565b9050919050565b600060208201905081810360008301526147a8816142b6565b9050919050565b600060208201905081810360008301526147c8816142d9565b9050919050565b600060208201905081810360008301526147e8816142fc565b9050919050565b600060208201905081810360008301526148088161431f565b9050919050565b6000602082019050818103600083015261482881614342565b9050919050565b60006020820190506148446000830184614365565b92915050565b600061012082019050614860600083018c614365565b8181036020830152614872818b613e9b565b90508181036040830152614886818a613e9b565b90506148956060830189613e35565b6148a26080830188613e35565b6148af60a0830187613e35565b6148bc60c0830186614365565b6148c960e0830185614365565b6148d7610100830184613e53565b9a9950505050505050505050565b60006148ef614900565b90506148fb8282614b33565b919050565b6000604051905090565b600067ffffffffffffffff82111561492557614924614bc2565b5b61492e82614bf1565b9050602081019050919050565b600067ffffffffffffffff82111561495657614955614bc2565b5b61495f82614bf1565b9050602081019050919050565b600081519050919050565b600081519050919050565b600082825260208201905092915050565b600082825260208201905092915050565b600081905092915050565b60006149ba82614ab5565b91506149c583614ab5565b9250827fffffffffffffffffffffffffffffffffffffffffffffffffffffffffffffffff038211156149fa576149f9614b64565b5b828201905092915050565b6000614a1082614ab5565b9150614a1b83614ab5565b925082821015614a2e57614a2d614b64565b5b828203905092915050565b6000614a4482614a95565b9050919050565b6000614a5682614a95565b9050919050565b60008115159050919050565b60007fffffffff0000000000000000000000000000000000000000000000000000000082169050919050565b600073ffffffffffffffffffffffffffffffffffffffff82169050919050565b6000819050919050565b82818337600083830152505050565b60005b83811015614aec578082015181840152602081019050614ad1565b83811115614afb576000848401525b50505050565b60006002820490506001821680614b1957607f821691505b60208210811415614b2d57614b2c614b93565b5b50919050565b614b3c82614bf1565b810181811067ffffffffffffffff82111715614b5b57614b5a614bc2565b5b80604052505050565b7f4e487b7100000000000000000000000000000000000000000000000000000000600052601160045260246000fd5b7f4e487b7100000000000000000000000000000000000000000000000000000000600052602260045260246000fd5b7f4e487b7100000000000000000000000000000000000000000000000000000000600052604160045260246000fd5b6000601f19601f8301169050919050565b7f5061776e4e4654733a207472616e7366657220746f20746865207a65726f206160008201527f6464726573730000000000000000000000000000000000000000000000000000602082015250565b7f627579546f6b656e28293a204572726f723a20627579657220697320746f6b6560008201527f6e206f776e657200000000000000000000000000000000000000000000000000602082015250565b7f5061776e4e4654732e6d696e745061776e4e465428293a2054686520746f6b6560008201527f6e206e616d6520616c7265616479206578697374730000000000000000000000602082015250565b7f4552433732313a207472616e7366657220746f206e6f6e20455243373231526560008201527f63656976657220696d706c656d656e7465720000000000000000000000000000602082015250565b7f4552433732313a207472616e736665722066726f6d20696e636f72726563742060008201527f6f776e6572000000000000000000000000000000000000000000000000000000602082015250565b7f4552433732313a20746f6b656e20616c7265616479206d696e74656400000000600082015250565b7f5061776e4e4654732e6d696e745061776e4e465428293a2054686520746f6b6560008201527f6e2055524920616c726561647920657869737473000000000000000000000000602082015250565b7f746f67676c65466f7253616c6528293a204572726f723a2063616c6c6572206f60008201527f66207a65726f2061646472657373000000000000000000000000000000000000602082015250565b7f4552433732313a207472616e7366657220746f20746865207a65726f2061646460008201527f7265737300000000000000000000000000000000000000000000000000000000602082015250565b7f4552433732313a20617070726f766520746f2063616c6c657200000000000000600082015250565b7f4552433732313a206f70657261746f7220717565727920666f72206e6f6e657860008201527f697374656e7420746f6b656e0000000000000000000000000000000000000000602082015250565b7f746f67676c65466f7253616c6528293a204572726f723a206f776e657220646960008201527f66666572656e74207468616e2063616c6c657200000000000000000000000000602082015250565b7f4552433732313a20617070726f76652063616c6c6572206973206e6f74206f7760008201527f6e6572206e6f7220617070726f76656420666f7220616c6c0000000000000000602082015250565b7f4552433732313a2062616c616e636520717565727920666f7220746865207a6560008201527f726f206164647265737300000000000000000000000000000000000000000000602082015250565b7f627579546f6b656e28293a2054686520746f6b656e20696420616c726561647960008201527f2065786973747300000000000000000000000000000000000000000000000000602082015250565b7f4552433732313a206f776e657220717565727920666f72206e6f6e657869737460008201527f656e7420746f6b656e0000000000000000000000000000000000000000000000602082015250565b7f4552433732313a206d696e7420746f20746865207a65726f2061646472657373600082015250565b7f746f67676c65466f7253616c6528293a20457870656374656420746f20746f6b60008201527f656e2065786973747320616c7265616479000000000000000000000000000000602082015250565b7f5061776e4e4654733a204572726f723a204e6f6e6578697374656e7420746f6b60008201527f656e000000000000000000000000000000000000000000000000000000000000602082015250565b7f4552433732313a20617070726f76656420717565727920666f72206e6f6e657860008201527f697374656e7420746f6b656e0000000000000000000000000000000000000000602082015250565b7f627579546f6b656e28293a204572726f723a20746f6b656e206f776e6572206f60008201527f66207a65726f2061646472657373000000000000000000000000000000000000602082015250565b7f4552433732313a20617070726f76616c20746f2063757272656e74206f776e6560008201527f7200000000000000000000000000000000000000000000000000000000000000602082015250565b7f5061776e4e4654732e6d696e745061776e4e465428293a204572726f723a206360008201527f616c6c6572206f66207a65726f20616464726573730000000000000000000000602082015250565b7f627579546f6b656e28293a204572726f723a2063616c6c6572206f66207a657260008201527f6f20616464726573730000000000000000000000000000000000000000000000602082015250565b7f4552433732313a207472616e736665722063616c6c6572206973206e6f74206f60008201527f776e6572206e6f7220617070726f766564000000000000000000000000000000602082015250565b7f5061776e4e4654733a207472616e736665722066726f6d20696e636f7272656360008201527f74206f776e657200000000000000000000000000000000000000000000000000602082015250565b7f6368616e6765546f6b656e507269636528293a20457870656374656420746f2060008201527f746f6b656e2065786973747320616c7265616479000000000000000000000000602082015250565b7f627579546f6b656e28293a204e6f7420656e6f7567682066756e647300000000600082015250565b7f6368616e6765546f6b656e507269636528293a204572726f723a2063616c6c6560008201527f72206f66207a65726f2061646472657373000000000000000000000000000000602082015250565b7f6368616e6765546f6b656e507269636528293a204572726f723a206f776e657260008201527f20646966666572656e74207468616e2063616c6c657200000000000000000000602082015250565b7f5061776e4e4654732e6d696e745061776e4e465428293a2054686520746f6b6560008201527f6e20696420616c72656164792065786973747300000000000000000000000000602082015250565b7f627579546f6b656e28293a20546f6b656e2073686f756c6420626520666f722060008201527f73616c6500000000000000000000000000000000000000000000000000000000602082015250565b61555381614a39565b811461555e57600080fd5b50565b61556a81614a5d565b811461557557600080fd5b50565b61558181614a69565b811461558c57600080fd5b50565b61559881614ab5565b81146155a357600080fd5b5056fea264697066735822122062d578318b4e7030ff6c3c1944487ef3bd0bfcef4e20ace52040da603d30bb7864736f6c634300080400334f70656e636861696e205061776e696e67204e46547320436f6c6c656374696f6e",
  "immutableReferences": {},
  "source": "// SPDX-License-Identifier: MIT\r\npragma solidity ^0.8.0;\r\n\r\nimport \"@openzeppelin/contracts/utils/Counters.sol\";\r\nimport \"@openzeppelin/contracts/token/ERC721/ERC721.sol\";\r\n\r\n// PawnNFTs smart contract inherits ERC721 interface\r\ncontract PawnNFTs is ERC721 {\r\n\r\n  using Counters for Counters.Counter;\r\n\r\n  // this contract's token collection name\r\n  string public collectionName;\r\n  // this contract's token symbol\r\n  string public collectionNameSymbol;\r\n  // total number of pawning NFTs minted\r\n  Counters.Counter private pawnNFTCounter;\r\n\r\n  uint  public decimals = 0;\r\n  \r\n  // define pawning NFT struct\r\n   struct PawnNFT {\r\n    uint256 tokenId;\r\n    string tokenName;\r\n    string tokenURI;\r\n    address payable mintedBy;\r\n    address payable currentOwner;\r\n    address payable previousOwner;\r\n    uint256 price;\r\n    uint256 numberOfTransfers;\r\n    bool forSale;\r\n  }\r\n\r\n  // map pawnNft's token id to pawning NFT\r\n  mapping(uint256 => PawnNFT) public allPawnNFTs;\r\n  // \r\n  mapping(uint256 => string) public tokenURIs;\r\n  // check if token name exists\r\n  mapping(string => bool) public tokenNameExists;\r\n  // check if token URI exists\r\n  mapping(string => uint256) public tokenURIExists;\r\n\r\n  receive() external payable {}\r\n\r\n  // initialize contract while deployment with contract's collection name and token\r\n  constructor() ERC721(\"Openchain Pawning NFTs Collection\", \"PNFT\") {\r\n    collectionName = name();\r\n    collectionNameSymbol = symbol();\r\n  }\r\n\r\n  /**\r\n    * @dev Base URI for computing {tokenURI}. If set, the resulting URI for each\r\n    * token will be the concatenation of the `baseURI` and the `tokenId`. Empty\r\n    * by default, can be overriden in child contracts.\r\n    */\r\n  function tokenURI(uint256 tokenId) public view virtual override returns (string memory) {\r\n    require(_exists(tokenId), \"PawnNFTs: Error: Nonexistent token\");\r\n    // require(tokenURIs[tokenId] != 0, \"PawnNFTs: URI query for token without token URI\");\r\n    return tokenURIs[tokenId];\r\n  }\r\n  \r\n  function _setTokenURI(uint tokenId, string memory _tokenURI) internal {\r\n    tokenURIs[tokenId] = _tokenURI;\r\n  }\r\n\r\n  function totalSupply() public view returns(uint256) {\r\n    return pawnNFTCounter.current();\r\n  }\r\n\r\n  // mint a new pawning NFT and return token ID\r\n  function mintPawnNFT(string memory _name, string memory _tokenURI, uint256 _price) external returns(uint256) {\r\n    // check if thic fucntion caller is not an zero address account\r\n    require(msg.sender != address(0), \"PawnNFTs.mintPawnNFT(): Error: caller of zero address\");\r\n    // increment counter\r\n    pawnNFTCounter.increment();\r\n    uint256 newTokenID = pawnNFTCounter.current();\r\n    // check if a token exists with the above token id => incremented counter\r\n    require(!_exists(newTokenID), \"PawnNFTs.mintPawnNFT(): The token id already exists\");\r\n\r\n    // check if the token URI already exists or not\r\n    require(tokenURIExists[_tokenURI] == 0, \"PawnNFTs.mintPawnNFT(): The token URI already exists\");\r\n    // check if the token name already exists or not\r\n    require(!tokenNameExists[_name], \"PawnNFTs.mintPawnNFT(): The token name already exists\");\r\n\r\n    // mint the token\r\n    _mint(msg.sender, newTokenID);\r\n    // set token URI (bind token id with the passed in token URI)\r\n    _setTokenURI(newTokenID, _tokenURI);\r\n\r\n    // make passed token URI as exists\r\n    tokenURIExists[_tokenURI] = newTokenID;\r\n    // make token name passed as exists\r\n    tokenNameExists[_name] = true;\r\n\r\n    // creat a new pawning NFT (struct) and pass in new values\r\n    PawnNFT memory newPawnNFT = PawnNFT(\r\n      newTokenID,\r\n      _name,\r\n      _tokenURI,\r\n      payable(msg.sender),\r\n      payable(msg.sender),\r\n      payable(address(0)),\r\n      _price,\r\n      0,\r\n      true\r\n    );\r\n    // add the token id and it's pawning NFT to all pawning NFTs mapping\r\n    allPawnNFTs[newTokenID] = newPawnNFT;\r\n    return newTokenID;\r\n  }\r\n\r\n  // get owner of the token\r\n  function getTokenOwner(uint256 _tokenId) public view returns(address) {\r\n    address _tokenOwner = ownerOf(_tokenId);\r\n    return _tokenOwner;\r\n  }\r\n\r\n  // get metadata of the token\r\n  function getTokenMetaData(uint _tokenId) public view returns(string memory) {\r\n    string memory tokenMetaData = tokenURI(_tokenId);\r\n    return tokenMetaData;\r\n  }\r\n\r\n  // get total number of tokens minted so far\r\n  function getNumberOfTokensMinted() public view returns(uint256) {\r\n    uint256 totalNumberOfTokensMinted = totalSupply();\r\n    return totalNumberOfTokensMinted;\r\n  }\r\n\r\n  // get total number of tokens owned by an address\r\n  function getTotalNumberOfTokensOwnedByAnAddress(address _owner) public view returns(uint256) {\r\n    uint256 totalNumberOfTokensOwned = balanceOf(_owner);\r\n    return totalNumberOfTokensOwned;\r\n  }\r\n\r\n  // check if the token already exists\r\n  function getTokenExists(uint256 _tokenId) public view returns(bool) {\r\n    bool tokenExists = _exists(_tokenId);\r\n    return tokenExists;\r\n  }\r\n\r\n  // by a token by passing in the token's id\r\n  function buyToken(uint256 _tokenId) public payable {\r\n    // check if the function caller is not an zero account address\r\n    require(msg.sender != address(0), \"buyToken(): Error: caller of zero address\");\r\n    // check if the token id of the token being bought exists or not\r\n    require(_exists(_tokenId), \"buyToken(): The token id already exists\");\r\n    // get the token's owner\r\n    address tokenOwner = ownerOf(_tokenId);\r\n    // token's owner should not be an zero address account\r\n    require(tokenOwner != address(0), \"buyToken(): Error: token owner of zero address\");\r\n    // the one who wants to buy the token should not be the token's owner\r\n    require(tokenOwner != msg.sender, \"buyToken(): Error: buyer is token owner\");\r\n    // get that token from all pawning NFTs mapping and create a memory of it defined as (struct => PawnNFT)\r\n    PawnNFT memory pawnNft = allPawnNFTs[_tokenId];\r\n    // price sent in to buy should be equal to or more than the token's price\r\n    require(msg.value >= pawnNft.price, \"buyToken(): Not enough funds\");\r\n    // token should be for sale\r\n    require(pawnNft.forSale, \"buyToken(): Token should be for sale\");\r\n    // transfer the token from owner to the caller of the function (buyer)\r\n    _transfer(tokenOwner, msg.sender, _tokenId);\r\n    // get owner of the token\r\n    address payable sendTo = pawnNft.currentOwner;\r\n    // send token's worth of ethers to the owner\r\n    sendTo.transfer(msg.value);\r\n    // update the token's previous owner\r\n    pawnNft.previousOwner = pawnNft.currentOwner;\r\n    // update the token's current owner\r\n    pawnNft.currentOwner = payable(msg.sender);\r\n    // update the how many times this token was transfered\r\n    pawnNft.numberOfTransfers += 1;\r\n    // set and update that token in the mapping\r\n    allPawnNFTs[_tokenId] = pawnNft;\r\n  }\r\n\r\n  function _afterTokenTransfer(\r\n      address from,\r\n      address to,\r\n      uint256 tokenId\r\n  ) internal virtual override {\r\n    // Now the owner of the token ID is \"to\"\r\n    require(ERC721.ownerOf(tokenId) == to, \"PawnNFTs: transfer from incorrect owner\");\r\n    require(to != address(0), \"PawnNFTs: transfer to the zero address\");\r\n\r\n    // update token's owner\r\n    PawnNFT memory pawnNft = allPawnNFTs[tokenId];\r\n    // update the token's previous owner\r\n    pawnNft.previousOwner = pawnNft.currentOwner;\r\n    // update the token's current owner\r\n    pawnNft.currentOwner = payable(to);\r\n    // set and update that token in the mapping\r\n    allPawnNFTs[tokenId] = pawnNft;\r\n  }\r\n\r\n  function changeTokenPrice(uint256 _tokenId, uint256 _newPrice) public {\r\n    // require caller of the function is not an empty address\r\n    require(msg.sender != address(0), \"changeTokenPrice(): Error: caller of zero address\");\r\n    // require that token should exist\r\n    require(_exists(_tokenId), \"changeTokenPrice(): Expected to token exists already\");\r\n    // get the token's owner\r\n    address tokenOwner = ownerOf(_tokenId);\r\n    // check that Owner different than caller\r\n    require(tokenOwner == msg.sender, \"changeTokenPrice(): Error: owner different than caller\");\r\n    // get that token from all pawning NFTs mapping and create a memory of it defined as (struct => PawnNFT)\r\n    PawnNFT memory pawnNft = allPawnNFTs[_tokenId];\r\n    // update token's price with new price\r\n    pawnNft.price = _newPrice;\r\n    // set and update that token in the mapping\r\n    allPawnNFTs[_tokenId] = pawnNft;\r\n  }\r\n\r\n  // switch between set for sale and set not for sale\r\n  function toggleForSale(uint256 _tokenId) public {\r\n    // require caller of the function is not an empty address\r\n    require(msg.sender != address(0), \"toggleForSale(): Error: caller of zero address\");\r\n    // require that token should exist\r\n    require(_exists(_tokenId), \"toggleForSale(): Expected to token exists already\");\r\n    // get the token's owner\r\n    address tokenOwner = ownerOf(_tokenId);\r\n    // check that Owner different than caller\r\n    require(tokenOwner == msg.sender, \"toggleForSale(): Error: owner different than caller\");\r\n    // get that token from all pawning NFTs mapping and create a memory of it defined as (struct => PawnNFT)\r\n    PawnNFT memory pawnNft = allPawnNFTs[_tokenId];\r\n    // if token's forSale is false make it true and vice versa\r\n    if(pawnNft.forSale) {\r\n      pawnNft.forSale = false;\r\n    } else {\r\n      pawnNft.forSale = true;\r\n    }\r\n    // set and update that token in the mapping\r\n    allPawnNFTs[_tokenId] = pawnNft;\r\n  }\r\n}",
  "sourcePath": "E:\\Work\\OpenchainTestVersion\\server\\contracts\\PawnNFTs.sol",
  "compiler": {
    "name": "solc",
    "version": "0.8.4+commit.c7e474f2.Emscripten.clang"
  },
  "schemaVersion": "3.4.6",
  "updatedAt": "2022-04-06T05:43:47.034Z",
  "devdoc": {
    "kind": "dev",
    "methods": {
      "approve(address,uint256)": {
        "details": "See {IERC721-approve}."
      },
      "balanceOf(address)": {
        "details": "See {IERC721-balanceOf}."
      },
      "getApproved(uint256)": {
        "details": "See {IERC721-getApproved}."
      },
      "isApprovedForAll(address,address)": {
        "details": "See {IERC721-isApprovedForAll}."
      },
      "name()": {
        "details": "See {IERC721Metadata-name}."
      },
      "ownerOf(uint256)": {
        "details": "See {IERC721-ownerOf}."
      },
      "safeTransferFrom(address,address,uint256)": {
        "details": "See {IERC721-safeTransferFrom}."
      },
      "safeTransferFrom(address,address,uint256,bytes)": {
        "details": "See {IERC721-safeTransferFrom}."
      },
      "setApprovalForAll(address,bool)": {
        "details": "See {IERC721-setApprovalForAll}."
      },
      "supportsInterface(bytes4)": {
        "details": "See {IERC165-supportsInterface}."
      },
      "symbol()": {
        "details": "See {IERC721Metadata-symbol}."
      },
      "tokenURI(uint256)": {
        "details": "Base URI for computing {tokenURI}. If set, the resulting URI for each token will be the concatenation of the `baseURI` and the `tokenId`. Empty by default, can be overriden in child contracts."
      },
      "transferFrom(address,address,uint256)": {
        "details": "See {IERC721-transferFrom}."
      }
    },
    "version": 1
  },
  "userdoc": {
    "kind": "user",
    "methods": {},
    "version": 1
  }
}