{
  "contractName": "PawnNFTs",
  "abi": [
    {
      "inputs": [],
      "stateMutability": "nonpayable",
      "type": "constructor"
    },
    {
      "anonymous": false,
      "inputs": [
        {
          "indexed": true,
          "internalType": "address",
          "name": "owner",
          "type": "address"
        },
        {
          "indexed": true,
          "internalType": "address",
          "name": "approved",
          "type": "address"
        },
        {
          "indexed": true,
          "internalType": "uint256",
          "name": "tokenId",
          "type": "uint256"
        }
      ],
      "name": "Approval",
      "type": "event"
    },
    {
      "anonymous": false,
      "inputs": [
        {
          "indexed": true,
          "internalType": "address",
          "name": "owner",
          "type": "address"
        },
        {
          "indexed": true,
          "internalType": "address",
          "name": "operator",
          "type": "address"
        },
        {
          "indexed": false,
          "internalType": "bool",
          "name": "approved",
          "type": "bool"
        }
      ],
      "name": "ApprovalForAll",
      "type": "event"
    },
    {
      "anonymous": false,
      "inputs": [
        {
          "indexed": true,
          "internalType": "address",
          "name": "from",
          "type": "address"
        },
        {
          "indexed": true,
          "internalType": "address",
          "name": "to",
          "type": "address"
        },
        {
          "indexed": true,
          "internalType": "uint256",
          "name": "tokenId",
          "type": "uint256"
        }
      ],
      "name": "Transfer",
      "type": "event"
    },
    {
      "inputs": [
        {
          "internalType": "uint256",
          "name": "",
          "type": "uint256"
        }
      ],
      "name": "allPawnNFTs",
      "outputs": [
        {
          "internalType": "uint256",
          "name": "tokenId",
          "type": "uint256"
        },
        {
          "internalType": "string",
          "name": "tokenName",
          "type": "string"
        },
        {
          "internalType": "string",
          "name": "tokenURI",
          "type": "string"
        },
        {
          "internalType": "address payable",
          "name": "mintedBy",
          "type": "address"
        },
        {
          "internalType": "address payable",
          "name": "currentOwner",
          "type": "address"
        },
        {
          "internalType": "address payable",
          "name": "previousOwner",
          "type": "address"
        },
        {
          "internalType": "uint256",
          "name": "price",
          "type": "uint256"
        },
        {
          "internalType": "uint256",
          "name": "numberOfTransfers",
          "type": "uint256"
        },
        {
          "internalType": "bool",
          "name": "forSale",
          "type": "bool"
        },
        {
          "internalType": "bool",
          "name": "mintedNativeToken",
          "type": "bool"
        }
      ],
      "stateMutability": "view",
      "type": "function",
      "constant": true
    },
    {
      "inputs": [
        {
          "internalType": "address",
          "name": "to",
          "type": "address"
        },
        {
          "internalType": "uint256",
          "name": "tokenId",
          "type": "uint256"
        }
      ],
      "name": "approve",
      "outputs": [],
      "stateMutability": "nonpayable",
      "type": "function"
    },
    {
      "inputs": [
        {
          "internalType": "address",
          "name": "owner",
          "type": "address"
        }
      ],
      "name": "balanceOf",
      "outputs": [
        {
          "internalType": "uint256",
          "name": "",
          "type": "uint256"
        }
      ],
      "stateMutability": "view",
      "type": "function",
      "constant": true
    },
    {
      "inputs": [],
      "name": "collectionName",
      "outputs": [
        {
          "internalType": "string",
          "name": "",
          "type": "string"
        }
      ],
      "stateMutability": "view",
      "type": "function",
      "constant": true
    },
    {
      "inputs": [],
      "name": "collectionNameSymbol",
      "outputs": [
        {
          "internalType": "string",
          "name": "",
          "type": "string"
        }
      ],
      "stateMutability": "view",
      "type": "function",
      "constant": true
    },
    {
      "inputs": [],
      "name": "decimals",
      "outputs": [
        {
          "internalType": "uint256",
          "name": "",
          "type": "uint256"
        }
      ],
      "stateMutability": "view",
      "type": "function",
      "constant": true
    },
    {
      "inputs": [
        {
          "internalType": "uint256",
          "name": "tokenId",
          "type": "uint256"
        }
      ],
      "name": "getApproved",
      "outputs": [
        {
          "internalType": "address",
          "name": "",
          "type": "address"
        }
      ],
      "stateMutability": "view",
      "type": "function",
      "constant": true
    },
    {
      "inputs": [
        {
          "internalType": "address",
          "name": "owner",
          "type": "address"
        },
        {
          "internalType": "address",
          "name": "operator",
          "type": "address"
        }
      ],
      "name": "isApprovedForAll",
      "outputs": [
        {
          "internalType": "bool",
          "name": "",
          "type": "bool"
        }
      ],
      "stateMutability": "view",
      "type": "function",
      "constant": true
    },
    {
      "inputs": [],
      "name": "name",
      "outputs": [
        {
          "internalType": "string",
          "name": "",
          "type": "string"
        }
      ],
      "stateMutability": "view",
      "type": "function",
      "constant": true
    },
    {
      "inputs": [
        {
          "internalType": "uint256",
          "name": "tokenId",
          "type": "uint256"
        }
      ],
      "name": "ownerOf",
      "outputs": [
        {
          "internalType": "address",
          "name": "",
          "type": "address"
        }
      ],
      "stateMutability": "view",
      "type": "function",
      "constant": true
    },
    {
      "inputs": [
        {
          "internalType": "address",
          "name": "from",
          "type": "address"
        },
        {
          "internalType": "address",
          "name": "to",
          "type": "address"
        },
        {
          "internalType": "uint256",
          "name": "tokenId",
          "type": "uint256"
        }
      ],
      "name": "safeTransferFrom",
      "outputs": [],
      "stateMutability": "nonpayable",
      "type": "function"
    },
    {
      "inputs": [
        {
          "internalType": "address",
          "name": "from",
          "type": "address"
        },
        {
          "internalType": "address",
          "name": "to",
          "type": "address"
        },
        {
          "internalType": "uint256",
          "name": "tokenId",
          "type": "uint256"
        },
        {
          "internalType": "bytes",
          "name": "_data",
          "type": "bytes"
        }
      ],
      "name": "safeTransferFrom",
      "outputs": [],
      "stateMutability": "nonpayable",
      "type": "function"
    },
    {
      "inputs": [
        {
          "internalType": "address",
          "name": "operator",
          "type": "address"
        },
        {
          "internalType": "bool",
          "name": "approved",
          "type": "bool"
        }
      ],
      "name": "setApprovalForAll",
      "outputs": [],
      "stateMutability": "nonpayable",
      "type": "function"
    },
    {
      "inputs": [
        {
          "internalType": "bytes4",
          "name": "interfaceId",
          "type": "bytes4"
        }
      ],
      "name": "supportsInterface",
      "outputs": [
        {
          "internalType": "bool",
          "name": "",
          "type": "bool"
        }
      ],
      "stateMutability": "view",
      "type": "function",
      "constant": true
    },
    {
      "inputs": [],
      "name": "symbol",
      "outputs": [
        {
          "internalType": "string",
          "name": "",
          "type": "string"
        }
      ],
      "stateMutability": "view",
      "type": "function",
      "constant": true
    },
    {
      "inputs": [
        {
          "internalType": "string",
          "name": "",
          "type": "string"
        }
      ],
      "name": "tokenNameExists",
      "outputs": [
        {
          "internalType": "bool",
          "name": "",
          "type": "bool"
        }
      ],
      "stateMutability": "view",
      "type": "function",
      "constant": true
    },
    {
      "inputs": [
        {
          "internalType": "string",
          "name": "",
          "type": "string"
        }
      ],
      "name": "tokenURIExists",
      "outputs": [
        {
          "internalType": "uint256",
          "name": "",
          "type": "uint256"
        }
      ],
      "stateMutability": "view",
      "type": "function",
      "constant": true
    },
    {
      "inputs": [
        {
          "internalType": "uint256",
          "name": "",
          "type": "uint256"
        }
      ],
      "name": "tokenURIs",
      "outputs": [
        {
          "internalType": "string",
          "name": "",
          "type": "string"
        }
      ],
      "stateMutability": "view",
      "type": "function",
      "constant": true
    },
    {
      "inputs": [
        {
          "internalType": "address",
          "name": "from",
          "type": "address"
        },
        {
          "internalType": "address",
          "name": "to",
          "type": "address"
        },
        {
          "internalType": "uint256",
          "name": "tokenId",
          "type": "uint256"
        }
      ],
      "name": "transferFrom",
      "outputs": [],
      "stateMutability": "nonpayable",
      "type": "function"
    },
    {
      "stateMutability": "payable",
      "type": "receive",
      "payable": true
    },
    {
      "inputs": [
        {
          "internalType": "uint256",
          "name": "tokenId",
          "type": "uint256"
        }
      ],
      "name": "tokenURI",
      "outputs": [
        {
          "internalType": "string",
          "name": "",
          "type": "string"
        }
      ],
      "stateMutability": "view",
      "type": "function",
      "constant": true
    },
    {
      "inputs": [],
      "name": "totalSupply",
      "outputs": [
        {
          "internalType": "uint256",
          "name": "",
          "type": "uint256"
        }
      ],
      "stateMutability": "view",
      "type": "function",
      "constant": true
    },
    {
      "inputs": [
        {
          "internalType": "string",
          "name": "_name",
          "type": "string"
        },
        {
          "internalType": "string",
          "name": "_tokenURI",
          "type": "string"
        },
        {
          "internalType": "uint256",
          "name": "_price",
          "type": "uint256"
        }
      ],
      "name": "mintPawnNFT",
      "outputs": [
        {
          "internalType": "uint256",
          "name": "",
          "type": "uint256"
        }
      ],
      "stateMutability": "nonpayable",
      "type": "function"
    },
    {
      "inputs": [
        {
          "internalType": "uint256",
          "name": "_tokenId",
          "type": "uint256"
        }
      ],
      "name": "getTokenOwner",
      "outputs": [
        {
          "internalType": "address",
          "name": "",
          "type": "address"
        }
      ],
      "stateMutability": "view",
      "type": "function",
      "constant": true
    },
    {
      "inputs": [
        {
          "internalType": "uint256",
          "name": "_tokenId",
          "type": "uint256"
        }
      ],
      "name": "getTokenMetaData",
      "outputs": [
        {
          "internalType": "string",
          "name": "",
          "type": "string"
        }
      ],
      "stateMutability": "view",
      "type": "function",
      "constant": true
    },
    {
      "inputs": [
        {
          "internalType": "uint256",
          "name": "_tokenId",
          "type": "uint256"
        },
        {
          "internalType": "bool",
          "name": "_mintedNativeToken",
          "type": "bool"
        }
      ],
      "name": "setMintedNativeToken",
      "outputs": [],
      "stateMutability": "nonpayable",
      "type": "function"
    },
    {
      "inputs": [],
      "name": "getNumberOfTokensMinted",
      "outputs": [
        {
          "internalType": "uint256",
          "name": "",
          "type": "uint256"
        }
      ],
      "stateMutability": "view",
      "type": "function",
      "constant": true
    },
    {
      "inputs": [
        {
          "internalType": "address",
          "name": "_owner",
          "type": "address"
        }
      ],
      "name": "getTotalNumberOfTokensOwnedByAnAddress",
      "outputs": [
        {
          "internalType": "uint256",
          "name": "",
          "type": "uint256"
        }
      ],
      "stateMutability": "view",
      "type": "function",
      "constant": true
    },
    {
      "inputs": [
        {
          "internalType": "uint256",
          "name": "_tokenId",
          "type": "uint256"
        }
      ],
      "name": "getTokenExists",
      "outputs": [
        {
          "internalType": "bool",
          "name": "",
          "type": "bool"
        }
      ],
      "stateMutability": "view",
      "type": "function",
      "constant": true
    },
    {
      "inputs": [
        {
          "internalType": "uint256",
          "name": "_tokenId",
          "type": "uint256"
        }
      ],
      "name": "buyToken",
      "outputs": [],
      "stateMutability": "payable",
      "type": "function",
      "payable": true
    },
    {
      "inputs": [
        {
          "internalType": "uint256",
          "name": "_tokenId",
          "type": "uint256"
        },
        {
          "internalType": "uint256",
          "name": "_newPrice",
          "type": "uint256"
        }
      ],
      "name": "changeTokenPrice",
      "outputs": [],
      "stateMutability": "nonpayable",
      "type": "function"
    },
    {
      "inputs": [
        {
          "internalType": "uint256",
          "name": "_tokenId",
          "type": "uint256"
        }
      ],
      "name": "toggleForSale",
      "outputs": [],
      "stateMutability": "nonpayable",
      "type": "function"
    }
  ],
  "bytecode": "0x608060405260006009553480156200001657600080fd5b5060405180606001604052806021815260200162005bc5602191396040518060400160405280600481526020017f504e46540000000000000000000000000000000000000000000000000000000081525081600090805190602001906200007f92919062000225565b5080600190805190602001906200009892919062000225565b505050620000ab620000f160201b60201c565b60069080519060200190620000c292919062000225565b50620000d36200018b60201b60201c565b60079080519060200190620000ea92919062000225565b506200033a565b6060600080546200010290620002d5565b80601f01602080910402602001604051908101604052809291908181526020018280546200013090620002d5565b8015620001815780601f10620001555761010080835404028352916020019162000181565b820191906000526020600020905b8154815290600101906020018083116200016357829003601f168201915b5050505050905090565b6060600180546200019c90620002d5565b80601f0160208091040260200160405190810160405280929190818152602001828054620001ca90620002d5565b80156200021b5780601f10620001ef576101008083540402835291602001916200021b565b820191906000526020600020905b815481529060010190602001808311620001fd57829003601f168201915b5050505050905090565b8280546200023390620002d5565b90600052602060002090601f016020900481019282620002575760008555620002a3565b82601f106200027257805160ff1916838001178555620002a3565b82800160010185558215620002a3579182015b82811115620002a257825182559160200191906001019062000285565b5b509050620002b29190620002b6565b5090565b5b80821115620002d1576000816000905550600101620002b7565b5090565b60006002820490506001821680620002ee57607f821691505b602082108114156200030557620003046200030b565b5b50919050565b7f4e487b7100000000000000000000000000000000000000000000000000000000600052602260045260246000fd5b61587b806200034a6000396000f3fe6080604052600436106101dc5760003560e01c80636c8b703f11610102578063a5cd761f11610095578063d170c91b11610064578063d170c91b14610747578063d81bcb2d14610784578063e5326ab1146107ad578063e985e9c5146107d8576101e3565b8063a5cd761f14610679578063b88d4fde146106b6578063c87b56dd146106df578063cc151f3a1461071c576101e3565b806395d89b41116100d157806395d89b41146105bf578063a22cb465146105ea578063a32018b914610613578063a46b1fac1461063c576101e3565b80636c8b703f146104d45780636f9507f91461051157806370a082311461053c578063717947b114610579576101e3565b80632d296bf11161017a57806343d32ae71161014957806343d32ae7146103f457806362e8e8ac146104315780636352211e1461045a57806367c623cf14610497576101e3565b80632d296bf114610347578063313ce5671461036357806342842e0e1461038e57806343902850146103b7576101e3565b8063095ea7b3116101b6578063095ea7b31461028d578063142687f3146102b657806318160ddd146102f357806323b872dd1461031e576101e3565b806301ffc9a7146101e857806306fdde0314610225578063081812fc14610250576101e3565b366101e357005b600080fd5b3480156101f457600080fd5b5061020f600480360381019061020a9190613ea6565b610815565b60405161021c9190614639565b60405180910390f35b34801561023157600080fd5b5061023a6108f7565b6040516102479190614654565b60405180910390f35b34801561025c57600080fd5b5061027760048036038101906102729190613fb8565b610989565b60405161028491906145d2565b60405180910390f35b34801561029957600080fd5b506102b460048036038101906102af9190613e6a565b610a0e565b005b3480156102c257600080fd5b506102dd60048036038101906102d89190613fb8565b610b26565b6040516102ea9190614639565b60405180910390f35b3480156102ff57600080fd5b50610308610b3d565b6040516103159190614a96565b60405180910390f35b34801561032a57600080fd5b5061034560048036038101906103409190613d64565b610b4e565b005b610361600480360381019061035c9190613fb8565b610bae565b005b34801561036f57600080fd5b506103786112f0565b6040516103859190614a96565b60405180910390f35b34801561039a57600080fd5b506103b560048036038101906103b09190613d64565b6112f6565b005b3480156103c357600080fd5b506103de60048036038101906103d99190613cff565b611316565b6040516103eb9190614a96565b60405180910390f35b34801561040057600080fd5b5061041b60048036038101906104169190613ef8565b61132d565b6040516104289190614a96565b60405180910390f35b34801561043d57600080fd5b506104586004803603810190610453919061401d565b61135b565b005b34801561046657600080fd5b50610481600480360381019061047c9190613fb8565b6118c1565b60405161048e91906145d2565b60405180910390f35b3480156104a357600080fd5b506104be60048036038101906104b99190613fb8565b611973565b6040516104cb9190614654565b60405180910390f35b3480156104e057600080fd5b506104fb60048036038101906104f69190613fb8565b61198b565b6040516105089190614654565b60405180910390f35b34801561051d57600080fd5b50610526611a2b565b6040516105339190614654565b60405180910390f35b34801561054857600080fd5b50610563600480360381019061055e9190613cff565b611ab9565b6040516105709190614a96565b60405180910390f35b34801561058557600080fd5b506105a0600480360381019061059b9190613fb8565b611b71565b6040516105b69a99989796959493929190614ab1565b60405180910390f35b3480156105cb57600080fd5b506105d4611d4f565b6040516105e19190614654565b60405180910390f35b3480156105f657600080fd5b50610611600480360381019061060c9190613e2e565b611de1565b005b34801561061f57600080fd5b5061063a60048036038101906106359190613fb8565b611df7565b005b34801561064857600080fd5b50610663600480360381019061065e9190613ef8565b612387565b6040516106709190614639565b60405180910390f35b34801561068557600080fd5b506106a0600480360381019061069b9190613fb8565b6123bd565b6040516106ad91906145d2565b60405180910390f35b3480156106c257600080fd5b506106dd60048036038101906106d89190613db3565b6123cf565b005b3480156106eb57600080fd5b5061070660048036038101906107019190613fb8565b612431565b6040516107139190614654565b60405180910390f35b34801561072857600080fd5b5061073161251e565b60405161073e9190614a96565b60405180910390f35b34801561075357600080fd5b5061076e60048036038101906107699190613f39565b612532565b60405161077b9190614a96565b60405180910390f35b34801561079057600080fd5b506107ab60048036038101906107a69190613fe1565b612965565b005b3480156107b957600080fd5b506107c26129f0565b6040516107cf9190614654565b60405180910390f35b3480156107e457600080fd5b506107ff60048036038101906107fa9190613d28565b612a7e565b60405161080c9190614639565b60405180910390f35b60007f80ac58cd000000000000000000000000000000000000000000000000000000007bffffffffffffffffffffffffffffffffffffffffffffffffffffffff1916827bffffffffffffffffffffffffffffffffffffffffffffffffffffffff191614806108e057507f5b5e139f000000000000000000000000000000000000000000000000000000007bffffffffffffffffffffffffffffffffffffffffffffffffffffffff1916827bffffffffffffffffffffffffffffffffffffffffffffffffffffffff1916145b806108f057506108ef82612b12565b5b9050919050565b60606000805461090690614d77565b80601f016020809104026020016040519081016040528092919081815260200182805461093290614d77565b801561097f5780601f106109545761010080835404028352916020019161097f565b820191906000526020600020905b81548152906001019060200180831161096257829003601f168201915b5050505050905090565b600061099482612b7c565b6109d3576040517f08c379a00000000000000000000000000000000000000000000000000000000081526004016109ca906148f6565b60405180910390fd5b6004600083815260200190815260200160002060009054906101000a900473ffffffffffffffffffffffffffffffffffffffff169050919050565b6000610a19826118c1565b90508073ffffffffffffffffffffffffffffffffffffffff168373ffffffffffffffffffffffffffffffffffffffff161415610a8a576040517f08c379a0000000000000000000000000000000000000000000000000000000008152600401610a8190614936565b60405180910390fd5b8073ffffffffffffffffffffffffffffffffffffffff16610aa9612be8565b73ffffffffffffffffffffffffffffffffffffffff161480610ad85750610ad781610ad2612be8565b612a7e565b5b610b17576040517f08c379a0000000000000000000000000000000000000000000000000000000008152600401610b0e90614816565b60405180910390fd5b610b218383612bf0565b505050565b600080610b3283612b7c565b905080915050919050565b6000610b496008612ca9565b905090565b610b5f610b59612be8565b82612cb7565b610b9e576040517f08c379a0000000000000000000000000000000000000000000000000000000008152600401610b9590614996565b60405180910390fd5b610ba9838383612d95565b505050565b600073ffffffffffffffffffffffffffffffffffffffff163373ffffffffffffffffffffffffffffffffffffffff161415610c1e576040517f08c379a0000000000000000000000000000000000000000000000000000000008152600401610c1590614976565b60405180910390fd5b610c2781612b7c565b610c66576040517f08c379a0000000000000000000000000000000000000000000000000000000008152600401610c5d90614856565b60405180910390fd5b6000610c71826118c1565b9050600073ffffffffffffffffffffffffffffffffffffffff168173ffffffffffffffffffffffffffffffffffffffff161415610ce3576040517f08c379a0000000000000000000000000000000000000000000000000000000008152600401610cda90614916565b60405180910390fd5b3373ffffffffffffffffffffffffffffffffffffffff168173ffffffffffffffffffffffffffffffffffffffff161415610d52576040517f08c379a0000000000000000000000000000000000000000000000000000000008152600401610d4990614696565b60405180910390fd5b6000600a60008481526020019081526020016000206040518061014001604052908160008201548152602001600182018054610d8d90614d77565b80601f0160208091040260200160405190810160405280929190818152602001828054610db990614d77565b8015610e065780601f10610ddb57610100808354040283529160200191610e06565b820191906000526020600020905b815481529060010190602001808311610de957829003601f168201915b50505050508152602001600282018054610e1f90614d77565b80601f0160208091040260200160405190810160405280929190818152602001828054610e4b90614d77565b8015610e985780601f10610e6d57610100808354040283529160200191610e98565b820191906000526020600020905b815481529060010190602001808311610e7b57829003601f168201915b505050505081526020016003820160009054906101000a900473ffffffffffffffffffffffffffffffffffffffff1673ffffffffffffffffffffffffffffffffffffffff1673ffffffffffffffffffffffffffffffffffffffff1681526020016004820160009054906101000a900473ffffffffffffffffffffffffffffffffffffffff1673ffffffffffffffffffffffffffffffffffffffff1673ffffffffffffffffffffffffffffffffffffffff1681526020016005820160009054906101000a900473ffffffffffffffffffffffffffffffffffffffff1673ffffffffffffffffffffffffffffffffffffffff1673ffffffffffffffffffffffffffffffffffffffff16815260200160068201548152602001600782015481526020016008820160009054906101000a900460ff161515151581526020016008820160019054906101000a900460ff16151515158152505090508060c00151341015611036576040517f08c379a000000000000000000000000000000000000000000000000000000000815260040161102d906149f6565b60405180910390fd5b80610100015161107b576040517f08c379a000000000000000000000000000000000000000000000000000000000815260040161107290614a76565b60405180910390fd5b611086823385612d95565b6000816080015190508073ffffffffffffffffffffffffffffffffffffffff166108fc349081150290604051600060405180830381858888f193505050501580156110d5573d6000803e3d6000fd5b5081608001518260a0019073ffffffffffffffffffffffffffffffffffffffff16908173ffffffffffffffffffffffffffffffffffffffff168152505033826080019073ffffffffffffffffffffffffffffffffffffffff16908173ffffffffffffffffffffffffffffffffffffffff168152505060018260e00181815161115d9190614c25565b9150818152505081600a600086815260200190815260200160002060008201518160000155602082015181600101908051906020019061119e929190613b23565b5060408201518160020190805190602001906111bb929190613b23565b5060608201518160030160006101000a81548173ffffffffffffffffffffffffffffffffffffffff021916908373ffffffffffffffffffffffffffffffffffffffff16021790555060808201518160040160006101000a81548173ffffffffffffffffffffffffffffffffffffffff021916908373ffffffffffffffffffffffffffffffffffffffff16021790555060a08201518160050160006101000a81548173ffffffffffffffffffffffffffffffffffffffff021916908373ffffffffffffffffffffffffffffffffffffffff16021790555060c0820151816006015560e082015181600701556101008201518160080160006101000a81548160ff0219169083151502179055506101208201518160080160016101000a81548160ff02191690831515021790555090505050505050565b60095481565b611311838383604051806020016040528060008152506123cf565b505050565b60008061132283611ab9565b905080915050919050565b600d818051602081018201805184825260208301602085012081835280955050505050506000915090505481565b600073ffffffffffffffffffffffffffffffffffffffff163373ffffffffffffffffffffffffffffffffffffffff1614156113cb576040517f08c379a00000000000000000000000000000000000000000000000000000000081526004016113c290614a16565b60405180910390fd5b6113d482612b7c565b611413576040517f08c379a000000000000000000000000000000000000000000000000000000000815260040161140a906149d6565b60405180910390fd5b600061141e836118c1565b90503373ffffffffffffffffffffffffffffffffffffffff168173ffffffffffffffffffffffffffffffffffffffff161461148e576040517f08c379a000000000000000000000000000000000000000000000000000000000815260040161148590614a36565b60405180910390fd5b6000600a600085815260200190815260200160002060405180610140016040529081600082015481526020016001820180546114c990614d77565b80601f01602080910402602001604051908101604052809291908181526020018280546114f590614d77565b80156115425780601f1061151757610100808354040283529160200191611542565b820191906000526020600020905b81548152906001019060200180831161152557829003601f168201915b5050505050815260200160028201805461155b90614d77565b80601f016020809104026020016040519081016040528092919081815260200182805461158790614d77565b80156115d45780601f106115a9576101008083540402835291602001916115d4565b820191906000526020600020905b8154815290600101906020018083116115b757829003601f168201915b505050505081526020016003820160009054906101000a900473ffffffffffffffffffffffffffffffffffffffff1673ffffffffffffffffffffffffffffffffffffffff1673ffffffffffffffffffffffffffffffffffffffff1681526020016004820160009054906101000a900473ffffffffffffffffffffffffffffffffffffffff1673ffffffffffffffffffffffffffffffffffffffff1673ffffffffffffffffffffffffffffffffffffffff1681526020016005820160009054906101000a900473ffffffffffffffffffffffffffffffffffffffff1673ffffffffffffffffffffffffffffffffffffffff1673ffffffffffffffffffffffffffffffffffffffff16815260200160068201548152602001600782015481526020016008820160009054906101000a900460ff161515151581526020016008820160019054906101000a900460ff1615151515815250509050828160c001818152505080600a600086815260200190815260200160002060008201518160000155602082015181600101908051906020019061176f929190613b23565b50604082015181600201908051906020019061178c929190613b23565b5060608201518160030160006101000a81548173ffffffffffffffffffffffffffffffffffffffff021916908373ffffffffffffffffffffffffffffffffffffffff16021790555060808201518160040160006101000a81548173ffffffffffffffffffffffffffffffffffffffff021916908373ffffffffffffffffffffffffffffffffffffffff16021790555060a08201518160050160006101000a81548173ffffffffffffffffffffffffffffffffffffffff021916908373ffffffffffffffffffffffffffffffffffffffff16021790555060c0820151816006015560e082015181600701556101008201518160080160006101000a81548160ff0219169083151502179055506101208201518160080160016101000a81548160ff02191690831515021790555090505050505050565b6000806002600084815260200190815260200160002060009054906101000a900473ffffffffffffffffffffffffffffffffffffffff169050600073ffffffffffffffffffffffffffffffffffffffff168173ffffffffffffffffffffffffffffffffffffffff16141561196a576040517f08c379a000000000000000000000000000000000000000000000000000000000815260040161196190614876565b60405180910390fd5b80915050919050565b6060600061198083612431565b905080915050919050565b600b60205280600052604060002060009150905080546119aa90614d77565b80601f01602080910402602001604051908101604052809291908181526020018280546119d690614d77565b8015611a235780601f106119f857610100808354040283529160200191611a23565b820191906000526020600020905b815481529060010190602001808311611a0657829003601f168201915b505050505081565b60078054611a3890614d77565b80601f0160208091040260200160405190810160405280929190818152602001828054611a6490614d77565b8015611ab15780601f10611a8657610100808354040283529160200191611ab1565b820191906000526020600020905b815481529060010190602001808311611a9457829003601f168201915b505050505081565b60008073ffffffffffffffffffffffffffffffffffffffff168273ffffffffffffffffffffffffffffffffffffffff161415611b2a576040517f08c379a0000000000000000000000000000000000000000000000000000000008152600401611b2190614836565b60405180910390fd5b600360008373ffffffffffffffffffffffffffffffffffffffff1673ffffffffffffffffffffffffffffffffffffffff168152602001908152602001600020549050919050565b600a602052806000526040600020600091509050806000015490806001018054611b9a90614d77565b80601f0160208091040260200160405190810160405280929190818152602001828054611bc690614d77565b8015611c135780601f10611be857610100808354040283529160200191611c13565b820191906000526020600020905b815481529060010190602001808311611bf657829003601f168201915b505050505090806002018054611c2890614d77565b80601f0160208091040260200160405190810160405280929190818152602001828054611c5490614d77565b8015611ca15780601f10611c7657610100808354040283529160200191611ca1565b820191906000526020600020905b815481529060010190602001808311611c8457829003601f168201915b5050505050908060030160009054906101000a900473ffffffffffffffffffffffffffffffffffffffff16908060040160009054906101000a900473ffffffffffffffffffffffffffffffffffffffff16908060050160009054906101000a900473ffffffffffffffffffffffffffffffffffffffff16908060060154908060070154908060080160009054906101000a900460ff16908060080160019054906101000a900460ff1690508a565b606060018054611d5e90614d77565b80601f0160208091040260200160405190810160405280929190818152602001828054611d8a90614d77565b8015611dd75780601f10611dac57610100808354040283529160200191611dd7565b820191906000526020600020905b815481529060010190602001808311611dba57829003601f168201915b5050505050905090565b611df3611dec612be8565b8383612ffc565b5050565b600073ffffffffffffffffffffffffffffffffffffffff163373ffffffffffffffffffffffffffffffffffffffff161415611e67576040517f08c379a0000000000000000000000000000000000000000000000000000000008152600401611e5e90614756565b60405180910390fd5b611e7081612b7c565b611eaf576040517f08c379a0000000000000000000000000000000000000000000000000000000008152600401611ea6906148b6565b60405180910390fd5b6000611eba826118c1565b90503373ffffffffffffffffffffffffffffffffffffffff168173ffffffffffffffffffffffffffffffffffffffff1614611f2a576040517f08c379a0000000000000000000000000000000000000000000000000000000008152600401611f21906147f6565b60405180910390fd5b6000600a60008481526020019081526020016000206040518061014001604052908160008201548152602001600182018054611f6590614d77565b80601f0160208091040260200160405190810160405280929190818152602001828054611f9190614d77565b8015611fde5780601f10611fb357610100808354040283529160200191611fde565b820191906000526020600020905b815481529060010190602001808311611fc157829003601f168201915b50505050508152602001600282018054611ff790614d77565b80601f016020809104026020016040519081016040528092919081815260200182805461202390614d77565b80156120705780601f1061204557610100808354040283529160200191612070565b820191906000526020600020905b81548152906001019060200180831161205357829003601f168201915b505050505081526020016003820160009054906101000a900473ffffffffffffffffffffffffffffffffffffffff1673ffffffffffffffffffffffffffffffffffffffff1673ffffffffffffffffffffffffffffffffffffffff1681526020016004820160009054906101000a900473ffffffffffffffffffffffffffffffffffffffff1673ffffffffffffffffffffffffffffffffffffffff1673ffffffffffffffffffffffffffffffffffffffff1681526020016005820160009054906101000a900473ffffffffffffffffffffffffffffffffffffffff1673ffffffffffffffffffffffffffffffffffffffff1673ffffffffffffffffffffffffffffffffffffffff16815260200160068201548152602001600782015481526020016008820160009054906101000a900460ff161515151581526020016008820160019054906101000a900460ff1615151515815250509050806101000151156121e9576000816101000190151590811515815250506121fc565b6001816101000190151590811515815250505b80600a6000858152602001908152602001600020600082015181600001556020820151816001019080519060200190612236929190613b23565b506040820151816002019080519060200190612253929190613b23565b5060608201518160030160006101000a81548173ffffffffffffffffffffffffffffffffffffffff021916908373ffffffffffffffffffffffffffffffffffffffff16021790555060808201518160040160006101000a81548173ffffffffffffffffffffffffffffffffffffffff021916908373ffffffffffffffffffffffffffffffffffffffff16021790555060a08201518160050160006101000a81548173ffffffffffffffffffffffffffffffffffffffff021916908373ffffffffffffffffffffffffffffffffffffffff16021790555060c0820151816006015560e082015181600701556101008201518160080160006101000a81548160ff0219169083151502179055506101208201518160080160016101000a81548160ff021916908315150217905550905050505050565b600c818051602081018201805184825260208301602085012081835280955050505050506000915054906101000a900460ff1681565b60006123c8826118c1565b9050919050565b6123e06123da612be8565b83612cb7565b61241f576040517f08c379a000000000000000000000000000000000000000000000000000000000815260040161241690614996565b60405180910390fd5b61242b84848484613169565b50505050565b606061243c82612b7c565b61247b576040517f08c379a0000000000000000000000000000000000000000000000000000000008152600401612472906148d6565b60405180910390fd5b600b6000838152602001908152602001600020805461249990614d77565b80601f01602080910402602001604051908101604052809291908181526020018280546124c590614d77565b80156125125780601f106124e757610100808354040283529160200191612512565b820191906000526020600020905b8154815290600101906020018083116124f557829003601f168201915b50505050509050919050565b600080612529610b3d565b90508091505090565b60008073ffffffffffffffffffffffffffffffffffffffff163373ffffffffffffffffffffffffffffffffffffffff1614156125a3576040517f08c379a000000000000000000000000000000000000000000000000000000000815260040161259a90614956565b60405180910390fd5b6125ad60086131c5565b60006125b96008612ca9565b90506125c481612b7c565b15612604576040517f08c379a00000000000000000000000000000000000000000000000000000000081526004016125fb90614a56565b60405180910390fd5b6000600d8560405161261691906145bb565b90815260200160405180910390205414612665576040517f08c379a000000000000000000000000000000000000000000000000000000000815260040161265c90614736565b60405180910390fd5b600c8560405161267591906145bb565b908152602001604051809103902060009054906101000a900460ff16156126d1576040517f08c379a00000000000000000000000000000000000000000000000000000000081526004016126c8906146b6565b60405180910390fd5b6126db33826131db565b6126e581856133b5565b80600d856040516126f691906145bb565b9081526020016040518091039020819055506001600c8660405161271a91906145bb565b908152602001604051809103902060006101000a81548160ff02191690831515021790555060006040518061014001604052808381526020018781526020018681526020013373ffffffffffffffffffffffffffffffffffffffff1681526020013373ffffffffffffffffffffffffffffffffffffffff168152602001600073ffffffffffffffffffffffffffffffffffffffff1681526020018581526020016000815260200160011515815260200160001515815250905080600a600084815260200190815260200160002060008201518160000155602082015181600101908051906020019061280d929190613b23565b50604082015181600201908051906020019061282a929190613b23565b5060608201518160030160006101000a81548173ffffffffffffffffffffffffffffffffffffffff021916908373ffffffffffffffffffffffffffffffffffffffff16021790555060808201518160040160006101000a81548173ffffffffffffffffffffffffffffffffffffffff021916908373ffffffffffffffffffffffffffffffffffffffff16021790555060a08201518160050160006101000a81548173ffffffffffffffffffffffffffffffffffffffff021916908373ffffffffffffffffffffffffffffffffffffffff16021790555060c0820151816006015560e082015181600701556101008201518160080160006101000a81548160ff0219169083151502179055506101208201518160080160016101000a81548160ff02191690831515021790555090505081925050509392505050565b6000600a600084815260200190815260200160002060000154116129be576040517f08c379a00000000000000000000000000000000000000000000000000000000081526004016129b5906147b6565b60405180910390fd5b80600a600084815260200190815260200160002060080160016101000a81548160ff0219169083151502179055505050565b600680546129fd90614d77565b80601f0160208091040260200160405190810160405280929190818152602001828054612a2990614d77565b8015612a765780601f10612a4b57610100808354040283529160200191612a76565b820191906000526020600020905b815481529060010190602001808311612a5957829003601f168201915b505050505081565b6000600560008473ffffffffffffffffffffffffffffffffffffffff1673ffffffffffffffffffffffffffffffffffffffff16815260200190815260200160002060008373ffffffffffffffffffffffffffffffffffffffff1673ffffffffffffffffffffffffffffffffffffffff16815260200190815260200160002060009054906101000a900460ff16905092915050565b60007f01ffc9a7000000000000000000000000000000000000000000000000000000007bffffffffffffffffffffffffffffffffffffffffffffffffffffffff1916827bffffffffffffffffffffffffffffffffffffffffffffffffffffffff1916149050919050565b60008073ffffffffffffffffffffffffffffffffffffffff166002600084815260200190815260200160002060009054906101000a900473ffffffffffffffffffffffffffffffffffffffff1673ffffffffffffffffffffffffffffffffffffffff1614159050919050565b600033905090565b816004600083815260200190815260200160002060006101000a81548173ffffffffffffffffffffffffffffffffffffffff021916908373ffffffffffffffffffffffffffffffffffffffff160217905550808273ffffffffffffffffffffffffffffffffffffffff16612c63836118c1565b73ffffffffffffffffffffffffffffffffffffffff167f8c5be1e5ebec7d5bd14f71427d1e84f3dd0314c0f7b2291e5b200ac8c7c3b92560405160405180910390a45050565b600081600001549050919050565b6000612cc282612b7c565b612d01576040517f08c379a0000000000000000000000000000000000000000000000000000000008152600401612cf8906147d6565b60405180910390fd5b6000612d0c836118c1565b90508073ffffffffffffffffffffffffffffffffffffffff168473ffffffffffffffffffffffffffffffffffffffff161480612d7b57508373ffffffffffffffffffffffffffffffffffffffff16612d6384610989565b73ffffffffffffffffffffffffffffffffffffffff16145b80612d8c5750612d8b8185612a7e565b5b91505092915050565b8273ffffffffffffffffffffffffffffffffffffffff16612db5826118c1565b73ffffffffffffffffffffffffffffffffffffffff1614612e0b576040517f08c379a0000000000000000000000000000000000000000000000000000000008152600401612e02906146f6565b60405180910390fd5b600073ffffffffffffffffffffffffffffffffffffffff168273ffffffffffffffffffffffffffffffffffffffff161415612e7b576040517f08c379a0000000000000000000000000000000000000000000000000000000008152600401612e7290614776565b60405180910390fd5b612e868383836133e1565b612e91600082612bf0565b6001600360008573ffffffffffffffffffffffffffffffffffffffff1673ffffffffffffffffffffffffffffffffffffffff1681526020019081526020016000206000828254612ee19190614c7b565b925050819055506001600360008473ffffffffffffffffffffffffffffffffffffffff1673ffffffffffffffffffffffffffffffffffffffff1681526020019081526020016000206000828254612f389190614c25565b92505081905550816002600083815260200190815260200160002060006101000a81548173ffffffffffffffffffffffffffffffffffffffff021916908373ffffffffffffffffffffffffffffffffffffffff160217905550808273ffffffffffffffffffffffffffffffffffffffff168473ffffffffffffffffffffffffffffffffffffffff167fddf252ad1be2c89b69c2b068fc378daa952ba7f163c4a11628f55a4df523b3ef60405160405180910390a4612ff78383836133e6565b505050565b8173ffffffffffffffffffffffffffffffffffffffff168373ffffffffffffffffffffffffffffffffffffffff16141561306b576040517f08c379a000000000000000000000000000000000000000000000000000000000815260040161306290614796565b60405180910390fd5b80600560008573ffffffffffffffffffffffffffffffffffffffff1673ffffffffffffffffffffffffffffffffffffffff16815260200190815260200160002060008473ffffffffffffffffffffffffffffffffffffffff1673ffffffffffffffffffffffffffffffffffffffff16815260200190815260200160002060006101000a81548160ff0219169083151502179055508173ffffffffffffffffffffffffffffffffffffffff168373ffffffffffffffffffffffffffffffffffffffff167f17307eab39ab6107e8899845ad3d59bd9653f200f220920489ca2b5937696c318360405161315c9190614639565b60405180910390a3505050565b613174848484612d95565b61318084848484613969565b6131bf576040517f08c379a00000000000000000000000000000000000000000000000000000000081526004016131b6906146d6565b60405180910390fd5b50505050565b6001816000016000828254019250508190555050565b600073ffffffffffffffffffffffffffffffffffffffff168273ffffffffffffffffffffffffffffffffffffffff16141561324b576040517f08c379a000000000000000000000000000000000000000000000000000000000815260040161324290614896565b60405180910390fd5b61325481612b7c565b15613294576040517f08c379a000000000000000000000000000000000000000000000000000000000815260040161328b90614716565b60405180910390fd5b6132a0600083836133e1565b6001600360008473ffffffffffffffffffffffffffffffffffffffff1673ffffffffffffffffffffffffffffffffffffffff16815260200190815260200160002060008282546132f09190614c25565b92505081905550816002600083815260200190815260200160002060006101000a81548173ffffffffffffffffffffffffffffffffffffffff021916908373ffffffffffffffffffffffffffffffffffffffff160217905550808273ffffffffffffffffffffffffffffffffffffffff16600073ffffffffffffffffffffffffffffffffffffffff167fddf252ad1be2c89b69c2b068fc378daa952ba7f163c4a11628f55a4df523b3ef60405160405180910390a46133b1600083836133e6565b5050565b80600b600084815260200190815260200160002090805190602001906133dc929190613b23565b505050565b505050565b8173ffffffffffffffffffffffffffffffffffffffff16613406826118c1565b73ffffffffffffffffffffffffffffffffffffffff161461345c576040517f08c379a0000000000000000000000000000000000000000000000000000000008152600401613453906149b6565b60405180910390fd5b600073ffffffffffffffffffffffffffffffffffffffff168273ffffffffffffffffffffffffffffffffffffffff1614156134cc576040517f08c379a00000000000000000000000000000000000000000000000000000000081526004016134c390614676565b60405180910390fd5b6000600a6000838152602001908152602001600020604051806101400160405290816000820154815260200160018201805461350790614d77565b80601f016020809104026020016040519081016040528092919081815260200182805461353390614d77565b80156135805780601f1061355557610100808354040283529160200191613580565b820191906000526020600020905b81548152906001019060200180831161356357829003601f168201915b5050505050815260200160028201805461359990614d77565b80601f01602080910402602001604051908101604052809291908181526020018280546135c590614d77565b80156136125780601f106135e757610100808354040283529160200191613612565b820191906000526020600020905b8154815290600101906020018083116135f557829003601f168201915b505050505081526020016003820160009054906101000a900473ffffffffffffffffffffffffffffffffffffffff1673ffffffffffffffffffffffffffffffffffffffff1673ffffffffffffffffffffffffffffffffffffffff1681526020016004820160009054906101000a900473ffffffffffffffffffffffffffffffffffffffff1673ffffffffffffffffffffffffffffffffffffffff1673ffffffffffffffffffffffffffffffffffffffff1681526020016005820160009054906101000a900473ffffffffffffffffffffffffffffffffffffffff1673ffffffffffffffffffffffffffffffffffffffff1673ffffffffffffffffffffffffffffffffffffffff16815260200160068201548152602001600782015481526020016008820160009054906101000a900460ff161515151581526020016008820160019054906101000a900460ff161515151581525050905080608001518160a0019073ffffffffffffffffffffffffffffffffffffffff16908173ffffffffffffffffffffffffffffffffffffffff168152505082816080019073ffffffffffffffffffffffffffffffffffffffff16908173ffffffffffffffffffffffffffffffffffffffff168152505080600a6000848152602001908152602001600020600082015181600001556020820151816001019080519060200190613817929190613b23565b506040820151816002019080519060200190613834929190613b23565b5060608201518160030160006101000a81548173ffffffffffffffffffffffffffffffffffffffff021916908373ffffffffffffffffffffffffffffffffffffffff16021790555060808201518160040160006101000a81548173ffffffffffffffffffffffffffffffffffffffff021916908373ffffffffffffffffffffffffffffffffffffffff16021790555060a08201518160050160006101000a81548173ffffffffffffffffffffffffffffffffffffffff021916908373ffffffffffffffffffffffffffffffffffffffff16021790555060c0820151816006015560e082015181600701556101008201518160080160006101000a81548160ff0219169083151502179055506101208201518160080160016101000a81548160ff02191690831515021790555090505050505050565b600061398a8473ffffffffffffffffffffffffffffffffffffffff16613b00565b15613af3578373ffffffffffffffffffffffffffffffffffffffff1663150b7a026139b3612be8565b8786866040518563ffffffff1660e01b81526004016139d594939291906145ed565b602060405180830381600087803b1580156139ef57600080fd5b505af1925050508015613a2057506040513d601f19601f82011682018060405250810190613a1d9190613ecf565b60015b613aa3573d8060008114613a50576040519150601f19603f3d011682016040523d82523d6000602084013e613a55565b606091505b50600081511415613a9b576040517f08c379a0000000000000000000000000000000000000000000000000000000008152600401613a92906146d6565b60405180910390fd5b805181602001fd5b63150b7a0260e01b7bffffffffffffffffffffffffffffffffffffffffffffffffffffffff1916817bffffffffffffffffffffffffffffffffffffffffffffffffffffffff191614915050613af8565b600190505b949350505050565b6000808273ffffffffffffffffffffffffffffffffffffffff163b119050919050565b828054613b2f90614d77565b90600052602060002090601f016020900481019282613b515760008555613b98565b82601f10613b6a57805160ff1916838001178555613b98565b82800160010185558215613b98579182015b82811115613b97578251825591602001919060010190613b7c565b5b509050613ba59190613ba9565b5090565b5b80821115613bc2576000816000905550600101613baa565b5090565b6000613bd9613bd484614b80565b614b5b565b905082815260208101848484011115613bf157600080fd5b613bfc848285614d35565b509392505050565b6000613c17613c1284614bb1565b614b5b565b905082815260208101848484011115613c2f57600080fd5b613c3a848285614d35565b509392505050565b600081359050613c51816157e9565b92915050565b600081359050613c6681615800565b92915050565b600081359050613c7b81615817565b92915050565b600081519050613c9081615817565b92915050565b600082601f830112613ca757600080fd5b8135613cb7848260208601613bc6565b91505092915050565b600082601f830112613cd157600080fd5b8135613ce1848260208601613c04565b91505092915050565b600081359050613cf98161582e565b92915050565b600060208284031215613d1157600080fd5b6000613d1f84828501613c42565b91505092915050565b60008060408385031215613d3b57600080fd5b6000613d4985828601613c42565b9250506020613d5a85828601613c42565b9150509250929050565b600080600060608486031215613d7957600080fd5b6000613d8786828701613c42565b9350506020613d9886828701613c42565b9250506040613da986828701613cea565b9150509250925092565b60008060008060808587031215613dc957600080fd5b6000613dd787828801613c42565b9450506020613de887828801613c42565b9350506040613df987828801613cea565b925050606085013567ffffffffffffffff811115613e1657600080fd5b613e2287828801613c96565b91505092959194509250565b60008060408385031215613e4157600080fd5b6000613e4f85828601613c42565b9250506020613e6085828601613c57565b9150509250929050565b60008060408385031215613e7d57600080fd5b6000613e8b85828601613c42565b9250506020613e9c85828601613cea565b9150509250929050565b600060208284031215613eb857600080fd5b6000613ec684828501613c6c565b91505092915050565b600060208284031215613ee157600080fd5b6000613eef84828501613c81565b91505092915050565b600060208284031215613f0a57600080fd5b600082013567ffffffffffffffff811115613f2457600080fd5b613f3084828501613cc0565b91505092915050565b600080600060608486031215613f4e57600080fd5b600084013567ffffffffffffffff811115613f6857600080fd5b613f7486828701613cc0565b935050602084013567ffffffffffffffff811115613f9157600080fd5b613f9d86828701613cc0565b9250506040613fae86828701613cea565b9150509250925092565b600060208284031215613fca57600080fd5b6000613fd884828501613cea565b91505092915050565b60008060408385031215613ff457600080fd5b600061400285828601613cea565b925050602061401385828601613c57565b9150509250929050565b6000806040838503121561403057600080fd5b600061403e85828601613cea565b925050602061404f85828601613cea565b9150509250929050565b61406281614cc1565b82525050565b61407181614caf565b82525050565b61408081614cd3565b82525050565b600061409182614be2565b61409b8185614bf8565b93506140ab818560208601614d44565b6140b481614e67565b840191505092915050565b60006140ca82614bed565b6140d48185614c09565b93506140e4818560208601614d44565b6140ed81614e67565b840191505092915050565b600061410382614bed565b61410d8185614c1a565b935061411d818560208601614d44565b80840191505092915050565b6000614136602683614c09565b915061414182614e78565b604082019050919050565b6000614159602783614c09565b915061416482614ec7565b604082019050919050565b600061417c603583614c09565b915061418782614f16565b604082019050919050565b600061419f603283614c09565b91506141aa82614f65565b604082019050919050565b60006141c2602583614c09565b91506141cd82614fb4565b604082019050919050565b60006141e5601c83614c09565b91506141f082615003565b602082019050919050565b6000614208603483614c09565b91506142138261502c565b604082019050919050565b600061422b602e83614c09565b91506142368261507b565b604082019050919050565b600061424e602483614c09565b9150614259826150ca565b604082019050919050565b6000614271601983614c09565b915061427c82615119565b602082019050919050565b6000614294601083614c09565b915061429f82615142565b602082019050919050565b60006142b7602c83614c09565b91506142c28261516b565b604082019050919050565b60006142da603383614c09565b91506142e5826151ba565b604082019050919050565b60006142fd603883614c09565b915061430882615209565b604082019050919050565b6000614320602a83614c09565b915061432b82615258565b604082019050919050565b6000614343602783614c09565b915061434e826152a7565b604082019050919050565b6000614366602983614c09565b9150614371826152f6565b604082019050919050565b6000614389602083614c09565b915061439482615345565b602082019050919050565b60006143ac603183614c09565b91506143b78261536e565b604082019050919050565b60006143cf602283614c09565b91506143da826153bd565b604082019050919050565b60006143f2602c83614c09565b91506143fd8261540c565b604082019050919050565b6000614415602e83614c09565b91506144208261545b565b604082019050919050565b6000614438602183614c09565b9150614443826154aa565b604082019050919050565b600061445b603583614c09565b9150614466826154f9565b604082019050919050565b600061447e602983614c09565b915061448982615548565b604082019050919050565b60006144a1603183614c09565b91506144ac82615597565b604082019050919050565b60006144c4602783614c09565b91506144cf826155e6565b604082019050919050565b60006144e7603483614c09565b91506144f282615635565b604082019050919050565b600061450a601c83614c09565b915061451582615684565b602082019050919050565b600061452d603183614c09565b9150614538826156ad565b604082019050919050565b6000614550603683614c09565b915061455b826156fc565b604082019050919050565b6000614573603383614c09565b915061457e8261574b565b604082019050919050565b6000614596602483614c09565b91506145a18261579a565b604082019050919050565b6145b581614d2b565b82525050565b60006145c782846140f8565b915081905092915050565b60006020820190506145e76000830184614068565b92915050565b60006080820190506146026000830187614068565b61460f6020830186614068565b61461c60408301856145ac565b818103606083015261462e8184614086565b905095945050505050565b600060208201905061464e6000830184614077565b92915050565b6000602082019050818103600083015261466e81846140bf565b905092915050565b6000602082019050818103600083015261468f81614129565b9050919050565b600060208201905081810360008301526146af8161414c565b9050919050565b600060208201905081810360008301526146cf8161416f565b9050919050565b600060208201905081810360008301526146ef81614192565b9050919050565b6000602082019050818103600083015261470f816141b5565b9050919050565b6000602082019050818103600083015261472f816141d8565b9050919050565b6000602082019050818103600083015261474f816141fb565b9050919050565b6000602082019050818103600083015261476f8161421e565b9050919050565b6000602082019050818103600083015261478f81614241565b9050919050565b600060208201905081810360008301526147af81614264565b9050919050565b600060208201905081810360008301526147cf81614287565b9050919050565b600060208201905081810360008301526147ef816142aa565b9050919050565b6000602082019050818103600083015261480f816142cd565b9050919050565b6000602082019050818103600083015261482f816142f0565b9050919050565b6000602082019050818103600083015261484f81614313565b9050919050565b6000602082019050818103600083015261486f81614336565b9050919050565b6000602082019050818103600083015261488f81614359565b9050919050565b600060208201905081810360008301526148af8161437c565b9050919050565b600060208201905081810360008301526148cf8161439f565b9050919050565b600060208201905081810360008301526148ef816143c2565b9050919050565b6000602082019050818103600083015261490f816143e5565b9050919050565b6000602082019050818103600083015261492f81614408565b9050919050565b6000602082019050818103600083015261494f8161442b565b9050919050565b6000602082019050818103600083015261496f8161444e565b9050919050565b6000602082019050818103600083015261498f81614471565b9050919050565b600060208201905081810360008301526149af81614494565b9050919050565b600060208201905081810360008301526149cf816144b7565b9050919050565b600060208201905081810360008301526149ef816144da565b9050919050565b60006020820190508181036000830152614a0f816144fd565b9050919050565b60006020820190508181036000830152614a2f81614520565b9050919050565b60006020820190508181036000830152614a4f81614543565b9050919050565b60006020820190508181036000830152614a6f81614566565b9050919050565b60006020820190508181036000830152614a8f81614589565b9050919050565b6000602082019050614aab60008301846145ac565b92915050565b600061014082019050614ac7600083018d6145ac565b8181036020830152614ad9818c6140bf565b90508181036040830152614aed818b6140bf565b9050614afc606083018a614059565b614b096080830189614059565b614b1660a0830188614059565b614b2360c08301876145ac565b614b3060e08301866145ac565b614b3e610100830185614077565b614b4c610120830184614077565b9b9a5050505050505050505050565b6000614b65614b76565b9050614b718282614da9565b919050565b6000604051905090565b600067ffffffffffffffff821115614b9b57614b9a614e38565b5b614ba482614e67565b9050602081019050919050565b600067ffffffffffffffff821115614bcc57614bcb614e38565b5b614bd582614e67565b9050602081019050919050565b600081519050919050565b600081519050919050565b600082825260208201905092915050565b600082825260208201905092915050565b600081905092915050565b6000614c3082614d2b565b9150614c3b83614d2b565b9250827fffffffffffffffffffffffffffffffffffffffffffffffffffffffffffffffff03821115614c7057614c6f614dda565b5b828201905092915050565b6000614c8682614d2b565b9150614c9183614d2b565b925082821015614ca457614ca3614dda565b5b828203905092915050565b6000614cba82614d0b565b9050919050565b6000614ccc82614d0b565b9050919050565b60008115159050919050565b60007fffffffff0000000000000000000000000000000000000000000000000000000082169050919050565b600073ffffffffffffffffffffffffffffffffffffffff82169050919050565b6000819050919050565b82818337600083830152505050565b60005b83811015614d62578082015181840152602081019050614d47565b83811115614d71576000848401525b50505050565b60006002820490506001821680614d8f57607f821691505b60208210811415614da357614da2614e09565b5b50919050565b614db282614e67565b810181811067ffffffffffffffff82111715614dd157614dd0614e38565b5b80604052505050565b7f4e487b7100000000000000000000000000000000000000000000000000000000600052601160045260246000fd5b7f4e487b7100000000000000000000000000000000000000000000000000000000600052602260045260246000fd5b7f4e487b7100000000000000000000000000000000000000000000000000000000600052604160045260246000fd5b6000601f19601f8301169050919050565b7f5061776e4e4654733a207472616e7366657220746f20746865207a65726f206160008201527f6464726573730000000000000000000000000000000000000000000000000000602082015250565b7f627579546f6b656e28293a204572726f723a20627579657220697320746f6b6560008201527f6e206f776e657200000000000000000000000000000000000000000000000000602082015250565b7f5061776e4e4654732e6d696e745061776e4e465428293a2054686520746f6b6560008201527f6e206e616d6520616c7265616479206578697374730000000000000000000000602082015250565b7f4552433732313a207472616e7366657220746f206e6f6e20455243373231526560008201527f63656976657220696d706c656d656e7465720000000000000000000000000000602082015250565b7f4552433732313a207472616e736665722066726f6d20696e636f72726563742060008201527f6f776e6572000000000000000000000000000000000000000000000000000000602082015250565b7f4552433732313a20746f6b656e20616c7265616479206d696e74656400000000600082015250565b7f5061776e4e4654732e6d696e745061776e4e465428293a2054686520746f6b6560008201527f6e2055524920616c726561647920657869737473000000000000000000000000602082015250565b7f746f67676c65466f7253616c6528293a204572726f723a2063616c6c6572206f60008201527f66207a65726f2061646472657373000000000000000000000000000000000000602082015250565b7f4552433732313a207472616e7366657220746f20746865207a65726f2061646460008201527f7265737300000000000000000000000000000000000000000000000000000000602082015250565b7f4552433732313a20617070726f766520746f2063616c6c657200000000000000600082015250565b7f496e76616c696420746f6b656e20696400000000000000000000000000000000600082015250565b7f4552433732313a206f70657261746f7220717565727920666f72206e6f6e657860008201527f697374656e7420746f6b656e0000000000000000000000000000000000000000602082015250565b7f746f67676c65466f7253616c6528293a204572726f723a206f776e657220646960008201527f66666572656e74207468616e2063616c6c657200000000000000000000000000602082015250565b7f4552433732313a20617070726f76652063616c6c6572206973206e6f74206f7760008201527f6e6572206e6f7220617070726f76656420666f7220616c6c0000000000000000602082015250565b7f4552433732313a2062616c616e636520717565727920666f7220746865207a6560008201527f726f206164647265737300000000000000000000000000000000000000000000602082015250565b7f627579546f6b656e28293a2054686520746f6b656e20696420616c726561647960008201527f2065786973747300000000000000000000000000000000000000000000000000602082015250565b7f4552433732313a206f776e657220717565727920666f72206e6f6e657869737460008201527f656e7420746f6b656e0000000000000000000000000000000000000000000000602082015250565b7f4552433732313a206d696e7420746f20746865207a65726f2061646472657373600082015250565b7f746f67676c65466f7253616c6528293a20457870656374656420746f20746f6b60008201527f656e2065786973747320616c7265616479000000000000000000000000000000602082015250565b7f5061776e4e4654733a204572726f723a204e6f6e6578697374656e7420746f6b60008201527f656e000000000000000000000000000000000000000000000000000000000000602082015250565b7f4552433732313a20617070726f76656420717565727920666f72206e6f6e657860008201527f697374656e7420746f6b656e0000000000000000000000000000000000000000602082015250565b7f627579546f6b656e28293a204572726f723a20746f6b656e206f776e6572206f60008201527f66207a65726f2061646472657373000000000000000000000000000000000000602082015250565b7f4552433732313a20617070726f76616c20746f2063757272656e74206f776e6560008201527f7200000000000000000000000000000000000000000000000000000000000000602082015250565b7f5061776e4e4654732e6d696e745061776e4e465428293a204572726f723a206360008201527f616c6c6572206f66207a65726f20616464726573730000000000000000000000602082015250565b7f627579546f6b656e28293a204572726f723a2063616c6c6572206f66207a657260008201527f6f20616464726573730000000000000000000000000000000000000000000000602082015250565b7f4552433732313a207472616e736665722063616c6c6572206973206e6f74206f60008201527f776e6572206e6f7220617070726f766564000000000000000000000000000000602082015250565b7f5061776e4e4654733a207472616e736665722066726f6d20696e636f7272656360008201527f74206f776e657200000000000000000000000000000000000000000000000000602082015250565b7f6368616e6765546f6b656e507269636528293a20457870656374656420746f2060008201527f746f6b656e2065786973747320616c7265616479000000000000000000000000602082015250565b7f627579546f6b656e28293a204e6f7420656e6f7567682066756e647300000000600082015250565b7f6368616e6765546f6b656e507269636528293a204572726f723a2063616c6c6560008201527f72206f66207a65726f2061646472657373000000000000000000000000000000602082015250565b7f6368616e6765546f6b656e507269636528293a204572726f723a206f776e657260008201527f20646966666572656e74207468616e2063616c6c657200000000000000000000602082015250565b7f5061776e4e4654732e6d696e745061776e4e465428293a2054686520746f6b6560008201527f6e20696420616c72656164792065786973747300000000000000000000000000602082015250565b7f627579546f6b656e28293a20546f6b656e2073686f756c6420626520666f722060008201527f73616c6500000000000000000000000000000000000000000000000000000000602082015250565b6157f281614caf565b81146157fd57600080fd5b50565b61580981614cd3565b811461581457600080fd5b50565b61582081614cdf565b811461582b57600080fd5b50565b61583781614d2b565b811461584257600080fd5b5056fea26469706673582212202cdde43c77cf85c8e6a9844dca726c122577cdff0b8f9bb9a510420c5941ae5964736f6c634300080400334f70656e636861696e205061776e696e67204e46547320436f6c6c656374696f6e",
  "immutableReferences": {},
  "source": "// SPDX-License-Identifier: MIT\npragma solidity ^0.8.0;\n\nimport \"@openzeppelin/contracts/utils/Counters.sol\";\nimport \"@openzeppelin/contracts/token/ERC721/ERC721.sol\";\n\n// PawnNFTs smart contract inherits ERC721 interface\ncontract PawnNFTs is ERC721 {\n\n  using Counters for Counters.Counter;\n\n  // this contract's token collection name\n  string public collectionName;\n  // this contract's token symbol\n  string public collectionNameSymbol;\n  // total number of pawning NFTs minted\n  Counters.Counter private pawnNFTCounter;\n\n  uint  public decimals = 0;\n  \n  // define pawning NFT struct\n   struct PawnNFT {\n    uint256 tokenId;\n    string tokenName;\n    string tokenURI;\n    address payable mintedBy;\n    address payable currentOwner;\n    address payable previousOwner;\n    uint256 price;\n    uint256 numberOfTransfers;\n    bool forSale;\n    bool mintedNativeToken;\n  }\n\n  // map pawnNft's token id to pawning NFT\n  mapping(uint256 => PawnNFT) public allPawnNFTs;\n  // \n  mapping(uint256 => string) public tokenURIs;\n  // check if token name exists\n  mapping(string => bool) public tokenNameExists;\n  // check if token URI exists\n  mapping(string => uint256) public tokenURIExists;\n\n  receive() external payable {}\n\n  // initialize contract while deployment with contract's collection name and token\n  constructor() ERC721(\"Openchain Pawning NFTs Collection\", \"PNFT\") {\n    collectionName = name();\n    collectionNameSymbol = symbol();\n  }\n\n  /**\n    * @dev Base URI for computing {tokenURI}. If set, the resulting URI for each\n    * token will be the concatenation of the `baseURI` and the `tokenId`. Empty\n    * by default, can be overriden in child contracts.\n    */\n  function tokenURI(uint256 tokenId) public view virtual override returns (string memory) {\n    require(_exists(tokenId), \"PawnNFTs: Error: Nonexistent token\");\n    // require(tokenURIs[tokenId] != 0, \"PawnNFTs: URI query for token without token URI\");\n    return tokenURIs[tokenId];\n  }\n  \n  function _setTokenURI(uint tokenId, string memory _tokenURI) internal {\n    tokenURIs[tokenId] = _tokenURI;\n  }\n\n  function totalSupply() public view returns(uint256) {\n    return pawnNFTCounter.current();\n  }\n\n  // mint a new pawning NFT and return token ID\n  function mintPawnNFT(string memory _name, string memory _tokenURI, uint256 _price) external returns(uint256) {\n    // check if thic fucntion caller is not an zero address account\n    require(msg.sender != address(0), \"PawnNFTs.mintPawnNFT(): Error: caller of zero address\");\n    // increment counter\n    pawnNFTCounter.increment();\n    uint256 newTokenID = pawnNFTCounter.current();\n    // check if a token exists with the above token id => incremented counter\n    require(!_exists(newTokenID), \"PawnNFTs.mintPawnNFT(): The token id already exists\");\n\n    // check if the token URI already exists or not\n    require(tokenURIExists[_tokenURI] == 0, \"PawnNFTs.mintPawnNFT(): The token URI already exists\");\n    // check if the token name already exists or not\n    require(!tokenNameExists[_name], \"PawnNFTs.mintPawnNFT(): The token name already exists\");\n\n    // mint the token\n    _mint(msg.sender, newTokenID);\n    // set token URI (bind token id with the passed in token URI)\n    _setTokenURI(newTokenID, _tokenURI);\n\n    // make passed token URI as exists\n    tokenURIExists[_tokenURI] = newTokenID;\n    // make token name passed as exists\n    tokenNameExists[_name] = true;\n\n    // creat a new pawning NFT (struct) and pass in new values\n    PawnNFT memory newPawnNFT = PawnNFT(\n      newTokenID,\n      _name,\n      _tokenURI,\n      payable(msg.sender),\n      payable(msg.sender),\n      payable(address(0)),\n      _price,\n      0,\n      true,\n      false // mintedNativeToken\n    );\n    // add the token id and it's pawning NFT to all pawning NFTs mapping\n    allPawnNFTs[newTokenID] = newPawnNFT;\n    return newTokenID;\n  }\n\n  // get owner of the token\n  function getTokenOwner(uint256 _tokenId) public view returns(address) {\n    return ownerOf(_tokenId);\n  }\n\n  // get metadata of the token\n  function getTokenMetaData(uint _tokenId) public view returns(string memory) {\n    string memory tokenMetaData = tokenURI(_tokenId);\n    return tokenMetaData;\n  }\n\n  function setMintedNativeToken(uint256 _tokenId, bool _mintedNativeToken) public {\n    require(allPawnNFTs[_tokenId].tokenId > 0, \"Invalid token id\");\n    allPawnNFTs[_tokenId].mintedNativeToken = _mintedNativeToken;\n  }\n\n  // get total number of tokens minted so far\n  function getNumberOfTokensMinted() public view returns(uint256) {\n    uint256 totalNumberOfTokensMinted = totalSupply();\n    return totalNumberOfTokensMinted;\n  }\n\n  // get total number of tokens owned by an address\n  function getTotalNumberOfTokensOwnedByAnAddress(address _owner) public view returns(uint256) {\n    uint256 totalNumberOfTokensOwned = balanceOf(_owner);\n    return totalNumberOfTokensOwned;\n  }\n\n  // check if the token already exists\n  function getTokenExists(uint256 _tokenId) public view returns(bool) {\n    bool tokenExists = _exists(_tokenId);\n    return tokenExists;\n  }\n\n  // by a token by passing in the token's id\n  function buyToken(uint256 _tokenId) public payable {\n    // check if the function caller is not an zero account address\n    require(msg.sender != address(0), \"buyToken(): Error: caller of zero address\");\n    // check if the token id of the token being bought exists or not\n    require(_exists(_tokenId), \"buyToken(): The token id already exists\");\n    // get the token's owner\n    address tokenOwner = ownerOf(_tokenId);\n    // token's owner should not be an zero address account\n    require(tokenOwner != address(0), \"buyToken(): Error: token owner of zero address\");\n    // the one who wants to buy the token should not be the token's owner\n    require(tokenOwner != msg.sender, \"buyToken(): Error: buyer is token owner\");\n    // get that token from all pawning NFTs mapping and create a memory of it defined as (struct => PawnNFT)\n    PawnNFT memory pawnNft = allPawnNFTs[_tokenId];\n    // price sent in to buy should be equal to or more than the token's price\n    require(msg.value >= pawnNft.price, \"buyToken(): Not enough funds\");\n    // token should be for sale\n    require(pawnNft.forSale, \"buyToken(): Token should be for sale\");\n    // transfer the token from owner to the caller of the function (buyer)\n    _transfer(tokenOwner, msg.sender, _tokenId);\n    // get owner of the token\n    address payable sendTo = pawnNft.currentOwner;\n    // send token's worth of ethers to the owner\n    sendTo.transfer(msg.value);\n    // update the token's previous owner\n    pawnNft.previousOwner = pawnNft.currentOwner;\n    // update the token's current owner\n    pawnNft.currentOwner = payable(msg.sender);\n    // update the how many times this token was transfered\n    pawnNft.numberOfTransfers += 1;\n    // set and update that token in the mapping\n    allPawnNFTs[_tokenId] = pawnNft;\n  }\n\n  function _afterTokenTransfer(\n      address /*from*/,\n      address to,\n      uint256 tokenId\n  ) internal virtual override {\n    // Now the owner of the token ID is \"to\"\n    require(ERC721.ownerOf(tokenId) == to, \"PawnNFTs: transfer from incorrect owner\");\n    require(to != address(0), \"PawnNFTs: transfer to the zero address\");\n\n    // update token's owner\n    PawnNFT memory pawnNft = allPawnNFTs[tokenId];\n    // update the token's previous owner\n    pawnNft.previousOwner = pawnNft.currentOwner;\n    // update the token's current owner\n    pawnNft.currentOwner = payable(to);\n    // set and update that token in the mapping\n    allPawnNFTs[tokenId] = pawnNft;\n  }\n\n  function changeTokenPrice(uint256 _tokenId, uint256 _newPrice) public {\n    // require caller of the function is not an empty address\n    require(msg.sender != address(0), \"changeTokenPrice(): Error: caller of zero address\");\n    // require that token should exist\n    require(_exists(_tokenId), \"changeTokenPrice(): Expected to token exists already\");\n    // get the token's owner\n    address tokenOwner = ownerOf(_tokenId);\n    // check that Owner different than caller\n    require(tokenOwner == msg.sender, \"changeTokenPrice(): Error: owner different than caller\");\n    // get that token from all pawning NFTs mapping and create a memory of it defined as (struct => PawnNFT)\n    PawnNFT memory pawnNft = allPawnNFTs[_tokenId];\n    // update token's price with new price\n    pawnNft.price = _newPrice;\n    // set and update that token in the mapping\n    allPawnNFTs[_tokenId] = pawnNft;\n  }\n\n  // switch between set for sale and set not for sale\n  function toggleForSale(uint256 _tokenId) public {\n    // require caller of the function is not an empty address\n    require(msg.sender != address(0), \"toggleForSale(): Error: caller of zero address\");\n    // require that token should exist\n    require(_exists(_tokenId), \"toggleForSale(): Expected to token exists already\");\n    // get the token's owner\n    address tokenOwner = ownerOf(_tokenId);\n    // check that Owner different than caller\n    require(tokenOwner == msg.sender, \"toggleForSale(): Error: owner different than caller\");\n    // get that token from all pawning NFTs mapping and create a memory of it defined as (struct => PawnNFT)\n    PawnNFT memory pawnNft = allPawnNFTs[_tokenId];\n    // if token's forSale is false make it true and vice versa\n    if(pawnNft.forSale) {\n      pawnNft.forSale = false;\n    } else {\n      pawnNft.forSale = true;\n    }\n    // set and update that token in the mapping\n    allPawnNFTs[_tokenId] = pawnNft;\n  }\n}\n",
  "sourcePath": "/home/cowboy/OpenchainTestVersion/server/contracts/PawnNFTs.sol",
  "compiler": {
    "name": "solc",
    "version": "0.8.4+commit.c7e474f2.Emscripten.clang"
  },
  "schemaVersion": "3.4.6",
  "updatedAt": "2022-04-09T06:58:09.295Z",
  "networkType": "ethereum",
  "devdoc": {
    "kind": "dev",
    "methods": {
      "approve(address,uint256)": {
        "details": "See {IERC721-approve}."
      },
      "balanceOf(address)": {
        "details": "See {IERC721-balanceOf}."
      },
      "getApproved(uint256)": {
        "details": "See {IERC721-getApproved}."
      },
      "isApprovedForAll(address,address)": {
        "details": "See {IERC721-isApprovedForAll}."
      },
      "name()": {
        "details": "See {IERC721Metadata-name}."
      },
      "ownerOf(uint256)": {
        "details": "See {IERC721-ownerOf}."
      },
      "safeTransferFrom(address,address,uint256)": {
        "details": "See {IERC721-safeTransferFrom}."
      },
      "safeTransferFrom(address,address,uint256,bytes)": {
        "details": "See {IERC721-safeTransferFrom}."
      },
      "setApprovalForAll(address,bool)": {
        "details": "See {IERC721-setApprovalForAll}."
      },
      "supportsInterface(bytes4)": {
        "details": "See {IERC165-supportsInterface}."
      },
      "symbol()": {
        "details": "See {IERC721Metadata-symbol}."
      },
      "tokenURI(uint256)": {
        "details": "Base URI for computing {tokenURI}. If set, the resulting URI for each token will be the concatenation of the `baseURI` and the `tokenId`. Empty by default, can be overriden in child contracts."
      },
      "transferFrom(address,address,uint256)": {
        "details": "See {IERC721-transferFrom}."
      }
    },
    "version": 1
  },
  "userdoc": {
    "kind": "user",
    "methods": {},
    "version": 1
  }
}