{
  "contractName": "PawnExchange",
  "abi": [
    {
      "inputs": [],
      "stateMutability": "nonpayable",
      "type": "constructor"
    },
    {
      "anonymous": false,
      "inputs": [
        {
          "indexed": false,
          "internalType": "uint256",
          "name": "realPrice",
          "type": "uint256"
        },
        {
          "indexed": false,
          "internalType": "uint256",
          "name": "fee",
          "type": "uint256"
        }
      ],
      "name": "SwappedToOcat",
      "type": "event"
    },
    {
      "inputs": [
        {
          "internalType": "address payable",
          "name": "",
          "type": "address"
        },
        {
          "internalType": "address payable",
          "name": "",
          "type": "address"
        },
        {
          "internalType": "uint256",
          "name": "",
          "type": "uint256"
        },
        {
          "internalType": "bytes",
          "name": "",
          "type": "bytes"
        }
      ],
      "name": "onERC721Received",
      "outputs": [
        {
          "internalType": "bytes4",
          "name": "",
          "type": "bytes4"
        }
      ],
      "stateMutability": "pure",
      "type": "function",
      "constant": true
    },
    {
      "inputs": [
        {
          "internalType": "address payable",
          "name": "_pnftAddress",
          "type": "address"
        }
      ],
      "name": "setPnftAddress",
      "outputs": [],
      "stateMutability": "nonpayable",
      "type": "function"
    },
    {
      "inputs": [
        {
          "internalType": "address payable",
          "name": "_ocatAddress",
          "type": "address"
        }
      ],
      "name": "setOcatAddress",
      "outputs": [],
      "stateMutability": "nonpayable",
      "type": "function"
    },
    {
      "inputs": [
        {
          "internalType": "uint8",
          "name": "_minPrice",
          "type": "uint8"
        }
      ],
      "name": "setMinPrice",
      "outputs": [],
      "stateMutability": "nonpayable",
      "type": "function"
    },
    {
      "inputs": [
        {
          "internalType": "uint256",
          "name": "nftID",
          "type": "uint256"
        }
      ],
      "name": "exchangeToOcat",
      "outputs": [],
      "stateMutability": "nonpayable",
      "type": "function"
    },
    {
      "inputs": [
        {
          "internalType": "uint256",
          "name": "nftID",
          "type": "uint256"
        }
      ],
      "name": "exchangeFromOcat",
      "outputs": [],
      "stateMutability": "nonpayable",
      "type": "function"
    }
  ],
  "bytecode": "0x60806040526000600460006101000a81548160ff021916908360ff1602179055506001600460016101000a81548160ff021916908360ff1602179055506004600660006101000a81548160ff021916908360ff160217905550611388600660016101000a81548167ffffffffffffffff021916908367ffffffffffffffff16021790555034801561008f57600080fd5b5033600260006101000a81548173ffffffffffffffffffffffffffffffffffffffff021916908373ffffffffffffffffffffffffffffffffffffffff160217905550603260056000600460009054906101000a900460ff1660ff1660ff16815260200190815260200160002060006101000a81548160ff021916908360ff160217905550603260056000600460019054906101000a900460ff1660ff1660ff16815260200190815260200160002060006101000a81548160ff021916908360ff160217905550600a6003819055506123f88061016c6000396000f3fe608060405234801561001057600080fd5b50600436106100625760003560e01c80630ca38a5a1461006757806313ad82da14610083578063150b7a021461009f57806315f03d22146100cf578063378321eb146100eb578063b18d30a214610107575b600080fd5b610081600480360381019061007c9190611773565b610123565b005b61009d60048036038101906100989190611616565b610274565b005b6100b960048036038101906100b4919061156d565b610a49565b6040516100c69190611a3f565b60405180910390f35b6100e960048036038101906100e49190611544565b610a5e565b005b61010560048036038101906101009190611616565b610d14565b005b610121600480360381019061011c9190611544565b610f97565b005b600073ffffffffffffffffffffffffffffffffffffffff16600260009054906101000a900473ffffffffffffffffffffffffffffffffffffffff1673ffffffffffffffffffffffffffffffffffffffff1614156101b5576040517f08c379a00000000000000000000000000000000000000000000000000000000081526004016101ac90611aba565b60405180910390fd5b600260009054906101000a900473ffffffffffffffffffffffffffffffffffffffff1673ffffffffffffffffffffffffffffffffffffffff163373ffffffffffffffffffffffffffffffffffffffff1614610245576040517f08c379a000000000000000000000000000000000000000000000000000000000815260040161023c90611a9a565b60405180910390fd5b8060ff16600660016101000a81548167ffffffffffffffff021916908367ffffffffffffffff16021790555050565b80600081116102b8576040517f08c379a00000000000000000000000000000000000000000000000000000000081526004016102af90611afa565b60405180910390fd5b3073ffffffffffffffffffffffffffffffffffffffff163373ffffffffffffffffffffffffffffffffffffffff161415610327576040517f08c379a000000000000000000000000000000000000000000000000000000000815260040161031e90611a5a565b60405180910390fd5b600073ffffffffffffffffffffffffffffffffffffffff163373ffffffffffffffffffffffffffffffffffffffff161415610397576040517f08c379a000000000000000000000000000000000000000000000000000000000815260040161038e90611a7a565b60405180910390fd5b6000600160009054906101000a900473ffffffffffffffffffffffffffffffffffffffff1673ffffffffffffffffffffffffffffffffffffffff166370a08231306040518263ffffffff1660e01b81526004016103f491906119c4565b60206040518083038186803b15801561040c57600080fd5b505afa158015610420573d6000803e3d6000fd5b505050506040513d601f19601f82011682018060405250810190610444919061163f565b905060008060008060009054906101000a900473ffffffffffffffffffffffffffffffffffffffff1673ffffffffffffffffffffffffffffffffffffffff1663717947b1876040518263ffffffff1660e01b81526004016104a59190611bda565b60006040518083038186803b1580156104bd57600080fd5b505afa1580156104d1573d6000803e3d6000fd5b505050506040513d6000823e3d601f19601f820116820180604052508101906104fa9190611668565b995050509750509650505050503373ffffffffffffffffffffffffffffffffffffffff168373ffffffffffffffffffffffffffffffffffffffff1614610575576040517f08c379a000000000000000000000000000000000000000000000000000000000815260040161056c90611b7a565b60405180910390fd5b600660019054906101000a900467ffffffffffffffff1667ffffffffffffffff168210156105d8576040517f08c379a00000000000000000000000000000000000000000000000000000000081526004016105cf90611b1a565b60405180910390fd5b60006003541161061d576040517f08c379a000000000000000000000000000000000000000000000000000000000815260040161061490611ada565b60405180910390fd5b60008260035461062d9190611e66565b90506000600660009054906101000a900460ff16600a61064d9190611d48565b60056000600460009054906101000a900460ff1660ff1660ff16815260200190815260200160002060009054906101000a900460ff1660ff16836106919190611e66565b61069b9190611cc4565b9050600081836106ab9190611ec0565b9050836107d257600160009054906101000a900473ffffffffffffffffffffffffffffffffffffffff1673ffffffffffffffffffffffffffffffffffffffff1663a0712d68846040518263ffffffff1660e01b815260040161070d9190611bda565b600060405180830381600087803b15801561072757600080fd5b505af115801561073b573d6000803e3d6000fd5b5050505060008054906101000a900473ffffffffffffffffffffffffffffffffffffffff1673ffffffffffffffffffffffffffffffffffffffff1663d81bcb2d8a60016040518363ffffffff1660e01b815260040161079b929190611bf5565b600060405180830381600087803b1580156107b557600080fd5b505af11580156107c9573d6000803e3d6000fd5b50505050610816565b84871015610815576040517f08c379a000000000000000000000000000000000000000000000000000000000815260040161080c90611b5a565b60405180910390fd5b5b60008054906101000a900473ffffffffffffffffffffffffffffffffffffffff1673ffffffffffffffffffffffffffffffffffffffff166342842e0e33308c6040518463ffffffff1660e01b8152600401610873939291906119df565b600060405180830381600087803b15801561088d57600080fd5b505af11580156108a1573d6000803e3d6000fd5b50505050600160009054906101000a900473ffffffffffffffffffffffffffffffffffffffff1673ffffffffffffffffffffffffffffffffffffffff1663a9059cbb30846040518363ffffffff1660e01b8152600401610902929190611a16565b602060405180830381600087803b15801561091c57600080fd5b505af1158015610930573d6000803e3d6000fd5b505050506040513d601f19601f8201168201806040525081019061095491906115ed565b50600160009054906101000a900473ffffffffffffffffffffffffffffffffffffffff1673ffffffffffffffffffffffffffffffffffffffff1663a9059cbb33836040518363ffffffff1660e01b81526004016109b2929190611a16565b602060405180830381600087803b1580156109cc57600080fd5b505af11580156109e0573d6000803e3d6000fd5b505050506040513d601f19601f82011682018060405250810190610a0491906115ed565b507fdf26ba1712ef61c6db90a8ee9b6a5c4b7001717811fe1086a93d3bcad12552918183604051610a36929190611c1e565b60405180910390a1505050505050505050565b600063150b7a0260e01b905095945050505050565b3073ffffffffffffffffffffffffffffffffffffffff163373ffffffffffffffffffffffffffffffffffffffff161415610acd576040517f08c379a0000000000000000000000000000000000000000000000000000000008152600401610ac490611a5a565b60405180910390fd5b600073ffffffffffffffffffffffffffffffffffffffff163373ffffffffffffffffffffffffffffffffffffffff161415610b3d576040517f08c379a0000000000000000000000000000000000000000000000000000000008152600401610b3490611a7a565b60405180910390fd5b600073ffffffffffffffffffffffffffffffffffffffff16600260009054906101000a900473ffffffffffffffffffffffffffffffffffffffff1673ffffffffffffffffffffffffffffffffffffffff161415610bcf576040517f08c379a0000000000000000000000000000000000000000000000000000000008152600401610bc690611aba565b60405180910390fd5b600260009054906101000a900473ffffffffffffffffffffffffffffffffffffffff1673ffffffffffffffffffffffffffffffffffffffff163373ffffffffffffffffffffffffffffffffffffffff1614610c5f576040517f08c379a0000000000000000000000000000000000000000000000000000000008152600401610c5690611a9a565b60405180910390fd5b80600073ffffffffffffffffffffffffffffffffffffffff168173ffffffffffffffffffffffffffffffffffffffff161415610cd0576040517f08c379a0000000000000000000000000000000000000000000000000000000008152600401610cc790611b3a565b60405180910390fd5b816000806101000a81548173ffffffffffffffffffffffffffffffffffffffff021916908373ffffffffffffffffffffffffffffffffffffffff1602179055505050565b6000600160009054906101000a900473ffffffffffffffffffffffffffffffffffffffff1673ffffffffffffffffffffffffffffffffffffffff166370a08231336040518263ffffffff1660e01b8152600401610d7191906119c4565b60206040518083038186803b158015610d8957600080fd5b505afa158015610d9d573d6000803e3d6000fd5b505050506040513d601f19601f82011682018060405250810190610dc1919061163f565b905060008060009054906101000a900473ffffffffffffffffffffffffffffffffffffffff1673ffffffffffffffffffffffffffffffffffffffff1663717947b1846040518263ffffffff1660e01b8152600401610e1f9190611bda565b60006040518083038186803b158015610e3757600080fd5b505afa158015610e4b573d6000803e3d6000fd5b505050506040513d6000823e3d601f19601f82011682018060405250810190610e749190611668565b5050509650505050505050600060035482610e8f9190611e66565b905080831015610ed4576040517f08c379a0000000000000000000000000000000000000000000000000000000008152600401610ecb90611b9a565b60405180910390fd5b610f02600160009054906101000a900473ffffffffffffffffffffffffffffffffffffffff163330846112db565b60008054906101000a900473ffffffffffffffffffffffffffffffffffffffff1673ffffffffffffffffffffffffffffffffffffffff166342842e0e3033876040518463ffffffff1660e01b8152600401610f5f939291906119df565b600060405180830381600087803b158015610f7957600080fd5b505af1158015610f8d573d6000803e3d6000fd5b5050505050505050565b3073ffffffffffffffffffffffffffffffffffffffff163373ffffffffffffffffffffffffffffffffffffffff161415611006576040517f08c379a0000000000000000000000000000000000000000000000000000000008152600401610ffd90611a5a565b60405180910390fd5b600073ffffffffffffffffffffffffffffffffffffffff163373ffffffffffffffffffffffffffffffffffffffff161415611076576040517f08c379a000000000000000000000000000000000000000000000000000000000815260040161106d90611a7a565b60405180910390fd5b80600073ffffffffffffffffffffffffffffffffffffffff168173ffffffffffffffffffffffffffffffffffffffff1614156110e7576040517f08c379a00000000000000000000000000000000000000000000000000000000081526004016110de90611b3a565b60405180910390fd5b600073ffffffffffffffffffffffffffffffffffffffff16600260009054906101000a900473ffffffffffffffffffffffffffffffffffffffff1673ffffffffffffffffffffffffffffffffffffffff161415611179576040517f08c379a000000000000000000000000000000000000000000000000000000000815260040161117090611aba565b60405180910390fd5b600260009054906101000a900473ffffffffffffffffffffffffffffffffffffffff1673ffffffffffffffffffffffffffffffffffffffff163373ffffffffffffffffffffffffffffffffffffffff1614611209576040517f08c379a000000000000000000000000000000000000000000000000000000000815260040161120090611a9a565b60405180910390fd5b81600160006101000a81548173ffffffffffffffffffffffffffffffffffffffff021916908373ffffffffffffffffffffffffffffffffffffffff160217905550600160009054906101000a900473ffffffffffffffffffffffffffffffffffffffff1673ffffffffffffffffffffffffffffffffffffffff16639870d7fe306040518263ffffffff1660e01b81526004016112a591906119c4565b600060405180830381600087803b1580156112bf57600080fd5b505af11580156112d3573d6000803e3d6000fd5b505050505050565b6000808573ffffffffffffffffffffffffffffffffffffffff166323b872dd86868660405160240161130f939291906119df565b6040516020818303038152906040529060e01b6020820180517bffffffffffffffffffffffffffffffffffffffffffffffffffffffff838183161783525050505060405161135d91906119ad565b6000604051808303816000865af19150503d806000811461139a576040519150601f19603f3d011682016040523d82523d6000602084013e61139f565b606091505b50915091508180156113cd57506000815114806113cc5750808060200190518101906113cb91906115ed565b5b5b61140c576040517f08c379a000000000000000000000000000000000000000000000000000000000815260040161140390611bba565b60405180910390fd5b505050505050565b600061142761142284611c6c565b611c47565b90508281526020810184848401111561143f57600080fd5b61144a848285611f87565b509392505050565b60008135905061146181612366565b92915050565b60008151905061147681612366565b92915050565b60008151905061148b8161237d565b92915050565b60008083601f8401126114a357600080fd5b8235905067ffffffffffffffff8111156114bc57600080fd5b6020830191508360018202830111156114d457600080fd5b9250929050565b600082601f8301126114ec57600080fd5b81516114fc848260208601611414565b91505092915050565b60008135905061151481612394565b92915050565b60008151905061152981612394565b92915050565b60008135905061153e816123ab565b92915050565b60006020828403121561155657600080fd5b600061156484828501611452565b91505092915050565b60008060008060006080868803121561158557600080fd5b600061159388828901611452565b95505060206115a488828901611452565b94505060406115b588828901611505565b935050606086013567ffffffffffffffff8111156115d257600080fd5b6115de88828901611491565b92509250509295509295909350565b6000602082840312156115ff57600080fd5b600061160d8482850161147c565b91505092915050565b60006020828403121561162857600080fd5b600061163684828501611505565b91505092915050565b60006020828403121561165157600080fd5b600061165f8482850161151a565b91505092915050565b6000806000806000806000806000806101408b8d03121561168857600080fd5b60006116968d828e0161151a565b9a505060208b015167ffffffffffffffff8111156116b357600080fd5b6116bf8d828e016114db565b99505060408b015167ffffffffffffffff8111156116dc57600080fd5b6116e88d828e016114db565b98505060606116f98d828e01611467565b975050608061170a8d828e01611467565b96505060a061171b8d828e01611467565b95505060c061172c8d828e0161151a565b94505060e061173d8d828e0161151a565b93505061010061174f8d828e0161147c565b9250506101206117618d828e0161147c565b9150509295989b9194979a5092959850565b60006020828403121561178557600080fd5b60006117938482850161152f565b91505092915050565b6117a581611ef4565b82525050565b6117b481611f18565b82525050565b6117c381611f24565b82525050565b60006117d482611c9d565b6117de8185611ca8565b93506117ee818560208601611f87565b80840191505092915050565b6000611807602e83611cb3565b915061181282612096565b604082019050919050565b600061182a600e83611cb3565b9150611835826120e5565b602082019050919050565b600061184d601e83611cb3565b91506118588261210e565b602082019050919050565b6000611870601783611cb3565b915061187b82612137565b602082019050919050565b6000611893601783611cb3565b915061189e82612160565b602082019050919050565b60006118b6600e83611cb3565b91506118c182612189565b602082019050919050565b60006118d9601883611cb3565b91506118e4826121b2565b602082019050919050565b60006118fc601983611cb3565b9150611907826121db565b602082019050919050565b600061191f604b83611cb3565b915061192a82612204565b606082019050919050565b6000611942600983611cb3565b915061194d82612279565b602082019050919050565b6000611965604c83611cb3565b9150611970826122a2565b606082019050919050565b6000611988602483611cb3565b915061199382612317565b604082019050919050565b6119a781611f70565b82525050565b60006119b982846117c9565b915081905092915050565b60006020820190506119d9600083018461179c565b92915050565b60006060820190506119f4600083018661179c565b611a01602083018561179c565b611a0e604083018461199e565b949350505050565b6000604082019050611a2b600083018561179c565b611a38602083018461199e565b9392505050565b6000602082019050611a5460008301846117ba565b92915050565b60006020820190508181036000830152611a73816117fa565b9050919050565b60006020820190508181036000830152611a938161181d565b9050919050565b60006020820190508181036000830152611ab381611840565b9050919050565b60006020820190508181036000830152611ad381611863565b9050919050565b60006020820190508181036000830152611af381611886565b9050919050565b60006020820190508181036000830152611b13816118a9565b9050919050565b60006020820190508181036000830152611b33816118cc565b9050919050565b60006020820190508181036000830152611b53816118ef565b9050919050565b60006020820190508181036000830152611b7381611912565b9050919050565b60006020820190508181036000830152611b9381611935565b9050919050565b60006020820190508181036000830152611bb381611958565b9050919050565b60006020820190508181036000830152611bd38161197b565b9050919050565b6000602082019050611bef600083018461199e565b92915050565b6000604082019050611c0a600083018561199e565b611c1760208301846117ab565b9392505050565b6000604082019050611c33600083018561199e565b611c40602083018461199e565b9392505050565b6000611c51611c62565b9050611c5d8282611fba565b919050565b6000604051905090565b600067ffffffffffffffff821115611c8757611c86612049565b5b611c9082612078565b9050602081019050919050565b600081519050919050565b600081905092915050565b600082825260208201905092915050565b6000611ccf82611f70565b9150611cda83611f70565b925082611cea57611ce961201a565b5b828204905092915050565b6000808291508390505b6001851115611d3f57808604811115611d1b57611d1a611feb565b5b6001851615611d2a5780820291505b8081029050611d3885612089565b9450611cff565b94509492505050565b6000611d5382611f70565b9150611d5e83611f7a565b9250611d8b7fffffffffffffffffffffffffffffffffffffffffffffffffffffffffffffffff8484611d93565b905092915050565b600082611da35760019050611e5f565b81611db15760009050611e5f565b8160018114611dc75760028114611dd157611e00565b6001915050611e5f565b60ff841115611de357611de2611feb565b5b8360020a915084821115611dfa57611df9611feb565b5b50611e5f565b5060208310610133831016604e8410600b8410161715611e355782820a905083811115611e3057611e2f611feb565b5b611e5f565b611e428484846001611cf5565b92509050818404811115611e5957611e58611feb565b5b81810290505b9392505050565b6000611e7182611f70565b9150611e7c83611f70565b9250817fffffffffffffffffffffffffffffffffffffffffffffffffffffffffffffffff0483118215151615611eb557611eb4611feb565b5b828202905092915050565b6000611ecb82611f70565b9150611ed683611f70565b925082821015611ee957611ee8611feb565b5b828203905092915050565b6000611eff82611f50565b9050919050565b6000611f1182611f50565b9050919050565b60008115159050919050565b60007fffffffff0000000000000000000000000000000000000000000000000000000082169050919050565b600073ffffffffffffffffffffffffffffffffffffffff82169050919050565b6000819050919050565b600060ff82169050919050565b60005b83811015611fa5578082015181840152602081019050611f8a565b83811115611fb4576000848401525b50505050565b611fc382612078565b810181811067ffffffffffffffff82111715611fe257611fe1612049565b5b80604052505050565b7f4e487b7100000000000000000000000000000000000000000000000000000000600052601160045260246000fd5b7f4e487b7100000000000000000000000000000000000000000000000000000000600052601260045260246000fd5b7f4e487b7100000000000000000000000000000000000000000000000000000000600052604160045260246000fd5b6000601f19601f8301169050919050565b60008160011c9050919050565b7f4572726f723a2043616c6c657220636f756c646e27742062652073616d65207460008201527f6f20746869732061646472657373000000000000000000000000000000000000602082015250565b7f496e76616c69642063616c6c6572000000000000000000000000000000000000600082015250565b7f466f722063616c6c65722065787065637465642062652063726561746f720000600082015250565b7f496e76616c69642063726561746f722061646472657373000000000000000000600082015250565b7f496e76616c696420504e46542f4f4341542071756f7465000000000000000000600082015250565b7f496e76616c6964204e4654204944000000000000000000000000000000000000600082015250565b7f546f6f20736d616c6c20707269636520666f7220504e46540000000000000000600082015250565b7f4578706563746564206e6f6e2d7a65726f206164647265737300000000000000600082015250565b7f5061776e45786368616e67652e65786368616e6765546f4f63617428293a204960008201527f6e73756666696369656e742062616c616e6365206f66204f43415420696e207460208201527f686520636f6e7472616374000000000000000000000000000000000000000000604082015250565b7f4e6f74206f776e65720000000000000000000000000000000000000000000000600082015250565b7f5061776e45786368616e67652e65786368616e676546726f6d4f63617428293a60008201527f20496e73756666696369656e742062616c616e6365206f66204f43415420696e60208201527f20746865206163636f756e740000000000000000000000000000000000000000604082015250565b7f5472616e7366657248656c7065723a205452414e534645525f46524f4d5f464160008201527f494c454400000000000000000000000000000000000000000000000000000000602082015250565b61236f81611f06565b811461237a57600080fd5b50565b61238681611f18565b811461239157600080fd5b50565b61239d81611f70565b81146123a857600080fd5b50565b6123b481611f7a565b81146123bf57600080fd5b5056fea2646970667358221220b6ed06e36558002d21bbaf026500ab5b58bc0d4366bb7ac2be1ba1202bffee1164736f6c63430008040033",
  "immutableReferences": {},
  "source": "// SPDX-License-Identifier: MIT\npragma solidity ^0.8.0;\n\nimport \"@openzeppelin/contracts/token/ERC20/IERC20.sol\"; // openzeppelin 4.5 (for solidity 0.8.x)\nimport \"@openzeppelin/contracts/token/ERC721/IERC721.sol\";\nimport '@uniswap/lib/contracts/libraries/TransferHelper.sol';\nimport \"./PawnNFTs.sol\";\nimport \"./OcatToken.sol\";\n\ncontract PawnExchange {\n    \n    address payable private pnftAddress;\n    address payable private ocatAddress;\n    address payable private creator;\n    uint256         private pnftOcatQuote;\n\n    uint8           private MINT_FEE = 0;\n    uint8           private ROLLBACK_FEE = 1;\n\n    mapping(uint8 => uint8) private fees;\n    uint8           private feeDecimal = 4;\n    uint64          private minPrice = 5000;\n\n    event SwappedToOcat (uint256 realPrice, uint256 fee);\n\n    constructor() {\n        creator = payable(msg.sender);\n        fees[MINT_FEE] = 50;     // 0.5% \n        fees[ROLLBACK_FEE] = 50; // 0.5%\n        pnftOcatQuote = 10;\n    }\n\n    function onERC721Received(\n        address payable /*operator*/,\n        address payable /*from*/,\n        uint256 /*tokenId*/,\n        bytes calldata /*data*/\n    ) external pure returns (bytes4) {\n        return this.onERC721Received.selector;\n    }\n\n    modifier validCaller {\n        require(msg.sender != address(this), \"Error: Caller couldn't be same to this address\");\n        require(msg.sender != address(0), \"Invalid caller\");\n        _;\n    }\n\n    modifier validNftID(uint256 nftId) {\n        require(nftId > 0, \"Invalid NFT ID\");\n        _;\n    }\n\n    modifier nonZeroAddress(address _address) {\n        require(_address != address(0), \"Expected non-zero address\");\n        _;\n    }\n\n    modifier callerMustBeCreator {\n        require(creator != address(0), \"Invalid creator address\");\n        require(msg.sender == creator, \"For caller expected be creator\");\n        _;\n    }\n\n    function setPnftAddress(address payable _pnftAddress) public \n    validCaller callerMustBeCreator nonZeroAddress(_pnftAddress) {\n        pnftAddress = _pnftAddress;\n    }\n\n    function setOcatAddress(address payable _ocatAddress) public \n    validCaller nonZeroAddress(_ocatAddress) callerMustBeCreator {\n        ocatAddress = _ocatAddress;\n        OcatToken(ocatAddress).addOperator(address(this));\n    }\n\n    function setMinPrice(uint8 _minPrice) public \n    callerMustBeCreator {\n        minPrice = _minPrice;\n    }\n\n    function exchangeToOcat(uint256 nftID) public \n    validNftID(nftID) validCaller {\n        uint256 ocatBalance = IERC20(ocatAddress).balanceOf(address(this));\n        // Get price for the NFT\n        (,,,,address currentOwner,,uint256 price,,,bool mintedNativeToken) = PawnNFTs(payable(address(pnftAddress))).allPawnNFTs(nftID);\n        require(currentOwner == msg.sender, \"Not owner\");\n        require(price >= minPrice, \"Too small price for PNFT\");\n        require(pnftOcatQuote > 0, \"Invalid PNFT/OCAT quote\");\n\n        uint256 quotedPrice = pnftOcatQuote * price;\n        uint256 mintFee = quotedPrice * fees[MINT_FEE] / (10 ** feeDecimal);\n        uint256 realPrice = quotedPrice - mintFee;\n\n        if (!mintedNativeToken) {\n            // Mint some OCATs for this PNFT\n            OcatToken(ocatAddress).mint(quotedPrice);\n            PawnNFTs(pnftAddress).setMintedNativeToken(nftID, true);\n        } else {\n\t    require(ocatBalance >= price, \"PawnExchange.exchangeToOcat(): Insufficient balance of OCAT in the contract\");\n        }\n        // safeTransferFrom: send NFT from caller to the address\n        IERC721(pnftAddress).safeTransferFrom(msg.sender, address(this), nftID);\n        // Pay fee in OCAT to this address\n        IERC20(ocatAddress).transfer(address(this), mintFee);\n        // Pay OCAT for the NFT\n        IERC20(ocatAddress).transfer(msg.sender, realPrice);\n        emit SwappedToOcat(realPrice, mintFee);\n        //   Then transfer OCATs from the address to caller\n        // TransferHelper.safeTransferFrom(ocatAddress, address(this), msg.sender, quotedPrice);\n    }\n\n    function exchangeFromOcat(uint256 nftID) public {\n        uint256 ocatBalance = IERC20(ocatAddress).balanceOf(msg.sender);\n        // Get price for the NFT\n        (,,,,,,uint256 price,,,) = PawnNFTs(payable(address(pnftAddress))).allPawnNFTs(nftID);\n        // uint256 price = nftItem.price;\n        uint256 quotedPrice = price * pnftOcatQuote;\n        require(ocatBalance >= quotedPrice, \"PawnExchange.exchangeFromOcat(): Insufficient balance of OCAT in the account\");\n        // safeTransferFrom: send NFT from caller to the address\n        TransferHelper.safeTransferFrom(ocatAddress, msg.sender, address(this), quotedPrice);\n        // Pay OCAT for the NFT\n        IERC721(pnftAddress).safeTransferFrom(address(this), msg.sender, nftID);\n        //   Then transfer OCATs from the address to caller\n        // TransferHelper.safeTransferFrom(ocatAddress, address(this), msg.sender, quotedPrice);\n    } \n}\n",
  "sourcePath": "/home/cowboy/OpenchainTestVersion/server/contracts/PawnExchange.sol",
  "compiler": {
    "name": "solc",
    "version": "0.8.4+commit.c7e474f2.Emscripten.clang"
  },
  "schemaVersion": "3.4.6",
  "updatedAt": "2022-04-09T06:58:09.417Z",
  "networkType": "ethereum",
  "devdoc": {
    "kind": "dev",
    "methods": {},
    "version": 1
  },
  "userdoc": {
    "kind": "user",
    "methods": {},
    "version": 1
  }
}