{
  "contractName": "PawnExchange",
  "abi": [
    {
      "inputs": [],
      "stateMutability": "nonpayable",
      "type": "constructor"
    },
    {
      "inputs": [
        {
          "internalType": "address payable",
          "name": "",
          "type": "address"
        },
        {
          "internalType": "address payable",
          "name": "",
          "type": "address"
        },
        {
          "internalType": "uint256",
          "name": "",
          "type": "uint256"
        },
        {
          "internalType": "bytes",
          "name": "",
          "type": "bytes"
        }
      ],
      "name": "onERC721Received",
      "outputs": [
        {
          "internalType": "bytes4",
          "name": "",
          "type": "bytes4"
        }
      ],
      "stateMutability": "pure",
      "type": "function"
    },
    {
      "inputs": [
        {
          "internalType": "address payable",
          "name": "_pnftAddress",
          "type": "address"
        }
      ],
      "name": "setPnftAddress",
      "outputs": [],
      "stateMutability": "nonpayable",
      "type": "function"
    },
    {
      "inputs": [
        {
          "internalType": "address payable",
          "name": "_ocatAddress",
          "type": "address"
        }
      ],
      "name": "setOcatAddress",
      "outputs": [],
      "stateMutability": "nonpayable",
      "type": "function"
    },
    {
      "inputs": [
        {
          "internalType": "uint256",
          "name": "nftID",
          "type": "uint256"
        }
      ],
      "name": "exchangeToOcat",
      "outputs": [],
      "stateMutability": "nonpayable",
      "type": "function"
    },
    {
      "inputs": [
        {
          "internalType": "uint256",
          "name": "nftID",
          "type": "uint256"
        }
      ],
      "name": "exchangeFromOcat",
      "outputs": [],
      "stateMutability": "nonpayable",
      "type": "function"
    }
  ],
  "bytecode": "0x608060405234801561001057600080fd5b5033600260006101000a81548173ffffffffffffffffffffffffffffffffffffffff021916908373ffffffffffffffffffffffffffffffffffffffff160217905550600a600381905550611e5a806100696000396000f3fe608060405234801561001057600080fd5b50600436106100575760003560e01c806313ad82da1461005c578063150b7a021461007857806315f03d22146100a8578063378321eb146100c4578063b18d30a2146100e0575b600080fd5b61007660048036038101906100719190611300565b6100fc565b005b610092600480360381019061008d9190611257565b610748565b60405161009f9190611700565b60405180910390f35b6100c260048036038101906100bd919061122e565b61075d565b005b6100de60048036038101906100d99190611300565b610a13565b005b6100fa60048036038101906100f5919061122e565b610c96565b005b8060008111610140576040517f08c379a0000000000000000000000000000000000000000000000000000000008152600401610137906117bb565b60405180910390fd5b3073ffffffffffffffffffffffffffffffffffffffff163373ffffffffffffffffffffffffffffffffffffffff1614156101af576040517f08c379a00000000000000000000000000000000000000000000000000000000081526004016101a69061171b565b60405180910390fd5b600073ffffffffffffffffffffffffffffffffffffffff163373ffffffffffffffffffffffffffffffffffffffff16141561021f576040517f08c379a00000000000000000000000000000000000000000000000000000000081526004016102169061173b565b60405180910390fd5b6000600160009054906101000a900473ffffffffffffffffffffffffffffffffffffffff1673ffffffffffffffffffffffffffffffffffffffff166370a08231306040518263ffffffff1660e01b815260040161027c9190611685565b60206040518083038186803b15801561029457600080fd5b505afa1580156102a8573d6000803e3d6000fd5b505050506040513d601f19601f820116820180604052508101906102cc9190611329565b905060008060008060009054906101000a900473ffffffffffffffffffffffffffffffffffffffff1673ffffffffffffffffffffffffffffffffffffffff1663717947b1876040518263ffffffff1660e01b815260040161032d919061189b565b60006040518083038186803b15801561034557600080fd5b505afa158015610359573d6000803e3d6000fd5b505050506040513d6000823e3d601f19601f820116820180604052508101906103829190611352565b995050509750509650505050503373ffffffffffffffffffffffffffffffffffffffff168373ffffffffffffffffffffffffffffffffffffffff16146103fd576040517f08c379a00000000000000000000000000000000000000000000000000000000081526004016103f49061183b565b60405180910390fd5b60008211610440576040517f08c379a0000000000000000000000000000000000000000000000000000000008152600401610437906117db565b60405180910390fd5b600060035411610485576040517f08c379a000000000000000000000000000000000000000000000000000000000815260040161047c9061179b565b60405180910390fd5b600082600354610495919061195c565b9050816105bc57600160009054906101000a900473ffffffffffffffffffffffffffffffffffffffff1673ffffffffffffffffffffffffffffffffffffffff1663a0712d68826040518263ffffffff1660e01b81526004016104f7919061189b565b600060405180830381600087803b15801561051157600080fd5b505af1158015610525573d6000803e3d6000fd5b5050505060008054906101000a900473ffffffffffffffffffffffffffffffffffffffff1673ffffffffffffffffffffffffffffffffffffffff1663d81bcb2d8860016040518363ffffffff1660e01b81526004016105859291906118b6565b600060405180830381600087803b15801561059f57600080fd5b505af11580156105b3573d6000803e3d6000fd5b50505050610600565b828510156105ff576040517f08c379a00000000000000000000000000000000000000000000000000000000081526004016105f69061181b565b60405180910390fd5b5b60008054906101000a900473ffffffffffffffffffffffffffffffffffffffff1673ffffffffffffffffffffffffffffffffffffffff166342842e0e33308a6040518463ffffffff1660e01b815260040161065d939291906116a0565b600060405180830381600087803b15801561067757600080fd5b505af115801561068b573d6000803e3d6000fd5b50505050600160009054906101000a900473ffffffffffffffffffffffffffffffffffffffff1673ffffffffffffffffffffffffffffffffffffffff1663a9059cbb33836040518363ffffffff1660e01b81526004016106ec9291906116d7565b602060405180830381600087803b15801561070657600080fd5b505af115801561071a573d6000803e3d6000fd5b505050506040513d601f19601f8201168201806040525081019061073e91906112d7565b5050505050505050565b600063150b7a0260e01b905095945050505050565b3073ffffffffffffffffffffffffffffffffffffffff163373ffffffffffffffffffffffffffffffffffffffff1614156107cc576040517f08c379a00000000000000000000000000000000000000000000000000000000081526004016107c39061171b565b60405180910390fd5b600073ffffffffffffffffffffffffffffffffffffffff163373ffffffffffffffffffffffffffffffffffffffff16141561083c576040517f08c379a00000000000000000000000000000000000000000000000000000000081526004016108339061173b565b60405180910390fd5b600073ffffffffffffffffffffffffffffffffffffffff16600260009054906101000a900473ffffffffffffffffffffffffffffffffffffffff1673ffffffffffffffffffffffffffffffffffffffff1614156108ce576040517f08c379a00000000000000000000000000000000000000000000000000000000081526004016108c59061177b565b60405180910390fd5b600260009054906101000a900473ffffffffffffffffffffffffffffffffffffffff1673ffffffffffffffffffffffffffffffffffffffff163373ffffffffffffffffffffffffffffffffffffffff161461095e576040517f08c379a00000000000000000000000000000000000000000000000000000000081526004016109559061175b565b60405180910390fd5b80600073ffffffffffffffffffffffffffffffffffffffff168173ffffffffffffffffffffffffffffffffffffffff1614156109cf576040517f08c379a00000000000000000000000000000000000000000000000000000000081526004016109c6906117fb565b60405180910390fd5b816000806101000a81548173ffffffffffffffffffffffffffffffffffffffff021916908373ffffffffffffffffffffffffffffffffffffffff1602179055505050565b6000600160009054906101000a900473ffffffffffffffffffffffffffffffffffffffff1673ffffffffffffffffffffffffffffffffffffffff166370a08231336040518263ffffffff1660e01b8152600401610a709190611685565b60206040518083038186803b158015610a8857600080fd5b505afa158015610a9c573d6000803e3d6000fd5b505050506040513d601f19601f82011682018060405250810190610ac09190611329565b905060008060009054906101000a900473ffffffffffffffffffffffffffffffffffffffff1673ffffffffffffffffffffffffffffffffffffffff1663717947b1846040518263ffffffff1660e01b8152600401610b1e919061189b565b60006040518083038186803b158015610b3657600080fd5b505afa158015610b4a573d6000803e3d6000fd5b505050506040513d6000823e3d601f19601f82011682018060405250810190610b739190611352565b5050509650505050505050600060035482610b8e919061195c565b905080831015610bd3576040517f08c379a0000000000000000000000000000000000000000000000000000000008152600401610bca9061185b565b60405180910390fd5b610c01600160009054906101000a900473ffffffffffffffffffffffffffffffffffffffff16333084610fda565b60008054906101000a900473ffffffffffffffffffffffffffffffffffffffff1673ffffffffffffffffffffffffffffffffffffffff166342842e0e3033876040518463ffffffff1660e01b8152600401610c5e939291906116a0565b600060405180830381600087803b158015610c7857600080fd5b505af1158015610c8c573d6000803e3d6000fd5b5050505050505050565b3073ffffffffffffffffffffffffffffffffffffffff163373ffffffffffffffffffffffffffffffffffffffff161415610d05576040517f08c379a0000000000000000000000000000000000000000000000000000000008152600401610cfc9061171b565b60405180910390fd5b600073ffffffffffffffffffffffffffffffffffffffff163373ffffffffffffffffffffffffffffffffffffffff161415610d75576040517f08c379a0000000000000000000000000000000000000000000000000000000008152600401610d6c9061173b565b60405180910390fd5b80600073ffffffffffffffffffffffffffffffffffffffff168173ffffffffffffffffffffffffffffffffffffffff161415610de6576040517f08c379a0000000000000000000000000000000000000000000000000000000008152600401610ddd906117fb565b60405180910390fd5b600073ffffffffffffffffffffffffffffffffffffffff16600260009054906101000a900473ffffffffffffffffffffffffffffffffffffffff1673ffffffffffffffffffffffffffffffffffffffff161415610e78576040517f08c379a0000000000000000000000000000000000000000000000000000000008152600401610e6f9061177b565b60405180910390fd5b600260009054906101000a900473ffffffffffffffffffffffffffffffffffffffff1673ffffffffffffffffffffffffffffffffffffffff163373ffffffffffffffffffffffffffffffffffffffff1614610f08576040517f08c379a0000000000000000000000000000000000000000000000000000000008152600401610eff9061175b565b60405180910390fd5b81600160006101000a81548173ffffffffffffffffffffffffffffffffffffffff021916908373ffffffffffffffffffffffffffffffffffffffff160217905550600160009054906101000a900473ffffffffffffffffffffffffffffffffffffffff1673ffffffffffffffffffffffffffffffffffffffff16639870d7fe306040518263ffffffff1660e01b8152600401610fa49190611685565b600060405180830381600087803b158015610fbe57600080fd5b505af1158015610fd2573d6000803e3d6000fd5b505050505050565b6000808573ffffffffffffffffffffffffffffffffffffffff166323b872dd86868660405160240161100e939291906116a0565b6040516020818303038152906040529060e01b6020820180517bffffffffffffffffffffffffffffffffffffffffffffffffffffffff838183161783525050505060405161105c919061166e565b6000604051808303816000865af19150503d8060008114611099576040519150601f19603f3d011682016040523d82523d6000602084013e61109e565b606091505b50915091508180156110cc57506000815114806110cb5750808060200190518101906110ca91906112d7565b5b5b61110b576040517f08c379a00000000000000000000000000000000000000000000000000000000081526004016111029061187b565b60405180910390fd5b505050505050565b600061112661112184611904565b6118df565b90508281526020810184848401111561113e57600080fd5b611149848285611a3c565b509392505050565b60008135905061116081611ddf565b92915050565b60008151905061117581611ddf565b92915050565b60008151905061118a81611df6565b92915050565b60008083601f8401126111a257600080fd5b8235905067ffffffffffffffff8111156111bb57600080fd5b6020830191508360018202830111156111d357600080fd5b9250929050565b600082601f8301126111eb57600080fd5b81516111fb848260208601611113565b91505092915050565b60008135905061121381611e0d565b92915050565b60008151905061122881611e0d565b92915050565b60006020828403121561124057600080fd5b600061124e84828501611151565b91505092915050565b60008060008060006080868803121561126f57600080fd5b600061127d88828901611151565b955050602061128e88828901611151565b945050604061129f88828901611204565b935050606086013567ffffffffffffffff8111156112bc57600080fd5b6112c888828901611190565b92509250509295509295909350565b6000602082840312156112e957600080fd5b60006112f78482850161117b565b91505092915050565b60006020828403121561131257600080fd5b600061132084828501611204565b91505092915050565b60006020828403121561133b57600080fd5b600061134984828501611219565b91505092915050565b6000806000806000806000806000806101408b8d03121561137257600080fd5b60006113808d828e01611219565b9a505060208b015167ffffffffffffffff81111561139d57600080fd5b6113a98d828e016111da565b99505060408b015167ffffffffffffffff8111156113c657600080fd5b6113d28d828e016111da565b98505060606113e38d828e01611166565b97505060806113f48d828e01611166565b96505060a06114058d828e01611166565b95505060c06114168d828e01611219565b94505060e06114278d828e01611219565b9350506101006114398d828e0161117b565b92505061012061144b8d828e0161117b565b9150509295989b9194979a5092959850565b611466816119b6565b82525050565b611475816119da565b82525050565b611484816119e6565b82525050565b600061149582611935565b61149f8185611940565b93506114af818560208601611a3c565b80840191505092915050565b60006114c8602e8361194b565b91506114d382611b0f565b604082019050919050565b60006114eb600e8361194b565b91506114f682611b5e565b602082019050919050565b600061150e601e8361194b565b915061151982611b87565b602082019050919050565b600061153160178361194b565b915061153c82611bb0565b602082019050919050565b600061155460178361194b565b915061155f82611bd9565b602082019050919050565b6000611577600e8361194b565b915061158282611c02565b602082019050919050565b600061159a60168361194b565b91506115a582611c2b565b602082019050919050565b60006115bd60198361194b565b91506115c882611c54565b602082019050919050565b60006115e0604b8361194b565b91506115eb82611c7d565b606082019050919050565b600061160360098361194b565b915061160e82611cf2565b602082019050919050565b6000611626604c8361194b565b915061163182611d1b565b606082019050919050565b600061164960248361194b565b915061165482611d90565b604082019050919050565b61166881611a32565b82525050565b600061167a828461148a565b915081905092915050565b600060208201905061169a600083018461145d565b92915050565b60006060820190506116b5600083018661145d565b6116c2602083018561145d565b6116cf604083018461165f565b949350505050565b60006040820190506116ec600083018561145d565b6116f9602083018461165f565b9392505050565b6000602082019050611715600083018461147b565b92915050565b60006020820190508181036000830152611734816114bb565b9050919050565b60006020820190508181036000830152611754816114de565b9050919050565b6000602082019050818103600083015261177481611501565b9050919050565b6000602082019050818103600083015261179481611524565b9050919050565b600060208201905081810360008301526117b481611547565b9050919050565b600060208201905081810360008301526117d48161156a565b9050919050565b600060208201905081810360008301526117f48161158d565b9050919050565b60006020820190508181036000830152611814816115b0565b9050919050565b60006020820190508181036000830152611834816115d3565b9050919050565b60006020820190508181036000830152611854816115f6565b9050919050565b6000602082019050818103600083015261187481611619565b9050919050565b600060208201905081810360008301526118948161163c565b9050919050565b60006020820190506118b0600083018461165f565b92915050565b60006040820190506118cb600083018561165f565b6118d8602083018461146c565b9392505050565b60006118e96118fa565b90506118f58282611a6f565b919050565b6000604051905090565b600067ffffffffffffffff82111561191f5761191e611acf565b5b61192882611afe565b9050602081019050919050565b600081519050919050565b600081905092915050565b600082825260208201905092915050565b600061196782611a32565b915061197283611a32565b9250817fffffffffffffffffffffffffffffffffffffffffffffffffffffffffffffffff04831182151516156119ab576119aa611aa0565b5b828202905092915050565b60006119c182611a12565b9050919050565b60006119d382611a12565b9050919050565b60008115159050919050565b60007fffffffff0000000000000000000000000000000000000000000000000000000082169050919050565b600073ffffffffffffffffffffffffffffffffffffffff82169050919050565b6000819050919050565b60005b83811015611a5a578082015181840152602081019050611a3f565b83811115611a69576000848401525b50505050565b611a7882611afe565b810181811067ffffffffffffffff82111715611a9757611a96611acf565b5b80604052505050565b7f4e487b7100000000000000000000000000000000000000000000000000000000600052601160045260246000fd5b7f4e487b7100000000000000000000000000000000000000000000000000000000600052604160045260246000fd5b6000601f19601f8301169050919050565b7f4572726f723a2043616c6c657220636f756c646e27742062652073616d65207460008201527f6f20746869732061646472657373000000000000000000000000000000000000602082015250565b7f496e76616c69642063616c6c6572000000000000000000000000000000000000600082015250565b7f466f722063616c6c65722065787065637465642062652063726561746f720000600082015250565b7f496e76616c69642063726561746f722061646472657373000000000000000000600082015250565b7f496e76616c696420504e46542f4f4341542071756f7465000000000000000000600082015250565b7f496e76616c6964204e4654204944000000000000000000000000000000000000600082015250565b7f496e76616c696420707269636520666f7220504e465400000000000000000000600082015250565b7f4578706563746564206e6f6e2d7a65726f206164647265737300000000000000600082015250565b7f5061776e45786368616e67652e65786368616e6765546f4f63617428293a204960008201527f6e73756666696369656e742062616c616e6365206f66204f43415420696e207460208201527f686520636f6e7472616374000000000000000000000000000000000000000000604082015250565b7f4e6f74206f776e65720000000000000000000000000000000000000000000000600082015250565b7f5061776e45786368616e67652e65786368616e676546726f6d4f63617428293a60008201527f20496e73756666696369656e742062616c616e6365206f66204f43415420696e60208201527f20746865206163636f756e740000000000000000000000000000000000000000604082015250565b7f5472616e7366657248656c7065723a205452414e534645525f46524f4d5f464160008201527f494c454400000000000000000000000000000000000000000000000000000000602082015250565b611de8816119c8565b8114611df357600080fd5b50565b611dff816119da565b8114611e0a57600080fd5b50565b611e1681611a32565b8114611e2157600080fd5b5056fea2646970667358221220e227aa8a436a19b427b4414aff46d100b2ba46916d7345070780a8d34a9ad60a64736f6c63430008040033",
  "immutableReferences": {},
  "source": "// SPDX-License-Identifier: MIT\npragma solidity ^0.8.0;\n\nimport \"@openzeppelin/contracts/token/ERC20/IERC20.sol\"; // openzeppelin 4.5 (for solidity 0.8.x)\nimport \"@openzeppelin/contracts/token/ERC721/IERC721.sol\";\nimport '@uniswap/lib/contracts/libraries/TransferHelper.sol';\nimport \"./PawnNFTs.sol\";\nimport \"./OcatToken.sol\";\n\ncontract PawnExchange {\n    \n    address payable private pnftAddress;\n    address payable private ocatAddress;\n    address payable private creator;\n    uint256 private         pnftOcatQuote;\n\n    constructor() {\n        creator = payable(msg.sender);\n        pnftOcatQuote = 10;\n    }\n\n    function onERC721Received(\n        address payable /*operator*/,\n        address payable /*from*/,\n        uint256 /*tokenId*/,\n        bytes calldata /*data*/\n    ) external pure returns (bytes4) {\n        return this.onERC721Received.selector;\n    }\n\n    modifier validCaller {\n        require(msg.sender != address(this), \"Error: Caller couldn't be same to this address\");\n        require(msg.sender != address(0), \"Invalid caller\");\n        _;\n    }\n\n    modifier validNftID(uint256 nftId) {\n        require(nftId > 0, \"Invalid NFT ID\");\n        _;\n    }\n\n    modifier nonZeroAddress(address _address) {\n        require(_address != address(0), \"Expected non-zero address\");\n        _;\n    }\n\n    modifier callerMustBeCreator {\n        require(creator != address(0), \"Invalid creator address\");\n        require(msg.sender == creator, \"For caller expected be creator\");\n        _;\n    }\n\n    function setPnftAddress(address payable _pnftAddress) public \n    validCaller callerMustBeCreator nonZeroAddress(_pnftAddress) {\n        pnftAddress = _pnftAddress;\n    }\n\n    function setOcatAddress(address payable _ocatAddress) public \n    validCaller nonZeroAddress(_ocatAddress) callerMustBeCreator {\n        ocatAddress = _ocatAddress;\n        OcatToken(ocatAddress).addOperator(address(this));\n    }\n\n    function exchangeToOcat(uint256 nftID) public validNftID(nftID) validCaller {\n        uint256 ocatBalance = IERC20(ocatAddress).balanceOf(address(this));\n        // Get price for the NFT\n        (,,,,address currentOwner,,uint256 price,,,bool mintedNativeToken) = PawnNFTs(payable(address(pnftAddress))).allPawnNFTs(nftID);\n        require(currentOwner == msg.sender, \"Not owner\");\n        require(price > 0, \"Invalid price for PNFT\");\n        require(pnftOcatQuote > 0, \"Invalid PNFT/OCAT quote\");\n        uint256 quotedPrice = pnftOcatQuote * price;\n\n        if (!mintedNativeToken) {\n            // Mint some OCATs for this PNFT\n            OcatToken(ocatAddress).mint(quotedPrice);\n            PawnNFTs(pnftAddress).setMintedNativeToken(nftID, true);\n        } else {\n\t    require(ocatBalance >= price, \"PawnExchange.exchangeToOcat(): Insufficient balance of OCAT in the contract\");\n        }\n        // safeTransferFrom: send NFT from caller to the address\n        IERC721(pnftAddress).safeTransferFrom(msg.sender, address(this), nftID);\n        // Pay OCAT for the NFT\n        IERC20(ocatAddress).transfer(msg.sender, quotedPrice);\n        //   Then transfer OCATs from the address to caller\n        // TransferHelper.safeTransferFrom(ocatAddress, address(this), msg.sender, quotedPrice);\n    }\n\n    function exchangeFromOcat(uint256 nftID) public {\n        uint256 ocatBalance = IERC20(ocatAddress).balanceOf(msg.sender);\n        // Get price for the NFT\n        (,,,,,,uint256 price,,,) = PawnNFTs(payable(address(pnftAddress))).allPawnNFTs(nftID);\n        // uint256 price = nftItem.price;\n        uint256 quotedPrice = price * pnftOcatQuote;\n        require(ocatBalance >= quotedPrice, \"PawnExchange.exchangeFromOcat(): Insufficient balance of OCAT in the account\");\n        // safeTransferFrom: send NFT from caller to the address\n        TransferHelper.safeTransferFrom(ocatAddress, msg.sender, address(this), quotedPrice);\n        // Pay OCAT for the NFT\n        IERC721(pnftAddress).safeTransferFrom(address(this), msg.sender, nftID);\n        //   Then transfer OCATs from the address to caller\n        // TransferHelper.safeTransferFrom(ocatAddress, address(this), msg.sender, quotedPrice);\n    } \n}\n",
  "sourcePath": "/home/openchainx/OpenchainTestVersion/server/contracts/PawnExchange.sol",
  "compiler": {
    "name": "solc",
    "version": "0.8.4+commit.c7e474f2.Emscripten.clang"
  },
  "schemaVersion": "3.4.6",
  "updatedAt": "2022-04-08T17:23:46.989Z",
  "devdoc": {
    "kind": "dev",
    "methods": {},
    "version": 1
  },
  "userdoc": {
    "kind": "user",
    "methods": {},
    "version": 1
  }
}