{
  "contractName": "PawnExchange",
  "abi": [
    {
      "inputs": [],
      "stateMutability": "nonpayable",
      "type": "constructor"
    },
    {
      "anonymous": false,
      "inputs": [
        {
          "indexed": false,
          "internalType": "uint256",
          "name": "realPrice",
          "type": "uint256"
        },
        {
          "indexed": false,
          "internalType": "uint256",
          "name": "fee",
          "type": "uint256"
        }
      ],
      "name": "SwappedToOcat",
      "type": "event"
    },
    {
      "inputs": [
        {
          "internalType": "address payable",
          "name": "",
          "type": "address"
        },
        {
          "internalType": "address payable",
          "name": "",
          "type": "address"
        },
        {
          "internalType": "uint256",
          "name": "",
          "type": "uint256"
        },
        {
          "internalType": "bytes",
          "name": "",
          "type": "bytes"
        }
      ],
      "name": "onERC721Received",
      "outputs": [
        {
          "internalType": "bytes4",
          "name": "",
          "type": "bytes4"
        }
      ],
      "stateMutability": "pure",
      "type": "function",
      "constant": true
    },
    {
      "inputs": [
        {
          "internalType": "address payable",
          "name": "_pnftAddress",
          "type": "address"
        }
      ],
      "name": "setPnftAddress",
      "outputs": [],
      "stateMutability": "nonpayable",
      "type": "function"
    },
    {
      "inputs": [
        {
          "internalType": "address payable",
          "name": "_ocatAddress",
          "type": "address"
        }
      ],
      "name": "setOcatAddress",
      "outputs": [],
      "stateMutability": "nonpayable",
      "type": "function"
    },
    {
      "inputs": [
        {
          "internalType": "uint8",
          "name": "_minPrice",
          "type": "uint8"
        }
      ],
      "name": "setMinPrice",
      "outputs": [],
      "stateMutability": "nonpayable",
      "type": "function"
    },
    {
      "inputs": [
        {
          "internalType": "uint256",
          "name": "nftID",
          "type": "uint256"
        }
      ],
      "name": "exchangeToOcat",
      "outputs": [
        {
          "internalType": "uint256",
          "name": "",
          "type": "uint256"
        },
        {
          "internalType": "uint256",
          "name": "",
          "type": "uint256"
        }
      ],
      "stateMutability": "nonpayable",
      "type": "function"
    },
    {
      "inputs": [
        {
          "internalType": "uint256",
          "name": "nftID",
          "type": "uint256"
        }
      ],
      "name": "exchangeFromOcat",
      "outputs": [],
      "stateMutability": "nonpayable",
      "type": "function"
    }
  ],
  "bytecode": "0x60806040526000600460006101000a81548160ff021916908360ff1602179055506001600460016101000a81548160ff021916908360ff1602179055506004600660006101000a81548160ff021916908360ff160217905550611388600660016101000a81548167ffffffffffffffff021916908367ffffffffffffffff16021790555034801561008f57600080fd5b5033600260006101000a81548173ffffffffffffffffffffffffffffffffffffffff021916908373ffffffffffffffffffffffffffffffffffffffff160217905550603260056000600460009054906101000a900460ff1660ff1660ff16815260200190815260200160002060006101000a81548160ff021916908360ff160217905550603260056000600460019054906101000a900460ff1660ff1660ff16815260200190815260200160002060006101000a81548160ff021916908360ff160217905550600a60038190555061238d8061016c6000396000f3fe608060405234801561001057600080fd5b50600436106100625760003560e01c80630ca38a5a1461006757806313ad82da14610083578063150b7a02146100b457806315f03d22146100e4578063378321eb14610100578063b18d30a21461011c575b600080fd5b610081600480360381019061007c9190611708565b610138565b005b61009d600480360381019061009891906115ab565b610289565b6040516100ab929190611bb3565b60405180910390f35b6100ce60048036038101906100c99190611502565b610a6b565b6040516100db91906119d4565b60405180910390f35b6100fe60048036038101906100f991906114d9565b610a80565b005b61011a600480360381019061011591906115ab565b610d36565b005b610136600480360381019061013191906114d9565b610fb9565b005b600073ffffffffffffffffffffffffffffffffffffffff16600260009054906101000a900473ffffffffffffffffffffffffffffffffffffffff1673ffffffffffffffffffffffffffffffffffffffff1614156101ca576040517f08c379a00000000000000000000000000000000000000000000000000000000081526004016101c190611a2f565b60405180910390fd5b600260009054906101000a900473ffffffffffffffffffffffffffffffffffffffff1673ffffffffffffffffffffffffffffffffffffffff163373ffffffffffffffffffffffffffffffffffffffff161461025a576040517f08c379a000000000000000000000000000000000000000000000000000000000815260040161025190611a0f565b60405180910390fd5b8060ff16600660016101000a81548167ffffffffffffffff021916908367ffffffffffffffff16021790555050565b60008082600081116102d0576040517f08c379a00000000000000000000000000000000000000000000000000000000081526004016102c790611a6f565b60405180910390fd5b3073ffffffffffffffffffffffffffffffffffffffff163373ffffffffffffffffffffffffffffffffffffffff16141561033f576040517f08c379a0000000000000000000000000000000000000000000000000000000008152600401610336906119ef565b60405180910390fd5b600073ffffffffffffffffffffffffffffffffffffffff163373ffffffffffffffffffffffffffffffffffffffff1614156103af576040517f08c379a00000000000000000000000000000000000000000000000000000000081526004016103a690611b2f565b60405180910390fd5b60008060008060009054906101000a900473ffffffffffffffffffffffffffffffffffffffff1673ffffffffffffffffffffffffffffffffffffffff1663717947b1886040518263ffffffff1660e01b815260040161040e9190611b6f565b60006040518083038186803b15801561042657600080fd5b505afa15801561043a573d6000803e3d6000fd5b505050506040513d6000823e3d601f19601f8201168201806040525081019061046391906115fd565b995050509750509650505050503373ffffffffffffffffffffffffffffffffffffffff168373ffffffffffffffffffffffffffffffffffffffff16146104de576040517f08c379a00000000000000000000000000000000000000000000000000000000081526004016104d590611aef565b60405180910390fd5b600660019054906101000a900467ffffffffffffffff1667ffffffffffffffff16821015610541576040517f08c379a000000000000000000000000000000000000000000000000000000000815260040161053890611a8f565b60405180910390fd5b600060035411610586576040517f08c379a000000000000000000000000000000000000000000000000000000000815260040161057d90611a4f565b60405180910390fd5b6000826003546105969190611dfb565b90506000600660009054906101000a900460ff16600a6105b69190611cdd565b60056000600460009054906101000a900460ff1660ff1660ff16815260200190815260200160002060009054906101000a900460ff1660ff16836105fa9190611dfb565b6106049190611c59565b9050600081836106149190611e55565b90508361073d57600160009054906101000a900473ffffffffffffffffffffffffffffffffffffffff1673ffffffffffffffffffffffffffffffffffffffff166340c10f1930856040518363ffffffff1660e01b81526004016106789291906119ab565b600060405180830381600087803b15801561069257600080fd5b505af11580156106a6573d6000803e3d6000fd5b5050505060008054906101000a900473ffffffffffffffffffffffffffffffffffffffff1673ffffffffffffffffffffffffffffffffffffffff1663d81bcb2d8b60016040518363ffffffff1660e01b8152600401610706929190611b8a565b600060405180830381600087803b15801561072057600080fd5b505af1158015610734573d6000803e3d6000fd5b50505050610831565b6000600160009054906101000a900473ffffffffffffffffffffffffffffffffffffffff1673ffffffffffffffffffffffffffffffffffffffff166370a08231306040518263ffffffff1660e01b815260040161079a9190611959565b60206040518083038186803b1580156107b257600080fd5b505afa1580156107c6573d6000803e3d6000fd5b505050506040513d601f19601f820116820180604052508101906107ea91906115d4565b90508581101561082f576040517f08c379a000000000000000000000000000000000000000000000000000000000815260040161082690611acf565b60405180910390fd5b505b60008054906101000a900473ffffffffffffffffffffffffffffffffffffffff1673ffffffffffffffffffffffffffffffffffffffff166342842e0e33308d6040518463ffffffff1660e01b815260040161088e93929190611974565b600060405180830381600087803b1580156108a857600080fd5b505af11580156108bc573d6000803e3d6000fd5b50505050600160009054906101000a900473ffffffffffffffffffffffffffffffffffffffff1673ffffffffffffffffffffffffffffffffffffffff1663a9059cbb30846040518363ffffffff1660e01b815260040161091d9291906119ab565b602060405180830381600087803b15801561093757600080fd5b505af115801561094b573d6000803e3d6000fd5b505050506040513d601f19601f8201168201806040525081019061096f9190611582565b50600160009054906101000a900473ffffffffffffffffffffffffffffffffffffffff1673ffffffffffffffffffffffffffffffffffffffff1663a9059cbb33836040518363ffffffff1660e01b81526004016109cd9291906119ab565b602060405180830381600087803b1580156109e757600080fd5b505af11580156109fb573d6000803e3d6000fd5b505050506040513d601f19601f82011682018060405250810190610a1f9190611582565b507fdf26ba1712ef61c6db90a8ee9b6a5c4b7001717811fe1086a93d3bcad12552918183604051610a51929190611bb3565b60405180910390a180829850985050505050505050915091565b600063150b7a0260e01b905095945050505050565b3073ffffffffffffffffffffffffffffffffffffffff163373ffffffffffffffffffffffffffffffffffffffff161415610aef576040517f08c379a0000000000000000000000000000000000000000000000000000000008152600401610ae6906119ef565b60405180910390fd5b600073ffffffffffffffffffffffffffffffffffffffff163373ffffffffffffffffffffffffffffffffffffffff161415610b5f576040517f08c379a0000000000000000000000000000000000000000000000000000000008152600401610b5690611b2f565b60405180910390fd5b600073ffffffffffffffffffffffffffffffffffffffff16600260009054906101000a900473ffffffffffffffffffffffffffffffffffffffff1673ffffffffffffffffffffffffffffffffffffffff161415610bf1576040517f08c379a0000000000000000000000000000000000000000000000000000000008152600401610be890611a2f565b60405180910390fd5b600260009054906101000a900473ffffffffffffffffffffffffffffffffffffffff1673ffffffffffffffffffffffffffffffffffffffff163373ffffffffffffffffffffffffffffffffffffffff1614610c81576040517f08c379a0000000000000000000000000000000000000000000000000000000008152600401610c7890611a0f565b60405180910390fd5b80600073ffffffffffffffffffffffffffffffffffffffff168173ffffffffffffffffffffffffffffffffffffffff161415610cf2576040517f08c379a0000000000000000000000000000000000000000000000000000000008152600401610ce990611aaf565b60405180910390fd5b816000806101000a81548173ffffffffffffffffffffffffffffffffffffffff021916908373ffffffffffffffffffffffffffffffffffffffff1602179055505050565b6000600160009054906101000a900473ffffffffffffffffffffffffffffffffffffffff1673ffffffffffffffffffffffffffffffffffffffff166370a08231336040518263ffffffff1660e01b8152600401610d939190611959565b60206040518083038186803b158015610dab57600080fd5b505afa158015610dbf573d6000803e3d6000fd5b505050506040513d601f19601f82011682018060405250810190610de391906115d4565b905060008060009054906101000a900473ffffffffffffffffffffffffffffffffffffffff1673ffffffffffffffffffffffffffffffffffffffff1663717947b1846040518263ffffffff1660e01b8152600401610e419190611b6f565b60006040518083038186803b158015610e5957600080fd5b505afa158015610e6d573d6000803e3d6000fd5b505050506040513d6000823e3d601f19601f82011682018060405250810190610e9691906115fd565b5050509650505050505050600060035482610eb19190611dfb565b905080831015610ef6576040517f08c379a0000000000000000000000000000000000000000000000000000000008152600401610eed90611b0f565b60405180910390fd5b610f24600160009054906101000a900473ffffffffffffffffffffffffffffffffffffffff16333084611270565b60008054906101000a900473ffffffffffffffffffffffffffffffffffffffff1673ffffffffffffffffffffffffffffffffffffffff166342842e0e3033876040518463ffffffff1660e01b8152600401610f8193929190611974565b600060405180830381600087803b158015610f9b57600080fd5b505af1158015610faf573d6000803e3d6000fd5b5050505050505050565b3073ffffffffffffffffffffffffffffffffffffffff163373ffffffffffffffffffffffffffffffffffffffff161415611028576040517f08c379a000000000000000000000000000000000000000000000000000000000815260040161101f906119ef565b60405180910390fd5b600073ffffffffffffffffffffffffffffffffffffffff163373ffffffffffffffffffffffffffffffffffffffff161415611098576040517f08c379a000000000000000000000000000000000000000000000000000000000815260040161108f90611b2f565b60405180910390fd5b80600073ffffffffffffffffffffffffffffffffffffffff168173ffffffffffffffffffffffffffffffffffffffff161415611109576040517f08c379a000000000000000000000000000000000000000000000000000000000815260040161110090611aaf565b60405180910390fd5b600073ffffffffffffffffffffffffffffffffffffffff16600260009054906101000a900473ffffffffffffffffffffffffffffffffffffffff1673ffffffffffffffffffffffffffffffffffffffff16141561119b576040517f08c379a000000000000000000000000000000000000000000000000000000000815260040161119290611a2f565b60405180910390fd5b600260009054906101000a900473ffffffffffffffffffffffffffffffffffffffff1673ffffffffffffffffffffffffffffffffffffffff163373ffffffffffffffffffffffffffffffffffffffff161461122b576040517f08c379a000000000000000000000000000000000000000000000000000000000815260040161122290611a0f565b60405180910390fd5b81600160006101000a81548173ffffffffffffffffffffffffffffffffffffffff021916908373ffffffffffffffffffffffffffffffffffffffff1602179055505050565b6000808573ffffffffffffffffffffffffffffffffffffffff166323b872dd8686866040516024016112a493929190611974565b6040516020818303038152906040529060e01b6020820180517bffffffffffffffffffffffffffffffffffffffffffffffffffffffff83818316178352505050506040516112f29190611942565b6000604051808303816000865af19150503d806000811461132f576040519150601f19603f3d011682016040523d82523d6000602084013e611334565b606091505b509150915081801561136257506000815114806113615750808060200190518101906113609190611582565b5b5b6113a1576040517f08c379a000000000000000000000000000000000000000000000000000000000815260040161139890611b4f565b60405180910390fd5b505050505050565b60006113bc6113b784611c01565b611bdc565b9050828152602081018484840111156113d457600080fd5b6113df848285611f1c565b509392505050565b6000813590506113f6816122fb565b92915050565b60008151905061140b816122fb565b92915050565b60008151905061142081612312565b92915050565b60008083601f84011261143857600080fd5b8235905067ffffffffffffffff81111561145157600080fd5b60208301915083600182028301111561146957600080fd5b9250929050565b600082601f83011261148157600080fd5b81516114918482602086016113a9565b91505092915050565b6000813590506114a981612329565b92915050565b6000815190506114be81612329565b92915050565b6000813590506114d381612340565b92915050565b6000602082840312156114eb57600080fd5b60006114f9848285016113e7565b91505092915050565b60008060008060006080868803121561151a57600080fd5b6000611528888289016113e7565b9550506020611539888289016113e7565b945050604061154a8882890161149a565b935050606086013567ffffffffffffffff81111561156757600080fd5b61157388828901611426565b92509250509295509295909350565b60006020828403121561159457600080fd5b60006115a284828501611411565b91505092915050565b6000602082840312156115bd57600080fd5b60006115cb8482850161149a565b91505092915050565b6000602082840312156115e657600080fd5b60006115f4848285016114af565b91505092915050565b6000806000806000806000806000806101408b8d03121561161d57600080fd5b600061162b8d828e016114af565b9a505060208b015167ffffffffffffffff81111561164857600080fd5b6116548d828e01611470565b99505060408b015167ffffffffffffffff81111561167157600080fd5b61167d8d828e01611470565b985050606061168e8d828e016113fc565b975050608061169f8d828e016113fc565b96505060a06116b08d828e016113fc565b95505060c06116c18d828e016114af565b94505060e06116d28d828e016114af565b9350506101006116e48d828e01611411565b9250506101206116f68d828e01611411565b9150509295989b9194979a5092959850565b60006020828403121561171a57600080fd5b6000611728848285016114c4565b91505092915050565b61173a81611e89565b82525050565b61174981611ead565b82525050565b61175881611eb9565b82525050565b600061176982611c32565b6117738185611c3d565b9350611783818560208601611f1c565b80840191505092915050565b600061179c602e83611c48565b91506117a78261202b565b604082019050919050565b60006117bf601e83611c48565b91506117ca8261207a565b602082019050919050565b60006117e2601783611c48565b91506117ed826120a3565b602082019050919050565b6000611805601783611c48565b9150611810826120cc565b602082019050919050565b6000611828600e83611c48565b9150611833826120f5565b602082019050919050565b600061184b601883611c48565b91506118568261211e565b602082019050919050565b600061186e601983611c48565b915061187982612147565b602082019050919050565b6000611891604b83611c48565b915061189c82612170565b606082019050919050565b60006118b4600983611c48565b91506118bf826121e5565b602082019050919050565b60006118d7604c83611c48565b91506118e28261220e565b606082019050919050565b60006118fa601a83611c48565b915061190582612283565b602082019050919050565b600061191d602483611c48565b9150611928826122ac565b604082019050919050565b61193c81611f05565b82525050565b600061194e828461175e565b915081905092915050565b600060208201905061196e6000830184611731565b92915050565b60006060820190506119896000830186611731565b6119966020830185611731565b6119a36040830184611933565b949350505050565b60006040820190506119c06000830185611731565b6119cd6020830184611933565b9392505050565b60006020820190506119e9600083018461174f565b92915050565b60006020820190508181036000830152611a088161178f565b9050919050565b60006020820190508181036000830152611a28816117b2565b9050919050565b60006020820190508181036000830152611a48816117d5565b9050919050565b60006020820190508181036000830152611a68816117f8565b9050919050565b60006020820190508181036000830152611a888161181b565b9050919050565b60006020820190508181036000830152611aa88161183e565b9050919050565b60006020820190508181036000830152611ac881611861565b9050919050565b60006020820190508181036000830152611ae881611884565b9050919050565b60006020820190508181036000830152611b08816118a7565b9050919050565b60006020820190508181036000830152611b28816118ca565b9050919050565b60006020820190508181036000830152611b48816118ed565b9050919050565b60006020820190508181036000830152611b6881611910565b9050919050565b6000602082019050611b846000830184611933565b92915050565b6000604082019050611b9f6000830185611933565b611bac6020830184611740565b9392505050565b6000604082019050611bc86000830185611933565b611bd56020830184611933565b9392505050565b6000611be6611bf7565b9050611bf28282611f4f565b919050565b6000604051905090565b600067ffffffffffffffff821115611c1c57611c1b611fde565b5b611c258261200d565b9050602081019050919050565b600081519050919050565b600081905092915050565b600082825260208201905092915050565b6000611c6482611f05565b9150611c6f83611f05565b925082611c7f57611c7e611faf565b5b828204905092915050565b6000808291508390505b6001851115611cd457808604811115611cb057611caf611f80565b5b6001851615611cbf5780820291505b8081029050611ccd8561201e565b9450611c94565b94509492505050565b6000611ce882611f05565b9150611cf383611f0f565b9250611d207fffffffffffffffffffffffffffffffffffffffffffffffffffffffffffffffff8484611d28565b905092915050565b600082611d385760019050611df4565b81611d465760009050611df4565b8160018114611d5c5760028114611d6657611d95565b6001915050611df4565b60ff841115611d7857611d77611f80565b5b8360020a915084821115611d8f57611d8e611f80565b5b50611df4565b5060208310610133831016604e8410600b8410161715611dca5782820a905083811115611dc557611dc4611f80565b5b611df4565b611dd78484846001611c8a565b92509050818404811115611dee57611ded611f80565b5b81810290505b9392505050565b6000611e0682611f05565b9150611e1183611f05565b9250817fffffffffffffffffffffffffffffffffffffffffffffffffffffffffffffffff0483118215151615611e4a57611e49611f80565b5b828202905092915050565b6000611e6082611f05565b9150611e6b83611f05565b925082821015611e7e57611e7d611f80565b5b828203905092915050565b6000611e9482611ee5565b9050919050565b6000611ea682611ee5565b9050919050565b60008115159050919050565b60007fffffffff0000000000000000000000000000000000000000000000000000000082169050919050565b600073ffffffffffffffffffffffffffffffffffffffff82169050919050565b6000819050919050565b600060ff82169050919050565b60005b83811015611f3a578082015181840152602081019050611f1f565b83811115611f49576000848401525b50505050565b611f588261200d565b810181811067ffffffffffffffff82111715611f7757611f76611fde565b5b80604052505050565b7f4e487b7100000000000000000000000000000000000000000000000000000000600052601160045260246000fd5b7f4e487b7100000000000000000000000000000000000000000000000000000000600052601260045260246000fd5b7f4e487b7100000000000000000000000000000000000000000000000000000000600052604160045260246000fd5b6000601f19601f8301169050919050565b60008160011c9050919050565b7f4572726f723a2043616c6c657220636f756c646e27742062652073616d65207460008201527f6f20746869732061646472657373000000000000000000000000000000000000602082015250565b7f466f722063616c6c65722065787065637465642062652063726561746f720000600082015250565b7f496e76616c69642063726561746f722061646472657373000000000000000000600082015250565b7f496e76616c696420504e46542f4f4341542071756f7465000000000000000000600082015250565b7f496e76616c6964204e4654204944000000000000000000000000000000000000600082015250565b7f546f6f20736d616c6c20707269636520666f7220504e46540000000000000000600082015250565b7f4578706563746564206e6f6e2d7a65726f206164647265737300000000000000600082015250565b7f5061776e45786368616e67652e65786368616e6765546f4f63617428293a204960008201527f6e73756666696369656e742062616c616e6365206f66204f43415420696e207460208201527f686520636f6e7472616374000000000000000000000000000000000000000000604082015250565b7f4e6f74206f776e65720000000000000000000000000000000000000000000000600082015250565b7f5061776e45786368616e67652e65786368616e676546726f6d4f63617428293a60008201527f20496e73756666696369656e742062616c616e6365206f66204f43415420696e60208201527f20746865206163636f756e740000000000000000000000000000000000000000604082015250565b7f2a2a2a2a2a2a2a2a2a2a2a2a496e76616c69642063616c6c6572000000000000600082015250565b7f5472616e7366657248656c7065723a205452414e534645525f46524f4d5f464160008201527f494c454400000000000000000000000000000000000000000000000000000000602082015250565b61230481611e9b565b811461230f57600080fd5b50565b61231b81611ead565b811461232657600080fd5b50565b61233281611f05565b811461233d57600080fd5b50565b61234981611f0f565b811461235457600080fd5b5056fea264697066735822122072b8590131956a290c90aee9f07ab7f2384b9768107e950c2001908b72e3ab8764736f6c63430008040033",
  "immutableReferences": {},
  "source": "// SPDX-License-Identifier: MIT\npragma solidity ^0.8.0;\n\nimport \"@openzeppelin/contracts/token/ERC20/IERC20.sol\"; // openzeppelin 4.5 (for solidity 0.8.x)\nimport \"@openzeppelin/contracts/token/ERC721/IERC721.sol\";\nimport '@uniswap/lib/contracts/libraries/TransferHelper.sol';\nimport \"./PawnNFTs.sol\";\nimport \"./IOcat.sol\";\n\ncontract PawnExchange {\n    \n    address payable private pnftAddress;\n    address payable private ocatAddress;\n    address payable private creator;\n    uint256         private pnftOcatQuote;\n\n    uint8           private MINT_FEE = 0;\n    uint8           private ROLLBACK_FEE = 1;\n\n    mapping(uint8 => uint8) private fees;\n    uint8           private feeDecimal = 4;\n    uint64          private minPrice = 5000;\n\n    event SwappedToOcat (uint256 realPrice, uint256 fee);\n\n    constructor() {\n        creator = payable(msg.sender);\n        fees[MINT_FEE] = 50;     // 0.5% \n        fees[ROLLBACK_FEE] = 50; // 0.5%\n        pnftOcatQuote = 10;\n    }\n\n    function onERC721Received(\n        address payable /*operator*/,\n        address payable /*from*/,\n        uint256 /*tokenId*/,\n        bytes calldata /*data*/\n    ) external pure returns (bytes4) {\n        return this.onERC721Received.selector;\n    }\n\n    modifier validCaller {\n        require(msg.sender != address(this), \"Error: Caller couldn't be same to this address\");\n        require(msg.sender != address(0), \"************Invalid caller\");\n        _;\n    }\n\n    modifier validNftID(uint256 nftId) {\n        require(nftId > 0, \"Invalid NFT ID\");\n        _;\n    }\n\n    modifier nonZeroAddress(address _address) {\n        require(_address != address(0), \"Expected non-zero address\");\n        _;\n    }\n\n    modifier callerMustBeCreator {\n        require(creator != address(0), \"Invalid creator address\");\n        require(msg.sender == creator, \"For caller expected be creator\");\n        _;\n    }\n\n    function setPnftAddress(address payable _pnftAddress) public \n    validCaller callerMustBeCreator nonZeroAddress(_pnftAddress) {\n        pnftAddress = _pnftAddress;\n    }\n\n    function setOcatAddress(address payable _ocatAddress) public \n    validCaller nonZeroAddress(_ocatAddress) callerMustBeCreator {\n        ocatAddress = _ocatAddress;\n        // IOcat(_ocatAddress).addOperator(address(this));\n    }\n\n    function setMinPrice(uint8 _minPrice) public \n    callerMustBeCreator {\n        minPrice = _minPrice;\n    }\n\n    function exchangeToOcat(uint256 nftID) public \n    validNftID(nftID) validCaller \n    returns (uint256, uint256) {\n        // Get price for the NFT\n        (,,,,address currentOwner,,uint256 price,,,bool mintedNativeToken) = PawnNFTs(payable(address(pnftAddress))).allPawnNFTs(nftID);\n        require(currentOwner == msg.sender, \"Not owner\");\n        require(price >= minPrice, \"Too small price for PNFT\");\n        require(pnftOcatQuote > 0, \"Invalid PNFT/OCAT quote\");\n\n        uint256 quotedPrice = pnftOcatQuote * price;\n        uint256 mintFee = quotedPrice * fees[MINT_FEE] / (10 ** feeDecimal);\n        uint256 realPrice = quotedPrice - mintFee;\n\n        if (!mintedNativeToken) {\n            // Mint some OCATs for this PNFT\n            IOcat(ocatAddress).mint(address(this), quotedPrice);\n            PawnNFTs(pnftAddress).setMintedNativeToken(nftID, true);\n        } else {\n            uint256 ocatBalance = IERC20(ocatAddress).balanceOf(address(this));\n\t        require(ocatBalance >= price, \"PawnExchange.exchangeToOcat(): Insufficient balance of OCAT in the contract\");\n        }\n        // safeTransferFrom: send NFT from caller to the address\n        IERC721(pnftAddress).safeTransferFrom(msg.sender, address(this), nftID);\n        // Pay fee in OCAT to this address\n        IERC20(ocatAddress).transfer(address(this), mintFee);\n        // Pay OCAT for the NFT\n        IERC20(ocatAddress).transfer(msg.sender, realPrice);\n        emit SwappedToOcat(realPrice, mintFee);\n        //   Then transfer OCATs from the address to caller\n        // TransferHelper.safeTransferFrom(ocatAddress, address(this), msg.sender, quotedPrice);\n        return (realPrice, mintFee);\n    }\n\n    function exchangeFromOcat(uint256 nftID) public {\n        uint256 ocatBalance = IERC20(ocatAddress).balanceOf(msg.sender);\n        // Get price for the NFT\n        (,,,,,,uint256 price,,,) = PawnNFTs(payable(address(pnftAddress))).allPawnNFTs(nftID);\n        // uint256 price = nftItem.price;\n        uint256 quotedPrice = price * pnftOcatQuote;\n        require(ocatBalance >= quotedPrice, \"PawnExchange.exchangeFromOcat(): Insufficient balance of OCAT in the account\");\n        // safeTransferFrom: send NFT from caller to the address\n        TransferHelper.safeTransferFrom(ocatAddress, msg.sender, address(this), quotedPrice);\n        // Pay OCAT for the NFT\n        IERC721(pnftAddress).safeTransferFrom(address(this), msg.sender, nftID);\n        //   Then transfer OCATs from the address to caller\n        // TransferHelper.safeTransferFrom(ocatAddress, address(this), msg.sender, quotedPrice);\n    } \n}\n",
  "sourcePath": "/home/cowboy/OpenchainTestVersion/server/contracts/PawnExchange.sol",
  "compiler": {
    "name": "solc",
    "version": "0.8.4+commit.c7e474f2.Emscripten.clang"
  },
  "schemaVersion": "3.4.6",
  "updatedAt": "2022-04-10T07:43:17.824Z",
  "networkType": "ethereum",
  "devdoc": {
    "kind": "dev",
    "methods": {},
    "version": 1
  },
  "userdoc": {
    "kind": "user",
    "methods": {},
    "version": 1
  }
}