{
  "contractName": "PawnNFTs",
  "abi": [
    {
      "inputs": [],
      "stateMutability": "nonpayable",
      "type": "constructor"
    },
    {
      "anonymous": false,
      "inputs": [
        {
          "indexed": true,
          "internalType": "address",
          "name": "owner",
          "type": "address"
        },
        {
          "indexed": true,
          "internalType": "address",
          "name": "approved",
          "type": "address"
        },
        {
          "indexed": true,
          "internalType": "uint256",
          "name": "tokenId",
          "type": "uint256"
        }
      ],
      "name": "Approval",
      "type": "event"
    },
    {
      "anonymous": false,
      "inputs": [
        {
          "indexed": true,
          "internalType": "address",
          "name": "owner",
          "type": "address"
        },
        {
          "indexed": true,
          "internalType": "address",
          "name": "operator",
          "type": "address"
        },
        {
          "indexed": false,
          "internalType": "bool",
          "name": "approved",
          "type": "bool"
        }
      ],
      "name": "ApprovalForAll",
      "type": "event"
    },
    {
      "anonymous": false,
      "inputs": [
        {
          "indexed": true,
          "internalType": "address",
          "name": "from",
          "type": "address"
        },
        {
          "indexed": true,
          "internalType": "address",
          "name": "to",
          "type": "address"
        },
        {
          "indexed": true,
          "internalType": "uint256",
          "name": "tokenId",
          "type": "uint256"
        }
      ],
      "name": "Transfer",
      "type": "event"
    },
    {
      "inputs": [
        {
          "internalType": "address",
          "name": "_admin",
          "type": "address"
        }
      ],
      "name": "addAdmin",
      "outputs": [],
      "stateMutability": "nonpayable",
      "type": "function"
    },
    {
      "inputs": [
        {
          "internalType": "uint256",
          "name": "",
          "type": "uint256"
        }
      ],
      "name": "allPawnNFTs",
      "outputs": [
        {
          "internalType": "uint256",
          "name": "tokenId",
          "type": "uint256"
        },
        {
          "internalType": "string",
          "name": "tokenName",
          "type": "string"
        },
        {
          "internalType": "string",
          "name": "tokenURI",
          "type": "string"
        },
        {
          "internalType": "address payable",
          "name": "mintedBy",
          "type": "address"
        },
        {
          "internalType": "address payable",
          "name": "currentOwner",
          "type": "address"
        },
        {
          "internalType": "address payable",
          "name": "previousOwner",
          "type": "address"
        },
        {
          "internalType": "uint256",
          "name": "price",
          "type": "uint256"
        },
        {
          "internalType": "uint256",
          "name": "numberOfTransfers",
          "type": "uint256"
        },
        {
          "internalType": "bool",
          "name": "forSale",
          "type": "bool"
        },
        {
          "internalType": "bool",
          "name": "mintedNativeToken",
          "type": "bool"
        }
      ],
      "stateMutability": "view",
      "type": "function",
      "constant": true
    },
    {
      "inputs": [
        {
          "internalType": "address",
          "name": "to",
          "type": "address"
        },
        {
          "internalType": "uint256",
          "name": "tokenId",
          "type": "uint256"
        }
      ],
      "name": "approve",
      "outputs": [],
      "stateMutability": "nonpayable",
      "type": "function"
    },
    {
      "inputs": [
        {
          "internalType": "address",
          "name": "owner",
          "type": "address"
        }
      ],
      "name": "balanceOf",
      "outputs": [
        {
          "internalType": "uint256",
          "name": "",
          "type": "uint256"
        }
      ],
      "stateMutability": "view",
      "type": "function",
      "constant": true
    },
    {
      "inputs": [],
      "name": "collectionName",
      "outputs": [
        {
          "internalType": "string",
          "name": "",
          "type": "string"
        }
      ],
      "stateMutability": "view",
      "type": "function",
      "constant": true
    },
    {
      "inputs": [],
      "name": "collectionNameSymbol",
      "outputs": [
        {
          "internalType": "string",
          "name": "",
          "type": "string"
        }
      ],
      "stateMutability": "view",
      "type": "function",
      "constant": true
    },
    {
      "inputs": [],
      "name": "decimals",
      "outputs": [
        {
          "internalType": "uint256",
          "name": "",
          "type": "uint256"
        }
      ],
      "stateMutability": "view",
      "type": "function",
      "constant": true
    },
    {
      "inputs": [],
      "name": "getAdmins",
      "outputs": [
        {
          "internalType": "address[]",
          "name": "",
          "type": "address[]"
        }
      ],
      "stateMutability": "view",
      "type": "function",
      "constant": true
    },
    {
      "inputs": [
        {
          "internalType": "uint256",
          "name": "tokenId",
          "type": "uint256"
        }
      ],
      "name": "getApproved",
      "outputs": [
        {
          "internalType": "address",
          "name": "",
          "type": "address"
        }
      ],
      "stateMutability": "view",
      "type": "function",
      "constant": true
    },
    {
      "inputs": [
        {
          "internalType": "address",
          "name": "owner",
          "type": "address"
        },
        {
          "internalType": "address",
          "name": "operator",
          "type": "address"
        }
      ],
      "name": "isApprovedForAll",
      "outputs": [
        {
          "internalType": "bool",
          "name": "",
          "type": "bool"
        }
      ],
      "stateMutability": "view",
      "type": "function",
      "constant": true
    },
    {
      "inputs": [],
      "name": "name",
      "outputs": [
        {
          "internalType": "string",
          "name": "",
          "type": "string"
        }
      ],
      "stateMutability": "view",
      "type": "function",
      "constant": true
    },
    {
      "inputs": [
        {
          "internalType": "uint256",
          "name": "tokenId",
          "type": "uint256"
        }
      ],
      "name": "ownerOf",
      "outputs": [
        {
          "internalType": "address",
          "name": "",
          "type": "address"
        }
      ],
      "stateMutability": "view",
      "type": "function",
      "constant": true
    },
    {
      "inputs": [
        {
          "internalType": "address",
          "name": "from",
          "type": "address"
        },
        {
          "internalType": "address",
          "name": "to",
          "type": "address"
        },
        {
          "internalType": "uint256",
          "name": "tokenId",
          "type": "uint256"
        }
      ],
      "name": "safeTransferFrom",
      "outputs": [],
      "stateMutability": "nonpayable",
      "type": "function"
    },
    {
      "inputs": [
        {
          "internalType": "address",
          "name": "from",
          "type": "address"
        },
        {
          "internalType": "address",
          "name": "to",
          "type": "address"
        },
        {
          "internalType": "uint256",
          "name": "tokenId",
          "type": "uint256"
        },
        {
          "internalType": "bytes",
          "name": "_data",
          "type": "bytes"
        }
      ],
      "name": "safeTransferFrom",
      "outputs": [],
      "stateMutability": "nonpayable",
      "type": "function"
    },
    {
      "inputs": [
        {
          "internalType": "address",
          "name": "operator",
          "type": "address"
        },
        {
          "internalType": "bool",
          "name": "approved",
          "type": "bool"
        }
      ],
      "name": "setApprovalForAll",
      "outputs": [],
      "stateMutability": "nonpayable",
      "type": "function"
    },
    {
      "inputs": [
        {
          "internalType": "bytes4",
          "name": "interfaceId",
          "type": "bytes4"
        }
      ],
      "name": "supportsInterface",
      "outputs": [
        {
          "internalType": "bool",
          "name": "",
          "type": "bool"
        }
      ],
      "stateMutability": "view",
      "type": "function",
      "constant": true
    },
    {
      "inputs": [],
      "name": "symbol",
      "outputs": [
        {
          "internalType": "string",
          "name": "",
          "type": "string"
        }
      ],
      "stateMutability": "view",
      "type": "function",
      "constant": true
    },
    {
      "inputs": [
        {
          "internalType": "string",
          "name": "",
          "type": "string"
        }
      ],
      "name": "tokenNameExists",
      "outputs": [
        {
          "internalType": "bool",
          "name": "",
          "type": "bool"
        }
      ],
      "stateMutability": "view",
      "type": "function",
      "constant": true
    },
    {
      "inputs": [
        {
          "internalType": "string",
          "name": "",
          "type": "string"
        }
      ],
      "name": "tokenURIExists",
      "outputs": [
        {
          "internalType": "uint256",
          "name": "",
          "type": "uint256"
        }
      ],
      "stateMutability": "view",
      "type": "function",
      "constant": true
    },
    {
      "inputs": [
        {
          "internalType": "uint256",
          "name": "",
          "type": "uint256"
        }
      ],
      "name": "tokenURIs",
      "outputs": [
        {
          "internalType": "string",
          "name": "",
          "type": "string"
        }
      ],
      "stateMutability": "view",
      "type": "function",
      "constant": true
    },
    {
      "inputs": [
        {
          "internalType": "address",
          "name": "from",
          "type": "address"
        },
        {
          "internalType": "address",
          "name": "to",
          "type": "address"
        },
        {
          "internalType": "uint256",
          "name": "tokenId",
          "type": "uint256"
        }
      ],
      "name": "transferFrom",
      "outputs": [],
      "stateMutability": "nonpayable",
      "type": "function"
    },
    {
      "stateMutability": "payable",
      "type": "receive",
      "payable": true
    },
    {
      "inputs": [
        {
          "internalType": "uint256",
          "name": "tokenId",
          "type": "uint256"
        }
      ],
      "name": "tokenURI",
      "outputs": [
        {
          "internalType": "string",
          "name": "",
          "type": "string"
        }
      ],
      "stateMutability": "view",
      "type": "function",
      "constant": true
    },
    {
      "inputs": [],
      "name": "totalSupply",
      "outputs": [
        {
          "internalType": "uint256",
          "name": "",
          "type": "uint256"
        }
      ],
      "stateMutability": "view",
      "type": "function",
      "constant": true
    },
    {
      "inputs": [
        {
          "internalType": "uint8",
          "name": "_minPnftPrice",
          "type": "uint8"
        }
      ],
      "name": "setMinPnftPrice",
      "outputs": [],
      "stateMutability": "nonpayable",
      "type": "function"
    },
    {
      "inputs": [
        {
          "internalType": "string",
          "name": "_name",
          "type": "string"
        },
        {
          "internalType": "string",
          "name": "_tokenURI",
          "type": "string"
        },
        {
          "internalType": "uint256",
          "name": "_price",
          "type": "uint256"
        }
      ],
      "name": "mintPawnNFT",
      "outputs": [
        {
          "internalType": "uint256",
          "name": "",
          "type": "uint256"
        }
      ],
      "stateMutability": "nonpayable",
      "type": "function"
    },
    {
      "inputs": [
        {
          "internalType": "uint256",
          "name": "_tokenId",
          "type": "uint256"
        }
      ],
      "name": "getTokenOwner",
      "outputs": [
        {
          "internalType": "address",
          "name": "",
          "type": "address"
        }
      ],
      "stateMutability": "view",
      "type": "function",
      "constant": true
    },
    {
      "inputs": [
        {
          "internalType": "uint256",
          "name": "_tokenId",
          "type": "uint256"
        }
      ],
      "name": "getTokenMetaData",
      "outputs": [
        {
          "internalType": "string",
          "name": "",
          "type": "string"
        }
      ],
      "stateMutability": "view",
      "type": "function",
      "constant": true
    },
    {
      "inputs": [
        {
          "internalType": "uint256",
          "name": "_tokenId",
          "type": "uint256"
        },
        {
          "internalType": "bool",
          "name": "_mintedNativeToken",
          "type": "bool"
        }
      ],
      "name": "setMintedNativeToken",
      "outputs": [],
      "stateMutability": "nonpayable",
      "type": "function"
    },
    {
      "inputs": [],
      "name": "getNumberOfTokensMinted",
      "outputs": [
        {
          "internalType": "uint256",
          "name": "",
          "type": "uint256"
        }
      ],
      "stateMutability": "view",
      "type": "function",
      "constant": true
    },
    {
      "inputs": [
        {
          "internalType": "address",
          "name": "_owner",
          "type": "address"
        }
      ],
      "name": "getTotalNumberOfTokensOwnedByAnAddress",
      "outputs": [
        {
          "internalType": "uint256",
          "name": "",
          "type": "uint256"
        }
      ],
      "stateMutability": "view",
      "type": "function",
      "constant": true
    },
    {
      "inputs": [
        {
          "internalType": "uint256",
          "name": "_tokenId",
          "type": "uint256"
        }
      ],
      "name": "getTokenExists",
      "outputs": [
        {
          "internalType": "bool",
          "name": "",
          "type": "bool"
        }
      ],
      "stateMutability": "view",
      "type": "function",
      "constant": true
    },
    {
      "inputs": [
        {
          "internalType": "uint256",
          "name": "_tokenId",
          "type": "uint256"
        }
      ],
      "name": "buyToken",
      "outputs": [],
      "stateMutability": "payable",
      "type": "function",
      "payable": true
    },
    {
      "inputs": [
        {
          "internalType": "uint256",
          "name": "_tokenId",
          "type": "uint256"
        },
        {
          "internalType": "uint256",
          "name": "_newPrice",
          "type": "uint256"
        }
      ],
      "name": "changeTokenPrice",
      "outputs": [],
      "stateMutability": "nonpayable",
      "type": "function"
    },
    {
      "inputs": [
        {
          "internalType": "uint256",
          "name": "_tokenId",
          "type": "uint256"
        }
      ],
      "name": "toggleForSale",
      "outputs": [],
      "stateMutability": "nonpayable",
      "type": "function"
    }
  ],
  "bytecode": "0x6080604052611388600b60006101000a81548167ffffffffffffffff021916908367ffffffffffffffff1602179055506000600c553480156200004157600080fd5b50604051806060016040528060218152602001620063ce602191396040518060400160405280600481526020017f504e4654000000000000000000000000000000000000000000000000000000008152508160009080519060200190620000aa92919062000291565b508060019080519060200190620000c392919062000291565b50505033600760006101000a81548173ffffffffffffffffffffffffffffffffffffffff021916908373ffffffffffffffffffffffffffffffffffffffff160217905550620001176200015d60201b60201c565b600890805190602001906200012e92919062000291565b506200013f620001f760201b60201c565b600990805190602001906200015692919062000291565b50620003a6565b6060600080546200016e9062000341565b80601f01602080910402602001604051908101604052809291908181526020018280546200019c9062000341565b8015620001ed5780601f10620001c157610100808354040283529160200191620001ed565b820191906000526020600020905b815481529060010190602001808311620001cf57829003601f168201915b5050505050905090565b606060018054620002089062000341565b80601f0160208091040260200160405190810160405280929190818152602001828054620002369062000341565b8015620002875780601f106200025b5761010080835404028352916020019162000287565b820191906000526020600020905b8154815290600101906020018083116200026957829003601f168201915b5050505050905090565b8280546200029f9062000341565b90600052602060002090601f016020900481019282620002c357600085556200030f565b82601f10620002de57805160ff19168380011785556200030f565b828001600101855582156200030f579182015b828111156200030e578251825591602001919060010190620002f1565b5b5090506200031e919062000322565b5090565b5b808211156200033d57600081600090555060010162000323565b5090565b600060028204905060018216806200035a57607f821691505b6020821081141562000371576200037062000377565b5b50919050565b7f4e487b7100000000000000000000000000000000000000000000000000000000600052602260045260246000fd5b61601880620003b66000396000f3fe6080604052600436106101fd5760003560e01c80636f9507f91161010d578063a5cd761f116100a0578063d170c91b1161006f578063d170c91b146107bc578063d81bcb2d146107f9578063e5326ab114610822578063e985e9c51461084d578063f3ac38b71461088a57610204565b8063a5cd761f146106ee578063b88d4fde1461072b578063c87b56dd14610754578063cc151f3a1461079157610204565b806395d89b41116100dc57806395d89b4114610634578063a22cb4651461065f578063a32018b914610688578063a46b1fac146106b157610204565b80636f9507f91461055d578063704802751461058857806370a08231146105b1578063717947b1146105ee57610204565b8063313ce5671161019057806343d32ae71161015f57806343d32ae71461044057806362e8e8ac1461047d5780636352211e146104a657806367c623cf146104e35780636c8b703f1461052057610204565b8063313ce5671461038457806331ae450b146103af57806342842e0e146103da578063439028501461040357610204565b8063142687f3116101cc578063142687f3146102d757806318160ddd1461031457806323b872dd1461033f5780632d296bf11461036857610204565b806301ffc9a71461020957806306fdde0314610246578063081812fc14610271578063095ea7b3146102ae57610204565b3661020457005b600080fd5b34801561021557600080fd5b50610230600480360381019061022b919061433c565b6108b3565b60405161023d9190614c2b565b60405180910390f35b34801561025257600080fd5b5061025b610995565b6040516102689190614c46565b60405180910390f35b34801561027d57600080fd5b506102986004803603810190610293919061444e565b610a27565b6040516102a59190614ba2565b60405180910390f35b3480156102ba57600080fd5b506102d560048036038101906102d09190614300565b610aac565b005b3480156102e357600080fd5b506102fe60048036038101906102f9919061444e565b610bc4565b60405161030b9190614c2b565b60405180910390f35b34801561032057600080fd5b50610329610bdb565b6040516103369190615108565b60405180910390f35b34801561034b57600080fd5b50610366600480360381019061036191906141fa565b610bec565b005b610382600480360381019061037d919061444e565b610c4c565b005b34801561039057600080fd5b5061039961138e565b6040516103a69190615108565b60405180910390f35b3480156103bb57600080fd5b506103c4611394565b6040516103d19190614c09565b60405180910390f35b3480156103e657600080fd5b5061040160048036038101906103fc91906141fa565b611422565b005b34801561040f57600080fd5b5061042a60048036038101906104259190614195565b611442565b6040516104379190615108565b60405180910390f35b34801561044c57600080fd5b506104676004803603810190610462919061438e565b611459565b6040516104749190615108565b60405180910390f35b34801561048957600080fd5b506104a4600480360381019061049f91906144b3565b611487565b005b3480156104b257600080fd5b506104cd60048036038101906104c8919061444e565b6119ed565b6040516104da9190614ba2565b60405180910390f35b3480156104ef57600080fd5b5061050a6004803603810190610505919061444e565b611a9f565b6040516105179190614c46565b60405180910390f35b34801561052c57600080fd5b506105476004803603810190610542919061444e565b611ab7565b6040516105549190614c46565b60405180910390f35b34801561056957600080fd5b50610572611b57565b60405161057f9190614c46565b60405180910390f35b34801561059457600080fd5b506105af60048036038101906105aa9190614195565b611be5565b005b3480156105bd57600080fd5b506105d860048036038101906105d39190614195565b611ea8565b6040516105e59190615108565b60405180910390f35b3480156105fa57600080fd5b506106156004803603810190610610919061444e565b611f60565b60405161062b9a99989796959493929190615123565b60405180910390f35b34801561064057600080fd5b5061064961213e565b6040516106569190614c46565b60405180910390f35b34801561066b57600080fd5b50610686600480360381019061068191906142c4565b6121d0565b005b34801561069457600080fd5b506106af60048036038101906106aa919061444e565b6121e6565b005b3480156106bd57600080fd5b506106d860048036038101906106d3919061438e565b612776565b6040516106e59190614c2b565b60405180910390f35b3480156106fa57600080fd5b506107156004803603810190610710919061444e565b6127ac565b6040516107229190614ba2565b60405180910390f35b34801561073757600080fd5b50610752600480360381019061074d9190614249565b6127be565b005b34801561076057600080fd5b5061077b6004803603810190610776919061444e565b612820565b6040516107889190614c46565b60405180910390f35b34801561079d57600080fd5b506107a661290d565b6040516107b39190615108565b60405180910390f35b3480156107c857600080fd5b506107e360048036038101906107de91906143cf565b612921565b6040516107f09190615108565b60405180910390f35b34801561080557600080fd5b50610820600480360381019061081b9190614477565b612db7565b005b34801561082e57600080fd5b50610837612e42565b6040516108449190614c46565b60405180910390f35b34801561085957600080fd5b50610874600480360381019061086f91906141be565b612ed0565b6040516108819190614c2b565b60405180910390f35b34801561089657600080fd5b506108b160048036038101906108ac91906144ef565b612f64565b005b60007f80ac58cd000000000000000000000000000000000000000000000000000000007bffffffffffffffffffffffffffffffffffffffffffffffffffffffff1916827bffffffffffffffffffffffffffffffffffffffffffffffffffffffff1916148061097e57507f5b5e139f000000000000000000000000000000000000000000000000000000007bffffffffffffffffffffffffffffffffffffffffffffffffffffffff1916827bffffffffffffffffffffffffffffffffffffffffffffffffffffffff1916145b8061098e575061098d82612f93565b5b9050919050565b6060600080546109a49061542f565b80601f01602080910402602001604051908101604052809291908181526020018280546109d09061542f565b8015610a1d5780601f106109f257610100808354040283529160200191610a1d565b820191906000526020600020905b815481529060010190602001808311610a0057829003601f168201915b5050505050905090565b6000610a3282612ffd565b610a71576040517f08c379a0000000000000000000000000000000000000000000000000000000008152600401610a6890614f28565b60405180910390fd5b6004600083815260200190815260200160002060009054906101000a900473ffffffffffffffffffffffffffffffffffffffff169050919050565b6000610ab7826119ed565b90508073ffffffffffffffffffffffffffffffffffffffff168373ffffffffffffffffffffffffffffffffffffffff161415610b28576040517f08c379a0000000000000000000000000000000000000000000000000000000008152600401610b1f90614f88565b60405180910390fd5b8073ffffffffffffffffffffffffffffffffffffffff16610b47613069565b73ffffffffffffffffffffffffffffffffffffffff161480610b765750610b7581610b70613069565b612ed0565b5b610bb5576040517f08c379a0000000000000000000000000000000000000000000000000000000008152600401610bac90614e48565b60405180910390fd5b610bbf8383613071565b505050565b600080610bd083612ffd565b905080915050919050565b6000610be7600a61312a565b905090565b610bfd610bf7613069565b82613138565b610c3c576040517f08c379a0000000000000000000000000000000000000000000000000000000008152600401610c3390614fe8565b60405180910390fd5b610c47838383613216565b505050565b600073ffffffffffffffffffffffffffffffffffffffff163373ffffffffffffffffffffffffffffffffffffffff161415610cbc576040517f08c379a0000000000000000000000000000000000000000000000000000000008152600401610cb390614fc8565b60405180910390fd5b610cc581612ffd565b610d04576040517f08c379a0000000000000000000000000000000000000000000000000000000008152600401610cfb90614e88565b60405180910390fd5b6000610d0f826119ed565b9050600073ffffffffffffffffffffffffffffffffffffffff168173ffffffffffffffffffffffffffffffffffffffff161415610d81576040517f08c379a0000000000000000000000000000000000000000000000000000000008152600401610d7890614f68565b60405180910390fd5b3373ffffffffffffffffffffffffffffffffffffffff168173ffffffffffffffffffffffffffffffffffffffff161415610df0576040517f08c379a0000000000000000000000000000000000000000000000000000000008152600401610de790614c88565b60405180910390fd5b6000600d60008481526020019081526020016000206040518061014001604052908160008201548152602001600182018054610e2b9061542f565b80601f0160208091040260200160405190810160405280929190818152602001828054610e579061542f565b8015610ea45780601f10610e7957610100808354040283529160200191610ea4565b820191906000526020600020905b815481529060010190602001808311610e8757829003601f168201915b50505050508152602001600282018054610ebd9061542f565b80601f0160208091040260200160405190810160405280929190818152602001828054610ee99061542f565b8015610f365780601f10610f0b57610100808354040283529160200191610f36565b820191906000526020600020905b815481529060010190602001808311610f1957829003601f168201915b505050505081526020016003820160009054906101000a900473ffffffffffffffffffffffffffffffffffffffff1673ffffffffffffffffffffffffffffffffffffffff1673ffffffffffffffffffffffffffffffffffffffff1681526020016004820160009054906101000a900473ffffffffffffffffffffffffffffffffffffffff1673ffffffffffffffffffffffffffffffffffffffff1673ffffffffffffffffffffffffffffffffffffffff1681526020016005820160009054906101000a900473ffffffffffffffffffffffffffffffffffffffff1673ffffffffffffffffffffffffffffffffffffffff1673ffffffffffffffffffffffffffffffffffffffff16815260200160068201548152602001600782015481526020016008820160009054906101000a900460ff161515151581526020016008820160019054906101000a900460ff16151515158152505090508060c001513410156110d4576040517f08c379a00000000000000000000000000000000000000000000000000000000081526004016110cb90615068565b60405180910390fd5b806101000151611119576040517f08c379a0000000000000000000000000000000000000000000000000000000008152600401611110906150e8565b60405180910390fd5b611124823385613216565b6000816080015190508073ffffffffffffffffffffffffffffffffffffffff166108fc349081150290604051600060405180830381858888f19350505050158015611173573d6000803e3d6000fd5b5081608001518260a0019073ffffffffffffffffffffffffffffffffffffffff16908173ffffffffffffffffffffffffffffffffffffffff168152505033826080019073ffffffffffffffffffffffffffffffffffffffff16908173ffffffffffffffffffffffffffffffffffffffff168152505060018260e0018181516111fb91906152d0565b9150818152505081600d600086815260200190815260200160002060008201518160000155602082015181600101908051906020019061123c929190613fa4565b506040820151816002019080519060200190611259929190613fa4565b5060608201518160030160006101000a81548173ffffffffffffffffffffffffffffffffffffffff021916908373ffffffffffffffffffffffffffffffffffffffff16021790555060808201518160040160006101000a81548173ffffffffffffffffffffffffffffffffffffffff021916908373ffffffffffffffffffffffffffffffffffffffff16021790555060a08201518160050160006101000a81548173ffffffffffffffffffffffffffffffffffffffff021916908373ffffffffffffffffffffffffffffffffffffffff16021790555060c0820151816006015560e082015181600701556101008201518160080160006101000a81548160ff0219169083151502179055506101208201518160080160016101000a81548160ff02191690831515021790555090505050505050565b600c5481565b6060600680548060200260200160405190810160405280929190818152602001828054801561141857602002820191906000526020600020905b8160009054906101000a900473ffffffffffffffffffffffffffffffffffffffff1673ffffffffffffffffffffffffffffffffffffffff16815260200190600101908083116113ce575b5050505050905090565b61143d838383604051806020016040528060008152506127be565b505050565b60008061144e83611ea8565b905080915050919050565b6010818051602081018201805184825260208301602085012081835280955050505050506000915090505481565b600073ffffffffffffffffffffffffffffffffffffffff163373ffffffffffffffffffffffffffffffffffffffff1614156114f7576040517f08c379a00000000000000000000000000000000000000000000000000000000081526004016114ee90615088565b60405180910390fd5b61150082612ffd565b61153f576040517f08c379a000000000000000000000000000000000000000000000000000000000815260040161153690615028565b60405180910390fd5b600061154a836119ed565b90503373ffffffffffffffffffffffffffffffffffffffff168173ffffffffffffffffffffffffffffffffffffffff16146115ba576040517f08c379a00000000000000000000000000000000000000000000000000000000081526004016115b1906150a8565b60405180910390fd5b6000600d600085815260200190815260200160002060405180610140016040529081600082015481526020016001820180546115f59061542f565b80601f01602080910402602001604051908101604052809291908181526020018280546116219061542f565b801561166e5780601f106116435761010080835404028352916020019161166e565b820191906000526020600020905b81548152906001019060200180831161165157829003601f168201915b505050505081526020016002820180546116879061542f565b80601f01602080910402602001604051908101604052809291908181526020018280546116b39061542f565b80156117005780601f106116d557610100808354040283529160200191611700565b820191906000526020600020905b8154815290600101906020018083116116e357829003601f168201915b505050505081526020016003820160009054906101000a900473ffffffffffffffffffffffffffffffffffffffff1673ffffffffffffffffffffffffffffffffffffffff1673ffffffffffffffffffffffffffffffffffffffff1681526020016004820160009054906101000a900473ffffffffffffffffffffffffffffffffffffffff1673ffffffffffffffffffffffffffffffffffffffff1673ffffffffffffffffffffffffffffffffffffffff1681526020016005820160009054906101000a900473ffffffffffffffffffffffffffffffffffffffff1673ffffffffffffffffffffffffffffffffffffffff1673ffffffffffffffffffffffffffffffffffffffff16815260200160068201548152602001600782015481526020016008820160009054906101000a900460ff161515151581526020016008820160019054906101000a900460ff1615151515815250509050828160c001818152505080600d600086815260200190815260200160002060008201518160000155602082015181600101908051906020019061189b929190613fa4565b5060408201518160020190805190602001906118b8929190613fa4565b5060608201518160030160006101000a81548173ffffffffffffffffffffffffffffffffffffffff021916908373ffffffffffffffffffffffffffffffffffffffff16021790555060808201518160040160006101000a81548173ffffffffffffffffffffffffffffffffffffffff021916908373ffffffffffffffffffffffffffffffffffffffff16021790555060a08201518160050160006101000a81548173ffffffffffffffffffffffffffffffffffffffff021916908373ffffffffffffffffffffffffffffffffffffffff16021790555060c0820151816006015560e082015181600701556101008201518160080160006101000a81548160ff0219169083151502179055506101208201518160080160016101000a81548160ff02191690831515021790555090505050505050565b6000806002600084815260200190815260200160002060009054906101000a900473ffffffffffffffffffffffffffffffffffffffff169050600073ffffffffffffffffffffffffffffffffffffffff168173ffffffffffffffffffffffffffffffffffffffff161415611a96576040517f08c379a0000000000000000000000000000000000000000000000000000000008152600401611a8d90614ea8565b60405180910390fd5b80915050919050565b60606000611aac83612820565b905080915050919050565b600e6020528060005260406000206000915090508054611ad69061542f565b80601f0160208091040260200160405190810160405280929190818152602001828054611b029061542f565b8015611b4f5780601f10611b2457610100808354040283529160200191611b4f565b820191906000526020600020905b815481529060010190602001808311611b3257829003601f168201915b505050505081565b60098054611b649061542f565b80601f0160208091040260200160405190810160405280929190818152602001828054611b909061542f565b8015611bdd5780601f10611bb257610100808354040283529160200191611bdd565b820191906000526020600020905b815481529060010190602001808311611bc057829003601f168201915b505050505081565b600073ffffffffffffffffffffffffffffffffffffffff16600760009054906101000a900473ffffffffffffffffffffffffffffffffffffffff1673ffffffffffffffffffffffffffffffffffffffff161415611c77576040517f08c379a0000000000000000000000000000000000000000000000000000000008152600401611c6e90614d88565b60405180910390fd5b600760009054906101000a900473ffffffffffffffffffffffffffffffffffffffff1673ffffffffffffffffffffffffffffffffffffffff163373ffffffffffffffffffffffffffffffffffffffff1614611d07576040517f08c379a0000000000000000000000000000000000000000000000000000000008152600401611cfe90614d68565b60405180910390fd5b80600073ffffffffffffffffffffffffffffffffffffffff168173ffffffffffffffffffffffffffffffffffffffff161415611d78576040517f08c379a0000000000000000000000000000000000000000000000000000000008152600401611d6f90614f48565b60405180910390fd5b60005b6006805490508160ff161015611e3f5760068160ff1681548110611dc8577f4e487b7100000000000000000000000000000000000000000000000000000000600052603260045260246000fd5b9060005260206000200160009054906101000a900473ffffffffffffffffffffffffffffffffffffffff1673ffffffffffffffffffffffffffffffffffffffff168373ffffffffffffffffffffffffffffffffffffffff161415611e2c5750611ea4565b8080611e3790615492565b915050611d7b565b506006829080600181540180825580915050600190039060005260206000200160009091909190916101000a81548173ffffffffffffffffffffffffffffffffffffffff021916908373ffffffffffffffffffffffffffffffffffffffff1602179055505b5050565b60008073ffffffffffffffffffffffffffffffffffffffff168273ffffffffffffffffffffffffffffffffffffffff161415611f19576040517f08c379a0000000000000000000000000000000000000000000000000000000008152600401611f1090614e68565b60405180910390fd5b600360008373ffffffffffffffffffffffffffffffffffffffff1673ffffffffffffffffffffffffffffffffffffffff168152602001908152602001600020549050919050565b600d602052806000526040600020600091509050806000015490806001018054611f899061542f565b80601f0160208091040260200160405190810160405280929190818152602001828054611fb59061542f565b80156120025780601f10611fd757610100808354040283529160200191612002565b820191906000526020600020905b815481529060010190602001808311611fe557829003601f168201915b5050505050908060020180546120179061542f565b80601f01602080910402602001604051908101604052809291908181526020018280546120439061542f565b80156120905780601f1061206557610100808354040283529160200191612090565b820191906000526020600020905b81548152906001019060200180831161207357829003601f168201915b5050505050908060030160009054906101000a900473ffffffffffffffffffffffffffffffffffffffff16908060040160009054906101000a900473ffffffffffffffffffffffffffffffffffffffff16908060050160009054906101000a900473ffffffffffffffffffffffffffffffffffffffff16908060060154908060070154908060080160009054906101000a900460ff16908060080160019054906101000a900460ff1690508a565b60606001805461214d9061542f565b80601f01602080910402602001604051908101604052809291908181526020018280546121799061542f565b80156121c65780601f1061219b576101008083540402835291602001916121c6565b820191906000526020600020905b8154815290600101906020018083116121a957829003601f168201915b5050505050905090565b6121e26121db613069565b838361347d565b5050565b600073ffffffffffffffffffffffffffffffffffffffff163373ffffffffffffffffffffffffffffffffffffffff161415612256576040517f08c379a000000000000000000000000000000000000000000000000000000000815260040161224d90614d48565b60405180910390fd5b61225f81612ffd565b61229e576040517f08c379a000000000000000000000000000000000000000000000000000000000815260040161229590614ee8565b60405180910390fd5b60006122a9826119ed565b90503373ffffffffffffffffffffffffffffffffffffffff168173ffffffffffffffffffffffffffffffffffffffff1614612319576040517f08c379a000000000000000000000000000000000000000000000000000000000815260040161231090614e28565b60405180910390fd5b6000600d600084815260200190815260200160002060405180610140016040529081600082015481526020016001820180546123549061542f565b80601f01602080910402602001604051908101604052809291908181526020018280546123809061542f565b80156123cd5780601f106123a2576101008083540402835291602001916123cd565b820191906000526020600020905b8154815290600101906020018083116123b057829003601f168201915b505050505081526020016002820180546123e69061542f565b80601f01602080910402602001604051908101604052809291908181526020018280546124129061542f565b801561245f5780601f106124345761010080835404028352916020019161245f565b820191906000526020600020905b81548152906001019060200180831161244257829003601f168201915b505050505081526020016003820160009054906101000a900473ffffffffffffffffffffffffffffffffffffffff1673ffffffffffffffffffffffffffffffffffffffff1673ffffffffffffffffffffffffffffffffffffffff1681526020016004820160009054906101000a900473ffffffffffffffffffffffffffffffffffffffff1673ffffffffffffffffffffffffffffffffffffffff1673ffffffffffffffffffffffffffffffffffffffff1681526020016005820160009054906101000a900473ffffffffffffffffffffffffffffffffffffffff1673ffffffffffffffffffffffffffffffffffffffff1673ffffffffffffffffffffffffffffffffffffffff16815260200160068201548152602001600782015481526020016008820160009054906101000a900460ff161515151581526020016008820160019054906101000a900460ff1615151515815250509050806101000151156125d8576000816101000190151590811515815250506125eb565b6001816101000190151590811515815250505b80600d6000858152602001908152602001600020600082015181600001556020820151816001019080519060200190612625929190613fa4565b506040820151816002019080519060200190612642929190613fa4565b5060608201518160030160006101000a81548173ffffffffffffffffffffffffffffffffffffffff021916908373ffffffffffffffffffffffffffffffffffffffff16021790555060808201518160040160006101000a81548173ffffffffffffffffffffffffffffffffffffffff021916908373ffffffffffffffffffffffffffffffffffffffff16021790555060a08201518160050160006101000a81548173ffffffffffffffffffffffffffffffffffffffff021916908373ffffffffffffffffffffffffffffffffffffffff16021790555060c0820151816006015560e082015181600701556101008201518160080160006101000a81548160ff0219169083151502179055506101208201518160080160016101000a81548160ff021916908315150217905550905050505050565b600f818051602081018201805184825260208301602085012081835280955050505050506000915054906101000a900460ff1681565b60006127b7826119ed565b9050919050565b6127cf6127c9613069565b83613138565b61280e576040517f08c379a000000000000000000000000000000000000000000000000000000000815260040161280590614fe8565b60405180910390fd5b61281a848484846135ea565b50505050565b606061282b82612ffd565b61286a576040517f08c379a000000000000000000000000000000000000000000000000000000000815260040161286190614f08565b60405180910390fd5b600e600083815260200190815260200160002080546128889061542f565b80601f01602080910402602001604051908101604052809291908181526020018280546128b49061542f565b80156129015780601f106128d657610100808354040283529160200191612901565b820191906000526020600020905b8154815290600101906020018083116128e457829003601f168201915b50505050509050919050565b600080612918610bdb565b90508091505090565b60008073ffffffffffffffffffffffffffffffffffffffff163373ffffffffffffffffffffffffffffffffffffffff161415612992576040517f08c379a000000000000000000000000000000000000000000000000000000000815260040161298990614fa8565b60405180910390fd5b600b60009054906101000a900467ffffffffffffffff1667ffffffffffffffff168210156129f5576040517f08c379a00000000000000000000000000000000000000000000000000000000081526004016129ec90615048565b60405180910390fd5b6129ff600a613646565b6000612a0b600a61312a565b9050612a1681612ffd565b15612a56576040517f08c379a0000000000000000000000000000000000000000000000000000000008152600401612a4d906150c8565b60405180910390fd5b6000601085604051612a689190614b8b565b90815260200160405180910390205414612ab7576040517f08c379a0000000000000000000000000000000000000000000000000000000008152600401612aae90614d28565b60405180910390fd5b600f85604051612ac79190614b8b565b908152602001604051809103902060009054906101000a900460ff1615612b23576040517f08c379a0000000000000000000000000000000000000000000000000000000008152600401612b1a90614ca8565b60405180910390fd5b612b2d338261365c565b612b378185613836565b80601085604051612b489190614b8b565b9081526020016040518091039020819055506001600f86604051612b6c9190614b8b565b908152602001604051809103902060006101000a81548160ff02191690831515021790555060006040518061014001604052808381526020018781526020018681526020013373ffffffffffffffffffffffffffffffffffffffff1681526020013373ffffffffffffffffffffffffffffffffffffffff168152602001600073ffffffffffffffffffffffffffffffffffffffff1681526020018581526020016000815260200160011515815260200160001515815250905080600d6000848152602001908152602001600020600082015181600001556020820151816001019080519060200190612c5f929190613fa4565b506040820151816002019080519060200190612c7c929190613fa4565b5060608201518160030160006101000a81548173ffffffffffffffffffffffffffffffffffffffff021916908373ffffffffffffffffffffffffffffffffffffffff16021790555060808201518160040160006101000a81548173ffffffffffffffffffffffffffffffffffffffff021916908373ffffffffffffffffffffffffffffffffffffffff16021790555060a08201518160050160006101000a81548173ffffffffffffffffffffffffffffffffffffffff021916908373ffffffffffffffffffffffffffffffffffffffff16021790555060c0820151816006015560e082015181600701556101008201518160080160006101000a81548160ff0219169083151502179055506101208201518160080160016101000a81548160ff02191690831515021790555090505081925050509392505050565b6000600d60008481526020019081526020016000206000015411612e10576040517f08c379a0000000000000000000000000000000000000000000000000000000008152600401612e0790614de8565b60405180910390fd5b80600d600084815260200190815260200160002060080160016101000a81548160ff0219169083151502179055505050565b60088054612e4f9061542f565b80601f0160208091040260200160405190810160405280929190818152602001828054612e7b9061542f565b8015612ec85780601f10612e9d57610100808354040283529160200191612ec8565b820191906000526020600020905b815481529060010190602001808311612eab57829003601f168201915b505050505081565b6000600560008473ffffffffffffffffffffffffffffffffffffffff1673ffffffffffffffffffffffffffffffffffffffff16815260200190815260200160002060008373ffffffffffffffffffffffffffffffffffffffff1673ffffffffffffffffffffffffffffffffffffffff16815260200190815260200160002060009054906101000a900460ff16905092915050565b8060ff16600b60006101000a81548167ffffffffffffffff021916908367ffffffffffffffff16021790555050565b60007f01ffc9a7000000000000000000000000000000000000000000000000000000007bffffffffffffffffffffffffffffffffffffffffffffffffffffffff1916827bffffffffffffffffffffffffffffffffffffffffffffffffffffffff1916149050919050565b60008073ffffffffffffffffffffffffffffffffffffffff166002600084815260200190815260200160002060009054906101000a900473ffffffffffffffffffffffffffffffffffffffff1673ffffffffffffffffffffffffffffffffffffffff1614159050919050565b600033905090565b816004600083815260200190815260200160002060006101000a81548173ffffffffffffffffffffffffffffffffffffffff021916908373ffffffffffffffffffffffffffffffffffffffff160217905550808273ffffffffffffffffffffffffffffffffffffffff166130e4836119ed565b73ffffffffffffffffffffffffffffffffffffffff167f8c5be1e5ebec7d5bd14f71427d1e84f3dd0314c0f7b2291e5b200ac8c7c3b92560405160405180910390a45050565b600081600001549050919050565b600061314382612ffd565b613182576040517f08c379a000000000000000000000000000000000000000000000000000000000815260040161317990614e08565b60405180910390fd5b600061318d836119ed565b90508073ffffffffffffffffffffffffffffffffffffffff168473ffffffffffffffffffffffffffffffffffffffff1614806131fc57508373ffffffffffffffffffffffffffffffffffffffff166131e484610a27565b73ffffffffffffffffffffffffffffffffffffffff16145b8061320d575061320c8185612ed0565b5b91505092915050565b8273ffffffffffffffffffffffffffffffffffffffff16613236826119ed565b73ffffffffffffffffffffffffffffffffffffffff161461328c576040517f08c379a000000000000000000000000000000000000000000000000000000000815260040161328390614ce8565b60405180910390fd5b600073ffffffffffffffffffffffffffffffffffffffff168273ffffffffffffffffffffffffffffffffffffffff1614156132fc576040517f08c379a00000000000000000000000000000000000000000000000000000000081526004016132f390614da8565b60405180910390fd5b613307838383613862565b613312600082613071565b6001600360008573ffffffffffffffffffffffffffffffffffffffff1673ffffffffffffffffffffffffffffffffffffffff16815260200190815260200160002060008282546133629190615326565b925050819055506001600360008473ffffffffffffffffffffffffffffffffffffffff1673ffffffffffffffffffffffffffffffffffffffff16815260200190815260200160002060008282546133b991906152d0565b92505081905550816002600083815260200190815260200160002060006101000a81548173ffffffffffffffffffffffffffffffffffffffff021916908373ffffffffffffffffffffffffffffffffffffffff160217905550808273ffffffffffffffffffffffffffffffffffffffff168473ffffffffffffffffffffffffffffffffffffffff167fddf252ad1be2c89b69c2b068fc378daa952ba7f163c4a11628f55a4df523b3ef60405160405180910390a4613478838383613867565b505050565b8173ffffffffffffffffffffffffffffffffffffffff168373ffffffffffffffffffffffffffffffffffffffff1614156134ec576040517f08c379a00000000000000000000000000000000000000000000000000000000081526004016134e390614dc8565b60405180910390fd5b80600560008573ffffffffffffffffffffffffffffffffffffffff1673ffffffffffffffffffffffffffffffffffffffff16815260200190815260200160002060008473ffffffffffffffffffffffffffffffffffffffff1673ffffffffffffffffffffffffffffffffffffffff16815260200190815260200160002060006101000a81548160ff0219169083151502179055508173ffffffffffffffffffffffffffffffffffffffff168373ffffffffffffffffffffffffffffffffffffffff167f17307eab39ab6107e8899845ad3d59bd9653f200f220920489ca2b5937696c31836040516135dd9190614c2b565b60405180910390a3505050565b6135f5848484613216565b61360184848484613dea565b613640576040517f08c379a000000000000000000000000000000000000000000000000000000000815260040161363790614cc8565b60405180910390fd5b50505050565b6001816000016000828254019250508190555050565b600073ffffffffffffffffffffffffffffffffffffffff168273ffffffffffffffffffffffffffffffffffffffff1614156136cc576040517f08c379a00000000000000000000000000000000000000000000000000000000081526004016136c390614ec8565b60405180910390fd5b6136d581612ffd565b15613715576040517f08c379a000000000000000000000000000000000000000000000000000000000815260040161370c90614d08565b60405180910390fd5b61372160008383613862565b6001600360008473ffffffffffffffffffffffffffffffffffffffff1673ffffffffffffffffffffffffffffffffffffffff168152602001908152602001600020600082825461377191906152d0565b92505081905550816002600083815260200190815260200160002060006101000a81548173ffffffffffffffffffffffffffffffffffffffff021916908373ffffffffffffffffffffffffffffffffffffffff160217905550808273ffffffffffffffffffffffffffffffffffffffff16600073ffffffffffffffffffffffffffffffffffffffff167fddf252ad1be2c89b69c2b068fc378daa952ba7f163c4a11628f55a4df523b3ef60405160405180910390a461383260008383613867565b5050565b80600e6000848152602001908152602001600020908051906020019061385d929190613fa4565b505050565b505050565b8173ffffffffffffffffffffffffffffffffffffffff16613887826119ed565b73ffffffffffffffffffffffffffffffffffffffff16146138dd576040517f08c379a00000000000000000000000000000000000000000000000000000000081526004016138d490615008565b60405180910390fd5b600073ffffffffffffffffffffffffffffffffffffffff168273ffffffffffffffffffffffffffffffffffffffff16141561394d576040517f08c379a000000000000000000000000000000000000000000000000000000000815260040161394490614c68565b60405180910390fd5b6000600d600083815260200190815260200160002060405180610140016040529081600082015481526020016001820180546139889061542f565b80601f01602080910402602001604051908101604052809291908181526020018280546139b49061542f565b8015613a015780601f106139d657610100808354040283529160200191613a01565b820191906000526020600020905b8154815290600101906020018083116139e457829003601f168201915b50505050508152602001600282018054613a1a9061542f565b80601f0160208091040260200160405190810160405280929190818152602001828054613a469061542f565b8015613a935780601f10613a6857610100808354040283529160200191613a93565b820191906000526020600020905b815481529060010190602001808311613a7657829003601f168201915b505050505081526020016003820160009054906101000a900473ffffffffffffffffffffffffffffffffffffffff1673ffffffffffffffffffffffffffffffffffffffff1673ffffffffffffffffffffffffffffffffffffffff1681526020016004820160009054906101000a900473ffffffffffffffffffffffffffffffffffffffff1673ffffffffffffffffffffffffffffffffffffffff1673ffffffffffffffffffffffffffffffffffffffff1681526020016005820160009054906101000a900473ffffffffffffffffffffffffffffffffffffffff1673ffffffffffffffffffffffffffffffffffffffff1673ffffffffffffffffffffffffffffffffffffffff16815260200160068201548152602001600782015481526020016008820160009054906101000a900460ff161515151581526020016008820160019054906101000a900460ff161515151581525050905080608001518160a0019073ffffffffffffffffffffffffffffffffffffffff16908173ffffffffffffffffffffffffffffffffffffffff168152505082816080019073ffffffffffffffffffffffffffffffffffffffff16908173ffffffffffffffffffffffffffffffffffffffff168152505080600d6000848152602001908152602001600020600082015181600001556020820151816001019080519060200190613c98929190613fa4565b506040820151816002019080519060200190613cb5929190613fa4565b5060608201518160030160006101000a81548173ffffffffffffffffffffffffffffffffffffffff021916908373ffffffffffffffffffffffffffffffffffffffff16021790555060808201518160040160006101000a81548173ffffffffffffffffffffffffffffffffffffffff021916908373ffffffffffffffffffffffffffffffffffffffff16021790555060a08201518160050160006101000a81548173ffffffffffffffffffffffffffffffffffffffff021916908373ffffffffffffffffffffffffffffffffffffffff16021790555060c0820151816006015560e082015181600701556101008201518160080160006101000a81548160ff0219169083151502179055506101208201518160080160016101000a81548160ff02191690831515021790555090505050505050565b6000613e0b8473ffffffffffffffffffffffffffffffffffffffff16613f81565b15613f74578373ffffffffffffffffffffffffffffffffffffffff1663150b7a02613e34613069565b8786866040518563ffffffff1660e01b8152600401613e569493929190614bbd565b602060405180830381600087803b158015613e7057600080fd5b505af1925050508015613ea157506040513d601f19601f82011682018060405250810190613e9e9190614365565b60015b613f24573d8060008114613ed1576040519150601f19603f3d011682016040523d82523d6000602084013e613ed6565b606091505b50600081511415613f1c576040517f08c379a0000000000000000000000000000000000000000000000000000000008152600401613f1390614cc8565b60405180910390fd5b805181602001fd5b63150b7a0260e01b7bffffffffffffffffffffffffffffffffffffffffffffffffffffffff1916817bffffffffffffffffffffffffffffffffffffffffffffffffffffffff191614915050613f79565b600190505b949350505050565b6000808273ffffffffffffffffffffffffffffffffffffffff163b119050919050565b828054613fb09061542f565b90600052602060002090601f016020900481019282613fd25760008555614019565b82601f10613feb57805160ff1916838001178555614019565b82800160010185558215614019579182015b82811115614018578251825591602001919060010190613ffd565b5b509050614026919061402a565b5090565b5b8082111561404357600081600090555060010161402b565b5090565b600061405a614055846151f2565b6151cd565b90508281526020810184848401111561407257600080fd5b61407d8482856153ed565b509392505050565b600061409861409384615223565b6151cd565b9050828152602081018484840111156140b057600080fd5b6140bb8482856153ed565b509392505050565b6000813590506140d281615f6f565b92915050565b6000813590506140e781615f86565b92915050565b6000813590506140fc81615f9d565b92915050565b60008151905061411181615f9d565b92915050565b600082601f83011261412857600080fd5b8135614138848260208601614047565b91505092915050565b600082601f83011261415257600080fd5b8135614162848260208601614085565b91505092915050565b60008135905061417a81615fb4565b92915050565b60008135905061418f81615fcb565b92915050565b6000602082840312156141a757600080fd5b60006141b5848285016140c3565b91505092915050565b600080604083850312156141d157600080fd5b60006141df858286016140c3565b92505060206141f0858286016140c3565b9150509250929050565b60008060006060848603121561420f57600080fd5b600061421d868287016140c3565b935050602061422e868287016140c3565b925050604061423f8682870161416b565b9150509250925092565b6000806000806080858703121561425f57600080fd5b600061426d878288016140c3565b945050602061427e878288016140c3565b935050604061428f8782880161416b565b925050606085013567ffffffffffffffff8111156142ac57600080fd5b6142b887828801614117565b91505092959194509250565b600080604083850312156142d757600080fd5b60006142e5858286016140c3565b92505060206142f6858286016140d8565b9150509250929050565b6000806040838503121561431357600080fd5b6000614321858286016140c3565b92505060206143328582860161416b565b9150509250929050565b60006020828403121561434e57600080fd5b600061435c848285016140ed565b91505092915050565b60006020828403121561437757600080fd5b600061438584828501614102565b91505092915050565b6000602082840312156143a057600080fd5b600082013567ffffffffffffffff8111156143ba57600080fd5b6143c684828501614141565b91505092915050565b6000806000606084860312156143e457600080fd5b600084013567ffffffffffffffff8111156143fe57600080fd5b61440a86828701614141565b935050602084013567ffffffffffffffff81111561442757600080fd5b61443386828701614141565b92505060406144448682870161416b565b9150509250925092565b60006020828403121561446057600080fd5b600061446e8482850161416b565b91505092915050565b6000806040838503121561448a57600080fd5b60006144988582860161416b565b92505060206144a9858286016140d8565b9150509250929050565b600080604083850312156144c657600080fd5b60006144d48582860161416b565b92505060206144e58582860161416b565b9150509250929050565b60006020828403121561450157600080fd5b600061450f84828501614180565b91505092915050565b6000614524838361453f565b60208301905092915050565b6145398161536c565b82525050565b6145488161535a565b82525050565b6145578161535a565b82525050565b600061456882615264565b6145728185615292565b935061457d83615254565b8060005b838110156145ae5781516145958882614518565b97506145a083615285565b925050600181019050614581565b5085935050505092915050565b6145c48161537e565b82525050565b60006145d58261526f565b6145df81856152a3565b93506145ef8185602086016153fc565b6145f881615549565b840191505092915050565b600061460e8261527a565b61461881856152b4565b93506146288185602086016153fc565b61463181615549565b840191505092915050565b60006146478261527a565b61465181856152c5565b93506146618185602086016153fc565b80840191505092915050565b600061467a6026836152b4565b91506146858261555a565b604082019050919050565b600061469d6027836152b4565b91506146a8826155a9565b604082019050919050565b60006146c06035836152b4565b91506146cb826155f8565b604082019050919050565b60006146e36032836152b4565b91506146ee82615647565b604082019050919050565b60006147066025836152b4565b915061471182615696565b604082019050919050565b6000614729601c836152b4565b9150614734826156e5565b602082019050919050565b600061474c6034836152b4565b91506147578261570e565b604082019050919050565b600061476f602e836152b4565b915061477a8261575d565b604082019050919050565b6000614792601e836152b4565b915061479d826157ac565b602082019050919050565b60006147b56017836152b4565b91506147c0826157d5565b602082019050919050565b60006147d86024836152b4565b91506147e3826157fe565b604082019050919050565b60006147fb6019836152b4565b91506148068261584d565b602082019050919050565b600061481e6010836152b4565b915061482982615876565b602082019050919050565b6000614841602c836152b4565b915061484c8261589f565b604082019050919050565b60006148646033836152b4565b915061486f826158ee565b604082019050919050565b60006148876038836152b4565b91506148928261593d565b604082019050919050565b60006148aa602a836152b4565b91506148b58261598c565b604082019050919050565b60006148cd6027836152b4565b91506148d8826159db565b604082019050919050565b60006148f06029836152b4565b91506148fb82615a2a565b604082019050919050565b60006149136020836152b4565b915061491e82615a79565b602082019050919050565b60006149366031836152b4565b915061494182615aa2565b604082019050919050565b60006149596022836152b4565b915061496482615af1565b604082019050919050565b600061497c602c836152b4565b915061498782615b40565b604082019050919050565b600061499f6019836152b4565b91506149aa82615b8f565b602082019050919050565b60006149c2602e836152b4565b91506149cd82615bb8565b604082019050919050565b60006149e56021836152b4565b91506149f082615c07565b604082019050919050565b6000614a086035836152b4565b9150614a1382615c56565b604082019050919050565b6000614a2b6029836152b4565b9150614a3682615ca5565b604082019050919050565b6000614a4e6031836152b4565b9150614a5982615cf4565b604082019050919050565b6000614a716027836152b4565b9150614a7c82615d43565b604082019050919050565b6000614a946034836152b4565b9150614a9f82615d92565b604082019050919050565b6000614ab7600f836152b4565b9150614ac282615de1565b602082019050919050565b6000614ada601c836152b4565b9150614ae582615e0a565b602082019050919050565b6000614afd6031836152b4565b9150614b0882615e33565b604082019050919050565b6000614b206036836152b4565b9150614b2b82615e82565b604082019050919050565b6000614b436033836152b4565b9150614b4e82615ed1565b604082019050919050565b6000614b666024836152b4565b9150614b7182615f20565b604082019050919050565b614b85816153d6565b82525050565b6000614b97828461463c565b915081905092915050565b6000602082019050614bb7600083018461454e565b92915050565b6000608082019050614bd2600083018761454e565b614bdf602083018661454e565b614bec6040830185614b7c565b8181036060830152614bfe81846145ca565b905095945050505050565b60006020820190508181036000830152614c23818461455d565b905092915050565b6000602082019050614c4060008301846145bb565b92915050565b60006020820190508181036000830152614c608184614603565b905092915050565b60006020820190508181036000830152614c818161466d565b9050919050565b60006020820190508181036000830152614ca181614690565b9050919050565b60006020820190508181036000830152614cc1816146b3565b9050919050565b60006020820190508181036000830152614ce1816146d6565b9050919050565b60006020820190508181036000830152614d01816146f9565b9050919050565b60006020820190508181036000830152614d218161471c565b9050919050565b60006020820190508181036000830152614d418161473f565b9050919050565b60006020820190508181036000830152614d6181614762565b9050919050565b60006020820190508181036000830152614d8181614785565b9050919050565b60006020820190508181036000830152614da1816147a8565b9050919050565b60006020820190508181036000830152614dc1816147cb565b9050919050565b60006020820190508181036000830152614de1816147ee565b9050919050565b60006020820190508181036000830152614e0181614811565b9050919050565b60006020820190508181036000830152614e2181614834565b9050919050565b60006020820190508181036000830152614e4181614857565b9050919050565b60006020820190508181036000830152614e618161487a565b9050919050565b60006020820190508181036000830152614e818161489d565b9050919050565b60006020820190508181036000830152614ea1816148c0565b9050919050565b60006020820190508181036000830152614ec1816148e3565b9050919050565b60006020820190508181036000830152614ee181614906565b9050919050565b60006020820190508181036000830152614f0181614929565b9050919050565b60006020820190508181036000830152614f218161494c565b9050919050565b60006020820190508181036000830152614f418161496f565b9050919050565b60006020820190508181036000830152614f6181614992565b9050919050565b60006020820190508181036000830152614f81816149b5565b9050919050565b60006020820190508181036000830152614fa1816149d8565b9050919050565b60006020820190508181036000830152614fc1816149fb565b9050919050565b60006020820190508181036000830152614fe181614a1e565b9050919050565b6000602082019050818103600083015261500181614a41565b9050919050565b6000602082019050818103600083015261502181614a64565b9050919050565b6000602082019050818103600083015261504181614a87565b9050919050565b6000602082019050818103600083015261506181614aaa565b9050919050565b6000602082019050818103600083015261508181614acd565b9050919050565b600060208201905081810360008301526150a181614af0565b9050919050565b600060208201905081810360008301526150c181614b13565b9050919050565b600060208201905081810360008301526150e181614b36565b9050919050565b6000602082019050818103600083015261510181614b59565b9050919050565b600060208201905061511d6000830184614b7c565b92915050565b600061014082019050615139600083018d614b7c565b818103602083015261514b818c614603565b9050818103604083015261515f818b614603565b905061516e606083018a614530565b61517b6080830189614530565b61518860a0830188614530565b61519560c0830187614b7c565b6151a260e0830186614b7c565b6151b06101008301856145bb565b6151be6101208301846145bb565b9b9a5050505050505050505050565b60006151d76151e8565b90506151e38282615461565b919050565b6000604051905090565b600067ffffffffffffffff82111561520d5761520c61551a565b5b61521682615549565b9050602081019050919050565b600067ffffffffffffffff82111561523e5761523d61551a565b5b61524782615549565b9050602081019050919050565b6000819050602082019050919050565b600081519050919050565b600081519050919050565b600081519050919050565b6000602082019050919050565b600082825260208201905092915050565b600082825260208201905092915050565b600082825260208201905092915050565b600081905092915050565b60006152db826153d6565b91506152e6836153d6565b9250827fffffffffffffffffffffffffffffffffffffffffffffffffffffffffffffffff0382111561531b5761531a6154bc565b5b828201905092915050565b6000615331826153d6565b915061533c836153d6565b92508282101561534f5761534e6154bc565b5b828203905092915050565b6000615365826153b6565b9050919050565b6000615377826153b6565b9050919050565b60008115159050919050565b60007fffffffff0000000000000000000000000000000000000000000000000000000082169050919050565b600073ffffffffffffffffffffffffffffffffffffffff82169050919050565b6000819050919050565b600060ff82169050919050565b82818337600083830152505050565b60005b8381101561541a5780820151818401526020810190506153ff565b83811115615429576000848401525b50505050565b6000600282049050600182168061544757607f821691505b6020821081141561545b5761545a6154eb565b5b50919050565b61546a82615549565b810181811067ffffffffffffffff821117156154895761548861551a565b5b80604052505050565b600061549d826153e0565b915060ff8214156154b1576154b06154bc565b5b600182019050919050565b7f4e487b7100000000000000000000000000000000000000000000000000000000600052601160045260246000fd5b7f4e487b7100000000000000000000000000000000000000000000000000000000600052602260045260246000fd5b7f4e487b7100000000000000000000000000000000000000000000000000000000600052604160045260246000fd5b6000601f19601f8301169050919050565b7f5061776e4e4654733a207472616e7366657220746f20746865207a65726f206160008201527f6464726573730000000000000000000000000000000000000000000000000000602082015250565b7f627579546f6b656e28293a204572726f723a20627579657220697320746f6b6560008201527f6e206f776e657200000000000000000000000000000000000000000000000000602082015250565b7f5061776e4e4654732e6d696e745061776e4e465428293a2054686520746f6b6560008201527f6e206e616d6520616c7265616479206578697374730000000000000000000000602082015250565b7f4552433732313a207472616e7366657220746f206e6f6e20455243373231526560008201527f63656976657220696d706c656d656e7465720000000000000000000000000000602082015250565b7f4552433732313a207472616e736665722066726f6d20696e636f72726563742060008201527f6f776e6572000000000000000000000000000000000000000000000000000000602082015250565b7f4552433732313a20746f6b656e20616c7265616479206d696e74656400000000600082015250565b7f5061776e4e4654732e6d696e745061776e4e465428293a2054686520746f6b6560008201527f6e2055524920616c726561647920657869737473000000000000000000000000602082015250565b7f746f67676c65466f7253616c6528293a204572726f723a2063616c6c6572206f60008201527f66207a65726f2061646472657373000000000000000000000000000000000000602082015250565b7f466f722063616c6c65722065787065637465642062652063726561746f720000600082015250565b7f496e76616c69642063726561746f722061646472657373000000000000000000600082015250565b7f4552433732313a207472616e7366657220746f20746865207a65726f2061646460008201527f7265737300000000000000000000000000000000000000000000000000000000602082015250565b7f4552433732313a20617070726f766520746f2063616c6c657200000000000000600082015250565b7f496e76616c696420746f6b656e20696400000000000000000000000000000000600082015250565b7f4552433732313a206f70657261746f7220717565727920666f72206e6f6e657860008201527f697374656e7420746f6b656e0000000000000000000000000000000000000000602082015250565b7f746f67676c65466f7253616c6528293a204572726f723a206f776e657220646960008201527f66666572656e74207468616e2063616c6c657200000000000000000000000000602082015250565b7f4552433732313a20617070726f76652063616c6c6572206973206e6f74206f7760008201527f6e6572206e6f7220617070726f76656420666f7220616c6c0000000000000000602082015250565b7f4552433732313a2062616c616e636520717565727920666f7220746865207a6560008201527f726f206164647265737300000000000000000000000000000000000000000000602082015250565b7f627579546f6b656e28293a2054686520746f6b656e20696420616c726561647960008201527f2065786973747300000000000000000000000000000000000000000000000000602082015250565b7f4552433732313a206f776e657220717565727920666f72206e6f6e657869737460008201527f656e7420746f6b656e0000000000000000000000000000000000000000000000602082015250565b7f4552433732313a206d696e7420746f20746865207a65726f2061646472657373600082015250565b7f746f67676c65466f7253616c6528293a20457870656374656420746f20746f6b60008201527f656e2065786973747320616c7265616479000000000000000000000000000000602082015250565b7f5061776e4e4654733a204572726f723a204e6f6e6578697374656e7420746f6b60008201527f656e000000000000000000000000000000000000000000000000000000000000602082015250565b7f4552433732313a20617070726f76656420717565727920666f72206e6f6e657860008201527f697374656e7420746f6b656e0000000000000000000000000000000000000000602082015250565b7f4578706563746564206e6f6e2d7a65726f206164647265737300000000000000600082015250565b7f627579546f6b656e28293a204572726f723a20746f6b656e206f776e6572206f60008201527f66207a65726f2061646472657373000000000000000000000000000000000000602082015250565b7f4552433732313a20617070726f76616c20746f2063757272656e74206f776e6560008201527f7200000000000000000000000000000000000000000000000000000000000000602082015250565b7f5061776e4e4654732e6d696e745061776e4e465428293a204572726f723a206360008201527f616c6c6572206f66207a65726f20616464726573730000000000000000000000602082015250565b7f627579546f6b656e28293a204572726f723a2063616c6c6572206f66207a657260008201527f6f20616464726573730000000000000000000000000000000000000000000000602082015250565b7f4552433732313a207472616e736665722063616c6c6572206973206e6f74206f60008201527f776e6572206e6f7220617070726f766564000000000000000000000000000000602082015250565b7f5061776e4e4654733a207472616e736665722066726f6d20696e636f7272656360008201527f74206f776e657200000000000000000000000000000000000000000000000000602082015250565b7f6368616e6765546f6b656e507269636528293a20457870656374656420746f2060008201527f746f6b656e2065786973747320616c7265616479000000000000000000000000602082015250565b7f546f6f20736d616c6c2070726963650000000000000000000000000000000000600082015250565b7f627579546f6b656e28293a204e6f7420656e6f7567682066756e647300000000600082015250565b7f6368616e6765546f6b656e507269636528293a204572726f723a2063616c6c6560008201527f72206f66207a65726f2061646472657373000000000000000000000000000000602082015250565b7f6368616e6765546f6b656e507269636528293a204572726f723a206f776e657260008201527f20646966666572656e74207468616e2063616c6c657200000000000000000000602082015250565b7f5061776e4e4654732e6d696e745061776e4e465428293a2054686520746f6b6560008201527f6e20696420616c72656164792065786973747300000000000000000000000000602082015250565b7f627579546f6b656e28293a20546f6b656e2073686f756c6420626520666f722060008201527f73616c6500000000000000000000000000000000000000000000000000000000602082015250565b615f788161535a565b8114615f8357600080fd5b50565b615f8f8161537e565b8114615f9a57600080fd5b50565b615fa68161538a565b8114615fb157600080fd5b50565b615fbd816153d6565b8114615fc857600080fd5b50565b615fd4816153e0565b8114615fdf57600080fd5b5056fea2646970667358221220d48d4d35555ff66bfe9e385c4811cf30cb614a623f0f1f7754bd735622643b3b64736f6c634300080400334f70656e636861696e205061776e696e67204e46547320436f6c6c656374696f6e",
  "immutableReferences": {},
  "source": "// SPDX-License-Identifier: MIT\npragma solidity ^0.8.0;\n\nimport \"@openzeppelin/contracts/utils/Counters.sol\";\nimport \"@openzeppelin/contracts/token/ERC721/ERC721.sol\";\nimport \"./AdministratedContract.sol\";\n\n// PawnNFTs smart contract inherits ERC721 interface\ncontract PawnNFTs is ERC721, AdministratedContract {\n\n  using Counters for Counters.Counter;\n\n  // this contract's token collection name\n  string public collectionName;\n  // this contract's token symbol\n  string public collectionNameSymbol;\n  // total number of pawning NFTs minted\n  Counters.Counter private pawnNFTCounter;\n\n  uint64          private minPnftPrice = 5000;\n\n  uint  public decimals = 0;\n  \n  // define pawning NFT struct\n   struct PawnNFT {\n    uint256 tokenId;\n    string tokenName;\n    string tokenURI;\n    address payable mintedBy;\n    address payable currentOwner;\n    address payable previousOwner;\n    uint256 price;\n    uint256 numberOfTransfers;\n    bool forSale;\n    bool mintedNativeToken;\n  }\n\n  // map pawnNft's token id to pawning NFT\n  mapping(uint256 => PawnNFT) public allPawnNFTs;\n  // \n  mapping(uint256 => string) public tokenURIs;\n  // check if token name exists\n  mapping(string => bool) public tokenNameExists;\n  // check if token URI exists\n  mapping(string => uint256) public tokenURIExists;\n\n  receive() external payable {}\n\n  // initialize contract while deployment with contract's collection name and token\n  constructor() ERC721(\"Openchain Pawning NFTs Collection\", \"PNFT\") {\n    collectionName = name();\n    collectionNameSymbol = symbol();\n  }\n\n  /**\n    * @dev Base URI for computing {tokenURI}. If set, the resulting URI for each\n    * token will be the concatenation of the `baseURI` and the `tokenId`. Empty\n    * by default, can be overriden in child contracts.\n    */\n  function tokenURI(uint256 tokenId) public view virtual override returns (string memory) {\n    require(_exists(tokenId), \"PawnNFTs: Error: Nonexistent token\");\n    // require(tokenURIs[tokenId] != 0, \"PawnNFTs: URI query for token without token URI\");\n    return tokenURIs[tokenId];\n  }\n  \n  function _setTokenURI(uint tokenId, string memory _tokenURI) internal {\n    tokenURIs[tokenId] = _tokenURI;\n  }\n\n  function totalSupply() public view returns(uint256) {\n    return pawnNFTCounter.current();\n  }\n\n  function setMinPnftPrice(uint8 _minPnftPrice) public \n  // callerMustBeAdmin \n  {\n      minPnftPrice = _minPnftPrice;\n  }\n\n\n  // mint a new pawning NFT and return token ID\n  function mintPawnNFT(string memory _name, string memory _tokenURI, uint256 _price) external returns(uint256) {\n    // check if thic fucntion caller is not an zero address account\n    require(msg.sender != address(0), \"PawnNFTs.mintPawnNFT(): Error: caller of zero address\");\n    require(_price >= minPnftPrice, \"Too small price\");\n\n    // increment counter\n    pawnNFTCounter.increment();\n    uint256 newTokenID = pawnNFTCounter.current();\n    // check if a token exists with the above token id => incremented counter\n    require(!_exists(newTokenID), \"PawnNFTs.mintPawnNFT(): The token id already exists\");\n\n    // check if the token URI already exists or not\n    require(tokenURIExists[_tokenURI] == 0, \"PawnNFTs.mintPawnNFT(): The token URI already exists\");\n    // check if the token name already exists or not\n    require(!tokenNameExists[_name], \"PawnNFTs.mintPawnNFT(): The token name already exists\");\n\n    // mint the token\n    _mint(msg.sender, newTokenID);\n    // set token URI (bind token id with the passed in token URI)\n    _setTokenURI(newTokenID, _tokenURI);\n\n    // make passed token URI as exists\n    tokenURIExists[_tokenURI] = newTokenID;\n    // make token name passed as exists\n    tokenNameExists[_name] = true;\n\n    // creat a new pawning NFT (struct) and pass in new values\n    PawnNFT memory newPawnNFT = PawnNFT(\n      newTokenID,\n      _name,\n      _tokenURI,\n      payable(msg.sender),\n      payable(msg.sender),\n      payable(address(0)),\n      _price,\n      0,\n      true,\n      false // mintedNativeToken\n    );\n    // add the token id and it's pawning NFT to all pawning NFTs mapping\n    allPawnNFTs[newTokenID] = newPawnNFT;\n    return newTokenID;\n  }\n\n  // get owner of the token\n  function getTokenOwner(uint256 _tokenId) public view returns(address) {\n    return ownerOf(_tokenId);\n  }\n\n  // get metadata of the token\n  function getTokenMetaData(uint _tokenId) public view returns(string memory) {\n    string memory tokenMetaData = tokenURI(_tokenId);\n    return tokenMetaData;\n  }\n\n  function setMintedNativeToken(uint256 _tokenId, bool _mintedNativeToken) public {\n    require(allPawnNFTs[_tokenId].tokenId > 0, \"Invalid token id\");\n    allPawnNFTs[_tokenId].mintedNativeToken = _mintedNativeToken;\n  }\n\n  // get total number of tokens minted so far\n  function getNumberOfTokensMinted() public view returns(uint256) {\n    uint256 totalNumberOfTokensMinted = totalSupply();\n    return totalNumberOfTokensMinted;\n  }\n\n  // get total number of tokens owned by an address\n  function getTotalNumberOfTokensOwnedByAnAddress(address _owner) public view returns(uint256) {\n    uint256 totalNumberOfTokensOwned = balanceOf(_owner);\n    return totalNumberOfTokensOwned;\n  }\n\n  // check if the token already exists\n  function getTokenExists(uint256 _tokenId) public view returns(bool) {\n    bool tokenExists = _exists(_tokenId);\n    return tokenExists;\n  }\n\n  // by a token by passing in the token's id\n  function buyToken(uint256 _tokenId) public payable {\n    // check if the function caller is not an zero account address\n    require(msg.sender != address(0), \"buyToken(): Error: caller of zero address\");\n    // check if the token id of the token being bought exists or not\n    require(_exists(_tokenId), \"buyToken(): The token id already exists\");\n    // get the token's owner\n    address tokenOwner = ownerOf(_tokenId);\n    // token's owner should not be an zero address account\n    require(tokenOwner != address(0), \"buyToken(): Error: token owner of zero address\");\n    // the one who wants to buy the token should not be the token's owner\n    require(tokenOwner != msg.sender, \"buyToken(): Error: buyer is token owner\");\n    // get that token from all pawning NFTs mapping and create a memory of it defined as (struct => PawnNFT)\n    PawnNFT memory pawnNft = allPawnNFTs[_tokenId];\n    // price sent in to buy should be equal to or more than the token's price\n    require(msg.value >= pawnNft.price, \"buyToken(): Not enough funds\");\n    // token should be for sale\n    require(pawnNft.forSale, \"buyToken(): Token should be for sale\");\n    // transfer the token from owner to the caller of the function (buyer)\n    _transfer(tokenOwner, msg.sender, _tokenId);\n    // get owner of the token\n    address payable sendTo = pawnNft.currentOwner;\n    // send token's worth of ethers to the owner\n    sendTo.transfer(msg.value);\n    // update the token's previous owner\n    pawnNft.previousOwner = pawnNft.currentOwner;\n    // update the token's current owner\n    pawnNft.currentOwner = payable(msg.sender);\n    // update the how many times this token was transfered\n    pawnNft.numberOfTransfers += 1;\n    // set and update that token in the mapping\n    allPawnNFTs[_tokenId] = pawnNft;\n  }\n\n  function _afterTokenTransfer(\n      address /*from*/,\n      address to,\n      uint256 tokenId\n  ) internal virtual override {\n    // Now the owner of the token ID is \"to\"\n    require(ERC721.ownerOf(tokenId) == to, \"PawnNFTs: transfer from incorrect owner\");\n    require(to != address(0), \"PawnNFTs: transfer to the zero address\");\n\n    // update token's owner\n    PawnNFT memory pawnNft = allPawnNFTs[tokenId];\n    // update the token's previous owner\n    pawnNft.previousOwner = pawnNft.currentOwner;\n    // update the token's current owner\n    pawnNft.currentOwner = payable(to);\n    // set and update that token in the mapping\n    allPawnNFTs[tokenId] = pawnNft;\n  }\n\n  function changeTokenPrice(uint256 _tokenId, uint256 _newPrice) public {\n    // require caller of the function is not an empty address\n    require(msg.sender != address(0), \"changeTokenPrice(): Error: caller of zero address\");\n    // require that token should exist\n    require(_exists(_tokenId), \"changeTokenPrice(): Expected to token exists already\");\n    // get the token's owner\n    address tokenOwner = ownerOf(_tokenId);\n    // check that Owner different than caller\n    require(tokenOwner == msg.sender, \"changeTokenPrice(): Error: owner different than caller\");\n    // get that token from all pawning NFTs mapping and create a memory of it defined as (struct => PawnNFT)\n    PawnNFT memory pawnNft = allPawnNFTs[_tokenId];\n    // update token's price with new price\n    pawnNft.price = _newPrice;\n    // set and update that token in the mapping\n    allPawnNFTs[_tokenId] = pawnNft;\n  }\n\n  // switch between set for sale and set not for sale\n  function toggleForSale(uint256 _tokenId) public {\n    // require caller of the function is not an empty address\n    require(msg.sender != address(0), \"toggleForSale(): Error: caller of zero address\");\n    // require that token should exist\n    require(_exists(_tokenId), \"toggleForSale(): Expected to token exists already\");\n    // get the token's owner\n    address tokenOwner = ownerOf(_tokenId);\n    // check that Owner different than caller\n    require(tokenOwner == msg.sender, \"toggleForSale(): Error: owner different than caller\");\n    // get that token from all pawning NFTs mapping and create a memory of it defined as (struct => PawnNFT)\n    PawnNFT memory pawnNft = allPawnNFTs[_tokenId];\n    // if token's forSale is false make it true and vice versa\n    if(pawnNft.forSale) {\n      pawnNft.forSale = false;\n    } else {\n      pawnNft.forSale = true;\n    }\n    // set and update that token in the mapping\n    allPawnNFTs[_tokenId] = pawnNft;\n  }\n}\n",
  "sourcePath": "/home/cowboy/OpenchainTestVersion/server/contracts/PawnNFTs.sol",
  "compiler": {
    "name": "solc",
    "version": "0.8.4+commit.c7e474f2.Emscripten.clang"
  },
  "schemaVersion": "3.4.6",
  "updatedAt": "2022-04-13T08:46:29.884Z",
  "networkType": "ethereum",
  "devdoc": {
    "kind": "dev",
    "methods": {
      "approve(address,uint256)": {
        "details": "See {IERC721-approve}."
      },
      "balanceOf(address)": {
        "details": "See {IERC721-balanceOf}."
      },
      "getApproved(uint256)": {
        "details": "See {IERC721-getApproved}."
      },
      "isApprovedForAll(address,address)": {
        "details": "See {IERC721-isApprovedForAll}."
      },
      "name()": {
        "details": "See {IERC721Metadata-name}."
      },
      "ownerOf(uint256)": {
        "details": "See {IERC721-ownerOf}."
      },
      "safeTransferFrom(address,address,uint256)": {
        "details": "See {IERC721-safeTransferFrom}."
      },
      "safeTransferFrom(address,address,uint256,bytes)": {
        "details": "See {IERC721-safeTransferFrom}."
      },
      "setApprovalForAll(address,bool)": {
        "details": "See {IERC721-setApprovalForAll}."
      },
      "supportsInterface(bytes4)": {
        "details": "See {IERC165-supportsInterface}."
      },
      "symbol()": {
        "details": "See {IERC721Metadata-symbol}."
      },
      "tokenURI(uint256)": {
        "details": "Base URI for computing {tokenURI}. If set, the resulting URI for each token will be the concatenation of the `baseURI` and the `tokenId`. Empty by default, can be overriden in child contracts."
      },
      "transferFrom(address,address,uint256)": {
        "details": "See {IERC721-transferFrom}."
      }
    },
    "version": 1
  },
  "userdoc": {
    "kind": "user",
    "methods": {},
    "version": 1
  }
}