{
  "contractName": "PawnNFTs",
  "abi": [
    {
      "inputs": [],
      "stateMutability": "nonpayable",
      "type": "constructor"
    },
    {
      "anonymous": false,
      "inputs": [
        {
          "indexed": true,
          "internalType": "address",
          "name": "owner",
          "type": "address"
        },
        {
          "indexed": true,
          "internalType": "address",
          "name": "approved",
          "type": "address"
        },
        {
          "indexed": true,
          "internalType": "uint256",
          "name": "tokenId",
          "type": "uint256"
        }
      ],
      "name": "Approval",
      "type": "event"
    },
    {
      "anonymous": false,
      "inputs": [
        {
          "indexed": true,
          "internalType": "address",
          "name": "owner",
          "type": "address"
        },
        {
          "indexed": true,
          "internalType": "address",
          "name": "operator",
          "type": "address"
        },
        {
          "indexed": false,
          "internalType": "bool",
          "name": "approved",
          "type": "bool"
        }
      ],
      "name": "ApprovalForAll",
      "type": "event"
    },
    {
      "anonymous": false,
      "inputs": [
        {
          "indexed": true,
          "internalType": "address",
          "name": "from",
          "type": "address"
        },
        {
          "indexed": true,
          "internalType": "address",
          "name": "to",
          "type": "address"
        },
        {
          "indexed": true,
          "internalType": "uint256",
          "name": "tokenId",
          "type": "uint256"
        }
      ],
      "name": "Transfer",
      "type": "event"
    },
    {
      "inputs": [
        {
          "internalType": "address",
          "name": "_admin",
          "type": "address"
        }
      ],
      "name": "addAdmin",
      "outputs": [],
      "stateMutability": "nonpayable",
      "type": "function"
    },
    {
      "inputs": [
        {
          "internalType": "uint256",
          "name": "",
          "type": "uint256"
        }
      ],
      "name": "allPawnNFTs",
      "outputs": [
        {
          "internalType": "uint256",
          "name": "tokenId",
          "type": "uint256"
        },
        {
          "internalType": "string",
          "name": "tokenName",
          "type": "string"
        },
        {
          "internalType": "string",
          "name": "tokenURI",
          "type": "string"
        },
        {
          "internalType": "address payable",
          "name": "currentOwner",
          "type": "address"
        },
        {
          "internalType": "address payable",
          "name": "previousOwner",
          "type": "address"
        },
        {
          "internalType": "uint256",
          "name": "originalPrice",
          "type": "uint256"
        },
        {
          "internalType": "uint256",
          "name": "price",
          "type": "uint256"
        },
        {
          "internalType": "uint256",
          "name": "txCounter",
          "type": "uint256"
        },
        {
          "internalType": "bool",
          "name": "forSale",
          "type": "bool"
        },
        {
          "internalType": "uint256",
          "name": "mintedAt",
          "type": "uint256"
        }
      ],
      "stateMutability": "view",
      "type": "function",
      "constant": true
    },
    {
      "inputs": [
        {
          "internalType": "address",
          "name": "to",
          "type": "address"
        },
        {
          "internalType": "uint256",
          "name": "tokenId",
          "type": "uint256"
        }
      ],
      "name": "approve",
      "outputs": [],
      "stateMutability": "nonpayable",
      "type": "function"
    },
    {
      "inputs": [
        {
          "internalType": "address",
          "name": "owner",
          "type": "address"
        }
      ],
      "name": "balanceOf",
      "outputs": [
        {
          "internalType": "uint256",
          "name": "",
          "type": "uint256"
        }
      ],
      "stateMutability": "view",
      "type": "function",
      "constant": true
    },
    {
      "inputs": [
        {
          "internalType": "uint256",
          "name": "price",
          "type": "uint256"
        }
      ],
      "name": "convertToOcat",
      "outputs": [
        {
          "internalType": "uint256",
          "name": "_ocatPrice",
          "type": "uint256"
        }
      ],
      "stateMutability": "nonpayable",
      "type": "function"
    },
    {
      "inputs": [],
      "name": "decimals",
      "outputs": [
        {
          "internalType": "uint8",
          "name": "",
          "type": "uint8"
        }
      ],
      "stateMutability": "view",
      "type": "function",
      "constant": true
    },
    {
      "inputs": [
        {
          "internalType": "uint256",
          "name": "tokenId",
          "type": "uint256"
        }
      ],
      "name": "getApproved",
      "outputs": [
        {
          "internalType": "address",
          "name": "",
          "type": "address"
        }
      ],
      "stateMutability": "view",
      "type": "function",
      "constant": true
    },
    {
      "inputs": [
        {
          "internalType": "address",
          "name": "_address",
          "type": "address"
        }
      ],
      "name": "isAdmin",
      "outputs": [
        {
          "internalType": "bool",
          "name": "yes",
          "type": "bool"
        }
      ],
      "stateMutability": "view",
      "type": "function",
      "constant": true
    },
    {
      "inputs": [
        {
          "internalType": "address",
          "name": "owner",
          "type": "address"
        },
        {
          "internalType": "address",
          "name": "operator",
          "type": "address"
        }
      ],
      "name": "isApprovedForAll",
      "outputs": [
        {
          "internalType": "bool",
          "name": "",
          "type": "bool"
        }
      ],
      "stateMutability": "view",
      "type": "function",
      "constant": true
    },
    {
      "inputs": [],
      "name": "name",
      "outputs": [
        {
          "internalType": "string",
          "name": "",
          "type": "string"
        }
      ],
      "stateMutability": "view",
      "type": "function",
      "constant": true
    },
    {
      "inputs": [],
      "name": "ocatPrice",
      "outputs": [
        {
          "internalType": "uint256",
          "name": "",
          "type": "uint256"
        }
      ],
      "stateMutability": "view",
      "type": "function",
      "constant": true
    },
    {
      "inputs": [
        {
          "internalType": "uint256",
          "name": "tokenId",
          "type": "uint256"
        }
      ],
      "name": "ownerOf",
      "outputs": [
        {
          "internalType": "address",
          "name": "",
          "type": "address"
        }
      ],
      "stateMutability": "view",
      "type": "function",
      "constant": true
    },
    {
      "inputs": [
        {
          "internalType": "address",
          "name": "from",
          "type": "address"
        },
        {
          "internalType": "address",
          "name": "to",
          "type": "address"
        },
        {
          "internalType": "uint256",
          "name": "tokenId",
          "type": "uint256"
        }
      ],
      "name": "safeTransferFrom",
      "outputs": [],
      "stateMutability": "nonpayable",
      "type": "function"
    },
    {
      "inputs": [
        {
          "internalType": "address",
          "name": "from",
          "type": "address"
        },
        {
          "internalType": "address",
          "name": "to",
          "type": "address"
        },
        {
          "internalType": "uint256",
          "name": "tokenId",
          "type": "uint256"
        },
        {
          "internalType": "bytes",
          "name": "_data",
          "type": "bytes"
        }
      ],
      "name": "safeTransferFrom",
      "outputs": [],
      "stateMutability": "nonpayable",
      "type": "function"
    },
    {
      "inputs": [
        {
          "internalType": "enum CommonContracts",
          "name": "contractIndex",
          "type": "uint8"
        },
        {
          "internalType": "address payable",
          "name": "_address",
          "type": "address"
        }
      ],
      "name": "setAddress",
      "outputs": [],
      "stateMutability": "nonpayable",
      "type": "function"
    },
    {
      "inputs": [
        {
          "internalType": "address",
          "name": "operator",
          "type": "address"
        },
        {
          "internalType": "bool",
          "name": "approved",
          "type": "bool"
        }
      ],
      "name": "setApprovalForAll",
      "outputs": [],
      "stateMutability": "nonpayable",
      "type": "function"
    },
    {
      "inputs": [
        {
          "internalType": "uint256",
          "name": "price",
          "type": "uint256"
        }
      ],
      "name": "setOcatPrice",
      "outputs": [],
      "stateMutability": "nonpayable",
      "type": "function"
    },
    {
      "inputs": [
        {
          "internalType": "bytes4",
          "name": "interfaceId",
          "type": "bytes4"
        }
      ],
      "name": "supportsInterface",
      "outputs": [
        {
          "internalType": "bool",
          "name": "",
          "type": "bool"
        }
      ],
      "stateMutability": "view",
      "type": "function",
      "constant": true
    },
    {
      "inputs": [],
      "name": "symbol",
      "outputs": [
        {
          "internalType": "string",
          "name": "",
          "type": "string"
        }
      ],
      "stateMutability": "view",
      "type": "function",
      "constant": true
    },
    {
      "inputs": [
        {
          "internalType": "string",
          "name": "",
          "type": "string"
        }
      ],
      "name": "tokenNameExists",
      "outputs": [
        {
          "internalType": "bool",
          "name": "",
          "type": "bool"
        }
      ],
      "stateMutability": "view",
      "type": "function",
      "constant": true
    },
    {
      "inputs": [
        {
          "internalType": "uint256",
          "name": "tokenId",
          "type": "uint256"
        }
      ],
      "name": "tokenURI",
      "outputs": [
        {
          "internalType": "string",
          "name": "",
          "type": "string"
        }
      ],
      "stateMutability": "view",
      "type": "function",
      "constant": true
    },
    {
      "inputs": [
        {
          "internalType": "string",
          "name": "",
          "type": "string"
        }
      ],
      "name": "tokenURIExists",
      "outputs": [
        {
          "internalType": "uint256",
          "name": "",
          "type": "uint256"
        }
      ],
      "stateMutability": "view",
      "type": "function",
      "constant": true
    },
    {
      "inputs": [
        {
          "internalType": "address",
          "name": "from",
          "type": "address"
        },
        {
          "internalType": "address",
          "name": "to",
          "type": "address"
        },
        {
          "internalType": "uint256",
          "name": "tokenId",
          "type": "uint256"
        }
      ],
      "name": "transferFrom",
      "outputs": [],
      "stateMutability": "nonpayable",
      "type": "function"
    },
    {
      "stateMutability": "payable",
      "type": "receive",
      "payable": true
    },
    {
      "inputs": [
        {
          "internalType": "string",
          "name": "_name",
          "type": "string"
        },
        {
          "internalType": "string",
          "name": "_tokenURI",
          "type": "string"
        },
        {
          "internalType": "uint256",
          "name": "_price",
          "type": "uint256"
        }
      ],
      "name": "mint",
      "outputs": [
        {
          "internalType": "uint256",
          "name": "newTokenID",
          "type": "uint256"
        },
        {
          "internalType": "uint256",
          "name": "estimatedOcats",
          "type": "uint256"
        }
      ],
      "stateMutability": "nonpayable",
      "type": "function"
    },
    {
      "inputs": [
        {
          "internalType": "uint256",
          "name": "_tokenId",
          "type": "uint256"
        }
      ],
      "name": "getTokenOwner",
      "outputs": [
        {
          "internalType": "address",
          "name": "",
          "type": "address"
        }
      ],
      "stateMutability": "view",
      "type": "function",
      "constant": true
    },
    {
      "inputs": [
        {
          "internalType": "uint256",
          "name": "_tokenId",
          "type": "uint256"
        }
      ],
      "name": "getTokenMetaData",
      "outputs": [
        {
          "internalType": "string",
          "name": "tokenMetaData",
          "type": "string"
        }
      ],
      "stateMutability": "view",
      "type": "function",
      "constant": true
    },
    {
      "inputs": [
        {
          "internalType": "uint256",
          "name": "_tokenId",
          "type": "uint256"
        }
      ],
      "name": "exists",
      "outputs": [
        {
          "internalType": "bool",
          "name": "tokenExists",
          "type": "bool"
        }
      ],
      "stateMutability": "view",
      "type": "function",
      "constant": true
    },
    {
      "inputs": [
        {
          "internalType": "uint256",
          "name": "_tokenId",
          "type": "uint256"
        }
      ],
      "name": "buyToken",
      "outputs": [],
      "stateMutability": "payable",
      "type": "function",
      "payable": true
    },
    {
      "inputs": [
        {
          "internalType": "uint256",
          "name": "_tokenId",
          "type": "uint256"
        },
        {
          "internalType": "uint256",
          "name": "_newPrice",
          "type": "uint256"
        }
      ],
      "name": "changePrice",
      "outputs": [],
      "stateMutability": "nonpayable",
      "type": "function"
    },
    {
      "inputs": [
        {
          "internalType": "uint256",
          "name": "_tokenId",
          "type": "uint256"
        }
      ],
      "name": "toggleForSale",
      "outputs": [],
      "stateMutability": "nonpayable",
      "type": "function"
    }
  ],
  "bytecode": "0x60806040526000600b60006101000a81548160ff021916908360ff1602179055503480156200002d57600080fd5b506040518060400160405280601581526020017f4f70656e636861696e205061776e696e67204e465400000000000000000000008152506040518060400160405280600481526020017f504e4654000000000000000000000000000000000000000000000000000000008152508160009080519060200190620000b29291906200035f565b508060019080519060200190620000cb9291906200035f565b50505033600760016101000a81548173ffffffffffffffffffffffffffffffffffffffff021916908373ffffffffffffffffffffffffffffffffffffffff16021790555062000120336200012f60201b60201c565b6103e860088190555062000655565b600073ffffffffffffffffffffffffffffffffffffffff16600760019054906101000a900473ffffffffffffffffffffffffffffffffffffffff1673ffffffffffffffffffffffffffffffffffffffff161415620001c4576040517f08c379a0000000000000000000000000000000000000000000000000000000008152600401620001bb90620004a6565b60405180910390fd5b600760019054906101000a900473ffffffffffffffffffffffffffffffffffffffff1673ffffffffffffffffffffffffffffffffffffffff163373ffffffffffffffffffffffffffffffffffffffff161462000257576040517f08c379a00000000000000000000000000000000000000000000000000000000081526004016200024e9062000484565b60405180910390fd5b80600073ffffffffffffffffffffffffffffffffffffffff168173ffffffffffffffffffffffffffffffffffffffff161415620002cb576040517f08c379a0000000000000000000000000000000000000000000000000000000008152600401620002c290620004c8565b60405180910390fd5b6001600660008473ffffffffffffffffffffffffffffffffffffffff1673ffffffffffffffffffffffffffffffffffffffff16815260200190815260200160002060006101000a81548160ff0219169083151502179055506001600760009054906101000a900460ff16620003419190620004fb565b600760006101000a81548160ff021916908360ff1602179055505050565b8280546200036d9062000546565b90600052602060002090601f016020900481019282620003915760008555620003dd565b82601f10620003ac57805160ff1916838001178555620003dd565b82800160010185558215620003dd579182015b82811115620003dc578251825591602001919060010190620003bf565b5b509050620003ec9190620003f0565b5090565b5b808211156200040b576000816000905550600101620003f1565b5090565b60006200041e601e83620004ea565b91506200042b82620005da565b602082019050919050565b600062000445601783620004ea565b9150620004528262000603565b602082019050919050565b60006200046c601983620004ea565b915062000479826200062c565b602082019050919050565b600060208201905081810360008301526200049f816200040f565b9050919050565b60006020820190508181036000830152620004c18162000436565b9050919050565b60006020820190508181036000830152620004e3816200045d565b9050919050565b600082825260208201905092915050565b6000620005088262000539565b9150620005158362000539565b92508260ff038211156200052e576200052d6200057c565b5b828201905092915050565b600060ff82169050919050565b600060028204905060018216806200055f57607f821691505b60208210811415620005765762000575620005ab565b5b50919050565b7f4e487b7100000000000000000000000000000000000000000000000000000000600052601160045260246000fd5b7f4e487b7100000000000000000000000000000000000000000000000000000000600052602260045260246000fd5b7f466f722063616c6c65722065787065637465642062652063726561746f720000600082015250565b7f496e76616c69642063726561746f722061646472657373000000000000000000600082015250565b7f4578706563746564206e6f6e2d7a65726f206164647265737300000000000000600082015250565b6150da80620006656000396000f3fe6080604052600436106101d15760003560e01c806370a08231116100f7578063a7d9cfbc11610095578063c87b56dd11610064578063c87b56dd146106e7578063d41d9a2714610724578063dbcd958014610762578063e985e9c51461079f576101d8565b8063a7d9cfbc14610641578063b3de019c1461066c578063b88d4fde14610695578063bb3f6c6a146106be576101d8565b8063a22cb465116100d1578063a22cb46514610575578063a32018b91461059e578063a46b1fac146105c7578063a5cd761f14610604576101d8565b806370a08231146104c7578063717947b11461050457806395d89b411461054a576101d8565b80632d296bf11161016f5780634f558e791161013e5780634f558e79146103e75780636352211e1461042457806367c623cf14610461578063704802751461049e576101d8565b80632d296bf11461033a578063313ce5671461035657806342842e0e1461038157806343d32ae7146103aa576101d8565b8063081812fc116101ab578063081812fc1461026e578063095ea7b3146102ab57806323b872dd146102d457806324d7806c146102fd576101d8565b806301ffc9a7146101dd5780630589c4e51461021a57806306fdde0314610243576101d8565b366101d857005b600080fd5b3480156101e957600080fd5b5061020460048036038101906101ff9190613693565b6107dc565b6040516102119190613e59565b60405180910390f35b34801561022657600080fd5b50610241600480360381019061023c91906136e5565b6108be565b005b34801561024f57600080fd5b50610258610d7b565b6040516102659190613e74565b60405180910390f35b34801561027a57600080fd5b50610295600480360381019061029091906137e1565b610e0d565b6040516102a29190613df2565b60405180910390f35b3480156102b757600080fd5b506102d260048036038101906102cd9190613657565b610e92565b005b3480156102e057600080fd5b506102fb60048036038101906102f69190613551565b610faa565b005b34801561030957600080fd5b50610324600480360381019061031f91906134ec565b61100a565b6040516103319190613e59565b60405180910390f35b610354600480360381019061034f91906137e1565b611060565b005b34801561036257600080fd5b5061036b61132d565b6040516103789190614324565b60405180910390f35b34801561038d57600080fd5b506103a860048036038101906103a39190613551565b611340565b005b3480156103b657600080fd5b506103d160048036038101906103cc9190613721565b611360565b6040516103de9190614236565b60405180910390f35b3480156103f357600080fd5b5061040e600480360381019061040991906137e1565b61138e565b60405161041b9190613e59565b60405180910390f35b34801561043057600080fd5b5061044b600480360381019061044691906137e1565b6113a0565b6040516104589190613df2565b60405180910390f35b34801561046d57600080fd5b50610488600480360381019061048391906137e1565b611452565b6040516104959190613e74565b60405180910390f35b3480156104aa57600080fd5b506104c560048036038101906104c091906134ec565b611464565b005b3480156104d357600080fd5b506104ee60048036038101906104e991906134ec565b611689565b6040516104fb9190614236565b60405180910390f35b34801561051057600080fd5b5061052b600480360381019061052691906137e1565b611741565b6040516105419a99989796959493929190614251565b60405180910390f35b34801561055657600080fd5b5061055f6118f2565b60405161056c9190613e74565b60405180910390f35b34801561058157600080fd5b5061059c6004803603810190610597919061361b565b611984565b005b3480156105aa57600080fd5b506105c560048036038101906105c091906137e1565b61199a565b005b3480156105d357600080fd5b506105ee60048036038101906105e99190613721565b611aaf565b6040516105fb9190613e59565b60405180910390f35b34801561061057600080fd5b5061062b600480360381019061062691906137e1565b611ae5565b6040516106389190613df2565b60405180910390f35b34801561064d57600080fd5b50610656611af7565b6040516106639190614236565b60405180910390f35b34801561067857600080fd5b50610693600480360381019061068e919061380a565b611afd565b005b3480156106a157600080fd5b506106bc60048036038101906106b791906135a0565b611c18565b005b3480156106ca57600080fd5b506106e560048036038101906106e091906137e1565b611c7a565b005b3480156106f357600080fd5b5061070e600480360381019061070991906137e1565b611c84565b60405161071b9190613e74565b60405180910390f35b34801561073057600080fd5b5061074b60048036038101906107469190613762565b611d2b565b6040516107599291906142fb565b60405180910390f35b34801561076e57600080fd5b50610789600480360381019061078491906137e1565b61224b565b6040516107969190614236565b60405180910390f35b3480156107ab57600080fd5b506107c660048036038101906107c19190613515565b6123b4565b6040516107d39190613e59565b60405180910390f35b60007f80ac58cd000000000000000000000000000000000000000000000000000000007bffffffffffffffffffffffffffffffffffffffffffffffffffffffff1916827bffffffffffffffffffffffffffffffffffffffffffffffffffffffff191614806108a757507f5b5e139f000000000000000000000000000000000000000000000000000000007bffffffffffffffffffffffffffffffffffffffffffffffffffffffff1916827bffffffffffffffffffffffffffffffffffffffffffffffffffffffff1916145b806108b757506108b682612448565b5b9050919050565b600073ffffffffffffffffffffffffffffffffffffffff16600760019054906101000a900473ffffffffffffffffffffffffffffffffffffffff1673ffffffffffffffffffffffffffffffffffffffff161415610950576040517f08c379a000000000000000000000000000000000000000000000000000000000815260040161094790613f56565b60405180910390fd5b600760019054906101000a900473ffffffffffffffffffffffffffffffffffffffff1673ffffffffffffffffffffffffffffffffffffffff163373ffffffffffffffffffffffffffffffffffffffff16146109e0576040517f08c379a00000000000000000000000000000000000000000000000000000000081526004016109d790613f36565b60405180910390fd5b80600073ffffffffffffffffffffffffffffffffffffffff168173ffffffffffffffffffffffffffffffffffffffff161415610a51576040517f08c379a0000000000000000000000000000000000000000000000000000000008152600401610a4890614156565b60405180910390fd5b600073ffffffffffffffffffffffffffffffffffffffff163373ffffffffffffffffffffffffffffffffffffffff161415610ac1576040517f08c379a0000000000000000000000000000000000000000000000000000000008152600401610ab890613f56565b60405180910390fd5b600660003373ffffffffffffffffffffffffffffffffffffffff1673ffffffffffffffffffffffffffffffffffffffff16815260200190815260200160002060009054906101000a900460ff16610b4d576040517f08c379a0000000000000000000000000000000000000000000000000000000008152600401610b44906141b6565b60405180910390fd5b60006009811115610b87577f4e487b7100000000000000000000000000000000000000000000000000000000600052602160045260246000fd5b6009811115610bbf577f4e487b7100000000000000000000000000000000000000000000000000000000600052602160045260246000fd5b836009811115610bf8577f4e487b7100000000000000000000000000000000000000000000000000000000600052602160045260246000fd5b10158015610c755750600980811115610c3a577f4e487b7100000000000000000000000000000000000000000000000000000000600052602160045260246000fd5b836009811115610c73577f4e487b7100000000000000000000000000000000000000000000000000000000600052602160045260246000fd5b105b610cb4576040517f08c379a0000000000000000000000000000000000000000000000000000000008152600401610cab90613eb6565b60405180910390fd5b8160096000856009811115610cf2577f4e487b7100000000000000000000000000000000000000000000000000000000600052602160045260246000fd5b6009811115610d2a577f4e487b7100000000000000000000000000000000000000000000000000000000600052602160045260246000fd5b815260200190815260200160002060006101000a81548173ffffffffffffffffffffffffffffffffffffffff021916908373ffffffffffffffffffffffffffffffffffffffff160217905550505050565b606060008054610d8a906147e6565b80601f0160208091040260200160405190810160405280929190818152602001828054610db6906147e6565b8015610e035780601f10610dd857610100808354040283529160200191610e03565b820191906000526020600020905b815481529060010190602001808311610de657829003601f168201915b5050505050905090565b6000610e18826124b2565b610e57576040517f08c379a0000000000000000000000000000000000000000000000000000000008152600401610e4e906140f6565b60405180910390fd5b6004600083815260200190815260200160002060009054906101000a900473ffffffffffffffffffffffffffffffffffffffff169050919050565b6000610e9d826113a0565b90508073ffffffffffffffffffffffffffffffffffffffff168373ffffffffffffffffffffffffffffffffffffffff161415610f0e576040517f08c379a0000000000000000000000000000000000000000000000000000000008152600401610f0590614196565b60405180910390fd5b8073ffffffffffffffffffffffffffffffffffffffff16610f2d61251e565b73ffffffffffffffffffffffffffffffffffffffff161480610f5c5750610f5b81610f5661251e565b6123b4565b5b610f9b576040517f08c379a0000000000000000000000000000000000000000000000000000000008152600401610f9290614016565b60405180910390fd5b610fa58383612526565b505050565b610fbb610fb561251e565b826125df565b610ffa576040517f08c379a0000000000000000000000000000000000000000000000000000000008152600401610ff1906141f6565b60405180910390fd5b6110058383836126bd565b505050565b6000600660008373ffffffffffffffffffffffffffffffffffffffff1673ffffffffffffffffffffffffffffffffffffffff16815260200190815260200160002060009054906101000a900460ff169050919050565b600073ffffffffffffffffffffffffffffffffffffffff163373ffffffffffffffffffffffffffffffffffffffff1614156110d0576040517f08c379a00000000000000000000000000000000000000000000000000000000081526004016110c790613ff6565b60405180910390fd5b600c600082815260200190815260200160002060060154341015611129576040517f08c379a000000000000000000000000000000000000000000000000000000000815260040161112090614176565b60405180910390fd5b600c600082815260200190815260200160002060080160009054906101000a900460ff1661118c576040517f08c379a000000000000000000000000000000000000000000000000000000000815260040161118390613e96565b60405180910390fd5b61119f611198826113a0565b33836126bd565b600c600082815260200190815260200160002060030160009054906101000a900473ffffffffffffffffffffffffffffffffffffffff1673ffffffffffffffffffffffffffffffffffffffff166108fc349081150290604051600060405180830381858888f1935050505015801561121b573d6000803e3d6000fd5b50600c600082815260200190815260200160002060030160009054906101000a900473ffffffffffffffffffffffffffffffffffffffff16600c600083815260200190815260200160002060040160006101000a81548173ffffffffffffffffffffffffffffffffffffffff021916908373ffffffffffffffffffffffffffffffffffffffff16021790555033600c600083815260200190815260200160002060030160006101000a81548173ffffffffffffffffffffffffffffffffffffffff021916908373ffffffffffffffffffffffffffffffffffffffff1602179055506001600c600083815260200190815260200160002060070160008282546113239190614409565b9250508190555050565b600b60009054906101000a900460ff1681565b61135b83838360405180602001604052806000815250611c18565b505050565b600e818051602081018201805184825260208301602085012081835280955050505050506000915090505481565b6000611399826124b2565b9050919050565b6000806002600084815260200190815260200160002060009054906101000a900473ffffffffffffffffffffffffffffffffffffffff169050600073ffffffffffffffffffffffffffffffffffffffff168173ffffffffffffffffffffffffffffffffffffffff161415611449576040517f08c379a000000000000000000000000000000000000000000000000000000000815260040161144090614076565b60405180910390fd5b80915050919050565b606061145d82611c84565b9050919050565b600073ffffffffffffffffffffffffffffffffffffffff16600760019054906101000a900473ffffffffffffffffffffffffffffffffffffffff1673ffffffffffffffffffffffffffffffffffffffff1614156114f6576040517f08c379a00000000000000000000000000000000000000000000000000000000081526004016114ed90613f56565b60405180910390fd5b600760019054906101000a900473ffffffffffffffffffffffffffffffffffffffff1673ffffffffffffffffffffffffffffffffffffffff163373ffffffffffffffffffffffffffffffffffffffff1614611586576040517f08c379a000000000000000000000000000000000000000000000000000000000815260040161157d90613f36565b60405180910390fd5b80600073ffffffffffffffffffffffffffffffffffffffff168173ffffffffffffffffffffffffffffffffffffffff1614156115f7576040517f08c379a00000000000000000000000000000000000000000000000000000000081526004016115ee90614156565b60405180910390fd5b6001600660008473ffffffffffffffffffffffffffffffffffffffff1673ffffffffffffffffffffffffffffffffffffffff16815260200190815260200160002060006101000a81548160ff0219169083151502179055506001600760009054906101000a900460ff1661166b919061445f565b600760006101000a81548160ff021916908360ff1602179055505050565b60008073ffffffffffffffffffffffffffffffffffffffff168273ffffffffffffffffffffffffffffffffffffffff1614156116fa576040517f08c379a00000000000000000000000000000000000000000000000000000000081526004016116f190614056565b60405180910390fd5b600360008373ffffffffffffffffffffffffffffffffffffffff1673ffffffffffffffffffffffffffffffffffffffff168152602001908152602001600020549050919050565b600c60205280600052604060002060009150905080600001549080600101805461176a906147e6565b80601f0160208091040260200160405190810160405280929190818152602001828054611796906147e6565b80156117e35780601f106117b8576101008083540402835291602001916117e3565b820191906000526020600020905b8154815290600101906020018083116117c657829003601f168201915b5050505050908060020180546117f8906147e6565b80601f0160208091040260200160405190810160405280929190818152602001828054611824906147e6565b80156118715780601f1061184657610100808354040283529160200191611871565b820191906000526020600020905b81548152906001019060200180831161185457829003601f168201915b5050505050908060030160009054906101000a900473ffffffffffffffffffffffffffffffffffffffff16908060040160009054906101000a900473ffffffffffffffffffffffffffffffffffffffff16908060050154908060060154908060070154908060080160009054906101000a900460ff1690806009015490508a565b606060018054611901906147e6565b80601f016020809104026020016040519081016040528092919081815260200182805461192d906147e6565b801561197a5780601f1061194f5761010080835404028352916020019161197a565b820191906000526020600020905b81548152906001019060200180831161195d57829003601f168201915b5050505050905090565b61199661198f61251e565b8383612924565b5050565b806119a4816124b2565b6119e3576040517f08c379a00000000000000000000000000000000000000000000000000000000081526004016119da90614216565b60405180910390fd5b3373ffffffffffffffffffffffffffffffffffffffff16611a03826113a0565b73ffffffffffffffffffffffffffffffffffffffff1614611a59576040517f08c379a0000000000000000000000000000000000000000000000000000000008152600401611a50906140b6565b60405180910390fd5b600c600083815260200190815260200160002060080160009054906101000a900460ff1615600c600084815260200190815260200160002060080160006101000a81548160ff0219169083151502179055505050565b600d818051602081018201805184825260208301602085012081835280955050505050506000915054906101000a900460ff1681565b6000611af0826113a0565b9050919050565b60085481565b600073ffffffffffffffffffffffffffffffffffffffff163373ffffffffffffffffffffffffffffffffffffffff161415611b6d576040517f08c379a0000000000000000000000000000000000000000000000000000000008152600401611b6490613f56565b60405180910390fd5b600660003373ffffffffffffffffffffffffffffffffffffffff1673ffffffffffffffffffffffffffffffffffffffff16815260200190815260200160002060009054906101000a900460ff16611bf9576040517f08c379a0000000000000000000000000000000000000000000000000000000008152600401611bf0906141b6565b60405180910390fd5b80600c6000848152602001908152602001600020600601819055505050565b611c29611c2361251e565b836125df565b611c68576040517f08c379a0000000000000000000000000000000000000000000000000000000008152600401611c5f906141f6565b60405180910390fd5b611c7484848484612a91565b50505050565b8060088190555050565b6060611c8f826124b2565b611cce576040517f08c379a0000000000000000000000000000000000000000000000000000000008152600401611cc590614116565b60405180910390fd5b6000611cd8612aed565b90506000815111611cf85760405180602001604052806000815250611d23565b80611d0284612b04565b604051602001611d13929190613dce565b6040516020818303038152906040525b915050919050565b600080600073ffffffffffffffffffffffffffffffffffffffff163373ffffffffffffffffffffffffffffffffffffffff161415611d9e576040517f08c379a0000000000000000000000000000000000000000000000000000000008152600401611d9590613ff6565b60405180910390fd5b600a6000815480929190611db190614849565b9190505550600a549150611dc4826124b2565b15611e04576040517f08c379a0000000000000000000000000000000000000000000000000000000008152600401611dfb90614036565b60405180910390fd5b6000600e85604051611e169190613db7565b90815260200160405180910390205414611e65576040517f08c379a0000000000000000000000000000000000000000000000000000000008152600401611e5c90614096565b60405180910390fd5b600d85604051611e759190613db7565b908152602001604051809103902060009054906101000a900460ff1615611ed1576040517f08c379a0000000000000000000000000000000000000000000000000000000008152600401611ec890614136565b60405180910390fd5b611edb3383612cb1565b81600e85604051611eec9190613db7565b9081526020016040518091039020819055506001600d86604051611f109190613db7565b908152602001604051809103902060006101000a81548160ff021916908315150217905550611f3e8361224b565b90506000806009600060066009811115611f81577f4e487b7100000000000000000000000000000000000000000000000000000000600052602160045260246000fd5b6009811115611fb9577f4e487b7100000000000000000000000000000000000000000000000000000000600052602160045260246000fd5b815260200190815260200160002060009054906101000a900473ffffffffffffffffffffffffffffffffffffffff1673ffffffffffffffffffffffffffffffffffffffff1663cdc0eec46040518163ffffffff1660e01b815260040160806040518083038186803b15801561202d57600080fd5b505afa158015612041573d6000803e3d6000fd5b505050506040513d601f19601f820116820180604052508101906120659190613846565b9350505091506040518061014001604052808581526020018881526020018781526020013373ffffffffffffffffffffffffffffffffffffffff168152602001600073ffffffffffffffffffffffffffffffffffffffff16815260200184815260200182600a6120d5919061451a565b84866120e19190614683565b6120eb9190614496565b856120f691906146dd565b81526020016000815260200160011515815260200142815250600c60008681526020019081526020016000206000820151816000015560208201518160010190805190602001906121489291906132bc565b5060408201518160020190805190602001906121659291906132bc565b5060608201518160030160006101000a81548173ffffffffffffffffffffffffffffffffffffffff021916908373ffffffffffffffffffffffffffffffffffffffff16021790555060808201518160040160006101000a81548173ffffffffffffffffffffffffffffffffffffffff021916908373ffffffffffffffffffffffffffffffffffffffff16021790555060a0820151816005015560c0820151816006015560e082015181600701556101008201518160080160006101000a81548160ff02191690831515021790555061012082015181600901559050505050935093915050565b60006003600a61225b9190614565565b600854600960006001600981111561229c577f4e487b7100000000000000000000000000000000000000000000000000000000600052602160045260246000fd5b60098111156122d4577f4e487b7100000000000000000000000000000000000000000000000000000000600052602160045260246000fd5b815260200190815260200160002060009054906101000a900473ffffffffffffffffffffffffffffffffffffffff1673ffffffffffffffffffffffffffffffffffffffff1663313ce5676040518163ffffffff1660e01b8152600401602060405180830381600087803b15801561234a57600080fd5b505af115801561235e573d6000803e3d6000fd5b505050506040513d601f19601f8201168201806040525081019061238291906138a9565b600a61238e9190614565565b846123999190614683565b6123a39190614683565b6123ad9190614496565b9050919050565b6000600560008473ffffffffffffffffffffffffffffffffffffffff1673ffffffffffffffffffffffffffffffffffffffff16815260200190815260200160002060008373ffffffffffffffffffffffffffffffffffffffff1673ffffffffffffffffffffffffffffffffffffffff16815260200190815260200160002060009054906101000a900460ff16905092915050565b60007f01ffc9a7000000000000000000000000000000000000000000000000000000007bffffffffffffffffffffffffffffffffffffffffffffffffffffffff1916827bffffffffffffffffffffffffffffffffffffffffffffffffffffffff1916149050919050565b60008073ffffffffffffffffffffffffffffffffffffffff166002600084815260200190815260200160002060009054906101000a900473ffffffffffffffffffffffffffffffffffffffff1673ffffffffffffffffffffffffffffffffffffffff1614159050919050565b600033905090565b816004600083815260200190815260200160002060006101000a81548173ffffffffffffffffffffffffffffffffffffffff021916908373ffffffffffffffffffffffffffffffffffffffff160217905550808273ffffffffffffffffffffffffffffffffffffffff16612599836113a0565b73ffffffffffffffffffffffffffffffffffffffff167f8c5be1e5ebec7d5bd14f71427d1e84f3dd0314c0f7b2291e5b200ac8c7c3b92560405160405180910390a45050565b60006125ea826124b2565b612629576040517f08c379a000000000000000000000000000000000000000000000000000000000815260040161262090613fd6565b60405180910390fd5b6000612634836113a0565b90508073ffffffffffffffffffffffffffffffffffffffff168473ffffffffffffffffffffffffffffffffffffffff161480612676575061267581856123b4565b5b806126b457508373ffffffffffffffffffffffffffffffffffffffff1661269c84610e0d565b73ffffffffffffffffffffffffffffffffffffffff16145b91505092915050565b8273ffffffffffffffffffffffffffffffffffffffff166126dd826113a0565b73ffffffffffffffffffffffffffffffffffffffff1614612733576040517f08c379a000000000000000000000000000000000000000000000000000000000815260040161272a90613ef6565b60405180910390fd5b600073ffffffffffffffffffffffffffffffffffffffff168273ffffffffffffffffffffffffffffffffffffffff1614156127a3576040517f08c379a000000000000000000000000000000000000000000000000000000000815260040161279a90613f76565b60405180910390fd5b6127ae838383612ccf565b6127b9600082612526565b6001600360008573ffffffffffffffffffffffffffffffffffffffff1673ffffffffffffffffffffffffffffffffffffffff168152602001908152602001600020600082825461280991906146dd565b925050819055506001600360008473ffffffffffffffffffffffffffffffffffffffff1673ffffffffffffffffffffffffffffffffffffffff16815260200190815260200160002060008282546128609190614409565b92505081905550816002600083815260200190815260200160002060006101000a81548173ffffffffffffffffffffffffffffffffffffffff021916908373ffffffffffffffffffffffffffffffffffffffff160217905550808273ffffffffffffffffffffffffffffffffffffffff168473ffffffffffffffffffffffffffffffffffffffff167fddf252ad1be2c89b69c2b068fc378daa952ba7f163c4a11628f55a4df523b3ef60405160405180910390a461291f838383612cd4565b505050565b8173ffffffffffffffffffffffffffffffffffffffff168373ffffffffffffffffffffffffffffffffffffffff161415612993576040517f08c379a000000000000000000000000000000000000000000000000000000000815260040161298a90613fb6565b60405180910390fd5b80600560008573ffffffffffffffffffffffffffffffffffffffff1673ffffffffffffffffffffffffffffffffffffffff16815260200190815260200160002060008473ffffffffffffffffffffffffffffffffffffffff1673ffffffffffffffffffffffffffffffffffffffff16815260200190815260200160002060006101000a81548160ff0219169083151502179055508173ffffffffffffffffffffffffffffffffffffffff168373ffffffffffffffffffffffffffffffffffffffff167f17307eab39ab6107e8899845ad3d59bd9653f200f220920489ca2b5937696c3183604051612a849190613e59565b60405180910390a3505050565b612a9c8484846126bd565b612aa884848484612ecd565b612ae7576040517f08c379a0000000000000000000000000000000000000000000000000000000008152600401612ade90613ed6565b60405180910390fd5b50505050565b606060405180602001604052806000815250905090565b60606000821415612b4c576040518060400160405280600181526020017f30000000000000000000000000000000000000000000000000000000000000008152509050612cac565b600082905060005b60008214612b7e578080612b6790614849565b915050600a82612b779190614496565b9150612b54565b60008167ffffffffffffffff811115612bc0577f4e487b7100000000000000000000000000000000000000000000000000000000600052604160045260246000fd5b6040519080825280601f01601f191660200182016040528015612bf25781602001600182028036833780820191505090505b5090505b60008514612ca557600182612c0b91906146dd565b9150600a85612c1a9190614892565b6030612c269190614409565b60f81b818381518110612c62577f4e487b7100000000000000000000000000000000000000000000000000000000600052603260045260246000fd5b60200101907effffffffffffffffffffffffffffffffffffffffffffffffffffffffffffff1916908160001a905350600a85612c9e9190614496565b9450612bf6565b8093505050505b919050565b612ccb828260405180602001604052806000815250613064565b5050565b505050565b8173ffffffffffffffffffffffffffffffffffffffff16612cf4826113a0565b73ffffffffffffffffffffffffffffffffffffffff1614612d4a576040517f08c379a0000000000000000000000000000000000000000000000000000000008152600401612d41906141d6565b60405180910390fd5b600073ffffffffffffffffffffffffffffffffffffffff168273ffffffffffffffffffffffffffffffffffffffff161415612dba576040517f08c379a0000000000000000000000000000000000000000000000000000000008152600401612db190613f96565b60405180910390fd5b600c600082815260200190815260200160002060030160009054906101000a900473ffffffffffffffffffffffffffffffffffffffff16600c600083815260200190815260200160002060040160006101000a81548173ffffffffffffffffffffffffffffffffffffffff021916908373ffffffffffffffffffffffffffffffffffffffff16021790555081600c600083815260200190815260200160002060030160006101000a81548173ffffffffffffffffffffffffffffffffffffffff021916908373ffffffffffffffffffffffffffffffffffffffff1602179055506001600c60008381526020019081526020016000206007016000828254612ec19190614409565b92505081905550505050565b6000612eee8473ffffffffffffffffffffffffffffffffffffffff166130bf565b15613057578373ffffffffffffffffffffffffffffffffffffffff1663150b7a02612f1761251e565b8786866040518563ffffffff1660e01b8152600401612f399493929190613e0d565b602060405180830381600087803b158015612f5357600080fd5b505af1925050508015612f8457506040513d601f19601f82011682018060405250810190612f8191906136bc565b60015b613007573d8060008114612fb4576040519150601f19603f3d011682016040523d82523d6000602084013e612fb9565b606091505b50600081511415612fff576040517f08c379a0000000000000000000000000000000000000000000000000000000008152600401612ff690613ed6565b60405180910390fd5b805181602001fd5b63150b7a0260e01b7bffffffffffffffffffffffffffffffffffffffffffffffffffffffff1916817bffffffffffffffffffffffffffffffffffffffffffffffffffffffff19161491505061305c565b600190505b949350505050565b61306e83836130e2565b61307b6000848484612ecd565b6130ba576040517f08c379a00000000000000000000000000000000000000000000000000000000081526004016130b190613ed6565b60405180910390fd5b505050565b6000808273ffffffffffffffffffffffffffffffffffffffff163b119050919050565b600073ffffffffffffffffffffffffffffffffffffffff168273ffffffffffffffffffffffffffffffffffffffff161415613152576040517f08c379a0000000000000000000000000000000000000000000000000000000008152600401613149906140d6565b60405180910390fd5b61315b816124b2565b1561319b576040517f08c379a000000000000000000000000000000000000000000000000000000000815260040161319290613f16565b60405180910390fd5b6131a760008383612ccf565b6001600360008473ffffffffffffffffffffffffffffffffffffffff1673ffffffffffffffffffffffffffffffffffffffff16815260200190815260200160002060008282546131f79190614409565b92505081905550816002600083815260200190815260200160002060006101000a81548173ffffffffffffffffffffffffffffffffffffffff021916908373ffffffffffffffffffffffffffffffffffffffff160217905550808273ffffffffffffffffffffffffffffffffffffffff16600073ffffffffffffffffffffffffffffffffffffffff167fddf252ad1be2c89b69c2b068fc378daa952ba7f163c4a11628f55a4df523b3ef60405160405180910390a46132b860008383612cd4565b5050565b8280546132c8906147e6565b90600052602060002090601f0160209004810192826132ea5760008555613331565b82601f1061330357805160ff1916838001178555613331565b82800160010185558215613331579182015b82811115613330578251825591602001919060010190613315565b5b50905061333e9190613342565b5090565b5b8082111561335b576000816000905550600101613343565b5090565b600061337261336d84614364565b61433f565b90508281526020810184848401111561338a57600080fd5b6133958482856147a4565b509392505050565b60006133b06133ab84614395565b61433f565b9050828152602081018484840111156133c857600080fd5b6133d38482856147a4565b509392505050565b6000813590506133ea8161500a565b92915050565b6000813590506133ff81615021565b92915050565b60008135905061341481615038565b92915050565b6000813590506134298161504f565b92915050565b60008151905061343e8161504f565b92915050565b600082601f83011261345557600080fd5b813561346584826020860161335f565b91505092915050565b60008135905061347d81615066565b92915050565b600082601f83011261349457600080fd5b81356134a484826020860161339d565b91505092915050565b6000813590506134bc81615076565b92915050565b6000815190506134d181615076565b92915050565b6000815190506134e68161508d565b92915050565b6000602082840312156134fe57600080fd5b600061350c848285016133db565b91505092915050565b6000806040838503121561352857600080fd5b6000613536858286016133db565b9250506020613547858286016133db565b9150509250929050565b60008060006060848603121561356657600080fd5b6000613574868287016133db565b9350506020613585868287016133db565b9250506040613596868287016134ad565b9150509250925092565b600080600080608085870312156135b657600080fd5b60006135c4878288016133db565b94505060206135d5878288016133db565b93505060406135e6878288016134ad565b925050606085013567ffffffffffffffff81111561360357600080fd5b61360f87828801613444565b91505092959194509250565b6000806040838503121561362e57600080fd5b600061363c858286016133db565b925050602061364d85828601613405565b9150509250929050565b6000806040838503121561366a57600080fd5b6000613678858286016133db565b9250506020613689858286016134ad565b9150509250929050565b6000602082840312156136a557600080fd5b60006136b38482850161341a565b91505092915050565b6000602082840312156136ce57600080fd5b60006136dc8482850161342f565b91505092915050565b600080604083850312156136f857600080fd5b60006137068582860161346e565b9250506020613717858286016133f0565b9150509250929050565b60006020828403121561373357600080fd5b600082013567ffffffffffffffff81111561374d57600080fd5b61375984828501613483565b91505092915050565b60008060006060848603121561377757600080fd5b600084013567ffffffffffffffff81111561379157600080fd5b61379d86828701613483565b935050602084013567ffffffffffffffff8111156137ba57600080fd5b6137c686828701613483565b92505060406137d7868287016134ad565b9150509250925092565b6000602082840312156137f357600080fd5b6000613801848285016134ad565b91505092915050565b6000806040838503121561381d57600080fd5b600061382b858286016134ad565b925050602061383c858286016134ad565b9150509250929050565b6000806000806080858703121561385c57600080fd5b600061386a878288016134c2565b945050602061387b878288016134c2565b935050604061388c878288016134c2565b925050606061389d878288016134c2565b91505092959194509250565b6000602082840312156138bb57600080fd5b60006138c9848285016134d7565b91505092915050565b6138db81614723565b82525050565b6138ea81614711565b82525050565b6138f981614735565b82525050565b600061390a826143c6565b61391481856143dc565b93506139248185602086016147b3565b61392d8161497f565b840191505092915050565b6000613943826143d1565b61394d81856143ed565b935061395d8185602086016147b3565b6139668161497f565b840191505092915050565b600061397c826143d1565b61398681856143fe565b93506139968185602086016147b3565b80840191505092915050565b60006139af6003836143ed565b91506139ba8261499d565b602082019050919050565b60006139d26016836143ed565b91506139dd826149c6565b602082019050919050565b60006139f56032836143ed565b9150613a00826149ef565b604082019050919050565b6000613a186025836143ed565b9150613a2382614a3e565b604082019050919050565b6000613a3b601c836143ed565b9150613a4682614a8d565b602082019050919050565b6000613a5e601e836143ed565b9150613a6982614ab6565b602082019050919050565b6000613a816017836143ed565b9150613a8c82614adf565b602082019050919050565b6000613aa46024836143ed565b9150613aaf82614b08565b604082019050919050565b6000613ac76003836143ed565b9150613ad282614b57565b602082019050919050565b6000613aea6019836143ed565b9150613af582614b80565b602082019050919050565b6000613b0d602c836143ed565b9150613b1882614ba9565b604082019050919050565b6000613b306023836143ed565b9150613b3b82614bf8565b604082019050919050565b6000613b536038836143ed565b9150613b5e82614c47565b604082019050919050565b6000613b766002836143ed565b9150613b8182614c96565b602082019050919050565b6000613b99602a836143ed565b9150613ba482614cbf565b604082019050919050565b6000613bbc6029836143ed565b9150613bc782614d0e565b604082019050919050565b6000613bdf6002836143ed565b9150613bea82614d5d565b602082019050919050565b6000613c026003836143ed565b9150613c0d82614d86565b602082019050919050565b6000613c256020836143ed565b9150613c3082614daf565b602082019050919050565b6000613c48602c836143ed565b9150613c5382614dd8565b604082019050919050565b6000613c6b602f836143ed565b9150613c7682614e27565b604082019050919050565b6000613c8e6002836143ed565b9150613c9982614e76565b602082019050919050565b6000613cb16019836143ed565b9150613cbc82614e9f565b602082019050919050565b6000613cd46003836143ed565b9150613cdf82614ec8565b602082019050919050565b6000613cf76021836143ed565b9150613d0282614ef1565b604082019050919050565b6000613d1a600d836143ed565b9150613d2582614f40565b602082019050919050565b6000613d3d6003836143ed565b9150613d4882614f69565b602082019050919050565b6000613d606031836143ed565b9150613d6b82614f92565b604082019050919050565b6000613d836002836143ed565b9150613d8e82614fe1565b602082019050919050565b613da28161478d565b82525050565b613db181614797565b82525050565b6000613dc38284613971565b915081905092915050565b6000613dda8285613971565b9150613de68284613971565b91508190509392505050565b6000602082019050613e0760008301846138e1565b92915050565b6000608082019050613e2260008301876138e1565b613e2f60208301866138e1565b613e3c6040830185613d99565b8181036060830152613e4e81846138ff565b905095945050505050565b6000602082019050613e6e60008301846138f0565b92915050565b60006020820190508181036000830152613e8e8184613938565b905092915050565b60006020820190508181036000830152613eaf816139a2565b9050919050565b60006020820190508181036000830152613ecf816139c5565b9050919050565b60006020820190508181036000830152613eef816139e8565b9050919050565b60006020820190508181036000830152613f0f81613a0b565b9050919050565b60006020820190508181036000830152613f2f81613a2e565b9050919050565b60006020820190508181036000830152613f4f81613a51565b9050919050565b60006020820190508181036000830152613f6f81613a74565b9050919050565b60006020820190508181036000830152613f8f81613a97565b9050919050565b60006020820190508181036000830152613faf81613aba565b9050919050565b60006020820190508181036000830152613fcf81613add565b9050919050565b60006020820190508181036000830152613fef81613b00565b9050919050565b6000602082019050818103600083015261400f81613b23565b9050919050565b6000602082019050818103600083015261402f81613b46565b9050919050565b6000602082019050818103600083015261404f81613b69565b9050919050565b6000602082019050818103600083015261406f81613b8c565b9050919050565b6000602082019050818103600083015261408f81613baf565b9050919050565b600060208201905081810360008301526140af81613bd2565b9050919050565b600060208201905081810360008301526140cf81613bf5565b9050919050565b600060208201905081810360008301526140ef81613c18565b9050919050565b6000602082019050818103600083015261410f81613c3b565b9050919050565b6000602082019050818103600083015261412f81613c5e565b9050919050565b6000602082019050818103600083015261414f81613c81565b9050919050565b6000602082019050818103600083015261416f81613ca4565b9050919050565b6000602082019050818103600083015261418f81613cc7565b9050919050565b600060208201905081810360008301526141af81613cea565b9050919050565b600060208201905081810360008301526141cf81613d0d565b9050919050565b600060208201905081810360008301526141ef81613d30565b9050919050565b6000602082019050818103600083015261420f81613d53565b9050919050565b6000602082019050818103600083015261422f81613d76565b9050919050565b600060208201905061424b6000830184613d99565b92915050565b600061014082019050614267600083018d613d99565b8181036020830152614279818c613938565b9050818103604083015261428d818b613938565b905061429c606083018a6138d2565b6142a960808301896138d2565b6142b660a0830188613d99565b6142c360c0830187613d99565b6142d060e0830186613d99565b6142de6101008301856138f0565b6142ec610120830184613d99565b9b9a5050505050505050505050565b60006040820190506143106000830185613d99565b61431d6020830184613d99565b9392505050565b60006020820190506143396000830184613da8565b92915050565b600061434961435a565b90506143558282614818565b919050565b6000604051905090565b600067ffffffffffffffff82111561437f5761437e614950565b5b6143888261497f565b9050602081019050919050565b600067ffffffffffffffff8211156143b0576143af614950565b5b6143b98261497f565b9050602081019050919050565b600081519050919050565b600081519050919050565b600082825260208201905092915050565b600082825260208201905092915050565b600081905092915050565b60006144148261478d565b915061441f8361478d565b9250827fffffffffffffffffffffffffffffffffffffffffffffffffffffffffffffffff03821115614454576144536148c3565b5b828201905092915050565b600061446a82614797565b915061447583614797565b92508260ff0382111561448b5761448a6148c3565b5b828201905092915050565b60006144a18261478d565b91506144ac8361478d565b9250826144bc576144bb6148f2565b5b828204905092915050565b6000808291508390505b6001851115614511578086048111156144ed576144ec6148c3565b5b60018516156144fc5780820291505b808102905061450a85614990565b94506144d1565b94509492505050565b60006145258261478d565b91506145308361478d565b925061455d7fffffffffffffffffffffffffffffffffffffffffffffffffffffffffffffffff84846145b0565b905092915050565b60006145708261478d565b915061457b83614797565b92506145a87fffffffffffffffffffffffffffffffffffffffffffffffffffffffffffffffff84846145b0565b905092915050565b6000826145c0576001905061467c565b816145ce576000905061467c565b81600181146145e457600281146145ee5761461d565b600191505061467c565b60ff841115614600576145ff6148c3565b5b8360020a915084821115614617576146166148c3565b5b5061467c565b5060208310610133831016604e8410600b84101617156146525782820a90508381111561464d5761464c6148c3565b5b61467c565b61465f84848460016144c7565b92509050818404811115614676576146756148c3565b5b81810290505b9392505050565b600061468e8261478d565b91506146998361478d565b9250817fffffffffffffffffffffffffffffffffffffffffffffffffffffffffffffffff04831182151516156146d2576146d16148c3565b5b828202905092915050565b60006146e88261478d565b91506146f38361478d565b925082821015614706576147056148c3565b5b828203905092915050565b600061471c8261476d565b9050919050565b600061472e8261476d565b9050919050565b60008115159050919050565b60007fffffffff0000000000000000000000000000000000000000000000000000000082169050919050565b600073ffffffffffffffffffffffffffffffffffffffff82169050919050565b6000819050919050565b600060ff82169050919050565b82818337600083830152505050565b60005b838110156147d15780820151818401526020810190506147b6565b838111156147e0576000848401525b50505050565b600060028204905060018216806147fe57607f821691505b6020821081141561481257614811614921565b5b50919050565b6148218261497f565b810181811067ffffffffffffffff821117156148405761483f614950565b5b80604052505050565b60006148548261478d565b91507fffffffffffffffffffffffffffffffffffffffffffffffffffffffffffffffff821415614887576148866148c3565b5b600182019050919050565b600061489d8261478d565b91506148a88361478d565b9250826148b8576148b76148f2565b5b828206905092915050565b7f4e487b7100000000000000000000000000000000000000000000000000000000600052601160045260246000fd5b7f4e487b7100000000000000000000000000000000000000000000000000000000600052601260045260246000fd5b7f4e487b7100000000000000000000000000000000000000000000000000000000600052602260045260246000fd5b7f4e487b7100000000000000000000000000000000000000000000000000000000600052604160045260246000fd5b6000601f19601f8301169050919050565b60008160011c9050919050565b7f2d31330000000000000000000000000000000000000000000000000000000000600082015250565b7f496e76616c696420636f6e747261637420696e64657800000000000000000000600082015250565b7f4552433732313a207472616e7366657220746f206e6f6e20455243373231526560008201527f63656976657220696d706c656d656e7465720000000000000000000000000000602082015250565b7f4552433732313a207472616e736665722066726f6d20696e636f72726563742060008201527f6f776e6572000000000000000000000000000000000000000000000000000000602082015250565b7f4552433732313a20746f6b656e20616c7265616479206d696e74656400000000600082015250565b7f466f722063616c6c65722065787065637465642062652063726561746f720000600082015250565b7f496e76616c69642063726561746f722061646472657373000000000000000000600082015250565b7f4552433732313a207472616e7366657220746f20746865207a65726f2061646460008201527f7265737300000000000000000000000000000000000000000000000000000000602082015250565b7f2d31350000000000000000000000000000000000000000000000000000000000600082015250565b7f4552433732313a20617070726f766520746f2063616c6c657200000000000000600082015250565b7f4552433732313a206f70657261746f7220717565727920666f72206e6f6e657860008201527f697374656e7420746f6b656e0000000000000000000000000000000000000000602082015250565b7f4578706563746564206e6f6e2d7a65726f2061646472657373206f662063616c60008201527f6c65720000000000000000000000000000000000000000000000000000000000602082015250565b7f4552433732313a20617070726f76652063616c6c6572206973206e6f74206f7760008201527f6e6572206e6f7220617070726f76656420666f7220616c6c0000000000000000602082015250565b7f2d34000000000000000000000000000000000000000000000000000000000000600082015250565b7f4552433732313a2062616c616e636520717565727920666f7220746865207a6560008201527f726f206164647265737300000000000000000000000000000000000000000000602082015250565b7f4552433732313a206f776e657220717565727920666f72206e6f6e657869737460008201527f656e7420746f6b656e0000000000000000000000000000000000000000000000602082015250565b7f2d35000000000000000000000000000000000000000000000000000000000000600082015250565b7f2d31310000000000000000000000000000000000000000000000000000000000600082015250565b7f4552433732313a206d696e7420746f20746865207a65726f2061646472657373600082015250565b7f4552433732313a20617070726f76656420717565727920666f72206e6f6e657860008201527f697374656e7420746f6b656e0000000000000000000000000000000000000000602082015250565b7f4552433732314d657461646174613a2055524920717565727920666f72206e6f60008201527f6e6578697374656e7420746f6b656e0000000000000000000000000000000000602082015250565b7f2d36000000000000000000000000000000000000000000000000000000000000600082015250565b7f4578706563746564206e6f6e2d7a65726f206164647265737300000000000000600082015250565b7f2d31320000000000000000000000000000000000000000000000000000000000600082015250565b7f4552433732313a20617070726f76616c20746f2063757272656e74206f776e6560008201527f7200000000000000000000000000000000000000000000000000000000000000602082015250565b7f4d7573742062652061646d696e00000000000000000000000000000000000000600082015250565b7f2d31340000000000000000000000000000000000000000000000000000000000600082015250565b7f4552433732313a207472616e736665722063616c6c6572206973206e6f74206f60008201527f776e6572206e6f7220617070726f766564000000000000000000000000000000602082015250565b7f2d39000000000000000000000000000000000000000000000000000000000000600082015250565b61501381614711565b811461501e57600080fd5b50565b61502a81614723565b811461503557600080fd5b50565b61504181614735565b811461504c57600080fd5b50565b61505881614741565b811461506357600080fd5b50565b600a811061507357600080fd5b50565b61507f8161478d565b811461508a57600080fd5b50565b61509681614797565b81146150a157600080fd5b5056fea2646970667358221220acc31e28b2c1eca98c6db75851304f00daf56f5427fed95e0d3b607968c0a7c764736f6c63430008040033",
  "immutableReferences": {},
  "source": "// SPDX-License-Identifier: MIT\r\npragma solidity ^0.8.0;\r\n\r\n// import \"@openzeppelin/contracts/utils/Counters.sol\";\r\nimport \"@openzeppelin/contracts/token/ERC721/ERC721.sol\";\r\nimport \"./OcxBase.sol\";\r\nimport \"./interface/IOcxPriceOracle.sol\";\r\n\r\n/*\r\n * -2: mint(): Error: caller of zero address\r\n * -3: Too small price\r\n * -4: PawnNFTs.mint(): The token id already exists\r\n * -5: PawnNFTs.mint(): The token URI already exists\r\n * -6: PawnNFTs.mint(): The token name already exists\r\n * -7: Invalid token id\r\n * -8: buyToken(): Error: caller of zero address\r\n * -9: buyToken(): The token id already exists\r\n * -10: buyToken(): Error: token owner of zero address\r\n * -11: buyToken(): Error: buyer is token owner\r\n * -12: buyToken(): Not enough funds\r\n * -13: buyToken(): Token should be for sale\r\n * -14: PawnNFTs: transfer from incorrect owner\r\n * -15: PawnNFTs: transfer to the zero address\r\n * -16: \r\n * -17: \r\n * -18: \r\n * -19: \r\n * -20: \r\n */\r\n\r\n// PawnNFTs smart contract inherits ERC721 interface\r\ncontract PawnNFTs is ERC721, OcxBase {\r\n\r\n  // total number of pawning NFTs minted\r\n  uint256 private totalSupply;\r\n\r\n  uint8   public decimals = 0;\r\n  \r\n  // define pawning NFT struct\r\n  struct PawnNFT {\r\n    uint256 tokenId;\r\n    string tokenName;\r\n    string tokenURI;\r\n    // address payable mintedBy;\r\n    address payable currentOwner;\r\n    address payable previousOwner;\r\n    uint256 originalPrice; // In OCAT\r\n    uint256 price;        // In OCAT\r\n    uint256 txCounter;\r\n    bool forSale;\r\n    uint256 mintedAt;\r\n  }\r\n\r\n  // map pawnNft's token id to pawning NFT\r\n  mapping(uint256 => PawnNFT) public allPawnNFTs;\r\n  // \r\n  // mapping(uint256 => string) public tokenURIs;\r\n  // check if token name exists\r\n  mapping(string => bool) public tokenNameExists;\r\n  // check if token URI exists\r\n  mapping(string => uint256) public tokenURIExists;\r\n\r\n  receive() external payable {}\r\n\r\n  // initialize contract while deployment with contract's collection name and token\r\n  constructor() ERC721(\"Openchain Pawning NFT\", \"PNFT\") {\r\n    // collectionName = name();\r\n    // collectionNameSymbol = symbol();\r\n  }\r\n\r\n  modifier onlyTokenOwner(uint256 _tokenId) virtual {\r\n    // check if the token id of the token being bought exists or not\r\n    require(_exists(_tokenId), \"-9\");\r\n    // sender should not be an zero address account\r\n    require(ownerOf(_tokenId) == msg.sender, \"-11\");\r\n    _;\r\n  }\r\n  // mint a new pawning NFT and return token ID\r\n  function mint(string memory _name, string memory _tokenURI, uint256 _price) external \r\n  onlyValidCaller\r\n  returns(uint256 newTokenID, uint256 estimatedOcats) {\r\n    // increment counter\r\n    totalSupply++;\r\n    newTokenID = totalSupply;\r\n    // check if a token exists with the above token id => incremented counter\r\n    require(!_exists(newTokenID), \"-4\");\r\n\r\n    // check if the token URI already exists or not194\r\n    require(tokenURIExists[_tokenURI] == 0, \"-5\");\r\n    // check if the token name already exists or not\r\n    require(!tokenNameExists[_name], \"-6\");\r\n\r\n    // mint the token\r\n    _safeMint(msg.sender, newTokenID);\r\n    // // set token URI (bind token id with the passed in token URI)\r\n    // tokenURIs[newTokenID] = _tokenURI;\r\n\r\n    // make passed token URI as exists\r\n    tokenURIExists[_tokenURI] = newTokenID;\r\n    // make token name passed as exists\r\n    tokenNameExists[_name] = true;\r\n\r\n    estimatedOcats = convertToOcat(_price);\r\n    (uint256 mintFeePercentage,,, uint256 feeDecimals) = IOcxPriceOracle(contractAddress[CommonContracts.PRICE_ORACLE]).getPnftFeePercentages();\r\n    // creat a new pawning NFT (struct) and pass in new values\r\n    allPawnNFTs[newTokenID] = PawnNFT(\r\n      newTokenID,\r\n      _name,\r\n      _tokenURI,\r\n      // payable(msg.sender),\r\n      payable(msg.sender),\r\n      payable(address(0)),\r\n      estimatedOcats, // Original price\r\n      estimatedOcats - \r\n        (estimatedOcats * mintFeePercentage) / (10 ** feeDecimals), // Current price\r\n      0,    // number of transfers\r\n      true, // for sale\r\n      block.timestamp\r\n    );\r\n  }\r\n  // get owner of the token\r\n  function getTokenOwner(uint256 _tokenId) public view returns(address) {\r\n    return ownerOf(_tokenId);\r\n  }\r\n  // get metadata of the token\r\n  function getTokenMetaData(uint _tokenId) public view \r\n  returns(string memory tokenMetaData) {\r\n    tokenMetaData = tokenURI(_tokenId);\r\n  }\r\n  // check if the token already exists\r\n  function exists(uint256 _tokenId) public view returns(bool tokenExists) {\r\n    tokenExists = _exists(_tokenId);\r\n  }\r\n  // by a token by passing in the token's id\r\n  function buyToken(uint256 _tokenId) public payable \r\n  onlyValidCaller {\r\n    // price sent in to buy should be equal to or more than the token's price\r\n    require(msg.value >= allPawnNFTs[_tokenId].price, \"-12\");\r\n    // token should be for sale\r\n    require(allPawnNFTs[_tokenId].forSale, \"-13\");\r\n    // transfer the token from owner to the caller of the function (buyer)\r\n    _transfer(ownerOf(_tokenId), msg.sender, _tokenId);\r\n    // send token's worth of ethers to the owner\r\n    allPawnNFTs[_tokenId].currentOwner.transfer(msg.value);\r\n    // update the token's previous owner\r\n    allPawnNFTs[_tokenId].previousOwner = allPawnNFTs[_tokenId].currentOwner;\r\n    // update the token's current owner\r\n    allPawnNFTs[_tokenId].currentOwner = payable(msg.sender);\r\n    // update the how many times this token was transfered\r\n    allPawnNFTs[_tokenId].txCounter += 1;\r\n  }\r\n  function _afterTokenTransfer(\r\n      address /*from*/,\r\n      address to,\r\n      uint256 tokenId\r\n  ) internal virtual override {\r\n    // Now the owner of the token ID is \"to\"\r\n    require(ERC721.ownerOf(tokenId) == to, \"-14\");\r\n    require(to != address(0), \"-15\");\r\n\r\n    // update the token's previous owner\r\n    allPawnNFTs[tokenId].previousOwner = allPawnNFTs[tokenId].currentOwner;\r\n    // update the token's current owner\r\n    allPawnNFTs[tokenId].currentOwner = payable(to);\r\n    allPawnNFTs[tokenId].txCounter += 1;\r\n  }\r\n  function changePrice(uint256 _tokenId, uint256 _newPrice) public \r\n  // onlyTokenOwner(_tokenId) {\r\n  onlyAdmin \r\n  {\r\n    // update token's price with new price\r\n    allPawnNFTs[_tokenId].price = _newPrice;\r\n  }\r\n  // switch between set for sale and set not for sale\r\n  function toggleForSale(uint256 _tokenId) public \r\n  onlyTokenOwner(_tokenId) {\r\n    // if token's forSale is false make it true and vice versa\r\n    allPawnNFTs[_tokenId].forSale = !(allPawnNFTs[_tokenId].forSale);\r\n  }\r\n}\r\n",
  "sourcePath": "E:\\Work\\OpenchainTestVersion\\server\\contracts\\PawnNFTs.sol",
  "compiler": {
    "name": "solc",
    "version": "0.8.4+commit.c7e474f2.Emscripten.clang"
  },
  "schemaVersion": "3.4.7",
  "updatedAt": "2022-05-05T00:08:05.255Z",
  "networkType": "ethereum",
  "devdoc": {
    "kind": "dev",
    "methods": {
      "approve(address,uint256)": {
        "details": "See {IERC721-approve}."
      },
      "balanceOf(address)": {
        "details": "See {IERC721-balanceOf}."
      },
      "getApproved(uint256)": {
        "details": "See {IERC721-getApproved}."
      },
      "isApprovedForAll(address,address)": {
        "details": "See {IERC721-isApprovedForAll}."
      },
      "name()": {
        "details": "See {IERC721Metadata-name}."
      },
      "ownerOf(uint256)": {
        "details": "See {IERC721-ownerOf}."
      },
      "safeTransferFrom(address,address,uint256)": {
        "details": "See {IERC721-safeTransferFrom}."
      },
      "safeTransferFrom(address,address,uint256,bytes)": {
        "details": "See {IERC721-safeTransferFrom}."
      },
      "setApprovalForAll(address,bool)": {
        "details": "See {IERC721-setApprovalForAll}."
      },
      "supportsInterface(bytes4)": {
        "details": "See {IERC165-supportsInterface}."
      },
      "symbol()": {
        "details": "See {IERC721Metadata-symbol}."
      },
      "tokenURI(uint256)": {
        "details": "See {IERC721Metadata-tokenURI}."
      },
      "transferFrom(address,address,uint256)": {
        "details": "See {IERC721-transferFrom}."
      }
    },
    "version": 1
  },
  "userdoc": {
    "kind": "user",
    "methods": {},
    "version": 1
  }
}