{
  "contractName": "PawnExchange",
  "abi": [
    {
      "stateMutability": "payable",
      "type": "receive"
    },
    {
      "inputs": [
        {
          "internalType": "address",
          "name": "_token",
          "type": "address"
        },
        {
          "internalType": "uint256",
          "name": "_price",
          "type": "uint256"
        },
        {
          "internalType": "uint256",
          "name": "_amount",
          "type": "uint256"
        }
      ],
      "name": "buyToken",
      "outputs": [],
      "stateMutability": "nonpayable",
      "type": "function"
    },
    {
      "inputs": [
        {
          "internalType": "address",
          "name": "_token",
          "type": "address"
        },
        {
          "internalType": "uint256",
          "name": "_price",
          "type": "uint256"
        },
        {
          "internalType": "uint256",
          "name": "_amount",
          "type": "uint256"
        }
      ],
      "name": "sellToken",
      "outputs": [],
      "stateMutability": "nonpayable",
      "type": "function"
    },
    {
      "inputs": [
        {
          "internalType": "address",
          "name": "_token",
          "type": "address"
        },
        {
          "internalType": "bool",
          "name": "isSellOrder",
          "type": "bool"
        },
        {
          "internalType": "uint256",
          "name": "_price",
          "type": "uint256"
        }
      ],
      "name": "removeOrder",
      "outputs": [],
      "stateMutability": "nonpayable",
      "type": "function"
    },
    {
      "inputs": [
        {
          "internalType": "address",
          "name": "_token",
          "type": "address"
        }
      ],
      "name": "getSellOrders",
      "outputs": [
        {
          "internalType": "uint256[]",
          "name": "",
          "type": "uint256[]"
        },
        {
          "internalType": "uint256[]",
          "name": "",
          "type": "uint256[]"
        }
      ],
      "stateMutability": "view",
      "type": "function"
    },
    {
      "inputs": [
        {
          "internalType": "address",
          "name": "_token",
          "type": "address"
        }
      ],
      "name": "getBuyOrders",
      "outputs": [
        {
          "internalType": "uint256[]",
          "name": "",
          "type": "uint256[]"
        },
        {
          "internalType": "uint256[]",
          "name": "",
          "type": "uint256[]"
        }
      ],
      "stateMutability": "view",
      "type": "function"
    },
    {
      "inputs": [
        {
          "internalType": "uint256",
          "name": "_wei",
          "type": "uint256"
        }
      ],
      "name": "withdrawEth",
      "outputs": [],
      "stateMutability": "nonpayable",
      "type": "function"
    },
    {
      "inputs": [
        {
          "internalType": "address",
          "name": "_token",
          "type": "address"
        },
        {
          "internalType": "uint256",
          "name": "_amount",
          "type": "uint256"
        }
      ],
      "name": "depositToken",
      "outputs": [],
      "stateMutability": "nonpayable",
      "type": "function"
    },
    {
      "inputs": [
        {
          "internalType": "address",
          "name": "_token",
          "type": "address"
        },
        {
          "internalType": "uint256",
          "name": "_amount",
          "type": "uint256"
        }
      ],
      "name": "withdrawToken",
      "outputs": [],
      "stateMutability": "nonpayable",
      "type": "function"
    }
  ],
  "bytecode": "0x608060405234801561001057600080fd5b50614452806100206000396000f3fe60806040526004361061007f5760003560e01c8063c311d0491161004e578063c311d04914610230578063d1b5062814610259578063e671499b14610282578063eac92f2a146102ab57610172565b8063338b5dea146101775780633e11741f146101a0578063551f7a50146101c95780639e281a981461020757610172565b3661017257600160003373ffffffffffffffffffffffffffffffffffffffff1673ffffffffffffffffffffffffffffffffffffffff1681526020019081526020016000205434600160003373ffffffffffffffffffffffffffffffffffffffff1673ffffffffffffffffffffffffffffffffffffffff1681526020019081526020016000205461010f91906141dd565b101561011a57600080fd5b34600160003373ffffffffffffffffffffffffffffffffffffffff1673ffffffffffffffffffffffffffffffffffffffff168152602001908152602001600020600082825461016991906141dd565b92505081905550005b600080fd5b34801561018357600080fd5b5061019e60048036038101906101999190613ea4565b6102e9565b005b3480156101ac57600080fd5b506101c760048036038101906101c29190613ee0565b6104b5565b005b3480156101d557600080fd5b506101f060048036038101906101eb9190613e2c565b610fc4565b6040516101fe929190614131565b60405180910390f35b34801561021357600080fd5b5061022e60048036038101906102299190613ea4565b611299565b005b34801561023c57600080fd5b5061025760048036038101906102529190613f58565b611571565b005b34801561026557600080fd5b50610280600480360381019061027b9190613e55565b611765565b005b34801561028e57600080fd5b506102a960048036038101906102a49190613ee0565b611c69565b005b3480156102b757600080fd5b506102d260048036038101906102cd9190613e2c565b612635565b6040516102e0929190614131565b60405180910390f35b6000829050818173ffffffffffffffffffffffffffffffffffffffff1663dd62ed3e33306040518363ffffffff1660e01b815260040161032a9291906140a8565b60206040518083038186803b15801561034257600080fd5b505afa158015610356573d6000803e3d6000fd5b505050506040513d601f19601f8201168201806040525081019061037a9190613f81565b101561038557600080fd5b8073ffffffffffffffffffffffffffffffffffffffff166323b872dd3330856040518463ffffffff1660e01b81526004016103c2939291906140d1565b602060405180830381600087803b1580156103dc57600080fd5b505af11580156103f0573d6000803e3d6000fd5b505050506040513d601f19601f820116820180604052508101906104149190613f2f565b61041d57600080fd5b81600260003373ffffffffffffffffffffffffffffffffffffffff1673ffffffffffffffffffffffffffffffffffffffff16815260200190815260200160002060008573ffffffffffffffffffffffffffffffffffffffff1673ffffffffffffffffffffffffffffffffffffffff16815260200190815260200160002060008282546104a991906141dd565b92505081905550505050565b60008060008573ffffffffffffffffffffffffffffffffffffffff1673ffffffffffffffffffffffffffffffffffffffff1681526020019081526020016000209050600082846105059190614233565b90508281101561051457600080fd5b8381101561052157600080fd5b82600260003373ffffffffffffffffffffffffffffffffffffffff1673ffffffffffffffffffffffffffffffffffffffff16815260200190815260200160002060008773ffffffffffffffffffffffffffffffffffffffff1673ffffffffffffffffffffffffffffffffffffffff1681526020019081526020016000205410156105aa57600080fd5b600083600260003373ffffffffffffffffffffffffffffffffffffffff1673ffffffffffffffffffffffffffffffffffffffff16815260200190815260200160002060008873ffffffffffffffffffffffffffffffffffffffff1673ffffffffffffffffffffffffffffffffffffffff16815260200190815260200160002054610634919061428d565b101561063f57600080fd5b600160003373ffffffffffffffffffffffffffffffffffffffff1673ffffffffffffffffffffffffffffffffffffffff1681526020019081526020016000205481600160003373ffffffffffffffffffffffffffffffffffffffff1673ffffffffffffffffffffffffffffffffffffffff168152602001908152602001600020546106ca91906141dd565b10156106d557600080fd5b82600260003373ffffffffffffffffffffffffffffffffffffffff1673ffffffffffffffffffffffffffffffffffffffff16815260200190815260200160002060008773ffffffffffffffffffffffffffffffffffffffff1673ffffffffffffffffffffffffffffffffffffffff1681526020019081526020016000206000828254610761919061428d565b9250508190555060008260040154148061077e5750838260020154105b156107945761078f8585853361290a565b610fbd565b600082600201549050600084905060005b8683101580156107b55750600082115b15610fa4578460010160008481526020019081526020016000206003015490505b8460010160008481526020019081526020016000206004015481111580156107fe5750600082115b15610f985760008560010160008581526020019081526020016000206002016000838152602001908152602001600020600001549050828111610ba557600084826108499190614233565b905081600260003373ffffffffffffffffffffffffffffffffffffffff1673ffffffffffffffffffffffffffffffffffffffff16815260200190815260200160002060008c73ffffffffffffffffffffffffffffffffffffffff1673ffffffffffffffffffffffffffffffffffffffff1681526020019081526020016000205410156108d457600080fd5b600082600260003373ffffffffffffffffffffffffffffffffffffffff1673ffffffffffffffffffffffffffffffffffffffff16815260200190815260200160002060008d73ffffffffffffffffffffffffffffffffffffffff1673ffffffffffffffffffffffffffffffffffffffff1681526020019081526020016000205461095e919061428d565b101561096957600080fd5b81600260003373ffffffffffffffffffffffffffffffffffffffff1673ffffffffffffffffffffffffffffffffffffffff16815260200190815260200160002060008c73ffffffffffffffffffffffffffffffffffffffff1673ffffffffffffffffffffffffffffffffffffffff16815260200190815260200160002060008282546109f5919061428d565b925050819055508160026000896001016000898152602001908152602001600020600201600087815260200190815260200160002060010160009054906101000a900473ffffffffffffffffffffffffffffffffffffffff1673ffffffffffffffffffffffffffffffffffffffff1673ffffffffffffffffffffffffffffffffffffffff16815260200190815260200160002060008c73ffffffffffffffffffffffffffffffffffffffff1673ffffffffffffffffffffffffffffffffffffffff1681526020019081526020016000206000828254610ad491906141dd565b92505081905550600087600101600087815260200190815260200160002060020160008581526020019081526020016000206000018190555080600160003373ffffffffffffffffffffffffffffffffffffffff1673ffffffffffffffffffffffffffffffffffffffff1681526020019081526020016000206000828254610b5c91906141dd565b925050819055508660010160008681526020019081526020016000206003016000815480929190610b8c90614333565b91905055508184610b9d919061428d565b935050610e64565b60008382610bb3919061428d565b11610bbd57600080fd5b8383610bc99190614233565b945082600260003373ffffffffffffffffffffffffffffffffffffffff1673ffffffffffffffffffffffffffffffffffffffff16815260200190815260200160002060008b73ffffffffffffffffffffffffffffffffffffffff1673ffffffffffffffffffffffffffffffffffffffff168152602001908152602001600020541015610c5457600080fd5b82600260003373ffffffffffffffffffffffffffffffffffffffff1673ffffffffffffffffffffffffffffffffffffffff16815260200190815260200160002060008b73ffffffffffffffffffffffffffffffffffffffff1673ffffffffffffffffffffffffffffffffffffffff1681526020019081526020016000206000828254610ce0919061428d565b925050819055508286600101600086815260200190815260200160002060020160008481526020019081526020016000206000016000828254610d23919061428d565b9250508190555084600160003373ffffffffffffffffffffffffffffffffffffffff1673ffffffffffffffffffffffffffffffffffffffff1681526020019081526020016000206000828254610d7991906141dd565b925050819055508260026000886001016000888152602001908152602001600020600201600086815260200190815260200160002060010160009054906101000a900473ffffffffffffffffffffffffffffffffffffffff1673ffffffffffffffffffffffffffffffffffffffff1673ffffffffffffffffffffffffffffffffffffffff16815260200190815260200160002060008b73ffffffffffffffffffffffffffffffffffffffff1673ffffffffffffffffffffffffffffffffffffffff1681526020019081526020016000206000828254610e5891906141dd565b92505081905550600092505b8560010160008581526020019081526020016000206004015482148015610eb757506000866001016000868152602001908152602001600020600201600084815260200190815260200160002060000154145b15610f8457856004016000815480929190610ed190614309565b919050555085600101600085815260200190815260200160002060010154841480610f145750600086600101600086815260200190815260200160002060010154145b15610f285760008660020181905550610f83565b8560010160008581526020019081526020016000206001015486600201819055508560020154866001016000886001016000888152602001908152602001600020600101548152602001908152602001600020600001819055505b5b8180610f8f90614333565b925050506107d6565b846002015492506107a5565b6000821115610fb957610fb88888846104b5565b5b5050505b5050505050565b60608060008060008573ffffffffffffffffffffffffffffffffffffffff1673ffffffffffffffffffffffffffffffffffffffff16815260200190815260200160002090506000816004015467ffffffffffffffff81111561104f577f4e487b7100000000000000000000000000000000000000000000000000000000600052604160045260246000fd5b60405190808252806020026020018201604052801561107d5781602001602082028036833780820191505090505b5090506000826004015467ffffffffffffffff8111156110c6577f4e487b7100000000000000000000000000000000000000000000000000000000600052604160045260246000fd5b6040519080825280602002602001820160405280156110f45781602001602082028036833780820191505090505b50905060008360030154905060008085600201541115611289575b846002015482116112885781848281518110611154577f4e487b7100000000000000000000000000000000000000000000000000000000600052603260045260246000fd5b6020026020010181815250506000808660010160008581526020019081526020016000206003015490505b8660010160008581526020019081526020016000206004015481116111eb57866001016000858152602001908152602001600020600201600082815260200190815260200160002060000154826111d691906141dd565b915080806111e390614333565b91505061117f565b81858481518110611225577f4e487b7100000000000000000000000000000000000000000000000000000000600052603260045260246000fd5b60200260200101818152505086600101600085815260200190815260200160002060000154841415611258575050611288565b866001016000858152602001908152602001600020600001549350828061127e90614333565b935050505061110f565b5b8383965096505050505050915091565b6000829050600082600260003373ffffffffffffffffffffffffffffffffffffffff1673ffffffffffffffffffffffffffffffffffffffff16815260200190815260200160002060008673ffffffffffffffffffffffffffffffffffffffff1673ffffffffffffffffffffffffffffffffffffffff16815260200190815260200160002054611328919061428d565b101561133357600080fd5b600260003373ffffffffffffffffffffffffffffffffffffffff1673ffffffffffffffffffffffffffffffffffffffff16815260200190815260200160002060008473ffffffffffffffffffffffffffffffffffffffff1673ffffffffffffffffffffffffffffffffffffffff1681526020019081526020016000205482600260003373ffffffffffffffffffffffffffffffffffffffff1673ffffffffffffffffffffffffffffffffffffffff16815260200190815260200160002060008673ffffffffffffffffffffffffffffffffffffffff1673ffffffffffffffffffffffffffffffffffffffff16815260200190815260200160002054611438919061428d565b111561144357600080fd5b81600260003373ffffffffffffffffffffffffffffffffffffffff1673ffffffffffffffffffffffffffffffffffffffff16815260200190815260200160002060008573ffffffffffffffffffffffffffffffffffffffff1673ffffffffffffffffffffffffffffffffffffffff16815260200190815260200160002060008282546114cf919061428d565b925050819055508073ffffffffffffffffffffffffffffffffffffffff1663a9059cbb33846040518363ffffffff1660e01b8152600401611511929190614108565b602060405180830381600087803b15801561152b57600080fd5b505af115801561153f573d6000803e3d6000fd5b505050506040513d601f19601f820116820180604052508101906115639190613f2f565b61156c57600080fd5b505050565b600081600160003373ffffffffffffffffffffffffffffffffffffffff1673ffffffffffffffffffffffffffffffffffffffff168152602001908152602001600020546115be919061428d565b10156115c957600080fd5b600160003373ffffffffffffffffffffffffffffffffffffffff1673ffffffffffffffffffffffffffffffffffffffff1681526020019081526020016000205481600160003373ffffffffffffffffffffffffffffffffffffffff1673ffffffffffffffffffffffffffffffffffffffff16815260200190815260200160002054611654919061428d565b111561165f57600080fd5b60003373ffffffffffffffffffffffffffffffffffffffff168260405161168590614093565b60006040518083038185875af1925050503d80600081146116c2576040519150601f19603f3d011682016040523d82523d6000602084013e6116c7565b606091505b505090508061170b576040517f08c379a000000000000000000000000000000000000000000000000000000000815260040161170290614168565b60405180910390fd5b81600160003373ffffffffffffffffffffffffffffffffffffffff1673ffffffffffffffffffffffffffffffffffffffff168152602001908152602001600020600082825461175a919061428d565b925050819055505050565b60008060008573ffffffffffffffffffffffffffffffffffffffff1673ffffffffffffffffffffffffffffffffffffffff16815260200190815260200160002090508215611a8b5760008160050160008481526020019081526020016000206003015490505b816005016000848152602001908152602001600020600401548111611a85573373ffffffffffffffffffffffffffffffffffffffff16826005016000858152602001908152602001600020600201600083815260200190815260200160002060010160009054906101000a900473ffffffffffffffffffffffffffffffffffffffff1673ffffffffffffffffffffffffffffffffffffffff161415611a725760008260050160008581526020019081526020016000206002016000838152602001908152602001600020600001549050600260003373ffffffffffffffffffffffffffffffffffffffff1673ffffffffffffffffffffffffffffffffffffffff16815260200190815260200160002060008773ffffffffffffffffffffffffffffffffffffffff1673ffffffffffffffffffffffffffffffffffffffff1681526020019081526020016000205481600260003373ffffffffffffffffffffffffffffffffffffffff1673ffffffffffffffffffffffffffffffffffffffff16815260200190815260200160002060008973ffffffffffffffffffffffffffffffffffffffff1673ffffffffffffffffffffffffffffffffffffffff168152602001908152602001600020546119a091906141dd565b10156119ab57600080fd5b600083600501600086815260200190815260200160002060020160008481526020019081526020016000206000018190555080600260003373ffffffffffffffffffffffffffffffffffffffff1673ffffffffffffffffffffffffffffffffffffffff16815260200190815260200160002060008873ffffffffffffffffffffffffffffffffffffffff1673ffffffffffffffffffffffffffffffffffffffff1681526020019081526020016000206000828254611a6991906141dd565b92505081905550505b8080611a7d90614333565b9150506117cb565b50611c63565b60008160010160008481526020019081526020016000206003015490505b816001016000848152602001908152602001600020600401548111611c61573373ffffffffffffffffffffffffffffffffffffffff16826001016000858152602001908152602001600020600201600083815260200190815260200160002060010160009054906101000a900473ffffffffffffffffffffffffffffffffffffffff1673ffffffffffffffffffffffffffffffffffffffff161415611c4e57600083836001016000868152602001908152602001600020600201600084815260200190815260200160002060000154611b829190614233565b9050600160003373ffffffffffffffffffffffffffffffffffffffff1673ffffffffffffffffffffffffffffffffffffffff1681526020019081526020016000205481600160003373ffffffffffffffffffffffffffffffffffffffff1673ffffffffffffffffffffffffffffffffffffffff16815260200190815260200160002054611c0f91906141dd565b1015611c1a57600080fd5b6000836001016000868152602001908152602001600020600201600084815260200190815260200160002060000181905550505b8080611c5990614333565b915050611aa9565b505b50505050565b60008060008573ffffffffffffffffffffffffffffffffffffffff1673ffffffffffffffffffffffffffffffffffffffff168152602001908152602001600020905060008284611cb99190614233565b905082811015611cc857600080fd5b83811015611cd557600080fd5b80600160003373ffffffffffffffffffffffffffffffffffffffff1673ffffffffffffffffffffffffffffffffffffffff168152602001908152602001600020541015611d2157600080fd5b600081600160003373ffffffffffffffffffffffffffffffffffffffff1673ffffffffffffffffffffffffffffffffffffffff16815260200190815260200160002054611d6e919061428d565b1015611d7957600080fd5b600160003373ffffffffffffffffffffffffffffffffffffffff1673ffffffffffffffffffffffffffffffffffffffff1681526020019081526020016000205481600160003373ffffffffffffffffffffffffffffffffffffffff1673ffffffffffffffffffffffffffffffffffffffff16815260200190815260200160002054611e04919061428d565b1115611e0f57600080fd5b80600160003373ffffffffffffffffffffffffffffffffffffffff1673ffffffffffffffffffffffffffffffffffffffff1681526020019081526020016000206000828254611e5e919061428d565b92505081905550600082600801541480611e7c575083826006015410155b15611e9257611e8d85858533613365565b61262e565b60008084905060008460060154905060005b878211158015611eb45750600083115b15612614578560050160008381526020019081526020016000206003015490505b856005016000838152602001908152602001600020600401548111158015611efd5750600083115b156126085760008660050160008481526020019081526020016000206002016000838152602001908152602001600020600001549050838111612228578281611f469190614233565b945084600160003373ffffffffffffffffffffffffffffffffffffffff1673ffffffffffffffffffffffffffffffffffffffff168152602001908152602001600020541015611f9457600080fd5b600160003373ffffffffffffffffffffffffffffffffffffffff1673ffffffffffffffffffffffffffffffffffffffff1681526020019081526020016000205485600160003373ffffffffffffffffffffffffffffffffffffffff1673ffffffffffffffffffffffffffffffffffffffff1681526020019081526020016000205461201f919061428d565b111561202a57600080fd5b84600160003373ffffffffffffffffffffffffffffffffffffffff1673ffffffffffffffffffffffffffffffffffffffff1681526020019081526020016000206000828254612079919061428d565b9250508190555080600260003373ffffffffffffffffffffffffffffffffffffffff1673ffffffffffffffffffffffffffffffffffffffff16815260200190815260200160002060008c73ffffffffffffffffffffffffffffffffffffffff1673ffffffffffffffffffffffffffffffffffffffff168152602001908152602001600020600082825461210c91906141dd565b9250508190555060008760050160008581526020019081526020016000206002016000848152602001908152602001600020600001819055508460016000896005016000878152602001908152602001600020600201600086815260200190815260200160002060010160009054906101000a900473ffffffffffffffffffffffffffffffffffffffff1673ffffffffffffffffffffffffffffffffffffffff1673ffffffffffffffffffffffffffffffffffffffff16815260200190815260200160002060008282546121e091906141dd565b92505081905550866005016000848152602001908152602001600020600301600081548092919061221090614333565b91905055508084612221919061428d565b93506124d7565b838760050160008581526020019081526020016000206002016000848152602001908152602001600020600001541161226057600080fd5b828461226c9190614233565b9450600160003373ffffffffffffffffffffffffffffffffffffffff1673ffffffffffffffffffffffffffffffffffffffff1681526020019081526020016000205485600160003373ffffffffffffffffffffffffffffffffffffffff1673ffffffffffffffffffffffffffffffffffffffff168152602001908152602001600020546122f9919061428d565b111561230457600080fd5b84600160003373ffffffffffffffffffffffffffffffffffffffff1673ffffffffffffffffffffffffffffffffffffffff1681526020019081526020016000206000828254612353919061428d565b925050819055508387600501600085815260200190815260200160002060020160008481526020019081526020016000206000016000828254612396919061428d565b925050819055508460016000896005016000878152602001908152602001600020600201600086815260200190815260200160002060010160009054906101000a900473ffffffffffffffffffffffffffffffffffffffff1673ffffffffffffffffffffffffffffffffffffffff1673ffffffffffffffffffffffffffffffffffffffff168152602001908152602001600020600082825461243891906141dd565b9250508190555083600260003373ffffffffffffffffffffffffffffffffffffffff1673ffffffffffffffffffffffffffffffffffffffff16815260200190815260200160002060008c73ffffffffffffffffffffffffffffffffffffffff1673ffffffffffffffffffffffffffffffffffffffff16815260200190815260200160002060008282546124cb91906141dd565b92505081905550600093505b866005016000848152602001908152602001600020600401548214801561252a57506000876005016000858152602001908152602001600020600201600084815260200190815260200160002060000154145b156125f45786600801600081548092919061254490614309565b9190505550866005016000848152602001908152602001600020600001548314806125875750600087600501600085815260200190815260200160002060000154145b1561259b57600087600601819055506125f3565b8660050160008481526020019081526020016000206000015487600601819055506000876005016000896005016000878152602001908152602001600020600001548152602001908152602001600020600101819055505b5b81806125ff90614333565b92505050611ed5565b85600601549150611ea4565b600083111561262957612628898985611c69565b5b505050505b5050505050565b60608060008060008573ffffffffffffffffffffffffffffffffffffffff1673ffffffffffffffffffffffffffffffffffffffff16815260200190815260200160002090506000816008015467ffffffffffffffff8111156126c0577f4e487b7100000000000000000000000000000000000000000000000000000000600052604160045260246000fd5b6040519080825280602002602001820160405280156126ee5781602001602082028036833780820191505090505b5090506000826008015467ffffffffffffffff811115612737577f4e487b7100000000000000000000000000000000000000000000000000000000600052604160045260246000fd5b6040519080825280602002602001820160405280156127655781602001602082028036833780820191505090505b509050600083600601549050600080856006015411156128fa575b846007015482116128f957818482815181106127c5577f4e487b7100000000000000000000000000000000000000000000000000000000600052603260045260246000fd5b6020026020010181815250506000808660050160008581526020019081526020016000206003015490505b86600501600085815260200190815260200160002060040154811161285c578660050160008581526020019081526020016000206002016000828152602001908152602001600020600001548261284791906141dd565b9150808061285490614333565b9150506127f0565b81858481518110612896577f4e487b7100000000000000000000000000000000000000000000000000000000600052603260045260246000fd5b602002602001018181525050866005016000858152602001908152602001600020600001548414156128c95750506128f9565b86600501600085815260200190815260200160002060000154935082806128ef90614333565b9350505050612780565b5b8383965096505050505050915091565b6000808573ffffffffffffffffffffffffffffffffffffffff1673ffffffffffffffffffffffffffffffffffffffff1681526020019081526020016000206005016000848152602001908152602001600020600401600081548092919061297090614333565b919050555060405180604001604052808381526020018273ffffffffffffffffffffffffffffffffffffffff168152506000808673ffffffffffffffffffffffffffffffffffffffff1673ffffffffffffffffffffffffffffffffffffffff168152602001908152602001600020600501600085815260200190815260200160002060020160008060008873ffffffffffffffffffffffffffffffffffffffff1673ffffffffffffffffffffffffffffffffffffffff16815260200190815260200160002060050160008781526020019081526020016000206004015481526020019081526020016000206000820151816000015560208201518160010160006101000a81548173ffffffffffffffffffffffffffffffffffffffff021916908373ffffffffffffffffffffffffffffffffffffffff16021790555090505060016000808673ffffffffffffffffffffffffffffffffffffffff1673ffffffffffffffffffffffffffffffffffffffff168152602001908152602001600020600501600085815260200190815260200160002060040154141561335f5760016000808673ffffffffffffffffffffffffffffffffffffffff1673ffffffffffffffffffffffffffffffffffffffff1681526020019081526020016000206005016000858152602001908152602001600020600301819055506000808573ffffffffffffffffffffffffffffffffffffffff1673ffffffffffffffffffffffffffffffffffffffff1681526020019081526020016000206008016000815480929190612bba90614333565b919050555060008060008673ffffffffffffffffffffffffffffffffffffffff1673ffffffffffffffffffffffffffffffffffffffff16815260200190815260200160002060060154905060008060008773ffffffffffffffffffffffffffffffffffffffff1673ffffffffffffffffffffffffffffffffffffffff1681526020019081526020016000206007015490506000811480612c5957508481105b15612ec2576000821415612d6857846000808873ffffffffffffffffffffffffffffffffffffffff1673ffffffffffffffffffffffffffffffffffffffff1681526020019081526020016000206006018190555060008060008873ffffffffffffffffffffffffffffffffffffffff1673ffffffffffffffffffffffffffffffffffffffff16815260200190815260200160002060050160008781526020019081526020016000206000018190555060008060008873ffffffffffffffffffffffffffffffffffffffff1673ffffffffffffffffffffffffffffffffffffffff168152602001908152602001600020600501600087815260200190815260200160002060010181905550612e77565b846000808873ffffffffffffffffffffffffffffffffffffffff1673ffffffffffffffffffffffffffffffffffffffff168152602001908152602001600020600501600083815260200190815260200160002060000181905550806000808873ffffffffffffffffffffffffffffffffffffffff1673ffffffffffffffffffffffffffffffffffffffff168152602001908152602001600020600501600087815260200190815260200160002060010181905550846000808873ffffffffffffffffffffffffffffffffffffffff1673ffffffffffffffffffffffffffffffffffffffff1681526020019081526020016000206005016000878152602001908152602001600020600001819055505b846000808873ffffffffffffffffffffffffffffffffffffffff1673ffffffffffffffffffffffffffffffffffffffff1681526020019081526020016000206007018190555061335c565b8482111561302457846000808873ffffffffffffffffffffffffffffffffffffffff1673ffffffffffffffffffffffffffffffffffffffff168152602001908152602001600020600501600084815260200190815260200160002060010181905550816000808873ffffffffffffffffffffffffffffffffffffffff1673ffffffffffffffffffffffffffffffffffffffff16815260200190815260200160002060050160008781526020019081526020016000206000018190555060008060008873ffffffffffffffffffffffffffffffffffffffff1673ffffffffffffffffffffffffffffffffffffffff168152602001908152602001600020600501600087815260200190815260200160002060010181905550846000808873ffffffffffffffffffffffffffffffffffffffff1673ffffffffffffffffffffffffffffffffffffffff1681526020019081526020016000206006018190555061335b565b60008060008873ffffffffffffffffffffffffffffffffffffffff1673ffffffffffffffffffffffffffffffffffffffff16815260200190815260200160002060060154905060005b60008211801561307b575080155b156133585786821080156130e35750866000808a73ffffffffffffffffffffffffffffffffffffffff1673ffffffffffffffffffffffffffffffffffffffff168152602001908152602001600020600501600084815260200190815260200160002060000154115b156132fb57816000808a73ffffffffffffffffffffffffffffffffffffffff1673ffffffffffffffffffffffffffffffffffffffff1681526020019081526020016000206005016000898152602001908152602001600020600101819055506000808973ffffffffffffffffffffffffffffffffffffffff1673ffffffffffffffffffffffffffffffffffffffff1681526020019081526020016000206005016000838152602001908152602001600020600001546000808a73ffffffffffffffffffffffffffffffffffffffff1673ffffffffffffffffffffffffffffffffffffffff168152602001908152602001600020600501600089815260200190815260200160002060000181905550866000808a73ffffffffffffffffffffffffffffffffffffffff1673ffffffffffffffffffffffffffffffffffffffff16815260200190815260200160002060050160008060008c73ffffffffffffffffffffffffffffffffffffffff1673ffffffffffffffffffffffffffffffffffffffff168152602001908152602001600020600501600086815260200190815260200160002060000154815260200190815260200160002060010181905550866000808a73ffffffffffffffffffffffffffffffffffffffff1673ffffffffffffffffffffffffffffffffffffffff1681526020019081526020016000206005016000848152602001908152602001600020600001819055505b6000808973ffffffffffffffffffffffffffffffffffffffff1673ffffffffffffffffffffffffffffffffffffffff168152602001908152602001600020600501600083815260200190815260200160002060000154915061306d565b50505b5b50505b50505050565b6000808573ffffffffffffffffffffffffffffffffffffffff1673ffffffffffffffffffffffffffffffffffffffff168152602001908152602001600020600101600084815260200190815260200160002060040160008154809291906133cb90614333565b919050555060405180604001604052808381526020018273ffffffffffffffffffffffffffffffffffffffff168152506000808673ffffffffffffffffffffffffffffffffffffffff1673ffffffffffffffffffffffffffffffffffffffff168152602001908152602001600020600101600085815260200190815260200160002060020160008060008873ffffffffffffffffffffffffffffffffffffffff1673ffffffffffffffffffffffffffffffffffffffff16815260200190815260200160002060010160008781526020019081526020016000206004015481526020019081526020016000206000820151816000015560208201518160010160006101000a81548173ffffffffffffffffffffffffffffffffffffffff021916908373ffffffffffffffffffffffffffffffffffffffff16021790555090505060016000808673ffffffffffffffffffffffffffffffffffffffff1673ffffffffffffffffffffffffffffffffffffffff1681526020019081526020016000206001016000858152602001908152602001600020600401541415613dbd5760016000808673ffffffffffffffffffffffffffffffffffffffff1673ffffffffffffffffffffffffffffffffffffffff1681526020019081526020016000206001016000858152602001908152602001600020600301819055506000808573ffffffffffffffffffffffffffffffffffffffff1673ffffffffffffffffffffffffffffffffffffffff168152602001908152602001600020600401600081548092919061361590614333565b919050555060008060008673ffffffffffffffffffffffffffffffffffffffff1673ffffffffffffffffffffffffffffffffffffffff16815260200190815260200160002060020154905060008060008773ffffffffffffffffffffffffffffffffffffffff1673ffffffffffffffffffffffffffffffffffffffff16815260200190815260200160002060030154905060008114806136b457508481115b1561391d5760008214156137c257846000808873ffffffffffffffffffffffffffffffffffffffff1673ffffffffffffffffffffffffffffffffffffffff16815260200190815260200160002060020181905550846000808873ffffffffffffffffffffffffffffffffffffffff1673ffffffffffffffffffffffffffffffffffffffff16815260200190815260200160002060010160008781526020019081526020016000206000018190555060008060008873ffffffffffffffffffffffffffffffffffffffff1673ffffffffffffffffffffffffffffffffffffffff1681526020019081526020016000206001016000878152602001908152602001600020600101819055506138d2565b846000808873ffffffffffffffffffffffffffffffffffffffff1673ffffffffffffffffffffffffffffffffffffffff168152602001908152602001600020600101600083815260200190815260200160002060010181905550806000808873ffffffffffffffffffffffffffffffffffffffff1673ffffffffffffffffffffffffffffffffffffffff16815260200190815260200160002060010160008781526020019081526020016000206000018190555060008060008873ffffffffffffffffffffffffffffffffffffffff1673ffffffffffffffffffffffffffffffffffffffff1681526020019081526020016000206001016000878152602001908152602001600020600101819055505b846000808873ffffffffffffffffffffffffffffffffffffffff1673ffffffffffffffffffffffffffffffffffffffff16815260200190815260200160002060030181905550613dba565b84821015613a7e57846000808873ffffffffffffffffffffffffffffffffffffffff1673ffffffffffffffffffffffffffffffffffffffff168152602001908152602001600020600101600084815260200190815260200160002060000181905550846000808873ffffffffffffffffffffffffffffffffffffffff1673ffffffffffffffffffffffffffffffffffffffff168152602001908152602001600020600101600087815260200190815260200160002060000181905550816000808873ffffffffffffffffffffffffffffffffffffffff1673ffffffffffffffffffffffffffffffffffffffff168152602001908152602001600020600101600087815260200190815260200160002060010181905550846000808873ffffffffffffffffffffffffffffffffffffffff1673ffffffffffffffffffffffffffffffffffffffff16815260200190815260200160002060020181905550613db9565b60008060008873ffffffffffffffffffffffffffffffffffffffff1673ffffffffffffffffffffffffffffffffffffffff16815260200190815260200160002060020154905060005b600082118015613ad5575080155b15613db6578682108015613b3d5750866000808a73ffffffffffffffffffffffffffffffffffffffff1673ffffffffffffffffffffffffffffffffffffffff168152602001908152602001600020600101600084815260200190815260200160002060000154115b15613d5957816000808a73ffffffffffffffffffffffffffffffffffffffff1673ffffffffffffffffffffffffffffffffffffffff1681526020019081526020016000206001016000898152602001908152602001600020600101819055506000808973ffffffffffffffffffffffffffffffffffffffff1673ffffffffffffffffffffffffffffffffffffffff1681526020019081526020016000206001016000838152602001908152602001600020600001546000808a73ffffffffffffffffffffffffffffffffffffffff1673ffffffffffffffffffffffffffffffffffffffff168152602001908152602001600020600101600089815260200190815260200160002060000181905550866000808a73ffffffffffffffffffffffffffffffffffffffff1673ffffffffffffffffffffffffffffffffffffffff16815260200190815260200160002060010160008060008c73ffffffffffffffffffffffffffffffffffffffff1673ffffffffffffffffffffffffffffffffffffffff168152602001908152602001600020600101600086815260200190815260200160002060000154815260200190815260200160002060010181905550866000808a73ffffffffffffffffffffffffffffffffffffffff1673ffffffffffffffffffffffffffffffffffffffff168152602001908152602001600020600101600084815260200190815260200160002060000181905550600190505b6000808973ffffffffffffffffffffffffffffffffffffffff1673ffffffffffffffffffffffffffffffffffffffff1681526020019081526020016000206001016000838152602001908152602001600020600101549150613ac7565b50505b5b50505b50505050565b600081359050613dd2816143d7565b92915050565b600081359050613de7816143ee565b92915050565b600081519050613dfc816143ee565b92915050565b600081359050613e1181614405565b92915050565b600081519050613e2681614405565b92915050565b600060208284031215613e3e57600080fd5b6000613e4c84828501613dc3565b91505092915050565b600080600060608486031215613e6a57600080fd5b6000613e7886828701613dc3565b9350506020613e8986828701613dd8565b9250506040613e9a86828701613e02565b9150509250925092565b60008060408385031215613eb757600080fd5b6000613ec585828601613dc3565b9250506020613ed685828601613e02565b9150509250929050565b600080600060608486031215613ef557600080fd5b6000613f0386828701613dc3565b9350506020613f1486828701613e02565b9250506040613f2586828701613e02565b9150509250925092565b600060208284031215613f4157600080fd5b6000613f4f84828501613ded565b91505092915050565b600060208284031215613f6a57600080fd5b6000613f7884828501613e02565b91505092915050565b600060208284031215613f9357600080fd5b6000613fa184828501613e17565b91505092915050565b6000613fb68383614075565b60208301905092915050565b613fcb816142c1565b82525050565b6000613fdc82614198565b613fe681856141b0565b9350613ff183614188565b8060005b838110156140225781516140098882613faa565b9750614014836141a3565b925050600181019050613ff5565b5085935050505092915050565b600061403c6014836141cc565b9150614047826143ab565b602082019050919050565b600061405f6000836141c1565b915061406a826143d4565b600082019050919050565b61407e816142ff565b82525050565b61408d816142ff565b82525050565b600061409e82614052565b9150819050919050565b60006040820190506140bd6000830185613fc2565b6140ca6020830184613fc2565b9392505050565b60006060820190506140e66000830186613fc2565b6140f36020830185613fc2565b6141006040830184614084565b949350505050565b600060408201905061411d6000830185613fc2565b61412a6020830184614084565b9392505050565b6000604082019050818103600083015261414b8185613fd1565b9050818103602083015261415f8184613fd1565b90509392505050565b600060208201905081810360008301526141818161402f565b9050919050565b6000819050602082019050919050565b600081519050919050565b6000602082019050919050565b600082825260208201905092915050565b600081905092915050565b600082825260208201905092915050565b60006141e8826142ff565b91506141f3836142ff565b9250827fffffffffffffffffffffffffffffffffffffffffffffffffffffffffffffffff038211156142285761422761437c565b5b828201905092915050565b600061423e826142ff565b9150614249836142ff565b9250817fffffffffffffffffffffffffffffffffffffffffffffffffffffffffffffffff04831182151516156142825761428161437c565b5b828202905092915050565b6000614298826142ff565b91506142a3836142ff565b9250828210156142b6576142b561437c565b5b828203905092915050565b60006142cc826142df565b9050919050565b60008115159050919050565b600073ffffffffffffffffffffffffffffffffffffffff82169050919050565b6000819050919050565b6000614314826142ff565b915060008214156143285761432761437c565b5b600182039050919050565b600061433e826142ff565b91507fffffffffffffffffffffffffffffffffffffffffffffffffffffffffffffffff8214156143715761437061437c565b5b600182019050919050565b7f4e487b7100000000000000000000000000000000000000000000000000000000600052601160045260246000fd5b7f4661696c656420746f2073656e64204574686572000000000000000000000000600082015250565b50565b6143e0816142c1565b81146143eb57600080fd5b50565b6143f7816142d3565b811461440257600080fd5b50565b61440e816142ff565b811461441957600080fd5b5056fea2646970667358221220a5cc5c286c543551300ea1ad1cffbb131ce818cbe902f3eef5db43c1f68a130b64736f6c63430008040033",
  "immutableReferences": {},
  "source": "// SPDX-License-Identifier: MIT\npragma solidity ^0.8.0;\n\nimport \"@openzeppelin/contracts/token/ERC20/IERC20.sol\"; // openzeppelin 4.5 (for solidity 0.8.x)\n\ncontract PawnExchange{\n    \n    struct Offer{\n        uint amount;\n        address maker;\n    }\n    struct OrderBook{\n        uint higherPrice;\n        uint lowerPrice;\n        \n        mapping (uint => Offer) offers;\n        uint offerPointer;\n        uint offerLength;\n    }\n    struct Token {\n        address tokenContract;\n        mapping (uint => OrderBook) buyBook;\n        uint maxBuyPrice;\n        uint minBuyPrice;\n        uint amountBuyPrices;\n        \n        mapping (uint => OrderBook) sellBook;\n        uint minSellPrice;\n        uint maxSellPrice;\n        uint amountSellPrice;\n    }\n    \n    mapping (address=> Token) tokenList;\n    \n    mapping (address => uint) ethBalance;\n    \n    mapping (address => mapping(address=>uint)) tokenBalance;\n    \n    function buyToken(address _token, uint _price, uint _amount) public{\n\n        Token storage loadedToken = tokenList[_token];\n        uint ethRequired = _price*_amount;\n        \n        require(ethRequired>=_amount);\n        require(ethRequired>=_price);\n        require(ethBalance[msg.sender]>=ethRequired);\n        require(ethBalance[msg.sender]-ethRequired>=0);\n        require(ethBalance[msg.sender]-ethRequired<=ethBalance[msg.sender]);\n        ethBalance[msg.sender]-=ethRequired;\n        \n        if (loadedToken.amountSellPrice==0||loadedToken.minSellPrice>=_price){\n            storeBuyOrder(_token, _price, _amount, msg.sender);\n        } else { //execute order\n            uint ethAmount = 0;\n            uint remainingAmount = _amount;\n            uint buyPrice = loadedToken.minSellPrice;\n            uint offerPointer;\n            while(buyPrice<=_price&&remainingAmount>0){\n                offerPointer = loadedToken.sellBook[buyPrice].offerPointer;\n                while(offerPointer <= loadedToken.sellBook[buyPrice].offerLength && remainingAmount >0){\n                    uint volumeAtPointer = loadedToken.sellBook[buyPrice].offers[offerPointer].amount;\n                    if(volumeAtPointer<=remainingAmount){\n                        ethAmount=volumeAtPointer*buyPrice;\n                        require(ethBalance[msg.sender]>=ethAmount);\n                        require(ethBalance[msg.sender]-ethAmount<=ethBalance[msg.sender]);\n                        ethBalance[msg.sender]-=ethAmount;\n                        tokenBalance[msg.sender][_token]+=volumeAtPointer;\n                        loadedToken.sellBook[buyPrice].offers[offerPointer].amount=0;\n                        ethBalance[loadedToken.sellBook[buyPrice].offers[offerPointer].maker]+=ethAmount;\n                        loadedToken.sellBook[buyPrice].offerPointer++;\n                        remainingAmount-=volumeAtPointer;\n                    }else{\n                        require(loadedToken.sellBook[buyPrice].offers[offerPointer].amount>remainingAmount);\n                        ethAmount=remainingAmount*buyPrice;\n                        require(ethBalance[msg.sender]-ethAmount<=ethBalance[msg.sender]);\n                        ethBalance[msg.sender]-=ethAmount;\n                        loadedToken.sellBook[buyPrice].offers[offerPointer].amount-=remainingAmount;\n                        ethBalance[loadedToken.sellBook[buyPrice].offers[offerPointer].maker]+=ethAmount;\n                        tokenBalance[msg.sender][_token]+=remainingAmount;\n                        remainingAmount=0;\n                    }\n                    \n                    if(offerPointer==loadedToken.sellBook[buyPrice].offerLength&&loadedToken.sellBook[buyPrice].offers[offerPointer].amount==0){\n                        loadedToken.amountSellPrice--;\n                        if(buyPrice==loadedToken.sellBook[buyPrice].higherPrice||loadedToken.sellBook[buyPrice].higherPrice==0){\n                            loadedToken.minSellPrice=0;\n                        }else{\n                            loadedToken.minSellPrice=loadedToken.sellBook[buyPrice].higherPrice;\n                            loadedToken.sellBook[loadedToken.sellBook[buyPrice].higherPrice].lowerPrice=0;\n                        }\n                    }\n                    offerPointer++;\n                }\n                buyPrice=loadedToken.minSellPrice;\n            }\n            if (remainingAmount>0){\n                buyToken(_token, _price, remainingAmount);\n            }\n        }\n    }\n    \n    function sellToken(address _token, uint _price, uint _amount) public{\n        Token storage loadedToken = tokenList[_token];\n        uint ethRequired = _price*_amount;\n        \n        require(ethRequired>=_amount);\n        require(ethRequired>=_price);\n        require(tokenBalance[msg.sender][_token]>=_amount);\n        require(tokenBalance[msg.sender][_token]-_amount>=0);\n        require(ethBalance[msg.sender]+ethRequired>=ethBalance[msg.sender]);\n        \n        tokenBalance[msg.sender][_token]-=_amount;\n        \n        if(loadedToken.amountBuyPrices==0||loadedToken.maxBuyPrice<_price){\n            storeSellOrder(_token, _price, _amount, msg.sender);\n        }else {\n            uint sellPrice = loadedToken.maxBuyPrice;\n            uint remainingAmount=_amount;\n            uint offerPointer;\n            while (sellPrice>=_price && remainingAmount > 0){\n                offerPointer = loadedToken.buyBook[sellPrice].offerPointer;\n                while(offerPointer<=loadedToken.buyBook[sellPrice].offerLength && remainingAmount>0){\n                    uint volumeAtPointer = loadedToken.buyBook[sellPrice].offers[offerPointer].amount;\n                    if (volumeAtPointer<=remainingAmount){\n                        uint ethRequiredNow = volumeAtPointer*sellPrice;\n                        require(tokenBalance[msg.sender][_token]>=volumeAtPointer);\n                        require(tokenBalance[msg.sender][_token]-volumeAtPointer>=0);\n                        tokenBalance[msg.sender][_token]-=volumeAtPointer;\n                        tokenBalance[loadedToken.buyBook[sellPrice].offers[offerPointer].maker][_token]+=volumeAtPointer;\n                        loadedToken.buyBook[sellPrice].offers[offerPointer].amount=0;\n                        ethBalance[msg.sender]+=ethRequiredNow;\n                        loadedToken.buyBook[sellPrice].offerPointer++;\n                        remainingAmount-=volumeAtPointer;\n                    }else{\n                        require(volumeAtPointer-remainingAmount>0);\n                        ethRequired = remainingAmount*sellPrice;\n                        require(tokenBalance[msg.sender][_token]>=remainingAmount);\n                        tokenBalance[msg.sender][_token]-=remainingAmount;\n                        loadedToken.buyBook[sellPrice].offers[offerPointer].amount-=remainingAmount;\n                        ethBalance[msg.sender]+=ethRequired;\n                        tokenBalance[loadedToken.buyBook[sellPrice].offers[offerPointer].maker][_token]+=remainingAmount;\n                        remainingAmount=0;\n                    }\n                    \n                    if(offerPointer==loadedToken.buyBook[sellPrice].offerLength && loadedToken.buyBook[sellPrice].offers[offerPointer].amount==0){\n                        loadedToken.amountBuyPrices--;\n                        if (sellPrice==loadedToken.buyBook[sellPrice].lowerPrice || loadedToken.buyBook[sellPrice].lowerPrice==0){\n                        loadedToken.maxBuyPrice=0;\n                        }else {\n                            loadedToken.maxBuyPrice=loadedToken.buyBook[sellPrice].lowerPrice;\n                            loadedToken.buyBook[loadedToken.buyBook[sellPrice].lowerPrice].higherPrice=loadedToken.maxBuyPrice;\n                        }\n                    }\n                    offerPointer++;\n                }\n                sellPrice=loadedToken.maxBuyPrice;\n            }\n            if (remainingAmount>0){\n                sellToken(_token, _price, remainingAmount);\n            }\n        }\n    }\n    \n    function storeSellOrder(address _token, uint _price, uint _amount, address _maker) private{\n        tokenList[_token].sellBook[_price].offerLength++;\n        tokenList[_token].sellBook[_price].offers[tokenList[_token].sellBook[_price].offerLength] = Offer(_amount, _maker);\n        \n        if (tokenList[_token].sellBook[_price].offerLength==1){\n            tokenList[_token].sellBook[_price].offerPointer=1;\n            tokenList[_token].amountSellPrice++;\n            \n            uint currentSellPrice = tokenList[_token].minSellPrice;\n            uint highestSellPrice = tokenList[_token].maxSellPrice;\n            \n            if (highestSellPrice==0 || highestSellPrice<_price){\n                if(currentSellPrice==0){\n                    tokenList[_token].minSellPrice=_price;\n                    tokenList[_token].sellBook[_price].higherPrice=0;\n                    tokenList[_token].sellBook[_price].lowerPrice=0;\n                }else{\n                    tokenList[_token].sellBook[highestSellPrice].higherPrice = _price;\n                    tokenList[_token].sellBook[_price].lowerPrice = highestSellPrice;\n                    tokenList[_token].sellBook[_price].higherPrice = _price;\n                }\n                tokenList[_token].maxSellPrice=_price;\n            }else if(currentSellPrice>_price){\n                tokenList[_token].sellBook[currentSellPrice].lowerPrice=_price;\n                tokenList[_token].sellBook[_price].higherPrice=currentSellPrice;\n                tokenList[_token].sellBook[_price].lowerPrice=0;\n                tokenList[_token].minSellPrice=_price;\n            }else{\n                uint sellPrice = tokenList[_token].minSellPrice;\n                bool finished=false;\n                while(sellPrice>0 && !finished){\n                    if(sellPrice<_price&&tokenList[_token].sellBook[sellPrice].higherPrice>_price){\n                        tokenList[_token].sellBook[_price].lowerPrice = sellPrice;\n                        tokenList[_token].sellBook[_price].higherPrice = tokenList[_token].sellBook[sellPrice].higherPrice;\n                        \n                        tokenList[_token].sellBook[tokenList[_token].sellBook[sellPrice].higherPrice].lowerPrice=_price;\n                        \n                        tokenList[_token].sellBook[sellPrice].higherPrice = _price;\n                    }\n                    sellPrice=tokenList[_token].sellBook[sellPrice].higherPrice;\n                }\n            }\n        }\n    }\n    \n    function storeBuyOrder(address _token, uint _price, uint _amount, address _maker) private{\n        tokenList[_token].buyBook[_price].offerLength++;\n        tokenList[_token].buyBook[_price].offers[tokenList[_token].buyBook[_price].offerLength]=Offer(_amount, _maker);\n        \n        if(tokenList[_token].buyBook[_price].offerLength==1){\n            tokenList[_token].buyBook[_price].offerPointer=1;\n            tokenList[_token].amountBuyPrices++;\n            \n            uint currentBuyPrice = tokenList[_token].maxBuyPrice;\n            uint lowestBuyPrice = tokenList[_token].minBuyPrice;\n            \n            if(lowestBuyPrice==0||lowestBuyPrice>_price){\n                if (currentBuyPrice==0){\n                    tokenList[_token].maxBuyPrice=_price;\n                    tokenList[_token].buyBook[_price].higherPrice = _price;\n                    tokenList[_token].buyBook[_price].lowerPrice = 0;\n                }else{\n                    tokenList[_token].buyBook[lowestBuyPrice].lowerPrice=_price;\n                    tokenList[_token].buyBook[_price].higherPrice=lowestBuyPrice;\n                    tokenList[_token].buyBook[_price].lowerPrice=0;\n                }\n                tokenList[_token].minBuyPrice=_price;\n            }else if(currentBuyPrice<_price){\n                tokenList[_token].buyBook[currentBuyPrice].higherPrice=_price;\n                tokenList[_token].buyBook[_price].higherPrice=_price;\n                tokenList[_token].buyBook[_price].lowerPrice=currentBuyPrice;\n                tokenList[_token].maxBuyPrice=_price;\n            }else{\n                uint buyPrice = tokenList[_token].maxBuyPrice;\n                bool finished=false;\n                while(buyPrice>0&&!finished){\n                    if(buyPrice<_price && tokenList[_token].buyBook[buyPrice].higherPrice>_price){\n                        tokenList[_token].buyBook[_price].lowerPrice=buyPrice;\n                        tokenList[_token].buyBook[_price].higherPrice=tokenList[_token].buyBook[buyPrice].higherPrice;\n                        tokenList[_token].buyBook[tokenList[_token].buyBook[buyPrice].higherPrice].lowerPrice=_price;\n                        tokenList[_token].buyBook[buyPrice].higherPrice=_price;\n                        finished=true;\n                    }\n                    buyPrice=tokenList[_token].buyBook[buyPrice].lowerPrice;\n                }\n            }\n        }\n    }\n    \n    function removeOrder(address _token, bool isSellOrder, uint _price) public{\n        Token storage loadedToken = tokenList[_token];\n        if (isSellOrder){\n            uint counter = loadedToken.sellBook[_price].offerPointer;\n            while (counter <= loadedToken.sellBook[_price].offerLength){\n                if (loadedToken.sellBook[_price].offers[counter].maker==msg.sender){\n                    uint orderVolume = loadedToken.sellBook[_price].offers[counter].amount;\n                    require(tokenBalance[msg.sender][_token]+orderVolume>=tokenBalance[msg.sender][_token]);\n                    loadedToken.sellBook[_price].offers[counter].amount=0;\n                    tokenBalance[msg.sender][_token]+=orderVolume;\n                }\n                counter++;\n            }\n        }else {\n            uint counter = loadedToken.buyBook[_price].offerPointer;\n            while (counter <= loadedToken.buyBook[_price].offerLength){\n                if (loadedToken.buyBook[_price].offers[counter].maker==msg.sender){\n                    uint orderVolume = loadedToken.buyBook[_price].offers[counter].amount*_price;\n                    require(ethBalance[msg.sender]+orderVolume>=ethBalance[msg.sender]);\n                    loadedToken.buyBook[_price].offers[counter].amount=0;\n                }\n                counter++;\n            }\n        }\n    }\n    \n    function getSellOrders(address _token) public view returns(uint[] memory, uint[] memory){\n        Token storage loadedToken = tokenList[_token];\n        uint[] memory ordersPrices = new uint[](loadedToken.amountSellPrice);\n        uint[] memory ordersvolumes = new uint[](loadedToken.amountSellPrice);\n        \n        uint sellPrice = loadedToken.minSellPrice;\n        uint counter = 0;\n        \n        if (loadedToken.minSellPrice>0){\n            while(sellPrice<=loadedToken.maxSellPrice){\n                \n                \n                 ordersPrices[counter] = sellPrice;\n                 uint priceVolume = 0;\n                 uint offerPointer = loadedToken.sellBook[sellPrice].offerPointer;\n                \n                while(offerPointer <=loadedToken.sellBook[sellPrice].offerLength){\n                    priceVolume += loadedToken.sellBook[sellPrice].offers[offerPointer].amount;\n                    offerPointer++;\n                }\n                ordersvolumes[counter]=priceVolume;\n                if (sellPrice==loadedToken.sellBook[sellPrice].higherPrice){\n                    break;\n                }else{\n                    sellPrice=loadedToken.sellBook[sellPrice].higherPrice;\n                }\n                counter++;\n            }\n        }\n        return(ordersPrices, ordersvolumes);\n    }\n    \n    function getBuyOrders(address _token) public view returns(uint[] memory, uint[] memory){\n        Token storage loadedToken = tokenList[_token];\n        uint[] memory ordersPrices = new uint[](loadedToken.amountBuyPrices);\n        uint[] memory ordersvolumes = new uint[](loadedToken.amountBuyPrices);\n        \n        uint buyPrice = loadedToken.minBuyPrice;\n        uint counter = 0;\n        \n        if (loadedToken.maxBuyPrice>0){\n            while(buyPrice<=loadedToken.maxBuyPrice){\n                ordersPrices[counter]=buyPrice;\n                uint priceVolume=0;\n                uint offerPointer=loadedToken.buyBook[buyPrice].offerPointer;\n                \n                while(offerPointer<=loadedToken.buyBook[buyPrice].offerLength){\n                    priceVolume+=loadedToken.buyBook[buyPrice].offers[offerPointer].amount;\n                    offerPointer++;\n                }\n                \n                ordersvolumes[counter] = priceVolume;\n                \n                if (buyPrice==loadedToken.buyBook[buyPrice].higherPrice){\n                    break;\n                }else{\n                    buyPrice=loadedToken.buyBook[buyPrice].higherPrice;\n                }\n                counter++;\n            }\n        }\n        \n        return(ordersPrices, ordersvolumes);\n    }\n    \n    receive() external payable {\n        require(ethBalance[msg.sender]+msg.value>=ethBalance[msg.sender]);\n        ethBalance[msg.sender]+=msg.value;\n    }\n\n    // function() external payable {\n    //     require(ethBalance[msg.sender]+msg.value>=ethBalance[msg.sender]);\n    //     ethBalance[msg.sender]+=msg.value;\n    // }    \n    \n    function withdrawEth(uint _wei) public {\n        require(ethBalance[msg.sender]-_wei>=0);\n        require(ethBalance[msg.sender]-_wei<=ethBalance[msg.sender]);\n        (bool sent, /*bytes memory data*/) = msg.sender.call{value: _wei}(\"\");\n        require(sent, \"Failed to send Ether\");\n        ethBalance[msg.sender]-=_wei;\n    }\n    \n    function depositToken(address _token, uint _amount) public {\n        IERC20 tokenLoaded = IERC20(_token);\n        require(tokenLoaded.allowance(msg.sender, address(this))>=_amount);\n        require(tokenLoaded.transferFrom(msg.sender, address(this), _amount));\n        tokenBalance[msg.sender][_token]+=_amount;\n    }\n    \n    function withdrawToken(address _token, uint _amount) public {\n        IERC20 tokenLoaded = IERC20(_token);\n        require(tokenBalance[msg.sender][_token]-_amount>=0);\n        require(tokenBalance[msg.sender][_token]-_amount<=tokenBalance[msg.sender][_token]);\n        tokenBalance[msg.sender][_token]-=_amount;\n        require(tokenLoaded.transfer(msg.sender, _amount));\n    }\n \n}",
  "sourcePath": "/home/vn/MyProjects/OpenchainDex/OpenchainTestVersion/server/contracts/PawnExchange.sol",
  "compiler": {
    "name": "solc",
    "version": "0.8.4+commit.c7e474f2.Emscripten.clang"
  },
  "schemaVersion": "3.4.4",
  "updatedAt": "2022-03-16T01:48:52.632Z",
  "devdoc": {
    "kind": "dev",
    "methods": {},
    "version": 1
  },
  "userdoc": {
    "kind": "user",
    "methods": {},
    "version": 1
  }
}