{
  "contractName": "PawnExchange",
  "abi": [
    {
      "inputs": [],
      "stateMutability": "nonpayable",
      "type": "constructor"
    },
    {
      "anonymous": false,
      "inputs": [
        {
          "indexed": false,
          "internalType": "uint256",
          "name": "realPrice",
          "type": "uint256"
        },
        {
          "indexed": false,
          "internalType": "uint256",
          "name": "fee",
          "type": "uint256"
        }
      ],
      "name": "SwappedToOcat",
      "type": "event"
    },
    {
      "inputs": [
        {
          "internalType": "address",
          "name": "_admin",
          "type": "address"
        }
      ],
      "name": "addAdmin",
      "outputs": [],
      "stateMutability": "nonpayable",
      "type": "function"
    },
    {
      "inputs": [],
      "name": "getAdmins",
      "outputs": [
        {
          "internalType": "address[]",
          "name": "",
          "type": "address[]"
        }
      ],
      "stateMutability": "view",
      "type": "function",
      "constant": true
    },
    {
      "inputs": [
        {
          "internalType": "address payable",
          "name": "",
          "type": "address"
        },
        {
          "internalType": "address payable",
          "name": "",
          "type": "address"
        },
        {
          "internalType": "uint256",
          "name": "",
          "type": "uint256"
        },
        {
          "internalType": "bytes",
          "name": "",
          "type": "bytes"
        }
      ],
      "name": "onERC721Received",
      "outputs": [
        {
          "internalType": "bytes4",
          "name": "",
          "type": "bytes4"
        }
      ],
      "stateMutability": "pure",
      "type": "function",
      "constant": true
    },
    {
      "inputs": [
        {
          "internalType": "address payable",
          "name": "_pnftAddress",
          "type": "address"
        }
      ],
      "name": "setPnftAddress",
      "outputs": [],
      "stateMutability": "nonpayable",
      "type": "function"
    },
    {
      "inputs": [
        {
          "internalType": "address payable",
          "name": "_ocatAddress",
          "type": "address"
        }
      ],
      "name": "setOcatAddress",
      "outputs": [],
      "stateMutability": "nonpayable",
      "type": "function"
    },
    {
      "inputs": [
        {
          "internalType": "address payable",
          "name": "_feeManager",
          "type": "address"
        }
      ],
      "name": "setFeeManager",
      "outputs": [],
      "stateMutability": "nonpayable",
      "type": "function"
    },
    {
      "inputs": [
        {
          "internalType": "uint8",
          "name": "_minPnftPrice",
          "type": "uint8"
        }
      ],
      "name": "setMinPnftPrice",
      "outputs": [],
      "stateMutability": "nonpayable",
      "type": "function"
    },
    {
      "inputs": [
        {
          "internalType": "enum FeeType",
          "name": "feeType",
          "type": "uint8"
        },
        {
          "internalType": "uint32",
          "name": "feeValue",
          "type": "uint32"
        }
      ],
      "name": "setFee",
      "outputs": [],
      "stateMutability": "nonpayable",
      "type": "function"
    },
    {
      "inputs": [
        {
          "internalType": "enum FeeType",
          "name": "feeType",
          "type": "uint8"
        }
      ],
      "name": "getFee",
      "outputs": [
        {
          "internalType": "uint32",
          "name": "",
          "type": "uint32"
        }
      ],
      "stateMutability": "view",
      "type": "function",
      "constant": true
    },
    {
      "inputs": [
        {
          "internalType": "uint256",
          "name": "nftID",
          "type": "uint256"
        }
      ],
      "name": "exchangeToOcat",
      "outputs": [
        {
          "internalType": "uint256",
          "name": "",
          "type": "uint256"
        },
        {
          "internalType": "uint256",
          "name": "",
          "type": "uint256"
        }
      ],
      "stateMutability": "nonpayable",
      "type": "function"
    },
    {
      "inputs": [
        {
          "internalType": "uint256",
          "name": "nftID",
          "type": "uint256"
        }
      ],
      "name": "exchangeFromOcat",
      "outputs": [],
      "stateMutability": "nonpayable",
      "type": "function"
    }
  ],
  "bytecode": "0x60806040526004600660006101000a81548160ff021916908360ff160217905550611388600860006101000a81548167ffffffffffffffff021916908367ffffffffffffffff1602179055503480156200005857600080fd5b5033600160006101000a81548173ffffffffffffffffffffffffffffffffffffffff021916908373ffffffffffffffffffffffffffffffffffffffff16021790555033600160006101000a81548173ffffffffffffffffffffffffffffffffffffffff021916908373ffffffffffffffffffffffffffffffffffffffff1602179055506032600760008060018111156200011b577f4e487b7100000000000000000000000000000000000000000000000000000000600052602160045260246000fd5b600181111562000154577f4e487b7100000000000000000000000000000000000000000000000000000000600052602160045260246000fd5b815260200190815260200160002060006101000a81548163ffffffff021916908363ffffffff160217905550603260076000600180811115620001c0577f4e487b7100000000000000000000000000000000000000000000000000000000600052602160045260246000fd5b6001811115620001f9577f4e487b7100000000000000000000000000000000000000000000000000000000600052602160045260246000fd5b815260200190815260200160002060006101000a81548163ffffffff021916908363ffffffff160217905550600160058190555061330c806200023d6000396000f3fe608060405234801561001057600080fd5b50600436106100a95760003560e01c806331ae450b1161007157806331ae450b14610177578063378321eb14610195578063472d35b9146101b157806370480275146101cd578063b18d30a2146101e9578063f3ac38b714610205576100a9565b806305c9399c146100ae578063083132c4146100ca57806313ad82da146100fa578063150b7a021461012b57806315f03d221461015b575b600080fd5b6100c860048036038101906100c39190612228565b610221565b005b6100e460048036038101906100df91906121ff565b610444565b6040516100f19190612a14565b60405180910390f35b610114600480360381019061010f9190612264565b61060d565b6040516101229291906129eb565b60405180910390f35b61014560048036038101906101409190612156565b610e55565b60405161015291906127ac565b60405180910390f35b6101756004803603810190610170919061212d565b610e6a565b005b61017f611121565b60405161018c919061278a565b60405180910390f35b6101af60048036038101906101aa9190612264565b6111af565b005b6101cb60048036038101906101c6919061212d565b611516565b005b6101e760048036038101906101e29190612104565b6116ee565b005b61020360048036038101906101fe919061212d565b6119f9565b005b61021f600480360381019061021a91906123c1565b611cb0565b005b600073ffffffffffffffffffffffffffffffffffffffff163373ffffffffffffffffffffffffffffffffffffffff161415610291576040517f08c379a000000000000000000000000000000000000000000000000000000000815260040161028890612807565b60405180910390fd5b6000805b6000805490508160ff16101561035c5760008160ff16815481106102e2577f4e487b7100000000000000000000000000000000000000000000000000000000600052603260045260246000fd5b9060005260206000200160009054906101000a900473ffffffffffffffffffffffffffffffffffffffff1673ffffffffffffffffffffffffffffffffffffffff163373ffffffffffffffffffffffffffffffffffffffff161415610349576001915061035c565b808061035490612e1c565b915050610295565b508061039d576040517f08c379a000000000000000000000000000000000000000000000000000000000815260040161039490612927565b60405180910390fd5b81600760008560018111156103db577f4e487b7100000000000000000000000000000000000000000000000000000000600052602160045260246000fd5b6001811115610413577f4e487b7100000000000000000000000000000000000000000000000000000000600052602160045260246000fd5b815260200190815260200160002060006101000a81548163ffffffff021916908363ffffffff160217905550505050565b600080600181111561047f577f4e487b7100000000000000000000000000000000000000000000000000000000600052602160045260246000fd5b8260018111156104b8577f4e487b7100000000000000000000000000000000000000000000000000000000600052602160045260246000fd5b148061053357506001808111156104f8577f4e487b7100000000000000000000000000000000000000000000000000000000600052602160045260246000fd5b826001811115610531577f4e487b7100000000000000000000000000000000000000000000000000000000600052602160045260246000fd5b145b610572576040517f08c379a000000000000000000000000000000000000000000000000000000000815260040161056990612827565b60405180910390fd5b600760008360018111156105af577f4e487b7100000000000000000000000000000000000000000000000000000000600052602160045260246000fd5b60018111156105e7577f4e487b7100000000000000000000000000000000000000000000000000000000600052602160045260246000fd5b815260200190815260200160002060009054906101000a900463ffffffff169050919050565b6000808260008111610654576040517f08c379a000000000000000000000000000000000000000000000000000000000815260040161064b90612867565b60405180910390fd5b3073ffffffffffffffffffffffffffffffffffffffff163373ffffffffffffffffffffffffffffffffffffffff1614156106c3576040517f08c379a00000000000000000000000000000000000000000000000000000000081526004016106ba906127c7565b60405180910390fd5b600073ffffffffffffffffffffffffffffffffffffffff163373ffffffffffffffffffffffffffffffffffffffff161415610733576040517f08c379a000000000000000000000000000000000000000000000000000000000815260040161072a90612947565b60405180910390fd5b6000806000600260009054906101000a900473ffffffffffffffffffffffffffffffffffffffff1673ffffffffffffffffffffffffffffffffffffffff1663717947b1886040518263ffffffff1660e01b815260040161079391906129a7565b60006040518083038186803b1580156107ab57600080fd5b505afa1580156107bf573d6000803e3d6000fd5b505050506040513d6000823e3d601f19601f820116820180604052508101906107e891906122b6565b995050509750509650505050503373ffffffffffffffffffffffffffffffffffffffff168373ffffffffffffffffffffffffffffffffffffffff1614610863576040517f08c379a000000000000000000000000000000000000000000000000000000000815260040161085a906128e7565b60405180910390fd5b600860009054906101000a900467ffffffffffffffff1667ffffffffffffffff168210156108c6576040517f08c379a00000000000000000000000000000000000000000000000000000000081526004016108bd90612887565b60405180910390fd5b60006005541161090b576040517f08c379a000000000000000000000000000000000000000000000000000000000815260040161090290612847565b60405180910390fd5b60008260055461091b9190612c87565b90506000600660009054906101000a900460ff16600a61093b9190612b69565b60076000806001811115610978577f4e487b7100000000000000000000000000000000000000000000000000000000600052602160045260246000fd5b60018111156109b0577f4e487b7100000000000000000000000000000000000000000000000000000000600052602160045260246000fd5b815260200190815260200160002060009054906101000a900463ffffffff1663ffffffff16836109e09190612c87565b6109ea9190612ae5565b9050600081836109fa9190612ce1565b905083610b2557600360009054906101000a900473ffffffffffffffffffffffffffffffffffffffff1673ffffffffffffffffffffffffffffffffffffffff166340c10f1930856040518363ffffffff1660e01b8152600401610a5e929190612761565b600060405180830381600087803b158015610a7857600080fd5b505af1158015610a8c573d6000803e3d6000fd5b50505050600260009054906101000a900473ffffffffffffffffffffffffffffffffffffffff1673ffffffffffffffffffffffffffffffffffffffff1663d81bcb2d8b60016040518363ffffffff1660e01b8152600401610aee9291906129c2565b600060405180830381600087803b158015610b0857600080fd5b505af1158015610b1c573d6000803e3d6000fd5b50505050610c19565b6000600360009054906101000a900473ffffffffffffffffffffffffffffffffffffffff1673ffffffffffffffffffffffffffffffffffffffff166370a08231306040518263ffffffff1660e01b8152600401610b82919061270f565b60206040518083038186803b158015610b9a57600080fd5b505afa158015610bae573d6000803e3d6000fd5b505050506040513d601f19601f82011682018060405250810190610bd2919061228d565b905085811015610c17576040517f08c379a0000000000000000000000000000000000000000000000000000000008152600401610c0e906128c7565b60405180910390fd5b505b600260009054906101000a900473ffffffffffffffffffffffffffffffffffffffff1673ffffffffffffffffffffffffffffffffffffffff166342842e0e33308d6040518463ffffffff1660e01b8152600401610c789392919061272a565b600060405180830381600087803b158015610c9257600080fd5b505af1158015610ca6573d6000803e3d6000fd5b50505050600360009054906101000a900473ffffffffffffffffffffffffffffffffffffffff1673ffffffffffffffffffffffffffffffffffffffff1663a9059cbb30846040518363ffffffff1660e01b8152600401610d07929190612761565b602060405180830381600087803b158015610d2157600080fd5b505af1158015610d35573d6000803e3d6000fd5b505050506040513d601f19601f82011682018060405250810190610d5991906121d6565b50600360009054906101000a900473ffffffffffffffffffffffffffffffffffffffff1673ffffffffffffffffffffffffffffffffffffffff1663a9059cbb33836040518363ffffffff1660e01b8152600401610db7929190612761565b602060405180830381600087803b158015610dd157600080fd5b505af1158015610de5573d6000803e3d6000fd5b505050506040513d601f19601f82011682018060405250810190610e0991906121d6565b507fdf26ba1712ef61c6db90a8ee9b6a5c4b7001717811fe1086a93d3bcad12552918183604051610e3b9291906129eb565b60405180910390a180829850985050505050505050915091565b600063150b7a0260e01b905095945050505050565b3073ffffffffffffffffffffffffffffffffffffffff163373ffffffffffffffffffffffffffffffffffffffff161415610ed9576040517f08c379a0000000000000000000000000000000000000000000000000000000008152600401610ed0906127c7565b60405180910390fd5b600073ffffffffffffffffffffffffffffffffffffffff163373ffffffffffffffffffffffffffffffffffffffff161415610f49576040517f08c379a0000000000000000000000000000000000000000000000000000000008152600401610f4090612947565b60405180910390fd5b600073ffffffffffffffffffffffffffffffffffffffff16600160009054906101000a900473ffffffffffffffffffffffffffffffffffffffff1673ffffffffffffffffffffffffffffffffffffffff161415610fdb576040517f08c379a0000000000000000000000000000000000000000000000000000000008152600401610fd290612807565b60405180910390fd5b600160009054906101000a900473ffffffffffffffffffffffffffffffffffffffff1673ffffffffffffffffffffffffffffffffffffffff163373ffffffffffffffffffffffffffffffffffffffff161461106b576040517f08c379a0000000000000000000000000000000000000000000000000000000008152600401611062906127e7565b60405180910390fd5b80600073ffffffffffffffffffffffffffffffffffffffff168173ffffffffffffffffffffffffffffffffffffffff1614156110dc576040517f08c379a00000000000000000000000000000000000000000000000000000000081526004016110d3906128a7565b60405180910390fd5b81600260006101000a81548173ffffffffffffffffffffffffffffffffffffffff021916908373ffffffffffffffffffffffffffffffffffffffff1602179055505050565b606060008054806020026020016040519081016040528092919081815260200182805480156111a557602002820191906000526020600020905b8160009054906101000a900473ffffffffffffffffffffffffffffffffffffffff1673ffffffffffffffffffffffffffffffffffffffff168152602001906001019080831161115b575b5050505050905090565b6000600360009054906101000a900473ffffffffffffffffffffffffffffffffffffffff1673ffffffffffffffffffffffffffffffffffffffff166370a08231336040518263ffffffff1660e01b815260040161120c919061270f565b60206040518083038186803b15801561122457600080fd5b505afa158015611238573d6000803e3d6000fd5b505050506040513d601f19601f8201168201806040525081019061125c919061228d565b90506000600260009054906101000a900473ffffffffffffffffffffffffffffffffffffffff1673ffffffffffffffffffffffffffffffffffffffff1663717947b1846040518263ffffffff1660e01b81526004016112bb91906129a7565b60006040518083038186803b1580156112d357600080fd5b505afa1580156112e7573d6000803e3d6000fd5b505050506040513d6000823e3d601f19601f8201168201806040525081019061131091906122b6565b505050965050505050505060006005548261132b9190612c87565b90506000600660009054906101000a900460ff16600a61134b9190612b69565b60076000600180811115611388577f4e487b7100000000000000000000000000000000000000000000000000000000600052602160045260246000fd5b60018111156113c0577f4e487b7100000000000000000000000000000000000000000000000000000000600052602160045260246000fd5b815260200190815260200160002060009054906101000a900463ffffffff1663ffffffff16836113f09190612c87565b6113fa9190612ae5565b90506000818361140a9190612ce1565b90508285101561144f576040517f08c379a000000000000000000000000000000000000000000000000000000000815260040161144690612907565b60405180910390fd5b61147d600360009054906101000a900473ffffffffffffffffffffffffffffffffffffffff16333086611e5c565b600260009054906101000a900473ffffffffffffffffffffffffffffffffffffffff1673ffffffffffffffffffffffffffffffffffffffff166342842e0e3033896040518463ffffffff1660e01b81526004016114dc9392919061272a565b600060405180830381600087803b1580156114f657600080fd5b505af115801561150a573d6000803e3d6000fd5b50505050505050505050565b600073ffffffffffffffffffffffffffffffffffffffff16600160009054906101000a900473ffffffffffffffffffffffffffffffffffffffff1673ffffffffffffffffffffffffffffffffffffffff1614156115a8576040517f08c379a000000000000000000000000000000000000000000000000000000000815260040161159f90612807565b60405180910390fd5b600160009054906101000a900473ffffffffffffffffffffffffffffffffffffffff1673ffffffffffffffffffffffffffffffffffffffff163373ffffffffffffffffffffffffffffffffffffffff1614611638576040517f08c379a000000000000000000000000000000000000000000000000000000000815260040161162f906127e7565b60405180910390fd5b80600073ffffffffffffffffffffffffffffffffffffffff168173ffffffffffffffffffffffffffffffffffffffff1614156116a9576040517f08c379a00000000000000000000000000000000000000000000000000000000081526004016116a0906128a7565b60405180910390fd5b81600460006101000a81548173ffffffffffffffffffffffffffffffffffffffff021916908373ffffffffffffffffffffffffffffffffffffffff1602179055505050565b600073ffffffffffffffffffffffffffffffffffffffff16600160009054906101000a900473ffffffffffffffffffffffffffffffffffffffff1673ffffffffffffffffffffffffffffffffffffffff161415611780576040517f08c379a000000000000000000000000000000000000000000000000000000000815260040161177790612807565b60405180910390fd5b600160009054906101000a900473ffffffffffffffffffffffffffffffffffffffff1673ffffffffffffffffffffffffffffffffffffffff163373ffffffffffffffffffffffffffffffffffffffff1614611810576040517f08c379a0000000000000000000000000000000000000000000000000000000008152600401611807906127e7565b60405180910390fd5b80600073ffffffffffffffffffffffffffffffffffffffff168173ffffffffffffffffffffffffffffffffffffffff161415611881576040517f08c379a0000000000000000000000000000000000000000000000000000000008152600401611878906128a7565b60405180910390fd5b6006600080549050106118c9576040517f08c379a00000000000000000000000000000000000000000000000000000000081526004016118c090612987565b60405180910390fd5b60005b6000805490508160ff1610156119905760008160ff1681548110611919577f4e487b7100000000000000000000000000000000000000000000000000000000600052603260045260246000fd5b9060005260206000200160009054906101000a900473ffffffffffffffffffffffffffffffffffffffff1673ffffffffffffffffffffffffffffffffffffffff168373ffffffffffffffffffffffffffffffffffffffff16141561197d57506119f5565b808061198890612e1c565b9150506118cc565b506000829080600181540180825580915050600190039060005260206000200160009091909190916101000a81548173ffffffffffffffffffffffffffffffffffffffff021916908373ffffffffffffffffffffffffffffffffffffffff1602179055505b5050565b3073ffffffffffffffffffffffffffffffffffffffff163373ffffffffffffffffffffffffffffffffffffffff161415611a68576040517f08c379a0000000000000000000000000000000000000000000000000000000008152600401611a5f906127c7565b60405180910390fd5b600073ffffffffffffffffffffffffffffffffffffffff163373ffffffffffffffffffffffffffffffffffffffff161415611ad8576040517f08c379a0000000000000000000000000000000000000000000000000000000008152600401611acf90612947565b60405180910390fd5b80600073ffffffffffffffffffffffffffffffffffffffff168173ffffffffffffffffffffffffffffffffffffffff161415611b49576040517f08c379a0000000000000000000000000000000000000000000000000000000008152600401611b40906128a7565b60405180910390fd5b600073ffffffffffffffffffffffffffffffffffffffff16600160009054906101000a900473ffffffffffffffffffffffffffffffffffffffff1673ffffffffffffffffffffffffffffffffffffffff161415611bdb576040517f08c379a0000000000000000000000000000000000000000000000000000000008152600401611bd290612807565b60405180910390fd5b600160009054906101000a900473ffffffffffffffffffffffffffffffffffffffff1673ffffffffffffffffffffffffffffffffffffffff163373ffffffffffffffffffffffffffffffffffffffff1614611c6b576040517f08c379a0000000000000000000000000000000000000000000000000000000008152600401611c62906127e7565b60405180910390fd5b81600360006101000a81548173ffffffffffffffffffffffffffffffffffffffff021916908373ffffffffffffffffffffffffffffffffffffffff1602179055505050565b600073ffffffffffffffffffffffffffffffffffffffff163373ffffffffffffffffffffffffffffffffffffffff161415611d20576040517f08c379a0000000000000000000000000000000000000000000000000000000008152600401611d1790612807565b60405180910390fd5b6000805b6000805490508160ff161015611deb5760008160ff1681548110611d71577f4e487b7100000000000000000000000000000000000000000000000000000000600052603260045260246000fd5b9060005260206000200160009054906101000a900473ffffffffffffffffffffffffffffffffffffffff1673ffffffffffffffffffffffffffffffffffffffff163373ffffffffffffffffffffffffffffffffffffffff161415611dd85760019150611deb565b8080611de390612e1c565b915050611d24565b5080611e2c576040517f08c379a0000000000000000000000000000000000000000000000000000000008152600401611e2390612927565b60405180910390fd5b8160ff16600860006101000a81548167ffffffffffffffff021916908367ffffffffffffffff1602179055505050565b6000808573ffffffffffffffffffffffffffffffffffffffff166323b872dd868686604051602401611e909392919061272a565b6040516020818303038152906040529060e01b6020820180517bffffffffffffffffffffffffffffffffffffffffffffffffffffffff8381831617835250505050604051611ede91906126f8565b6000604051808303816000865af19150503d8060008114611f1b576040519150601f19603f3d011682016040523d82523d6000602084013e611f20565b606091505b5091509150818015611f4e5750600081511480611f4d575080806020019051810190611f4c91906121d6565b5b5b611f8d576040517f08c379a0000000000000000000000000000000000000000000000000000000008152600401611f8490612967565b60405180910390fd5b505050505050565b6000611fa8611fa384612a54565b612a2f565b905082815260208101848484011115611fc057600080fd5b611fcb848285612db8565b509392505050565b600081359050611fe28161323c565b92915050565b600081359050611ff781613253565b92915050565b60008151905061200c81613253565b92915050565b6000815190506120218161326a565b92915050565b60008083601f84011261203957600080fd5b8235905067ffffffffffffffff81111561205257600080fd5b60208301915083600182028301111561206a57600080fd5b9250929050565b60008135905061208081613281565b92915050565b600082601f83011261209757600080fd5b81516120a7848260208601611f95565b91505092915050565b6000813590506120bf81613291565b92915050565b6000815190506120d481613291565b92915050565b6000813590506120e9816132a8565b92915050565b6000813590506120fe816132bf565b92915050565b60006020828403121561211657600080fd5b600061212484828501611fd3565b91505092915050565b60006020828403121561213f57600080fd5b600061214d84828501611fe8565b91505092915050565b60008060008060006080868803121561216e57600080fd5b600061217c88828901611fe8565b955050602061218d88828901611fe8565b945050604061219e888289016120b0565b935050606086013567ffffffffffffffff8111156121bb57600080fd5b6121c788828901612027565b92509250509295509295909350565b6000602082840312156121e857600080fd5b60006121f684828501612012565b91505092915050565b60006020828403121561221157600080fd5b600061221f84828501612071565b91505092915050565b6000806040838503121561223b57600080fd5b600061224985828601612071565b925050602061225a858286016120da565b9150509250929050565b60006020828403121561227657600080fd5b6000612284848285016120b0565b91505092915050565b60006020828403121561229f57600080fd5b60006122ad848285016120c5565b91505092915050565b6000806000806000806000806000806101408b8d0312156122d657600080fd5b60006122e48d828e016120c5565b9a505060208b015167ffffffffffffffff81111561230157600080fd5b61230d8d828e01612086565b99505060408b015167ffffffffffffffff81111561232a57600080fd5b6123368d828e01612086565b98505060606123478d828e01611ffd565b97505060806123588d828e01611ffd565b96505060a06123698d828e01611ffd565b95505060c061237a8d828e016120c5565b94505060e061238b8d828e016120c5565b93505061010061239d8d828e01612012565b9250506101206123af8d828e01612012565b9150509295989b9194979a5092959850565b6000602082840312156123d357600080fd5b60006123e1848285016120ef565b91505092915050565b60006123f68383612402565b60208301905092915050565b61240b81612d15565b82525050565b61241a81612d15565b82525050565b600061242b82612a95565b6124358185612ab8565b935061244083612a85565b8060005b8381101561247157815161245888826123ea565b975061246383612aab565b925050600181019050612444565b5085935050505092915050565b61248781612d39565b82525050565b61249681612d45565b82525050565b60006124a782612aa0565b6124b18185612ac9565b93506124c1818560208601612db8565b80840191505092915050565b60006124da602e83612ad4565b91506124e582612ef1565b604082019050919050565b60006124fd601e83612ad4565b915061250882612f40565b602082019050919050565b6000612520601783612ad4565b915061252b82612f69565b602082019050919050565b6000612543601083612ad4565b915061254e82612f92565b602082019050919050565b6000612566601783612ad4565b915061257182612fbb565b602082019050919050565b6000612589600e83612ad4565b915061259482612fe4565b602082019050919050565b60006125ac601883612ad4565b91506125b78261300d565b602082019050919050565b60006125cf601983612ad4565b91506125da82613036565b602082019050919050565b60006125f2604b83612ad4565b91506125fd8261305f565b606082019050919050565b6000612615600983612ad4565b9150612620826130d4565b602082019050919050565b6000612638604c83612ad4565b9150612643826130fd565b606082019050919050565b600061265b601d83612ad4565b915061266682613172565b602082019050919050565b600061267e601a83612ad4565b91506126898261319b565b602082019050919050565b60006126a1602483612ad4565b91506126ac826131c4565b604082019050919050565b60006126c4601383612ad4565b91506126cf82613213565b602082019050919050565b6126e381612d91565b82525050565b6126f281612d9b565b82525050565b6000612704828461249c565b915081905092915050565b60006020820190506127246000830184612411565b92915050565b600060608201905061273f6000830186612411565b61274c6020830185612411565b61275960408301846126da565b949350505050565b60006040820190506127766000830185612411565b61278360208301846126da565b9392505050565b600060208201905081810360008301526127a48184612420565b905092915050565b60006020820190506127c1600083018461248d565b92915050565b600060208201905081810360008301526127e0816124cd565b9050919050565b60006020820190508181036000830152612800816124f0565b9050919050565b6000602082019050818103600083015261282081612513565b9050919050565b6000602082019050818103600083015261284081612536565b9050919050565b6000602082019050818103600083015261286081612559565b9050919050565b600060208201905081810360008301526128808161257c565b9050919050565b600060208201905081810360008301526128a08161259f565b9050919050565b600060208201905081810360008301526128c0816125c2565b9050919050565b600060208201905081810360008301526128e0816125e5565b9050919050565b6000602082019050818103600083015261290081612608565b9050919050565b600060208201905081810360008301526129208161262b565b9050919050565b600060208201905081810360008301526129408161264e565b9050919050565b6000602082019050818103600083015261296081612671565b9050919050565b6000602082019050818103600083015261298081612694565b9050919050565b600060208201905081810360008301526129a0816126b7565b9050919050565b60006020820190506129bc60008301846126da565b92915050565b60006040820190506129d760008301856126da565b6129e4602083018461247e565b9392505050565b6000604082019050612a0060008301856126da565b612a0d60208301846126da565b9392505050565b6000602082019050612a2960008301846126e9565b92915050565b6000612a39612a4a565b9050612a458282612deb565b919050565b6000604051905090565b600067ffffffffffffffff821115612a6f57612a6e612ea4565b5b612a7882612ed3565b9050602081019050919050565b6000819050602082019050919050565b600081519050919050565b600081519050919050565b6000602082019050919050565b600082825260208201905092915050565b600081905092915050565b600082825260208201905092915050565b6000612af082612d91565b9150612afb83612d91565b925082612b0b57612b0a612e75565b5b828204905092915050565b6000808291508390505b6001851115612b6057808604811115612b3c57612b3b612e46565b5b6001851615612b4b5780820291505b8081029050612b5985612ee4565b9450612b20565b94509492505050565b6000612b7482612d91565b9150612b7f83612dab565b9250612bac7fffffffffffffffffffffffffffffffffffffffffffffffffffffffffffffffff8484612bb4565b905092915050565b600082612bc45760019050612c80565b81612bd25760009050612c80565b8160018114612be85760028114612bf257612c21565b6001915050612c80565b60ff841115612c0457612c03612e46565b5b8360020a915084821115612c1b57612c1a612e46565b5b50612c80565b5060208310610133831016604e8410600b8410161715612c565782820a905083811115612c5157612c50612e46565b5b612c80565b612c638484846001612b16565b92509050818404811115612c7a57612c79612e46565b5b81810290505b9392505050565b6000612c9282612d91565b9150612c9d83612d91565b9250817fffffffffffffffffffffffffffffffffffffffffffffffffffffffffffffffff0483118215151615612cd657612cd5612e46565b5b828202905092915050565b6000612cec82612d91565b9150612cf783612d91565b925082821015612d0a57612d09612e46565b5b828203905092915050565b6000612d2082612d71565b9050919050565b6000612d3282612d71565b9050919050565b60008115159050919050565b60007fffffffff0000000000000000000000000000000000000000000000000000000082169050919050565b600073ffffffffffffffffffffffffffffffffffffffff82169050919050565b6000819050919050565b600063ffffffff82169050919050565b600060ff82169050919050565b60005b83811015612dd6578082015181840152602081019050612dbb565b83811115612de5576000848401525b50505050565b612df482612ed3565b810181811067ffffffffffffffff82111715612e1357612e12612ea4565b5b80604052505050565b6000612e2782612dab565b915060ff821415612e3b57612e3a612e46565b5b600182019050919050565b7f4e487b7100000000000000000000000000000000000000000000000000000000600052601160045260246000fd5b7f4e487b7100000000000000000000000000000000000000000000000000000000600052601260045260246000fd5b7f4e487b7100000000000000000000000000000000000000000000000000000000600052604160045260246000fd5b6000601f19601f8301169050919050565b60008160011c9050919050565b7f4572726f723a2043616c6c657220636f756c646e27742062652073616d65207460008201527f6f20746869732061646472657373000000000000000000000000000000000000602082015250565b7f466f722063616c6c65722065787065637465642062652063726561746f720000600082015250565b7f496e76616c69642063726561746f722061646472657373000000000000000000600082015250565b7f496e76616c696420666565207479706500000000000000000000000000000000600082015250565b7f496e76616c696420504e46542f4f4341542071756f7465000000000000000000600082015250565b7f496e76616c6964204e4654204944000000000000000000000000000000000000600082015250565b7f546f6f20736d616c6c20707269636520666f7220504e46540000000000000000600082015250565b7f4578706563746564206e6f6e2d7a65726f206164647265737300000000000000600082015250565b7f5061776e45786368616e67652e65786368616e6765546f4f63617428293a204960008201527f6e73756666696369656e742062616c616e6365206f66204f43415420696e207460208201527f686520636f6e7472616374000000000000000000000000000000000000000000604082015250565b7f4e6f74206f776e65720000000000000000000000000000000000000000000000600082015250565b7f5061776e45786368616e67652e65786368616e676546726f6d4f63617428293a60008201527f20496e73756666696369656e742062616c616e6365206f66204f43415420696e60208201527f20746865206163636f756e740000000000000000000000000000000000000000604082015250565b7f496e76616c69642063616c6c65722e204d7573742062652061646d696e000000600082015250565b7f2a2a2a2a2a2a2a2a2a2a2a2a496e76616c69642063616c6c6572000000000000600082015250565b7f5472616e7366657248656c7065723a205452414e534645525f46524f4d5f464160008201527f494c454400000000000000000000000000000000000000000000000000000000602082015250565b7f41646d696e2067726f75702069732066756c6c00000000000000000000000000600082015250565b61324581612d15565b811461325057600080fd5b50565b61325c81612d27565b811461326757600080fd5b50565b61327381612d39565b811461327e57600080fd5b50565b6002811061328e57600080fd5b50565b61329a81612d91565b81146132a557600080fd5b50565b6132b181612d9b565b81146132bc57600080fd5b50565b6132c881612dab565b81146132d357600080fd5b5056fea2646970667358221220bd0d94d0c1c3c9208c3df5fd83815c0d20af0e7150b4febbf0f462a15e6de01064736f6c63430008040033",
  "immutableReferences": {},
  "source": "// SPDX-License-Identifier: MIT\npragma solidity ^0.8.0;\n\nimport \"@openzeppelin/contracts/token/ERC20/IERC20.sol\"; // openzeppelin 4.5 (for solidity 0.8.x)\nimport \"@openzeppelin/contracts/token/ERC721/IERC721.sol\";\nimport '@uniswap/lib/contracts/libraries/TransferHelper.sol';\nimport \"./PawnNFTs.sol\";\nimport \"./IOcat.sol\";\nimport \"./CommonTypes.sol\";\nimport \"./AdministratedContract.sol\";\n\ncontract PawnExchange is AdministratedContract {\n    \n    address payable private pnftAddress;\n    address payable private ocatAddress;\n    address payable private feeManager;\n    uint256         private pnftOcatQuote;\n\n    // 2 of 4: for calculation of percentage, another 2: for no fraction\n    // For example: 0.5% = 50 / (10 ** (2 + 2)) => 50\n    //              0.5% of 20000 = (50 * 20000) / (10 ** 4) = 100\n    uint8           private feeDecimal = 4; \n    mapping(FeeType => uint32) private fees;\n    uint64          private minPnftPrice = 5000;\n\n    event SwappedToOcat (uint256 realPrice, uint256 fee);\n\n    constructor() {\n        creator = payable(msg.sender);\n        fees[FeeType.PNFT_LOAN_FEE] = 50;     // 0.5% \n        fees[FeeType.PNFT_GETBACK_FEE] = 50; // 0.5%\n        pnftOcatQuote = 1;\n    }\n\n    function onERC721Received(\n        address payable /*operator*/,\n        address payable /*from*/,\n        uint256 /*tokenId*/,\n        bytes calldata /*data*/\n    ) external pure returns (bytes4) {\n        return this.onERC721Received.selector;\n    }\n\n    modifier validCaller {\n        require(msg.sender != address(this), \"Error: Caller couldn't be same to this address\");\n        require(msg.sender != address(0), \"************Invalid caller\");\n        _;\n    }\n\n    modifier validNftID(uint256 nftId) {\n        require(nftId > 0, \"Invalid NFT ID\");\n        _;\n    }\n\n    function setPnftAddress(address payable _pnftAddress) public \n    validCaller onlyCreator mustNoneZeroAddress(_pnftAddress) {\n        pnftAddress = _pnftAddress;\n    }\n\n    function setOcatAddress(address payable _ocatAddress) public \n    validCaller mustNoneZeroAddress(_ocatAddress) onlyCreator {\n        ocatAddress = _ocatAddress;\n    }\n\n    function setFeeManager(address payable _feeManager) public \n    onlyCreator mustNoneZeroAddress(_feeManager) {\n        feeManager = _feeManager;\n    }\n\n    function setMinPnftPrice(uint8 _minPnftPrice) public \n    onlyAdmin {\n        minPnftPrice = _minPnftPrice;\n    }\n\n    function setFee(FeeType feeType, uint32 feeValue) public\n    onlyAdmin {\n        fees[feeType] = feeValue;\n    }\n\n    function getFee(FeeType feeType) public view returns(uint32) {\n        require(\n            feeType == FeeType.PNFT_LOAN_FEE ||\n            feeType == FeeType.PNFT_GETBACK_FEE,\n            \"Invalid fee type\"\n        );\n        return fees[feeType];\n    }\n\n    function exchangeToOcat(uint256 nftID) public \n    validNftID(nftID) validCaller \n    returns (uint256, uint256) {\n        // Get price for the NFT\n        (,,,,address currentOwner,,uint256 price,,,bool mintedNativeToken) = PawnNFTs(payable(address(pnftAddress))).allPawnNFTs(nftID);\n        require(currentOwner == msg.sender, \"Not owner\");\n        require(price >= minPnftPrice, \"Too small price for PNFT\");\n        require(pnftOcatQuote > 0, \"Invalid PNFT/OCAT quote\");\n\n        uint256 quotedPrice = pnftOcatQuote * price;\n        uint256 loanFee = quotedPrice * fees[FeeType.PNFT_LOAN_FEE] / (10 ** feeDecimal);\n        uint256 realPrice = quotedPrice - loanFee;\n\n        if (!mintedNativeToken) {\n            // Mint some OCATs for this PNFT\n            IOcat(ocatAddress).mint(address(this), quotedPrice);\n            PawnNFTs(pnftAddress).setMintedNativeToken(nftID, true);\n        } else {\n            uint256 ocatBalance = IERC20(ocatAddress).balanceOf(address(this));\n\t        require(ocatBalance >= price, \"PawnExchange.exchangeToOcat(): Insufficient balance of OCAT in the contract\");\n        }\n        // safeTransferFrom: send NFT from caller to the address\n        IERC721(pnftAddress).safeTransferFrom(msg.sender, address(this), nftID);\n        // Pay fee in OCAT to this address\n        IERC20(ocatAddress).transfer(address(this), loanFee);\n        // Pay OCAT for the NFT\n        IERC20(ocatAddress).transfer(msg.sender, realPrice);\n        emit SwappedToOcat(realPrice, loanFee);\n        //   Then transfer OCATs from the address to caller\n        // TransferHelper.safeTransferFrom(ocatAddress, address(this), msg.sender, quotedPrice);\n        return (realPrice, loanFee);\n    }\n\n    function exchangeFromOcat(uint256 nftID) public {\n        uint256 ocatBalance = IERC20(ocatAddress).balanceOf(msg.sender);\n        // Get price for the NFT\n        (,,,,,,uint256 price,,,) = PawnNFTs(payable(address(pnftAddress))).allPawnNFTs(nftID);\n        // uint256 price = nftItem.price;\n        uint256 quotedPrice = price * pnftOcatQuote;\n        uint256 getbackFee = quotedPrice * fees[FeeType.PNFT_GETBACK_FEE] / (10 ** feeDecimal);\n        uint256 realPrice = quotedPrice - getbackFee;\n\n        require(ocatBalance >= quotedPrice, \"PawnExchange.exchangeFromOcat(): Insufficient balance of OCAT in the account\");\n        // safeTransferFrom: send NFT from caller to the address\n        TransferHelper.safeTransferFrom(ocatAddress, msg.sender, address(this), quotedPrice);\n        // Distribute fee among the stakeholders\n\n        // Pay OCAT for the NFT\n        IERC721(pnftAddress).safeTransferFrom(address(this), msg.sender, nftID);\n        //   Then transfer OCATs from the address to caller\n        // TransferHelper.safeTransferFrom(ocatAddress, address(this), msg.sender, quotedPrice);\n    } \n}\n",
  "sourcePath": "/home/cowboy/OpenchainTestVersion/server/contracts/PawnExchange.sol",
  "compiler": {
    "name": "solc",
    "version": "0.8.4+commit.c7e474f2.Emscripten.clang"
  },
  "schemaVersion": "3.4.6",
  "updatedAt": "2022-04-13T11:34:58.644Z",
  "networkType": "ethereum",
  "devdoc": {
    "kind": "dev",
    "methods": {},
    "version": 1
  },
  "userdoc": {
    "kind": "user",
    "methods": {},
    "version": 1
  }
}