{
  "contractName": "WitnetPriceRouter",
  "abi": [
    {
      "anonymous": false,
      "inputs": [
        {
          "indexed": true,
          "internalType": "bytes32",
          "name": "erc2362ID",
          "type": "bytes32"
        },
        {
          "indexed": false,
          "internalType": "contract IERC165",
          "name": "pricefeed",
          "type": "address"
        }
      ],
      "name": "CurrencyPairSet",
      "type": "event"
    },
    {
      "anonymous": false,
      "inputs": [
        {
          "indexed": true,
          "internalType": "address",
          "name": "previousOwner",
          "type": "address"
        },
        {
          "indexed": true,
          "internalType": "address",
          "name": "newOwner",
          "type": "address"
        }
      ],
      "name": "OwnershipTransferred",
      "type": "event"
    },
    {
      "inputs": [],
      "name": "owner",
      "outputs": [
        {
          "internalType": "address",
          "name": "",
          "type": "address"
        }
      ],
      "stateMutability": "view",
      "type": "function"
    },
    {
      "inputs": [],
      "name": "renounceOwnership",
      "outputs": [],
      "stateMutability": "nonpayable",
      "type": "function"
    },
    {
      "inputs": [
        {
          "internalType": "address",
          "name": "newOwner",
          "type": "address"
        }
      ],
      "name": "transferOwnership",
      "outputs": [],
      "stateMutability": "nonpayable",
      "type": "function"
    },
    {
      "inputs": [
        {
          "internalType": "bytes32",
          "name": "_erc2362id",
          "type": "bytes32"
        }
      ],
      "name": "valueFor",
      "outputs": [
        {
          "internalType": "int256",
          "name": "_lastPrice",
          "type": "int256"
        },
        {
          "internalType": "uint256",
          "name": "_lastTimestamp",
          "type": "uint256"
        },
        {
          "internalType": "uint256",
          "name": "_latestUpdateStatus",
          "type": "uint256"
        }
      ],
      "stateMutability": "view",
      "type": "function"
    },
    {
      "inputs": [
        {
          "internalType": "string",
          "name": "_caption",
          "type": "string"
        }
      ],
      "name": "currencyPairId",
      "outputs": [
        {
          "internalType": "bytes32",
          "name": "",
          "type": "bytes32"
        }
      ],
      "stateMutability": "pure",
      "type": "function"
    },
    {
      "inputs": [
        {
          "internalType": "bytes32",
          "name": "_erc2362id",
          "type": "bytes32"
        }
      ],
      "name": "getPriceFeed",
      "outputs": [
        {
          "internalType": "contract IERC165",
          "name": "",
          "type": "address"
        }
      ],
      "stateMutability": "view",
      "type": "function"
    },
    {
      "inputs": [
        {
          "internalType": "contract IERC165",
          "name": "_pricefeed",
          "type": "address"
        }
      ],
      "name": "getPriceFeedCaption",
      "outputs": [
        {
          "internalType": "string",
          "name": "",
          "type": "string"
        }
      ],
      "stateMutability": "view",
      "type": "function"
    },
    {
      "inputs": [
        {
          "internalType": "bytes32",
          "name": "_erc2362id",
          "type": "bytes32"
        }
      ],
      "name": "lookupERC2362ID",
      "outputs": [
        {
          "internalType": "string",
          "name": "_caption",
          "type": "string"
        }
      ],
      "stateMutability": "view",
      "type": "function"
    },
    {
      "inputs": [
        {
          "internalType": "contract IERC165",
          "name": "_pricefeed",
          "type": "address"
        },
        {
          "internalType": "uint256",
          "name": "_decimals",
          "type": "uint256"
        },
        {
          "internalType": "string",
          "name": "_base",
          "type": "string"
        },
        {
          "internalType": "string",
          "name": "_quote",
          "type": "string"
        }
      ],
      "name": "setPriceFeed",
      "outputs": [],
      "stateMutability": "nonpayable",
      "type": "function"
    },
    {
      "inputs": [],
      "name": "supportedCurrencyPairs",
      "outputs": [
        {
          "internalType": "bytes32[]",
          "name": "",
          "type": "bytes32[]"
        }
      ],
      "stateMutability": "view",
      "type": "function"
    },
    {
      "inputs": [
        {
          "internalType": "bytes32",
          "name": "_erc2362id",
          "type": "bytes32"
        }
      ],
      "name": "supportsCurrencyPair",
      "outputs": [
        {
          "internalType": "bool",
          "name": "",
          "type": "bool"
        }
      ],
      "stateMutability": "view",
      "type": "function"
    },
    {
      "inputs": [
        {
          "internalType": "contract IERC165",
          "name": "_pricefeed",
          "type": "address"
        }
      ],
      "name": "supportsPriceFeed",
      "outputs": [
        {
          "internalType": "bool",
          "name": "",
          "type": "bool"
        }
      ],
      "stateMutability": "view",
      "type": "function"
    }
  ],
  "bytecode": "0x608060405234801561001057600080fd5b5061002d61002261003260201b60201c565b61003a60201b60201c565b6100fe565b600033905090565b60008060009054906101000a900473ffffffffffffffffffffffffffffffffffffffff169050816000806101000a81548173ffffffffffffffffffffffffffffffffffffffff021916908373ffffffffffffffffffffffffffffffffffffffff1602179055508173ffffffffffffffffffffffffffffffffffffffff168173ffffffffffffffffffffffffffffffffffffffff167f8be0079c531659141344cd1fd0a4f28419497f9722a3daafe3b4186f6b6457e060405160405180910390a35050565b61211d806200010e6000396000f3fe608060405234801561001057600080fd5b50600436106100b45760003560e01c806399d32a041161007157806399d32a041461017b578063a027ad15146101ab578063bbfa8118146101db578063ca64c5401461020b578063f2fde38b1461023b578063f78eea8314610257576100b4565b80633fd29ebd146100b9578063715018a6146100d757806377021267146100e1578063835262f5146100fd5780638c0adf621461012d5780638da5cb5b1461015d575b600080fd5b6100c1610289565b6040516100ce919061184c565b60405180910390f35b6100df6102e1565b005b6100fb60048036038101906100f69190611313565b610369565b005b61011760048036038101906101129190611411565b610838565b6040516101249190611889565b60405180910390f35b610147600480360381019061014291906112c1565b610849565b60405161015491906118bf565b60405180910390f35b6101656108c7565b6040516101729190611831565b60405180910390f35b610195600480360381019061019091906112c1565b6108f0565b6040516101a29190611911565b60405180910390f35b6101c560048036038101906101c091906112ea565b6109bb565b6040516101d2919061186e565b60405180910390f35b6101f560048036038101906101f091906112ea565b610aa6565b6040516102029190611911565b60405180910390f35b610225600480360381019061022091906112c1565b610b3f565b604051610232919061186e565b60405180910390f35b6102556004803603810190610250919061126f565b610bec565b005b610271600480360381019061026c91906112c1565b610ce4565b604051610280939291906118da565b60405180910390f35b606060038054806020026020016040519081016040528092919081815260200182805480156102d757602002820191906000526020600020905b8154815260200190600101908083116102c3575b5050505050905090565b6102e9610df9565b73ffffffffffffffffffffffffffffffffffffffff166103076108c7565b73ffffffffffffffffffffffffffffffffffffffff161461035d576040517f08c379a0000000000000000000000000000000000000000000000000000000008152600401610354906119b3565b60405180910390fd5b6103676000610e01565b565b610371610df9565b73ffffffffffffffffffffffffffffffffffffffff1661038f6108c7565b73ffffffffffffffffffffffffffffffffffffffff16146103e5576040517f08c379a00000000000000000000000000000000000000000000000000000000081526004016103dc906119b3565b60405180910390fd5b600073ffffffffffffffffffffffffffffffffffffffff168673ffffffffffffffffffffffffffffffffffffffff1614610586578573ffffffffffffffffffffffffffffffffffffffff166301ffc9a77f411252e2000000000000000000000000000000000000000000000000000000006040518263ffffffff1660e01b815260040161047291906118a4565b60206040518083038186803b15801561048a57600080fd5b505afa15801561049e573d6000803e3d6000fd5b505050506040513d601f19601f820116820180604052508101906104c29190611298565b610501576040517f08c379a00000000000000000000000000000000000000000000000000000000081526004016104f890611993565b60405180910390fd5b6000801b600260008873ffffffffffffffffffffffffffffffffffffffff1673ffffffffffffffffffffffffffffffffffffffff1681526020019081526020016000205414610585576040517f08c379a000000000000000000000000000000000000000000000000000000000815260040161057c90611933565b60405180910390fd5b5b6000848484846105958a610ec5565b6040516020016105a9959493929190611789565b6040516020818303038152906040529050600081805190602001209050600060016000837bffffffffffffffffffffffffffffffffffffffffffffffffffffffff19167bffffffffffffffffffffffffffffffffffffffffffffffffffffffff19168152602001908152602001600020905060008160000160009054906101000a900473ffffffffffffffffffffffffffffffffffffffff169050600082600201805461065590611c84565b905014156106bc578787836002019190610670929190611072565b508585836003019190610684929190611072565b508882600101819055506003839080600181540180825580915050600190039060005260206000200160009091909190915055610739565b600073ffffffffffffffffffffffffffffffffffffffff168173ffffffffffffffffffffffffffffffffffffffff1614610738576000801b600260008373ffffffffffffffffffffffffffffffffffffffff1673ffffffffffffffffffffffffffffffffffffffff168152602001908152602001600020819055505b5b8073ffffffffffffffffffffffffffffffffffffffff168a73ffffffffffffffffffffffffffffffffffffffff16146107b15782600260008c73ffffffffffffffffffffffffffffffffffffffff1673ffffffffffffffffffffffffffffffffffffffff168152602001908152602001600020819055505b898260000160006101000a81548173ffffffffffffffffffffffffffffffffffffffff021916908373ffffffffffffffffffffffffffffffffffffffff160217905550827f2a1586394a17f79a4cc822c7b077653442e5a6fd7c78be98349291aa67a50c218b60405161082491906118bf565b60405180910390a250505050505050505050565b600081805190602001209050919050565b600060016000837bffffffffffffffffffffffffffffffffffffffffffffffffffffffff19167bffffffffffffffffffffffffffffffffffffffffffffffffffffffff1916815260200190815260200160002060000160009054906101000a900473ffffffffffffffffffffffffffffffffffffffff169050919050565b60008060009054906101000a900473ffffffffffffffffffffffffffffffffffffffff16905090565b6060600060016000847bffffffffffffffffffffffffffffffffffffffffffffffffffffffff19167bffffffffffffffffffffffffffffffffffffffffffffffffffffffff191681526020019081526020016000209050600081600201805461095890611c84565b90501180156109775750600081600301805461097390611c84565b9050115b156109b55780600201816003016109918360010154610ec5565b6040516020016109a3939291906117df565b60405160208183030381529060405291505b50919050565b60008173ffffffffffffffffffffffffffffffffffffffff1660016000600260008673ffffffffffffffffffffffffffffffffffffffff1673ffffffffffffffffffffffffffffffffffffffff168152602001908152602001600020547bffffffffffffffffffffffffffffffffffffffffffffffffffffffff19167bffffffffffffffffffffffffffffffffffffffffffffffffffffffff1916815260200190815260200160002060000160009054906101000a900473ffffffffffffffffffffffffffffffffffffffff1673ffffffffffffffffffffffffffffffffffffffff16149050919050565b6060610ab1826109bb565b610af0576040517f08c379a0000000000000000000000000000000000000000000000000000000008152600401610ae7906119d3565b60405180910390fd5b610b38600260008473ffffffffffffffffffffffffffffffffffffffff1673ffffffffffffffffffffffffffffffffffffffff168152602001908152602001600020546108f0565b9050919050565b60008073ffffffffffffffffffffffffffffffffffffffff1660016000847bffffffffffffffffffffffffffffffffffffffffffffffffffffffff19167bffffffffffffffffffffffffffffffffffffffffffffffffffffffff1916815260200190815260200160002060000160009054906101000a900473ffffffffffffffffffffffffffffffffffffffff1673ffffffffffffffffffffffffffffffffffffffff1614159050919050565b610bf4610df9565b73ffffffffffffffffffffffffffffffffffffffff16610c126108c7565b73ffffffffffffffffffffffffffffffffffffffff1614610c68576040517f08c379a0000000000000000000000000000000000000000000000000000000008152600401610c5f906119b3565b60405180910390fd5b600073ffffffffffffffffffffffffffffffffffffffff168173ffffffffffffffffffffffffffffffffffffffff161415610cd8576040517f08c379a0000000000000000000000000000000000000000000000000000000008152600401610ccf90611953565b60405180910390fd5b610ce181610e01565b50565b600080600080610cf385610849565b9050600073ffffffffffffffffffffffffffffffffffffffff168173ffffffffffffffffffffffffffffffffffffffff161415610d65576040517f08c379a0000000000000000000000000000000000000000000000000000000008152600401610d5c90611973565b60405180910390fd5b8073ffffffffffffffffffffffffffffffffffffffff1663431838346040518163ffffffff1660e01b815260040160806040518083038186803b158015610dab57600080fd5b505afa158015610dbf573d6000803e3d6000fd5b505050506040513d601f19601f82011682018060405250810190610de391906113ae565b9050809450819550829650505050509193909250565b600033905090565b60008060009054906101000a900473ffffffffffffffffffffffffffffffffffffffff169050816000806101000a81548173ffffffffffffffffffffffffffffffffffffffff021916908373ffffffffffffffffffffffffffffffffffffffff1602179055508173ffffffffffffffffffffffffffffffffffffffff168173ffffffffffffffffffffffffffffffffffffffff167f8be0079c531659141344cd1fd0a4f28419497f9722a3daafe3b4186f6b6457e060405160405180910390a35050565b60606000821415610f0d576040518060400160405280600181526020017f3000000000000000000000000000000000000000000000000000000000000000815250905061106d565b600082905060005b60008214610f3f578080610f2890611ce7565b915050600a82610f389190611b1f565b9150610f15565b60008167ffffffffffffffff811115610f81577f4e487b7100000000000000000000000000000000000000000000000000000000600052604160045260246000fd5b6040519080825280601f01601f191660200182016040528015610fb35781602001600182028036833780820191505090505b5090505b6000851461106657600182610fcc9190611b50565b9150600a85610fdb9190611d30565b6030610fe79190611ac9565b60f81b818381518110611023577f4e487b7100000000000000000000000000000000000000000000000000000000600052603260045260246000fd5b60200101907effffffffffffffffffffffffffffffffffffffffffffffffffffffffffffff1916908160001a905350600a8561105f9190611b1f565b9450610fb7565b8093505050505b919050565b82805461107e90611c84565b90600052602060002090601f0160209004810192826110a057600085556110e7565b82601f106110b957803560ff19168380011785556110e7565b828001600101855582156110e7579182015b828111156110e65782358255916020019190600101906110cb565b5b5090506110f491906110f8565b5090565b5b808211156111115760008160009055506001016110f9565b5090565b600061112861112384611a18565b6119f3565b90508281526020810184848401111561114057600080fd5b61114b848285611c42565b509392505050565b6000813590506111628161205d565b92915050565b60008151905061117781612074565b92915050565b60008135905061118c8161208b565b92915050565b6000815190506111a18161208b565b92915050565b6000813590506111b6816120a2565b92915050565b6000815190506111cb816120b9565b92915050565b60008083601f8401126111e357600080fd5b8235905067ffffffffffffffff8111156111fc57600080fd5b60208301915083600182028301111561121457600080fd5b9250929050565b600082601f83011261122c57600080fd5b813561123c848260208601611115565b91505092915050565b600081359050611254816120d0565b92915050565b600081519050611269816120d0565b92915050565b60006020828403121561128157600080fd5b600061128f84828501611153565b91505092915050565b6000602082840312156112aa57600080fd5b60006112b884828501611168565b91505092915050565b6000602082840312156112d357600080fd5b60006112e18482850161117d565b91505092915050565b6000602082840312156112fc57600080fd5b600061130a848285016111a7565b91505092915050565b6000806000806000806080878903121561132c57600080fd5b600061133a89828a016111a7565b965050602061134b89828a01611245565b955050604087013567ffffffffffffffff81111561136857600080fd5b61137489828a016111d1565b9450945050606087013567ffffffffffffffff81111561139357600080fd5b61139f89828a016111d1565b92509250509295509295509295565b600080600080608085870312156113c457600080fd5b60006113d2878288016111bc565b94505060206113e38782880161125a565b93505060406113f487828801611192565b92505060606114058782880161125a565b91505092959194509250565b60006020828403121561142357600080fd5b600082013567ffffffffffffffff81111561143d57600080fd5b6114498482850161121b565b91505092915050565b600061145e83836114e6565b60208301905092915050565b61147381611b84565b82525050565b600061148482611a6e565b61148e8185611a91565b935061149983611a49565b8060005b838110156114ca5781516114b18882611452565b97506114bc83611a84565b92505060018101905061149d565b5085935050505092915050565b6114e081611b96565b82525050565b6114ef81611ba2565b82525050565b6114fe81611ba2565b82525050565b61150d81611bac565b82525050565b600061151f8385611aa2565b935061152c838584611c42565b82840190509392505050565b61154181611c1e565b82525050565b61155081611bea565b82525050565b600061156182611a79565b61156b8185611aad565b935061157b818560208601611c51565b61158481611e1d565b840191505092915050565b600061159a82611a79565b6115a48185611abe565b93506115b4818560208601611c51565b80840191505092915050565b600081546115cd81611c84565b6115d78186611abe565b945060018216600081146115f2576001811461160357611636565b60ff19831686528186019350611636565b61160c85611a59565b60005b8381101561162e5781548189015260018201915060208101905061160f565b838801955050505b50505092915050565b600061164c600683611abe565b915061165782611e2e565b600682019050919050565b600061166f603283611aad565b915061167a82611e57565b604082019050919050565b6000611692602683611aad565b915061169d82611ea6565b604082019050919050565b60006116b5602c83611aad565b91506116c082611ef5565b604082019050919050565b60006116d8604783611aad565b91506116e382611f44565b606082019050919050565b60006116fb602083611aad565b915061170682611fb9565b602082019050919050565b600061171e600183611abe565b915061172982611fe2565b600182019050919050565b6000611741601a83611aad565b915061174c8261200b565b602082019050919050565b6000611764600183611abe565b915061176f82612034565b600182019050919050565b61178381611c14565b82525050565b60006117948261163f565b91506117a1828789611513565b91506117ac82611757565b91506117b9828587611513565b91506117c482611711565b91506117d0828461158f565b91508190509695505050505050565b60006117ea8261163f565b91506117f682866115c0565b915061180182611757565b915061180d82856115c0565b915061181882611711565b9150611824828461158f565b9150819050949350505050565b6000602082019050611846600083018461146a565b92915050565b600060208201905081810360008301526118668184611479565b905092915050565b600060208201905061188360008301846114d7565b92915050565b600060208201905061189e60008301846114f5565b92915050565b60006020820190506118b96000830184611504565b92915050565b60006020820190506118d46000830184611538565b92915050565b60006060820190506118ef6000830186611547565b6118fc602083018561177a565b611909604083018461177a565b949350505050565b6000602082019050818103600083015261192b8184611556565b905092915050565b6000602082019050818103600083015261194c81611662565b9050919050565b6000602082019050818103600083015261196c81611685565b9050919050565b6000602082019050818103600083015261198c816116a8565b9050919050565b600060208201905081810360008301526119ac816116cb565b9050919050565b600060208201905081810360008301526119cc816116ee565b9050919050565b600060208201905081810360008301526119ec81611734565b9050919050565b60006119fd611a0e565b9050611a098282611cb6565b919050565b6000604051905090565b600067ffffffffffffffff821115611a3357611a32611dee565b5b611a3c82611e1d565b9050602081019050919050565b6000819050602082019050919050565b60008190508160005260206000209050919050565b600081519050919050565b600081519050919050565b6000602082019050919050565b600082825260208201905092915050565b600081905092915050565b600082825260208201905092915050565b600081905092915050565b6000611ad482611c14565b9150611adf83611c14565b9250827fffffffffffffffffffffffffffffffffffffffffffffffffffffffffffffffff03821115611b1457611b13611d61565b5b828201905092915050565b6000611b2a82611c14565b9150611b3583611c14565b925082611b4557611b44611d90565b5b828204905092915050565b6000611b5b82611c14565b9150611b6683611c14565b925082821015611b7957611b78611d61565b5b828203905092915050565b6000611b8f82611bf4565b9050919050565b60008115159050919050565b6000819050919050565b60007fffffffff0000000000000000000000000000000000000000000000000000000082169050919050565b6000611be382611b84565b9050919050565b6000819050919050565b600073ffffffffffffffffffffffffffffffffffffffff82169050919050565b6000819050919050565b6000611c2982611c30565b9050919050565b6000611c3b82611bf4565b9050919050565b82818337600083830152505050565b60005b83811015611c6f578082015181840152602081019050611c54565b83811115611c7e576000848401525b50505050565b60006002820490506001821680611c9c57607f821691505b60208210811415611cb057611caf611dbf565b5b50919050565b611cbf82611e1d565b810181811067ffffffffffffffff82111715611cde57611cdd611dee565b5b80604052505050565b6000611cf282611c14565b91507fffffffffffffffffffffffffffffffffffffffffffffffffffffffffffffffff821415611d2557611d24611d61565b5b600182019050919050565b6000611d3b82611c14565b9150611d4683611c14565b925082611d5657611d55611d90565b5b828206905092915050565b7f4e487b7100000000000000000000000000000000000000000000000000000000600052601160045260246000fd5b7f4e487b7100000000000000000000000000000000000000000000000000000000600052601260045260246000fd5b7f4e487b7100000000000000000000000000000000000000000000000000000000600052602260045260246000fd5b7f4e487b7100000000000000000000000000000000000000000000000000000000600052604160045260246000fd5b6000601f19601f8301169050919050565b7f50726963652d0000000000000000000000000000000000000000000000000000600082015250565b7f5769746e65745072696365526f757465723a20616c726561647920736572766960008201527f6e6720612063757272656e637920706169720000000000000000000000000000602082015250565b7f4f776e61626c653a206e6577206f776e657220697320746865207a65726f206160008201527f6464726573730000000000000000000000000000000000000000000000000000602082015250565b7f5769746e65745072696365526f757465723a20756e737570706f72746564206360008201527f757272656e637920706169720000000000000000000000000000000000000000602082015250565b7f5769746e65745072696365526f757465723a206665656420636f6e747261637460008201527f206973206e6f7420636f6d706c69616e74207769746820495769746e6574507260208201527f6963654665656400000000000000000000000000000000000000000000000000604082015250565b7f4f776e61626c653a2063616c6c6572206973206e6f7420746865206f776e6572600082015250565b7f2d00000000000000000000000000000000000000000000000000000000000000600082015250565b7f5769746e65745072696365526f757465723a20756e6b6e6f776e000000000000600082015250565b7f2f00000000000000000000000000000000000000000000000000000000000000600082015250565b61206681611b84565b811461207157600080fd5b50565b61207d81611b96565b811461208857600080fd5b50565b61209481611ba2565b811461209f57600080fd5b50565b6120ab81611bd8565b81146120b657600080fd5b50565b6120c281611bea565b81146120cd57600080fd5b50565b6120d981611c14565b81146120e457600080fd5b5056fea26469706673582212207f4ad045bece73d4bb51c6ed118379c106a480673c9614984dc9dd159951139164736f6c63430008040033",
  "immutableReferences": {},
  "source": "/**\n *Submitted for verification at Etherscan.io on 2022-01-04\n*/\n\n// SPDX-License-Identifier: MIT\n\npragma solidity >=0.5.0 <0.9.0;\n\npragma experimental ABIEncoderV2;\n\n// File: ado-contracts\\contracts\\interfaces\\IERC2362.sol\n/**\n* @dev EIP2362 Interface for pull oracles\n* https://github.com/adoracles/EIPs/blob/erc-2362/EIPS/eip-2362.md\n*/\ninterface IERC2362\n{\n\t/**\n\t * @dev Exposed function pertaining to EIP standards\n\t * @param _id bytes32 ID of the query\n\t * @return int,uint,uint returns the value, timestamp, and status code of query\n\t */\n\tfunction valueFor(bytes32 _id) external view returns(int256,uint256,uint256);\n}\n// File: contracts\\interfaces\\IERC165.sol\n/**\n * @dev Interface of the ERC165 standard, as defined in the\n * https://eips.ethereum.org/EIPS/eip-165[EIP].\n *\n * Implementers can declare support of contract interfaces, which can then be\n * queried by others ({ERC165Checker}).\n *\n * For an implementation, see {ERC165}.\n */\ninterface IERC165 {\n    /**\n     * @dev Returns true if this contract implements the interface defined by\n     * `interfaceId`. See the corresponding\n     * https://eips.ethereum.org/EIPS/eip-165#how-interfaces-are-identified[EIP section]\n     * to learn more about how these ids are created.\n     *\n     * This function call must use less than 30 000 gas.\n     */\n    function supportsInterface(bytes4 interfaceId) external view returns (bool);\n}\n// File: contracts\\interfaces\\IWitnetPriceRouter.sol\n/// @title The Witnet Price Router basic interface.\n/// @dev Guides implementation of price feeds aggregation contracts.\n/// @author The Witnet Foundation.\nabstract contract IWitnetPriceRouter\n    is\n        IERC2362 \n{\n    /// Emitted everytime a currency pair is attached to a new price feed contract\n    /// @dev See https://github.com/adoracles/ADOIPs/blob/main/adoip-0010.md \n    /// @dev to learn how these ids are created.\n    event CurrencyPairSet(bytes32 indexed erc2362ID, IERC165 pricefeed);\n\n    /// Helper pure function: returns hash of the provided ERC2362-compliant currency pair caption (aka ID).\n    function currencyPairId(string memory) external pure virtual returns (bytes32);\n\n    /// Returns the ERC-165-compliant price feed contract currently serving \n    /// updates on the given currency pair.\n    function getPriceFeed(bytes32 _erc2362id) external view virtual returns (IERC165);\n\n    /// Returns human-readable ERC2362-based caption of the currency pair being\n    /// served by the given price feed contract address. \n    /// @dev Should fail if the given price feed contract address is not currently\n    /// @dev registered in the router.\n    function getPriceFeedCaption(IERC165) external view virtual returns (string memory);\n\n    /// Returns human-readable caption of the ERC2362-based currency pair identifier, if known.\n    function lookupERC2362ID(bytes32 _erc2362id) external view virtual returns (string memory);\n\n    /// Register a price feed contract that will serve updates for the given currency pair.\n    /// @dev Setting zero address to a currency pair implies that it will not be served any longer.\n    /// @dev Otherwise, should fail if the price feed contract does not support the `IWitnetPriceFeed` interface,\n    /// @dev or if given price feed is already serving another currency pair (within this WitnetPriceRouter instance).\n    function setPriceFeed(\n            IERC165 _pricefeed,\n            uint256 _decimals,\n            string calldata _base,\n            string calldata _quote\n        )\n        external virtual;\n\n    /// Returns list of known currency pairs IDs.\n    function supportedCurrencyPairs() external view virtual returns (bytes32[] memory);\n\n    /// Returns `true` if given pair is currently being served by a compliant price feed contract.\n    function supportsCurrencyPair(bytes32 _erc2362id) external view virtual returns (bool);\n\n    /// Returns `true` if given price feed contract is currently serving updates to any known currency pair. \n    function supportsPriceFeed(IERC165 _priceFeed) external view virtual returns (bool);\n}\n// File: node_modules\\@openzeppelin\\contracts\\utils\\Context.sol\n// OpenZeppelin Contracts v4.4.0 (utils/Context.sol)\n\n\n/**\n * @dev Provides information about the current execution context, including the\n * sender of the transaction and its data. While these are generally available\n * via msg.sender and msg.data, they should not be accessed in such a direct\n * manner, since when dealing with meta-transactions the account sending and\n * paying for execution may not be the actual sender (as far as an application\n * is concerned).\n *\n * This contract is only required for intermediate, library-like contracts.\n */\nabstract contract Context {\n    function _msgSender() internal view virtual returns (address) {\n        return msg.sender;\n    }\n\n    function _msgData() internal view virtual returns (bytes calldata) {\n        return msg.data;\n    }\n}\n// File: @openzeppelin\\contracts\\access\\Ownable.sol\n// OpenZeppelin Contracts v4.4.0 (access/Ownable.sol)\n\n\n\n/**\n * @dev Contract module which provides a basic access control mechanism, where\n * there is an account (an owner) that can be granted exclusive access to\n * specific functions.\n *\n * By default, the owner account will be the one that deploys the contract. This\n * can later be changed with {transferOwnership}.\n *\n * This module is used through inheritance. It will make available the modifier\n * `onlyOwner`, which can be applied to your functions to restrict their use to\n * the owner.\n */\nabstract contract Ownable is Context {\n    address private _owner;\n\n    event OwnershipTransferred(address indexed previousOwner, address indexed newOwner);\n\n    /**\n     * @dev Initializes the contract setting the deployer as the initial owner.\n     */\n    constructor() {\n        _transferOwnership(_msgSender());\n    }\n\n    /**\n     * @dev Returns the address of the current owner.\n     */\n    function owner() public view virtual returns (address) {\n        return _owner;\n    }\n\n    /**\n     * @dev Throws if called by any account other than the owner.\n     */\n    modifier onlyOwner() {\n        require(owner() == _msgSender(), \"Ownable: caller is not the owner\");\n        _;\n    }\n\n    /**\n     * @dev Leaves the contract without owner. It will not be possible to call\n     * `onlyOwner` functions anymore. Can only be called by the current owner.\n     *\n     * NOTE: Renouncing ownership will leave the contract without an owner,\n     * thereby removing any functionality that is only available to the owner.\n     */\n    function renounceOwnership() public virtual onlyOwner {\n        _transferOwnership(address(0));\n    }\n\n    /**\n     * @dev Transfers ownership of the contract to a new account (`newOwner`).\n     * Can only be called by the current owner.\n     */\n    function transferOwnership(address newOwner) public virtual onlyOwner {\n        require(newOwner != address(0), \"Ownable: new owner is the zero address\");\n        _transferOwnership(newOwner);\n    }\n\n    /**\n     * @dev Transfers ownership of the contract to a new account (`newOwner`).\n     * Internal function without access restriction.\n     */\n    function _transferOwnership(address newOwner) internal virtual {\n        address oldOwner = _owner;\n        _owner = newOwner;\n        emit OwnershipTransferred(oldOwner, newOwner);\n    }\n}\n// File: contracts\\interfaces\\IWitnetRequestBoardEvents.sol\n/// @title Witnet Request Board emitting events interface.\n/// @author The Witnet Foundation.\ninterface IWitnetRequestBoardEvents {\n    /// Emitted when a Witnet Data Request is posted to the WRB.\n    event PostedRequest(uint256 queryId, address from);\n\n    /// Emitted when a Witnet-solved result is reported to the WRB.\n    event PostedResult(uint256 queryId, address from);\n\n    /// Emitted when all data related to given query is deleted from the WRB.\n    event DeletedQuery(uint256 queryId, address from);\n}\n// File: contracts\\interfaces\\IWitnetRequestBoardReporter.sol\n/// @title The Witnet Request Board Reporter interface.\n/// @author The Witnet Foundation.\ninterface IWitnetRequestBoardReporter {\n    /// Reports the Witnet-provided result to a previously posted request. \n    /// @dev Will assume `block.timestamp` as the timestamp at which the request was solved.\n    /// @dev Fails if:\n    /// @dev - the `_queryId` is not in 'Posted' status.\n    /// @dev - provided `_drTxHash` is zero;\n    /// @dev - length of provided `_result` is zero.\n    /// @param _queryId The unique identifier of the data request.\n    /// @param _drTxHash The hash of the solving tally transaction in Witnet.\n    /// @param _result The result itself as bytes.\n    function reportResult(uint256 _queryId, bytes32 _drTxHash, bytes calldata _result) external;\n\n    /// Reports the Witnet-provided result to a previously posted request.\n    /// @dev Fails if:\n    /// @dev - called from unauthorized address;\n    /// @dev - the `_queryId` is not in 'Posted' status.\n    /// @dev - provided `_drTxHash` is zero;\n    /// @dev - length of provided `_result` is zero.\n    /// @param _queryId The unique query identifier\n    /// @param _timestamp The timestamp of the solving tally transaction in Witnet.\n    /// @param _drTxHash The hash of the solving tally transaction in Witnet.\n    /// @param _result The result itself as bytes.\n    function reportResult(uint256 _queryId, uint256 _timestamp, bytes32 _drTxHash, bytes calldata _result) external;\n}\n// File: contracts\\interfaces\\IWitnetRequest.sol\n/// @title The Witnet Data Request basic interface.\n/// @author The Witnet Foundation.\ninterface IWitnetRequest {\n    /// A `IWitnetRequest` is constructed around a `bytes` value containing \n    /// a well-formed Witnet Data Request using Protocol Buffers.\n    function bytecode() external view returns (bytes memory);\n\n    /// Returns SHA256 hash of Witnet Data Request as CBOR-encoded bytes.\n    function hash() external view returns (bytes32);\n}\n// File: contracts\\libs\\Witnet.sol\nlibrary Witnet {\n\n    /// @notice Witnet function that computes the hash of a CBOR-encoded Data Request.\n    /// @param _bytecode CBOR-encoded RADON.\n    function hash(bytes memory _bytecode) internal pure returns (bytes32) {\n        return sha256(_bytecode);\n    }\n\n    /// Struct containing both request and response data related to every query posted to the Witnet Request Board\n    struct Query {\n        Request request;\n        Response response;\n        address from;      // Address from which the request was posted.\n    }\n\n    /// Possible status of a Witnet query.\n    enum QueryStatus {\n        Unknown,\n        Posted,\n        Reported,\n        Deleted\n    }\n\n    /// Data kept in EVM-storage for every Request posted to the Witnet Request Board.\n    struct Request {\n        IWitnetRequest addr;    // The contract containing the Data Request which execution has been requested.\n        address requester;      // Address from which the request was posted.\n        bytes32 hash;           // Hash of the Data Request whose execution has been requested.\n        uint256 gasprice;       // Minimum gas price the DR resolver should pay on the solving tx.\n        uint256 reward;         // Escrowed reward to be paid to the DR resolver.\n    }\n\n    /// Data kept in EVM-storage containing Witnet-provided response metadata and result.\n    struct Response {\n        address reporter;       // Address from which the result was reported.\n        uint256 timestamp;      // Timestamp of the Witnet-provided result.\n        bytes32 drTxHash;       // Hash of the Witnet transaction that solved the queried Data Request.\n        bytes   cborBytes;      // Witnet-provided result CBOR-bytes to the queried Data Request.\n    }\n\n    /// Data struct containing the Witnet-provided result to a Data Request.\n    struct Result {\n        bool success;           // Flag stating whether the request could get solved successfully, or not.\n        CBOR value;             // Resulting value, in CBOR-serialized bytes.\n    }\n\n    /// Data struct following the RFC-7049 standard: Concise Binary Object Representation.\n    struct CBOR {\n        Buffer buffer;\n        uint8 initialByte;\n        uint8 majorType;\n        uint8 additionalInformation;\n        uint64 len;\n        uint64 tag;\n    }\n\n    /// Iterable bytes buffer.\n    struct Buffer {\n        bytes data;\n        uint32 cursor;\n    }\n\n    /// Witnet error codes table.\n    enum ErrorCodes {\n        // 0x00: Unknown error. Something went really bad!\n        Unknown,\n        // Script format errors\n        /// 0x01: At least one of the source scripts is not a valid CBOR-encoded value.\n        SourceScriptNotCBOR,\n        /// 0x02: The CBOR value decoded from a source script is not an Array.\n        SourceScriptNotArray,\n        /// 0x03: The Array value decoded form a source script is not a valid Data Request.\n        SourceScriptNotRADON,\n        /// Unallocated\n        ScriptFormat0x04,\n        ScriptFormat0x05,\n        ScriptFormat0x06,\n        ScriptFormat0x07,\n        ScriptFormat0x08,\n        ScriptFormat0x09,\n        ScriptFormat0x0A,\n        ScriptFormat0x0B,\n        ScriptFormat0x0C,\n        ScriptFormat0x0D,\n        ScriptFormat0x0E,\n        ScriptFormat0x0F,\n        // Complexity errors\n        /// 0x10: The request contains too many sources.\n        RequestTooManySources,\n        /// 0x11: The script contains too many calls.\n        ScriptTooManyCalls,\n        /// Unallocated\n        Complexity0x12,\n        Complexity0x13,\n        Complexity0x14,\n        Complexity0x15,\n        Complexity0x16,\n        Complexity0x17,\n        Complexity0x18,\n        Complexity0x19,\n        Complexity0x1A,\n        Complexity0x1B,\n        Complexity0x1C,\n        Complexity0x1D,\n        Complexity0x1E,\n        Complexity0x1F,\n        // Operator errors\n        /// 0x20: The operator does not exist.\n        UnsupportedOperator,\n        /// Unallocated\n        Operator0x21,\n        Operator0x22,\n        Operator0x23,\n        Operator0x24,\n        Operator0x25,\n        Operator0x26,\n        Operator0x27,\n        Operator0x28,\n        Operator0x29,\n        Operator0x2A,\n        Operator0x2B,\n        Operator0x2C,\n        Operator0x2D,\n        Operator0x2E,\n        Operator0x2F,\n        // Retrieval-specific errors\n        /// 0x30: At least one of the sources could not be retrieved, but returned HTTP error.\n        HTTP,\n        /// 0x31: Retrieval of at least one of the sources timed out.\n        RetrievalTimeout,\n        /// Unallocated\n        Retrieval0x32,\n        Retrieval0x33,\n        Retrieval0x34,\n        Retrieval0x35,\n        Retrieval0x36,\n        Retrieval0x37,\n        Retrieval0x38,\n        Retrieval0x39,\n        Retrieval0x3A,\n        Retrieval0x3B,\n        Retrieval0x3C,\n        Retrieval0x3D,\n        Retrieval0x3E,\n        Retrieval0x3F,\n        // Math errors\n        /// 0x40: Math operator caused an underflow.\n        Underflow,\n        /// 0x41: Math operator caused an overflow.\n        Overflow,\n        /// 0x42: Tried to divide by zero.\n        DivisionByZero,\n        /// Unallocated\n        Math0x43,\n        Math0x44,\n        Math0x45,\n        Math0x46,\n        Math0x47,\n        Math0x48,\n        Math0x49,\n        Math0x4A,\n        Math0x4B,\n        Math0x4C,\n        Math0x4D,\n        Math0x4E,\n        Math0x4F,\n        // Other errors\n        /// 0x50: Received zero reveals\n        NoReveals,\n        /// 0x51: Insufficient consensus in tally precondition clause\n        InsufficientConsensus,\n        /// 0x52: Received zero commits\n        InsufficientCommits,\n        /// 0x53: Generic error during tally execution\n        TallyExecution,\n        /// Unallocated\n        OtherError0x54,\n        OtherError0x55,\n        OtherError0x56,\n        OtherError0x57,\n        OtherError0x58,\n        OtherError0x59,\n        OtherError0x5A,\n        OtherError0x5B,\n        OtherError0x5C,\n        OtherError0x5D,\n        OtherError0x5E,\n        OtherError0x5F,\n        /// 0x60: Invalid reveal serialization (malformed reveals are converted to this value)\n        MalformedReveal,\n        /// Unallocated\n        OtherError0x61,\n        OtherError0x62,\n        OtherError0x63,\n        OtherError0x64,\n        OtherError0x65,\n        OtherError0x66,\n        OtherError0x67,\n        OtherError0x68,\n        OtherError0x69,\n        OtherError0x6A,\n        OtherError0x6B,\n        OtherError0x6C,\n        OtherError0x6D,\n        OtherError0x6E,\n        OtherError0x6F,\n        // Access errors\n        /// 0x70: Tried to access a value from an index using an index that is out of bounds\n        ArrayIndexOutOfBounds,\n        /// 0x71: Tried to access a value from a map using a key that does not exist\n        MapKeyNotFound,\n        /// Unallocated\n        OtherError0x72,\n        OtherError0x73,\n        OtherError0x74,\n        OtherError0x75,\n        OtherError0x76,\n        OtherError0x77,\n        OtherError0x78,\n        OtherError0x79,\n        OtherError0x7A,\n        OtherError0x7B,\n        OtherError0x7C,\n        OtherError0x7D,\n        OtherError0x7E,\n        OtherError0x7F,\n        OtherError0x80,\n        OtherError0x81,\n        OtherError0x82,\n        OtherError0x83,\n        OtherError0x84,\n        OtherError0x85,\n        OtherError0x86,\n        OtherError0x87,\n        OtherError0x88,\n        OtherError0x89,\n        OtherError0x8A,\n        OtherError0x8B,\n        OtherError0x8C,\n        OtherError0x8D,\n        OtherError0x8E,\n        OtherError0x8F,\n        OtherError0x90,\n        OtherError0x91,\n        OtherError0x92,\n        OtherError0x93,\n        OtherError0x94,\n        OtherError0x95,\n        OtherError0x96,\n        OtherError0x97,\n        OtherError0x98,\n        OtherError0x99,\n        OtherError0x9A,\n        OtherError0x9B,\n        OtherError0x9C,\n        OtherError0x9D,\n        OtherError0x9E,\n        OtherError0x9F,\n        OtherError0xA0,\n        OtherError0xA1,\n        OtherError0xA2,\n        OtherError0xA3,\n        OtherError0xA4,\n        OtherError0xA5,\n        OtherError0xA6,\n        OtherError0xA7,\n        OtherError0xA8,\n        OtherError0xA9,\n        OtherError0xAA,\n        OtherError0xAB,\n        OtherError0xAC,\n        OtherError0xAD,\n        OtherError0xAE,\n        OtherError0xAF,\n        OtherError0xB0,\n        OtherError0xB1,\n        OtherError0xB2,\n        OtherError0xB3,\n        OtherError0xB4,\n        OtherError0xB5,\n        OtherError0xB6,\n        OtherError0xB7,\n        OtherError0xB8,\n        OtherError0xB9,\n        OtherError0xBA,\n        OtherError0xBB,\n        OtherError0xBC,\n        OtherError0xBD,\n        OtherError0xBE,\n        OtherError0xBF,\n        OtherError0xC0,\n        OtherError0xC1,\n        OtherError0xC2,\n        OtherError0xC3,\n        OtherError0xC4,\n        OtherError0xC5,\n        OtherError0xC6,\n        OtherError0xC7,\n        OtherError0xC8,\n        OtherError0xC9,\n        OtherError0xCA,\n        OtherError0xCB,\n        OtherError0xCC,\n        OtherError0xCD,\n        OtherError0xCE,\n        OtherError0xCF,\n        OtherError0xD0,\n        OtherError0xD1,\n        OtherError0xD2,\n        OtherError0xD3,\n        OtherError0xD4,\n        OtherError0xD5,\n        OtherError0xD6,\n        OtherError0xD7,\n        OtherError0xD8,\n        OtherError0xD9,\n        OtherError0xDA,\n        OtherError0xDB,\n        OtherError0xDC,\n        OtherError0xDD,\n        OtherError0xDE,\n        OtherError0xDF,\n        // Bridge errors: errors that only belong in inter-client communication\n        /// 0xE0: Requests that cannot be parsed must always get this error as their result.\n        /// However, this is not a valid result in a Tally transaction, because invalid requests\n        /// are never included into blocks and therefore never get a Tally in response.\n        BridgeMalformedRequest,\n        /// 0xE1: Witnesses exceeds 100\n        BridgePoorIncentives,\n        /// 0xE2: The request is rejected on the grounds that it may cause the submitter to spend or stake an\n        /// amount of value that is unjustifiably high when compared with the reward they will be getting\n        BridgeOversizedResult,\n        /// Unallocated\n        OtherError0xE3,\n        OtherError0xE4,\n        OtherError0xE5,\n        OtherError0xE6,\n        OtherError0xE7,\n        OtherError0xE8,\n        OtherError0xE9,\n        OtherError0xEA,\n        OtherError0xEB,\n        OtherError0xEC,\n        OtherError0xED,\n        OtherError0xEE,\n        OtherError0xEF,\n        OtherError0xF0,\n        OtherError0xF1,\n        OtherError0xF2,\n        OtherError0xF3,\n        OtherError0xF4,\n        OtherError0xF5,\n        OtherError0xF6,\n        OtherError0xF7,\n        OtherError0xF8,\n        OtherError0xF9,\n        OtherError0xFA,\n        OtherError0xFB,\n        OtherError0xFC,\n        OtherError0xFD,\n        OtherError0xFE,\n        // This should not exist:\n        /// 0xFF: Some tally error is not intercepted but should\n        UnhandledIntercept\n    }\n}\n// File: contracts\\interfaces\\IWitnetRequestBoardRequestor.sol\n/// @title Witnet Requestor Interface\n/// @notice It defines how to interact with the Witnet Request Board in order to:\n///   - request the execution of Witnet Radon scripts (data request);\n///   - upgrade the resolution reward of any previously posted request, in case gas price raises in mainnet;\n///   - read the result of any previously posted request, eventually reported by the Witnet DON.\n///   - remove from storage all data related to past and solved data requests, and results.\n/// @author The Witnet Foundation.\ninterface IWitnetRequestBoardRequestor {\n    /// Retrieves a copy of all Witnet-provided data related to a previously posted request, removing the whole query from the WRB storage.\n    /// @dev Fails if the `_queryId` is not in 'Reported' status, or called from an address different to\n    /// @dev the one that actually posted the given request.\n    /// @param _queryId The unique query identifier.\n    function deleteQuery(uint256 _queryId) external returns (Witnet.Response memory);\n\n    /// Requests the execution of the given Witnet Data Request in expectation that it will be relayed and solved by the Witnet DON.\n    /// A reward amount is escrowed by the Witnet Request Board that will be transferred to the reporter who relays back the Witnet-provided \n    /// result to this request.\n    /// @dev Fails if:\n    /// @dev - provided reward is too low.\n    /// @dev - provided script is zero address.\n    /// @dev - provided script bytecode is empty.\n    /// @param _addr The address of the IWitnetRequest contract that can provide the actual Data Request bytecode.\n    /// @return _queryId An unique query identifier.\n    function postRequest(IWitnetRequest _addr) external payable returns (uint256 _queryId);\n\n    /// Increments the reward of a previously posted request by adding the transaction value to it.\n    /// @dev Updates request `gasPrice` in case this method is called with a higher \n    /// @dev gas price value than the one used in previous calls to `postRequest` or\n    /// @dev `upgradeReward`. \n    /// @dev Fails if the `_queryId` is not in 'Posted' status.\n    /// @dev Fails also in case the request `gasPrice` is increased, and the new \n    /// @dev reward value gets below new recalculated threshold. \n    /// @param _queryId The unique query identifier.\n    function upgradeReward(uint256 _queryId) external payable;\n}\n// File: contracts\\interfaces\\IWitnetRequestBoardView.sol\n/// @title Witnet Request Board info interface.\n/// @author The Witnet Foundation.\ninterface IWitnetRequestBoardView {\n    /// Estimates the amount of reward we need to insert for a given gas price.\n    /// @param _gasPrice The gas price for which we need to calculate the rewards.\n    function estimateReward(uint256 _gasPrice) external view returns (uint256);\n\n    /// Returns next query id to be generated by the Witnet Request Board.\n    function getNextQueryId() external view returns (uint256);\n\n    /// Gets the whole Query data contents, if any, no matter its current status.\n    function getQueryData(uint256 _queryId) external view returns (Witnet.Query memory);\n\n    /// Gets current status of given query.\n    function getQueryStatus(uint256 _queryId) external view returns (Witnet.QueryStatus);\n\n    /// Retrieves the whole Request record posted to the Witnet Request Board.\n    /// @dev Fails if the `_queryId` is not valid or, if it has already been reported\n    /// @dev or deleted.\n    /// @param _queryId The unique identifier of a previously posted query.\n    function readRequest(uint256 _queryId) external view returns (Witnet.Request memory);\n\n    /// Retrieves the serialized bytecode of a previously posted Witnet Data Request.\n    /// @dev Fails if the `_queryId` is not valid, or if the related script bytecode \n    /// @dev got changed after being posted. Returns empty array once it gets reported, \n    /// @dev or deleted.\n    /// @param _queryId The unique query identifier.\n    function readRequestBytecode(uint256 _queryId) external view returns (bytes memory);\n\n    /// Retrieves the gas price that any assigned reporter will have to pay when reporting \n    /// result to a previously posted Witnet data request.\n    /// @dev Fails if the `_queryId` is not valid or, if it has already been \n    /// @dev reported, or deleted. \n    /// @param _queryId The unique query identifie\n    function readRequestGasPrice(uint256 _queryId) external view returns (uint256);\n\n    /// Retrieves the reward currently set for the referred query.\n    /// @dev Fails if the `_queryId` is not valid or, if it has already been \n    /// @dev reported, or deleted. \n    /// @param _queryId The unique query identifier.\n    function readRequestReward(uint256 _queryId) external view returns (uint256);\n\n    /// Retrieves the whole `Witnet.Response` record referred to a previously posted Witnet Data Request.\n    /// @dev Fails if the `_queryId` is not in 'Reported' status.\n    /// @param _queryId The unique query identifier.\n    function readResponse(uint256 _queryId) external view returns (Witnet.Response memory);\n\n    /// Retrieves the hash of the Witnet transaction hash that actually solved the referred query.\n    /// @dev Fails if the `_queryId` is not in 'Reported' status.\n    /// @param _queryId The unique query identifier.\n    function readResponseDrTxHash(uint256 _queryId) external view returns (bytes32);    \n\n    /// Retrieves the address that reported the result to a previously-posted request.\n    /// @dev Fails if the `_queryId` is not in 'Reported' status.\n    /// @param _queryId The unique query identifier.\n    function readResponseReporter(uint256 _queryId) external view returns (address);\n\n    /// Retrieves the Witnet-provided CBOR-bytes result of a previously posted request.\n    /// @dev Fails if the `_queryId` is not in 'Reported' status.\n    /// @param _queryId The unique query identifier.\n    function readResponseResult(uint256 _queryId) external view returns (Witnet.Result memory);\n\n    /// Retrieves the timestamp in which the result to the referred query was solved by the Witnet DON.\n    /// @dev Fails if the `_queryId` is not in 'Reported' status.\n    /// @param _queryId The unique query identifier.\n    function readResponseTimestamp(uint256 _queryId) external view returns (uint256);\n}\n// File: contracts\\interfaces\\IWitnetRequestParser.sol\n/// @title The Witnet interface for decoding Witnet-provided request to Data Requests.\n/// This interface exposes functions to check for the success/failure of\n/// a Witnet-provided result, as well as to parse and convert result into\n/// Solidity types suitable to the application level. \n/// @author The Witnet Foundation.\ninterface IWitnetRequestParser {\n\n    /// Decode raw CBOR bytes into a Witnet.Result instance.\n    /// @param _cborBytes Raw bytes representing a CBOR-encoded value.\n    /// @return A `Witnet.Result` instance.\n    function resultFromCborBytes(bytes memory _cborBytes) external pure returns (Witnet.Result memory);\n\n    /// Decode a CBOR value into a Witnet.Result instance.\n    /// @param _cborValue An instance of `Witnet.CBOR`.\n    /// @return A `Witnet.Result` instance.\n    function resultFromCborValue(Witnet.CBOR memory _cborValue) external pure returns (Witnet.Result memory);\n\n    /// Tell if a Witnet.Result is successful.\n    /// @param _result An instance of Witnet.Result.\n    /// @return `true` if successful, `false` if errored.\n    function isOk(Witnet.Result memory _result) external pure returns (bool);\n\n    /// Tell if a Witnet.Result is errored.\n    /// @param _result An instance of Witnet.Result.\n    /// @return `true` if errored, `false` if successful.\n    function isError(Witnet.Result memory _result) external pure returns (bool);\n\n    /// Decode a bytes value from a Witnet.Result as a `bytes` value.\n    /// @param _result An instance of Witnet.Result.\n    /// @return The `bytes` decoded from the Witnet.Result.\n    function asBytes(Witnet.Result memory _result) external pure returns (bytes memory);\n\n    /// Decode a bytes value from a Witnet.Result as a `bytes32` value.\n    /// @param _result An instance of Witnet.Result.\n    /// @return The `bytes32` decoded from the Witnet.Result.\n    function asBytes32(Witnet.Result memory _result) external pure returns (bytes32);\n\n    /// Decode an error code from a Witnet.Result as a member of `Witnet.ErrorCodes`.\n    /// @param _result An instance of `Witnet.Result`.\n    /// @return The `CBORValue.Error memory` decoded from the Witnet.Result.\n    function asErrorCode(Witnet.Result memory _result) external pure returns (Witnet.ErrorCodes);\n\n\n    /// Generate a suitable error message for a member of `Witnet.ErrorCodes` and its corresponding arguments.\n    /// @dev WARN: Note that client contracts should wrap this function into a try-catch foreseing potential errors generated in this function\n    /// @param _result An instance of `Witnet.Result`.\n    /// @return A tuple containing the `CBORValue.Error memory` decoded from the `Witnet.Result`, plus a loggable error message.\n    function asErrorMessage(Witnet.Result memory _result) external pure returns (Witnet.ErrorCodes, string memory);\n\n    /// Decode a raw error from a `Witnet.Result` as a `uint64[]`.\n    /// @param _result An instance of `Witnet.Result`.\n    /// @return The `uint64[]` raw error as decoded from the `Witnet.Result`.\n    function asRawError(Witnet.Result memory _result) external pure returns(uint64[] memory);\n\n    /// Decode a boolean value from a Witnet.Result as an `bool` value.\n    /// @param _result An instance of Witnet.Result.\n    /// @return The `bool` decoded from the Witnet.Result.\n    function asBool(Witnet.Result memory _result) external pure returns (bool);\n\n    /// Decode a fixed16 (half-precision) numeric value from a Witnet.Result as an `int32` value.\n    /// @dev Due to the lack of support for floating or fixed point arithmetic in the EVM, this method offsets all values.\n    /// by 5 decimal orders so as to get a fixed precision of 5 decimal positions, which should be OK for most `fixed16`.\n    /// use cases. In other words, the output of this method is 10,000 times the actual value, encoded into an `int32`.\n    /// @param _result An instance of Witnet.Result.\n    /// @return The `int128` decoded from the Witnet.Result.\n    function asFixed16(Witnet.Result memory _result) external pure returns (int32);\n\n    /// Decode an array of fixed16 values from a Witnet.Result as an `int128[]` value.\n    /// @param _result An instance of Witnet.Result.\n    /// @return The `int128[]` decoded from the Witnet.Result.\n    function asFixed16Array(Witnet.Result memory _result) external pure returns (int32[] memory);\n\n    /// Decode a integer numeric value from a Witnet.Result as an `int128` value.\n    /// @param _result An instance of Witnet.Result.\n    /// @return The `int128` decoded from the Witnet.Result.\n    function asInt128(Witnet.Result memory _result) external pure returns (int128);\n\n    /// Decode an array of integer numeric values from a Witnet.Result as an `int128[]` value.\n    /// @param _result An instance of Witnet.Result.\n    /// @return The `int128[]` decoded from the Witnet.Result.\n    function asInt128Array(Witnet.Result memory _result) external pure returns (int128[] memory);\n\n    /// Decode a string value from a Witnet.Result as a `string` value.\n    /// @param _result An instance of Witnet.Result.\n    /// @return The `string` decoded from the Witnet.Result.\n    function asString(Witnet.Result memory _result) external pure returns (string memory);\n\n    /// Decode an array of string values from a Witnet.Result as a `string[]` value.\n    /// @param _result An instance of Witnet.Result.\n    /// @return The `string[]` decoded from the Witnet.Result.\n    function asStringArray(Witnet.Result memory _result) external pure returns (string[] memory);\n\n    /// Decode a natural numeric value from a Witnet.Result as a `uint64` value.\n    /// @param _result An instance of Witnet.Result.\n    /// @return The `uint64` decoded from the Witnet.Result.\n    function asUint64(Witnet.Result memory _result) external pure returns(uint64);\n\n    /// Decode an array of natural numeric values from a Witnet.Result as a `uint64[]` value.\n    /// @param _result An instance of Witnet.Result.\n    /// @return The `uint64[]` decoded from the Witnet.Result.\n    function asUint64Array(Witnet.Result memory _result) external pure returns (uint64[] memory);\n\n}\n// File: contracts\\WitnetRequestBoard.sol\n/// @title Witnet Request Board functionality base contract.\n/// @author The Witnet Foundation.\nabstract contract WitnetRequestBoard is\n    IWitnetRequestBoardEvents,\n    IWitnetRequestBoardReporter,\n    IWitnetRequestBoardRequestor,\n    IWitnetRequestBoardView,\n    IWitnetRequestParser\n{\n    receive() external payable {\n        revert(\"WitnetRequestBoard: no transfers accepted\");\n    }\n}\n// File: contracts\\interfaces\\IWitnetPriceFeed.sol\n/// @title The Witnet Price Feed basic interface.\n/// @dev Guides implementation of active price feed polling contracts.\n/// @author The Witnet Foundation.\n\ninterface IWitnetPriceFeed {\n\n    /// Signals that a new price update request is being posted to the Witnet Request Board\n    event PriceFeeding(address indexed from, uint256 queryId, uint256 extraFee);\n\n    /// Estimates minimum fee amount in native currency to be paid when \n    /// requesting a new price update.\n    /// @dev Actual fee depends on the gas price of the `requestUpdate()` transaction.\n    /// @param _gasPrice Gas price expected to be paid when calling `requestUpdate()`\n    function estimateUpdateFee(uint256 _gasPrice) external view returns (uint256);\n\n    /// Returns result of the last valid price update request successfully solved by the Witnet oracle.\n    function lastPrice() external view returns (int256);\n\n    /// Returns the EVM-timestamp when last valid price was reported back from the Witnet oracle.\n    function lastTimestamp() external view returns (uint256);    \n\n    /// Returns tuple containing last valid price and timestamp, as well as status code of latest update\n    /// request that got posted to the Witnet Request Board.\n    /// @return _lastPrice Last valid price reported back from the Witnet oracle.\n    /// @return _lastTimestamp EVM-timestamp of the last valid price.\n    /// @return _lastDrTxHash Hash of the Witnet Data Request that solved the last valid price.\n    /// @return _latestUpdateStatus Status code of the latest update request.\n    function lastValue() external view returns (\n        int _lastPrice,\n        uint _lastTimestamp,\n        bytes32 _lastDrTxHash,\n        uint _latestUpdateStatus\n    );\n\n    /// Returns identifier of the latest update request posted to the Witnet Request Board.\n    function latestQueryId() external view returns (uint256);\n\n    /// Returns hash of the Witnet Data Request that solved the latest update request.\n    /// @dev Returning 0 while the latest update request remains unsolved.\n    function latestUpdateDrTxHash() external view returns (bytes32);\n\n    /// Returns error message of latest update request posted to the Witnet Request Board.\n    /// @dev Returning empty string if the latest update request remains unsolved, or\n    /// @dev if it was succesfully solved with no errors.\n    function latestUpdateErrorMessage() external view returns (string memory);\n\n    /// Returns status code of latest update request posted to the Witnet Request Board:\n    /// @dev Status codes:\n    /// @dev   - 200: update request was succesfully solved with no errors\n    /// @dev   - 400: update request was solved with errors\n    /// @dev   - 404: update request was not solved yet \n    function latestUpdateStatus() external view returns (uint256);\n\n    /// Returns `true` if latest update request posted to the Witnet Request Board \n    /// has not been solved yet by the Witnet oracle.\n    function pendingUpdate() external view returns (bool);\n\n    /// Posts a new price update request to the Witnet Request Board. Requires payment of a fee\n    /// that depends on the value of `tx.gasprice`. See `estimateUpdateFee(uint256)`.\n    /// @dev If previous update request was not solved yet, calling this method again allows\n    /// @dev upgrading the update fee if called with a higher `tx.gasprice` value.\n    function requestUpdate() external payable;\n\n    /// Tells whether this contract implements the interface defined by `interfaceId`. \n    /// @dev See the corresponding https://eips.ethereum.org/EIPS/eip-165#how-interfaces-are-identified[EIP section]\n    /// @dev to learn more about how these ids are created.\n    function supportsInterface(bytes4) external view returns (bool);\n}\n// File: @openzeppelin\\contracts\\utils\\Strings.sol\n// OpenZeppelin Contracts v4.4.0 (utils/Strings.sol)\n\n\n/**\n * @dev String operations.\n */\nlibrary Strings {\n    bytes16 private constant _HEX_SYMBOLS = \"0123456789abcdef\";\n\n    /**\n     * @dev Converts a `uint256` to its ASCII `string` decimal representation.\n     */\n    function toString(uint256 value) internal pure returns (string memory) {\n        // Inspired by OraclizeAPI's implementation - MIT licence\n        // https://github.com/oraclize/ethereum-api/blob/b42146b063c7d6ee1358846c198246239e9360e8/oraclizeAPI_0.4.25.sol\n\n        if (value == 0) {\n            return \"0\";\n        }\n        uint256 temp = value;\n        uint256 digits;\n        while (temp != 0) {\n            digits++;\n            temp /= 10;\n        }\n        bytes memory buffer = new bytes(digits);\n        while (value != 0) {\n            digits -= 1;\n            buffer[digits] = bytes1(uint8(48 + uint256(value % 10)));\n            value /= 10;\n        }\n        return string(buffer);\n    }\n\n    /**\n     * @dev Converts a `uint256` to its ASCII `string` hexadecimal representation.\n     */\n    function toHexString(uint256 value) internal pure returns (string memory) {\n        if (value == 0) {\n            return \"0x00\";\n        }\n        uint256 temp = value;\n        uint256 length = 0;\n        while (temp != 0) {\n            length++;\n            temp >>= 8;\n        }\n        return toHexString(value, length);\n    }\n\n    /**\n     * @dev Converts a `uint256` to its ASCII `string` hexadecimal representation with fixed length.\n     */\n    function toHexString(uint256 value, uint256 length) internal pure returns (string memory) {\n        bytes memory buffer = new bytes(2 * length + 2);\n        buffer[0] = \"0\";\n        buffer[1] = \"x\";\n        for (uint256 i = 2 * length + 1; i > 1; --i) {\n            buffer[i] = _HEX_SYMBOLS[value & 0xf];\n            value >>= 4;\n        }\n        require(value == 0, \"Strings: hex length insufficient\");\n        return string(buffer);\n    }\n}\n// File: contracts\\examples\\WitnetPriceRouter.sol\ncontract WitnetPriceRouter\n    is\n        IWitnetPriceRouter,\n        Ownable\n{\n    using Strings for uint256;\n    \n    struct Pair {\n        IERC165 pricefeed;\n        uint256 decimals;\n        string  base;\n        string  quote;\n    }    \n\n    mapping (bytes4 => Pair) internal __pairs;\n    mapping (address => bytes32) internal __pricefeedId_;\n\n    bytes32[] internal __supportedCurrencyPairs;\n\n    // ========================================================================\n    // --- Implementation of 'IERC2362' ---------------------------------------\n\n    /// Returns last valid price value and timestamp, as well as status of\n    /// the latest update request that got posted to the Witnet Request Board. \n    /// @dev Fails if the given currency pair is not currently supported.\n    /// @param _erc2362id Price pair identifier as specified in https://github.com/adoracles/ADOIPs/blob/main/adoip-0010.md\n    /// @return _lastPrice Last valid price reported back from the Witnet oracle.\n    /// @return _lastTimestamp EVM-timestamp of the last valid price.\n    /// @return _latestUpdateStatus Status code of latest update request that got posted to the Witnet Request Board:\n    ///          - 200: latest update request was succesfully solved with no errors\n    ///          - 400: latest update request was solved with errors\n    ///          - 404: latest update request is still pending to be solved    \n\tfunction valueFor(bytes32 _erc2362id)\n        external view\n        virtual override\n        returns (\n            int256 _lastPrice,\n            uint256 _lastTimestamp,\n            uint256 _latestUpdateStatus\n        )\n    {\n        IWitnetPriceFeed _pricefeed = IWitnetPriceFeed(address(getPriceFeed(_erc2362id)));\n        require(address(_pricefeed) != address(0), \"WitnetPriceRouter: unsupported currency pair\");\n        (_lastPrice, _lastTimestamp,, _latestUpdateStatus) = _pricefeed.lastValue();\n    }\n\n\n    // ========================================================================\n    // --- Implementation of 'IWitnetPriceRouter' ---------------------------    \n\n    /// Helper pure function: returns hash of the provided ERC2362-compliant currency pair caption (aka ID).\n    function currencyPairId(string memory _caption)\n        public pure\n        virtual override\n        returns (bytes32)\n    {\n        return keccak256(bytes(_caption));\n    }\n\n    /// Returns the ERC-165-compliant price feed contract currently serving \n    /// updates on the given currency pair.\n    function getPriceFeed(bytes32 _erc2362id)\n        public view\n        virtual override\n        returns (IERC165)\n    {\n        return __pairs[bytes4(_erc2362id)].pricefeed;\n    }\n\n    /// Returns human-readable ERC2362-based caption of the currency pair being\n    /// served by the given price feed contract address. \n    /// @dev Fails if the given price feed contract address is not currently\n    /// @dev registered in the router.\n    function getPriceFeedCaption(IERC165 _pricefeed) \n        public view\n        virtual override\n        returns (string memory)\n    {\n        require(supportsPriceFeed(_pricefeed), \"WitnetPriceRouter: unknown\");\n        return lookupERC2362ID(__pricefeedId_[address(_pricefeed)]);\n    }\n\n    /// Returns human-readable caption of the ERC2362-based currency pair identifier, if known.\n    function lookupERC2362ID(bytes32 _erc2362id)\n        public view\n        virtual override\n        returns (string memory _caption)\n    {\n        Pair storage _pair = __pairs[bytes4(_erc2362id)];\n        if (\n            bytes(_pair.base).length > 0 \n                && bytes(_pair.quote).length > 0\n        ) {\n            _caption = string(abi.encodePacked(\n                \"Price-\",\n                _pair.base,\n                \"/\",\n                _pair.quote,\n                \"-\",\n                _pair.decimals.toString()\n            ));\n        }\n    }\n\n    /// Register a price feed contract that will serve updates for the given currency pair.\n    /// @dev Setting zero address to a currency pair implies that it will not be served any longer.\n    /// @dev Otherwise, fails if the price feed contract does not support the `IWitnetPriceFeed` interface,\n    /// @dev or if given price feed is already serving another currency pair (within this WitnetPriceRouter instance).\n    function setPriceFeed(\n            IERC165 _pricefeed,\n            uint256 _decimals,\n            string calldata _base,\n            string calldata _quote\n        )\n        public \n        virtual override\n        onlyOwner\n    {\n        if (address(_pricefeed) != address(0)) {\n            require(\n                _pricefeed.supportsInterface(type(IWitnetPriceFeed).interfaceId),\n                \"WitnetPriceRouter: feed contract is not compliant with IWitnetPriceFeed\"\n            );\n            require(\n                __pricefeedId_[address(_pricefeed)] == bytes32(0),\n                \"WitnetPriceRouter: already serving a currency pair\"\n            );\n        }\n        bytes memory _caption = abi.encodePacked(\n            \"Price-\",\n            bytes(_base),\n            \"/\",\n            bytes(_quote),\n            \"-\",\n            _decimals.toString()\n        );\n        bytes32 _erc2362id = keccak256(_caption);\n        \n        Pair storage _record = __pairs[bytes4(_erc2362id)];\n        address _currentPriceFeed = address(_record.pricefeed);\n        if (bytes(_record.base).length == 0) {\n            _record.base = _base;\n            _record.quote = _quote;\n            _record.decimals = _decimals;\n            __supportedCurrencyPairs.push(_erc2362id);\n        }\n        else if (_currentPriceFeed != address(0)) {\n            __pricefeedId_[_currentPriceFeed] = bytes32(0);\n        }\n        if (address(_pricefeed) != _currentPriceFeed) {\n            __pricefeedId_[address(_pricefeed)] = _erc2362id;\n        }\n        _record.pricefeed = _pricefeed;\n        emit CurrencyPairSet(_erc2362id, _pricefeed);\n    }\n\n    /// Returns list of known currency pairs IDs.\n    function supportedCurrencyPairs()\n        external view\n        virtual override\n        returns (bytes32[] memory)\n    {\n        return __supportedCurrencyPairs;\n    }\n\n    /// Returns `true` if given pair is currently being served by a compliant price feed contract.\n    function supportsCurrencyPair(bytes32 _erc2362id)\n        public view\n        virtual override\n        returns (bool)\n    {\n        return address(__pairs[bytes4(_erc2362id)].pricefeed) != address(0);\n    }\n\n    /// Returns `true` if given price feed contract is currently serving updates to any known currency pair. \n    function supportsPriceFeed(IERC165 _pricefeed)\n        public view\n        virtual override\n        returns (bool)\n    {\n        return __pairs[bytes4(__pricefeedId_[address(_pricefeed)])].pricefeed == _pricefeed;\n    }\n}",
  "sourcePath": "/home/cowboy/OpenchainTestVersion/server/contracts/PriceOracle.sol",
  "compiler": {
    "name": "solc",
    "version": "0.8.4+commit.c7e474f2.Emscripten.clang"
  },
  "schemaVersion": "3.4.6",
  "updatedAt": "2022-04-09T06:57:51.924Z",
  "devdoc": {
    "kind": "dev",
    "methods": {
      "getPriceFeedCaption(address)": {
        "details": "Fails if the given price feed contract address is not currentlyregistered in the router."
      },
      "owner()": {
        "details": "Returns the address of the current owner."
      },
      "renounceOwnership()": {
        "details": "Leaves the contract without owner. It will not be possible to call `onlyOwner` functions anymore. Can only be called by the current owner. NOTE: Renouncing ownership will leave the contract without an owner, thereby removing any functionality that is only available to the owner."
      },
      "setPriceFeed(address,uint256,string,string)": {
        "details": "Setting zero address to a currency pair implies that it will not be served any longer.Otherwise, fails if the price feed contract does not support the `IWitnetPriceFeed` interface,or if given price feed is already serving another currency pair (within this WitnetPriceRouter instance)."
      },
      "transferOwnership(address)": {
        "details": "Transfers ownership of the contract to a new account (`newOwner`). Can only be called by the current owner."
      },
      "valueFor(bytes32)": {
        "details": "Fails if the given currency pair is not currently supported.",
        "params": {
          "_erc2362id": "Price pair identifier as specified in https://github.com/adoracles/ADOIPs/blob/main/adoip-0010.md"
        },
        "returns": {
          "_lastPrice": "Last valid price reported back from the Witnet oracle.",
          "_lastTimestamp": "EVM-timestamp of the last valid price.",
          "_latestUpdateStatus": "Status code of latest update request that got posted to the Witnet Request Board:          - 200: latest update request was succesfully solved with no errors          - 400: latest update request was solved with errors          - 404: latest update request is still pending to be solved    "
        }
      }
    },
    "version": 1
  },
  "userdoc": {
    "events": {
      "CurrencyPairSet(bytes32,address)": {
        "notice": "Emitted everytime a currency pair is attached to a new price feed contract"
      }
    },
    "kind": "user",
    "methods": {
      "currencyPairId(string)": {
        "notice": "Helper pure function: returns hash of the provided ERC2362-compliant currency pair caption (aka ID)."
      },
      "getPriceFeed(bytes32)": {
        "notice": "Returns the ERC-165-compliant price feed contract currently serving  updates on the given currency pair."
      },
      "getPriceFeedCaption(address)": {
        "notice": "Returns human-readable ERC2362-based caption of the currency pair being served by the given price feed contract address. "
      },
      "lookupERC2362ID(bytes32)": {
        "notice": "Returns human-readable caption of the ERC2362-based currency pair identifier, if known."
      },
      "setPriceFeed(address,uint256,string,string)": {
        "notice": "Register a price feed contract that will serve updates for the given currency pair."
      },
      "supportedCurrencyPairs()": {
        "notice": "Returns list of known currency pairs IDs."
      },
      "supportsCurrencyPair(bytes32)": {
        "notice": "Returns `true` if given pair is currently being served by a compliant price feed contract."
      },
      "supportsPriceFeed(address)": {
        "notice": "Returns `true` if given price feed contract is currently serving updates to any known currency pair. "
      },
      "valueFor(bytes32)": {
        "notice": "Returns last valid price value and timestamp, as well as status of the latest update request that got posted to the Witnet Request Board. "
      }
    },
    "version": 1
  }
}