{
  "contractName": "OcxExchange",
  "abi": [
    {
      "inputs": [],
      "stateMutability": "nonpayable",
      "type": "constructor"
    },
    {
      "inputs": [
        {
          "internalType": "address",
          "name": "",
          "type": "address"
        },
        {
          "internalType": "uint256",
          "name": "",
          "type": "uint256"
        }
      ],
      "name": "poolShare",
      "outputs": [
        {
          "internalType": "uint8",
          "name": "poolIndex",
          "type": "uint8"
        }
      ],
      "stateMutability": "view",
      "type": "function",
      "constant": true
    },
    {
      "inputs": [],
      "name": "uniswapRouter",
      "outputs": [
        {
          "internalType": "contract IUniswapV2Router02",
          "name": "",
          "type": "address"
        }
      ],
      "stateMutability": "view",
      "type": "function",
      "constant": true
    },
    {
      "stateMutability": "payable",
      "type": "receive",
      "payable": true
    },
    {
      "inputs": [
        {
          "internalType": "address payable",
          "name": "_pnftAddress",
          "type": "address"
        }
      ],
      "name": "setPnftAddress",
      "outputs": [],
      "stateMutability": "nonpayable",
      "type": "function"
    },
    {
      "inputs": [
        {
          "internalType": "address payable",
          "name": "_ocatAddress",
          "type": "address"
        }
      ],
      "name": "setOcatAddress",
      "outputs": [],
      "stateMutability": "nonpayable",
      "type": "function"
    },
    {
      "inputs": [
        {
          "internalType": "address",
          "name": "_tokenOut",
          "type": "address"
        },
        {
          "internalType": "uint256",
          "name": "_amountOutMin",
          "type": "uint256"
        },
        {
          "internalType": "uint256",
          "name": "_deadline",
          "type": "uint256"
        }
      ],
      "name": "swapFromETH",
      "outputs": [],
      "stateMutability": "payable",
      "type": "function",
      "payable": true
    },
    {
      "inputs": [
        {
          "internalType": "address",
          "name": "_tokenIn",
          "type": "address"
        },
        {
          "internalType": "uint256",
          "name": "_amountIn",
          "type": "uint256"
        },
        {
          "internalType": "uint256",
          "name": "_amountOutMin",
          "type": "uint256"
        },
        {
          "internalType": "uint256",
          "name": "_deadline",
          "type": "uint256"
        }
      ],
      "name": "swapToETH",
      "outputs": [],
      "stateMutability": "nonpayable",
      "type": "function"
    },
    {
      "inputs": [
        {
          "internalType": "address",
          "name": "_tokenIn",
          "type": "address"
        },
        {
          "internalType": "uint256",
          "name": "_amountIn",
          "type": "uint256"
        },
        {
          "internalType": "address",
          "name": "_tokenOut",
          "type": "address"
        },
        {
          "internalType": "uint256",
          "name": "_amountOutMin",
          "type": "uint256"
        },
        {
          "internalType": "uint256",
          "name": "_deadline",
          "type": "uint256"
        }
      ],
      "name": "swapForERC20",
      "outputs": [],
      "stateMutability": "nonpayable",
      "type": "function"
    },
    {
      "inputs": [
        {
          "internalType": "address payable",
          "name": "operator",
          "type": "address"
        },
        {
          "internalType": "address payable",
          "name": "from",
          "type": "address"
        },
        {
          "internalType": "uint256",
          "name": "tokenId",
          "type": "uint256"
        },
        {
          "internalType": "bytes",
          "name": "data",
          "type": "bytes"
        }
      ],
      "name": "onERC721Received",
      "outputs": [
        {
          "internalType": "bytes4",
          "name": "",
          "type": "bytes4"
        }
      ],
      "stateMutability": "pure",
      "type": "function",
      "constant": true
    },
    {
      "inputs": [
        {
          "internalType": "uint256",
          "name": "nftID",
          "type": "uint256"
        }
      ],
      "name": "exchangeToOcat",
      "outputs": [],
      "stateMutability": "nonpayable",
      "type": "function"
    },
    {
      "inputs": [
        {
          "internalType": "uint256",
          "name": "nftID",
          "type": "uint256"
        }
      ],
      "name": "exchangeFromOcat",
      "outputs": [],
      "stateMutability": "nonpayable",
      "type": "function"
    },
    {
      "inputs": [
        {
          "internalType": "address[2]",
          "name": "tokens",
          "type": "address[2]"
        },
        {
          "internalType": "uint256[2]",
          "name": "amounts",
          "type": "uint256[2]"
        }
      ],
      "name": "addLiquidity",
      "outputs": [],
      "stateMutability": "nonpayable",
      "type": "function"
    }
  ],
  "bytecode": "0x608060405234801561001057600080fd5b5033600360006101000a81548173ffffffffffffffffffffffffffffffffffffffff021916908373ffffffffffffffffffffffffffffffffffffffff160217905550737a250d5630b4cf539739df2c5dacb4c659f2488d6000806101000a81548173ffffffffffffffffffffffffffffffffffffffff021916908373ffffffffffffffffffffffffffffffffffffffff1602179055506157c680620000b66000396000f3fe6080604052600436106100a05760003560e01c80638287435f116100645780638287435f1461018f5780638b92f59d146101b8578063b18d30a2146101e1578063ca5342111461020a578063f3b8fd5514610226578063fafbed4d14610263576100a7565b806313ad82da146100ac578063150b7a02146100d557806315f03d2214610112578063378321eb1461013b578063735de9f714610164576100a7565b366100a757005b600080fd5b3480156100b857600080fd5b506100d360048036038101906100ce91906145f3565b61028c565b005b3480156100e157600080fd5b506100fc60048036038101906100f79190614368565b6106a2565b6040516101099190614b60565b60405180910390f35b34801561011e57600080fd5b506101396004803603810190610134919061433f565b6106b7565b005b34801561014757600080fd5b50610162600480360381019061015d91906145f3565b6107fb565b005b34801561017057600080fd5b50610179610b8f565b6040516101869190614b7b565b60405180910390f35b34801561019b57600080fd5b506101b660048036038101906101b1919061454d565b610bb3565b005b3480156101c457600080fd5b506101df60048036038101906101da91906144ea565b6123a8565b005b3480156101ed57600080fd5b506102086004803603810190610203919061433f565b61285e565b005b610224600480360381019061021f919061449b565b6129a2565b005b34801561023257600080fd5b5061024d600480360381019061024891906143e8565b612c5b565b60405161025a9190614e79565b60405180910390f35b34801561026f57600080fd5b5061028a60048036038101906102859190614424565b612ca3565b005b3073ffffffffffffffffffffffffffffffffffffffff163373ffffffffffffffffffffffffffffffffffffffff1614156102fb576040517f08c379a00000000000000000000000000000000000000000000000000000000081526004016102f290614bb8565b60405180910390fd5b600073ffffffffffffffffffffffffffffffffffffffff163373ffffffffffffffffffffffffffffffffffffffff16141561036b576040517f08c379a000000000000000000000000000000000000000000000000000000000815260040161036290614c38565b60405180910390fd5b600081116103ae576040517f08c379a00000000000000000000000000000000000000000000000000000000081526004016103a590614c58565b60405180910390fd5b6000600260009054906101000a900473ffffffffffffffffffffffffffffffffffffffff1673ffffffffffffffffffffffffffffffffffffffff166370a08231306040518263ffffffff1660e01b815260040161040b9190614abc565b60206040518083038186803b15801561042357600080fd5b505afa158015610437573d6000803e3d6000fd5b505050506040513d601f19601f8201168201806040525081019061045b919061461c565b90506000600160009054906101000a900473ffffffffffffffffffffffffffffffffffffffff1673ffffffffffffffffffffffffffffffffffffffff1663717947b1846040518263ffffffff1660e01b81526004016104ba9190614db8565b60006040518083038186803b1580156104d257600080fd5b505afa1580156104e6573d6000803e3d6000fd5b505050506040513d6000823e3d601f19601f8201168201806040525081019061050f9190614645565b505096505050505050508082101561055c576040517f08c379a000000000000000000000000000000000000000000000000000000000815260040161055390614d58565b60405180910390fd5b600160009054906101000a900473ffffffffffffffffffffffffffffffffffffffff1673ffffffffffffffffffffffffffffffffffffffff166342842e0e3330866040518463ffffffff1660e01b81526004016105bb93929190614b00565b600060405180830381600087803b1580156105d557600080fd5b505af11580156105e9573d6000803e3d6000fd5b50505050600260009054906101000a900473ffffffffffffffffffffffffffffffffffffffff1673ffffffffffffffffffffffffffffffffffffffff1663a9059cbb33836040518363ffffffff1660e01b815260040161064a929190614b37565b602060405180830381600087803b15801561066457600080fd5b505af1158015610678573d6000803e3d6000fd5b505050506040513d601f19601f8201168201806040525081019061069c91906145ca565b50505050565b600063150b7a0260e01b905095945050505050565b3373ffffffffffffffffffffffffffffffffffffffff16600360009054906101000a900473ffffffffffffffffffffffffffffffffffffffff1673ffffffffffffffffffffffffffffffffffffffff1614610747576040517f08c379a000000000000000000000000000000000000000000000000000000000815260040161073e90614bf8565b60405180910390fd5b600073ffffffffffffffffffffffffffffffffffffffff168173ffffffffffffffffffffffffffffffffffffffff1614156107b7576040517f08c379a00000000000000000000000000000000000000000000000000000000081526004016107ae90614c98565b60405180910390fd5b80600160006101000a81548173ffffffffffffffffffffffffffffffffffffffff021916908373ffffffffffffffffffffffffffffffffffffffff16021790555050565b3073ffffffffffffffffffffffffffffffffffffffff163373ffffffffffffffffffffffffffffffffffffffff16141561086a576040517f08c379a000000000000000000000000000000000000000000000000000000000815260040161086190614bb8565b60405180910390fd5b600073ffffffffffffffffffffffffffffffffffffffff163373ffffffffffffffffffffffffffffffffffffffff1614156108da576040517f08c379a00000000000000000000000000000000000000000000000000000000081526004016108d190614c38565b60405180910390fd5b6000811161091d576040517f08c379a000000000000000000000000000000000000000000000000000000000815260040161091490614c58565b60405180910390fd5b6000600260009054906101000a900473ffffffffffffffffffffffffffffffffffffffff1673ffffffffffffffffffffffffffffffffffffffff166370a08231336040518263ffffffff1660e01b815260040161097a9190614abc565b60206040518083038186803b15801561099257600080fd5b505afa1580156109a6573d6000803e3d6000fd5b505050506040513d601f19601f820116820180604052508101906109ca919061461c565b90506000600160009054906101000a900473ffffffffffffffffffffffffffffffffffffffff1673ffffffffffffffffffffffffffffffffffffffff1663717947b1846040518263ffffffff1660e01b8152600401610a299190614db8565b60006040518083038186803b158015610a4157600080fd5b505afa158015610a55573d6000803e3d6000fd5b505050506040513d6000823e3d601f19601f82011682018060405250810190610a7e9190614645565b5050965050505050505080821015610acb576040517f08c379a0000000000000000000000000000000000000000000000000000000008152600401610ac290614d18565b60405180910390fd5b610af9600260009054906101000a900473ffffffffffffffffffffffffffffffffffffffff163330846131c9565b600160009054906101000a900473ffffffffffffffffffffffffffffffffffffffff1673ffffffffffffffffffffffffffffffffffffffff166342842e0e3033866040518463ffffffff1660e01b8152600401610b5893929190614b00565b600060405180830381600087803b158015610b7257600080fd5b505af1158015610b86573d6000803e3d6000fd5b50505050505050565b60008054906101000a900473ffffffffffffffffffffffffffffffffffffffff1681565b600073ffffffffffffffffffffffffffffffffffffffff163373ffffffffffffffffffffffffffffffffffffffff161415610c23576040517f08c379a0000000000000000000000000000000000000000000000000000000008152600401610c1a90614cd8565b60405180910390fd5b600073ffffffffffffffffffffffffffffffffffffffff1682600060028110610c75577f4e487b7100000000000000000000000000000000000000000000000000000000600052603260045260246000fd5b602002015173ffffffffffffffffffffffffffffffffffffffff1614158015610d095750600073ffffffffffffffffffffffffffffffffffffffff1682600160028110610ceb577f4e487b7100000000000000000000000000000000000000000000000000000000600052603260045260246000fd5b602002015173ffffffffffffffffffffffffffffffffffffffff1614155b610d48576040517f08c379a0000000000000000000000000000000000000000000000000000000008152600401610d3f90614c18565b60405180910390fd5b81600160028110610d82577f4e487b7100000000000000000000000000000000000000000000000000000000600052603260045260246000fd5b602002015173ffffffffffffffffffffffffffffffffffffffff1682600060028110610dd7577f4e487b7100000000000000000000000000000000000000000000000000000000600052603260045260246000fd5b602002015173ffffffffffffffffffffffffffffffffffffffff161415610e33576040517f08c379a0000000000000000000000000000000000000000000000000000000008152600401610e2a90614bd8565b60405180910390fd5b600081600060028110610e6f577f4e487b7100000000000000000000000000000000000000000000000000000000600052603260045260246000fd5b6020020151118015610ebf5750600081600160028110610eb8577f4e487b7100000000000000000000000000000000000000000000000000000000600052603260045260246000fd5b6020020151115b610efe576040517f08c379a0000000000000000000000000000000000000000000000000000000008152600401610ef590614c78565b60405180910390fd5b3373ffffffffffffffffffffffffffffffffffffffff16600360009054906101000a900473ffffffffffffffffffffffffffffffffffffffff1673ffffffffffffffffffffffffffffffffffffffff1614610f5857600080fd5b600080600190506000610fe785600060028110610f9e577f4e487b7100000000000000000000000000000000000000000000000000000000600052603260045260246000fd5b602002015186600160028110610fdd577f4e487b7100000000000000000000000000000000000000000000000000000000600052603260045260246000fd5b6020020151613302565b809450819350829550505050826114555760006040518060400160405280600060ff168152602001600160ff16815250905084600160028110611053577f4e487b7100000000000000000000000000000000000000000000000000000000600052603260045260246000fd5b602002015185600060028110611092577f4e487b7100000000000000000000000000000000000000000000000000000000600052603260045260246000fd5b602002015110156110bd576040518060400160405280600160ff168152602001600060ff1681525090505b600460405180610100016040528088815260200187815260200187600160028110611111577f4e487b7100000000000000000000000000000000000000000000000000000000600052603260045260246000fd5b602002015188600060028110611150577f4e487b7100000000000000000000000000000000000000000000000000000000600052603260045260246000fd5b602002015161115f9190615054565b815260200160008152602001838152602001600081526020016103e888856001600281106111b6577f4e487b7100000000000000000000000000000000000000000000000000000000600052603260045260246000fd5b602002015160ff16600281106111f5577f4e487b7100000000000000000000000000000000000000000000000000000000600052603260045260246000fd5b60200201518986600060028110611235577f4e487b7100000000000000000000000000000000000000000000000000000000600052603260045260246000fd5b602002015160ff1660028110611274577f4e487b7100000000000000000000000000000000000000000000000000000000600052603260045260246000fd5b60200201516112839190615023565b61128d9190615054565b81526020016103e888856001600281106112d0577f4e487b7100000000000000000000000000000000000000000000000000000000600052603260045260246000fd5b602002015160ff166002811061130f577f4e487b7100000000000000000000000000000000000000000000000000000000600052603260045260246000fd5b6020020151898660006002811061134f577f4e487b7100000000000000000000000000000000000000000000000000000000600052603260045260246000fd5b602002015160ff166002811061138e577f4e487b7100000000000000000000000000000000000000000000000000000000600052603260045260246000fd5b602002015161139d9190615023565b6113a79190615054565b81525090806001815401808255809150506001900390600052602060002090600a02016000909190919091506000820151816000019060026113ea929190613eb3565b50602082015181600201906002611402929190613f30565b50604082015181600401556060820151816005015560808201518160060190600261142e929190613f70565b5060a0820151816007015560c0820151816008015560e08201518160090155505050611fa1565b816116cb57600085600060028110611496577f4e487b7100000000000000000000000000000000000000000000000000000000600052603260045260246000fd5b60200201519050856001600281106114d7577f4e487b7100000000000000000000000000000000000000000000000000000000600052603260045260246000fd5b602002015186600060028110611516577f4e487b7100000000000000000000000000000000000000000000000000000000600052603260045260246000fd5b602002019073ffffffffffffffffffffffffffffffffffffffff16908173ffffffffffffffffffffffffffffffffffffffff16815250508086600160028110611588577f4e487b7100000000000000000000000000000000000000000000000000000000600052603260045260246000fd5b602002019073ffffffffffffffffffffffffffffffffffffffff16908173ffffffffffffffffffffffffffffffffffffffff16815250506000856000600281106115fb577f4e487b7100000000000000000000000000000000000000000000000000000000600052603260045260246000fd5b602002015190508560016002811061163c577f4e487b7100000000000000000000000000000000000000000000000000000000600052603260045260246000fd5b60200201518660006002811061167b577f4e487b7100000000000000000000000000000000000000000000000000000000600052603260045260246000fd5b60200201818152505080866001600281106116bf577f4e487b7100000000000000000000000000000000000000000000000000000000600052603260045260246000fd5b60200201818152505050505b60006103e88560048460ff168154811061170e577f4e487b7100000000000000000000000000000000000000000000000000000000600052603260045260246000fd5b90600052602060002090600a0201600601600160028110611758577f4e487b7100000000000000000000000000000000000000000000000000000000600052603260045260246000fd5b602091828204019190069054906101000a900460ff1660ff16600281106117a8577f4e487b7100000000000000000000000000000000000000000000000000000000600052603260045260246000fd5b60200201518660048560ff16815481106117eb577f4e487b7100000000000000000000000000000000000000000000000000000000600052603260045260246000fd5b90600052602060002090600a0201600601600060028110611835577f4e487b7100000000000000000000000000000000000000000000000000000000600052603260045260246000fd5b602091828204019190069054906101000a900460ff1660ff1660028110611885577f4e487b7100000000000000000000000000000000000000000000000000000000600052603260045260246000fd5b60200201516118949190615023565b61189e9190615054565b905060006103e860048460ff16815481106118e2577f4e487b7100000000000000000000000000000000000000000000000000000000600052603260045260246000fd5b90600052602060002090600a020160080154836118ff9190615023565b6119099190615054565b90506103fc81118061191c57506103d481105b61195b576040517f08c379a000000000000000000000000000000000000000000000000000000000815260040161195290614cb8565b60405180910390fd5b600060048460ff168154811061199a577f4e487b7100000000000000000000000000000000000000000000000000000000600052603260045260246000fd5b90600052602060002090600a02016040518061010001604052908160008201600280602002604051908101604052809291908260028015611a26576020028201915b8160009054906101000a900473ffffffffffffffffffffffffffffffffffffffff1673ffffffffffffffffffffffffffffffffffffffff16815260200190600101908083116119dc575b5050505050815260200160028201600280602002604051908101604052809291908260028015611a6b576020028201915b815481526020019060010190808311611a57575b50505050508152602001600482015481526020016005820154815260200160068201600280602002604051908101604052809291908260028015611aea576020028201916000905b82829054906101000a900460ff1660ff1681526020019060010190602082600001049283019260010382029150808411611ab35790505b505050505081526020016007820154815260200160088201548152602001600982015481525050905086600060028110611b4d577f4e487b7100000000000000000000000000000000000000000000000000000000600052603260045260246000fd5b60200201518160200151600060028110611b90577f4e487b7100000000000000000000000000000000000000000000000000000000600052603260045260246000fd5b60200201818151611ba19190614fcd565b9150818152505086600160028110611be2577f4e487b7100000000000000000000000000000000000000000000000000000000600052603260045260246000fd5b60200201518160200151600160028110611c25577f4e487b7100000000000000000000000000000000000000000000000000000000600052603260045260246000fd5b60200201818151611c369190614fcd565b9150818152505080604001518160600181815250508060200151600160028110611c89577f4e487b7100000000000000000000000000000000000000000000000000000000600052603260045260246000fd5b60200201518160200151600060028110611ccc577f4e487b7100000000000000000000000000000000000000000000000000000000600052603260045260246000fd5b6020020151611cdb9190615054565b8160400181815250508060e001518160a00181815250506103e8816020015160048660ff1681548110611d37577f4e487b7100000000000000000000000000000000000000000000000000000000600052603260045260246000fd5b90600052602060002090600a0201600601600060028110611d81577f4e487b7100000000000000000000000000000000000000000000000000000000600052603260045260246000fd5b602091828204019190069054906101000a900460ff1660ff1660028110611dd1577f4e487b7100000000000000000000000000000000000000000000000000000000600052603260045260246000fd5b6020020151826020015160048760ff1681548110611e18577f4e487b7100000000000000000000000000000000000000000000000000000000600052603260045260246000fd5b90600052602060002090600a0201600601600060028110611e62577f4e487b7100000000000000000000000000000000000000000000000000000000600052603260045260246000fd5b602091828204019190069054906101000a900460ff1660ff1660028110611eb2577f4e487b7100000000000000000000000000000000000000000000000000000000600052603260045260246000fd5b6020020151611ec19190615023565b611ecb9190615054565b8160e00181815250508060048560ff1681548110611f12577f4e487b7100000000000000000000000000000000000000000000000000000000600052603260045260246000fd5b90600052602060002090600a0201600082015181600001906002611f37929190613eb3565b50602082015181600201906002611f4f929190613f30565b506040820151816004015560608201518160050155608082015181600601906002611f7b929190613f70565b5060a0820151816007015560c0820151816008015560e082015181600901559050505050505b6000925060005b600560003373ffffffffffffffffffffffffffffffffffffffff1673ffffffffffffffffffffffffffffffffffffffff168152602001908152602001600020805490508110156122df57600560003373ffffffffffffffffffffffffffffffffffffffff1673ffffffffffffffffffffffffffffffffffffffff1681526020019081526020016000208181548110612069577f4e487b7100000000000000000000000000000000000000000000000000000000600052603260045260246000fd5b906000526020600020906003020160000160009054906101000a900460ff1660ff168260ff1614156122cc57846000600281106120cf577f4e487b7100000000000000000000000000000000000000000000000000000000600052603260045260246000fd5b6020020151600560003373ffffffffffffffffffffffffffffffffffffffff1673ffffffffffffffffffffffffffffffffffffffff168152602001908152602001600020828154811061214b577f4e487b7100000000000000000000000000000000000000000000000000000000600052603260045260246000fd5b9060005260206000209060030201600101600060028110612195577f4e487b7100000000000000000000000000000000000000000000000000000000600052603260045260246000fd5b0160008282546121a59190614fcd565b92505081905550846001600281106121e6577f4e487b7100000000000000000000000000000000000000000000000000000000600052603260045260246000fd5b6020020151600560003373ffffffffffffffffffffffffffffffffffffffff1673ffffffffffffffffffffffffffffffffffffffff1681526020019081526020016000208281548110612262577f4e487b7100000000000000000000000000000000000000000000000000000000600052603260045260246000fd5b90600052602060002090600302016001016001600281106122ac577f4e487b7100000000000000000000000000000000000000000000000000000000600052603260045260246000fd5b0160008282546122bc9190614fcd565b92505081905550600193506122df565b80806122d7906151fd565b915050611fa8565b50826123a157600560003373ffffffffffffffffffffffffffffffffffffffff1673ffffffffffffffffffffffffffffffffffffffff16815260200190815260200160002060405180604001604052808360ff16815260200186815250908060018154018082558091505060019003906000526020600020906003020160009091909190915060008201518160000160006101000a81548160ff021916908360ff16021790555060208201518160010190600261239d929190613f30565b5050505b5050505050565b600084905060008173ffffffffffffffffffffffffffffffffffffffff1663dd62ed3e33306040518363ffffffff1660e01b81526004016123ea929190614ad7565b60206040518083038186803b15801561240257600080fd5b505afa158015612416573d6000803e3d6000fd5b505050506040513d601f19601f8201168201806040525081019061243a919061461c565b90506000612447826137a5565b905061246b60405180606001604052806035815260200161575c6035913982613952565b90508582101581906124b3576040517f08c379a00000000000000000000000000000000000000000000000000000000081526004016124aa9190614b96565b60405180910390fd5b506124c0873330896131c9565b8273ffffffffffffffffffffffffffffffffffffffff1663095ea7b3737a250d5630b4cf539739df2c5dacb4c659f2488d886040518363ffffffff1660e01b815260040161250f929190614b37565b602060405180830381600087803b15801561252957600080fd5b505af115801561253d573d6000803e3d6000fd5b505050506040513d601f19601f8201168201806040525081019061256191906145ca565b6125a0576040517f08c379a000000000000000000000000000000000000000000000000000000000815260040161259790614d38565b60405180910390fd5b6000600267ffffffffffffffff8111156125e3577f4e487b7100000000000000000000000000000000000000000000000000000000600052604160045260246000fd5b6040519080825280602002602001820160405280156126115781602001602082028036833780820191505090505b509050878160008151811061264f577f4e487b7100000000000000000000000000000000000000000000000000000000600052603260045260246000fd5b602002602001019073ffffffffffffffffffffffffffffffffffffffff16908173ffffffffffffffffffffffffffffffffffffffff168152505060008054906101000a900473ffffffffffffffffffffffffffffffffffffffff1673ffffffffffffffffffffffffffffffffffffffff1663ad5c46486040518163ffffffff1660e01b815260040160206040518083038186803b1580156126ef57600080fd5b505afa158015612703573d6000803e3d6000fd5b505050506040513d601f19601f820116820180604052508101906127279190614316565b81600181518110612761577f4e487b7100000000000000000000000000000000000000000000000000000000600052603260045260246000fd5b602002602001019073ffffffffffffffffffffffffffffffffffffffff16908173ffffffffffffffffffffffffffffffffffffffff168152505060008054906101000a900473ffffffffffffffffffffffffffffffffffffffff1673ffffffffffffffffffffffffffffffffffffffff166318cbafe5888884338a6040518663ffffffff1660e01b81526004016127fc959493929190614e1f565b600060405180830381600087803b15801561281657600080fd5b505af115801561282a573d6000803e3d6000fd5b505050506040513d6000823e3d601f19601f820116820180604052508101906128539190614589565b505050505050505050565b3373ffffffffffffffffffffffffffffffffffffffff16600360009054906101000a900473ffffffffffffffffffffffffffffffffffffffff1673ffffffffffffffffffffffffffffffffffffffff16146128ee576040517f08c379a00000000000000000000000000000000000000000000000000000000081526004016128e590614d78565b60405180910390fd5b600073ffffffffffffffffffffffffffffffffffffffff168173ffffffffffffffffffffffffffffffffffffffff16141561295e576040517f08c379a000000000000000000000000000000000000000000000000000000000815260040161295590614cf8565b60405180910390fd5b80600260006101000a81548173ffffffffffffffffffffffffffffffffffffffff021916908373ffffffffffffffffffffffffffffffffffffffff16021790555050565b6000600267ffffffffffffffff8111156129e5577f4e487b7100000000000000000000000000000000000000000000000000000000600052604160045260246000fd5b604051908082528060200260200182016040528015612a135781602001602082028036833780820191505090505b50905060008054906101000a900473ffffffffffffffffffffffffffffffffffffffff1673ffffffffffffffffffffffffffffffffffffffff1663ad5c46486040518163ffffffff1660e01b815260040160206040518083038186803b158015612a7c57600080fd5b505afa158015612a90573d6000803e3d6000fd5b505050506040513d601f19601f82011682018060405250810190612ab49190614316565b81600081518110612aee577f4e487b7100000000000000000000000000000000000000000000000000000000600052603260045260246000fd5b602002602001019073ffffffffffffffffffffffffffffffffffffffff16908173ffffffffffffffffffffffffffffffffffffffff16815250508381600181518110612b63577f4e487b7100000000000000000000000000000000000000000000000000000000600052603260045260246000fd5b602002602001019073ffffffffffffffffffffffffffffffffffffffff16908173ffffffffffffffffffffffffffffffffffffffff168152505060008054906101000a900473ffffffffffffffffffffffffffffffffffffffff1673ffffffffffffffffffffffffffffffffffffffff16637ff36ab534858433876040518663ffffffff1660e01b8152600401612bfd9493929190614dd3565b6000604051808303818588803b158015612c1657600080fd5b505af1158015612c2a573d6000803e3d6000fd5b50505050506040513d6000823e3d601f19601f82011682018060405250810190612c549190614589565b5050505050565b60056020528160005260406000208181548110612c7757600080fd5b9060005260206000209060030201600091509150508060000160009054906101000a900460ff16905081565b60008573ffffffffffffffffffffffffffffffffffffffff1663dd62ed3e33306040518363ffffffff1660e01b8152600401612ce0929190614ad7565b60206040518083038186803b158015612cf857600080fd5b505afa158015612d0c573d6000803e3d6000fd5b505050506040513d601f19601f82011682018060405250810190612d30919061461c565b90506000612d3d826137a5565b9050612d6160405180606001604052806035815260200161575c6035913982613952565b9050858210158190612da9576040517f08c379a0000000000000000000000000000000000000000000000000000000008152600401612da09190614b96565b60405180910390fd5b50612db6873330896131c9565b8673ffffffffffffffffffffffffffffffffffffffff1663095ea7b3737a250d5630b4cf539739df2c5dacb4c659f2488d886040518363ffffffff1660e01b8152600401612e05929190614b37565b602060405180830381600087803b158015612e1f57600080fd5b505af1158015612e33573d6000803e3d6000fd5b505050506040513d601f19601f82011682018060405250810190612e5791906145ca565b612e96576040517f08c379a0000000000000000000000000000000000000000000000000000000008152600401612e8d90614d38565b60405180910390fd5b6000600367ffffffffffffffff811115612ed9577f4e487b7100000000000000000000000000000000000000000000000000000000600052604160045260246000fd5b604051908082528060200260200182016040528015612f075781602001602082028036833780820191505090505b5090508781600081518110612f45577f4e487b7100000000000000000000000000000000000000000000000000000000600052603260045260246000fd5b602002602001019073ffffffffffffffffffffffffffffffffffffffff16908173ffffffffffffffffffffffffffffffffffffffff168152505060008054906101000a900473ffffffffffffffffffffffffffffffffffffffff1673ffffffffffffffffffffffffffffffffffffffff1663ad5c46486040518163ffffffff1660e01b815260040160206040518083038186803b158015612fe557600080fd5b505afa158015612ff9573d6000803e3d6000fd5b505050506040513d601f19601f8201168201806040525081019061301d9190614316565b81600181518110613057577f4e487b7100000000000000000000000000000000000000000000000000000000600052603260045260246000fd5b602002602001019073ffffffffffffffffffffffffffffffffffffffff16908173ffffffffffffffffffffffffffffffffffffffff168152505085816002815181106130cc577f4e487b7100000000000000000000000000000000000000000000000000000000600052603260045260246000fd5b602002602001019073ffffffffffffffffffffffffffffffffffffffff16908173ffffffffffffffffffffffffffffffffffffffff168152505060008054906101000a900473ffffffffffffffffffffffffffffffffffffffff1673ffffffffffffffffffffffffffffffffffffffff166338ed173988878433896040518663ffffffff1660e01b8152600401613167959493929190614e1f565b600060405180830381600087803b15801561318157600080fd5b505af1158015613195573d6000803e3d6000fd5b505050506040513d6000823e3d601f19601f820116820180604052508101906131be9190614589565b505050505050505050565b6000808573ffffffffffffffffffffffffffffffffffffffff166323b872dd8686866040516024016131fd93929190614b00565b6040516020818303038152906040529060e01b6020820180517bffffffffffffffffffffffffffffffffffffffffffffffffffffffff838183161783525050505060405161324b9190614aa5565b6000604051808303816000865af19150503d8060008114613288576040519150601f19603f3d011682016040523d82523d6000602084013e61328d565b606091505b50915091508180156132bb57506000815114806132ba5750808060200190518101906132b991906145ca565b5b5b6132fa576040517f08c379a00000000000000000000000000000000000000000000000000000000081526004016132f190614d98565b60405180910390fd5b505050505050565b6000806000809250600091506001905060005b6004805490508160ff16101561379d578573ffffffffffffffffffffffffffffffffffffffff1660048260ff1681548110613379577f4e487b7100000000000000000000000000000000000000000000000000000000600052603260045260246000fd5b90600052602060002090600a02016000016000600281106133c3577f4e487b7100000000000000000000000000000000000000000000000000000000600052603260045260246000fd5b0160009054906101000a900473ffffffffffffffffffffffffffffffffffffffff1673ffffffffffffffffffffffffffffffffffffffff161480156134db57508473ffffffffffffffffffffffffffffffffffffffff1660048260ff1681548110613457577f4e487b7100000000000000000000000000000000000000000000000000000000600052603260045260246000fd5b90600052602060002090600a02016000016001600281106134a1577f4e487b7100000000000000000000000000000000000000000000000000000000600052603260045260246000fd5b0160009054906101000a900473ffffffffffffffffffffffffffffffffffffffff1673ffffffffffffffffffffffffffffffffffffffff16145b8061369857508573ffffffffffffffffffffffffffffffffffffffff1660048260ff1681548110613535577f4e487b7100000000000000000000000000000000000000000000000000000000600052603260045260246000fd5b90600052602060002090600a020160000160016002811061357f577f4e487b7100000000000000000000000000000000000000000000000000000000600052603260045260246000fd5b0160009054906101000a900473ffffffffffffffffffffffffffffffffffffffff1673ffffffffffffffffffffffffffffffffffffffff1614801561369757508473ffffffffffffffffffffffffffffffffffffffff1660048260ff1681548110613613577f4e487b7100000000000000000000000000000000000000000000000000000000600052603260045260246000fd5b90600052602060002090600a020160000160006002811061365d577f4e487b7100000000000000000000000000000000000000000000000000000000600052603260045260246000fd5b0160009054906101000a900473ffffffffffffffffffffffffffffffffffffffff1673ffffffffffffffffffffffffffffffffffffffff16145b5b1561378a57600193508092508573ffffffffffffffffffffffffffffffffffffffff1660048260ff16815481106136f8577f4e487b7100000000000000000000000000000000000000000000000000000000600052603260045260246000fd5b90600052602060002090600a0201600001600160028110613742577f4e487b7100000000000000000000000000000000000000000000000000000000600052603260045260246000fd5b0160009054906101000a900473ffffffffffffffffffffffffffffffffffffffff1673ffffffffffffffffffffffffffffffffffffffff16141561378557600091505b61379d565b808061379590615246565b915050613315565b509250925092565b606060008214156137ed576040518060400160405280600181526020017f3000000000000000000000000000000000000000000000000000000000000000815250905061394d565b600082905060005b6000821461381f578080613808906151fd565b915050600a826138189190615023565b91506137f5565b60008167ffffffffffffffff811115613861577f4e487b7100000000000000000000000000000000000000000000000000000000600052604160045260246000fd5b6040519080825280601f01601f1916602001820160405280156138935781602001600182028036833780820191505090505b5090505b60008514613946576001826138ac91906150ae565b9150600a856138bb9190615270565b60306138c79190614fcd565b60f81b818381518110613903577f4e487b7100000000000000000000000000000000000000000000000000000000600052603260045260246000fd5b60200101907effffffffffffffffffffffffffffffffffffffffffffffffffffffffffffff1916908160001a905350600a8561393f9190615023565b9450613897565b8093505050505b919050565b606061398e8383604051806020016040528060008152506040518060200160405280600081525060405180602001604052806000815250613996565b905092915050565b6060600086905060008690506000869050600086905060008690506000815183518551875189516139c79190614fcd565b6139d19190614fcd565b6139db9190614fcd565b6139e59190614fcd565b67ffffffffffffffff811115613a24577f4e487b7100000000000000000000000000000000000000000000000000000000600052604160045260246000fd5b6040519080825280601f01601f191660200182016040528015613a565781602001600182028036833780820191505090505b5090506000819050600080600091505b8851821015613b3a57888281518110613aa8577f4e487b7100000000000000000000000000000000000000000000000000000000600052603260045260246000fd5b602001015160f81c60f81b838280613abf906151fd565b935081518110613af8577f4e487b7100000000000000000000000000000000000000000000000000000000600052603260045260246000fd5b60200101907effffffffffffffffffffffffffffffffffffffffffffffffffffffffffffff1916908160001a9053508180613b32906151fd565b925050613a66565b600091505b8751821015613c1357878281518110613b81577f4e487b7100000000000000000000000000000000000000000000000000000000600052603260045260246000fd5b602001015160f81c60f81b838280613b98906151fd565b935081518110613bd1577f4e487b7100000000000000000000000000000000000000000000000000000000600052603260045260246000fd5b60200101907effffffffffffffffffffffffffffffffffffffffffffffffffffffffffffff1916908160001a9053508180613c0b906151fd565b925050613b3f565b600091505b8651821015613cec57868281518110613c5a577f4e487b7100000000000000000000000000000000000000000000000000000000600052603260045260246000fd5b602001015160f81c60f81b838280613c71906151fd565b935081518110613caa577f4e487b7100000000000000000000000000000000000000000000000000000000600052603260045260246000fd5b60200101907effffffffffffffffffffffffffffffffffffffffffffffffffffffffffffff1916908160001a9053508180613ce4906151fd565b925050613c18565b600091505b8551821015613dc557858281518110613d33577f4e487b7100000000000000000000000000000000000000000000000000000000600052603260045260246000fd5b602001015160f81c60f81b838280613d4a906151fd565b935081518110613d83577f4e487b7100000000000000000000000000000000000000000000000000000000600052603260045260246000fd5b60200101907effffffffffffffffffffffffffffffffffffffffffffffffffffffffffffff1916908160001a9053508180613dbd906151fd565b925050613cf1565b600091505b8451821015613e9e57848281518110613e0c577f4e487b7100000000000000000000000000000000000000000000000000000000600052603260045260246000fd5b602001015160f81c60f81b838280613e23906151fd565b935081518110613e5c577f4e487b7100000000000000000000000000000000000000000000000000000000600052603260045260246000fd5b60200101907effffffffffffffffffffffffffffffffffffffffffffffffffffffffffffff1916908160001a9053508180613e96906151fd565b925050613dca565b82995050505050505050505095945050505050565b8260028101928215613f1f579160200282015b82811115613f1e5782518260006101000a81548173ffffffffffffffffffffffffffffffffffffffff021916908373ffffffffffffffffffffffffffffffffffffffff16021790555091602001919060010190613ec6565b5b509050613f2c919061400a565b5090565b8260028101928215613f5f579160200282015b82811115613f5e578251825591602001919060010190613f43565b5b509050613f6c919061400a565b5090565b826002601f01602090048101928215613ff95791602002820160005b83821115613fca57835183826101000a81548160ff021916908360ff1602179055509260200192600101602081600001049283019260010302613f8c565b8015613ff75782816101000a81549060ff0219169055600101602081600001049283019260010302613fca565b505b509050614006919061400a565b5090565b5b8082111561402357600081600090555060010161400b565b5090565b600061403a61403584614eb9565b614e94565b9050808285602086028201111561405057600080fd5b60005b8581101561408057816140668882614197565b845260208401935060208301925050600181019050614053565b5050509392505050565b600061409d61409884614edf565b614e94565b905080828560208602820111156140b357600080fd5b60005b858110156140e357816140c988826142ec565b8452602084019350602083019250506001810190506140b6565b5050509392505050565b60006141006140fb84614f05565b614e94565b9050808382526020820190508285602086028201111561411f57600080fd5b60005b8581101561414f57816141358882614301565b845260208401935060208301925050600181019050614122565b5050509392505050565b600061416c61416784614f31565b614e94565b90508281526020810184848401111561418457600080fd5b61418f848285615199565b509392505050565b6000813590506141a6816156ff565b92915050565b6000815190506141bb816156ff565b92915050565b6000813590506141d081615716565b92915050565b6000815190506141e581615716565b92915050565b600082601f8301126141fc57600080fd5b6002614209848285614027565b91505092915050565b600082601f83011261422357600080fd5b600261423084828561408a565b91505092915050565b600082601f83011261424a57600080fd5b815161425a8482602086016140ed565b91505092915050565b6000815190506142728161572d565b92915050565b60008083601f84011261428a57600080fd5b8235905067ffffffffffffffff8111156142a357600080fd5b6020830191508360018202830111156142bb57600080fd5b9250929050565b600082601f8301126142d357600080fd5b81516142e3848260208601614159565b91505092915050565b6000813590506142fb81615744565b92915050565b60008151905061431081615744565b92915050565b60006020828403121561432857600080fd5b6000614336848285016141ac565b91505092915050565b60006020828403121561435157600080fd5b600061435f848285016141c1565b91505092915050565b60008060008060006080868803121561438057600080fd5b600061438e888289016141c1565b955050602061439f888289016141c1565b94505060406143b0888289016142ec565b935050606086013567ffffffffffffffff8111156143cd57600080fd5b6143d988828901614278565b92509250509295509295909350565b600080604083850312156143fb57600080fd5b600061440985828601614197565b925050602061441a858286016142ec565b9150509250929050565b600080600080600060a0868803121561443c57600080fd5b600061444a88828901614197565b955050602061445b888289016142ec565b945050604061446c88828901614197565b935050606061447d888289016142ec565b925050608061448e888289016142ec565b9150509295509295909350565b6000806000606084860312156144b057600080fd5b60006144be86828701614197565b93505060206144cf868287016142ec565b92505060406144e0868287016142ec565b9150509250925092565b6000806000806080858703121561450057600080fd5b600061450e87828801614197565b945050602061451f878288016142ec565b9350506040614530878288016142ec565b9250506060614541878288016142ec565b91505092959194509250565b6000806080838503121561456057600080fd5b600061456e858286016141eb565b925050604061457f85828601614212565b9150509250929050565b60006020828403121561459b57600080fd5b600082015167ffffffffffffffff8111156145b557600080fd5b6145c184828501614239565b91505092915050565b6000602082840312156145dc57600080fd5b60006145ea84828501614263565b91505092915050565b60006020828403121561460557600080fd5b6000614613848285016142ec565b91505092915050565b60006020828403121561462e57600080fd5b600061463c84828501614301565b91505092915050565b60008060008060008060008060006101208a8c03121561466457600080fd5b60006146728c828d01614301565b99505060208a015167ffffffffffffffff81111561468f57600080fd5b61469b8c828d016142c2565b98505060408a015167ffffffffffffffff8111156146b857600080fd5b6146c48c828d016142c2565b97505060606146d58c828d016141d6565b96505060806146e68c828d016141d6565b95505060a06146f78c828d016141d6565b94505060c06147088c828d01614301565b93505060e06147198c828d01614301565b92505061010061472b8c828d01614263565b9150509295985092959850929598565b60006147478383614753565b60208301905092915050565b61475c816150e2565b82525050565b61476b816150e2565b82525050565b600061477c82614f72565b6147868185614fa0565b935061479183614f62565b8060005b838110156147c25781516147a9888261473b565b97506147b483614f93565b925050600181019050614795565b5085935050505092915050565b6147d881615112565b82525050565b60006147e982614f7d565b6147f38185614fb1565b9350614803818560208601615199565b80840191505092915050565b61481881615175565b82525050565b600061482982614f88565b6148338185614fbc565b9350614843818560208601615199565b61484c8161532e565b840191505092915050565b6000614864604083614fbc565b915061486f8261533f565b604082019050919050565b6000614887600b83614fbc565b91506148928261538e565b602082019050919050565b60006148aa603983614fbc565b91506148b5826153b7565b604082019050919050565b60006148cd600e83614fbc565b91506148d882615406565b602082019050919050565b60006148f0602083614fbc565b91506148fb8261542f565b602082019050919050565b6000614913602083614fbc565b915061491e82615458565b602082019050919050565b6000614936600f83614fbc565b915061494182615481565b602082019050919050565b6000614959602f83614fbc565b9150614964826154aa565b604082019050919050565b600061497c600d83614fbc565b9150614987826154f9565b602082019050919050565b600061499f600e83614fbc565b91506149aa82615522565b602082019050919050565b60006149c2602f83614fbc565b91506149cd8261554b565b604082019050919050565b60006149e5602b83614fbc565b91506149f08261559a565b604082019050919050565b6000614a08601e83614fbc565b9150614a13826155e9565b602082019050919050565b6000614a2b602c83614fbc565b9150614a3682615612565b604082019050919050565b6000614a4e603983614fbc565b9150614a5982615661565b604082019050919050565b6000614a71602483614fbc565b9150614a7c826156b0565b604082019050919050565b614a908161515e565b82525050565b614a9f81615168565b82525050565b6000614ab182846147de565b915081905092915050565b6000602082019050614ad16000830184614762565b92915050565b6000604082019050614aec6000830185614762565b614af96020830184614762565b9392505050565b6000606082019050614b156000830186614762565b614b226020830185614762565b614b2f6040830184614a87565b949350505050565b6000604082019050614b4c6000830185614762565b614b596020830184614a87565b9392505050565b6000602082019050614b7560008301846147cf565b92915050565b6000602082019050614b90600083018461480f565b92915050565b60006020820190508181036000830152614bb0818461481e565b905092915050565b60006020820190508181036000830152614bd181614857565b9050919050565b60006020820190508181036000830152614bf18161487a565b9050919050565b60006020820190508181036000830152614c118161489d565b9050919050565b60006020820190508181036000830152614c31816148c0565b9050919050565b60006020820190508181036000830152614c51816148e3565b9050919050565b60006020820190508181036000830152614c7181614906565b9050919050565b60006020820190508181036000830152614c9181614929565b9050919050565b60006020820190508181036000830152614cb18161494c565b9050919050565b60006020820190508181036000830152614cd18161496f565b9050919050565b60006020820190508181036000830152614cf181614992565b9050919050565b60006020820190508181036000830152614d11816149b5565b9050919050565b60006020820190508181036000830152614d31816149d8565b9050919050565b60006020820190508181036000830152614d51816149fb565b9050919050565b60006020820190508181036000830152614d7181614a1e565b9050919050565b60006020820190508181036000830152614d9181614a41565b9050919050565b60006020820190508181036000830152614db181614a64565b9050919050565b6000602082019050614dcd6000830184614a87565b92915050565b6000608082019050614de86000830187614a87565b8181036020830152614dfa8186614771565b9050614e096040830185614762565b614e166060830184614a87565b95945050505050565b600060a082019050614e346000830188614a87565b614e416020830187614a87565b8181036040830152614e538186614771565b9050614e626060830185614762565b614e6f6080830184614a87565b9695505050505050565b6000602082019050614e8e6000830184614a96565b92915050565b6000614e9e614eaf565b9050614eaa82826151cc565b919050565b6000604051905090565b600067ffffffffffffffff821115614ed457614ed36152ff565b5b602082029050919050565b600067ffffffffffffffff821115614efa57614ef96152ff565b5b602082029050919050565b600067ffffffffffffffff821115614f2057614f1f6152ff565b5b602082029050602081019050919050565b600067ffffffffffffffff821115614f4c57614f4b6152ff565b5b614f558261532e565b9050602081019050919050565b6000819050602082019050919050565b600081519050919050565b600081519050919050565b600081519050919050565b6000602082019050919050565b600082825260208201905092915050565b600081905092915050565b600082825260208201905092915050565b6000614fd88261515e565b9150614fe38361515e565b9250827fffffffffffffffffffffffffffffffffffffffffffffffffffffffffffffffff03821115615018576150176152a1565b5b828201905092915050565b600061502e8261515e565b91506150398361515e565b925082615049576150486152d0565b5b828204905092915050565b600061505f8261515e565b915061506a8361515e565b9250817fffffffffffffffffffffffffffffffffffffffffffffffffffffffffffffffff04831182151516156150a3576150a26152a1565b5b828202905092915050565b60006150b98261515e565b91506150c48361515e565b9250828210156150d7576150d66152a1565b5b828203905092915050565b60006150ed8261513e565b9050919050565b60006150ff8261513e565b9050919050565b60008115159050919050565b60007fffffffff0000000000000000000000000000000000000000000000000000000082169050919050565b600073ffffffffffffffffffffffffffffffffffffffff82169050919050565b6000819050919050565b600060ff82169050919050565b600061518082615187565b9050919050565b60006151928261513e565b9050919050565b60005b838110156151b757808201518184015260208101905061519c565b838111156151c6576000848401525b50505050565b6151d58261532e565b810181811067ffffffffffffffff821117156151f4576151f36152ff565b5b80604052505050565b60006152088261515e565b91507fffffffffffffffffffffffffffffffffffffffffffffffffffffffffffffffff82141561523b5761523a6152a1565b5b600182019050919050565b600061525182615168565b915060ff821415615265576152646152a1565b5b600182019050919050565b600061527b8261515e565b91506152868361515e565b925082615296576152956152d0565b5b828206905092915050565b7f4e487b7100000000000000000000000000000000000000000000000000000000600052601160045260246000fd5b7f4e487b7100000000000000000000000000000000000000000000000000000000600052601260045260246000fd5b7f4e487b7100000000000000000000000000000000000000000000000000000000600052604160045260246000fd5b6000601f19601f8301169050919050565b7f65786368616e6765546f4f63617428293a204572726f723a2043616c6c65722060008201527f636f756c646e27742062652073616d6520746f20746869732061646472657373602082015250565b7f53616d6520746f6b656e73000000000000000000000000000000000000000000600082015250565b7f4f637845786368616e67652e736574504e46544164647265737328293a20436160008201527f6c6c657220666f7220206d7573742062652063726561746f7200000000000000602082015250565b7f496e76616c696420746f6b656e73000000000000000000000000000000000000600082015250565b7f65786368616e6765546f4f63617428293a20496e76616c69642063616c6c6572600082015250565b7f65786368616e6765546f4f63617428293a20496e76616c6964204e4654204944600082015250565b7f496e76616c696420616d6f756e74730000000000000000000000000000000000600082015250565b7f4f637845786368616e67652e736574504e46544164647265737328293a20496e60008201527f76616c696420706172616d657465720000000000000000000000000000000000602082015250565b7f496e76616c69642071756f746500000000000000000000000000000000000000600082015250565b7f496e76616c69642073656e646572000000000000000000000000000000000000600082015250565b7f4f637845786368616e67652e7365744f6361744164647265737328293a20496e60008201527f76616c696420706172616d657465720000000000000000000000000000000000602082015250565b7f496e73756666696369656e742062616c616e6365206f66204f43415420696e2060008201527f746865206163636f756e74000000000000000000000000000000000000000000602082015250565b7f617070726f766520666f722074686520726f75746572206661696c65642e0000600082015250565b7f496e73756666696369656e742062616c616e6365206f66204f43415420696e2060008201527f74686520636f6e74726163740000000000000000000000000000000000000000602082015250565b7f4f637845786368616e67652e7365744f6361744164647265737328293a20436160008201527f6c6c657220666f7220206d7573742062652063726561746f7200000000000000602082015250565b7f5472616e7366657248656c7065723a205452414e534645525f46524f4d5f464160008201527f494c454400000000000000000000000000000000000000000000000000000000602082015250565b615708816150e2565b811461571357600080fd5b50565b61571f816150f4565b811461572a57600080fd5b50565b61573681615106565b811461574157600080fd5b50565b61574d8161515e565b811461575857600080fd5b5056fe4e6f7420656e6f75676820616c6c6f77616e636520666f722074686520455243323020746f6b656e2e20616c6c6f77616e63653a20a26469706673582212203beec26e257563c008ef3cb3ab103d93bcba499ed46e0c666d50ff35424d66f564736f6c63430008040033",
  "immutableReferences": {},
  "source": "// SPDX-License-Identifier: MIT\npragma solidity ^0.8.0;\n\n// https://soliditydeveloper.com/uniswap2\n// https://docs.uniswap.org/protocol/V2/guides/smart-contract-integration/trading-from-a-smart-contract\n// https://ethereum.org/ru/developers/tutorials/transfers-and-approval-of-erc-20-tokens-from-a-solidity-smart-contract/\n// https://solidity-by-example.org/app/erc20/\n\nimport \"@uniswap/v2-periphery/contracts/interfaces/IUniswapV2Router02.sol\";\nimport '@uniswap/lib/contracts/libraries/TransferHelper.sol';\nimport \"@openzeppelin/contracts/token/ERC20/IERC20.sol\"; // openzeppelin 4.5 (for solidity 0.8.x)\nimport \"@openzeppelin/contracts/utils/Strings.sol\";\nimport \"@openzeppelin/contracts/token/ERC721/IERC721.sol\";\nimport \"./PawnNFTs.sol\";\nimport \"./OcatToken.sol\";\n\ncontract OcxExchange {\n\n    address private constant UNISWAP_ROUTER_ADDRESS = 0x7a250d5630B4cF539739dF2C5dAcb4c659F2488D;\n\n    struct Pool {\n        address[2] tokens;\n        uint256[2] amounts;\n        uint256 k;\n        uint256 prevK;\n        uint8[2] quoteOrder;\n        uint256 prevQuote;\n        uint256 quoteOrig;\n        uint256 quote;\n    }\n    struct PoolShare {\n        uint8 poolIndex;\n        uint256[2] amounts;\n    }\n\n    IUniswapV2Router02 public uniswapRouter;\n    address payable private pnftAddress;\n    address payable private ocatAddress;\n    address payable private creator;\n\n    Pool[] poolList;\n    // mapping(address => PoolShare) public poolShare;\n    mapping(address => PoolShare[]) public poolShare;\n\n    receive() external payable {}\n\n    constructor() {\n        creator = payable(msg.sender);\n        uniswapRouter = IUniswapV2Router02(UNISWAP_ROUTER_ADDRESS);\n    }\n\n    function setPnftAddress(address payable _pnftAddress) public {\n        require(creator == msg.sender, \"OcxExchange.setPNFTAddress(): Caller for  must be creator\");\n        require(_pnftAddress != address(0), \"OcxExchange.setPNFTAddress(): Invalid parameter\");\n        pnftAddress = _pnftAddress;\n    }\n\n    function setOcatAddress(address payable _ocatAddress) public {\n        require(creator == msg.sender, \"OcxExchange.setOcatAddress(): Caller for  must be creator\");\n        require(_ocatAddress != address(0), \"OcxExchange.setOcatAddress(): Invalid parameter\");\n        ocatAddress = _ocatAddress;\n    }\n\n    function swapFromETH(\n        address _tokenOut,\n        uint _amountOutMin,\n        uint _deadline\n    ) public payable {\n        // uint deadline = block.timestamp + 15; // using 'now' for convenience, for mainnet pass deadline from frontend!\n        address[] memory path = new address[](2);\n        path[0] = uniswapRouter.WETH();\n        path[1] = address(_tokenOut);\n        uniswapRouter.swapExactETHForTokens{value: msg.value}(_amountOutMin, path, msg.sender, _deadline);\n    }\n\n    function swapToETH(\n        address _tokenIn,\n        uint _amountIn,\n        uint _amountOutMin,\n        uint _deadline\n    ) public {\n        // transferFrom\n        IERC20 sellTokenContract = IERC20(_tokenIn);\n        //     Check for allowance\n        uint256 allowance = sellTokenContract.allowance(msg.sender, address(this));\n        string memory errorText = Strings.toString(allowance);\n        errorText = strConcat(\"Not enough allowance for the ERC20 token. allowance: \", errorText);\n        require(allowance >= _amountIn, errorText);\n        //     Do transferFrom\n        TransferHelper.safeTransferFrom(_tokenIn, msg.sender, address(this), _amountIn);\n\n        // approve\n        require(sellTokenContract.approve(address(UNISWAP_ROUTER_ADDRESS), _amountIn), 'approve for the router failed.');\n\n        address[] memory path = new address[](2);\n        path[0] = address(_tokenIn);\n        path[1] = uniswapRouter.WETH();\n        uniswapRouter.swapExactTokensForETH(_amountIn, _amountOutMin, path, msg.sender, _deadline);\n    }\n\n    function swapForERC20(\n        address _tokenIn,\n        uint _amountIn,\n        address _tokenOut,\n        uint _amountOutMin,\n        uint _deadline\n    ) public {\n        // transferFrom\n        //    Check for allowance\n        uint256 allowance = IERC20(_tokenIn).allowance(msg.sender, address(this));\n        string memory errorText = Strings.toString(allowance);\n        errorText = strConcat(\"Not enough allowance for the ERC20 token. allowance: \", errorText);\n        require(allowance >= _amountIn, errorText);\n        //     Do transferFrom\n        TransferHelper.safeTransferFrom(_tokenIn, msg.sender, address(this), _amountIn);\n\n        // approve\n        require(\n            IERC20(_tokenIn).approve(address(UNISWAP_ROUTER_ADDRESS), _amountIn), \n            'approve for the router failed.'\n        );\n\n        address[] memory path = new address[](3);\n        path[0] = _tokenIn;\n        path[1] = uniswapRouter.WETH();\n        path[2] = _tokenOut;\n        uniswapRouter.swapExactTokensForTokens(_amountIn, _amountOutMin, path, msg.sender, _deadline);\n    }\n\n    function onERC721Received(\n        address payable operator,\n        address payable from,\n        uint256 tokenId,\n        bytes calldata data\n    ) external pure returns (bytes4) {\n        return this.onERC721Received.selector;\n    }\n\n    function exchangeToOcat(uint256 nftID) public {\n        require(msg.sender != address(this), \"exchangeToOcat(): Error: Caller couldn't be same to this address\");\n        require(msg.sender != address(0), \"exchangeToOcat(): Invalid caller\");\n        require(nftID > 0, \"exchangeToOcat(): Invalid NFT ID\");\n        uint256 ocatBalance = IERC20(ocatAddress).balanceOf(address(this));\n        // Get price for the NFT\n        (,,,,,,uint256 price,,) = PawnNFTs(payable(address(pnftAddress))).allPawnNFTs(nftID);\n        // uint256 price = nftItem.price;\n        require(ocatBalance >= price, \"Insufficient balance of OCAT in the contract\");\n        // safeTransferFrom: send NFT from caller to the address\n        IERC721(pnftAddress).safeTransferFrom(msg.sender, address(this), nftID);\n        // Pay OCAT for the NFT\n        IERC20(ocatAddress).transfer(msg.sender, price);\n        //   Then transfer OCATs from the address to caller\n        // TransferHelper.safeTransferFrom(ocatAddress, address(this), msg.sender, price);\n    }\n\n    function exchangeFromOcat(uint256 nftID) public {\n        require(msg.sender != address(this), \"exchangeToOcat(): Error: Caller couldn't be same to this address\");\n        require(msg.sender != address(0), \"exchangeToOcat(): Invalid caller\");\n        require(nftID > 0, \"exchangeToOcat(): Invalid NFT ID\");\n        uint256 ocatBalance = IERC20(ocatAddress).balanceOf(msg.sender);\n        // Get price for the NFT\n        (,,,,,,uint256 price,,) = PawnNFTs(payable(address(pnftAddress))).allPawnNFTs(nftID);\n        // uint256 price = nftItem.price;\n        require(ocatBalance >= price, \"Insufficient balance of OCAT in the account\");\n        // safeTransferFrom: send NFT from caller to the address\n        TransferHelper.safeTransferFrom(ocatAddress, msg.sender, address(this), price);\n        // Pay OCAT for the NFT\n        IERC721(pnftAddress).safeTransferFrom(address(this), msg.sender, nftID);\n        //   Then transfer OCATs from the address to caller\n        // TransferHelper.safeTransferFrom(ocatAddress, address(this), msg.sender, price);\n    }\n\n    function _getPoolIndex(\n        address token0,\n        address token1\n     ) internal view returns (bool bFound, uint8 poolIndex, bool isInTurn)  {\n        bFound = false;\n        poolIndex = 0;\n        isInTurn = true;\n        for (uint8 i = 0; i < poolList.length; i++) {\n            if ((poolList[i].tokens[0] == token0 && poolList[i].tokens[1] == token1) \n            || (poolList[i].tokens[1] == token0 && poolList[i].tokens[0] == token1)) {\n                bFound = true;\n                poolIndex = i;\n                if (poolList[i].tokens[1] == token0) {\n                    isInTurn = false;\n                }\n                break;\n            }\n        }\n    }\n\n    function addLiquidity(\n        address[2] memory tokens, \n        uint256[2] memory amounts\n//    ) public returns (uint256 amountA, uint256 amountB, uint liquidity) {\n    ) public {\n        require(msg.sender != address(0), \"Invalid sender\");\n        require(tokens[0] != address(0) && tokens[1] != address(0), \"Invalid tokens\");\n        require(tokens[0] != tokens[1], \"Same tokens\");\n        require(amounts[0] > 0 && amounts[1] > 0, \"Invalid amounts\");\n\n        // If the amount of OCAT is limited, then assert sender must be creator\n        // Otherwise OCAT can be issued with swapping from/to PNFT continuosly,\n        //   following assertion must be removed\n        require(creator == msg.sender);\n\n        // Get quote\n        // ...uint256((quote / poolList[poolIndex].quoteOrig) * 100)\n        // Transfer token A and B from msg.sender to this address\n\n        bool bExist = false;\n        bool isInTurn = true;\n        uint8 poolIndex = 0;\n\n        (bExist, poolIndex, isInTurn) = _getPoolIndex(tokens[0], tokens[1]);\n        if (!bExist) {\n            uint8[2] memory quoteOrder = [0, 1];\n            if (amounts[0] < amounts[1]) {\n                quoteOrder = [1, 0];\n            }\n            poolList.push(Pool(\n                {\n                    tokens: tokens,\n                    amounts: amounts, \n                    k: amounts[0] * amounts[1],\n                    prevK: 0,\n                    quoteOrder: quoteOrder,\n                    quoteOrig: uint256((amounts[quoteOrder[0]] / amounts[quoteOrder[1]]) * 1000),\n                    quote: uint256((amounts[quoteOrder[0]] / amounts[quoteOrder[1]]) * 1000),\n                    prevQuote: 0\n                })\n            );\n        } else {\n            // If order for token in parameter in against pool is revered, swap\n            if (!isInTurn) {\n                address tmpToken = tokens[0];\n                tokens[0] = tokens[1];\n                tokens[1] = tmpToken;\n                uint256 tmpAmount = amounts[0];\n                amounts[0] = amounts[1];\n                amounts[1] = tmpAmount;\n            }\n            // Check quote\n            uint256 quote = uint256(\n                (\n                    amounts[poolList[poolIndex].quoteOrder[0]] / \n                    amounts[poolList[poolIndex].quoteOrder[1]]\n                ) * 1000\n            );\n            uint256 orgQuote = uint256((quote / poolList[poolIndex].quoteOrig) * 1000);\n            require(orgQuote > 1020 || orgQuote < 980, \"Invalid quote\");\n            // Update pool\n            Pool memory pool = poolList[poolIndex];\n            pool.amounts[0] += amounts[0];\n            pool.amounts[1] += amounts[1];\n            pool.prevK = pool.k;\n            pool.k = pool.amounts[0] * pool.amounts[1];\n            pool.prevQuote = pool.quote;\n            pool.quote = uint256(\n                (\n                    pool.amounts[poolList[poolIndex].quoteOrder[0]] / \n                    pool.amounts[poolList[poolIndex].quoteOrder[0]]\n                ) * 1000\n            );\n            poolList[poolIndex] = pool;\n        }\n        // Update pool share\n        bExist = false;\n        for (uint i = 0; i < poolShare[msg.sender].length; i++) {\n            if (poolIndex == poolShare[msg.sender][i].poolIndex) {\n                poolShare[msg.sender][i].amounts[0] += amounts[0];\n                poolShare[msg.sender][i].amounts[1] += amounts[1];\n                bExist = true;\n                break;\n            }\n        }\n        if (!bExist) {\n            poolShare[msg.sender].push(PoolShare(poolIndex, amounts));\n        }\n\n        // Mint LP token to return\n        // ...\n        // amountA = amounts[0];\n        // amountB = amounts[1];\n    }\n\n    ////////////////////////////////////////////////////////////////////////////////////////\n    function strConcat(\n            string memory _a, \n            string memory _b, \n            string memory _c, \n            string memory _d, \n            string memory _e\n    ) internal view returns (string memory){\n        bytes memory _ba = bytes(_a);\n        bytes memory _bb = bytes(_b);\n        bytes memory _bc = bytes(_c);\n        bytes memory _bd = bytes(_d);\n        bytes memory _be = bytes(_e);\n        string memory abcde = new string(_ba.length + _bb.length + _bc.length + _bd.length + _be.length);\n        bytes memory babcde = bytes(abcde);\n\n        uint i = 0;\n        uint k = 0;\n\n        for (i = 0; i < _ba.length; i++) babcde[k++] = _ba[i];\n        for (i = 0; i < _bb.length; i++) babcde[k++] = _bb[i];\n        for (i = 0; i < _bc.length; i++) babcde[k++] = _bc[i];\n        for (i = 0; i < _bd.length; i++) babcde[k++] = _bd[i];\n        for (i = 0; i < _be.length; i++) babcde[k++] = _be[i];\n        return string(babcde);\n    }\n\n    function strConcat(\n            string memory _a, \n            string memory _b, \n            string memory _c, \n            string memory _d\n    ) internal view returns (string memory) {\n        return strConcat(_a, _b, _c, _d, \"\");\n    }\n\n    function strConcat(\n            string memory _a, \n            string memory _b, \n            string memory _c\n    ) internal view returns (string memory) {\n        return strConcat(_a, _b, _c, \"\", \"\");\n    }\n\n    function strConcat(\n            string memory _a, \n            string memory _b\n    ) internal view returns (string memory) {\n        return strConcat(_a, _b, \"\", \"\", \"\");\n    }\n}\n",
  "sourcePath": "/home/cowboy/OpenchainTestVersion/server/contracts/OcxExchange.sol",
  "compiler": {
    "name": "solc",
    "version": "0.8.4+commit.c7e474f2.Emscripten.clang"
  },
  "schemaVersion": "3.4.6",
  "updatedAt": "2022-03-29T07:16:05.119Z",
  "networkType": "ethereum",
  "devdoc": {
    "kind": "dev",
    "methods": {},
    "version": 1
  },
  "userdoc": {
    "kind": "user",
    "methods": {},
    "version": 1
  }
}