{
  "contractName": "OcxExchange",
  "abi": [
    {
      "inputs": [],
      "stateMutability": "nonpayable",
      "type": "constructor"
    },
    {
      "anonymous": false,
      "inputs": [
        {
          "indexed": false,
          "internalType": "uint256",
          "name": "",
          "type": "uint256"
        }
      ],
      "name": "estimatedOcxAmountForBurningOcat",
      "type": "event"
    },
    {
      "anonymous": false,
      "inputs": [
        {
          "indexed": false,
          "internalType": "uint256",
          "name": "",
          "type": "uint256"
        }
      ],
      "name": "expectedAmountOut",
      "type": "event"
    },
    {
      "inputs": [
        {
          "internalType": "address",
          "name": "_admin",
          "type": "address"
        }
      ],
      "name": "addAdmin",
      "outputs": [],
      "stateMutability": "nonpayable",
      "type": "function"
    },
    {
      "inputs": [
        {
          "internalType": "uint256",
          "name": "price",
          "type": "uint256"
        }
      ],
      "name": "convertToOcat",
      "outputs": [
        {
          "internalType": "uint256",
          "name": "_ocatPrice",
          "type": "uint256"
        }
      ],
      "stateMutability": "nonpayable",
      "type": "function"
    },
    {
      "inputs": [
        {
          "internalType": "address",
          "name": "_address",
          "type": "address"
        }
      ],
      "name": "isAdmin",
      "outputs": [
        {
          "internalType": "bool",
          "name": "yes",
          "type": "bool"
        }
      ],
      "stateMutability": "view",
      "type": "function",
      "constant": true
    },
    {
      "inputs": [],
      "name": "ocatPrice",
      "outputs": [
        {
          "internalType": "uint256",
          "name": "",
          "type": "uint256"
        }
      ],
      "stateMutability": "view",
      "type": "function",
      "constant": true
    },
    {
      "inputs": [],
      "name": "quoter",
      "outputs": [
        {
          "internalType": "contract IQuoter",
          "name": "",
          "type": "address"
        }
      ],
      "stateMutability": "view",
      "type": "function",
      "constant": true
    },
    {
      "inputs": [
        {
          "internalType": "enum CommonContracts",
          "name": "contractIndex",
          "type": "uint8"
        },
        {
          "internalType": "address payable",
          "name": "_address",
          "type": "address"
        }
      ],
      "name": "setAddress",
      "outputs": [],
      "stateMutability": "nonpayable",
      "type": "function"
    },
    {
      "inputs": [
        {
          "internalType": "uint256",
          "name": "price",
          "type": "uint256"
        }
      ],
      "name": "setOcatPrice",
      "outputs": [],
      "stateMutability": "nonpayable",
      "type": "function"
    },
    {
      "inputs": [],
      "name": "uniswapRouter",
      "outputs": [
        {
          "internalType": "contract ISwapRouter",
          "name": "",
          "type": "address"
        }
      ],
      "stateMutability": "view",
      "type": "function",
      "constant": true
    },
    {
      "stateMutability": "payable",
      "type": "receive",
      "payable": true
    },
    {
      "inputs": [
        {
          "internalType": "address",
          "name": "_tokenIn",
          "type": "address"
        },
        {
          "internalType": "uint256",
          "name": "_amountIn",
          "type": "uint256"
        },
        {
          "internalType": "address",
          "name": "_tokenOut",
          "type": "address"
        },
        {
          "internalType": "uint256",
          "name": "_amountOutMin",
          "type": "uint256"
        },
        {
          "internalType": "uint256",
          "name": "_deadline",
          "type": "uint256"
        }
      ],
      "name": "swap",
      "outputs": [
        {
          "internalType": "uint256",
          "name": "amountOut",
          "type": "uint256"
        }
      ],
      "stateMutability": "nonpayable",
      "type": "function"
    },
    {
      "inputs": [
        {
          "internalType": "uint256",
          "name": "amountIn",
          "type": "uint256"
        },
        {
          "internalType": "address[2]",
          "name": "path",
          "type": "address[2]"
        }
      ],
      "name": "getAmountsOut",
      "outputs": [
        {
          "internalType": "uint256",
          "name": "",
          "type": "uint256"
        }
      ],
      "stateMutability": "nonpayable",
      "type": "function"
    },
    {
      "inputs": [],
      "name": "mintOcat",
      "outputs": [],
      "stateMutability": "payable",
      "type": "function",
      "payable": true
    },
    {
      "inputs": [
        {
          "internalType": "uint256",
          "name": "amount",
          "type": "uint256"
        }
      ],
      "name": "mintOcx",
      "outputs": [],
      "stateMutability": "payable",
      "type": "function",
      "payable": true
    },
    {
      "inputs": [
        {
          "internalType": "string",
          "name": "left",
          "type": "string"
        },
        {
          "internalType": "string",
          "name": "right",
          "type": "string"
        },
        {
          "internalType": "uint256",
          "name": "newQuote",
          "type": "uint256"
        },
        {
          "internalType": "uint8",
          "name": "quoteDecimals",
          "type": "uint8"
        }
      ],
      "name": "setQuote",
      "outputs": [],
      "stateMutability": "nonpayable",
      "type": "function"
    },
    {
      "inputs": [
        {
          "internalType": "string",
          "name": "left",
          "type": "string"
        },
        {
          "internalType": "string",
          "name": "right",
          "type": "string"
        }
      ],
      "name": "getQuote",
      "outputs": [
        {
          "components": [
            {
              "internalType": "uint256",
              "name": "value",
              "type": "uint256"
            },
            {
              "internalType": "uint8",
              "name": "decimals",
              "type": "uint8"
            }
          ],
          "internalType": "struct OcxPrice",
          "name": "",
          "type": "tuple"
        }
      ],
      "stateMutability": "view",
      "type": "function",
      "constant": true
    }
  ],
  "bytecode": "0x60806040523480156200001157600080fd5b50336001806101000a81548173ffffffffffffffffffffffffffffffffffffffff021916908373ffffffffffffffffffffffffffffffffffffffff16021790555062000063336200007260201b60201c565b6103e86002819055506200047d565b600073ffffffffffffffffffffffffffffffffffffffff1660018054906101000a900473ffffffffffffffffffffffffffffffffffffffff1673ffffffffffffffffffffffffffffffffffffffff16141562000105576040517f08c379a0000000000000000000000000000000000000000000000000000000008152600401620000fc9062000333565b60405180910390fd5b60018054906101000a900473ffffffffffffffffffffffffffffffffffffffff1673ffffffffffffffffffffffffffffffffffffffff163373ffffffffffffffffffffffffffffffffffffffff161462000196576040517f08c379a00000000000000000000000000000000000000000000000000000000081526004016200018d9062000311565b60405180910390fd5b80600073ffffffffffffffffffffffffffffffffffffffff168173ffffffffffffffffffffffffffffffffffffffff1614156200020a576040517f08c379a0000000000000000000000000000000000000000000000000000000008152600401620002019062000355565b60405180910390fd5b60016000808473ffffffffffffffffffffffffffffffffffffffff1673ffffffffffffffffffffffffffffffffffffffff16815260200190815260200160002060006101000a81548160ff02191690831515021790555060018060009054906101000a900460ff166200027e919062000388565b600160006101000a81548160ff021916908360ff1602179055505050565b6000620002ab601e8362000377565b9150620002b88262000402565b602082019050919050565b6000620002d260178362000377565b9150620002df826200042b565b602082019050919050565b6000620002f960198362000377565b9150620003068262000454565b602082019050919050565b600060208201905081810360008301526200032c816200029c565b9050919050565b600060208201905081810360008301526200034e81620002c3565b9050919050565b600060208201905081810360008301526200037081620002ea565b9050919050565b600082825260208201905092915050565b60006200039582620003c6565b9150620003a283620003c6565b92508260ff03821115620003bb57620003ba620003d3565b5b828201905092915050565b600060ff82169050919050565b7f4e487b7100000000000000000000000000000000000000000000000000000000600052601160045260246000fd5b7f466f722063616c6c65722065787065637465642062652063726561746f720000600082015250565b7f496e76616c69642063726561746f722061646472657373000000000000000000600082015250565b7f4578706563746564206e6f6e2d7a65726f206164647265737300000000000000600082015250565b614ab5806200048d6000396000f3fe6080604052600436106100e15760003560e01c8063a7d9cfbc1161007f578063c6bbd5a711610059578063c6bbd5a71461029b578063dbcd9580146102c6578063ed66a38014610303578063f4c74c5114610340576100e8565b8063a7d9cfbc1461020a578063bb3f6c6a14610235578063bd5f68b01461025e576100e8565b80632b7387a4116100bb5780632b7387a41461016f5780635e75228f1461017957806370480275146101b6578063735de9f7146101df576100e8565b80630589c4e5146100ed5780631b73cae11461011657806324d7806c14610132576100e8565b366100e857005b600080fd5b3480156100f957600080fd5b50610114600480360381019061010f91906138c4565b610369565b005b610130600480360381019061012b91906139ff565b610821565b005b34801561013e57600080fd5b50610159600480360381019061015491906137fb565b610a2e565b6040516101669190613fb3565b60405180910390f35b610177610a83565b005b34801561018557600080fd5b506101a0600480360381019061019b9190613824565b610fa3565b6040516101ad919061419b565b60405180910390f35b3480156101c257600080fd5b506101dd60048036038101906101d891906137fb565b611fd2565b005b3480156101eb57600080fd5b506101f46121f1565b6040516102019190613fe9565b60405180910390f35b34801561021657600080fd5b5061021f612209565b60405161022c919061419b565b60405180910390f35b34801561024157600080fd5b5061025c600480360381019061025791906139ff565b61220f565b005b34801561026a57600080fd5b5061028560048036038101906102809190613a51565b612219565b604051610292919061419b565b60405180910390f35b3480156102a757600080fd5b506102b0612f03565b6040516102bd9190613fce565b60405180910390f35b3480156102d257600080fd5b506102ed60048036038101906102e891906139ff565b612f1b565b6040516102fa919061419b565b60405180910390f35b34801561030f57600080fd5b5061032a60048036038101906103259190613900565b613084565b6040516103379190614180565b60405180910390f35b34801561034c57600080fd5b506103676004803603810190610362919061396c565b613103565b005b600073ffffffffffffffffffffffffffffffffffffffff1660018054906101000a900473ffffffffffffffffffffffffffffffffffffffff1673ffffffffffffffffffffffffffffffffffffffff1614156103f9576040517f08c379a00000000000000000000000000000000000000000000000000000000081526004016103f090614064565b60405180910390fd5b60018054906101000a900473ffffffffffffffffffffffffffffffffffffffff1673ffffffffffffffffffffffffffffffffffffffff163373ffffffffffffffffffffffffffffffffffffffff1614610487576040517f08c379a000000000000000000000000000000000000000000000000000000000815260040161047e90614044565b60405180910390fd5b80600073ffffffffffffffffffffffffffffffffffffffff168173ffffffffffffffffffffffffffffffffffffffff1614156104f8576040517f08c379a00000000000000000000000000000000000000000000000000000000081526004016104ef906140c4565b60405180910390fd5b600073ffffffffffffffffffffffffffffffffffffffff163373ffffffffffffffffffffffffffffffffffffffff161415610568576040517f08c379a000000000000000000000000000000000000000000000000000000000815260040161055f90614064565b60405180910390fd5b6000803373ffffffffffffffffffffffffffffffffffffffff1673ffffffffffffffffffffffffffffffffffffffff16815260200190815260200160002060009054906101000a900460ff166105f3576040517f08c379a00000000000000000000000000000000000000000000000000000000081526004016105ea90614124565b60405180910390fd5b6000600981111561062d577f4e487b7100000000000000000000000000000000000000000000000000000000600052602160045260246000fd5b6009811115610665577f4e487b7100000000000000000000000000000000000000000000000000000000600052602160045260246000fd5b83600981111561069e577f4e487b7100000000000000000000000000000000000000000000000000000000600052602160045260246000fd5b1015801561071b57506009808111156106e0577f4e487b7100000000000000000000000000000000000000000000000000000000600052602160045260246000fd5b836009811115610719577f4e487b7100000000000000000000000000000000000000000000000000000000600052602160045260246000fd5b105b61075a576040517f08c379a000000000000000000000000000000000000000000000000000000000815260040161075190614004565b60405180910390fd5b8160036000856009811115610798577f4e487b7100000000000000000000000000000000000000000000000000000000600052602160045260246000fd5b60098111156107d0577f4e487b7100000000000000000000000000000000000000000000000000000000600052602160045260246000fd5b815260200190815260200160002060006101000a81548173ffffffffffffffffffffffffffffffffffffffff021916908373ffffffffffffffffffffffffffffffffffffffff160217905550505050565b600073ffffffffffffffffffffffffffffffffffffffff163373ffffffffffffffffffffffffffffffffffffffff161415610891576040517f08c379a000000000000000000000000000000000000000000000000000000000815260040161088890614064565b60405180910390fd5b6000803373ffffffffffffffffffffffffffffffffffffffff1673ffffffffffffffffffffffffffffffffffffffff16815260200190815260200160002060009054906101000a900460ff1661091c576040517f08c379a000000000000000000000000000000000000000000000000000000000815260040161091390614124565b60405180910390fd5b600360006002600981111561095a577f4e487b7100000000000000000000000000000000000000000000000000000000600052602160045260246000fd5b6009811115610992577f4e487b7100000000000000000000000000000000000000000000000000000000600052602160045260246000fd5b815260200190815260200160002060009054906101000a900473ffffffffffffffffffffffffffffffffffffffff1673ffffffffffffffffffffffffffffffffffffffff1663a0712d68826040518263ffffffff1660e01b81526004016109f9919061419b565b600060405180830381600087803b158015610a1357600080fd5b505af1158015610a27573d6000803e3d6000fd5b5050505050565b60008060008373ffffffffffffffffffffffffffffffffffffffff1673ffffffffffffffffffffffffffffffffffffffff16815260200190815260200160002060009054906101000a900460ff169050919050565b600073ffffffffffffffffffffffffffffffffffffffff163373ffffffffffffffffffffffffffffffffffffffff161415610af3576040517f08c379a0000000000000000000000000000000000000000000000000000000008152600401610aea90614064565b60405180910390fd5b6000803373ffffffffffffffffffffffffffffffffffffffff1673ffffffffffffffffffffffffffffffffffffffff16815260200190815260200160002060009054906101000a900460ff16610b7e576040517f08c379a0000000000000000000000000000000000000000000000000000000008152600401610b7590614124565b60405180910390fd5b6003600060066009811115610bbc577f4e487b7100000000000000000000000000000000000000000000000000000000600052602160045260246000fd5b6009811115610bf4577f4e487b7100000000000000000000000000000000000000000000000000000000600052602160045260246000fd5b815260200190815260200160002060009054906101000a900473ffffffffffffffffffffffffffffffffffffffff16600073ffffffffffffffffffffffffffffffffffffffff168173ffffffffffffffffffffffffffffffffffffffff161415610c93576040517f08c379a0000000000000000000000000000000000000000000000000000000008152600401610c8a906140c4565b60405180910390fd5b6003600060016009811115610cd1577f4e487b7100000000000000000000000000000000000000000000000000000000600052602160045260246000fd5b6009811115610d09577f4e487b7100000000000000000000000000000000000000000000000000000000600052602160045260246000fd5b815260200190815260200160002060009054906101000a900473ffffffffffffffffffffffffffffffffffffffff16600073ffffffffffffffffffffffffffffffffffffffff168173ffffffffffffffffffffffffffffffffffffffff161415610da8576040517f08c379a0000000000000000000000000000000000000000000000000000000008152600401610d9f906140c4565b60405180910390fd5b60006004604051610db890613ea7565b9081526020016040518091039020600001604051610dd590613e92565b9081526020016040518091039020604051806040016040529081600082015481526020016001820160009054906101000a900460ff1660ff1660ff1681525050905060006003600060016009811115610e57577f4e487b7100000000000000000000000000000000000000000000000000000000600052602160045260246000fd5b6009811115610e8f577f4e487b7100000000000000000000000000000000000000000000000000000000600052602160045260246000fd5b815260200190815260200160002060009054906101000a900473ffffffffffffffffffffffffffffffffffffffff1673ffffffffffffffffffffffffffffffffffffffff1663313ce5676040518163ffffffff1660e01b8152600401602060405180830381600087803b158015610f0557600080fd5b505af1158015610f19573d6000803e3d6000fd5b505050506040513d601f19601f82011682018060405250810190610f3d9190613a8d565b9050610f9d826020015160ff16670de0b6b3a7640000610f5d9190614543565b67ffffffffffffffff1682600a610f7491906143cb565b846000015134610f8491906144e9565b610f8e91906144e9565b610f9891906142fc565b6131a7565b50505050565b6000806004604051610fb490613ea7565b9081526020016040518091039020600001604051610fd190613e92565b908152602001604051809103902060010160009054906101000a900460ff1660ff1611611033576040517f08c379a000000000000000000000000000000000000000000000000000000000815260040161102a90614104565b60405180910390fd5b60036000806009811115611070577f4e487b7100000000000000000000000000000000000000000000000000000000600052602160045260246000fd5b60098111156110a8577f4e487b7100000000000000000000000000000000000000000000000000000000600052602160045260246000fd5b815260200190815260200160002060009054906101000a900473ffffffffffffffffffffffffffffffffffffffff1673ffffffffffffffffffffffffffffffffffffffff168673ffffffffffffffffffffffffffffffffffffffff16146112bd5760008673ffffffffffffffffffffffffffffffffffffffff1663dd62ed3e33306040518363ffffffff1660e01b8152600401611146929190613ed7565b60206040518083038186803b15801561115e57600080fd5b505afa158015611172573d6000803e3d6000fd5b505050506040513d601f19601f820116820180604052508101906111969190613a28565b9050858110156111db576040517f08c379a00000000000000000000000000000000000000000000000000000000081526004016111d290614084565b60405180910390fd5b8673ffffffffffffffffffffffffffffffffffffffff1663095ea7b373e592427a0aece92de3edee1f18e0157c05861564886040518363ffffffff1660e01b815260040161122a929190613f8a565b602060405180830381600087803b15801561124457600080fd5b505af1158015611258573d6000803e3d6000fd5b505050506040513d601f19601f8201168201806040525081019061127c919061389b565b6112bb576040517f08c379a00000000000000000000000000000000000000000000000000000000081526004016112b290614024565b60405180910390fd5b505b6112c98633308861350b565b6000339050600360006001600981111561130c577f4e487b7100000000000000000000000000000000000000000000000000000000600052602160045260246000fd5b6009811115611344577f4e487b7100000000000000000000000000000000000000000000000000000000600052602160045260246000fd5b815260200190815260200160002060009054906101000a900473ffffffffffffffffffffffffffffffffffffffff1673ffffffffffffffffffffffffffffffffffffffff168773ffffffffffffffffffffffffffffffffffffffff1614801561147c575060036000600460098111156113e6577f4e487b7100000000000000000000000000000000000000000000000000000000600052602160045260246000fd5b600981111561141e577f4e487b7100000000000000000000000000000000000000000000000000000000600052602160045260246000fd5b815260200190815260200160002060009054906101000a900473ffffffffffffffffffffffffffffffffffffffff1673ffffffffffffffffffffffffffffffffffffffff168573ffffffffffffffffffffffffffffffffffffffff16145b1561189857600060036000600260098111156114c1577f4e487b7100000000000000000000000000000000000000000000000000000000600052602160045260246000fd5b60098111156114f9577f4e487b7100000000000000000000000000000000000000000000000000000000600052602160045260246000fd5b815260200190815260200160002060009054906101000a900473ffffffffffffffffffffffffffffffffffffffff1673ffffffffffffffffffffffffffffffffffffffff166370a08231306040518263ffffffff1660e01b81526004016115609190613ebc565b60206040518083038186803b15801561157857600080fd5b505afa15801561158c573d6000803e3d6000fd5b505050506040513d601f19601f820116820180604052508101906115b09190613a28565b9050600060046040516115c290613ea7565b90815260200160405180910390206000016040516115df90613e92565b908152602001604051809103902060010160009054906101000a900460ff16600a61160a91906143cb565b600460405161161890613ea7565b908152602001604051809103902060000160405161163590613e92565b9081526020016040518091039020600001548961165291906144e9565b61165c91906142fc565b9050808210156116a1576040517f08c379a0000000000000000000000000000000000000000000000000000000008152600401611698906140e4565b60405180910390fd5b60036000600260098111156116df577f4e487b7100000000000000000000000000000000000000000000000000000000600052602160045260246000fd5b6009811115611717577f4e487b7100000000000000000000000000000000000000000000000000000000600052602160045260246000fd5b815260200190815260200160002060009054906101000a900473ffffffffffffffffffffffffffffffffffffffff1673ffffffffffffffffffffffffffffffffffffffff1663095ea7b373e592427a0aece92de3edee1f18e0157c05861564836040518363ffffffff1660e01b8152600401611794929190613f8a565b602060405180830381600087803b1580156117ae57600080fd5b505af11580156117c2573d6000803e3d6000fd5b505050506040513d601f19601f820116820180604052508101906117e6919061389b565b506003600060026009811115611825577f4e487b7100000000000000000000000000000000000000000000000000000000600052602160045260246000fd5b600981111561185d577f4e487b7100000000000000000000000000000000000000000000000000000000600052602160045260246000fd5b815260200190815260200160002060009054906101000a900473ffffffffffffffffffffffffffffffffffffffff1698508097505050611af7565b60036000600460098111156118d6577f4e487b7100000000000000000000000000000000000000000000000000000000600052602160045260246000fd5b600981111561190e577f4e487b7100000000000000000000000000000000000000000000000000000000600052602160045260246000fd5b815260200190815260200160002060009054906101000a900473ffffffffffffffffffffffffffffffffffffffff1673ffffffffffffffffffffffffffffffffffffffff168773ffffffffffffffffffffffffffffffffffffffff16148015611a46575060036000600160098111156119b0577f4e487b7100000000000000000000000000000000000000000000000000000000600052602160045260246000fd5b60098111156119e8577f4e487b7100000000000000000000000000000000000000000000000000000000600052602160045260246000fd5b815260200190815260200160002060009054906101000a900473ffffffffffffffffffffffffffffffffffffffff1673ffffffffffffffffffffffffffffffffffffffff168573ffffffffffffffffffffffffffffffffffffffff16145b15611af6576003600060026009811115611a89577f4e487b7100000000000000000000000000000000000000000000000000000000600052602160045260246000fd5b6009811115611ac1577f4e487b7100000000000000000000000000000000000000000000000000000000600052602160045260246000fd5b815260200190815260200160002060009054906101000a900473ffffffffffffffffffffffffffffffffffffffff1694503090505b5b60006040518061010001604052808973ffffffffffffffffffffffffffffffffffffffff1681526020018773ffffffffffffffffffffffffffffffffffffffff168152602001610bb862ffffff1681526020018373ffffffffffffffffffffffffffffffffffffffff1681526020018542611b72919061426f565b8152602001888152602001868152602001600073ffffffffffffffffffffffffffffffffffffffff16815250905073e592427a0aece92de3edee1f18e0157c0586156473ffffffffffffffffffffffffffffffffffffffff1663414bf389826040518263ffffffff1660e01b8152600401611bed9190614164565b602060405180830381600087803b158015611c0757600080fd5b505af1158015611c1b573d6000803e3d6000fd5b505050506040513d601f19601f82011682018060405250810190611c3f9190613a28565b92506003600060046009811115611c7f577f4e487b7100000000000000000000000000000000000000000000000000000000600052602160045260246000fd5b6009811115611cb7577f4e487b7100000000000000000000000000000000000000000000000000000000600052602160045260246000fd5b815260200190815260200160002060009054906101000a900473ffffffffffffffffffffffffffffffffffffffff1673ffffffffffffffffffffffffffffffffffffffff168873ffffffffffffffffffffffffffffffffffffffff16148015611def57506003600060016009811115611d59577f4e487b7100000000000000000000000000000000000000000000000000000000600052602160045260246000fd5b6009811115611d91577f4e487b7100000000000000000000000000000000000000000000000000000000600052602160045260246000fd5b815260200190815260200160002060009054906101000a900473ffffffffffffffffffffffffffffffffffffffff1673ffffffffffffffffffffffffffffffffffffffff168673ffffffffffffffffffffffffffffffffffffffff16145b15611fc75760006004604051611e0490613ea7565b9081526020016040518091039020600001604051611e2190613e92565b9081526020016040518091039020600001546004604051611e4190613ea7565b9081526020016040518091039020600001604051611e5e90613e92565b908152602001604051809103902060000154600a611e7c9190614380565b85611e8791906144e9565b611e9191906142fc565b90506003600060016009811115611ed1577f4e487b7100000000000000000000000000000000000000000000000000000000600052602160045260246000fd5b6009811115611f09577f4e487b7100000000000000000000000000000000000000000000000000000000600052602160045260246000fd5b815260200190815260200160002060009054906101000a900473ffffffffffffffffffffffffffffffffffffffff1673ffffffffffffffffffffffffffffffffffffffff1663a9059cbb33836040518363ffffffff1660e01b8152600401611f72929190613f8a565b602060405180830381600087803b158015611f8c57600080fd5b505af1158015611fa0573d6000803e3d6000fd5b505050506040513d601f19601f82011682018060405250810190611fc4919061389b565b50505b505095945050505050565b600073ffffffffffffffffffffffffffffffffffffffff1660018054906101000a900473ffffffffffffffffffffffffffffffffffffffff1673ffffffffffffffffffffffffffffffffffffffff161415612062576040517f08c379a000000000000000000000000000000000000000000000000000000000815260040161205990614064565b60405180910390fd5b60018054906101000a900473ffffffffffffffffffffffffffffffffffffffff1673ffffffffffffffffffffffffffffffffffffffff163373ffffffffffffffffffffffffffffffffffffffff16146120f0576040517f08c379a00000000000000000000000000000000000000000000000000000000081526004016120e790614044565b60405180910390fd5b80600073ffffffffffffffffffffffffffffffffffffffff168173ffffffffffffffffffffffffffffffffffffffff161415612161576040517f08c379a0000000000000000000000000000000000000000000000000000000008152600401612158906140c4565b60405180910390fd5b60016000808473ffffffffffffffffffffffffffffffffffffffff1673ffffffffffffffffffffffffffffffffffffffff16815260200190815260200160002060006101000a81548160ff02191690831515021790555060018060009054906101000a900460ff166121d391906142c5565b600160006101000a81548160ff021916908360ff1602179055505050565b73e592427a0aece92de3edee1f18e0157c0586156481565b60025481565b8060028190555050565b600081600060028110612255577f4e487b7100000000000000000000000000000000000000000000000000000000600052603260045260246000fd5b6020020151600073ffffffffffffffffffffffffffffffffffffffff168173ffffffffffffffffffffffffffffffffffffffff1614156122ca576040517f08c379a00000000000000000000000000000000000000000000000000000000081526004016122c1906140c4565b60405180910390fd5b82600160028110612304577f4e487b7100000000000000000000000000000000000000000000000000000000600052603260045260246000fd5b6020020151600073ffffffffffffffffffffffffffffffffffffffff168173ffffffffffffffffffffffffffffffffffffffff161415612379576040517f08c379a0000000000000000000000000000000000000000000000000000000008152600401612370906140c4565b60405180910390fd5b600085116123bc576040517f08c379a00000000000000000000000000000000000000000000000000000000081526004016123b3906140a4565b60405180910390fd5b600060046040516123cc90613ea7565b90815260200160405180910390206000016040516123e990613e92565b908152602001604051809103902060010160009054906101000a900460ff1660ff161161244b576040517f08c379a000000000000000000000000000000000000000000000000000000000815260040161244290614104565b60405180910390fd5b600084600060028110612487577f4e487b7100000000000000000000000000000000000000000000000000000000600052603260045260246000fd5b602002015190506000856001600281106124ca577f4e487b7100000000000000000000000000000000000000000000000000000000600052603260045260246000fd5b602002015190506000610bb8905060006003600060016009811115612518577f4e487b7100000000000000000000000000000000000000000000000000000000600052602160045260246000fd5b6009811115612550577f4e487b7100000000000000000000000000000000000000000000000000000000600052602160045260246000fd5b815260200190815260200160002060009054906101000a900473ffffffffffffffffffffffffffffffffffffffff1673ffffffffffffffffffffffffffffffffffffffff16886000600281106125cf577f4e487b7100000000000000000000000000000000000000000000000000000000600052603260045260246000fd5b602002015173ffffffffffffffffffffffffffffffffffffffff1614801561270457506003600060046009811115612630577f4e487b7100000000000000000000000000000000000000000000000000000000600052602160045260246000fd5b6009811115612668577f4e487b7100000000000000000000000000000000000000000000000000000000600052602160045260246000fd5b815260200190815260200160002060009054906101000a900473ffffffffffffffffffffffffffffffffffffffff1673ffffffffffffffffffffffffffffffffffffffff16886001600281106126e7577f4e487b7100000000000000000000000000000000000000000000000000000000600052603260045260246000fd5b602002015173ffffffffffffffffffffffffffffffffffffffff16145b1561285f57600460405161271790613ea7565b908152602001604051809103902060000160405161273490613e92565b908152602001604051809103902060010160009054906101000a900460ff16600a61275f91906143cb565b89600460405161276e90613ea7565b908152602001604051809103902060000160405161278b90613e92565b9081526020016040518091039020600001546127a791906144e9565b6127b191906142fc565b985060036000600260098111156127f1577f4e487b7100000000000000000000000000000000000000000000000000000000600052602160045260246000fd5b6009811115612829577f4e487b7100000000000000000000000000000000000000000000000000000000600052602160045260246000fd5b815260200190815260200160002060009054906101000a900473ffffffffffffffffffffffffffffffffffffffff169350612b37565b600360006004600981111561289d577f4e487b7100000000000000000000000000000000000000000000000000000000600052602160045260246000fd5b60098111156128d5577f4e487b7100000000000000000000000000000000000000000000000000000000600052602160045260246000fd5b815260200190815260200160002060009054906101000a900473ffffffffffffffffffffffffffffffffffffffff1673ffffffffffffffffffffffffffffffffffffffff1688600060028110612954577f4e487b7100000000000000000000000000000000000000000000000000000000600052603260045260246000fd5b602002015173ffffffffffffffffffffffffffffffffffffffff16148015612a89575060036000600160098111156129b5577f4e487b7100000000000000000000000000000000000000000000000000000000600052602160045260246000fd5b60098111156129ed577f4e487b7100000000000000000000000000000000000000000000000000000000600052602160045260246000fd5b815260200190815260200160002060009054906101000a900473ffffffffffffffffffffffffffffffffffffffff1673ffffffffffffffffffffffffffffffffffffffff1688600160028110612a6c577f4e487b7100000000000000000000000000000000000000000000000000000000600052603260045260246000fd5b602002015173ffffffffffffffffffffffffffffffffffffffff16145b15612b36576003600060026009811115612acc577f4e487b7100000000000000000000000000000000000000000000000000000000600052602160045260246000fd5b6009811115612b04577f4e487b7100000000000000000000000000000000000000000000000000000000600052602160045260246000fd5b815260200190815260200160002060009054906101000a900473ffffffffffffffffffffffffffffffffffffffff1692505b5b600073b27308f9f90d607463bb33ea1bebb41c27ce5ab673ffffffffffffffffffffffffffffffffffffffff1663f7729d438686868e876040518663ffffffff1660e01b8152600401612b8e959493929190613f00565b602060405180830381600087803b158015612ba857600080fd5b505af1158015612bbc573d6000803e3d6000fd5b505050506040513d601f19601f82011682018060405250810190612be09190613a28565b90506003600060046009811115612c20577f4e487b7100000000000000000000000000000000000000000000000000000000600052602160045260246000fd5b6009811115612c58577f4e487b7100000000000000000000000000000000000000000000000000000000600052602160045260246000fd5b815260200190815260200160002060009054906101000a900473ffffffffffffffffffffffffffffffffffffffff1673ffffffffffffffffffffffffffffffffffffffff1689600060028110612cd7577f4e487b7100000000000000000000000000000000000000000000000000000000600052603260045260246000fd5b602002015173ffffffffffffffffffffffffffffffffffffffff16148015612e0c57506003600060016009811115612d38577f4e487b7100000000000000000000000000000000000000000000000000000000600052602160045260246000fd5b6009811115612d70577f4e487b7100000000000000000000000000000000000000000000000000000000600052602160045260246000fd5b815260200190815260200160002060009054906101000a900473ffffffffffffffffffffffffffffffffffffffff1673ffffffffffffffffffffffffffffffffffffffff1689600160028110612def577f4e487b7100000000000000000000000000000000000000000000000000000000600052603260045260246000fd5b602002015173ffffffffffffffffffffffffffffffffffffffff16145b15612ebc576004604051612e1f90613ea7565b9081526020016040518091039020600001604051612e3c90613e92565b9081526020016040518091039020600001546004604051612e5c90613ea7565b9081526020016040518091039020600001604051612e7990613e92565b908152602001604051809103902060010160009054906101000a900460ff16600a612ea491906143cb565b82612eaf91906144e9565b612eb991906142fc565b90505b7fc74332035552aca8c6711bdf6b6d86122eb644ea43f3ea4917f3fdd801be4bdf81604051612eeb919061419b565b60405180910390a18097505050505050505092915050565b73b27308f9f90d607463bb33ea1bebb41c27ce5ab681565b60006003600a612f2b91906143cb565b6002546003600060016009811115612f6c577f4e487b7100000000000000000000000000000000000000000000000000000000600052602160045260246000fd5b6009811115612fa4577f4e487b7100000000000000000000000000000000000000000000000000000000600052602160045260246000fd5b815260200190815260200160002060009054906101000a900473ffffffffffffffffffffffffffffffffffffffff1673ffffffffffffffffffffffffffffffffffffffff1663313ce5676040518163ffffffff1660e01b8152600401602060405180830381600087803b15801561301a57600080fd5b505af115801561302e573d6000803e3d6000fd5b505050506040513d601f19601f820116820180604052508101906130529190613a8d565b600a61305e91906143cb565b8461306991906144e9565b61307391906144e9565b61307d91906142fc565b9050919050565b61308c613644565b60048360405161309c9190613e7b565b9081526020016040518091039020600001826040516130bb9190613e7b565b9081526020016040518091039020604051806040016040529081600082015481526020016001820160009054906101000a900460ff1660ff1660ff1681525050905092915050565b816004856040516131149190613e7b565b9081526020016040518091039020600001846040516131339190613e7b565b908152602001604051809103902060000181905550806004856040516131599190613e7b565b9081526020016040518091039020600001846040516131789190613e7b565b908152602001604051809103902060010160006101000a81548160ff021916908360ff16021790555050505050565b600073ffffffffffffffffffffffffffffffffffffffff163373ffffffffffffffffffffffffffffffffffffffff161415613217576040517f08c379a000000000000000000000000000000000000000000000000000000000815260040161320e90614064565b60405180910390fd5b6000803373ffffffffffffffffffffffffffffffffffffffff1673ffffffffffffffffffffffffffffffffffffffff16815260200190815260200160002060009054906101000a900460ff166132a2576040517f08c379a000000000000000000000000000000000000000000000000000000000815260040161329990614124565b60405180910390fd5b60036000600160098111156132e0577f4e487b7100000000000000000000000000000000000000000000000000000000600052602160045260246000fd5b6009811115613318577f4e487b7100000000000000000000000000000000000000000000000000000000600052602160045260246000fd5b815260200190815260200160002060009054906101000a900473ffffffffffffffffffffffffffffffffffffffff1673ffffffffffffffffffffffffffffffffffffffff1663a0712d68826040518263ffffffff1660e01b815260040161337f919061419b565b600060405180830381600087803b15801561339957600080fd5b505af11580156133ad573d6000803e3d6000fd5b5050505061350760036000600160098111156133f2577f4e487b7100000000000000000000000000000000000000000000000000000000600052602160045260246000fd5b600981111561342a577f4e487b7100000000000000000000000000000000000000000000000000000000600052602160045260246000fd5b815260200190815260200160002060009054906101000a900473ffffffffffffffffffffffffffffffffffffffff16826003600060026009811115613498577f4e487b7100000000000000000000000000000000000000000000000000000000600052602160045260246000fd5b60098111156134d0577f4e487b7100000000000000000000000000000000000000000000000000000000600052602160045260246000fd5b815260200190815260200160002060009054906101000a900473ffffffffffffffffffffffffffffffffffffffff16600042610fa3565b5050565b6000808573ffffffffffffffffffffffffffffffffffffffff166323b872dd86868660405160240161353f93929190613f53565b6040516020818303038152906040529060e01b6020820180517bffffffffffffffffffffffffffffffffffffffffffffffffffffffff838183161783525050505060405161358d9190613e64565b6000604051808303816000865af19150503d80600081146135ca576040519150601f19603f3d011682016040523d82523d6000602084013e6135cf565b606091505b50915091508180156135fd57506000815114806135fc5750808060200190518101906135fb919061389b565b5b5b61363c576040517f08c379a000000000000000000000000000000000000000000000000000000000815260040161363390614144565b60405180910390fd5b505050505050565b604051806040016040528060008152602001600060ff1681525090565b600061367461366f846141db565b6141b6565b9050808285602086028201111561368a57600080fd5b60005b858110156136ba57816136a08882613702565b84526020840193506020830192505060018101905061368d565b5050509392505050565b60006136d76136d284614201565b6141b6565b9050828152602081018484840111156136ef57600080fd5b6136fa848285614657565b509392505050565b600081359050613711816149fc565b92915050565b60008135905061372681614a13565b92915050565b600082601f83011261373d57600080fd5b600261374a848285613661565b91505092915050565b60008151905061376281614a2a565b92915050565b60008135905061377781614a41565b92915050565b600082601f83011261378e57600080fd5b813561379e8482602086016136c4565b91505092915050565b6000813590506137b681614a51565b92915050565b6000815190506137cb81614a51565b92915050565b6000813590506137e081614a68565b92915050565b6000815190506137f581614a68565b92915050565b60006020828403121561380d57600080fd5b600061381b84828501613702565b91505092915050565b600080600080600060a0868803121561383c57600080fd5b600061384a88828901613702565b955050602061385b888289016137a7565b945050604061386c88828901613702565b935050606061387d888289016137a7565b925050608061388e888289016137a7565b9150509295509295909350565b6000602082840312156138ad57600080fd5b60006138bb84828501613753565b91505092915050565b600080604083850312156138d757600080fd5b60006138e585828601613768565b92505060206138f685828601613717565b9150509250929050565b6000806040838503121561391357600080fd5b600083013567ffffffffffffffff81111561392d57600080fd5b6139398582860161377d565b925050602083013567ffffffffffffffff81111561395657600080fd5b6139628582860161377d565b9150509250929050565b6000806000806080858703121561398257600080fd5b600085013567ffffffffffffffff81111561399c57600080fd5b6139a88782880161377d565b945050602085013567ffffffffffffffff8111156139c557600080fd5b6139d18782880161377d565b93505060406139e2878288016137a7565b92505060606139f3878288016137d1565b91505092959194509250565b600060208284031215613a1157600080fd5b6000613a1f848285016137a7565b91505092915050565b600060208284031215613a3a57600080fd5b6000613a48848285016137bc565b91505092915050565b60008060608385031215613a6457600080fd5b6000613a72858286016137a7565b9250506020613a838582860161372c565b9150509250929050565b600060208284031215613a9f57600080fd5b6000613aad848285016137e6565b91505092915050565b613abf81614585565b82525050565b613ace81614585565b82525050565b613add816145a9565b82525050565b6000613aee82614232565b613af88185614248565b9350613b08818560208601614666565b80840191505092915050565b613b1d8161460f565b82525050565b613b2c81614633565b82525050565b6000613b3d8261423d565b613b478185614264565b9350613b57818560208601614666565b80840191505092915050565b6000613b70600383614264565b9150613b7b82614775565b600382019050919050565b6000613b93601683614253565b9150613b9e8261479e565b602082019050919050565b6000613bb6603283614253565b9150613bc1826147c7565b604082019050919050565b6000613bd9601e83614253565b9150613be482614816565b602082019050919050565b6000613bfc601783614253565b9150613c078261483f565b602082019050919050565b6000613c1f601683614253565b9150613c2a82614868565b602082019050919050565b6000613c42601083614253565b9150613c4d82614891565b602082019050919050565b6000613c65600483614264565b9150613c70826148ba565b600482019050919050565b6000613c88601983614253565b9150613c93826148e3565b602082019050919050565b6000613cab602883614253565b9150613cb68261490c565b604082019050919050565b6000613cce601683614253565b9150613cd98261495b565b602082019050919050565b6000613cf1600d83614253565b9150613cfc82614984565b602082019050919050565b6000613d14602483614253565b9150613d1f826149ad565b604082019050919050565b61010082016000820151613d416000850182613ab6565b506020820151613d546020850182613ab6565b506040820151613d676040850182613e19565b506060820151613d7a6060850182613ab6565b506080820151613d8d6080850182613e37565b5060a0820151613da060a0850182613e37565b5060c0820151613db360c0850182613e37565b5060e0820151613dc660e0850182613dfb565b50505050565b604082016000820151613de26000850182613e37565b506020820151613df56020850182613e55565b50505050565b613e04816145b5565b82525050565b613e13816145b5565b82525050565b613e22816145d5565b82525050565b613e31816145d5565b82525050565b613e40816145e4565b82525050565b613e4f816145e4565b82525050565b613e5e81614602565b82525050565b6000613e708284613ae3565b915081905092915050565b6000613e878284613b32565b915081905092915050565b6000613e9d82613b63565b9150819050919050565b6000613eb282613c58565b9150819050919050565b6000602082019050613ed16000830184613ac5565b92915050565b6000604082019050613eec6000830185613ac5565b613ef96020830184613ac5565b9392505050565b600060a082019050613f156000830188613ac5565b613f226020830187613ac5565b613f2f6040830186613e28565b613f3c6060830185613e46565b613f496080830184613e0a565b9695505050505050565b6000606082019050613f686000830186613ac5565b613f756020830185613ac5565b613f826040830184613e46565b949350505050565b6000604082019050613f9f6000830185613ac5565b613fac6020830184613e46565b9392505050565b6000602082019050613fc86000830184613ad4565b92915050565b6000602082019050613fe36000830184613b14565b92915050565b6000602082019050613ffe6000830184613b23565b92915050565b6000602082019050818103600083015261401d81613b86565b9050919050565b6000602082019050818103600083015261403d81613ba9565b9050919050565b6000602082019050818103600083015261405d81613bcc565b9050919050565b6000602082019050818103600083015261407d81613bef565b9050919050565b6000602082019050818103600083015261409d81613c12565b9050919050565b600060208201905081810360008301526140bd81613c35565b9050919050565b600060208201905081810360008301526140dd81613c7b565b9050919050565b600060208201905081810360008301526140fd81613c9e565b9050919050565b6000602082019050818103600083015261411d81613cc1565b9050919050565b6000602082019050818103600083015261413d81613ce4565b9050919050565b6000602082019050818103600083015261415d81613d07565b9050919050565b60006101008201905061417a6000830184613d2a565b92915050565b60006040820190506141956000830184613dcc565b92915050565b60006020820190506141b06000830184613e46565b92915050565b60006141c06141d1565b90506141cc8282614699565b919050565b6000604051905090565b600067ffffffffffffffff8211156141f6576141f5614728565b5b602082029050919050565b600067ffffffffffffffff82111561421c5761421b614728565b5b61422582614757565b9050602081019050919050565b600081519050919050565b600081519050919050565b600081905092915050565b600082825260208201905092915050565b600081905092915050565b600061427a826145e4565b9150614285836145e4565b9250827fffffffffffffffffffffffffffffffffffffffffffffffffffffffffffffffff038211156142ba576142b96146ca565b5b828201905092915050565b60006142d082614602565b91506142db83614602565b92508260ff038211156142f1576142f06146ca565b5b828201905092915050565b6000614307826145e4565b9150614312836145e4565b925082614322576143216146f9565b5b828204905092915050565b6000808291508390505b600185111561437757808604811115614353576143526146ca565b5b60018516156143625780820291505b808102905061437085614768565b9450614337565b94509492505050565b600061438b826145e4565b9150614396836145e4565b92506143c37fffffffffffffffffffffffffffffffffffffffffffffffffffffffffffffffff8484614416565b905092915050565b60006143d6826145e4565b91506143e183614602565b925061440e7fffffffffffffffffffffffffffffffffffffffffffffffffffffffffffffffff8484614416565b905092915050565b60008261442657600190506144e2565b8161443457600090506144e2565b816001811461444a576002811461445457614483565b60019150506144e2565b60ff841115614466576144656146ca565b5b8360020a91508482111561447d5761447c6146ca565b5b506144e2565b5060208310610133831016604e8410600b84101617156144b85782820a9050838111156144b3576144b26146ca565b5b6144e2565b6144c5848484600161432d565b925090508184048111156144dc576144db6146ca565b5b81810290505b9392505050565b60006144f4826145e4565b91506144ff836145e4565b9250817fffffffffffffffffffffffffffffffffffffffffffffffffffffffffffffffff0483118215151615614538576145376146ca565b5b828202905092915050565b600061454e826145ee565b9150614559836145ee565b92508167ffffffffffffffff048311821515161561457a576145796146ca565b5b828202905092915050565b6000614590826145b5565b9050919050565b60006145a2826145b5565b9050919050565b60008115159050919050565b600073ffffffffffffffffffffffffffffffffffffffff82169050919050565b600062ffffff82169050919050565b6000819050919050565b600067ffffffffffffffff82169050919050565b600060ff82169050919050565b600061461a82614621565b9050919050565b600061462c826145b5565b9050919050565b600061463e82614645565b9050919050565b6000614650826145b5565b9050919050565b82818337600083830152505050565b60005b83811015614684578082015181840152602081019050614669565b83811115614693576000848401525b50505050565b6146a282614757565b810181811067ffffffffffffffff821117156146c1576146c0614728565b5b80604052505050565b7f4e487b7100000000000000000000000000000000000000000000000000000000600052601160045260246000fd5b7f4e487b7100000000000000000000000000000000000000000000000000000000600052601260045260246000fd5b7f4e487b7100000000000000000000000000000000000000000000000000000000600052604160045260246000fd5b6000601f19601f8301169050919050565b60008160011c9050919050565b7f4f43580000000000000000000000000000000000000000000000000000000000600082015250565b7f496e76616c696420636f6e747261637420696e64657800000000000000000000600082015250565b7f4f637845786368616e67652e7377617028293a20617070726f766520666f722060008201527f74686520726f75746572206661696c65642e0000000000000000000000000000602082015250565b7f466f722063616c6c65722065787065637465642062652063726561746f720000600082015250565b7f496e76616c69642063726561746f722061646472657373000000000000000000600082015250565b7f496e73756666696369656e7420616c6c6f77616e636500000000000000000000600082015250565b7f496e76616c696420616d6f756e74496e00000000000000000000000000000000600082015250565b7f4f43415400000000000000000000000000000000000000000000000000000000600082015250565b7f4578706563746564206e6f6e2d7a65726f206164647265737300000000000000600082015250565b7f496e73756666696369656e74204f43582062616c616e636520696e207468652060008201527f636f6e7472616374000000000000000000000000000000000000000000000000602082015250565b7f496e76616c6964204f4341542f4f43582071756f746500000000000000000000600082015250565b7f4d7573742062652061646d696e00000000000000000000000000000000000000600082015250565b7f5472616e7366657248656c7065723a205452414e534645525f46524f4d5f464160008201527f494c454400000000000000000000000000000000000000000000000000000000602082015250565b614a0581614585565b8114614a1057600080fd5b50565b614a1c81614597565b8114614a2757600080fd5b50565b614a33816145a9565b8114614a3e57600080fd5b50565b600a8110614a4e57600080fd5b50565b614a5a816145e4565b8114614a6557600080fd5b50565b614a7181614602565b8114614a7c57600080fd5b5056fea2646970667358221220a4857b94c984e8fe10774375f3aac13a8429d5297d8c5b04a288ddf09a08d8b164736f6c63430008040033",
  "immutableReferences": {},
  "source": "// SPDX-License-Identifier: MIT\r\npragma solidity ^0.8.0;\r\n\r\n// https://soliditydeveloper.com/uniswap2\r\n// https://docs.uniswap.org/protocol/V2/guides/smart-contract-integration/trading-from-a-smart-contract\r\n// https://ethereum.org/ru/developers/tutorials/transfers-and-approval-of-erc-20-tokens-from-a-solidity-smart-contract/\r\n// https://solidity-by-example.org/app/erc20/\r\n\r\nimport \"@uniswap/v3-periphery/contracts/interfaces/ISwapRouter.sol\";\r\nimport \"@uniswap/v3-periphery/contracts/interfaces/IQuoter.sol\";\r\n// import \"@uniswap/v2-periphery/contracts/interfaces/IUniswapV2Router02.sol\";\r\n//import '@uniswap/v3-periphery/contracts/libraries/TransferHelper.sol';\r\nimport \"@uniswap/lib/contracts/libraries/TransferHelper.sol\";\r\nimport \"@openzeppelin/contracts/token/ERC20/IERC20.sol\"; // openzeppelin 4.5 (for solidity 0.8.x)\r\nimport \"@openzeppelin/contracts/utils/Strings.sol\";\r\nimport \"@openzeppelin/contracts/token/ERC721/IERC721.sol\";\r\nimport \"./OcxBase.sol\";\r\nimport \"./PawnNFTs.sol\";\r\nimport \"./OcatToken.sol\";\r\nimport \"./common/OcxCommon.sol\";\r\n\r\ncontract OcxExchange is OcxBase {\r\n\r\n    // IUniswapV2Router02  public uniswapRouter;\r\n    ISwapRouter public constant uniswapRouter = ISwapRouter(UNISWAP_V3_ROUTER_ADDRESS);\r\n    IQuoter public constant quoter = IQuoter(UNISWAP_V3_QUOTER_ADDRESS);\r\n    // address payable private ocxLocalPoolAddress;\r\n    mapping(string => CurrencyPriceInfo) private quotes;\r\n\r\n\r\n    event estimatedOcxAmountForBurningOcat(uint256);\r\n    event expectedAmountOut(uint256);\r\n\r\n    receive() external payable {}\r\n\r\n    constructor() {\r\n        // uniswapRouter = IUniswapV2Router02(UNISWAP_V3_ROUTER_ADDRESS);\r\n    }\r\n\r\n    function swap(\r\n        address _tokenIn,\r\n        uint _amountIn,\r\n        address _tokenOut,\r\n        uint _amountOutMin,\r\n        uint _deadline\r\n    ) public \r\n    returns(uint amountOut) {\r\n        require(quotes[\"OCAT\"].vs[\"OCX\"].decimals > 0, \"Invalid OCAT/OCX quote\");\r\n        // transferFrom\r\n        //    Check for allowance\r\n        if (_tokenIn != contractAddress[CommonContracts.WETH]) {\r\n            uint256 allowance = IERC20(_tokenIn).allowance(msg.sender, address(this));\r\n            require(allowance >= _amountIn, \"Insufficient allowance\");\r\n            //     Do transferFrom\r\n            // approve\r\n            require(\r\n                IERC20(_tokenIn).approve(address(UNISWAP_V3_ROUTER_ADDRESS), _amountIn), \r\n                'OcxExchange.swap(): approve for the router failed.'\r\n            );\r\n        }\r\n        TransferHelper.safeTransferFrom(_tokenIn, msg.sender, address(this), _amountIn);\r\n        // \r\n        address recipient = msg.sender;\r\n        if (_tokenIn == contractAddress[CommonContracts.OCAT] \r\n         && _tokenOut == contractAddress[CommonContracts.UNI]) {\r\n            uint256 ocxBalance = IERC20(contractAddress[CommonContracts.OCX]).balanceOf(address(this));\r\n            uint256 ocxAmount = (_amountIn * quotes[\"OCAT\"].vs[\"OCX\"].value) / \r\n                                (10 ** quotes[\"OCAT\"].vs[\"OCX\"].decimals);\r\n            require(ocxBalance >= ocxAmount, \"Insufficient OCX balance in the contract\");\r\n            IERC20(contractAddress[CommonContracts.OCX]).approve(UNISWAP_V3_ROUTER_ADDRESS, ocxAmount);\r\n            _tokenIn = contractAddress[CommonContracts.OCX];\r\n            _amountIn = ocxAmount;\r\n        } else if (_tokenIn == contractAddress[CommonContracts.UNI] \r\n                && _tokenOut == contractAddress[CommonContracts.OCAT]) {\r\n            // Tophalf for UNI->OCAT swap\r\n            _tokenOut = contractAddress[CommonContracts.OCX];\r\n            recipient = address(this);\r\n        }\r\n\r\n        ISwapRouter.ExactInputSingleParams memory params =\r\n            ISwapRouter.ExactInputSingleParams({\r\n                tokenIn: _tokenIn,\r\n                tokenOut: _tokenOut,\r\n                fee: POOL_FEE,\r\n                recipient: recipient,\r\n                deadline: block.timestamp + _deadline,\r\n                amountIn: _amountIn,\r\n                amountOutMinimum: _amountOutMin,\r\n                sqrtPriceLimitX96: 0\r\n            });\r\n\r\n        // The call to `exactInputSingle` executes the swap.\r\n        amountOut = uniswapRouter.exactInputSingle(params);\r\n\r\n        // Bottomhalf for UNI->OCAT swap\r\n        if (_tokenIn == contractAddress[CommonContracts.UNI] \r\n        && _tokenOut == contractAddress[CommonContracts.OCAT]) {\r\n            uint256 ocatAmount = (amountOut * (10 ** quotes[\"OCAT\"].vs[\"OCX\"].value)) / \r\n                                quotes[\"OCAT\"].vs[\"OCX\"].value;\r\n            IERC20(contractAddress[CommonContracts.OCAT]).transfer(msg.sender, ocatAmount);\r\n        }\r\n    }\r\n    function getAmountsOut(uint256 amountIn, address[2] memory path) public \r\n    onlyValidAddress(path[0]) onlyValidAddress(path[1])\r\n    returns(uint256) {\r\n        require(amountIn > 0, \"Invalid amountIn\");\r\n        require(quotes[\"OCAT\"].vs[\"OCX\"].decimals > 0, \"Invalid OCAT/OCX quote\");\r\n        address tokenIn = path[0];\r\n        address tokenOut = path[1];\r\n        uint24 fee = 3000;\r\n        uint160 sqrtPriceLimitX96 = 0;\r\n\r\n        if (path[0] == contractAddress[CommonContracts.OCAT]\r\n        && path[1] == contractAddress[CommonContracts.UNI]) {\r\n            // Get OCAT:OCX quote and calculate OCX amount for \"amountIn\"\r\n            amountIn = (quotes[\"OCAT\"].vs[\"OCX\"].value * amountIn) / \r\n                        (10 ** quotes[\"OCAT\"].vs[\"OCX\"].decimals);\r\n            // Get OCX:UNI quote\r\n            // Multiple it by OCAT:OCX quote\r\n            tokenIn = contractAddress[CommonContracts.OCX];\r\n        } else if (path[0] == contractAddress[CommonContracts.UNI]\r\n        && path[1] == contractAddress[CommonContracts.OCAT]) {\r\n            tokenOut = contractAddress[CommonContracts.OCX];\r\n        }\r\n        uint256 amountOut = quoter.quoteExactInputSingle(\r\n            tokenIn,\r\n            tokenOut,\r\n            fee,\r\n            amountIn,\r\n            sqrtPriceLimitX96\r\n        );\r\n        // If UNI -> OCAT swap, we got OCX amount here.\r\n        // Now is the time to calculate OCAT amount from the OCX one\r\n        if (path[0] == contractAddress[CommonContracts.UNI] \r\n        && path[1] == contractAddress[CommonContracts.OCAT]) {\r\n            amountOut = (amountOut * (10**quotes[\"OCAT\"].vs[\"OCX\"].decimals)) / \r\n                        quotes[\"OCAT\"].vs[\"OCX\"].value;\r\n        }\r\n        emit expectedAmountOut(amountOut);\r\n        return amountOut;\r\n    }\r\n    /**\r\n     *  Mint OCAT by funding ETH\r\n     */\r\n    function mintOcat() public payable \r\n    onlyAdmin onlyValidAddress(contractAddress[CommonContracts.PRICE_ORACLE]) \r\n    onlyValidAddress(contractAddress[CommonContracts.OCAT]) {\r\n        OcxPrice memory ethAudPriceInfo = quotes[\"OCAT\"].vs[\"OCX\"];\r\n        uint8 ocatDecimals = IOcat(contractAddress[CommonContracts.OCAT]).decimals();\r\n        mintOcat(\r\n            (msg.value * ethAudPriceInfo.value * (10**ocatDecimals)) / \r\n            ((10**18) * ethAudPriceInfo.decimals)\r\n        );\r\n    }\r\n    /**\r\n     * Mint OCAT as specified amount\r\n     */\r\n    function mintOcat(uint256 amount) internal onlyAdmin {\r\n        IOcxERC20(contractAddress[CommonContracts.OCAT]).mint(amount);\r\n        swap(\r\n            contractAddress[CommonContracts.OCAT], amount, \r\n            contractAddress[CommonContracts.OCX], 0, \r\n            block.timestamp\r\n        );\r\n    }\r\n    function _getEstimatedOcxforOcat(uint ocatAmount) internal returns (uint256) {\r\n        address tokenIn = contractAddress[CommonContracts.OCX];\r\n        address tokenOut = contractAddress[CommonContracts.OCAT];\r\n        uint24 fee = 3000;\r\n        uint160 sqrtPriceLimitX96 = 0;\r\n\r\n        // getQuoteAtTick()\r\n        return quoter.quoteExactOutputSingle(\r\n            tokenIn,\r\n            tokenOut,\r\n            fee,\r\n            ocatAmount,\r\n            sqrtPriceLimitX96\r\n        );\r\n    }\r\n    function burnOcat(uint256 amount) internal onlyAdmin {\r\n        IERC20 ocat = IERC20(contractAddress[CommonContracts.OCAT]);\r\n        if (ocat.balanceOf(address(this)) < amount) {\r\n            uint256 ocxAmount = _getEstimatedOcxforOcat(amount);\r\n            IERC20 ocx = IERC20(contractAddress[CommonContracts.OCX]);\r\n            /*********************************************************\r\n             * Warn to admin to deposit additional ETHs\r\n             *********************************************************/\r\n            require(ocx.balanceOf(address(this)) < ocxAmount, \"1\");\r\n            //////////////////////////////////////////////////////////\r\n            emit estimatedOcxAmountForBurningOcat(ocxAmount);\r\n            IERC20(contractAddress[CommonContracts.OCX]).approve(UNISWAP_V3_ROUTER_ADDRESS, ocxAmount);\r\n            swap(\r\n                contractAddress[CommonContracts.OCX], ocxAmount, \r\n                contractAddress[CommonContracts.OCAT], 0, \r\n                block.timestamp\r\n            );\r\n        }\r\n        IOcxERC20(contractAddress[CommonContracts.OCAT]).burn(amount);\r\n    }\r\n    function mintOcx(uint256 amount) public payable onlyAdmin  {\r\n        IOcxERC20(contractAddress[CommonContracts.OCX]).mint(amount);\r\n    }\r\n    function burnOcx(uint256 amount) internal onlyAdmin {\r\n        IOcxERC20(contractAddress[CommonContracts.OCX]).burn(amount);\r\n    }\r\n    function setQuote(string memory left, string memory right, uint256 newQuote, uint8 quoteDecimals) public {\r\n        quotes[left].vs[right].value = newQuote;\r\n        quotes[left].vs[right].decimals = quoteDecimals;\r\n    }\r\n    function getQuote(string memory left, string memory right) public view returns(OcxPrice memory) {\r\n        return quotes[left].vs[right];\r\n    }\r\n}\r\n",
  "sourcePath": "E:\\Work\\OpenchainTestVersion\\server\\contracts\\OcxExchange.sol",
  "compiler": {
    "name": "solc",
    "version": "0.8.4+commit.c7e474f2.Emscripten.clang"
  },
  "schemaVersion": "3.4.7",
  "updatedAt": "2022-05-05T07:38:21.291Z",
  "networkType": "ethereum",
  "devdoc": {
    "kind": "dev",
    "methods": {},
    "version": 1
  },
  "userdoc": {
    "kind": "user",
    "methods": {
      "mintOcat()": {
        "notice": "Mint OCAT by funding ETH"
      }
    },
    "version": 1
  }
}