{
    "contractName": "PawnExchange",
    "abi": [
        {
            "inputs": [],
            "stateMutability": "nonpayable",
            "type": "constructor"
        },
        {
            "anonymous": false,
            "inputs": [
                {
                    "indexed": false,
                    "internalType": "uint256",
                    "name": "realOcats",
                    "type": "uint256"
                },
                {
                    "indexed": false,
                    "internalType": "uint256",
                    "name": "swapBackFee",
                    "type": "uint256"
                }
            ],
            "name": "SwappedFromOcat",
            "type": "event"
        },
        {
            "anonymous": false,
            "inputs": [
                {
                    "indexed": false,
                    "internalType": "uint256",
                    "name": "realOcats",
                    "type": "uint256"
                },
                {
                    "indexed": false,
                    "internalType": "uint256",
                    "name": "swapfee",
                    "type": "uint256"
                }
            ],
            "name": "SwappedToOcat",
            "type": "event"
        },
        {
            "inputs": [
                {
                    "internalType": "address",
                    "name": "_admin",
                    "type": "address"
                }
            ],
            "name": "addAdmin",
            "outputs": [],
            "stateMutability": "nonpayable",
            "type": "function"
        },
        {
            "inputs": [
                {
                    "internalType": "uint256",
                    "name": "price",
                    "type": "uint256"
                }
            ],
            "name": "convertToOcat",
            "outputs": [
                {
                    "internalType": "uint256",
                    "name": "_ocatPrice",
                    "type": "uint256"
                }
            ],
            "stateMutability": "view",
            "type": "function"
        },
        {
            "inputs": [
                {
                    "internalType": "uint256",
                    "name": "nftID",
                    "type": "uint256"
                }
            ],
            "name": "exchangeFromOcat",
            "outputs": [
                {
                    "internalType": "uint256",
                    "name": "realOcats",
                    "type": "uint256"
                },
                {
                    "internalType": "uint256",
                    "name": "swapBackFee",
                    "type": "uint256"
                }
            ],
            "stateMutability": "nonpayable",
            "type": "function"
        },
        {
            "inputs": [
                {
                    "internalType": "uint256",
                    "name": "nftID",
                    "type": "uint256"
                }
            ],
            "name": "exchangeToOcat",
            "outputs": [
                {
                    "internalType": "uint256",
                    "name": "realOcats",
                    "type": "uint256"
                },
                {
                    "internalType": "uint256",
                    "name": "swapFee",
                    "type": "uint256"
                }
            ],
            "stateMutability": "nonpayable",
            "type": "function"
        },
        {
            "inputs": [],
            "name": "getAdmins",
            "outputs": [
                {
                    "internalType": "address[]",
                    "name": "",
                    "type": "address[]"
                }
            ],
            "stateMutability": "view",
            "type": "function"
        },
        {
            "inputs": [
                {
                    "internalType": "enum FeeType",
                    "name": "feeType",
                    "type": "uint8"
                }
            ],
            "name": "getFee",
            "outputs": [
                {
                    "internalType": "uint256",
                    "name": "",
                    "type": "uint256"
                }
            ],
            "stateMutability": "view",
            "type": "function"
        },
        {
            "inputs": [],
            "name": "getOcatPrice",
            "outputs": [
                {
                    "internalType": "uint256",
                    "name": "",
                    "type": "uint256"
                }
            ],
            "stateMutability": "view",
            "type": "function"
        },
        {
            "inputs": [],
            "name": "ocatAddress",
            "outputs": [
                {
                    "internalType": "address payable",
                    "name": "",
                    "type": "address"
                }
            ],
            "stateMutability": "view",
            "type": "function"
        },
        {
            "inputs": [],
            "name": "ocatPrice",
            "outputs": [
                {
                    "internalType": "uint256",
                    "name": "",
                    "type": "uint256"
                }
            ],
            "stateMutability": "view",
            "type": "function"
        },
        {
            "inputs": [],
            "name": "ocxAddress",
            "outputs": [
                {
                    "internalType": "address payable",
                    "name": "",
                    "type": "address"
                }
            ],
            "stateMutability": "view",
            "type": "function"
        },
        {
            "inputs": [],
            "name": "ocxPriceOracleAddress",
            "outputs": [
                {
                    "internalType": "address payable",
                    "name": "",
                    "type": "address"
                }
            ],
            "stateMutability": "view",
            "type": "function"
        },
        {
            "inputs": [
                {
                    "internalType": "address payable",
                    "name": "",
                    "type": "address"
                },
                {
                    "internalType": "address payable",
                    "name": "",
                    "type": "address"
                },
                {
                    "internalType": "uint256",
                    "name": "",
                    "type": "uint256"
                },
                {
                    "internalType": "bytes",
                    "name": "",
                    "type": "bytes"
                }
            ],
            "name": "onERC721Received",
            "outputs": [
                {
                    "internalType": "bytes4",
                    "name": "",
                    "type": "bytes4"
                }
            ],
            "stateMutability": "pure",
            "type": "function"
        },
        {
            "inputs": [],
            "name": "pnftAddress",
            "outputs": [
                {
                    "internalType": "address payable",
                    "name": "",
                    "type": "address"
                }
            ],
            "stateMutability": "view",
            "type": "function"
        },
        {
            "inputs": [
                {
                    "internalType": "enum FeeType",
                    "name": "feeType",
                    "type": "uint8"
                },
                {
                    "internalType": "uint256",
                    "name": "feeValue",
                    "type": "uint256"
                }
            ],
            "name": "setFee",
            "outputs": [],
            "stateMutability": "nonpayable",
            "type": "function"
        },
        {
            "inputs": [
                {
                    "internalType": "address payable",
                    "name": "_ocatAddress",
                    "type": "address"
                }
            ],
            "name": "setOcatAddress",
            "outputs": [],
            "stateMutability": "nonpayable",
            "type": "function"
        },
        {
            "inputs": [
                {
                    "internalType": "uint256",
                    "name": "_price",
                    "type": "uint256"
                }
            ],
            "name": "setOcatPrice",
            "outputs": [],
            "stateMutability": "nonpayable",
            "type": "function"
        },
        {
            "inputs": [
                {
                    "internalType": "address payable",
                    "name": "_ocxAddress",
                    "type": "address"
                }
            ],
            "name": "setOcxAddress",
            "outputs": [],
            "stateMutability": "nonpayable",
            "type": "function"
        },
        {
            "inputs": [
                {
                    "internalType": "address payable",
                    "name": "_ocxPriceOracleAddress",
                    "type": "address"
                }
            ],
            "name": "setOcxPriceOracleAddress",
            "outputs": [],
            "stateMutability": "nonpayable",
            "type": "function"
        },
        {
            "inputs": [
                {
                    "internalType": "address payable",
                    "name": "_pnftAddress",
                    "type": "address"
                }
            ],
            "name": "setPnftAddress",
            "outputs": [],
            "stateMutability": "nonpayable",
            "type": "function"
        }
    ],
    "bytecode": "60806040523480156200001157600080fd5b50600180546001600160a01b031916339081179091556200003290620000a4565b6064600355600260205260087fac33ff75c19e70fe83507db0d683fd3465c996598dc972688b7ace676c89077b819055600160008190527fe90b7bceb6e7df5418fb78d8ee546e97c83a08bbccc01a0644d599ccd2a7c2e09190915580546001600160a01b0319163317905562000302565b6001546001600160a01b0316620001025760405162461bcd60e51b815260206004820152601760248201527f496e76616c69642063726561746f72206164647265737300000000000000000060448201526064015b60405180910390fd5b6001546001600160a01b031633146200015e5760405162461bcd60e51b815260206004820152601e60248201527f466f722063616c6c65722065787065637465642062652063726561746f7200006044820152606401620000f9565b806001600160a01b038116620001b75760405162461bcd60e51b815260206004820152601960248201527f4578706563746564206e6f6e2d7a65726f2061646472657373000000000000006044820152606401620000f9565b6000546006116200020b5760405162461bcd60e51b815260206004820152601360248201527f41646d696e2067726f75702069732066756c6c000000000000000000000000006044820152606401620000f9565b60005b60005460ff821610156200026f5760008160ff1681548110620002355762000235620002be565b6000918252602090912001546001600160a01b03908116908416036200025a57505050565b806200026681620002d4565b9150506200020e565b50600080546001810182559080527f290decd9548b62a8d60345a988386fc84ba6bc95484008f6362f93160ef3e5630180546001600160a01b0384166001600160a01b03199091161790555050565b634e487b7160e01b600052603260045260246000fd5b600060ff821660ff8103620002f957634e487b7160e01b600052601160045260246000fd5b60010192915050565b6118f580620003126000396000f3fe608060405234801561001057600080fd5b50600436106101215760003560e01c8063378321eb116100ad578063a7e3426a11610071578063a7e3426a14610284578063b18d30a214610297578063bb3f6c6a146102aa578063d16a0f19146102bd578063dbcd9580146102d057600080fd5b8063378321eb1461022f57806370480275146102425780637524ba58146102555780638c6aa3f514610268578063a7d9cfbc1461027b57600080fd5b8063150b7a02116100f4578063150b7a02146101b457806315f03d22146101ec5780631a5072e7146101ff57806331ae450b146102125780633214e1a91461022757600080fd5b806307a7147c14610126578063083132c4146101565780630b0c506f1461017757806313ad82da1461018c575b600080fd5b600754610139906001600160a01b031681565b6040516001600160a01b0390911681526020015b60405180910390f35b6101696101643660046112a7565b6102e3565b60405190815260200161014d565b61018a6101853660046112e1565b610398565b005b61019f61019a3660046112fe565b610434565b6040805192835260208301919091520161014d565b6101d36101c2366004611317565b630a85bd0160e11b95945050505050565b6040516001600160e01b0319909116815260200161014d565b61018a6101fa3660046112e1565b61086b565b61018a61020d3660046112e1565b610907565b61021a6109a3565b60405161014d91906113b6565b610169610a05565b61019f61023d3660046112fe565b610a25565b61018a6102503660046112e1565b610ce2565b600454610139906001600160a01b031681565b61018a610276366004611403565b610e4e565b61016960035481565b600654610139906001600160a01b031681565b61018a6102a53660046112e1565b610f24565b61018a6102b83660046112fe565b611059565b600554610139906001600160a01b031681565b6101696102de3660046112fe565b611137565b6000808260028111156102f8576102f861142d565b118015610317575060028260028111156103145761031461142d565b11155b61035b5760405162461bcd60e51b815260206004820152601060248201526f496e76616c696420666565207479706560801b60448201526064015b60405180910390fd5b600260008360028111156103715761037161142d565b60028111156103825761038261142d565b8152602001908152602001600020549050919050565b6001546001600160a01b03166103c05760405162461bcd60e51b815260040161035290611443565b6001546001600160a01b031633146103ea5760405162461bcd60e51b81526004016103529061147a565b806001600160a01b0381166104115760405162461bcd60e51b8152600401610352906114b1565b50600580546001600160a01b0319166001600160a01b0392909216919091179055565b60008082600081116104795760405162461bcd60e51b815260206004820152600e60248201526d125b9d985b1a590813919508125160921b6044820152606401610352565b3033036104df5760405162461bcd60e51b815260206004820152602e60248201527f4572726f723a2043616c6c657220636f756c646e27742062652073616d65207460448201526d6f2074686973206164647265737360901b6064820152608401610352565b3361052c5760405162461bcd60e51b815260206004820152601a60248201527f2a2a2a2a2a2a2a2a2a2a2a2a496e76616c69642063616c6c65720000000000006044820152606401610352565b60065460405163717947b160e01b8152600481018690526000918291829182916001600160a01b039091169063717947b190602401600060405180830381865afa15801561057e573d6000803e3d6000fd5b505050506040513d6000823e601f3d908101601f191682016040526105a691908101906115c6565b50975097509750509650505050336001600160a01b0316846001600160a01b0316146106005760405162461bcd60e51b81526020600482015260096024820152682737ba1037bbb732b960b91b6044820152606401610352565b6000600354116106525760405162461bcd60e51b815260206004820152601760248201527f496e76616c696420504e46542f4f4341542071756f74650000000000000000006044820152606401610352565b806000036106d5576004546001600160a01b03166340c10f193061067685876116a0565b6040516001600160e01b031960e085901b1681526001600160a01b0390921660048301526024820152604401600060405180830381600087803b1580156106bc57600080fd5b505af11580156106d0573d6000803e3d6000fd5b505050505b600654604051632142170760e11b8152336004820152306024820152604481018a90526001600160a01b03909116906342842e0e90606401600060405180830381600087803b15801561072757600080fd5b505af115801561073b573d6000803e3d6000fd5b505050506004600a61074d919061179c565b6000805260026020527fac33ff75c19e70fe83507db0d683fd3465c996598dc972688b7ace676c89077b5461078290856117ab565b61078c91906117ca565b95508560008290036107a3578290508397506107b0565b6107ad87856117ec565b97505b6004805460405163a9059cbb60e01b81523392810192909252602482018a90526001600160a01b03169063a9059cbb906044016020604051808303816000875af1158015610802573d6000803e3d6000fd5b505050506040513d601f19601f820116820180604052508101906108269190611803565b5060408051898152602081018390527fdf26ba1712ef61c6db90a8ee9b6a5c4b7001717811fe1086a93d3bcad1255291910160405180910390a1505050505050915091565b6001546001600160a01b03166108935760405162461bcd60e51b815260040161035290611443565b6001546001600160a01b031633146108bd5760405162461bcd60e51b81526004016103529061147a565b806001600160a01b0381166108e45760405162461bcd60e51b8152600401610352906114b1565b50600680546001600160a01b0319166001600160a01b0392909216919091179055565b6001546001600160a01b031661092f5760405162461bcd60e51b815260040161035290611443565b6001546001600160a01b031633146109595760405162461bcd60e51b81526004016103529061147a565b806001600160a01b0381166109805760405162461bcd60e51b8152600401610352906114b1565b50600780546001600160a01b0319166001600160a01b0392909216919091179055565b606060008054806020026020016040519081016040528092919081815260200182805480156109fb57602002820191906000526020600020905b81546001600160a01b031681526001909101906020018083116109dd575b5050505050905090565b6000610a136002600a61179c565b600354610a2091906117ca565b905090565b60008033610a455760405162461bcd60e51b8152600401610352906114b1565b600480546040516370a0823160e01b815233928101929092526000916001600160a01b03909116906370a0823190602401602060405180830381865afa158015610a93573d6000803e3d6000fd5b505050506040513d601f19601f82011682018060405250810190610ab7919061181e565b60065460405163717947b160e01b8152600481018790529192506000916001600160a01b039091169063717947b190602401600060405180830381865afa158015610b06573d6000803e3d6000fd5b505050506040513d6000823e601f3d908101601f19168201604052610b2e91908101906115c6565b505050955050505050506004600a610b46919061179c565b600160005260026020527fe90b7bceb6e7df5418fb78d8ee546e97c83a08bbccc01a0644d599ccd2a7c2e054610b7c90836117ab565b610b8691906117ca565b9250610b9283826117ec565b935080821015610c1f5760405162461bcd60e51b815260206004820152604c60248201527f5061776e45786368616e67652e65786368616e676546726f6d4f63617428293a60448201527f20496e73756666696369656e742062616c616e6365206f66204f43415420696e60648201526b081d1a19481858d8dbdd5b9d60a21b608482015260a401610352565b600454610c37906001600160a01b0316333084611163565b600654604051632142170760e11b8152306004820152336024820152604481018790526001600160a01b03909116906342842e0e90606401600060405180830381600087803b158015610c8957600080fd5b505af1158015610c9d573d6000803e3d6000fd5b505060408051878152602081018790527f72aea6ac60f3802c7e2107c2c473d38b9cfada6c47c06b2db95a6ebc5da04b71935001905060405180910390a15050915091565b6001546001600160a01b0316610d0a5760405162461bcd60e51b815260040161035290611443565b6001546001600160a01b03163314610d345760405162461bcd60e51b81526004016103529061147a565b806001600160a01b038116610d5b5760405162461bcd60e51b8152600401610352906114b1565b600054600611610da35760405162461bcd60e51b815260206004820152601360248201527210591b5a5b8819dc9bdd5c081a5cc8199d5b1b606a1b6044820152606401610352565b60005b60005460ff82161015610dff5760008160ff1681548110610dc957610dc9611837565b6000918252602090912001546001600160a01b0390811690841603610ded57505050565b80610df78161184d565b915050610da6565b50600080546001810182559080527f290decd9548b62a8d60345a988386fc84ba6bc95484008f6362f93160ef3e5630180546001600160a01b0384166001600160a01b03199091161790555050565b33610e6b5760405162461bcd60e51b815260040161035290611443565b6000805b60005460ff82161015610ec85760008160ff1681548110610e9257610e92611837565b6000918252602090912001546001600160a01b03163303610eb65760019150610ec8565b80610ec08161184d565b915050610e6f565b5080610ee65760405162461bcd60e51b81526004016103529061186c565b8160026000856002811115610efd57610efd61142d565b6002811115610f0e57610f0e61142d565b8152602081019190915260400160002055505050565b6001546001600160a01b0316610f4c5760405162461bcd60e51b815260040161035290611443565b6001546001600160a01b03163314610f765760405162461bcd60e51b81526004016103529061147a565b806001600160a01b038116610f9d5760405162461bcd60e51b8152600401610352906114b1565b33610fba5760405162461bcd60e51b815260040161035290611443565b6000805b60005460ff821610156110175760008160ff1681548110610fe157610fe1611837565b6000918252602090912001546001600160a01b031633036110055760019150611017565b8061100f8161184d565b915050610fbe565b50806110355760405162461bcd60e51b81526004016103529061186c565b5050600480546001600160a01b0319166001600160a01b0392909216919091179055565b336110765760405162461bcd60e51b815260040161035290611443565b6000805b60005460ff821610156110d35760008160ff168154811061109d5761109d611837565b6000918252602090912001546001600160a01b031633036110c157600191506110d3565b806110cb8161184d565b91505061107a565b50806110f15760405162461bcd60e51b81526004016103529061186c565b600082116111315760405162461bcd60e51b815260206004820152600d60248201526c496e76616c696420707269636560981b6044820152606401610352565b50600355565b60006111456002600a61179c565b8260035461115391906117ab565b61115d91906117ca565b92915050565b604080516001600160a01b0385811660248301528481166044830152606480830185905283518084039091018152608490920183526020820180516001600160e01b03166323b872dd60e01b17905291516000928392908816916111c791906118a3565b6000604051808303816000865af19150503d8060008114611204576040519150601f19603f3d011682016040523d82523d6000602084013e611209565b606091505b50915091508180156112335750805115806112335750808060200190518101906112339190611803565b61128b5760405162461bcd60e51b8152602060048201526024808201527f5472616e7366657248656c7065723a205452414e534645525f46524f4d5f46416044820152631253115160e21b6064820152608401610352565b505050505050565b8035600381106112a257600080fd5b919050565b6000602082840312156112b957600080fd5b6112c282611293565b9392505050565b6001600160a01b03811681146112de57600080fd5b50565b6000602082840312156112f357600080fd5b81356112c2816112c9565b60006020828403121561131057600080fd5b5035919050565b60008060008060006080868803121561132f57600080fd5b853561133a816112c9565b9450602086013561134a816112c9565b935060408601359250606086013567ffffffffffffffff8082111561136e57600080fd5b818801915088601f83011261138257600080fd5b81358181111561139157600080fd5b8960208285010111156113a357600080fd5b9699959850939650602001949392505050565b6020808252825182820181905260009190848201906040850190845b818110156113f75783516001600160a01b0316835292840192918401916001016113d2565b50909695505050505050565b6000806040838503121561141657600080fd5b61141f83611293565b946020939093013593505050565b634e487b7160e01b600052602160045260246000fd5b60208082526017908201527f496e76616c69642063726561746f722061646472657373000000000000000000604082015260600190565b6020808252601e908201527f466f722063616c6c65722065787065637465642062652063726561746f720000604082015260600190565b60208082526019908201527f4578706563746564206e6f6e2d7a65726f206164647265737300000000000000604082015260600190565b634e487b7160e01b600052604160045260246000fd5b60005b83811015611519578181015183820152602001611501565b83811115611528576000848401525b50505050565b600082601f83011261153f57600080fd5b815167ffffffffffffffff8082111561155a5761155a6114e8565b604051601f8301601f19908116603f01168101908282118183101715611582576115826114e8565b8160405283815286602085880101111561159b57600080fd5b6115ac8460208301602089016114fe565b9695505050505050565b805180151581146112a257600080fd5b60008060008060008060008060006101208a8c0312156115e557600080fd5b8951985060208a015167ffffffffffffffff8082111561160457600080fd5b6116108d838e0161152e565b995060408c015191508082111561162657600080fd5b506116338c828d0161152e565b97505060608a0151611644816112c9565b60808b0151909650611655816112c9565b8095505060a08a0151935060c08a0151925060e08a0151915061167b6101008b016115b6565b90509295985092959850929598565b634e487b7160e01b600052601160045260246000fd5b600082198211156116b3576116b361168a565b500190565b600181815b808511156116f35781600019048211156116d9576116d961168a565b808516156116e657918102915b93841c93908002906116bd565b509250929050565b60008261170a5750600161115d565b816117175750600061115d565b816001811461172d576002811461173757611753565b600191505061115d565b60ff8411156117485761174861168a565b50506001821b61115d565b5060208310610133831016604e8410600b8410161715611776575081810a61115d565b61178083836116b8565b80600019048211156117945761179461168a565b029392505050565b60006112c260ff8416836116fb565b60008160001904831182151516156117c5576117c561168a565b500290565b6000826117e757634e487b7160e01b600052601260045260246000fd5b500490565b6000828210156117fe576117fe61168a565b500390565b60006020828403121561181557600080fd5b6112c2826115b6565b60006020828403121561183057600080fd5b5051919050565b634e487b7160e01b600052603260045260246000fd5b600060ff821660ff81036118635761186361168a565b60010192915050565b6020808252601d908201527f496e76616c69642063616c6c65722e204d7573742062652061646d696e000000604082015260600190565b600082516118b58184602087016114fe565b919091019291505056fea264697066735822122066547f70238daff0069b1a36451a43d050608752e24cfc679adf01fa5d4a727b64736f6c634300080d0033",
    "sourcePath": "/home/cowboy/OCX/OpenchainTestVersion/server/contracts/PawnExchange.sol",
    "compiler": {
        "name": "solc",
        "version": "0.8.13+commit.abaa5c0e"
    },
    "functionHashes": {
        "addAdmin(address)": "70480275",
        "convertToOcat(uint256)": "dbcd9580",
        "exchangeFromOcat(uint256)": "378321eb",
        "exchangeToOcat(uint256)": "13ad82da",
        "getAdmins()": "31ae450b",
        "getFee(uint8)": "083132c4",
        "getOcatPrice()": "3214e1a9",
        "ocatAddress()": "7524ba58",
        "ocatPrice()": "a7d9cfbc",
        "ocxAddress()": "d16a0f19",
        "ocxPriceOracleAddress()": "07a7147c",
        "onERC721Received(address,address,uint256,bytes)": "150b7a02",
        "pnftAddress()": "a7e3426a",
        "setFee(uint8,uint256)": "8c6aa3f5",
        "setOcatAddress(address)": "b18d30a2",
        "setOcatPrice(uint256)": "bb3f6c6a",
        "setOcxAddress(address)": "0b0c506f",
        "setOcxPriceOracleAddress(address)": "1a5072e7",
        "setPnftAddress(address)": "15f03d22"
    },
    "gasEstimates": {
        "creation": {
            "codeDepositCost": "1277800",
            "executionCost": "infinite",
            "totalCost": "infinite"
        },
        "external": {
            "addAdmin(address)": "infinite",
            "convertToOcat(uint256)": "infinite",
            "exchangeFromOcat(uint256)": "infinite",
            "exchangeToOcat(uint256)": "infinite",
            "getAdmins()": "infinite",
            "getFee(uint8)": "2745",
            "getOcatPrice()": "2816",
            "ocatAddress()": "2393",
            "ocatPrice()": "2406",
            "ocxAddress()": "2414",
            "ocxPriceOracleAddress()": "2350",
            "onERC721Received(address,address,uint256,bytes)": "infinite",
            "pnftAddress()": "2348",
            "setFee(uint8,uint256)": "infinite",
            "setOcatAddress(address)": "infinite",
            "setOcatPrice(uint256)": "infinite",
            "setOcxAddress(address)": "28948",
            "setOcxPriceOracleAddress(address)": "28947",
            "setPnftAddress(address)": "28925"
        }
    }
}