{
    "contractName": "PawnNFTs",
    "abi": [
        {
            "inputs": [],
            "stateMutability": "nonpayable",
            "type": "constructor"
        },
        {
            "anonymous": false,
            "inputs": [
                {
                    "indexed": true,
                    "internalType": "address",
                    "name": "owner",
                    "type": "address"
                },
                {
                    "indexed": true,
                    "internalType": "address",
                    "name": "approved",
                    "type": "address"
                },
                {
                    "indexed": true,
                    "internalType": "uint256",
                    "name": "tokenId",
                    "type": "uint256"
                }
            ],
            "name": "Approval",
            "type": "event"
        },
        {
            "anonymous": false,
            "inputs": [
                {
                    "indexed": true,
                    "internalType": "address",
                    "name": "owner",
                    "type": "address"
                },
                {
                    "indexed": true,
                    "internalType": "address",
                    "name": "operator",
                    "type": "address"
                },
                {
                    "indexed": false,
                    "internalType": "bool",
                    "name": "approved",
                    "type": "bool"
                }
            ],
            "name": "ApprovalForAll",
            "type": "event"
        },
        {
            "anonymous": false,
            "inputs": [
                {
                    "indexed": true,
                    "internalType": "address",
                    "name": "from",
                    "type": "address"
                },
                {
                    "indexed": true,
                    "internalType": "address",
                    "name": "to",
                    "type": "address"
                },
                {
                    "indexed": true,
                    "internalType": "uint256",
                    "name": "tokenId",
                    "type": "uint256"
                }
            ],
            "name": "Transfer",
            "type": "event"
        },
        {
            "inputs": [
                {
                    "internalType": "address",
                    "name": "_admin",
                    "type": "address"
                }
            ],
            "name": "addAdmin",
            "outputs": [],
            "stateMutability": "nonpayable",
            "type": "function"
        },
        {
            "inputs": [
                {
                    "internalType": "uint256",
                    "name": "",
                    "type": "uint256"
                }
            ],
            "name": "allPawnNFTs",
            "outputs": [
                {
                    "internalType": "uint256",
                    "name": "tokenId",
                    "type": "uint256"
                },
                {
                    "internalType": "string",
                    "name": "tokenName",
                    "type": "string"
                },
                {
                    "internalType": "string",
                    "name": "tokenURI",
                    "type": "string"
                },
                {
                    "internalType": "address payable",
                    "name": "currentOwner",
                    "type": "address"
                },
                {
                    "internalType": "address payable",
                    "name": "previousOwner",
                    "type": "address"
                },
                {
                    "internalType": "uint256",
                    "name": "price",
                    "type": "uint256"
                },
                {
                    "internalType": "uint256",
                    "name": "fee",
                    "type": "uint256"
                },
                {
                    "internalType": "uint256",
                    "name": "numberOfTransfers",
                    "type": "uint256"
                },
                {
                    "internalType": "bool",
                    "name": "forSale",
                    "type": "bool"
                }
            ],
            "stateMutability": "view",
            "type": "function"
        },
        {
            "inputs": [
                {
                    "internalType": "address",
                    "name": "to",
                    "type": "address"
                },
                {
                    "internalType": "uint256",
                    "name": "tokenId",
                    "type": "uint256"
                }
            ],
            "name": "approve",
            "outputs": [],
            "stateMutability": "nonpayable",
            "type": "function"
        },
        {
            "inputs": [
                {
                    "internalType": "address",
                    "name": "owner",
                    "type": "address"
                }
            ],
            "name": "balanceOf",
            "outputs": [
                {
                    "internalType": "uint256",
                    "name": "",
                    "type": "uint256"
                }
            ],
            "stateMutability": "view",
            "type": "function"
        },
        {
            "inputs": [
                {
                    "internalType": "uint256",
                    "name": "_tokenId",
                    "type": "uint256"
                }
            ],
            "name": "buyToken",
            "outputs": [],
            "stateMutability": "payable",
            "type": "function"
        },
        {
            "inputs": [
                {
                    "internalType": "uint256",
                    "name": "_tokenId",
                    "type": "uint256"
                },
                {
                    "internalType": "uint256",
                    "name": "_newPrice",
                    "type": "uint256"
                },
                {
                    "internalType": "uint256",
                    "name": "_fee",
                    "type": "uint256"
                }
            ],
            "name": "changeTokenPriceAndFee",
            "outputs": [],
            "stateMutability": "nonpayable",
            "type": "function"
        },
        {
            "inputs": [
                {
                    "internalType": "uint256",
                    "name": "price",
                    "type": "uint256"
                }
            ],
            "name": "convertToOcat",
            "outputs": [
                {
                    "internalType": "uint256",
                    "name": "_ocatPrice",
                    "type": "uint256"
                }
            ],
            "stateMutability": "view",
            "type": "function"
        },
        {
            "inputs": [],
            "name": "decimals",
            "outputs": [
                {
                    "internalType": "uint8",
                    "name": "",
                    "type": "uint8"
                }
            ],
            "stateMutability": "view",
            "type": "function"
        },
        {
            "inputs": [
                {
                    "internalType": "uint256",
                    "name": "_tokenId",
                    "type": "uint256"
                }
            ],
            "name": "exists",
            "outputs": [
                {
                    "internalType": "bool",
                    "name": "tokenExists",
                    "type": "bool"
                }
            ],
            "stateMutability": "view",
            "type": "function"
        },
        {
            "inputs": [],
            "name": "getAdmins",
            "outputs": [
                {
                    "internalType": "address[]",
                    "name": "",
                    "type": "address[]"
                }
            ],
            "stateMutability": "view",
            "type": "function"
        },
        {
            "inputs": [
                {
                    "internalType": "uint256",
                    "name": "tokenId",
                    "type": "uint256"
                }
            ],
            "name": "getApproved",
            "outputs": [
                {
                    "internalType": "address",
                    "name": "",
                    "type": "address"
                }
            ],
            "stateMutability": "view",
            "type": "function"
        },
        {
            "inputs": [
                {
                    "internalType": "enum FeeType",
                    "name": "feeType",
                    "type": "uint8"
                }
            ],
            "name": "getFee",
            "outputs": [
                {
                    "internalType": "uint256",
                    "name": "",
                    "type": "uint256"
                }
            ],
            "stateMutability": "view",
            "type": "function"
        },
        {
            "inputs": [],
            "name": "getOcatPrice",
            "outputs": [
                {
                    "internalType": "uint256",
                    "name": "",
                    "type": "uint256"
                }
            ],
            "stateMutability": "view",
            "type": "function"
        },
        {
            "inputs": [
                {
                    "internalType": "uint256",
                    "name": "_tokenId",
                    "type": "uint256"
                }
            ],
            "name": "getTokenMetaData",
            "outputs": [
                {
                    "internalType": "string",
                    "name": "tokenMetaData",
                    "type": "string"
                }
            ],
            "stateMutability": "view",
            "type": "function"
        },
        {
            "inputs": [
                {
                    "internalType": "uint256",
                    "name": "_tokenId",
                    "type": "uint256"
                }
            ],
            "name": "getTokenOwner",
            "outputs": [
                {
                    "internalType": "address",
                    "name": "",
                    "type": "address"
                }
            ],
            "stateMutability": "view",
            "type": "function"
        },
        {
            "inputs": [
                {
                    "internalType": "address",
                    "name": "owner",
                    "type": "address"
                },
                {
                    "internalType": "address",
                    "name": "operator",
                    "type": "address"
                }
            ],
            "name": "isApprovedForAll",
            "outputs": [
                {
                    "internalType": "bool",
                    "name": "",
                    "type": "bool"
                }
            ],
            "stateMutability": "view",
            "type": "function"
        },
        {
            "inputs": [
                {
                    "internalType": "string",
                    "name": "_name",
                    "type": "string"
                },
                {
                    "internalType": "string",
                    "name": "_tokenURI",
                    "type": "string"
                },
                {
                    "internalType": "uint256",
                    "name": "_price",
                    "type": "uint256"
                }
            ],
            "name": "mint",
            "outputs": [
                {
                    "internalType": "uint256",
                    "name": "newTokenID",
                    "type": "uint256"
                },
                {
                    "internalType": "uint256",
                    "name": "realOcats",
                    "type": "uint256"
                },
                {
                    "internalType": "uint256",
                    "name": "mintFee",
                    "type": "uint256"
                }
            ],
            "stateMutability": "nonpayable",
            "type": "function"
        },
        {
            "inputs": [],
            "name": "name",
            "outputs": [
                {
                    "internalType": "string",
                    "name": "",
                    "type": "string"
                }
            ],
            "stateMutability": "view",
            "type": "function"
        },
        {
            "inputs": [],
            "name": "ocatAddress",
            "outputs": [
                {
                    "internalType": "address payable",
                    "name": "",
                    "type": "address"
                }
            ],
            "stateMutability": "view",
            "type": "function"
        },
        {
            "inputs": [],
            "name": "ocatPrice",
            "outputs": [
                {
                    "internalType": "uint256",
                    "name": "",
                    "type": "uint256"
                }
            ],
            "stateMutability": "view",
            "type": "function"
        },
        {
            "inputs": [],
            "name": "ocxAddress",
            "outputs": [
                {
                    "internalType": "address payable",
                    "name": "",
                    "type": "address"
                }
            ],
            "stateMutability": "view",
            "type": "function"
        },
        {
            "inputs": [],
            "name": "ocxPriceOracleAddress",
            "outputs": [
                {
                    "internalType": "address payable",
                    "name": "",
                    "type": "address"
                }
            ],
            "stateMutability": "view",
            "type": "function"
        },
        {
            "inputs": [
                {
                    "internalType": "uint256",
                    "name": "tokenId",
                    "type": "uint256"
                }
            ],
            "name": "ownerOf",
            "outputs": [
                {
                    "internalType": "address",
                    "name": "",
                    "type": "address"
                }
            ],
            "stateMutability": "view",
            "type": "function"
        },
        {
            "inputs": [],
            "name": "pnftAddress",
            "outputs": [
                {
                    "internalType": "address payable",
                    "name": "",
                    "type": "address"
                }
            ],
            "stateMutability": "view",
            "type": "function"
        },
        {
            "inputs": [
                {
                    "internalType": "address",
                    "name": "from",
                    "type": "address"
                },
                {
                    "internalType": "address",
                    "name": "to",
                    "type": "address"
                },
                {
                    "internalType": "uint256",
                    "name": "tokenId",
                    "type": "uint256"
                }
            ],
            "name": "safeTransferFrom",
            "outputs": [],
            "stateMutability": "nonpayable",
            "type": "function"
        },
        {
            "inputs": [
                {
                    "internalType": "address",
                    "name": "from",
                    "type": "address"
                },
                {
                    "internalType": "address",
                    "name": "to",
                    "type": "address"
                },
                {
                    "internalType": "uint256",
                    "name": "tokenId",
                    "type": "uint256"
                },
                {
                    "internalType": "bytes",
                    "name": "_data",
                    "type": "bytes"
                }
            ],
            "name": "safeTransferFrom",
            "outputs": [],
            "stateMutability": "nonpayable",
            "type": "function"
        },
        {
            "inputs": [
                {
                    "internalType": "address",
                    "name": "operator",
                    "type": "address"
                },
                {
                    "internalType": "bool",
                    "name": "approved",
                    "type": "bool"
                }
            ],
            "name": "setApprovalForAll",
            "outputs": [],
            "stateMutability": "nonpayable",
            "type": "function"
        },
        {
            "inputs": [
                {
                    "internalType": "enum FeeType",
                    "name": "feeType",
                    "type": "uint8"
                },
                {
                    "internalType": "uint256",
                    "name": "feeValue",
                    "type": "uint256"
                }
            ],
            "name": "setFee",
            "outputs": [],
            "stateMutability": "nonpayable",
            "type": "function"
        },
        {
            "inputs": [
                {
                    "internalType": "address payable",
                    "name": "_ocatAddress",
                    "type": "address"
                }
            ],
            "name": "setOcatAddress",
            "outputs": [],
            "stateMutability": "nonpayable",
            "type": "function"
        },
        {
            "inputs": [
                {
                    "internalType": "uint256",
                    "name": "_price",
                    "type": "uint256"
                }
            ],
            "name": "setOcatPrice",
            "outputs": [],
            "stateMutability": "nonpayable",
            "type": "function"
        },
        {
            "inputs": [
                {
                    "internalType": "address payable",
                    "name": "_ocxAddress",
                    "type": "address"
                }
            ],
            "name": "setOcxAddress",
            "outputs": [],
            "stateMutability": "nonpayable",
            "type": "function"
        },
        {
            "inputs": [
                {
                    "internalType": "address payable",
                    "name": "_ocxPriceOracleAddress",
                    "type": "address"
                }
            ],
            "name": "setOcxPriceOracleAddress",
            "outputs": [],
            "stateMutability": "nonpayable",
            "type": "function"
        },
        {
            "inputs": [
                {
                    "internalType": "address payable",
                    "name": "_pnftAddress",
                    "type": "address"
                }
            ],
            "name": "setPnftAddress",
            "outputs": [],
            "stateMutability": "nonpayable",
            "type": "function"
        },
        {
            "inputs": [
                {
                    "internalType": "bytes4",
                    "name": "interfaceId",
                    "type": "bytes4"
                }
            ],
            "name": "supportsInterface",
            "outputs": [
                {
                    "internalType": "bool",
                    "name": "",
                    "type": "bool"
                }
            ],
            "stateMutability": "view",
            "type": "function"
        },
        {
            "inputs": [],
            "name": "symbol",
            "outputs": [
                {
                    "internalType": "string",
                    "name": "",
                    "type": "string"
                }
            ],
            "stateMutability": "view",
            "type": "function"
        },
        {
            "inputs": [
                {
                    "internalType": "uint256",
                    "name": "_tokenId",
                    "type": "uint256"
                }
            ],
            "name": "toggleForSale",
            "outputs": [],
            "stateMutability": "nonpayable",
            "type": "function"
        },
        {
            "inputs": [
                {
                    "internalType": "string",
                    "name": "",
                    "type": "string"
                }
            ],
            "name": "tokenNameExists",
            "outputs": [
                {
                    "internalType": "bool",
                    "name": "",
                    "type": "bool"
                }
            ],
            "stateMutability": "view",
            "type": "function"
        },
        {
            "inputs": [
                {
                    "internalType": "uint256",
                    "name": "tokenId",
                    "type": "uint256"
                }
            ],
            "name": "tokenURI",
            "outputs": [
                {
                    "internalType": "string",
                    "name": "",
                    "type": "string"
                }
            ],
            "stateMutability": "view",
            "type": "function"
        },
        {
            "inputs": [
                {
                    "internalType": "string",
                    "name": "",
                    "type": "string"
                }
            ],
            "name": "tokenURIExists",
            "outputs": [
                {
                    "internalType": "uint256",
                    "name": "",
                    "type": "uint256"
                }
            ],
            "stateMutability": "view",
            "type": "function"
        },
        {
            "inputs": [
                {
                    "internalType": "address",
                    "name": "from",
                    "type": "address"
                },
                {
                    "internalType": "address",
                    "name": "to",
                    "type": "address"
                },
                {
                    "internalType": "uint256",
                    "name": "tokenId",
                    "type": "uint256"
                }
            ],
            "name": "transferFrom",
            "outputs": [],
            "stateMutability": "nonpayable",
            "type": "function"
        },
        {
            "stateMutability": "payable",
            "type": "receive"
        }
    ],
    "bytecode": "6080604052600f805460ff191690553480156200001b57600080fd5b50604080518082018252601581527f4f70656e636861696e205061776e696e67204e465400000000000000000000006020808301918252835180850190945260048452631413919560e21b9084015281519192916200007d916000916200032f565b508051620000939060019060208401906200032f565b5050600780546001600160a01b03191633908117909155620000b6915062000113565b6064600955600860208190527f5eff886ea0ce6ca488a3d6e336d6c0f75f46d19b42c06ce5ee98e42c96d256c781905560016000527fad67d757c34507f157cacfa2e3153e9f260a2244f30428821be7be64587ac55f5562000455565b6007546001600160a01b0316620001715760405162461bcd60e51b815260206004820152601760248201527f496e76616c69642063726561746f72206164647265737300000000000000000060448201526064015b60405180910390fd5b6007546001600160a01b03163314620001cd5760405162461bcd60e51b815260206004820152601e60248201527f466f722063616c6c65722065787065637465642062652063726561746f720000604482015260640162000168565b806001600160a01b038116620002265760405162461bcd60e51b815260206004820152601960248201527f4578706563746564206e6f6e2d7a65726f206164647265737300000000000000604482015260640162000168565b6006805410620002795760405162461bcd60e51b815260206004820152601360248201527f41646d696e2067726f75702069732066756c6c00000000000000000000000000604482015260640162000168565b60005b60065460ff82161015620002dd5760068160ff1681548110620002a357620002a3620003d5565b6000918252602090912001546001600160a01b0390811690841603620002c857505050565b80620002d481620003eb565b9150506200027c565b50600680546001810182556000919091527ff652222313e28459528d920b65115c16c04f3efc82aaedc97be59f3f377c0d3f0180546001600160a01b0384166001600160a01b03199091161790555050565b8280546200033d9062000419565b90600052602060002090601f016020900481019282620003615760008555620003ac565b82601f106200037c57805160ff1916838001178555620003ac565b82800160010185558215620003ac579182015b82811115620003ac5782518255916020019190600101906200038f565b50620003ba929150620003be565b5090565b5b80821115620003ba5760008155600101620003bf565b634e487b7160e01b600052603260045260246000fd5b600060ff821660ff81036200041057634e487b7160e01b600052601160045260246000fd5b60010192915050565b600181811c908216806200042e57607f821691505b6020821081036200044f57634e487b7160e01b600052602260045260246000fd5b50919050565b612ea580620004656000396000f3fe60806040526004361061023f5760003560e01c806370a082311161012e578063a7e3426a116100ab578063c87b56dd1161006f578063c87b56dd14610713578063d16a0f1914610733578063d41d9a2714610753578063dbcd95801461078e578063e985e9c5146107ae57600080fd5b8063a7e3426a14610673578063b18d30a214610693578063b628c897146106b3578063b88d4fde146106d3578063bb3f6c6a146106f357600080fd5b8063a22cb465116100f2578063a22cb465146105c2578063a32018b9146105e2578063a46b1fac14610602578063a5cd761f1461063d578063a7d9cfbc1461065d57600080fd5b806370a0823114610518578063717947b1146105385780637524ba581461056d5780638c6aa3f51461058d57806395d89b41146105ad57600080fd5b80632d296bf1116101bc57806343d32ae71161018057806343d32ae7146104605780634f558e79146104985780636352211e146104b857806367c623cf146104d857806370480275146104f857600080fd5b80632d296bf1146103ca578063313ce567146103dd57806331ae450b146104095780633214e1a91461042b57806342842e0e1461044057600080fd5b8063095ea7b311610203578063095ea7b3146103285780630b0c506f1461034a57806315f03d221461036a5780631a5072e71461038a57806323b872dd146103aa57600080fd5b806301ffc9a71461024b57806306fdde031461028057806307a7147c146102a2578063081812fc146102da578063083132c4146102fa57600080fd5b3661024657005b600080fd5b34801561025757600080fd5b5061026b6102663660046124fe565b6107ce565b60405190151581526020015b60405180910390f35b34801561028c57600080fd5b50610295610820565b6040516102779190612573565b3480156102ae57600080fd5b50600d546102c2906001600160a01b031681565b6040516001600160a01b039091168152602001610277565b3480156102e657600080fd5b506102c26102f5366004612586565b6108b2565b34801561030657600080fd5b5061031a6103153660046125b3565b61093f565b604051908152602001610277565b34801561033457600080fd5b506103486103433660046125e3565b6109ef565b005b34801561035657600080fd5b5061034861036536600461260f565b610b04565b34801561037657600080fd5b5061034861038536600461260f565b610ba0565b34801561039657600080fd5b506103486103a536600461260f565b610c3c565b3480156103b657600080fd5b506103486103c536600461262c565b610cd8565b6103486103d8366004612586565b610d09565b3480156103e957600080fd5b50600f546103f79060ff1681565b60405160ff9091168152602001610277565b34801561041557600080fd5b5061041e610e65565b604051610277919061266d565b34801561043757600080fd5b5061031a610ec6565b34801561044c57600080fd5b5061034861045b36600461262c565b610ee6565b34801561046c57600080fd5b5061031a61047b366004612766565b805160208183018101805160128252928201919093012091525481565b3480156104a457600080fd5b5061026b6104b3366004612586565b610f01565b3480156104c457600080fd5b506102c26104d3366004612586565b610f0c565b3480156104e457600080fd5b506102956104f3366004612586565b610f83565b34801561050457600080fd5b5061034861051336600461260f565b610f8e565b34801561052457600080fd5b5061031a61053336600461260f565b6110fb565b34801561054457600080fd5b50610558610553366004612586565b611182565b6040516102779998979695949392919061279b565b34801561057957600080fd5b50600a546102c2906001600160a01b031681565b34801561059957600080fd5b506103486105a8366004612809565b6112ec565b3480156105b957600080fd5b506102956113c2565b3480156105ce57600080fd5b506103486105dd366004612825565b6113d1565b3480156105ee57600080fd5b506103486105fd366004612586565b6113dc565b34801561060e57600080fd5b5061026b61061d366004612766565b805160208183018101805160118252928201919093012091525460ff1681565b34801561064957600080fd5b506102c2610658366004612586565b611481565b34801561066957600080fd5b5061031a60095481565b34801561067f57600080fd5b50600c546102c2906001600160a01b031681565b34801561069f57600080fd5b506103486106ae36600461260f565b61148c565b3480156106bf57600080fd5b506103486106ce366004612863565b6115c1565b3480156106df57600080fd5b506103486106ee36600461288f565b611677565b3480156106ff57600080fd5b5061034861070e366004612586565b6116af565b34801561071f57600080fd5b5061029561072e366004612586565b61178d565b34801561073f57600080fd5b50600b546102c2906001600160a01b031681565b34801561075f57600080fd5b5061077361076e36600461290f565b611865565b60408051938452602084019290925290820152606001610277565b34801561079a57600080fd5b5061031a6107a9366004612586565b611b8f565b3480156107ba57600080fd5b5061026b6107c936600461297c565b611bb5565b60006001600160e01b031982166380ac58cd60e01b14806107ff57506001600160e01b03198216635b5e139f60e01b145b8061081a57506301ffc9a760e01b6001600160e01b03198316145b92915050565b60606000805461082f906129aa565b80601f016020809104026020016040519081016040528092919081815260200182805461085b906129aa565b80156108a85780601f1061087d576101008083540402835291602001916108a8565b820191906000526020600020905b81548152906001019060200180831161088b57829003601f168201915b5050505050905090565b60006108bd82611be3565b6109235760405162461bcd60e51b815260206004820152602c60248201527f4552433732313a20617070726f76656420717565727920666f72206e6f6e657860448201526b34b9ba32b73a103a37b5b2b760a11b60648201526084015b60405180910390fd5b506000908152600460205260409020546001600160a01b031690565b600080826002811115610954576109546129e4565b11801561097357506002826002811115610970576109706129e4565b11155b6109b25760405162461bcd60e51b815260206004820152601060248201526f496e76616c696420666565207479706560801b604482015260640161091a565b600860008360028111156109c8576109c86129e4565b60028111156109d9576109d96129e4565b8152602001908152602001600020549050919050565b60006109fa82610f0c565b9050806001600160a01b0316836001600160a01b031603610a675760405162461bcd60e51b815260206004820152602160248201527f4552433732313a20617070726f76616c20746f2063757272656e74206f776e656044820152603960f91b606482015260840161091a565b336001600160a01b0382161480610a835750610a838133611bb5565b610af55760405162461bcd60e51b815260206004820152603860248201527f4552433732313a20617070726f76652063616c6c6572206973206e6f74206f7760448201527f6e6572206e6f7220617070726f76656420666f7220616c6c0000000000000000606482015260840161091a565b610aff8383611c00565b505050565b6007546001600160a01b0316610b2c5760405162461bcd60e51b815260040161091a906129fa565b6007546001600160a01b03163314610b565760405162461bcd60e51b815260040161091a90612a31565b806001600160a01b038116610b7d5760405162461bcd60e51b815260040161091a90612a68565b50600b80546001600160a01b0319166001600160a01b0392909216919091179055565b6007546001600160a01b0316610bc85760405162461bcd60e51b815260040161091a906129fa565b6007546001600160a01b03163314610bf25760405162461bcd60e51b815260040161091a90612a31565b806001600160a01b038116610c195760405162461bcd60e51b815260040161091a90612a68565b50600c80546001600160a01b0319166001600160a01b0392909216919091179055565b6007546001600160a01b0316610c645760405162461bcd60e51b815260040161091a906129fa565b6007546001600160a01b03163314610c8e5760405162461bcd60e51b815260040161091a90612a31565b806001600160a01b038116610cb55760405162461bcd60e51b815260040161091a90612a68565b50600d80546001600160a01b0319166001600160a01b0392909216919091179055565b610ce23382611c6e565b610cfe5760405162461bcd60e51b815260040161091a90612a9f565b610aff838383611d38565b33610d265760405162461bcd60e51b815260040161091a90612a68565b600081815260106020526040902060050154341015610d6d5760405162461bcd60e51b815260206004820152600360248201526216989960e91b604482015260640161091a565b60008181526010602052604090206008015460ff16610db45760405162461bcd60e51b81526020600482015260036024820152622d313360e81b604482015260640161091a565b610dc7610dc082610f0c565b3383611d38565b6000818152601060205260408082206003015490516001600160a01b03909116913480156108fc02929091818181858888f19350505050158015610e0f573d6000803e3d6000fd5b5060008181526010602052604081206003810180546004830180546001600160a01b03199081166001600160a01b038416179091551633179055600701805460019290610e5d908490612b06565b909155505050565b606060068054806020026020016040519081016040528092919081815260200182805480156108a857602002820191906000526020600020905b81546001600160a01b03168152600190910190602001808311610e9f575050505050905090565b6000610ed46002600a612c02565b600954610ee19190612c27565b905090565b610aff83838360405180602001604052806000815250611677565b600061081a82611be3565b6000818152600260205260408120546001600160a01b03168061081a5760405162461bcd60e51b815260206004820152602960248201527f4552433732313a206f776e657220717565727920666f72206e6f6e657869737460448201526832b73a103a37b5b2b760b91b606482015260840161091a565b606061081a8261178d565b6007546001600160a01b0316610fb65760405162461bcd60e51b815260040161091a906129fa565b6007546001600160a01b03163314610fe05760405162461bcd60e51b815260040161091a90612a31565b806001600160a01b0381166110075760405162461bcd60e51b815260040161091a90612a68565b600680541061104e5760405162461bcd60e51b815260206004820152601360248201527210591b5a5b8819dc9bdd5c081a5cc8199d5b1b606a1b604482015260640161091a565b60005b60065460ff821610156110aa5760068160ff168154811061107457611074612c3b565b6000918252602090912001546001600160a01b039081169084160361109857505050565b806110a281612c51565b915050611051565b50600680546001810182556000919091527ff652222313e28459528d920b65115c16c04f3efc82aaedc97be59f3f377c0d3f0180546001600160a01b0319166001600160a01b0384161790555b5050565b60006001600160a01b0382166111665760405162461bcd60e51b815260206004820152602a60248201527f4552433732313a2062616c616e636520717565727920666f7220746865207a65604482015269726f206164647265737360b01b606482015260840161091a565b506001600160a01b031660009081526003602052604090205490565b601060205260009081526040902080546001820180549192916111a4906129aa565b80601f01602080910402602001604051908101604052809291908181526020018280546111d0906129aa565b801561121d5780601f106111f25761010080835404028352916020019161121d565b820191906000526020600020905b81548152906001019060200180831161120057829003601f168201915b505050505090806002018054611232906129aa565b80601f016020809104026020016040519081016040528092919081815260200182805461125e906129aa565b80156112ab5780601f10611280576101008083540402835291602001916112ab565b820191906000526020600020905b81548152906001019060200180831161128e57829003601f168201915b5050506003840154600485015460058601546006870154600788015460089098015496976001600160a01b0394851697939094169550909350919060ff1689565b336113095760405162461bcd60e51b815260040161091a906129fa565b6000805b60065460ff821610156113665760068160ff168154811061133057611330612c3b565b6000918252602090912001546001600160a01b031633036113545760019150611366565b8061135e81612c51565b91505061130d565b50806113845760405162461bcd60e51b815260040161091a90612c70565b816008600085600281111561139b5761139b6129e4565b60028111156113ac576113ac6129e4565b8152602081019190915260400160002055505050565b60606001805461082f906129aa565b6110f7338383611eda565b806113e681611be3565b6114175760405162461bcd60e51b81526020600482015260026024820152612d3960f01b604482015260640161091a565b3361142182610f0c565b6001600160a01b03161461145d5760405162461bcd60e51b81526020600482015260036024820152622d313160e81b604482015260640161091a565b506000908152601060205260409020600801805460ff19811660ff90911615179055565b600061081a82610f0c565b6007546001600160a01b03166114b45760405162461bcd60e51b815260040161091a906129fa565b6007546001600160a01b031633146114de5760405162461bcd60e51b815260040161091a90612a31565b806001600160a01b0381166115055760405162461bcd60e51b815260040161091a90612a68565b336115225760405162461bcd60e51b815260040161091a906129fa565b6000805b60065460ff8216101561157f5760068160ff168154811061154957611549612c3b565b6000918252602090912001546001600160a01b0316330361156d576001915061157f565b8061157781612c51565b915050611526565b508061159d5760405162461bcd60e51b815260040161091a90612c70565b5050600a80546001600160a01b0319166001600160a01b0392909216919091179055565b336115de5760405162461bcd60e51b815260040161091a906129fa565b6000805b60065460ff8216101561163b5760068160ff168154811061160557611605612c3b565b6000918252602090912001546001600160a01b03163303611629576001915061163b565b8061163381612c51565b9150506115e2565b50806116595760405162461bcd60e51b815260040161091a90612c70565b50600092835260106020526040909220600581019190915560060155565b6116813383611c6e565b61169d5760405162461bcd60e51b815260040161091a90612a9f565b6116a984848484611fa8565b50505050565b336116cc5760405162461bcd60e51b815260040161091a906129fa565b6000805b60065460ff821610156117295760068160ff16815481106116f3576116f3612c3b565b6000918252602090912001546001600160a01b031633036117175760019150611729565b8061172181612c51565b9150506116d0565b50806117475760405162461bcd60e51b815260040161091a90612c70565b600082116117875760405162461bcd60e51b815260206004820152600d60248201526c496e76616c696420707269636560981b604482015260640161091a565b50600955565b606061179882611be3565b6117fc5760405162461bcd60e51b815260206004820152602f60248201527f4552433732314d657461646174613a2055524920717565727920666f72206e6f60448201526e3732bc34b9ba32b73a103a37b5b2b760891b606482015260840161091a565b600061181360408051602081019091526000815290565b90506000815111611833576040518060200160405280600081525061185e565b8061183d84611fdb565b60405160200161184e929190612ca7565b6040516020818303038152906040525b9392505050565b60008080336118865760405162461bcd60e51b815260040161091a90612a68565b600e805490600061189683612cd6565b9190505550600e5492506118a983611be3565b156118db5760405162461bcd60e51b81526020600482015260026024820152610b4d60f21b604482015260640161091a565b6012856040516118eb9190612cef565b90815260200160405180910390205460001461192e5760405162461bcd60e51b81526020600482015260026024820152612d3560f01b604482015260640161091a565b60118660405161193e9190612cef565b9081526040519081900360200190205460ff16156119835760405162461bcd60e51b8152602060048201526002602482015261169b60f11b604482015260640161091a565b61198d33846120dc565b8260128660405161199e9190612cef565b90815260200160405180910390208190555060016011876040516119c29190612cef565b90815260408051918290036020018220805493151560ff1990941693909317909255600d546303f515c760e51b8252825160009384936001600160a01b0390931692637ea2b8e092600480830193928290030181865afa158015611a2a573d6000803e3d6000fd5b505050506040513d601f19601f82011682018060405250810190611a4e9190612d23565b9092509050611a6f611a608284612d56565b67ffffffffffffffff16611b8f565b9250611a7e6107a98488612d79565b604080516101208101825287815260208082018c81528284018c905233606084015260006080840181905260a0840186905260c0840189905260e08401819052600161010085018190528b825260108452949020835181559051805195995092949093611af09390850192019061244c565b5060408201518051611b0c91600284019160209091019061244c565b5060608201516003820180546001600160a01b039283166001600160a01b031991821617909155608084015160048401805491909316911617905560a0820151600582015560c0820151600682015560e08201516007820155610100909101516008909101805491151560ff199092169190911790555092969195509350915050565b6000611b9d6002600a612c02565b82600954611bab9190612d90565b61081a9190612c27565b6001600160a01b03918216600090815260056020908152604080832093909416825291909152205460ff1690565b6000908152600260205260409020546001600160a01b0316151590565b600081815260046020526040902080546001600160a01b0319166001600160a01b0384169081179091558190611c3582610f0c565b6001600160a01b03167f8c5be1e5ebec7d5bd14f71427d1e84f3dd0314c0f7b2291e5b200ac8c7c3b92560405160405180910390a45050565b6000611c7982611be3565b611cda5760405162461bcd60e51b815260206004820152602c60248201527f4552433732313a206f70657261746f7220717565727920666f72206e6f6e657860448201526b34b9ba32b73a103a37b5b2b760a11b606482015260840161091a565b6000611ce583610f0c565b9050806001600160a01b0316846001600160a01b03161480611d205750836001600160a01b0316611d15846108b2565b6001600160a01b0316145b80611d305750611d308185611bb5565b949350505050565b826001600160a01b0316611d4b82610f0c565b6001600160a01b031614611daf5760405162461bcd60e51b815260206004820152602560248201527f4552433732313a207472616e736665722066726f6d20696e636f72726563742060448201526437bbb732b960d91b606482015260840161091a565b6001600160a01b038216611e115760405162461bcd60e51b8152602060048201526024808201527f4552433732313a207472616e7366657220746f20746865207a65726f206164646044820152637265737360e01b606482015260840161091a565b611e1c600082611c00565b6001600160a01b0383166000908152600360205260408120805460019290611e45908490612d79565b90915550506001600160a01b0382166000908152600360205260408120805460019290611e73908490612b06565b909155505060008181526002602052604080822080546001600160a01b0319166001600160a01b0386811691821790925591518493918716917fddf252ad1be2c89b69c2b068fc378daa952ba7f163c4a11628f55a4df523b3ef91a4610aff8383836120f6565b816001600160a01b0316836001600160a01b031603611f3b5760405162461bcd60e51b815260206004820152601960248201527f4552433732313a20617070726f766520746f2063616c6c657200000000000000604482015260640161091a565b6001600160a01b03838116600081815260056020908152604080832094871680845294825291829020805460ff191686151590811790915591519182527f17307eab39ab6107e8899845ad3d59bd9653f200f220920489ca2b5937696c31910160405180910390a3505050565b611fb3848484611d38565b611fbf848484846121dd565b6116a95760405162461bcd60e51b815260040161091a90612daf565b6060816000036120025750506040805180820190915260018152600360fc1b602082015290565b8160005b811561202c578061201681612cd6565b91506120259050600a83612c27565b9150612006565b60008167ffffffffffffffff811115612047576120476126ba565b6040519080825280601f01601f191660200182016040528015612071576020820181803683370190505b5090505b8415611d3057612086600183612d79565b9150612093600a86612e01565b61209e906030612b06565b60f81b8183815181106120b3576120b3612c3b565b60200101906001600160f81b031916908160001a9053506120d5600a86612c27565b9450612075565b6110f78282604051806020016040528060008152506122de565b816001600160a01b031661210982610f0c565b6001600160a01b0316146121455760405162461bcd60e51b81526020600482015260036024820152620b4c4d60ea1b604482015260640161091a565b6001600160a01b0382166121815760405162461bcd60e51b81526020600482015260036024820152622d313560e81b604482015260640161091a565b60008181526010602052604081206003810180546004830180546001600160a01b038084166001600160a01b0319928316179092559091169086161790556007018054600192906121d3908490612b06565b9091555050505050565b60006001600160a01b0384163b156122d357604051630a85bd0160e11b81526001600160a01b0385169063150b7a0290612221903390899088908890600401612e15565b6020604051808303816000875af192505050801561225c575060408051601f3d908101601f1916820190925261225991810190612e52565b60015b6122b9573d80801561228a576040519150601f19603f3d011682016040523d82523d6000602084013e61228f565b606091505b5080516000036122b15760405162461bcd60e51b815260040161091a90612daf565b805181602001fd5b6001600160e01b031916630a85bd0160e11b149050611d30565b506001949350505050565b6122e88383612311565b6122f560008484846121dd565b610aff5760405162461bcd60e51b815260040161091a90612daf565b6001600160a01b0382166123675760405162461bcd60e51b815260206004820181905260248201527f4552433732313a206d696e7420746f20746865207a65726f2061646472657373604482015260640161091a565b61237081611be3565b156123bd5760405162461bcd60e51b815260206004820152601c60248201527f4552433732313a20746f6b656e20616c7265616479206d696e74656400000000604482015260640161091a565b6001600160a01b03821660009081526003602052604081208054600192906123e6908490612b06565b909155505060008181526002602052604080822080546001600160a01b0319166001600160a01b03861690811790915590518392907fddf252ad1be2c89b69c2b068fc378daa952ba7f163c4a11628f55a4df523b3ef908290a46110f7600083836120f6565b828054612458906129aa565b90600052602060002090601f01602090048101928261247a57600085556124c0565b82601f1061249357805160ff19168380011785556124c0565b828001600101855582156124c0579182015b828111156124c05782518255916020019190600101906124a5565b506124cc9291506124d0565b5090565b5b808211156124cc57600081556001016124d1565b6001600160e01b0319811681146124fb57600080fd5b50565b60006020828403121561251057600080fd5b813561185e816124e5565b60005b8381101561253657818101518382015260200161251e565b838111156116a95750506000910152565b6000815180845261255f81602086016020860161251b565b601f01601f19169290920160200192915050565b60208152600061185e6020830184612547565b60006020828403121561259857600080fd5b5035919050565b8035600381106125ae57600080fd5b919050565b6000602082840312156125c557600080fd5b61185e8261259f565b6001600160a01b03811681146124fb57600080fd5b600080604083850312156125f657600080fd5b8235612601816125ce565b946020939093013593505050565b60006020828403121561262157600080fd5b813561185e816125ce565b60008060006060848603121561264157600080fd5b833561264c816125ce565b9250602084013561265c816125ce565b929592945050506040919091013590565b6020808252825182820181905260009190848201906040850190845b818110156126ae5783516001600160a01b031683529284019291840191600101612689565b50909695505050505050565b634e487b7160e01b600052604160045260246000fd5b600067ffffffffffffffff808411156126eb576126eb6126ba565b604051601f8501601f19908116603f01168101908282118183101715612713576127136126ba565b8160405280935085815286868601111561272c57600080fd5b858560208301376000602087830101525050509392505050565b600082601f83011261275757600080fd5b61185e838335602085016126d0565b60006020828403121561277857600080fd5b813567ffffffffffffffff81111561278f57600080fd5b611d3084828501612746565b60006101208b83528060208401526127b58184018c612547565b905082810360408401526127c9818b612547565b6001600160a01b03998a1660608501529790981660808301525060a081019490945260c084019290925260e0830152151561010090910152949350505050565b6000806040838503121561281c57600080fd5b6126018361259f565b6000806040838503121561283857600080fd5b8235612843816125ce565b91506020830135801515811461285857600080fd5b809150509250929050565b60008060006060848603121561287857600080fd5b505081359360208301359350604090920135919050565b600080600080608085870312156128a557600080fd5b84356128b0816125ce565b935060208501356128c0816125ce565b925060408501359150606085013567ffffffffffffffff8111156128e357600080fd5b8501601f810187136128f457600080fd5b612903878235602084016126d0565b91505092959194509250565b60008060006060848603121561292457600080fd5b833567ffffffffffffffff8082111561293c57600080fd5b61294887838801612746565b9450602086013591508082111561295e57600080fd5b5061296b86828701612746565b925050604084013590509250925092565b6000806040838503121561298f57600080fd5b823561299a816125ce565b91506020830135612858816125ce565b600181811c908216806129be57607f821691505b6020821081036129de57634e487b7160e01b600052602260045260246000fd5b50919050565b634e487b7160e01b600052602160045260246000fd5b60208082526017908201527f496e76616c69642063726561746f722061646472657373000000000000000000604082015260600190565b6020808252601e908201527f466f722063616c6c65722065787065637465642062652063726561746f720000604082015260600190565b60208082526019908201527f4578706563746564206e6f6e2d7a65726f206164647265737300000000000000604082015260600190565b60208082526031908201527f4552433732313a207472616e736665722063616c6c6572206973206e6f74206f6040820152701ddb995c881b9bdc88185c1c1c9bdd9959607a1b606082015260800190565b634e487b7160e01b600052601160045260246000fd5b60008219821115612b1957612b19612af0565b500190565b600181815b80851115612b59578160001904821115612b3f57612b3f612af0565b80851615612b4c57918102915b93841c9390800290612b23565b509250929050565b600082612b705750600161081a565b81612b7d5750600061081a565b8160018114612b935760028114612b9d57612bb9565b600191505061081a565b60ff841115612bae57612bae612af0565b50506001821b61081a565b5060208310610133831016604e8410600b8410161715612bdc575081810a61081a565b612be68383612b1e565b8060001904821115612bfa57612bfa612af0565b029392505050565b600061185e60ff841683612b61565b634e487b7160e01b600052601260045260246000fd5b600082612c3657612c36612c11565b500490565b634e487b7160e01b600052603260045260246000fd5b600060ff821660ff8103612c6757612c67612af0565b60010192915050565b6020808252601d908201527f496e76616c69642063616c6c65722e204d7573742062652061646d696e000000604082015260600190565b60008351612cb981846020880161251b565b835190830190612ccd81836020880161251b565b01949350505050565b600060018201612ce857612ce8612af0565b5060010190565b60008251612d0181846020870161251b565b9190910192915050565b805167ffffffffffffffff811681146125ae57600080fd5b60008060408385031215612d3657600080fd5b612d3f83612d0b565b9150612d4d60208401612d0b565b90509250929050565b600067ffffffffffffffff808316818516808303821115612ccd57612ccd612af0565b600082821015612d8b57612d8b612af0565b500390565b6000816000190483118215151615612daa57612daa612af0565b500290565b60208082526032908201527f4552433732313a207472616e7366657220746f206e6f6e20455243373231526560408201527131b2b4bb32b91034b6b83632b6b2b73a32b960711b606082015260800190565b600082612e1057612e10612c11565b500690565b6001600160a01b0385811682528416602082015260408101839052608060608201819052600090612e4890830184612547565b9695505050505050565b600060208284031215612e6457600080fd5b815161185e816124e556fea2646970667358221220c0af38820576657654c0ff8110c40aeafe3dae5227f618ad00be1102bed1778064736f6c634300080d0033",
    "sourcePath": "/home/cowboy/OCX/OpenchainTestVersion/server/contracts/PawnNFTs.sol",
    "compiler": {
        "name": "solc",
        "version": "0.8.13+commit.abaa5c0e"
    },
    "functionHashes": {
        "addAdmin(address)": "70480275",
        "allPawnNFTs(uint256)": "717947b1",
        "approve(address,uint256)": "095ea7b3",
        "balanceOf(address)": "70a08231",
        "buyToken(uint256)": "2d296bf1",
        "changeTokenPriceAndFee(uint256,uint256,uint256)": "b628c897",
        "convertToOcat(uint256)": "dbcd9580",
        "decimals()": "313ce567",
        "exists(uint256)": "4f558e79",
        "getAdmins()": "31ae450b",
        "getApproved(uint256)": "081812fc",
        "getFee(uint8)": "083132c4",
        "getOcatPrice()": "3214e1a9",
        "getTokenMetaData(uint256)": "67c623cf",
        "getTokenOwner(uint256)": "a5cd761f",
        "isApprovedForAll(address,address)": "e985e9c5",
        "mint(string,string,uint256)": "d41d9a27",
        "name()": "06fdde03",
        "ocatAddress()": "7524ba58",
        "ocatPrice()": "a7d9cfbc",
        "ocxAddress()": "d16a0f19",
        "ocxPriceOracleAddress()": "07a7147c",
        "ownerOf(uint256)": "6352211e",
        "pnftAddress()": "a7e3426a",
        "safeTransferFrom(address,address,uint256)": "42842e0e",
        "safeTransferFrom(address,address,uint256,bytes)": "b88d4fde",
        "setApprovalForAll(address,bool)": "a22cb465",
        "setFee(uint8,uint256)": "8c6aa3f5",
        "setOcatAddress(address)": "b18d30a2",
        "setOcatPrice(uint256)": "bb3f6c6a",
        "setOcxAddress(address)": "0b0c506f",
        "setOcxPriceOracleAddress(address)": "1a5072e7",
        "setPnftAddress(address)": "15f03d22",
        "supportsInterface(bytes4)": "01ffc9a7",
        "symbol()": "95d89b41",
        "toggleForSale(uint256)": "a32018b9",
        "tokenNameExists(string)": "a46b1fac",
        "tokenURI(uint256)": "c87b56dd",
        "tokenURIExists(string)": "43d32ae7",
        "transferFrom(address,address,uint256)": "23b872dd"
    },
    "gasEstimates": {
        "creation": {
            "codeDepositCost": "2388200",
            "executionCost": "infinite",
            "totalCost": "infinite"
        },
        "external": {
            "addAdmin(address)": "infinite",
            "allPawnNFTs(uint256)": "infinite",
            "approve(address,uint256)": "infinite",
            "balanceOf(address)": "2629",
            "buyToken(uint256)": "infinite",
            "changeTokenPriceAndFee(uint256,uint256,uint256)": "infinite",
            "convertToOcat(uint256)": "infinite",
            "decimals()": "2381",
            "exists(uint256)": "2576",
            "getAdmins()": "infinite",
            "getApproved(uint256)": "4844",
            "getFee(uint8)": "2834",
            "getOcatPrice()": "2817",
            "getTokenMetaData(uint256)": "infinite",
            "getTokenOwner(uint256)": "infinite",
            "isApprovedForAll(address,address)": "infinite",
            "mint(string,string,uint256)": "infinite",
            "name()": "infinite",
            "ocatAddress()": "2427",
            "ocatPrice()": "2428",
            "ocxAddress()": "2403",
            "ocxPriceOracleAddress()": "2428",
            "ownerOf(uint256)": "2645",
            "pnftAddress()": "2382",
            "safeTransferFrom(address,address,uint256)": "infinite",
            "safeTransferFrom(address,address,uint256,bytes)": "infinite",
            "setApprovalForAll(address,bool)": "26722",
            "setFee(uint8,uint256)": "infinite",
            "setOcatAddress(address)": "infinite",
            "setOcatPrice(uint256)": "infinite",
            "setOcxAddress(address)": "28948",
            "setOcxPriceOracleAddress(address)": "28992",
            "setPnftAddress(address)": "28970",
            "supportsInterface(bytes4)": "557",
            "symbol()": "infinite",
            "toggleForSale(uint256)": "29119",
            "tokenNameExists(string)": "infinite",
            "tokenURI(uint256)": "infinite",
            "tokenURIExists(string)": "infinite",
            "transferFrom(address,address,uint256)": "infinite"
        },
        "internal": {
            "_afterTokenTransfer(address,address,uint256)": "infinite"
        }
    }
}