{
  "contractName": "OcatToken",
  "abi": [
    {
      "inputs": [],
      "stateMutability": "nonpayable",
      "type": "constructor"
    },
    {
      "anonymous": false,
      "inputs": [
        {
          "indexed": true,
          "internalType": "address",
          "name": "owner",
          "type": "address"
        },
        {
          "indexed": true,
          "internalType": "address",
          "name": "spender",
          "type": "address"
        },
        {
          "indexed": false,
          "internalType": "uint256",
          "name": "value",
          "type": "uint256"
        }
      ],
      "name": "Approval",
      "type": "event"
    },
    {
      "anonymous": false,
      "inputs": [
        {
          "indexed": true,
          "internalType": "address",
          "name": "from",
          "type": "address"
        },
        {
          "indexed": true,
          "internalType": "address",
          "name": "to",
          "type": "address"
        },
        {
          "indexed": false,
          "internalType": "uint256",
          "name": "value",
          "type": "uint256"
        }
      ],
      "name": "Transfer",
      "type": "event"
    },
    {
      "inputs": [
        {
          "internalType": "address",
          "name": "owner",
          "type": "address"
        },
        {
          "internalType": "address",
          "name": "spender",
          "type": "address"
        }
      ],
      "name": "allowance",
      "outputs": [
        {
          "internalType": "uint256",
          "name": "",
          "type": "uint256"
        }
      ],
      "stateMutability": "view",
      "type": "function"
    },
    {
      "inputs": [
        {
          "internalType": "address",
          "name": "spender",
          "type": "address"
        },
        {
          "internalType": "uint256",
          "name": "amount",
          "type": "uint256"
        }
      ],
      "name": "approve",
      "outputs": [
        {
          "internalType": "bool",
          "name": "",
          "type": "bool"
        }
      ],
      "stateMutability": "nonpayable",
      "type": "function"
    },
    {
      "inputs": [
        {
          "internalType": "address",
          "name": "account",
          "type": "address"
        }
      ],
      "name": "balanceOf",
      "outputs": [
        {
          "internalType": "uint256",
          "name": "",
          "type": "uint256"
        }
      ],
      "stateMutability": "view",
      "type": "function"
    },
    {
      "inputs": [],
      "name": "decimals",
      "outputs": [
        {
          "internalType": "uint8",
          "name": "",
          "type": "uint8"
        }
      ],
      "stateMutability": "view",
      "type": "function"
    },
    {
      "inputs": [
        {
          "internalType": "address",
          "name": "spender",
          "type": "address"
        },
        {
          "internalType": "uint256",
          "name": "subtractedValue",
          "type": "uint256"
        }
      ],
      "name": "decreaseAllowance",
      "outputs": [
        {
          "internalType": "bool",
          "name": "",
          "type": "bool"
        }
      ],
      "stateMutability": "nonpayable",
      "type": "function"
    },
    {
      "inputs": [
        {
          "internalType": "address",
          "name": "spender",
          "type": "address"
        },
        {
          "internalType": "uint256",
          "name": "addedValue",
          "type": "uint256"
        }
      ],
      "name": "increaseAllowance",
      "outputs": [
        {
          "internalType": "bool",
          "name": "",
          "type": "bool"
        }
      ],
      "stateMutability": "nonpayable",
      "type": "function"
    },
    {
      "inputs": [],
      "name": "name",
      "outputs": [
        {
          "internalType": "string",
          "name": "",
          "type": "string"
        }
      ],
      "stateMutability": "view",
      "type": "function"
    },
    {
      "inputs": [],
      "name": "symbol",
      "outputs": [
        {
          "internalType": "string",
          "name": "",
          "type": "string"
        }
      ],
      "stateMutability": "view",
      "type": "function"
    },
    {
      "inputs": [],
      "name": "totalSupply",
      "outputs": [
        {
          "internalType": "uint256",
          "name": "",
          "type": "uint256"
        }
      ],
      "stateMutability": "view",
      "type": "function"
    },
    {
      "inputs": [
        {
          "internalType": "address",
          "name": "to",
          "type": "address"
        },
        {
          "internalType": "uint256",
          "name": "amount",
          "type": "uint256"
        }
      ],
      "name": "transfer",
      "outputs": [
        {
          "internalType": "bool",
          "name": "",
          "type": "bool"
        }
      ],
      "stateMutability": "nonpayable",
      "type": "function"
    },
    {
      "inputs": [
        {
          "internalType": "address",
          "name": "from",
          "type": "address"
        },
        {
          "internalType": "address",
          "name": "to",
          "type": "address"
        },
        {
          "internalType": "uint256",
          "name": "amount",
          "type": "uint256"
        }
      ],
      "name": "transferFrom",
      "outputs": [
        {
          "internalType": "bool",
          "name": "",
          "type": "bool"
        }
      ],
      "stateMutability": "nonpayable",
      "type": "function"
    },
    {
      "stateMutability": "payable",
      "type": "receive"
    },
    {
      "inputs": [
        {
          "internalType": "address",
          "name": "operator",
          "type": "address"
        }
      ],
      "name": "addOperator",
      "outputs": [],
      "stateMutability": "payable",
      "type": "function"
    },
    {
      "inputs": [],
      "name": "getAllowedOperators",
      "outputs": [
        {
          "internalType": "address[]",
          "name": "",
          "type": "address[]"
        }
      ],
      "stateMutability": "view",
      "type": "function"
    },
    {
      "inputs": [
        {
          "internalType": "address",
          "name": "from",
          "type": "address"
        },
        {
          "internalType": "uint256",
          "name": "amount",
          "type": "uint256"
        }
      ],
      "name": "mint",
      "outputs": [],
      "stateMutability": "nonpayable",
      "type": "function"
    }
  ],
  "bytecode": "0x60806040523480156200001157600080fd5b506040518060400160405280601881526020017f4f70656e636861696e44657820537461626c6520436f696e00000000000000008152506040518060400160405280600481526020017f4f434154000000000000000000000000000000000000000000000000000000008152508160039080519060200190620000969291906200015c565b508060049080519060200190620000af9291906200015c565b50505033600660006101000a81548173ffffffffffffffffffffffffffffffffffffffff021916908373ffffffffffffffffffffffffffffffffffffffff1602179055506005339080600181540180825580915050600190039060005260206000200160009091909190916101000a81548173ffffffffffffffffffffffffffffffffffffffff021916908373ffffffffffffffffffffffffffffffffffffffff16021790555062000271565b8280546200016a906200020c565b90600052602060002090601f0160209004810192826200018e5760008555620001da565b82601f10620001a957805160ff1916838001178555620001da565b82800160010185558215620001da579182015b82811115620001d9578251825591602001919060010190620001bc565b5b509050620001e99190620001ed565b5090565b5b8082111562000208576000816000905550600101620001ee565b5090565b600060028204905060018216806200022557607f821691505b602082108114156200023c576200023b62000242565b5b50919050565b7f4e487b7100000000000000000000000000000000000000000000000000000000600052602260045260246000fd5b611e6180620002816000396000f3fe6080604052600436106100e15760003560e01c806370a082311161007f578063a457c2d711610059578063a457c2d7146102d2578063a9059cbb1461030f578063d8d339581461034c578063dd62ed3e14610377576100e8565b806370a082311461024e57806395d89b411461028b5780639870d7fe146102b6576100e8565b806323b872dd116100bb57806323b872dd14610180578063313ce567146101bd57806339509351146101e857806340c10f1914610225576100e8565b806306fdde03146100ed578063095ea7b31461011857806318160ddd14610155576100e8565b366100e857005b600080fd5b3480156100f957600080fd5b506101026103b4565b60405161010f91906115c8565b60405180910390f35b34801561012457600080fd5b5061013f600480360381019061013a91906112e3565b610446565b60405161014c91906115ad565b60405180910390f35b34801561016157600080fd5b5061016a610469565b604051610177919061174a565b60405180910390f35b34801561018c57600080fd5b506101a760048036038101906101a29190611294565b610473565b6040516101b491906115ad565b60405180910390f35b3480156101c957600080fd5b506101d26104a2565b6040516101df9190611765565b60405180910390f35b3480156101f457600080fd5b5061020f600480360381019061020a91906112e3565b6104ab565b60405161021c91906115ad565b60405180910390f35b34801561023157600080fd5b5061024c600480360381019061024791906112e3565b610555565b005b34801561025a57600080fd5b506102756004803603810190610270919061122f565b610690565b604051610282919061174a565b60405180910390f35b34801561029757600080fd5b506102a06106d8565b6040516102ad91906115c8565b60405180910390f35b6102d060048036038101906102cb919061122f565b61076a565b005b3480156102de57600080fd5b506102f960048036038101906102f491906112e3565b610999565b60405161030691906115ad565b60405180910390f35b34801561031b57600080fd5b50610336600480360381019061033191906112e3565b610a83565b60405161034391906115ad565b60405180910390f35b34801561035857600080fd5b50610361610aa6565b60405161036e919061158b565b60405180910390f35b34801561038357600080fd5b5061039e60048036038101906103999190611258565b610b34565b6040516103ab919061174a565b60405180910390f35b6060600380546103c390611a7e565b80601f01602080910402602001604051908101604052809291908181526020018280546103ef90611a7e565b801561043c5780601f106104115761010080835404028352916020019161043c565b820191906000526020600020905b81548152906001019060200180831161041f57829003601f168201915b5050505050905090565b600080610451610bbb565b905061045e818585610bc3565b600191505092915050565b6000600254905090565b60008061047e610bbb565b905061048b858285610d8e565b610496858585610e1a565b60019150509392505050565b60006012905090565b6000806104b6610bbb565b905061054a818585600160008673ffffffffffffffffffffffffffffffffffffffff1673ffffffffffffffffffffffffffffffffffffffff16815260200190815260200160002060008973ffffffffffffffffffffffffffffffffffffffff1673ffffffffffffffffffffffffffffffffffffffff1681526020019081526020016000205461054591906117d5565b610bc3565b600191505092915050565b816000805b6005805490508160ff1610156106215760058160ff16815481106105a7577f4e487b7100000000000000000000000000000000000000000000000000000000600052603260045260246000fd5b9060005260206000200160009054906101000a900473ffffffffffffffffffffffffffffffffffffffff1673ffffffffffffffffffffffffffffffffffffffff168373ffffffffffffffffffffffffffffffffffffffff16141561060e5760019150610621565b808061061990611ab0565b91505061055a565b5080610662576040517f08c379a00000000000000000000000000000000000000000000000000000000081526004016106599061168a565b60405180910390fd5b61068a8461066e6104a2565b600a61067a919061187e565b85610685919061199c565b61109b565b50505050565b60008060008373ffffffffffffffffffffffffffffffffffffffff1673ffffffffffffffffffffffffffffffffffffffff168152602001908152602001600020549050919050565b6060600480546106e790611a7e565b80601f016020809104026020016040519081016040528092919081815260200182805461071390611a7e565b80156107605780601f1061073557610100808354040283529160200191610760565b820191906000526020600020905b81548152906001019060200180831161074357829003601f168201915b5050505050905090565b600660009054906101000a900473ffffffffffffffffffffffffffffffffffffffff1673ffffffffffffffffffffffffffffffffffffffff163373ffffffffffffffffffffffffffffffffffffffff16146107fa576040517f08c379a00000000000000000000000000000000000000000000000000000000081526004016107f19061164a565b60405180910390fd5b600073ffffffffffffffffffffffffffffffffffffffff168173ffffffffffffffffffffffffffffffffffffffff16141561086a576040517f08c379a0000000000000000000000000000000000000000000000000000000008152600401610861906116aa565b60405180910390fd5b60005b6005805490508160ff1610156109315760058160ff16815481106108ba577f4e487b7100000000000000000000000000000000000000000000000000000000600052603260045260246000fd5b9060005260206000200160009054906101000a900473ffffffffffffffffffffffffffffffffffffffff1673ffffffffffffffffffffffffffffffffffffffff168273ffffffffffffffffffffffffffffffffffffffff16141561091e5750610996565b808061092990611ab0565b91505061086d565b506005819080600181540180825580915050600190039060005260206000200160009091909190916101000a81548173ffffffffffffffffffffffffffffffffffffffff021916908373ffffffffffffffffffffffffffffffffffffffff1602179055505b50565b6000806109a4610bbb565b90506000600160008373ffffffffffffffffffffffffffffffffffffffff1673ffffffffffffffffffffffffffffffffffffffff16815260200190815260200160002060008673ffffffffffffffffffffffffffffffffffffffff1673ffffffffffffffffffffffffffffffffffffffff16815260200190815260200160002054905083811015610a6a576040517f08c379a0000000000000000000000000000000000000000000000000000000008152600401610a619061170a565b60405180910390fd5b610a778286868403610bc3565b60019250505092915050565b600080610a8e610bbb565b9050610a9b818585610e1a565b600191505092915050565b60606005805480602002602001604051908101604052809291908181526020018280548015610b2a57602002820191906000526020600020905b8160009054906101000a900473ffffffffffffffffffffffffffffffffffffffff1673ffffffffffffffffffffffffffffffffffffffff1681526020019060010190808311610ae0575b5050505050905090565b6000600160008473ffffffffffffffffffffffffffffffffffffffff1673ffffffffffffffffffffffffffffffffffffffff16815260200190815260200160002060008373ffffffffffffffffffffffffffffffffffffffff1673ffffffffffffffffffffffffffffffffffffffff16815260200190815260200160002054905092915050565b600033905090565b600073ffffffffffffffffffffffffffffffffffffffff168373ffffffffffffffffffffffffffffffffffffffff161415610c33576040517f08c379a0000000000000000000000000000000000000000000000000000000008152600401610c2a906116ea565b60405180910390fd5b600073ffffffffffffffffffffffffffffffffffffffff168273ffffffffffffffffffffffffffffffffffffffff161415610ca3576040517f08c379a0000000000000000000000000000000000000000000000000000000008152600401610c9a9061160a565b60405180910390fd5b80600160008573ffffffffffffffffffffffffffffffffffffffff1673ffffffffffffffffffffffffffffffffffffffff16815260200190815260200160002060008473ffffffffffffffffffffffffffffffffffffffff1673ffffffffffffffffffffffffffffffffffffffff168152602001908152602001600020819055508173ffffffffffffffffffffffffffffffffffffffff168373ffffffffffffffffffffffffffffffffffffffff167f8c5be1e5ebec7d5bd14f71427d1e84f3dd0314c0f7b2291e5b200ac8c7c3b92583604051610d81919061174a565b60405180910390a3505050565b6000610d9a8484610b34565b90507fffffffffffffffffffffffffffffffffffffffffffffffffffffffffffffffff8114610e145781811015610e06576040517f08c379a0000000000000000000000000000000000000000000000000000000008152600401610dfd9061162a565b60405180910390fd5b610e138484848403610bc3565b5b50505050565b600073ffffffffffffffffffffffffffffffffffffffff168373ffffffffffffffffffffffffffffffffffffffff161415610e8a576040517f08c379a0000000000000000000000000000000000000000000000000000000008152600401610e81906116ca565b60405180910390fd5b600073ffffffffffffffffffffffffffffffffffffffff168273ffffffffffffffffffffffffffffffffffffffff161415610efa576040517f08c379a0000000000000000000000000000000000000000000000000000000008152600401610ef1906115ea565b60405180910390fd5b610f058383836111fb565b60008060008573ffffffffffffffffffffffffffffffffffffffff1673ffffffffffffffffffffffffffffffffffffffff16815260200190815260200160002054905081811015610f8b576040517f08c379a0000000000000000000000000000000000000000000000000000000008152600401610f829061166a565b60405180910390fd5b8181036000808673ffffffffffffffffffffffffffffffffffffffff1673ffffffffffffffffffffffffffffffffffffffff16815260200190815260200160002081905550816000808573ffffffffffffffffffffffffffffffffffffffff1673ffffffffffffffffffffffffffffffffffffffff168152602001908152602001600020600082825461101e91906117d5565b925050819055508273ffffffffffffffffffffffffffffffffffffffff168473ffffffffffffffffffffffffffffffffffffffff167fddf252ad1be2c89b69c2b068fc378daa952ba7f163c4a11628f55a4df523b3ef84604051611082919061174a565b60405180910390a3611095848484611200565b50505050565b600073ffffffffffffffffffffffffffffffffffffffff168273ffffffffffffffffffffffffffffffffffffffff16141561110b576040517f08c379a00000000000000000000000000000000000000000000000000000000081526004016111029061172a565b60405180910390fd5b611117600083836111fb565b806002600082825461112991906117d5565b92505081905550806000808473ffffffffffffffffffffffffffffffffffffffff1673ffffffffffffffffffffffffffffffffffffffff168152602001908152602001600020600082825461117e91906117d5565b925050819055508173ffffffffffffffffffffffffffffffffffffffff16600073ffffffffffffffffffffffffffffffffffffffff167fddf252ad1be2c89b69c2b068fc378daa952ba7f163c4a11628f55a4df523b3ef836040516111e3919061174a565b60405180910390a36111f760008383611200565b5050565b505050565b505050565b60008135905061121481611dfd565b92915050565b60008135905061122981611e14565b92915050565b60006020828403121561124157600080fd5b600061124f84828501611205565b91505092915050565b6000806040838503121561126b57600080fd5b600061127985828601611205565b925050602061128a85828601611205565b9150509250929050565b6000806000606084860312156112a957600080fd5b60006112b786828701611205565b93505060206112c886828701611205565b92505060406112d98682870161121a565b9150509250925092565b600080604083850312156112f657600080fd5b600061130485828601611205565b92505060206113158582860161121a565b9150509250929050565b600061132b8383611337565b60208301905092915050565b611340816119f6565b82525050565b600061135182611790565b61135b81856117b3565b935061136683611780565b8060005b8381101561139757815161137e888261131f565b9750611389836117a6565b92505060018101905061136a565b5085935050505092915050565b6113ad81611a08565b82525050565b60006113be8261179b565b6113c881856117c4565b93506113d8818560208601611a4b565b6113e181611b38565b840191505092915050565b60006113f96023836117c4565b915061140482611b56565b604082019050919050565b600061141c6022836117c4565b915061142782611ba5565b604082019050919050565b600061143f601d836117c4565b915061144a82611bf4565b602082019050919050565b6000611462600e836117c4565b915061146d82611c1d565b602082019050919050565b60006114856026836117c4565b915061149082611c46565b604082019050919050565b60006114a86010836117c4565b91506114b382611c95565b602082019050919050565b60006114cb6010836117c4565b91506114d682611cbe565b602082019050919050565b60006114ee6025836117c4565b91506114f982611ce7565b604082019050919050565b60006115116024836117c4565b915061151c82611d36565b604082019050919050565b60006115346025836117c4565b915061153f82611d85565b604082019050919050565b6000611557601f836117c4565b915061156282611dd4565b602082019050919050565b61157681611a34565b82525050565b61158581611a3e565b82525050565b600060208201905081810360008301526115a58184611346565b905092915050565b60006020820190506115c260008301846113a4565b92915050565b600060208201905081810360008301526115e281846113b3565b905092915050565b60006020820190508181036000830152611603816113ec565b9050919050565b600060208201905081810360008301526116238161140f565b9050919050565b6000602082019050818103600083015261164381611432565b9050919050565b6000602082019050818103600083015261166381611455565b9050919050565b6000602082019050818103600083015261168381611478565b9050919050565b600060208201905081810360008301526116a38161149b565b9050919050565b600060208201905081810360008301526116c3816114be565b9050919050565b600060208201905081810360008301526116e3816114e1565b9050919050565b6000602082019050818103600083015261170381611504565b9050919050565b6000602082019050818103600083015261172381611527565b9050919050565b600060208201905081810360008301526117438161154a565b9050919050565b600060208201905061175f600083018461156d565b92915050565b600060208201905061177a600083018461157c565b92915050565b6000819050602082019050919050565b600081519050919050565b600081519050919050565b6000602082019050919050565b600082825260208201905092915050565b600082825260208201905092915050565b60006117e082611a34565b91506117eb83611a34565b9250827fffffffffffffffffffffffffffffffffffffffffffffffffffffffffffffffff038211156118205761181f611ada565b5b828201905092915050565b6000808291508390505b60018511156118755780860481111561185157611850611ada565b5b60018516156118605780820291505b808102905061186e85611b49565b9450611835565b94509492505050565b600061188982611a34565b915061189483611a3e565b92506118c17fffffffffffffffffffffffffffffffffffffffffffffffffffffffffffffffff84846118c9565b905092915050565b6000826118d95760019050611995565b816118e75760009050611995565b81600181146118fd576002811461190757611936565b6001915050611995565b60ff84111561191957611918611ada565b5b8360020a9150848211156119305761192f611ada565b5b50611995565b5060208310610133831016604e8410600b841016171561196b5782820a90508381111561196657611965611ada565b5b611995565b611978848484600161182b565b9250905081840481111561198f5761198e611ada565b5b81810290505b9392505050565b60006119a782611a34565b91506119b283611a34565b9250817fffffffffffffffffffffffffffffffffffffffffffffffffffffffffffffffff04831182151516156119eb576119ea611ada565b5b828202905092915050565b6000611a0182611a14565b9050919050565b60008115159050919050565b600073ffffffffffffffffffffffffffffffffffffffff82169050919050565b6000819050919050565b600060ff82169050919050565b60005b83811015611a69578082015181840152602081019050611a4e565b83811115611a78576000848401525b50505050565b60006002820490506001821680611a9657607f821691505b60208210811415611aaa57611aa9611b09565b5b50919050565b6000611abb82611a3e565b915060ff821415611acf57611ace611ada565b5b600182019050919050565b7f4e487b7100000000000000000000000000000000000000000000000000000000600052601160045260246000fd5b7f4e487b7100000000000000000000000000000000000000000000000000000000600052602260045260246000fd5b6000601f19601f8301169050919050565b60008160011c9050919050565b7f45524332303a207472616e7366657220746f20746865207a65726f206164647260008201527f6573730000000000000000000000000000000000000000000000000000000000602082015250565b7f45524332303a20617070726f766520746f20746865207a65726f20616464726560008201527f7373000000000000000000000000000000000000000000000000000000000000602082015250565b7f45524332303a20696e73756666696369656e7420616c6c6f77616e6365000000600082015250565b7f496e76616c69642063616c6c6572000000000000000000000000000000000000600082015250565b7f45524332303a207472616e7366657220616d6f756e742065786365656473206260008201527f616c616e63650000000000000000000000000000000000000000000000000000602082015250565b7f4e6f7420616c6c6f776564207573657200000000000000000000000000000000600082015250565b7f496e76616c6964206f70657261746f7200000000000000000000000000000000600082015250565b7f45524332303a207472616e736665722066726f6d20746865207a65726f20616460008201527f6472657373000000000000000000000000000000000000000000000000000000602082015250565b7f45524332303a20617070726f76652066726f6d20746865207a65726f2061646460008201527f7265737300000000000000000000000000000000000000000000000000000000602082015250565b7f45524332303a2064656372656173656420616c6c6f77616e63652062656c6f7760008201527f207a65726f000000000000000000000000000000000000000000000000000000602082015250565b7f45524332303a206d696e7420746f20746865207a65726f206164647265737300600082015250565b611e06816119f6565b8114611e1157600080fd5b50565b611e1d81611a34565b8114611e2857600080fd5b5056fea2646970667358221220ee7e61649ab73249cc2a4b7eb00649af3db9a501d267017630736b0fd2ac169d64736f6c63430008040033",
  "immutableReferences": {},
  "source": "// SPDX-License-Identifier: MIT\npragma solidity ^0.8.0;\n\nimport \"@openzeppelin/contracts/token/ERC20/ERC20.sol\";\nimport \"./IOcat.sol\";\n\ncontract OcatToken is ERC20, IOcat {\n\n    address[]       private allowedOperators;\n    address payable private creator;\n\n    receive() external payable {}\n\n    constructor() ERC20(\"OpenchainDex Stable Coin\", \"OCAT\") {\n        // super._mint(msg.sender, (10 ** 8) * (10 ** 18));\n        creator = payable(msg.sender);\n        allowedOperators.push(msg.sender);\n    }\n\n    modifier isAllowedOperator(address operator) override {\n        bool isAllowed = false;\n        for (uint8 i = 0; i < allowedOperators.length; i++) {\n            if (operator == allowedOperators[i]) {\n                isAllowed = true;\n                break;\n            }\n        }\n        require(isAllowed, \"Not allowed user\");\n        _;\n    }\n\n    function addOperator(address operator) public payable override {\n        require(msg.sender == creator, \"Invalid caller\");\n        require(operator != address(0), \"Invalid operator\");\n        \n        for (uint8 i = 0; i < allowedOperators.length; i++) {\n            if (operator == allowedOperators[i]) {\n                return;\n            }\n        }\n        allowedOperators.push(operator);\n    }\n\n    function getAllowedOperators() public view  override \n    returns(address[] memory) {\n        return allowedOperators;\n    }\n    /**\n        * Custom accessor to create a unique token\n    */\n    function mint(address from, uint256 amount) public override\n    isAllowedOperator(from) {\n        super._mint(from, amount * (10 ** decimals()));\n    }\n}\n",
  "sourcePath": "/home/cowboy/OCX/OpenchainTestVersion/server/contracts/OcatToken.sol",
  "compiler": {
    "name": "solc",
    "version": "0.8.4+commit.c7e474f2.Emscripten.clang"
  },
  "schemaVersion": "3.4.6",
  "updatedAt": "2022-04-16T10:52:58.106Z",
  "devdoc": {
    "kind": "dev",
    "methods": {
      "allowance(address,address)": {
        "details": "See {IERC20-allowance}."
      },
      "approve(address,uint256)": {
        "details": "See {IERC20-approve}. NOTE: If `amount` is the maximum `uint256`, the allowance is not updated on `transferFrom`. This is semantically equivalent to an infinite approval. Requirements: - `spender` cannot be the zero address."
      },
      "balanceOf(address)": {
        "details": "See {IERC20-balanceOf}."
      },
      "decimals()": {
        "details": "Returns the number of decimals used to get its user representation. For example, if `decimals` equals `2`, a balance of `505` tokens should be displayed to a user as `5.05` (`505 / 10 ** 2`). Tokens usually opt for a value of 18, imitating the relationship between Ether and Wei. This is the value {ERC20} uses, unless this function is overridden; NOTE: This information is only used for _display_ purposes: it in no way affects any of the arithmetic of the contract, including {IERC20-balanceOf} and {IERC20-transfer}."
      },
      "decreaseAllowance(address,uint256)": {
        "details": "Atomically decreases the allowance granted to `spender` by the caller. This is an alternative to {approve} that can be used as a mitigation for problems described in {IERC20-approve}. Emits an {Approval} event indicating the updated allowance. Requirements: - `spender` cannot be the zero address. - `spender` must have allowance for the caller of at least `subtractedValue`."
      },
      "increaseAllowance(address,uint256)": {
        "details": "Atomically increases the allowance granted to `spender` by the caller. This is an alternative to {approve} that can be used as a mitigation for problems described in {IERC20-approve}. Emits an {Approval} event indicating the updated allowance. Requirements: - `spender` cannot be the zero address."
      },
      "name()": {
        "details": "Returns the name of the token."
      },
      "symbol()": {
        "details": "Returns the symbol of the token, usually a shorter version of the name."
      },
      "totalSupply()": {
        "details": "See {IERC20-totalSupply}."
      },
      "transfer(address,uint256)": {
        "details": "See {IERC20-transfer}. Requirements: - `to` cannot be the zero address. - the caller must have a balance of at least `amount`."
      },
      "transferFrom(address,address,uint256)": {
        "details": "See {IERC20-transferFrom}. Emits an {Approval} event indicating the updated allowance. This is not required by the EIP. See the note at the beginning of {ERC20}. NOTE: Does not update the allowance if the current allowance is the maximum `uint256`. Requirements: - `from` and `to` cannot be the zero address. - `from` must have a balance of at least `amount`. - the caller must have allowance for ``from``'s tokens of at least `amount`."
      }
    },
    "version": 1
  },
  "userdoc": {
    "kind": "user",
    "methods": {
      "mint(address,uint256)": {
        "notice": "Custom accessor to create a unique token"
      }
    },
    "version": 1
  }
}