{
  "contractName": "OcxExchange",
  "abi": [
    {
      "inputs": [],
      "stateMutability": "nonpayable",
      "type": "constructor"
    },
    {
      "inputs": [
        {
          "internalType": "address",
          "name": "_admin",
          "type": "address"
        }
      ],
      "name": "addAdmin",
      "outputs": [],
      "stateMutability": "nonpayable",
      "type": "function"
    },
    {
      "inputs": [],
      "name": "getAdmins",
      "outputs": [
        {
          "internalType": "address[]",
          "name": "",
          "type": "address[]"
        }
      ],
      "stateMutability": "view",
      "type": "function"
    },
    {
      "inputs": [
        {
          "internalType": "enum FeeType",
          "name": "feeType",
          "type": "uint8"
        }
      ],
      "name": "getFee",
      "outputs": [
        {
          "internalType": "uint32",
          "name": "",
          "type": "uint32"
        }
      ],
      "stateMutability": "view",
      "type": "function"
    },
    {
      "inputs": [],
      "name": "getOcatPrice",
      "outputs": [
        {
          "internalType": "uint256",
          "name": "",
          "type": "uint256"
        }
      ],
      "stateMutability": "view",
      "type": "function"
    },
    {
      "inputs": [
        {
          "internalType": "address payable",
          "name": "_feeManager",
          "type": "address"
        }
      ],
      "name": "setFeeManager",
      "outputs": [],
      "stateMutability": "nonpayable",
      "type": "function"
    },
    {
      "inputs": [
        {
          "internalType": "address payable",
          "name": "_ocatAddress",
          "type": "address"
        }
      ],
      "name": "setOcatAddress",
      "outputs": [],
      "stateMutability": "nonpayable",
      "type": "function"
    },
    {
      "inputs": [
        {
          "internalType": "uint256",
          "name": "_price",
          "type": "uint256"
        }
      ],
      "name": "setOcatPrice",
      "outputs": [],
      "stateMutability": "nonpayable",
      "type": "function"
    },
    {
      "inputs": [
        {
          "internalType": "address payable",
          "name": "_ocxAddress",
          "type": "address"
        }
      ],
      "name": "setOcxAddress",
      "outputs": [],
      "stateMutability": "nonpayable",
      "type": "function"
    },
    {
      "inputs": [
        {
          "internalType": "address payable",
          "name": "_pnftAddress",
          "type": "address"
        }
      ],
      "name": "setPnftAddress",
      "outputs": [],
      "stateMutability": "nonpayable",
      "type": "function"
    },
    {
      "inputs": [],
      "name": "uniswapRouter",
      "outputs": [
        {
          "internalType": "contract IUniswapV2Router02",
          "name": "",
          "type": "address"
        }
      ],
      "stateMutability": "view",
      "type": "function"
    },
    {
      "stateMutability": "payable",
      "type": "receive"
    },
    {
      "inputs": [
        {
          "internalType": "address payable",
          "name": "_ocxLocalPoolAddress",
          "type": "address"
        }
      ],
      "name": "setOcxLocalPoolAddress",
      "outputs": [],
      "stateMutability": "nonpayable",
      "type": "function"
    },
    {
      "inputs": [
        {
          "internalType": "address",
          "name": "_tokenOut",
          "type": "address"
        },
        {
          "internalType": "uint256",
          "name": "_amountOutMin",
          "type": "uint256"
        },
        {
          "internalType": "uint256",
          "name": "_deadline",
          "type": "uint256"
        }
      ],
      "name": "swapFromETH",
      "outputs": [],
      "stateMutability": "payable",
      "type": "function"
    },
    {
      "inputs": [
        {
          "internalType": "address",
          "name": "_tokenIn",
          "type": "address"
        },
        {
          "internalType": "uint256",
          "name": "_amountIn",
          "type": "uint256"
        },
        {
          "internalType": "uint256",
          "name": "_amountOutMin",
          "type": "uint256"
        },
        {
          "internalType": "uint256",
          "name": "_deadline",
          "type": "uint256"
        }
      ],
      "name": "swapToETH",
      "outputs": [],
      "stateMutability": "nonpayable",
      "type": "function"
    },
    {
      "inputs": [
        {
          "internalType": "address",
          "name": "_tokenIn",
          "type": "address"
        },
        {
          "internalType": "uint256",
          "name": "_amountIn",
          "type": "uint256"
        },
        {
          "internalType": "address",
          "name": "_tokenOut",
          "type": "address"
        },
        {
          "internalType": "uint256",
          "name": "_amountOutMin",
          "type": "uint256"
        },
        {
          "internalType": "uint256",
          "name": "_deadline",
          "type": "uint256"
        }
      ],
      "name": "swapForERC20",
      "outputs": [],
      "stateMutability": "nonpayable",
      "type": "function"
    }
  ],
  "bytecode": "0x60806040523480156200001157600080fd5b5033600160006101000a81548173ffffffffffffffffffffffffffffffffffffffff021916908373ffffffffffffffffffffffffffffffffffffffff16021790555060016003819055506032600260008060028111156200009b577f4e487b7100000000000000000000000000000000000000000000000000000000600052602160045260246000fd5b6002811115620000d4577f4e487b7100000000000000000000000000000000000000000000000000000000600052602160045260246000fd5b815260200190815260200160002060006101000a81548163ffffffff021916908363ffffffff1602179055506032600260006001600281111562000141577f4e487b7100000000000000000000000000000000000000000000000000000000600052602160045260246000fd5b60028111156200017a577f4e487b7100000000000000000000000000000000000000000000000000000000600052602160045260246000fd5b815260200190815260200160002060006101000a81548163ffffffff021916908363ffffffff160217905550603260026000600280811115620001e6577f4e487b7100000000000000000000000000000000000000000000000000000000600052602160045260246000fd5b60028111156200021f577f4e487b7100000000000000000000000000000000000000000000000000000000600052602160045260246000fd5b815260200190815260200160002060006101000a81548163ffffffff021916908363ffffffff160217905550737a250d5630b4cf539739df2c5dacb4c659f2488d600860006101000a81548173ffffffffffffffffffffffffffffffffffffffff021916908373ffffffffffffffffffffffffffffffffffffffff16021790555061392180620002b06000396000f3fe6080604052600436106100e15760003560e01c8063735de9f71161007f578063b18d30a211610059578063b18d30a2146102a1578063bb3f6c6a146102ca578063ca534211146102f3578063fafbed4d1461030f576100e8565b8063735de9f7146102245780638b92f59d1461024f57806394b367c714610278576100e8565b806331ae450b116100bb57806331ae450b1461017c5780633214e1a9146101a7578063472d35b9146101d257806370480275146101fb576100e8565b8063083132c4146100ed5780630b0c506f1461012a57806315f03d2214610153576100e8565b366100e857005b600080fd5b3480156100f957600080fd5b50610114600480360381019061010f9190612c69565b610338565b604051610121919061322a565b60405180910390f35b34801561013657600080fd5b50610151600480360381019061014c9190612aad565b6103d5565b005b34801561015f57600080fd5b5061017a60048036038101906101759190612aad565b6105ad565b005b34801561018857600080fd5b506101916107f5565b60405161019e9190612fea565b60405180910390f35b3480156101b357600080fd5b506101bc610883565b6040516101c99190613169565b60405180910390f35b3480156101de57600080fd5b506101f960048036038101906101f49190612aad565b61088d565b005b34801561020757600080fd5b50610222600480360381019061021d9190612a5b565b610a65565b005b34801561023057600080fd5b50610239610d70565b604051610246919061300c565b60405180910390f35b34801561025b57600080fd5b5061027660048036038101906102719190612b9c565b610d96565b005b34801561028457600080fd5b5061029f600480360381019061029a9190612aad565b611250565b005b3480156102ad57600080fd5b506102c860048036038101906102c39190612aad565b611428565b005b3480156102d657600080fd5b506102f160048036038101906102ec9190612c92565b6116cb565b005b61030d60048036038101906103089190612b4d565b611905565b005b34801561031b57600080fd5b5061033660048036038101906103319190612ad6565b611bc1565b005b600060026000836002811115610377577f4e487b7100000000000000000000000000000000000000000000000000000000600052602160045260246000fd5b60028111156103af577f4e487b7100000000000000000000000000000000000000000000000000000000600052602160045260246000fd5b815260200190815260200160002060009054906101000a900463ffffffff169050919050565b600073ffffffffffffffffffffffffffffffffffffffff16600160009054906101000a900473ffffffffffffffffffffffffffffffffffffffff1673ffffffffffffffffffffffffffffffffffffffff161415610467576040517f08c379a000000000000000000000000000000000000000000000000000000000815260040161045e90613089565b60405180910390fd5b600160009054906101000a900473ffffffffffffffffffffffffffffffffffffffff1673ffffffffffffffffffffffffffffffffffffffff163373ffffffffffffffffffffffffffffffffffffffff16146104f7576040517f08c379a00000000000000000000000000000000000000000000000000000000081526004016104ee90613069565b60405180910390fd5b80600073ffffffffffffffffffffffffffffffffffffffff168173ffffffffffffffffffffffffffffffffffffffff161415610568576040517f08c379a000000000000000000000000000000000000000000000000000000000815260040161055f906130c9565b60405180910390fd5b81600560006101000a81548173ffffffffffffffffffffffffffffffffffffffff021916908373ffffffffffffffffffffffffffffffffffffffff1602179055505050565b600073ffffffffffffffffffffffffffffffffffffffff163373ffffffffffffffffffffffffffffffffffffffff16141561061d576040517f08c379a0000000000000000000000000000000000000000000000000000000008152600401610614906130c9565b60405180910390fd5b600073ffffffffffffffffffffffffffffffffffffffff16600160009054906101000a900473ffffffffffffffffffffffffffffffffffffffff1673ffffffffffffffffffffffffffffffffffffffff1614156106af576040517f08c379a00000000000000000000000000000000000000000000000000000000081526004016106a690613089565b60405180910390fd5b600160009054906101000a900473ffffffffffffffffffffffffffffffffffffffff1673ffffffffffffffffffffffffffffffffffffffff163373ffffffffffffffffffffffffffffffffffffffff161461073f576040517f08c379a000000000000000000000000000000000000000000000000000000000815260040161073690613069565b60405180910390fd5b80600073ffffffffffffffffffffffffffffffffffffffff168173ffffffffffffffffffffffffffffffffffffffff1614156107b0576040517f08c379a00000000000000000000000000000000000000000000000000000000081526004016107a7906130c9565b60405180910390fd5b81600660006101000a81548173ffffffffffffffffffffffffffffffffffffffff021916908373ffffffffffffffffffffffffffffffffffffffff1602179055505050565b6060600080548060200260200160405190810160405280929190818152602001828054801561087957602002820191906000526020600020905b8160009054906101000a900473ffffffffffffffffffffffffffffffffffffffff1673ffffffffffffffffffffffffffffffffffffffff168152602001906001019080831161082f575b5050505050905090565b6000600354905090565b600073ffffffffffffffffffffffffffffffffffffffff16600160009054906101000a900473ffffffffffffffffffffffffffffffffffffffff1673ffffffffffffffffffffffffffffffffffffffff16141561091f576040517f08c379a000000000000000000000000000000000000000000000000000000000815260040161091690613089565b60405180910390fd5b600160009054906101000a900473ffffffffffffffffffffffffffffffffffffffff1673ffffffffffffffffffffffffffffffffffffffff163373ffffffffffffffffffffffffffffffffffffffff16146109af576040517f08c379a00000000000000000000000000000000000000000000000000000000081526004016109a690613069565b60405180910390fd5b80600073ffffffffffffffffffffffffffffffffffffffff168173ffffffffffffffffffffffffffffffffffffffff161415610a20576040517f08c379a0000000000000000000000000000000000000000000000000000000008152600401610a17906130c9565b60405180910390fd5b81600760006101000a81548173ffffffffffffffffffffffffffffffffffffffff021916908373ffffffffffffffffffffffffffffffffffffffff1602179055505050565b600073ffffffffffffffffffffffffffffffffffffffff16600160009054906101000a900473ffffffffffffffffffffffffffffffffffffffff1673ffffffffffffffffffffffffffffffffffffffff161415610af7576040517f08c379a0000000000000000000000000000000000000000000000000000000008152600401610aee90613089565b60405180910390fd5b600160009054906101000a900473ffffffffffffffffffffffffffffffffffffffff1673ffffffffffffffffffffffffffffffffffffffff163373ffffffffffffffffffffffffffffffffffffffff1614610b87576040517f08c379a0000000000000000000000000000000000000000000000000000000008152600401610b7e90613069565b60405180910390fd5b80600073ffffffffffffffffffffffffffffffffffffffff168173ffffffffffffffffffffffffffffffffffffffff161415610bf8576040517f08c379a0000000000000000000000000000000000000000000000000000000008152600401610bef906130c9565b60405180910390fd5b600660008054905010610c40576040517f08c379a0000000000000000000000000000000000000000000000000000000008152600401610c3790613149565b60405180910390fd5b60005b6000805490508160ff161015610d075760008160ff1681548110610c90577f4e487b7100000000000000000000000000000000000000000000000000000000600052603260045260246000fd5b9060005260206000200160009054906101000a900473ffffffffffffffffffffffffffffffffffffffff1673ffffffffffffffffffffffffffffffffffffffff168373ffffffffffffffffffffffffffffffffffffffff161415610cf45750610d6c565b8080610cff90613504565b915050610c43565b506000829080600181540180825580915050600190039060005260206000200160009091909190916101000a81548173ffffffffffffffffffffffffffffffffffffffff021916908373ffffffffffffffffffffffffffffffffffffffff1602179055505b5050565b600860009054906101000a900473ffffffffffffffffffffffffffffffffffffffff1681565b600084905060008173ffffffffffffffffffffffffffffffffffffffff1663dd62ed3e33306040518363ffffffff1660e01b8152600401610dd8929190612f61565b60206040518083038186803b158015610df057600080fd5b505afa158015610e04573d6000803e3d6000fd5b505050506040513d601f19601f82011682018060405250810190610e289190612cbb565b90506000610e35826120eb565b9050610e596040518060800160405280604e815260200161389e604e913982612298565b9050858210158190610ea1576040517f08c379a0000000000000000000000000000000000000000000000000000000008152600401610e989190613027565b60405180910390fd5b50610eae873330896122dc565b6000600267ffffffffffffffff811115610ef1577f4e487b7100000000000000000000000000000000000000000000000000000000600052604160045260246000fd5b604051908082528060200260200182016040528015610f1f5781602001602082028036833780820191505090505b5090508781600081518110610f5d577f4e487b7100000000000000000000000000000000000000000000000000000000600052603260045260246000fd5b602002602001019073ffffffffffffffffffffffffffffffffffffffff16908173ffffffffffffffffffffffffffffffffffffffff1681525050600860009054906101000a900473ffffffffffffffffffffffffffffffffffffffff1673ffffffffffffffffffffffffffffffffffffffff1663ad5c46486040518163ffffffff1660e01b815260040160206040518083038186803b158015610fff57600080fd5b505afa158015611013573d6000803e3d6000fd5b505050506040513d601f19601f820116820180604052508101906110379190612a84565b81600181518110611071577f4e487b7100000000000000000000000000000000000000000000000000000000600052603260045260246000fd5b602002602001019073ffffffffffffffffffffffffffffffffffffffff16908173ffffffffffffffffffffffffffffffffffffffff16815250508373ffffffffffffffffffffffffffffffffffffffff1663095ea7b3737a250d5630b4cf539739df2c5dacb4c659f2488d896040518363ffffffff1660e01b81526004016110fa929190612fc1565b602060405180830381600087803b15801561111457600080fd5b505af1158015611128573d6000803e3d6000fd5b505050506040513d601f19601f8201168201806040525081019061114c9190612c40565b61118b576040517f08c379a0000000000000000000000000000000000000000000000000000000008152600401611182906130a9565b60405180910390fd5b600860009054906101000a900473ffffffffffffffffffffffffffffffffffffffff1673ffffffffffffffffffffffffffffffffffffffff166318cbafe5888884338a6040518663ffffffff1660e01b81526004016111ee9594939291906131d0565b600060405180830381600087803b15801561120857600080fd5b505af115801561121c573d6000803e3d6000fd5b505050506040513d6000823e3d601f19601f820116820180604052508101906112459190612bff565b505050505050505050565b600073ffffffffffffffffffffffffffffffffffffffff16600160009054906101000a900473ffffffffffffffffffffffffffffffffffffffff1673ffffffffffffffffffffffffffffffffffffffff1614156112e2576040517f08c379a00000000000000000000000000000000000000000000000000000000081526004016112d990613089565b60405180910390fd5b600160009054906101000a900473ffffffffffffffffffffffffffffffffffffffff1673ffffffffffffffffffffffffffffffffffffffff163373ffffffffffffffffffffffffffffffffffffffff1614611372576040517f08c379a000000000000000000000000000000000000000000000000000000000815260040161136990613069565b60405180910390fd5b80600073ffffffffffffffffffffffffffffffffffffffff168173ffffffffffffffffffffffffffffffffffffffff1614156113e3576040517f08c379a00000000000000000000000000000000000000000000000000000000081526004016113da906130c9565b60405180910390fd5b81600960006101000a81548173ffffffffffffffffffffffffffffffffffffffff021916908373ffffffffffffffffffffffffffffffffffffffff1602179055505050565b600073ffffffffffffffffffffffffffffffffffffffff163373ffffffffffffffffffffffffffffffffffffffff161415611498576040517f08c379a000000000000000000000000000000000000000000000000000000000815260040161148f906130c9565b60405180910390fd5b80600073ffffffffffffffffffffffffffffffffffffffff168173ffffffffffffffffffffffffffffffffffffffff161415611509576040517f08c379a0000000000000000000000000000000000000000000000000000000008152600401611500906130c9565b60405180910390fd5b600073ffffffffffffffffffffffffffffffffffffffff163373ffffffffffffffffffffffffffffffffffffffff161415611579576040517f08c379a000000000000000000000000000000000000000000000000000000000815260040161157090613089565b60405180910390fd5b6000805b6000805490508160ff1610156116445760008160ff16815481106115ca577f4e487b7100000000000000000000000000000000000000000000000000000000600052603260045260246000fd5b9060005260206000200160009054906101000a900473ffffffffffffffffffffffffffffffffffffffff1673ffffffffffffffffffffffffffffffffffffffff163373ffffffffffffffffffffffffffffffffffffffff1614156116315760019150611644565b808061163c90613504565b91505061157d565b5080611685576040517f08c379a000000000000000000000000000000000000000000000000000000000815260040161167c906130e9565b60405180910390fd5b82600460006101000a81548173ffffffffffffffffffffffffffffffffffffffff021916908373ffffffffffffffffffffffffffffffffffffffff160217905550505050565b600073ffffffffffffffffffffffffffffffffffffffff163373ffffffffffffffffffffffffffffffffffffffff16141561173b576040517f08c379a0000000000000000000000000000000000000000000000000000000008152600401611732906130c9565b60405180910390fd5b600073ffffffffffffffffffffffffffffffffffffffff163373ffffffffffffffffffffffffffffffffffffffff1614156117ab576040517f08c379a00000000000000000000000000000000000000000000000000000000081526004016117a290613089565b60405180910390fd5b6000805b6000805490508160ff1610156118765760008160ff16815481106117fc577f4e487b7100000000000000000000000000000000000000000000000000000000600052603260045260246000fd5b9060005260206000200160009054906101000a900473ffffffffffffffffffffffffffffffffffffffff1673ffffffffffffffffffffffffffffffffffffffff163373ffffffffffffffffffffffffffffffffffffffff1614156118635760019150611876565b808061186e90613504565b9150506117af565b50806118b7576040517f08c379a00000000000000000000000000000000000000000000000000000000081526004016118ae906130e9565b60405180910390fd5b600082116118fa576040517f08c379a00000000000000000000000000000000000000000000000000000000081526004016118f190613109565b60405180910390fd5b816003819055505050565b6000600267ffffffffffffffff811115611948577f4e487b7100000000000000000000000000000000000000000000000000000000600052604160045260246000fd5b6040519080825280602002602001820160405280156119765781602001602082028036833780820191505090505b509050600860009054906101000a900473ffffffffffffffffffffffffffffffffffffffff1673ffffffffffffffffffffffffffffffffffffffff1663ad5c46486040518163ffffffff1660e01b815260040160206040518083038186803b1580156119e157600080fd5b505afa1580156119f5573d6000803e3d6000fd5b505050506040513d601f19601f82011682018060405250810190611a199190612a84565b81600081518110611a53577f4e487b7100000000000000000000000000000000000000000000000000000000600052603260045260246000fd5b602002602001019073ffffffffffffffffffffffffffffffffffffffff16908173ffffffffffffffffffffffffffffffffffffffff16815250508381600181518110611ac8577f4e487b7100000000000000000000000000000000000000000000000000000000600052603260045260246000fd5b602002602001019073ffffffffffffffffffffffffffffffffffffffff16908173ffffffffffffffffffffffffffffffffffffffff1681525050600860009054906101000a900473ffffffffffffffffffffffffffffffffffffffff1673ffffffffffffffffffffffffffffffffffffffff16637ff36ab5848333866040518563ffffffff1660e01b8152600401611b639493929190613184565b600060405180830381600087803b158015611b7d57600080fd5b505af1158015611b91573d6000803e3d6000fd5b505050506040513d6000823e3d601f19601f82011682018060405250810190611bba9190612bff565b5050505050565b60008573ffffffffffffffffffffffffffffffffffffffff1663dd62ed3e33306040518363ffffffff1660e01b8152600401611bfe929190612f61565b60206040518083038186803b158015611c1657600080fd5b505afa158015611c2a573d6000803e3d6000fd5b505050506040513d601f19601f82011682018060405250810190611c4e9190612cbb565b90506000611c5b826120eb565b9050611c7f60405180608001604052806051815260200161384d6051913982612298565b9050858210158190611cc7576040517f08c379a0000000000000000000000000000000000000000000000000000000008152600401611cbe9190613027565b60405180910390fd5b50611cd4873330896122dc565b8673ffffffffffffffffffffffffffffffffffffffff1663095ea7b3737a250d5630b4cf539739df2c5dacb4c659f2488d886040518363ffffffff1660e01b8152600401611d23929190612fc1565b602060405180830381600087803b158015611d3d57600080fd5b505af1158015611d51573d6000803e3d6000fd5b505050506040513d601f19601f82011682018060405250810190611d759190612c40565b611db4576040517f08c379a0000000000000000000000000000000000000000000000000000000008152600401611dab90613049565b60405180910390fd5b6000600367ffffffffffffffff811115611df7577f4e487b7100000000000000000000000000000000000000000000000000000000600052604160045260246000fd5b604051908082528060200260200182016040528015611e255781602001602082028036833780820191505090505b5090508781600081518110611e63577f4e487b7100000000000000000000000000000000000000000000000000000000600052603260045260246000fd5b602002602001019073ffffffffffffffffffffffffffffffffffffffff16908173ffffffffffffffffffffffffffffffffffffffff1681525050600860009054906101000a900473ffffffffffffffffffffffffffffffffffffffff1673ffffffffffffffffffffffffffffffffffffffff1663ad5c46486040518163ffffffff1660e01b815260040160206040518083038186803b158015611f0557600080fd5b505afa158015611f19573d6000803e3d6000fd5b505050506040513d601f19601f82011682018060405250810190611f3d9190612a84565b81600181518110611f77577f4e487b7100000000000000000000000000000000000000000000000000000000600052603260045260246000fd5b602002602001019073ffffffffffffffffffffffffffffffffffffffff16908173ffffffffffffffffffffffffffffffffffffffff16815250508581600281518110611fec577f4e487b7100000000000000000000000000000000000000000000000000000000600052603260045260246000fd5b602002602001019073ffffffffffffffffffffffffffffffffffffffff16908173ffffffffffffffffffffffffffffffffffffffff1681525050600860009054906101000a900473ffffffffffffffffffffffffffffffffffffffff1673ffffffffffffffffffffffffffffffffffffffff166338ed173988878433896040518663ffffffff1660e01b81526004016120899594939291906131d0565b600060405180830381600087803b1580156120a357600080fd5b505af11580156120b7573d6000803e3d6000fd5b505050506040513d6000823e3d601f19601f820116820180604052508101906120e09190612bff565b505050505050505050565b60606000821415612133576040518060400160405280600181526020017f30000000000000000000000000000000000000000000000000000000000000008152509050612293565b600082905060005b6000821461216557808061214e906134bb565b915050600a8261215e9190613357565b915061213b565b60008167ffffffffffffffff8111156121a7577f4e487b7100000000000000000000000000000000000000000000000000000000600052604160045260246000fd5b6040519080825280601f01601f1916602001820160405280156121d95781602001600182028036833780820191505090505b5090505b6000851461228c576001826121f29190613388565b9150600a85612201919061352e565b603061220d9190613301565b60f81b818381518110612249577f4e487b7100000000000000000000000000000000000000000000000000000000600052603260045260246000fd5b60200101907effffffffffffffffffffffffffffffffffffffffffffffffffffffffffffff1916908160001a905350600a856122859190613357565b94506121dd565b8093505050505b919050565b60606122d48383604051806020016040528060008152506040518060200160405280600081525060405180602001604052806000815250612415565b905092915050565b6000808573ffffffffffffffffffffffffffffffffffffffff166323b872dd86868660405160240161231093929190612f8a565b6040516020818303038152906040529060e01b6020820180517bffffffffffffffffffffffffffffffffffffffffffffffffffffffff838183161783525050505060405161235e9190612f4a565b6000604051808303816000865af19150503d806000811461239b576040519150601f19603f3d011682016040523d82523d6000602084013e6123a0565b606091505b50915091508180156123ce57506000815114806123cd5750808060200190518101906123cc9190612c40565b5b5b61240d576040517f08c379a000000000000000000000000000000000000000000000000000000000815260040161240490613129565b60405180910390fd5b505050505050565b6060600086905060008690506000869050600086905060008690506000815183518551875189516124469190613301565b6124509190613301565b61245a9190613301565b6124649190613301565b67ffffffffffffffff8111156124a3577f4e487b7100000000000000000000000000000000000000000000000000000000600052604160045260246000fd5b6040519080825280601f01601f1916602001820160405280156124d55781602001600182028036833780820191505090505b5090506000819050600080600091505b88518210156125b957888281518110612527577f4e487b7100000000000000000000000000000000000000000000000000000000600052603260045260246000fd5b602001015160f81c60f81b83828061253e906134bb565b935081518110612577577f4e487b7100000000000000000000000000000000000000000000000000000000600052603260045260246000fd5b60200101907effffffffffffffffffffffffffffffffffffffffffffffffffffffffffffff1916908160001a90535081806125b1906134bb565b9250506124e5565b600091505b875182101561269257878281518110612600577f4e487b7100000000000000000000000000000000000000000000000000000000600052603260045260246000fd5b602001015160f81c60f81b838280612617906134bb565b935081518110612650577f4e487b7100000000000000000000000000000000000000000000000000000000600052603260045260246000fd5b60200101907effffffffffffffffffffffffffffffffffffffffffffffffffffffffffffff1916908160001a905350818061268a906134bb565b9250506125be565b600091505b865182101561276b578682815181106126d9577f4e487b7100000000000000000000000000000000000000000000000000000000600052603260045260246000fd5b602001015160f81c60f81b8382806126f0906134bb565b935081518110612729577f4e487b7100000000000000000000000000000000000000000000000000000000600052603260045260246000fd5b60200101907effffffffffffffffffffffffffffffffffffffffffffffffffffffffffffff1916908160001a9053508180612763906134bb565b925050612697565b600091505b8551821015612844578582815181106127b2577f4e487b7100000000000000000000000000000000000000000000000000000000600052603260045260246000fd5b602001015160f81c60f81b8382806127c9906134bb565b935081518110612802577f4e487b7100000000000000000000000000000000000000000000000000000000600052603260045260246000fd5b60200101907effffffffffffffffffffffffffffffffffffffffffffffffffffffffffffff1916908160001a905350818061283c906134bb565b925050612770565b600091505b845182101561291d5784828151811061288b577f4e487b7100000000000000000000000000000000000000000000000000000000600052603260045260246000fd5b602001015160f81c60f81b8382806128a2906134bb565b9350815181106128db577f4e487b7100000000000000000000000000000000000000000000000000000000600052603260045260246000fd5b60200101907effffffffffffffffffffffffffffffffffffffffffffffffffffffffffffff1916908160001a9053508180612915906134bb565b925050612849565b82995050505050505050505095945050505050565b60006129456129408461326a565b613245565b9050808382526020820190508285602086028201111561296457600080fd5b60005b85811015612994578161297a8882612a46565b845260208401935060208301925050600181019050612967565b5050509392505050565b6000813590506129ad816137e0565b92915050565b6000815190506129c2816137e0565b92915050565b6000813590506129d7816137f7565b92915050565b600082601f8301126129ee57600080fd5b81516129fe848260208601612932565b91505092915050565b600081519050612a168161380e565b92915050565b600081359050612a2b81613825565b92915050565b600081359050612a4081613835565b92915050565b600081519050612a5581613835565b92915050565b600060208284031215612a6d57600080fd5b6000612a7b8482850161299e565b91505092915050565b600060208284031215612a9657600080fd5b6000612aa4848285016129b3565b91505092915050565b600060208284031215612abf57600080fd5b6000612acd848285016129c8565b91505092915050565b600080600080600060a08688031215612aee57600080fd5b6000612afc8882890161299e565b9550506020612b0d88828901612a31565b9450506040612b1e8882890161299e565b9350506060612b2f88828901612a31565b9250506080612b4088828901612a31565b9150509295509295909350565b600080600060608486031215612b6257600080fd5b6000612b708682870161299e565b9350506020612b8186828701612a31565b9250506040612b9286828701612a31565b9150509250925092565b60008060008060808587031215612bb257600080fd5b6000612bc08782880161299e565b9450506020612bd187828801612a31565b9350506040612be287828801612a31565b9250506060612bf387828801612a31565b91505092959194509250565b600060208284031215612c1157600080fd5b600082015167ffffffffffffffff811115612c2b57600080fd5b612c37848285016129dd565b91505092915050565b600060208284031215612c5257600080fd5b6000612c6084828501612a07565b91505092915050565b600060208284031215612c7b57600080fd5b6000612c8984828501612a1c565b91505092915050565b600060208284031215612ca457600080fd5b6000612cb284828501612a31565b91505092915050565b600060208284031215612ccd57600080fd5b6000612cdb84828501612a46565b91505092915050565b6000612cf08383612cfc565b60208301905092915050565b612d05816133bc565b82525050565b612d14816133bc565b82525050565b6000612d25826132a6565b612d2f81856132d4565b9350612d3a83613296565b8060005b83811015612d6b578151612d528882612ce4565b9750612d5d836132c7565b925050600181019050612d3e565b5085935050505092915050565b6000612d83826132b1565b612d8d81856132e5565b9350612d9d818560208601613457565b80840191505092915050565b612db281613433565b82525050565b6000612dc3826132bc565b612dcd81856132f0565b9350612ddd818560208601613457565b612de6816135ec565b840191505092915050565b6000612dfe603a836132f0565b9150612e09826135fd565b604082019050919050565b6000612e21601e836132f0565b9150612e2c8261364c565b602082019050919050565b6000612e446017836132f0565b9150612e4f82613675565b602082019050919050565b6000612e676037836132f0565b9150612e728261369e565b604082019050919050565b6000612e8a6019836132f0565b9150612e95826136ed565b602082019050919050565b6000612ead601d836132f0565b9150612eb882613716565b602082019050919050565b6000612ed0600d836132f0565b9150612edb8261373f565b602082019050919050565b6000612ef36024836132f0565b9150612efe82613768565b604082019050919050565b6000612f166013836132f0565b9150612f21826137b7565b602082019050919050565b612f358161340c565b82525050565b612f4481613416565b82525050565b6000612f568284612d78565b915081905092915050565b6000604082019050612f766000830185612d0b565b612f836020830184612d0b565b9392505050565b6000606082019050612f9f6000830186612d0b565b612fac6020830185612d0b565b612fb96040830184612f2c565b949350505050565b6000604082019050612fd66000830185612d0b565b612fe36020830184612f2c565b9392505050565b600060208201905081810360008301526130048184612d1a565b905092915050565b60006020820190506130216000830184612da9565b92915050565b600060208201905081810360008301526130418184612db8565b905092915050565b6000602082019050818103600083015261306281612df1565b9050919050565b6000602082019050818103600083015261308281612e14565b9050919050565b600060208201905081810360008301526130a281612e37565b9050919050565b600060208201905081810360008301526130c281612e5a565b9050919050565b600060208201905081810360008301526130e281612e7d565b9050919050565b6000602082019050818103600083015261310281612ea0565b9050919050565b6000602082019050818103600083015261312281612ec3565b9050919050565b6000602082019050818103600083015261314281612ee6565b9050919050565b6000602082019050818103600083015261316281612f09565b9050919050565b600060208201905061317e6000830184612f2c565b92915050565b60006080820190506131996000830187612f2c565b81810360208301526131ab8186612d1a565b90506131ba6040830185612d0b565b6131c76060830184612f2c565b95945050505050565b600060a0820190506131e56000830188612f2c565b6131f26020830187612f2c565b81810360408301526132048186612d1a565b90506132136060830185612d0b565b6132206080830184612f2c565b9695505050505050565b600060208201905061323f6000830184612f3b565b92915050565b600061324f613260565b905061325b828261348a565b919050565b6000604051905090565b600067ffffffffffffffff821115613285576132846135bd565b5b602082029050602081019050919050565b6000819050602082019050919050565b600081519050919050565b600081519050919050565b600081519050919050565b6000602082019050919050565b600082825260208201905092915050565b600081905092915050565b600082825260208201905092915050565b600061330c8261340c565b91506133178361340c565b9250827fffffffffffffffffffffffffffffffffffffffffffffffffffffffffffffffff0382111561334c5761334b61355f565b5b828201905092915050565b60006133628261340c565b915061336d8361340c565b92508261337d5761337c61358e565b5b828204905092915050565b60006133938261340c565b915061339e8361340c565b9250828210156133b1576133b061355f565b5b828203905092915050565b60006133c7826133ec565b9050919050565b60006133d9826133ec565b9050919050565b60008115159050919050565b600073ffffffffffffffffffffffffffffffffffffffff82169050919050565b6000819050919050565b600063ffffffff82169050919050565b600060ff82169050919050565b600061343e82613445565b9050919050565b6000613450826133ec565b9050919050565b60005b8381101561347557808201518184015260208101905061345a565b83811115613484576000848401525b50505050565b613493826135ec565b810181811067ffffffffffffffff821117156134b2576134b16135bd565b5b80604052505050565b60006134c68261340c565b91507fffffffffffffffffffffffffffffffffffffffffffffffffffffffffffffffff8214156134f9576134f861355f565b5b600182019050919050565b600061350f82613426565b915060ff8214156135235761352261355f565b5b600182019050919050565b60006135398261340c565b91506135448361340c565b9250826135545761355361358e565b5b828206905092915050565b7f4e487b7100000000000000000000000000000000000000000000000000000000600052601160045260246000fd5b7f4e487b7100000000000000000000000000000000000000000000000000000000600052601260045260246000fd5b7f4e487b7100000000000000000000000000000000000000000000000000000000600052604160045260246000fd5b6000601f19601f8301169050919050565b7f4f637845786368616e67652e73776170466f72455243323028293a206170707260008201527f6f766520666f722074686520726f75746572206661696c65642e000000000000602082015250565b7f466f722063616c6c65722065787065637465642062652063726561746f720000600082015250565b7f496e76616c69642063726561746f722061646472657373000000000000000000600082015250565b7f4f637845786368616e67652e73776170546f45544828293a20617070726f766560008201527f20666f722074686520726f75746572206661696c65642e000000000000000000602082015250565b7f4578706563746564206e6f6e2d7a65726f206164647265737300000000000000600082015250565b7f496e76616c69642063616c6c65722e204d7573742062652061646d696e000000600082015250565b7f496e76616c696420707269636500000000000000000000000000000000000000600082015250565b7f5472616e7366657248656c7065723a205452414e534645525f46524f4d5f464160008201527f494c454400000000000000000000000000000000000000000000000000000000602082015250565b7f41646d696e2067726f75702069732066756c6c00000000000000000000000000600082015250565b6137e9816133bc565b81146137f457600080fd5b50565b613800816133ce565b811461380b57600080fd5b50565b613817816133e0565b811461382257600080fd5b50565b6003811061383257600080fd5b50565b61383e8161340c565b811461384957600080fd5b5056fe4f637845786368616e67652e73776170466f72455243323028293a204e6f7420656e6f75676820616c6c6f77616e636520666f722074686520455243323020746f6b656e2e20616c6c6f77616e63653a204f637845786368616e67652e73776170546f45544828293a204e6f7420656e6f75676820616c6c6f77616e636520666f722074686520455243323020746f6b656e2e20616c6c6f77616e63653a20a2646970667358221220b42f21864e62cf9bb178c480aa48626096aeb88d381449a646526cf0ff94da7664736f6c63430008040033",
  "immutableReferences": {},
  "source": "// SPDX-License-Identifier: MIT\npragma solidity ^0.8.0;\n\n// https://soliditydeveloper.com/uniswap2\n// https://docs.uniswap.org/protocol/V2/guides/smart-contract-integration/trading-from-a-smart-contract\n// https://ethereum.org/ru/developers/tutorials/transfers-and-approval-of-erc-20-tokens-from-a-solidity-smart-contract/\n// https://solidity-by-example.org/app/erc20/\n\nimport \"@uniswap/v2-periphery/contracts/interfaces/IUniswapV2Router02.sol\";\nimport '@uniswap/lib/contracts/libraries/TransferHelper.sol';\nimport \"@openzeppelin/contracts/token/ERC20/IERC20.sol\"; // openzeppelin 4.5 (for solidity 0.8.x)\nimport \"@openzeppelin/contracts/utils/Strings.sol\";\nimport \"@openzeppelin/contracts/token/ERC721/IERC721.sol\";\nimport \"./OcxBase.sol\";\nimport \"./PawnNFTs.sol\";\nimport \"./OcatToken.sol\";\nimport \"./OcxLocalPool.sol\";\nimport \"./OcxCommon.sol\";\n\ncontract OcxExchange is OcxBase {\n\n    IUniswapV2Router02 public uniswapRouter;\n    address payable private ocxLocalPoolAddress;\n\n    receive() external payable {}\n\n    constructor() {\n        uniswapRouter = IUniswapV2Router02(UNISWAP_ROUTER_ADDRESS);\n    }\n\n    function setOcxLocalPoolAddress(address payable _ocxLocalPoolAddress) public \n    onlyCreator onlyValidAddress(_ocxLocalPoolAddress) {\n        ocxLocalPoolAddress = _ocxLocalPoolAddress;\n    }\n\n    function swapFromETH(\n        address _tokenOut,\n        uint _amountOutMin,\n        uint _deadline\n    ) public payable {\n        // uint deadline = block.timestamp + 15; // using 'now' for convenience, for mainnet pass deadline from frontend!\n        address[] memory path = new address[](2);\n        path[0] = uniswapRouter.WETH();\n        path[1] = address(_tokenOut);\n        // if (_tokenOut != ocatAddress) {\n        uniswapRouter.swapExactETHForTokens(_amountOutMin, path, msg.sender, _deadline);\n        // } else {\n        //     OcxLocalPool(ocxLocalPoolAddress).swapEthToOcat{\n        //         value: msg.value\n        //     }(_amountOutMin, payable(msg.sender), _deadline);\n        // }\n    }\n\n    function swapToETH(\n        address _tokenIn,\n        uint _amountIn,\n        uint _amountOutMin,\n        uint _deadline\n    ) public {\n        // transferFrom\n        IERC20 sellTokenContract = IERC20(_tokenIn);\n        //     Check for allowance\n        uint256 allowance = sellTokenContract.allowance(msg.sender, address(this));\n        string memory errorText = Strings.toString(allowance);\n        errorText = strConcat(\"OcxExchange.swapToETH(): Not enough allowance for the ERC20 token. allowance: \", errorText);\n        require(allowance >= _amountIn, errorText);\n        //     Do transferFrom\n        TransferHelper.safeTransferFrom(_tokenIn, msg.sender, address(this), _amountIn);\n\n        address[] memory path = new address[](2);\n        path[0] = address(_tokenIn);\n        path[1] = uniswapRouter.WETH();\n        // if (_tokenIn != ocatAddress) {\n            // approve\n        require(\n            sellTokenContract.approve(\n                address(UNISWAP_ROUTER_ADDRESS), \n                _amountIn\n            ), \n            'OcxExchange.swapToETH(): approve for the router failed.'\n        );\n        uniswapRouter.swapExactTokensForETH(\n            _amountIn, \n            _amountOutMin, \n            path, \n            msg.sender, \n            _deadline\n        );\n        // } else {\n        //     // approve\n        //     require(\n        //         sellTokenContract.approve(\n        //             address(ocxLocalPoolAddress), \n        //             _amountIn\n        //         ), \n        //         'OcxExchange.swapToETH(): approve for the router failed.'\n        //     );\n        //     OcxLocalPool(ocxLocalPoolAddress).swapOcatToEth(\n        //         _amountIn,\n        //         _amountOutMin, \n        //         payable(msg.sender), \n        //         _deadline\n        //     );\n        // }\n    }\n\n    function swapForERC20(\n        address _tokenIn,\n        uint _amountIn,\n        address _tokenOut,\n        uint _amountOutMin,\n        uint _deadline\n    ) public {\n        // transferFrom\n        //    Check for allowance\n        uint256 allowance = IERC20(_tokenIn).allowance(msg.sender, address(this));\n        string memory errorText = Strings.toString(allowance);\n        errorText = strConcat(\"OcxExchange.swapForERC20(): Not enough allowance for the ERC20 token. allowance: \", errorText);\n        require(allowance >= _amountIn, errorText);\n        //     Do transferFrom\n        TransferHelper.safeTransferFrom(_tokenIn, msg.sender, address(this), _amountIn);\n\n        // approve\n        require(\n            IERC20(_tokenIn).approve(address(UNISWAP_ROUTER_ADDRESS), _amountIn), \n            'OcxExchange.swapForERC20(): approve for the router failed.'\n        );\n\n        address[] memory path = new address[](3);\n        path[0] = _tokenIn;\n        path[1] = uniswapRouter.WETH();\n        path[2] = _tokenOut;\n        uniswapRouter.swapExactTokensForTokens(_amountIn, _amountOutMin, path, msg.sender, _deadline);\n    }\n\n}\n",
  "sourcePath": "/home/cowboy/OCX/OpenchainTestVersion/server/contracts/OcxExchange.sol",
  "compiler": {
    "name": "solc",
    "version": "0.8.4+commit.c7e474f2.Emscripten.clang"
  },
  "schemaVersion": "3.4.6",
  "updatedAt": "2022-04-16T11:16:56.393Z",
  "devdoc": {
    "kind": "dev",
    "methods": {},
    "version": 1
  },
  "userdoc": {
    "kind": "user",
    "methods": {},
    "version": 1
  }
}