{
  "contractName": "OcxLocalPool",
  "abi": [
    {
      "inputs": [],
      "stateMutability": "nonpayable",
      "type": "constructor"
    },
    {
      "anonymous": false,
      "inputs": [
        {
          "indexed": false,
          "internalType": "uint256",
          "name": "",
          "type": "uint256"
        }
      ],
      "name": "SwappedAmount",
      "type": "event"
    },
    {
      "inputs": [
        {
          "internalType": "address",
          "name": "_admin",
          "type": "address"
        }
      ],
      "name": "addAdmin",
      "outputs": [],
      "stateMutability": "nonpayable",
      "type": "function"
    },
    {
      "inputs": [],
      "name": "getAdmins",
      "outputs": [
        {
          "internalType": "address[]",
          "name": "",
          "type": "address[]"
        }
      ],
      "stateMutability": "view",
      "type": "function"
    },
    {
      "inputs": [
        {
          "internalType": "enum FeeType",
          "name": "feeType",
          "type": "uint8"
        }
      ],
      "name": "getFee",
      "outputs": [
        {
          "internalType": "uint32",
          "name": "",
          "type": "uint32"
        }
      ],
      "stateMutability": "view",
      "type": "function"
    },
    {
      "inputs": [],
      "name": "getOcatPrice",
      "outputs": [
        {
          "internalType": "uint256",
          "name": "",
          "type": "uint256"
        }
      ],
      "stateMutability": "view",
      "type": "function"
    },
    {
      "inputs": [],
      "name": "localPool",
      "outputs": [
        {
          "internalType": "uint256",
          "name": "k",
          "type": "uint256"
        },
        {
          "internalType": "uint256",
          "name": "prevK",
          "type": "uint256"
        },
        {
          "internalType": "uint256",
          "name": "prevQuote",
          "type": "uint256"
        },
        {
          "internalType": "uint256",
          "name": "quoteOrig",
          "type": "uint256"
        },
        {
          "internalType": "uint256",
          "name": "quote",
          "type": "uint256"
        }
      ],
      "stateMutability": "view",
      "type": "function"
    },
    {
      "inputs": [],
      "name": "quoteMultiplier",
      "outputs": [
        {
          "internalType": "uint256",
          "name": "",
          "type": "uint256"
        }
      ],
      "stateMutability": "view",
      "type": "function"
    },
    {
      "inputs": [],
      "name": "quoteRateMultiplier",
      "outputs": [
        {
          "internalType": "uint256",
          "name": "",
          "type": "uint256"
        }
      ],
      "stateMutability": "view",
      "type": "function"
    },
    {
      "inputs": [
        {
          "internalType": "address payable",
          "name": "_feeManager",
          "type": "address"
        }
      ],
      "name": "setFeeManager",
      "outputs": [],
      "stateMutability": "nonpayable",
      "type": "function"
    },
    {
      "inputs": [
        {
          "internalType": "address payable",
          "name": "_ocatAddress",
          "type": "address"
        }
      ],
      "name": "setOcatAddress",
      "outputs": [],
      "stateMutability": "nonpayable",
      "type": "function"
    },
    {
      "inputs": [
        {
          "internalType": "uint256",
          "name": "_price",
          "type": "uint256"
        }
      ],
      "name": "setOcatPrice",
      "outputs": [],
      "stateMutability": "nonpayable",
      "type": "function"
    },
    {
      "inputs": [
        {
          "internalType": "address payable",
          "name": "_ocxAddress",
          "type": "address"
        }
      ],
      "name": "setOcxAddress",
      "outputs": [],
      "stateMutability": "nonpayable",
      "type": "function"
    },
    {
      "inputs": [
        {
          "internalType": "address payable",
          "name": "_pnftAddress",
          "type": "address"
        }
      ],
      "name": "setPnftAddress",
      "outputs": [],
      "stateMutability": "nonpayable",
      "type": "function"
    },
    {
      "stateMutability": "payable",
      "type": "receive"
    },
    {
      "inputs": [
        {
          "internalType": "uint256",
          "name": "sellAmount",
          "type": "uint256"
        },
        {
          "internalType": "string[2]",
          "name": "path",
          "type": "string[2]"
        }
      ],
      "name": "getAmountsOut",
      "outputs": [
        {
          "internalType": "uint256",
          "name": "amountOut",
          "type": "uint256"
        }
      ],
      "stateMutability": "view",
      "type": "function"
    },
    {
      "inputs": [
        {
          "internalType": "string[2]",
          "name": "path",
          "type": "string[2]"
        },
        {
          "internalType": "uint256",
          "name": "amountIn",
          "type": "uint256"
        },
        {
          "internalType": "uint256",
          "name": "amountOutMin",
          "type": "uint256"
        },
        {
          "internalType": "uint256",
          "name": "",
          "type": "uint256"
        }
      ],
      "name": "swap",
      "outputs": [
        {
          "internalType": "uint256",
          "name": "amountOut",
          "type": "uint256"
        }
      ],
      "stateMutability": "payable",
      "type": "function"
    },
    {
      "inputs": [
        {
          "internalType": "uint256[2]",
          "name": "amountPair",
          "type": "uint256[2]"
        }
      ],
      "name": "addLiquidity",
      "outputs": [],
      "stateMutability": "payable",
      "type": "function"
    }
  ],
  "bytecode": "0x60806040523480156200001157600080fd5b5033600160006101000a81548173ffffffffffffffffffffffffffffffffffffffff021916908373ffffffffffffffffffffffffffffffffffffffff16021790555060016003819055506032600260008060028111156200009b577f4e487b7100000000000000000000000000000000000000000000000000000000600052602160045260246000fd5b6002811115620000d4577f4e487b7100000000000000000000000000000000000000000000000000000000600052602160045260246000fd5b815260200190815260200160002060006101000a81548163ffffffff021916908363ffffffff1602179055506032600260006001600281111562000141577f4e487b7100000000000000000000000000000000000000000000000000000000600052602160045260246000fd5b60028111156200017a577f4e487b7100000000000000000000000000000000000000000000000000000000600052602160045260246000fd5b815260200190815260200160002060006101000a81548163ffffffff021916908363ffffffff160217905550603260026000600280811115620001e6577f4e487b7100000000000000000000000000000000000000000000000000000000600052602160045260246000fd5b60028111156200021f577f4e487b7100000000000000000000000000000000000000000000000000000000600052602160045260246000fd5b815260200190815260200160002060006101000a81548163ffffffff021916908363ffffffff1602179055506003600a6200025b9190620002d8565b6011819055506003600a620002719190620002d8565b6012819055506200045b565b6000808291508390505b6001851115620002cf57808604811115620002a757620002a66200041f565b5b6001851615620002b75780820291505b8081029050620002c7856200044e565b945062000287565b94509492505050565b6000620002e58262000415565b9150620002f28362000415565b9250620003217fffffffffffffffffffffffffffffffffffffffffffffffffffffffffffffffff848462000329565b905092915050565b6000826200033b57600190506200040e565b816200034b57600090506200040e565b81600181146200036457600281146200036f57620003a5565b60019150506200040e565b60ff8411156200038457620003836200041f565b5b8360020a9150848211156200039e576200039d6200041f565b5b506200040e565b5060208310610133831016604e8410600b8410161715620003df5782820a905083811115620003d957620003d86200041f565b5b6200040e565b620003ee84848460016200027d565b925090508184048111156200040857620004076200041f565b5b81810290505b9392505050565b6000819050919050565b7f4e487b7100000000000000000000000000000000000000000000000000000000600052601160045260246000fd5b60008160011c9050919050565b614cd9806200046b6000396000f3fe6080604052600436106100ec5760003560e01c8063704802751161008a578063b30a0a7111610059578063b30a0a71146102ce578063bb3f6c6a146102f9578063da4bc05414610322578063e9ee997a14610352576100f3565b806370480275146102225780639152f0951461024b578063a18f9aec14610276578063b18d30a2146102a5576100f3565b806331ae450b116100c657806331ae450b146101875780633214e1a9146101b2578063472d35b9146101dd578063671f01dc14610206576100f3565b8063083132c4146100f85780630b0c506f1461013557806315f03d221461015e576100f3565b366100f357005b600080fd5b34801561010457600080fd5b5061011f600480360381019061011a919061399f565b61038f565b60405161012c9190614232565b60405180910390f35b34801561014157600080fd5b5061015c600480360381019061015791906138a9565b61042c565b005b34801561016a57600080fd5b50610185600480360381019061018091906138a9565b610604565b005b34801561019357600080fd5b5061019c61084c565b6040516101a99190613f42565b60405180910390f35b3480156101be57600080fd5b506101c76108da565b6040516101d491906141c4565b60405180910390f35b3480156101e957600080fd5b5061020460048036038101906101ff91906138a9565b6108e4565b005b610220600480360381019061021b919061394d565b610abc565b005b34801561022e57600080fd5b5061024960048036038101906102449190613880565b61181b565b005b34801561025757600080fd5b50610260611b26565b60405161026d91906141c4565b60405180910390f35b34801561028257600080fd5b5061028b611b2c565b60405161029c9594939291906141df565b60405180910390f35b3480156102b157600080fd5b506102cc60048036038101906102c791906138a9565b611b50565b005b3480156102da57600080fd5b506102e3611df3565b6040516102f091906141c4565b60405180910390f35b34801561030557600080fd5b50610320600480360381019061031b91906139c8565b611df9565b005b61033c600480360381019061033791906138d2565b612033565b60405161034991906141c4565b60405180910390f35b34801561035e57600080fd5b5061037960048036038101906103749190613a1a565b612ed6565b60405161038691906141c4565b60405180910390f35b6000600260008360028111156103ce577f4e487b7100000000000000000000000000000000000000000000000000000000600052602160045260246000fd5b6002811115610406577f4e487b7100000000000000000000000000000000000000000000000000000000600052602160045260246000fd5b815260200190815260200160002060009054906101000a900463ffffffff169050919050565b600073ffffffffffffffffffffffffffffffffffffffff16600160009054906101000a900473ffffffffffffffffffffffffffffffffffffffff1673ffffffffffffffffffffffffffffffffffffffff1614156104be576040517f08c379a00000000000000000000000000000000000000000000000000000000081526004016104b590614024565b60405180910390fd5b600160009054906101000a900473ffffffffffffffffffffffffffffffffffffffff1673ffffffffffffffffffffffffffffffffffffffff163373ffffffffffffffffffffffffffffffffffffffff161461054e576040517f08c379a000000000000000000000000000000000000000000000000000000000815260040161054590614004565b60405180910390fd5b80600073ffffffffffffffffffffffffffffffffffffffff168173ffffffffffffffffffffffffffffffffffffffff1614156105bf576040517f08c379a00000000000000000000000000000000000000000000000000000000081526004016105b6906140a4565b60405180910390fd5b81600560006101000a81548173ffffffffffffffffffffffffffffffffffffffff021916908373ffffffffffffffffffffffffffffffffffffffff1602179055505050565b600073ffffffffffffffffffffffffffffffffffffffff163373ffffffffffffffffffffffffffffffffffffffff161415610674576040517f08c379a000000000000000000000000000000000000000000000000000000000815260040161066b906140a4565b60405180910390fd5b600073ffffffffffffffffffffffffffffffffffffffff16600160009054906101000a900473ffffffffffffffffffffffffffffffffffffffff1673ffffffffffffffffffffffffffffffffffffffff161415610706576040517f08c379a00000000000000000000000000000000000000000000000000000000081526004016106fd90614024565b60405180910390fd5b600160009054906101000a900473ffffffffffffffffffffffffffffffffffffffff1673ffffffffffffffffffffffffffffffffffffffff163373ffffffffffffffffffffffffffffffffffffffff1614610796576040517f08c379a000000000000000000000000000000000000000000000000000000000815260040161078d90614004565b60405180910390fd5b80600073ffffffffffffffffffffffffffffffffffffffff168173ffffffffffffffffffffffffffffffffffffffff161415610807576040517f08c379a00000000000000000000000000000000000000000000000000000000081526004016107fe906140a4565b60405180910390fd5b81600660006101000a81548173ffffffffffffffffffffffffffffffffffffffff021916908373ffffffffffffffffffffffffffffffffffffffff1602179055505050565b606060008054806020026020016040519081016040528092919081815260200182805480156108d057602002820191906000526020600020905b8160009054906101000a900473ffffffffffffffffffffffffffffffffffffffff1673ffffffffffffffffffffffffffffffffffffffff1681526020019060010190808311610886575b5050505050905090565b6000600354905090565b600073ffffffffffffffffffffffffffffffffffffffff16600160009054906101000a900473ffffffffffffffffffffffffffffffffffffffff1673ffffffffffffffffffffffffffffffffffffffff161415610976576040517f08c379a000000000000000000000000000000000000000000000000000000000815260040161096d90614024565b60405180910390fd5b600160009054906101000a900473ffffffffffffffffffffffffffffffffffffffff1673ffffffffffffffffffffffffffffffffffffffff163373ffffffffffffffffffffffffffffffffffffffff1614610a06576040517f08c379a00000000000000000000000000000000000000000000000000000000081526004016109fd90614004565b60405180910390fd5b80600073ffffffffffffffffffffffffffffffffffffffff168173ffffffffffffffffffffffffffffffffffffffff161415610a77576040517f08c379a0000000000000000000000000000000000000000000000000000000008152600401610a6e906140a4565b60405180910390fd5b81600760006101000a81548173ffffffffffffffffffffffffffffffffffffffff021916908373ffffffffffffffffffffffffffffffffffffffff1602179055505050565b600073ffffffffffffffffffffffffffffffffffffffff163373ffffffffffffffffffffffffffffffffffffffff161415610b2c576040517f08c379a0000000000000000000000000000000000000000000000000000000008152600401610b2390614024565b60405180910390fd5b6000805b6000805490508160ff161015610bf75760008160ff1681548110610b7d577f4e487b7100000000000000000000000000000000000000000000000000000000600052603260045260246000fd5b9060005260206000200160009054906101000a900473ffffffffffffffffffffffffffffffffffffffff1673ffffffffffffffffffffffffffffffffffffffff163373ffffffffffffffffffffffffffffffffffffffff161415610be45760019150610bf7565b8080610bef906146d5565b915050610b30565b5080610c38576040517f08c379a0000000000000000000000000000000000000000000000000000000008152600401610c2f90614104565b60405180910390fd5b600073ffffffffffffffffffffffffffffffffffffffff16600460009054906101000a900473ffffffffffffffffffffffffffffffffffffffff1673ffffffffffffffffffffffffffffffffffffffff161415610cca576040517f08c379a0000000000000000000000000000000000000000000000000000000008152600401610cc190613fe4565b60405180910390fd5b600073ffffffffffffffffffffffffffffffffffffffff16600560009054906101000a900473ffffffffffffffffffffffffffffffffffffffff1673ffffffffffffffffffffffffffffffffffffffff161415610d5c576040517f08c379a0000000000000000000000000000000000000000000000000000000008152600401610d5390614164565b60405180910390fd5b600082600060028110610d98577f4e487b7100000000000000000000000000000000000000000000000000000000600052603260045260246000fd5b6020020151118015610de85750600082600160028110610de1577f4e487b7100000000000000000000000000000000000000000000000000000000600052603260045260246000fd5b6020020151115b610e27576040517f08c379a0000000000000000000000000000000000000000000000000000000008152600401610e1e90613f84565b60405180910390fd5b600073ffffffffffffffffffffffffffffffffffffffff166009600001600060028110610e7d577f4e487b7100000000000000000000000000000000000000000000000000000000600052603260045260246000fd5b0160009054906101000a900473ffffffffffffffffffffffffffffffffffffffff1673ffffffffffffffffffffffffffffffffffffffff161480610f4c5750600073ffffffffffffffffffffffffffffffffffffffff166009600001600160028110610f12577f4e487b7100000000000000000000000000000000000000000000000000000000600052603260045260246000fd5b0160009054906101000a900473ffffffffffffffffffffffffffffffffffffffff1673ffffffffffffffffffffffffffffffffffffffff16145b15611017576040518060400160405280600460009054906101000a900473ffffffffffffffffffffffffffffffffffffffff1673ffffffffffffffffffffffffffffffffffffffff1673ffffffffffffffffffffffffffffffffffffffff168152602001600560009054906101000a900473ffffffffffffffffffffffffffffffffffffffff1673ffffffffffffffffffffffffffffffffffffffff1673ffffffffffffffffffffffffffffffffffffffff1681525060096000019060026110159291906135d2565b505b600460009054906101000a900473ffffffffffffffffffffffffffffffffffffffff16600860405161104890613ea4565b908152602001604051809103902060006101000a81548173ffffffffffffffffffffffffffffffffffffffff021916908373ffffffffffffffffffffffffffffffffffffffff160217905550600560009054906101000a900473ffffffffffffffffffffffffffffffffffffffff1660086040516110c590613e8f565b908152602001604051809103902060006101000a81548173ffffffffffffffffffffffffffffffffffffffff021916908373ffffffffffffffffffffffffffffffffffffffff16021790555060008260016002811061114d577f4e487b7100000000000000000000000000000000000000000000000000000000600052603260045260246000fd5b60200201516011548460006002811061118f577f4e487b7100000000000000000000000000000000000000000000000000000000600052603260045260246000fd5b602002015161119e919061455d565b6111a891906143bb565b90506000600960060154601254836111c0919061455d565b6111ca91906143bb565b9050600260036111da91906145b7565b600a6111e6919061443f565b60626111f2919061455d565b8111801561122457506002600361120991906145b7565b600a611215919061443f565b6066611221919061455d565b81105b611263576040517f08c379a000000000000000000000000000000000000000000000000000000000815260040161125a90613fc4565b60405180910390fd5b8360006002811061129d577f4e487b7100000000000000000000000000000000000000000000000000000000600052603260045260246000fd5b602002015160096002016000600460009054906101000a900473ffffffffffffffffffffffffffffffffffffffff1673ffffffffffffffffffffffffffffffffffffffff1673ffffffffffffffffffffffffffffffffffffffff16815260200190815260200160002060008282546113159190614365565b9250508190555083600160028110611356577f4e487b7100000000000000000000000000000000000000000000000000000000600052603260045260246000fd5b602002015160096002016000600560009054906101000a900473ffffffffffffffffffffffffffffffffffffffff1673ffffffffffffffffffffffffffffffffffffffff1673ffffffffffffffffffffffffffffffffffffffff16815260200190815260200160002060008282546113ce9190614365565b9250508190555060096003015460096004018190555060096002016000600560009054906101000a900473ffffffffffffffffffffffffffffffffffffffff1673ffffffffffffffffffffffffffffffffffffffff1673ffffffffffffffffffffffffffffffffffffffff1681526020019081526020016000205460096002016000600460009054906101000a900473ffffffffffffffffffffffffffffffffffffffff1673ffffffffffffffffffffffffffffffffffffffff1673ffffffffffffffffffffffffffffffffffffffff168152602001908152602001600020546114b8919061455d565b600960030181905550600960070154600960050181905550816009600701819055506000600460009054906101000a900473ffffffffffffffffffffffffffffffffffffffff1673ffffffffffffffffffffffffffffffffffffffff1663dd62ed3e33306040518363ffffffff1660e01b8152600401611539929190613eb9565b60206040518083038186803b15801561155157600080fd5b505afa158015611565573d6000803e3d6000fd5b505050506040513d601f19601f8201168201806040525081019061158991906139f1565b9050846000600281106115c5577f4e487b7100000000000000000000000000000000000000000000000000000000600052603260045260246000fd5b602002015181101561160c576040517f08c379a000000000000000000000000000000000000000000000000000000000815260040161160390614044565b60405180910390fd5b611678600460009054906101000a900473ffffffffffffffffffffffffffffffffffffffff1633308860006002811061166e577f4e487b7100000000000000000000000000000000000000000000000000000000600052603260045260246000fd5b602002015161330a565b600560009054906101000a900473ffffffffffffffffffffffffffffffffffffffff1673ffffffffffffffffffffffffffffffffffffffff1663dd62ed3e33306040518363ffffffff1660e01b81526004016116d5929190613eb9565b60206040518083038186803b1580156116ed57600080fd5b505afa158015611701573d6000803e3d6000fd5b505050506040513d601f19601f8201168201806040525081019061172591906139f1565b905084600160028110611761577f4e487b7100000000000000000000000000000000000000000000000000000000600052603260045260246000fd5b60200201518110156117a8576040517f08c379a000000000000000000000000000000000000000000000000000000000815260040161179f90613fa4565b60405180910390fd5b611814600560009054906101000a900473ffffffffffffffffffffffffffffffffffffffff1633308860016002811061180a577f4e487b7100000000000000000000000000000000000000000000000000000000600052603260045260246000fd5b602002015161330a565b5050505050565b600073ffffffffffffffffffffffffffffffffffffffff16600160009054906101000a900473ffffffffffffffffffffffffffffffffffffffff1673ffffffffffffffffffffffffffffffffffffffff1614156118ad576040517f08c379a00000000000000000000000000000000000000000000000000000000081526004016118a490614024565b60405180910390fd5b600160009054906101000a900473ffffffffffffffffffffffffffffffffffffffff1673ffffffffffffffffffffffffffffffffffffffff163373ffffffffffffffffffffffffffffffffffffffff161461193d576040517f08c379a000000000000000000000000000000000000000000000000000000000815260040161193490614004565b60405180910390fd5b80600073ffffffffffffffffffffffffffffffffffffffff168173ffffffffffffffffffffffffffffffffffffffff1614156119ae576040517f08c379a00000000000000000000000000000000000000000000000000000000081526004016119a5906140a4565b60405180910390fd5b6006600080549050106119f6576040517f08c379a00000000000000000000000000000000000000000000000000000000081526004016119ed90614184565b60405180910390fd5b60005b6000805490508160ff161015611abd5760008160ff1681548110611a46577f4e487b7100000000000000000000000000000000000000000000000000000000600052603260045260246000fd5b9060005260206000200160009054906101000a900473ffffffffffffffffffffffffffffffffffffffff1673ffffffffffffffffffffffffffffffffffffffff168373ffffffffffffffffffffffffffffffffffffffff161415611aaa5750611b22565b8080611ab5906146d5565b9150506119f9565b506000829080600181540180825580915050600190039060005260206000200160009091909190916101000a81548173ffffffffffffffffffffffffffffffffffffffff021916908373ffffffffffffffffffffffffffffffffffffffff1602179055505b5050565b60115481565b60098060030154908060040154908060050154908060060154908060070154905085565b600073ffffffffffffffffffffffffffffffffffffffff163373ffffffffffffffffffffffffffffffffffffffff161415611bc0576040517f08c379a0000000000000000000000000000000000000000000000000000000008152600401611bb7906140a4565b60405180910390fd5b80600073ffffffffffffffffffffffffffffffffffffffff168173ffffffffffffffffffffffffffffffffffffffff161415611c31576040517f08c379a0000000000000000000000000000000000000000000000000000000008152600401611c28906140a4565b60405180910390fd5b600073ffffffffffffffffffffffffffffffffffffffff163373ffffffffffffffffffffffffffffffffffffffff161415611ca1576040517f08c379a0000000000000000000000000000000000000000000000000000000008152600401611c9890614024565b60405180910390fd5b6000805b6000805490508160ff161015611d6c5760008160ff1681548110611cf2577f4e487b7100000000000000000000000000000000000000000000000000000000600052603260045260246000fd5b9060005260206000200160009054906101000a900473ffffffffffffffffffffffffffffffffffffffff1673ffffffffffffffffffffffffffffffffffffffff163373ffffffffffffffffffffffffffffffffffffffff161415611d595760019150611d6c565b8080611d64906146d5565b915050611ca5565b5080611dad576040517f08c379a0000000000000000000000000000000000000000000000000000000008152600401611da490614104565b60405180910390fd5b82600460006101000a81548173ffffffffffffffffffffffffffffffffffffffff021916908373ffffffffffffffffffffffffffffffffffffffff160217905550505050565b60125481565b600073ffffffffffffffffffffffffffffffffffffffff163373ffffffffffffffffffffffffffffffffffffffff161415611e69576040517f08c379a0000000000000000000000000000000000000000000000000000000008152600401611e60906140a4565b60405180910390fd5b600073ffffffffffffffffffffffffffffffffffffffff163373ffffffffffffffffffffffffffffffffffffffff161415611ed9576040517f08c379a0000000000000000000000000000000000000000000000000000000008152600401611ed090614024565b60405180910390fd5b6000805b6000805490508160ff161015611fa45760008160ff1681548110611f2a577f4e487b7100000000000000000000000000000000000000000000000000000000600052603260045260246000fd5b9060005260206000200160009054906101000a900473ffffffffffffffffffffffffffffffffffffffff1673ffffffffffffffffffffffffffffffffffffffff163373ffffffffffffffffffffffffffffffffffffffff161415611f915760019150611fa4565b8080611f9c906146d5565b915050611edd565b5080611fe5576040517f08c379a0000000000000000000000000000000000000000000000000000000008152600401611fdc90614104565b60405180910390fd5b60008211612028576040517f08c379a000000000000000000000000000000000000000000000000000000000815260040161201f90614124565b60405180910390fd5b816003819055505050565b60008073ffffffffffffffffffffffffffffffffffffffff163373ffffffffffffffffffffffffffffffffffffffff1614156120a4576040517f08c379a000000000000000000000000000000000000000000000000000000000815260040161209b90614024565b60405180910390fd5b6000805b6000805490508160ff16101561216f5760008160ff16815481106120f5577f4e487b7100000000000000000000000000000000000000000000000000000000600052603260045260246000fd5b9060005260206000200160009054906101000a900473ffffffffffffffffffffffffffffffffffffffff1673ffffffffffffffffffffffffffffffffffffffff163373ffffffffffffffffffffffffffffffffffffffff16141561215c576001915061216f565b8080612167906146d5565b9150506120a8565b50806121b0576040517f08c379a00000000000000000000000000000000000000000000000000000000081526004016121a790614104565b60405180910390fd5b600460009054906101000a900473ffffffffffffffffffffffffffffffffffffffff1673ffffffffffffffffffffffffffffffffffffffff16600887600060028110612225577f4e487b7100000000000000000000000000000000000000000000000000000000600052603260045260246000fd5b60200201516040516122379190613e78565b908152602001604051809103902060009054906101000a900473ffffffffffffffffffffffffffffffffffffffff1673ffffffffffffffffffffffffffffffffffffffff1614806123515750600560009054906101000a900473ffffffffffffffffffffffffffffffffffffffff1673ffffffffffffffffffffffffffffffffffffffff166008876000600281106122f8577f4e487b7100000000000000000000000000000000000000000000000000000000600052603260045260246000fd5b602002015160405161230a9190613e78565b908152602001604051809103902060009054906101000a900473ffffffffffffffffffffffffffffffffffffffff1673ffffffffffffffffffffffffffffffffffffffff16145b612390576040517f08c379a000000000000000000000000000000000000000000000000000000000815260040161238790614064565b60405180910390fd5b600460009054906101000a900473ffffffffffffffffffffffffffffffffffffffff1673ffffffffffffffffffffffffffffffffffffffff16600887600160028110612405577f4e487b7100000000000000000000000000000000000000000000000000000000600052603260045260246000fd5b60200201516040516124179190613e78565b908152602001604051809103902060009054906101000a900473ffffffffffffffffffffffffffffffffffffffff1673ffffffffffffffffffffffffffffffffffffffff1614806125315750600560009054906101000a900473ffffffffffffffffffffffffffffffffffffffff1673ffffffffffffffffffffffffffffffffffffffff166008876001600281106124d8577f4e487b7100000000000000000000000000000000000000000000000000000000600052603260045260246000fd5b60200201516040516124ea9190613e78565b908152602001604051809103902060009054906101000a900473ffffffffffffffffffffffffffffffffffffffff1673ffffffffffffffffffffffffffffffffffffffff16145b612570576040517f08c379a000000000000000000000000000000000000000000000000000000000815260040161256790614084565b60405180910390fd5b61257a8587612ed6565b9150838210156125bf576040517f08c379a00000000000000000000000000000000000000000000000000000000081526004016125b6906140c4565b60405180910390fd5b60006008876000600281106125fd577f4e487b7100000000000000000000000000000000000000000000000000000000600052603260045260246000fd5b602002015160405161260f9190613e78565b908152602001604051809103902060009054906101000a900473ffffffffffffffffffffffffffffffffffffffff1673ffffffffffffffffffffffffffffffffffffffff1663dd62ed3e33306040518363ffffffff1660e01b8152600401612678929190613eb9565b60206040518083038186803b15801561269057600080fd5b505afa1580156126a4573d6000803e3d6000fd5b505050506040513d601f19601f820116820180604052508101906126c891906139f1565b90508581101561270d576040517f08c379a000000000000000000000000000000000000000000000000000000000815260040161270490614044565b60405180910390fd5b61279560088860006002811061274c577f4e487b7100000000000000000000000000000000000000000000000000000000600052603260045260246000fd5b602002015160405161275e9190613e78565b908152602001604051809103902060009054906101000a900473ffffffffffffffffffffffffffffffffffffffff1633308961330a565b61281c6008886001600281106127d4577f4e487b7100000000000000000000000000000000000000000000000000000000600052603260045260246000fd5b60200201516040516127e69190613e78565b908152602001604051809103902060009054906101000a900473ffffffffffffffffffffffffffffffffffffffff163385613443565b856009600201600060088a600060028110612860577f4e487b7100000000000000000000000000000000000000000000000000000000600052603260045260246000fd5b60200201516040516128729190613e78565b908152602001604051809103902060009054906101000a900473ffffffffffffffffffffffffffffffffffffffff1673ffffffffffffffffffffffffffffffffffffffff1673ffffffffffffffffffffffffffffffffffffffff16815260200190815260200160002060008282546128ea9190614365565b92505081905550826009600201600060088a600160028110612935577f4e487b7100000000000000000000000000000000000000000000000000000000600052603260045260246000fd5b60200201516040516129479190613e78565b908152602001604051809103902060009054906101000a900473ffffffffffffffffffffffffffffffffffffffff1673ffffffffffffffffffffffffffffffffffffffff1673ffffffffffffffffffffffffffffffffffffffff16815260200190815260200160002060008282546129bf91906145b7565b92505081905550600960070154600960050181905550600960020160006009600001600060028110612a1a577f4e487b7100000000000000000000000000000000000000000000000000000000600052603260045260246000fd5b0160009054906101000a900473ffffffffffffffffffffffffffffffffffffffff1673ffffffffffffffffffffffffffffffffffffffff1660088a600060028110612a8e577f4e487b7100000000000000000000000000000000000000000000000000000000600052603260045260246000fd5b6020020151604051612aa09190613e78565b908152602001604051809103902060009054906101000a900473ffffffffffffffffffffffffffffffffffffffff1673ffffffffffffffffffffffffffffffffffffffff1614612b6c57600889600060028110612b26577f4e487b7100000000000000000000000000000000000000000000000000000000600052603260045260246000fd5b6020020151604051612b389190613e78565b908152602001604051809103902060009054906101000a900473ffffffffffffffffffffffffffffffffffffffff16612bea565b600889600160028110612ba8577f4e487b7100000000000000000000000000000000000000000000000000000000600052603260045260246000fd5b6020020151604051612bba9190613e78565b908152602001604051809103902060009054906101000a900473ffffffffffffffffffffffffffffffffffffffff165b73ffffffffffffffffffffffffffffffffffffffff1673ffffffffffffffffffffffffffffffffffffffff16815260200190815260200160002054601154600960020160006009600001600060028110612c6d577f4e487b7100000000000000000000000000000000000000000000000000000000600052603260045260246000fd5b0160009054906101000a900473ffffffffffffffffffffffffffffffffffffffff1673ffffffffffffffffffffffffffffffffffffffff1660088c600060028110612ce1577f4e487b7100000000000000000000000000000000000000000000000000000000600052603260045260246000fd5b6020020151604051612cf39190613e78565b908152602001604051809103902060009054906101000a900473ffffffffffffffffffffffffffffffffffffffff1673ffffffffffffffffffffffffffffffffffffffff1614612dbf5760088b600160028110612d79577f4e487b7100000000000000000000000000000000000000000000000000000000600052603260045260246000fd5b6020020151604051612d8b9190613e78565b908152602001604051809103902060009054906101000a900473ffffffffffffffffffffffffffffffffffffffff16612e3d565b60088b600060028110612dfb577f4e487b7100000000000000000000000000000000000000000000000000000000600052603260045260246000fd5b6020020151604051612e0d9190613e78565b908152602001604051809103902060009054906101000a900473ffffffffffffffffffffffffffffffffffffffff165b73ffffffffffffffffffffffffffffffffffffffff1673ffffffffffffffffffffffffffffffffffffffff16815260200190815260200160002054612e82919061455d565b612e8c91906143bb565b6009600701819055507fd07637e3cace31e58758866e66f6f21ddf4733508ec86fadca9f56cf11ab486a83604051612ec491906141c4565b60405180910390a15050949350505050565b600080612f5683600060028110612f16577f4e487b7100000000000000000000000000000000000000000000000000000000600052603260045260246000fd5b60200201516040518060400160405280600481526020017f4f43415400000000000000000000000000000000000000000000000000000000815250613579565b90506000612fd784600160028110612f97577f4e487b7100000000000000000000000000000000000000000000000000000000600052603260045260246000fd5b60200201516040518060400160405280600381526020017f4f43580000000000000000000000000000000000000000000000000000000000815250613579565b9050600061305885600060028110613018577f4e487b7100000000000000000000000000000000000000000000000000000000600052603260045260246000fd5b60200201516040518060400160405280600381526020017f4f43580000000000000000000000000000000000000000000000000000000000815250613579565b905060006130d986600160028110613099577f4e487b7100000000000000000000000000000000000000000000000000000000600052603260045260246000fd5b60200201516040518060400160405280600481526020017f4f43415400000000000000000000000000000000000000000000000000000000815250613579565b90508380156130e55750825b806130f657508180156130f55750805b5b613135576040517f08c379a000000000000000000000000000000000000000000000000000000000815260040161312c906140e4565b60405180910390fd5b600060096002016000600460009054906101000a900473ffffffffffffffffffffffffffffffffffffffff1673ffffffffffffffffffffffffffffffffffffffff1673ffffffffffffffffffffffffffffffffffffffff168152602001908152602001600020549050600060096002016000600560009054906101000a900473ffffffffffffffffffffffffffffffffffffffff1673ffffffffffffffffffffffffffffffffffffffff1673ffffffffffffffffffffffffffffffffffffffff1681526020019081526020016000205490508580156132115750845b1561328c57600089836132249190614365565b60096003015461323491906143bb565b9050808211613278576040517f08c379a000000000000000000000000000000000000000000000000000000000815260040161326f906141a4565b60405180910390fd5b808261328491906145b7565b9750506132fe565b6000898261329a9190614365565b6009600301546132aa91906143bb565b90508083116132ee576040517f08c379a00000000000000000000000000000000000000000000000000000000081526004016132e5906141a4565b60405180910390fd5b80836132fa91906145b7565b9750505b50505050505092915050565b6000808573ffffffffffffffffffffffffffffffffffffffff166323b872dd86868660405160240161333e93929190613ee2565b6040516020818303038152906040529060e01b6020820180517bffffffffffffffffffffffffffffffffffffffffffffffffffffffff838183161783525050505060405161338c9190613e61565b6000604051808303816000865af19150503d80600081146133c9576040519150601f19603f3d011682016040523d82523d6000602084013e6133ce565b606091505b50915091508180156133fc57506000815114806133fb5750808060200190518101906133fa9190613976565b5b5b61343b576040517f08c379a000000000000000000000000000000000000000000000000000000000815260040161343290614144565b60405180910390fd5b505050505050565b6000808473ffffffffffffffffffffffffffffffffffffffff1663a9059cbb8585604051602401613475929190613f19565b6040516020818303038152906040529060e01b6020820180517bffffffffffffffffffffffffffffffffffffffffffffffffffffffff83818316178352505050506040516134c39190613e61565b6000604051808303816000865af19150503d8060008114613500576040519150601f19603f3d011682016040523d82523d6000602084013e613505565b606091505b509150915081801561353357506000815114806135325750808060200190518101906135319190613976565b5b5b613572576040517f08c379a000000000000000000000000000000000000000000000000000000000815260040161356990613f64565b60405180910390fd5b5050505050565b60008160405160200161358c9190613e78565b60405160208183030381529060405280519060200120836040516020016135b39190613e78565b6040516020818303038152906040528051906020012014905092915050565b826002810192821561363e579160200282015b8281111561363d5782518260006101000a81548173ffffffffffffffffffffffffffffffffffffffff021916908373ffffffffffffffffffffffffffffffffffffffff160217905550916020019190600101906135e5565b5b50905061364b919061364f565b5090565b5b80821115613668576000816000905550600101613650565b5090565b600061367f61367a84614272565b61424d565b9050808285602086028201111561369557600080fd5b60005b858110156136df57813567ffffffffffffffff8111156136b757600080fd5b8086016136c4898261382c565b85526020850194506020840193505050600181019050613698565b5050509392505050565b60006136fc6136f784614298565b61424d565b9050808285602086028201111561371257600080fd5b60005b8581101561374257816137288882613856565b845260208401935060208301925050600181019050613715565b5050509392505050565b600061375f61375a846142be565b61424d565b90508281526020810184848401111561377757600080fd5b613782848285614662565b509392505050565b60008135905061379981614c37565b92915050565b6000813590506137ae81614c4e565b92915050565b600082601f8301126137c557600080fd5b60026137d284828561366c565b91505092915050565b600082601f8301126137ec57600080fd5b60026137f98482856136e9565b91505092915050565b60008151905061381181614c65565b92915050565b60008135905061382681614c7c565b92915050565b600082601f83011261383d57600080fd5b813561384d84826020860161374c565b91505092915050565b60008135905061386581614c8c565b92915050565b60008151905061387a81614c8c565b92915050565b60006020828403121561389257600080fd5b60006138a08482850161378a565b91505092915050565b6000602082840312156138bb57600080fd5b60006138c98482850161379f565b91505092915050565b600080600080608085870312156138e857600080fd5b600085013567ffffffffffffffff81111561390257600080fd5b61390e878288016137b4565b945050602061391f87828801613856565b935050604061393087828801613856565b925050606061394187828801613856565b91505092959194509250565b60006040828403121561395f57600080fd5b600061396d848285016137db565b91505092915050565b60006020828403121561398857600080fd5b600061399684828501613802565b91505092915050565b6000602082840312156139b157600080fd5b60006139bf84828501613817565b91505092915050565b6000602082840312156139da57600080fd5b60006139e884828501613856565b91505092915050565b600060208284031215613a0357600080fd5b6000613a118482850161386b565b91505092915050565b60008060408385031215613a2d57600080fd5b6000613a3b85828601613856565b925050602083013567ffffffffffffffff811115613a5857600080fd5b613a64858286016137b4565b9150509250929050565b6000613a7a8383613a86565b60208301905092915050565b613a8f816145eb565b82525050565b613a9e816145eb565b82525050565b6000613aaf826142ff565b613ab9818561432d565b9350613ac4836142ef565b8060005b83811015613af5578151613adc8882613a6e565b9750613ae783614320565b925050600181019050613ac8565b5085935050505092915050565b6000613b0d8261430a565b613b17818561433e565b9350613b27818560208601614671565b80840191505092915050565b6000613b3e82614315565b613b48818561435a565b9350613b58818560208601614671565b80840191505092915050565b6000613b71601f83614349565b9150613b7c826147aa565b602082019050919050565b6000613b9460038361435a565b9150613b9f826147d3565b600382019050919050565b6000613bb7601383614349565b9150613bc2826147fc565b602082019050919050565b6000613bda603b83614349565b9150613be582614825565b604082019050919050565b6000613bfd602583614349565b9150613c0882614874565b604082019050919050565b6000613c20601483614349565b9150613c2b826148c3565b602082019050919050565b6000613c43601e83614349565b9150613c4e826148ec565b602082019050919050565b6000613c66601783614349565b9150613c7182614915565b602082019050919050565b6000613c89603c83614349565b9150613c948261493e565b604082019050919050565b6000613cac602383614349565b9150613cb78261498d565b604082019050919050565b6000613ccf602383614349565b9150613cda826149dc565b604082019050919050565b6000613cf260048361435a565b9150613cfd82614a2b565b600482019050919050565b6000613d15601983614349565b9150613d2082614a54565b602082019050919050565b6000613d38602983614349565b9150613d4382614a7d565b604082019050919050565b6000613d5b601d83614349565b9150613d6682614acc565b602082019050919050565b6000613d7e601d83614349565b9150613d8982614af5565b602082019050919050565b6000613da1600d83614349565b9150613dac82614b1e565b602082019050919050565b6000613dc4602483614349565b9150613dcf82614b47565b604082019050919050565b6000613de7601383614349565b9150613df282614b96565b602082019050919050565b6000613e0a601383614349565b9150613e1582614bbf565b602082019050919050565b6000613e2d603583614349565b9150613e3882614be8565b604082019050919050565b613e4c8161463b565b82525050565b613e5b81614645565b82525050565b6000613e6d8284613b02565b915081905092915050565b6000613e848284613b33565b915081905092915050565b6000613e9a82613b87565b9150819050919050565b6000613eaf82613ce5565b9150819050919050565b6000604082019050613ece6000830185613a95565b613edb6020830184613a95565b9392505050565b6000606082019050613ef76000830186613a95565b613f046020830185613a95565b613f116040830184613e43565b949350505050565b6000604082019050613f2e6000830185613a95565b613f3b6020830184613e43565b9392505050565b60006020820190508181036000830152613f5c8184613aa4565b905092915050565b60006020820190508181036000830152613f7d81613b64565b9050919050565b60006020820190508181036000830152613f9d81613baa565b9050919050565b60006020820190508181036000830152613fbd81613bcd565b9050919050565b60006020820190508181036000830152613fdd81613bf0565b9050919050565b60006020820190508181036000830152613ffd81613c13565b9050919050565b6000602082019050818103600083015261401d81613c36565b9050919050565b6000602082019050818103600083015261403d81613c59565b9050919050565b6000602082019050818103600083015261405d81613c7c565b9050919050565b6000602082019050818103600083015261407d81613c9f565b9050919050565b6000602082019050818103600083015261409d81613cc2565b9050919050565b600060208201905081810360008301526140bd81613d08565b9050919050565b600060208201905081810360008301526140dd81613d2b565b9050919050565b600060208201905081810360008301526140fd81613d4e565b9050919050565b6000602082019050818103600083015261411d81613d71565b9050919050565b6000602082019050818103600083015261413d81613d94565b9050919050565b6000602082019050818103600083015261415d81613db7565b9050919050565b6000602082019050818103600083015261417d81613dda565b9050919050565b6000602082019050818103600083015261419d81613dfd565b9050919050565b600060208201905081810360008301526141bd81613e20565b9050919050565b60006020820190506141d96000830184613e43565b92915050565b600060a0820190506141f46000830188613e43565b6142016020830187613e43565b61420e6040830186613e43565b61421b6060830185613e43565b6142286080830184613e43565b9695505050505050565b60006020820190506142476000830184613e52565b92915050565b6000614257614268565b905061426382826146a4565b919050565b6000604051905090565b600067ffffffffffffffff82111561428d5761428c61475d565b5b602082029050919050565b600067ffffffffffffffff8211156142b3576142b261475d565b5b602082029050919050565b600067ffffffffffffffff8211156142d9576142d861475d565b5b6142e28261478c565b9050602081019050919050565b6000819050602082019050919050565b600081519050919050565b600081519050919050565b600081519050919050565b6000602082019050919050565b600082825260208201905092915050565b600081905092915050565b600082825260208201905092915050565b600081905092915050565b60006143708261463b565b915061437b8361463b565b9250827fffffffffffffffffffffffffffffffffffffffffffffffffffffffffffffffff038211156143b0576143af6146ff565b5b828201905092915050565b60006143c68261463b565b91506143d18361463b565b9250826143e1576143e061472e565b5b828204905092915050565b6000808291508390505b600185111561443657808604811115614412576144116146ff565b5b60018516156144215780820291505b808102905061442f8561479d565b94506143f6565b94509492505050565b600061444a8261463b565b91506144558361463b565b92506144827fffffffffffffffffffffffffffffffffffffffffffffffffffffffffffffffff848461448a565b905092915050565b60008261449a5760019050614556565b816144a85760009050614556565b81600181146144be57600281146144c8576144f7565b6001915050614556565b60ff8411156144da576144d96146ff565b5b8360020a9150848211156144f1576144f06146ff565b5b50614556565b5060208310610133831016604e8410600b841016171561452c5782820a905083811115614527576145266146ff565b5b614556565b61453984848460016143ec565b925090508184048111156145505761454f6146ff565b5b81810290505b9392505050565b60006145688261463b565b91506145738361463b565b9250817fffffffffffffffffffffffffffffffffffffffffffffffffffffffffffffffff04831182151516156145ac576145ab6146ff565b5b828202905092915050565b60006145c28261463b565b91506145cd8361463b565b9250828210156145e0576145df6146ff565b5b828203905092915050565b60006145f68261461b565b9050919050565b60006146088261461b565b9050919050565b60008115159050919050565b600073ffffffffffffffffffffffffffffffffffffffff82169050919050565b6000819050919050565b600063ffffffff82169050919050565b600060ff82169050919050565b82818337600083830152505050565b60005b8381101561468f578082015181840152602081019050614674565b8381111561469e576000848401525b50505050565b6146ad8261478c565b810181811067ffffffffffffffff821117156146cc576146cb61475d565b5b80604052505050565b60006146e082614655565b915060ff8214156146f4576146f36146ff565b5b600182019050919050565b7f4e487b7100000000000000000000000000000000000000000000000000000000600052601160045260246000fd5b7f4e487b7100000000000000000000000000000000000000000000000000000000600052601260045260246000fd5b7f4e487b7100000000000000000000000000000000000000000000000000000000600052604160045260246000fd5b6000601f19601f8301169050919050565b60008160011c9050919050565b7f5472616e7366657248656c7065723a205452414e534645525f4641494c454400600082015250565b7f4f43580000000000000000000000000000000000000000000000000000000000600082015250565b7f496e76616c696420616d6f756e74207061697200000000000000000000000000600082015250565b7f4f63784c6f63616c506f6f6c2e6164644c697175696469747928293a20496e7360008201527f756666696369656e7420616c6c6f77616e636520666f72204f43580000000000602082015250565b7f496e76616c69642071756f7465286f7574206f662072616e67653a203938257e60008201527f3130322529000000000000000000000000000000000000000000000000000000602082015250565b7f496e76616c6964204f4341542061646472657373000000000000000000000000600082015250565b7f466f722063616c6c65722065787065637465642062652063726561746f720000600082015250565b7f496e76616c69642063726561746f722061646472657373000000000000000000600082015250565b7f4f63784c6f63616c506f6f6c2e6164644c697175696469747928293a20496e7360008201527f756666696369656e7420616c6c6f77616e636520666f72204f43415400000000602082015250565b7f496e76616c696420736f7572636520746f6b656e20666f72206c6f63616c207360008201527f7761700000000000000000000000000000000000000000000000000000000000602082015250565b7f496e76616c69642074617267657420746f6b656e20666f72206c6f63616c207360008201527f7761700000000000000000000000000000000000000000000000000000000000602082015250565b7f4f43415400000000000000000000000000000000000000000000000000000000600082015250565b7f4578706563746564206e6f6e2d7a65726f206164647265737300000000000000600082015250565b7f496e73756666696369656e7420736f757263652062616c616e636520666f722060008201527f796f757220737761700000000000000000000000000000000000000000000000602082015250565b7f676574416d6f756e74734f757428293a20496e76616c69642070617468000000600082015250565b7f496e76616c69642063616c6c65722e204d7573742062652061646d696e000000600082015250565b7f496e76616c696420707269636500000000000000000000000000000000000000600082015250565b7f5472616e7366657248656c7065723a205452414e534645525f46524f4d5f464160008201527f494c454400000000000000000000000000000000000000000000000000000000602082015250565b7f496e76616c6964204f4358206164647265737300000000000000000000000000600082015250565b7f41646d696e2067726f75702069732066756c6c00000000000000000000000000600082015250565b7f676574416d6f756e74734f757428293a20496e73756666696369656e74204f4360008201527f582062616c616e636520696e2074686520706f6f6c0000000000000000000000602082015250565b614c40816145eb565b8114614c4b57600080fd5b50565b614c57816145fd565b8114614c6257600080fd5b50565b614c6e8161460f565b8114614c7957600080fd5b50565b60038110614c8957600080fd5b50565b614c958161463b565b8114614ca057600080fd5b5056fea2646970667358221220d1c51d0040010a860bd4b899ebf5ae04ed3d901af5c818c0fad034013d288f1c64736f6c63430008040033",
  "immutableReferences": {},
  "source": "// SPDX-License-Identifier: MIT\npragma solidity ^0.8.0;\n\n/*\n * OCAT/OCX local pool\n */\nimport \"@openzeppelin/contracts/token/ERC20/IERC20.sol\"; // openzeppelin 4.5 (for solidity 0.8.x)\n// import \"@openzeppelin/contracts/utils/math/SafeMath.sol\";\nimport '@uniswap/lib/contracts/libraries/TransferHelper.sol';\nimport './OcxToken.sol';\nimport './OcxBase.sol';\n\ncontract OcxLocalPool is OcxBase {\n\n    uint256 private constant QUOTE_DECIMALS = 3; // Must be more than 3 at least\n    uint256 private constant QUOTE_RATE_DECIMALS = 3; // Must be more than 3 at least\n\n    mapping(string => address payable) private tokens;\n\n    struct Pool {\n        address[2] tokenPair;\n        mapping(address => uint256) balance;\n        uint256 k;\n        uint256 prevK;\n        uint256 prevQuote;\n        uint256 quoteOrig;\n        uint256 quote;\n    }\n\n    Pool                public      localPool; // token pair: 0: OCAT, 1: OCX\n    uint256             public      quoteMultiplier;\n    uint256             public      quoteRateMultiplier;\n\n    event SwappedAmount(uint256);\n    \n    receive() external payable {}\n\n    constructor() {\n        quoteMultiplier = 10 ** QUOTE_DECIMALS;\n        quoteRateMultiplier = 10 ** QUOTE_RATE_DECIMALS;\n    }\n\n    function getAmountsOut(\n        uint256 sellAmount, \n        string[2] memory path\n    ) public view returns(uint256 amountOut) {\n        bool ret1 = _compareStrings(path[0], \"OCAT\");\n        bool ret2 = _compareStrings(path[1], \"OCX\");\n        bool ret3 = _compareStrings(path[0], \"OCX\");\n        bool ret4 = _compareStrings(path[1], \"OCAT\");\n        require(ret1 && ret2 || ret3 && ret4, \"getAmountsOut(): Invalid path\");\n\n        // Find the ETH/OCAT pool\n        uint256 ocatPoolBalance = localPool.balance[ocatAddress];\n        uint256 ocxPoolBalance = localPool.balance[ocxAddress];\n\n        if (ret1 && ret2) {\n            // Calculate the output amount of OCAT \n            uint256 newOcatPoolBalance = localPool.k / (ocatPoolBalance + sellAmount);\n            require(ocxPoolBalance > newOcatPoolBalance, \"getAmountsOut(): Insufficient OCX balance in the pool\");\n            amountOut = ocxPoolBalance - newOcatPoolBalance;\n        } else {\n            // Calculate the output amount of OCAT \n            uint256 newPoolEthBalance = (localPool.k / (ocxPoolBalance + sellAmount));\n            require(ocatPoolBalance > newPoolEthBalance, \"getAmountsOut(): Insufficient OCX balance in the pool\");\n            amountOut = ocatPoolBalance - newPoolEthBalance;            \n        }\n    }\n\n    function swap(string[2] memory path, uint256 amountIn, uint256 amountOutMin, uint /*_deadline*/)  public payable\n    onlyAdmin returns(uint256 amountOut)\n    {\n        require(tokens[path[0]] == ocatAddress || tokens[path[0]] == ocxAddress, \"Invalid source token for local swap\");\n        require(tokens[path[1]] == ocatAddress || tokens[path[1]] == ocxAddress, \"Invalid target token for local swap\");\n        \n        amountOut = getAmountsOut(amountIn, path);\n        require(amountOut >= amountOutMin, \"Insufficient source balance for your swap\");\n\n        // Transfer source token from the sender\n        uint256 allowance = IERC20(tokens[path[0]]).allowance(msg.sender, address(this));\n        require(allowance >= amountIn, \"OcxLocalPool.addLiquidity(): Insufficient allowance for OCAT\");\n        TransferHelper.safeTransferFrom(tokens[path[0]], msg.sender, address(this), amountIn);\n\n        // Transfer target to the sender\n        TransferHelper.safeTransfer(tokens[path[1]], msg.sender, amountOut);\n\n        // Update the quote for the pool\n        localPool.balance[tokens[path[0]]] += amountIn;\n        localPool.balance[tokens[path[1]]] -= amountOut;\n        localPool.prevQuote = localPool.quote;\n        localPool.quote = (localPool.balance[ tokens[path[0]] == localPool.tokenPair[0]?tokens[path[0]]:tokens[path[1]] ] * quoteMultiplier) \n                            / \n                            localPool.balance[ tokens[path[0]] == localPool.tokenPair[0]?tokens[path[1]]:tokens[path[0]] ];\n        // require(ret, \"new ETH balance in the pool is overflowed\");\n        emit SwappedAmount(amountOut);\n    }\n\n    /*\n     * Parameters:\n     *      amountPair: amount of OCAT/OCX token pair\n     */\n    function addLiquidity(\n        uint256[2] memory amountPair\n    ) public payable \n    onlyAdmin {\n        require(ocatAddress != address(0), \"Invalid OCAT address\");\n        require(ocxAddress != address(0), \"Invalid OCX address\");\n        require(amountPair[0] > 0 && amountPair[1] > 0, \"Invalid amount pair\");\n        // Get quote\n        // ...uint256((quote / localPool.quoteOrig) * 100)\n        // Transfer token A and B from msg.sender to this address\n\n        if (localPool.tokenPair[0] == address(0) || localPool.tokenPair[1] == address(0)) {\n            localPool.tokenPair = [ocatAddress, ocxAddress];\n        }\n        tokens['OCAT'] = ocatAddress;\n        tokens['OCX'] = ocxAddress;\n\n        // Check quote\n        uint256 newQuote = uint256(\n            (amountPair[0] * quoteMultiplier) / amountPair[1]\n        );\n        uint256 quoteRate = uint256(\n            (newQuote * quoteRateMultiplier) / localPool.quoteOrig\n        );\n        // Check if new quote >= 98% and <= 102% against original one\n        require(\n            quoteRate > 98 * (10 ** (QUOTE_DECIMALS - 2)) && \n            quoteRate < 102 * (10 ** (QUOTE_DECIMALS - 2)), \n            \"Invalid quote(out of range: 98%~102%)\"\n        );\n        // Update pool\n        localPool.balance[ocatAddress] += amountPair[0];\n        localPool.balance[ocxAddress] += amountPair[1];\n        localPool.prevK = localPool.k;\n        localPool.k = localPool.balance[ocatAddress] * \n                    localPool.balance[ocxAddress];\n        localPool.prevQuote = localPool.quote;\n        localPool.quote = newQuote;\n\n        // Transfer amounts for both tokenPair from the sender\n        uint256 allowance = IERC20(ocatAddress).allowance(msg.sender, address(this));\n        require(allowance >= amountPair[0], \"OcxLocalPool.addLiquidity(): Insufficient allowance for OCAT\");\n        TransferHelper.safeTransferFrom(ocatAddress, msg.sender, address(this), amountPair[0]);\n\n        allowance = IERC20(ocxAddress).allowance(msg.sender, address(this));\n        require(allowance >= amountPair[1], \"OcxLocalPool.addLiquidity(): Insufficient allowance for OCX\");\n        TransferHelper.safeTransferFrom(ocxAddress, msg.sender, address(this), amountPair[1]);\n        // Mint LP token to return\n        // ...\n        // uint256 newMintAmount = amountPair[0] * amountPair[1];\n        // IERC20(_ocxAddress).mint(newMintAmount);\n        // // Send the amountPair[1] with fee substracted\n        // IERC20(_ocxAddress).transfer(msg.sender, (newMintAmount * 100 - 2) / 100)\n    }\n}\n",
  "sourcePath": "/home/cowboy/OCX/OpenchainTestVersion/server/contracts/OcxLocalPool.sol",
  "compiler": {
    "name": "solc",
    "version": "0.8.4+commit.c7e474f2.Emscripten.clang"
  },
  "schemaVersion": "3.4.6",
  "updatedAt": "2022-04-16T11:16:56.431Z",
  "devdoc": {
    "kind": "dev",
    "methods": {},
    "version": 1
  },
  "userdoc": {
    "kind": "user",
    "methods": {},
    "version": 1
  }
}