{
  "contractName": "PawnNFTs",
  "abi": [
    {
      "inputs": [],
      "stateMutability": "nonpayable",
      "type": "constructor"
    },
    {
      "anonymous": false,
      "inputs": [
        {
          "indexed": true,
          "internalType": "address",
          "name": "owner",
          "type": "address"
        },
        {
          "indexed": true,
          "internalType": "address",
          "name": "approved",
          "type": "address"
        },
        {
          "indexed": true,
          "internalType": "uint256",
          "name": "tokenId",
          "type": "uint256"
        }
      ],
      "name": "Approval",
      "type": "event"
    },
    {
      "anonymous": false,
      "inputs": [
        {
          "indexed": true,
          "internalType": "address",
          "name": "owner",
          "type": "address"
        },
        {
          "indexed": true,
          "internalType": "address",
          "name": "operator",
          "type": "address"
        },
        {
          "indexed": false,
          "internalType": "bool",
          "name": "approved",
          "type": "bool"
        }
      ],
      "name": "ApprovalForAll",
      "type": "event"
    },
    {
      "anonymous": false,
      "inputs": [
        {
          "indexed": true,
          "internalType": "address",
          "name": "from",
          "type": "address"
        },
        {
          "indexed": true,
          "internalType": "address",
          "name": "to",
          "type": "address"
        },
        {
          "indexed": true,
          "internalType": "uint256",
          "name": "tokenId",
          "type": "uint256"
        }
      ],
      "name": "Transfer",
      "type": "event"
    },
    {
      "inputs": [
        {
          "internalType": "address",
          "name": "_admin",
          "type": "address"
        }
      ],
      "name": "addAdmin",
      "outputs": [],
      "stateMutability": "nonpayable",
      "type": "function"
    },
    {
      "inputs": [
        {
          "internalType": "uint256",
          "name": "",
          "type": "uint256"
        }
      ],
      "name": "allPawnNFTs",
      "outputs": [
        {
          "internalType": "uint256",
          "name": "tokenId",
          "type": "uint256"
        },
        {
          "internalType": "bytes32",
          "name": "tokenName",
          "type": "bytes32"
        },
        {
          "internalType": "string",
          "name": "tokenURI",
          "type": "string"
        },
        {
          "internalType": "address payable",
          "name": "currentOwner",
          "type": "address"
        },
        {
          "internalType": "address payable",
          "name": "previousOwner",
          "type": "address"
        },
        {
          "internalType": "uint256",
          "name": "price",
          "type": "uint256"
        },
        {
          "internalType": "uint256",
          "name": "numberOfTransfers",
          "type": "uint256"
        },
        {
          "internalType": "bool",
          "name": "forSale",
          "type": "bool"
        }
      ],
      "stateMutability": "view",
      "type": "function"
    },
    {
      "inputs": [
        {
          "internalType": "address",
          "name": "to",
          "type": "address"
        },
        {
          "internalType": "uint256",
          "name": "tokenId",
          "type": "uint256"
        }
      ],
      "name": "approve",
      "outputs": [],
      "stateMutability": "nonpayable",
      "type": "function"
    },
    {
      "inputs": [
        {
          "internalType": "address",
          "name": "owner",
          "type": "address"
        }
      ],
      "name": "balanceOf",
      "outputs": [
        {
          "internalType": "uint256",
          "name": "",
          "type": "uint256"
        }
      ],
      "stateMutability": "view",
      "type": "function"
    },
    {
      "inputs": [],
      "name": "decimals",
      "outputs": [
        {
          "internalType": "uint8",
          "name": "",
          "type": "uint8"
        }
      ],
      "stateMutability": "view",
      "type": "function"
    },
    {
      "inputs": [],
      "name": "getAdmins",
      "outputs": [
        {
          "internalType": "address[]",
          "name": "",
          "type": "address[]"
        }
      ],
      "stateMutability": "view",
      "type": "function"
    },
    {
      "inputs": [
        {
          "internalType": "uint256",
          "name": "tokenId",
          "type": "uint256"
        }
      ],
      "name": "getApproved",
      "outputs": [
        {
          "internalType": "address",
          "name": "",
          "type": "address"
        }
      ],
      "stateMutability": "view",
      "type": "function"
    },
    {
      "inputs": [
        {
          "internalType": "enum FeeType",
          "name": "feeType",
          "type": "uint8"
        }
      ],
      "name": "getFee",
      "outputs": [
        {
          "internalType": "uint32",
          "name": "",
          "type": "uint32"
        }
      ],
      "stateMutability": "view",
      "type": "function"
    },
    {
      "inputs": [],
      "name": "getOcatPrice",
      "outputs": [
        {
          "internalType": "uint256",
          "name": "",
          "type": "uint256"
        }
      ],
      "stateMutability": "view",
      "type": "function"
    },
    {
      "inputs": [
        {
          "internalType": "address",
          "name": "owner",
          "type": "address"
        },
        {
          "internalType": "address",
          "name": "operator",
          "type": "address"
        }
      ],
      "name": "isApprovedForAll",
      "outputs": [
        {
          "internalType": "bool",
          "name": "",
          "type": "bool"
        }
      ],
      "stateMutability": "view",
      "type": "function"
    },
    {
      "inputs": [],
      "name": "name",
      "outputs": [
        {
          "internalType": "string",
          "name": "",
          "type": "string"
        }
      ],
      "stateMutability": "view",
      "type": "function"
    },
    {
      "inputs": [
        {
          "internalType": "uint256",
          "name": "tokenId",
          "type": "uint256"
        }
      ],
      "name": "ownerOf",
      "outputs": [
        {
          "internalType": "address",
          "name": "",
          "type": "address"
        }
      ],
      "stateMutability": "view",
      "type": "function"
    },
    {
      "inputs": [
        {
          "internalType": "address",
          "name": "from",
          "type": "address"
        },
        {
          "internalType": "address",
          "name": "to",
          "type": "address"
        },
        {
          "internalType": "uint256",
          "name": "tokenId",
          "type": "uint256"
        }
      ],
      "name": "safeTransferFrom",
      "outputs": [],
      "stateMutability": "nonpayable",
      "type": "function"
    },
    {
      "inputs": [
        {
          "internalType": "address",
          "name": "from",
          "type": "address"
        },
        {
          "internalType": "address",
          "name": "to",
          "type": "address"
        },
        {
          "internalType": "uint256",
          "name": "tokenId",
          "type": "uint256"
        },
        {
          "internalType": "bytes",
          "name": "_data",
          "type": "bytes"
        }
      ],
      "name": "safeTransferFrom",
      "outputs": [],
      "stateMutability": "nonpayable",
      "type": "function"
    },
    {
      "inputs": [
        {
          "internalType": "address",
          "name": "operator",
          "type": "address"
        },
        {
          "internalType": "bool",
          "name": "approved",
          "type": "bool"
        }
      ],
      "name": "setApprovalForAll",
      "outputs": [],
      "stateMutability": "nonpayable",
      "type": "function"
    },
    {
      "inputs": [
        {
          "internalType": "address payable",
          "name": "_feeManager",
          "type": "address"
        }
      ],
      "name": "setFeeManager",
      "outputs": [],
      "stateMutability": "nonpayable",
      "type": "function"
    },
    {
      "inputs": [
        {
          "internalType": "address payable",
          "name": "_ocatAddress",
          "type": "address"
        }
      ],
      "name": "setOcatAddress",
      "outputs": [],
      "stateMutability": "nonpayable",
      "type": "function"
    },
    {
      "inputs": [
        {
          "internalType": "uint256",
          "name": "_price",
          "type": "uint256"
        }
      ],
      "name": "setOcatPrice",
      "outputs": [],
      "stateMutability": "nonpayable",
      "type": "function"
    },
    {
      "inputs": [
        {
          "internalType": "address payable",
          "name": "_ocxAddress",
          "type": "address"
        }
      ],
      "name": "setOcxAddress",
      "outputs": [],
      "stateMutability": "nonpayable",
      "type": "function"
    },
    {
      "inputs": [
        {
          "internalType": "address payable",
          "name": "_pnftAddress",
          "type": "address"
        }
      ],
      "name": "setPnftAddress",
      "outputs": [],
      "stateMutability": "nonpayable",
      "type": "function"
    },
    {
      "inputs": [
        {
          "internalType": "bytes4",
          "name": "interfaceId",
          "type": "bytes4"
        }
      ],
      "name": "supportsInterface",
      "outputs": [
        {
          "internalType": "bool",
          "name": "",
          "type": "bool"
        }
      ],
      "stateMutability": "view",
      "type": "function"
    },
    {
      "inputs": [],
      "name": "symbol",
      "outputs": [
        {
          "internalType": "string",
          "name": "",
          "type": "string"
        }
      ],
      "stateMutability": "view",
      "type": "function"
    },
    {
      "inputs": [
        {
          "internalType": "bytes32",
          "name": "",
          "type": "bytes32"
        }
      ],
      "name": "tokenNameExists",
      "outputs": [
        {
          "internalType": "bool",
          "name": "",
          "type": "bool"
        }
      ],
      "stateMutability": "view",
      "type": "function"
    },
    {
      "inputs": [
        {
          "internalType": "uint256",
          "name": "tokenId",
          "type": "uint256"
        }
      ],
      "name": "tokenURI",
      "outputs": [
        {
          "internalType": "string",
          "name": "",
          "type": "string"
        }
      ],
      "stateMutability": "view",
      "type": "function"
    },
    {
      "inputs": [
        {
          "internalType": "string",
          "name": "",
          "type": "string"
        }
      ],
      "name": "tokenURIExists",
      "outputs": [
        {
          "internalType": "uint256",
          "name": "",
          "type": "uint256"
        }
      ],
      "stateMutability": "view",
      "type": "function"
    },
    {
      "inputs": [
        {
          "internalType": "address",
          "name": "from",
          "type": "address"
        },
        {
          "internalType": "address",
          "name": "to",
          "type": "address"
        },
        {
          "internalType": "uint256",
          "name": "tokenId",
          "type": "uint256"
        }
      ],
      "name": "transferFrom",
      "outputs": [],
      "stateMutability": "nonpayable",
      "type": "function"
    },
    {
      "stateMutability": "payable",
      "type": "receive"
    },
    {
      "inputs": [
        {
          "internalType": "address payable",
          "name": "_manager",
          "type": "address"
        }
      ],
      "name": "setManager",
      "outputs": [],
      "stateMutability": "nonpayable",
      "type": "function"
    },
    {
      "inputs": [
        {
          "internalType": "uint8",
          "name": "_minPnftPrice",
          "type": "uint8"
        }
      ],
      "name": "setMinPnftPrice",
      "outputs": [],
      "stateMutability": "nonpayable",
      "type": "function"
    },
    {
      "inputs": [
        {
          "internalType": "bytes32",
          "name": "_name",
          "type": "bytes32"
        },
        {
          "internalType": "string",
          "name": "_tokenURI",
          "type": "string"
        },
        {
          "internalType": "uint256",
          "name": "_price",
          "type": "uint256"
        }
      ],
      "name": "mint",
      "outputs": [
        {
          "internalType": "uint256",
          "name": "newTokenID",
          "type": "uint256"
        },
        {
          "internalType": "uint256",
          "name": "realPrice",
          "type": "uint256"
        },
        {
          "internalType": "uint256",
          "name": "mintFee",
          "type": "uint256"
        }
      ],
      "stateMutability": "nonpayable",
      "type": "function"
    },
    {
      "inputs": [
        {
          "internalType": "uint256",
          "name": "originalPrice",
          "type": "uint256"
        }
      ],
      "name": "getExpectedPrices",
      "outputs": [
        {
          "internalType": "uint256",
          "name": "realPrice",
          "type": "uint256"
        },
        {
          "internalType": "uint256",
          "name": "mintFee",
          "type": "uint256"
        },
        {
          "internalType": "uint256",
          "name": "_ocatPrice",
          "type": "uint256"
        }
      ],
      "stateMutability": "view",
      "type": "function"
    },
    {
      "inputs": [
        {
          "internalType": "uint256",
          "name": "_tokenId",
          "type": "uint256"
        }
      ],
      "name": "getTokenOwner",
      "outputs": [
        {
          "internalType": "address",
          "name": "",
          "type": "address"
        }
      ],
      "stateMutability": "view",
      "type": "function"
    },
    {
      "inputs": [
        {
          "internalType": "uint256",
          "name": "_tokenId",
          "type": "uint256"
        }
      ],
      "name": "getTokenMetaData",
      "outputs": [
        {
          "internalType": "string",
          "name": "tokenMetaData",
          "type": "string"
        }
      ],
      "stateMutability": "view",
      "type": "function"
    },
    {
      "inputs": [
        {
          "internalType": "uint256",
          "name": "_tokenId",
          "type": "uint256"
        }
      ],
      "name": "exists",
      "outputs": [
        {
          "internalType": "bool",
          "name": "tokenExists",
          "type": "bool"
        }
      ],
      "stateMutability": "view",
      "type": "function"
    },
    {
      "inputs": [
        {
          "internalType": "uint256",
          "name": "_tokenId",
          "type": "uint256"
        }
      ],
      "name": "buyToken",
      "outputs": [],
      "stateMutability": "payable",
      "type": "function"
    },
    {
      "inputs": [
        {
          "internalType": "uint256",
          "name": "_tokenId",
          "type": "uint256"
        },
        {
          "internalType": "uint256",
          "name": "_newPrice",
          "type": "uint256"
        }
      ],
      "name": "changeTokenPrice",
      "outputs": [],
      "stateMutability": "nonpayable",
      "type": "function"
    },
    {
      "inputs": [
        {
          "internalType": "uint256",
          "name": "_tokenId",
          "type": "uint256"
        }
      ],
      "name": "toggleForSale",
      "outputs": [],
      "stateMutability": "nonpayable",
      "type": "function"
    }
  ],
  "bytecode": "0x6080604052611388601060006101000a81548167ffffffffffffffff021916908367ffffffffffffffff1602179055506000601060086101000a81548160ff021916908360ff1602179055503480156200005857600080fd5b5060405180606001604052806021815260200162006397602191396040518060400160405280600481526020017f504e4654000000000000000000000000000000000000000000000000000000008152508160009080519060200190620000c19291906200031c565b508060019080519060200190620000da9291906200031c565b50505033600760006101000a81548173ffffffffffffffffffffffffffffffffffffffff021916908373ffffffffffffffffffffffffffffffffffffffff160217905550600160098190555060326008600080600281111562000166577f4e487b7100000000000000000000000000000000000000000000000000000000600052602160045260246000fd5b60028111156200019f577f4e487b7100000000000000000000000000000000000000000000000000000000600052602160045260246000fd5b815260200190815260200160002060006101000a81548163ffffffff021916908363ffffffff160217905550603260086000600160028111156200020c577f4e487b7100000000000000000000000000000000000000000000000000000000600052602160045260246000fd5b600281111562000245577f4e487b7100000000000000000000000000000000000000000000000000000000600052602160045260246000fd5b815260200190815260200160002060006101000a81548163ffffffff021916908363ffffffff160217905550603260086000600280811115620002b1577f4e487b7100000000000000000000000000000000000000000000000000000000600052602160045260246000fd5b6002811115620002ea577f4e487b7100000000000000000000000000000000000000000000000000000000600052602160045260246000fd5b815260200190815260200160002060006101000a81548163ffffffff021916908363ffffffff16021790555062000431565b8280546200032a90620003cc565b90600052602060002090601f0160209004810192826200034e57600085556200039a565b82601f106200036957805160ff19168380011785556200039a565b828001600101855582156200039a579182015b82811115620003995782518255916020019190600101906200037c565b5b509050620003a99190620003ad565b5090565b5b80821115620003c8576000816000905550600101620003ae565b5090565b60006002820490506001821680620003e557607f821691505b60208210811415620003fc57620003fb62000402565b5b50919050565b7f4e487b7100000000000000000000000000000000000000000000000000000000600052602260045260246000fd5b615f5680620004416000396000f3fe6080604052600436106102135760003560e01c806362e8e8ac11610118578063a32018b9116100a0578063bb3f6c6a1161006f578063bb3f6c6a14610822578063c87b56dd1461084b578063d0ebdbe714610888578063e985e9c5146108b1578063f3ac38b7146108ee5761021a565b8063a32018b91461076a578063a5cd761f14610793578063b18d30a2146107d0578063b88d4fde146107f95761021a565b806370a08231116100e757806370a0823114610656578063717947b11461069357806395d89b41146106d7578063994c11c414610702578063a22cb465146107415761021a565b806362e8e8ac1461058a5780636352211e146105b357806367c623cf146105f0578063704802751461062d5761021a565b80632d296bf11161019b57806342842e0e1161016a57806342842e0e1461047f57806343d32ae7146104a8578063472d35b9146104e55780634f558e791461050e57806350e862db1461054b5761021a565b80632d296bf1146103e2578063313ce567146103fe57806331ae450b146104295780633214e1a9146104545761021a565b8063095ea7b3116101e2578063095ea7b3146103015780630b0c506f1461032a5780630bbba11b1461035357806315f03d221461039057806323b872dd146103b95761021a565b806301ffc9a71461021f57806306fdde031461025c578063081812fc14610287578063083132c4146102c45761021a565b3661021a57005b600080fd5b34801561022b57600080fd5b5061024660048036038101906102419190614374565b610917565b6040516102539190614bd4565b60405180910390f35b34801561026857600080fd5b506102716109f9565b60405161027e9190614bef565b60405180910390f35b34801561029357600080fd5b506102ae60048036038101906102a99190614430565b610a8b565b6040516102bb9190614b22565b60405180910390f35b3480156102d057600080fd5b506102eb60048036038101906102e691906143c6565b610b10565b6040516102f891906150e8565b60405180910390f35b34801561030d57600080fd5b50610328600480360381019061032391906142a8565b610bad565b005b34801561033657600080fd5b50610351600480360381019061034c919061413d565b610cc5565b005b34801561035f57600080fd5b5061037a600480360381019061037591906142e4565b610e9d565b6040516103879190614bd4565b60405180910390f35b34801561039c57600080fd5b506103b760048036038101906103b2919061413d565b610ebd565b005b3480156103c557600080fd5b506103e060048036038101906103db91906141a2565b611105565b005b6103fc60048036038101906103f79190614430565b611165565b005b34801561040a57600080fd5b50610413611432565b6040516104209190615103565b60405180910390f35b34801561043557600080fd5b5061043e611445565b60405161044b9190614bb2565b60405180910390f35b34801561046057600080fd5b506104696114d3565b6040516104769190615011565b60405180910390f35b34801561048b57600080fd5b506104a660048036038101906104a191906141a2565b6114dd565b005b3480156104b457600080fd5b506104cf60048036038101906104ca91906143ef565b6114fd565b6040516104dc9190615011565b60405180910390f35b3480156104f157600080fd5b5061050c6004803603810190610507919061413d565b61152b565b005b34801561051a57600080fd5b5061053560048036038101906105309190614430565b611703565b6040516105429190614bd4565b60405180910390f35b34801561055757600080fd5b50610572600480360381019061056d919061430d565b611715565b604051610581939291906150b1565b60405180910390f35b34801561059657600080fd5b506105b160048036038101906105ac9190614459565b611c6e565b005b3480156105bf57600080fd5b506105da60048036038101906105d59190614430565b611e0a565b6040516105e79190614b22565b60405180910390f35b3480156105fc57600080fd5b5061061760048036038101906106129190614430565b611ebc565b6040516106249190614bef565b60405180910390f35b34801561063957600080fd5b50610654600480360381019061064f9190614114565b611ece565b005b34801561066257600080fd5b5061067d60048036038101906106789190614114565b6121d8565b60405161068a9190615011565b60405180910390f35b34801561069f57600080fd5b506106ba60048036038101906106b59190614430565b612290565b6040516106ce98979695949392919061502c565b60405180910390f35b3480156106e357600080fd5b506106ec6123ad565b6040516106f99190614bef565b60405180910390f35b34801561070e57600080fd5b5061072960048036038101906107249190614430565b61243f565b604051610738939291906150b1565b60405180910390f35b34801561074d57600080fd5b506107686004803603810190610763919061426c565b6125e5565b005b34801561077657600080fd5b50610791600480360381019061078c9190614430565b6125fb565b005b34801561079f57600080fd5b506107ba60048036038101906107b59190614430565b6127f6565b6040516107c79190614b22565b60405180910390f35b3480156107dc57600080fd5b506107f760048036038101906107f2919061413d565b612808565b005b34801561080557600080fd5b50610820600480360381019061081b91906141f1565b612aab565b005b34801561082e57600080fd5b5061084960048036038101906108449190614430565b612b0d565b005b34801561085757600080fd5b50610872600480360381019061086d9190614430565b612d47565b60405161087f9190614bef565b60405180910390f35b34801561089457600080fd5b506108af60048036038101906108aa919061413d565b612dee565b005b3480156108bd57600080fd5b506108d860048036038101906108d39190614166565b612fc6565b6040516108e59190614bd4565b60405180910390f35b3480156108fa57600080fd5b5061091560048036038101906109109190614495565b61305a565b005b60007f80ac58cd000000000000000000000000000000000000000000000000000000007bffffffffffffffffffffffffffffffffffffffffffffffffffffffff1916827bffffffffffffffffffffffffffffffffffffffffffffffffffffffff191614806109e257507f5b5e139f000000000000000000000000000000000000000000000000000000007bffffffffffffffffffffffffffffffffffffffffffffffffffffffff1916827bffffffffffffffffffffffffffffffffffffffffffffffffffffffff1916145b806109f257506109f182613089565b5b9050919050565b606060008054610a08906155cc565b80601f0160208091040260200160405190810160405280929190818152602001828054610a34906155cc565b8015610a815780601f10610a5657610100808354040283529160200191610a81565b820191906000526020600020905b815481529060010190602001808311610a6457829003601f168201915b5050505050905090565b6000610a96826130f3565b610ad5576040517f08c379a0000000000000000000000000000000000000000000000000000000008152600401610acc90614e91565b60405180910390fd5b6004600083815260200190815260200160002060009054906101000a900473ffffffffffffffffffffffffffffffffffffffff169050919050565b600060086000836002811115610b4f577f4e487b7100000000000000000000000000000000000000000000000000000000600052602160045260246000fd5b6002811115610b87577f4e487b7100000000000000000000000000000000000000000000000000000000600052602160045260246000fd5b815260200190815260200160002060009054906101000a900463ffffffff169050919050565b6000610bb882611e0a565b90508073ffffffffffffffffffffffffffffffffffffffff168373ffffffffffffffffffffffffffffffffffffffff161415610c29576040517f08c379a0000000000000000000000000000000000000000000000000000000008152600401610c2090614f31565b60405180910390fd5b8073ffffffffffffffffffffffffffffffffffffffff16610c4861315f565b73ffffffffffffffffffffffffffffffffffffffff161480610c775750610c7681610c7161315f565b612fc6565b5b610cb6576040517f08c379a0000000000000000000000000000000000000000000000000000000008152600401610cad90614db1565b60405180910390fd5b610cc08383613167565b505050565b600073ffffffffffffffffffffffffffffffffffffffff16600760009054906101000a900473ffffffffffffffffffffffffffffffffffffffff1673ffffffffffffffffffffffffffffffffffffffff161415610d57576040517f08c379a0000000000000000000000000000000000000000000000000000000008152600401610d4e90614cf1565b60405180910390fd5b600760009054906101000a900473ffffffffffffffffffffffffffffffffffffffff1673ffffffffffffffffffffffffffffffffffffffff163373ffffffffffffffffffffffffffffffffffffffff1614610de7576040517f08c379a0000000000000000000000000000000000000000000000000000000008152600401610dde90614cd1565b60405180910390fd5b80600073ffffffffffffffffffffffffffffffffffffffff168173ffffffffffffffffffffffffffffffffffffffff161415610e58576040517f08c379a0000000000000000000000000000000000000000000000000000000008152600401610e4f90614ef1565b60405180910390fd5b81600b60006101000a81548173ffffffffffffffffffffffffffffffffffffffff021916908373ffffffffffffffffffffffffffffffffffffffff1602179055505050565b60126020528060005260406000206000915054906101000a900460ff1681565b600073ffffffffffffffffffffffffffffffffffffffff163373ffffffffffffffffffffffffffffffffffffffff161415610f2d576040517f08c379a0000000000000000000000000000000000000000000000000000000008152600401610f2490614ef1565b60405180910390fd5b600073ffffffffffffffffffffffffffffffffffffffff16600760009054906101000a900473ffffffffffffffffffffffffffffffffffffffff1673ffffffffffffffffffffffffffffffffffffffff161415610fbf576040517f08c379a0000000000000000000000000000000000000000000000000000000008152600401610fb690614cf1565b60405180910390fd5b600760009054906101000a900473ffffffffffffffffffffffffffffffffffffffff1673ffffffffffffffffffffffffffffffffffffffff163373ffffffffffffffffffffffffffffffffffffffff161461104f576040517f08c379a000000000000000000000000000000000000000000000000000000000815260040161104690614cd1565b60405180910390fd5b80600073ffffffffffffffffffffffffffffffffffffffff168173ffffffffffffffffffffffffffffffffffffffff1614156110c0576040517f08c379a00000000000000000000000000000000000000000000000000000000081526004016110b790614ef1565b60405180910390fd5b81600c60006101000a81548173ffffffffffffffffffffffffffffffffffffffff021916908373ffffffffffffffffffffffffffffffffffffffff1602179055505050565b61111661111061315f565b82613220565b611155576040517f08c379a000000000000000000000000000000000000000000000000000000000815260040161114c90614f71565b60405180910390fd5b6111608383836132fe565b505050565b600073ffffffffffffffffffffffffffffffffffffffff163373ffffffffffffffffffffffffffffffffffffffff1614156111d5576040517f08c379a00000000000000000000000000000000000000000000000000000000081526004016111cc90614ef1565b60405180910390fd5b601160008281526020019081526020016000206005015434101561122e576040517f08c379a000000000000000000000000000000000000000000000000000000000815260040161122590614f11565b60405180910390fd5b6011600082815260200190815260200160002060070160009054906101000a900460ff16611291576040517f08c379a000000000000000000000000000000000000000000000000000000000815260040161128890614c31565b60405180910390fd5b6112a461129d82611e0a565b33836132fe565b6011600082815260200190815260200160002060030160009054906101000a900473ffffffffffffffffffffffffffffffffffffffff1673ffffffffffffffffffffffffffffffffffffffff166108fc349081150290604051600060405180830381858888f19350505050158015611320573d6000803e3d6000fd5b506011600082815260200190815260200160002060030160009054906101000a900473ffffffffffffffffffffffffffffffffffffffff166011600083815260200190815260200160002060040160006101000a81548173ffffffffffffffffffffffffffffffffffffffff021916908373ffffffffffffffffffffffffffffffffffffffff160217905550336011600083815260200190815260200160002060030160006101000a81548173ffffffffffffffffffffffffffffffffffffffff021916908373ffffffffffffffffffffffffffffffffffffffff16021790555060016011600083815260200190815260200160002060060160008282546114289190615221565b9250508190555050565b601060089054906101000a900460ff1681565b606060068054806020026020016040519081016040528092919081815260200182805480156114c957602002820191906000526020600020905b8160009054906101000a900473ffffffffffffffffffffffffffffffffffffffff1673ffffffffffffffffffffffffffffffffffffffff168152602001906001019080831161147f575b5050505050905090565b6000600954905090565b6114f883838360405180602001604052806000815250612aab565b505050565b6013818051602081018201805184825260208301602085012081835280955050505050506000915090505481565b600073ffffffffffffffffffffffffffffffffffffffff16600760009054906101000a900473ffffffffffffffffffffffffffffffffffffffff1673ffffffffffffffffffffffffffffffffffffffff1614156115bd576040517f08c379a00000000000000000000000000000000000000000000000000000000081526004016115b490614cf1565b60405180910390fd5b600760009054906101000a900473ffffffffffffffffffffffffffffffffffffffff1673ffffffffffffffffffffffffffffffffffffffff163373ffffffffffffffffffffffffffffffffffffffff161461164d576040517f08c379a000000000000000000000000000000000000000000000000000000000815260040161164490614cd1565b60405180910390fd5b80600073ffffffffffffffffffffffffffffffffffffffff168173ffffffffffffffffffffffffffffffffffffffff1614156116be576040517f08c379a00000000000000000000000000000000000000000000000000000000081526004016116b590614ef1565b60405180910390fd5b81600d60006101000a81548173ffffffffffffffffffffffffffffffffffffffff021916908373ffffffffffffffffffffffffffffffffffffffff1602179055505050565b600061170e826130f3565b9050919050565b60008060008073ffffffffffffffffffffffffffffffffffffffff163373ffffffffffffffffffffffffffffffffffffffff161415611789576040517f08c379a000000000000000000000000000000000000000000000000000000000815260040161178090614c11565b60405180910390fd5b601060009054906101000a900467ffffffffffffffff1667ffffffffffffffff168410156117ec576040517f08c379a00000000000000000000000000000000000000000000000000000000081526004016117e390614d91565b60405180910390fd5b600f60008154809291906117ff9061562f565b9190505550600f549250611812836130f3565b15611852576040517f08c379a000000000000000000000000000000000000000000000000000000000815260040161184990614dd1565b60405180910390fd5b60006013866040516118649190614ae7565b908152602001604051809103902054146118b3576040517f08c379a00000000000000000000000000000000000000000000000000000000081526004016118aa90614e31565b60405180910390fd5b6012600087815260200190815260200160002060009054906101000a900460ff1615611914576040517f08c379a000000000000000000000000000000000000000000000000000000000815260040161190b90614ed1565b60405180910390fd5b61191e3384613565565b8260138660405161192f9190614ae7565b90815260200160405180910390208190555060016012600088815260200190815260200160002060006101000a81548160ff0219169083151502179055506119768461243f565b508092508193505050600a60009054906101000a900473ffffffffffffffffffffffffffffffffffffffff1673ffffffffffffffffffffffffffffffffffffffff166340c10f19600e60009054906101000a900473ffffffffffffffffffffffffffffffffffffffff1683856119ec9190615221565b6040518363ffffffff1660e01b8152600401611a09929190614b3d565b600060405180830381600087803b158015611a2357600080fd5b505af1158015611a37573d6000803e3d6000fd5b505050506040518061010001604052808481526020018781526020018681526020013373ffffffffffffffffffffffffffffffffffffffff168152602001600073ffffffffffffffffffffffffffffffffffffffff168152602001600a60009054906101000a900473ffffffffffffffffffffffffffffffffffffffff1673ffffffffffffffffffffffffffffffffffffffff1663313ce5676040518163ffffffff1660e01b815260040160206040518083038186803b158015611afa57600080fd5b505afa158015611b0e573d6000803e3d6000fd5b505050506040513d601f19601f82011682018060405250810190611b3291906144be565b600a611b3e91906152fb565b84611b499190615419565b815260200160008152602001600115158152506011600085815260200190815260200160002060008201518160000155602082015181600101556040820151816002019080519060200190611b9f929190613ecf565b5060608201518160030160006101000a81548173ffffffffffffffffffffffffffffffffffffffff021916908373ffffffffffffffffffffffffffffffffffffffff16021790555060808201518160040160006101000a81548173ffffffffffffffffffffffffffffffffffffffff021916908373ffffffffffffffffffffffffffffffffffffffff16021790555060a0820151816005015560c0820151816006015560e08201518160070160006101000a81548160ff02191690831515021790555090505093509350939050565b600073ffffffffffffffffffffffffffffffffffffffff163373ffffffffffffffffffffffffffffffffffffffff161415611cde576040517f08c379a0000000000000000000000000000000000000000000000000000000008152600401611cd590614cf1565b60405180910390fd5b6000805b6006805490508160ff161015611da95760068160ff1681548110611d2f577f4e487b7100000000000000000000000000000000000000000000000000000000600052603260045260246000fd5b9060005260206000200160009054906101000a900473ffffffffffffffffffffffffffffffffffffffff1673ffffffffffffffffffffffffffffffffffffffff163373ffffffffffffffffffffffffffffffffffffffff161415611d965760019150611da9565b8080611da190615678565b915050611ce2565b5080611dea576040517f08c379a0000000000000000000000000000000000000000000000000000000008152600401611de190614f91565b60405180910390fd5b816011600085815260200190815260200160002060050181905550505050565b6000806002600084815260200190815260200160002060009054906101000a900473ffffffffffffffffffffffffffffffffffffffff169050600073ffffffffffffffffffffffffffffffffffffffff168173ffffffffffffffffffffffffffffffffffffffff161415611eb3576040517f08c379a0000000000000000000000000000000000000000000000000000000008152600401611eaa90614e11565b60405180910390fd5b80915050919050565b6060611ec782612d47565b9050919050565b600073ffffffffffffffffffffffffffffffffffffffff16600760009054906101000a900473ffffffffffffffffffffffffffffffffffffffff1673ffffffffffffffffffffffffffffffffffffffff161415611f60576040517f08c379a0000000000000000000000000000000000000000000000000000000008152600401611f5790614cf1565b60405180910390fd5b600760009054906101000a900473ffffffffffffffffffffffffffffffffffffffff1673ffffffffffffffffffffffffffffffffffffffff163373ffffffffffffffffffffffffffffffffffffffff1614611ff0576040517f08c379a0000000000000000000000000000000000000000000000000000000008152600401611fe790614cd1565b60405180910390fd5b80600073ffffffffffffffffffffffffffffffffffffffff168173ffffffffffffffffffffffffffffffffffffffff161415612061576040517f08c379a000000000000000000000000000000000000000000000000000000000815260040161205890614ef1565b60405180910390fd5b60068080549050106120a8576040517f08c379a000000000000000000000000000000000000000000000000000000000815260040161209f90614ff1565b60405180910390fd5b60005b6006805490508160ff16101561216f5760068160ff16815481106120f8577f4e487b7100000000000000000000000000000000000000000000000000000000600052603260045260246000fd5b9060005260206000200160009054906101000a900473ffffffffffffffffffffffffffffffffffffffff1673ffffffffffffffffffffffffffffffffffffffff168373ffffffffffffffffffffffffffffffffffffffff16141561215c57506121d4565b808061216790615678565b9150506120ab565b506006829080600181540180825580915050600190039060005260206000200160009091909190916101000a81548173ffffffffffffffffffffffffffffffffffffffff021916908373ffffffffffffffffffffffffffffffffffffffff1602179055505b5050565b60008073ffffffffffffffffffffffffffffffffffffffff168273ffffffffffffffffffffffffffffffffffffffff161415612249576040517f08c379a000000000000000000000000000000000000000000000000000000000815260040161224090614df1565b60405180910390fd5b600360008373ffffffffffffffffffffffffffffffffffffffff1673ffffffffffffffffffffffffffffffffffffffff168152602001908152602001600020549050919050565b60116020528060005260406000206000915090508060000154908060010154908060020180546122bf906155cc565b80601f01602080910402602001604051908101604052809291908181526020018280546122eb906155cc565b80156123385780601f1061230d57610100808354040283529160200191612338565b820191906000526020600020905b81548152906001019060200180831161231b57829003601f168201915b5050505050908060030160009054906101000a900473ffffffffffffffffffffffffffffffffffffffff16908060040160009054906101000a900473ffffffffffffffffffffffffffffffffffffffff16908060050154908060060154908060070160009054906101000a900460ff16905088565b6060600180546123bc906155cc565b80601f01602080910402602001604051908101604052809291908181526020018280546123e8906155cc565b80156124355780601f1061240a57610100808354040283529160200191612435565b820191906000526020600020905b81548152906001019060200180831161241857829003601f168201915b5050505050905090565b600080600080600a60009054906101000a900473ffffffffffffffffffffffffffffffffffffffff1673ffffffffffffffffffffffffffffffffffffffff1663313ce5676040518163ffffffff1660e01b815260040160206040518083038186803b1580156124ad57600080fd5b505afa1580156124c1573d6000803e3d6000fd5b505050506040513d601f19601f820116820180604052508101906124e591906144be565b600a6124f191906152fb565b856009546124ff9190615419565b6125099190615419565b905060095491506004600a61251e91906152fb565b6008600060028081111561255b577f4e487b7100000000000000000000000000000000000000000000000000000000600052602160045260246000fd5b6002811115612593577f4e487b7100000000000000000000000000000000000000000000000000000000600052602160045260246000fd5b815260200190815260200160002060009054906101000a900463ffffffff1663ffffffff16826125c39190615419565b6125cd9190615277565b925082816125db9190615473565b9350509193909250565b6125f76125f061315f565b8383613583565b5050565b80612605816130f3565b612644576040517f08c379a000000000000000000000000000000000000000000000000000000000815260040161263b90614fb1565b60405180910390fd5b600061264f82611e0a565b9050600073ffffffffffffffffffffffffffffffffffffffff168173ffffffffffffffffffffffffffffffffffffffff1614156126c1576040517f08c379a00000000000000000000000000000000000000000000000000000000081526004016126b890614c71565b60405180910390fd5b600073ffffffffffffffffffffffffffffffffffffffff163373ffffffffffffffffffffffffffffffffffffffff161415612731576040517f08c379a000000000000000000000000000000000000000000000000000000000815260040161272890614c71565b60405180910390fd5b3373ffffffffffffffffffffffffffffffffffffffff168173ffffffffffffffffffffffffffffffffffffffff161461279f576040517f08c379a000000000000000000000000000000000000000000000000000000000815260040161279690614e51565b60405180910390fd5b6011600084815260200190815260200160002060070160009054906101000a900460ff16156011600085815260200190815260200160002060070160006101000a81548160ff021916908315150217905550505050565b600061280182611e0a565b9050919050565b600073ffffffffffffffffffffffffffffffffffffffff163373ffffffffffffffffffffffffffffffffffffffff161415612878576040517f08c379a000000000000000000000000000000000000000000000000000000000815260040161286f90614ef1565b60405180910390fd5b80600073ffffffffffffffffffffffffffffffffffffffff168173ffffffffffffffffffffffffffffffffffffffff1614156128e9576040517f08c379a00000000000000000000000000000000000000000000000000000000081526004016128e090614ef1565b60405180910390fd5b600073ffffffffffffffffffffffffffffffffffffffff163373ffffffffffffffffffffffffffffffffffffffff161415612959576040517f08c379a000000000000000000000000000000000000000000000000000000000815260040161295090614cf1565b60405180910390fd5b6000805b6006805490508160ff161015612a245760068160ff16815481106129aa577f4e487b7100000000000000000000000000000000000000000000000000000000600052603260045260246000fd5b9060005260206000200160009054906101000a900473ffffffffffffffffffffffffffffffffffffffff1673ffffffffffffffffffffffffffffffffffffffff163373ffffffffffffffffffffffffffffffffffffffff161415612a115760019150612a24565b8080612a1c90615678565b91505061295d565b5080612a65576040517f08c379a0000000000000000000000000000000000000000000000000000000008152600401612a5c90614f91565b60405180910390fd5b82600a60006101000a81548173ffffffffffffffffffffffffffffffffffffffff021916908373ffffffffffffffffffffffffffffffffffffffff160217905550505050565b612abc612ab661315f565b83613220565b612afb576040517f08c379a0000000000000000000000000000000000000000000000000000000008152600401612af290614f71565b60405180910390fd5b612b07848484846136f0565b50505050565b600073ffffffffffffffffffffffffffffffffffffffff163373ffffffffffffffffffffffffffffffffffffffff161415612b7d576040517f08c379a0000000000000000000000000000000000000000000000000000000008152600401612b7490614ef1565b60405180910390fd5b600073ffffffffffffffffffffffffffffffffffffffff163373ffffffffffffffffffffffffffffffffffffffff161415612bed576040517f08c379a0000000000000000000000000000000000000000000000000000000008152600401612be490614cf1565b60405180910390fd5b6000805b6006805490508160ff161015612cb85760068160ff1681548110612c3e577f4e487b7100000000000000000000000000000000000000000000000000000000600052603260045260246000fd5b9060005260206000200160009054906101000a900473ffffffffffffffffffffffffffffffffffffffff1673ffffffffffffffffffffffffffffffffffffffff163373ffffffffffffffffffffffffffffffffffffffff161415612ca55760019150612cb8565b8080612cb090615678565b915050612bf1565b5080612cf9576040517f08c379a0000000000000000000000000000000000000000000000000000000008152600401612cf090614f91565b60405180910390fd5b60008211612d3c576040517f08c379a0000000000000000000000000000000000000000000000000000000008152600401612d3390614fd1565b60405180910390fd5b816009819055505050565b6060612d52826130f3565b612d91576040517f08c379a0000000000000000000000000000000000000000000000000000000008152600401612d8890614eb1565b60405180910390fd5b6000612d9b61374c565b90506000815111612dbb5760405180602001604052806000815250612de6565b80612dc584613763565b604051602001612dd6929190614afe565b6040516020818303038152906040525b915050919050565b600073ffffffffffffffffffffffffffffffffffffffff16600760009054906101000a900473ffffffffffffffffffffffffffffffffffffffff1673ffffffffffffffffffffffffffffffffffffffff161415612e80576040517f08c379a0000000000000000000000000000000000000000000000000000000008152600401612e7790614cf1565b60405180910390fd5b600760009054906101000a900473ffffffffffffffffffffffffffffffffffffffff1673ffffffffffffffffffffffffffffffffffffffff163373ffffffffffffffffffffffffffffffffffffffff1614612f10576040517f08c379a0000000000000000000000000000000000000000000000000000000008152600401612f0790614cd1565b60405180910390fd5b80600073ffffffffffffffffffffffffffffffffffffffff168173ffffffffffffffffffffffffffffffffffffffff161415612f81576040517f08c379a0000000000000000000000000000000000000000000000000000000008152600401612f7890614ef1565b60405180910390fd5b81600e60006101000a81548173ffffffffffffffffffffffffffffffffffffffff021916908373ffffffffffffffffffffffffffffffffffffffff1602179055505050565b6000600560008473ffffffffffffffffffffffffffffffffffffffff1673ffffffffffffffffffffffffffffffffffffffff16815260200190815260200160002060008373ffffffffffffffffffffffffffffffffffffffff1673ffffffffffffffffffffffffffffffffffffffff16815260200190815260200160002060009054906101000a900460ff16905092915050565b8060ff16601060006101000a81548167ffffffffffffffff021916908367ffffffffffffffff16021790555050565b60007f01ffc9a7000000000000000000000000000000000000000000000000000000007bffffffffffffffffffffffffffffffffffffffffffffffffffffffff1916827bffffffffffffffffffffffffffffffffffffffffffffffffffffffff1916149050919050565b60008073ffffffffffffffffffffffffffffffffffffffff166002600084815260200190815260200160002060009054906101000a900473ffffffffffffffffffffffffffffffffffffffff1673ffffffffffffffffffffffffffffffffffffffff1614159050919050565b600033905090565b816004600083815260200190815260200160002060006101000a81548173ffffffffffffffffffffffffffffffffffffffff021916908373ffffffffffffffffffffffffffffffffffffffff160217905550808273ffffffffffffffffffffffffffffffffffffffff166131da83611e0a565b73ffffffffffffffffffffffffffffffffffffffff167f8c5be1e5ebec7d5bd14f71427d1e84f3dd0314c0f7b2291e5b200ac8c7c3b92560405160405180910390a45050565b600061322b826130f3565b61326a576040517f08c379a000000000000000000000000000000000000000000000000000000000815260040161326190614d71565b60405180910390fd5b600061327583611e0a565b90508073ffffffffffffffffffffffffffffffffffffffff168473ffffffffffffffffffffffffffffffffffffffff1614806132e457508373ffffffffffffffffffffffffffffffffffffffff166132cc84610a8b565b73ffffffffffffffffffffffffffffffffffffffff16145b806132f557506132f48185612fc6565b5b91505092915050565b8273ffffffffffffffffffffffffffffffffffffffff1661331e82611e0a565b73ffffffffffffffffffffffffffffffffffffffff1614613374576040517f08c379a000000000000000000000000000000000000000000000000000000000815260040161336b90614c91565b60405180910390fd5b600073ffffffffffffffffffffffffffffffffffffffff168273ffffffffffffffffffffffffffffffffffffffff1614156133e4576040517f08c379a00000000000000000000000000000000000000000000000000000000081526004016133db90614d11565b60405180910390fd5b6133ef838383613910565b6133fa600082613167565b6001600360008573ffffffffffffffffffffffffffffffffffffffff1673ffffffffffffffffffffffffffffffffffffffff168152602001908152602001600020600082825461344a9190615473565b925050819055506001600360008473ffffffffffffffffffffffffffffffffffffffff1673ffffffffffffffffffffffffffffffffffffffff16815260200190815260200160002060008282546134a19190615221565b92505081905550816002600083815260200190815260200160002060006101000a81548173ffffffffffffffffffffffffffffffffffffffff021916908373ffffffffffffffffffffffffffffffffffffffff160217905550808273ffffffffffffffffffffffffffffffffffffffff168473ffffffffffffffffffffffffffffffffffffffff167fddf252ad1be2c89b69c2b068fc378daa952ba7f163c4a11628f55a4df523b3ef60405160405180910390a4613560838383613915565b505050565b61357f828260405180602001604052806000815250613ae0565b5050565b8173ffffffffffffffffffffffffffffffffffffffff168373ffffffffffffffffffffffffffffffffffffffff1614156135f2576040517f08c379a00000000000000000000000000000000000000000000000000000000081526004016135e990614d51565b60405180910390fd5b80600560008573ffffffffffffffffffffffffffffffffffffffff1673ffffffffffffffffffffffffffffffffffffffff16815260200190815260200160002060008473ffffffffffffffffffffffffffffffffffffffff1673ffffffffffffffffffffffffffffffffffffffff16815260200190815260200160002060006101000a81548160ff0219169083151502179055508173ffffffffffffffffffffffffffffffffffffffff168373ffffffffffffffffffffffffffffffffffffffff167f17307eab39ab6107e8899845ad3d59bd9653f200f220920489ca2b5937696c31836040516136e39190614bd4565b60405180910390a3505050565b6136fb8484846132fe565b61370784848484613b3b565b613746576040517f08c379a000000000000000000000000000000000000000000000000000000000815260040161373d90614c51565b60405180910390fd5b50505050565b606060405180602001604052806000815250905090565b606060008214156137ab576040518060400160405280600181526020017f3000000000000000000000000000000000000000000000000000000000000000815250905061390b565b600082905060005b600082146137dd5780806137c69061562f565b915050600a826137d69190615277565b91506137b3565b60008167ffffffffffffffff81111561381f577f4e487b7100000000000000000000000000000000000000000000000000000000600052604160045260246000fd5b6040519080825280601f01601f1916602001820160405280156138515781602001600182028036833780820191505090505b5090505b600085146139045760018261386a9190615473565b9150600a8561387991906156a2565b60306138859190615221565b60f81b8183815181106138c1577f4e487b7100000000000000000000000000000000000000000000000000000000600052603260045260246000fd5b60200101907effffffffffffffffffffffffffffffffffffffffffffffffffffffffffffff1916908160001a905350600a856138fd9190615277565b9450613855565b8093505050505b919050565b505050565b8173ffffffffffffffffffffffffffffffffffffffff1661393582611e0a565b73ffffffffffffffffffffffffffffffffffffffff161461398b576040517f08c379a000000000000000000000000000000000000000000000000000000000815260040161398290614f51565b60405180910390fd5b600073ffffffffffffffffffffffffffffffffffffffff168273ffffffffffffffffffffffffffffffffffffffff1614156139fb576040517f08c379a00000000000000000000000000000000000000000000000000000000081526004016139f290614d31565b60405180910390fd5b6011600082815260200190815260200160002060030160009054906101000a900473ffffffffffffffffffffffffffffffffffffffff166011600083815260200190815260200160002060040160006101000a81548173ffffffffffffffffffffffffffffffffffffffff021916908373ffffffffffffffffffffffffffffffffffffffff160217905550816011600083815260200190815260200160002060030160006101000a81548173ffffffffffffffffffffffffffffffffffffffff021916908373ffffffffffffffffffffffffffffffffffffffff160217905550505050565b613aea8383613cd2565b613af76000848484613b3b565b613b36576040517f08c379a0000000000000000000000000000000000000000000000000000000008152600401613b2d90614c51565b60405180910390fd5b505050565b6000613b5c8473ffffffffffffffffffffffffffffffffffffffff16613eac565b15613cc5578373ffffffffffffffffffffffffffffffffffffffff1663150b7a02613b8561315f565b8786866040518563ffffffff1660e01b8152600401613ba79493929190614b66565b602060405180830381600087803b158015613bc157600080fd5b505af1925050508015613bf257506040513d601f19601f82011682018060405250810190613bef919061439d565b60015b613c75573d8060008114613c22576040519150601f19603f3d011682016040523d82523d6000602084013e613c27565b606091505b50600081511415613c6d576040517f08c379a0000000000000000000000000000000000000000000000000000000008152600401613c6490614c51565b60405180910390fd5b805181602001fd5b63150b7a0260e01b7bffffffffffffffffffffffffffffffffffffffffffffffffffffffff1916817bffffffffffffffffffffffffffffffffffffffffffffffffffffffff191614915050613cca565b600190505b949350505050565b600073ffffffffffffffffffffffffffffffffffffffff168273ffffffffffffffffffffffffffffffffffffffff161415613d42576040517f08c379a0000000000000000000000000000000000000000000000000000000008152600401613d3990614e71565b60405180910390fd5b613d4b816130f3565b15613d8b576040517f08c379a0000000000000000000000000000000000000000000000000000000008152600401613d8290614cb1565b60405180910390fd5b613d9760008383613910565b6001600360008473ffffffffffffffffffffffffffffffffffffffff1673ffffffffffffffffffffffffffffffffffffffff1681526020019081526020016000206000828254613de79190615221565b92505081905550816002600083815260200190815260200160002060006101000a81548173ffffffffffffffffffffffffffffffffffffffff021916908373ffffffffffffffffffffffffffffffffffffffff160217905550808273ffffffffffffffffffffffffffffffffffffffff16600073ffffffffffffffffffffffffffffffffffffffff167fddf252ad1be2c89b69c2b068fc378daa952ba7f163c4a11628f55a4df523b3ef60405160405180910390a4613ea860008383613915565b5050565b6000808273ffffffffffffffffffffffffffffffffffffffff163b119050919050565b828054613edb906155cc565b90600052602060002090601f016020900481019282613efd5760008555613f44565b82601f10613f1657805160ff1916838001178555613f44565b82800160010185558215613f44579182015b82811115613f43578251825591602001919060010190613f28565b5b509050613f519190613f55565b5090565b5b80821115613f6e576000816000905550600101613f56565b5090565b6000613f85613f8084615143565b61511e565b905082815260208101848484011115613f9d57600080fd5b613fa884828561558a565b509392505050565b6000613fc3613fbe84615174565b61511e565b905082815260208101848484011115613fdb57600080fd5b613fe684828561558a565b509392505050565b600081359050613ffd81615e6f565b92915050565b60008135905061401281615e86565b92915050565b60008135905061402781615e9d565b92915050565b60008135905061403c81615eb4565b92915050565b60008135905061405181615ecb565b92915050565b60008151905061406681615ecb565b92915050565b600082601f83011261407d57600080fd5b813561408d848260208601613f72565b91505092915050565b6000813590506140a581615ee2565b92915050565b600082601f8301126140bc57600080fd5b81356140cc848260208601613fb0565b91505092915050565b6000813590506140e481615ef2565b92915050565b6000813590506140f981615f09565b92915050565b60008151905061410e81615f09565b92915050565b60006020828403121561412657600080fd5b600061413484828501613fee565b91505092915050565b60006020828403121561414f57600080fd5b600061415d84828501614003565b91505092915050565b6000806040838503121561417957600080fd5b600061418785828601613fee565b925050602061419885828601613fee565b9150509250929050565b6000806000606084860312156141b757600080fd5b60006141c586828701613fee565b93505060206141d686828701613fee565b92505060406141e7868287016140d5565b9150509250925092565b6000806000806080858703121561420757600080fd5b600061421587828801613fee565b945050602061422687828801613fee565b9350506040614237878288016140d5565b925050606085013567ffffffffffffffff81111561425457600080fd5b6142608782880161406c565b91505092959194509250565b6000806040838503121561427f57600080fd5b600061428d85828601613fee565b925050602061429e85828601614018565b9150509250929050565b600080604083850312156142bb57600080fd5b60006142c985828601613fee565b92505060206142da858286016140d5565b9150509250929050565b6000602082840312156142f657600080fd5b60006143048482850161402d565b91505092915050565b60008060006060848603121561432257600080fd5b60006143308682870161402d565b935050602084013567ffffffffffffffff81111561434d57600080fd5b614359868287016140ab565b925050604061436a868287016140d5565b9150509250925092565b60006020828403121561438657600080fd5b600061439484828501614042565b91505092915050565b6000602082840312156143af57600080fd5b60006143bd84828501614057565b91505092915050565b6000602082840312156143d857600080fd5b60006143e684828501614096565b91505092915050565b60006020828403121561440157600080fd5b600082013567ffffffffffffffff81111561441b57600080fd5b614427848285016140ab565b91505092915050565b60006020828403121561444257600080fd5b6000614450848285016140d5565b91505092915050565b6000806040838503121561446c57600080fd5b600061447a858286016140d5565b925050602061448b858286016140d5565b9150509250929050565b6000602082840312156144a757600080fd5b60006144b5848285016140ea565b91505092915050565b6000602082840312156144d057600080fd5b60006144de848285016140ff565b91505092915050565b60006144f3838361451d565b60208301905092915050565b61450881615554565b82525050565b614517816154b9565b82525050565b614526816154a7565b82525050565b614535816154a7565b82525050565b6000614546826151b5565b61455081856151e3565b935061455b836151a5565b8060005b8381101561458c57815161457388826144e7565b975061457e836151d6565b92505060018101905061455f565b5085935050505092915050565b6145a2816154cb565b82525050565b6145b1816154d7565b82525050565b60006145c2826151c0565b6145cc81856151f4565b93506145dc818560208601615599565b6145e58161578f565b840191505092915050565b60006145fb826151cb565b6146058185615205565b9350614615818560208601615599565b61461e8161578f565b840191505092915050565b6000614634826151cb565b61463e8185615216565b935061464e818560208601615599565b80840191505092915050565b6000614667601183615205565b9150614672826157ad565b602082019050919050565b600061468a600383615205565b9150614695826157d6565b602082019050919050565b60006146ad603283615205565b91506146b8826157ff565b604082019050919050565b60006146d0600383615205565b91506146db8261584e565b602082019050919050565b60006146f3602583615205565b91506146fe82615877565b604082019050919050565b6000614716601c83615205565b9150614721826158c6565b602082019050919050565b6000614739601e83615205565b9150614744826158ef565b602082019050919050565b600061475c601783615205565b915061476782615918565b602082019050919050565b600061477f602483615205565b915061478a82615941565b604082019050919050565b60006147a2600383615205565b91506147ad82615990565b602082019050919050565b60006147c5601983615205565b91506147d0826159b9565b602082019050919050565b60006147e8602c83615205565b91506147f3826159e2565b604082019050919050565b600061480b600283615205565b915061481682615a31565b602082019050919050565b600061482e603883615205565b915061483982615a5a565b604082019050919050565b6000614851600283615205565b915061485c82615aa9565b602082019050919050565b6000614874602a83615205565b915061487f82615ad2565b604082019050919050565b6000614897602983615205565b91506148a282615b21565b604082019050919050565b60006148ba600283615205565b91506148c582615b70565b602082019050919050565b60006148dd600383615205565b91506148e882615b99565b602082019050919050565b6000614900602083615205565b915061490b82615bc2565b602082019050919050565b6000614923602c83615205565b915061492e82615beb565b604082019050919050565b6000614946602f83615205565b915061495182615c3a565b604082019050919050565b6000614969600283615205565b915061497482615c89565b602082019050919050565b600061498c601983615205565b915061499782615cb2565b602082019050919050565b60006149af600383615205565b91506149ba82615cdb565b602082019050919050565b60006149d2602183615205565b91506149dd82615d04565b604082019050919050565b60006149f5600383615205565b9150614a0082615d53565b602082019050919050565b6000614a18603183615205565b9150614a2382615d7c565b604082019050919050565b6000614a3b601d83615205565b9150614a4682615dcb565b602082019050919050565b6000614a5e600283615205565b9150614a6982615df4565b602082019050919050565b6000614a81600d83615205565b9150614a8c82615e1d565b602082019050919050565b6000614aa4601383615205565b9150614aaf82615e46565b602082019050919050565b614ac38161552d565b82525050565b614ad281615537565b82525050565b614ae181615547565b82525050565b6000614af38284614629565b915081905092915050565b6000614b0a8285614629565b9150614b168284614629565b91508190509392505050565b6000602082019050614b37600083018461452c565b92915050565b6000604082019050614b5260008301856144ff565b614b5f6020830184614aba565b9392505050565b6000608082019050614b7b600083018761452c565b614b88602083018661452c565b614b956040830185614aba565b8181036060830152614ba781846145b7565b905095945050505050565b60006020820190508181036000830152614bcc818461453b565b905092915050565b6000602082019050614be96000830184614599565b92915050565b60006020820190508181036000830152614c0981846145f0565b905092915050565b60006020820190508181036000830152614c2a8161465a565b9050919050565b60006020820190508181036000830152614c4a8161467d565b9050919050565b60006020820190508181036000830152614c6a816146a0565b9050919050565b60006020820190508181036000830152614c8a816146c3565b9050919050565b60006020820190508181036000830152614caa816146e6565b9050919050565b60006020820190508181036000830152614cca81614709565b9050919050565b60006020820190508181036000830152614cea8161472c565b9050919050565b60006020820190508181036000830152614d0a8161474f565b9050919050565b60006020820190508181036000830152614d2a81614772565b9050919050565b60006020820190508181036000830152614d4a81614795565b9050919050565b60006020820190508181036000830152614d6a816147b8565b9050919050565b60006020820190508181036000830152614d8a816147db565b9050919050565b60006020820190508181036000830152614daa816147fe565b9050919050565b60006020820190508181036000830152614dca81614821565b9050919050565b60006020820190508181036000830152614dea81614844565b9050919050565b60006020820190508181036000830152614e0a81614867565b9050919050565b60006020820190508181036000830152614e2a8161488a565b9050919050565b60006020820190508181036000830152614e4a816148ad565b9050919050565b60006020820190508181036000830152614e6a816148d0565b9050919050565b60006020820190508181036000830152614e8a816148f3565b9050919050565b60006020820190508181036000830152614eaa81614916565b9050919050565b60006020820190508181036000830152614eca81614939565b9050919050565b60006020820190508181036000830152614eea8161495c565b9050919050565b60006020820190508181036000830152614f0a8161497f565b9050919050565b60006020820190508181036000830152614f2a816149a2565b9050919050565b60006020820190508181036000830152614f4a816149c5565b9050919050565b60006020820190508181036000830152614f6a816149e8565b9050919050565b60006020820190508181036000830152614f8a81614a0b565b9050919050565b60006020820190508181036000830152614faa81614a2e565b9050919050565b60006020820190508181036000830152614fca81614a51565b9050919050565b60006020820190508181036000830152614fea81614a74565b9050919050565b6000602082019050818103600083015261500a81614a97565b9050919050565b60006020820190506150266000830184614aba565b92915050565b600061010082019050615042600083018b614aba565b61504f602083018a6145a8565b818103604083015261506181896145f0565b9050615070606083018861450e565b61507d608083018761450e565b61508a60a0830186614aba565b61509760c0830185614aba565b6150a460e0830184614599565b9998505050505050505050565b60006060820190506150c66000830186614aba565b6150d36020830185614aba565b6150e06040830184614aba565b949350505050565b60006020820190506150fd6000830184614ac9565b92915050565b60006020820190506151186000830184614ad8565b92915050565b6000615128615139565b905061513482826155fe565b919050565b6000604051905090565b600067ffffffffffffffff82111561515e5761515d615760565b5b6151678261578f565b9050602081019050919050565b600067ffffffffffffffff82111561518f5761518e615760565b5b6151988261578f565b9050602081019050919050565b6000819050602082019050919050565b600081519050919050565b600081519050919050565b600081519050919050565b6000602082019050919050565b600082825260208201905092915050565b600082825260208201905092915050565b600082825260208201905092915050565b600081905092915050565b600061522c8261552d565b91506152378361552d565b9250827fffffffffffffffffffffffffffffffffffffffffffffffffffffffffffffffff0382111561526c5761526b6156d3565b5b828201905092915050565b60006152828261552d565b915061528d8361552d565b92508261529d5761529c615702565b5b828204905092915050565b6000808291508390505b60018511156152f2578086048111156152ce576152cd6156d3565b5b60018516156152dd5780820291505b80810290506152eb856157a0565b94506152b2565b94509492505050565b60006153068261552d565b915061531183615547565b925061533e7fffffffffffffffffffffffffffffffffffffffffffffffffffffffffffffffff8484615346565b905092915050565b6000826153565760019050615412565b816153645760009050615412565b816001811461537a5760028114615384576153b3565b6001915050615412565b60ff841115615396576153956156d3565b5b8360020a9150848211156153ad576153ac6156d3565b5b50615412565b5060208310610133831016604e8410600b84101617156153e85782820a9050838111156153e3576153e26156d3565b5b615412565b6153f584848460016152a8565b9250905081840481111561540c5761540b6156d3565b5b81810290505b9392505050565b60006154248261552d565b915061542f8361552d565b9250817fffffffffffffffffffffffffffffffffffffffffffffffffffffffffffffffff0483118215151615615468576154676156d3565b5b828202905092915050565b600061547e8261552d565b91506154898361552d565b92508282101561549c5761549b6156d3565b5b828203905092915050565b60006154b28261550d565b9050919050565b60006154c48261550d565b9050919050565b60008115159050919050565b6000819050919050565b60007fffffffff0000000000000000000000000000000000000000000000000000000082169050919050565b600073ffffffffffffffffffffffffffffffffffffffff82169050919050565b6000819050919050565b600063ffffffff82169050919050565b600060ff82169050919050565b600061555f82615566565b9050919050565b600061557182615578565b9050919050565b60006155838261550d565b9050919050565b82818337600083830152505050565b60005b838110156155b757808201518184015260208101905061559c565b838111156155c6576000848401525b50505050565b600060028204905060018216806155e457607f821691505b602082108114156155f8576155f7615731565b5b50919050565b6156078261578f565b810181811067ffffffffffffffff8211171561562657615625615760565b5b80604052505050565b600061563a8261552d565b91507fffffffffffffffffffffffffffffffffffffffffffffffffffffffffffffffff82141561566d5761566c6156d3565b5b600182019050919050565b600061568382615547565b915060ff821415615697576156966156d3565b5b600182019050919050565b60006156ad8261552d565b91506156b88361552d565b9250826156c8576156c7615702565b5b828206905092915050565b7f4e487b7100000000000000000000000000000000000000000000000000000000600052601160045260246000fd5b7f4e487b7100000000000000000000000000000000000000000000000000000000600052601260045260246000fd5b7f4e487b7100000000000000000000000000000000000000000000000000000000600052602260045260246000fd5b7f4e487b7100000000000000000000000000000000000000000000000000000000600052604160045260246000fd5b6000601f19601f8301169050919050565b60008160011c9050919050565b7f4f6e6c792076616c69642063616c6c6572000000000000000000000000000000600082015250565b7f2d31330000000000000000000000000000000000000000000000000000000000600082015250565b7f4552433732313a207472616e7366657220746f206e6f6e20455243373231526560008201527f63656976657220696d706c656d656e7465720000000000000000000000000000602082015250565b7f2d31300000000000000000000000000000000000000000000000000000000000600082015250565b7f4552433732313a207472616e736665722066726f6d20696e636f72726563742060008201527f6f776e6572000000000000000000000000000000000000000000000000000000602082015250565b7f4552433732313a20746f6b656e20616c7265616479206d696e74656400000000600082015250565b7f466f722063616c6c65722065787065637465642062652063726561746f720000600082015250565b7f496e76616c69642063726561746f722061646472657373000000000000000000600082015250565b7f4552433732313a207472616e7366657220746f20746865207a65726f2061646460008201527f7265737300000000000000000000000000000000000000000000000000000000602082015250565b7f2d31350000000000000000000000000000000000000000000000000000000000600082015250565b7f4552433732313a20617070726f766520746f2063616c6c657200000000000000600082015250565b7f4552433732313a206f70657261746f7220717565727920666f72206e6f6e657860008201527f697374656e7420746f6b656e0000000000000000000000000000000000000000602082015250565b7f2d33000000000000000000000000000000000000000000000000000000000000600082015250565b7f4552433732313a20617070726f76652063616c6c6572206973206e6f74206f7760008201527f6e6572206e6f7220617070726f76656420666f7220616c6c0000000000000000602082015250565b7f2d34000000000000000000000000000000000000000000000000000000000000600082015250565b7f4552433732313a2062616c616e636520717565727920666f7220746865207a6560008201527f726f206164647265737300000000000000000000000000000000000000000000602082015250565b7f4552433732313a206f776e657220717565727920666f72206e6f6e657869737460008201527f656e7420746f6b656e0000000000000000000000000000000000000000000000602082015250565b7f2d35000000000000000000000000000000000000000000000000000000000000600082015250565b7f2d31310000000000000000000000000000000000000000000000000000000000600082015250565b7f4552433732313a206d696e7420746f20746865207a65726f2061646472657373600082015250565b7f4552433732313a20617070726f76656420717565727920666f72206e6f6e657860008201527f697374656e7420746f6b656e0000000000000000000000000000000000000000602082015250565b7f4552433732314d657461646174613a2055524920717565727920666f72206e6f60008201527f6e6578697374656e7420746f6b656e0000000000000000000000000000000000602082015250565b7f2d36000000000000000000000000000000000000000000000000000000000000600082015250565b7f4578706563746564206e6f6e2d7a65726f206164647265737300000000000000600082015250565b7f2d31320000000000000000000000000000000000000000000000000000000000600082015250565b7f4552433732313a20617070726f76616c20746f2063757272656e74206f776e6560008201527f7200000000000000000000000000000000000000000000000000000000000000602082015250565b7f2d31340000000000000000000000000000000000000000000000000000000000600082015250565b7f4552433732313a207472616e736665722063616c6c6572206973206e6f74206f60008201527f776e6572206e6f7220617070726f766564000000000000000000000000000000602082015250565b7f496e76616c69642063616c6c65722e204d7573742062652061646d696e000000600082015250565b7f2d39000000000000000000000000000000000000000000000000000000000000600082015250565b7f496e76616c696420707269636500000000000000000000000000000000000000600082015250565b7f41646d696e2067726f75702069732066756c6c00000000000000000000000000600082015250565b615e78816154a7565b8114615e8357600080fd5b50565b615e8f816154b9565b8114615e9a57600080fd5b50565b615ea6816154cb565b8114615eb157600080fd5b50565b615ebd816154d7565b8114615ec857600080fd5b50565b615ed4816154e1565b8114615edf57600080fd5b50565b60038110615eef57600080fd5b50565b615efb8161552d565b8114615f0657600080fd5b50565b615f1281615547565b8114615f1d57600080fd5b5056fea2646970667358221220a808c7af93904e3686f51039a6a02c73d7bc4d3a29535455a530a8ae8aa0d15764736f6c634300080400334f70656e636861696e205061776e696e67204e46547320436f6c6c656374696f6e",
  "immutableReferences": {},
  "source": "// SPDX-License-Identifier: MIT\npragma solidity ^0.8.0;\n\n// import \"@openzeppelin/contracts/utils/Counters.sol\";\nimport \"@openzeppelin/contracts/token/ERC721/ERC721.sol\";\nimport \"@openzeppelin/contracts/token/ERC20/ERC20.sol\";\nimport \"./OcxBase.sol\";\nimport \"./IOcat.sol\";\nimport \"./OcxCommon.sol\";\n\n/*\n * -2: mint(): Error: caller of zero address\n * -3: Too small price\n * -4: PawnNFTs.mint(): The token id already exists\n * -5: PawnNFTs.mint(): The token URI already exists\n * -6: PawnNFTs.mint(): The token name already exists\n * -7: Invalid token id\n * -8: buyToken(): Error: caller of zero address\n * -9: buyToken(): The token id already exists\n * -10: buyToken(): Error: token owner of zero address\n * -11: buyToken(): Error: buyer is token owner\n * -12: buyToken(): Not enough funds\n * -13: buyToken(): Token should be for sale\n * -14: PawnNFTs: transfer from incorrect owner\n * -15: PawnNFTs: transfer to the zero address\n * -16: \n * -17: \n * -18: \n * -19: \n * -20: \n */\n\n// PawnNFTs smart contract inherits ERC721 interface\ncontract PawnNFTs is ERC721, OcxBase {\n\n  address payable manager;\n\n  // total number of pawning NFTs minted\n  uint256 private totalSupply;\n  uint64  private minPnftPrice = 5000;\n\n  uint8   public decimals = 0;\n  \n  // define pawning NFT struct\n  struct PawnNFT {\n    uint256 tokenId;\n    bytes32 tokenName;\n    string tokenURI;\n    // address payable mintedBy;\n    address payable currentOwner;\n    address payable previousOwner;\n    uint256 price;\n    uint256 numberOfTransfers;\n    bool forSale;\n  }\n\n  // map pawnNft's token id to pawning NFT\n  mapping(uint256 => PawnNFT) public allPawnNFTs;\n  // \n  // mapping(uint256 => string) public tokenURIs;\n  // check if token name exists\n  mapping(bytes32 => bool) public tokenNameExists;\n  // check if token URI exists\n  mapping(string => uint256) public tokenURIExists;\n\n  receive() external payable {}\n\n  // initialize contract while deployment with contract's collection name and token\n  constructor() ERC721(\"Openchain Pawning NFTs Collection\", \"PNFT\") {\n    // collectionName = name();\n    // collectionNameSymbol = symbol();\n  }\n\n  modifier onlyTokenOwner(uint256 _tokenId) virtual {\n    // check if the token id of the token being bought exists or not\n    require(_exists(_tokenId), \"-9\");\n    address tokenOwner = ownerOf(_tokenId);\n    // token's owner should not be an zero address account\n    require(tokenOwner != address(0), \"-10\");\n    // sender should not be an zero address account\n    require(msg.sender != address(0), \"-10\");\n    // the one who wants to buy the token should not be the token's owner\n    require(tokenOwner == msg.sender, \"-11\");\n    _;\n  }\n\n  function setManager(address payable _manager) public \n  onlyCreator onlyValidAddress(_manager) {\n    manager = _manager;\n  }\n\n  function setMinPnftPrice(uint8 _minPnftPrice) public \n  // onlyAdmin \n  {\n      minPnftPrice = _minPnftPrice;\n  }\n\n  // mint a new pawning NFT and return token ID\n  function mint(bytes32 _name, string memory _tokenURI, uint256 _price) external \n  returns(uint256 newTokenID, uint256 realPrice, uint256 mintFee) {\n    require(msg.sender != address(0), \"Only valid caller\");\n    require(_price >= minPnftPrice, \"-3\");\n    // increment counter\n    totalSupply++;\n    newTokenID = totalSupply;\n    // check if a token exists with the above token id => incremented counter\n    require(!_exists(newTokenID), \"-4\");\n\n    // check if the token URI already exists or not\n    require(tokenURIExists[_tokenURI] == 0, \"-5\");\n    // check if the token name already exists or not\n    require(!tokenNameExists[_name], \"-6\");\n\n    // mint the token\n    _safeMint(msg.sender, newTokenID);\n    // // set token URI (bind token id with the passed in token URI)\n    // tokenURIs[newTokenID] = _tokenURI;\n\n    // make passed token URI as exists\n    tokenURIExists[_tokenURI] = newTokenID;\n    // make token name passed as exists\n    tokenNameExists[_name] = true;\n\n    // Mint new OCATs for this PNFT\n    (realPrice, mintFee,) = getExpectedPrices(_price);\n    IOcat(ocatAddress).mint(manager, realPrice + mintFee);\n    // creat a new pawning NFT (struct) and pass in new values\n    allPawnNFTs[newTokenID] = PawnNFT(\n      newTokenID,\n      _name,\n      _tokenURI,\n      // payable(msg.sender),\n      payable(msg.sender),\n      payable(address(0)),\n      realPrice * (10 ** ERC20(ocatAddress).decimals()),\n      0,    // number of transfers\n      true // for sale\n    );\n  }\n  function getExpectedPrices(uint256 originalPrice) public view\n  returns(uint256 realPrice, uint256 mintFee, uint256 _ocatPrice) {\n    uint256 quotedPrice = ocatPrice * originalPrice * (10 ** ERC20(ocatAddress).decimals());\n    _ocatPrice = ocatPrice;\n    mintFee = quotedPrice * fees[FeeType.PNFT_MINT_FEE] / (10 ** FEE_DECIMAL);\n    realPrice = quotedPrice - mintFee;\n  }\n  // get owner of the token\n  function getTokenOwner(uint256 _tokenId) public view returns(address) {\n    return ownerOf(_tokenId);\n  }\n\n  // get metadata of the token\n  function getTokenMetaData(uint _tokenId) public view \n  returns(string memory tokenMetaData) {\n    tokenMetaData = tokenURI(_tokenId);\n  }\n\n  // check if the token already exists\n  function exists(uint256 _tokenId) public view returns(bool tokenExists) {\n    tokenExists = _exists(_tokenId);\n  }\n\n  // by a token by passing in the token's id\n  function buyToken(uint256 _tokenId) public payable \n  onlyValidCaller {\n    // price sent in to buy should be equal to or more than the token's price\n    require(msg.value >= allPawnNFTs[_tokenId].price, \"-12\");\n    // token should be for sale\n    require(allPawnNFTs[_tokenId].forSale, \"-13\");\n    // transfer the token from owner to the caller of the function (buyer)\n    _transfer(ownerOf(_tokenId), msg.sender, _tokenId);\n    // send token's worth of ethers to the owner\n    allPawnNFTs[_tokenId].currentOwner.transfer(msg.value);\n    // update the token's previous owner\n    allPawnNFTs[_tokenId].previousOwner = allPawnNFTs[_tokenId].currentOwner;\n    // update the token's current owner\n    allPawnNFTs[_tokenId].currentOwner = payable(msg.sender);\n    // update the how many times this token was transfered\n    allPawnNFTs[_tokenId].numberOfTransfers += 1;\n  }\n\n  function _afterTokenTransfer(\n      address /*from*/,\n      address to,\n      uint256 tokenId\n  ) internal virtual override {\n    // Now the owner of the token ID is \"to\"\n    require(ERC721.ownerOf(tokenId) == to, \"-14\");\n    require(to != address(0), \"-15\");\n\n    // update the token's previous owner\n    allPawnNFTs[tokenId].previousOwner = allPawnNFTs[tokenId].currentOwner;\n    // update the token's current owner\n    allPawnNFTs[tokenId].currentOwner = payable(to);\n  }\n\n  function changeTokenPrice(uint256 _tokenId, uint256 _newPrice) public \n  // onlyTokenOwner(_tokenId) {\n  onlyAdmin \n  {\n    // update token's price with new price\n    allPawnNFTs[_tokenId].price = _newPrice;\n  }\n\n  // switch between set for sale and set not for sale\n  function toggleForSale(uint256 _tokenId) public \n  onlyTokenOwner(_tokenId) {\n    // if token's forSale is false make it true and vice versa\n    allPawnNFTs[_tokenId].forSale = !(allPawnNFTs[_tokenId].forSale);\n  }\n}\n",
  "sourcePath": "/home/cowboy/OCX/OpenchainTestVersion/server/contracts/PawnNFTs.sol",
  "compiler": {
    "name": "solc",
    "version": "0.8.4+commit.c7e474f2.Emscripten.clang"
  },
  "schemaVersion": "3.4.6",
  "updatedAt": "2022-04-16T11:16:56.614Z",
  "devdoc": {
    "kind": "dev",
    "methods": {
      "approve(address,uint256)": {
        "details": "See {IERC721-approve}."
      },
      "balanceOf(address)": {
        "details": "See {IERC721-balanceOf}."
      },
      "getApproved(uint256)": {
        "details": "See {IERC721-getApproved}."
      },
      "isApprovedForAll(address,address)": {
        "details": "See {IERC721-isApprovedForAll}."
      },
      "name()": {
        "details": "See {IERC721Metadata-name}."
      },
      "ownerOf(uint256)": {
        "details": "See {IERC721-ownerOf}."
      },
      "safeTransferFrom(address,address,uint256)": {
        "details": "See {IERC721-safeTransferFrom}."
      },
      "safeTransferFrom(address,address,uint256,bytes)": {
        "details": "See {IERC721-safeTransferFrom}."
      },
      "setApprovalForAll(address,bool)": {
        "details": "See {IERC721-setApprovalForAll}."
      },
      "supportsInterface(bytes4)": {
        "details": "See {IERC165-supportsInterface}."
      },
      "symbol()": {
        "details": "See {IERC721Metadata-symbol}."
      },
      "tokenURI(uint256)": {
        "details": "See {IERC721Metadata-tokenURI}."
      },
      "transferFrom(address,address,uint256)": {
        "details": "See {IERC721-transferFrom}."
      }
    },
    "version": 1
  },
  "userdoc": {
    "kind": "user",
    "methods": {},
    "version": 1
  }
}