{
  "contractName": "PawnExchange",
  "abi": [
    {
      "inputs": [],
      "stateMutability": "nonpayable",
      "type": "constructor"
    },
    {
      "anonymous": false,
      "inputs": [
        {
          "indexed": false,
          "internalType": "uint256",
          "name": "realPrice",
          "type": "uint256"
        },
        {
          "indexed": false,
          "internalType": "uint256",
          "name": "swapBackFee",
          "type": "uint256"
        }
      ],
      "name": "SwappedFromOcat",
      "type": "event"
    },
    {
      "anonymous": false,
      "inputs": [
        {
          "indexed": false,
          "internalType": "uint256",
          "name": "realPrice",
          "type": "uint256"
        },
        {
          "indexed": false,
          "internalType": "uint256",
          "name": "swapfee",
          "type": "uint256"
        }
      ],
      "name": "SwappedToOcat",
      "type": "event"
    },
    {
      "inputs": [
        {
          "internalType": "address",
          "name": "_admin",
          "type": "address"
        }
      ],
      "name": "addAdmin",
      "outputs": [],
      "stateMutability": "nonpayable",
      "type": "function"
    },
    {
      "inputs": [],
      "name": "getAdmins",
      "outputs": [
        {
          "internalType": "address[]",
          "name": "",
          "type": "address[]"
        }
      ],
      "stateMutability": "view",
      "type": "function"
    },
    {
      "inputs": [
        {
          "internalType": "enum FeeType",
          "name": "feeType",
          "type": "uint8"
        }
      ],
      "name": "getFee",
      "outputs": [
        {
          "internalType": "uint32",
          "name": "",
          "type": "uint32"
        }
      ],
      "stateMutability": "view",
      "type": "function"
    },
    {
      "inputs": [],
      "name": "getOcatPrice",
      "outputs": [
        {
          "internalType": "uint256",
          "name": "",
          "type": "uint256"
        }
      ],
      "stateMutability": "view",
      "type": "function"
    },
    {
      "inputs": [
        {
          "internalType": "address payable",
          "name": "_feeManager",
          "type": "address"
        }
      ],
      "name": "setFeeManager",
      "outputs": [],
      "stateMutability": "nonpayable",
      "type": "function"
    },
    {
      "inputs": [
        {
          "internalType": "address payable",
          "name": "_ocatAddress",
          "type": "address"
        }
      ],
      "name": "setOcatAddress",
      "outputs": [],
      "stateMutability": "nonpayable",
      "type": "function"
    },
    {
      "inputs": [
        {
          "internalType": "uint256",
          "name": "_price",
          "type": "uint256"
        }
      ],
      "name": "setOcatPrice",
      "outputs": [],
      "stateMutability": "nonpayable",
      "type": "function"
    },
    {
      "inputs": [
        {
          "internalType": "address payable",
          "name": "_ocxAddress",
          "type": "address"
        }
      ],
      "name": "setOcxAddress",
      "outputs": [],
      "stateMutability": "nonpayable",
      "type": "function"
    },
    {
      "inputs": [
        {
          "internalType": "address payable",
          "name": "_pnftAddress",
          "type": "address"
        }
      ],
      "name": "setPnftAddress",
      "outputs": [],
      "stateMutability": "nonpayable",
      "type": "function"
    },
    {
      "inputs": [
        {
          "internalType": "address payable",
          "name": "",
          "type": "address"
        },
        {
          "internalType": "address payable",
          "name": "",
          "type": "address"
        },
        {
          "internalType": "uint256",
          "name": "",
          "type": "uint256"
        },
        {
          "internalType": "bytes",
          "name": "",
          "type": "bytes"
        }
      ],
      "name": "onERC721Received",
      "outputs": [
        {
          "internalType": "bytes4",
          "name": "",
          "type": "bytes4"
        }
      ],
      "stateMutability": "pure",
      "type": "function"
    },
    {
      "inputs": [
        {
          "internalType": "uint8",
          "name": "_minPnftPrice",
          "type": "uint8"
        }
      ],
      "name": "setMinPnftPrice",
      "outputs": [],
      "stateMutability": "nonpayable",
      "type": "function"
    },
    {
      "inputs": [
        {
          "internalType": "enum FeeType",
          "name": "feeType",
          "type": "uint8"
        },
        {
          "internalType": "uint32",
          "name": "feeValue",
          "type": "uint32"
        }
      ],
      "name": "setFee",
      "outputs": [],
      "stateMutability": "nonpayable",
      "type": "function"
    },
    {
      "inputs": [
        {
          "internalType": "uint256",
          "name": "nftID",
          "type": "uint256"
        }
      ],
      "name": "exchangeToOcat",
      "outputs": [
        {
          "internalType": "uint256",
          "name": "realPrice",
          "type": "uint256"
        },
        {
          "internalType": "uint256",
          "name": "swapFee",
          "type": "uint256"
        }
      ],
      "stateMutability": "nonpayable",
      "type": "function"
    },
    {
      "inputs": [
        {
          "internalType": "uint256",
          "name": "nftID",
          "type": "uint256"
        }
      ],
      "name": "exchangeFromOcat",
      "outputs": [
        {
          "internalType": "uint256",
          "name": "realPrice",
          "type": "uint256"
        },
        {
          "internalType": "uint256",
          "name": "swapBackFee",
          "type": "uint256"
        }
      ],
      "stateMutability": "nonpayable",
      "type": "function"
    }
  ],
  "bytecode": "0x6080604052611388600760146101000a81548167ffffffffffffffff021916908367ffffffffffffffff1602179055503480156200003c57600080fd5b5033600160006101000a81548173ffffffffffffffffffffffffffffffffffffffff021916908373ffffffffffffffffffffffffffffffffffffffff1602179055506001600381905550603260026000806002811115620000c6577f4e487b7100000000000000000000000000000000000000000000000000000000600052602160045260246000fd5b6002811115620000ff577f4e487b7100000000000000000000000000000000000000000000000000000000600052602160045260246000fd5b815260200190815260200160002060006101000a81548163ffffffff021916908363ffffffff160217905550603260026000600160028111156200016c577f4e487b7100000000000000000000000000000000000000000000000000000000600052602160045260246000fd5b6002811115620001a5577f4e487b7100000000000000000000000000000000000000000000000000000000600052602160045260246000fd5b815260200190815260200160002060006101000a81548163ffffffff021916908363ffffffff16021790555060326002600060028081111562000211577f4e487b7100000000000000000000000000000000000000000000000000000000600052602160045260246000fd5b60028111156200024a577f4e487b7100000000000000000000000000000000000000000000000000000000600052602160045260246000fd5b815260200190815260200160002060006101000a81548163ffffffff021916908363ffffffff16021790555033600160006101000a81548173ffffffffffffffffffffffffffffffffffffffff021916908373ffffffffffffffffffffffffffffffffffffffff16021790555061353180620002c76000396000f3fe608060405234801561001057600080fd5b50600436106100ea5760003560e01c80633214e1a91161008c5780637048027511610066578063704802751461025d578063b18d30a214610279578063bb3f6c6a14610295578063f3ac38b7146102b1576100ea565b80633214e1a9146101f2578063378321eb14610210578063472d35b914610241576100ea565b806313ad82da116100c857806313ad82da14610157578063150b7a021461018857806315f03d22146101b857806331ae450b146101d4576100ea565b806305c9399c146100ef578063083132c41461010b5780630b0c506f1461013b575b600080fd5b610109600480360381019061010491906124a5565b6102cd565b005b6101256004803603810190610120919061247c565b6104f0565b6040516101329190612c18565b60405180910390f35b610155600480360381019061015091906123aa565b61058d565b005b610171600480360381019061016c91906124e1565b610765565b60405161017f929190612bef565b60405180910390f35b6101a2600480360381019061019d91906123d3565b610e63565b6040516101af91906129d9565b60405180910390f35b6101d260048036038101906101cd91906123aa565b610e78565b005b6101dc6110c0565b6040516101e991906129b7565b60405180910390f35b6101fa61114e565b6040516102079190612bd4565b60405180910390f35b61022a600480360381019061022591906124e1565b611158565b604051610238929190612bef565b60405180910390f35b61025b600480360381019061025691906123aa565b611558565b005b61027760048036038101906102729190612381565b611730565b005b610293600480360381019061028e91906123aa565b611a3b565b005b6102af60048036038101906102aa91906124e1565b611cde565b005b6102cb60048036038101906102c691906125fd565b611f18565b005b600073ffffffffffffffffffffffffffffffffffffffff163373ffffffffffffffffffffffffffffffffffffffff16141561033d576040517f08c379a000000000000000000000000000000000000000000000000000000000815260040161033490612a34565b60405180910390fd5b6000805b6000805490508160ff1610156104085760008160ff168154811061038e577f4e487b7100000000000000000000000000000000000000000000000000000000600052603260045260246000fd5b9060005260206000200160009054906101000a900473ffffffffffffffffffffffffffffffffffffffff1673ffffffffffffffffffffffffffffffffffffffff163373ffffffffffffffffffffffffffffffffffffffff1614156103f55760019150610408565b80806104009061302a565b915050610341565b5080610449576040517f08c379a000000000000000000000000000000000000000000000000000000000815260040161044090612b34565b60405180910390fd5b8160026000856002811115610487577f4e487b7100000000000000000000000000000000000000000000000000000000600052602160045260246000fd5b60028111156104bf577f4e487b7100000000000000000000000000000000000000000000000000000000600052602160045260246000fd5b815260200190815260200160002060006101000a81548163ffffffff021916908363ffffffff160217905550505050565b60006002600083600281111561052f577f4e487b7100000000000000000000000000000000000000000000000000000000600052602160045260246000fd5b6002811115610567577f4e487b7100000000000000000000000000000000000000000000000000000000600052602160045260246000fd5b815260200190815260200160002060009054906101000a900463ffffffff169050919050565b600073ffffffffffffffffffffffffffffffffffffffff16600160009054906101000a900473ffffffffffffffffffffffffffffffffffffffff1673ffffffffffffffffffffffffffffffffffffffff16141561061f576040517f08c379a000000000000000000000000000000000000000000000000000000000815260040161061690612a34565b60405180910390fd5b600160009054906101000a900473ffffffffffffffffffffffffffffffffffffffff1673ffffffffffffffffffffffffffffffffffffffff163373ffffffffffffffffffffffffffffffffffffffff16146106af576040517f08c379a00000000000000000000000000000000000000000000000000000000081526004016106a690612a14565b60405180910390fd5b80600073ffffffffffffffffffffffffffffffffffffffff168173ffffffffffffffffffffffffffffffffffffffff161415610720576040517f08c379a000000000000000000000000000000000000000000000000000000000815260040161071790612ab4565b60405180910390fd5b81600560006101000a81548173ffffffffffffffffffffffffffffffffffffffff021916908373ffffffffffffffffffffffffffffffffffffffff1602179055505050565b60008082600081116107ac576040517f08c379a00000000000000000000000000000000000000000000000000000000081526004016107a390612a74565b60405180910390fd5b3073ffffffffffffffffffffffffffffffffffffffff163373ffffffffffffffffffffffffffffffffffffffff16141561081b576040517f08c379a0000000000000000000000000000000000000000000000000000000008152600401610812906129f4565b60405180910390fd5b600073ffffffffffffffffffffffffffffffffffffffff163373ffffffffffffffffffffffffffffffffffffffff16141561088b576040517f08c379a000000000000000000000000000000000000000000000000000000000815260040161088290612b54565b60405180910390fd5b600080600660009054906101000a900473ffffffffffffffffffffffffffffffffffffffff1673ffffffffffffffffffffffffffffffffffffffff1663717947b1876040518263ffffffff1660e01b81526004016108e99190612bd4565b60006040518083038186803b15801561090157600080fd5b505afa158015610915573d6000803e3d6000fd5b505050506040513d6000823e3d601f19601f8201168201806040525081019061093e9190612533565b505095505094505050503373ffffffffffffffffffffffffffffffffffffffff168273ffffffffffffffffffffffffffffffffffffffff16146109b6576040517f08c379a00000000000000000000000000000000000000000000000000000000081526004016109ad90612af4565b60405180910390fd5b600760149054906101000a900467ffffffffffffffff1667ffffffffffffffff16811015610a19576040517f08c379a0000000000000000000000000000000000000000000000000000000008152600401610a1090612a94565b60405180910390fd5b600060035411610a5e576040517f08c379a0000000000000000000000000000000000000000000000000000000008152600401610a5590612a54565b60405180910390fd5b600081600354610a6e9190612e8b565b90506004600a610a7e9190612d6d565b60026000600280811115610abb577f4e487b7100000000000000000000000000000000000000000000000000000000600052602160045260246000fd5b6002811115610af3577f4e487b7100000000000000000000000000000000000000000000000000000000600052602160045260246000fd5b815260200190815260200160002060009054906101000a900463ffffffff1663ffffffff1682610b239190612e8b565b610b2d9190612ce9565b94508481610b3b9190612ee5565b95506000600460009054906101000a900473ffffffffffffffffffffffffffffffffffffffff1673ffffffffffffffffffffffffffffffffffffffff166370a08231306040518263ffffffff1660e01b8152600401610b9a919061293c565b60206040518083038186803b158015610bb257600080fd5b505afa158015610bc6573d6000803e3d6000fd5b505050506040513d601f19601f82011682018060405250810190610bea919061250a565b905082811015610c2f576040517f08c379a0000000000000000000000000000000000000000000000000000000008152600401610c2690612ad4565b60405180910390fd5b600660009054906101000a900473ffffffffffffffffffffffffffffffffffffffff1673ffffffffffffffffffffffffffffffffffffffff166342842e0e33308b6040518463ffffffff1660e01b8152600401610c8e93929190612957565b600060405180830381600087803b158015610ca857600080fd5b505af1158015610cbc573d6000803e3d6000fd5b50505050600460009054906101000a900473ffffffffffffffffffffffffffffffffffffffff1673ffffffffffffffffffffffffffffffffffffffff1663a9059cbb30886040518363ffffffff1660e01b8152600401610d1d92919061298e565b602060405180830381600087803b158015610d3757600080fd5b505af1158015610d4b573d6000803e3d6000fd5b505050506040513d601f19601f82011682018060405250810190610d6f9190612453565b50600460009054906101000a900473ffffffffffffffffffffffffffffffffffffffff1673ffffffffffffffffffffffffffffffffffffffff1663a9059cbb33896040518363ffffffff1660e01b8152600401610dcd92919061298e565b602060405180830381600087803b158015610de757600080fd5b505af1158015610dfb573d6000803e3d6000fd5b505050506040513d601f19601f82011682018060405250810190610e1f9190612453565b507fdf26ba1712ef61c6db90a8ee9b6a5c4b7001717811fe1086a93d3bcad12552918787604051610e51929190612bef565b60405180910390a15050505050915091565b600063150b7a0260e01b905095945050505050565b600073ffffffffffffffffffffffffffffffffffffffff163373ffffffffffffffffffffffffffffffffffffffff161415610ee8576040517f08c379a0000000000000000000000000000000000000000000000000000000008152600401610edf90612ab4565b60405180910390fd5b600073ffffffffffffffffffffffffffffffffffffffff16600160009054906101000a900473ffffffffffffffffffffffffffffffffffffffff1673ffffffffffffffffffffffffffffffffffffffff161415610f7a576040517f08c379a0000000000000000000000000000000000000000000000000000000008152600401610f7190612a34565b60405180910390fd5b600160009054906101000a900473ffffffffffffffffffffffffffffffffffffffff1673ffffffffffffffffffffffffffffffffffffffff163373ffffffffffffffffffffffffffffffffffffffff161461100a576040517f08c379a000000000000000000000000000000000000000000000000000000000815260040161100190612a14565b60405180910390fd5b80600073ffffffffffffffffffffffffffffffffffffffff168173ffffffffffffffffffffffffffffffffffffffff16141561107b576040517f08c379a000000000000000000000000000000000000000000000000000000000815260040161107290612ab4565b60405180910390fd5b81600660006101000a81548173ffffffffffffffffffffffffffffffffffffffff021916908373ffffffffffffffffffffffffffffffffffffffff1602179055505050565b6060600080548060200260200160405190810160405280929190818152602001828054801561114457602002820191906000526020600020905b8160009054906101000a900473ffffffffffffffffffffffffffffffffffffffff1673ffffffffffffffffffffffffffffffffffffffff16815260200190600101908083116110fa575b5050505050905090565b6000600354905090565b600080600073ffffffffffffffffffffffffffffffffffffffff163373ffffffffffffffffffffffffffffffffffffffff1614156111cb576040517f08c379a00000000000000000000000000000000000000000000000000000000081526004016111c290612ab4565b60405180910390fd5b6000600460009054906101000a900473ffffffffffffffffffffffffffffffffffffffff1673ffffffffffffffffffffffffffffffffffffffff166370a08231336040518263ffffffff1660e01b8152600401611228919061293c565b60206040518083038186803b15801561124057600080fd5b505afa158015611254573d6000803e3d6000fd5b505050506040513d601f19601f82011682018060405250810190611278919061250a565b90506000600660009054906101000a900473ffffffffffffffffffffffffffffffffffffffff1673ffffffffffffffffffffffffffffffffffffffff1663717947b1866040518263ffffffff1660e01b81526004016112d79190612bd4565b60006040518083038186803b1580156112ef57600080fd5b505afa158015611303573d6000803e3d6000fd5b505050506040513d6000823e3d601f19601f8201168201806040525081019061132c9190612533565b5050955050505050506000600354826113459190612e8b565b90506004600a6113559190612d6d565b6002600060016002811115611393577f4e487b7100000000000000000000000000000000000000000000000000000000600052602160045260246000fd5b60028111156113cb577f4e487b7100000000000000000000000000000000000000000000000000000000600052602160045260246000fd5b815260200190815260200160002060009054906101000a900463ffffffff1663ffffffff16826113fb9190612e8b565b6114059190612ce9565b935083816114139190612ee5565b945080831015611458576040517f08c379a000000000000000000000000000000000000000000000000000000000815260040161144f90612b14565b60405180910390fd5b611486600460009054906101000a900473ffffffffffffffffffffffffffffffffffffffff163330846120c4565b600660009054906101000a900473ffffffffffffffffffffffffffffffffffffffff1673ffffffffffffffffffffffffffffffffffffffff166342842e0e3033896040518463ffffffff1660e01b81526004016114e593929190612957565b600060405180830381600087803b1580156114ff57600080fd5b505af1158015611513573d6000803e3d6000fd5b505050507f72aea6ac60f3802c7e2107c2c473d38b9cfada6c47c06b2db95a6ebc5da04b718585604051611548929190612bef565b60405180910390a1505050915091565b600073ffffffffffffffffffffffffffffffffffffffff16600160009054906101000a900473ffffffffffffffffffffffffffffffffffffffff1673ffffffffffffffffffffffffffffffffffffffff1614156115ea576040517f08c379a00000000000000000000000000000000000000000000000000000000081526004016115e190612a34565b60405180910390fd5b600160009054906101000a900473ffffffffffffffffffffffffffffffffffffffff1673ffffffffffffffffffffffffffffffffffffffff163373ffffffffffffffffffffffffffffffffffffffff161461167a576040517f08c379a000000000000000000000000000000000000000000000000000000000815260040161167190612a14565b60405180910390fd5b80600073ffffffffffffffffffffffffffffffffffffffff168173ffffffffffffffffffffffffffffffffffffffff1614156116eb576040517f08c379a00000000000000000000000000000000000000000000000000000000081526004016116e290612ab4565b60405180910390fd5b81600760006101000a81548173ffffffffffffffffffffffffffffffffffffffff021916908373ffffffffffffffffffffffffffffffffffffffff1602179055505050565b600073ffffffffffffffffffffffffffffffffffffffff16600160009054906101000a900473ffffffffffffffffffffffffffffffffffffffff1673ffffffffffffffffffffffffffffffffffffffff1614156117c2576040517f08c379a00000000000000000000000000000000000000000000000000000000081526004016117b990612a34565b60405180910390fd5b600160009054906101000a900473ffffffffffffffffffffffffffffffffffffffff1673ffffffffffffffffffffffffffffffffffffffff163373ffffffffffffffffffffffffffffffffffffffff1614611852576040517f08c379a000000000000000000000000000000000000000000000000000000000815260040161184990612a14565b60405180910390fd5b80600073ffffffffffffffffffffffffffffffffffffffff168173ffffffffffffffffffffffffffffffffffffffff1614156118c3576040517f08c379a00000000000000000000000000000000000000000000000000000000081526004016118ba90612ab4565b60405180910390fd5b60066000805490501061190b576040517f08c379a000000000000000000000000000000000000000000000000000000000815260040161190290612bb4565b60405180910390fd5b60005b6000805490508160ff1610156119d25760008160ff168154811061195b577f4e487b7100000000000000000000000000000000000000000000000000000000600052603260045260246000fd5b9060005260206000200160009054906101000a900473ffffffffffffffffffffffffffffffffffffffff1673ffffffffffffffffffffffffffffffffffffffff168373ffffffffffffffffffffffffffffffffffffffff1614156119bf5750611a37565b80806119ca9061302a565b91505061190e565b506000829080600181540180825580915050600190039060005260206000200160009091909190916101000a81548173ffffffffffffffffffffffffffffffffffffffff021916908373ffffffffffffffffffffffffffffffffffffffff1602179055505b5050565b600073ffffffffffffffffffffffffffffffffffffffff163373ffffffffffffffffffffffffffffffffffffffff161415611aab576040517f08c379a0000000000000000000000000000000000000000000000000000000008152600401611aa290612ab4565b60405180910390fd5b80600073ffffffffffffffffffffffffffffffffffffffff168173ffffffffffffffffffffffffffffffffffffffff161415611b1c576040517f08c379a0000000000000000000000000000000000000000000000000000000008152600401611b1390612ab4565b60405180910390fd5b600073ffffffffffffffffffffffffffffffffffffffff163373ffffffffffffffffffffffffffffffffffffffff161415611b8c576040517f08c379a0000000000000000000000000000000000000000000000000000000008152600401611b8390612a34565b60405180910390fd5b6000805b6000805490508160ff161015611c575760008160ff1681548110611bdd577f4e487b7100000000000000000000000000000000000000000000000000000000600052603260045260246000fd5b9060005260206000200160009054906101000a900473ffffffffffffffffffffffffffffffffffffffff1673ffffffffffffffffffffffffffffffffffffffff163373ffffffffffffffffffffffffffffffffffffffff161415611c445760019150611c57565b8080611c4f9061302a565b915050611b90565b5080611c98576040517f08c379a0000000000000000000000000000000000000000000000000000000008152600401611c8f90612b34565b60405180910390fd5b82600460006101000a81548173ffffffffffffffffffffffffffffffffffffffff021916908373ffffffffffffffffffffffffffffffffffffffff160217905550505050565b600073ffffffffffffffffffffffffffffffffffffffff163373ffffffffffffffffffffffffffffffffffffffff161415611d4e576040517f08c379a0000000000000000000000000000000000000000000000000000000008152600401611d4590612ab4565b60405180910390fd5b600073ffffffffffffffffffffffffffffffffffffffff163373ffffffffffffffffffffffffffffffffffffffff161415611dbe576040517f08c379a0000000000000000000000000000000000000000000000000000000008152600401611db590612a34565b60405180910390fd5b6000805b6000805490508160ff161015611e895760008160ff1681548110611e0f577f4e487b7100000000000000000000000000000000000000000000000000000000600052603260045260246000fd5b9060005260206000200160009054906101000a900473ffffffffffffffffffffffffffffffffffffffff1673ffffffffffffffffffffffffffffffffffffffff163373ffffffffffffffffffffffffffffffffffffffff161415611e765760019150611e89565b8080611e819061302a565b915050611dc2565b5080611eca576040517f08c379a0000000000000000000000000000000000000000000000000000000008152600401611ec190612b34565b60405180910390fd5b60008211611f0d576040517f08c379a0000000000000000000000000000000000000000000000000000000008152600401611f0490612b74565b60405180910390fd5b816003819055505050565b600073ffffffffffffffffffffffffffffffffffffffff163373ffffffffffffffffffffffffffffffffffffffff161415611f88576040517f08c379a0000000000000000000000000000000000000000000000000000000008152600401611f7f90612a34565b60405180910390fd5b6000805b6000805490508160ff1610156120535760008160ff1681548110611fd9577f4e487b7100000000000000000000000000000000000000000000000000000000600052603260045260246000fd5b9060005260206000200160009054906101000a900473ffffffffffffffffffffffffffffffffffffffff1673ffffffffffffffffffffffffffffffffffffffff163373ffffffffffffffffffffffffffffffffffffffff1614156120405760019150612053565b808061204b9061302a565b915050611f8c565b5080612094576040517f08c379a000000000000000000000000000000000000000000000000000000000815260040161208b90612b34565b60405180910390fd5b8160ff16600760146101000a81548167ffffffffffffffff021916908367ffffffffffffffff1602179055505050565b6000808573ffffffffffffffffffffffffffffffffffffffff166323b872dd8686866040516024016120f893929190612957565b6040516020818303038152906040529060e01b6020820180517bffffffffffffffffffffffffffffffffffffffffffffffffffffffff83818316178352505050506040516121469190612925565b6000604051808303816000865af19150503d8060008114612183576040519150601f19603f3d011682016040523d82523d6000602084013e612188565b606091505b50915091508180156121b657506000815114806121b55750808060200190518101906121b49190612453565b5b5b6121f5576040517f08c379a00000000000000000000000000000000000000000000000000000000081526004016121ec90612b94565b60405180910390fd5b505050505050565b600061221061220b84612c58565b612c33565b90508281526020810184848401111561222857600080fd5b612233848285612fc6565b509392505050565b60008135905061224a8161344a565b92915050565b60008135905061225f81613461565b92915050565b60008151905061227481613461565b92915050565b60008151905061228981613478565b92915050565b60008151905061229e8161348f565b92915050565b60008083601f8401126122b657600080fd5b8235905067ffffffffffffffff8111156122cf57600080fd5b6020830191508360018202830111156122e757600080fd5b9250929050565b6000813590506122fd816134a6565b92915050565b600082601f83011261231457600080fd5b81516123248482602086016121fd565b91505092915050565b60008135905061233c816134b6565b92915050565b600081519050612351816134b6565b92915050565b600081359050612366816134cd565b92915050565b60008135905061237b816134e4565b92915050565b60006020828403121561239357600080fd5b60006123a18482850161223b565b91505092915050565b6000602082840312156123bc57600080fd5b60006123ca84828501612250565b91505092915050565b6000806000806000608086880312156123eb57600080fd5b60006123f988828901612250565b955050602061240a88828901612250565b945050604061241b8882890161232d565b935050606086013567ffffffffffffffff81111561243857600080fd5b612444888289016122a4565b92509250509295509295909350565b60006020828403121561246557600080fd5b60006124738482850161227a565b91505092915050565b60006020828403121561248e57600080fd5b600061249c848285016122ee565b91505092915050565b600080604083850312156124b857600080fd5b60006124c6858286016122ee565b92505060206124d785828601612357565b9150509250929050565b6000602082840312156124f357600080fd5b60006125018482850161232d565b91505092915050565b60006020828403121561251c57600080fd5b600061252a84828501612342565b91505092915050565b600080600080600080600080610100898b03121561255057600080fd5b600061255e8b828c01612342565b985050602061256f8b828c0161228f565b975050604089015167ffffffffffffffff81111561258c57600080fd5b6125988b828c01612303565b96505060606125a98b828c01612265565b95505060806125ba8b828c01612265565b94505060a06125cb8b828c01612342565b93505060c06125dc8b828c01612342565b92505060e06125ed8b828c0161227a565b9150509295985092959890939650565b60006020828403121561260f57600080fd5b600061261d8482850161236c565b91505092915050565b6000612632838361263e565b60208301905092915050565b61264781612f19565b82525050565b61265681612f19565b82525050565b600061266782612c99565b6126718185612cbc565b935061267c83612c89565b8060005b838110156126ad5781516126948882612626565b975061269f83612caf565b925050600181019050612680565b5085935050505092915050565b6126c381612f53565b82525050565b60006126d482612ca4565b6126de8185612ccd565b93506126ee818560208601612fc6565b80840191505092915050565b6000612707602e83612cd8565b9150612712826130ff565b604082019050919050565b600061272a601e83612cd8565b91506127358261314e565b602082019050919050565b600061274d601783612cd8565b915061275882613177565b602082019050919050565b6000612770601783612cd8565b915061277b826131a0565b602082019050919050565b6000612793600e83612cd8565b915061279e826131c9565b602082019050919050565b60006127b6601883612cd8565b91506127c1826131f2565b602082019050919050565b60006127d9601983612cd8565b91506127e48261321b565b602082019050919050565b60006127fc604b83612cd8565b915061280782613244565b606082019050919050565b600061281f600983612cd8565b915061282a826132b9565b602082019050919050565b6000612842604c83612cd8565b915061284d826132e2565b606082019050919050565b6000612865601d83612cd8565b915061287082613357565b602082019050919050565b6000612888601a83612cd8565b915061289382613380565b602082019050919050565b60006128ab600d83612cd8565b91506128b6826133a9565b602082019050919050565b60006128ce602483612cd8565b91506128d9826133d2565b604082019050919050565b60006128f1601383612cd8565b91506128fc82613421565b602082019050919050565b61291081612f9f565b82525050565b61291f81612fa9565b82525050565b600061293182846126c9565b915081905092915050565b6000602082019050612951600083018461264d565b92915050565b600060608201905061296c600083018661264d565b612979602083018561264d565b6129866040830184612907565b949350505050565b60006040820190506129a3600083018561264d565b6129b06020830184612907565b9392505050565b600060208201905081810360008301526129d1818461265c565b905092915050565b60006020820190506129ee60008301846126ba565b92915050565b60006020820190508181036000830152612a0d816126fa565b9050919050565b60006020820190508181036000830152612a2d8161271d565b9050919050565b60006020820190508181036000830152612a4d81612740565b9050919050565b60006020820190508181036000830152612a6d81612763565b9050919050565b60006020820190508181036000830152612a8d81612786565b9050919050565b60006020820190508181036000830152612aad816127a9565b9050919050565b60006020820190508181036000830152612acd816127cc565b9050919050565b60006020820190508181036000830152612aed816127ef565b9050919050565b60006020820190508181036000830152612b0d81612812565b9050919050565b60006020820190508181036000830152612b2d81612835565b9050919050565b60006020820190508181036000830152612b4d81612858565b9050919050565b60006020820190508181036000830152612b6d8161287b565b9050919050565b60006020820190508181036000830152612b8d8161289e565b9050919050565b60006020820190508181036000830152612bad816128c1565b9050919050565b60006020820190508181036000830152612bcd816128e4565b9050919050565b6000602082019050612be96000830184612907565b92915050565b6000604082019050612c046000830185612907565b612c116020830184612907565b9392505050565b6000602082019050612c2d6000830184612916565b92915050565b6000612c3d612c4e565b9050612c498282612ff9565b919050565b6000604051905090565b600067ffffffffffffffff821115612c7357612c726130b2565b5b612c7c826130e1565b9050602081019050919050565b6000819050602082019050919050565b600081519050919050565b600081519050919050565b6000602082019050919050565b600082825260208201905092915050565b600081905092915050565b600082825260208201905092915050565b6000612cf482612f9f565b9150612cff83612f9f565b925082612d0f57612d0e613083565b5b828204905092915050565b6000808291508390505b6001851115612d6457808604811115612d4057612d3f613054565b5b6001851615612d4f5780820291505b8081029050612d5d856130f2565b9450612d24565b94509492505050565b6000612d7882612f9f565b9150612d8383612fb9565b9250612db07fffffffffffffffffffffffffffffffffffffffffffffffffffffffffffffffff8484612db8565b905092915050565b600082612dc85760019050612e84565b81612dd65760009050612e84565b8160018114612dec5760028114612df657612e25565b6001915050612e84565b60ff841115612e0857612e07613054565b5b8360020a915084821115612e1f57612e1e613054565b5b50612e84565b5060208310610133831016604e8410600b8410161715612e5a5782820a905083811115612e5557612e54613054565b5b612e84565b612e678484846001612d1a565b92509050818404811115612e7e57612e7d613054565b5b81810290505b9392505050565b6000612e9682612f9f565b9150612ea183612f9f565b9250817fffffffffffffffffffffffffffffffffffffffffffffffffffffffffffffffff0483118215151615612eda57612ed9613054565b5b828202905092915050565b6000612ef082612f9f565b9150612efb83612f9f565b925082821015612f0e57612f0d613054565b5b828203905092915050565b6000612f2482612f7f565b9050919050565b6000612f3682612f7f565b9050919050565b60008115159050919050565b6000819050919050565b60007fffffffff0000000000000000000000000000000000000000000000000000000082169050919050565b600073ffffffffffffffffffffffffffffffffffffffff82169050919050565b6000819050919050565b600063ffffffff82169050919050565b600060ff82169050919050565b60005b83811015612fe4578082015181840152602081019050612fc9565b83811115612ff3576000848401525b50505050565b613002826130e1565b810181811067ffffffffffffffff82111715613021576130206130b2565b5b80604052505050565b600061303582612fb9565b915060ff82141561304957613048613054565b5b600182019050919050565b7f4e487b7100000000000000000000000000000000000000000000000000000000600052601160045260246000fd5b7f4e487b7100000000000000000000000000000000000000000000000000000000600052601260045260246000fd5b7f4e487b7100000000000000000000000000000000000000000000000000000000600052604160045260246000fd5b6000601f19601f8301169050919050565b60008160011c9050919050565b7f4572726f723a2043616c6c657220636f756c646e27742062652073616d65207460008201527f6f20746869732061646472657373000000000000000000000000000000000000602082015250565b7f466f722063616c6c65722065787065637465642062652063726561746f720000600082015250565b7f496e76616c69642063726561746f722061646472657373000000000000000000600082015250565b7f496e76616c696420504e46542f4f4341542071756f7465000000000000000000600082015250565b7f496e76616c6964204e4654204944000000000000000000000000000000000000600082015250565b7f546f6f20736d616c6c20707269636520666f7220504e46540000000000000000600082015250565b7f4578706563746564206e6f6e2d7a65726f206164647265737300000000000000600082015250565b7f5061776e45786368616e67652e65786368616e6765546f4f63617428293a204960008201527f6e73756666696369656e742062616c616e6365206f66204f43415420696e207460208201527f686520636f6e7472616374000000000000000000000000000000000000000000604082015250565b7f4e6f74206f776e65720000000000000000000000000000000000000000000000600082015250565b7f5061776e45786368616e67652e65786368616e676546726f6d4f63617428293a60008201527f20496e73756666696369656e742062616c616e6365206f66204f43415420696e60208201527f20746865206163636f756e740000000000000000000000000000000000000000604082015250565b7f496e76616c69642063616c6c65722e204d7573742062652061646d696e000000600082015250565b7f2a2a2a2a2a2a2a2a2a2a2a2a496e76616c69642063616c6c6572000000000000600082015250565b7f496e76616c696420707269636500000000000000000000000000000000000000600082015250565b7f5472616e7366657248656c7065723a205452414e534645525f46524f4d5f464160008201527f494c454400000000000000000000000000000000000000000000000000000000602082015250565b7f41646d696e2067726f75702069732066756c6c00000000000000000000000000600082015250565b61345381612f19565b811461345e57600080fd5b50565b61346a81612f2b565b811461347557600080fd5b50565b61348181612f3d565b811461348c57600080fd5b50565b61349881612f49565b81146134a357600080fd5b50565b600381106134b357600080fd5b50565b6134bf81612f9f565b81146134ca57600080fd5b50565b6134d681612fa9565b81146134e157600080fd5b50565b6134ed81612fb9565b81146134f857600080fd5b5056fea264697066735822122004352919ba4bb42a95163789c54e97e7bb37fcef626c92bf21597882f0527b7a64736f6c63430008040033",
  "immutableReferences": {},
  "source": "// SPDX-License-Identifier: MIT\npragma solidity ^0.8.0;\n\nimport \"@openzeppelin/contracts/token/ERC20/IERC20.sol\"; // openzeppelin 4.5 (for solidity 0.8.x)\nimport \"@openzeppelin/contracts/token/ERC721/IERC721.sol\";\nimport '@uniswap/lib/contracts/libraries/TransferHelper.sol';\nimport './OcxBase.sol';\nimport \"./PawnNFTs.sol\";\n\ncontract PawnExchange is OcxBase {\n    \n    // 2 of 4: for calculation of percentage, another 2: for no fraction\n    // For example: 0.5% = 50 / (10 ** (2 + 2)) => 50\n    //              0.5% of 20000 = (50 * 20000) / (10 ** 4) = 100\n    uint64          private minPnftPrice = 5000;\n\n    event SwappedToOcat (uint256 realPrice, uint256 swapfee);\n    event SwappedFromOcat(uint256 realPrice, uint256 swapBackFee);\n\n    constructor() {\n        creator = payable(msg.sender);\n    }\n\n    function onERC721Received(\n        address payable /*operator*/,\n        address payable /*from*/,\n        uint256 /*tokenId*/,\n        bytes calldata /*data*/\n    ) external pure returns (bytes4) {\n        return this.onERC721Received.selector;\n    }\n\n    modifier validCaller {\n        require(msg.sender != address(this), \"Error: Caller couldn't be same to this address\");\n        require(msg.sender != address(0), \"************Invalid caller\");\n        _;\n    }\n\n    modifier validNftID(uint256 nftId) {\n        require(nftId > 0, \"Invalid NFT ID\");\n        _;\n    }\n\n    function setMinPnftPrice(uint8 _minPnftPrice) public \n    onlyAdmin {\n        minPnftPrice = _minPnftPrice;\n    }\n\n    function setFee(FeeType feeType, uint32 feeValue) public\n    onlyAdmin {\n        fees[feeType] = feeValue;\n    }\n\n    function exchangeToOcat(uint256 nftID) public \n    validNftID(nftID) validCaller \n    returns (uint256 realPrice, uint256 swapFee) {\n        // Get price for the NFT\n        (,,,address currentOwner,,uint256 price,,) = PawnNFTs(payable(address(pnftAddress))).allPawnNFTs(nftID);\n        require(currentOwner == msg.sender, \"Not owner\");\n        require(price >= minPnftPrice, \"Too small price for PNFT\");\n        require(ocatPrice > 0, \"Invalid PNFT/OCAT quote\");\n\n        uint256 quotedPrice = ocatPrice * price;\n        swapFee = quotedPrice * fees[FeeType.PNFT_MINT_FEE] / (10 ** FEE_DECIMAL);\n        realPrice = quotedPrice - swapFee;\n\n        uint256 ocatBalance = IERC20(ocatAddress).balanceOf(address(this));\n        require(ocatBalance >= price, \"PawnExchange.exchangeToOcat(): Insufficient balance of OCAT in the contract\");\n        // safeTransferFrom: send NFT from caller to the address\n        IERC721(pnftAddress).safeTransferFrom(msg.sender, address(this), nftID);\n        // Pay fee in OCAT to this address\n        IERC20(ocatAddress).transfer(address(this), swapFee);\n        // Pay OCAT for the NFT\n        IERC20(ocatAddress).transfer(msg.sender, realPrice);\n        emit SwappedToOcat(realPrice, swapFee);\n        //   Then transfer OCATs from the address to caller\n        // TransferHelper.safeTransferFrom(ocatAddress, address(this), msg.sender, quotedPrice);\n        return (realPrice, swapFee);\n    }\n\n    function exchangeFromOcat(uint256 nftID) public \n    onlyValidCaller returns(uint256 realPrice, uint256 swapBackFee) {\n        uint256 ocatBalance = IERC20(ocatAddress).balanceOf(msg.sender);\n        // Get price for the NFT\n        (,,,,,uint256 price,,) = PawnNFTs(payable(address(pnftAddress))).allPawnNFTs(nftID);\n        // uint256 price = nftItem.price;\n        uint256 quotedPrice = price * ocatPrice;\n        swapBackFee = quotedPrice * fees[FeeType.OCAT_PNFT_SWAP_FEE] / (10 ** FEE_DECIMAL);\n        realPrice = quotedPrice - swapBackFee;\n\n        require(ocatBalance >= quotedPrice, \"PawnExchange.exchangeFromOcat(): Insufficient balance of OCAT in the account\");\n        // safeTransferFrom: send NFT from caller to the address\n        TransferHelper.safeTransferFrom(ocatAddress, msg.sender, address(this), quotedPrice);\n        // Distribute fee among the stakeholders\n\n        // Pay OCAT for the NFT\n        IERC721(pnftAddress).safeTransferFrom(address(this), msg.sender, nftID);\n        //   Then transfer OCATs from the address to caller\n        // TransferHelper.safeTransferFrom(ocatAddress, address(this), msg.sender, quotedPrice);\n        emit SwappedFromOcat(realPrice, swapBackFee);\n    } \n}\n",
  "sourcePath": "/home/cowboy/OCX/OpenchainTestVersion/server/contracts/PawnExchange.sol",
  "compiler": {
    "name": "solc",
    "version": "0.8.4+commit.c7e474f2.Emscripten.clang"
  },
  "schemaVersion": "3.4.6",
  "updatedAt": "2022-04-16T11:16:56.578Z",
  "devdoc": {
    "kind": "dev",
    "methods": {},
    "version": 1
  },
  "userdoc": {
    "kind": "user",
    "methods": {},
    "version": 1
  }
}